{
	"format": "sphinx-sol-ct-artifact-1",
	"address": "0x16378b302f3cf96e14a84284aebd3d2fd6ad40bc",
	"sourceName": "node_modules/@ballkidz/defifa/src/DefifaDeployer.sol",
	"contractName": "DefifaDeployer",
	"chainId": "0x66eee",
	"abi": [
		{
			"type": "constructor",
			"inputs": [
				{
					"name": "hookCodeOrigin",
					"type": "address",
					"internalType": "address"
				},
				{
					"name": "tokenUriResolver",
					"type": "address",
					"internalType": "contract IJB721TokenUriResolver"
				},
				{
					"name": "governor",
					"type": "address",
					"internalType": "contract IDefifaGovernor"
				},
				{
					"name": "controller",
					"type": "address",
					"internalType": "contract IJBController"
				},
				{
					"name": "registry",
					"type": "address",
					"internalType": "contract IJBAddressRegistry"
				},
				{
					"name": "defifaProjectId",
					"type": "uint256",
					"internalType": "uint256"
				},
				{
					"name": "baseProtocolProjectId",
					"type": "uint256",
					"internalType": "uint256"
				},
				{
					"name": "hookStore",
					"type": "address",
					"internalType": "contract IJB721TiersHookStore"
				}
			],
			"stateMutability": "nonpayable"
		},
		{
			"type": "function",
			"name": "BASE_PROTOCOL_FEE_DIVISOR",
			"inputs": [],
			"outputs": [
				{
					"name": "",
					"type": "uint256",
					"internalType": "uint256"
				}
			],
			"stateMutability": "view"
		},
		{
			"type": "function",
			"name": "BASE_PROTOCOL_PROJECT_ID",
			"inputs": [],
			"outputs": [
				{
					"name": "",
					"type": "uint256",
					"internalType": "uint256"
				}
			],
			"stateMutability": "view"
		},
		{
			"type": "function",
			"name": "CONTROLLER",
			"inputs": [],
			"outputs": [
				{
					"name": "",
					"type": "address",
					"internalType": "contract IJBController"
				}
			],
			"stateMutability": "view"
		},
		{
			"type": "function",
			"name": "DEFIFA_FEE_DIVISOR",
			"inputs": [],
			"outputs": [
				{
					"name": "",
					"type": "uint256",
					"internalType": "uint256"
				}
			],
			"stateMutability": "view"
		},
		{
			"type": "function",
			"name": "DEFIFA_PROJECT_ID",
			"inputs": [],
			"outputs": [
				{
					"name": "",
					"type": "uint256",
					"internalType": "uint256"
				}
			],
			"stateMutability": "view"
		},
		{
			"type": "function",
			"name": "GOVERNOR",
			"inputs": [],
			"outputs": [
				{
					"name": "",
					"type": "address",
					"internalType": "contract IDefifaGovernor"
				}
			],
			"stateMutability": "view"
		},
		{
			"type": "function",
			"name": "HOOK_CODE_ORIGIN",
			"inputs": [],
			"outputs": [
				{
					"name": "",
					"type": "address",
					"internalType": "address"
				}
			],
			"stateMutability": "view"
		},
		{
			"type": "function",
			"name": "HOOK_STORE",
			"inputs": [],
			"outputs": [
				{
					"name": "",
					"type": "address",
					"internalType": "contract IJB721TiersHookStore"
				}
			],
			"stateMutability": "view"
		},
		{
			"type": "function",
			"name": "REGISTRY",
			"inputs": [],
			"outputs": [
				{
					"name": "",
					"type": "address",
					"internalType": "contract IJBAddressRegistry"
				}
			],
			"stateMutability": "view"
		},
		{
			"type": "function",
			"name": "TOKEN_URI_RESOLVER",
			"inputs": [],
			"outputs": [
				{
					"name": "",
					"type": "address",
					"internalType": "contract IJB721TokenUriResolver"
				}
			],
			"stateMutability": "view"
		},
		{
			"type": "function",
			"name": "commitmentsFulfilledFor",
			"inputs": [
				{
					"name": "",
					"type": "uint256",
					"internalType": "uint256"
				}
			],
			"outputs": [
				{
					"name": "",
					"type": "bool",
					"internalType": "bool"
				}
			],
			"stateMutability": "view"
		},
		{
			"type": "function",
			"name": "currentGamePhaseOf",
			"inputs": [
				{
					"name": "gameId",
					"type": "uint256",
					"internalType": "uint256"
				}
			],
			"outputs": [
				{
					"name": "",
					"type": "uint8",
					"internalType": "enum DefifaGamePhase"
				}
			],
			"stateMutability": "view"
		},
		{
			"type": "function",
			"name": "currentGamePotOf",
			"inputs": [
				{
					"name": "gameId",
					"type": "uint256",
					"internalType": "uint256"
				},
				{
					"name": "includeCommitments",
					"type": "bool",
					"internalType": "bool"
				}
			],
			"outputs": [
				{
					"name": "",
					"type": "uint256",
					"internalType": "uint256"
				},
				{
					"name": "",
					"type": "address",
					"internalType": "address"
				},
				{
					"name": "",
					"type": "uint256",
					"internalType": "uint256"
				}
			],
			"stateMutability": "view"
		},
		{
			"type": "function",
			"name": "fulfillCommitmentsOf",
			"inputs": [
				{
					"name": "gameId",
					"type": "uint256",
					"internalType": "uint256"
				}
			],
			"outputs": [],
			"stateMutability": "nonpayable"
		},
		{
			"type": "function",
			"name": "fulfilledCommitmentsOf",
			"inputs": [
				{
					"name": "",
					"type": "uint256",
					"internalType": "uint256"
				}
			],
			"outputs": [
				{
					"name": "",
					"type": "uint256",
					"internalType": "uint256"
				}
			],
			"stateMutability": "view"
		},
		{
			"type": "function",
			"name": "launchGameWith",
			"inputs": [
				{
					"name": "launchProjectData",
					"type": "tuple",
					"internalType": "struct DefifaLaunchProjectData",
					"components": [
						{
							"name": "name",
							"type": "string",
							"internalType": "string"
						},
						{
							"name": "projectUri",
							"type": "string",
							"internalType": "string"
						},
						{
							"name": "contractUri",
							"type": "string",
							"internalType": "string"
						},
						{
							"name": "baseUri",
							"type": "string",
							"internalType": "string"
						},
						{
							"name": "tiers",
							"type": "tuple[]",
							"internalType": "struct DefifaTierParams[]",
							"components": [
								{
									"name": "name",
									"type": "string",
									"internalType": "string"
								},
								{
									"name": "reservedRate",
									"type": "uint16",
									"internalType": "uint16"
								},
								{
									"name": "reservedTokenBeneficiary",
									"type": "address",
									"internalType": "address"
								},
								{
									"name": "encodedIpfsUri",
									"type": "bytes32",
									"internalType": "bytes32"
								},
								{
									"name": "shouldUseReservedTokenBeneficiaryAsDefault",
									"type": "bool",
									"internalType": "bool"
								}
							]
						},
						{
							"name": "tierPrice",
							"type": "uint104",
							"internalType": "uint104"
						},
						{
							"name": "token",
							"type": "tuple",
							"internalType": "struct JBAccountingContext",
							"components": [
								{
									"name": "token",
									"type": "address",
									"internalType": "address"
								},
								{
									"name": "decimals",
									"type": "uint8",
									"internalType": "uint8"
								},
								{
									"name": "currency",
									"type": "uint32",
									"internalType": "uint32"
								}
							]
						},
						{
							"name": "mintPeriodDuration",
							"type": "uint24",
							"internalType": "uint24"
						},
						{
							"name": "refundPeriodDuration",
							"type": "uint24",
							"internalType": "uint24"
						},
						{
							"name": "start",
							"type": "uint48",
							"internalType": "uint48"
						},
						{
							"name": "splits",
							"type": "tuple[]",
							"internalType": "struct JBSplit[]",
							"components": [
								{
									"name": "percent",
									"type": "uint32",
									"internalType": "uint32"
								},
								{
									"name": "projectId",
									"type": "uint64",
									"internalType": "uint64"
								},
								{
									"name": "beneficiary",
									"type": "address",
									"internalType": "address payable"
								},
								{
									"name": "preferAddToBalance",
									"type": "bool",
									"internalType": "bool"
								},
								{
									"name": "lockedUntil",
									"type": "uint48",
									"internalType": "uint48"
								},
								{
									"name": "hook",
									"type": "address",
									"internalType": "contract IJBSplitHook"
								}
							]
						},
						{
							"name": "attestationStartTime",
							"type": "uint256",
							"internalType": "uint256"
						},
						{
							"name": "attestationGracePeriod",
							"type": "uint256",
							"internalType": "uint256"
						},
						{
							"name": "defaultAttestationDelegate",
							"type": "address",
							"internalType": "address"
						},
						{
							"name": "defaultTokenUriResolver",
							"type": "address",
							"internalType": "contract IJB721TokenUriResolver"
						},
						{
							"name": "terminal",
							"type": "address",
							"internalType": "contract IJBTerminal"
						},
						{
							"name": "minParticipation",
							"type": "uint256",
							"internalType": "uint256"
						},
						{
							"name": "scorecardTimeout",
							"type": "uint32",
							"internalType": "uint32"
						},
						{
							"name": "timelockDuration",
							"type": "uint256",
							"internalType": "uint256"
						}
					]
				}
			],
			"outputs": [
				{
					"name": "gameId",
					"type": "uint256",
					"internalType": "uint256"
				}
			],
			"stateMutability": "payable"
		},
		{
			"type": "function",
			"name": "nextPhaseNeedsQueueing",
			"inputs": [
				{
					"name": "gameId",
					"type": "uint256",
					"internalType": "uint256"
				}
			],
			"outputs": [
				{
					"name": "",
					"type": "bool",
					"internalType": "bool"
				}
			],
			"stateMutability": "view"
		},
		{
			"type": "function",
			"name": "noContestTriggeredFor",
			"inputs": [
				{
					"name": "",
					"type": "uint256",
					"internalType": "uint256"
				}
			],
			"outputs": [
				{
					"name": "",
					"type": "bool",
					"internalType": "bool"
				}
			],
			"stateMutability": "view"
		},
		{
			"type": "function",
			"name": "onERC721Received",
			"inputs": [
				{
					"name": "",
					"type": "address",
					"internalType": "address"
				},
				{
					"name": "",
					"type": "address",
					"internalType": "address"
				},
				{
					"name": "",
					"type": "uint256",
					"internalType": "uint256"
				},
				{
					"name": "",
					"type": "bytes",
					"internalType": "bytes"
				}
			],
			"outputs": [
				{
					"name": "",
					"type": "bytes4",
					"internalType": "bytes4"
				}
			],
			"stateMutability": "pure"
		},
		{
			"type": "function",
			"name": "safetyParamsOf",
			"inputs": [
				{
					"name": "gameId",
					"type": "uint256",
					"internalType": "uint256"
				}
			],
			"outputs": [
				{
					"name": "minParticipation",
					"type": "uint256",
					"internalType": "uint256"
				},
				{
					"name": "scorecardTimeout",
					"type": "uint32",
					"internalType": "uint32"
				}
			],
			"stateMutability": "view"
		},
		{
			"type": "function",
			"name": "timesFor",
			"inputs": [
				{
					"name": "gameId",
					"type": "uint256",
					"internalType": "uint256"
				}
			],
			"outputs": [
				{
					"name": "",
					"type": "uint48",
					"internalType": "uint48"
				},
				{
					"name": "",
					"type": "uint24",
					"internalType": "uint24"
				},
				{
					"name": "",
					"type": "uint24",
					"internalType": "uint24"
				}
			],
			"stateMutability": "view"
		},
		{
			"type": "function",
			"name": "tokenOf",
			"inputs": [
				{
					"name": "gameId",
					"type": "uint256",
					"internalType": "uint256"
				}
			],
			"outputs": [
				{
					"name": "",
					"type": "address",
					"internalType": "address"
				}
			],
			"stateMutability": "view"
		},
		{
			"type": "function",
			"name": "triggerNoContestFor",
			"inputs": [
				{
					"name": "gameId",
					"type": "uint256",
					"internalType": "uint256"
				}
			],
			"outputs": [],
			"stateMutability": "nonpayable"
		},
		{
			"type": "event",
			"name": "CommitmentPayoutFailed",
			"inputs": [
				{
					"name": "gameId",
					"type": "uint256",
					"indexed": true,
					"internalType": "uint256"
				},
				{
					"name": "amount",
					"type": "uint256",
					"indexed": false,
					"internalType": "uint256"
				},
				{
					"name": "reason",
					"type": "bytes",
					"indexed": false,
					"internalType": "bytes"
				},
				{
					"name": "caller",
					"type": "address",
					"indexed": false,
					"internalType": "address"
				}
			],
			"anonymous": false
		},
		{
			"type": "event",
			"name": "FulfilledCommitments",
			"inputs": [
				{
					"name": "gameId",
					"type": "uint256",
					"indexed": true,
					"internalType": "uint256"
				},
				{
					"name": "pot",
					"type": "uint256",
					"indexed": false,
					"internalType": "uint256"
				},
				{
					"name": "caller",
					"type": "address",
					"indexed": false,
					"internalType": "address"
				}
			],
			"anonymous": false
		},
		{
			"type": "event",
			"name": "LaunchGame",
			"inputs": [
				{
					"name": "gameId",
					"type": "uint256",
					"indexed": true,
					"internalType": "uint256"
				},
				{
					"name": "hook",
					"type": "address",
					"indexed": true,
					"internalType": "contract IDefifaHook"
				},
				{
					"name": "governor",
					"type": "address",
					"indexed": true,
					"internalType": "contract IDefifaGovernor"
				},
				{
					"name": "tokenUriResolver",
					"type": "address",
					"indexed": false,
					"internalType": "contract IJB721TokenUriResolver"
				},
				{
					"name": "caller",
					"type": "address",
					"indexed": false,
					"internalType": "address"
				}
			],
			"anonymous": false
		},
		{
			"type": "event",
			"name": "QueuedNoContest",
			"inputs": [
				{
					"name": "gameId",
					"type": "uint256",
					"indexed": true,
					"internalType": "uint256"
				},
				{
					"name": "caller",
					"type": "address",
					"indexed": false,
					"internalType": "address"
				}
			],
			"anonymous": false
		},
		{
			"type": "error",
			"name": "DefifaDeployer_CantFulfillYet",
			"inputs": [
				{
					"name": "gameId",
					"type": "uint256",
					"internalType": "uint256"
				}
			]
		},
		{
			"type": "error",
			"name": "DefifaDeployer_InvalidCurrency",
			"inputs": [
				{
					"name": "token",
					"type": "address",
					"internalType": "address"
				},
				{
					"name": "currency",
					"type": "uint256",
					"internalType": "uint256"
				}
			]
		},
		{
			"type": "error",
			"name": "DefifaDeployer_InvalidGameConfiguration",
			"inputs": [
				{
					"name": "start",
					"type": "uint256",
					"internalType": "uint256"
				},
				{
					"name": "mintPeriodDuration",
					"type": "uint256",
					"internalType": "uint256"
				},
				{
					"name": "refundPeriodDuration",
					"type": "uint256",
					"internalType": "uint256"
				},
				{
					"name": "tierCount",
					"type": "uint256",
					"internalType": "uint256"
				}
			]
		},
		{
			"type": "error",
			"name": "DefifaDeployer_NoContestAlreadyTriggered",
			"inputs": [
				{
					"name": "gameId",
					"type": "uint256",
					"internalType": "uint256"
				}
			]
		},
		{
			"type": "error",
			"name": "DefifaDeployer_NotNoContest",
			"inputs": [
				{
					"name": "gameId",
					"type": "uint256",
					"internalType": "uint256"
				},
				{
					"name": "phase",
					"type": "uint8",
					"internalType": "enum DefifaGamePhase"
				}
			]
		},
		{
			"type": "error",
			"name": "DefifaDeployer_SplitsDontAddUp",
			"inputs": [
				{
					"name": "totalPercent",
					"type": "uint256",
					"internalType": "uint256"
				},
				{
					"name": "maxPercent",
					"type": "uint256",
					"internalType": "uint256"
				}
			]
		},
		{
			"type": "error",
			"name": "FailedDeployment",
			"inputs": []
		},
		{
			"type": "error",
			"name": "InsufficientBalance",
			"inputs": [
				{
					"name": "balance",
					"type": "uint256",
					"internalType": "uint256"
				},
				{
					"name": "needed",
					"type": "uint256",
					"internalType": "uint256"
				}
			]
		},
		{
			"type": "error",
			"name": "PRBMath_MulDiv_Overflow",
			"inputs": [
				{
					"name": "x",
					"type": "uint256",
					"internalType": "uint256"
				},
				{
					"name": "y",
					"type": "uint256",
					"internalType": "uint256"
				},
				{
					"name": "denominator",
					"type": "uint256",
					"internalType": "uint256"
				}
			]
		}
	],
	"args": [
		"0x9Ab34f70D4212700B1A59f5f0aDA40cD7318d8C4",
		"0x4FBe796000250Eb5A9a229C95b38DbC00Cb54E71",
		"0xb71386F864E7B088BEE34bf7DD78fd6Db6B0F2C7",
		"0xE9593Ea84f7B3736e82F04Ff238A5c6DD1798D93",
		"0x28E93d324E20ADd48bE54DC8510D294922b42712",
		"5",
		"1",
		"0x7033C610d09e0599FdCaD305bA8630ae2F98D573"
	],
	"solcInputHash": "70356c8dedc789dd7bd9c6f3d4ac6ff7",
	"bytecode": "0x610180346101c157601f6148d738819003918201601f19168301916001600160401b038311848410176101c557808492610100946040528339810103126101c1578051906001600160a01b03821682036101c15760208101516001600160a01b03811681036101c15760408201516001600160a01b03811681036101c15760608301516001600160a01b03811681036101c1576080840151916001600160a01b03831683036101c15760a085015160c086015160e090960151969094906001600160a01b03881688036101c157610100526101605260e05260a0526101405260c052608052610120526040516146fd90816101da82396080518181816112950152612574015260a05181818161019d0152818161064501528181610a99015281816114830152818161260601528181612a1201528181612d3d0152818161362e01528181613ed20152614521015260c0518181816112080152612ff8015260e0518181816114c90152612c180152610100518181816108cb01528181610903015281816115f8015261309f015261012051818181610be401526129c301526101405181818161159b015261310f015261016051818181611f1d015261297f0152f35b5f80fd5b634e487b7160e01b5f52604160045260245ffdfe610140806040526004361015610013575f80fd5b5f60a0525f3560e01c90816306433b1b146130fd575080630715610a146130ce5780630e76aef51461308a578063150b7a021461301b5780634047395714612fe15780634366e8ab14612ccc57806357039a9114612c475780636dc0ae2214612c0357806381312a14146129f25780638266e645146129ae57806388a7f53c1461296a578063a178d2f21461293b578063a6f018ad14612920578063b07925d31461288e578063b4dfb086146125b5578063b6674cde14612597578063bece0b6e1461255d578063c55b14c41461021f578063ccf64cdb14610202578063ea78803f146101cc578063ee0fc12114610186578063f2ae5f6e146101575763f98e4baa1461011e575f80fd5b346101515760203660031901126101515760043560a051526002602052602060ff604060a0512054166040519015158152f35b60a05180fd5b346101515760203660031901126101515760043560a0515260a0516020526020604060a0512054604051908152f35b346101515760a051366003190112610151576040517f00000000000000000000000000000000000000000000000000000000000000006001600160a01b03168152602090f35b346101515760203660031901126101515760043560a051526003602052602060018060a01b03604060a051205416604051908152f35b346101515760a05136600319011261015157602060405160148152f35b6020366003190112611e56576001600160401b0360043511611e565760043536036102a0600319820112611e565760405160e05261025e60e0516131a6565b600435600401356001600160401b038111611e56576102849060043691813501016132bd565b60e05152602460043501356001600160401b038111611e56576102ae9060043691813501016132bd565b602060e0510152604460043501356001600160401b038111611e56576102db9060043691813501016132bd565b604060e0510152606460043501356001600160401b038111611e56576103089060043691813501016132bd565b606060e0510152608460043501356001600160401b038111611e56576004350136602382011215611e5657600481013561034181613303565b9161034f6040519384613281565b818352602060048185019360051b8301010190368211611e565760248101925b8284106124b6578585608060e051015260a46004350135906001600160681b0382168203611e565760609160a060e051015260c3190112611e56576040516103b6816131f9565b6103c460c46004350161316a565b815260e4600435013560ff81168103611e565760208201526103eb6101046004350161331a565b604082015260c060e05101526104066101246004350161332b565b60e08051015261041b6101446004350161332b565b61010060e05101526104326101646004350161333b565b61012060e051015261018460043501356001600160401b038111611e56576004350136602382011215611e5657600481013561046d81613303565b9161047b6040519384613281565b8183526020600460c082860194028301010190368211611e5657602401915b818310612412578361014060e05101526101a4600435013561016060e05101526101c4600435013561018060e05101526104d96101e46004350161316a565b60e0516101a0015260043561020401356001600160a01b0381169003611e565761020460043501356101c060e0510152610224600435013560018060a01b0381168103611e56576101e060e0510152610244600435013561020060e05101526105476102646004350161331a565b61022060e0510152610284600435013561024060e051015265ffffffffffff61012060e05101511680155f1461239e57506105a261058f62ffffff60e0805101511642613e6d565b62ffffff61010060e05101511690613e6d565b65ffffffffffff81116123565765ffffffffffff1661012060e05101525b62ffffff60e08051015116158015612315575b61223657608060e051015151608081116122c55763ffffffff61022060e051015116156122365760e05160c0015180516001600160a01b03169061eeee821415806122b3575b6122925763ffffffff61022060e0510151166121d5575b60405163293c499960e01b81526020816004817f00000000000000000000000000000000000000000000000000000000000000006001600160a01b03165afa908115611cf5575f91612192575b5060405163180e2b1160e31b8152306004820152906020908290602490829034906001600160a01b03165af18015611cf5575f6101205261215e575b5060018060a01b0360c060e0510151511663ffffffff600262ffffff60e080510151169262ffffff61010060e05101511665ffffffffffff61012060e05101511661020060e0510151918561022060e051015116966040519461071b866131de565b85526020850192835260408501908152606085019182526080850193845260a08501978852610120515f52600360205260405f209460018060a01b039051169285549065ffffffffffff60a01b905160a01b169162ffffff60d01b905160d01b169262ffffff60e81b905160e81b169360018060e81b039162ffffff60e81b16171617171782555160018201550191511663ffffffff19825416179055608060e0510151516107c981613303565b6107d66040519182613281565b818152601f196107e583613303565b015f5b8181106120d0575050608060e0510151519061080382613303565b916108116040519384613281565b808352610820601f1991613303565b015f5b8181106120bd5750505f608060405161083b81613214565b6060815282602082015282604082015282606082015201525f925b808410611f515750610869600554614356565b608081905260058190556040513360601b6001600160601b0319166020820190815260348201929092526108aa81605481015b03601f198101835282613281565b519020763d602d80600a3d3981f3363d3d373d3d3d363d7300000062ffffff7f000000000000000000000000000000000000000000000000000000000000000060881c16175f526e5af43d82803e903d91602b57fd5bf37f000000000000000000000000000000000000000000000000000000000000000060781b1760205260018060a01b0390603760095ff51660c05260c05115611f425760e0516101c001516001600160a01b03168015611f1a57915b60e05151610120519092905f908072184f03e93ff9f4daa797ed6e38ed64bf6a1f0160401b811015611ef3575b806d04ee2d6d415b85acef8100000000600a921015611ed8575b662386f26fc10000811015611ec4575b6305f5e100811015611eb3575b612710811015611ea4575b6064811015611e96575b1015611e8b575b600a60216001840193610a076109f1866132a2565b956109ff6040519788613281565b8087526132a2565b601f19013660208701378401015b5f1901916f181899199a1a9b1b9c1cb0b131b232b360811b8282061a835304908115610a4357600a90610a15565b5050610a83602860209260405193849167444546494641202360c01b828401528051918291018484015e81015f838201520301601f198101835282613281565b60405163d4a1b4b160e01b8152906020826004817f00000000000000000000000000000000000000000000000000000000000000006001600160a01b03165afa918215611cf5575f92611e5a575b50606060e051015194604060e051015163ffffffff604060c060e05101510151169260018060a01b036101a060e0510151169460c0513b15611e5657610b81906101c4989796959499610b60610ba29594610b4e6040519d8e9d8e633c339d9f60e21b81526101205160048201526101c060248201520190613e7a565b8c81036003190160448e015290613e7a565b6001600160a01b0390921660648b01528982036003190160848b0152613e7a565b6001600160a01b038a1660a48901528781036003190160c489015290613e7a565b6003198682030160e4870152835180825260208201916020808360051b8301019601925f915b838310611d315750505050506101048501526001600160a01b037f000000000000000000000000000000000000000000000000000000000000000016610124850152306101448501819052610164850152610184840152600319838203016101a484015281518082526020600582901b83018101938101925f918101905b838310611d005788875f81808a03818360c0515af18015611cf557611ce1575b50604061010081905280519190610c7d9083613281565b6001825260a0515b61010051601f19018110611cae575060c060e0510151610ca483613a6a565b52610cae82613a6a565b50610100515191610cc26101005184613281565b6001835260a0515b61010051601f19018110611c97575060e0516101e00151610100515191906001600160a01b0316610cfa8361318b565b82526020820152610d0a83613a6a565b52610d1482613a6a565b5060e051610100015162ffffff161580159290611c8e5760ff60035b1690610d3b82613303565b91610d4b61010051519384613281565b808352610d5a601f1991613303565b0160a0515b818110611b89575050610da2610d8f65ffffffffffff61012060e05101511662ffffff60e08051015116906146d2565b62ffffff61010060e051015116906146d2565b62ffffff60e0805101511663ffffffff6101005160c060e051015101511661ffff610de56101005151610dd48161318b565b60a051815260016020820152614364565b16610100515191610df5836131a6565b60a051835260a05160208401526101005183015260a051606083015260a051608083015260a05160a083015260a05160c083015260a05160e083015260a05161010083015260a05161012083015260a05161014083015260a05161016083015260a05161018083015260a0516101a083015260016101c083015260016101e0830152600161020083015260c051610220830152610240820152610e966139df565b90610e9f613a18565b9265ffffffffffff610100515195610eb6876131c2565b168552602085015260a0516101005185015260a051606085015260a051608085015260a084015260c083015260e0820152610ef083613a6a565b52610efa82613a6a565b50600193611a03575b610100515160409490610f168682613281565b6001815260a0515b601f19870181106119da575063ffffffff6101005160c060e0510151015116610100515190610f4c8261318b565b6001600160e01b0382526020820152610f6482613a6a565b52610f6e81613a6a565b50610100515190610f7f8783613281565b6001825260a0515b601f19880181106119a2575060e0516101e081015160c0909101515160a0516001600160a01b03928316939190921691610fc090613303565b91610fd061010051519384613281565b60a0518352601f19610fe360a051613303565b0160a0515b81811061197957505061010051519361100085613266565b8452602084015261010051830152606082015261101c82613a6a565b5261102681613a6a565b5065ffffffffffff61012060e0510151169063ffffffff6101005160c060e05101510151169661ffff61107261010051516110608161318b565b60a051815260a0516020820152614364565b166101005151986110828a6131a6565b60a0518a5260a05160208b0152610100518a0152600160608a015260a05160808a015260a05160a08a015260a05160c08a015260a05160e08a015260a0516101008a015260a0516101208a015260a0516101408a015260a0516101608a015260016101808a015260a0516101a08a015260016101c08a015260016101e08a015260016102008a015260c0516102208a015261024089015260018060a01b0360c060e051015151169761014060e051015198895160a0515063047868c060a0515060a051509a60a0515060a0515b82811061195b5750633b9aca008c1161193c576101205160a0515260046020528b6101005160a0512055600282018211611858576111a49b829161119560028401613303565b9161010051519e8f9384613281565b60028401808452601f19906111b890613303565b0160a0515b8181106118e657505060a0519182905b858210611870575050611265936111e661125f9261462b565b9361010051516111f5816131de565b63ffffffff861681526001600160401b037f000000000000000000000000000000000000000000000000000000000000000016602082015260c0516101005182015260a051606082015260a051608082015260a05160a08201526112598383613a9b565b52613a9b565b50613e6d565b633b9aca009081039081116118585763ffffffff610100515191611288836131de565b1681526001600160401b037f000000000000000000000000000000000000000000000000000000000000000016602082015260c0516101005182015260a051606082015260a051608082015260a05160a082015260028201600183011161185857611304916001916112fc8383018f613a9b565b52018b613a9b565b506101005151926113158185613281565b6001845260a0519798975b601f1982018110611827575050906113c295949392916113fa999a61010051519161134a8361318b565b8252602082015261135a83613a6a565b5261136482613a6a565b50610100515193611374856131c2565b845260a051602085015260a0516101005185015260a051606085015260a051608085015260a084015260c083015260e08201526113b082614356565b506113bb8285613a9b565b5282613a9b565b5061140c602060e05101519161010051519485936307128b6b60e31b855261012051600486015260a0602486015260a4850190613e7a565b83810360031901604485015290613b8d565b91600319828403016064830152805180845260208401936020808360051b83010193019460a051915b83831061178357888660208188752630bab731b434b733902232b334b3309033b0b6b29760511b83838303926003198401608486015260168152015261010051018160a05160018060a01b037f0000000000000000000000000000000000000000000000000000000000000000165af1801561171357611754575b5060e051610160810151610180820151610240909201517f00000000000000000000000000000000000000000000000000000000000000006001600160a01b03169392843b156101515761010051516349e9856960e01b815261012051600482015260248101939093526044830152606482015260a0518160848183875af180156117135761173b575b5060c0513b1561015157610100515163f2fde38b60e01b815282600482015260a0518160248160a05160c0515af1801561171357611722575b5061010051516080513360601b6001600160601b0319166020830190815260348301919091527f00000000000000000000000000000000000000000000000000000000000000006001600160a01b0316916115d1816054810161089c565b5190206101005151733d602d80600a3d3981f3363d3d373d3d3d363d7360601b60208201527f000000000000000000000000000000000000000000000000000000000000000060601b6001600160601b03191660348201526e5af43d82803e903d91602b57fd5bf360881b60488201526037815290611651605783613281565b823b15610151576101005151928391636d1e458560e11b8352306004840152602483015260606044830152818061168f60a051956064830190613e7a565b039160a051905af18015611713576116fa575b506101008051516001600160a01b03909216825233602083015260c05161012051915190927f3082991f3dda023098e5849ea3903c6fbfd657dc6f9232f5eb81ad8a7ba161d69190a460206101005151610120518152f35b60a05161170691613281565b60a05161015157826116a2565b61010051513d60a051823e3d90fd5b60a05161172e91613281565b60a0516101515782611573565b60a05161174791613281565b60a051610151578261153a565b6117759060203d60201161177c575b61176d8183613281565b810190613601565b50816114b0565b503d611763565b919390929450601f19828203018352855160206060816101005185019360018060a01b038151168652015193610100518382015284518094520192019060a051905b8082106117e75750505060208060019297019301930190928694929593611435565b9091926020606060019263ffffffff8751858060a01b03815116835260ff85820151168584015261010051015116610100518201520194019201906117c5565b6020906118359a999a6139c6565b82828801015201989798611320565b634e487b7160e01b5f52604160045260245ffd5b634e487b7160e01b60a051526011600452602460a051fd5b9281955063ffffffff6118cf836001959761188e6118d89689613a9b565b516118998383613a9b565b526118a48282613a9b565b50836118bd8a826118b5868d613a9b565b515116614568565b166118c88383613a9b565b5152613a9b565b51511690613e6d565b930190918493918f936111cd565b909294506020919382826101005151926118ff846131de565b60a051845260a0518385015260a0516101005185015260a051606085015260a051608085015260a05160a085015201015201918493918f936111bd565b8b6317b5093760e11b60a05152600452633b9aca00602452604460a051fd5b9b61197260019163ffffffff8f6118cf9086613a9b565b9c0161114f565b602090610100515161198a8161318b565b60a051815260a0518382015282828801015201610fe8565b60209061010051516119b381613266565b60a051815260a0518382015260606101005182015260608082015282828601015201610f87565b60209061010051516119eb8161318b565b60a051815260a0518382015282828501015201610f1e565b611a2965ffffffffffff61012060e05101511662ffffff61010060e051015116906146d2565b9362ffffff61010060e0510151169063ffffffff6101005160c060e05101510151169061ffff611a706101005151611a608161318b565b60a0518152836020820152614364565b1690610100515192611a81846131a6565b60a051845260a05160208501526101005184015280606084015260a051608084015260a05160a084015260a05160c084015260a05160e084015260a05161010084015260a05161012084015260a05161014084015260a05161016084015260a05161018084015260a0516101a0840152806101c0840152806101e084015261020083015260c051610220830152610240820152611b1c6139df565b90611b25613a18565b9265ffffffffffff610100515198611b3c8a6131c2565b168852602088015260a0516101005188015260a051606088015260a051608088015260a087015260c086015260e0850152600293611b7983613a8b565b52611b8382613a8b565b50610f03565b6020906101005151611b9a816131c2565b60a051815260a0518382015260a0516101005182015260a051606082015260a05160808201526101005151611bce816131a6565b60a051815260a0518482015260a0516101005182015260a051606082015260a051608082015260a05160a082015260a05160c082015260a05160e082015260a05161010082015260a05161012082015260a05161014082015260a05161016082015260a05161018082015260a0516101a082015260a0516101c082015260a0516101e082015260a05161020082015260a05161022082015260a05161024082015260a0820152606060c0820152606060e082015282828701015201610d5f565b60ff6002610d30565b602090611ca26139c6565b82828701015201610cca565b6020906101005151611cbf816131f9565b60a051815260a0518382015260a0516101005182015282828601015201610c85565b5f611ceb91613281565b5f60a05281610c66565b6040513d5f823e3d90fd5b919395509193602080611d1f600193601f198682030187528951613e7a565b97019301930190928695949293610c46565b919397985091939495602080611e41600193601f198682030187526102206101408d516001600160681b03815116845263ffffffff86820151168685015263ffffffff604082015116604085015261ffff6060820151166060850152878060a01b03608082015116608085015260a081015160a085015262ffffff60c08201511660c085015260ff60e08201511660e085015260c0610100820151805115156101008701528781015115156101208701526040810151151584870152606081015115156101608701526080810151151561018087015260a081015115156101a0870152015115156101c085015263ffffffff610120820151166101e0850152015191816102008201520190613aaf565b99019301930190928998979695949293610bc8565b5f80fd5b611e7d91925060203d602011611e84575b611e758183613281565b810190613e4e565b9086610ad1565b503d611e6b565b6001909101906109dc565b6064600291049301926109d5565b612710600491049301926109cb565b6305f5e100600891049301926109c0565b662386f26fc10000601091049301926109b3565b6d04ee2d6d415b85acef8100000000602091049301926109a3565b50610120516040925072184f03e93ff9f4daa797ed6e38ed64bf6a1f0160401b9004610989565b507f00000000000000000000000000000000000000000000000000000000000000009161095c565b63b06ebf3d60e01b5f5260045ffd5b611f6184608060e0510151613a9b565b51936001600160681b0360a060e0510151169461ffff6020820151169560018060a01b036040830151166060830151608084015115159060405191611fa58361324b565b5f835260208301525f60408301525f606083015260016080830152600160a08301525f60c08301526001600160401b035f116118445760405192611fea602085613281565b5f84525f805b81811061208257505060019798999a6040519561200c8761322f565b8652633b9ac9ff60208701525f60408701526060860152608085015260a08401525f60c08401525f60e08401526101008301525f6101208301526101408201526120568387613a9b565b526120618286613a9b565b505161206d8287613a9b565b526120788186613a9b565b5001929190610856565b602090604051612091816131de565b5f81525f838201525f60408201525f60608201525f60808201525f60a082015282828901015201611ff0565b6060602082860181019190915201610823565b6020906040516120df8161322f565b5f81525f838201525f60408201525f60608201525f60808201525f60a08201525f60c08201525f60e08201526040516121178161324b565b5f81525f848201525f60408201525f60608201525f60808201525f60a08201525f60c08201526101008201525f6101208201526060610140820152828286010152016107e8565b6020813d60201161218a575b8161217760209383613281565b81010312611e56575161012052806106b9565b3d915061216a565b90506020813d6020116121cd575b816121ad60209383613281565b81010312611e5657516001600160a01b0381168103611e5657602061067d565b3d91506121a0565b61016060e051015165ffffffffffff61012060e0510151168082115f1461228a576121ff91614349565b61223061222263ffffffff61022060e0510151169261018060e051015190613e6d565b61024060e051015190613e6d565b10610630575b60e0805161012081015191810151610100820151608090920151516040516348296efd60e11b815265ffffffffffff909416600485015262ffffff9182166024850152911660448301526064820152608490fd5b50505f6121ff565b604063ffffffff91015116906328eae2fb60e01b5f5260045260245260445ffd5b5063ffffffff60408201511615610619565b60e0805161012081015191810151610100909101516040516348296efd60e11b815265ffffffffffff909316600484015262ffffff91821660248401521660448201526064810191909152608490fd5b5065ffffffffffff61012060e05101511661235061233f62ffffff61010060e05101511642613e6d565b62ffffff60e0805101511690613e6d565b116105d3565b60849062ffffff60e0805101511662ffffff61010060e051015116608060e05101515191604051936348296efd60e11b85526004850152602484015260448301526064820152fd5b62ffffff60e080510151161590816123f3575b50156105c05762ffffff6123e765ffffffffffff61012060e0510151166123e18361010060e05101511642613e6d565b90614349565b1660e0805101526105c0565b905061240b62ffffff61010060e05101511642613e6d565b10816123b1565b60c083360312611e565760405190612429826131de565b6124328461331a565b825260208401356001600160401b0381168103611e5657602083015260408401356001600160a01b0381168103611e565760408301526124746060850161317e565b60608301526124856080850161333b565b608083015260a0840135906001600160a01b0382168203611e56578260209260a060c095015281520192019161049a565b83356001600160401b038111611e56576004908301019060a0601f198336030112611e5657604051906124e882613214565b60208301356001600160401b038111611e565761250b90602036918601016132bd565b825260408301359161ffff83168303611e565761254d60a06020958695868501526125386060820161316a565b6040850152608081013560608501520161317e565b608082015281520193019261036f565b34611e56575f366003190112611e565760206040517f00000000000000000000000000000000000000000000000000000000000000008152f35b34611e56576020366003190112611e56576125b3600435613e9e565b005b34611e56576040366003190112611e56576004356024358015158103611e5657815f52600360205260018060a01b0360405f2054166040516388bc2ef360e01b815260208160048160018060a01b037f0000000000000000000000000000000000000000000000000000000000000000165afa908115611cf5575f9161286f575b50604051630862026560e41b8152600481018590526001600160a01b038381166024830152909160209183916044918391165afa908115611cf5575f91612850575b50604051633a01714f60e01b8152600481018590526001600160a01b0383811660248301529190911693606082604481885afa918215611cf5575f926127e0575b5060405163507f146560e01b8152602081600481895afa958615611cf557612726968386926020945f936127c1575b5060405163467f4cb960e01b81526001600160a01b039182166004820152602481019290925290921660448301529096879190829081906064820190565b03916001600160a01b03165afa908115611cf5575f9161278c575b606095508194612769575b5050602060ff910151169060405192835260208301526040820152f35b60ff929450602091612785915f525f835260405f205490613e6d565b939161274c565b90506020853d6020116127b9575b816127a760209383613281565b81010312611e56576060945190612741565b3d915061279a565b6127d9919350853d8711611e8457611e758183613281565b918a6126e8565b9091506060813d606011612848575b816127fc60609383613281565b81010312611e565760405190612811826131f9565b61281a8161345a565b8252602081015160ff81168103611e5657602083015261283c90604001613361565b604082015290856126b9565b3d91506127ef565b612869915060203d602011611e8457611e758183613281565b84612678565b612888915060203d602011611e8457611e758183613281565b84612636565b34611e56576020366003190112611e56576004355f526003602052606060405f20604051906128bc826131de565b805460018060a01b038116835265ffffffffffff8160a01c169283602082015260a063ffffffff600262ffffff8560d01c169485604086015260e81c9586898601526001810154608086015201541691015260405192835260208301526040820152f35b34611e56575f366003190112611e5657602060405160288152f35b34611e56576020366003190112611e56576004355f526001602052602060ff60405f2054166040519015158152f35b34611e56575f366003190112611e56576040517f00000000000000000000000000000000000000000000000000000000000000006001600160a01b03168152602090f35b34611e56575f366003190112611e56576040517f00000000000000000000000000000000000000000000000000000000000000006001600160a01b03168152602090f35b34611e56576020366003190112611e565760405163d4a1b4b160e01b81527f00000000000000000000000000000000000000000000000000000000000000006001600160a01b0316906004803590602090839081865afa918215611cf557602492610120915f91612be4575b506040516321d1336160e11b81526004810184905293849182906001600160a01b03165afa918215611cf5575f92612ba2575b5060206004936040519485809263d4a1b4b160e01b82525afa928315611cf5575f93612b7d575b5060405163855a54ed60e01b815260048101919091529161014090839060249082906001600160a01b03165afa8015611cf5575f90612b33575b6020925063ffffffff60808301511615159182612b16575b50506040519015158152f35b65ffffffffffff8092935084809201511692015116148280612b0a565b506101403d8111612b76575b612b498184613281565b820161014083820312611e5657610120612b6560069285613372565b9301511015611e5657602091612af2565b503d612b3f565b610140919350612b9b9060203d602011611e8457611e758183613281565b9290612ab8565b9291506101203d8111612bdd575b612bba8185613281565b830161012084820312611e5657612bd5602091600495613372565b929350612a91565b503d612bb0565b612bfd915060203d602011611e8457611e758183613281565b85612a5e565b34611e56575f366003190112611e56576040517f00000000000000000000000000000000000000000000000000000000000000006001600160a01b03168152602090f35b34611e56576020366003190112611e56576004355f5260036020526040805f2060a08251612c74816131de565b8254600180841b038116825265ffffffffffff81841c16602083015262ffffff8160d01c168583015260e81c606082015263ffffffff6002600185015494856080850152015416918291015282519182526020820152f35b34611e56576020366003190112611e5657600435612ce981613610565b6006811015612fcd5760058103612fb75750805f52600260205260ff60405f205416612fa5575f8181526002602052604090819020805460ff19166001179055516320c94b1360e11b8152600481018290527f00000000000000000000000000000000000000000000000000000000000000006001600160a01b03169061038081602481855afa908115611cf557604092602092612ed3925f91612f74575b50612d916138d0565b9063ffffffff86820151169061022060018060a01b039101511661ffff612dc98851612dbc8161318b565b5f81525f89820152614364565b1690875192612dd7846131a6565b5f84525f8885015288840152600160608401525f60808401525f60a08401525f60c08401525f60e08401525f6101008401525f6101208401525f6101408401525f61016084015260016101808401525f6101a084015260016101c084015260016101e08401526001610200840152610220830152610240820152612e596139df565b612e61613a18565b90875192612e6e846131c2565b5f84525f888501525f898501525f60608501525f608085015260a084015260c083015260e0820152612e9f82613a6a565b52612ea981613a6a565b505f855195869485936303141db760e41b8552896004860152606060248601526064850190613b8d565b7f4465666966612067616d653a206e6f20636f6e746573742e000000000000000087858303926003198401604488015260188152015201925af18015611cf557612f45575b507f9b148a463b302341922ada41a3ae174156303492e0c4335ee452ad4ebe65d7426020604051338152a2005b6020813d602011612f6c575b81612f5e60209383613281565b81010312611e565751612f18565b3d9150612f51565b612f9691506103803d8111612f9e575b612f8e8183613281565b81019061346e565b905086612d88565b503d612f84565b638185786b60e01b5f5260045260245ffd5b906315fb13c560e31b5f5260045260245260445ffd5b634e487b7160e01b5f52602160045260245ffd5b34611e56575f366003190112611e565760206040517f00000000000000000000000000000000000000000000000000000000000000008152f35b34611e56576080366003190112611e565761303461313e565b5061303d613154565b506064356001600160401b038111611e565736602382011215611e565780600401356001600160401b038111611e565736910160240111611e5657604051630a85bd0160e11b8152602090f35b34611e56575f366003190112611e56576040517f00000000000000000000000000000000000000000000000000000000000000006001600160a01b03168152602090f35b34611e56576020366003190112611e56576130ea600435613610565b6040516006821015612fcd576020918152f35b34611e56575f366003190112611e56577f00000000000000000000000000000000000000000000000000000000000000006001600160a01b03168152602090f35b600435906001600160a01b0382168203611e5657565b602435906001600160a01b0382168203611e5657565b35906001600160a01b0382168203611e5657565b35908115158203611e5657565b604081019081106001600160401b0382111761184457604052565b61026081019081106001600160401b0382111761184457604052565b61010081019081106001600160401b0382111761184457604052565b60c081019081106001600160401b0382111761184457604052565b606081019081106001600160401b0382111761184457604052565b60a081019081106001600160401b0382111761184457604052565b61016081019081106001600160401b0382111761184457604052565b60e081019081106001600160401b0382111761184457604052565b608081019081106001600160401b0382111761184457604052565b90601f801991011681019081106001600160401b0382111761184457604052565b6001600160401b03811161184457601f01601f191660200190565b81601f82011215611e56578035906132d4826132a2565b926132e26040519485613281565b82845260208383010111611e5657815f926020809301838601378301015290565b6001600160401b0381116118445760051b60200190565b359063ffffffff82168203611e5657565b359062ffffff82168203611e5657565b359065ffffffffffff82168203611e5657565b519065ffffffffffff82168203611e5657565b519063ffffffff82168203611e5657565b919082610120910312611e565760405161012081018181106001600160401b038211176118445760405280926133a78161334e565b82526133b56020820161334e565b60208301526133c66040820161334e565b60408301526133d76060820161334e565b60608301526133e860808201613361565b608083015260a08101516001600160701b0381168103611e565760a083015261341360c08201613361565b60c083015260e08101516001600160a01b0381168103611e565760e083015261010090810151910152565b519061ffff82168203611e5657565b51908115158203611e5657565b51906001600160a01b0382168203611e5657565b80820392916103808412611e56576134896102609183613372565b9361011f190112611e56576135f8610360604051926134a7846131a6565b6134b4610120820161343e565b84526134c3610140820161343e565b60208501526134d56101608201613361565b60408501526134e7610180820161344d565b60608501526134f96101a0820161344d565b608085015261350b6101c0820161344d565b60a085015261351d6101e0820161344d565b60c085015261352f610200820161344d565b60e0850152613541610220820161344d565b610100850152613554610240820161344d565b610120850152613567610260820161344d565b61014085015261357a610280820161344d565b61016085015261358d6102a0820161344d565b6101808501526135a06102c0820161344d565b6101a08501526135b36102e0820161344d565b6101c08501526135c6610300820161344d565b6101e08501526135d9610320820161344d565b6102008501526135ec610340820161345a565b6102208501520161343e565b61024082015290565b90816020910312611e56575190565b6040516320c94b1360e11b81526004810182905290610380826024817f00000000000000000000000000000000000000000000000000000000000000006001600160a01b03165afa8015611cf5575f925f916138ab575b5065ffffffffffff83511680156138a3576001811461389a5760021480613882575b61387a5761022001805160405163d3fef14360e01b815291929190602090829060049082906001600160a01b03165afa908115611cf5575f91613840575b5061383857805f52600260205260ff60405f205416613830575f52600360205260405f20604051916136f8836131de565b815460018060a01b038116845265ffffffffffff8160a01c16602085015262ffffff8160d01c16604085015260e81c6060840152600182015460a063ffffffff6002608087019584875201541694019384526137b4575b50505163ffffffff168015159182613772575b505061376d57600390565b600590565b65ffffffffffff91925060600151160165ffffffffffff81116137a05765ffffffffffff1642115f80613762565b634e487b7160e01b5f52601160045260245ffd5b516040516307ba546160e01b81529190602090839060049082906001600160a01b03165afa918215611cf5575f926137fc575b5051116137f5575f8061374f565b5050600590565b9091506020813d602011613828575b8161381860209383613281565b81010312611e565751905f6137e7565b3d915061380b565b505050600590565b505050600490565b90506020813d602011613872575b8161385b60209383613281565b81010312611e565761386c9061344d565b5f6136c7565b3d915061384e565b505050600290565b50815f52600360205260405f205460e81c1515613689565b50505050600190565b505050505f90565b90506138c79192506103803d8111612f9e57612f8e8183613281565b9190915f613667565b604080519091906138e18382613281565b6001815291601f1901825f5b8281106138f957505050565b602090604051613908816131c2565b5f81525f838201525f60408201525f60608201525f608082015260405161392e816131a6565b5f81525f848201525f60408201525f60608201525f60808201525f60a08201525f60c08201525f60e08201525f6101008201525f6101208201525f6101408201525f6101608201525f6101808201525f6101a08201525f6101c08201525f6101e08201525f6102008201525f6102208201525f61024082015260a0820152606060c0820152606060e0820152828285010152016138ed565b604051906139d38261318b565b60606020835f81520152565b604051906139ee602083613281565b5f80835282815b828110613a0157505050565b602090613a0c6139c6565b828285010152016139f5565b60405190613a27602083613281565b5f80835282815b828110613a3a57505050565b602090604051613a4981613266565b5f81525f838201526060604082015260608082015282828501015201613a2e565b805115613a775760200190565b634e487b7160e01b5f52603260045260245ffd5b805160011015613a775760400190565b8051821015613a775760209160051b010190565b90602080835192838152019201905f5b818110613acc5750505090565b909192602060c0600192865163ffffffff81511682526001600160401b03848201511684830152848060a01b03604082015116604083015260608101511515606083015265ffffffffffff608082015116608083015260a08580821b039101511660a08201520194019101919091613abf565b90602080835192838152019201905f5b818110613b5c5750505090565b825180516001600160e01b0316855260209081015163ffffffff168186015260409094019390920191600101613b4f565b9080602083519182815201916020808360051b8301019401925f915b838310613bb857505050505090565b9091929394601f19828203018352855161034082019065ffffffffffff815116835263ffffffff60208201511660208401526001600160701b03604082015116604084015263ffffffff606082015116606084015260018060a01b03608082015116608084015261ffff61024060a08301518281511660a08701528260208201511660c087015263ffffffff60408201511660e0870152606081015115156101008701526080810151151561012087015260a0810151151561014087015260c0810151151561016087015260e0810151151561018087015261010081015115156101a087015261012081015115156101c087015261014081015115156101e0870152610160810151151561020087015261018081015115156102208701526101a08101511515828701526101c081015115156102608701526101e0810151151561028087015261020081015115156102a087015260018060a01b03610220820151166102c08701520151166102e084015260c0810151916103406103008501528251809152610360840160206103608360051b8701019401915f5b818110613e13575050505060e0015191610320818303910152815180825260208201906020808260051b8501019401925f5b828110613da657505050505060208060019297019301930191939290613ba9565b9091929394602080613e06600193601f19878203018952895190858060a01b038251168152858060a01b038483015116848201526060613df56040840151608060408501526080840190613b3f565b920151906060818403910152613b3f565b9701950193929101613d85565b90919294602080613e4260019361035f198b82030188526040838b518051845201519181858201520190613aaf565b97019401929101613d53565b90816020910312611e5657516001600160a01b0381168103611e565790565b919082018092116137a057565b805180835260209291819084018484015e5f828201840152601f01601f1916010190565b805f52600160205260ff60405f20541661434657805f52600160205260405f20600160ff1982541617905560018060a01b037f0000000000000000000000000000000000000000000000000000000000000000166040516320c94b1360e11b815282600482015261038081602481855afa908115611cf5575f91614325575b5061022081015160405163d3fef14360e01b815290602090829060049082906001600160a01b03165afa908115611cf5575f916142eb575b50156142d857825f5260036020526004602060018060a01b0360405f20541693604051928380926388bc2ef360e01b82525afa908115611cf5575f916142b9575b50604051630862026560e41b8152600481018590526001600160a01b038481166024830152909160209183916044918391165afa908115611cf5575f9161429a575b5060405163507f146560e01b81526001600160a01b039190911692602082600481875afa918215611cf5575f92614279575b5060405163467f4cb960e01b81526001600160a01b038581166004830152602482018790528281166044830152909260209184916064918391165afa938415611cf55785925f95614242575b50841561420557825f526004602052602061407560405f20548761463d565b92845f525f82528360405f205560a463ffffffff604088015116915f604051958694859363cfaf583960e01b85528a6004860152602485015288604485015260648401528160848401525af190816141aa575b50927fe5d1da1fa18899cfe28f941d7fc5ecd5b8429a787f4f8db4313280d644fcc40f94926141809261419695155f146141a3577f87cc2a3ee10f5f5a833bada5fda06a13df2fd6a089a2fb2b7e56010f552a2f83903d1561419b573d9061412f826132a2565b9161413d6040519384613281565b82523d5f602084013e5b835f525f6020525f60408120556141706040519283928352606060208401526060830190613e7a565b3360408301520390a25b85614388565b6040805191825233602083015290918291820190565b0390a2565b606090614147565b505061417a565b94925090926020853d6020116141fd575b816141c860209383613281565b81010312611e5657919350909184917fe5d1da1fa18899cfe28f941d7fc5ecd5b8429a787f4f8db4313280d644fcc40f6140c8565b3d91506141bb565b50506142119250614388565b7fe5d1da1fa18899cfe28f941d7fc5ecd5b8429a787f4f8db4313280d644fcc40f604080515f8152336020820152a2565b925093506020823d602011614271575b8161425f60209383613281565b81010312611e5657849151935f614056565b3d9150614252565b61429391925060203d602011611e8457611e758183613281565b905f61400a565b6142b3915060203d602011611e8457611e758183613281565b5f613fd8565b6142d2915060203d602011611e8457611e758183613281565b5f613f96565b82631da23c2f60e21b5f5260045260245ffd5b90506020813d60201161431d575b8161430660209383613281565b81010312611e56576143179061344d565b5f613f55565b3d91506142f9565b61433e91506103803d8111612f9e57612f8e8183613281565b90505f613f1d565b50565b919082039182116137a057565b5f1981146137a05760010190565b905f91805161437f575b6020015161437857565b9060021790565b6001925061436e565b6020906143936138d0565b9263ffffffff6040820151169061022060018060a01b039101511661ffff6143cd6040516143c08161318b565b5f81525f87820152614364565b1690604051926143dc846131a6565b5f84525f868501526040840152600160608401525f60808401525f60a08401525f60c08401525f60e08401525f6101008401525f6101208401525f6101408401525f6101608401525f6101808401525f6101a084015260016101c084015260016101e0840152600161020084015261022083015261024082015261445e6139df565b614466613a18565b9060405192614474846131c2565b5f84525f868501525f60408501525f60608501525f608085015260a084015260c083015260e08201526144a684613a6a565b526144b083613a6a565b5060406144db81519485936303141db760e41b85526004850152606060248501526064840190613b8d565b82810360031981016044850152601982527f4465666966612067616d65206861732066696e69736865642e000000000000009185019190915201815f6001600160a01b037f0000000000000000000000000000000000000000000000000000000000000000165af18015611cf5576145505750565b6143469060203d60201161177c5761176d8183613281565b5f19633b9aca00820991633b9aca0082029182808510940393808503941461460a57818410156145ed57633b9aca00829109600182190182168092046002816003021880820260020302808202600203028082026002030280820260020302808202600203028091026002030293600183805f03040190848311900302920304170290565b630c740aef60e31b5f52600452633b9aca0060245260445260645ffd5b5091508115614617570490565b634e487b7160e01b5f52601260045260245ffd5b80156146175766b1a2bc2ec500000490565b91905f905f1981850990808502928380841093039280840393146146c357633b9aca008310156146a55750633b9aca00907f88f2cfb83100cb4e69e7c79c58b316e597157d372fb9787e8e47ce423a2e9c6d94950990828211900360f71b910360091c170290565b60649186630c740aef60e31b8352600452602452633b9aca00604452fd5b505050633b9aca009192500490565b9065ffffffffffff8091169116039065ffffffffffff82116137a05756fea164736f6c634300081c000a",
	"gitCommit": "npm:@ballkidz/defifa@0.0.59",
	"gitDirty": false,
	"history": []
}