{
	"format": "sphinx-sol-ct-artifact-1",
	"address": "0x3ba60b60933916a7c87d0860dcee62a0ce34e3e2",
	"sourceName": "node_modules/@openzeppelin/contracts/metatx/ERC2771Forwarder.sol",
	"contractName": "ERC2771Forwarder",
	"chainId": "0x66eee",
	"abi": [
		{
			"type": "constructor",
			"inputs": [
				{
					"name": "name",
					"type": "string",
					"internalType": "string"
				}
			],
			"stateMutability": "nonpayable"
		},
		{
			"type": "function",
			"name": "eip712Domain",
			"inputs": [],
			"outputs": [
				{
					"name": "fields",
					"type": "bytes1",
					"internalType": "bytes1"
				},
				{
					"name": "name",
					"type": "string",
					"internalType": "string"
				},
				{
					"name": "version",
					"type": "string",
					"internalType": "string"
				},
				{
					"name": "chainId",
					"type": "uint256",
					"internalType": "uint256"
				},
				{
					"name": "verifyingContract",
					"type": "address",
					"internalType": "address"
				},
				{
					"name": "salt",
					"type": "bytes32",
					"internalType": "bytes32"
				},
				{
					"name": "extensions",
					"type": "uint256[]",
					"internalType": "uint256[]"
				}
			],
			"stateMutability": "view"
		},
		{
			"type": "function",
			"name": "execute",
			"inputs": [
				{
					"name": "request",
					"type": "tuple",
					"internalType": "struct ERC2771Forwarder.ForwardRequestData",
					"components": [
						{
							"name": "from",
							"type": "address",
							"internalType": "address"
						},
						{
							"name": "to",
							"type": "address",
							"internalType": "address"
						},
						{
							"name": "value",
							"type": "uint256",
							"internalType": "uint256"
						},
						{
							"name": "gas",
							"type": "uint256",
							"internalType": "uint256"
						},
						{
							"name": "deadline",
							"type": "uint48",
							"internalType": "uint48"
						},
						{
							"name": "data",
							"type": "bytes",
							"internalType": "bytes"
						},
						{
							"name": "signature",
							"type": "bytes",
							"internalType": "bytes"
						}
					]
				}
			],
			"outputs": [],
			"stateMutability": "payable"
		},
		{
			"type": "function",
			"name": "executeBatch",
			"inputs": [
				{
					"name": "requests",
					"type": "tuple[]",
					"internalType": "struct ERC2771Forwarder.ForwardRequestData[]",
					"components": [
						{
							"name": "from",
							"type": "address",
							"internalType": "address"
						},
						{
							"name": "to",
							"type": "address",
							"internalType": "address"
						},
						{
							"name": "value",
							"type": "uint256",
							"internalType": "uint256"
						},
						{
							"name": "gas",
							"type": "uint256",
							"internalType": "uint256"
						},
						{
							"name": "deadline",
							"type": "uint48",
							"internalType": "uint48"
						},
						{
							"name": "data",
							"type": "bytes",
							"internalType": "bytes"
						},
						{
							"name": "signature",
							"type": "bytes",
							"internalType": "bytes"
						}
					]
				},
				{
					"name": "refundReceiver",
					"type": "address",
					"internalType": "address payable"
				}
			],
			"outputs": [],
			"stateMutability": "payable"
		},
		{
			"type": "function",
			"name": "nonces",
			"inputs": [
				{
					"name": "owner",
					"type": "address",
					"internalType": "address"
				}
			],
			"outputs": [
				{
					"name": "",
					"type": "uint256",
					"internalType": "uint256"
				}
			],
			"stateMutability": "view"
		},
		{
			"type": "function",
			"name": "verify",
			"inputs": [
				{
					"name": "request",
					"type": "tuple",
					"internalType": "struct ERC2771Forwarder.ForwardRequestData",
					"components": [
						{
							"name": "from",
							"type": "address",
							"internalType": "address"
						},
						{
							"name": "to",
							"type": "address",
							"internalType": "address"
						},
						{
							"name": "value",
							"type": "uint256",
							"internalType": "uint256"
						},
						{
							"name": "gas",
							"type": "uint256",
							"internalType": "uint256"
						},
						{
							"name": "deadline",
							"type": "uint48",
							"internalType": "uint48"
						},
						{
							"name": "data",
							"type": "bytes",
							"internalType": "bytes"
						},
						{
							"name": "signature",
							"type": "bytes",
							"internalType": "bytes"
						}
					]
				}
			],
			"outputs": [
				{
					"name": "",
					"type": "bool",
					"internalType": "bool"
				}
			],
			"stateMutability": "view"
		},
		{
			"type": "event",
			"name": "EIP712DomainChanged",
			"inputs": [],
			"anonymous": false
		},
		{
			"type": "event",
			"name": "ExecutedForwardRequest",
			"inputs": [
				{
					"name": "signer",
					"type": "address",
					"indexed": true,
					"internalType": "address"
				},
				{
					"name": "nonce",
					"type": "uint256",
					"indexed": false,
					"internalType": "uint256"
				},
				{
					"name": "success",
					"type": "bool",
					"indexed": false,
					"internalType": "bool"
				}
			],
			"anonymous": false
		},
		{
			"type": "error",
			"name": "ERC2771ForwarderExpiredRequest",
			"inputs": [
				{
					"name": "deadline",
					"type": "uint48",
					"internalType": "uint48"
				}
			]
		},
		{
			"type": "error",
			"name": "ERC2771ForwarderInvalidSigner",
			"inputs": [
				{
					"name": "signer",
					"type": "address",
					"internalType": "address"
				},
				{
					"name": "from",
					"type": "address",
					"internalType": "address"
				}
			]
		},
		{
			"type": "error",
			"name": "ERC2771ForwarderMismatchedValue",
			"inputs": [
				{
					"name": "requestedValue",
					"type": "uint256",
					"internalType": "uint256"
				},
				{
					"name": "msgValue",
					"type": "uint256",
					"internalType": "uint256"
				}
			]
		},
		{
			"type": "error",
			"name": "ERC2771UntrustfulTarget",
			"inputs": [
				{
					"name": "target",
					"type": "address",
					"internalType": "address"
				},
				{
					"name": "forwarder",
					"type": "address",
					"internalType": "address"
				}
			]
		},
		{
			"type": "error",
			"name": "FailedCall",
			"inputs": []
		},
		{
			"type": "error",
			"name": "InsufficientBalance",
			"inputs": [
				{
					"name": "balance",
					"type": "uint256",
					"internalType": "uint256"
				},
				{
					"name": "needed",
					"type": "uint256",
					"internalType": "uint256"
				}
			]
		},
		{
			"type": "error",
			"name": "InvalidAccountNonce",
			"inputs": [
				{
					"name": "account",
					"type": "address",
					"internalType": "address"
				},
				{
					"name": "currentNonce",
					"type": "uint256",
					"internalType": "uint256"
				}
			]
		},
		{
			"type": "error",
			"name": "InvalidShortString",
			"inputs": []
		},
		{
			"type": "error",
			"name": "StringTooLong",
			"inputs": [
				{
					"name": "str",
					"type": "string",
					"internalType": "string"
				}
			]
		}
	],
	"args": [
		"Juicebox"
	],
	"solcInputHash": "e7a5729fdd5e0eda83a267c6928d3ac6",
	"bytecode": "0x61016080604052346101895761123e803803809161001d82856101a1565b8339810190602081830312610189578051906001600160401b03821161018957019080601f830112156101895781516001600160401b03811161018d5760405192610072601f8301601f1916602001856101a1565b81845260208401926020838301011161018957815f926020809301855e840101526040918251916100a384846101a1565b600183526020830191603160f81b83526100bc816101c4565b610120526100c98461035a565b61014052519020918260e05251902080610100524660a05282519060208201927f8b73c3c69bb8fe3d512ecc4cf759cc79239f7b179b0ffacaa9a75d522b39400f84528483015260608201524660808201523060a082015260a0815261013060c0826101a1565b5190206080523060c05251610dab9081610493823960805181610c2e015260a05181610ceb015260c05181610bf8015260e05181610c7d01526101005181610ca30152610120518161049c015261014051816104c50152f35b5f80fd5b634e487b7160e01b5f52604160045260245ffd5b601f909101601f19168101906001600160401b0382119082101761018d57604052565b908151602081105f1461023e575090601f8151116101fe5760208151910151602082106101ef571790565b5f198260200360031b1b161790565b604460209160405192839163305a27a960e01b83528160048401528051918291826024860152018484015e5f828201840152601f01601f19168101030190fd5b6001600160401b03811161018d575f54600181811c91168015610350575b602082101461033c57601f811161030a575b50602092601f82116001146102ab57928192935f926102a0575b50508160011b915f199060031b1c1916175f5560ff90565b015190505f80610288565b601f198216935f8052805f20915f5b8681106102f257508360019596106102da575b505050811b015f5560ff90565b01515f1960f88460031b161c191690555f80806102cd565b919260206001819286850151815501940192016102ba565b5f8052601f60205f20910160051c810190601f830160051c015b818110610331575061026e565b5f8155600101610324565b634e487b7160e01b5f52602260045260245ffd5b90607f169061025c565b908151602081105f14610385575090601f8151116101fe5760208151910151602082106101ef571790565b6001600160401b03811161018d57600154600181811c91168015610488575b602082101461033c57601f8111610455575b50602092601f82116001146103f457928192935f926103e9575b50508160011b915f199060031b1c19161760015560ff90565b015190505f806103d0565b601f1982169360015f52805f20915f5b86811061043d5750836001959610610425575b505050811b0160015560ff90565b01515f1960f88460031b161c191690555f8080610417565b91926020600181928685015181550194019201610404565b60015f52601f60205f20910160051c810190601f830160051c015b81811061047d57506103b6565b5f8155600101610470565b90607f16906103a456fe60806040526004361015610011575f80fd5b5f3560e01c806319d8d38c146105c25780637ecebe001461057c57806384b0196e14610484578063ccf96b4a146102375763df905caf14610050575f80fd5b61005936610604565b604081013590813403610220575f9161007182610710565b92919082156101f05781156101ca57801561019c5782610194575b508161018c575b506100b2575b505050156100a357005b63d6bda27560e01b5f5260045ffd5b9091925060018060a01b031690815f5260026020525f8060408120928354936001850190556060860135956100e9602082016106e9565b916101096101416014602061010160a0870187610941565b9490966106e9565b9360405194818692848401998a378201906bffffffffffffffffffffffff199060601b16838201520301600b1981018452018261065c565b519288f192603f5a91041161018a5760407f842fb24a83793558587a3dab2be7674da4a51d09c5542d6dd354e5d0ea70813c9181519081528415156020820152a25f8080610099565bfe5b90505f610093565b91505f61008c565b836101a6876106e9565b636422d02b60e11b5f9081526001600160a01b039283166004529116602452604490fd5b65ffffffffffff6101dd608088016106fd565b634a777ac560e11b5f521660045260245ffd5b6101fc602087016106e9565b63d2650cd160e01b5f9081526001600160a01b039190911660045230602452604490fd5b506370647f7960e01b5f526004523460245260445ffd5b60403660031901126104805760043567ffffffffffffffff8111610480573660238201121561048057806004013567ffffffffffffffff8111610480576024820191602436918360051b01011161048057602435916001600160a01b0383168084036104805715915f915f935f925b8084106102e157505050503481036102cb5750806102c057005b6102c991610974565b005b6370647f7960e01b5f526004523460245260445ffd5b909192936102fe9060406102f6878588610692565b0135906106c8565b9361030a818386610692565b5f908461031682610710565b93610446575b8261043e575b5081610436575b5061035e575b505015610342575b6001019291906102a6565b9461035660019160406102f6898689610692565b959050610337565b90915060018060a01b0316805f52600260205260405f208054906001820190555f806060850135946040610394602083016106e9565b6103a160a0840184610941565b6103eb601460206103b4889795976106e9565b938551948186928484019a8b378201906bffffffffffffffffffffffff199060601b16838201520301600b1981018452018261065c565b519301359088f192603f5a91041161018a5760407f842fb24a83793558587a3dab2be7674da4a51d09c5542d6dd354e5d0ea70813c9181519081528415156020820152a2888061032f565b90508b610329565b91508c610322565b8215610474578115610461578061031c57836101a6866106e9565b65ffffffffffff6101dd608087016106fd565b6101fc602086016106e9565b5f80fd5b34610480575f366003190112610480576105206104c07f00000000000000000000000000000000000000000000000000000000000000006109cb565b6104e97f0000000000000000000000000000000000000000000000000000000000000000610af1565b602061052e604051926104fc838561065c565b5f84525f368137604051958695600f60f81b875260e08588015260e0870190610638565b908582036040870152610638565b4660608501523060808501525f60a085015283810360c08501528180845192838152019301915f5b82811061056557505050500390f35b835185528695509381019392810192600101610556565b34610480576020366003190112610480576004356001600160a01b0381168103610480576001600160a01b03165f90815260026020908152604090912054604051908152f35b346104805760206105da6105d536610604565b610710565b5090826105fc575b50816105f4575b506040519015158152f35b9050826105e9565b9150836105e2565b6020600319820112610480576004359067ffffffffffffffff82116104805760e09082900360031901126104805760040190565b805180835260209291819084018484015e5f828201840152601f01601f1916010190565b90601f8019910116810190811067ffffffffffffffff82111761067e57604052565b634e487b7160e01b5f52604160045260245ffd5b91908110156106b45760051b8101359060de1981360301821215610480570190565b634e487b7160e01b5f52603260045260245ffd5b919082018092116106d557565b634e487b7160e01b5f52601160045260245ffd5b356001600160a01b03811681036104805790565b3565ffffffffffff811681036104805790565b9061071a826106e9565b6020830191610728836106e9565b61074e610734866106e9565b6001600160a01b03165f9081526002602052604090205490565b608086019361075c856106fd565b9261076a60a0890189610941565b939067ffffffffffffffff851161067e5760405195610793601f8701601f19166020018861065c565b85875260208701368784011161048057610872975f60208960429a65ffffffffffff97863783010152519020926040519460208601967f7f96328b83274ebc7c1cf4f7a3abda602b51a78b7fa1d86a2ce353d75e587cac885260018060a01b0316604087015260018060a01b0316606086015260408c0135608086015260608c013560a086015260c08501521660e0830152610100820152610100815261083c6101208261065c565b519020610847610bf5565b906040519161190160f01b8352600283015260228201522061086c60c0870187610941565b91610bc1565b50600481949294101561092d575f61088d60209215966106e9565b6040518381019063572b6c0560e01b8252306024820152602481526108b360448261065c565b51915afa903d5f519083610921575b5082610915575b506108d3906106fd565b94846108ed575b509365ffffffffffff4291161015929190565b9093506001600160a01b0390610902906106e9565b166001600160a01b03831614925f6108da565b151591506108d36108c9565b6020111592505f6108c2565b634e487b7160e01b5f52602160045260245ffd5b903590601e1981360301821215610480570180359067ffffffffffffffff82116104805760200191813603831361048057565b8147106109b4575f80809381938260405161099060208261065c565b526001600160a01b03165af1156109a357565b3d156100a3576040513d5f823e3d90fd5b504763cf47918160e01b5f5260045260245260445ffd5b60ff8114610a115760ff811690601f8211610a0257604051916109ef60408461065c565b6020808452838101919036833783525290565b632cd44ac360e21b5f5260045ffd5b506040515f5f548060011c9160018216918215610ae7575b602084108314610ad3578385528492908115610ab45750600114610a57575b610a549250038261065c565b90565b505f80805290917f290decd9548b62a8d60345a988386fc84ba6bc95484008f6362f93160ef3e5635b818310610a98575050906020610a5492820101610a48565b6020919350806001915483858801015201910190918392610a80565b60209250610a5494915060ff191682840152151560051b820101610a48565b634e487b7160e01b5f52602260045260245ffd5b92607f1692610a29565b60ff8114610b155760ff811690601f8211610a0257604051916109ef60408461065c565b506040515f6001548060011c9160018216918215610bb7575b602084108314610ad3578385528492908115610ab45750600114610b5857610a549250038261065c565b5060015f90815290917fb10e2d527612073b26eecdfd717e6a320cf44b4afac2b0732d9fcbe2b7fa0cf65b818310610b9b575050906020610a5492820101610a48565b6020919350806001915483858801015201910190918392610b83565b92607f1692610b2e565b9060418303610beb57610be49250602081013591604082359201355f1a90610d11565b9192909190565b50505f9160029190565b307f00000000000000000000000000000000000000000000000000000000000000006001600160a01b03161480610ce8575b15610c50577f000000000000000000000000000000000000000000000000000000000000000090565b60405160208101907f8b73c3c69bb8fe3d512ecc4cf759cc79239f7b179b0ffacaa9a75d522b39400f82527f000000000000000000000000000000000000000000000000000000000000000060408201527f000000000000000000000000000000000000000000000000000000000000000060608201524660808201523060a082015260a08152610ce260c08261065c565b51902090565b507f00000000000000000000000000000000000000000000000000000000000000004614610c27565b91907f7fffffffffffffffffffffffffffffff5d576e7357a4501ddfe92f46681b20a08411610d93579160209360809260ff5f9560405194855216868401526040830152606082015282805260015afa15610d88575f516001600160a01b03811615610d7e57905f905f90565b505f906001905f90565b6040513d5f823e3d90fd5b5050505f916003919056fea164736f6c634300081c000a",
	"gitCommit": "3bb8e787092a674050974ca419d12053a921d549",
	"gitDirty": false,
	"history": []
}