{
	"format": "sphinx-sol-ct-artifact-1",
	"address": "0xf309e845c08422e93024a356ac116e5f7e08caa5",
	"sourceName": "node_modules/@bananapus/distributor-v6/src/JB721Distributor.sol",
	"contractName": "JB721Distributor",
	"chainId": "0x66eee",
	"abi": [
		{
			"type": "constructor",
			"inputs": [
				{
					"name": "directory",
					"type": "address",
					"internalType": "contract IJBDirectory"
				},
				{
					"name": "controller",
					"type": "address",
					"internalType": "contract IJBController"
				},
				{
					"name": "revLoans",
					"type": "address",
					"internalType": "contract IREVLoans"
				},
				{
					"name": "revOwner",
					"type": "address",
					"internalType": "contract IREVOwner"
				},
				{
					"name": "initialRoundDuration",
					"type": "uint256",
					"internalType": "uint256"
				},
				{
					"name": "initialVestingRounds",
					"type": "uint256",
					"internalType": "uint256"
				},
				{
					"name": "initialClaimDuration",
					"type": "uint48",
					"internalType": "uint48"
				}
			],
			"stateMutability": "nonpayable"
		},
		{
			"type": "receive",
			"stateMutability": "payable"
		},
		{
			"type": "function",
			"name": "CLAIM_DURATION",
			"inputs": [],
			"outputs": [
				{
					"name": "",
					"type": "uint48",
					"internalType": "uint48"
				}
			],
			"stateMutability": "view"
		},
		{
			"type": "function",
			"name": "CONTROLLER",
			"inputs": [],
			"outputs": [
				{
					"name": "",
					"type": "address",
					"internalType": "contract IJBController"
				}
			],
			"stateMutability": "view"
		},
		{
			"type": "function",
			"name": "DIRECTORY",
			"inputs": [],
			"outputs": [
				{
					"name": "",
					"type": "address",
					"internalType": "contract IJBDirectory"
				}
			],
			"stateMutability": "view"
		},
		{
			"type": "function",
			"name": "MAX_SHARE",
			"inputs": [],
			"outputs": [
				{
					"name": "",
					"type": "uint256",
					"internalType": "uint256"
				}
			],
			"stateMutability": "view"
		},
		{
			"type": "function",
			"name": "REV_LOANS",
			"inputs": [],
			"outputs": [
				{
					"name": "",
					"type": "address",
					"internalType": "contract IREVLoans"
				}
			],
			"stateMutability": "view"
		},
		{
			"type": "function",
			"name": "REV_OWNER",
			"inputs": [],
			"outputs": [
				{
					"name": "",
					"type": "address",
					"internalType": "contract IREVOwner"
				}
			],
			"stateMutability": "view"
		},
		{
			"type": "function",
			"name": "ROUND_DURATION",
			"inputs": [],
			"outputs": [
				{
					"name": "",
					"type": "uint256",
					"internalType": "uint256"
				}
			],
			"stateMutability": "view"
		},
		{
			"type": "function",
			"name": "STARTING_TIMESTAMP",
			"inputs": [],
			"outputs": [
				{
					"name": "",
					"type": "uint256",
					"internalType": "uint256"
				}
			],
			"stateMutability": "view"
		},
		{
			"type": "function",
			"name": "VESTING_ROUNDS",
			"inputs": [],
			"outputs": [
				{
					"name": "",
					"type": "uint256",
					"internalType": "uint256"
				}
			],
			"stateMutability": "view"
		},
		{
			"type": "function",
			"name": "activeVestingLoanIdOf",
			"inputs": [
				{
					"name": "hook",
					"type": "address",
					"internalType": "address"
				},
				{
					"name": "groupId",
					"type": "uint256",
					"internalType": "uint256"
				},
				{
					"name": "tokenId",
					"type": "uint256",
					"internalType": "uint256"
				},
				{
					"name": "token",
					"type": "address",
					"internalType": "contract IERC20"
				}
			],
			"outputs": [
				{
					"name": "",
					"type": "uint256",
					"internalType": "uint256"
				}
			],
			"stateMutability": "view"
		},
		{
			"type": "function",
			"name": "balanceOf",
			"inputs": [
				{
					"name": "hook",
					"type": "address",
					"internalType": "address"
				},
				{
					"name": "token",
					"type": "address",
					"internalType": "contract IERC20"
				}
			],
			"outputs": [
				{
					"name": "",
					"type": "uint256",
					"internalType": "uint256"
				}
			],
			"stateMutability": "view"
		},
		{
			"type": "function",
			"name": "beginVesting",
			"inputs": [
				{
					"name": "hook",
					"type": "address",
					"internalType": "address"
				},
				{
					"name": "tokenIds",
					"type": "uint256[]",
					"internalType": "uint256[]"
				},
				{
					"name": "tokens",
					"type": "address[]",
					"internalType": "contract IERC20[]"
				}
			],
			"outputs": [],
			"stateMutability": "nonpayable"
		},
		{
			"type": "function",
			"name": "beginVesting",
			"inputs": [
				{
					"name": "hook",
					"type": "address",
					"internalType": "address"
				},
				{
					"name": "tierIds",
					"type": "uint256[]",
					"internalType": "uint256[]"
				},
				{
					"name": "tokenIds",
					"type": "uint256[]",
					"internalType": "uint256[]"
				},
				{
					"name": "tokens",
					"type": "address[]",
					"internalType": "contract IERC20[]"
				}
			],
			"outputs": [],
			"stateMutability": "nonpayable"
		},
		{
			"type": "function",
			"name": "borrowAgainstVesting",
			"inputs": [
				{
					"name": "hook",
					"type": "address",
					"internalType": "address"
				},
				{
					"name": "tierIds",
					"type": "uint256[]",
					"internalType": "uint256[]"
				},
				{
					"name": "tokenIds",
					"type": "uint256[]",
					"internalType": "uint256[]"
				},
				{
					"name": "tokens",
					"type": "address[]",
					"internalType": "contract IERC20[]"
				},
				{
					"name": "sourceToken",
					"type": "address",
					"internalType": "address"
				},
				{
					"name": "minBorrowAmount",
					"type": "uint256",
					"internalType": "uint256"
				},
				{
					"name": "prepaidFeePercent",
					"type": "uint256",
					"internalType": "uint256"
				},
				{
					"name": "beneficiary",
					"type": "address",
					"internalType": "address payable"
				}
			],
			"outputs": [
				{
					"name": "loanId",
					"type": "uint256",
					"internalType": "uint256"
				},
				{
					"name": "collateralCount",
					"type": "uint256",
					"internalType": "uint256"
				}
			],
			"stateMutability": "nonpayable"
		},
		{
			"type": "function",
			"name": "borrowAgainstVesting",
			"inputs": [
				{
					"name": "hook",
					"type": "address",
					"internalType": "address"
				},
				{
					"name": "tokenIds",
					"type": "uint256[]",
					"internalType": "uint256[]"
				},
				{
					"name": "tokens",
					"type": "address[]",
					"internalType": "contract IERC20[]"
				},
				{
					"name": "sourceToken",
					"type": "address",
					"internalType": "address"
				},
				{
					"name": "minBorrowAmount",
					"type": "uint256",
					"internalType": "uint256"
				},
				{
					"name": "prepaidFeePercent",
					"type": "uint256",
					"internalType": "uint256"
				},
				{
					"name": "beneficiary",
					"type": "address",
					"internalType": "address payable"
				}
			],
			"outputs": [
				{
					"name": "loanId",
					"type": "uint256",
					"internalType": "uint256"
				},
				{
					"name": "collateralCount",
					"type": "uint256",
					"internalType": "uint256"
				}
			],
			"stateMutability": "nonpayable"
		},
		{
			"type": "function",
			"name": "burnExpiredRewards",
			"inputs": [
				{
					"name": "hook",
					"type": "address",
					"internalType": "address"
				},
				{
					"name": "tierIds",
					"type": "uint256[]",
					"internalType": "uint256[]"
				},
				{
					"name": "token",
					"type": "address",
					"internalType": "contract IERC20"
				},
				{
					"name": "rounds",
					"type": "uint256[]",
					"internalType": "uint256[]"
				}
			],
			"outputs": [
				{
					"name": "amount",
					"type": "uint256",
					"internalType": "uint256"
				}
			],
			"stateMutability": "nonpayable"
		},
		{
			"type": "function",
			"name": "burnExpiredRewards",
			"inputs": [
				{
					"name": "hook",
					"type": "address",
					"internalType": "address"
				},
				{
					"name": "token",
					"type": "address",
					"internalType": "contract IERC20"
				},
				{
					"name": "rounds",
					"type": "uint256[]",
					"internalType": "uint256[]"
				}
			],
			"outputs": [
				{
					"name": "amount",
					"type": "uint256",
					"internalType": "uint256"
				}
			],
			"stateMutability": "nonpayable"
		},
		{
			"type": "function",
			"name": "claimedFor",
			"inputs": [
				{
					"name": "hook",
					"type": "address",
					"internalType": "address"
				},
				{
					"name": "tokenId",
					"type": "uint256",
					"internalType": "uint256"
				},
				{
					"name": "token",
					"type": "address",
					"internalType": "contract IERC20"
				}
			],
			"outputs": [
				{
					"name": "tokenAmount",
					"type": "uint256",
					"internalType": "uint256"
				}
			],
			"stateMutability": "view"
		},
		{
			"type": "function",
			"name": "claimedFor",
			"inputs": [
				{
					"name": "hook",
					"type": "address",
					"internalType": "address"
				},
				{
					"name": "tierIds",
					"type": "uint256[]",
					"internalType": "uint256[]"
				},
				{
					"name": "tokenId",
					"type": "uint256",
					"internalType": "uint256"
				},
				{
					"name": "token",
					"type": "address",
					"internalType": "contract IERC20"
				}
			],
			"outputs": [
				{
					"name": "tokenAmount",
					"type": "uint256",
					"internalType": "uint256"
				}
			],
			"stateMutability": "view"
		},
		{
			"type": "function",
			"name": "collectVestedRewards",
			"inputs": [
				{
					"name": "hook",
					"type": "address",
					"internalType": "address"
				},
				{
					"name": "tierIds",
					"type": "uint256[]",
					"internalType": "uint256[]"
				},
				{
					"name": "tokenIds",
					"type": "uint256[]",
					"internalType": "uint256[]"
				},
				{
					"name": "tokens",
					"type": "address[]",
					"internalType": "contract IERC20[]"
				},
				{
					"name": "beneficiary",
					"type": "address",
					"internalType": "address"
				}
			],
			"outputs": [],
			"stateMutability": "nonpayable"
		},
		{
			"type": "function",
			"name": "collectVestedRewards",
			"inputs": [
				{
					"name": "hook",
					"type": "address",
					"internalType": "address"
				},
				{
					"name": "tokenIds",
					"type": "uint256[]",
					"internalType": "uint256[]"
				},
				{
					"name": "tokens",
					"type": "address[]",
					"internalType": "contract IERC20[]"
				},
				{
					"name": "beneficiary",
					"type": "address",
					"internalType": "address"
				}
			],
			"outputs": [],
			"stateMutability": "nonpayable"
		},
		{
			"type": "function",
			"name": "collectableFor",
			"inputs": [
				{
					"name": "hook",
					"type": "address",
					"internalType": "address"
				},
				{
					"name": "tierIds",
					"type": "uint256[]",
					"internalType": "uint256[]"
				},
				{
					"name": "tokenId",
					"type": "uint256",
					"internalType": "uint256"
				},
				{
					"name": "token",
					"type": "address",
					"internalType": "contract IERC20"
				}
			],
			"outputs": [
				{
					"name": "tokenAmount",
					"type": "uint256",
					"internalType": "uint256"
				}
			],
			"stateMutability": "view"
		},
		{
			"type": "function",
			"name": "collectableFor",
			"inputs": [
				{
					"name": "hook",
					"type": "address",
					"internalType": "address"
				},
				{
					"name": "tokenId",
					"type": "uint256",
					"internalType": "uint256"
				},
				{
					"name": "token",
					"type": "address",
					"internalType": "contract IERC20"
				}
			],
			"outputs": [
				{
					"name": "tokenAmount",
					"type": "uint256",
					"internalType": "uint256"
				}
			],
			"stateMutability": "view"
		},
		{
			"type": "function",
			"name": "currentRound",
			"inputs": [],
			"outputs": [
				{
					"name": "",
					"type": "uint256",
					"internalType": "uint256"
				}
			],
			"stateMutability": "view"
		},
		{
			"type": "function",
			"name": "fund",
			"inputs": [
				{
					"name": "hook",
					"type": "address",
					"internalType": "address"
				},
				{
					"name": "token",
					"type": "address",
					"internalType": "contract IERC20"
				},
				{
					"name": "amount",
					"type": "uint256",
					"internalType": "uint256"
				}
			],
			"outputs": [],
			"stateMutability": "payable"
		},
		{
			"type": "function",
			"name": "fund",
			"inputs": [
				{
					"name": "hook",
					"type": "address",
					"internalType": "address"
				},
				{
					"name": "tierIds",
					"type": "uint256[]",
					"internalType": "uint256[]"
				},
				{
					"name": "token",
					"type": "address",
					"internalType": "contract IERC20"
				},
				{
					"name": "amount",
					"type": "uint256",
					"internalType": "uint256"
				}
			],
			"outputs": [],
			"stateMutability": "payable"
		},
		{
			"type": "function",
			"name": "latestVestedIndexOf",
			"inputs": [
				{
					"name": "hook",
					"type": "address",
					"internalType": "address"
				},
				{
					"name": "groupId",
					"type": "uint256",
					"internalType": "uint256"
				},
				{
					"name": "tokenId",
					"type": "uint256",
					"internalType": "uint256"
				},
				{
					"name": "token",
					"type": "address",
					"internalType": "contract IERC20"
				}
			],
			"outputs": [
				{
					"name": "",
					"type": "uint256",
					"internalType": "uint256"
				}
			],
			"stateMutability": "view"
		},
		{
			"type": "function",
			"name": "nextClaimRoundOf",
			"inputs": [
				{
					"name": "hook",
					"type": "address",
					"internalType": "address"
				},
				{
					"name": "groupId",
					"type": "uint256",
					"internalType": "uint256"
				},
				{
					"name": "tokenId",
					"type": "uint256",
					"internalType": "uint256"
				},
				{
					"name": "token",
					"type": "address",
					"internalType": "contract IERC20"
				}
			],
			"outputs": [
				{
					"name": "",
					"type": "uint256",
					"internalType": "uint256"
				}
			],
			"stateMutability": "view"
		},
		{
			"type": "function",
			"name": "poke",
			"inputs": [],
			"outputs": [],
			"stateMutability": "nonpayable"
		},
		{
			"type": "function",
			"name": "processSplitWith",
			"inputs": [
				{
					"name": "context",
					"type": "tuple",
					"internalType": "struct JBSplitHookContext",
					"components": [
						{
							"name": "token",
							"type": "address",
							"internalType": "address"
						},
						{
							"name": "amount",
							"type": "uint256",
							"internalType": "uint256"
						},
						{
							"name": "decimals",
							"type": "uint256",
							"internalType": "uint256"
						},
						{
							"name": "projectId",
							"type": "uint256",
							"internalType": "uint256"
						},
						{
							"name": "groupId",
							"type": "uint256",
							"internalType": "uint256"
						},
						{
							"name": "split",
							"type": "tuple",
							"internalType": "struct JBSplit",
							"components": [
								{
									"name": "percent",
									"type": "uint32",
									"internalType": "uint32"
								},
								{
									"name": "projectId",
									"type": "uint64",
									"internalType": "uint64"
								},
								{
									"name": "beneficiary",
									"type": "address",
									"internalType": "address payable"
								},
								{
									"name": "preferAddToBalance",
									"type": "bool",
									"internalType": "bool"
								},
								{
									"name": "lockedUntil",
									"type": "uint48",
									"internalType": "uint48"
								},
								{
									"name": "hook",
									"type": "address",
									"internalType": "contract IJBSplitHook"
								}
							]
						}
					]
				}
			],
			"outputs": [],
			"stateMutability": "payable"
		},
		{
			"type": "function",
			"name": "releaseForfeitedRewards",
			"inputs": [
				{
					"name": "hook",
					"type": "address",
					"internalType": "address"
				},
				{
					"name": "tokenIds",
					"type": "uint256[]",
					"internalType": "uint256[]"
				},
				{
					"name": "tokens",
					"type": "address[]",
					"internalType": "contract IERC20[]"
				},
				{
					"name": "beneficiary",
					"type": "address",
					"internalType": "address"
				}
			],
			"outputs": [],
			"stateMutability": "nonpayable"
		},
		{
			"type": "function",
			"name": "releaseForfeitedRewards",
			"inputs": [
				{
					"name": "hook",
					"type": "address",
					"internalType": "address"
				},
				{
					"name": "tierIds",
					"type": "uint256[]",
					"internalType": "uint256[]"
				},
				{
					"name": "tokenIds",
					"type": "uint256[]",
					"internalType": "uint256[]"
				},
				{
					"name": "tokens",
					"type": "address[]",
					"internalType": "contract IERC20[]"
				},
				{
					"name": "beneficiary",
					"type": "address",
					"internalType": "address"
				}
			],
			"outputs": [],
			"stateMutability": "nonpayable"
		},
		{
			"type": "function",
			"name": "repayVestingLoan",
			"inputs": [
				{
					"name": "loanId",
					"type": "uint256",
					"internalType": "uint256"
				},
				{
					"name": "maxRepayBorrowAmount",
					"type": "uint256",
					"internalType": "uint256"
				}
			],
			"outputs": [
				{
					"name": "paidOffLoanId",
					"type": "uint256",
					"internalType": "uint256"
				}
			],
			"stateMutability": "payable"
		},
		{
			"type": "function",
			"name": "rewardRoundOf",
			"inputs": [
				{
					"name": "hook",
					"type": "address",
					"internalType": "address"
				},
				{
					"name": "groupId",
					"type": "uint256",
					"internalType": "uint256"
				},
				{
					"name": "token",
					"type": "address",
					"internalType": "contract IERC20"
				},
				{
					"name": "round",
					"type": "uint256",
					"internalType": "uint256"
				}
			],
			"outputs": [
				{
					"name": "amount",
					"type": "uint208",
					"internalType": "uint208"
				},
				{
					"name": "snapshotBlock",
					"type": "uint48",
					"internalType": "uint48"
				},
				{
					"name": "claimedAmount",
					"type": "uint208",
					"internalType": "uint208"
				},
				{
					"name": "claimDeadline",
					"type": "uint48",
					"internalType": "uint48"
				},
				{
					"name": "totalStake",
					"type": "uint208",
					"internalType": "uint208"
				}
			],
			"stateMutability": "view"
		},
		{
			"type": "function",
			"name": "roundSnapshotBlock",
			"inputs": [
				{
					"name": "round",
					"type": "uint256",
					"internalType": "uint256"
				}
			],
			"outputs": [
				{
					"name": "",
					"type": "uint256",
					"internalType": "uint256"
				}
			],
			"stateMutability": "view"
		},
		{
			"type": "function",
			"name": "roundStartTimestamp",
			"inputs": [
				{
					"name": "round",
					"type": "uint256",
					"internalType": "uint256"
				}
			],
			"outputs": [
				{
					"name": "",
					"type": "uint256",
					"internalType": "uint256"
				}
			],
			"stateMutability": "view"
		},
		{
			"type": "function",
			"name": "supportsInterface",
			"inputs": [
				{
					"name": "interfaceId",
					"type": "bytes4",
					"internalType": "bytes4"
				}
			],
			"outputs": [
				{
					"name": "",
					"type": "bool",
					"internalType": "bool"
				}
			],
			"stateMutability": "pure"
		},
		{
			"type": "function",
			"name": "tierIdsOf",
			"inputs": [
				{
					"name": "hook",
					"type": "address",
					"internalType": "address"
				},
				{
					"name": "groupId",
					"type": "uint256",
					"internalType": "uint256"
				}
			],
			"outputs": [
				{
					"name": "tierIds",
					"type": "uint256[]",
					"internalType": "uint256[]"
				}
			],
			"stateMutability": "view"
		},
		{
			"type": "function",
			"name": "totalLoanedVestingAmountOf",
			"inputs": [
				{
					"name": "hook",
					"type": "address",
					"internalType": "address"
				},
				{
					"name": "token",
					"type": "address",
					"internalType": "contract IERC20"
				}
			],
			"outputs": [
				{
					"name": "amount",
					"type": "uint256",
					"internalType": "uint256"
				}
			],
			"stateMutability": "view"
		},
		{
			"type": "function",
			"name": "totalVestingAmountOf",
			"inputs": [
				{
					"name": "hook",
					"type": "address",
					"internalType": "address"
				},
				{
					"name": "token",
					"type": "address",
					"internalType": "contract IERC20"
				}
			],
			"outputs": [
				{
					"name": "amount",
					"type": "uint256",
					"internalType": "uint256"
				}
			],
			"stateMutability": "view"
		},
		{
			"type": "function",
			"name": "vestingDataOf",
			"inputs": [
				{
					"name": "hook",
					"type": "address",
					"internalType": "address"
				},
				{
					"name": "groupId",
					"type": "uint256",
					"internalType": "uint256"
				},
				{
					"name": "tokenId",
					"type": "uint256",
					"internalType": "uint256"
				},
				{
					"name": "token",
					"type": "address",
					"internalType": "contract IERC20"
				},
				{
					"name": "",
					"type": "uint256",
					"internalType": "uint256"
				}
			],
			"outputs": [
				{
					"name": "releaseRound",
					"type": "uint256",
					"internalType": "uint256"
				},
				{
					"name": "amount",
					"type": "uint256",
					"internalType": "uint256"
				},
				{
					"name": "shareClaimed",
					"type": "uint256",
					"internalType": "uint256"
				}
			],
			"stateMutability": "view"
		},
		{
			"type": "function",
			"name": "vestingLoanOf",
			"inputs": [
				{
					"name": "loanId",
					"type": "uint256",
					"internalType": "uint256"
				}
			],
			"outputs": [
				{
					"name": "",
					"type": "tuple",
					"internalType": "struct JBVestingLoan",
					"components": [
						{
							"name": "hook",
							"type": "address",
							"internalType": "address"
						},
						{
							"name": "groupId",
							"type": "uint256",
							"internalType": "uint256"
						},
						{
							"name": "tokenId",
							"type": "uint256",
							"internalType": "uint256"
						},
						{
							"name": "token",
							"type": "address",
							"internalType": "contract IERC20"
						},
						{
							"name": "vestingDataCount",
							"type": "uint48",
							"internalType": "uint48"
						},
						{
							"name": "collateralCount",
							"type": "uint256",
							"internalType": "uint256"
						}
					]
				}
			],
			"stateMutability": "view"
		},
		{
			"type": "function",
			"name": "writeOffLiquidatedVestingLoan",
			"inputs": [
				{
					"name": "loanId",
					"type": "uint256",
					"internalType": "uint256"
				}
			],
			"outputs": [
				{
					"name": "collateralCount",
					"type": "uint256",
					"internalType": "uint256"
				}
			],
			"stateMutability": "nonpayable"
		},
		{
			"type": "event",
			"name": "BorrowAgainstVesting",
			"inputs": [
				{
					"name": "hook",
					"type": "address",
					"indexed": true,
					"internalType": "address"
				},
				{
					"name": "tokenId",
					"type": "uint256",
					"indexed": true,
					"internalType": "uint256"
				},
				{
					"name": "token",
					"type": "address",
					"indexed": true,
					"internalType": "contract IERC20"
				},
				{
					"name": "loanId",
					"type": "uint256",
					"indexed": false,
					"internalType": "uint256"
				},
				{
					"name": "revnetId",
					"type": "uint256",
					"indexed": false,
					"internalType": "uint256"
				},
				{
					"name": "collateralCount",
					"type": "uint256",
					"indexed": false,
					"internalType": "uint256"
				},
				{
					"name": "sourceToken",
					"type": "address",
					"indexed": false,
					"internalType": "address"
				},
				{
					"name": "minBorrowAmount",
					"type": "uint256",
					"indexed": false,
					"internalType": "uint256"
				},
				{
					"name": "prepaidFeePercent",
					"type": "uint256",
					"indexed": false,
					"internalType": "uint256"
				},
				{
					"name": "beneficiary",
					"type": "address",
					"indexed": false,
					"internalType": "address"
				},
				{
					"name": "caller",
					"type": "address",
					"indexed": false,
					"internalType": "address"
				}
			],
			"anonymous": false
		},
		{
			"type": "event",
			"name": "Claimed",
			"inputs": [
				{
					"name": "hook",
					"type": "address",
					"indexed": true,
					"internalType": "address"
				},
				{
					"name": "tokenId",
					"type": "uint256",
					"indexed": true,
					"internalType": "uint256"
				},
				{
					"name": "groupId",
					"type": "uint256",
					"indexed": false,
					"internalType": "uint256"
				},
				{
					"name": "token",
					"type": "address",
					"indexed": false,
					"internalType": "contract IERC20"
				},
				{
					"name": "amount",
					"type": "uint256",
					"indexed": false,
					"internalType": "uint256"
				},
				{
					"name": "vestingReleaseRound",
					"type": "uint256",
					"indexed": false,
					"internalType": "uint256"
				},
				{
					"name": "caller",
					"type": "address",
					"indexed": false,
					"internalType": "address"
				}
			],
			"anonymous": false
		},
		{
			"type": "event",
			"name": "Collected",
			"inputs": [
				{
					"name": "hook",
					"type": "address",
					"indexed": true,
					"internalType": "address"
				},
				{
					"name": "tokenId",
					"type": "uint256",
					"indexed": true,
					"internalType": "uint256"
				},
				{
					"name": "groupId",
					"type": "uint256",
					"indexed": false,
					"internalType": "uint256"
				},
				{
					"name": "token",
					"type": "address",
					"indexed": false,
					"internalType": "contract IERC20"
				},
				{
					"name": "amount",
					"type": "uint256",
					"indexed": false,
					"internalType": "uint256"
				},
				{
					"name": "vestingReleaseRound",
					"type": "uint256",
					"indexed": false,
					"internalType": "uint256"
				},
				{
					"name": "caller",
					"type": "address",
					"indexed": false,
					"internalType": "address"
				}
			],
			"anonymous": false
		},
		{
			"type": "event",
			"name": "ExpiredRewardsRecycled",
			"inputs": [
				{
					"name": "hook",
					"type": "address",
					"indexed": true,
					"internalType": "address"
				},
				{
					"name": "fromRound",
					"type": "uint256",
					"indexed": true,
					"internalType": "uint256"
				},
				{
					"name": "toRound",
					"type": "uint256",
					"indexed": true,
					"internalType": "uint256"
				},
				{
					"name": "token",
					"type": "address",
					"indexed": false,
					"internalType": "contract IERC20"
				},
				{
					"name": "amount",
					"type": "uint256",
					"indexed": false,
					"internalType": "uint256"
				},
				{
					"name": "caller",
					"type": "address",
					"indexed": false,
					"internalType": "address"
				}
			],
			"anonymous": false
		},
		{
			"type": "event",
			"name": "ForfeitedRewardsRecycled",
			"inputs": [
				{
					"name": "hook",
					"type": "address",
					"indexed": true,
					"internalType": "address"
				},
				{
					"name": "round",
					"type": "uint256",
					"indexed": true,
					"internalType": "uint256"
				},
				{
					"name": "token",
					"type": "address",
					"indexed": true,
					"internalType": "contract IERC20"
				},
				{
					"name": "amount",
					"type": "uint256",
					"indexed": false,
					"internalType": "uint256"
				},
				{
					"name": "caller",
					"type": "address",
					"indexed": false,
					"internalType": "address"
				}
			],
			"anonymous": false
		},
		{
			"type": "event",
			"name": "LiquidatedVestingLoanWrittenOff",
			"inputs": [
				{
					"name": "hook",
					"type": "address",
					"indexed": true,
					"internalType": "address"
				},
				{
					"name": "tokenId",
					"type": "uint256",
					"indexed": true,
					"internalType": "uint256"
				},
				{
					"name": "token",
					"type": "address",
					"indexed": true,
					"internalType": "contract IERC20"
				},
				{
					"name": "loanId",
					"type": "uint256",
					"indexed": false,
					"internalType": "uint256"
				},
				{
					"name": "collateralCount",
					"type": "uint256",
					"indexed": false,
					"internalType": "uint256"
				},
				{
					"name": "caller",
					"type": "address",
					"indexed": false,
					"internalType": "address"
				}
			],
			"anonymous": false
		},
		{
			"type": "event",
			"name": "RepayVestingLoan",
			"inputs": [
				{
					"name": "loanId",
					"type": "uint256",
					"indexed": true,
					"internalType": "uint256"
				},
				{
					"name": "paidOffLoanId",
					"type": "uint256",
					"indexed": true,
					"internalType": "uint256"
				},
				{
					"name": "token",
					"type": "address",
					"indexed": true,
					"internalType": "contract IERC20"
				},
				{
					"name": "collateralCount",
					"type": "uint256",
					"indexed": false,
					"internalType": "uint256"
				},
				{
					"name": "repayBorrowAmount",
					"type": "uint256",
					"indexed": false,
					"internalType": "uint256"
				},
				{
					"name": "caller",
					"type": "address",
					"indexed": false,
					"internalType": "address"
				}
			],
			"anonymous": false
		},
		{
			"type": "event",
			"name": "RoundSnapshotRecorded",
			"inputs": [
				{
					"name": "round",
					"type": "uint256",
					"indexed": true,
					"internalType": "uint256"
				},
				{
					"name": "snapshotBlock",
					"type": "uint256",
					"indexed": false,
					"internalType": "uint256"
				},
				{
					"name": "caller",
					"type": "address",
					"indexed": false,
					"internalType": "address"
				}
			],
			"anonymous": false
		},
		{
			"type": "error",
			"name": "JB721Distributor_NativeAmountMismatch",
			"inputs": [
				{
					"name": "msgValue",
					"type": "uint256",
					"internalType": "uint256"
				},
				{
					"name": "contextAmount",
					"type": "uint256",
					"internalType": "uint256"
				}
			]
		},
		{
			"type": "error",
			"name": "JB721Distributor_TierIdsNotIncreasing",
			"inputs": [
				{
					"name": "previousTierId",
					"type": "uint256",
					"internalType": "uint256"
				},
				{
					"name": "tierId",
					"type": "uint256",
					"internalType": "uint256"
				}
			]
		},
		{
			"type": "error",
			"name": "JB721Distributor_TokenIdsNotIncreasing",
			"inputs": [
				{
					"name": "previousTokenId",
					"type": "uint256",
					"internalType": "uint256"
				},
				{
					"name": "tokenId",
					"type": "uint256",
					"internalType": "uint256"
				}
			]
		},
		{
			"type": "error",
			"name": "JB721Distributor_TokenMismatch",
			"inputs": [
				{
					"name": "token",
					"type": "address",
					"internalType": "address"
				},
				{
					"name": "expectedToken",
					"type": "address",
					"internalType": "address"
				},
				{
					"name": "msgValue",
					"type": "uint256",
					"internalType": "uint256"
				}
			]
		},
		{
			"type": "error",
			"name": "JB721Distributor_Unauthorized",
			"inputs": [
				{
					"name": "projectId",
					"type": "uint256",
					"internalType": "uint256"
				},
				{
					"name": "caller",
					"type": "address",
					"internalType": "address"
				}
			]
		},
		{
			"type": "error",
			"name": "JBDistributor_EmptyTokenIds",
			"inputs": [
				{
					"name": "tokenIdCount",
					"type": "uint256",
					"internalType": "uint256"
				}
			]
		},
		{
			"type": "error",
			"name": "JBDistributor_InsufficientRepaidCollateral",
			"inputs": [
				{
					"name": "expectedAmount",
					"type": "uint256",
					"internalType": "uint256"
				},
				{
					"name": "actualAmount",
					"type": "uint256",
					"internalType": "uint256"
				}
			]
		},
		{
			"type": "error",
			"name": "JBDistributor_InsufficientRepayAmount",
			"inputs": [
				{
					"name": "amount",
					"type": "uint256",
					"internalType": "uint256"
				},
				{
					"name": "requiredAmount",
					"type": "uint256",
					"internalType": "uint256"
				}
			]
		},
		{
			"type": "error",
			"name": "JBDistributor_InvalidRoundDuration",
			"inputs": [
				{
					"name": "roundDuration",
					"type": "uint256",
					"internalType": "uint256"
				}
			]
		},
		{
			"type": "error",
			"name": "JBDistributor_InvalidVestingLoanId",
			"inputs": [
				{
					"name": "loanId",
					"type": "uint256",
					"internalType": "uint256"
				}
			]
		},
		{
			"type": "error",
			"name": "JBDistributor_NativeTransferFailed",
			"inputs": [
				{
					"name": "beneficiary",
					"type": "address",
					"internalType": "address"
				},
				{
					"name": "amount",
					"type": "uint256",
					"internalType": "uint256"
				}
			]
		},
		{
			"type": "error",
			"name": "JBDistributor_NoAccess",
			"inputs": [
				{
					"name": "hook",
					"type": "address",
					"internalType": "address"
				},
				{
					"name": "tokenId",
					"type": "uint256",
					"internalType": "uint256"
				},
				{
					"name": "account",
					"type": "address",
					"internalType": "address"
				}
			]
		},
		{
			"type": "error",
			"name": "JBDistributor_NoVestingLoan",
			"inputs": [
				{
					"name": "loanId",
					"type": "uint256",
					"internalType": "uint256"
				}
			]
		},
		{
			"type": "error",
			"name": "JBDistributor_NotRevnetRewardToken",
			"inputs": [
				{
					"name": "token",
					"type": "address",
					"internalType": "address"
				}
			]
		},
		{
			"type": "error",
			"name": "JBDistributor_NothingToBorrow",
			"inputs": [
				{
					"name": "hook",
					"type": "address",
					"internalType": "address"
				},
				{
					"name": "token",
					"type": "address",
					"internalType": "address"
				}
			]
		},
		{
			"type": "error",
			"name": "JBDistributor_ReentrantTokenTransfer",
			"inputs": [
				{
					"name": "token",
					"type": "address",
					"internalType": "address"
				}
			]
		},
		{
			"type": "error",
			"name": "JBDistributor_RevnetLoansNotConfigured",
			"inputs": []
		},
		{
			"type": "error",
			"name": "JBDistributor_Uint208Overflow",
			"inputs": [
				{
					"name": "value",
					"type": "uint256",
					"internalType": "uint256"
				}
			]
		},
		{
			"type": "error",
			"name": "JBDistributor_Uint48Overflow",
			"inputs": [
				{
					"name": "value",
					"type": "uint256",
					"internalType": "uint256"
				}
			]
		},
		{
			"type": "error",
			"name": "JBDistributor_UnexpectedNativeValue",
			"inputs": [
				{
					"name": "msgValue",
					"type": "uint256",
					"internalType": "uint256"
				},
				{
					"name": "token",
					"type": "address",
					"internalType": "address"
				}
			]
		},
		{
			"type": "error",
			"name": "JBDistributor_UnexpectedRepayAmount",
			"inputs": [
				{
					"name": "amount",
					"type": "uint256",
					"internalType": "uint256"
				},
				{
					"name": "expectedAmount",
					"type": "uint256",
					"internalType": "uint256"
				}
			]
		},
		{
			"type": "error",
			"name": "JBDistributor_UnexpectedTokenCount",
			"inputs": [
				{
					"name": "tokenCount",
					"type": "uint256",
					"internalType": "uint256"
				}
			]
		},
		{
			"type": "error",
			"name": "JBDistributor_VestingLoanNotLiquidated",
			"inputs": [
				{
					"name": "loanId",
					"type": "uint256",
					"internalType": "uint256"
				}
			]
		},
		{
			"type": "error",
			"name": "JBDistributor_VestingLoanOutstanding",
			"inputs": [
				{
					"name": "hook",
					"type": "address",
					"internalType": "address"
				},
				{
					"name": "tokenId",
					"type": "uint256",
					"internalType": "uint256"
				},
				{
					"name": "token",
					"type": "address",
					"internalType": "address"
				},
				{
					"name": "loanId",
					"type": "uint256",
					"internalType": "uint256"
				}
			]
		},
		{
			"type": "error",
			"name": "JBDistributor_VestingLoansDisabled",
			"inputs": []
		},
		{
			"type": "error",
			"name": "PRBMath_MulDiv_Overflow",
			"inputs": [
				{
					"name": "x",
					"type": "uint256",
					"internalType": "uint256"
				},
				{
					"name": "y",
					"type": "uint256",
					"internalType": "uint256"
				},
				{
					"name": "denominator",
					"type": "uint256",
					"internalType": "uint256"
				}
			]
		},
		{
			"type": "error",
			"name": "SafeERC20FailedOperation",
			"inputs": [
				{
					"name": "token",
					"type": "address",
					"internalType": "address"
				}
			]
		}
	],
	"args": [
		"0xE7d0F5ADC3847d4AfD70B7bcd58e34B1AAFDffbc",
		"0x59e419f593358990C496A1c4174a5cfB4D06db07",
		"0x182f8c57b12E030C04C99b1656C6533f0A269522",
		"0x85Dc792B7083896BA9c39A6271D485BEcaCb7ff9",
		"604800",
		"4",
		36288000
	],
	"solcInputHash": "1eb95d775bcca9cb6220a402595dea20",
	"bytecode": "0x61018080604052346103445760e081615fe2803803809161002082856103cf565b833981010312610344578051906001600160a01b03821682036103445760208101516001600160a01b038116918282036103445760408101516001600160a01b0381169290838103610344576060830151906001600160a01b03821682036103445760808401519260c060a086015195015165ffffffffffff811681036103445784156103bc5760805260a05260e05261010052426101205260c05261014052806101ff575b8261016052604051615bef90816103f382396080518181816102160152614e05015260a051818181610d3e015281816116ac0152612447015260c0518181816113d301528181611524015281816120820152614e47015260e0518181816102e701528181610e210152818161164c015281816119aa015281816122be01526123e7015261010051818181611cda015281816125ec01526127530152610120518181816113f9015281816114fd01528181612799015281816128b6015281816133930152818161351b015281816139eb01528181613b9601528181613fbd0152818161452801526146a401526101405181818161123f01528181611626015281816123c101528181613424015281816135ac01528181613a4401528181613ed2015261436701526101605181818161155e0152612ebb0152f35b60409081519261020f83856103cf565b6001845260208401601f1984013682378451156103a857600491600b60209252845192838092633d0d324560e21b82525afa90811561039e575f9161035c575b5082516001600160a01b039190911691606082016001600160401b03811183821017610348578452815260208101935f8552838201908152823b15610344578351631127c92960e21b81523060048201526024810185905291516001600160a01b0316604483015293516001600160401b03166064820152925160606084850152805160a48501819052849160c48301916020909101905f5b8181106103285750505091815f81819503925af190811561031f575061030f575b806100c6565b5f610319916103cf565b5f610309565b513d5f823e3d90fd5b825160ff168452879450602093840193909201916001016102e8565b5f80fd5b634e487b7160e01b5f52604160045260245ffd5b90506020813d602011610396575b81610377602093836103cf565b8101031261034457516001600160a01b0381168103610344575f61024f565b3d915061036a565b83513d5f823e3d90fd5b634e487b7160e01b5f52603260045260245ffd5b8463175df00560e11b5f5260045260245ffd5b601f909101601f19168101906001600160401b038211908210176103485760405256fe610240604052600436101561001b575b3615610019575f80fd5b005b5f3560e01c8063018ff2e114612a8657806301ffc9a714612a1857806307609cb9146129fb57806308c62efa14612937578063112375081461290d578063181783581461289e5780631bbb0415146127bc57806320e9fcd414612782578063244815361461273e578063253c9f5f146122ed5780632afc40fb146122a957806349f43fec146121e35780634d5bf2a814612194578063512ad898146121445780635c5591be146120f45780635fef1a8a146120a55780636641ea081461206b5780636be7822b1461203d5780636c2c291a14611f5057806371c0a3fd14611e93578063751b53e814611e7757806377b8073a14611e5e5780637b28aaa31461158d57806388bc2ef3146115495780638a19c8bc146114e35780638e853ffd146114bd578063a50ae7da14611425578063aad9bee2146113b5578063ae320c45146112f5578063af1cb55014611262578063af29da1414611228578063af5fe6cc146111db578063be899c8914611184578063c45c9bf6146110e3578063c5a09388146110ce578063d6b6150514610d6d578063ee0fc12114610d29578063f7888aec14610cd9578063f80157c114610b71578063f8724f3414610b1b578063f9421c1b14610a63578063faeba2461461023e5763ff844a630361000f573461023a575f36600319011261023a57602060405165ffffffffffff7f0000000000000000000000000000000000000000000000000000000000000000168152f35b5f80fd5b604036600319011261023a576004356024356102586137b7565b815f52600960205260405f20906040519261027284612d87565b60018060a01b03835416918285526001840154936020860194855260028101549560408101968752600460038301549265ffffffffffff606084019460018060a01b038116865260a01c16608084015201549460a0820195865215610a505760405163e4ba13c760e01b8152600481018590527f00000000000000000000000000000000000000000000000000000000000000006001600160a01b0316979060c0816024818c5afa80156107135789915f91610a12575b508060206001600160701b0360a09351169160e4604051809581936375e936b760e01b83526001600160701b0381511660048401526001600160701b038682015116602484015265ffffffffffff604082015116604484015261ffff606082015116606484015263ffffffff6080820151166084840152019660018060a01b0388511660a48301528560c48301525afa908115610713575f916109dc575b6103d19250612e6d565b948086116109c5575083516040516370a0823160e01b815230600482015299906020908b9060249082906001600160a01b03165afa998a15610713575f9a610991575b5087515f6040519361042585612da2565b5f85525f60208601525f60408601525f60608601526060608086015260018060a01b0381511661eeee81145f146107655750505086341061074e579160e091888861048995604051968795869485936309c586218a1b8552853092600487016137e8565b03925af1908115610713575f9161071e575b509660246104a98634612e15565b995b85516040516370a0823160e01b81523060048201529260209184919082906001600160a01b03165afa918215610713575f926106df575b50808211156106d6576104f491612e15565b925b87518085106106bf5750927fbc189f4ade0d6608242d72b35f9deba4ef3738b5640ab82557d214afed984b619492610634928a9897958a5160018060a01b038251165f52600860205260405f2060018060a01b0388511660018060a01b03165f5260205261056960405f20918254612e6d565b90558a5160018060a01b038751165f52600760205261058d60405f20918254612e6d565b90558a5181516001600160a01b039081165f9081526005602090815260408083208b51909416835292905220805490916105c691612e15565b9055516001600160a01b039081165f908152602081815260408083209451835293815283822094518252938452828120875190921681529083528181208190558881526009909252812081815560018101829055600281018290556003810182905560040155875190612e15565b806106a2575b5051945160408051918252602082019290925233918101919091526001600160a01b0390941693606090a481610676575b602090604051908152f35b5f80808085335af1610686613192565b5061066b5750635d824a5360e01b5f523360045260245260445ffd5b81516106b9919033906001600160a01b03166147ef565b8861063a565b84906337e1148760e21b5f5260045260245260445ffd5b50505f926104f6565b9091506020813d60201161070b575b816106fb60209383612df4565b8101031261023a5751908b6104e2565b3d91506106ee565b6040513d5f823e3d90fd5b610740915060e03d60e011610747575b6107388183612df4565b8101906137ca565b508961049b565b503d61072e565b866374a5428f60e01b5f523460045260245260445ffd5b9c939b94919c3461097b5750516040516370a0823160e01b81523060048201526001600160a01b039091169290602081602481875afa908115610713575f91610949575b506107b68a303387614601565b6040516370a0823160e01b815230600482015290602082602481885afa8015610713575f90610915575b6107ea9250612e15565b8981036108fe5750898c6107ff8b8287615098565b156108c4575b60e0925f8c61082b604051978896879586946309c586218b1b86523092600487016137e8565b03925af1908115610713575f916108a4575b509961084a5f8284615098565b1561085a575b50506024906104ab565b61086481836150e5565b15610891575f6108749183615149565b1561087f5780610850565b635274afe760e01b5f5260045260245ffd5b50635274afe760e01b5f5260045260245ffd5b6108bd915060e03d60e011610747576107388183612df4565b508c61083d565b6108cf9150846150e5565b156108eb576108df898d85615149565b156108eb57898c610805565b82635274afe760e01b5f5260045260245ffd5b8990638972a92960e01b5f5260045260245260445ffd5b506020823d602011610941575b8161092f60209383612df4565b8101031261023a576107ea91516107e0565b3d9150610922565b90506020813d602011610973575b8161096460209383612df4565b8101031261023a57518e6107a9565b3d9150610957565b631b4a3f8360e11b5f523460045260245260445ffd5b9099506020813d6020116109bd575b816109ad60209383612df4565b8101031261023a5751988a610414565b3d91506109a0565b85906374a5428f60e01b5f5260045260245260445ffd5b90506020823d602011610a0a575b816109f760209383612df4565b8101031261023a576103d19151906103c7565b3d91506109ea565b91505060c03d60c011610a49575b610a2a8183612df4565b810160c08282031261023a57610a4360a0918b936130f2565b90610329565b503d610a20565b836338406bf360e01b5f5260045260245ffd5b3461023a57608036600319011261023a57610a7c612aff565b6024356001600160401b03811161023a57610a9b903690600401612b2b565b906044356001600160401b03811161023a57610abb903690600401612b2b565b906064356001600160401b03811161023a57610ade610ae6913690600401612b2b565b9590946131d1565b610aee6137b7565b8215610b085785610b0384846100199961387d565b6139de565b82637584d0bf60e01b5f5260045260245ffd5b3461023a57610b2936612b5b565b93610b359391936137b7565b8115610b5e575f86610b4b84846100199a61387d565b610b598686868686866139de565b613fa2565b50637584d0bf60e01b5f5260045260245ffd5b608036600319011261023a57610b85612aff565b6024356001600160401b03811161023a57610ba4903690600401612b2b565b9190610bae612bea565b9060643593610bbd81836131d1565b9182151580610cb3575b610c08575b50506001600160a01b03821661eeee8103610bee5750610019935034926137a4565b3461097b5750610c0261001994338461360a565b926137a4565b60018060a01b0385165f52600c60205260405f20835f5260205260405f20906001600160401b038311610c9f57600160401b8311610c9f578154838355808410610c79575b50905f5260205f205f5b838110610c65575050610bcc565b600190602084359401938184015501610c57565b825f528360205f2091820191015b818110610c945750610c4d565b5f8155600101610c87565b634e487b7160e01b5f52604160045260245ffd5b5060018060a01b0385165f52600c60205260405f20835f5260205260405f205415610bc7565b3461023a57604036600319011261023a57610cf2612aff565b610cfa612bd4565b6001600160a01b039182165f908152600860209081526040808320949093168252928352819020549051908152f35b3461023a575f36600319011261023a576040517f00000000000000000000000000000000000000000000000000000000000000006001600160a01b03168152602090f35b3461023a57602036600319011261023a57600435610d896137b7565b805f52600960205260405f209060405190610da382612d87565b82546001600160a01b0390811680845260018501546020850190815260028601546040860190815260038701549384166060870190815260a094851c65ffffffffffff1660808801908152600490980154948701948552919591939092156110bb5760405163e4ba13c760e01b81526004810186905260c0816024817f00000000000000000000000000000000000000000000000000000000000000006001600160a01b03165afa908115610713575f91611077575b506040015165ffffffffffff16611064575181516001600160a01b039081165f9081526006602090815260408083208a51845282528083208751845282528083208851851684528252808320865185168452600183528184208b51855283528184208851855283528184208951909516845293909152902054975191969165ffffffffffff165b80891061104457505081516001600160a01b039081165f90815260016020908152604080832085518452825280832087518452825280832088518516845282528083209a909a5584518316825260048152898220875190931682529182529790972080547fab44a003a657be36796d71915bc2e40e7f06314c3304bb9ba00f3bfbc610113e936110399390929091610f79908a90612e15565b905581516001600160a01b039081165f90815260058b52604080822089519093168252918b52208054610fad908a90612e15565b905581516001600160a01b039081165f908152808b52604080822093518252928b52828120875182528b528281208851831682528b5282812081905588815260098b528281208181556001810182905560028101829055600381018290556004015591519451955181519788526020880189905233918801919091528116959316929081906060820190565b0390a4604051908152f35b909780620186a060026110596001948d612d6e565b500155019790610ee0565b846373edcfdd60e01b5f5260045260245ffd5b905060c03d60c0116110b4575b61108e8183612df4565b810160c08282031261023a576110ad60409165ffffffffffff936130f2565b9150610e59565b503d611084565b846338406bf360e01b5f5260045260245ffd5b61016036600319011261023a57610019612e9b565b3461023a57608036600319011261023a576110fc612aff565b611104612bea565b6001600160a01b039182165f90815260036020908152604080832060243584528252808320939094168252918252828120606435825282528290208054600182015460029092015484516001600160d01b03808416825260d093841c958201959095528484169581019590955291901c606084015216608082015260a090f35b606036600319011261023a57611198612aff565b6111a0612bd4565b60443591906001600160a01b03811661eeee81036111c6575061001992505f34926137a4565b3461097b57505f610c0261001994338461360a565b3461023a576111e936612c3a565b6001600160a01b039384165f90815260208181526040808320958352948152848220938252928352838120919094168452815291819020549051908152f35b3461023a575f36600319011261023a5760206040517f00000000000000000000000000000000000000000000000000000000000000008152f35b3461023a57606036600319011261023a5761127b612aff565b611283612bd4565b6044356001600160401b03811161023a576112a2903690600401612b2b565b925f926112ad6137b7565b5f945b8086106112c257602085604051908152f35b909192936112e96001916112e36112da89868a6131c1565b35865f89614461565b90612e6d565b950194939291906112b0565b3461023a57604036600319011261023a576001600160a01b03611316612aff565b165f52600c60205260405f206024355f5260205260405f20604051806020835491828152019081935f5260205f20905f5b81811061139f575050508161135d910382612df4565b604051918291602083019060208452518091526040830191905f5b818110611386575050500390f35b8251845285945060209384019390920191600101611378565b8254845260209093019260019283019201611347565b3461023a57602036600319011261023a57602061141d6113f76004357f0000000000000000000000000000000000000000000000000000000000000000612e5a565b7f0000000000000000000000000000000000000000000000000000000000000000612e6d565b604051908152f35b3461023a5760a036600319011261023a5761143e612aff565b611446612b15565b6084359160018060a01b03165f52600660205260405f206024355f5260205260405f206044355f5260205260405f209060018060a01b03165f5260205260405f20805482101561023a5760609161149c91612d6e565b50805490600260018201549101549060405192835260208301526040820152f35b3461023a57602061141d6114dd6114d336612d13565b94919093926131d1565b906132b9565b3461023a575f36600319011261023a57602061141d6115227f000000000000000000000000000000000000000000000000000000000000000042612e15565b7f000000000000000000000000000000000000000000000000000000000000000090612e22565b3461023a575f36600319011261023a576040517f00000000000000000000000000000000000000000000000000000000000000006001600160a01b03168152602090f35b3461023a5760e036600319011261023a576115a6612aff565b6024356001600160401b03811161023a576115c5903690600401612b2b565b90916044356001600160401b03811161023a576115e6903690600401612b2b565b906115ef612b15565b60c4356001600160a01b03811695919086900361023a5761160e6137b7565b8115610b5e5760018203611e4b5760018403611e38577f000000000000000000000000000000000000000000000000000000000000000015611e29577f00000000000000000000000000000000000000000000000000000000000000006001600160a01b031615611e1a5761168482888761387d565b8315611e065761169383612e87565b9061169d84612e87565b604051630760c75760e21b81527f00000000000000000000000000000000000000000000000000000000000000006001600160a01b03169291602082600481875afa918215610713575f92611dbf575b50604051630f85421b60e01b81526001600160a01b039182166004820181905290949092909160209186916024918391165afa938415610713575f94611d8b575b508315908115611c75575b50611c6357506040519661174c88612dbd565b6001600160a01b039081168089525f6020808b018281528d356040808e0191825298861660608e0190815296861660808e015260843560a08e0190815260a43560c08f015260e08e019e909e526101008d019790975292825281815286822092518252918252858120945181529381528484209251909116835252205480611c1e575083516020850151959694956117ed95916001600160a01b03166139de565b8051602082015160408301516060840151611815936001600160a01b039182169391166132b9565b81516001600160a01b039081165f9081526006602090815260408083208287015184528252808320818701518452825280832060608701519094168352929052205461186090614c85565b928115611bf35782516001600160a01b039081165f9081526008602090815260408083206060880151909416835292905220805461189f908490612e15565b905560018060a01b036060840151165f52600760205260405f206118c4838254612e15565b905582516001600160a01b039081165f908152600560209081526040808320606088015190941683529290522080546118fe908490612e6d565b905582516001600160a01b039081165f90815260208181526040808320828801518452825280832081880151845282528083206060880151851684529091528082205f1990556101008601516080870151855160e0808a015160c08b0151955163506ac35b60e11b815260048101959095529287166024850152604484019190915260648301889052908516608483015260a48201929092523060c482015295929091869160e49183917f0000000000000000000000000000000000000000000000000000000000000000165af1938415610713575f94611bd1575b5083158015611bc7575b611bb45780516001600160a01b039081165f9081526020818152604080832082860180518552908352818420868301805186529084528285206060880180518816875294529382902089905585519051935192518251929a929560049594918116939216611a5187612d87565b8652602086019384528a86019081526060860192835265ffffffffffff608087019216825260a08601938985528a5f5260096020528b5f209660018060a01b039060018060a01b03905116166bffffffffffffffffffffffff60a01b885416178755516001870155516002860155600385019160018060a01b039060018060a01b03905116166bffffffffffffffffffffffff60a01b8354161782555181549065ffffffffffff60a01b9060a01b169065ffffffffffff60a01b19161790555191015560018060a01b038151167f4d6fd1230d235818f868c8ca1f7476ee41f5bf255db9ae88121bc1441c1b3306610100878401519360018060a01b0360608201511695828201519160018060a01b03608082015116915160c08201519160e060018060a01b0391015116928c51948c865260208601528a8d8601526060850152608084015260a083015260c08201523360e0820152a482519182526020820152f35b83635baaa08960e01b5f5260045260245ffd5b505f1984146119e4565b611beb91945060e03d60e011610747576107388183612df4565b5092856119da565b8251606084015163626bbf2560e01b5f9081526001600160a01b039283166004529116602452604490fd5b8451604080870151606088015191516328b04e6f60e21b81526001600160a01b0393841660048201526024810191909152911660448201526064810191909152608490fd5b634bd9bfab60e11b5f5260045260245ffd5b60405163293c499960e01b81529150602090829060049082905afa908115610713575f91611d48575b506040516331a9108f60e11b81526004810185905290602090829060249082906001600160a01b03165afa908115610713575f91611d0e575b507f00000000000000000000000000000000000000000000000000000000000000006001600160a01b03908116911614158b611739565b90506020813d602011611d40575b81611d2960209383612df4565b8101031261023a57611d3a906130de565b8b611cd7565b3d9150611d1c565b90506020813d602011611d83575b81611d6360209383612df4565b8101031261023a57516001600160a01b038116810361023a576020611c9e565b3d9150611d56565b9093506020813d602011611db7575b81611da760209383612df4565b8101031261023a5751928b61172e565b3d9150611d9a565b9091506020813d602011611dfe575b81611ddb60209383612df4565b8101031261023a5751926001600160a01b038416840361023a57929060206116ed565b3d9150611dce565b634e487b7160e01b5f52603260045260245ffd5b632ee89a0160e11b5f5260045ffd5b630a36d91f60e01b5f5260045ffd5b8363653b449360e01b5f5260045260245ffd5b5063653b449360e01b5f5260045260245ffd5b3461023a57602061141d611e7136612c00565b9161334c565b3461023a57602061141d611e8d6114d336612d13565b906134d0565b3461023a57608036600319011261023a57611eac612aff565b6024356001600160401b03811161023a57611ecb903690600401612b2b565b91611ed4612bea565b6064356001600160401b03811161023a578492611f01611ef986933690600401612b2b565b9590936131d1565b925f93611f0c6137b7565b5f955b808710611f2157602086604051908152f35b9091929394611f436001916112e3611f3a8a868b6131c1565b3587878a614461565b9601959493929190611f0f565b3461023a57611f6f611f6136612c78565b9697919490959392936131d1565b611f776137b7565b6001600160a01b038716965f5b848110611f9657506100199750613b82565b611fa18186866131c1565b6040516331a9108f60e11b8152903560048201526020816024818d5afa9081612007575b506120015760015b15611fda57600101611f84565b611fe6899186866131c1565b3590637605c78360e01b5f526004526024523360445260645ffd5b5f611fcd565b6020813d8211612035575b8161201f60209383612df4565b8101031261023a57612030906130de565b611fc5565b3d9150612012565b3461023a5761204e611f6136612c78565b6120566137b7565b8215610b085786610b4b84846100199a61387d565b3461023a575f36600319011261023a5760206040517f00000000000000000000000000000000000000000000000000000000000000008152f35b3461023a576120b336612c3a565b6001600160a01b039384165f908152600a60209081526040808320958352948152848220938252928352838120919094168452815291819020549051908152f35b3461023a57604036600319011261023a5761210d612aff565b612115612bd4565b6001600160a01b039182165f908152600460209081526040808320949093168252928352819020549051908152f35b3461023a57604036600319011261023a5761215d612aff565b612165612bd4565b6001600160a01b039182165f908152600560209081526040808320949093168252928352819020549051908152f35b3461023a576121a236612c3a565b6001600160a01b039384165f908152600160209081526040808320958352948152848220938252928352838120919094168452815291819020549051908152f35b3461023a576121f136612c00565b6001600160a01b039283165f818152600160209081526040808320838052825280832086845282528083209490961680835293815285822054928252600681528582208280528152858220948252938452848120928152919092529182208054919291905b81841061226857602083604051908152f35b909161229f6001916112e36122866122808887612d6e565b50613291565b6122996040602083015192015182614caf565b90612e15565b9301929190612256565b3461023a575f36600319011261023a576040517f00000000000000000000000000000000000000000000000000000000000000006001600160a01b03168152602090f35b3461023a5761010036600319011261023a57612307612aff565b6024356001600160401b03811161023a57612326903690600401612b2b565b90916044356001600160401b03811161023a57612347903690600401612b2b565b90936064356001600160401b03811161023a57612368903690600401612b2b565b9290916084356001600160a01b038116919082900361023a5760e4356001600160a01b038116979088900361023a576123a0916131d1565b906123a96137b7565b8215610b08576001830361272b5760018503612718577f000000000000000000000000000000000000000000000000000000000000000015611e29577f00000000000000000000000000000000000000000000000000000000000000006001600160a01b031615611e1a5761241f83898861387d565b8415611e065761242e84612e87565b9061243885612e87565b604051630760c75760e21b81527f00000000000000000000000000000000000000000000000000000000000000006001600160a01b03169391602082600481885afa918215610713575f926126d1575b50604051630f85421b60e01b81526001600160a01b039182166004820181905290959092909160209187916024918391165afa948515610713575f9561269d575b508415908115612587575b50611c635750604051976124e789612dbd565b6001600160a01b03908116808a526020808b019687528c356040808d0191825294841660608d0190815260808d019690965260a43560a08d0190815260c43560c08e015260e08d019d909d526101008c01969096525f918252818152838220965182529586528281209451815293855281842092511683529252205480611c1e575083516020850151959694956117ed95916001600160a01b03166139de565b60405163293c499960e01b81529150602090829060049082905afa908115610713575f9161265a575b506040516331a9108f60e11b81526004810186905290602090829060249082906001600160a01b03165afa908115610713575f91612620575b507f00000000000000000000000000000000000000000000000000000000000000006001600160a01b03908116911614158c6124d4565b90506020813d602011612652575b8161263b60209383612df4565b8101031261023a5761264c906130de565b8c6125e9565b3d915061262e565b90506020813d602011612695575b8161267560209383612df4565b8101031261023a57516001600160a01b038116810361023a5760206125b0565b3d9150612668565b9094506020813d6020116126c9575b816126b960209383612df4565b8101031261023a5751938c6124c9565b3d91506126ac565b9091506020813d602011612710575b816126ed60209383612df4565b8101031261023a5751936001600160a01b038516850361023a5793906020612488565b3d91506126e0565b8463653b449360e01b5f5260045260245ffd5b8263653b449360e01b5f5260045260245ffd5b3461023a575f36600319011261023a576040517f00000000000000000000000000000000000000000000000000000000000000006001600160a01b03168152602090f35b3461023a575f36600319011261023a5760206040517f00000000000000000000000000000000000000000000000000000000000000008152f35b3461023a57602036600319011261023a575f60a06040516127dc81612d87565b82815282602082015282604082015282606082015282608082015201526004355f52600960205260c060405f2060405161281581612d87565b65ffffffffffff60018060a01b03835416928383526001810154906020840191825260028101546040850190815260038201549260a060046060880194600180841b03871686528760808a0197841c1687520154960195865260405196875251602087015251604086015260018060a01b039051166060850152511660808301525160a0820152f35b3461023a575f36600319011261023a576128db6115227f000000000000000000000000000000000000000000000000000000000000000042612e15565b6128e4816143f5565b50600181018091116128f957610019906143f5565b634e487b7160e01b5f52601160045260245ffd5b3461023a57602036600319011261023a576004355f526002602052602060405f2054604051908152f35b3461023a5761294536612b5b565b936129519391936137b7565b6001600160a01b0386165f5b8381106129705750505f61001996613b82565b61297b8185856131c1565b6040516331a9108f60e11b815290356004820152602081602481865afa90816129c5575b506129bf5760015b156129b45760010161295d565b9092611fe6926131c1565b5f6129a7565b6020813d82116129f3575b816129dd60209383612df4565b8101031261023a576129ee906130de565b61299f565b3d91506129d0565b3461023a575f36600319011261023a576020604051620186a08152f35b3461023a57602036600319011261023a5760043563ffffffff60e01b811680910361023a576020906347b2497560e11b8114908115612a75575b8115612a64575b506040519015158152f35b6301ffc9a760e01b14905082612a59565b6318b4127160e31b81149150612a52565b3461023a57606036600319011261023a57612a9f612aff565b6024356001600160401b03811161023a57612abe903690600401612b2b565b906044356001600160401b03811161023a57612ade903690600401612b2b565b929091612ae96137b7565b8115610b5e575f85610b0384846100199961387d565b600435906001600160a01b038216820361023a57565b606435906001600160a01b038216820361023a57565b9181601f8401121561023a578235916001600160401b03831161023a576020808501948460051b01011161023a57565b90608060031983011261023a576004356001600160a01b038116810361023a57916024356001600160401b03811161023a5781612b9a91600401612b2b565b92909291604435906001600160401b03821161023a57612bbc91600401612b2b565b90916064356001600160a01b038116810361023a5790565b602435906001600160a01b038216820361023a57565b604435906001600160a01b038216820361023a57565b606090600319011261023a576004356001600160a01b038116810361023a5790602435906044356001600160a01b038116810361023a5790565b608090600319011261023a576004356001600160a01b038116810361023a579060243590604435906064356001600160a01b038116810361023a5790565b9060a060031983011261023a576004356001600160a01b038116810361023a57916024356001600160401b03811161023a5781612cb791600401612b2b565b929092916044356001600160401b03811161023a5781612cd991600401612b2b565b92909291606435906001600160401b03821161023a57612cfb91600401612b2b565b90916084356001600160a01b038116810361023a5790565b90608060031983011261023a576004356001600160a01b038116810361023a5791602435906001600160401b03821161023a57612d5291600401612b2b565b9091604435906064356001600160a01b038116810361023a5790565b8054821015611e06575f52600360205f20910201905f90565b60c081019081106001600160401b03821117610c9f57604052565b60a081019081106001600160401b03821117610c9f57604052565b61012081019081106001600160401b03821117610c9f57604052565b606081019081106001600160401b03821117610c9f57604052565b90601f801991011681019081106001600160401b03821117610c9f57604052565b919082039182116128f957565b8115612e2c570490565b634e487b7160e01b5f52601260045260245ffd5b90620186a0820291808304620186a014901517156128f957565b818102929181159184041417156128f957565b919082018092116128f957565b5190811515820361023a57565b356001600160a01b038116810361023a5790565b604051636e49181f60e01b815260643560048201819052336024830152907f00000000000000000000000000000000000000000000000000000000000000006001600160a01b031690602081604481855afa908115610713575f91613070575b50159081612fed575b50612fd7575060e4356001600160a01b0381169081900361023a57600435906001600160a01b038216808314158061023a5761eeee8203612f8557602435803403612f6f575034612f56575b50505050565b61023a57612f6692503491613739565b5f808080612f50565b631d41d8ef60e11b5f523460045260245260445ffd5b929134612fb857602435938415612fb15761023a57612fa8612faf94338461360a565b9250613739565b565b5050505050565b509050632ec3900760e21b5f5260045261eeee6024523460445260645ffd5b630acfc95d60e41b5f526004523360245260445ffd5b6024915060209060405192838092632eec7b5560e11b82528660048301525afa908115610713575f9161302e575b506001600160a01b03163314155f612f04565b90506020813d602011613068575b8161304960209383612df4565b8101031261023a57516001600160a01b038116810361023a575f61301b565b3d915061303c565b90506020813d6020116130a2575b8161308b60209383612df4565b8101031261023a5761309c90612e7a565b5f612efb565b3d915061307e565b51906001600160701b038216820361023a57565b519061ffff8216820361023a57565b519063ffffffff8216820361023a57565b51906001600160a01b038216820361023a57565b91908260c091031261023a5760405161310a81612d87565b8092613115816130aa565b8252613123602082016130aa565b602083015260408101519065ffffffffffff8216820361023a5760a06131729181936040860152613156606082016130be565b6060860152613167608082016130cd565b6080860152016130de565b910152565b6001600160401b038111610c9f57601f01601f191660200190565b3d156131bc573d906131a382613177565b916131b16040519384612df4565b82523d5f602084013e565b606090565b9190811015611e065760051b0190565b90801561328b5760015b81811061322b57506040519060208201926020845281604084015260018060fb1b03821161023a57826060916132259360051b80918484013781010301601f198101835282612df4565b51902090565b6132368183856131c1565b5f19820190358282116128f95761324e8285876131c1565b35101561325e57506001016131db565b9161326d6132749382866131c1565b35936131c1565b359063d9971fa360e01b5f5260045260245260445ffd5b50505f90565b9060405161329e81612dd9565b60406002829480548452600181015460208501520154910152565b6001600160a01b039081165f818152600160209081526040808320868452825280832087845282528083209490971680835293815286822054928252600681528682209482529384528581209481529383528484209184529152918120805491939291905b81831061332a57505050565b9091936133436001916112e36122866122808987612d6e565b9401919061331e565b6001600160a01b039081165f81815260208181526040808320838052825280832086845282528083209487168352939052918220549194939092916134c8576133b86115227f000000000000000000000000000000000000000000000000000000000000000042612e15565b91835f52600160205260405f205f805260205260405f20815f5260205260405f2060018060a01b0383165f5260205260405f2054935f52600660205260405f205f805260205260405f20905f5260205260405f209060018060a01b03165f5260205260405f20908154917f0000000000000000000000000000000000000000000000000000000000000000905b838510613453575050505050565b909192939561349760019161349061346e6122808b87612d6e565b80519087895f938181116134a2575b5050506040602082015191015190614589565b5090612e6d565b960193929190613445565b6134bf9394506134ba916134b591612e15565b612e40565b612e22565b9087895f61347d565b505f93505050565b93925f9460018060a01b031692835f525f60205260405f20835f5260205260405f20815f5260205260405f2060018060a01b0383165f5260205260405f2054613601576135406115227f000000000000000000000000000000000000000000000000000000000000000042612e15565b92845f52600160205260405f20815f5260205260405f20825f5260205260405f2060018060a01b0384165f5260205260405f2054945f52600660205260405f20905f5260205260405f20905f5260205260405f209060018060a01b03165f5260205260405f20908154917f0000000000000000000000000000000000000000000000000000000000000000905b8385106135db575050505050565b90919293956135f660019161349061346e6122808b87612d6e565b9601939291906135cd565b505f9450505050565b5f5c6001600160a01b03168061372757506001600160a01b038116905f805c6001600160a01b0319168317905d6040516370a0823160e01b815230600482015292602084602481865afa938415610713575f946136ec575b5060249460209392613675923091614601565b6040516370a0823160e01b815230600482015293849182905afa8015610713575f906136b8575b6136a69250612e15565b905f805c6001600160a01b031916905d565b506020823d6020116136e4575b816136d260209383612df4565b8101031261023a576136a6915161369c565b3d91506136c5565b9093506020929192813d60201161371f575b8161370b60209383612df4565b8101031261023a5751929091906024613662565b3d91506136fe565b633eba142360e21b5f5260045260245ffd5b821561379f5761374b83835f84614693565b60018060a01b03165f52600860205260405f2060018060a01b0382165f5260205260405f2061377b838254612e6d565b905560018060a01b03165f52600760205261379b60405f20918254612e6d565b9055565b505050565b908315612f5057838361374b9284614693565b5f5c6001600160a01b0316806137275750565b919060e08382031261023a576137e5906020845194016130f2565b90565b936020936080936101609793875285870152604086015260018060a01b0316606085015260a082850152805160a085015260018060a01b03838201511660c085015265ffffffffffff60408201511660e085015265ffffffffffff606082015116610100850152015160a0610120840152805191829182610140860152018484015e5f828201840152601f01601f1916010190565b5f5b83811061388c5750505050565b6138978185856131c1565b3581151580613975575b613949576040516331a9108f60e11b8152600481018290526001600160a01b03841690602081602481855afa908115610713575f91613910575b50336001600160a01b03909116036138f757505060010161387f565b637605c78360e01b5f526004526024523360445260645ffd5b90506020813d8211613941575b8161392a60209383612df4565b8101031261023a5761393b906130de565b5f6138db565b3d915061391d565b835f198301868482116128f95761395f926131c1565b3563ce4a5c8f60e01b5f5260045260245260445ffd5b505f1982018281116128f95761398c9086866131c1565b358111156138a1565b6001600160401b038111610c9f5760051b60200190565b906139b682613995565b6139c36040519182612df4565b82815280926139d4601f1991613995565b0190602036910137565b9192909394613a106115227f000000000000000000000000000000000000000000000000000000000000000042612e15565b8015613b795785613b0e57604051613a29602082612df4565b5f81525f368137905b5f198101908082116128f957613a69907f000000000000000000000000000000000000000000000000000000000000000090612e6d565b9160405195613a7787612da2565b6001600160a01b031680875260208701989098526040860152606085015260808401525f5b818110613aac5750505050505050565b80613ac2613abd600193858b6131c1565b612e87565b613ace8186898961488b565b9081613add575b505001613a9c565b885f52600460205260405f2090848060a01b03165f52602052613b0560405f20918254612e6d565b90555f80613ad5565b60018060a01b0384165f52600c60205260405f20865f5260205260405f20604051808260208294549384815201905f5260205f20925f5b818110613b60575050613b5a92500382612df4565b90613a32565b8454835260019485019486945060209093019201613b45565b50505050505050565b610180526101005293509091613bbb6115227f000000000000000000000000000000000000000000000000000000000000000042612e15565b6101e0525f5b818110613bcf575050505050565b613bdd613abd8284876131c1565b610140525f6101208190525b838110613ca4575060019061012051613c03575b01613bc1565b818060a01b0361018051165f52600460205260405f20828060a01b0361014051165f5260205260405f20610120518154039055613c4e61012051610140516101005161018051614693565b60408051610140516101e0516101805161012051845233602085015260a087901b8790039283169491939216917f8bbe2f8aeebe4d9f7ca16ec8191e32027be4340e6635c0867c2252e9697463439190a4613bfd565b95613cb68785889697989594956131c1565b356101605260018060a01b0361018051165f525f60205260405f20610100515f5260205260405f20610160515f5260205260405f2060018060a01b0361014051165f5260205260405f205480613f5e5750610180516001600160a01b039081165f8181526001602090815260408083206101005180855290835281842061016051808652908452828520610140519097168086529684528285205495855260068452828520918552908352818420908452825280832094835293905291909120610200819052546101a052610220819052955b866101a051881015613f0357613da56122808961020051612d6e565b6101c0526101c05151975f986101e0518111613ec4575b50613dd78960206101c051015160406101c051015190614589565b509081613e37575b600191500197159081613e18575b5080613e09575b15613d89576001610220510161022052613d89565b50600161022051018714613df4565b620186a09150613e2d60029161020051612d6e565b500154145f613ded565b89620186a00391620186a083116128f9576001926002613e5a8461020051612d6e565b500155613e6a8161012051612e6d565b610120526101c051517f52f3a98beadb93c8d2fc7842b5a39ec751b4f3a4bd7115941576323eb9cc982160405180613ebc6101605195888060a01b03610180511695339161014051610100518661485b565b0390a3613ddf565b613efc9199506134ba6134b57f0000000000000000000000000000000000000000000000000000000000000000926101e05190612e15565b975f613dbc565b509493955095600190929192818060a01b0361018051165f528160205260405f20610100515f5260205260405f20610160515f5260205260405f20828060a01b0361014051165f5260205260405f2061022051905501613be9565b6040516328b04e6f60e21b81526101405161016051610180516001600160a01b03908116600485015260248401919091521660448201526064810191909152608490fd5b9492919394610180526101005260c052608052613fe26115227f000000000000000000000000000000000000000000000000000000000000000042612e15565b6101a0525f5b6080518110613ff75750505050565b614007613abd82608051866131c1565b610140525f61012081905260e0525b60c05160e0511061412e5761012051614032575b600101613fe8565b610180516001600160a01b039081165f8181526004602090815260408083206101405190951680845294825280832061012051815481900390915593835260088252808320948352939052919091208054909161408e91612e15565b905560018060a01b0361014051165f52600760205260405f206140b5610120518254612e15565b9055610140516001600160a01b031661eeee03614115575f80808061012051885af16140df613192565b50156140f0576001905b905061402a565b635d824a5360e01b5f9081526001600160a01b03851660045261012051602452604490fd5b6001906141296101205186610140516147ef565b6140e9565b91909361414060e05160c051876131c1565b356101605260018060a01b0361018051165f525f60205260405f20610100515f5260205260405f20610160515f5260205260405f2060018060a01b0361014051165f5260205260405f205480613f5e5750610180516001600160a01b039081165f81815260016020908152604080832061010051808552908352818420610160518086529084528285206101405190971680865296845282852054610220819052958552600684528285209185529083528184209084528252808320948352939052919091206101c081905254610200526101e0525b610220516102005181101561439757614238612280610220516101c051612d6e565b60a05260a051515f906101a051811161435a575b5061426581602060a0510151604060a051015190614589565b50806142cd575b5060016102205101610220521590816142ae575b508061429c575b156142165760016101e051016101e052614216565b5060016101e051016102205114614287565b620186a091506142c36002916101c051612d6e565b500154145f614280565b81620186a003620186a081116128f95760026142ef610220516101c051612d6e565b5001556142ff8161012051612e6d565b6101205260a051517f52f3a98beadb93c8d2fc7842b5a39ec751b4f3a4bd7115941576323eb9cc982160405180614351610160519560018060a01b03610180511695339161014051610100518661485b565b0390a35f61426c565b61439191506134ba6134b57f0000000000000000000000000000000000000000000000000000000000000000926101a05190612e15565b5f61424c565b5093909160018060a01b0361018051165f52600160205260405f20610100515f5260205260405f20610160515f5260205260405f2060018060a01b0361014051165f5260205260405f206101e0519055600160e0510160e052614016565b90815f52600260205260405f205491821561440d5750565b435f198101935083116128f9575f81815260026020908152604091829020859055815185815233918101919091527fea119caa7d9406125f99ff1749745794bb422ea2e1cf0f9e1f71ebafc0ba417a9190a2565b919392909360018060a01b03831690815f52600360205260405f20865f5260205260405f2060018060a01b0382165f5260205260405f20835f5260205260405f206144ab81614de0565b1561457f57600181018054915490976001600160d01b0391821692909116828110156145735782847f06d230aaaae4ffd9233361936dcfc186a0f6305a24e39f734f28e2eef6fea544959361450561455394606097612e15565b9b8c9360018060d01b031665ffffffffffff60d01b82541617905561454d6115227f000000000000000000000000000000000000000000000000000000000000000042612e15565b99614693565b604080516001600160a01b039092168252602082018990523390820152a4565b505f9750505050505050565b505f955050505050565b5f9391928015806145f5575b6145d857620186a00392620186a084116128f957838181116145b657505050565b6145d5939550612299916145cf620186a0809386614d40565b93614d40565b91565b50909250612299620186a06145ed9383614d40565b90620186a090565b50620186a08410614595565b6040516323b872dd60e01b5f9081526001600160a01b039384166004529290931660245260449390935260209060648180865af19060015f5114821615614672575b6040525f606052156146525750565b635274afe760e01b5f9081526001600160a01b0391909116600452602490fd5b90600181151661468a57823b15153d15161690614643565b503d5f823e3d90fd5b9092918215612f50576146c96115227f000000000000000000000000000000000000000000000000000000000000000042612e15565b9060018060a01b0383165f52600360205260405f20855f5260205260405f209060018060a01b03165f5260205260405f20815f5260205260405f209361470e82614dfc565b85549091906001600160d01b031615614759575b505083546001600160d01b039361474693506147419250908416612e6d565b61506c565b82546001600160d01b0319169116179055565b6147c5936147c061476c614741956143f5565b9361479961477986614c85565b8a546001600160d01b031660d09190911b6001600160d01b031916178a55565b6001890180546001600160d01b031660d09290921b6001600160d01b031916919091179055565b614e94565b6002830180546001600160d01b0319166001600160d01b039092169190911790555f808080614722565b916040519163a9059cbb60e01b5f5260018060a01b031660045260245260205f60448180865af19060015f511482161561482f575b604052156146525750565b90600181151661468a57823b15153d15161690614824565b8051821015611e065760209160051b010190565b9081526001600160a01b039182166020820152604081019290925260608201929092529116608082015260a00190565b93929091935f61489a866139ac565b60608301958651600181018091116128f9575f5b898110614c0f575087518111614c02575b87518111614a6157859060018060a01b038651165f52600360205260405f20602087019081515f5260205260405f2060018060a01b0384165f5260205260405f20825f5260205260405f20858c8b83548b60018060d01b03821680614931575b505050505050505060019150016148bf565b61493a87614de0565b1561496f57505050505050508160019361495f92858060a01b038a5116905190614461565b505b86915f858c8b838b8161491f565b600287015496979596949593946001600160d01b0316908161499e575b50505050505050505060019150614961565b614a0798999a60018060a01b038451169551936080604082015191015194604051976149c989612dbd565b8852602088015260408701526001600160a01b03166060860152608085015260a084015260c083015260e0820188905260d01c610100820152615184565b9081614a1d575b848b8a83808b818e999861498c565b906001929583614a599301848060d01b03614a4361474185888060d01b03855416612e6d565b82546001600160d01b0319169116179055612e6d565b93905f614a0e565b50959294939091965f5b818110614a7b5750505050505050565b614a868183886131c1565b3590855191600183018093116128f95760018060a01b038951165f52600a60205260405f209260208a019384515f5260205260405f20825f5260205260405f2060018060a01b0387165f5260205260405f2055614ae38287614847565b51614af4575b506001915001614a6b565b60018060a01b038951165f52600660205260405f2083515f5260205260405f20815f5260205260405f2060018060a01b0386165f5260205260405f209260808a01805190614b42858a614847565b519160405190614b5182612dd9565b81526020810192835260408101965f88528054600160401b811015610c9f57614b7f91600182018155612d6e565b919091614bef576001977f7e1d1c197989bc4a37adcc5fbf4d57709a1097833dea44443e447add8391159094600292518455518984015551910155858060a01b038c5116925190614be6614bd3878c614847565b519151926040519384938c33938661485b565b0390a35f614ae9565b634e487b7160e01b5f525f60045260245ffd5b5096505050505050505f90565b60018060a01b038651165f52600a60205260405f2060208701515f5260205260405f20614c3d828c8b6131c1565b355f5260205260405f2060018060a01b0388165f5260205260405f2054895181111580614c7c575b614c73575b506001016148ae565b91506001614c6a565b50828110614c65565b65ffffffffffff8111614c9d5765ffffffffffff1690565b638d4e7c1360e01b5f5260045260245ffd5b91905f905f198185099080850292838084109303928084039314614d3257620186a0831015614d155750620186a0907f58cd20afa2f05a708ede54b48d3ae685db76b3bb83cf2cf95d4e8fb00bcbe61d94950990828211900360fb1b910360051c170290565b60649186630c740aef60e31b8352600452602452620186a0604452fd5b505050620186a09192500490565b90915f198383099280830292838086109503948086039514614dd35782851015614dbb5790829109600182190182168092046002816003021880820260020302808202600203028082026002030280820260020302808202600203028091026002030293600183805f03040190848311900302920304170290565b630c740aef60e31b5f5260045260245260445260645ffd5b5050906137e59250612e22565b6001015460d01c8015159081614df4575090565b905042101590565b65ffffffffffff7f00000000000000000000000000000000000000000000000000000000000000001690811561328b57600181018091116128f9576137e591614e6b6113f7614e70937f0000000000000000000000000000000000000000000000000000000000000000612e5a565b612e6d565b614c85565b9081602091031261023a57516001600160a01b038116810361023a5790565b6040516305a48c0b60e41b81525f9493909290916001600160a01b0316602084600481845afa938415610713575f9461503b575b508115614fcc575f52600c60205260405f20905f5260205260405f20604051808260208294549384815201905f5260205f20925f5b818110614fb3575050614f1292500382612df4565b5f945b8151861015614fac57614f288683614847565b5160405163a875a4b160e01b81526004810191909152602481018490526020816044816001600160a01b0389165afa908115610713575f91614f7a575b50614f7290600192612e6d565b950194614f15565b90506020813d8211614fa4575b81614f9460209383612df4565b8101031261023a57516001614f65565b3d9150614f87565b9450505050565b8454835260019485019486945060209093019201614efd565b5050604051632394e7a360e21b81526004810191909152919250602090829060249082906001600160a01b03165afa908115610713575f9161500c575090565b90506020813d602011615033575b8161502760209383612df4565b8101031261023a575190565b3d915061501a565b61505e91945060203d602011615065575b6150568183612df4565b810190614e75565b925f614ec8565b503d61504c565b6001600160d01b038111615086576001600160d01b031690565b6310e2fc3d60e01b5f5260045260245ffd5b92916040519163095ea7b360e01b5f5260018060a01b031660045260245260205f60448180875af19260015f51148416156150d4575b50604052565b3d15903b151516909216915f6150ce565b60405163095ea7b360e01b5f9081526001600160a01b03909316600452602483905290929160209060448180875af19260015f51148416156151275750604052565b60018492941516615140573b15153d151616915f6150ce565b833d5f823e3d90fd5b92916040519163095ea7b360e01b5f5260018060a01b031660045260245260205f60448180875af19260015f51148416156151275750604052565b909392935f94602083018051615303575061519e84613995565b916151ac6040519384612df4565b848352601f196151bb86613995565b013660208501376151cb856139ac565b915f955f5b81811061525457505050505f5b8481106151eb575050505050565b806151f860019284614847565b51855160a084901b8490039081165f908152600b6020908152604080832060608b015185168452825280832060e08b0151845290915290209061523b8488614847565b5116848060a01b03165f5260205260405f2055016151dd565b60018060a01b038751165f52600a60205260405f205f805260205260405f2061527e8284876131c1565b355f9081526020918252604080822060608b01516001600160a01b03168352909252205460e088015110156152b6575b6001016151d0565b98966152fb6152d560019287896152ce8f888b6131c1565b358c61579b565b998c6152f56152ee846152e8848b614847565b51612e6d565b9188614847565b52612e6d565b9990506152ae565b9495949390915f5b82811061531b5750505050505090565b60018060a01b038551165f52600a60205260405f2086515f5260205260405f206153468285856131c1565b355f9081526020918252604080822060608901516001600160a01b03168352909252205460e0860151101561537e575b60010161530b565b61539361538c8285856131c1565b35866155cc565b8061539f575b50615376565b600191976153bb6153d49260808901519060a08a015191614d40565b906153ca826152e88c8a614847565b6152f58b89614847565b9690615399565b51906001600160681b038216820361023a57565b60208183031261023a578051906001600160401b03821161023a57019081810391610220831261023a57604051926101a084018481106001600160401b03821117610c9f57604052615440826130cd565b845261544e602083016153db565b602085015261545f604083016130cd565b6040850152615470606083016130cd565b6060850152615481608083016153db565b608085015261549260a083016130be565b60a08501526154a360c083016130de565b60c085015260e082015160e085015261010082015162ffffff8116810361023a576101008501526101208201519060ff8216820361023a5760a09161012086015261013f19011261023a576040516154fa81612da2565b6155076101408301612e7a565b81526155166101608301612e7a565b60208201526155286101808301612e7a565b604082015261553a6101a08301612e7a565b606082015261554c6101c08301612e7a565b60808201526101408401526155646101e082016130cd565b610160840152610200810151906001600160401b03821161023a570181601f8201121561023a5780519061559782613177565b926155a56040519485612df4565b8284526020838301011161023a57815f9260208093018386015e8301015261018082015290565b805160405163507f146560e01b815291929190602090829060049082906001600160a01b03165afa908115610713576024916020915f9161577e575b506040516342f9914b60e01b81526004810185905292839182906001600160a01b03165afa8015610713575f9061574a575b61564a9150604084015190615ab8565b1561328b5781516101008301516001600160a01b039161566e919084908416615b06565b161561328b57815160405163507f146560e01b81529190602090839060049082906001600160a01b03165afa918215610713575f92615726575b50915160405163c44a8e6d60e01b81526001600160a01b03918216600482015260248101939093525f604484018190529183916064918391165afa908115610713576001600160681b03916080915f91615704575b5001511690565b61572091503d805f833e6157188183612df4565b8101906153ef565b5f6156fd565b5f925061574360649160203d602011615065576150568183612df4565b92506156a8565b506020813d602011615776575b8161576460209383612df4565b8101031261023a5761564a905161563a565b3d9150615757565b6157959150823d8411615065576150568183612df4565b5f615608565b805160405163507f146560e01b81529196949386929091602090829060049082906001600160a01b03165afa908115610713575f91615a99575b50875160405163c44a8e6d60e01b81526001600160a01b039182166004820152602481018690525f604482018190529092909183916064918391165afa908115610713576001600160681b03916080915f91615a7f575b50015188516101008a0180515f9794909316959390926001600160a01b039261585792908416615b06565b16918215615a72575088516040516305a48c0b60e41b815293929190602090859060049082906001600160a01b03165afa938415610713575f94615a50575b5060209051604460405180968193630748d63560e31b8352866004840152602483015260018060a01b03165afa928315610713575f93615a1c575b508215615a11575f5f5b8981106159e3575b5015615972575b50506158f68385614847565b5181111561596b576159139061590c8486614847565b5190612e15565b808210156159635750945b851561595b57808660a0608061593994015192015191614d40565b94851561595b5790615952615958926152e88386614847565b92614847565b52565b505f94505050565b90509461591e565b505f615913565b8791945080615985836001959a97614847565b52828060a01b038951165f52600b60205260405f20838060a01b0360608b015116848060a01b03165f5260205260405f2060e08a01515f5260205260405f20905f5260205260405f20546159d98287614847565b5201945f806158ea565b826001600160a01b036159f68387614847565b511614615a05576001016158db565b9550600190505f6158e3565b505f97505050505050565b9092506020813d602011615a48575b81615a3860209383612df4565b8101031261023a5751915f6158d1565b3d9150615a2b565b6020919450615a6b90823d8411615065576150568183612df4565b9390615896565b5f99509750505050505050565b615a9391503d805f833e6157188183612df4565b5f61582c565b615ab2915060203d602011615065576150568183612df4565b5f6157d5565b5f915f5b8151811015615b005782615ad08284614847565b5114615af75782615ae18284614847565b5111615aef57600101615abc565b505050505f90565b50505050600190565b50505090565b6040516305a48c0b60e41b81529190602090839060049082906001600160a01b03165afa908115610713575f9384938493615bc1575b50604051906020820192633056210b60e01b84526024830152604482015260448152615b69606482612df4565b51916001600160a01b03165afa615b7e613192565b90158015615bb6575b615bb15760208180518101031261023a57602001516001600160a01b0381169081900361023a5790565b505f90565b506020815110615b87565b615bdb91935060203d602011615065576150568183612df4565b915f615b3c56fea164736f6c634300081c000a",
	"gitCommit": "npm:@bananapus/distributor-v6@0.0.38",
	"gitDirty": false,
	"history": []
}