{
	"format": "sphinx-sol-ct-artifact-1",
	"address": "0x4c326c1614c45be24573cb12c866867c7b5702c4",
	"sourceName": "node_modules/@bananapus/suckers-v6/src/JBArbitrumSucker.sol",
	"contractName": "JBArbitrumSucker",
	"chainId": "0x66eee",
	"abi": [
		{
			"type": "constructor",
			"inputs": [
				{
					"name": "deployer",
					"type": "address",
					"internalType": "contract JBArbitrumSuckerDeployer"
				},
				{
					"name": "directory",
					"type": "address",
					"internalType": "contract IJBDirectory"
				},
				{
					"name": "permissions",
					"type": "address",
					"internalType": "contract IJBPermissions"
				},
				{
					"name": "tokens",
					"type": "address",
					"internalType": "contract IJBTokens"
				},
				{
					"name": "feeProjectId",
					"type": "uint256",
					"internalType": "uint256"
				},
				{
					"name": "registry",
					"type": "address",
					"internalType": "contract IJBSuckerRegistry"
				},
				{
					"name": "trustedForwarder",
					"type": "address",
					"internalType": "address"
				}
			],
			"stateMutability": "nonpayable"
		},
		{
			"type": "receive",
			"stateMutability": "payable"
		},
		{
			"type": "function",
			"name": "ARBINBOX",
			"inputs": [],
			"outputs": [
				{
					"name": "",
					"type": "address",
					"internalType": "contract IInbox"
				}
			],
			"stateMutability": "view"
		},
		{
			"type": "function",
			"name": "DIRECTORY",
			"inputs": [],
			"outputs": [
				{
					"name": "",
					"type": "address",
					"internalType": "contract IJBDirectory"
				}
			],
			"stateMutability": "view"
		},
		{
			"type": "function",
			"name": "FEE_PROJECT_ID",
			"inputs": [],
			"outputs": [
				{
					"name": "",
					"type": "uint256",
					"internalType": "uint256"
				}
			],
			"stateMutability": "view"
		},
		{
			"type": "function",
			"name": "GATEWAYROUTER",
			"inputs": [],
			"outputs": [
				{
					"name": "",
					"type": "address",
					"internalType": "contract IArbGatewayRouter"
				}
			],
			"stateMutability": "view"
		},
		{
			"type": "function",
			"name": "LAYER",
			"inputs": [],
			"outputs": [
				{
					"name": "",
					"type": "uint8",
					"internalType": "enum JBLayer"
				}
			],
			"stateMutability": "view"
		},
		{
			"type": "function",
			"name": "MESSAGE_VERSION",
			"inputs": [],
			"outputs": [
				{
					"name": "",
					"type": "uint8",
					"internalType": "uint8"
				}
			],
			"stateMutability": "view"
		},
		{
			"type": "function",
			"name": "MESSENGER_BASE_GAS_LIMIT",
			"inputs": [],
			"outputs": [
				{
					"name": "",
					"type": "uint32",
					"internalType": "uint32"
				}
			],
			"stateMutability": "view"
		},
		{
			"type": "function",
			"name": "MESSENGER_ERC20_MIN_GAS_LIMIT",
			"inputs": [],
			"outputs": [
				{
					"name": "",
					"type": "uint32",
					"internalType": "uint32"
				}
			],
			"stateMutability": "view"
		},
		{
			"type": "function",
			"name": "PERMISSIONS",
			"inputs": [],
			"outputs": [
				{
					"name": "",
					"type": "address",
					"internalType": "contract IJBPermissions"
				}
			],
			"stateMutability": "view"
		},
		{
			"type": "function",
			"name": "PROJECTS",
			"inputs": [],
			"outputs": [
				{
					"name": "",
					"type": "address",
					"internalType": "contract IJBProjects"
				}
			],
			"stateMutability": "view"
		},
		{
			"type": "function",
			"name": "REGISTRY",
			"inputs": [],
			"outputs": [
				{
					"name": "",
					"type": "address",
					"internalType": "contract IJBSuckerRegistry"
				}
			],
			"stateMutability": "view"
		},
		{
			"type": "function",
			"name": "TOKENS",
			"inputs": [],
			"outputs": [
				{
					"name": "",
					"type": "address",
					"internalType": "contract IJBTokens"
				}
			],
			"stateMutability": "view"
		},
		{
			"type": "function",
			"name": "amountToAddToBalanceOf",
			"inputs": [
				{
					"name": "token",
					"type": "address",
					"internalType": "address"
				}
			],
			"outputs": [
				{
					"name": "",
					"type": "uint256",
					"internalType": "uint256"
				}
			],
			"stateMutability": "view"
		},
		{
			"type": "function",
			"name": "claim",
			"inputs": [
				{
					"name": "claims",
					"type": "tuple[]",
					"internalType": "struct JBClaim[]",
					"components": [
						{
							"name": "token",
							"type": "address",
							"internalType": "address"
						},
						{
							"name": "leaf",
							"type": "tuple",
							"internalType": "struct JBLeaf",
							"components": [
								{
									"name": "index",
									"type": "uint256",
									"internalType": "uint256"
								},
								{
									"name": "beneficiary",
									"type": "bytes32",
									"internalType": "bytes32"
								},
								{
									"name": "projectTokenCount",
									"type": "uint256",
									"internalType": "uint256"
								},
								{
									"name": "terminalTokenAmount",
									"type": "uint256",
									"internalType": "uint256"
								},
								{
									"name": "metadata",
									"type": "bytes32",
									"internalType": "bytes32"
								}
							]
						},
						{
							"name": "proof",
							"type": "bytes32[32]",
							"internalType": "bytes32[32]"
						}
					]
				}
			],
			"outputs": [],
			"stateMutability": "nonpayable"
		},
		{
			"type": "function",
			"name": "claim",
			"inputs": [
				{
					"name": "claimData",
					"type": "tuple",
					"internalType": "struct JBClaim",
					"components": [
						{
							"name": "token",
							"type": "address",
							"internalType": "address"
						},
						{
							"name": "leaf",
							"type": "tuple",
							"internalType": "struct JBLeaf",
							"components": [
								{
									"name": "index",
									"type": "uint256",
									"internalType": "uint256"
								},
								{
									"name": "beneficiary",
									"type": "bytes32",
									"internalType": "bytes32"
								},
								{
									"name": "projectTokenCount",
									"type": "uint256",
									"internalType": "uint256"
								},
								{
									"name": "terminalTokenAmount",
									"type": "uint256",
									"internalType": "uint256"
								},
								{
									"name": "metadata",
									"type": "bytes32",
									"internalType": "bytes32"
								}
							]
						},
						{
							"name": "proof",
							"type": "bytes32[32]",
							"internalType": "bytes32[32]"
						}
					]
				}
			],
			"outputs": [],
			"stateMutability": "nonpayable"
		},
		{
			"type": "function",
			"name": "claimRetainedToRemoteFee",
			"inputs": [
				{
					"name": "beneficiary",
					"type": "address",
					"internalType": "address payable"
				}
			],
			"outputs": [],
			"stateMutability": "nonpayable"
		},
		{
			"type": "function",
			"name": "claimRetainedTransportPaymentRefund",
			"inputs": [
				{
					"name": "beneficiary",
					"type": "address",
					"internalType": "address payable"
				}
			],
			"outputs": [],
			"stateMutability": "nonpayable"
		},
		{
			"type": "function",
			"name": "deployer",
			"inputs": [],
			"outputs": [
				{
					"name": "",
					"type": "address",
					"internalType": "address"
				}
			],
			"stateMutability": "view"
		},
		{
			"type": "function",
			"name": "enableEmergencyHatchFor",
			"inputs": [
				{
					"name": "tokens",
					"type": "address[]",
					"internalType": "address[]"
				}
			],
			"outputs": [],
			"stateMutability": "nonpayable"
		},
		{
			"type": "function",
			"name": "executedLeafHashOf",
			"inputs": [
				{
					"name": "token",
					"type": "address",
					"internalType": "address"
				},
				{
					"name": "index",
					"type": "uint256",
					"internalType": "uint256"
				}
			],
			"outputs": [
				{
					"name": "",
					"type": "bytes32",
					"internalType": "bytes32"
				}
			],
			"stateMutability": "view"
		},
		{
			"type": "function",
			"name": "exitThroughEmergencyHatch",
			"inputs": [
				{
					"name": "claimData",
					"type": "tuple",
					"internalType": "struct JBClaim",
					"components": [
						{
							"name": "token",
							"type": "address",
							"internalType": "address"
						},
						{
							"name": "leaf",
							"type": "tuple",
							"internalType": "struct JBLeaf",
							"components": [
								{
									"name": "index",
									"type": "uint256",
									"internalType": "uint256"
								},
								{
									"name": "beneficiary",
									"type": "bytes32",
									"internalType": "bytes32"
								},
								{
									"name": "projectTokenCount",
									"type": "uint256",
									"internalType": "uint256"
								},
								{
									"name": "terminalTokenAmount",
									"type": "uint256",
									"internalType": "uint256"
								},
								{
									"name": "metadata",
									"type": "bytes32",
									"internalType": "bytes32"
								}
							]
						},
						{
							"name": "proof",
							"type": "bytes32[32]",
							"internalType": "bytes32[32]"
						}
					]
				}
			],
			"outputs": [],
			"stateMutability": "nonpayable"
		},
		{
			"type": "function",
			"name": "fromRemote",
			"inputs": [
				{
					"name": "root",
					"type": "tuple",
					"internalType": "struct JBMessageRoot",
					"components": [
						{
							"name": "version",
							"type": "uint8",
							"internalType": "uint8"
						},
						{
							"name": "token",
							"type": "bytes32",
							"internalType": "bytes32"
						},
						{
							"name": "amount",
							"type": "uint256",
							"internalType": "uint256"
						},
						{
							"name": "remoteRoot",
							"type": "tuple",
							"internalType": "struct JBInboxTreeRoot",
							"components": [
								{
									"name": "nonce",
									"type": "uint64",
									"internalType": "uint64"
								},
								{
									"name": "root",
									"type": "bytes32",
									"internalType": "bytes32"
								}
							]
						},
						{
							"name": "sourceTotalSupply",
							"type": "uint256",
							"internalType": "uint256"
						},
						{
							"name": "sourceContexts",
							"type": "tuple[]",
							"internalType": "struct JBSourceContext[]",
							"components": [
								{
									"name": "token",
									"type": "bytes32",
									"internalType": "bytes32"
								},
								{
									"name": "decimals",
									"type": "uint8",
									"internalType": "uint8"
								},
								{
									"name": "surplus",
									"type": "uint128",
									"internalType": "uint128"
								},
								{
									"name": "balance",
									"type": "uint128",
									"internalType": "uint128"
								}
							]
						},
						{
							"name": "sourceTimestamp",
							"type": "uint256",
							"internalType": "uint256"
						}
					]
				}
			],
			"outputs": [],
			"stateMutability": "payable"
		},
		{
			"type": "function",
			"name": "fromRemoteAccounting",
			"inputs": [
				{
					"name": "snapshot",
					"type": "tuple",
					"internalType": "struct JBAccountingSnapshot",
					"components": [
						{
							"name": "version",
							"type": "uint8",
							"internalType": "uint8"
						},
						{
							"name": "sourceTotalSupply",
							"type": "uint256",
							"internalType": "uint256"
						},
						{
							"name": "sourceContexts",
							"type": "tuple[]",
							"internalType": "struct JBSourceContext[]",
							"components": [
								{
									"name": "token",
									"type": "bytes32",
									"internalType": "bytes32"
								},
								{
									"name": "decimals",
									"type": "uint8",
									"internalType": "uint8"
								},
								{
									"name": "surplus",
									"type": "uint128",
									"internalType": "uint128"
								},
								{
									"name": "balance",
									"type": "uint128",
									"internalType": "uint128"
								}
							]
						},
						{
							"name": "sourceTimestamp",
							"type": "uint256",
							"internalType": "uint256"
						}
					]
				}
			],
			"outputs": [],
			"stateMutability": "nonpayable"
		},
		{
			"type": "function",
			"name": "inboxOf",
			"inputs": [
				{
					"name": "token",
					"type": "address",
					"internalType": "address"
				}
			],
			"outputs": [
				{
					"name": "",
					"type": "tuple",
					"internalType": "struct JBInboxTreeRoot",
					"components": [
						{
							"name": "nonce",
							"type": "uint64",
							"internalType": "uint64"
						},
						{
							"name": "root",
							"type": "bytes32",
							"internalType": "bytes32"
						}
					]
				}
			],
			"stateMutability": "view"
		},
		{
			"type": "function",
			"name": "initialize",
			"inputs": [
				{
					"name": "localProjectId",
					"type": "uint256",
					"internalType": "uint256"
				},
				{
					"name": "remotePeer",
					"type": "bytes32",
					"internalType": "bytes32"
				}
			],
			"outputs": [],
			"stateMutability": "nonpayable"
		},
		{
			"type": "function",
			"name": "initialize",
			"inputs": [
				{
					"name": "initialProjectId",
					"type": "uint256",
					"internalType": "uint256"
				}
			],
			"outputs": [],
			"stateMutability": "nonpayable"
		},
		{
			"type": "function",
			"name": "isMapped",
			"inputs": [
				{
					"name": "token",
					"type": "address",
					"internalType": "address"
				}
			],
			"outputs": [
				{
					"name": "",
					"type": "bool",
					"internalType": "bool"
				}
			],
			"stateMutability": "view"
		},
		{
			"type": "function",
			"name": "isTrustedForwarder",
			"inputs": [
				{
					"name": "forwarder",
					"type": "address",
					"internalType": "address"
				}
			],
			"outputs": [
				{
					"name": "",
					"type": "bool",
					"internalType": "bool"
				}
			],
			"stateMutability": "view"
		},
		{
			"type": "function",
			"name": "mapToken",
			"inputs": [
				{
					"name": "map",
					"type": "tuple",
					"internalType": "struct JBTokenMapping",
					"components": [
						{
							"name": "localToken",
							"type": "address",
							"internalType": "address"
						},
						{
							"name": "minGas",
							"type": "uint32",
							"internalType": "uint32"
						},
						{
							"name": "remoteToken",
							"type": "bytes32",
							"internalType": "bytes32"
						}
					]
				}
			],
			"outputs": [],
			"stateMutability": "payable"
		},
		{
			"type": "function",
			"name": "mapTokens",
			"inputs": [
				{
					"name": "maps",
					"type": "tuple[]",
					"internalType": "struct JBTokenMapping[]",
					"components": [
						{
							"name": "localToken",
							"type": "address",
							"internalType": "address"
						},
						{
							"name": "minGas",
							"type": "uint32",
							"internalType": "uint32"
						},
						{
							"name": "remoteToken",
							"type": "bytes32",
							"internalType": "bytes32"
						}
					]
				}
			],
			"outputs": [],
			"stateMutability": "payable"
		},
		{
			"type": "function",
			"name": "outboxOf",
			"inputs": [
				{
					"name": "token",
					"type": "address",
					"internalType": "address"
				}
			],
			"outputs": [
				{
					"name": "",
					"type": "tuple",
					"internalType": "struct JBOutboxTree",
					"components": [
						{
							"name": "nonce",
							"type": "uint64",
							"internalType": "uint64"
						},
						{
							"name": "numberOfClaimsSent",
							"type": "uint192",
							"internalType": "uint192"
						},
						{
							"name": "balance",
							"type": "uint256",
							"internalType": "uint256"
						},
						{
							"name": "tree",
							"type": "tuple",
							"internalType": "struct MerkleLib.Tree",
							"components": [
								{
									"name": "branch",
									"type": "bytes32[32]",
									"internalType": "bytes32[32]"
								},
								{
									"name": "count",
									"type": "uint256",
									"internalType": "uint256"
								}
							]
						}
					]
				}
			],
			"stateMutability": "view"
		},
		{
			"type": "function",
			"name": "peer",
			"inputs": [],
			"outputs": [
				{
					"name": "",
					"type": "bytes32",
					"internalType": "bytes32"
				}
			],
			"stateMutability": "view"
		},
		{
			"type": "function",
			"name": "peerChainContextsOf",
			"inputs": [],
			"outputs": [
				{
					"name": "contexts",
					"type": "tuple[]",
					"internalType": "struct JBPeerChainContext[]",
					"components": [
						{
							"name": "currency",
							"type": "uint32",
							"internalType": "uint32"
						},
						{
							"name": "decimals",
							"type": "uint8",
							"internalType": "uint8"
						},
						{
							"name": "surplus",
							"type": "uint128",
							"internalType": "uint128"
						},
						{
							"name": "balance",
							"type": "uint128",
							"internalType": "uint128"
						}
					]
				},
				{
					"name": "chainId",
					"type": "uint256",
					"internalType": "uint256"
				},
				{
					"name": "snapshot",
					"type": "uint256",
					"internalType": "uint256"
				}
			],
			"stateMutability": "view"
		},
		{
			"type": "function",
			"name": "peerChainId",
			"inputs": [],
			"outputs": [
				{
					"name": "",
					"type": "uint256",
					"internalType": "uint256"
				}
			],
			"stateMutability": "view"
		},
		{
			"type": "function",
			"name": "peerChainTotalSupply",
			"inputs": [],
			"outputs": [
				{
					"name": "",
					"type": "uint256",
					"internalType": "uint256"
				}
			],
			"stateMutability": "view"
		},
		{
			"type": "function",
			"name": "peerChainTotalSupplyValue",
			"inputs": [],
			"outputs": [
				{
					"name": "",
					"type": "tuple",
					"internalType": "struct JBPeerChainValue",
					"components": [
						{
							"name": "value",
							"type": "uint256",
							"internalType": "uint256"
						},
						{
							"name": "peerChainId",
							"type": "uint256",
							"internalType": "uint256"
						},
						{
							"name": "snapshotTimestamp",
							"type": "uint256",
							"internalType": "uint256"
						}
					]
				}
			],
			"stateMutability": "view"
		},
		{
			"type": "function",
			"name": "prepare",
			"inputs": [
				{
					"name": "projectTokenCount",
					"type": "uint256",
					"internalType": "uint256"
				},
				{
					"name": "beneficiary",
					"type": "bytes32",
					"internalType": "bytes32"
				},
				{
					"name": "minTokensReclaimed",
					"type": "uint256",
					"internalType": "uint256"
				},
				{
					"name": "token",
					"type": "address",
					"internalType": "address"
				},
				{
					"name": "metadata",
					"type": "bytes32",
					"internalType": "bytes32"
				}
			],
			"outputs": [],
			"stateMutability": "nonpayable"
		},
		{
			"type": "function",
			"name": "projectId",
			"inputs": [],
			"outputs": [
				{
					"name": "",
					"type": "uint256",
					"internalType": "uint256"
				}
			],
			"stateMutability": "view"
		},
		{
			"type": "function",
			"name": "remoteTokenFor",
			"inputs": [
				{
					"name": "token",
					"type": "address",
					"internalType": "address"
				}
			],
			"outputs": [
				{
					"name": "",
					"type": "tuple",
					"internalType": "struct JBRemoteToken",
					"components": [
						{
							"name": "enabled",
							"type": "bool",
							"internalType": "bool"
						},
						{
							"name": "emergencyHatch",
							"type": "bool",
							"internalType": "bool"
						},
						{
							"name": "minGas",
							"type": "uint32",
							"internalType": "uint32"
						},
						{
							"name": "addr",
							"type": "bytes32",
							"internalType": "bytes32"
						}
					]
				}
			],
			"stateMutability": "view"
		},
		{
			"type": "function",
			"name": "retainedToRemoteFeeBalance",
			"inputs": [],
			"outputs": [
				{
					"name": "",
					"type": "uint256",
					"internalType": "uint256"
				}
			],
			"stateMutability": "view"
		},
		{
			"type": "function",
			"name": "retainedToRemoteFeeOf",
			"inputs": [
				{
					"name": "account",
					"type": "address",
					"internalType": "address"
				}
			],
			"outputs": [
				{
					"name": "amount",
					"type": "uint256",
					"internalType": "uint256"
				}
			],
			"stateMutability": "view"
		},
		{
			"type": "function",
			"name": "retainedTransportPaymentRefundBalance",
			"inputs": [],
			"outputs": [
				{
					"name": "",
					"type": "uint256",
					"internalType": "uint256"
				}
			],
			"stateMutability": "view"
		},
		{
			"type": "function",
			"name": "retainedTransportPaymentRefundOf",
			"inputs": [
				{
					"name": "account",
					"type": "address",
					"internalType": "address"
				}
			],
			"outputs": [
				{
					"name": "amount",
					"type": "uint256",
					"internalType": "uint256"
				}
			],
			"stateMutability": "view"
		},
		{
			"type": "function",
			"name": "setDeprecation",
			"inputs": [
				{
					"name": "timestamp",
					"type": "uint40",
					"internalType": "uint40"
				}
			],
			"outputs": [],
			"stateMutability": "nonpayable"
		},
		{
			"type": "function",
			"name": "snapshotTimestamp",
			"inputs": [],
			"outputs": [
				{
					"name": "",
					"type": "uint256",
					"internalType": "uint256"
				}
			],
			"stateMutability": "view"
		},
		{
			"type": "function",
			"name": "state",
			"inputs": [],
			"outputs": [
				{
					"name": "",
					"type": "uint8",
					"internalType": "enum JBSuckerState"
				}
			],
			"stateMutability": "view"
		},
		{
			"type": "function",
			"name": "supportsInterface",
			"inputs": [
				{
					"name": "interfaceId",
					"type": "bytes4",
					"internalType": "bytes4"
				}
			],
			"outputs": [
				{
					"name": "",
					"type": "bool",
					"internalType": "bool"
				}
			],
			"stateMutability": "view"
		},
		{
			"type": "function",
			"name": "syncAccountingData",
			"inputs": [],
			"outputs": [],
			"stateMutability": "payable"
		},
		{
			"type": "function",
			"name": "toRemote",
			"inputs": [
				{
					"name": "token",
					"type": "address",
					"internalType": "address"
				}
			],
			"outputs": [],
			"stateMutability": "payable"
		},
		{
			"type": "function",
			"name": "trustedForwarder",
			"inputs": [],
			"outputs": [
				{
					"name": "",
					"type": "address",
					"internalType": "address"
				}
			],
			"stateMutability": "view"
		},
		{
			"type": "event",
			"name": "AccountingDataSynced",
			"inputs": [
				{
					"name": "sourceTimestamp",
					"type": "uint256",
					"indexed": false,
					"internalType": "uint256"
				},
				{
					"name": "caller",
					"type": "address",
					"indexed": false,
					"internalType": "address"
				}
			],
			"anonymous": false
		},
		{
			"type": "event",
			"name": "ClaimFailed",
			"inputs": [
				{
					"name": "token",
					"type": "address",
					"indexed": true,
					"internalType": "address"
				},
				{
					"name": "index",
					"type": "uint256",
					"indexed": false,
					"internalType": "uint256"
				},
				{
					"name": "caller",
					"type": "address",
					"indexed": false,
					"internalType": "address"
				}
			],
			"anonymous": false
		},
		{
			"type": "event",
			"name": "Claimed",
			"inputs": [
				{
					"name": "beneficiary",
					"type": "bytes32",
					"indexed": false,
					"internalType": "bytes32"
				},
				{
					"name": "token",
					"type": "address",
					"indexed": false,
					"internalType": "address"
				},
				{
					"name": "projectTokenCount",
					"type": "uint256",
					"indexed": false,
					"internalType": "uint256"
				},
				{
					"name": "terminalTokenAmount",
					"type": "uint256",
					"indexed": false,
					"internalType": "uint256"
				},
				{
					"name": "index",
					"type": "uint256",
					"indexed": false,
					"internalType": "uint256"
				},
				{
					"name": "metadata",
					"type": "bytes32",
					"indexed": false,
					"internalType": "bytes32"
				},
				{
					"name": "caller",
					"type": "address",
					"indexed": false,
					"internalType": "address"
				}
			],
			"anonymous": false
		},
		{
			"type": "event",
			"name": "DeprecationTimeUpdated",
			"inputs": [
				{
					"name": "timestamp",
					"type": "uint40",
					"indexed": false,
					"internalType": "uint40"
				},
				{
					"name": "caller",
					"type": "address",
					"indexed": false,
					"internalType": "address"
				}
			],
			"anonymous": false
		},
		{
			"type": "event",
			"name": "EmergencyExit",
			"inputs": [
				{
					"name": "beneficiary",
					"type": "address",
					"indexed": true,
					"internalType": "address"
				},
				{
					"name": "token",
					"type": "address",
					"indexed": true,
					"internalType": "address"
				},
				{
					"name": "terminalTokenAmount",
					"type": "uint256",
					"indexed": false,
					"internalType": "uint256"
				},
				{
					"name": "projectTokenCount",
					"type": "uint256",
					"indexed": false,
					"internalType": "uint256"
				},
				{
					"name": "caller",
					"type": "address",
					"indexed": false,
					"internalType": "address"
				}
			],
			"anonymous": false
		},
		{
			"type": "event",
			"name": "EmergencyHatchOpened",
			"inputs": [
				{
					"name": "tokens",
					"type": "address[]",
					"indexed": false,
					"internalType": "address[]"
				},
				{
					"name": "caller",
					"type": "address",
					"indexed": false,
					"internalType": "address"
				}
			],
			"anonymous": false
		},
		{
			"type": "event",
			"name": "Initialized",
			"inputs": [
				{
					"name": "version",
					"type": "uint64",
					"indexed": false,
					"internalType": "uint64"
				}
			],
			"anonymous": false
		},
		{
			"type": "event",
			"name": "InsertToOutboxTree",
			"inputs": [
				{
					"name": "beneficiary",
					"type": "bytes32",
					"indexed": true,
					"internalType": "bytes32"
				},
				{
					"name": "token",
					"type": "address",
					"indexed": true,
					"internalType": "address"
				},
				{
					"name": "hashed",
					"type": "bytes32",
					"indexed": false,
					"internalType": "bytes32"
				},
				{
					"name": "index",
					"type": "uint256",
					"indexed": false,
					"internalType": "uint256"
				},
				{
					"name": "root",
					"type": "bytes32",
					"indexed": false,
					"internalType": "bytes32"
				},
				{
					"name": "projectTokenCount",
					"type": "uint256",
					"indexed": false,
					"internalType": "uint256"
				},
				{
					"name": "terminalTokenAmount",
					"type": "uint256",
					"indexed": false,
					"internalType": "uint256"
				},
				{
					"name": "metadata",
					"type": "bytes32",
					"indexed": false,
					"internalType": "bytes32"
				},
				{
					"name": "caller",
					"type": "address",
					"indexed": false,
					"internalType": "address"
				}
			],
			"anonymous": false
		},
		{
			"type": "event",
			"name": "NewInboxTreeRoot",
			"inputs": [
				{
					"name": "token",
					"type": "address",
					"indexed": true,
					"internalType": "address"
				},
				{
					"name": "nonce",
					"type": "uint64",
					"indexed": false,
					"internalType": "uint64"
				},
				{
					"name": "root",
					"type": "bytes32",
					"indexed": false,
					"internalType": "bytes32"
				},
				{
					"name": "caller",
					"type": "address",
					"indexed": false,
					"internalType": "address"
				}
			],
			"anonymous": false
		},
		{
			"type": "event",
			"name": "RetainedToRemoteFee",
			"inputs": [
				{
					"name": "account",
					"type": "address",
					"indexed": true,
					"internalType": "address"
				},
				{
					"name": "amount",
					"type": "uint256",
					"indexed": false,
					"internalType": "uint256"
				},
				{
					"name": "caller",
					"type": "address",
					"indexed": false,
					"internalType": "address"
				}
			],
			"anonymous": false
		},
		{
			"type": "event",
			"name": "RetainedToRemoteFeeClaimed",
			"inputs": [
				{
					"name": "account",
					"type": "address",
					"indexed": true,
					"internalType": "address"
				},
				{
					"name": "beneficiary",
					"type": "address",
					"indexed": true,
					"internalType": "address"
				},
				{
					"name": "amount",
					"type": "uint256",
					"indexed": false,
					"internalType": "uint256"
				},
				{
					"name": "caller",
					"type": "address",
					"indexed": false,
					"internalType": "address"
				}
			],
			"anonymous": false
		},
		{
			"type": "event",
			"name": "RetainedTransportPaymentRefund",
			"inputs": [
				{
					"name": "account",
					"type": "address",
					"indexed": true,
					"internalType": "address"
				},
				{
					"name": "amount",
					"type": "uint256",
					"indexed": false,
					"internalType": "uint256"
				},
				{
					"name": "caller",
					"type": "address",
					"indexed": false,
					"internalType": "address"
				}
			],
			"anonymous": false
		},
		{
			"type": "event",
			"name": "RetainedTransportPaymentRefundClaimed",
			"inputs": [
				{
					"name": "account",
					"type": "address",
					"indexed": true,
					"internalType": "address"
				},
				{
					"name": "beneficiary",
					"type": "address",
					"indexed": true,
					"internalType": "address"
				},
				{
					"name": "amount",
					"type": "uint256",
					"indexed": false,
					"internalType": "uint256"
				},
				{
					"name": "caller",
					"type": "address",
					"indexed": false,
					"internalType": "address"
				}
			],
			"anonymous": false
		},
		{
			"type": "event",
			"name": "RootToRemote",
			"inputs": [
				{
					"name": "root",
					"type": "bytes32",
					"indexed": true,
					"internalType": "bytes32"
				},
				{
					"name": "token",
					"type": "address",
					"indexed": true,
					"internalType": "address"
				},
				{
					"name": "index",
					"type": "uint256",
					"indexed": false,
					"internalType": "uint256"
				},
				{
					"name": "nonce",
					"type": "uint64",
					"indexed": false,
					"internalType": "uint64"
				},
				{
					"name": "caller",
					"type": "address",
					"indexed": false,
					"internalType": "address"
				}
			],
			"anonymous": false
		},
		{
			"type": "event",
			"name": "StaleRootRejected",
			"inputs": [
				{
					"name": "token",
					"type": "address",
					"indexed": true,
					"internalType": "address"
				},
				{
					"name": "receivedNonce",
					"type": "uint64",
					"indexed": false,
					"internalType": "uint64"
				},
				{
					"name": "currentNonce",
					"type": "uint64",
					"indexed": false,
					"internalType": "uint64"
				},
				{
					"name": "caller",
					"type": "address",
					"indexed": false,
					"internalType": "address"
				}
			],
			"anonymous": false
		},
		{
			"type": "error",
			"name": "InvalidInitialization",
			"inputs": []
		},
		{
			"type": "error",
			"name": "JBArbitrumSucker_NotEnoughGas",
			"inputs": [
				{
					"name": "payment",
					"type": "uint256",
					"internalType": "uint256"
				},
				{
					"name": "cost",
					"type": "uint256",
					"internalType": "uint256"
				}
			]
		},
		{
			"type": "error",
			"name": "JBPermissioned_Unauthorized",
			"inputs": [
				{
					"name": "account",
					"type": "address",
					"internalType": "address"
				},
				{
					"name": "sender",
					"type": "address",
					"internalType": "address"
				},
				{
					"name": "projectId",
					"type": "uint256",
					"internalType": "uint256"
				},
				{
					"name": "permissionId",
					"type": "uint256",
					"internalType": "uint256"
				}
			]
		},
		{
			"type": "error",
			"name": "JBSucker_AccountingSyncUnsupported",
			"inputs": []
		},
		{
			"type": "error",
			"name": "JBSucker_AmountExceedsUint128",
			"inputs": [
				{
					"name": "amount",
					"type": "uint256",
					"internalType": "uint256"
				}
			]
		},
		{
			"type": "error",
			"name": "JBSucker_BelowMinGas",
			"inputs": [
				{
					"name": "minGas",
					"type": "uint256",
					"internalType": "uint256"
				},
				{
					"name": "minGasLimit",
					"type": "uint256",
					"internalType": "uint256"
				}
			]
		},
		{
			"type": "error",
			"name": "JBSucker_Deprecated",
			"inputs": [
				{
					"name": "state",
					"type": "uint8",
					"internalType": "enum JBSuckerState"
				}
			]
		},
		{
			"type": "error",
			"name": "JBSucker_DeprecationTimestampTooSoon",
			"inputs": [
				{
					"name": "givenTime",
					"type": "uint256",
					"internalType": "uint256"
				},
				{
					"name": "minimumTime",
					"type": "uint256",
					"internalType": "uint256"
				}
			]
		},
		{
			"type": "error",
			"name": "JBSucker_ExpectedMsgValue",
			"inputs": [
				{
					"name": "msgValue",
					"type": "uint256",
					"internalType": "uint256"
				}
			]
		},
		{
			"type": "error",
			"name": "JBSucker_IndexOutOfRange",
			"inputs": [
				{
					"name": "index",
					"type": "uint256",
					"internalType": "uint256"
				}
			]
		},
		{
			"type": "error",
			"name": "JBSucker_InsufficientBalance",
			"inputs": [
				{
					"name": "amount",
					"type": "uint256",
					"internalType": "uint256"
				},
				{
					"name": "balance",
					"type": "uint256",
					"internalType": "uint256"
				}
			]
		},
		{
			"type": "error",
			"name": "JBSucker_InsufficientMsgValue",
			"inputs": [
				{
					"name": "received",
					"type": "uint256",
					"internalType": "uint256"
				},
				{
					"name": "expected",
					"type": "uint256",
					"internalType": "uint256"
				}
			]
		},
		{
			"type": "error",
			"name": "JBSucker_InvalidMessageVersion",
			"inputs": [
				{
					"name": "received",
					"type": "uint8",
					"internalType": "uint8"
				},
				{
					"name": "expected",
					"type": "uint8",
					"internalType": "uint8"
				}
			]
		},
		{
			"type": "error",
			"name": "JBSucker_InvalidNativeRemoteAddress",
			"inputs": [
				{
					"name": "remoteToken",
					"type": "bytes32",
					"internalType": "bytes32"
				}
			]
		},
		{
			"type": "error",
			"name": "JBSucker_InvalidProof",
			"inputs": [
				{
					"name": "root",
					"type": "bytes32",
					"internalType": "bytes32"
				},
				{
					"name": "inboxRoot",
					"type": "bytes32",
					"internalType": "bytes32"
				}
			]
		},
		{
			"type": "error",
			"name": "JBSucker_LeafAlreadyExecuted",
			"inputs": [
				{
					"name": "token",
					"type": "address",
					"internalType": "address"
				},
				{
					"name": "index",
					"type": "uint256",
					"internalType": "uint256"
				}
			]
		},
		{
			"type": "error",
			"name": "JBSucker_NoRetainedToRemoteFee",
			"inputs": [
				{
					"name": "account",
					"type": "address",
					"internalType": "address"
				}
			]
		},
		{
			"type": "error",
			"name": "JBSucker_NoRetainedTransportPaymentRefund",
			"inputs": [
				{
					"name": "account",
					"type": "address",
					"internalType": "address"
				}
			]
		},
		{
			"type": "error",
			"name": "JBSucker_NoTerminalForToken",
			"inputs": [
				{
					"name": "projectId",
					"type": "uint256",
					"internalType": "uint256"
				},
				{
					"name": "token",
					"type": "address",
					"internalType": "address"
				}
			]
		},
		{
			"type": "error",
			"name": "JBSucker_NotPeer",
			"inputs": [
				{
					"name": "caller",
					"type": "bytes32",
					"internalType": "bytes32"
				}
			]
		},
		{
			"type": "error",
			"name": "JBSucker_NothingToSend",
			"inputs": [
				{
					"name": "token",
					"type": "address",
					"internalType": "address"
				},
				{
					"name": "outboxBalance",
					"type": "uint256",
					"internalType": "uint256"
				},
				{
					"name": "treeCount",
					"type": "uint256",
					"internalType": "uint256"
				},
				{
					"name": "numberOfClaimsSent",
					"type": "uint256",
					"internalType": "uint256"
				}
			]
		},
		{
			"type": "error",
			"name": "JBSucker_RefundFailed",
			"inputs": [
				{
					"name": "beneficiary",
					"type": "address",
					"internalType": "address"
				},
				{
					"name": "amount",
					"type": "uint256",
					"internalType": "uint256"
				}
			]
		},
		{
			"type": "error",
			"name": "JBSucker_RemoteTokenAlreadyMapped",
			"inputs": [
				{
					"name": "remoteToken",
					"type": "bytes32",
					"internalType": "bytes32"
				},
				{
					"name": "localToken",
					"type": "address",
					"internalType": "address"
				}
			]
		},
		{
			"type": "error",
			"name": "JBSucker_TokenAlreadyMapped",
			"inputs": [
				{
					"name": "localToken",
					"type": "address",
					"internalType": "address"
				},
				{
					"name": "mappedTo",
					"type": "bytes32",
					"internalType": "bytes32"
				}
			]
		},
		{
			"type": "error",
			"name": "JBSucker_TokenHasInvalidEmergencyHatchState",
			"inputs": [
				{
					"name": "token",
					"type": "address",
					"internalType": "address"
				}
			]
		},
		{
			"type": "error",
			"name": "JBSucker_TokenNotMapped",
			"inputs": [
				{
					"name": "token",
					"type": "address",
					"internalType": "address"
				}
			]
		},
		{
			"type": "error",
			"name": "JBSucker_UnexpectedMsgValue",
			"inputs": [
				{
					"name": "value",
					"type": "uint256",
					"internalType": "uint256"
				}
			]
		},
		{
			"type": "error",
			"name": "JBSucker_UnexpectedTokenBalance",
			"inputs": [
				{
					"name": "token",
					"type": "address",
					"internalType": "address"
				},
				{
					"name": "expectedBalance",
					"type": "uint256",
					"internalType": "uint256"
				},
				{
					"name": "actualBalance",
					"type": "uint256",
					"internalType": "uint256"
				}
			]
		},
		{
			"type": "error",
			"name": "JBSucker_ZeroBeneficiary",
			"inputs": [
				{
					"name": "beneficiary",
					"type": "bytes32",
					"internalType": "bytes32"
				}
			]
		},
		{
			"type": "error",
			"name": "JBSucker_ZeroERC20Token",
			"inputs": [
				{
					"name": "projectId",
					"type": "uint256",
					"internalType": "uint256"
				}
			]
		},
		{
			"type": "error",
			"name": "JBSucker_ZeroProjectTokenCount",
			"inputs": []
		},
		{
			"type": "error",
			"name": "MerkleLib_InsertTreeIsFull",
			"inputs": [
				{
					"name": "size",
					"type": "uint256",
					"internalType": "uint256"
				},
				{
					"name": "maxLeaves",
					"type": "uint256",
					"internalType": "uint256"
				}
			]
		},
		{
			"type": "error",
			"name": "NotInitializing",
			"inputs": []
		},
		{
			"type": "error",
			"name": "SafeERC20FailedOperation",
			"inputs": [
				{
					"name": "token",
					"type": "address",
					"internalType": "address"
				}
			]
		}
	],
	"args": [
		"0xaE02ba1dDFc9B6a783aA77077ECeEaa1DfA295d7",
		"0x64AdBfeA4C04557aEcc4a0DCf9Afd2465b915851",
		"0x8dC962f3C239788e2E037dC0e0eaC59C1DfA00D6",
		"0x07986D1Da3F75bFB685B6CDEe856c24558BB5b37",
		"1",
		"0x12D6958823BFa587Ffc54EC911FA6350a13cc593",
		"0xc3d209565fA468581cdE5F6F3e381F7CcabC76C9"
	],
	"solcInputHash": "aafd26c67097b9c59d3fc54293867d9a",
	"bytecode": "0x6101c0604052348015610010575f5ffd5b506040516163e23803806163e283398101604081905261002f91610332565b6001600160a01b0380821660805280861660a052861660c081905260e08490526040805163293c499960e01b8152905188928892889288928892889263293c4999916004808201926020929091908290030181865afa158015610094573d5f5f3e3d5ffd5b505050506040513d601f19601f820116820180604052508101906100b891906103bf565b6001600160a01b0390811661010052828116610120528416610140526100dc61026c565b505050505050866001600160a01b03166307fada496040518163ffffffff1660e01b8152600401602060405180830381865afa15801561011e573d5f5f3e3d5ffd5b505050506040513d601f19601f8201168201806040525081019061014291906103bf565b6001600160a01b0316610180816001600160a01b031681525050866001600160a01b031663557819a46040518163ffffffff1660e01b8152600401602060405180830381865afa158015610198573d5f5f3e3d5ffd5b505050506040513d601f19601f820116820180604052508101906101bc91906103bf565b6001600160a01b0316610160816001600160a01b031681525050866001600160a01b03166370a2b8db6040518163ffffffff1660e01b8152600401602060405180830381865afa158015610212573d5f5f3e3d5ffd5b505050506040513d601f19601f8201168201806040525081019061023691906103e1565b6001811115610247576102476103ff565b6101a081600181111561025c5761025c6103ff565b8152505050505050505050610413565b7ff0c57e16840df040f15088dc2f81fe391c3923bec73e23a9662efc9c229c6a00805468010000000000000000900460ff16156102bc5760405163f92ee8a960e01b815260040160405180910390fd5b80546001600160401b039081161461031b5780546001600160401b0319166001600160401b0390811782556040519081527fc7f505b2f371ae2175ee4913f4499e1f2633a7b5936321eed1cdaeb6115181d29060200160405180910390a15b50565b6001600160a01b038116811461031b575f5ffd5b5f5f5f5f5f5f5f60e0888a031215610348575f5ffd5b87516103538161031e565b60208901519097506103648161031e565b60408901519096506103758161031e565b60608901519095506103868161031e565b608089015160a08a0151919550935061039e8161031e565b60c08901519092506103af8161031e565b8091505092959891949750929550565b5f602082840312156103cf575f5ffd5b81516103da8161031e565b9392505050565b5f602082840312156103f1575f5ffd5b8151600281106103da575f5ffd5b634e487b7160e01b5f52602160045260245ffd5b60805160a05160c05160e05161010051610120516101405161016051610180516101a051615eb16105315f395f818161091201528181612647015281816134550152614acf01525f81816109ea0152818161419e015281816143d70152818161454a0152614b8801525f818161086a0152818161267f015281816140ce015281816142b70152614c8b01525f81816103c6015261136701525f8181610346015281816115ca015261228801525f81816103f90152612cab01525f81816106450152818161168701526116df01525f81816107ce0152818161186b0152818161318c0152818161363601528181613b0f0152613fc901525f8181610a670152612d8701525f818161053a015281816106940152613a670152615eb15ff3fe6080604052600436106102c2575f3560e01c806388bc2ef31161016f578063cdfceeba116100d8578063eac1f29e11610092578063f925558c1161006d578063f925558c14610a89578063fc072f2314610ab4578063fc9f18b014610ad3578063fe4b84df14610af6575f5ffd5b8063eac1f29e14610a0c578063f3aefd7b14610a37578063f434c91414610a56575f5ffd5b8063cdfceeba14610960578063cf26bafb14610974578063cf2a1c7414610989578063d5f394881461099c578063d935222f146109ba578063defbb697146109d9575f5ffd5b8063b71c117911610129578063b71c11791461088c578063bf557aee1461089f578063c19d93fb146108d8578063c1ca1ec7146108f9578063c86719b714610901578063cbb2adce14610941575f5ffd5b806388bc2ef3146107bd57806392ee1ea7146107f05780639c43eb54146108065780639e6d7d431461081b578063af629bbb1461083a578063b101236814610859575f5ffd5b80634035d3b11161022b5780636284386a116101e557806375451559116101c057806375451559146106675780637da0a877146106865780637de6fba2146106b8578063802c8fa014610791575f5ffd5b80636284386a146105a05780636d9e384b146105bf5780636f4115a914610634575f5ffd5b80634035d3b11461049557806346cb4e80146104cb5780634f0677e1146104ea57806354176949146104ff578063572b6c051461051e5780635cc4f3691461056a575f5ffd5b80631d831d5c1161027c5780631d831d5c146103b5578063293c4999146103e8578063352a34e31461041b5780633a5de07d146104305780633f827a5a1461045b5780633fafa12714610481575f5ffd5b8063014dc2a6146102cd57806301ffc9a7146102e257806303da64a81461031657806306433b1b146103355780630ce92d4b1461038057806311cda41514610393575f5ffd5b366102c957005b5f5ffd5b6102e06102db366004614e1e565b610b15565b005b3480156102ed575f5ffd5b506103016102fc366004614e8d565b610c45565b60405190151581526020015b60405180910390f35b348015610321575f5ffd5b506102e0610330366004614eb4565b610cb1565b348015610340575f5ffd5b506103687f000000000000000000000000000000000000000000000000000000000000000081565b6040516001600160a01b03909116815260200161030d565b6102e061038e366004614f14565b610dca565b34801561039e575f5ffd5b506103a7610dee565b60405190815260200161030d565b3480156103c0575f5ffd5b506103687f000000000000000000000000000000000000000000000000000000000000000081565b3480156103f3575f5ffd5b506103687f000000000000000000000000000000000000000000000000000000000000000081565b348015610426575f5ffd5b506103a760025481565b34801561043b575f5ffd5b5061044662030d4081565b60405163ffffffff909116815260200161030d565b348015610466575f5ffd5b5061046f600181565b60405160ff909116815260200161030d565b34801561048c575f5ffd5b506011546103a7565b3480156104a0575f5ffd5b506103a76104af366004614f41565b600160209081525f928352604080842090915290825290205481565b3480156104d6575f5ffd5b506102e06104e5366004614f6b565b610e05565b3480156104f5575f5ffd5b506103a760045481565b34801561050a575f5ffd5b506102e0610519366004614fa1565b610ea5565b348015610529575f5ffd5b50610301610538366004614fc1565b7f00000000000000000000000000000000000000000000000000000000000000006001600160a01b0390811691161490565b348015610575575f5ffd5b5061057e610f9e565b604080518251815260208084015190820152918101519082015260600161030d565b3480156105ab575f5ffd5b506102e06105ba366004614fdc565b610fea565b3480156105ca575f5ffd5b506106276105d9366004614fc1565b604080518082019091525f8082526020820152506001600160a01b03165f908152600a6020908152604091829020825180840190935280546001600160401b03168352600101549082015290565b60405161030d9190615000565b34801561063f575f5ffd5b506103a77f000000000000000000000000000000000000000000000000000000000000000081565b348015610672575f5ffd5b506102e0610681366004615020565b6110d0565b348015610691575f5ffd5b507f0000000000000000000000000000000000000000000000000000000000000000610368565b3480156106c3575f5ffd5b506107546106d2366004614fc1565b604080516080810182525f808252602082018190529181018290526060810191909152506001600160a01b03165f908152600f60209081526040918290208251608081018452815460ff808216151583526101008204161515938201939093526201000090920463ffffffff1692820192909252600190910154606082015290565b60405161030d919081511515815260208083015115159082015260408083015163ffffffff16908201526060918201519181019190915260800190565b34801561079c575f5ffd5b506107b06107ab366004614fc1565b6111ed565b60405161030d919061507f565b3480156107c8575f5ffd5b506103687f000000000000000000000000000000000000000000000000000000000000000081565b3480156107fb575f5ffd5b50610446620493e081565b348015610811575f5ffd5b506103a760075481565b348015610826575f5ffd5b506103a7610835366004614fc1565b611296565b348015610845575f5ffd5b506102e06108543660046150f1565b611323565b348015610864575f5ffd5b506103687f000000000000000000000000000000000000000000000000000000000000000081565b6102e061089a366004614fc1565b6114ad565b3480156108aa575f5ffd5b506103016108b9366004614fc1565b6001600160a01b03165f908152600f6020526040902060010154151590565b3480156108e3575f5ffd5b506108ec6117e6565b60405161030d919061514a565b6102e061182d565b34801561090c575f5ffd5b506109347f000000000000000000000000000000000000000000000000000000000000000081565b60405161030d9190615164565b34801561094c575f5ffd5b506102e061095b366004615178565b611964565b34801561096b575f5ffd5b506103a7611a49565b34801561097f575f5ffd5b506103a760035481565b6102e061099736600461518a565b611a9c565b3480156109a7575f5ffd5b505f54610368906001600160a01b031681565b3480156109c5575f5ffd5b506102e06109d4366004615178565b611d04565b3480156109e4575f5ffd5b506103687f000000000000000000000000000000000000000000000000000000000000000081565b348015610a17575f5ffd5b506103a7610a26366004614fc1565b60066020525f908152604090205481565b348015610a42575f5ffd5b506102e0610a51366004614fc1565b611e0f565b348015610a61575f5ffd5b506103687f000000000000000000000000000000000000000000000000000000000000000081565b348015610a94575f5ffd5b506103a7610aa3366004614fc1565b60056020525f908152604090205481565b348015610abf575f5ffd5b506102e0610ace366004614fc1565b611f26565b348015610ade575f5ffd5b50610ae7612018565b60405161030d939291906151c1565b348015610b01575f5ffd5b506102e0610b10366004615250565b6120cd565b5f5f5b82811015610bc0575f600e5f868685818110610b3657610b36615267565b610b4c9260206060909202019081019150614fc1565b6001600160a01b0316815260208101919091526040015f9081209150858584818110610b7a57610b7a615267565b90506060020160400135148015610ba6575060228101548154600160401b90046001600160c01b031614155b15610bb757610bb48361528f565b92505b50600101610b18565b505f8115610bd757610bd282346152bb565b610bd9565b5f5b90505f5f5b84811015610c1b57610c07868683818110610bfb57610bfb615267565b905060600201846121c5565b610c1190836152ce565b9150600101610bde565b5080341115610c3e57610c3e610c2f6125a8565b610c3983346152e1565b6125b6565b5050505050565b5f6001600160e01b031982166314a66dd360e21b1480610c7557506001600160e01b031982166320cc1c1160e11b145b80610c9057506001600160e01b03198216633d0d324560e21b145b80610cab57506301ffc9a760e01b6001600160e01b03198316145b92915050565b5f5b81811015610dc5573063cbb2adce848484818110610cd357610cd3615267565b90506104c002016040518263ffffffff1660e01b8152600401610cf691906152f4565b5f604051808303815f87803b158015610d0d575f5ffd5b505af1925050508015610d1e575060015b610dbd57828282818110610d3457610d34615267565b610d4b9260206104c0909202019081019150614fc1565b6001600160a01b03167fc1054f794d197971822697afa7ff4777cac6fb7a512e4bfec63aebaab98187b6848484818110610d8757610d87615267565b90506104c002016020015f0135610d9c6125a8565b604080519283526001600160a01b0390911660208301520160405180910390a25b600101610cb3565b505050565b5f610dd582346121c5565b905080341115610dea57610dea610c2f6125a8565b5050565b6013545f908015610dfe57919050565b3091505090565b610e0e33612638565b610e3957335b60405163f957028d60e01b8152600401610e3091815260200190565b60405180910390fd5b6001610e486020830183615361565b60ff1614610e8357610e5d6020820182615361565b60405163e667c12560e01b815260ff909116600482015260016024820152604401610e30565b610ea260608201356020830135610e9d604085018561537c565b61282a565b50565b5f610eae612bdb565b805490915060ff600160401b82041615906001600160401b03165f81158015610ed45750825b90505f826001600160401b03166001148015610eef5750303b155b905081158015610efd575080155b15610f1b5760405163f92ee8a960e01b815260040160405180910390fd5b845467ffffffffffffffff191660011785558315610f4557845460ff60401b1916600160401b1785555b610f4f8787612c03565b8315610f9557845460ff60401b19168555604051600181527fc7f505b2f371ae2175ee4913f4499e1f2633a7b5936321eed1cdaeb6115181d29060200160405180910390a15b50505050505050565b610fbf60405180606001604052805f81526020015f81526020015f81525090565b60405180606001604052806002548152602001610fda611a49565b8152602001600754815250905090565b610ff2612c38565b5f610ffc60115490565b905061101261100a82612c93565b826024612d1c565b5f61102062127500426152ce565b905064ffffffffff83161580159061103f5750808364ffffffffff1611155b1561106d57604051630111a46b60e21b815264ffffffffff8416600482015260248101829052604401610e30565b64ffffffffff83166008557f455efa76af2a8686dc0dd3041bda89ece5ba4691277d525e2161003bbca8b245836110a26125a8565b6040805164ffffffffff90931683526001600160a01b039091166020830152015b60405180910390a1505050565b5f6110da60115490565b90506110f06110e882612c93565b826023612d1c565b5f5b828110156111b2575f600f5f86868581811061111057611110615267565b90506020020160208101906111259190614fc1565b6001600160a01b0316815260208101919091526040015f908120805460ff191692151592909217909155600190600f9086868581811061116757611167615267565b905060200201602081019061117c9190614fc1565b6001600160a01b0316815260208101919091526040015f2080549115156101000261ff00199092169190911790556001016110f2565b507f8021bce60b20a9afb57085869a3552e0ee5b272b868df894fb30c5e90e74c07283836111de6125a8565b6040516110c3939291906153c8565b6111f5614d51565b6001600160a01b0382165f908152600e6020908152604091829020825160808101845281546001600160401b0381168252600160401b90046001600160c01b031681840152600182015481850152835161044081018086529194929360608601939192600286019284929083019184919082845b81548152602001906001019080831161126957505050918352505060209182015491015290525092915050565b6001600160a01b0381165f908152600e602052604081206001015481906112bd8430612e31565b6112c791906152e1565b905061eeed196001600160a01b03841601610cab576003548082116112ef57505f9392505050565b6112f981836152e1565b60045490925080831161131057505f949350505050565b61131a81846152e1565b95945050505050565b845f0361134357604051632bcf4c5760e21b815260040160405180910390fd5b836113645760405163b2fe07f160e01b815260048101859052602401610e30565b5f7f00000000000000000000000000000000000000000000000000000000000000006001600160a01b031663ea78803f61139d60115490565b6040518263ffffffff1660e01b81526004016113bb91815260200190565b602060405180830381865afa1580156113d6573d5f5f3e3d5ffd5b505050506040513d601f19601f820116820180604052508101906113fa919061542a565b90506001600160a01b038116611429576011546040516309794d0160e11b8152600401610e3091815260200190565b6001600160a01b0383165f908152600f602052604090205460ff1661146c5760405163027edf0360e11b81526001600160a01b0384166004820152602401610e30565b611474612c38565b61149161147f6125a8565b6001600160a01b038316903089612ec5565b5f61149e82888688612efb565b9050610f95878583898761300e565b6001600160a01b0381165f908152600f60209081526040918290208251608081018452815460ff808216151583526101008204161580159483019490945262010000900463ffffffff169381019390935260010154606083015261152f576040516304bba81f60e41b81526001600160a01b0383166004820152602401610e30565b6001600160a01b0382165f908152600e60205260409020600181015415801561156d575080546022820154600160401b9091046001600160c01b0316145b156115c75760018101546022820154825460405163096c1e2160e21b81526001600160a01b038716600482015260248101939093526044830191909152600160401b90046001600160c01b03166064820152608401610e30565b5f7f00000000000000000000000000000000000000000000000000000000000000006001600160a01b031663421159156040518163ffffffff1660e01b8152600401602060405180830381865afa158015611624573d5f5f3e3d5ffd5b505050506040513d601f19601f820116820180604052508101906116489190615445565b90508034101561167457604051630ee99a4760e01b815234600482015260248101829052604401610e30565b5f61167f82346152e1565b90505f6116ae7f000000000000000000000000000000000000000000000000000000000000000061eeee613164565b90505f6001600160a01b038216158015906116c857508315155b156117b857816001600160a01b031663fef43257857f000000000000000000000000000000000000000000000000000000000000000061eeee8861170a6125a8565b5f6040518763ffffffff1660e01b81526004016117729594939291909485526001600160a01b03938416602086015260408501929092529091166060830152608082015260e060a082018190525f90820181905261010060c083018190528201526101200190565b60206040518083038185885af1935050505080156117ad575060408051601f3d908101601f191682019092526117aa91810190615445565b60015b156117b85760019150505b801580156117c557508315155b156117db576117db6117d56125a8565b856131f7565b610f95838888613293565b6008545f908082036117f9575f91505090565b61180662127500826152e1565b42101561181557600191505090565b8042101561182557600291505090565b600391505090565b611835612c38565b5f61184c60128054600101908190554260801b1790565b90505f73129fc28f9beb5deb3ec4ef65dcdce5dd2185dde563726a4a817f000000000000000000000000000000000000000000000000000000000000000061189360115490565b6040516001600160e01b031960e085901b1681526001600160a01b039092166004830152602482015260016044820152606481018590526084015f60405180830381865af41580156118e7573d5f5f3e3d5ffd5b505050506040513d5f823e601f3d908101601f1916820160405261190e91908101906155e1565b90507f77bd1556265e71d247f11bb5886efda7fd5e5b21e6a4d2c871e8e6b49ac92f3d8261193a6125a8565b604080519283526001600160a01b0390911660208301520160405180910390a1610dea34826133f6565b61199660608201356119796020840184614fc1565b6080840135604085013560a0860135602087013560c088016134f1565b7fa8d6760b4e1a89f513fc87990f66d051c419d735fb8191104014e0529d9ae2d360408201356119c96020840184614fc1565b60608401356080850135602086013560a08701356119e56125a8565b604080519788526001600160a01b0396871660208901528701949094526060860192909252608085015260a08401521660c082015260e00160405180910390a1610ea2611a356020830183614fc1565b608083013560608401356040850135613603565b5f465f198101611a5c5761a4b191505090565b61a4b18103611a6d57600191505090565b62aa36a78103611a815762066eee91505090565b62066eee8103611a955762aa36a791505090565b5f91505090565b611aa533612638565b611aaf5733610e14565b6001611abe6020830183615361565b60ff1614611ad357610e5d6020820182615361565b6001600160a01b036020828101359182165f908152600a9091526040902080546001600160401b0316611b0c6080850160608601615688565b6001600160401b03161115611c6957611b2b6080840160608501615688565b815467ffffffffffffffff19166001600160401b03919091161781556080830135600182018190557f27ae5ba08d7291c96c8cbddcc148bf48a6d68c7974b94356f53754ef6171d75714611beb576001600160a01b0382165f908152600b6020526040812054600490611b9f9060016152ce565b611ba991906156a3565b6001600160a01b0384165f908152600b60209081526040808320849055600c90915290209091506080850135908260048110611be757611be7615267565b0155505b6001600160a01b0382167fc69d3412489554fb7820c4c2784cb644b6c79bfc117444b93977d3d33a9b8eac611c266080860160608701615688565b6080860135611c336125a8565b604080516001600160401b03909416845260208401929092526001600160a01b03169082015260600160405180910390a2611cea565b6001600160a01b0382167f2eb8abf720d2b9cf9e357f7a24a2bee502a7bdba38de0de230e10c33dafbd3eb611ca46080860160608701615688565b83546001600160401b0316611cb76125a8565b604080516001600160401b0394851681529390921660208401526001600160a01b03169082015260600160405180910390a25b610dc560e084013560a0850135610e9d60c087018761537c565b611d366060820135611d196020840184614fc1565b6080840135604085013560a0860135602087013560c08801613741565b6080810135600e5f611d4b6020850185614fc1565b6001600160a01b03166001600160a01b031681526020019081526020015f206001015f828254611d7b91906152e1565b90915550611d8e90506020820182614fc1565b6001600160a01b031660408201356001600160a01b03167fe33107c4043e574d8a4da32dac235e219f8f34a0e45e473ea6643a6145f2528560808401356060850135611dd86125a8565b6040805193845260208401929092526001600160a01b03169082015260600160405180910390a3610ea2611a356020830183614fc1565b6001600160a01b038116611e385760405163b2fe07f160e01b81525f6004820152602401610e30565b5f611e416125a8565b6001600160a01b0381165f90815260066020526040812054919250819003611e8757604051631733ad2160e21b81526001600160a01b0383166004820152602401610e30565b6001600160a01b0382165f90815260066020526040812081905560048054839290611eb39084906152e1565b90915550611ec3905083826125b6565b826001600160a01b0316826001600160a01b03167ffbcfe54e4aa35e7772f25a5f52fedccde889e4fc5031ad9826b9bf6b890baa5983611f016125a8565b604080519283526001600160a01b0390911660208301520160405180910390a3505050565b6001600160a01b038116611f4f5760405163b2fe07f160e01b81525f6004820152602401610e30565b5f611f586125a8565b6001600160a01b0381165f90815260056020526040812054919250819003611f9e5760405163578a51dd60e11b81526001600160a01b0383166004820152602401610e30565b6001600160a01b0382165f90815260056020526040812081905560038054839290611fca9084906152e1565b90915550611fda905083826125b6565b826001600160a01b0316826001600160a01b03167f1e70ff8443e61b2a2555b5ad56645461a75dd29591b5c4a6281f70a6d395db4583611f016125a8565b60605f5f6014612026611a49565b60075482805480602002602001604051908101604052809291908181526020015f905b828210156120bc575f8481526020908190206040805160808101825260028602909201805463ffffffff8116845260ff640100000000820416848601526001600160801b036501000000000090910481169284019290925260019081015490911660608301529083529092019101612049565b505050509250925092509250909192565b5f6120d6612bdb565b805490915060ff600160401b82041615906001600160401b03165f811580156120fc5750825b90505f826001600160401b031660011480156121175750303b155b905081158015612125575080155b156121435760405163f92ee8a960e01b815260040160405180910390fd5b845467ffffffffffffffff19166001178555831561216d57845460ff60401b1916600160401b1785555b612177865f612c03565b83156121bd57845460ff60401b19168555604051600181527fc7f505b2f371ae2175ee4913f4499e1f2633a7b5936321eed1cdaeb6115181d29060200160405180910390a15b505050505050565b5f806121d46020850185614fc1565b6001600160a01b0381165f908152600f60209081526040918290208251608081018452815460ff808216151583526101008204161580159483019490945262010000900463ffffffff16938101939093526001015460608301529192509061225a576040516304bba81f60e41b81526001600160a01b0383166004820152602401610e30565b6122638561397f565b5f61226d60115490565b90506122bf61227b82612c93565b8260206001600160a01b037f0000000000000000000000000000000000000000000000000000000000000000166122b06125a8565b6001600160a01b031614613a46565b6060820151158015906122da57508560400135826060015114155b80156122e95750604086013515155b801561230e57506001600160a01b0383165f908152600e602052604090206022015415155b1561234457606082015160405163aef430a360e01b81526001600160a01b03851660048201526024810191909152604401610e30565b6040860135156123be576040808701355f908152600d60205220546001600160a01b031680158015906123895750836001600160a01b0316816001600160a01b031614155b156123bc576040805163d6a305d960e01b81529088013560048201526001600160a01b0382166024820152604401610e30565b505b60408601351580156123fc57506001600160a01b0383165f908152600e6020526040902060228101549054600160401b90046001600160c01b031614155b1561242f576001600160a01b0383165f908152600f60205260409020805460ff1916905561242b858484613293565b8493505b6040860135158015906124455750606082015115155b801561245957508560400135826060015114155b8015612482575060608201515f908152600d60205260409020546001600160a01b038481169116145b156124a85760608201515f908152600d6020526040902080546001600160a01b03191690555b5f6040870135156124bd5786604001356124c3565b82606001515b905080156124f2575f818152600d6020526040902080546001600160a01b0319166001600160a01b0386161790555b604080516080810182528882018035151582525f602080840191909152919283019161252091908b016156c7565b63ffffffff90811682526020918201939093526001600160a01b039095165f908152600f8652604090819020825181549784015192840151909416620100000265ffffffff0000199215156101000261ff00199515159590951661ffff1990981697909717939093171694909417815560609093015160019093019290925550909392505050565b5f6125b1613a56565b905090565b5f826001600160a01b0316826040515f6040518083038185875af1925050503d805f81146125ff576040519150601f19603f3d011682016040523d82523d5f602084013e612604565b606091505b5050905080610dc557604051630590bd2d60e41b81526001600160a01b038416600482015260248101839052604401610e30565b5f5f612642613ac0565b90505f7f0000000000000000000000000000000000000000000000000000000000000000600181111561267757612677615136565b036127f7575f7f00000000000000000000000000000000000000000000000000000000000000006001600160a01b031663e78cea926040518163ffffffff1660e01b8152600401602060405180830381865afa1580156126d9573d5f5f3e3d5ffd5b505050506040513d601f19601f820116820180604052508101906126fd919061542a565b9050806001600160a01b0316846001600160a01b03161480156127ef5750806001600160a01b031663ab5d89436040518163ffffffff1660e01b8152600401602060405180830381865afa158015612757573d5f5f3e3d5ffd5b505050506040513d601f19601f8201168201806040525081019061277b919061542a565b6001600160a01b03166380648b026040518163ffffffff1660e01b8152600401602060405180830381865afa1580156127b6573d5f5f3e3d5ffd5b505050506040513d601f19601f820116820180604052508101906127da919061542a565b6001600160a01b0316826001600160a01b0316145b949350505050565b73111100000000000000000000000000000000111181016001600160a01b0316836001600160a01b031614915050919050565b600754841115612bd5576007849055600283905561284960145f614d8d565b805f5b818110156121bd573684848381811061286757612867615267565b6080029190910180355f908152600d60205260409020549092506001600160a01b0316905080612895575080355b5f5f6128a083613acf565b915091508080156128cc57506001600160a01b0383165f9081526010602052604090205463ffffffff16155b156128fc576001600160a01b0383165f908152601060205260409020805463ffffffff191663ffffffff84161790555b6014545f805b82811015612ab4578463ffffffff166014828154811061292457612924615267565b5f91825260209091206002909102015463ffffffff1614801561298557506129526040880160208901615361565b60ff166014828154811061296857612968615267565b5f918252602090912060029091020154640100000000900460ff16145b15612aac576129d7601482815481106129a0576129a0615267565b5f9182526020909120600290910201546501000000000090046001600160801b03166129d260608a0160408b016156e2565b613d0d565b601482815481106129ea576129ea615267565b905f5260205f2090600202015f0160056101000a8154816001600160801b0302191690836001600160801b03160217905550612a5e60148281548110612a3257612a32615267565b5f9182526020909120600160029092020101546001600160801b03166129d260808a0160608b016156e2565b60148281548110612a7157612a71615267565b905f5260205f2090600202016001015f6101000a8154816001600160801b0302191690836001600160801b0316021790555060019150612ab4565b600101612902565b5080612bc457601460405180608001604052808663ffffffff168152602001886020016020810190612ae69190615361565b60ff168152602001612afe60608a0160408b016156e2565b6001600160801b03168152602001612b1c60808a0160608b016156e2565b6001600160801b039081169091528254600181810185555f948552602094859020845160029093020180549585015160408601518516650100000000000274ffffffffffffffffffffffffffffffff00000000001960ff9092166401000000000264ffffffffff1990981663ffffffff909516949094179690961795909516919091178455606090920151929091018054929091166001600160801b03199092169190911790555b86600101965050505050505061284c565b50505050565b5f807ff0c57e16840df040f15088dc2f81fe391c3923bec73e23a9662efc9c229c6a00610cab565b60118290556013819055612c156125a8565b5f80546001600160a01b0319166001600160a01b03929092169190911790555050565b5f612c416117e6565b90506003816003811115612c5757612c57615136565b1480612c7457506002816003811115612c7257612c72615136565b145b15610ea2578060405162a7958f60e81b8152600401610e30919061514a565b6040516331a9108f60e11b8152600481018290525f907f00000000000000000000000000000000000000000000000000000000000000006001600160a01b031690636352211e90602401602060405180830381865afa158015612cf8573d5f5f3e3d5ffd5b505050506040513d601f19601f82011682018060405250810190610cab919061542a565b5f612d256125a8565b9050836001600160a01b0316816001600160a01b031614158015612df25750604051631a45b42760e11b81526001600160a01b0382811660048301528581166024830152604482018590526064820184905260016084830181905260a48301527f0000000000000000000000000000000000000000000000000000000000000000169063348b684e9060c401602060405180830381865afa158015612dcc573d5f5f3e3d5ffd5b505050506040513d601f19601f82011682018060405250810190612df091906156fd565b155b15612bd557604051631326f75560e11b81526001600160a01b038086166004830152821660248201526044810184905260648101839052608401610e30565b5f61eeed196001600160a01b03841601612e5657506001600160a01b03811631610cab565b6040516370a0823160e01b81526001600160a01b0383811660048301528416906370a0823190602401602060405180830381865afa158015612e9a573d5f5f3e3d5ffd5b505050506040513d601f19601f82011682018060405250810190612ebe9190615445565b9392505050565b612ed3848484846001613d3a565b612bd557604051635274afe760e01b81526001600160a01b0385166004820152602401610e30565b5f5f612f0660115490565b90505f612f138286613164565b90506001600160a01b038116612f4e5760405163b61c181f60e01b8152600481018390526001600160a01b0386166024820152604401610e30565b5f612f598630612e31565b604080516020810182525f815290516313da831760e01b81529192506001600160a01b038416916313da831791612f9e91309188918d918d918d91869160040161574a565b6020604051808303815f875af1158015612fba573d5f5f3e3d5ffd5b505050506040513d601f19601f82011682018060405250810190612fde9190615445565b935080612feb8730612e31565b612ff591906152e1565b84146130035761300361579f565b505050949350505050565b6001600160801b03831115613039576040516335bf001160e11b815260048101849052602401610e30565b6001600160801b03851115613064576040516335bf001160e11b815260048101869052602401610e30565b6040805186815260208082018690528183018590526060820184905260809091206001600160a01b0387165f908152600e9092529190206130a86002820183613da7565b84816001015f8282546130bb91906152ce565b92505081905550856001600160a01b0316847fc92fa1150c24ee5470c272112539aab52450a5e05573e7ea7bdfb98829b89321846001856002016020015461310391906152e1565b61310f86600201613e92565b8c8b8a61311a6125a8565b604080519788526020880196909652948601939093526060850191909152608084015260a08301526001600160a01b031660c082015260e00160405180910390a350505050505050565b604051630862026560e41b8152600481018390526001600160a01b0382811660248301525f917f000000000000000000000000000000000000000000000000000000000000000090911690638620265090604401602060405180830381865afa1580156131d3573d5f5f3e3d5ffd5b505050506040513d601f19601f82011682018060405250810190612ebe919061542a565b6001600160a01b0382165f908152600560205260408120805483929061321e9084906152ce565b925050819055508060035f82825461323691906152ce565b90915550506001600160a01b0382167f2a3798c6648c17f70b43a33a8378cec543367ac1543e62aa7b392660569717778261326f6125a8565b604080519283526001600160a01b0390911660208301520160405180910390a25050565b60608101516132c05760405163027edf0360e11b81526001600160a01b0383166004820152602401610e30565b6132c8612c38565b6001600160a01b0382165f908152600e602052604081206022810154829182918291908083036132fd57505050505050505050565b6001820180545f918290558354909750839190613322906001600160401b03166157b3565b91906101000a8154816001600160401b0302191690836001600160401b031602179055945061335382600201613e92565b82546001600160401b0316600160401b6001600160c01b03841602178355935061337e6001826152e1565b92505050856001600160a01b0316827f47c5615513b0f669da2dd7e3362a34610ca2695d0a0e2da2160cee952eab203c83866133b86125a8565b604080519384526001600160401b0390921660208401526001600160a01b03169082015260600160405180910390a3610f9587878787878787613f93565b5f816040516024016134089190615852565b60408051601f19818403018152918152602080830180516001600160e01b0316628d969d60e71b17905281516080810183525f80825291810182905291820181905260608201529091505f7f0000000000000000000000000000000000000000000000000000000000000000600181111561348557613485615136565b036134c157835f036134ad57604051631587a6a360e31b815260048101859052602401610e30565b6134bc61eeee855f85856140a7565b612bd5565b83156134e357604051636ba3461960e11b815260048101859052602401610e30565b612bd561eeee5f8484614505565b6401000000008210613519576040516309f6605160e41b815260048101839052602401610e30565b6001600160a01b0386165f908152600960209081526040808320600886901c8452909152902054600160ff84161b161561357857604051632939af3b60e21b81526001600160a01b038716600482015260248101839052604401610e30565b6001600160a01b0386165f818152600960209081526040808320600887901c845282528083208054600160ff891681901b90911790915581518c81528084018b90528083018a90526060810189905260809020948452825280832086845290915281208290556135ea88838686614673565b90506135f881838686614789565b505050505050505050565b5f61360d60115490565b9050831561362057613620858583614830565b604051632eec7b5560e11b8152600481018290527f00000000000000000000000000000000000000000000000000000000000000006001600160a01b031690635dd8f6aa90602401602060405180830381865afa158015613683573d5f5f3e3d5ffd5b505050506040513d601f19601f820116820180604052508101906136a7919061542a565b6001600160a01b031663c7fb92de8285856040516001600160e01b031960e086901b168152600481019390935260248301919091526001600160a01b0316604482015260a060648201525f60a48201819052608482015260c4016020604051808303815f875af115801561371d573d5f5f3e3d5ffd5b505050506040513d601f19601f820116820180604052508101906121bd9190615445565b6401000000008210613769576040516309f6605160e41b815260048101839052602401610e30565b5f6137726117e6565b9050600381600381111561378857613788615136565b141580156137a8575060028160038111156137a5576137a5615136565b14155b80156137d157506001600160a01b0387165f908152600f6020526040902054610100900460ff16155b156137fa576040516304bba81f60e41b81526001600160a01b0388166004820152602401610e30565b6001600160a01b0387165f908152600e602052604090208054600160401b90046001600160c01b03161580159061385857508054849061384c90600190600160401b90046001600160c01b031661589a565b6001600160c01b031610155b1561388857604051632939af3b60e21b81526001600160a01b038916600482015260248101859052604401610e30565b604080516001600160a01b038a1660208201525f910160408051808303601f19018152918152815160209283012060601c5f8181526009845282812060088a901c8252909352912054909150600160ff87161b161561390c57604051632939af3b60e21b81526001600160a01b038a16600482015260248101869052604401610e30565b6001600160a01b039081165f908152600960209081526040808320600889901c845282528083208054600160ff8b161b179055928b168252600e9052206135f89061395990600201613e92565b604080518c8152602081018b905290810189905260608101889052608090208686614789565b5f61eeee6139906020840184614fc1565b6001600160a01b03161490508080156139af575061eeee826040013514155b80156139be5750604082013515155b156139e1576040805162e80c7760e31b8152908301356004820152602401610e30565b62030d406139f560408401602085016156c7565b63ffffffff16108015613a06575080155b15610dea57613a1b60408301602084016156c7565b604051630555d0f160e41b815263ffffffff909116600482015262030d406024820152604401610e30565b80612bd557612bd5848484612d1c565b5f366014808210801590613a9257507f00000000000000000000000000000000000000000000000000000000000000006001600160a01b031633145b15613ab857613aa536828403815f6158b9565b613aae916158e0565b60601c9250505090565b339250505090565b5f6125b1613acc610dee565b90565b6001600160a01b0381165f90815260106020526040812054819063ffffffff168015613aff579360019350915050565b5f613b0960115490565b90505f5f7f00000000000000000000000000000000000000000000000000000000000000006001600160a01b03168388604051602401613b5c9291909182526001600160a01b0316602082015260400190565b60408051601f198184030181529181526020820180516001600160e01b0316630862026560e41b17905251613b91919061592d565b5f60405180830381855afa9150503d805f8114613bc9576040519150601f19603f3d011682016040523d82523d5f602084013e613bce565b606091505b5091509150818015613be257506020815110155b15613d00575f81806020019051810190613bfc919061542a565b90506001600160a01b03811615613cfe57604051602481018590526001600160a01b0389811660448301525f91829184169060640160408051601f198184030181529181526020820180516001600160e01b0316633a01714f60e01b17905251613c66919061592d565b5f60405180830381855afa9150503d805f8114613c9e576040519150601f19603f3d011682016040523d82523d5f602084013e613ca3565b606091505b5091509150818015613cb757506060815110155b15613cfb575f81806020019051810190613cd19190615943565b9050806040015163ffffffff165f14613cf957604001519a60019a5098505050505050505050565b505b50505b505b5094955f95509350505050565b5f6001600160801b0383811681841601908111613d2a57806127ef565b6001600160801b03949350505050565b6040516323b872dd60e01b5f8181526001600160a01b038781166004528616602452604485905291602083606481808c5af1925060015f51148316613d96578383151615613d8a573d5f823e3d81fd5b5f883b113d1516831692505b604052505f60605295945050505050565b5f826020015f8154613db89061528f565b918290555090506001613dcd60206002615a97565b613dd791906152e1565b811115613e1957806001613ded60206002615a97565b613df791906152e1565b60405163515447c160e01b815260048101929092526024820152604401610e30565b5f5b6020811015613e7c5781600116600103613e4a5782848260208110613e4257613e42615267565b015550505050565b5f848260208110613e5d57613e5d615267565b01545f90815260209490945250604090922091600191821c9101613e1b565b508260200154600160206002613ded9190615a97565b60208101545f90808203613ec857507f27ae5ba08d7291c96c8cbddcc148bf48a6d68c7974b94356f53754ef6171d75792915050565b613ed0614dab565b5f5b6020811015613f1a576001811b831615613f1257848160208110613ef857613ef8615267565b0154828260208110613f0c57613f0c615267565b60200201525b600101613ed2565b50604051634a490c2560e01b815273129fc28f9beb5deb3ec4ef65dcdce5dd2185dde590634a490c2590613f549084908690600401615aa2565b602060405180830381865af4158015613f6f573d5f5f3e3d5ffd5b505050506040513d601f19601f820116820180604052508101906127ef9190615445565b5f613faa60128054600101908190554260801b1790565b90505f73129fc28f9beb5deb3ec4ef65dcdce5dd2185dde563c60a0b827f0000000000000000000000000000000000000000000000000000000000000000613ff160115490565b60608b01516040516001600160e01b031960e086901b1681526001600160a01b03909316600484015260248301919091526044820152606481018990526001600160401b038816608482015260a48101879052600160c482015260e48101859052610104015f60405180830381865af4158015614070573d5f5f3e3d5ffd5b505050506040513d5f823e601f3d908101601f191682016040526140979190810190615b33565b90506135f889848a898b86614a8e565b815160405163a66b327d60e01b8152600481019190915248602482018190525f91829081907f00000000000000000000000000000000000000000000000000000000000000006001600160a01b03169063a66b327d90604401602060405180830381865afa15801561411b573d5f5f3e3d5ffd5b505050506040513d601f19601f8201168201806040525081019061413f9190615445565b905061414e83620493e0615bea565b61415890826152ce565b91506001600160a01b03891661eeee1480159061417457508615155b156144c657604051635ed004ff60e11b81526001600160a01b038a811660048301525f91829182917f00000000000000000000000000000000000000000000000000000000000000009091169063bda009fe90602401602060405180830381865afa1580156141e5573d5f5f3e3d5ffd5b505050506040513d601f19601f82011682018060405250810190614209919061542a565b92505f836001600160a01b031663a0c76a968e30614225613ac0565b8f60405180602001604052805f8152506040518663ffffffff1660e01b8152600401614255959493929190615c01565b5f60405180830381865afa15801561426f573d5f5f3e3d5ffd5b505050506040513d5f823e601f3d908101601f191682016040526142969190810190615c46565b5160405163a66b327d60e01b815260048101829052602481018990529091507f00000000000000000000000000000000000000000000000000000000000000006001600160a01b03169063a66b327d90604401602060405180830381865afa158015614304573d5f5f3e3d5ffd5b505050506040513d601f19601f820116820180604052508101906143289190615445565b915086896040015163ffffffff166143409190615bea565b61434a90836152ce565b9250614358905082866152ce565b8b101561438c578a61436a83876152ce565b6040516328a7a8cb60e11b815260048101929092526024820152604401610e30565b5f60028361439a888f6152e1565b6143a491906152e1565b6143ae91906152bb565b90506143ba81846152ce565b92506143c681876152ce565b9550506143d48c8d8c614b67565b507f00000000000000000000000000000000000000000000000000000000000000006001600160a01b0316634fb1a07b838e61440e6125a8565b614416613ac0565b8f8e604001518d8960405180602001604052805f81525060405160200161443e929190615cd8565b6040516020818303038152906040526040518963ffffffff1660e01b815260040161446f9796959493929190615cf0565b5f6040518083038185885af115801561448a573d5f5f3e3d5ffd5b50505050506040513d5f823e601f3d908101601f191682016040526144b29190810190615c46565b506144be8c845f614bfc565b5050506144f8565b818810156144f1576040516328a7a8cb60e11b81526004810189905260248101839052604401610e30565b8791508693505b6135f8828583868a614c76565b5f5f61450f613ac0565b90506001600160a01b03861661eeee1480159061452b57508415155b15614606575f61454687614540866060015190565b88614b67565b90507f00000000000000000000000000000000000000000000000000000000000000006001600160a01b0316637b3a3c8b614582866060015190565b848960405180602001604052805f8152506040518563ffffffff1660e01b81526004016145b29493929190615d3d565b5f604051808303815f875af11580156145cd573d5f5f3e3d5ffd5b505050506040513d5f823e601f3d908101601f191682016040526145f49190810190615c46565b5061460087825f614bfc565b5061460a565b8491505b6040516349460b4d60e11b815260649063928c169a9084906146329085908990600401615d79565b60206040518083038185885af115801561464e573d5f5f3e3d5ffd5b50505050506040513d601f19601f82011682018060405250810190610f959190615445565b6001600160a01b0384165f908152600a60205260408082206001015490516307fbe4d560e41b8152829073129fc28f9beb5deb3ec4ef65dcdce5dd2185dde590637fbe4d50906146cb90899088908a90600401615d9c565b602060405180830381865af41580156146e6573d5f5f3e3d5ffd5b505050506040513d601f19601f8201168201806040525081019061470a9190615445565b905081810361471b575090506127ef565b6001600160a01b0387165f908152600c60205260408120905b600481101561477c575f82826004811061475057614750615267565b01549050801580159061476257508084145b156147735794506127ef9350505050565b50600101614734565b5091979650505050505050565b6040516307fbe4d560e41b81525f9073129fc28f9beb5deb3ec4ef65dcdce5dd2185dde590637fbe4d50906147c690879086908890600401615d9c565b602060405180830381865af41580156147e1573d5f5f3e3d5ffd5b505050506040513d601f19601f820116820180604052508101906148059190615445565b9050848114610c3e576040516272c3e960e11b81526004810182905260248101869052604401610e30565b5f61483a84611296565b905080831115614867576040516360ec3e7160e01b81526004810184905260248101829052604401610e30565b5f6148728386613164565b90506001600160a01b0381166148ad5760405163b61c181f60e01b8152600481018490526001600160a01b0386166024820152604401610e30565b5f806001600160a01b03871661eeee1480159061493c576040516370a0823160e01b81523060048201526001600160a01b038916906370a0823190602401602060405180830381865afa158015614906573d5f5f3e3d5ffd5b505050506040513d601f19601f8201168201806040525081019061492a9190615445565b9150614937888589614bfc565b614940565b8692505b604051639e6eec0560e01b8152600481018790526001600160a01b038981166024830152604482018990525f6064830181905260c0608484015260c4830181905260e060a484015260e4830152851690639e6eec05908590610104015f604051808303818588803b1580156149b3575f5ffd5b505af11580156149c5573d5f5f3e3d5ffd5b50505050508015614a84575f6149db88846152e1565b6040516370a0823160e01b81523060048201529091505f906001600160a01b038b16906370a0823190602401602060405180830381865afa158015614a22573d5f5f3e3d5ffd5b505050506040513d601f19601f82011682018060405250810190614a469190615445565b9050818114614a815760405163884aa24960e01b81526001600160a01b038b1660048201526024810183905260448101829052606401610e30565b50505b5050505050505050565b5f81604051602401614aa09190615dbc565b60408051601f198184030181529190526020810180516001600160e01b03166333ca871d60e21b17905290505f7f00000000000000000000000000000000000000000000000000000000000000006001811115614aff57614aff615136565b03614b3957865f03614b2757604051631587a6a360e31b815260048101889052602401610e30565b614b3485888684876140a7565b610f95565b8615614b5b57604051636ba3461960e11b815260048101889052602401610e30565b610f9585858386614505565b604051635ed004ff60e11b81526001600160a01b0383811660048301525f917f00000000000000000000000000000000000000000000000000000000000000009091169063bda009fe90602401602060405180830381865afa158015614bcf573d5f5f3e3d5ffd5b505050506040513d601f19601f82011682018060405250810190614bf3919061542a565b9050612ebe8482845b614c088383835f614cef565b610dc557614c1983835f6001614cef565b614c4157604051635274afe760e01b81526001600160a01b0384166004820152602401610e30565b614c4e8383836001614cef565b610dc557604051635274afe760e01b81526001600160a01b0384166004820152602401610e30565b5f614c7f613ac0565b90506001600160a01b037f000000000000000000000000000000000000000000000000000000000000000016636e6e8a6a614cba87896152ce565b838888614cc56125a8565b87620493e08b8b6040518a63ffffffff1660e01b8152600401614632989796959493929190615e41565b60405163095ea7b360e01b5f8181526001600160a01b038616600452602485905291602083604481808b5af1925060015f51148316614d45578383151615614d39573d5f823e3d81fd5b5f873b113d1516831692505b60405250949350505050565b60405180608001604052805f6001600160401b031681526020015f6001600160c01b031681526020015f8152602001614d88614dca565b905290565b5080545f8255600202905f5260205f2090810190610ea29190614de9565b6040518061040001604052806020906020820280368337509192915050565b6040518060400160405280614ddd614dab565b81526020015f81525090565b5b80821115614e1a5780546001600160a81b03191681556001810180546001600160801b0319169055600201614dea565b5090565b5f5f60208385031215614e2f575f5ffd5b82356001600160401b03811115614e44575f5ffd5b8301601f81018513614e54575f5ffd5b80356001600160401b03811115614e69575f5ffd5b856020606083028401011115614e7d575f5ffd5b6020919091019590945092505050565b5f60208284031215614e9d575f5ffd5b81356001600160e01b031981168114612ebe575f5ffd5b5f5f60208385031215614ec5575f5ffd5b82356001600160401b03811115614eda575f5ffd5b8301601f81018513614eea575f5ffd5b80356001600160401b03811115614eff575f5ffd5b8560206104c083028401011115614e7d575f5ffd5b5f6060828403128015614f25575f5ffd5b509092915050565b6001600160a01b0381168114610ea2575f5ffd5b5f5f60408385031215614f52575f5ffd5b8235614f5d81614f2d565b946020939093013593505050565b5f60208284031215614f7b575f5ffd5b81356001600160401b03811115614f90575f5ffd5b820160808185031215612ebe575f5ffd5b5f5f60408385031215614fb2575f5ffd5b50508035926020909101359150565b5f60208284031215614fd1575f5ffd5b8135612ebe81614f2d565b5f60208284031215614fec575f5ffd5b813564ffffffffff81168114612ebe575f5ffd5b81516001600160401b031681526020808301519082015260408101610cab565b5f5f60208385031215615031575f5ffd5b82356001600160401b03811115615046575f5ffd5b8301601f81018513615056575f5ffd5b80356001600160401b0381111561506b575f5ffd5b8560208260051b8401011115614e7d575f5ffd5b81516001600160401b031681526020808301516001600160c01b0316908201526040808301519082015260608083015180516104808401925f9085015b60208210156150dc578251815260209283019260019290920191016150bc565b50505060208101516104608401525092915050565b5f5f5f5f5f60a08688031215615105575f5ffd5b853594506020860135935060408601359250606086013561512581614f2d565b949793965091946080013592915050565b634e487b7160e01b5f52602160045260245ffd5b602081016004831061515e5761515e615136565b91905290565b602081016002831061515e5761515e615136565b5f6104c0828403128015614f25575f5ffd5b5f6020828403121561519a575f5ffd5b81356001600160401b038111156151af575f5ffd5b82016101008185031215612ebe575f5ffd5b606080825284519082018190525f9060208601906080840190835b8181101561523b57835163ffffffff815116845260ff60208201511660208501526001600160801b0360408201511660408501526001600160801b036060820151166060850152506080830192506020840193506001810190506151dc565b50506020840195909552505060400152919050565b5f60208284031215615260575f5ffd5b5035919050565b634e487b7160e01b5f52603260045260245ffd5b634e487b7160e01b5f52601160045260245ffd5b5f600182016152a0576152a061527b565b5060010190565b634e487b7160e01b5f52601260045260245ffd5b5f826152c9576152c96152a7565b500490565b80820180821115610cab57610cab61527b565b81810381811115610cab57610cab61527b565b6104c08101823561530481614f2d565b6001600160a01b031682526020838101359083015260408084013590830152606080840135908301526080808401359083015260a0838101359083015261040060c08085019084013792915050565b60ff81168114610ea2575f5ffd5b5f60208284031215615371575f5ffd5b8135612ebe81615353565b5f5f8335601e19843603018112615391575f5ffd5b8301803591506001600160401b038211156153aa575f5ffd5b6020019150600781901b36038213156153c1575f5ffd5b9250929050565b604080825281018390525f8460608301825b8681101561540a5782356153ed81614f2d565b6001600160a01b03168252602092830192909101906001016153da565b506001600160a01b03949094166020939093019290925250909392505050565b5f6020828403121561543a575f5ffd5b8151612ebe81614f2d565b5f60208284031215615455575f5ffd5b5051919050565b634e487b7160e01b5f52604160045260245ffd5b604051608081016001600160401b03811182821017156154925761549261545c565b60405290565b60405160e081016001600160401b03811182821017156154925761549261545c565b604051601f8201601f191681016001600160401b03811182821017156154e2576154e261545c565b604052919050565b80516154f581615353565b919050565b6001600160801b0381168114610ea2575f5ffd5b5f82601f83011261551d575f5ffd5b81516001600160401b038111156155365761553661545c565b61554560208260051b016154ba565b8082825260208201915060208360071b860101925085831115615566575f5ffd5b602085015b838110156155d75760808188031215615582575f5ffd5b61558a615470565b81518152602082015161559c81615353565b602082015260408201516155af816154fa565b604082015260608201516155c2816154fa565b6060820152835260209092019160800161556b565b5095945050505050565b5f602082840312156155f1575f5ffd5b81516001600160401b03811115615606575f5ffd5b820160808185031215615617575f5ffd5b61561f615470565b815161562a81615353565b81526020828101519082015260408201516001600160401b0381111561564e575f5ffd5b61565a8682850161550e565b604083015250606091820151918101919091529392505050565b6001600160401b0381168114610ea2575f5ffd5b5f60208284031215615698575f5ffd5b8135612ebe81615674565b5f826156b1576156b16152a7565b500690565b63ffffffff81168114610ea2575f5ffd5b5f602082840312156156d7575f5ffd5b8135612ebe816156b6565b5f602082840312156156f2575f5ffd5b8135612ebe816154fa565b5f6020828403121561570d575f5ffd5b81518015158114612ebe575f5ffd5b5f81518084528060208401602086015e5f602082860101526020601f19601f83011685010191505092915050565b6001600160a01b0388811682526020820188905260408201879052858116606083015260808201859052831660a082015260e060c082018190525f906157929083018461571c565b9998505050505050505050565b634e487b7160e01b5f52600160045260245ffd5b5f6001600160401b0382166001600160401b0381036157d4576157d461527b565b60010192915050565b5f8151808452602084019350602083015f5b828110156158485781518051875260ff60208201511660208801526001600160801b0360408201511660408801526001600160801b036060820151166060880152506080860195506020820191506001810190506157ef565b5093949350505050565b6020815260ff8251166020820152602082015160408201525f60408301516080606084015261588460a08401826157dd565b9050606084015160808401528091505092915050565b6001600160c01b038281168282160390811115610cab57610cab61527b565b5f5f858511156158c7575f5ffd5b838611156158d3575f5ffd5b5050820193919092039150565b80356bffffffffffffffffffffffff198116906014841015615926576bffffffffffffffffffffffff196bffffffffffffffffffffffff198560140360031b1b82161691505b5092915050565b5f82518060208501845e5f920191825250919050565b5f6060828403128015615954575f5ffd5b50604051606081016001600160401b03811182821017156159775761597761545c565b604052825161598581614f2d565b8152602083015161599581615353565b602082015260408301516159a8816156b6565b60408201529392505050565b6001815b60018411156159ef578085048111156159d3576159d361527b565b60018416156159e157908102905b60019390931c9280026159b8565b935093915050565b5f82615a0557506001610cab565b81615a1157505f610cab565b8160018114615a275760028114615a3157615a4d565b6001915050610cab565b60ff841115615a4257615a4261527b565b50506001821b610cab565b5060208310610133831016604e8410600b8410161715615a70575081810a610cab565b615a7c5f1984846159b4565b805f1904821115615a8f57615a8f61527b565b029392505050565b5f612ebe83836159f7565b610420810181845f5b6020811015615aca578151835260209283019290910190600101615aab565b505050826104008301529392505050565b5f60408284031215615aeb575f5ffd5b604080519081016001600160401b0381118282101715615b0d57615b0d61545c565b80604052508091508251615b2081615674565b8152602092830151920191909152919050565b5f60208284031215615b43575f5ffd5b81516001600160401b03811115615b58575f5ffd5b82016101008185031215615b6a575f5ffd5b615b72615498565b615b7b826154ea565b81526020828101519082015260408083015190820152615b9e8560608401615adb565b606082015260a0820151608082015260c08201516001600160401b03811115615bc5575f5ffd5b615bd18682850161550e565b60a08301525060e0919091015160c08201529392505050565b8082028115828204841417610cab57610cab61527b565b6001600160a01b0386811682528581166020830152841660408201526060810183905260a0608082018190525f90615c3b9083018461571c565b979650505050505050565b5f60208284031215615c56575f5ffd5b81516001600160401b03811115615c6b575f5ffd5b8201601f81018413615c7b575f5ffd5b80516001600160401b03811115615c9457615c9461545c565b615ca7601f8201601f19166020016154ba565b818152856020838501011115615cbb575f5ffd5b8160208401602083015e5f91810160200191909152949350505050565b828152604060208201525f6127ef604083018461571c565b6001600160a01b0388811682528781166020830152861660408201526060810185905263ffffffff8416608082015260a0810183905260e060c082018190525f906157929083018461571c565b6001600160a01b03858116825284166020820152604081018390526080606082018190525f90615d6f9083018461571c565b9695505050505050565b6001600160a01b03831681526040602082018190525f906127ef9083018461571c565b838152610440810161040084602084013782610420830152949350505050565b6020815260ff825116602082015260208201516040820152604082015160608201525f6060830151615e04608084018280516001600160401b03168252602090810151910152565b50608083015160c083015260a083015161010060e0840152615e2a6101208401826157dd565b905060c08401516101008401528091505092915050565b6001600160a01b038981168252602082018990526040820188905286811660608301528516608082015263ffffffff841660a082015260c0810183905261010060e082018190525f90615e969083018461571c565b9a995050505050505050505056fea164736f6c634300081c000a",
	"gitCommit": "npm:@bananapus/suckers-v6@0.0.78",
	"gitDirty": false,
	"history": []
}