{
	"format": "sphinx-sol-ct-artifact-1",
	"address": "0x32058684f2fd639ae52bde105d4d7833015fe6da",
	"sourceName": "node_modules/@bananapus/suckers-v6/src/JBCCIPSucker.sol",
	"contractName": "JBCCIPSucker",
	"chainId": "0x66eee",
	"abi": [
		{
			"type": "constructor",
			"inputs": [
				{
					"name": "deployer",
					"type": "address",
					"internalType": "contract JBCCIPSuckerDeployer"
				},
				{
					"name": "directory",
					"type": "address",
					"internalType": "contract IJBDirectory"
				},
				{
					"name": "permissions",
					"type": "address",
					"internalType": "contract IJBPermissions"
				},
				{
					"name": "tokens",
					"type": "address",
					"internalType": "contract IJBTokens"
				},
				{
					"name": "feeProjectId",
					"type": "uint256",
					"internalType": "uint256"
				},
				{
					"name": "registry",
					"type": "address",
					"internalType": "contract IJBSuckerRegistry"
				},
				{
					"name": "trustedForwarder",
					"type": "address",
					"internalType": "address"
				}
			],
			"stateMutability": "nonpayable"
		},
		{
			"type": "receive",
			"stateMutability": "payable"
		},
		{
			"type": "function",
			"name": "CCIP_ROUTER",
			"inputs": [],
			"outputs": [
				{
					"name": "",
					"type": "address",
					"internalType": "contract ICCIPRouter"
				}
			],
			"stateMutability": "view"
		},
		{
			"type": "function",
			"name": "DIRECTORY",
			"inputs": [],
			"outputs": [
				{
					"name": "",
					"type": "address",
					"internalType": "contract IJBDirectory"
				}
			],
			"stateMutability": "view"
		},
		{
			"type": "function",
			"name": "FEE_PROJECT_ID",
			"inputs": [],
			"outputs": [
				{
					"name": "",
					"type": "uint256",
					"internalType": "uint256"
				}
			],
			"stateMutability": "view"
		},
		{
			"type": "function",
			"name": "MESSAGE_VERSION",
			"inputs": [],
			"outputs": [
				{
					"name": "",
					"type": "uint8",
					"internalType": "uint8"
				}
			],
			"stateMutability": "view"
		},
		{
			"type": "function",
			"name": "MESSENGER_BASE_GAS_LIMIT",
			"inputs": [],
			"outputs": [
				{
					"name": "",
					"type": "uint32",
					"internalType": "uint32"
				}
			],
			"stateMutability": "view"
		},
		{
			"type": "function",
			"name": "MESSENGER_ERC20_MIN_GAS_LIMIT",
			"inputs": [],
			"outputs": [
				{
					"name": "",
					"type": "uint32",
					"internalType": "uint32"
				}
			],
			"stateMutability": "view"
		},
		{
			"type": "function",
			"name": "PERMISSIONS",
			"inputs": [],
			"outputs": [
				{
					"name": "",
					"type": "address",
					"internalType": "contract IJBPermissions"
				}
			],
			"stateMutability": "view"
		},
		{
			"type": "function",
			"name": "PROJECTS",
			"inputs": [],
			"outputs": [
				{
					"name": "",
					"type": "address",
					"internalType": "contract IJBProjects"
				}
			],
			"stateMutability": "view"
		},
		{
			"type": "function",
			"name": "REGISTRY",
			"inputs": [],
			"outputs": [
				{
					"name": "",
					"type": "address",
					"internalType": "contract IJBSuckerRegistry"
				}
			],
			"stateMutability": "view"
		},
		{
			"type": "function",
			"name": "REMOTE_CHAIN_ID",
			"inputs": [],
			"outputs": [
				{
					"name": "",
					"type": "uint256",
					"internalType": "uint256"
				}
			],
			"stateMutability": "view"
		},
		{
			"type": "function",
			"name": "REMOTE_CHAIN_SELECTOR",
			"inputs": [],
			"outputs": [
				{
					"name": "",
					"type": "uint64",
					"internalType": "uint64"
				}
			],
			"stateMutability": "view"
		},
		{
			"type": "function",
			"name": "TOKENS",
			"inputs": [],
			"outputs": [
				{
					"name": "",
					"type": "address",
					"internalType": "contract IJBTokens"
				}
			],
			"stateMutability": "view"
		},
		{
			"type": "function",
			"name": "amountToAddToBalanceOf",
			"inputs": [
				{
					"name": "token",
					"type": "address",
					"internalType": "address"
				}
			],
			"outputs": [
				{
					"name": "",
					"type": "uint256",
					"internalType": "uint256"
				}
			],
			"stateMutability": "view"
		},
		{
			"type": "function",
			"name": "ccipReceive",
			"inputs": [
				{
					"name": "any2EvmMessage",
					"type": "tuple",
					"internalType": "struct Client.Any2EVMMessage",
					"components": [
						{
							"name": "messageId",
							"type": "bytes32",
							"internalType": "bytes32"
						},
						{
							"name": "sourceChainSelector",
							"type": "uint64",
							"internalType": "uint64"
						},
						{
							"name": "sender",
							"type": "bytes",
							"internalType": "bytes"
						},
						{
							"name": "data",
							"type": "bytes",
							"internalType": "bytes"
						},
						{
							"name": "destTokenAmounts",
							"type": "tuple[]",
							"internalType": "struct Client.EVMTokenAmount[]",
							"components": [
								{
									"name": "token",
									"type": "address",
									"internalType": "address"
								},
								{
									"name": "amount",
									"type": "uint256",
									"internalType": "uint256"
								}
							]
						}
					]
				}
			],
			"outputs": [],
			"stateMutability": "nonpayable"
		},
		{
			"type": "function",
			"name": "claim",
			"inputs": [
				{
					"name": "claims",
					"type": "tuple[]",
					"internalType": "struct JBClaim[]",
					"components": [
						{
							"name": "token",
							"type": "address",
							"internalType": "address"
						},
						{
							"name": "leaf",
							"type": "tuple",
							"internalType": "struct JBLeaf",
							"components": [
								{
									"name": "index",
									"type": "uint256",
									"internalType": "uint256"
								},
								{
									"name": "beneficiary",
									"type": "bytes32",
									"internalType": "bytes32"
								},
								{
									"name": "projectTokenCount",
									"type": "uint256",
									"internalType": "uint256"
								},
								{
									"name": "terminalTokenAmount",
									"type": "uint256",
									"internalType": "uint256"
								},
								{
									"name": "metadata",
									"type": "bytes32",
									"internalType": "bytes32"
								}
							]
						},
						{
							"name": "proof",
							"type": "bytes32[32]",
							"internalType": "bytes32[32]"
						}
					]
				}
			],
			"outputs": [],
			"stateMutability": "nonpayable"
		},
		{
			"type": "function",
			"name": "claim",
			"inputs": [
				{
					"name": "claimData",
					"type": "tuple",
					"internalType": "struct JBClaim",
					"components": [
						{
							"name": "token",
							"type": "address",
							"internalType": "address"
						},
						{
							"name": "leaf",
							"type": "tuple",
							"internalType": "struct JBLeaf",
							"components": [
								{
									"name": "index",
									"type": "uint256",
									"internalType": "uint256"
								},
								{
									"name": "beneficiary",
									"type": "bytes32",
									"internalType": "bytes32"
								},
								{
									"name": "projectTokenCount",
									"type": "uint256",
									"internalType": "uint256"
								},
								{
									"name": "terminalTokenAmount",
									"type": "uint256",
									"internalType": "uint256"
								},
								{
									"name": "metadata",
									"type": "bytes32",
									"internalType": "bytes32"
								}
							]
						},
						{
							"name": "proof",
							"type": "bytes32[32]",
							"internalType": "bytes32[32]"
						}
					]
				}
			],
			"outputs": [],
			"stateMutability": "nonpayable"
		},
		{
			"type": "function",
			"name": "claimRetainedToRemoteFee",
			"inputs": [
				{
					"name": "beneficiary",
					"type": "address",
					"internalType": "address payable"
				}
			],
			"outputs": [],
			"stateMutability": "nonpayable"
		},
		{
			"type": "function",
			"name": "claimRetainedTransportPaymentRefund",
			"inputs": [
				{
					"name": "beneficiary",
					"type": "address",
					"internalType": "address payable"
				}
			],
			"outputs": [],
			"stateMutability": "nonpayable"
		},
		{
			"type": "function",
			"name": "deployer",
			"inputs": [],
			"outputs": [
				{
					"name": "",
					"type": "address",
					"internalType": "address"
				}
			],
			"stateMutability": "view"
		},
		{
			"type": "function",
			"name": "enableEmergencyHatchFor",
			"inputs": [
				{
					"name": "tokens",
					"type": "address[]",
					"internalType": "address[]"
				}
			],
			"outputs": [],
			"stateMutability": "nonpayable"
		},
		{
			"type": "function",
			"name": "executedLeafHashOf",
			"inputs": [
				{
					"name": "token",
					"type": "address",
					"internalType": "address"
				},
				{
					"name": "index",
					"type": "uint256",
					"internalType": "uint256"
				}
			],
			"outputs": [
				{
					"name": "",
					"type": "bytes32",
					"internalType": "bytes32"
				}
			],
			"stateMutability": "view"
		},
		{
			"type": "function",
			"name": "exitThroughEmergencyHatch",
			"inputs": [
				{
					"name": "claimData",
					"type": "tuple",
					"internalType": "struct JBClaim",
					"components": [
						{
							"name": "token",
							"type": "address",
							"internalType": "address"
						},
						{
							"name": "leaf",
							"type": "tuple",
							"internalType": "struct JBLeaf",
							"components": [
								{
									"name": "index",
									"type": "uint256",
									"internalType": "uint256"
								},
								{
									"name": "beneficiary",
									"type": "bytes32",
									"internalType": "bytes32"
								},
								{
									"name": "projectTokenCount",
									"type": "uint256",
									"internalType": "uint256"
								},
								{
									"name": "terminalTokenAmount",
									"type": "uint256",
									"internalType": "uint256"
								},
								{
									"name": "metadata",
									"type": "bytes32",
									"internalType": "bytes32"
								}
							]
						},
						{
							"name": "proof",
							"type": "bytes32[32]",
							"internalType": "bytes32[32]"
						}
					]
				}
			],
			"outputs": [],
			"stateMutability": "nonpayable"
		},
		{
			"type": "function",
			"name": "fromRemote",
			"inputs": [
				{
					"name": "root",
					"type": "tuple",
					"internalType": "struct JBMessageRoot",
					"components": [
						{
							"name": "version",
							"type": "uint8",
							"internalType": "uint8"
						},
						{
							"name": "token",
							"type": "bytes32",
							"internalType": "bytes32"
						},
						{
							"name": "amount",
							"type": "uint256",
							"internalType": "uint256"
						},
						{
							"name": "remoteRoot",
							"type": "tuple",
							"internalType": "struct JBInboxTreeRoot",
							"components": [
								{
									"name": "nonce",
									"type": "uint64",
									"internalType": "uint64"
								},
								{
									"name": "root",
									"type": "bytes32",
									"internalType": "bytes32"
								}
							]
						},
						{
							"name": "sourceTotalSupply",
							"type": "uint256",
							"internalType": "uint256"
						},
						{
							"name": "sourceContexts",
							"type": "tuple[]",
							"internalType": "struct JBSourceContext[]",
							"components": [
								{
									"name": "token",
									"type": "bytes32",
									"internalType": "bytes32"
								},
								{
									"name": "decimals",
									"type": "uint8",
									"internalType": "uint8"
								},
								{
									"name": "surplus",
									"type": "uint128",
									"internalType": "uint128"
								},
								{
									"name": "balance",
									"type": "uint128",
									"internalType": "uint128"
								}
							]
						},
						{
							"name": "sourceTimestamp",
							"type": "uint256",
							"internalType": "uint256"
						}
					]
				}
			],
			"outputs": [],
			"stateMutability": "payable"
		},
		{
			"type": "function",
			"name": "fromRemoteAccounting",
			"inputs": [
				{
					"name": "snapshot",
					"type": "tuple",
					"internalType": "struct JBAccountingSnapshot",
					"components": [
						{
							"name": "version",
							"type": "uint8",
							"internalType": "uint8"
						},
						{
							"name": "sourceTotalSupply",
							"type": "uint256",
							"internalType": "uint256"
						},
						{
							"name": "sourceContexts",
							"type": "tuple[]",
							"internalType": "struct JBSourceContext[]",
							"components": [
								{
									"name": "token",
									"type": "bytes32",
									"internalType": "bytes32"
								},
								{
									"name": "decimals",
									"type": "uint8",
									"internalType": "uint8"
								},
								{
									"name": "surplus",
									"type": "uint128",
									"internalType": "uint128"
								},
								{
									"name": "balance",
									"type": "uint128",
									"internalType": "uint128"
								}
							]
						},
						{
							"name": "sourceTimestamp",
							"type": "uint256",
							"internalType": "uint256"
						}
					]
				}
			],
			"outputs": [],
			"stateMutability": "nonpayable"
		},
		{
			"type": "function",
			"name": "getRouter",
			"inputs": [],
			"outputs": [
				{
					"name": "router",
					"type": "address",
					"internalType": "address"
				}
			],
			"stateMutability": "view"
		},
		{
			"type": "function",
			"name": "inboxOf",
			"inputs": [
				{
					"name": "token",
					"type": "address",
					"internalType": "address"
				}
			],
			"outputs": [
				{
					"name": "",
					"type": "tuple",
					"internalType": "struct JBInboxTreeRoot",
					"components": [
						{
							"name": "nonce",
							"type": "uint64",
							"internalType": "uint64"
						},
						{
							"name": "root",
							"type": "bytes32",
							"internalType": "bytes32"
						}
					]
				}
			],
			"stateMutability": "view"
		},
		{
			"type": "function",
			"name": "initialize",
			"inputs": [
				{
					"name": "localProjectId",
					"type": "uint256",
					"internalType": "uint256"
				},
				{
					"name": "remotePeer",
					"type": "bytes32",
					"internalType": "bytes32"
				}
			],
			"outputs": [],
			"stateMutability": "nonpayable"
		},
		{
			"type": "function",
			"name": "initialize",
			"inputs": [
				{
					"name": "initialProjectId",
					"type": "uint256",
					"internalType": "uint256"
				}
			],
			"outputs": [],
			"stateMutability": "nonpayable"
		},
		{
			"type": "function",
			"name": "isMapped",
			"inputs": [
				{
					"name": "token",
					"type": "address",
					"internalType": "address"
				}
			],
			"outputs": [
				{
					"name": "",
					"type": "bool",
					"internalType": "bool"
				}
			],
			"stateMutability": "view"
		},
		{
			"type": "function",
			"name": "isTrustedForwarder",
			"inputs": [
				{
					"name": "forwarder",
					"type": "address",
					"internalType": "address"
				}
			],
			"outputs": [
				{
					"name": "",
					"type": "bool",
					"internalType": "bool"
				}
			],
			"stateMutability": "view"
		},
		{
			"type": "function",
			"name": "mapToken",
			"inputs": [
				{
					"name": "map",
					"type": "tuple",
					"internalType": "struct JBTokenMapping",
					"components": [
						{
							"name": "localToken",
							"type": "address",
							"internalType": "address"
						},
						{
							"name": "minGas",
							"type": "uint32",
							"internalType": "uint32"
						},
						{
							"name": "remoteToken",
							"type": "bytes32",
							"internalType": "bytes32"
						}
					]
				}
			],
			"outputs": [],
			"stateMutability": "payable"
		},
		{
			"type": "function",
			"name": "mapTokens",
			"inputs": [
				{
					"name": "maps",
					"type": "tuple[]",
					"internalType": "struct JBTokenMapping[]",
					"components": [
						{
							"name": "localToken",
							"type": "address",
							"internalType": "address"
						},
						{
							"name": "minGas",
							"type": "uint32",
							"internalType": "uint32"
						},
						{
							"name": "remoteToken",
							"type": "bytes32",
							"internalType": "bytes32"
						}
					]
				}
			],
			"outputs": [],
			"stateMutability": "payable"
		},
		{
			"type": "function",
			"name": "outboxOf",
			"inputs": [
				{
					"name": "token",
					"type": "address",
					"internalType": "address"
				}
			],
			"outputs": [
				{
					"name": "",
					"type": "tuple",
					"internalType": "struct JBOutboxTree",
					"components": [
						{
							"name": "nonce",
							"type": "uint64",
							"internalType": "uint64"
						},
						{
							"name": "numberOfClaimsSent",
							"type": "uint192",
							"internalType": "uint192"
						},
						{
							"name": "balance",
							"type": "uint256",
							"internalType": "uint256"
						},
						{
							"name": "tree",
							"type": "tuple",
							"internalType": "struct MerkleLib.Tree",
							"components": [
								{
									"name": "branch",
									"type": "bytes32[32]",
									"internalType": "bytes32[32]"
								},
								{
									"name": "count",
									"type": "uint256",
									"internalType": "uint256"
								}
							]
						}
					]
				}
			],
			"stateMutability": "view"
		},
		{
			"type": "function",
			"name": "peer",
			"inputs": [],
			"outputs": [
				{
					"name": "",
					"type": "bytes32",
					"internalType": "bytes32"
				}
			],
			"stateMutability": "view"
		},
		{
			"type": "function",
			"name": "peerChainContextsOf",
			"inputs": [],
			"outputs": [
				{
					"name": "contexts",
					"type": "tuple[]",
					"internalType": "struct JBPeerChainContext[]",
					"components": [
						{
							"name": "currency",
							"type": "uint32",
							"internalType": "uint32"
						},
						{
							"name": "decimals",
							"type": "uint8",
							"internalType": "uint8"
						},
						{
							"name": "surplus",
							"type": "uint128",
							"internalType": "uint128"
						},
						{
							"name": "balance",
							"type": "uint128",
							"internalType": "uint128"
						}
					]
				},
				{
					"name": "chainId",
					"type": "uint256",
					"internalType": "uint256"
				},
				{
					"name": "snapshot",
					"type": "uint256",
					"internalType": "uint256"
				}
			],
			"stateMutability": "view"
		},
		{
			"type": "function",
			"name": "peerChainId",
			"inputs": [],
			"outputs": [
				{
					"name": "chainId",
					"type": "uint256",
					"internalType": "uint256"
				}
			],
			"stateMutability": "view"
		},
		{
			"type": "function",
			"name": "peerChainTotalSupply",
			"inputs": [],
			"outputs": [
				{
					"name": "",
					"type": "uint256",
					"internalType": "uint256"
				}
			],
			"stateMutability": "view"
		},
		{
			"type": "function",
			"name": "peerChainTotalSupplyValue",
			"inputs": [],
			"outputs": [
				{
					"name": "",
					"type": "tuple",
					"internalType": "struct JBPeerChainValue",
					"components": [
						{
							"name": "value",
							"type": "uint256",
							"internalType": "uint256"
						},
						{
							"name": "peerChainId",
							"type": "uint256",
							"internalType": "uint256"
						},
						{
							"name": "snapshotTimestamp",
							"type": "uint256",
							"internalType": "uint256"
						}
					]
				}
			],
			"stateMutability": "view"
		},
		{
			"type": "function",
			"name": "prepare",
			"inputs": [
				{
					"name": "projectTokenCount",
					"type": "uint256",
					"internalType": "uint256"
				},
				{
					"name": "beneficiary",
					"type": "bytes32",
					"internalType": "bytes32"
				},
				{
					"name": "minTokensReclaimed",
					"type": "uint256",
					"internalType": "uint256"
				},
				{
					"name": "token",
					"type": "address",
					"internalType": "address"
				},
				{
					"name": "metadata",
					"type": "bytes32",
					"internalType": "bytes32"
				}
			],
			"outputs": [],
			"stateMutability": "nonpayable"
		},
		{
			"type": "function",
			"name": "projectId",
			"inputs": [],
			"outputs": [
				{
					"name": "",
					"type": "uint256",
					"internalType": "uint256"
				}
			],
			"stateMutability": "view"
		},
		{
			"type": "function",
			"name": "remoteTokenFor",
			"inputs": [
				{
					"name": "token",
					"type": "address",
					"internalType": "address"
				}
			],
			"outputs": [
				{
					"name": "",
					"type": "tuple",
					"internalType": "struct JBRemoteToken",
					"components": [
						{
							"name": "enabled",
							"type": "bool",
							"internalType": "bool"
						},
						{
							"name": "emergencyHatch",
							"type": "bool",
							"internalType": "bool"
						},
						{
							"name": "minGas",
							"type": "uint32",
							"internalType": "uint32"
						},
						{
							"name": "addr",
							"type": "bytes32",
							"internalType": "bytes32"
						}
					]
				}
			],
			"stateMutability": "view"
		},
		{
			"type": "function",
			"name": "retainedToRemoteFeeBalance",
			"inputs": [],
			"outputs": [
				{
					"name": "",
					"type": "uint256",
					"internalType": "uint256"
				}
			],
			"stateMutability": "view"
		},
		{
			"type": "function",
			"name": "retainedToRemoteFeeOf",
			"inputs": [
				{
					"name": "account",
					"type": "address",
					"internalType": "address"
				}
			],
			"outputs": [
				{
					"name": "amount",
					"type": "uint256",
					"internalType": "uint256"
				}
			],
			"stateMutability": "view"
		},
		{
			"type": "function",
			"name": "retainedTransportPaymentRefundBalance",
			"inputs": [],
			"outputs": [
				{
					"name": "",
					"type": "uint256",
					"internalType": "uint256"
				}
			],
			"stateMutability": "view"
		},
		{
			"type": "function",
			"name": "retainedTransportPaymentRefundOf",
			"inputs": [
				{
					"name": "account",
					"type": "address",
					"internalType": "address"
				}
			],
			"outputs": [
				{
					"name": "amount",
					"type": "uint256",
					"internalType": "uint256"
				}
			],
			"stateMutability": "view"
		},
		{
			"type": "function",
			"name": "setDeprecation",
			"inputs": [
				{
					"name": "timestamp",
					"type": "uint40",
					"internalType": "uint40"
				}
			],
			"outputs": [],
			"stateMutability": "nonpayable"
		},
		{
			"type": "function",
			"name": "snapshotTimestamp",
			"inputs": [],
			"outputs": [
				{
					"name": "",
					"type": "uint256",
					"internalType": "uint256"
				}
			],
			"stateMutability": "view"
		},
		{
			"type": "function",
			"name": "state",
			"inputs": [],
			"outputs": [
				{
					"name": "",
					"type": "uint8",
					"internalType": "enum JBSuckerState"
				}
			],
			"stateMutability": "view"
		},
		{
			"type": "function",
			"name": "supportsInterface",
			"inputs": [
				{
					"name": "interfaceId",
					"type": "bytes4",
					"internalType": "bytes4"
				}
			],
			"outputs": [
				{
					"name": "supported",
					"type": "bool",
					"internalType": "bool"
				}
			],
			"stateMutability": "view"
		},
		{
			"type": "function",
			"name": "syncAccountingData",
			"inputs": [],
			"outputs": [],
			"stateMutability": "payable"
		},
		{
			"type": "function",
			"name": "toRemote",
			"inputs": [
				{
					"name": "token",
					"type": "address",
					"internalType": "address"
				}
			],
			"outputs": [],
			"stateMutability": "payable"
		},
		{
			"type": "function",
			"name": "trustedForwarder",
			"inputs": [],
			"outputs": [
				{
					"name": "",
					"type": "address",
					"internalType": "address"
				}
			],
			"stateMutability": "view"
		},
		{
			"type": "event",
			"name": "AccountingDataSynced",
			"inputs": [
				{
					"name": "sourceTimestamp",
					"type": "uint256",
					"indexed": false,
					"internalType": "uint256"
				},
				{
					"name": "caller",
					"type": "address",
					"indexed": false,
					"internalType": "address"
				}
			],
			"anonymous": false
		},
		{
			"type": "event",
			"name": "ClaimFailed",
			"inputs": [
				{
					"name": "token",
					"type": "address",
					"indexed": true,
					"internalType": "address"
				},
				{
					"name": "index",
					"type": "uint256",
					"indexed": false,
					"internalType": "uint256"
				},
				{
					"name": "caller",
					"type": "address",
					"indexed": false,
					"internalType": "address"
				}
			],
			"anonymous": false
		},
		{
			"type": "event",
			"name": "Claimed",
			"inputs": [
				{
					"name": "beneficiary",
					"type": "bytes32",
					"indexed": false,
					"internalType": "bytes32"
				},
				{
					"name": "token",
					"type": "address",
					"indexed": false,
					"internalType": "address"
				},
				{
					"name": "projectTokenCount",
					"type": "uint256",
					"indexed": false,
					"internalType": "uint256"
				},
				{
					"name": "terminalTokenAmount",
					"type": "uint256",
					"indexed": false,
					"internalType": "uint256"
				},
				{
					"name": "index",
					"type": "uint256",
					"indexed": false,
					"internalType": "uint256"
				},
				{
					"name": "metadata",
					"type": "bytes32",
					"indexed": false,
					"internalType": "bytes32"
				},
				{
					"name": "caller",
					"type": "address",
					"indexed": false,
					"internalType": "address"
				}
			],
			"anonymous": false
		},
		{
			"type": "event",
			"name": "DeprecationTimeUpdated",
			"inputs": [
				{
					"name": "timestamp",
					"type": "uint40",
					"indexed": false,
					"internalType": "uint40"
				},
				{
					"name": "caller",
					"type": "address",
					"indexed": false,
					"internalType": "address"
				}
			],
			"anonymous": false
		},
		{
			"type": "event",
			"name": "EmergencyExit",
			"inputs": [
				{
					"name": "beneficiary",
					"type": "address",
					"indexed": true,
					"internalType": "address"
				},
				{
					"name": "token",
					"type": "address",
					"indexed": true,
					"internalType": "address"
				},
				{
					"name": "terminalTokenAmount",
					"type": "uint256",
					"indexed": false,
					"internalType": "uint256"
				},
				{
					"name": "projectTokenCount",
					"type": "uint256",
					"indexed": false,
					"internalType": "uint256"
				},
				{
					"name": "caller",
					"type": "address",
					"indexed": false,
					"internalType": "address"
				}
			],
			"anonymous": false
		},
		{
			"type": "event",
			"name": "EmergencyHatchOpened",
			"inputs": [
				{
					"name": "tokens",
					"type": "address[]",
					"indexed": false,
					"internalType": "address[]"
				},
				{
					"name": "caller",
					"type": "address",
					"indexed": false,
					"internalType": "address"
				}
			],
			"anonymous": false
		},
		{
			"type": "event",
			"name": "Initialized",
			"inputs": [
				{
					"name": "version",
					"type": "uint64",
					"indexed": false,
					"internalType": "uint64"
				}
			],
			"anonymous": false
		},
		{
			"type": "event",
			"name": "InsertToOutboxTree",
			"inputs": [
				{
					"name": "beneficiary",
					"type": "bytes32",
					"indexed": true,
					"internalType": "bytes32"
				},
				{
					"name": "token",
					"type": "address",
					"indexed": true,
					"internalType": "address"
				},
				{
					"name": "hashed",
					"type": "bytes32",
					"indexed": false,
					"internalType": "bytes32"
				},
				{
					"name": "index",
					"type": "uint256",
					"indexed": false,
					"internalType": "uint256"
				},
				{
					"name": "root",
					"type": "bytes32",
					"indexed": false,
					"internalType": "bytes32"
				},
				{
					"name": "projectTokenCount",
					"type": "uint256",
					"indexed": false,
					"internalType": "uint256"
				},
				{
					"name": "terminalTokenAmount",
					"type": "uint256",
					"indexed": false,
					"internalType": "uint256"
				},
				{
					"name": "metadata",
					"type": "bytes32",
					"indexed": false,
					"internalType": "bytes32"
				},
				{
					"name": "caller",
					"type": "address",
					"indexed": false,
					"internalType": "address"
				}
			],
			"anonymous": false
		},
		{
			"type": "event",
			"name": "NewInboxTreeRoot",
			"inputs": [
				{
					"name": "token",
					"type": "address",
					"indexed": true,
					"internalType": "address"
				},
				{
					"name": "nonce",
					"type": "uint64",
					"indexed": false,
					"internalType": "uint64"
				},
				{
					"name": "root",
					"type": "bytes32",
					"indexed": false,
					"internalType": "bytes32"
				},
				{
					"name": "caller",
					"type": "address",
					"indexed": false,
					"internalType": "address"
				}
			],
			"anonymous": false
		},
		{
			"type": "event",
			"name": "RetainedToRemoteFee",
			"inputs": [
				{
					"name": "account",
					"type": "address",
					"indexed": true,
					"internalType": "address"
				},
				{
					"name": "amount",
					"type": "uint256",
					"indexed": false,
					"internalType": "uint256"
				},
				{
					"name": "caller",
					"type": "address",
					"indexed": false,
					"internalType": "address"
				}
			],
			"anonymous": false
		},
		{
			"type": "event",
			"name": "RetainedToRemoteFeeClaimed",
			"inputs": [
				{
					"name": "account",
					"type": "address",
					"indexed": true,
					"internalType": "address"
				},
				{
					"name": "beneficiary",
					"type": "address",
					"indexed": true,
					"internalType": "address"
				},
				{
					"name": "amount",
					"type": "uint256",
					"indexed": false,
					"internalType": "uint256"
				},
				{
					"name": "caller",
					"type": "address",
					"indexed": false,
					"internalType": "address"
				}
			],
			"anonymous": false
		},
		{
			"type": "event",
			"name": "RetainedTransportPaymentRefund",
			"inputs": [
				{
					"name": "account",
					"type": "address",
					"indexed": true,
					"internalType": "address"
				},
				{
					"name": "amount",
					"type": "uint256",
					"indexed": false,
					"internalType": "uint256"
				},
				{
					"name": "caller",
					"type": "address",
					"indexed": false,
					"internalType": "address"
				}
			],
			"anonymous": false
		},
		{
			"type": "event",
			"name": "RetainedTransportPaymentRefundClaimed",
			"inputs": [
				{
					"name": "account",
					"type": "address",
					"indexed": true,
					"internalType": "address"
				},
				{
					"name": "beneficiary",
					"type": "address",
					"indexed": true,
					"internalType": "address"
				},
				{
					"name": "amount",
					"type": "uint256",
					"indexed": false,
					"internalType": "uint256"
				},
				{
					"name": "caller",
					"type": "address",
					"indexed": false,
					"internalType": "address"
				}
			],
			"anonymous": false
		},
		{
			"type": "event",
			"name": "RootToRemote",
			"inputs": [
				{
					"name": "root",
					"type": "bytes32",
					"indexed": true,
					"internalType": "bytes32"
				},
				{
					"name": "token",
					"type": "address",
					"indexed": true,
					"internalType": "address"
				},
				{
					"name": "index",
					"type": "uint256",
					"indexed": false,
					"internalType": "uint256"
				},
				{
					"name": "nonce",
					"type": "uint64",
					"indexed": false,
					"internalType": "uint64"
				},
				{
					"name": "caller",
					"type": "address",
					"indexed": false,
					"internalType": "address"
				}
			],
			"anonymous": false
		},
		{
			"type": "event",
			"name": "StaleRootRejected",
			"inputs": [
				{
					"name": "token",
					"type": "address",
					"indexed": true,
					"internalType": "address"
				},
				{
					"name": "receivedNonce",
					"type": "uint64",
					"indexed": false,
					"internalType": "uint64"
				},
				{
					"name": "currentNonce",
					"type": "uint64",
					"indexed": false,
					"internalType": "uint64"
				},
				{
					"name": "caller",
					"type": "address",
					"indexed": false,
					"internalType": "address"
				}
			],
			"anonymous": false
		},
		{
			"type": "event",
			"name": "TransportPaymentRefundFailed",
			"inputs": [
				{
					"name": "recipient",
					"type": "address",
					"indexed": true,
					"internalType": "address"
				},
				{
					"name": "amount",
					"type": "uint256",
					"indexed": false,
					"internalType": "uint256"
				},
				{
					"name": "caller",
					"type": "address",
					"indexed": false,
					"internalType": "address"
				}
			],
			"anonymous": false
		},
		{
			"type": "error",
			"name": "InvalidInitialization",
			"inputs": []
		},
		{
			"type": "error",
			"name": "JBCCIPSucker_InvalidRouter",
			"inputs": [
				{
					"name": "router",
					"type": "address",
					"internalType": "address"
				}
			]
		},
		{
			"type": "error",
			"name": "JBCCIPSucker_PositiveRootWithoutDelivery",
			"inputs": [
				{
					"name": "rootAmount",
					"type": "uint256",
					"internalType": "uint256"
				}
			]
		},
		{
			"type": "error",
			"name": "JBCCIPSucker_UnderDeliveredAmount",
			"inputs": [
				{
					"name": "delivered",
					"type": "uint256",
					"internalType": "uint256"
				},
				{
					"name": "rootAmount",
					"type": "uint256",
					"internalType": "uint256"
				}
			]
		},
		{
			"type": "error",
			"name": "JBCCIPSucker_UnexpectedDeliveredTokens",
			"inputs": [
				{
					"name": "count",
					"type": "uint256",
					"internalType": "uint256"
				}
			]
		},
		{
			"type": "error",
			"name": "JBCCIPSucker_UnknownMessageType",
			"inputs": [
				{
					"name": "messageType",
					"type": "uint8",
					"internalType": "uint8"
				}
			]
		},
		{
			"type": "error",
			"name": "JBCCIPSucker_WrongDeliveredToken",
			"inputs": [
				{
					"name": "delivered",
					"type": "address",
					"internalType": "address"
				},
				{
					"name": "expected",
					"type": "address",
					"internalType": "address"
				}
			]
		},
		{
			"type": "error",
			"name": "JBPermissioned_Unauthorized",
			"inputs": [
				{
					"name": "account",
					"type": "address",
					"internalType": "address"
				},
				{
					"name": "sender",
					"type": "address",
					"internalType": "address"
				},
				{
					"name": "projectId",
					"type": "uint256",
					"internalType": "uint256"
				},
				{
					"name": "permissionId",
					"type": "uint256",
					"internalType": "uint256"
				}
			]
		},
		{
			"type": "error",
			"name": "JBSucker_AccountingSyncUnsupported",
			"inputs": []
		},
		{
			"type": "error",
			"name": "JBSucker_AmountExceedsUint128",
			"inputs": [
				{
					"name": "amount",
					"type": "uint256",
					"internalType": "uint256"
				}
			]
		},
		{
			"type": "error",
			"name": "JBSucker_BelowMinGas",
			"inputs": [
				{
					"name": "minGas",
					"type": "uint256",
					"internalType": "uint256"
				},
				{
					"name": "minGasLimit",
					"type": "uint256",
					"internalType": "uint256"
				}
			]
		},
		{
			"type": "error",
			"name": "JBSucker_Deprecated",
			"inputs": [
				{
					"name": "state",
					"type": "uint8",
					"internalType": "enum JBSuckerState"
				}
			]
		},
		{
			"type": "error",
			"name": "JBSucker_DeprecationTimestampTooSoon",
			"inputs": [
				{
					"name": "givenTime",
					"type": "uint256",
					"internalType": "uint256"
				},
				{
					"name": "minimumTime",
					"type": "uint256",
					"internalType": "uint256"
				}
			]
		},
		{
			"type": "error",
			"name": "JBSucker_ExpectedMsgValue",
			"inputs": [
				{
					"name": "msgValue",
					"type": "uint256",
					"internalType": "uint256"
				}
			]
		},
		{
			"type": "error",
			"name": "JBSucker_IndexOutOfRange",
			"inputs": [
				{
					"name": "index",
					"type": "uint256",
					"internalType": "uint256"
				}
			]
		},
		{
			"type": "error",
			"name": "JBSucker_InsufficientBalance",
			"inputs": [
				{
					"name": "amount",
					"type": "uint256",
					"internalType": "uint256"
				},
				{
					"name": "balance",
					"type": "uint256",
					"internalType": "uint256"
				}
			]
		},
		{
			"type": "error",
			"name": "JBSucker_InsufficientMsgValue",
			"inputs": [
				{
					"name": "received",
					"type": "uint256",
					"internalType": "uint256"
				},
				{
					"name": "expected",
					"type": "uint256",
					"internalType": "uint256"
				}
			]
		},
		{
			"type": "error",
			"name": "JBSucker_InvalidMessageVersion",
			"inputs": [
				{
					"name": "received",
					"type": "uint8",
					"internalType": "uint8"
				},
				{
					"name": "expected",
					"type": "uint8",
					"internalType": "uint8"
				}
			]
		},
		{
			"type": "error",
			"name": "JBSucker_InvalidNativeRemoteAddress",
			"inputs": [
				{
					"name": "remoteToken",
					"type": "bytes32",
					"internalType": "bytes32"
				}
			]
		},
		{
			"type": "error",
			"name": "JBSucker_InvalidProof",
			"inputs": [
				{
					"name": "root",
					"type": "bytes32",
					"internalType": "bytes32"
				},
				{
					"name": "inboxRoot",
					"type": "bytes32",
					"internalType": "bytes32"
				}
			]
		},
		{
			"type": "error",
			"name": "JBSucker_LeafAlreadyExecuted",
			"inputs": [
				{
					"name": "token",
					"type": "address",
					"internalType": "address"
				},
				{
					"name": "index",
					"type": "uint256",
					"internalType": "uint256"
				}
			]
		},
		{
			"type": "error",
			"name": "JBSucker_NoRetainedToRemoteFee",
			"inputs": [
				{
					"name": "account",
					"type": "address",
					"internalType": "address"
				}
			]
		},
		{
			"type": "error",
			"name": "JBSucker_NoRetainedTransportPaymentRefund",
			"inputs": [
				{
					"name": "account",
					"type": "address",
					"internalType": "address"
				}
			]
		},
		{
			"type": "error",
			"name": "JBSucker_NoTerminalForToken",
			"inputs": [
				{
					"name": "projectId",
					"type": "uint256",
					"internalType": "uint256"
				},
				{
					"name": "token",
					"type": "address",
					"internalType": "address"
				}
			]
		},
		{
			"type": "error",
			"name": "JBSucker_NotPeer",
			"inputs": [
				{
					"name": "caller",
					"type": "bytes32",
					"internalType": "bytes32"
				}
			]
		},
		{
			"type": "error",
			"name": "JBSucker_NothingToSend",
			"inputs": [
				{
					"name": "token",
					"type": "address",
					"internalType": "address"
				},
				{
					"name": "outboxBalance",
					"type": "uint256",
					"internalType": "uint256"
				},
				{
					"name": "treeCount",
					"type": "uint256",
					"internalType": "uint256"
				},
				{
					"name": "numberOfClaimsSent",
					"type": "uint256",
					"internalType": "uint256"
				}
			]
		},
		{
			"type": "error",
			"name": "JBSucker_RefundFailed",
			"inputs": [
				{
					"name": "beneficiary",
					"type": "address",
					"internalType": "address"
				},
				{
					"name": "amount",
					"type": "uint256",
					"internalType": "uint256"
				}
			]
		},
		{
			"type": "error",
			"name": "JBSucker_RemoteTokenAlreadyMapped",
			"inputs": [
				{
					"name": "remoteToken",
					"type": "bytes32",
					"internalType": "bytes32"
				},
				{
					"name": "localToken",
					"type": "address",
					"internalType": "address"
				}
			]
		},
		{
			"type": "error",
			"name": "JBSucker_TokenAlreadyMapped",
			"inputs": [
				{
					"name": "localToken",
					"type": "address",
					"internalType": "address"
				},
				{
					"name": "mappedTo",
					"type": "bytes32",
					"internalType": "bytes32"
				}
			]
		},
		{
			"type": "error",
			"name": "JBSucker_TokenHasInvalidEmergencyHatchState",
			"inputs": [
				{
					"name": "token",
					"type": "address",
					"internalType": "address"
				}
			]
		},
		{
			"type": "error",
			"name": "JBSucker_TokenNotMapped",
			"inputs": [
				{
					"name": "token",
					"type": "address",
					"internalType": "address"
				}
			]
		},
		{
			"type": "error",
			"name": "JBSucker_UnexpectedMsgValue",
			"inputs": [
				{
					"name": "value",
					"type": "uint256",
					"internalType": "uint256"
				}
			]
		},
		{
			"type": "error",
			"name": "JBSucker_UnexpectedTokenBalance",
			"inputs": [
				{
					"name": "token",
					"type": "address",
					"internalType": "address"
				},
				{
					"name": "expectedBalance",
					"type": "uint256",
					"internalType": "uint256"
				},
				{
					"name": "actualBalance",
					"type": "uint256",
					"internalType": "uint256"
				}
			]
		},
		{
			"type": "error",
			"name": "JBSucker_ZeroBeneficiary",
			"inputs": [
				{
					"name": "beneficiary",
					"type": "bytes32",
					"internalType": "bytes32"
				}
			]
		},
		{
			"type": "error",
			"name": "JBSucker_ZeroERC20Token",
			"inputs": [
				{
					"name": "projectId",
					"type": "uint256",
					"internalType": "uint256"
				}
			]
		},
		{
			"type": "error",
			"name": "JBSucker_ZeroProjectTokenCount",
			"inputs": []
		},
		{
			"type": "error",
			"name": "MerkleLib_InsertTreeIsFull",
			"inputs": [
				{
					"name": "size",
					"type": "uint256",
					"internalType": "uint256"
				},
				{
					"name": "maxLeaves",
					"type": "uint256",
					"internalType": "uint256"
				}
			]
		},
		{
			"type": "error",
			"name": "NotInitializing",
			"inputs": []
		},
		{
			"type": "error",
			"name": "SafeERC20FailedOperation",
			"inputs": [
				{
					"name": "token",
					"type": "address",
					"internalType": "address"
				}
			]
		}
	],
	"args": [
		"0x68D0d970948b7f723a4A75a64eE3B77FdDB41d69",
		"0x64AdBfeA4C04557aEcc4a0DCf9Afd2465b915851",
		"0x8dC962f3C239788e2E037dC0e0eaC59C1DfA00D6",
		"0x07986D1Da3F75bFB685B6CDEe856c24558BB5b37",
		"1",
		"0x12D6958823BFa587Ffc54EC911FA6350a13cc593",
		"0xc3d209565fA468581cdE5F6F3e381F7CcabC76C9"
	],
	"solcInputHash": "c7f65e42f93dc8a923fe99b380525f03",
	"bytecode": "0x6101c0604052348015610010575f5ffd5b5060405161643438038061643483398101604081905261002f91610336565b6001600160a01b0380821660805280861660a052861660c081905260e08490526040805163293c499960e01b8152905188928892889288928892889263293c4999916004808201926020929091908290030181865afa158015610094573d5f5f3e3d5ffd5b505050506040513d601f19601f820116820180604052508101906100b891906103c3565b6001600160a01b0390811661010052828116610120528416610140526100dc610270565b505050505050866001600160a01b03166363a49dc36040518163ffffffff1660e01b8152600401602060405180830381865afa15801561011e573d5f5f3e3d5ffd5b505050506040513d601f19601f8201168201806040525081019061014291906103e5565b6101808181525050866001600160a01b031663d86161876040518163ffffffff1660e01b8152600401602060405180830381865afa158015610186573d5f5f3e3d5ffd5b505050506040513d601f19601f820116820180604052508101906101aa91906103fc565b6001600160401b03166101a0816001600160401b031681525050866001600160a01b0316630de229846040518163ffffffff1660e01b8152600401602060405180830381865afa158015610200573d5f5f3e3d5ffd5b505050506040513d601f19601f8201168201806040525081019061022491906103c3565b6001600160a01b03166101608190526102645761016051604051636e1f4ccd60e01b81526001600160a01b03909116600482015260240160405180910390fd5b50505050505050610422565b7ff0c57e16840df040f15088dc2f81fe391c3923bec73e23a9662efc9c229c6a00805468010000000000000000900460ff16156102c05760405163f92ee8a960e01b815260040160405180910390fd5b80546001600160401b039081161461031f5780546001600160401b0319166001600160401b0390811782556040519081527fc7f505b2f371ae2175ee4913f4499e1f2633a7b5936321eed1cdaeb6115181d29060200160405180910390a15b50565b6001600160a01b038116811461031f575f5ffd5b5f5f5f5f5f5f5f60e0888a03121561034c575f5ffd5b875161035781610322565b602089015190975061036881610322565b604089015190965061037981610322565b606089015190955061038a81610322565b608089015160a08a015191955093506103a281610322565b60c08901519092506103b381610322565b8091505092959891949750929550565b5f602082840312156103d3575f5ffd5b81516103de81610322565b9392505050565b5f602082840312156103f5575f5ffd5b5051919050565b5f6020828403121561040c575f5ffd5b81516001600160401b03811681146103de575f5ffd5b60805160a05160c05160e05161010051610120516101405161016051610180516101a051615ef46105405f395f818161037a0152818161139b01526143e301525f8181610716015281816109fe0152818161103d01526124c401525f818161093801528181610ba101528181611326015281816114e001528181611629015281816143c2015261494b01525f8181610445015261186401525f81816103c501528181611ac7015261274501525f81816104780152612fda01525f81816106c401528181611b840152611bdc01525f818161089f01528181611d68015281816134ca0152818161390701528181613d65015261422001525f8181610ae201526130b601525f81816105b9015281816107460152613ccc0152615ef45ff3fe6080604052600436106102f6575f3560e01c8063802c8fa011610189578063cdfceeba116100d8578063f3aefd7b11610092578063fc072f231161006d578063fc072f2314610b2f578063fc9f18b014610b4e578063fe4b84df14610b71578063fe5f42ca14610b90575f5ffd5b8063f3aefd7b14610ab2578063f434c91414610ad1578063f925558c14610b04575f5ffd5b8063cdfceeba146109f0578063cf26bafb14610a22578063cf2a1c7414610a37578063d5f3948814610a4a578063d935222f14610a68578063eac1f29e14610a87575f5ffd5b8063af629bbb11610143578063bf557aee1161011e578063bf557aee1461096f578063c19d93fb146109a8578063c1ca1ec7146109c9578063cbb2adce146109d1575f5ffd5b8063af629bbb1461090b578063b0f479a11461092a578063b71c11791461095c575f5ffd5b8063802c8fa01461084357806385572ffb1461086f57806388bc2ef31461088e57806392ee1ea7146108c15780639c43eb54146108d75780639e6d7d43146108ec575f5ffd5b80634035d3b1116102455780636284386a116101ff57806375451559116101da57806375451559146106e65780637d1d0c5b146107055780637da0a877146107385780637de6fba21461076a575f5ffd5b80636284386a1461061f5780636d9e384b1461063e5780636f4115a9146106b3575f5ffd5b80634035d3b11461051457806346cb4e801461054a5780634f0677e114610569578063541769491461057e578063572b6c051461059d5780635cc4f369146105e9575f5ffd5b806311cda415116102b0578063352a34e31161028b578063352a34e31461049a5780633a5de07d146104af5780633f827a5a146104da5780633fafa12714610500575f5ffd5b806311cda415146104125780631d831d5c14610434578063293c499914610467575f5ffd5b8063014dc2a61461030157806301ffc9a71461031657806303da64a81461034a578063056965111461036957806306433b1b146103b45780630ce92d4b146103ff575f5ffd5b366102fd57005b5f5ffd5b61031461030f366004614c94565b610bc3565b005b348015610321575f5ffd5b50610335610330366004614d03565b610cf3565b60405190151581526020015b60405180910390f35b348015610355575f5ffd5b50610314610364366004614d2a565b610d1d565b348015610374575f5ffd5b5061039c7f000000000000000000000000000000000000000000000000000000000000000081565b6040516001600160401b039091168152602001610341565b3480156103bf575f5ffd5b506103e77f000000000000000000000000000000000000000000000000000000000000000081565b6040516001600160a01b039091168152602001610341565b61031461040d366004614d8a565b610e36565b34801561041d575f5ffd5b50610426610e5a565b604051908152602001610341565b34801561043f575f5ffd5b506103e77f000000000000000000000000000000000000000000000000000000000000000081565b348015610472575f5ffd5b506103e77f000000000000000000000000000000000000000000000000000000000000000081565b3480156104a5575f5ffd5b5061042660025481565b3480156104ba575f5ffd5b506104c562030d4081565b60405163ffffffff9091168152602001610341565b3480156104e5575f5ffd5b506104ee600181565b60405160ff9091168152602001610341565b34801561050b575f5ffd5b50601154610426565b34801561051f575f5ffd5b5061042661052e366004614db7565b600160209081525f928352604080842090915290825290205481565b348015610555575f5ffd5b50610314610564366004614de1565b610e71565b348015610574575f5ffd5b5061042660045481565b348015610589575f5ffd5b50610314610598366004614e17565b610f0b565b3480156105a8575f5ffd5b506103356105b7366004614e37565b7f00000000000000000000000000000000000000000000000000000000000000006001600160a01b0390811691161490565b3480156105f4575f5ffd5b506105fd611004565b6040805182518152602080840151908201529181015190820152606001610341565b34801561062a575f5ffd5b50610314610639366004614e52565b61106f565b348015610649575f5ffd5b506106a6610658366004614e37565b604080518082019091525f8082526020820152506001600160a01b03165f908152600a6020908152604091829020825180840190935280546001600160401b03168352600101549082015290565b6040516103419190614e76565b3480156106be575f5ffd5b506104267f000000000000000000000000000000000000000000000000000000000000000081565b3480156106f1575f5ffd5b50610314610700366004614e96565b611155565b348015610710575f5ffd5b506104267f000000000000000000000000000000000000000000000000000000000000000081565b348015610743575f5ffd5b507f00000000000000000000000000000000000000000000000000000000000000006103e7565b348015610775575f5ffd5b50610806610784366004614e37565b604080516080810182525f808252602082018190529181018290526060810191909152506001600160a01b03165f908152600f60209081526040918290208251608081018452815460ff808216151583526101008204161515938201939093526201000090920463ffffffff1692820192909252600190910154606082015290565b604051610341919081511515815260208083015115159082015260408083015163ffffffff16908201526060918201519181019190915260800190565b34801561084e575f5ffd5b5061086261085d366004614e37565b611272565b6040516103419190614ef5565b34801561087a575f5ffd5b50610314610889366004614f67565b61131b565b348015610899575f5ffd5b506103e77f000000000000000000000000000000000000000000000000000000000000000081565b3480156108cc575f5ffd5b506104c5620493e081565b3480156108e2575f5ffd5b5061042660075481565b3480156108f7575f5ffd5b50610426610906366004614e37565b611793565b348015610916575f5ffd5b50610314610925366004614f9d565b611820565b348015610935575f5ffd5b507f00000000000000000000000000000000000000000000000000000000000000006103e7565b61031461096a366004614e37565b6119aa565b34801561097a575f5ffd5b50610335610989366004614e37565b6001600160a01b03165f908152600f6020526040902060010154151590565b3480156109b3575f5ffd5b506109bc611ce3565b6040516103419190614ff6565b610314611d2a565b3480156109dc575f5ffd5b506103146109eb36600461501c565b611e61565b3480156109fb575f5ffd5b507f0000000000000000000000000000000000000000000000000000000000000000610426565b348015610a2d575f5ffd5b5061042660035481565b610314610a4536600461502e565b611f46565b348015610a55575f5ffd5b505f546103e7906001600160a01b031681565b348015610a73575f5ffd5b50610314610a8236600461501c565b6121a8565b348015610a92575f5ffd5b50610426610aa1366004614e37565b60066020525f908152604090205481565b348015610abd575f5ffd5b50610314610acc366004614e37565b6122b3565b348015610adc575f5ffd5b506103e77f000000000000000000000000000000000000000000000000000000000000000081565b348015610b0f575f5ffd5b50610426610b1e366004614e37565b60056020525f908152604090205481565b348015610b3a575f5ffd5b50610314610b49366004614e37565b6123ca565b348015610b59575f5ffd5b50610b626124bc565b60405161034193929190615065565b348015610b7c575f5ffd5b50610314610b8b3660046150f4565b61258a565b348015610b9b575f5ffd5b506103e77f000000000000000000000000000000000000000000000000000000000000000081565b5f5f5b82811015610c6e575f600e5f868685818110610be457610be461510b565b610bfa9260206060909202019081019150614e37565b6001600160a01b0316815260208101919091526040015f9081209150858584818110610c2857610c2861510b565b90506060020160400135148015610c54575060228101548154600160401b90046001600160c01b031614155b15610c6557610c6283615133565b92505b50600101610bc6565b505f8115610c8557610c80823461515f565b610c87565b5f5b90505f5f5b84811015610cc957610cb5868683818110610ca957610ca961510b565b90506060020184612682565b610cbf9083615172565b9150600101610c8c565b5080341115610cec57610cec610cdd612a65565b610ce78334615185565b612a73565b5050505050565b5f6001600160e01b031982166385572ffb60e01b1480610d175750610d1782612af5565b92915050565b5f5b81811015610e31573063cbb2adce848484818110610d3f57610d3f61510b565b90506104c002016040518263ffffffff1660e01b8152600401610d629190615198565b5f604051808303815f87803b158015610d79575f5ffd5b505af1925050508015610d8a575060015b610e2957828282818110610da057610da061510b565b610db79260206104c0909202019081019150614e37565b6001600160a01b03167fc1054f794d197971822697afa7ff4777cac6fb7a512e4bfec63aebaab98187b6848484818110610df357610df361510b565b90506104c002016020015f0135610e08612a65565b604080519283526001600160a01b0390911660208301520160405180910390a25b600101610d1f565b505050565b5f610e418234612682565b905080341115610e5657610e56610cdd612a65565b5050565b6013545f908015610e6a57919050565b3091505090565b303314610e9f57335b60405163f957028d60e01b8152600401610e9691815260200190565b60405180910390fd5b6001610eae6020830183615205565b60ff1614610ee957610ec36020820182615205565b60405163e667c12560e01b815260ff909116600482015260016024820152604401610e96565b610f0860608201356020830135610f036040850185615220565b612b5f565b50565b5f610f14612f0a565b805490915060ff600160401b82041615906001600160401b03165f81158015610f3a5750825b90505f826001600160401b03166001148015610f555750303b155b905081158015610f63575080155b15610f815760405163f92ee8a960e01b815260040160405180910390fd5b845467ffffffffffffffff191660011785558315610fab57845460ff60401b1916600160401b1785555b610fb58787612f32565b8315610ffb57845460ff60401b19168555604051600181527fc7f505b2f371ae2175ee4913f4499e1f2633a7b5936321eed1cdaeb6115181d29060200160405180910390a15b50505050505050565b61102560405180606001604052805f81526020015f81526020015f81525090565b6040518060600160405280600254815260200161105f7f000000000000000000000000000000000000000000000000000000000000000090565b8152602001600754815250905090565b611077612f67565b5f61108160115490565b905061109761108f82612fc2565b82602461304b565b5f6110a56212750042615172565b905064ffffffffff8316158015906110c45750808364ffffffffff1611155b156110f257604051630111a46b60e21b815264ffffffffff8416600482015260248101829052604401610e96565b64ffffffffff83166008557f455efa76af2a8686dc0dd3041bda89ece5ba4691277d525e2161003bbca8b24583611127612a65565b6040805164ffffffffff90931683526001600160a01b039091166020830152015b60405180910390a1505050565b5f61115f60115490565b905061117561116d82612fc2565b82602361304b565b5f5b82811015611237575f600f5f8686858181106111955761119561510b565b90506020020160208101906111aa9190614e37565b6001600160a01b0316815260208101919091526040015f908120805460ff191692151592909217909155600190600f908686858181106111ec576111ec61510b565b90506020020160208101906112019190614e37565b6001600160a01b0316815260208101919091526040015f2080549115156101000261ff0019909216919091179055600101611177565b507f8021bce60b20a9afb57085869a3552e0ee5b272b868df894fb30c5e90e74c0728383611263612a65565b6040516111489392919061526c565b61127a614bc7565b6001600160a01b0382165f908152600e6020908152604091829020825160808101845281546001600160401b0381168252600160401b90046001600160c01b031681840152600182015481850152835161044081018086529194929360608601939192600286019284929083019184919082845b8154815260200190600101908083116112ee57505050918352505060209182015491015290525092915050565b336001600160a01b037f000000000000000000000000000000000000000000000000000000000000000016146113515733610e7a565b5f61135f60408301836152ce565b81019061136c9190614e37565b9050611376613160565b6001600160a01b0316816001600160a01b03161415806113d757506001600160401b037f0000000000000000000000000000000000000000000000000000000000000000166113cb6040840160208501615324565b6001600160401b031614155b156113eb576001600160a01b038116610e7a565b5f806113fa60608501856152ce565b81019061140791906153ef565b909250905060ff82166116f7575f8180602001905181019061142991906155d1565b90505f6114396080870187615688565b9150506001811115611461576040516330b6751d60e01b815260048101829052602401610e96565b805f0361149b5760408201511561149657816040015160405160016272c62f60e11b03198152600401610e9691815260200190565b6115ff565b366114a96080880188615688565b5f8181106114b9576114b961510b565b602086015160409091029290920192505061eeee145f816114de57602085015161155e565b7f00000000000000000000000000000000000000000000000000000000000000006001600160a01b031663e861e9076040518163ffffffff1660e01b8152600401602060405180830381865afa15801561153a573d5f5f3e3d5ffd5b505050506040513d601f19601f8201168201806040525081019061155e91906156cd565b90506001600160a01b0381166115776020850185614e37565b6001600160a01b0316146115bf576115926020840184614e37565b6040516346f21d7f60e01b81526001600160a01b0391821660048201529082166024820152604401610e96565b8460400151836020013510156115fb576040808601519051635231144f60e11b8152602085013560048201526024810191909152604401610e96565b5050505b602082015161eeed19016116a05773b81fd319f9171e34a241bc12f334fd811ff11ae663511bd95c7f000000000000000000000000000000000000000000000000000000000000000061165560808a018a615688565b6040518463ffffffff1660e01b8152600401611673939291906156e8565b5f6040518083038186803b158015611689575f5ffd5b505af415801561169b573d5f5f3e3d5ffd5b505050505b6040516333ca871d60e21b8152309063cf2a1c74906116c39085906004016157c4565b5f604051808303815f87803b1580156116da575f5ffd5b505af11580156116ec573d5f5f3e3d5ffd5b50505050505061178d565b5f1960ff83160161176f575f6117106080860186615688565b9150508015611735576040516330b6751d60e01b815260048101829052602401610e96565b5f8280602001905181019061174a9190615849565b604051628d969d60e71b815290915030906346cb4e80906116c39084906004016158dc565b604051638664a67360e01b815260ff83166004820152602401610e96565b50505050565b6001600160a01b0381165f908152600e602052604081206001015481906117ba843061316f565b6117c49190615185565b905061eeed196001600160a01b03841601610d17576003548082116117ec57505f9392505050565b6117f68183615185565b60045490925080831161180d57505f949350505050565b6118178184615185565b95945050505050565b845f0361184057604051632bcf4c5760e21b815260040160405180910390fd5b836118615760405163b2fe07f160e01b815260048101859052602401610e96565b5f7f00000000000000000000000000000000000000000000000000000000000000006001600160a01b031663ea78803f61189a60115490565b6040518263ffffffff1660e01b81526004016118b891815260200190565b602060405180830381865afa1580156118d3573d5f5f3e3d5ffd5b505050506040513d601f19601f820116820180604052508101906118f791906156cd565b90506001600160a01b038116611926576011546040516309794d0160e11b8152600401610e9691815260200190565b6001600160a01b0383165f908152600f602052604090205460ff166119695760405163027edf0360e11b81526001600160a01b0384166004820152602401610e96565b611971612f67565b61198e61197c612a65565b6001600160a01b038316903089613203565b5f61199b82888688613239565b9050610ffb878583898761334c565b6001600160a01b0381165f908152600f60209081526040918290208251608081018452815460ff808216151583526101008204161580159483019490945262010000900463ffffffff1693810193909352600101546060830152611a2c576040516304bba81f60e41b81526001600160a01b0383166004820152602401610e96565b6001600160a01b0382165f908152600e602052604090206001810154158015611a6a575080546022820154600160401b9091046001600160c01b0316145b15611ac45760018101546022820154825460405163096c1e2160e21b81526001600160a01b038716600482015260248101939093526044830191909152600160401b90046001600160c01b03166064820152608401610e96565b5f7f00000000000000000000000000000000000000000000000000000000000000006001600160a01b031663421159156040518163ffffffff1660e01b8152600401602060405180830381865afa158015611b21573d5f5f3e3d5ffd5b505050506040513d601f19601f82011682018060405250810190611b459190615924565b905080341015611b7157604051630ee99a4760e01b815234600482015260248101829052604401610e96565b5f611b7c8234615185565b90505f611bab7f000000000000000000000000000000000000000000000000000000000000000061eeee6134a2565b90505f6001600160a01b03821615801590611bc557508315155b15611cb557816001600160a01b031663fef43257857f000000000000000000000000000000000000000000000000000000000000000061eeee88611c07612a65565b5f6040518763ffffffff1660e01b8152600401611c6f9594939291909485526001600160a01b03938416602086015260408501929092529091166060830152608082015260e060a082018190525f90820181905261010060c083018190528201526101200190565b60206040518083038185885af193505050508015611caa575060408051601f3d908101601f19168201909252611ca791810190615924565b60015b15611cb55760019150505b80158015611cc257508315155b15611cd857611cd8611cd2612a65565b85613535565b610ffb8388886135d1565b6008545f90808203611cf6575f91505090565b611d036212750082615185565b421015611d1257600191505090565b80421015611d2257600291505090565b600391505090565b611d32612f67565b5f611d4960128054600101908190554260801b1790565b90505f73129fc28f9beb5deb3ec4ef65dcdce5dd2185dde563726a4a817f0000000000000000000000000000000000000000000000000000000000000000611d9060115490565b6040516001600160e01b031960e085901b1681526001600160a01b039092166004830152602482015260016044820152606481018590526084015f60405180830381865af4158015611de4573d5f5f3e3d5ffd5b505050506040513d5f823e601f3d908101601f19168201604052611e0b9190810190615849565b90507f77bd1556265e71d247f11bb5886efda7fd5e5b21e6a4d2c871e8e6b49ac92f3d82611e37612a65565b604080519283526001600160a01b0390911660208301520160405180910390a1610e563482613734565b611e936060820135611e766020840184614e37565b6080840135604085013560a0860135602087013560c088016137c2565b7fa8d6760b4e1a89f513fc87990f66d051c419d735fb8191104014e0529d9ae2d36040820135611ec66020840184614e37565b60608401356080850135602086013560a0870135611ee2612a65565b604080519788526001600160a01b0396871660208901528701949094526060860192909252608085015260a08401521660c082015260e00160405180910390a1610f08611f326020830183614e37565b6080830135606084013560408501356138d4565b303314611f535733610e7a565b6001611f626020830183615205565b60ff1614611f7757610ec36020820182615205565b6001600160a01b036020828101359182165f908152600a9091526040902080546001600160401b0316611fb06080850160608601615324565b6001600160401b0316111561210d57611fcf6080840160608501615324565b815467ffffffffffffffff19166001600160401b03919091161781556080830135600182018190557f27ae5ba08d7291c96c8cbddcc148bf48a6d68c7974b94356f53754ef6171d7571461208f576001600160a01b0382165f908152600b6020526040812054600490612043906001615172565b61204d919061593b565b6001600160a01b0384165f908152600b60209081526040808320849055600c9091529020909150608085013590826004811061208b5761208b61510b565b0155505b6001600160a01b0382167fc69d3412489554fb7820c4c2784cb644b6c79bfc117444b93977d3d33a9b8eac6120ca6080860160608701615324565b60808601356120d7612a65565b604080516001600160401b03909416845260208401929092526001600160a01b03169082015260600160405180910390a261218e565b6001600160a01b0382167f2eb8abf720d2b9cf9e357f7a24a2bee502a7bdba38de0de230e10c33dafbd3eb6121486080860160608701615324565b83546001600160401b031661215b612a65565b604080516001600160401b0394851681529390921660208401526001600160a01b03169082015260600160405180910390a25b610e3160e084013560a0850135610f0360c0870187615220565b6121da60608201356121bd6020840184614e37565b6080840135604085013560a0860135602087013560c08801613a12565b6080810135600e5f6121ef6020850185614e37565b6001600160a01b03166001600160a01b031681526020019081526020015f206001015f82825461221f9190615185565b9091555061223290506020820182614e37565b6001600160a01b031660408201356001600160a01b03167fe33107c4043e574d8a4da32dac235e219f8f34a0e45e473ea6643a6145f252856080840135606085013561227c612a65565b6040805193845260208401929092526001600160a01b03169082015260600160405180910390a3610f08611f326020830183614e37565b6001600160a01b0381166122dc5760405163b2fe07f160e01b81525f6004820152602401610e96565b5f6122e5612a65565b6001600160a01b0381165f9081526006602052604081205491925081900361232b57604051631733ad2160e21b81526001600160a01b0383166004820152602401610e96565b6001600160a01b0382165f90815260066020526040812081905560048054839290612357908490615185565b9091555061236790508382612a73565b826001600160a01b0316826001600160a01b03167ffbcfe54e4aa35e7772f25a5f52fedccde889e4fc5031ad9826b9bf6b890baa59836123a5612a65565b604080519283526001600160a01b0390911660208301520160405180910390a3505050565b6001600160a01b0381166123f35760405163b2fe07f160e01b81525f6004820152602401610e96565b5f6123fc612a65565b6001600160a01b0381165f908152600560205260408120549192508190036124425760405163578a51dd60e11b81526001600160a01b0383166004820152602401610e96565b6001600160a01b0382165f9081526005602052604081208190556003805483929061246e908490615185565b9091555061247e90508382612a73565b826001600160a01b0316826001600160a01b03167f1e70ff8443e61b2a2555b5ad56645461a75dd29591b5c4a6281f70a6d395db45836123a5612a65565b60605f8060147f000000000000000000000000000000000000000000000000000000000000000060075482805480602002602001604051908101604052809291908181526020015f905b82821015612579575f8481526020908190206040805160808101825260028602909201805463ffffffff8116845260ff640100000000820416848601526001600160801b036501000000000090910481169284019290925260019081015490911660608301529083529092019101612506565b505050509250925092509250909192565b5f612593612f0a565b805490915060ff600160401b82041615906001600160401b03165f811580156125b95750825b90505f826001600160401b031660011480156125d45750303b155b9050811580156125e2575080155b156126005760405163f92ee8a960e01b815260040160405180910390fd5b845467ffffffffffffffff19166001178555831561262a57845460ff60401b1916600160401b1785555b612634865f612f32565b831561267a57845460ff60401b19168555604051600181527fc7f505b2f371ae2175ee4913f4499e1f2633a7b5936321eed1cdaeb6115181d29060200160405180910390a15b505050505050565b5f806126916020850185614e37565b6001600160a01b0381165f908152600f60209081526040918290208251608081018452815460ff808216151583526101008204161580159483019490945262010000900463ffffffff169381019390935260010154606083015291925090612717576040516304bba81f60e41b81526001600160a01b0383166004820152602401610e96565b61272085613c50565b5f61272a60115490565b905061277c61273882612fc2565b8260206001600160a01b037f00000000000000000000000000000000000000000000000000000000000000001661276d612a65565b6001600160a01b031614613cab565b60608201511580159061279757508560400135826060015114155b80156127a65750604086013515155b80156127cb57506001600160a01b0383165f908152600e602052604090206022015415155b1561280157606082015160405163aef430a360e01b81526001600160a01b03851660048201526024810191909152604401610e96565b60408601351561287b576040808701355f908152600d60205220546001600160a01b031680158015906128465750836001600160a01b0316816001600160a01b031614155b15612879576040805163d6a305d960e01b81529088013560048201526001600160a01b0382166024820152604401610e96565b505b60408601351580156128b957506001600160a01b0383165f908152600e6020526040902060228101549054600160401b90046001600160c01b031614155b156128ec576001600160a01b0383165f908152600f60205260409020805460ff191690556128e88584846135d1565b8493505b6040860135158015906129025750606082015115155b801561291657508560400135826060015114155b801561293f575060608201515f908152600d60205260409020546001600160a01b038481169116145b156129655760608201515f908152600d6020526040902080546001600160a01b03191690555b5f60408701351561297a578660400135612980565b82606001515b905080156129af575f818152600d6020526040902080546001600160a01b0319166001600160a01b0386161790555b604080516080810182528882018035151582525f60208084019190915291928301916129dd91908b0161595f565b63ffffffff90811682526020918201939093526001600160a01b039095165f908152600f8652604090819020825181549784015192840151909416620100000265ffffffff0000199215156101000261ff00199515159590951661ffff1990981697909717939093171694909417815560609093015160019093019290925550909392505050565b5f612a6e613cbb565b905090565b5f826001600160a01b0316826040515f6040518083038185875af1925050503d805f8114612abc576040519150601f19603f3d011682016040523d82523d5f602084013e612ac1565b606091505b5050905080610e3157604051630590bd2d60e41b81526001600160a01b038416600482015260248101839052604401610e96565b5f6001600160e01b031982166314a66dd360e21b1480612b2557506001600160e01b031982166320cc1c1160e11b145b80612b4057506001600160e01b03198216633d0d324560e21b145b80610d1757506301ffc9a760e01b6001600160e01b0319831614610d17565b60075484111561178d5760078490556002839055612b7e60145f614c03565b805f5b8181101561267a5736848483818110612b9c57612b9c61510b565b6080029190910180355f908152600d60205260409020549092506001600160a01b0316905080612bca575080355b5f5f612bd583613d25565b91509150808015612c0157506001600160a01b0383165f9081526010602052604090205463ffffffff16155b15612c31576001600160a01b0383165f908152601060205260409020805463ffffffff191663ffffffff84161790555b6014545f805b82811015612de9578463ffffffff1660148281548110612c5957612c5961510b565b5f91825260209091206002909102015463ffffffff16148015612cba5750612c876040880160208901615205565b60ff1660148281548110612c9d57612c9d61510b565b5f918252602090912060029091020154640100000000900460ff16145b15612de157612d0c60148281548110612cd557612cd561510b565b5f9182526020909120600290910201546501000000000090046001600160801b0316612d0760608a0160408b0161597a565b613f63565b60148281548110612d1f57612d1f61510b565b905f5260205f2090600202015f0160056101000a8154816001600160801b0302191690836001600160801b03160217905550612d9360148281548110612d6757612d6761510b565b5f9182526020909120600160029092020101546001600160801b0316612d0760808a0160608b0161597a565b60148281548110612da657612da661510b565b905f5260205f2090600202016001015f6101000a8154816001600160801b0302191690836001600160801b0316021790555060019150612de9565b600101612c37565b5080612ef957601460405180608001604052808663ffffffff168152602001886020016020810190612e1b9190615205565b60ff168152602001612e3360608a0160408b0161597a565b6001600160801b03168152602001612e5160808a0160608b0161597a565b6001600160801b039081169091528254600181810185555f948552602094859020845160029093020180549585015160408601518516650100000000000274ffffffffffffffffffffffffffffffff00000000001960ff9092166401000000000264ffffffffff1990981663ffffffff909516949094179690961795909516919091178455606090920151929091018054929091166001600160801b03199092169190911790555b866001019650505050505050612b81565b5f807ff0c57e16840df040f15088dc2f81fe391c3923bec73e23a9662efc9c229c6a00610d17565b60118290556013819055612f44612a65565b5f80546001600160a01b0319166001600160a01b03929092169190911790555050565b5f612f70611ce3565b90506003816003811115612f8657612f86614fe2565b1480612fa357506002816003811115612fa157612fa1614fe2565b145b15610f08578060405162a7958f60e81b8152600401610e969190614ff6565b6040516331a9108f60e11b8152600481018290525f907f00000000000000000000000000000000000000000000000000000000000000006001600160a01b031690636352211e90602401602060405180830381865afa158015613027573d5f5f3e3d5ffd5b505050506040513d601f19601f82011682018060405250810190610d1791906156cd565b5f613054612a65565b9050836001600160a01b0316816001600160a01b0316141580156131215750604051631a45b42760e11b81526001600160a01b0382811660048301528581166024830152604482018590526064820184905260016084830181905260a48301527f0000000000000000000000000000000000000000000000000000000000000000169063348b684e9060c401602060405180830381865afa1580156130fb573d5f5f3e3d5ffd5b505050506040513d601f19601f8201168201806040525081019061311f91906159af565b155b1561178d57604051631326f75560e11b81526001600160a01b038086166004830152821660248201526044810184905260648101839052608401610e96565b5f612a6e61316c610e5a565b90565b5f61eeed196001600160a01b0384160161319457506001600160a01b03811631610d17565b6040516370a0823160e01b81526001600160a01b0383811660048301528416906370a0823190602401602060405180830381865afa1580156131d8573d5f5f3e3d5ffd5b505050506040513d601f19601f820116820180604052508101906131fc9190615924565b9392505050565b613211848484846001613f91565b61178d57604051635274afe760e01b81526001600160a01b0385166004820152602401610e96565b5f5f61324460115490565b90505f61325182866134a2565b90506001600160a01b03811661328c5760405163b61c181f60e01b8152600481018390526001600160a01b0386166024820152604401610e96565b5f613297863061316f565b604080516020810182525f815290516313da831760e01b81529192506001600160a01b038416916313da8317916132dc91309188918d918d918d9186916004016159f6565b6020604051808303815f875af11580156132f8573d5f5f3e3d5ffd5b505050506040513d601f19601f8201168201806040525081019061331c9190615924565b935080613329873061316f565b6133339190615185565b841461334157613341615a4b565b505050949350505050565b6001600160801b03831115613377576040516335bf001160e11b815260048101849052602401610e96565b6001600160801b038511156133a2576040516335bf001160e11b815260048101869052602401610e96565b6040805186815260208082018690528183018590526060820184905260809091206001600160a01b0387165f908152600e9092529190206133e66002820183613ffe565b84816001015f8282546133f99190615172565b92505081905550856001600160a01b0316847fc92fa1150c24ee5470c272112539aab52450a5e05573e7ea7bdfb98829b8932184600185600201602001546134419190615185565b61344d866002016140e9565b8c8b8a613458612a65565b604080519788526020880196909652948601939093526060850191909152608084015260a08301526001600160a01b031660c082015260e00160405180910390a350505050505050565b604051630862026560e41b8152600481018390526001600160a01b0382811660248301525f917f000000000000000000000000000000000000000000000000000000000000000090911690638620265090604401602060405180830381865afa158015613511573d5f5f3e3d5ffd5b505050506040513d601f19601f820116820180604052508101906131fc91906156cd565b6001600160a01b0382165f908152600560205260408120805483929061355c908490615172565b925050819055508060035f8282546135749190615172565b90915550506001600160a01b0382167f2a3798c6648c17f70b43a33a8378cec543367ac1543e62aa7b39266056971777826135ad612a65565b604080519283526001600160a01b0390911660208301520160405180910390a25050565b60608101516135fe5760405163027edf0360e11b81526001600160a01b0383166004820152602401610e96565b613606612f67565b6001600160a01b0382165f908152600e6020526040812060228101548291829182919080830361363b57505050505050505050565b6001820180545f918290558354909750839190613660906001600160401b0316615a5f565b91906101000a8154816001600160401b0302191690836001600160401b0316021790559450613691826002016140e9565b82546001600160401b0316600160401b6001600160c01b0384160217835593506136bc600182615185565b92505050856001600160a01b0316827f47c5615513b0f669da2dd7e3362a34610ca2695d0a0e2da2160cee952eab203c83866136f6612a65565b604080519384526001600160401b0390921660208401526001600160a01b03169082015260600160405180910390a3610ffb878787878787876141ea565b610e56826137468360400151516142fe565b60018460405160200161375991906158dc565b60408051601f19818403018152908290526137779291602001615a89565b60408051808303601f190181525f8084526020840190925291906137bc565b604080518082019091525f80825260208201528152602001906001900390816137965790505b50614319565b64010000000082106137ea576040516309f6605160e41b815260048101839052602401610e96565b6001600160a01b0386165f908152600960209081526040808320600886901c8452909152902054600160ff84161b161561384957604051632939af3b60e21b81526001600160a01b038716600482015260248101839052604401610e96565b6001600160a01b0386165f818152600960209081526040808320600887901c845282528083208054600160ff891681901b90911790915581518c81528084018b90528083018a90526060810189905260809020948452825280832086845290915281208290556138bb888386866144ec565b90506138c981838686614602565b505050505050505050565b5f6138de60115490565b905083156138f1576138f18585836146a9565b604051632eec7b5560e11b8152600481018290527f00000000000000000000000000000000000000000000000000000000000000006001600160a01b031690635dd8f6aa90602401602060405180830381865afa158015613954573d5f5f3e3d5ffd5b505050506040513d601f19601f8201168201806040525081019061397891906156cd565b6001600160a01b031663c7fb92de8285856040516001600160e01b031960e086901b168152600481019390935260248301919091526001600160a01b0316604482015260a060648201525f60a48201819052608482015260c4016020604051808303815f875af11580156139ee573d5f5f3e3d5ffd5b505050506040513d601f19601f8201168201806040525081019061267a9190615924565b6401000000008210613a3a576040516309f6605160e41b815260048101839052602401610e96565b5f613a43611ce3565b90506003816003811115613a5957613a59614fe2565b14158015613a7957506002816003811115613a7657613a76614fe2565b14155b8015613aa257506001600160a01b0387165f908152600f6020526040902054610100900460ff16155b15613acb576040516304bba81f60e41b81526001600160a01b0388166004820152602401610e96565b6001600160a01b0387165f908152600e602052604090208054600160401b90046001600160c01b031615801590613b29575080548490613b1d90600190600160401b90046001600160c01b0316615aa4565b6001600160c01b031610155b15613b5957604051632939af3b60e21b81526001600160a01b038916600482015260248101859052604401610e96565b604080516001600160a01b038a1660208201525f910160408051808303601f19018152918152815160209283012060601c5f8181526009845282812060088a901c8252909352912054909150600160ff87161b1615613bdd57604051632939af3b60e21b81526001600160a01b038a16600482015260248101869052604401610e96565b6001600160a01b039081165f908152600960209081526040808320600889901c845282528083208054600160ff8b161b179055928b168252600e9052206138c990613c2a906002016140e9565b604080518c8152602081018b905290810189905260608101889052608090208686614602565b62030d40613c64604083016020840161595f565b63ffffffff161015610f0857613c80604082016020830161595f565b604051630555d0f160e41b815263ffffffff909116600482015262030d406024820152604401610e96565b8061178d5761178d84848461304b565b5f366014808210801590613cf757507f00000000000000000000000000000000000000000000000000000000000000006001600160a01b031633145b15613d1d57613d0a36828403815f615ac3565b613d1391615aea565b60601c9250505090565b339250505090565b6001600160a01b0381165f90815260106020526040812054819063ffffffff168015613d55579360019350915050565b5f613d5f60115490565b90505f5f7f00000000000000000000000000000000000000000000000000000000000000006001600160a01b03168388604051602401613db29291909182526001600160a01b0316602082015260400190565b60408051601f198184030181529181526020820180516001600160e01b0316630862026560e41b17905251613de79190615b37565b5f60405180830381855afa9150503d805f8114613e1f576040519150601f19603f3d011682016040523d82523d5f602084013e613e24565b606091505b5091509150818015613e3857506020815110155b15613f56575f81806020019051810190613e5291906156cd565b90506001600160a01b03811615613f5457604051602481018590526001600160a01b0389811660448301525f91829184169060640160408051601f198184030181529181526020820180516001600160e01b0316633a01714f60e01b17905251613ebc9190615b37565b5f60405180830381855afa9150503d805f8114613ef4576040519150601f19603f3d011682016040523d82523d5f602084013e613ef9565b606091505b5091509150818015613f0d57506060815110155b15613f51575f81806020019051810190613f279190615b4d565b9050806040015163ffffffff165f14613f4f57604001519a60019a5098505050505050505050565b505b50505b505b5094955f95509350505050565b5f6001600160801b0383811681841601908111613f805780613f89565b6001600160801b035b949350505050565b6040516323b872dd60e01b5f8181526001600160a01b038781166004528616602452604485905291602083606481808c5af1925060015f51148316613fed578383151615613fe1573d5f823e3d81fd5b5f883b113d1516831692505b604052505f60605295945050505050565b5f826020015f815461400f90615133565b91829055509050600161402460206002615ca1565b61402e9190615185565b8111156140705780600161404460206002615ca1565b61404e9190615185565b60405163515447c160e01b815260048101929092526024820152604401610e96565b5f5b60208110156140d357816001166001036140a157828482602081106140995761409961510b565b015550505050565b5f8482602081106140b4576140b461510b565b01545f90815260209490945250604090922091600191821c9101614072565b5082602001546001602060026140449190615ca1565b60208101545f9080820361411f57507f27ae5ba08d7291c96c8cbddcc148bf48a6d68c7974b94356f53754ef6171d75792915050565b614127614c21565b5f5b6020811015614171576001811b8316156141695784816020811061414f5761414f61510b565b01548282602081106141635761416361510b565b60200201525b600101614129565b50604051634a490c2560e01b815273129fc28f9beb5deb3ec4ef65dcdce5dd2185dde590634a490c25906141ab9084908690600401615cac565b602060405180830381865af41580156141c6573d5f5f3e3d5ffd5b505050506040513d601f19601f82011682018060405250810190613f899190615924565b5f61420160128054600101908190554260801b1790565b90505f73129fc28f9beb5deb3ec4ef65dcdce5dd2185dde563c60a0b827f000000000000000000000000000000000000000000000000000000000000000061424860115490565b60608b01516040516001600160e01b031960e086901b1681526001600160a01b03909316600484015260248301919091526044820152606481018990526001600160401b038816608482015260a48101879052600160c482015260e48101859052610104015f60405180830381865af41580156142c7573d5f5f3e3d5ffd5b505050506040513d5f823e601f3d908101601f191682016040526142ee91908101906155d1565b90506138c989848a898b86614906565b5f61430c620124f883615ce5565b610d1790620493e0615172565b5f614322612a65565b90505f8515614331575f6143a2565b604051632f8eeb3d60e01b81524660048201527307ba7acd74f4fb1b4e3b547d0bf1ede326f02b6090632f8eeb3d90602401602060405180830381865af415801561437e573d5f5f3e3d5ffd5b505050506040513d601f19601f820116820180604052508101906143a291906156cd565b90505f5f73b81fd319f9171e34a241bc12f334fd811ff11ae6636b5653287f00000000000000000000000000000000000000000000000000000000000000007f000000000000000000000000000000000000000000000000000000000000000061440a613160565b8c886001600160a01b038116614420575f614422565b8a5b8e8e8e8e6040518b63ffffffff1660e01b815260040161444b9a99989796959493929190615cfc565b6040805180830381865af4158015614465573d5f5f3e3d5ffd5b505050506040513d601f19601f820116820180604052508101906144899190615dcd565b9150915081156144e25761449d8482614a73565b604080518281526001600160a01b03861660208201819052917f49a226512c7c6d0448c9d048f6243d67cab6c593596a82f21224aa748d1c5d5e910160405180910390a25b5050505050505050565b6001600160a01b0384165f908152600a60205260408082206001015490516307fbe4d560e41b8152829073129fc28f9beb5deb3ec4ef65dcdce5dd2185dde590637fbe4d509061454490899088908a90600401615df7565b602060405180830381865af415801561455f573d5f5f3e3d5ffd5b505050506040513d601f19601f820116820180604052508101906145839190615924565b905081810361459457509050613f89565b6001600160a01b0387165f908152600c60205260408120905b60048110156145f5575f8282600481106145c9576145c961510b565b0154905080158015906145db57508084145b156145ec579450613f899350505050565b506001016145ad565b5091979650505050505050565b6040516307fbe4d560e41b81525f9073129fc28f9beb5deb3ec4ef65dcdce5dd2185dde590637fbe4d509061463f90879086908890600401615df7565b602060405180830381865af415801561465a573d5f5f3e3d5ffd5b505050506040513d601f19601f8201168201806040525081019061467e9190615924565b9050848114610cec576040516272c3e960e11b81526004810182905260248101869052604401610e96565b5f6146b384611793565b9050808311156146e0576040516360ec3e7160e01b81526004810184905260248101829052604401610e96565b5f6146eb83866134a2565b90506001600160a01b0381166147265760405163b61c181f60e01b8152600481018490526001600160a01b0386166024820152604401610e96565b5f806001600160a01b03871661eeee148015906147b5576040516370a0823160e01b81523060048201526001600160a01b038916906370a0823190602401602060405180830381865afa15801561477f573d5f5f3e3d5ffd5b505050506040513d601f19601f820116820180604052508101906147a39190615924565b91506147b0888589614aeb565b6147b9565b8692505b604051639e6eec0560e01b8152600481018790526001600160a01b038981166024830152604482018990525f6064830181905260c0608484015260c4830181905260e060a484015260e4830152851690639e6eec05908590610104015f604051808303818588803b15801561482c575f5ffd5b505af115801561483e573d5f5f3e3d5ffd5b505050505080156144e2575f6148548884615185565b6040516370a0823160e01b81523060048201529091505f906001600160a01b038b16906370a0823190602401602060405180830381865afa15801561489b573d5f5f3e3d5ffd5b505050506040513d601f19601f820116820180604052508101906148bf9190615924565b90508181146148fa5760405163884aa24960e01b81526001600160a01b038b1660048201526024810183905260448101829052606401610e96565b50505050505050505050565b5f6149158260a00151516142fe565b9050606084156149ea5760408401516149349063ffffffff1683615172565b60405163111504cd60e31b81526001600160a01b037f000000000000000000000000000000000000000000000000000000000000000081166004830152881660248201526044810187905290925073b81fd319f9171e34a241bc12f334fd811ff11ae6906388a82668906064015f60405180830381865af41580156149bb573d5f5f3e3d5ffd5b505050506040513d5f823e601f3d908101601f191682016040526149e29190810190615e17565b509050614a29565b604080515f8082526020820190925290614a25565b604080518082019091525f80825260208201528152602001906001900390816149ff5790505b5090505b6144e288835f86604051602001614a4091906157c4565b60408051601f1981840301815290829052614a5e9291602001615a89565b60405160208183030381529060405284614319565b6001600160a01b0382165f9081526006602052604081208054839290614a9a908490615172565b925050819055508060045f828254614ab29190615172565b90915550506001600160a01b0382167feabe38586436d533b7eadb14fb6c3fd63dbb07d41e234f29313b28bf067a891f826135ad612a65565b614af78383835f614b65565b610e3157614b0883835f6001614b65565b614b3057604051635274afe760e01b81526001600160a01b0384166004820152602401610e96565b614b3d8383836001614b65565b610e3157604051635274afe760e01b81526001600160a01b0384166004820152602401610e96565b60405163095ea7b360e01b5f8181526001600160a01b038616600452602485905291602083604481808b5af1925060015f51148316614bbb578383151615614baf573d5f823e3d81fd5b5f873b113d1516831692505b60405250949350505050565b60405180608001604052805f6001600160401b031681526020015f6001600160c01b031681526020015f8152602001614bfe614c40565b905290565b5080545f8255600202905f5260205f2090810190610f089190614c5f565b6040518061040001604052806020906020820280368337509192915050565b6040518060400160405280614c53614c21565b81526020015f81525090565b5b80821115614c905780546001600160a81b03191681556001810180546001600160801b0319169055600201614c60565b5090565b5f5f60208385031215614ca5575f5ffd5b82356001600160401b03811115614cba575f5ffd5b8301601f81018513614cca575f5ffd5b80356001600160401b03811115614cdf575f5ffd5b856020606083028401011115614cf3575f5ffd5b6020919091019590945092505050565b5f60208284031215614d13575f5ffd5b81356001600160e01b0319811681146131fc575f5ffd5b5f5f60208385031215614d3b575f5ffd5b82356001600160401b03811115614d50575f5ffd5b8301601f81018513614d60575f5ffd5b80356001600160401b03811115614d75575f5ffd5b8560206104c083028401011115614cf3575f5ffd5b5f6060828403128015614d9b575f5ffd5b509092915050565b6001600160a01b0381168114610f08575f5ffd5b5f5f60408385031215614dc8575f5ffd5b8235614dd381614da3565b946020939093013593505050565b5f60208284031215614df1575f5ffd5b81356001600160401b03811115614e06575f5ffd5b8201608081850312156131fc575f5ffd5b5f5f60408385031215614e28575f5ffd5b50508035926020909101359150565b5f60208284031215614e47575f5ffd5b81356131fc81614da3565b5f60208284031215614e62575f5ffd5b813564ffffffffff811681146131fc575f5ffd5b81516001600160401b031681526020808301519082015260408101610d17565b5f5f60208385031215614ea7575f5ffd5b82356001600160401b03811115614ebc575f5ffd5b8301601f81018513614ecc575f5ffd5b80356001600160401b03811115614ee1575f5ffd5b8560208260051b8401011115614cf3575f5ffd5b81516001600160401b031681526020808301516001600160c01b0316908201526040808301519082015260608083015180516104808401925f9085015b6020821015614f5257825181526020928301926001929092019101614f32565b50505060208101516104608401525092915050565b5f60208284031215614f77575f5ffd5b81356001600160401b03811115614f8c575f5ffd5b820160a081850312156131fc575f5ffd5b5f5f5f5f5f60a08688031215614fb1575f5ffd5b8535945060208601359350604086013592506060860135614fd181614da3565b949793965091946080013592915050565b634e487b7160e01b5f52602160045260245ffd5b602081016004831061501657634e487b7160e01b5f52602160045260245ffd5b91905290565b5f6104c0828403128015614d9b575f5ffd5b5f6020828403121561503e575f5ffd5b81356001600160401b03811115615053575f5ffd5b820161010081850312156131fc575f5ffd5b606080825284519082018190525f9060208601906080840190835b818110156150df57835163ffffffff815116845260ff60208201511660208501526001600160801b0360408201511660408501526001600160801b03606082015116606085015250608083019250602084019350600181019050615080565b50506020840195909552505060400152919050565b5f60208284031215615104575f5ffd5b5035919050565b634e487b7160e01b5f52603260045260245ffd5b634e487b7160e01b5f52601160045260245ffd5b5f600182016151445761514461511f565b5060010190565b634e487b7160e01b5f52601260045260245ffd5b5f8261516d5761516d61514b565b500490565b80820180821115610d1757610d1761511f565b81810381811115610d1757610d1761511f565b6104c0810182356151a881614da3565b6001600160a01b031682526020838101359083015260408084013590830152606080840135908301526080808401359083015260a0838101359083015261040060c08085019084013792915050565b60ff81168114610f08575f5ffd5b5f60208284031215615215575f5ffd5b81356131fc816151f7565b5f5f8335601e19843603018112615235575f5ffd5b8301803591506001600160401b0382111561524e575f5ffd5b6020019150600781901b3603821315615265575f5ffd5b9250929050565b604080825281018390525f8460608301825b868110156152ae57823561529181614da3565b6001600160a01b031682526020928301929091019060010161527e565b506001600160a01b03949094166020939093019290925250909392505050565b5f5f8335601e198436030181126152e3575f5ffd5b8301803591506001600160401b038211156152fc575f5ffd5b602001915036819003821315615265575f5ffd5b6001600160401b0381168114610f08575f5ffd5b5f60208284031215615334575f5ffd5b81356131fc81615310565b634e487b7160e01b5f52604160045260245ffd5b604080519081016001600160401b03811182821017156153755761537561533f565b60405290565b604051608081016001600160401b03811182821017156153755761537561533f565b60405160e081016001600160401b03811182821017156153755761537561533f565b604051601f8201601f191681016001600160401b03811182821017156153e7576153e761533f565b604052919050565b5f5f60408385031215615400575f5ffd5b823561540b816151f7565b915060208301356001600160401b03811115615425575f5ffd5b8301601f81018513615435575f5ffd5b80356001600160401b0381111561544e5761544e61533f565b615461601f8201601f19166020016153bf565b818152866020838501011115615475575f5ffd5b816020840160208301375f602083830101528093505050509250929050565b805161549f816151f7565b919050565b5f604082840312156154b4575f5ffd5b6154bc615353565b905081516154c981615310565b815260209182015191810191909152919050565b5f6001600160401b038211156154f5576154f561533f565b5060051b60200190565b6001600160801b0381168114610f08575f5ffd5b5f82601f830112615522575f5ffd5b8151615535615530826154dd565b6153bf565b8082825260208201915060208360071b860101925085831115615556575f5ffd5b602085015b838110156155c75760808188031215615572575f5ffd5b61557a61537b565b81518152602082015161558c816151f7565b6020820152604082015161559f816154ff565b604082015260608201516155b2816154ff565b6060820152835260209092019160800161555b565b5095945050505050565b5f602082840312156155e1575f5ffd5b81516001600160401b038111156155f6575f5ffd5b82016101008185031215615608575f5ffd5b61561061539d565b61561982615494565b8152602082810151908201526040808301519082015261563c85606084016154a4565b606082015260a0820151608082015260c08201516001600160401b03811115615663575f5ffd5b61566f86828501615513565b60a08301525060e0919091015160c08201529392505050565b5f5f8335601e1984360301811261569d575f5ffd5b8301803591506001600160401b038211156156b6575f5ffd5b6020019150600681901b3603821315615265575f5ffd5b5f602082840312156156dd575f5ffd5b81516131fc81614da3565b6001600160a01b038416815260406020820181905281018290525f8360608301825b8581101561574457823561571d81614da3565b6001600160a01b03168252602083810135908301526040928301929091019060010161570a565b509695505050505050565b5f8151808452602084019350602083015f5b828110156157ba5781518051875260ff60208201511660208801526001600160801b0360408201511660408801526001600160801b03606082015116606088015250608086019550602082019150600181019050615761565b5093949350505050565b6020815260ff825116602082015260208201516040820152604082015160608201525f606083015161580c608084018280516001600160401b03168252602090810151910152565b50608083015160c083015260a083015161010060e084015261583261012084018261574f565b905060c08401516101008401528091505092915050565b5f60208284031215615859575f5ffd5b81516001600160401b0381111561586e575f5ffd5b82016080818503121561587f575f5ffd5b61588761537b565b8151615892816151f7565b81526020828101519082015260408201516001600160401b038111156158b6575f5ffd5b6158c286828501615513565b604083015250606091820151918101919091529392505050565b6020815260ff8251166020820152602082015160408201525f60408301516080606084015261590e60a084018261574f565b9050606084015160808401528091505092915050565b5f60208284031215615934575f5ffd5b5051919050565b5f826159495761594961514b565b500690565b63ffffffff81168114610f08575f5ffd5b5f6020828403121561596f575f5ffd5b81356131fc8161594e565b5f6020828403121561598a575f5ffd5b81356131fc816154ff565b805161549f81614da3565b8051801515811461549f575f5ffd5b5f602082840312156159bf575f5ffd5b6131fc826159a0565b5f81518084528060208401602086015e5f602082860101526020601f19601f83011685010191505092915050565b6001600160a01b0388811682526020820188905260408201879052858116606083015260808201859052831660a082015260e060c082018190525f90615a3e908301846159c8565b9998505050505050505050565b634e487b7160e01b5f52600160045260245ffd5b5f6001600160401b0382166001600160401b038103615a8057615a8061511f565b60010192915050565b60ff83168152604060208201525f613f8960408301846159c8565b6001600160c01b038281168282160390811115610d1757610d1761511f565b5f5f85851115615ad1575f5ffd5b83861115615add575f5ffd5b5050820193919092039150565b80356bffffffffffffffffffffffff198116906014841015615b30576bffffffffffffffffffffffff196bffffffffffffffffffffffff198560140360031b1b82161691505b5092915050565b5f82518060208501845e5f920191825250919050565b5f6060828403128015615b5e575f5ffd5b50604051606081016001600160401b0381118282101715615b8157615b8161533f565b6040528251615b8f81614da3565b81526020830151615b9f816151f7565b60208201526040830151615bb28161594e565b60408201529392505050565b6001815b6001841115615bf957808504811115615bdd57615bdd61511f565b6001841615615beb57908102905b60019390931c928002615bc2565b935093915050565b5f82615c0f57506001610d17565b81615c1b57505f610d17565b8160018114615c315760028114615c3b57615c57565b6001915050610d17565b60ff841115615c4c57615c4c61511f565b50506001821b610d17565b5060208310610133831016604e8410600b8410161715615c7a575081810a610d17565b615c865f198484615bbe565b805f1904821115615c9957615c9961511f565b029392505050565b5f6131fc8383615c01565b610420810181845f5b6020811015615cd4578151835260209283019290910190600101615cb5565b505050826104008301529392505050565b8082028115828204841417610d1757610d1761511f565b6001600160a01b038b811682526001600160401b038b1660208301528981166040830152606082018990528781166080830152861660a082015260c0810185905261014060e082018190525f90615d55908301866159c8565b828103610100840152845180825260208087019201905f90815b81811015615da257845180516001600160a01b031685526020908101518186015290940193604090930192600101615d6f565b5050506001600160a01b0385166101208501529150615dbe9050565b9b9a5050505050505050505050565b5f5f60408385031215615dde575f5ffd5b615de7836159a0565b6020939093015192949293505050565b838152610440810161040084602084013782610420830152949350505050565b5f5f60408385031215615e28575f5ffd5b82516001600160401b03811115615e3d575f5ffd5b8301601f81018513615e4d575f5ffd5b8051615e5b615530826154dd565b8082825260208201915060208360061b850101925087831115615e7c575f5ffd5b6020840193505b82841015615ecc5760408489031215615e9a575f5ffd5b615ea2615353565b8451615ead81614da3565b8152602085810151818301529083526040909401939190910190615e83565b9450615ede9250505060208401615995565b9050925092905056fea164736f6c634300081c000a",
	"gitCommit": "npm:@bananapus/suckers-v6@0.0.78",
	"gitDirty": false,
	"history": []
}