{
	"format": "sphinx-sol-ct-artifact-1",
	"address": "0xc818f0d307f8f916a591f0f31008576d51066642",
	"sourceName": "node_modules/@bananapus/core-v6/src/JBTerminalStore.sol",
	"contractName": "JBTerminalStore",
	"chainId": "0x66eee",
	"abi": [
		{
			"type": "constructor",
			"inputs": [
				{
					"name": "directory",
					"type": "address",
					"internalType": "contract IJBDirectory"
				},
				{
					"name": "prices",
					"type": "address",
					"internalType": "contract IJBPrices"
				},
				{
					"name": "rulesets",
					"type": "address",
					"internalType": "contract IJBRulesets"
				}
			],
			"stateMutability": "nonpayable"
		},
		{
			"type": "function",
			"name": "DIRECTORY",
			"inputs": [],
			"outputs": [
				{
					"name": "",
					"type": "address",
					"internalType": "contract IJBDirectory"
				}
			],
			"stateMutability": "view"
		},
		{
			"type": "function",
			"name": "PRICES",
			"inputs": [],
			"outputs": [
				{
					"name": "",
					"type": "address",
					"internalType": "contract IJBPrices"
				}
			],
			"stateMutability": "view"
		},
		{
			"type": "function",
			"name": "RULESETS",
			"inputs": [],
			"outputs": [
				{
					"name": "",
					"type": "address",
					"internalType": "contract IJBRulesets"
				}
			],
			"stateMutability": "view"
		},
		{
			"type": "function",
			"name": "accountingContextOf",
			"inputs": [
				{
					"name": "terminal",
					"type": "address",
					"internalType": "address"
				},
				{
					"name": "projectId",
					"type": "uint256",
					"internalType": "uint256"
				},
				{
					"name": "token",
					"type": "address",
					"internalType": "address"
				}
			],
			"outputs": [
				{
					"name": "",
					"type": "tuple",
					"internalType": "struct JBAccountingContext",
					"components": [
						{
							"name": "token",
							"type": "address",
							"internalType": "address"
						},
						{
							"name": "decimals",
							"type": "uint8",
							"internalType": "uint8"
						},
						{
							"name": "currency",
							"type": "uint32",
							"internalType": "uint32"
						}
					]
				}
			],
			"stateMutability": "view"
		},
		{
			"type": "function",
			"name": "accountingContextsOf",
			"inputs": [
				{
					"name": "terminal",
					"type": "address",
					"internalType": "address"
				},
				{
					"name": "projectId",
					"type": "uint256",
					"internalType": "uint256"
				}
			],
			"outputs": [
				{
					"name": "",
					"type": "tuple[]",
					"internalType": "struct JBAccountingContext[]",
					"components": [
						{
							"name": "token",
							"type": "address",
							"internalType": "address"
						},
						{
							"name": "decimals",
							"type": "uint8",
							"internalType": "uint8"
						},
						{
							"name": "currency",
							"type": "uint32",
							"internalType": "uint32"
						}
					]
				}
			],
			"stateMutability": "view"
		},
		{
			"type": "function",
			"name": "balanceOf",
			"inputs": [
				{
					"name": "terminal",
					"type": "address",
					"internalType": "address"
				},
				{
					"name": "projectId",
					"type": "uint256",
					"internalType": "uint256"
				},
				{
					"name": "token",
					"type": "address",
					"internalType": "address"
				}
			],
			"outputs": [
				{
					"name": "",
					"type": "uint256",
					"internalType": "uint256"
				}
			],
			"stateMutability": "view"
		},
		{
			"type": "function",
			"name": "currentReclaimableSurplusOf",
			"inputs": [
				{
					"name": "projectId",
					"type": "uint256",
					"internalType": "uint256"
				},
				{
					"name": "cashOutCount",
					"type": "uint256",
					"internalType": "uint256"
				},
				{
					"name": "totalSupply",
					"type": "uint256",
					"internalType": "uint256"
				},
				{
					"name": "surplus",
					"type": "uint256",
					"internalType": "uint256"
				}
			],
			"outputs": [
				{
					"name": "",
					"type": "uint256",
					"internalType": "uint256"
				}
			],
			"stateMutability": "view"
		},
		{
			"type": "function",
			"name": "currentReclaimableSurplusOf",
			"inputs": [
				{
					"name": "projectId",
					"type": "uint256",
					"internalType": "uint256"
				},
				{
					"name": "cashOutCount",
					"type": "uint256",
					"internalType": "uint256"
				},
				{
					"name": "terminals",
					"type": "address[]",
					"internalType": "contract IJBTerminal[]"
				},
				{
					"name": "tokens",
					"type": "address[]",
					"internalType": "address[]"
				},
				{
					"name": "decimals",
					"type": "uint256",
					"internalType": "uint256"
				},
				{
					"name": "currency",
					"type": "uint256",
					"internalType": "uint256"
				}
			],
			"outputs": [
				{
					"name": "",
					"type": "uint256",
					"internalType": "uint256"
				}
			],
			"stateMutability": "view"
		},
		{
			"type": "function",
			"name": "currentSurplusOf",
			"inputs": [
				{
					"name": "projectId",
					"type": "uint256",
					"internalType": "uint256"
				},
				{
					"name": "terminals",
					"type": "address[]",
					"internalType": "contract IJBTerminal[]"
				},
				{
					"name": "tokens",
					"type": "address[]",
					"internalType": "address[]"
				},
				{
					"name": "decimals",
					"type": "uint256",
					"internalType": "uint256"
				},
				{
					"name": "currency",
					"type": "uint256",
					"internalType": "uint256"
				}
			],
			"outputs": [
				{
					"name": "",
					"type": "uint256",
					"internalType": "uint256"
				}
			],
			"stateMutability": "view"
		},
		{
			"type": "function",
			"name": "currentTotalReclaimableSurplusOf",
			"inputs": [
				{
					"name": "projectId",
					"type": "uint256",
					"internalType": "uint256"
				},
				{
					"name": "cashOutCount",
					"type": "uint256",
					"internalType": "uint256"
				},
				{
					"name": "decimals",
					"type": "uint256",
					"internalType": "uint256"
				},
				{
					"name": "currency",
					"type": "uint256",
					"internalType": "uint256"
				}
			],
			"outputs": [
				{
					"name": "",
					"type": "uint256",
					"internalType": "uint256"
				}
			],
			"stateMutability": "view"
		},
		{
			"type": "function",
			"name": "currentTotalSurplusOf",
			"inputs": [
				{
					"name": "projectId",
					"type": "uint256",
					"internalType": "uint256"
				},
				{
					"name": "decimals",
					"type": "uint256",
					"internalType": "uint256"
				},
				{
					"name": "currency",
					"type": "uint256",
					"internalType": "uint256"
				}
			],
			"outputs": [
				{
					"name": "",
					"type": "uint256",
					"internalType": "uint256"
				}
			],
			"stateMutability": "view"
		},
		{
			"type": "function",
			"name": "previewCashOutFrom",
			"inputs": [
				{
					"name": "terminal",
					"type": "address",
					"internalType": "address"
				},
				{
					"name": "holder",
					"type": "address",
					"internalType": "address"
				},
				{
					"name": "projectId",
					"type": "uint256",
					"internalType": "uint256"
				},
				{
					"name": "cashOutCount",
					"type": "uint256",
					"internalType": "uint256"
				},
				{
					"name": "tokenToReclaim",
					"type": "address",
					"internalType": "address"
				},
				{
					"name": "beneficiaryIsFeeless",
					"type": "bool",
					"internalType": "bool"
				},
				{
					"name": "metadata",
					"type": "bytes",
					"internalType": "bytes"
				}
			],
			"outputs": [
				{
					"name": "ruleset",
					"type": "tuple",
					"internalType": "struct JBRuleset",
					"components": [
						{
							"name": "cycleNumber",
							"type": "uint48",
							"internalType": "uint48"
						},
						{
							"name": "id",
							"type": "uint48",
							"internalType": "uint48"
						},
						{
							"name": "basedOnId",
							"type": "uint48",
							"internalType": "uint48"
						},
						{
							"name": "start",
							"type": "uint48",
							"internalType": "uint48"
						},
						{
							"name": "duration",
							"type": "uint32",
							"internalType": "uint32"
						},
						{
							"name": "weight",
							"type": "uint112",
							"internalType": "uint112"
						},
						{
							"name": "weightCutPercent",
							"type": "uint32",
							"internalType": "uint32"
						},
						{
							"name": "approvalHook",
							"type": "address",
							"internalType": "contract IJBRulesetApprovalHook"
						},
						{
							"name": "metadata",
							"type": "uint256",
							"internalType": "uint256"
						}
					]
				},
				{
					"name": "reclaimAmount",
					"type": "uint256",
					"internalType": "uint256"
				},
				{
					"name": "cashOutTaxRate",
					"type": "uint256",
					"internalType": "uint256"
				},
				{
					"name": "hookSpecifications",
					"type": "tuple[]",
					"internalType": "struct JBCashOutHookSpecification[]",
					"components": [
						{
							"name": "hook",
							"type": "address",
							"internalType": "contract IJBCashOutHook"
						},
						{
							"name": "noop",
							"type": "bool",
							"internalType": "bool"
						},
						{
							"name": "amount",
							"type": "uint256",
							"internalType": "uint256"
						},
						{
							"name": "metadata",
							"type": "bytes",
							"internalType": "bytes"
						}
					]
				}
			],
			"stateMutability": "view"
		},
		{
			"type": "function",
			"name": "previewPayFrom",
			"inputs": [
				{
					"name": "terminal",
					"type": "address",
					"internalType": "address"
				},
				{
					"name": "payer",
					"type": "address",
					"internalType": "address"
				},
				{
					"name": "amount",
					"type": "tuple",
					"internalType": "struct JBTokenAmount",
					"components": [
						{
							"name": "token",
							"type": "address",
							"internalType": "address"
						},
						{
							"name": "decimals",
							"type": "uint8",
							"internalType": "uint8"
						},
						{
							"name": "currency",
							"type": "uint32",
							"internalType": "uint32"
						},
						{
							"name": "value",
							"type": "uint256",
							"internalType": "uint256"
						}
					]
				},
				{
					"name": "projectId",
					"type": "uint256",
					"internalType": "uint256"
				},
				{
					"name": "beneficiary",
					"type": "address",
					"internalType": "address"
				},
				{
					"name": "metadata",
					"type": "bytes",
					"internalType": "bytes"
				}
			],
			"outputs": [
				{
					"name": "ruleset",
					"type": "tuple",
					"internalType": "struct JBRuleset",
					"components": [
						{
							"name": "cycleNumber",
							"type": "uint48",
							"internalType": "uint48"
						},
						{
							"name": "id",
							"type": "uint48",
							"internalType": "uint48"
						},
						{
							"name": "basedOnId",
							"type": "uint48",
							"internalType": "uint48"
						},
						{
							"name": "start",
							"type": "uint48",
							"internalType": "uint48"
						},
						{
							"name": "duration",
							"type": "uint32",
							"internalType": "uint32"
						},
						{
							"name": "weight",
							"type": "uint112",
							"internalType": "uint112"
						},
						{
							"name": "weightCutPercent",
							"type": "uint32",
							"internalType": "uint32"
						},
						{
							"name": "approvalHook",
							"type": "address",
							"internalType": "contract IJBRulesetApprovalHook"
						},
						{
							"name": "metadata",
							"type": "uint256",
							"internalType": "uint256"
						}
					]
				},
				{
					"name": "tokenCount",
					"type": "uint256",
					"internalType": "uint256"
				},
				{
					"name": "hookSpecifications",
					"type": "tuple[]",
					"internalType": "struct JBPayHookSpecification[]",
					"components": [
						{
							"name": "hook",
							"type": "address",
							"internalType": "contract IJBPayHook"
						},
						{
							"name": "noop",
							"type": "bool",
							"internalType": "bool"
						},
						{
							"name": "amount",
							"type": "uint256",
							"internalType": "uint256"
						},
						{
							"name": "metadata",
							"type": "bytes",
							"internalType": "bytes"
						}
					]
				}
			],
			"stateMutability": "view"
		},
		{
			"type": "function",
			"name": "recordAccountingContextOf",
			"inputs": [
				{
					"name": "projectId",
					"type": "uint256",
					"internalType": "uint256"
				},
				{
					"name": "contexts",
					"type": "tuple[]",
					"internalType": "struct JBAccountingContext[]",
					"components": [
						{
							"name": "token",
							"type": "address",
							"internalType": "address"
						},
						{
							"name": "decimals",
							"type": "uint8",
							"internalType": "uint8"
						},
						{
							"name": "currency",
							"type": "uint32",
							"internalType": "uint32"
						}
					]
				}
			],
			"outputs": [],
			"stateMutability": "nonpayable"
		},
		{
			"type": "function",
			"name": "recordAddedBalanceFor",
			"inputs": [
				{
					"name": "projectId",
					"type": "uint256",
					"internalType": "uint256"
				},
				{
					"name": "token",
					"type": "address",
					"internalType": "address"
				},
				{
					"name": "amount",
					"type": "uint256",
					"internalType": "uint256"
				}
			],
			"outputs": [],
			"stateMutability": "nonpayable"
		},
		{
			"type": "function",
			"name": "recordCashOutFor",
			"inputs": [
				{
					"name": "holder",
					"type": "address",
					"internalType": "address"
				},
				{
					"name": "projectId",
					"type": "uint256",
					"internalType": "uint256"
				},
				{
					"name": "cashOutCount",
					"type": "uint256",
					"internalType": "uint256"
				},
				{
					"name": "tokenToReclaim",
					"type": "address",
					"internalType": "address"
				},
				{
					"name": "beneficiaryIsFeeless",
					"type": "bool",
					"internalType": "bool"
				},
				{
					"name": "metadata",
					"type": "bytes",
					"internalType": "bytes"
				}
			],
			"outputs": [
				{
					"name": "ruleset",
					"type": "tuple",
					"internalType": "struct JBRuleset",
					"components": [
						{
							"name": "cycleNumber",
							"type": "uint48",
							"internalType": "uint48"
						},
						{
							"name": "id",
							"type": "uint48",
							"internalType": "uint48"
						},
						{
							"name": "basedOnId",
							"type": "uint48",
							"internalType": "uint48"
						},
						{
							"name": "start",
							"type": "uint48",
							"internalType": "uint48"
						},
						{
							"name": "duration",
							"type": "uint32",
							"internalType": "uint32"
						},
						{
							"name": "weight",
							"type": "uint112",
							"internalType": "uint112"
						},
						{
							"name": "weightCutPercent",
							"type": "uint32",
							"internalType": "uint32"
						},
						{
							"name": "approvalHook",
							"type": "address",
							"internalType": "contract IJBRulesetApprovalHook"
						},
						{
							"name": "metadata",
							"type": "uint256",
							"internalType": "uint256"
						}
					]
				},
				{
					"name": "reclaimAmount",
					"type": "uint256",
					"internalType": "uint256"
				},
				{
					"name": "cashOutTaxRate",
					"type": "uint256",
					"internalType": "uint256"
				},
				{
					"name": "hookSpecifications",
					"type": "tuple[]",
					"internalType": "struct JBCashOutHookSpecification[]",
					"components": [
						{
							"name": "hook",
							"type": "address",
							"internalType": "contract IJBCashOutHook"
						},
						{
							"name": "noop",
							"type": "bool",
							"internalType": "bool"
						},
						{
							"name": "amount",
							"type": "uint256",
							"internalType": "uint256"
						},
						{
							"name": "metadata",
							"type": "bytes",
							"internalType": "bytes"
						}
					]
				}
			],
			"stateMutability": "nonpayable"
		},
		{
			"type": "function",
			"name": "recordPaymentFrom",
			"inputs": [
				{
					"name": "payer",
					"type": "address",
					"internalType": "address"
				},
				{
					"name": "amount",
					"type": "tuple",
					"internalType": "struct JBTokenAmount",
					"components": [
						{
							"name": "token",
							"type": "address",
							"internalType": "address"
						},
						{
							"name": "decimals",
							"type": "uint8",
							"internalType": "uint8"
						},
						{
							"name": "currency",
							"type": "uint32",
							"internalType": "uint32"
						},
						{
							"name": "value",
							"type": "uint256",
							"internalType": "uint256"
						}
					]
				},
				{
					"name": "projectId",
					"type": "uint256",
					"internalType": "uint256"
				},
				{
					"name": "beneficiary",
					"type": "address",
					"internalType": "address"
				},
				{
					"name": "metadata",
					"type": "bytes",
					"internalType": "bytes"
				}
			],
			"outputs": [
				{
					"name": "ruleset",
					"type": "tuple",
					"internalType": "struct JBRuleset",
					"components": [
						{
							"name": "cycleNumber",
							"type": "uint48",
							"internalType": "uint48"
						},
						{
							"name": "id",
							"type": "uint48",
							"internalType": "uint48"
						},
						{
							"name": "basedOnId",
							"type": "uint48",
							"internalType": "uint48"
						},
						{
							"name": "start",
							"type": "uint48",
							"internalType": "uint48"
						},
						{
							"name": "duration",
							"type": "uint32",
							"internalType": "uint32"
						},
						{
							"name": "weight",
							"type": "uint112",
							"internalType": "uint112"
						},
						{
							"name": "weightCutPercent",
							"type": "uint32",
							"internalType": "uint32"
						},
						{
							"name": "approvalHook",
							"type": "address",
							"internalType": "contract IJBRulesetApprovalHook"
						},
						{
							"name": "metadata",
							"type": "uint256",
							"internalType": "uint256"
						}
					]
				},
				{
					"name": "tokenCount",
					"type": "uint256",
					"internalType": "uint256"
				},
				{
					"name": "hookSpecifications",
					"type": "tuple[]",
					"internalType": "struct JBPayHookSpecification[]",
					"components": [
						{
							"name": "hook",
							"type": "address",
							"internalType": "contract IJBPayHook"
						},
						{
							"name": "noop",
							"type": "bool",
							"internalType": "bool"
						},
						{
							"name": "amount",
							"type": "uint256",
							"internalType": "uint256"
						},
						{
							"name": "metadata",
							"type": "bytes",
							"internalType": "bytes"
						}
					]
				}
			],
			"stateMutability": "nonpayable"
		},
		{
			"type": "function",
			"name": "recordPayoutFor",
			"inputs": [
				{
					"name": "projectId",
					"type": "uint256",
					"internalType": "uint256"
				},
				{
					"name": "token",
					"type": "address",
					"internalType": "address"
				},
				{
					"name": "amount",
					"type": "uint256",
					"internalType": "uint256"
				},
				{
					"name": "currency",
					"type": "uint256",
					"internalType": "uint256"
				}
			],
			"outputs": [
				{
					"name": "ruleset",
					"type": "tuple",
					"internalType": "struct JBRuleset",
					"components": [
						{
							"name": "cycleNumber",
							"type": "uint48",
							"internalType": "uint48"
						},
						{
							"name": "id",
							"type": "uint48",
							"internalType": "uint48"
						},
						{
							"name": "basedOnId",
							"type": "uint48",
							"internalType": "uint48"
						},
						{
							"name": "start",
							"type": "uint48",
							"internalType": "uint48"
						},
						{
							"name": "duration",
							"type": "uint32",
							"internalType": "uint32"
						},
						{
							"name": "weight",
							"type": "uint112",
							"internalType": "uint112"
						},
						{
							"name": "weightCutPercent",
							"type": "uint32",
							"internalType": "uint32"
						},
						{
							"name": "approvalHook",
							"type": "address",
							"internalType": "contract IJBRulesetApprovalHook"
						},
						{
							"name": "metadata",
							"type": "uint256",
							"internalType": "uint256"
						}
					]
				},
				{
					"name": "amountPaidOut",
					"type": "uint256",
					"internalType": "uint256"
				}
			],
			"stateMutability": "nonpayable"
		},
		{
			"type": "function",
			"name": "recordTerminalMigration",
			"inputs": [
				{
					"name": "projectId",
					"type": "uint256",
					"internalType": "uint256"
				},
				{
					"name": "token",
					"type": "address",
					"internalType": "address"
				}
			],
			"outputs": [
				{
					"name": "balance",
					"type": "uint256",
					"internalType": "uint256"
				}
			],
			"stateMutability": "nonpayable"
		},
		{
			"type": "function",
			"name": "recordUsedAllowanceOf",
			"inputs": [
				{
					"name": "projectId",
					"type": "uint256",
					"internalType": "uint256"
				},
				{
					"name": "token",
					"type": "address",
					"internalType": "address"
				},
				{
					"name": "amount",
					"type": "uint256",
					"internalType": "uint256"
				},
				{
					"name": "currency",
					"type": "uint256",
					"internalType": "uint256"
				}
			],
			"outputs": [
				{
					"name": "ruleset",
					"type": "tuple",
					"internalType": "struct JBRuleset",
					"components": [
						{
							"name": "cycleNumber",
							"type": "uint48",
							"internalType": "uint48"
						},
						{
							"name": "id",
							"type": "uint48",
							"internalType": "uint48"
						},
						{
							"name": "basedOnId",
							"type": "uint48",
							"internalType": "uint48"
						},
						{
							"name": "start",
							"type": "uint48",
							"internalType": "uint48"
						},
						{
							"name": "duration",
							"type": "uint32",
							"internalType": "uint32"
						},
						{
							"name": "weight",
							"type": "uint112",
							"internalType": "uint112"
						},
						{
							"name": "weightCutPercent",
							"type": "uint32",
							"internalType": "uint32"
						},
						{
							"name": "approvalHook",
							"type": "address",
							"internalType": "contract IJBRulesetApprovalHook"
						},
						{
							"name": "metadata",
							"type": "uint256",
							"internalType": "uint256"
						}
					]
				},
				{
					"name": "usedAmount",
					"type": "uint256",
					"internalType": "uint256"
				}
			],
			"stateMutability": "nonpayable"
		},
		{
			"type": "function",
			"name": "usedPayoutLimitOf",
			"inputs": [
				{
					"name": "terminal",
					"type": "address",
					"internalType": "address"
				},
				{
					"name": "projectId",
					"type": "uint256",
					"internalType": "uint256"
				},
				{
					"name": "token",
					"type": "address",
					"internalType": "address"
				},
				{
					"name": "rulesetCycleNumber",
					"type": "uint256",
					"internalType": "uint256"
				},
				{
					"name": "currency",
					"type": "uint256",
					"internalType": "uint256"
				}
			],
			"outputs": [
				{
					"name": "",
					"type": "uint256",
					"internalType": "uint256"
				}
			],
			"stateMutability": "view"
		},
		{
			"type": "function",
			"name": "usedSurplusAllowanceOf",
			"inputs": [
				{
					"name": "terminal",
					"type": "address",
					"internalType": "address"
				},
				{
					"name": "projectId",
					"type": "uint256",
					"internalType": "uint256"
				},
				{
					"name": "token",
					"type": "address",
					"internalType": "address"
				},
				{
					"name": "rulesetId",
					"type": "uint256",
					"internalType": "uint256"
				},
				{
					"name": "currency",
					"type": "uint256",
					"internalType": "uint256"
				}
			],
			"outputs": [
				{
					"name": "",
					"type": "uint256",
					"internalType": "uint256"
				}
			],
			"stateMutability": "view"
		},
		{
			"type": "error",
			"name": "JBTerminalStore_AccountingContextAlreadySet",
			"inputs": [
				{
					"name": "token",
					"type": "address",
					"internalType": "address"
				}
			]
		},
		{
			"type": "error",
			"name": "JBTerminalStore_AccountingContextDecimalsMismatch",
			"inputs": [
				{
					"name": "token",
					"type": "address",
					"internalType": "address"
				},
				{
					"name": "providedDecimals",
					"type": "uint256",
					"internalType": "uint256"
				},
				{
					"name": "expectedDecimals",
					"type": "uint256",
					"internalType": "uint256"
				}
			]
		},
		{
			"type": "error",
			"name": "JBTerminalStore_AccountingContextDecimalsOutOfRange",
			"inputs": [
				{
					"name": "token",
					"type": "address",
					"internalType": "address"
				},
				{
					"name": "decimals",
					"type": "uint256",
					"internalType": "uint256"
				}
			]
		},
		{
			"type": "error",
			"name": "JBTerminalStore_AddingAccountingContextNotAllowed",
			"inputs": [
				{
					"name": "projectId",
					"type": "uint256",
					"internalType": "uint256"
				},
				{
					"name": "rulesetId",
					"type": "uint256",
					"internalType": "uint256"
				},
				{
					"name": "terminal",
					"type": "address",
					"internalType": "address"
				}
			]
		},
		{
			"type": "error",
			"name": "JBTerminalStore_InadequateControllerAllowance",
			"inputs": [
				{
					"name": "amount",
					"type": "uint256",
					"internalType": "uint256"
				},
				{
					"name": "allowance",
					"type": "uint256",
					"internalType": "uint256"
				}
			]
		},
		{
			"type": "error",
			"name": "JBTerminalStore_InadequateTerminalStoreBalance",
			"inputs": [
				{
					"name": "amount",
					"type": "uint256",
					"internalType": "uint256"
				},
				{
					"name": "balance",
					"type": "uint256",
					"internalType": "uint256"
				}
			]
		},
		{
			"type": "error",
			"name": "JBTerminalStore_InsufficientTokens",
			"inputs": [
				{
					"name": "count",
					"type": "uint256",
					"internalType": "uint256"
				},
				{
					"name": "totalSupply",
					"type": "uint256",
					"internalType": "uint256"
				}
			]
		},
		{
			"type": "error",
			"name": "JBTerminalStore_InvalidAmountToForwardHook",
			"inputs": [
				{
					"name": "amount",
					"type": "uint256",
					"internalType": "uint256"
				},
				{
					"name": "paidAmount",
					"type": "uint256",
					"internalType": "uint256"
				}
			]
		},
		{
			"type": "error",
			"name": "JBTerminalStore_NoopHookSpecHasAmount",
			"inputs": [
				{
					"name": "amount",
					"type": "uint256",
					"internalType": "uint256"
				}
			]
		},
		{
			"type": "error",
			"name": "JBTerminalStore_RulesetNotFound",
			"inputs": [
				{
					"name": "projectId",
					"type": "uint256",
					"internalType": "uint256"
				}
			]
		},
		{
			"type": "error",
			"name": "JBTerminalStore_RulesetPaymentPaused",
			"inputs": [
				{
					"name": "projectId",
					"type": "uint256",
					"internalType": "uint256"
				},
				{
					"name": "rulesetId",
					"type": "uint256",
					"internalType": "uint256"
				}
			]
		},
		{
			"type": "error",
			"name": "JBTerminalStore_TerminalMigrationNotAllowed",
			"inputs": [
				{
					"name": "projectId",
					"type": "uint256",
					"internalType": "uint256"
				},
				{
					"name": "rulesetId",
					"type": "uint256",
					"internalType": "uint256"
				}
			]
		},
		{
			"type": "error",
			"name": "JBTerminalStore_Uint224Overflow",
			"inputs": [
				{
					"name": "value",
					"type": "uint256",
					"internalType": "uint256"
				}
			]
		},
		{
			"type": "error",
			"name": "JBTerminalStore_ZeroAccountingContextCurrency",
			"inputs": [
				{
					"name": "token",
					"type": "address",
					"internalType": "address"
				}
			]
		},
		{
			"type": "error",
			"name": "PRBMath_MulDiv_Overflow",
			"inputs": [
				{
					"name": "x",
					"type": "uint256",
					"internalType": "uint256"
				},
				{
					"name": "y",
					"type": "uint256",
					"internalType": "uint256"
				},
				{
					"name": "denominator",
					"type": "uint256",
					"internalType": "uint256"
				}
			]
		}
	],
	"args": [
		"0x255c5901827dB2d5b982BF8c25090809c36aBA18",
		"0x9dAe07bBF1602a1f79A95eFed65A56176df25586",
		"0x157861609c8227685FF5e90f9f4FBd5BB818E3c5"
	],
	"solcInputHash": "097f3b81296501a9d893eb5a5b1902ba",
	"bytecode": "0x60e060405234801561000f575f5ffd5b5060405161498438038061498483398101604081905261002e91610062565b6001600160a01b0392831660805290821660a0521660c0526100ac565b6001600160a01b038116811461005f575f5ffd5b50565b5f5f5f60608486031215610074575f5ffd5b835161007f8161004b565b60208501519093506100908161004b565b60408501519092506100a18161004b565b809150509250925092565b60805160a05160c05161481b6101695f395f81816103b00152818161042d0152818161061401528181610c120152818161111f015281816114940152818161172e01528181611c3b01528181611cda015261277d01525f818161017f01528181610eda015281816117f30152818161231c015281816126720152612b2301525f81816102ba01528181610ca10152818161153a0152818161198601528181611de501528181611e990152818161237d0152612c3c015261481b5ff3fe608060405234801561000f575f5ffd5b506004361061013d575f3560e01c806396331d91116100b4578063c59dfadb11610079578063c59dfadb14610376578063c725eb4a14610398578063d4a1b4b1146103ab578063d718e6a1146103d2578063db6d7e03146103e5578063f7374668146103f8575f5ffd5b806396331d91146102dc5780639e0a5d59146102fc578063ab5f3a011461030f578063ae4a0d5d14610322578063b7cc53b314610335575f5ffd5b806344f9c5091161010557806344f9c509146101f1578063467f4cb91461021157806351fc173514610240578063568ecef114610253578063777aa5bf1461029457806388bc2ef3146102b5575f5ffd5b806319781e23146101415780631a58cbdb146101675780631eabcd341461017a57806336ba6275146101b9578063446b8a91146101dc575b5f5ffd5b61015461014f36600461327a565b61040b565b6040519081526020015b60405180910390f35b6101546101753660046132ef565b610519565b6101a17f000000000000000000000000000000000000000000000000000000000000000081565b6040516001600160a01b03909116815260200161015e565b6101cc6101c73660046133be565b610596565b60405161015e949392919061354a565b6101ef6101ea366004613607565b6105fc565b005b6102046101ff36600461367f565b610aa9565b60405161015e91906136be565b61015461021f36600461367f565b5f602081815293815260408082208552928152828120909352825290205481565b6101ef61024e3660046136f1565b610b2e565b610154610261366004613726565b600260209081525f9586526040808720825294865284862081529285528385208352908452828420909152825290205481565b6102a76102a2366004613774565b610b97565b60405161015e9291906137ae565b6101a17f000000000000000000000000000000000000000000000000000000000000000081565b6102ef6102ea3660046137cb565b611044565b60405161015e91906137f5565b61015461030a366004613868565b6110e9565b61015461031d366004613897565b6111bd565b6101cc610330366004613997565b6111e0565b610154610343366004613726565b600160209081525f9586526040808720825294865284862081529285528385208352908452828420909152825290205481565b610389610384366004613a58565b611340565b60405161015e93929190613ae1565b6101546103a6366004613868565b611443565b6101a17f000000000000000000000000000000000000000000000000000000000000000081565b6101546103e0366004613c26565b611472565b6103896103f3366004613d8a565b611651565b6102a7610406366004613774565b6116b3565b6040516321d1336160e11b8152600481018390525f9081906001600160a01b037f000000000000000000000000000000000000000000000000000000000000000016906343a266c29060240161012060405180830381865afa158015610473573d5f5f3e3d5ffd5b505050506040513d601f19601f820116820180604052508101906104979190613e62565b61010081015190915060481c6001908116146104e2576020810151604051636455554d60e01b81526004810186905265ffffffffffff90911660248201526044015b60405180910390fd5b5050335f908152602081815260408083209483529381528382206001600160a01b0393909316825291909152908120805491905590565b5f61058a888888808060200260200160405190810160405280939291908181526020018383602002808284375f9201919091525050604080516020808c0282810182019093528b82529093508b92508a9182918501908490808284375f92019190915250899250889150611c309050565b98975050505050505050565b61059e61317a565b5f5f60606105e68c8c8c8c8c8c8c8c8080601f0160208091040260200160405190810160405280939291908181526020018383808284375f92019190915250611ccc92505050565b929f919e509c50909a5098505050505050505050565b6040516321d1336160e11b8152600481018490525f907f00000000000000000000000000000000000000000000000000000000000000006001600160a01b0316906343a266c29060240161012060405180830381865afa158015610662573d5f5f3e3d5ffd5b505050506040513d601f19601f820116820180604052508101906106869190613e62565b9050806020015165ffffffffffff165f141580156106b05750610100810151604b1c600190811614155b156106eb57602081015160405163141c903960e11b81526004810186905265ffffffffffff90911660248201523360448201526064016104d9565b5f5b82811015610aa2573684848381811061070857610708613f13565b335f9081526003602090815260408083208c845282528220606090930294909401945092909150829061073d90850185613f27565b6001600160a01b03908116825260208201929092526040015f205416146107905761076b6020820182613f27565b604051635a68f0cb60e11b81526001600160a01b0390911660048201526024016104d9565b60246107a26040830160208401613f42565b60ff1611156107f5576107b86020820182613f27565b6107c86040830160208401613f42565b6040516355bd830160e11b81526001600160a01b03909216600483015260ff1660248201526044016104d9565b5f8061eeee6108076020850185613f27565b6001600160a01b031614801561083057506108286040840160208501613f42565b60ff16601214155b15610841575060019050601261096f565b61eeee6108516020850185613f27565b6001600160a01b03161415801561087d57505f6108716020850185613f27565b6001600160a01b03163b115b1561096f5761088f6020840184613f27565b6001600160a01b031663313ce5676040518163ffffffff1660e01b8152600401602060405180830381865afa9250505080156108e8575060408051601f3d908101601f191682019092526108e591810190613f5d565b60015b610909575f91506108ff6040840160208501613f42565b60ff16905061090f565b60ff1690505b6024811115610951576109256020840184613f27565b6040516355bd830160e11b81526001600160a01b039091166004820152602481018290526044016104d9565b806109626040850160208601613f42565b60ff161461096f57600191505b81156109c6576109826020840184613f27565b6109926040850160208601613f42565b6040516303a9c13960e61b81526001600160a01b03909216600483015260ff166024820152604481018290526064016104d9565b6109d66060840160408501613f78565b63ffffffff165f03610a14576109ef6020840184613f27565b60405163217d453b60e11b81526001600160a01b0390911660048201526024016104d9565b335f9081526003602090815260408083208b84528252822085929091610a3c90840184613f27565b6001600160a01b0316815260208101919091526040015f20610a5e8282613f93565b5050335f9081526004602090815260408083208b84528252822080546001810182559083529120849101610a928282613f93565b50508360010193505050506106ed565b5050505050565b604080516060810182525f8082526020820181905291810191909152506001600160a01b038381165f90815260036020908152604080832086845282528083208585168452825291829020825160608101845290549384168152600160a01b840460ff1691810191909152600160a81b90920463ffffffff16908201525b9392505050565b335f9081526020818152604080832086845282528083206001600160a01b0386168452909152902054610b62908290614032565b335f908152602081815260408083209683529581528582206001600160a01b0395909516825293909352929091209190915550565b610b9f61317a565b335f90815260036020908152604080832088845282528083206001600160a01b038881168552908352818420825160608101845290548083168252600160a01b810460ff1694820194909452600160a81b90930463ffffffff168383015290516321d1336160e11b8152600481018990527f0000000000000000000000000000000000000000000000000000000000000000909116906343a266c29060240161012060405180830381865afa158015610c5a573d5f5f3e3d5ffd5b505050506040513d601f19601f82011682018060405250810190610c7e9190613e62565b604051632eec7b5560e11b8152600481018990529093505f906001600160a01b037f00000000000000000000000000000000000000000000000000000000000000001690635dd8f6aa90602401602060405180830381865afa158015610ce6573d5f5f3e3d5ffd5b505050506040513d601f19601f82011682018060405250810190610d0a9190614045565b6001600160a01b031663ffa082446040518163ffffffff1660e01b8152600401602060405180830381865afa158015610d45573d5f5f3e3d5ffd5b505050506040513d601f19601f82011682018060405250810190610d699190614045565b6020850151604051638ca53ccd60e01b8152600481018b905265ffffffffffff90911660248201523360448201526001600160a01b038981166064830152608482018890529190911690638ca53ccd9060a401602060405180830381865afa158015610dd7573d5f5f3e3d5ffd5b505050506040513d601f19601f82011682018060405250810190610dfb9190614060565b335f9081526001602090815260408083208c845282528083206001600160a01b038c1684528252808320885165ffffffffffff1684528252808320898452909152812054919250818311610e4f575f610e59565b610e598284614077565b905080881115610e67578097505b875f03610e7b57505f935061103b92505050565b836040015163ffffffff168714610f4e57610f4988610e9c6012600a61416d565b6040808801519051631df139fd60e11b8152600481018f9052602481018c905263ffffffff9091166044820152601260648201526001600160a01b037f00000000000000000000000000000000000000000000000000000000000000001690633be273fa906084015b602060405180830381865afa158015610f20573d5f5f3e3d5ffd5b505050506040513d601f19601f82011682018060405250810190610f449190614060565b61211f565b610f50565b875b9450845f03610f6657505f935061103b92505050565b335f908152602081815260408083208d845282528083206001600160a01b038d16845290915290205480861115610fba57604051634fd2cdcd60e11b815260048101879052602481018290526044016104d9565b335f908152602081815260408083208e845282528083206001600160a01b038e16845290915290208682039055610ff18984614032565b335f9081526001602090815260408083208f845282528083206001600160a01b038f16845282528083208b5165ffffffffffff16845282528083208c845290915290205550505050505b94509492505050565b6001600160a01b0382165f9081526004602090815260408083208484528252808320805482518185028101850190935280835260609492939192909184015b828210156110dc575f84815260209081902060408051606081018252918501546001600160a01b0381168352600160a01b810460ff1683850152600160a81b900463ffffffff1690820152825260019092019101611083565b5050505090505b92915050565b5f815f036110f857505f6111b5565b8284111561110757505f6111b5565b6040516321d1336160e11b8152600481018690525f907f00000000000000000000000000000000000000000000000000000000000000006001600160a01b0316906343a266c29060240161012060405180830381865afa15801561116d573d5f5f3e3d5ffd5b505050506040513d601f19601f820116820180604052508101906111919190613e62565b90506111b18386866111a885610100015160141c90565b61ffff166121ee565b9150505b949350505050565b604080515f80825260208201818152828401909352916111b59186918686611c30565b6111e861317a565b5f5f60606111fb338b8b8b8b8b8b611ccc565b80519397509195509350915083901561125b5781515f5b81811015611258575f84828151811061122d5761122d613f13565b6020026020010151604001519050805f1461124f5761124c8185614032565b93505b50600101611212565b50505b335f8181526003602090815260408083208e845282528083206001600160a01b038d81168552908352818420825160608101845290549182168152600160a01b820460ff16938101849052600160a81b90910463ffffffff16918101829052936112cd9290918f9186918c9190612265565b9050808311156112fa57604051634fd2cdcd60e11b815260048101849052602481018290526044016104d9565b821561133057335f908152602081815260408083208f845282528083206001600160a01b038e1684529091529020805484900390555b5050509650965096509692505050565b61134861317a565b5f60608161139d338b611360368d90038d018d614178565b8b8b8b8b8080601f0160208091040260200160405190810160405280939291908181526020018383808284375f9201919091525061276f92505050565b92965090945092509050801561143657335f908152602081815260408083208b8452825282209082906113d2908d018d613f27565b6001600160a01b0316815260208101919091526040015f205490506113f78282614032565b335f908152602081815260408083208d845282528220919061141b908e018e613f27565b6001600160a01b0316815260208101919091526040015f2055505b5096509650969350505050565b604080515f80825260208201818152828401909352916114699187918791908787611472565b95945050505050565b6040516321d1336160e11b8152600481018790525f9081906001600160a01b037f000000000000000000000000000000000000000000000000000000000000000016906343a266c29060240161012060405180830381865afa1580156114da573d5f5f3e3d5ffd5b505050506040513d601f19601f820116820180604052508101906114fe9190613e62565b90505f61150f898888888887612c1c565b9050805f03611522575f92505050611647565b604051632eec7b5560e11b8152600481018a90525f907f00000000000000000000000000000000000000000000000000000000000000006001600160a01b031690635dd8f6aa90602401602060405180830381865afa158015611587573d5f5f3e3d5ffd5b505050506040513d601f19601f820116820180604052508101906115ab9190614045565b6001600160a01b0316634da781a98b6040518263ffffffff1660e01b81526004016115d891815260200190565b602060405180830381865afa1580156115f3573d5f5f3e3d5ffd5b505050506040513d601f19601f820116820180604052508101906116179190614060565b90508089111561162c575f9350505050611647565b611641828a836111a887610100015160141c90565b93505050505b9695505050505050565b61165961317a565b5f606061169f8a8a8a8a8a8a8a8080601f0160208091040260200160405190810160405280939291908181526020018383808284375f9201919091525061276f92505050565b50919c909b50909950975050505050505050565b6116bb61317a565b335f90815260036020908152604080832088845282528083206001600160a01b038881168552908352818420825160608101845290548083168252600160a01b810460ff1694820194909452600160a81b90930463ffffffff168383015290516321d1336160e11b8152600481018990527f0000000000000000000000000000000000000000000000000000000000000000909116906343a266c29060240161012060405180830381865afa158015611776573d5f5f3e3d5ffd5b505050506040513d601f19601f8201168201806040525081019061179a9190613e62565b9250806040015163ffffffff16841461182f5761182a856117bd6012600a61416d565b6040848101519051631df139fd60e11b8152600481018c90526024810189905263ffffffff9091166044820152601260648201527f00000000000000000000000000000000000000000000000000000000000000006001600160a01b031690633be273fa90608401610f05565b611831565b845b9150841580159061184c5750806040015163ffffffff168414155b8015611856575081155b1561186457505f905061103b565b6040805160018082528183019092525f91816020015b604080516060810182525f80825260208083018290529282015282525f1990920191018161187a57905050905081815f815181106118ba576118ba613f13565b60200260200101819052505f6118e5338a8488876020015160ff16886040015163ffffffff16612ee6565b90508084111561191257604051634fd2cdcd60e11b815260048101859052602481018290526044016104d9565b335f9081526002602090815260408083208c845282528083206001600160a01b038c16845282528083208883015165ffffffffffff1684528252808320898452909152812054611963908990614032565b604051632eec7b5560e11b8152600481018c90529091505f906001600160a01b037f00000000000000000000000000000000000000000000000000000000000000001690635dd8f6aa90602401602060405180830381865afa1580156119cb573d5f5f3e3d5ffd5b505050506040513d601f19601f820116820180604052508101906119ef9190614045565b6001600160a01b031663ffa082446040518163ffffffff1660e01b8152600401602060405180830381865afa158015611a2a573d5f5f3e3d5ffd5b505050506040513d601f19601f82011682018060405250810190611a4e9190614045565b60208801516040516329ed16cd60e01b8152600481018e905265ffffffffffff90911660248201523360448201526001600160a01b038c81166064830152608482018b905291909116906329ed16cd9060a401602060405180830381865afa158015611abc573d5f5f3e3d5ffd5b505050506040513d601f19601f82011682018060405250810190611ae09190614060565b905080821180611aee575080155b15611b1657604051631913147f60e01b815260048101839052602481018290526044016104d9565b335f908152602081815260408083208e845282528083206001600160a01b038e168452909152902054611b498782614077565b5f5f336001600160a01b03166001600160a01b031681526020019081526020015f205f8e81526020019081526020015f205f8d6001600160a01b03166001600160a01b031681526020019081526020015f20819055508260025f336001600160a01b03166001600160a01b031681526020019081526020015f205f8e81526020019081526020015f205f8d6001600160a01b03166001600160a01b031681526020019081526020015f205f8a6020015165ffffffffffff1681526020019081526020015f205f8b81526020019081526020015f208190555050505050505094509492505050565b5f61164786868686867f00000000000000000000000000000000000000000000000000000000000000006001600160a01b03166343a266c28d6040518263ffffffff1660e01b8152600401611c8791815260200190565b61012060405180830381865afa158015611ca3573d5f5f3e3d5ffd5b505050506040513d601f19601f82011682018060405250810190611cc79190613e62565b612c1c565b611cd461317a565b5f5f60607f00000000000000000000000000000000000000000000000000000000000000006001600160a01b03166343a266c28a6040518263ffffffff1660e01b8152600401611d2691815260200190565b61012060405180830381865afa158015611d42573d5f5f3e3d5ffd5b505050506040513d601f19601f82011682018060405250810190611d669190613e62565b6001600160a01b038c81165f9081526003602090815260408083208e845282528083208c851684528252808320815160608101835290548086168252600160a01b810460ff1693820193909352600160a81b90920463ffffffff16828201525163d175415360e01b8152600481018e9052939750929091611e76918d917f0000000000000000000000000000000000000000000000000000000000000000169063d1754153906024015f60405180830381865afa158015611e29573d5f5f3e3d5ffd5b505050506040513d5f823e601f3d908101601f19168201604052611e509190810190614192565b604080515f81526020808201835287015191870151909160ff169063ffffffff16612f3a565b604051632eec7b5560e11b8152600481018d90529091505f906001600160a01b037f00000000000000000000000000000000000000000000000000000000000000001690635dd8f6aa90602401602060405180830381865afa158015611ede573d5f5f3e3d5ffd5b505050506040513d601f19601f82011682018060405250810190611f029190614045565b6001600160a01b0316634da781a98d6040518263ffffffff1660e01b8152600401611f2f91815260200190565b602060405180830381865afa158015611f4a573d5f5f3e3d5ffd5b505050506040513d601f19601f82011682018060405250810190611f6e9190614060565b9050808b1115611f9b576040516376fd574b60e11b8152600481018c9052602481018290526044016104d9565b61010087015160511c6001908116148015611fcd57505f611fc188610100015160521c90565b6001600160a01b031614155b156120ea57611fda6131c5565b8e815f01906001600160a01b031690816001600160a01b0316815250508d81602001906001600160a01b031690816001600160a01b0316815250508c816040018181525050876020015165ffffffffffff168160600181815250508b816080018181525050818160a00181815250506040518060800160405280855f01516001600160a01b03168152602001856020015160ff168152602001856040015163ffffffff168152602001848152508160c001819052506120a68861010001516001604f9190911c81161490565b151560e082015261010088015160141c61ffff1661010082015289151561012082015261014081018990526120dc888285612ff1565b9198509650945061210e9050565b61010087015160141c61ffff169450811561210e5761210b828c83886121ee565b95505b505050975097509750979350505050565b5f80805f19858709858702925082811083820303915050805f036121565783828161214c5761214c614221565b0492505050610b27565b83811061218757604051630c740aef60e31b81526004810187905260248101869052604481018590526064016104d9565b5f8486880960026001871981018816978890046003810283188082028403028082028403028082028403028082028403028082028403029081029092039091025f889003889004909101858311909403939093029303949094049190911702949350505050565b5f835f036121fd57505f6111b5565b61270f19820161220e57505f6111b5565b82841061221c5750836111b5565b5f61222886868661211f565b9050825f036122385790506111b5565b6111b18161224785888861211f565b61225386612710614077565b61225d9190614032565b61271061211f565b6001600160a01b038087165f90815260208181526040808320898452825280832088519094168352928152919020549085015160ff1683146122b8576122b381866020015160ff168561311e565b6122ba565b805b90508015806122d2575081856040015163ffffffff16145b61235857612353816122e66012600a61416d565b6040888101519051631df139fd60e11b8152600481018b905263ffffffff909116602482015260448101869052601260648201527f00000000000000000000000000000000000000000000000000000000000000006001600160a01b031690633be273fa90608401610f05565b61235a565b805b604051632eec7b5560e11b8152600481018890529091505f906001600160a01b037f00000000000000000000000000000000000000000000000000000000000000001690635dd8f6aa90602401602060405180830381865afa1580156123c2573d5f5f3e3d5ffd5b505050506040513d601f19601f820116820180604052508101906123e69190614045565b6001600160a01b031663ffa082446040518163ffffffff1660e01b8152600401602060405180830381865afa158015612421573d5f5f3e3d5ffd5b505050506040513d601f19601f820116820180604052508101906124459190614045565b60208601518751604051634c8cafef60e11b8152600481018b905265ffffffffffff90921660248301526001600160a01b038b81166044840152908116606483015291909116906399195fde906084015f60405180830381865afa1580156124af573d5f5f3e3d5ffd5b505050506040513d5f823e601f3d908101601f191682016040526124d69190810190614235565b80519091505f5b81811015612762575f8382815181106124f8576124f8613f13565b6020908102919091018101516001600160a01b03808e165f9081526001845260408082208f835285528082208e5190931682529184528181208c5165ffffffffffff16825284528181208385015163ffffffff168252909352822054815191935091906001600160e01b03168210612570575f612586565b82516125869083906001600160e01b0316614077565b90506001600160e01b038111156125b6576040516001622677e760e01b03198152600481018290526024016104d9565b6001600160e01b0316825250602089015160ff16871461262b575f6125ef825f01516001600160e01b03168b6020015160ff168a61311e565b90506001600160e01b0381111561261f576040516001622677e760e01b03198152600481018290526024016104d9565b6001600160e01b031681525b80516001600160e01b03161580159061264e575085816020015163ffffffff1614155b1561271f5780515f906126e3906001600160e01b03166126706012600a61416d565b7f00000000000000000000000000000000000000000000000000000000000000006001600160a01b0316633be273fa8f87602001518d60126040518563ffffffff1660e01b8152600401610f05949392919093845263ffffffff9290921660208401526040830152606082015260800190565b90506001600160e01b03811115612713576040516001622677e760e01b03198152600481018290526024016104d9565b6001600160e01b031681525b80516001600160e01b031685111561274d578051612746906001600160e01b031686614077565b9450612759565b5f945050505050611647565b506001016124dd565b5050509695505050505050565b61277761317a565b5f60605f7f00000000000000000000000000000000000000000000000000000000000000006001600160a01b03166343a266c2886040518263ffffffff1660e01b81526004016127c991815260200190565b61012060405180830381865afa1580156127e5573d5f5f3e3d5ffd5b505050506040513d601f19601f820116820180604052508101906128099190613e62565b805190945065ffffffffffff165f036128385760405163453ebd8f60e01b8152600481018890526024016104d9565b61010084015160441c60019081160361287b5760208401516040516346e0a22360e11b81526004810189905265ffffffffffff90911660248201526044016104d9565b6101008401515f9060501c60019081161480156128af57505f6128a386610100015160521c90565b6001600160a01b031614155b156129c2575f6040518061012001604052808d6001600160a01b031681526020018c6001600160a01b031681526020018b81526020018a8152602001876020015165ffffffffffff168152602001896001600160a01b031681526020018760a001516001600160701b0316815260200161292e88610100015160041c90565b61ffff168152602001889052905061294b86610100015160521c90565b6001600160a01b0316638cc35846826040518263ffffffff1660e01b81526004016129769190614301565b5f60405180830381865afa158015612990573d5f5f3e3d5ffd5b505050506040513d5f823e601f3d908101601f191682016040526129b79190810190614423565b945091506129d29050565b5060a08401516001600160701b03165b886060015191505f5b8351811015612ad3578381815181106129f6576129f6613f13565b6020026020010151602001518015612a2b5750838181518110612a1b57612a1b613f13565b6020026020010151604001515f14155b15612a6a57838181518110612a4257612a42613f13565b6020026020010151604001516040516330525fe360e11b81526004016104d991815260200190565b5f848281518110612a7d57612a7d613f13565b6020026020010151604001519050805f14612aca5783811115612abd576040516301a3406160e01b815260048101829052602481018590526044016104d9565b612ac78185614077565b93505b506001016129db565b5088606001515f03612aeb57505f9250829050612c0f565b805f03612afb57505f9250612c0f565b5f612b0b86610100015160241c90565b63ffffffff168a6040015163ffffffff1614612be9577f00000000000000000000000000000000000000000000000000000000000000006001600160a01b0316633be273fa8a8c60400151612b658a610100015160241c90565b60208f01516040516001600160e01b031960e087901b168152600481019490945263ffffffff92831660248501529116604483015260ff166064820152608401602060405180830381865afa158015612bc0573d5f5f3e3d5ffd5b505050506040513d601f19601f82011682018060405250810190612be49190614060565b612bf9565b60208a0151612bf990600a614547565b9050612c0a8a60600151838361211f565b945050505b9650965096509692505050565b5f5f86515f03612cb45760405163d175415360e01b8152600481018990527f00000000000000000000000000000000000000000000000000000000000000006001600160a01b03169063d1754153906024015f60405180830381865afa158015612c88573d5f5f3e3d5ffd5b505050506040513d5f823e601f3d908101601f19168201604052612caf9190810190614192565b612cb6565b865b90505f5b8151811015612eda575f828281518110612cd657612cd6613f13565b60200260200101519050606088515f14612e195788516001600160401b03811115612d0357612d036138c0565b604051908082528060200260200182016040528015612d4c57816020015b604080516060810182525f80825260208083018290529282015282525f19909201910181612d215790505b5090505f5b8951811015612e13576001600160a01b0383165f9081526003602090815260408083208f845290915281208b519091908c9084908110612d9357612d93613f13565b6020908102919091018101516001600160a01b0390811683528282019390935260409182015f20825160608101845290549384168152600160a01b840460ff1691810191909152600160a81b90920463ffffffff16908201528251839083908110612e0057612e00613f13565b6020908102919091010152600101612d51565b50612eb3565b6001600160a01b0382165f9081526004602090815260408083208e8452825280832080548251818502810185019093528083529193909284015b82821015612eac575f84815260209081902060408051606081018252918501546001600160a01b0381168352600160a01b810460ff1683850152600160a81b900463ffffffff1690820152825260019092019101612e53565b5050505090505b612ec1828c83898c8c612ee6565b612ecb9086614032565b94508260010192505050612cba565b50509695505050505050565b83515f90815b81811015612eda575f612f1c8a8a8a8581518110612f0c57612f0c613f13565b60200260200101518a8a8a612265565b90508015612f3157612f2e8185614032565b93505b50600101612eec565b83515f90815b81811015612fe657868181518110612f5a57612f5a613f13565b60200260200101516001600160a01b031663b5c104f3898888886040518563ffffffff1660e01b8152600401612f939493929190614555565b602060405180830381865afa158015612fae573d5f5f3e3d5ffd5b505050506040513d601f19601f82011682018060405250810190612fd29190614060565b612fdc9084614032565b9250600101612f40565b505095945050505050565b5f5f60605f5f5f61300789610100015160521c90565b6001600160a01b031663f672acac896040518263ffffffff1660e01b815260040161303291906145b5565b5f60405180830381865afa15801561304c573d5f5f3e3d5ffd5b505050506040513d5f823e601f3d908101601f191682016040526130739190810190614698565b939850929650909450925090505f5b84518110156130f15784818151811061309d5761309d613f13565b60200260200101516020015180156130d257508481815181106130c2576130c2613f13565b6020026020010151604001515f14155b156130e957848181518110612a4257612a42613f13565b600101613082565b50861561311257613104818484886121ee565b955086861115613112578695505b50505093509350939050565b5f82820361312d575082610b27565b8282111561315b5761313f8383614077565b61314a90600a61416d565b61315490856147d8565b9050610b27565b6131658284614077565b61317090600a61416d565b61315490856147ef565b60408051610120810182525f80825260208201819052918101829052606081018290526080810182905260a0810182905260c0810182905260e0810182905261010081019190915290565b6040518061016001604052805f6001600160a01b031681526020015f6001600160a01b031681526020015f81526020015f81526020015f81526020015f815260200161324060405180608001604052805f6001600160a01b031681526020015f60ff1681526020015f63ffffffff1681526020015f81525090565b81526020015f151581526020015f81526020015f15158152602001606081525090565b6001600160a01b0381168114613277575f5ffd5b50565b5f5f6040838503121561328b575f5ffd5b82359150602083013561329d81613263565b809150509250929050565b5f5f83601f8401126132b8575f5ffd5b5081356001600160401b038111156132ce575f5ffd5b6020830191508360208260051b85010111156132e8575f5ffd5b9250929050565b5f5f5f5f5f5f5f60a0888a031215613305575f5ffd5b8735965060208801356001600160401b03811115613321575f5ffd5b61332d8a828b016132a8565b90975095505060408801356001600160401b0381111561334b575f5ffd5b6133578a828b016132a8565b989b979a5095989597966060870135966080013595509350505050565b8015158114613277575f5ffd5b5f5f83601f840112613391575f5ffd5b5081356001600160401b038111156133a7575f5ffd5b6020830191508360208285010111156132e8575f5ffd5b5f5f5f5f5f5f5f5f60e0898b0312156133d5575f5ffd5b88356133e081613263565b975060208901356133f081613263565b96506040890135955060608901359450608089013561340e81613263565b935060a089013561341e81613374565b925060c08901356001600160401b03811115613438575f5ffd5b6134448b828c01613381565b999c989b5096995094979396929594505050565b65ffffffffffff815116825265ffffffffffff6020820151166020830152604081015161348f604084018265ffffffffffff169052565b5060608101516134a9606084018265ffffffffffff169052565b5060808101516134c1608084018263ffffffff169052565b5060a08101516134dc60a08401826001600160701b03169052565b5060c08101516134f460c084018263ffffffff169052565b5060e081015161350f60e08401826001600160a01b03169052565b5061010090810151910152565b5f81518084528060208401602086015e5f602082860101526020601f19601f83011685010191505092915050565b5f610180820161355a8388613458565b85610120840152846101408401526101806101608401528084518083526101a0850191506101a08160051b8601019250602086015f5b828110156135f85786850361019f19018452815180516001600160a01b03168652602080820151151590870152604080820151908701526060908101516080918701829052906135e29087018261351c565b9550506020938401939190910190600101613590565b50929998505050505050505050565b5f5f5f60408486031215613619575f5ffd5b8335925060208401356001600160401b03811115613635575f5ffd5b8401601f81018613613645575f5ffd5b80356001600160401b0381111561365a575f5ffd5b86602060608302840101111561366e575f5ffd5b939660209190910195509293505050565b5f5f5f60608486031215613691575f5ffd5b833561369c81613263565b92506020840135915060408401356136b381613263565b809150509250925092565b81516001600160a01b0316815260208083015160ff169082015260408083015163ffffffff1690820152606081016110e3565b5f5f5f60608486031215613703575f5ffd5b83359250602084013561371581613263565b929592945050506040919091013590565b5f5f5f5f5f60a0868803121561373a575f5ffd5b853561374581613263565b945060208601359350604086013561375c81613263565b94979396509394606081013594506080013592915050565b5f5f5f5f60808587031215613787575f5ffd5b84359350602085013561379981613263565b93969395505050506040820135916060013590565b61014081016137bd8285613458565b826101208301529392505050565b5f5f604083850312156137dc575f5ffd5b82356137e781613263565b946020939093013593505050565b602080825282518282018190525f918401906040840190835b8181101561385d5761384783855180516001600160a01b0316825260208082015160ff169083015260409081015163ffffffff16910152565b602093909301926060929092019160010161380e565b509095945050505050565b5f5f5f5f6080858703121561387b575f5ffd5b5050823594602084013594506040840135936060013592509050565b5f5f5f606084860312156138a9575f5ffd5b505081359360208301359350604090920135919050565b634e487b7160e01b5f52604160045260245ffd5b604051608081016001600160401b03811182821017156138f6576138f66138c0565b60405290565b60405161012081016001600160401b03811182821017156138f6576138f66138c0565b604080519081016001600160401b03811182821017156138f6576138f66138c0565b604051601f8201601f191681016001600160401b0381118282101715613969576139696138c0565b604052919050565b5f6001600160401b03821115613989576139896138c0565b50601f01601f191660200190565b5f5f5f5f5f5f60c087890312156139ac575f5ffd5b86356139b781613263565b9550602087013594506040870135935060608701356139d581613263565b925060808701356139e581613374565b915060a08701356001600160401b038111156139ff575f5ffd5b8701601f81018913613a0f575f5ffd5b8035613a22613a1d82613971565b613941565b8181528a6020838501011115613a36575f5ffd5b816020840160208301375f602083830101528093505050509295509295509295565b5f5f5f5f5f5f868803610100811215613a6f575f5ffd5b8735613a7a81613263565b96506080601f1982011215613a8d575f5ffd5b5060208701945060a0870135935060c0870135613aa981613263565b925060e08701356001600160401b03811115613ac3575f5ffd5b613acf89828a01613381565b979a9699509497509295939492505050565b5f6101608201613af18387613458565b84610120840152610160610140840152808451808352610180850191506101808160051b8601019250602086015f5b82811015613b885786850361017f19018452815180516001600160a01b0316865260208082015115159087015260408082015190870152606090810151608091870182905290613b729087018261351c565b9550506020938401939190910190600101613b20565b509298975050505050505050565b5f6001600160401b03821115613bae57613bae6138c0565b5060051b60200190565b5f82601f830112613bc7575f5ffd5b8135613bd5613a1d82613b96565b8082825260208201915060208360051b860101925085831115613bf6575f5ffd5b602085015b83811015613c1c578035613c0e81613263565b835260209283019201613bfb565b5095945050505050565b5f5f5f5f5f5f60c08789031215613c3b575f5ffd5b863595506020870135945060408701356001600160401b03811115613c5e575f5ffd5b8701601f81018913613c6e575f5ffd5b8035613c7c613a1d82613b96565b8082825260208201915060208360051b85010192508b831115613c9d575f5ffd5b6020840193505b82841015613cc8578335613cb781613263565b825260209384019390910190613ca4565b965050505060608701356001600160401b03811115613ce5575f5ffd5b613cf189828a01613bb8565b9699959850939660808101359560a090910135945092505050565b60ff81168114613277575f5ffd5b63ffffffff81168114613277575f5ffd5b5f60808284031215613d3b575f5ffd5b613d436138d4565b90508135613d5081613263565b81526020820135613d6081613d0c565b60208201526040820135613d7381613d1a565b604082015260609182013591810191909152919050565b5f5f5f5f5f5f5f610120888a031215613da1575f5ffd5b8735613dac81613263565b96506020880135613dbc81613263565b9550613dcb8960408a01613d2b565b945060c0880135935060e0880135613de281613263565b92506101008801356001600160401b03811115613dfd575f5ffd5b613e098a828b01613381565b989b979a50959850939692959293505050565b805165ffffffffffff81168114613e31575f5ffd5b919050565b8051613e3181613d1a565b80516001600160701b0381168114613e31575f5ffd5b8051613e3181613263565b5f610120828403128015613e74575f5ffd5b50613e7d6138fc565b613e8683613e1c565b8152613e9460208401613e1c565b6020820152613ea560408401613e1c565b6040820152613eb660608401613e1c565b6060820152613ec760808401613e36565b6080820152613ed860a08401613e41565b60a0820152613ee960c08401613e36565b60c0820152613efa60e08401613e57565b60e0820152610100928301519281019290925250919050565b634e487b7160e01b5f52603260045260245ffd5b5f60208284031215613f37575f5ffd5b8135610b2781613263565b5f60208284031215613f52575f5ffd5b8135610b2781613d0c565b5f60208284031215613f6d575f5ffd5b8151610b2781613d0c565b5f60208284031215613f88575f5ffd5b8135610b2781613d1a565b8135613f9e81613263565b81546001600160a01b031981166001600160a01b039290921691821783556020840135613fca81613d0c565b60ff60a01b60a09190911b166001600160a81b031982168317811784556040850135613ff581613d1a565b6001600160c81b0319929092169092179190911760a89190911b63ffffffff60a81b1617905550565b634e487b7160e01b5f52601160045260245ffd5b808201808211156110e3576110e361401e565b5f60208284031215614055575f5ffd5b8151610b2781613263565b5f60208284031215614070575f5ffd5b5051919050565b818103818111156110e3576110e361401e565b6001815b60018411156140c5578085048111156140a9576140a961401e565b60018416156140b757908102905b60019390931c92800261408e565b935093915050565b5f826140db575060016110e3565b816140e757505f6110e3565b81600181146140fd576002811461410757614123565b60019150506110e3565b60ff8411156141185761411861401e565b50506001821b6110e3565b5060208310610133831016604e8410600b8410161715614146575081810a6110e3565b6141525f19848461408a565b805f19048211156141655761416561401e565b029392505050565b5f610b2783836140cd565b5f60808284031215614188575f5ffd5b610b278383613d2b565b5f602082840312156141a2575f5ffd5b81516001600160401b038111156141b7575f5ffd5b8201601f810184136141c7575f5ffd5b80516141d5613a1d82613b96565b8082825260208201915060208360051b8501019250868311156141f6575f5ffd5b6020840193505b8284101561164757835161421081613263565b8252602093840193909101906141fd565b634e487b7160e01b5f52601260045260245ffd5b5f60208284031215614245575f5ffd5b81516001600160401b0381111561425a575f5ffd5b8201601f8101841361426a575f5ffd5b8051614278613a1d82613b96565b8082825260208201915060208360061b850101925086831115614299575f5ffd5b6020840193505b8284101561164757604084880312156142b7575f5ffd5b6142bf61391f565b84516001600160e01b03811681146142d5575f5ffd5b815260208501516142e581613d1a565b80602083015250808352506020820191506040840193506142a0565b6020815261431b6020820183516001600160a01b03169052565b5f602083015161433660408401826001600160a01b03169052565b506040830151614379606084018280516001600160a01b0316825260208082015160ff169083015260408082015163ffffffff1690830152606090810151910152565b50606083015160e0830152608083015161010083015260a08301516001600160a01b0381166101208401525060c083015161014083015260e0830151610160830152610100830151610180808401526111b56101a084018261351c565b5f82601f8301126143e5575f5ffd5b81516143f3613a1d82613971565b818152846020838601011115614407575f5ffd5b8160208501602083015e5f918101602001919091529392505050565b5f5f60408385031215614434575f5ffd5b825160208401519092506001600160401b03811115614451575f5ffd5b8301601f81018513614461575f5ffd5b805161446f613a1d82613b96565b8082825260208201915060208360051b850101925087831115614490575f5ffd5b602084015b838110156145385780516001600160401b038111156144b2575f5ffd5b85016080818b03601f190112156144c7575f5ffd5b6144cf6138d4565b60208201516144dd81613263565b815260408201516144ed81613374565b60208201526060820151604082015260808201516001600160401b03811115614514575f5ffd5b6145238c6020838601016143d6565b60608301525084525060209283019201614495565b50809450505050509250929050565b5f610b2760ff8416836140cd565b5f608082018683526080602084015280865180835260a0850191506020880192505f5b8181101561459f5783516001600160a01b0316835260209384019390920191600101614578565b5050604084019590955250506060015292915050565b602081526145cf6020820183516001600160a01b03169052565b5f60208301516145ea60408401826001600160a01b03169052565b506040830151606083015260608301516080830152608083015160a083015260a083015160c083015260c083015161465560e084018280516001600160a01b0316825260208082015160ff169083015260408082015163ffffffff1690830152606090810151910152565b5060e0830151151561016083015261010083015161018083015261012083015115156101a08301526101408301516101c0808401526111b56101e084018261351c565b5f5f5f5f5f60a086880312156146ac575f5ffd5b855160208701516040880151606089015160808a0151939850919650945092506001600160401b038111156146df575f5ffd5b8601601f810188136146ef575f5ffd5b80516146fd613a1d82613b96565b8082825260208201915060208360051b85010192508a83111561471e575f5ffd5b602084015b838110156147c65780516001600160401b03811115614740575f5ffd5b85016080818e03601f19011215614755575f5ffd5b61475d6138d4565b602082015161476b81613263565b8152604082015161477b81613374565b60208201526060820151604082015260808201516001600160401b038111156147a2575f5ffd5b6147b18f6020838601016143d6565b60608301525084525060209283019201614723565b50809450505050509295509295909350565b80820281158282048414176110e3576110e361401e565b5f8261480957634e487b7160e01b5f52601260045260245ffd5b50049056fea164736f6c634300081c000a",
	"gitCommit": "npm:@bananapus/core-v6@0.0.81",
	"gitDirty": false,
	"history": []
}