{
	"format": "sphinx-sol-ct-artifact-1",
	"address": "0x056265c31157748818f0910d1859acd2f7d427de",
	"sourceName": "node_modules/@rev-net/core-v6/src/REVLoans.sol",
	"contractName": "REVLoans",
	"chainId": "0x66eee",
	"abi": [
		{
			"type": "constructor",
			"inputs": [
				{
					"name": "controller",
					"type": "address",
					"internalType": "contract IJBController"
				},
				{
					"name": "terminal",
					"type": "address",
					"internalType": "contract IJBPayoutTerminal"
				},
				{
					"name": "suckerRegistry",
					"type": "address",
					"internalType": "contract IJBSuckerRegistry"
				},
				{
					"name": "revId",
					"type": "uint256",
					"internalType": "uint256"
				},
				{
					"name": "owner",
					"type": "address",
					"internalType": "address"
				},
				{
					"name": "permit2",
					"type": "address",
					"internalType": "contract IPermit2"
				},
				{
					"name": "trustedForwarder",
					"type": "address",
					"internalType": "address"
				}
			],
			"stateMutability": "nonpayable"
		},
		{
			"type": "fallback",
			"stateMutability": "payable"
		},
		{
			"type": "receive",
			"stateMutability": "payable"
		},
		{
			"type": "function",
			"name": "CONTROLLER",
			"inputs": [],
			"outputs": [
				{
					"name": "",
					"type": "address",
					"internalType": "contract IJBController"
				}
			],
			"stateMutability": "view"
		},
		{
			"type": "function",
			"name": "DIRECTORY",
			"inputs": [],
			"outputs": [
				{
					"name": "",
					"type": "address",
					"internalType": "contract IJBDirectory"
				}
			],
			"stateMutability": "view"
		},
		{
			"type": "function",
			"name": "LOAN_LIQUIDATION_DURATION",
			"inputs": [],
			"outputs": [
				{
					"name": "",
					"type": "uint256",
					"internalType": "uint256"
				}
			],
			"stateMutability": "view"
		},
		{
			"type": "function",
			"name": "MAX_PREPAID_FEE_PERCENT",
			"inputs": [],
			"outputs": [
				{
					"name": "",
					"type": "uint256",
					"internalType": "uint256"
				}
			],
			"stateMutability": "view"
		},
		{
			"type": "function",
			"name": "MIN_PREPAID_FEE_PERCENT",
			"inputs": [],
			"outputs": [
				{
					"name": "",
					"type": "uint256",
					"internalType": "uint256"
				}
			],
			"stateMutability": "view"
		},
		{
			"type": "function",
			"name": "PERMISSIONS",
			"inputs": [],
			"outputs": [
				{
					"name": "",
					"type": "address",
					"internalType": "contract IJBPermissions"
				}
			],
			"stateMutability": "view"
		},
		{
			"type": "function",
			"name": "PERMIT2",
			"inputs": [],
			"outputs": [
				{
					"name": "",
					"type": "address",
					"internalType": "contract IPermit2"
				}
			],
			"stateMutability": "view"
		},
		{
			"type": "function",
			"name": "PRICES",
			"inputs": [],
			"outputs": [
				{
					"name": "",
					"type": "address",
					"internalType": "contract IJBPrices"
				}
			],
			"stateMutability": "view"
		},
		{
			"type": "function",
			"name": "REV_ID",
			"inputs": [],
			"outputs": [
				{
					"name": "",
					"type": "uint256",
					"internalType": "uint256"
				}
			],
			"stateMutability": "view"
		},
		{
			"type": "function",
			"name": "REV_PREPAID_FEE_PERCENT",
			"inputs": [],
			"outputs": [
				{
					"name": "",
					"type": "uint256",
					"internalType": "uint256"
				}
			],
			"stateMutability": "view"
		},
		{
			"type": "function",
			"name": "SUCKER_REGISTRY",
			"inputs": [],
			"outputs": [
				{
					"name": "",
					"type": "address",
					"internalType": "contract IJBSuckerRegistry"
				}
			],
			"stateMutability": "view"
		},
		{
			"type": "function",
			"name": "TERMINAL",
			"inputs": [],
			"outputs": [
				{
					"name": "",
					"type": "address",
					"internalType": "contract IJBPayoutTerminal"
				}
			],
			"stateMutability": "view"
		},
		{
			"type": "function",
			"name": "approve",
			"inputs": [
				{
					"name": "to",
					"type": "address",
					"internalType": "address"
				},
				{
					"name": "tokenId",
					"type": "uint256",
					"internalType": "uint256"
				}
			],
			"outputs": [],
			"stateMutability": "nonpayable"
		},
		{
			"type": "function",
			"name": "balanceOf",
			"inputs": [
				{
					"name": "owner",
					"type": "address",
					"internalType": "address"
				}
			],
			"outputs": [
				{
					"name": "",
					"type": "uint256",
					"internalType": "uint256"
				}
			],
			"stateMutability": "view"
		},
		{
			"type": "function",
			"name": "borrowFrom",
			"inputs": [
				{
					"name": "revnetId",
					"type": "uint256",
					"internalType": "uint256"
				},
				{
					"name": "token",
					"type": "address",
					"internalType": "address"
				},
				{
					"name": "minBorrowAmount",
					"type": "uint256",
					"internalType": "uint256"
				},
				{
					"name": "collateralCount",
					"type": "uint256",
					"internalType": "uint256"
				},
				{
					"name": "beneficiary",
					"type": "address",
					"internalType": "address payable"
				},
				{
					"name": "prepaidFeePercent",
					"type": "uint256",
					"internalType": "uint256"
				},
				{
					"name": "holder",
					"type": "address",
					"internalType": "address"
				}
			],
			"outputs": [
				{
					"name": "loanId",
					"type": "uint256",
					"internalType": "uint256"
				},
				{
					"name": "",
					"type": "tuple",
					"internalType": "struct REVLoan",
					"components": [
						{
							"name": "amount",
							"type": "uint112",
							"internalType": "uint112"
						},
						{
							"name": "collateral",
							"type": "uint112",
							"internalType": "uint112"
						},
						{
							"name": "createdAt",
							"type": "uint48",
							"internalType": "uint48"
						},
						{
							"name": "prepaidFeePercent",
							"type": "uint16",
							"internalType": "uint16"
						},
						{
							"name": "prepaidDuration",
							"type": "uint32",
							"internalType": "uint32"
						},
						{
							"name": "sourceToken",
							"type": "address",
							"internalType": "address"
						}
					]
				}
			],
			"stateMutability": "nonpayable"
		},
		{
			"type": "function",
			"name": "borrowableAmountFrom",
			"inputs": [
				{
					"name": "revnetId",
					"type": "uint256",
					"internalType": "uint256"
				},
				{
					"name": "collateralCount",
					"type": "uint256",
					"internalType": "uint256"
				},
				{
					"name": "decimals",
					"type": "uint256",
					"internalType": "uint256"
				},
				{
					"name": "currency",
					"type": "uint256",
					"internalType": "uint256"
				}
			],
			"outputs": [
				{
					"name": "borrowableNow",
					"type": "uint256",
					"internalType": "uint256"
				},
				{
					"name": "borrowableCapacity",
					"type": "uint256",
					"internalType": "uint256"
				}
			],
			"stateMutability": "view"
		},
		{
			"type": "function",
			"name": "determineSourceFeeAmount",
			"inputs": [
				{
					"name": "loan",
					"type": "tuple",
					"internalType": "struct REVLoan",
					"components": [
						{
							"name": "amount",
							"type": "uint112",
							"internalType": "uint112"
						},
						{
							"name": "collateral",
							"type": "uint112",
							"internalType": "uint112"
						},
						{
							"name": "createdAt",
							"type": "uint48",
							"internalType": "uint48"
						},
						{
							"name": "prepaidFeePercent",
							"type": "uint16",
							"internalType": "uint16"
						},
						{
							"name": "prepaidDuration",
							"type": "uint32",
							"internalType": "uint32"
						},
						{
							"name": "sourceToken",
							"type": "address",
							"internalType": "address"
						}
					]
				},
				{
					"name": "amount",
					"type": "uint256",
					"internalType": "uint256"
				}
			],
			"outputs": [
				{
					"name": "",
					"type": "uint256",
					"internalType": "uint256"
				}
			],
			"stateMutability": "view"
		},
		{
			"type": "function",
			"name": "getApproved",
			"inputs": [
				{
					"name": "tokenId",
					"type": "uint256",
					"internalType": "uint256"
				}
			],
			"outputs": [
				{
					"name": "",
					"type": "address",
					"internalType": "address"
				}
			],
			"stateMutability": "view"
		},
		{
			"type": "function",
			"name": "isApprovedForAll",
			"inputs": [
				{
					"name": "owner",
					"type": "address",
					"internalType": "address"
				},
				{
					"name": "operator",
					"type": "address",
					"internalType": "address"
				}
			],
			"outputs": [
				{
					"name": "",
					"type": "bool",
					"internalType": "bool"
				}
			],
			"stateMutability": "view"
		},
		{
			"type": "function",
			"name": "isLoanSourceOf",
			"inputs": [
				{
					"name": "revnetId",
					"type": "uint256",
					"internalType": "uint256"
				},
				{
					"name": "token",
					"type": "address",
					"internalType": "address"
				}
			],
			"outputs": [
				{
					"name": "",
					"type": "bool",
					"internalType": "bool"
				}
			],
			"stateMutability": "view"
		},
		{
			"type": "function",
			"name": "isTrustedForwarder",
			"inputs": [
				{
					"name": "forwarder",
					"type": "address",
					"internalType": "address"
				}
			],
			"outputs": [
				{
					"name": "",
					"type": "bool",
					"internalType": "bool"
				}
			],
			"stateMutability": "view"
		},
		{
			"type": "function",
			"name": "liquidateExpiredLoansFrom",
			"inputs": [
				{
					"name": "revnetId",
					"type": "uint256",
					"internalType": "uint256"
				},
				{
					"name": "startingLoanId",
					"type": "uint256",
					"internalType": "uint256"
				},
				{
					"name": "count",
					"type": "uint256",
					"internalType": "uint256"
				}
			],
			"outputs": [],
			"stateMutability": "nonpayable"
		},
		{
			"type": "function",
			"name": "loanOf",
			"inputs": [
				{
					"name": "loanId",
					"type": "uint256",
					"internalType": "uint256"
				}
			],
			"outputs": [
				{
					"name": "",
					"type": "tuple",
					"internalType": "struct REVLoan",
					"components": [
						{
							"name": "amount",
							"type": "uint112",
							"internalType": "uint112"
						},
						{
							"name": "collateral",
							"type": "uint112",
							"internalType": "uint112"
						},
						{
							"name": "createdAt",
							"type": "uint48",
							"internalType": "uint48"
						},
						{
							"name": "prepaidFeePercent",
							"type": "uint16",
							"internalType": "uint16"
						},
						{
							"name": "prepaidDuration",
							"type": "uint32",
							"internalType": "uint32"
						},
						{
							"name": "sourceToken",
							"type": "address",
							"internalType": "address"
						}
					]
				}
			],
			"stateMutability": "view"
		},
		{
			"type": "function",
			"name": "loanSourceTokensOf",
			"inputs": [
				{
					"name": "revnetId",
					"type": "uint256",
					"internalType": "uint256"
				}
			],
			"outputs": [
				{
					"name": "",
					"type": "address[]",
					"internalType": "address[]"
				}
			],
			"stateMutability": "view"
		},
		{
			"type": "function",
			"name": "name",
			"inputs": [],
			"outputs": [
				{
					"name": "",
					"type": "string",
					"internalType": "string"
				}
			],
			"stateMutability": "view"
		},
		{
			"type": "function",
			"name": "owner",
			"inputs": [],
			"outputs": [
				{
					"name": "",
					"type": "address",
					"internalType": "address"
				}
			],
			"stateMutability": "view"
		},
		{
			"type": "function",
			"name": "ownerOf",
			"inputs": [
				{
					"name": "tokenId",
					"type": "uint256",
					"internalType": "uint256"
				}
			],
			"outputs": [
				{
					"name": "",
					"type": "address",
					"internalType": "address"
				}
			],
			"stateMutability": "view"
		},
		{
			"type": "function",
			"name": "reallocateCollateralFromLoan",
			"inputs": [
				{
					"name": "loanId",
					"type": "uint256",
					"internalType": "uint256"
				},
				{
					"name": "collateralCountToTransfer",
					"type": "uint256",
					"internalType": "uint256"
				},
				{
					"name": "token",
					"type": "address",
					"internalType": "address"
				},
				{
					"name": "minBorrowAmount",
					"type": "uint256",
					"internalType": "uint256"
				},
				{
					"name": "collateralCountToAdd",
					"type": "uint256",
					"internalType": "uint256"
				},
				{
					"name": "beneficiary",
					"type": "address",
					"internalType": "address payable"
				},
				{
					"name": "prepaidFeePercent",
					"type": "uint256",
					"internalType": "uint256"
				}
			],
			"outputs": [
				{
					"name": "reallocatedLoanId",
					"type": "uint256",
					"internalType": "uint256"
				},
				{
					"name": "newLoanId",
					"type": "uint256",
					"internalType": "uint256"
				},
				{
					"name": "reallocatedLoan",
					"type": "tuple",
					"internalType": "struct REVLoan",
					"components": [
						{
							"name": "amount",
							"type": "uint112",
							"internalType": "uint112"
						},
						{
							"name": "collateral",
							"type": "uint112",
							"internalType": "uint112"
						},
						{
							"name": "createdAt",
							"type": "uint48",
							"internalType": "uint48"
						},
						{
							"name": "prepaidFeePercent",
							"type": "uint16",
							"internalType": "uint16"
						},
						{
							"name": "prepaidDuration",
							"type": "uint32",
							"internalType": "uint32"
						},
						{
							"name": "sourceToken",
							"type": "address",
							"internalType": "address"
						}
					]
				},
				{
					"name": "newLoan",
					"type": "tuple",
					"internalType": "struct REVLoan",
					"components": [
						{
							"name": "amount",
							"type": "uint112",
							"internalType": "uint112"
						},
						{
							"name": "collateral",
							"type": "uint112",
							"internalType": "uint112"
						},
						{
							"name": "createdAt",
							"type": "uint48",
							"internalType": "uint48"
						},
						{
							"name": "prepaidFeePercent",
							"type": "uint16",
							"internalType": "uint16"
						},
						{
							"name": "prepaidDuration",
							"type": "uint32",
							"internalType": "uint32"
						},
						{
							"name": "sourceToken",
							"type": "address",
							"internalType": "address"
						}
					]
				}
			],
			"stateMutability": "nonpayable"
		},
		{
			"type": "function",
			"name": "renounceOwnership",
			"inputs": [],
			"outputs": [],
			"stateMutability": "nonpayable"
		},
		{
			"type": "function",
			"name": "repayLoan",
			"inputs": [
				{
					"name": "loanId",
					"type": "uint256",
					"internalType": "uint256"
				},
				{
					"name": "maxRepayBorrowAmount",
					"type": "uint256",
					"internalType": "uint256"
				},
				{
					"name": "collateralCountToReturn",
					"type": "uint256",
					"internalType": "uint256"
				},
				{
					"name": "beneficiary",
					"type": "address",
					"internalType": "address payable"
				},
				{
					"name": "allowance",
					"type": "tuple",
					"internalType": "struct JBSingleAllowance",
					"components": [
						{
							"name": "sigDeadline",
							"type": "uint256",
							"internalType": "uint256"
						},
						{
							"name": "amount",
							"type": "uint160",
							"internalType": "uint160"
						},
						{
							"name": "expiration",
							"type": "uint48",
							"internalType": "uint48"
						},
						{
							"name": "nonce",
							"type": "uint48",
							"internalType": "uint48"
						},
						{
							"name": "signature",
							"type": "bytes",
							"internalType": "bytes"
						}
					]
				}
			],
			"outputs": [
				{
					"name": "paidOffLoanId",
					"type": "uint256",
					"internalType": "uint256"
				},
				{
					"name": "paidOffloan",
					"type": "tuple",
					"internalType": "struct REVLoan",
					"components": [
						{
							"name": "amount",
							"type": "uint112",
							"internalType": "uint112"
						},
						{
							"name": "collateral",
							"type": "uint112",
							"internalType": "uint112"
						},
						{
							"name": "createdAt",
							"type": "uint48",
							"internalType": "uint48"
						},
						{
							"name": "prepaidFeePercent",
							"type": "uint16",
							"internalType": "uint16"
						},
						{
							"name": "prepaidDuration",
							"type": "uint32",
							"internalType": "uint32"
						},
						{
							"name": "sourceToken",
							"type": "address",
							"internalType": "address"
						}
					]
				}
			],
			"stateMutability": "payable"
		},
		{
			"type": "function",
			"name": "revnetIdOfLoanWith",
			"inputs": [
				{
					"name": "loanId",
					"type": "uint256",
					"internalType": "uint256"
				}
			],
			"outputs": [
				{
					"name": "",
					"type": "uint256",
					"internalType": "uint256"
				}
			],
			"stateMutability": "pure"
		},
		{
			"type": "function",
			"name": "safeTransferFrom",
			"inputs": [
				{
					"name": "from",
					"type": "address",
					"internalType": "address"
				},
				{
					"name": "to",
					"type": "address",
					"internalType": "address"
				},
				{
					"name": "tokenId",
					"type": "uint256",
					"internalType": "uint256"
				}
			],
			"outputs": [],
			"stateMutability": "nonpayable"
		},
		{
			"type": "function",
			"name": "safeTransferFrom",
			"inputs": [
				{
					"name": "from",
					"type": "address",
					"internalType": "address"
				},
				{
					"name": "to",
					"type": "address",
					"internalType": "address"
				},
				{
					"name": "tokenId",
					"type": "uint256",
					"internalType": "uint256"
				},
				{
					"name": "data",
					"type": "bytes",
					"internalType": "bytes"
				}
			],
			"outputs": [],
			"stateMutability": "nonpayable"
		},
		{
			"type": "function",
			"name": "setApprovalForAll",
			"inputs": [
				{
					"name": "operator",
					"type": "address",
					"internalType": "address"
				},
				{
					"name": "approved",
					"type": "bool",
					"internalType": "bool"
				}
			],
			"outputs": [],
			"stateMutability": "nonpayable"
		},
		{
			"type": "function",
			"name": "setTokenUriResolver",
			"inputs": [
				{
					"name": "resolver",
					"type": "address",
					"internalType": "contract IJBTokenUriResolver"
				}
			],
			"outputs": [],
			"stateMutability": "nonpayable"
		},
		{
			"type": "function",
			"name": "supportsInterface",
			"inputs": [
				{
					"name": "interfaceId",
					"type": "bytes4",
					"internalType": "bytes4"
				}
			],
			"outputs": [
				{
					"name": "",
					"type": "bool",
					"internalType": "bool"
				}
			],
			"stateMutability": "view"
		},
		{
			"type": "function",
			"name": "symbol",
			"inputs": [],
			"outputs": [
				{
					"name": "",
					"type": "string",
					"internalType": "string"
				}
			],
			"stateMutability": "view"
		},
		{
			"type": "function",
			"name": "tokenURI",
			"inputs": [
				{
					"name": "loanId",
					"type": "uint256",
					"internalType": "uint256"
				}
			],
			"outputs": [
				{
					"name": "",
					"type": "string",
					"internalType": "string"
				}
			],
			"stateMutability": "view"
		},
		{
			"type": "function",
			"name": "tokenUriResolver",
			"inputs": [],
			"outputs": [
				{
					"name": "",
					"type": "address",
					"internalType": "contract IJBTokenUriResolver"
				}
			],
			"stateMutability": "view"
		},
		{
			"type": "function",
			"name": "totalBorrowedFrom",
			"inputs": [
				{
					"name": "revnetId",
					"type": "uint256",
					"internalType": "uint256"
				},
				{
					"name": "token",
					"type": "address",
					"internalType": "address"
				}
			],
			"outputs": [
				{
					"name": "",
					"type": "uint256",
					"internalType": "uint256"
				}
			],
			"stateMutability": "view"
		},
		{
			"type": "function",
			"name": "totalCollateralOf",
			"inputs": [
				{
					"name": "revnetId",
					"type": "uint256",
					"internalType": "uint256"
				}
			],
			"outputs": [
				{
					"name": "",
					"type": "uint256",
					"internalType": "uint256"
				}
			],
			"stateMutability": "view"
		},
		{
			"type": "function",
			"name": "totalLoansBorrowedFor",
			"inputs": [
				{
					"name": "revnetId",
					"type": "uint256",
					"internalType": "uint256"
				}
			],
			"outputs": [
				{
					"name": "",
					"type": "uint256",
					"internalType": "uint256"
				}
			],
			"stateMutability": "view"
		},
		{
			"type": "function",
			"name": "transferFrom",
			"inputs": [
				{
					"name": "from",
					"type": "address",
					"internalType": "address"
				},
				{
					"name": "to",
					"type": "address",
					"internalType": "address"
				},
				{
					"name": "tokenId",
					"type": "uint256",
					"internalType": "uint256"
				}
			],
			"outputs": [],
			"stateMutability": "nonpayable"
		},
		{
			"type": "function",
			"name": "transferOwnership",
			"inputs": [
				{
					"name": "newOwner",
					"type": "address",
					"internalType": "address"
				}
			],
			"outputs": [],
			"stateMutability": "nonpayable"
		},
		{
			"type": "function",
			"name": "trustedForwarder",
			"inputs": [],
			"outputs": [
				{
					"name": "",
					"type": "address",
					"internalType": "address"
				}
			],
			"stateMutability": "view"
		},
		{
			"type": "event",
			"name": "Approval",
			"inputs": [
				{
					"name": "owner",
					"type": "address",
					"indexed": true,
					"internalType": "address"
				},
				{
					"name": "approved",
					"type": "address",
					"indexed": true,
					"internalType": "address"
				},
				{
					"name": "tokenId",
					"type": "uint256",
					"indexed": true,
					"internalType": "uint256"
				}
			],
			"anonymous": false
		},
		{
			"type": "event",
			"name": "ApprovalForAll",
			"inputs": [
				{
					"name": "owner",
					"type": "address",
					"indexed": true,
					"internalType": "address"
				},
				{
					"name": "operator",
					"type": "address",
					"indexed": true,
					"internalType": "address"
				},
				{
					"name": "approved",
					"type": "bool",
					"indexed": false,
					"internalType": "bool"
				}
			],
			"anonymous": false
		},
		{
			"type": "event",
			"name": "Borrow",
			"inputs": [
				{
					"name": "loanId",
					"type": "uint256",
					"indexed": true,
					"internalType": "uint256"
				},
				{
					"name": "revnetId",
					"type": "uint256",
					"indexed": true,
					"internalType": "uint256"
				},
				{
					"name": "loan",
					"type": "tuple",
					"indexed": false,
					"internalType": "struct REVLoan",
					"components": [
						{
							"name": "amount",
							"type": "uint112",
							"internalType": "uint112"
						},
						{
							"name": "collateral",
							"type": "uint112",
							"internalType": "uint112"
						},
						{
							"name": "createdAt",
							"type": "uint48",
							"internalType": "uint48"
						},
						{
							"name": "prepaidFeePercent",
							"type": "uint16",
							"internalType": "uint16"
						},
						{
							"name": "prepaidDuration",
							"type": "uint32",
							"internalType": "uint32"
						},
						{
							"name": "sourceToken",
							"type": "address",
							"internalType": "address"
						}
					]
				},
				{
					"name": "token",
					"type": "address",
					"indexed": false,
					"internalType": "address"
				},
				{
					"name": "borrowAmount",
					"type": "uint256",
					"indexed": false,
					"internalType": "uint256"
				},
				{
					"name": "collateralCount",
					"type": "uint256",
					"indexed": false,
					"internalType": "uint256"
				},
				{
					"name": "sourceFeeAmount",
					"type": "uint256",
					"indexed": false,
					"internalType": "uint256"
				},
				{
					"name": "beneficiary",
					"type": "address",
					"indexed": false,
					"internalType": "address payable"
				},
				{
					"name": "caller",
					"type": "address",
					"indexed": false,
					"internalType": "address"
				}
			],
			"anonymous": false
		},
		{
			"type": "event",
			"name": "Liquidate",
			"inputs": [
				{
					"name": "loanId",
					"type": "uint256",
					"indexed": true,
					"internalType": "uint256"
				},
				{
					"name": "revnetId",
					"type": "uint256",
					"indexed": true,
					"internalType": "uint256"
				},
				{
					"name": "loan",
					"type": "tuple",
					"indexed": false,
					"internalType": "struct REVLoan",
					"components": [
						{
							"name": "amount",
							"type": "uint112",
							"internalType": "uint112"
						},
						{
							"name": "collateral",
							"type": "uint112",
							"internalType": "uint112"
						},
						{
							"name": "createdAt",
							"type": "uint48",
							"internalType": "uint48"
						},
						{
							"name": "prepaidFeePercent",
							"type": "uint16",
							"internalType": "uint16"
						},
						{
							"name": "prepaidDuration",
							"type": "uint32",
							"internalType": "uint32"
						},
						{
							"name": "sourceToken",
							"type": "address",
							"internalType": "address"
						}
					]
				},
				{
					"name": "caller",
					"type": "address",
					"indexed": false,
					"internalType": "address"
				}
			],
			"anonymous": false
		},
		{
			"type": "event",
			"name": "OwnershipTransferred",
			"inputs": [
				{
					"name": "previousOwner",
					"type": "address",
					"indexed": true,
					"internalType": "address"
				},
				{
					"name": "newOwner",
					"type": "address",
					"indexed": true,
					"internalType": "address"
				}
			],
			"anonymous": false
		},
		{
			"type": "event",
			"name": "ReallocateCollateral",
			"inputs": [
				{
					"name": "loanId",
					"type": "uint256",
					"indexed": true,
					"internalType": "uint256"
				},
				{
					"name": "revnetId",
					"type": "uint256",
					"indexed": true,
					"internalType": "uint256"
				},
				{
					"name": "reallocatedLoanId",
					"type": "uint256",
					"indexed": true,
					"internalType": "uint256"
				},
				{
					"name": "reallocatedLoan",
					"type": "tuple",
					"indexed": false,
					"internalType": "struct REVLoan",
					"components": [
						{
							"name": "amount",
							"type": "uint112",
							"internalType": "uint112"
						},
						{
							"name": "collateral",
							"type": "uint112",
							"internalType": "uint112"
						},
						{
							"name": "createdAt",
							"type": "uint48",
							"internalType": "uint48"
						},
						{
							"name": "prepaidFeePercent",
							"type": "uint16",
							"internalType": "uint16"
						},
						{
							"name": "prepaidDuration",
							"type": "uint32",
							"internalType": "uint32"
						},
						{
							"name": "sourceToken",
							"type": "address",
							"internalType": "address"
						}
					]
				},
				{
					"name": "removedCollateralCount",
					"type": "uint256",
					"indexed": false,
					"internalType": "uint256"
				},
				{
					"name": "caller",
					"type": "address",
					"indexed": false,
					"internalType": "address"
				}
			],
			"anonymous": false
		},
		{
			"type": "event",
			"name": "RepayLoan",
			"inputs": [
				{
					"name": "loanId",
					"type": "uint256",
					"indexed": true,
					"internalType": "uint256"
				},
				{
					"name": "revnetId",
					"type": "uint256",
					"indexed": true,
					"internalType": "uint256"
				},
				{
					"name": "paidOffLoanId",
					"type": "uint256",
					"indexed": true,
					"internalType": "uint256"
				},
				{
					"name": "loan",
					"type": "tuple",
					"indexed": false,
					"internalType": "struct REVLoan",
					"components": [
						{
							"name": "amount",
							"type": "uint112",
							"internalType": "uint112"
						},
						{
							"name": "collateral",
							"type": "uint112",
							"internalType": "uint112"
						},
						{
							"name": "createdAt",
							"type": "uint48",
							"internalType": "uint48"
						},
						{
							"name": "prepaidFeePercent",
							"type": "uint16",
							"internalType": "uint16"
						},
						{
							"name": "prepaidDuration",
							"type": "uint32",
							"internalType": "uint32"
						},
						{
							"name": "sourceToken",
							"type": "address",
							"internalType": "address"
						}
					]
				},
				{
					"name": "paidOffLoan",
					"type": "tuple",
					"indexed": false,
					"internalType": "struct REVLoan",
					"components": [
						{
							"name": "amount",
							"type": "uint112",
							"internalType": "uint112"
						},
						{
							"name": "collateral",
							"type": "uint112",
							"internalType": "uint112"
						},
						{
							"name": "createdAt",
							"type": "uint48",
							"internalType": "uint48"
						},
						{
							"name": "prepaidFeePercent",
							"type": "uint16",
							"internalType": "uint16"
						},
						{
							"name": "prepaidDuration",
							"type": "uint32",
							"internalType": "uint32"
						},
						{
							"name": "sourceToken",
							"type": "address",
							"internalType": "address"
						}
					]
				},
				{
					"name": "repayBorrowAmount",
					"type": "uint256",
					"indexed": false,
					"internalType": "uint256"
				},
				{
					"name": "sourceFeeAmount",
					"type": "uint256",
					"indexed": false,
					"internalType": "uint256"
				},
				{
					"name": "collateralCountToReturn",
					"type": "uint256",
					"indexed": false,
					"internalType": "uint256"
				},
				{
					"name": "beneficiary",
					"type": "address",
					"indexed": false,
					"internalType": "address payable"
				},
				{
					"name": "caller",
					"type": "address",
					"indexed": false,
					"internalType": "address"
				}
			],
			"anonymous": false
		},
		{
			"type": "event",
			"name": "SetTokenUriResolver",
			"inputs": [
				{
					"name": "resolver",
					"type": "address",
					"indexed": true,
					"internalType": "contract IJBTokenUriResolver"
				},
				{
					"name": "caller",
					"type": "address",
					"indexed": false,
					"internalType": "address"
				}
			],
			"anonymous": false
		},
		{
			"type": "event",
			"name": "Transfer",
			"inputs": [
				{
					"name": "from",
					"type": "address",
					"indexed": true,
					"internalType": "address"
				},
				{
					"name": "to",
					"type": "address",
					"indexed": true,
					"internalType": "address"
				},
				{
					"name": "tokenId",
					"type": "uint256",
					"indexed": true,
					"internalType": "uint256"
				}
			],
			"anonymous": false
		},
		{
			"type": "error",
			"name": "ERC721IncorrectOwner",
			"inputs": [
				{
					"name": "sender",
					"type": "address",
					"internalType": "address"
				},
				{
					"name": "tokenId",
					"type": "uint256",
					"internalType": "uint256"
				},
				{
					"name": "owner",
					"type": "address",
					"internalType": "address"
				}
			]
		},
		{
			"type": "error",
			"name": "ERC721InsufficientApproval",
			"inputs": [
				{
					"name": "operator",
					"type": "address",
					"internalType": "address"
				},
				{
					"name": "tokenId",
					"type": "uint256",
					"internalType": "uint256"
				}
			]
		},
		{
			"type": "error",
			"name": "ERC721InvalidApprover",
			"inputs": [
				{
					"name": "approver",
					"type": "address",
					"internalType": "address"
				}
			]
		},
		{
			"type": "error",
			"name": "ERC721InvalidOperator",
			"inputs": [
				{
					"name": "operator",
					"type": "address",
					"internalType": "address"
				}
			]
		},
		{
			"type": "error",
			"name": "ERC721InvalidOwner",
			"inputs": [
				{
					"name": "owner",
					"type": "address",
					"internalType": "address"
				}
			]
		},
		{
			"type": "error",
			"name": "ERC721InvalidReceiver",
			"inputs": [
				{
					"name": "receiver",
					"type": "address",
					"internalType": "address"
				}
			]
		},
		{
			"type": "error",
			"name": "ERC721InvalidSender",
			"inputs": [
				{
					"name": "sender",
					"type": "address",
					"internalType": "address"
				}
			]
		},
		{
			"type": "error",
			"name": "ERC721NonexistentToken",
			"inputs": [
				{
					"name": "tokenId",
					"type": "uint256",
					"internalType": "uint256"
				}
			]
		},
		{
			"type": "error",
			"name": "FailedCall",
			"inputs": []
		},
		{
			"type": "error",
			"name": "InsufficientBalance",
			"inputs": [
				{
					"name": "balance",
					"type": "uint256",
					"internalType": "uint256"
				},
				{
					"name": "needed",
					"type": "uint256",
					"internalType": "uint256"
				}
			]
		},
		{
			"type": "error",
			"name": "JBPermissioned_Unauthorized",
			"inputs": [
				{
					"name": "account",
					"type": "address",
					"internalType": "address"
				},
				{
					"name": "sender",
					"type": "address",
					"internalType": "address"
				},
				{
					"name": "projectId",
					"type": "uint256",
					"internalType": "uint256"
				},
				{
					"name": "permissionId",
					"type": "uint256",
					"internalType": "uint256"
				}
			]
		},
		{
			"type": "error",
			"name": "OwnableInvalidOwner",
			"inputs": [
				{
					"name": "owner",
					"type": "address",
					"internalType": "address"
				}
			]
		},
		{
			"type": "error",
			"name": "OwnableUnauthorizedAccount",
			"inputs": [
				{
					"name": "account",
					"type": "address",
					"internalType": "address"
				}
			]
		},
		{
			"type": "error",
			"name": "PRBMath_MulDiv_Overflow",
			"inputs": [
				{
					"name": "x",
					"type": "uint256",
					"internalType": "uint256"
				},
				{
					"name": "y",
					"type": "uint256",
					"internalType": "uint256"
				},
				{
					"name": "denominator",
					"type": "uint256",
					"internalType": "uint256"
				}
			]
		},
		{
			"type": "error",
			"name": "REVLoans_CashOutDelayNotFinished",
			"inputs": [
				{
					"name": "cashOutDelay",
					"type": "uint256",
					"internalType": "uint256"
				},
				{
					"name": "blockTimestamp",
					"type": "uint256",
					"internalType": "uint256"
				}
			]
		},
		{
			"type": "error",
			"name": "REVLoans_CollateralExceedsLoan",
			"inputs": [
				{
					"name": "collateralToReturn",
					"type": "uint256",
					"internalType": "uint256"
				},
				{
					"name": "loanCollateral",
					"type": "uint256",
					"internalType": "uint256"
				}
			]
		},
		{
			"type": "error",
			"name": "REVLoans_FeeAmountExceedsNetPayout",
			"inputs": [
				{
					"name": "netAmountPaidOut",
					"type": "uint256",
					"internalType": "uint256"
				},
				{
					"name": "revFeeAmount",
					"type": "uint256",
					"internalType": "uint256"
				},
				{
					"name": "sourceFeeAmount",
					"type": "uint256",
					"internalType": "uint256"
				}
			]
		},
		{
			"type": "error",
			"name": "REVLoans_FeeOnTransferSourceUnsupported",
			"inputs": [
				{
					"name": "token",
					"type": "address",
					"internalType": "address"
				},
				{
					"name": "expectedAmount",
					"type": "uint256",
					"internalType": "uint256"
				},
				{
					"name": "creditedAmount",
					"type": "uint256",
					"internalType": "uint256"
				}
			]
		},
		{
			"type": "error",
			"name": "REVLoans_InvalidAccountingContext",
			"inputs": [
				{
					"name": "revnetId",
					"type": "uint256",
					"internalType": "uint256"
				},
				{
					"name": "token",
					"type": "address",
					"internalType": "address"
				}
			]
		},
		{
			"type": "error",
			"name": "REVLoans_InvalidPrepaidFeePercent",
			"inputs": [
				{
					"name": "prepaidFeePercent",
					"type": "uint256",
					"internalType": "uint256"
				},
				{
					"name": "min",
					"type": "uint256",
					"internalType": "uint256"
				},
				{
					"name": "max",
					"type": "uint256",
					"internalType": "uint256"
				}
			]
		},
		{
			"type": "error",
			"name": "REVLoans_LoanExpired",
			"inputs": [
				{
					"name": "timeSinceLoanCreated",
					"type": "uint256",
					"internalType": "uint256"
				},
				{
					"name": "loanLiquidationDuration",
					"type": "uint256",
					"internalType": "uint256"
				}
			]
		},
		{
			"type": "error",
			"name": "REVLoans_LoanExpired",
			"inputs": [
				{
					"name": "timeSinceLoanCreated",
					"type": "uint256",
					"internalType": "uint256"
				},
				{
					"name": "loanLiquidationDuration",
					"type": "uint256",
					"internalType": "uint256"
				}
			]
		},
		{
			"type": "error",
			"name": "REVLoans_LoanIdOverflow",
			"inputs": [
				{
					"name": "revnetId",
					"type": "uint256",
					"internalType": "uint256"
				},
				{
					"name": "loanNumber",
					"type": "uint256",
					"internalType": "uint256"
				},
				{
					"name": "maxLoanNumber",
					"type": "uint256",
					"internalType": "uint256"
				}
			]
		},
		{
			"type": "error",
			"name": "REVLoans_LoanOwnerChanged",
			"inputs": [
				{
					"name": "loanId",
					"type": "uint256",
					"internalType": "uint256"
				},
				{
					"name": "expectedOwner",
					"type": "address",
					"internalType": "address"
				},
				{
					"name": "actualOwner",
					"type": "address",
					"internalType": "address"
				}
			]
		},
		{
			"type": "error",
			"name": "REVLoans_NewBorrowAmountGreaterThanLoanAmount",
			"inputs": [
				{
					"name": "newBorrowAmount",
					"type": "uint256",
					"internalType": "uint256"
				},
				{
					"name": "loanAmount",
					"type": "uint256",
					"internalType": "uint256"
				}
			]
		},
		{
			"type": "error",
			"name": "REVLoans_NoMsgValueAllowed",
			"inputs": [
				{
					"name": "msgValue",
					"type": "uint256",
					"internalType": "uint256"
				},
				{
					"name": "token",
					"type": "address",
					"internalType": "address"
				}
			]
		},
		{
			"type": "error",
			"name": "REVLoans_NotEnoughCollateral",
			"inputs": [
				{
					"name": "collateralCountToRemove",
					"type": "uint256",
					"internalType": "uint256"
				},
				{
					"name": "loanCollateral",
					"type": "uint256",
					"internalType": "uint256"
				}
			]
		},
		{
			"type": "error",
			"name": "REVLoans_NothingToRepay",
			"inputs": [
				{
					"name": "repayBorrowAmount",
					"type": "uint256",
					"internalType": "uint256"
				},
				{
					"name": "collateralCountToReturn",
					"type": "uint256",
					"internalType": "uint256"
				}
			]
		},
		{
			"type": "error",
			"name": "REVLoans_OverMaxRepayBorrowAmount",
			"inputs": [
				{
					"name": "maxRepayBorrowAmount",
					"type": "uint256",
					"internalType": "uint256"
				},
				{
					"name": "repayBorrowAmount",
					"type": "uint256",
					"internalType": "uint256"
				}
			]
		},
		{
			"type": "error",
			"name": "REVLoans_OverflowAlert",
			"inputs": [
				{
					"name": "value",
					"type": "uint256",
					"internalType": "uint256"
				},
				{
					"name": "limit",
					"type": "uint256",
					"internalType": "uint256"
				}
			]
		},
		{
			"type": "error",
			"name": "REVLoans_PermitAllowanceNotEnough",
			"inputs": [
				{
					"name": "allowanceAmount",
					"type": "uint256",
					"internalType": "uint256"
				},
				{
					"name": "requiredAmount",
					"type": "uint256",
					"internalType": "uint256"
				}
			]
		},
		{
			"type": "error",
			"name": "REVLoans_ReallocatingMoreCollateralThanBorrowedAmountAllows",
			"inputs": [
				{
					"name": "newBorrowAmount",
					"type": "uint256",
					"internalType": "uint256"
				},
				{
					"name": "loanAmount",
					"type": "uint256",
					"internalType": "uint256"
				}
			]
		},
		{
			"type": "error",
			"name": "REVLoans_ReentrantLoanAction",
			"inputs": []
		},
		{
			"type": "error",
			"name": "REVLoans_SourceMismatch",
			"inputs": [
				{
					"name": "expectedToken",
					"type": "address",
					"internalType": "address"
				},
				{
					"name": "actualToken",
					"type": "address",
					"internalType": "address"
				}
			]
		},
		{
			"type": "error",
			"name": "REVLoans_UnderMinBorrowAmount",
			"inputs": [
				{
					"name": "minBorrowAmount",
					"type": "uint256",
					"internalType": "uint256"
				},
				{
					"name": "borrowAmount",
					"type": "uint256",
					"internalType": "uint256"
				}
			]
		},
		{
			"type": "error",
			"name": "REVLoans_ZeroBorrowAmount",
			"inputs": [
				{
					"name": "revnetId",
					"type": "uint256",
					"internalType": "uint256"
				},
				{
					"name": "collateralCount",
					"type": "uint256",
					"internalType": "uint256"
				}
			]
		},
		{
			"type": "error",
			"name": "REVLoans_ZeroCollateralLoanIsInvalid",
			"inputs": [
				{
					"name": "collateralCount",
					"type": "uint256",
					"internalType": "uint256"
				}
			]
		},
		{
			"type": "error",
			"name": "REVLoans_ZeroPrice",
			"inputs": [
				{
					"name": "revnetId",
					"type": "uint256",
					"internalType": "uint256"
				},
				{
					"name": "pricingCurrency",
					"type": "uint256",
					"internalType": "uint256"
				},
				{
					"name": "unitCurrency",
					"type": "uint256",
					"internalType": "uint256"
				}
			]
		},
		{
			"type": "error",
			"name": "SafeERC20FailedDecreaseAllowance",
			"inputs": [
				{
					"name": "spender",
					"type": "address",
					"internalType": "address"
				},
				{
					"name": "currentAllowance",
					"type": "uint256",
					"internalType": "uint256"
				},
				{
					"name": "requestedDecrease",
					"type": "uint256",
					"internalType": "uint256"
				}
			]
		},
		{
			"type": "error",
			"name": "SafeERC20FailedOperation",
			"inputs": [
				{
					"name": "token",
					"type": "address",
					"internalType": "address"
				}
			]
		}
	],
	"args": [
		"0x3Fcec3572e84b624477BcfF4E2CF1f7dEAb648F1",
		"0x130f5Dd2bD8805443Cf41755253D778a75a67f53",
		"0x7903a854aE91eAf635430D120a1a434085cEf297",
		"3",
		"0x4dc161eF837fF1C4485b08DDFcDB182F2157bE18",
		"0x000000000022D473030F116dDEE9F6B43aC78BA3",
		"0x3bA60b60933916a7C87D0860DcEE62a0CE34E3e2"
	],
	"solcInputHash": "2dc33400dc1b3810c5b6e88178184e39",
	"bytecode": "0x6101a080604052346104545760e08161658b803803809161002082856106fd565b8339810103126104545780516001600160a01b03811691908281036104545760208201516001600160a01b0381168103610454576040830151936001600160a01b03851685036104545760608401519261007c60808601610720565b60a0860151956001600160a01b03871687036104545760c061009e9101610720565b604051633d0d324560e21b815290602082600481885afa918215610460575f926106b9575b506040516100d26040826106fd565b6009815268524556204c6f616e7360b81b6020820152604051906100f76040836106fd565b6008825267122922ab2627a0a760c11b60208301528051906001600160401b0382116105c0575f5490600182811c921680156106af575b60208310146105a25781601f849311610642575b50602090601f83116001146105df575f926105d4575b50508160011b915f199060031b1c1916175f555b8051906001600160401b0382116105c05760015490600182811c921680156105b6575b60208310146105a25781601f849311610534575b50602090601f83116001146104ce575f926104c3575b50508160011b915f199060031b1c1916176001555b60805260a0526001600160a01b03169081156104b057600680546001600160a01b03198116841790915560405192906001600160a01b03167f8be0079c531659141344cd1fd0a4f28419497f9722a3daafe3b4186f6b6457e05f80a360c0526388bc2ef360e01b8152602081600481855afa908115610460575f9161046b575b509060049260209260e05261018052604051928380926307aaf34d60e21b82525afa908115610460575f9161041a575b5061012052610140526101005261016052604051615e569081610735823960805181818161093d01528181610bf70152614995015260a05181818161026a01528181611acf01528181611ee80152612c13015260c05181818161033801528181611378015281816118e401528181612d35015281816136a30152818161445e01528181614ff901526154e9015260e0518181816108f8015281816111cf0152614e80015261010051818181610b30015281816132690152613db4015261012051818181611b6c0152614772015261014051818181610ca80152818161118b0152818161167d015281816135c60152818161385301528181614e3c01528181614f20015261529f01526101605181818161058e01526145040152610180518181816110d6015281816115e701528181611bb0015281816129050152818161305e015281816135fb0152818161376c015281816137c701528181613820015281816138880152818161390d01528181613958015281816139b501528181613a5001528181613fd901528181614d7b01528181614f53015261520f0152f35b90506020813d602011610458575b81610435602093836106fd565b8101031261045457516001600160a01b0381168103610454575f61027e565b5f80fd5b3d9150610428565b6040513d5f823e3d90fd5b90506020813d6020116104a8575b81610486602093836106fd565b810103126104545751906001600160a01b03821682036104545790600461024e565b3d9150610479565b631e4fbdf760e01b5f525f60045260245ffd5b015190505f806101b9565b60015f9081528281209350601f198516905b81811061051c5750908460019594939210610504575b505050811b016001556101ce565b01515f1960f88460031b161c191690555f80806104f6565b929360206001819287860151815501950193016104e0565b60015f529091507fb10e2d527612073b26eecdfd717e6a320cf44b4afac2b0732d9fcbe2b7fa0cf6601f840160051c81019160208510610598575b90601f859493920160051c01905b81811061058a57506101a3565b5f815584935060010161057d565b909150819061056f565b634e487b7160e01b5f52602260045260245ffd5b91607f169161018f565b634e487b7160e01b5f52604160045260245ffd5b015190505f80610158565b5f8080528281209350601f198516905b81811061062a5750908460019594939210610612575b505050811b015f5561016c565b01515f1960f88460031b161c191690555f8080610605565b929360206001819287860151815501950193016105ef565b5f80529091507f290decd9548b62a8d60345a988386fc84ba6bc95484008f6362f93160ef3e563601f840160051c810191602085106106a5575b90601f859493920160051c01905b8181106106975750610142565b5f815584935060010161068a565b909150819061067c565b91607f169161012e565b9091506020813d6020116106f5575b816106d5602093836106fd565b8101031261045457516001600160a01b038116810361045457905f6100c3565b3d91506106c8565b601f909101601f19168101906001600160401b038211908210176105c057604052565b51906001600160a01b03821682036104545756fe60a0806040526004361015610011575b005b5f905f3560e01c90816301ffc9a7146121ad575080630582928e1461218657806306fdde0314612095578063081812fc14612059578063095ea7b314611f6157806309c5862114611c095780631217598414611bdf578063160668af14611b9b5780631eabcd3414611b575780632079a95614610d8057806323b872dd14610d685780632407497e14610ce85780632cc2cb6314610ccb57806331011c5414610c90578063325eefd914610c745780633e73ec3314610c5557806342842e0e14610c2b578063572b6c0514610bd65780636352211e14610ba55780636670798914610b7b5780636a57728f14610b5f5780636afdd85014610b1a57806370a0823114610ac7578063715018a614610a6a57806375e936b7146109b15780637792d45a1461096c5780637da0a8771461092757806388bc2ef3146108e25780638da5cb5b146108b957806395d89b41146107c0578063a0d586b61461070d578063a22cb46514610642578063a33853d1146105f1578063a4a0481a146105bd578063b5d2553314610578578063b88d4fde146104e3578063c87b56dd146104af578063d57999e21461042a578063e131fc0c14610401578063e4ba13c7146103bf578063e985e9c514610367578063ee0fc12114610322578063f2fde38b14610299578063f434c914146102545763f7631ba80361000f5734610251576040366003190112610251576040610223612268565b9160043581526007602052209060018060a01b03165f52602052602060ff60405f2054166040519015158152f35b80fd5b50346102515780600319360112610251576040517f00000000000000000000000000000000000000000000000000000000000000006001600160a01b03168152602090f35b5034610251576020366003190112610251576102b361223c565b6102bb61425d565b6001600160a01b0316801561030e57600680546001600160a01b0319811683179091556001600160a01b03167f8be0079c531659141344cd1fd0a4f28419497f9722a3daafe3b4186f6b6457e08380a380f35b631e4fbdf760e01b82526004829052602482fd5b50346102515780600319360112610251576040517f00000000000000000000000000000000000000000000000000000000000000006001600160a01b03168152602090f35b503461025157604036600319011261025157604061038361223c565b9161038c612268565b9260018060a01b031681526005602052209060018060a01b03165f52602052602060ff60405f2054166040519015158152f35b5034610251576020366003190112610251576103f2604060c0926103e161241c565b506004358152600c6020522061246d565b6103ff604051809261227e565bf35b50346102515780600319360112610251576008546040516001600160a01b039091168152602090f35b5034610251576020366003190112610251576004358152600d60205260408120604051918260208354918281520192825260208220915b8181106104905761048c8561047881870382612384565b6040519182916020835260208301906123c2565b0390f35b82546001600160a01b0316845260209093019260019283019201610461565b50346102515760203660031901126102515761048c6104cf600435612a72565b604051918291602083526020830190612218565b5034610251576080366003190112610251576104fd61223c565b610505612268565b906064359067ffffffffffffffff821161057457366023830112156105745781600401359284610534856123a6565b936105426040519586612384565b8585523660248783010111610570578561056d96602460209301838801378501015260443591612950565b80f35b5080fd5b8380fd5b50346102515780600319360112610251576040517f00000000000000000000000000000000000000000000000000000000000000006001600160a01b03168152602090f35b50346102515760803660031901126102515760406105e56064356044356024356004356128e3565b82519182526020820152f35b50346102515760603660031901126102515760ff815c1661063357805c60ff1916600117815d6106286044356024356004356126a4565b805c60ff1916815d80f35b6310a3aa7760e01b8152600490fd5b50346102515760403660031901126102515761065c61223c565b60243590811515809203610709576001600160a01b0361067a61496a565b169081156106f5576001600160a01b03169182156106e15760207f17307eab39ab6107e8899845ad3d59bd9653f200f220920489ca2b5937696c31918386526005825260408620855f52825260405f2060ff1981541660ff8316179055604051908152a380f35b630b61174360e31b84526004839052602484fd5b63a9fbf51f60e01b84526004849052602484fd5b8280fd5b50346102515760e0366003190112610251576004359061072b612268565b916084356001600160a01b03811681036107095760c435936001600160a01b03851685036105745761075b61241c565b5060ff845c166107b157936103ff926107979260e096600160ff19885c1617875d6107868385612b80565b60a435926064359160443591613f86565b9092805c60ff1916905d604051928352602083019061227e565b6310a3aa7760e01b8452600484fd5b50346102515780600319360112610251576040519080600154908160011c916001811680156108af575b60208410811461089b578386529081156108745750600114610817575b61048c846104cf81860382612384565b600181527fb10e2d527612073b26eecdfd717e6a320cf44b4afac2b0732d9fcbe2b7fa0cf6939250905b80821061085a575090915081016020016104cf82610807565b919260018160209254838588010152019101909291610841565b60ff191660208087019190915292151560051b850190920192506104cf9150839050610807565b634e487b7160e01b83526022600452602483fd5b92607f16926107ea565b50346102515780600319360112610251576006546040516001600160a01b039091168152602090f35b50346102515780600319360112610251576040517f00000000000000000000000000000000000000000000000000000000000000006001600160a01b03168152602090f35b50346102515780600319360112610251576040517f00000000000000000000000000000000000000000000000000000000000000006001600160a01b03168152602090f35b5034610251576040366003190112610251576040610988612268565b9160043581526009602052209060018060a01b03165f52602052602060405f2054604051908152f35b503461025157366003190160e081126105705760c01361025157604051906109d88261231b565b6004356001600160701b03811681036105705782526024356001600160701b038116810361057057602083015260443565ffffffffffff8116810361057057604083015260643561ffff811681036105705760608301526084359063ffffffff82168203610251576020610a6284846080820152610a54612252565b60a082015260c435906130e2565b604051908152f35b5034610251578060031936011261025157610a8361425d565b600680546001600160a01b0319811690915581906001600160a01b03167f8be0079c531659141344cd1fd0a4f28419497f9722a3daafe3b4186f6b6457e08280a380f35b5034610251576020366003190112610251576001600160a01b03610ae961223c565b168015610b06578160409160209352600383522054604051908152f35b6322718ad960e21b82526004829052602482fd5b50346102515780600319360112610251576040517f00000000000000000000000000000000000000000000000000000000000000006001600160a01b03168152602090f35b50346102515780600319360112610251576020604051600a8152f35b50346102515760203660031901126102515760406020916004358152600a83522054604051908152f35b5034610251576020366003190112610251576020610bc4600435612b3f565b6040516001600160a01b039091168152f35b5034610251576020366003190112610251576020610bf261223c565b6040517f00000000000000000000000000000000000000000000000000000000000000006001600160a01b039081169216919091148152f35b50346102515761056d610c3d366122e1565b9060405192610c4d602085612384565b858452612950565b503461025157806003193601126102515760206040516312cc03008152f35b5034610251578060031936011261025157602060405160198152f35b503461025157806003193601126102515760206040517f00000000000000000000000000000000000000000000000000000000000000008152f35b503461025157806003193601126102515760206040516101f48152f35b5034610251576020366003190112610251576004356001600160a01b0381169081900361057057610d1761425d565b600880546001600160a01b031916821790557fe7784d93cfbfa4408e19577e6cc0436f4dbb51214b70e100905dfce9def88c166020610d5461496a565b6040516001600160a01b039091168152a280f35b50346102515761056d610d7a366122e1565b916124fc565b50346114e35760e03660031901126114e3576004356044356001600160a01b0381166024358183036114e35760843592610db8612252565b90610dc161241c565b50610dca61241c565b5060ff5f5c16611b4857600160ff195f5c16175f5d5f868152600260205260409020546001600160a01b0390811694670de0b6b3a7640000880491610e0d61496a565b168681141580611a8f575b611a64575086611a55575b875f52600c6020526312cc0300610e4965ffffffffffff600160405f200154164261244c565b11611a1a57875f52600c602052600160405f20015460601c808203611a05575050610e73876142a4565b865f52600c60205260405f208054976001600160701b038960701c168087116119ef5786610ea09161244c565b986001600160701b03610ebd610eb586612cd3565b8c8787613024565b509116908181106119da575050610ed383614aca565b98895f52600c602052610f96600160405f20946001600160701b0380825416166001600160701b0319875416178655610f196001600160701b03825460701c16876133f7565b01805460018601805465ffffffffffff90921665ffffffffffff19831681178255835461ffff60301b1667ffffffffffffffff1990931617919091178155908054825463ffffffff60401b191663ffffffff60401b9091161782555481546001600160601b03166bffffffffffffffffffffffff19909116179055565b82546001600160701b038116918291906119d2565b818111156119c1576001600160701b0391610fc59161244c565b925b60701c1690818111156119ba57610fde828261244c565b915b81808211156119b157610ff29161244c565b945b6001600160701b038111611994576001600160701b0382116119765787546001600160701b0319166001600160701b039182161788556110359116876133f7565b806118c9575b5081156115b257506001600160a01b0360a06110568661246d565b01511690858d52600760205260408d2060018060a01b0383165f5260205260ff60405f20541615611529575b858d52600960205260408d2060018060a01b0383165f5260205260405f206110ab8282546124cc565b9055604051633a01714f60e01b8152600481018790526001600160a01b0383811660248301528e91907f000000000000000000000000000000000000000000000000000000000000000016606082604481845afa90811561151e576101248a8f9463ffffffff6040602096899384916114ef575b50015116936040519687958694631d23a08760e21b865260048601528b60248601528a604486015260648501528260848501523060a485015260c484015261010060e4840152816101048401525af19182156114ad57916114b9575b50604051630862026560e41b81527f0000000000000000000000000000000000000000000000000000000000000000600482018190526001600160a01b0385166024830152928f91602081806044810103817f00000000000000000000000000000000000000000000000000000000000000006001600160a01b03165afa9283156114ad578a928f928295611462575b506001600160a01b03851661145357505b86819682611431575b5050505050508082116114175761124892916112409161244c565b908a30613d4c565b8061131c575b50936112f393836112e96112df61131199958d6101c09f9c986103ff9e9b8e611277848d614b44565b818152600c60205260016040822082815501557f5f02528c707d424cd952288fd7decc0fc0b900a6afb93494b35e80e9220df5a66101006112b661496a565b604051906112c4828961342e565b60c082018e90526001600160a01b031660e0820152a461246d565b9760c435956124cc565b9160643591613f86565b93805c60ff1916905d6040519586526020860152604085019061227e565b61010083019061227e565b60208b91858352600a82526040832061133682825461244c565b905560c4604051809481936363fdc96f60e11b835289600484015260248301528c604483015260a060648301528060a483015280608483015260018060a01b037f0000000000000000000000000000000000000000000000000000000000000000165af1801561140c57936112e96112df61131199958d6101c09f9c986103ff9e9b978e6112f39c9888936113dd575b5050979b9e505050959950505093979a509361124e565b6113fe9060203d602011611405575b6113f68183612384565b810190613d3d565b505f6113c6565b503d6113ec565b6040513d8d823e3d90fd5b630a78c68760e31b8e5260045260245260448c905260648cfd5b61143a95615a36565b1561144b575b5f878c828681611225565b8d9150611440565b61145d91506157d9565b61121c565b9250935091506020813d6020116114a5575b8161148160209383612384565b8101031261057057516001600160a01b03811681036105705789918e91935f61120b565b3d9150611474565b604051903d90823e3d90fd5b90506020813d6020116114e7575b816114d460209383612384565b810103126114e357515f61117b565b5f80fd5b3d91506114c7565b611511915060603d606011611517575b6115098183612384565b810190612fd9565b5f61111f565b503d6114ff565b6040513d85823e3d90fd5b858d52600760205260408d2060018060a01b0383165f5260205260405f20600160ff19825416179055858d52600d60205260408d20805490600160401b82101561159e579061157d91600182018155615994565b81546001600160a01b0360039290921b91821b19169084901b179055611082565b634e487b7160e01b8f52604160045260248ffd5b8091506115c0575b50611248565b6001600160a01b0360a06115d38661246d565b015160405163507f146560e01b81529116917f00000000000000000000000000000000000000000000000000000000000000006001600160a01b0316918e90602081600481875afa80156118a157856020916116509385916118ac575b5060405163467f4cb960e01b8152938492839182918f8b600485016124d9565b03916001600160a01b03165afa9081156118a157829161186c575b50611677838686615be5565b604051907f00000000000000000000000000000000000000000000000000000000000000006020830152602082526116b0604083612384565b853b15610574576117069184918c604051809581948293639e6eec0560e01b845260048401528c60248401528a604484015286606484015260c060848401528660c484015260e060a484015260e4830190612218565b0391895af190811561151e578391611857575b505060405163507f146560e01b815291602083600481885afa801561184a578660209161176695849161181d575b508c60405180978194829363467f4cb960e01b84528c600485016124d9565b03916001600160a01b03165afa9081156114ad57906117e9575b61178a925061244c565b8181036117ce5750906117c8929160408f89815260096020522060018060a01b0384165f526020526117c160405f2091825461244c565b9055615c84565b5f6115ba565b8e906064928563a030273560e01b8452600452602452604452fd5b506020823d602011611815575b8161180360209383612384565b810103126114e35761178a9151611780565b3d91506117f6565b61183d9150833d8511611843575b6118358183612384565b810190615a17565b5f611747565b503d61182b565b50604051903d90823e3d90fd5b8161186191612384565b61057057815f611719565b9150506020813d602011611899575b8161188860209383612384565b810103126114e3578e90515f61166b565b3d915061187b565b6040513d84823e3d90fd5b6118c39150833d8511611843576118358183612384565b5f611630565b865f52600a60205260405f206118e08282546124cc565b90557f00000000000000000000000000000000000000000000000000000000000000006001600160a01b031690813b156114e3575f9060a48d83604051958694859363516a997360e11b855260048501528d60248501526044840152608060648401528160848401525af1801561196b571561103b57611963919d505f90612384565b5f9b5f61103b565b6040513d5f823e3d90fd5b50633459303960e01b5f526004526001600160701b0360245260445ffd5b633459303960e01b5f526004526001600160701b0360245260445ffd5b50505f94610ff4565b5f91610fe0565b50506001600160701b035f92610fc7565b835f93610fab565b631b5de0b760e31b5f5260045260245260445ffd5b8663273592f960e21b5f5260045260245260445ffd5b63f3c9f84760e01b5f5260045260245260445ffd5b875f52600c602052611a3b65ffffffffffff600160405f200154164261244c565b63045be49160e01b5f526004526312cc030060245260445ffd5b611a5f8287612b80565b610e23565b868360849260405192631326f75560e11b845260048401526024830152604482015260266064820152fd5b50604051631a45b42760e11b81526004810182905260248101889052604481018490526026606482015260016084820181905260a482015260208160c4817f00000000000000000000000000000000000000000000000000000000000000006001600160a01b03165afa90811561196b575f91611b0e575b5015610e18565b90506020813d602011611b40575b81611b2960209383612384565b810103126114e357611b3a90612b73565b5f611b07565b3d9150611b1c565b6310a3aa7760e01b5f5260045ffd5b346114e3575f3660031901126114e3576040517f00000000000000000000000000000000000000000000000000000000000000006001600160a01b03168152602090f35b346114e3575f3660031901126114e3576040517f00000000000000000000000000000000000000000000000000000000000000006001600160a01b03168152602090f35b346114e35760203660031901126114e3576004355f52600b602052602060405f2054604051908152f35b60a03660031901126114e3576044356064356004356001600160a01b03821682036114e3576084359167ffffffffffffffff83116114e35760a060031984360301126114e357611c5761241c565b5060ff5f5c16611b4857600160ff195f5c16175f5d83611c7561496a565b5f8481526002602052604090205490926001600160a01b03918216929091670de0b6b3a7640000860490611ca761496a565b168481141580611ea8575b611e7d5750855f52600c60205260405f209788546001600160701b038160701c1691828111611e6657611cf990611cf2611ceb86612cd3565b918561244c565b858d613024565b50918215611e57575b506001600160701b0316808211611e415790611d1d9161244c565b90811580611e39575b611e2357611d46611d3f83611d3a8c61246d565b6130e2565b80936124cc565b98611d5f60018201996004016024358b5460601c61315b565b5f898152600260205260409020549099906001600160a01b0316878103611e095750898b11611df257928a6103ff99989693611da5969360e09d99965460601c9a61347f565b939095838111611dcc575b5050505060ff195f5c165f5d604051928352602083019061227e565b611de993611dd99161244c565b916001600160a01b031630613d4c565b84808080611db0565b8a8a63c4d4ea0d60e01b5f5260045260245260445ffd5b878a630a00a28760e01b5f5260045260245260445260645ffd5b50635d15dcd160e01b5f5260045260245260445ffd5b508215611d26565b906395e361d560e01b5f5260045260245260445ffd5b93506001600160701b03611d02565b905063b9c5041760e01b5f5260045260245260445ffd5b608491859160405192631326f75560e11b845260048401526024830152604482015260276064820152fd5b50604051631a45b42760e11b81526004810182905260248101869052604481018390526027606482015260016084820181905260a482015260208160c4817f00000000000000000000000000000000000000000000000000000000000000006001600160a01b03165afa90811561196b575f91611f27575b5015611cb2565b90506020813d602011611f59575b81611f4260209383612384565b810103126114e357611f5390612b73565b8a611f20565b3d9150611f35565b346114e35760403660031901126114e357611f7a61223c565b602435611f8561496a565b611f8e82612b3f565b906001600160a01b031680151580612046575b8061201d575b61200b575081906001600160a01b0384811691167f8c5be1e5ebec7d5bd14f71427d1e84f3dd0314c0f7b2291e5b200ac8c7c3b9255f80a45f90815260046020526040902080546001600160a01b0319166001600160a01b03909216919091179055005b63a9fbf51f60e01b5f5260045260245ffd5b5060018060a01b0382165f52600560205260405f20815f5260205260ff60405f20541615611fa7565b506001600160a01b038216811415611fa1565b346114e35760203660031901126114e35760043561207681612b3f565b505f526004602052602060018060a01b0360405f205416604051908152f35b346114e3575f3660031901126114e3576040515f5f548060011c9060018116801561217c575b6020831081146121685782855290811561214457506001146120e8575b61048c836104cf81850382612384565b5f8080527f290decd9548b62a8d60345a988386fc84ba6bc95484008f6362f93160ef3e563939250905b80821061212a575090915081016020016104cf6120d8565b919260018160209254838588010152019101909291612112565b60ff191660208086019190915291151560051b840190910191506104cf90506120d8565b634e487b7160e01b5f52602260045260245ffd5b91607f16916120bb565b346114e35760203660031901126114e3576020604051670de0b6b3a7640000600435048152f35b346114e35760203660031901126114e3576004359063ffffffff60e01b82168092036114e3576020916380ac58cd60e01b8114908115612207575b81156121f6575b5015158152f35b6301ffc9a760e01b149050836121ef565b635b5e139f60e01b811491506121e8565b805180835260209291819084018484015e5f828201840152601f01601f1916010190565b600435906001600160a01b03821682036114e357565b60a435906001600160a01b03821682036114e357565b602435906001600160a01b03821682036114e357565b60a0906001600160701b0381511683526001600160701b03602082015116602084015265ffffffffffff604082015116604084015261ffff606082015116606084015263ffffffff608082015116608084015281600180821b0391015116910152565b60609060031901126114e3576004356001600160a01b03811681036114e357906024356001600160a01b03811681036114e3579060443590565b60c0810190811067ffffffffffffffff82111761233757604052565b634e487b7160e01b5f52604160045260245ffd5b610120810190811067ffffffffffffffff82111761233757604052565b6060810190811067ffffffffffffffff82111761233757604052565b90601f8019910116810190811067ffffffffffffffff82111761233757604052565b67ffffffffffffffff811161233757601f01601f191660200190565b90602080835192838152019201905f5b8181106123df5750505090565b82516001600160a01b03168452602093840193909201916001016123d2565b8115612408570490565b634e487b7160e01b5f52601260045260245ffd5b604051906124298261231b565b5f60a0838281528260208201528260408201528260608201528260808201520152565b9190820391821161245957565b634e487b7160e01b5f52601160045260245ffd5b9060405161247a8161231b565b60a0600182946001600160701b038154818116865260701c166020850152015465ffffffffffff8116604084015261ffff8160301c16606084015263ffffffff8160401c16608084015260601c910152565b9190820180921161245957565b6001600160a01b0391821681526020810192909252909116604082015260600190565b6001600160a01b0390911691908215612691578161251861496a565b5f828152600260205260409020546001600160a01b03908116959116801515806125fb575b5050846125c8575b805f52600360205260405f2060018154019055815f52600260205260405f20816001600160601b0360a01b825416179055847fddf252ad1be2c89b69c2b068fc378daa952ba7f163c4a11628f55a4df523b3ef5f80a46001600160a01b03168083036125b057505050565b6364283d7b60e01b5f5260045260245260445260645ffd5b5f82815260046020526040902080546001600160a01b0319169055845f52600360205260405f205f198154019055612545565b9192509080612642575b15612613579081849261253d565b83908561262d5750637e27328960e01b5f5260045260245ffd5b63177e802f60e01b5f5260045260245260445ffd5b508085148015612671575b8061260557505f848152600460205260409020546001600160a01b03168114612605565b50845f52600560205260405f20815f5260205260ff60405f20541661264d565b633250574960e11b5f525f60045260245ffd5b82156128de57670de0b6b3a763ffff8083116128c45782810381811161245957600181018091116124595784116128a257506126e192919261496a565b6001600160a01b0316925f5b8381106126fb575050505050565b61270581836124cc565b670de0b6b3a7640000840290848204670de0b6b3a764000014851517156124595761272f916124cc565b90815f52600c60205265ffffffffffff600160405f200154161561289957815f52600c6020528361276260405f2061246d565b5f848152600260205260409020549093906001600160a01b0316158015612870575b936001946128685760e07f51af47cbf242ef2515c87c8bc139538dbf8bb438541c7b8a24642eb618289cfe916127b9846142a4565b835f52600c6020525f876040822082815501556001600160701b0360208201511680612849575b506001600160701b038151168061280e575b50612800604051809261227e565b8a60c0820152a35b016126ed565b855f52600960205260405f20888060a01b0360a084015116898060a01b03165f5260205261284160405f2091825461244c565b90555f6127f2565b855f52600a60205261286060405f2091825461244c565b90555f6127e0565b505050612808565b50905065ffffffffffff604084015116906312cc03008201809211612459578591421115612784565b60019150612808565b9063042e078360e21b5f52600452670de0b6b3a764000060245260445260645ffd5b925063042e078360e21b5f5260045260245260445260645ffd5b505050565b90926128ee82612cd3565b926128f98484614342565b421061294557612933947f00000000000000000000000000000000000000000000000000000000000000006001600160a01b0316936143bf565b8181811115612940575091565b905091565b50505050505f905f90565b61295b8383836124fc565b61296361496a565b823b612971575b5050505050565b604051630a85bd0160e11b81526001600160a01b0391821660048201529181166024830152604482019390935260806064820152911691602090829081906129bd906084830190612218565b03815f865af15f9181612a2d575b506129f957506129d961312c565b805190816129f45782633250574960e11b5f5260045260245ffd5b602001fd5b6001600160e01b03191663757a42ff60e11b01612a1b57505f8080808061296a565b633250574960e11b5f5260045260245ffd5b9091506020813d602011612a6a575b81612a4960209383612384565b810103126114e357516001600160e01b0319811681036114e357905f6129cb565b3d9150612a3c565b6008546001600160a01b0316908115612b29575f90602460405180948193636d02a25560e11b835260048301525afa90811561196b575f91612ab2575090565b90503d805f833e612ac38183612384565b8101906020818303126114e35780519067ffffffffffffffff82116114e3570181601f820112156114e357805190612afa826123a6565b92612b086040519485612384565b828452602083830101116114e357815f9260208093018386015e8301015290565b5050604051612b39602082612384565b5f815290565b5f818152600260205260409020546001600160a01b0316908115612b61575090565b637e27328960e01b5f5260045260245ffd5b519081151582036114e357565b90612b8961496a565b6001600160a01b0392831692168083141580612bd3575b612ba957505050565b6084935060405192631326f75560e11b845260048401526024830152604482015260256064820152fd5b50604051631a45b42760e11b81526004810182905260248101849052604481018390526025606482015260016084820181905260a482015260208160c4817f00000000000000000000000000000000000000000000000000000000000000006001600160a01b03165afa90811561196b575f91612c52575b5015612ba0565b90506020813d602011612c84575b81612c6d60209383612384565b810103126114e357612c7e90612b73565b5f612c4b565b3d9150612c60565b519065ffffffffffff821682036114e357565b519063ffffffff821682036114e357565b519061ffff821682036114e357565b51906001600160a01b03821682036114e357565b5f610100604051612ce38161234b565b8281528260208201528260408201528260608201528260808201528260a08201528260c08201528260e08201520152604051906320c94b1360e11b825260048201526103808160248160018060a01b037f0000000000000000000000000000000000000000000000000000000000000000165afa90811561196b575f91612d68575090565b8091506103803d8111612fd2575b612d808183612384565b8101039061038082126114e35761012082126114e35760405191612da38361234b565b612dac82612c8c565b8352612dba60208301612c8c565b6020840152612dcb60408301612c8c565b6040840152612ddc60608301612c8c565b6060840152612ded60808301612c9f565b608084015260a08201516001600160701b03811681036114e35760a0840152612e1860c08301612c9f565b60c084015260e0820151906001600160a01b03821682036114e3576102609160e085015261010083015161010085015261011f1901126114e3576040519061026082019082821067ffffffffffffffff83111761233757610360612fcc9161024093604052612e8a6101208201612cb0565b8552612e996101408201612cb0565b6020860152612eab6101608201612c9f565b6040860152612ebd6101808201612b73565b6060860152612ecf6101a08201612b73565b6080860152612ee16101c08201612b73565b60a0860152612ef36101e08201612b73565b60c0860152612f056102008201612b73565b60e0860152612f176102208201612b73565b610100860152612f28848201612b73565b610120860152612f3b6102608201612b73565b610140860152612f4e6102808201612b73565b610160860152612f616102a08201612b73565b610180860152612f746102c08201612b73565b6101a0860152612f876102e08201612b73565b6101c0860152612f9a6103008201612b73565b6101e0860152612fad6103208201612b73565b610200860152612fc06103408201612cbf565b61022086015201612cb0565b91015290565b503d612d76565b908160609103126114e35760405190612ff182612368565b612ffa81612cbf565b8252602081015160ff811681036114e357602083015261301c90604001612c9f565b604082015290565b9092919283156130d85760019190910154604051633a01714f60e01b815260048101839052606091821c6024820152936001600160a01b037f000000000000000000000000000000000000000000000000000000000000000016929185604481865afa90811561196b576130b3955f926130b7575b5063ffffffff604060ff60208501511693015116926143bf565b9091565b6130d191925060603d606011611517576115098183612384565b905f613099565b505050505f905f90565b613102916130fc65ffffffffffff6040840151164261244c565b916149c3565b90565b356001600160a01b03811681036114e35790565b3565ffffffffffff811681036114e35790565b3d15613156573d9061313d826123a6565b9161314b6040519384612384565b82523d5f602084013e565b606090565b916001600160a01b0383169061eeee82146133ef57346133d857602081016001600160a01b0361318a82613105565b166131c1575b5050506131bc826131b76131a661310295614a84565b93826131b061496a565b3090613d4c565b614a84565b61244c565b91939091836001600160a01b036131d783613105565b16106133b1576131e690613105565b936131f360408401613119565b9461320060608501613119565b9060405196608088019188831067ffffffffffffffff8411176123375765ffffffffffff948593604052895260018060a01b031660208901521660408701521660608501526040519361325285612368565b8452306020850190815282356040860190815292907f00000000000000000000000000000000000000000000000000000000000000006001600160a01b03169061329a61496a565b92608081013590601e19813603018212156114e357019182359267ffffffffffffffff84116114e3576020019783360389136114e357813b156114e357604080516302b67b5760e41b81526001600160a01b03968716600482015291518051871660248401526020810151871660448401529081015165ffffffffffff9081166064840152606090910151166084820152915190931660a4820152935160c485015261010060e48501526101048401819052613102956131bc94925f928492839185916101249184918190848401378181018301849052601f01601f191681010301925af190816133a1575b5061339c5761339361312c565b505b925f613190565b613395565b5f6133ab91612384565b5f613386565b6133bb8491613105565b6335c2b2a360e21b5f5260018060a01b031660045260245260445ffd5b506365b03a4f60e11b5f523460045260245260445ffd5b505050503490565b80546dffffffffffffffffffffffffffff60701b191660709290921b6dffffffffffffffffffffffffffff60701b16919091179055565b600160a0916001600160701b038154818116865260701c166020850152015465ffffffffffff8116604084015261ffff8160301c16606084015263ffffffff8160401c16608084015260601c910152565b949795919290939661348f61241c565b50613499866142a4565b845460701c6001600160701b03168903613b7757506134b78461246d565b916134c061496a565b50600185015460601c988554956001600160701b0387168015155f14613b67576001600160701b0390975b60701c168015613b5f579a5b81546001600160e01b03191682555f978061373d575b508a8c8a9b9c9d9a999a613636575b50926135597fedb8051db9cec469f372f7885c120cda7fd17e705ba874d1b7ef096592e3690396936102209693868c9a976135c1575b505061246d565b9c8d9361357f61356761496a565b95613575604051809961227e565b60c088019061227e565b6101808601526101a08501526101c08401526001600160a01b039081166101e084015216610200820152a4818152600c60205260016040822082815501559190565b6136207f00000000000000000000000000000000000000000000000000000000000000008d838560018060a01b038b169260018060a01b037f000000000000000000000000000000000000000000000000000000000000000016615a36565b6135525761362f918630613d4c565b5f8f613552565b91929394959697985050878952600a6020526040892061365782825461244c565b9055604051906363fdc96f60e11b8252886004830152602482015260018060a01b038516604482015260a060648201528860a482015288608482015260208160c4818c60018060a01b037f0000000000000000000000000000000000000000000000000000000000000000165af1801561373257936135598b9998948a98948f7fedb8051db9cec469f372f7885c120cda7fd17e705ba874d1b7ef096592e36903999561022099613713575b509396995093965093965061351c565b61372b9060203d602011611405576113f68183612384565b505f613703565b6040513d8b823e3d90fd5b9b6001600160a01b0360a06137518561246d565b01511660805260405163507f146560e01b81526020816004817f00000000000000000000000000000000000000000000000000000000000000006001600160a01b03165afa801561196b57896020916137f8935f91613b42575b5060405163467f4cb960e01b81526080519094859384928392917f00000000000000000000000000000000000000000000000000000000000000006001600160a01b0316600485016124d9565b03916001600160a01b03165afa90811561196b578e905f92613b0c575b5060805161384d91907f00000000000000000000000000000000000000000000000000000000000000006001600160a01b0316615be5565b604051907f0000000000000000000000000000000000000000000000000000000000000000602083015260208252613886604083612384565b7f00000000000000000000000000000000000000000000000000000000000000006001600160a01b03163b156114e3578f915f91613909938d60405195869485938493639e6eec0560e01b855260048501526080516024850152604484015286606484015260c060848401528660c484015260e060a484015260e4830190612218565b03917f00000000000000000000000000000000000000000000000000000000000000006001600160a01b03165af1801561196b57613af7575b5060405163507f146560e01b81526020816004817f00000000000000000000000000000000000000000000000000000000000000006001600160a01b03165afa90811561140c578a6139e693926020928e91613ada575b5060405163467f4cb960e01b81526080519095869384928392917f00000000000000000000000000000000000000000000000000000000000000006001600160a01b0316600485016124d9565b03916001600160a01b03165afa801561140c578b90613aa6575b613a0a925061244c565b8d8103613a8957509a899a9b819d898b9c9b52600960205260408c2060018060a01b03608051165f52602052613a4560405f2091825461244c565b9055608051613a7d907f00000000000000000000000000000000000000000000000000000000000000006001600160a01b0316615c84565b9c9b9a5098979861350d565b63a030273560e01b8a5260805160045260248e9052604452606489fd5b506020823d602011613ad2575b81613ac060209383612384565b810103126114e357613a0a9151613a00565b3d9150613ab3565b613af19150833d8511611843576118358183612384565b5f613999565b613b04919a505f90612384565b5f985f613942565b9150506020813d602011613b3a575b81613b2860209383612384565b810103126114e357518d61384d613815565b3d9150613b1b565b613b599150833d8511611843576118358183612384565b5f6137ab565b505f9a6134f7565b506001600160701b035f976134eb565b97959693908592613b8785614aca565b978896875f52600c60205260405f209b85546001600160701b03166001600160701b03168d6001600160701b0319905416178d558c865460701c6001600160701b0316613bd3916133f7565b60018681018054918f01805465ffffffffffff90931665ffffffffffff19841681178255825461ffff60301b1667ffffffffffffffff19909416179290921782558a91908054825463ffffffff60401b191663ffffffff60401b9091161782555481546001600160601b03166bffffffffffffffffffffffff19909116179055613c5c91614b44565b8b878483835486613c6d838b61244c565b613c80906001600160701b03841661244c565b9160701c6001600160701b031690613c979161244c565b90613ca061496a565b94613caa96614c1b565b613cb261496a565b936040519586613cc19161342e565b613cce60c087018e61342e565b6101808601526101a08501526101c08401526001600160a01b039081166101e0840152166102008201527fedb8051db9cec469f372f7885c120cda7fd17e705ba874d1b7ef096592e369039061022090a45f52600c60205260405f205f81556001015f9055916131029061246d565b908160209103126114e3575190565b916001600160a01b03831690308214613f0d57604051636eb1769f60e11b81526001600160a01b039485166004820152306024820152931692602081604481875afa801561196b5785915f91613ed8575b501015613e5c576001600160a01b038411613e3b577f00000000000000000000000000000000000000000000000000000000000000006001600160a01b031690813b156114e3575f60849281956040519788968795631b63c28b60e11b8752600487015260018060a01b0316602486015260018060a01b0316604485015260648401525af1801561196b57613e2f5750565b5f613e3991612384565b565b633459303960e01b5f90815260048590526001600160a01b03602452604490fd5b919290604051926323b872dd60e01b5f5260045260018060a01b031660245260445260205f60648180865af19060015f5114821615613eb7575b6040525f60605215613ea55750565b635274afe760e01b5f5260045260245ffd5b906001811516613ecf57823b15153d15161690613e96565b503d5f823e3d90fd5b9150506020813d602011613f05575b81613ef460209383612384565b810103126114e3578490515f613d9d565b3d9150613ee7565b6001600160a01b0316939192505061eeee8314613f7b576040519163a9059cbb60e01b5f5260018060a01b031660045260245260205f60448180865af19060015f5114821615613f63575b60405215613ea55750565b906001811516613ecf57823b15153d15161690613f58565b90613e3992506155a6565b939196959694929094613f9761241c565b50811561424a57613fa785612cd3565b604051633a01714f60e01b8152600481018790526001600160a01b0388166024820152909890606081806044810103817f00000000000000000000000000000000000000000000000000000000000000006001600160a01b03165afa90811561196b575f9161422b575b50516001600160a01b0388811696911686900361421457601981108015614209575b6141ec576140418a88614342565b4281116141d657506140e560019a6140dd61405b8a614aca565b9a8b5f52600c60205261408a60405f209e8f019182906001600160601b0382549181199060601b169116179055565b805467ffffffffffffffff19164265ffffffffffff1617603086901b61ffff60301b1617815563ffffffff6140be8661560c565b825463ffffffff60401b1916911660401b63ffffffff60401b16179055565b85898d613024565b90818111156141ce5750925b83156141b7578084106141a0575094848785856141558c8f976141506131029f9e9d839d8b7f5e168ce129aacf6ac309399a2972d092f92bfacfdf7b29bb9925b1b3907e808d9e886101809f8795614148916156a6565b9b8c93614c1b565b614b44565b61415d61496a565b9461416b604051809861342e565b60c087015260e08601526101008501526101208401526001600160a01b0390811661014084015216610160820152a39261246d565b83906304aefef560e51b5f5260045260245260445ffd5b848863da9fdd9360e01b5f5260045260245260445ffd5b9050926140f1565b636e2d631760e11b5f526004524260245260445ffd5b633a54873960e21b5f5260045260196024526101f460445260645ffd5b506101f48111614033565b8587630dde00ad60e31b5f5260045260245260445ffd5b614244915060603d606011611517576115098183612384565b5f614011565b50635540b6e960e11b5f5260045260245ffd5b6006546001600160a01b039081169061427461496a565b160361427c57565b61428461496a565b63118cdaa760e01b5f9081526001600160a01b0391909116600452602490fd5b5f818152600260205260409020546001600160a01b0316801590811561430f575b5f83815260026020526040812080546001600160a01b03191690558390827fddf252ad1be2c89b69c2b068fc378daa952ba7f163c4a11628f55a4df523b3ef8280a450612b615750565b5f83815260046020526040902080546001600160a01b0319169055805f52600360205260405f205f1981540190556142c5565b6101009091015160521c6001600160a01b03169081156143b957602090602460405180948193634fa9af6960e01b835260048301525afa90811561196b575f9161438a575090565b90506020813d6020116143b1575b816143a560209383612384565b810103126114e3575190565b3d9150614398565b50505f90565b919394906040928351936143d38186612384565b600185526020850197601f198201368a37855115614956576001600160a01b0316978890528051602092906144088482612384565b5f81525f36813786515f9788925b82841061489d575050505085985f90825f52600d8552835f20905f918054905b81841061465f5750508451634da781a960e01b815260048101859052929150859050826024817f00000000000000000000000000000000000000000000000000000000000000006001600160a01b03165afa918215614655575f92614624575b506144af6144b592845f52600a8752855f2054906124cc565b976124cc565b958698610100829701946001808751604f1c16036144f3575b50505050506144e7945061ffff905160141c16926159b7565b81811115612940575091565b929791949650929760018060a01b037f0000000000000000000000000000000000000000000000000000000000000000169389519163622c574160e11b8352896004840152602483015260448201528281606481875afa90811561461a579083915f916145e9575b5061456691926124cc565b96602489518095819363139db5a960e31b835260048301525afa9687156145e057505f966145ac575b50506145a16144e79561ffff926124cc565b92905f8080806144ce565b90809650813d83116145d9575b6145c38183612384565b810103126114e3579351936145a161ffff61458f565b503d6145b9565b513d5f823e3d90fd5b82819392503d8311614613575b6146008183612384565b810103126114e35751829061456661455b565b503d6145f6565b89513d5f823e3d90fd5b91508482813d831161464e575b61463b8183612384565b810103126114e3579051906144af614496565b503d614631565b84513d5f823e3d90fd5b9091929361466d8583615994565b90545f88815260098b5289812060039390931b9190911c6001600160a01b0316808252918a5288902054908115614892578851633a01714f60e01b8152600481018990526001600160a01b0391909116602482015290606082604481895afa91821561461a578f908f928b915f95614872575b50848d01805160ff168481111561483557509061470c6147078560ff61471295511661244c565b6159a9565b906123fe565b935b019063ffffffff825116928084145f146147435750505050614738906001926124cc565b945b01929190614436565b8b51631df139fd60e11b8152600481018c90526024810194909452604484015260648301529091908a836084817f00000000000000000000000000000000000000000000000000000000000000006001600160a01b03165afa92831561482b575f936147fc575b5082156147d95750916147cd8f926001946147c76147d3956159a9565b906158f4565b906124cc565b9461473a565b8e8963ffffffff835116906363152b8f60e11b5f5260045260245260445260645ffd5b9092508a81813d8311614824575b6148148183612384565b810103126114e35751915f6147aa565b503d61480a565b8a513d5f823e3d90fd5b9194919392905082841015614868575050614853916147079161244c565b80820291820403612459578e898f9293614714565b9192509293614714565b61488b91955060603d8111611517576115098183612384565b935f6146e0565b50509360019061473a565b9091929882518a1015614956578b878c818d60051b87010160018060a01b039051168951808095819463b5c104f360e01b83528c6004840152608060248401526148ea608484018b6123c2565b916044840152606483015203915afa90811561494c575f9161491e575b50614914906001926124cc565b9901929190614416565b90508781813d8311614945575b6149358183612384565b810103126114e357516001614907565b503d61492b565b87513d5f823e3d90fd5b634e487b7160e01b5f52603260045260245ffd5b601436101580614991575b1561498d5760131936013681116114e3573560601c90565b3390565b50337f00000000000000000000000000000000000000000000000000000000000000006001600160a01b031614614975565b906080820163ffffffff815116841115614a7c576312cc03008411614a615763ffffffff614a25614a1a614a0a6001600160701b0387511661ffff606089015116906156a6565b6001600160701b0387511661244c565b95828451169061244c565b9151166312cc0300036312cc030081116124595761310294614a52614a58926001600160701b0394615733565b906156a6565b925116916158f4565b8363045be49160e01b5f526004526312cc030060245260445ffd5b505050505f90565b6001600160a01b031661eeee8103614a9b57504790565b6020602491604051928380926370a0823160e01b82523060048301525afa90811561196b575f9161438a575090565b805f52600b60205260405f20546001810180911161245957670de0b6b3a763ffff808211614b2b5750815f52600b6020528060405f2055670de0b6b3a7640000820291808304670de0b6b3a7640000149015171561245957613102916124cc565b9163042e078360e21b5f5260045260245260445260645ffd5b6001600160a01b0316908115612691575f818152600260205260409020546001600160a01b03168015159290919083614be8575b805f52600360205260405f2060018154019055815f52600260205260405f20816001600160601b0360a01b825416179055827fddf252ad1be2c89b69c2b068fc378daa952ba7f163c4a11628f55a4df523b3ef5f80a450614bd557565b6339e3563760e11b5f525f60045260245ffd5b5f82815260046020526040902080546001600160a01b0319169055825f52600360205260405f205f198154019055614b78565b90929394956001820154915f9260601c958154906001600160701b038216938487115f1461559e5786614c4e868261244c565b955b8181111561558d576001600160701b0391614c6a9161244c565b935b60701c16918281111561558657614c83838261244c565b925b818082111561557d57614c979161244c565b975b6001600160701b038111611994576001600160701b0382116119765785546001600160701b0319166001600160701b03918216178655614cda9116856133f7565b816154ce575b505082156151d757506001600160a01b039060a090614cfe9061246d565b0151169084835260076020526040832060018060a01b0383165f5260205260ff60405f2054161561514e575b84835260096020526040832060018060a01b0383165f5260205260405f20614d538282546124cc565b9055604051633a01714f60e01b8152600481018690526001600160a01b0383811660248301527f0000000000000000000000000000000000000000000000000000000000000000169190606081604481865afa908115615124578a61012463ffffffff6040899695602095889161512f575b500151166040519586938492631d23a08760e21b84528d60048501528a602485015287604485015260648401528160848401523060a484015260018060a01b0316978860c484015261010060e4840152816101048401525af19182156151245785926150f0575b50604051630862026560e41b81527f0000000000000000000000000000000000000000000000000000000000000000600482018190526001600160a01b0386166024830152939091602083806044810103817f00000000000000000000000000000000000000000000000000000000000000006001600160a01b03165afa9283156150e557908992918894615098575b506001600160a01b03841661508a5750865b86819682615068575b505050505050614ee788836124cc565b9181831161504d5750614f069291614efe9161244c565b908830613d4c565b81614f96575b505082614f1a575b50505050565b614f78907f0000000000000000000000000000000000000000000000000000000000000000906001600160a01b038681169186918691907f000000000000000000000000000000000000000000000000000000000000000016615a36565b15614f84575b80614f14565b614f8e9230613d4c565b5f8080614f7e565b828152600a60205260408120614fad83825461244c565b9055604051916363fdc96f60e11b8352836004840152602483015260018060a01b038616604483015260a060648301528060a483015280608483015260208260c4818460018060a01b037f0000000000000000000000000000000000000000000000000000000000000000165af19081156114ad575061502e575b80614f0c565b6150469060203d602011611405576113f68183612384565b505f615028565b888591606493630a78c68760e31b8452600452602452604452fd5b61507195615a36565b15615082575b5f8681808681614ed7565b839150615077565b615093906157d9565b614ece565b91925092506020813d6020116150dd575b816150b660209383612384565b810103126150d957516001600160a01b03811681036150d957908891925f614ebc565b8680fd5b3d91506150a9565b6040513d89823e3d90fd5b9091506020813d60201161511c575b8161510c60209383612384565b810103126114e35751905f614e2c565b3d91506150ff565b6040513d87823e3d90fd5b615148915060603d606011611517576115098183612384565b5f614dc5565b84835260076020526040832060018060a01b0383165f5260205260405f20600160ff19825416179055848352600d60205260408320805490600160401b8210156151c357906151a291600182018155615994565b81546001600160a01b0360039290921b91821b19169084901b179055614d2a565b634e487b7160e01b85526041600452602485fd5b8092506151e6575b5050614f06565b6001600160a01b039060a0906151fb9061246d565b015160405163507f146560e01b81529116917f00000000000000000000000000000000000000000000000000000000000000006001600160a01b031691602081600481865afa9081156151245785916154af575b506020604051809263467f4cb960e01b82528180615272898d8a600485016124d9565b03916001600160a01b03165afa90811561512457859161547d575b50615299828585615be5565b604051907f00000000000000000000000000000000000000000000000000000000000000006020830152602082526152d2604083612384565b843b156150d9576153289187918a604051809581948293639e6eec0560e01b845260048401528b602484015289604484015286606484015260c060848401528660c484015260e060a484015260e4830190612218565b0391885af1801561543c57908691615464575b505060405163507f146560e01b8152602081600481875afa90811561543c578561538a93926020928991615447575b5060405163467f4cb960e01b8152948592839182918e8b600485016124d9565b03916001600160a01b03165afa801561543c578690615408575b6153ae925061244c565b8181036153ec5750906153e5929186855260096020526040852060018060a01b0384165f526020526117c160405f2091825461244c565b5f806151df565b63a030273560e01b855260049390935260245250604452606490fd5b506020823d602011615434575b8161542260209383612384565b810103126114e3576153ae91516153a4565b3d9150615415565b6040513d88823e3d90fd5b61545e9150833d8511611843576118358183612384565b5f61536a565b8161546e91612384565b61547957845f61533b565b8480fd5b90506020813d6020116154a7575b8161549860209383612384565b810103126114e357515f61528d565b3d915061548b565b6154c8915060203d602011611843576118358183612384565b5f61524f565b875f52600a60205260405f206154e58382546124cc565b90557f00000000000000000000000000000000000000000000000000000000000000006001600160a01b031691823b156114e35760a45f9283604051958694859363516a997360e11b855260018060a01b031660048501528d60248501526044840152608060648401528160848401525af1801561196b57615568575b80614ce0565b6155759194505f90612384565b5f925f615562565b50505f97614c99565b5f92614c85565b50506001600160701b035f93614c6c565b865f95614c50565b8147106155f5575f8080938193826040516155c2602082612384565b526001600160a01b03165af1156155d557565b3d156155e6576040513d5f823e3d90fd5b63d6bda27560e01b5f5260045ffd5b504763cf47918160e01b5f5260045260245260445ffd5b905f5f196312cc030084096312cc030084029182808310920391808303921461569b576101f482101561567957506101f46312cc03007fac083126e978d4fdf3b645a1cac083126e978d4fdf3b645a1cac083126e978d594950990828211900360fe1b910360021c170290565b630c740aef60e31b815260048590526312cc03006024526101f4604452606490fd5b50506101f490049150565b91905f905f198185099080850292838084109303928084039314615726576103e883101561570a57506103e8907fac083126e978d4fdf3b645a1cac083126e978d4fdf3b645a1cac083126e978d594950990828211900360fd1b910360031c170290565b60649186630c740aef60e31b83526004526024526103e8604452fd5b5050506103e89192500490565b5f196103e88209916103e88202918280851094039380850394146157cd57818410156157b2576103e8829109600182190182168092046002816003021880820260020302808202600203028082026002030280820260020302808202600203028091026002030293600183805f03040190848311900302920304170290565b630c740aef60e31b5f526004526103e860245260445260645ffd5b509061310292506123fe565b905f5f19600a8409600a84029182808310920391808303921461585c576103e882101561583d57506103e8600a7fac083126e978d4fdf3b645a1cac083126e978d4fdf3b645a1cac083126e978d594950990828211900360fd1b910360031c170290565b630c740aef60e31b81526004859052600a6024526103e8604452606490fd5b50506103e890049150565b91905f905f1981850990808502928380841093039280840393146158e7576127108310156158cb5750612710907fbc01a36e2eb1c432ca57a786c226809d495182a9930be0ded288ce703afb7e9194950990828211900360fc1b910360041c170290565b60649186630c740aef60e31b8352600452602452612710604452fd5b5050506127109192500490565b90915f198383099280830292838086109503948086039514615987578285101561596f5790829109600182190182168092046002816003021880820260020302808202600203028082026002030280820260020302808202600203028091026002030293600183805f03040190848311900302920304170290565b630c740aef60e31b5f5260045260245260445260645ffd5b50509061310292506123fe565b8054821015614956575f5260205f2001905f90565b604d811161245957600a0a90565b9291928115614a7c576127108314614a7c5783821015615a105783826159dc926158f4565b918015615a095780612710039061271082116124595761310294615a03936147cd926158f4565b90615867565b5050905090565b9250505090565b908160209103126114e357516001600160a01b03811681036114e35790565b946020615ad49185989694935f9860018060a01b031695615a58888789615be5565b916040519385850152848452615a6f604085612384565b60405163fef4325760e01b815260048101919091526001600160a01b0387811660248301819052604483019a909a5290911660648201525f6084820181905260e060a483015260e482015261010060c482015293849283918291610104830190612218565b0391875af19081615bb6575b50615ba45750615aee61312c565b5061eeee8203615b00575b5050909150565b604051636eb1769f60e11b81523060048201526001600160a01b0382166024820152602081604481865afa90811561196b575f91615b72575b50858110615b585794615b4f9394950391615ce6565b81905f80615af9565b859163e570110f60e01b5f5260045260245260445260645ffd5b90506020813d602011615b9c575b81615b8d60209383612384565b810103126114e357515f615b39565b3d9150615b80565b91509350613e39919250600193615c84565b6020813d602011615bdd575b81615bcf60209383612384565b810103126114e35751615ae0565b3d9150615bc2565b6001600160a01b039091169061eeee8214615c7f57604051636eb1769f60e11b81523060048201526001600160a01b0382166024820152602081604481865afa90811561196b575f91615c4b575b50615c4793615c41916124cc565b91615ce6565b5f90565b90506020813d602011615c77575b81615c6660209383612384565b810103126114e35751615c47615c33565b3d9150615c59565b505090565b6001600160a01b039091169061eeee8214615ce257615ca45f8284615d5d565b15615cad575050565b615cb78183615daa565b15615ccf575f615cc79183615e0e565b15613ea55750565b50635274afe760e01b5f5260045260245ffd5b5050565b9190615cf3828285615d5d565b15615cfd57505050565b615d078184615daa565b15615d3f5790615d179183615e0e565b15615d1f5750565b635274afe760e01b5f9081526001600160a01b0391909116600452602490fd5b635274afe760e01b5f9081526001600160a01b038416600452602490fd5b92916040519163095ea7b360e01b5f5260018060a01b031660045260245260205f60448180875af19260015f5114841615615d99575b50604052565b3d15903b151516909216915f615d93565b60405163095ea7b360e01b5f9081526001600160a01b03909316600452602483905290929160209060448180875af19260015f5114841615615dec5750604052565b60018492941516615e05573b15153d151616915f615d93565b833d5f823e3d90fd5b92916040519163095ea7b360e01b5f5260018060a01b031660045260245260205f60448180875af19260015f5114841615615dec575060405256fea164736f6c634300081c000a",
	"gitCommit": "npm:@rev-net/core-v6@1.0.1",
	"gitDirty": false,
	"history": []
}