{
	"format": "sphinx-sol-ct-artifact-1",
	"address": "0x28d3a149498f2b7e5b5df87bebaee667fcb805cb",
	"sourceName": "node_modules/@rev-net/core-v6/src/REVOwner.sol",
	"contractName": "REVOwner",
	"chainId": "0x66eee",
	"abi": [
		{
			"type": "constructor",
			"inputs": [
				{
					"name": "buybackHook",
					"type": "address",
					"internalType": "contract IJBBuybackHookRegistry"
				},
				{
					"name": "directory",
					"type": "address",
					"internalType": "contract IJBDirectory"
				},
				{
					"name": "feeRevnetId",
					"type": "uint256",
					"internalType": "uint256"
				},
				{
					"name": "suckerRegistry",
					"type": "address",
					"internalType": "contract IJBSuckerRegistry"
				},
				{
					"name": "loans",
					"type": "address",
					"internalType": "contract IREVLoans"
				},
				{
					"name": "deployerAddress",
					"type": "address",
					"internalType": "address"
				}
			],
			"stateMutability": "nonpayable"
		},
		{
			"type": "function",
			"name": "BUYBACK_HOOK",
			"inputs": [],
			"outputs": [
				{
					"name": "",
					"type": "address",
					"internalType": "contract IJBBuybackHookRegistry"
				}
			],
			"stateMutability": "view"
		},
		{
			"type": "function",
			"name": "CONTROLLER",
			"inputs": [],
			"outputs": [
				{
					"name": "",
					"type": "address",
					"internalType": "contract IJBController"
				}
			],
			"stateMutability": "view"
		},
		{
			"type": "function",
			"name": "DIRECTORY",
			"inputs": [],
			"outputs": [
				{
					"name": "",
					"type": "address",
					"internalType": "contract IJBDirectory"
				}
			],
			"stateMutability": "view"
		},
		{
			"type": "function",
			"name": "FEE_REVNET_ID",
			"inputs": [],
			"outputs": [
				{
					"name": "",
					"type": "uint256",
					"internalType": "uint256"
				}
			],
			"stateMutability": "view"
		},
		{
			"type": "function",
			"name": "LOANS",
			"inputs": [],
			"outputs": [
				{
					"name": "",
					"type": "address",
					"internalType": "contract IREVLoans"
				}
			],
			"stateMutability": "view"
		},
		{
			"type": "function",
			"name": "PERMISSIONS",
			"inputs": [],
			"outputs": [
				{
					"name": "",
					"type": "address",
					"internalType": "contract IJBPermissions"
				}
			],
			"stateMutability": "view"
		},
		{
			"type": "function",
			"name": "PROJECTS",
			"inputs": [],
			"outputs": [
				{
					"name": "",
					"type": "address",
					"internalType": "contract IJBProjects"
				}
			],
			"stateMutability": "view"
		},
		{
			"type": "function",
			"name": "SUCKER_REGISTRY",
			"inputs": [],
			"outputs": [
				{
					"name": "",
					"type": "address",
					"internalType": "contract IJBSuckerRegistry"
				}
			],
			"stateMutability": "view"
		},
		{
			"type": "function",
			"name": "afterCashOutRecordedWith",
			"inputs": [
				{
					"name": "context",
					"type": "tuple",
					"internalType": "struct JBAfterCashOutRecordedContext",
					"components": [
						{
							"name": "holder",
							"type": "address",
							"internalType": "address"
						},
						{
							"name": "projectId",
							"type": "uint256",
							"internalType": "uint256"
						},
						{
							"name": "rulesetId",
							"type": "uint256",
							"internalType": "uint256"
						},
						{
							"name": "cashOutCount",
							"type": "uint256",
							"internalType": "uint256"
						},
						{
							"name": "reclaimedAmount",
							"type": "tuple",
							"internalType": "struct JBTokenAmount",
							"components": [
								{
									"name": "token",
									"type": "address",
									"internalType": "address"
								},
								{
									"name": "decimals",
									"type": "uint8",
									"internalType": "uint8"
								},
								{
									"name": "currency",
									"type": "uint32",
									"internalType": "uint32"
								},
								{
									"name": "value",
									"type": "uint256",
									"internalType": "uint256"
								}
							]
						},
						{
							"name": "forwardedAmount",
							"type": "tuple",
							"internalType": "struct JBTokenAmount",
							"components": [
								{
									"name": "token",
									"type": "address",
									"internalType": "address"
								},
								{
									"name": "decimals",
									"type": "uint8",
									"internalType": "uint8"
								},
								{
									"name": "currency",
									"type": "uint32",
									"internalType": "uint32"
								},
								{
									"name": "value",
									"type": "uint256",
									"internalType": "uint256"
								}
							]
						},
						{
							"name": "cashOutTaxRate",
							"type": "uint256",
							"internalType": "uint256"
						},
						{
							"name": "beneficiary",
							"type": "address",
							"internalType": "address payable"
						},
						{
							"name": "hookMetadata",
							"type": "bytes",
							"internalType": "bytes"
						},
						{
							"name": "cashOutMetadata",
							"type": "bytes",
							"internalType": "bytes"
						}
					]
				}
			],
			"outputs": [],
			"stateMutability": "payable"
		},
		{
			"type": "function",
			"name": "amountToAutoIssue",
			"inputs": [
				{
					"name": "revnetId",
					"type": "uint256",
					"internalType": "uint256"
				},
				{
					"name": "stageId",
					"type": "uint256",
					"internalType": "uint256"
				},
				{
					"name": "beneficiary",
					"type": "address",
					"internalType": "address"
				}
			],
			"outputs": [
				{
					"name": "count",
					"type": "uint256",
					"internalType": "uint256"
				}
			],
			"stateMutability": "view"
		},
		{
			"type": "function",
			"name": "autoIssueFor",
			"inputs": [
				{
					"name": "revnetId",
					"type": "uint256",
					"internalType": "uint256"
				},
				{
					"name": "stageId",
					"type": "uint256",
					"internalType": "uint256"
				},
				{
					"name": "beneficiary",
					"type": "address",
					"internalType": "address"
				}
			],
			"outputs": [],
			"stateMutability": "nonpayable"
		},
		{
			"type": "function",
			"name": "beforeCashOutRecordedWith",
			"inputs": [
				{
					"name": "context",
					"type": "tuple",
					"internalType": "struct JBBeforeCashOutRecordedContext",
					"components": [
						{
							"name": "terminal",
							"type": "address",
							"internalType": "address"
						},
						{
							"name": "holder",
							"type": "address",
							"internalType": "address"
						},
						{
							"name": "projectId",
							"type": "uint256",
							"internalType": "uint256"
						},
						{
							"name": "rulesetId",
							"type": "uint256",
							"internalType": "uint256"
						},
						{
							"name": "cashOutCount",
							"type": "uint256",
							"internalType": "uint256"
						},
						{
							"name": "totalSupply",
							"type": "uint256",
							"internalType": "uint256"
						},
						{
							"name": "surplus",
							"type": "tuple",
							"internalType": "struct JBTokenAmount",
							"components": [
								{
									"name": "token",
									"type": "address",
									"internalType": "address"
								},
								{
									"name": "decimals",
									"type": "uint8",
									"internalType": "uint8"
								},
								{
									"name": "currency",
									"type": "uint32",
									"internalType": "uint32"
								},
								{
									"name": "value",
									"type": "uint256",
									"internalType": "uint256"
								}
							]
						},
						{
							"name": "scopeCashOutsToLocalBalances",
							"type": "bool",
							"internalType": "bool"
						},
						{
							"name": "cashOutTaxRate",
							"type": "uint256",
							"internalType": "uint256"
						},
						{
							"name": "beneficiaryIsFeeless",
							"type": "bool",
							"internalType": "bool"
						},
						{
							"name": "metadata",
							"type": "bytes",
							"internalType": "bytes"
						}
					]
				}
			],
			"outputs": [
				{
					"name": "cashOutTaxRate",
					"type": "uint256",
					"internalType": "uint256"
				},
				{
					"name": "cashOutCount",
					"type": "uint256",
					"internalType": "uint256"
				},
				{
					"name": "totalSupply",
					"type": "uint256",
					"internalType": "uint256"
				},
				{
					"name": "effectiveSurplusValue",
					"type": "uint256",
					"internalType": "uint256"
				},
				{
					"name": "hookSpecifications",
					"type": "tuple[]",
					"internalType": "struct JBCashOutHookSpecification[]",
					"components": [
						{
							"name": "hook",
							"type": "address",
							"internalType": "contract IJBCashOutHook"
						},
						{
							"name": "noop",
							"type": "bool",
							"internalType": "bool"
						},
						{
							"name": "amount",
							"type": "uint256",
							"internalType": "uint256"
						},
						{
							"name": "metadata",
							"type": "bytes",
							"internalType": "bytes"
						}
					]
				}
			],
			"stateMutability": "view"
		},
		{
			"type": "function",
			"name": "beforePayRecordedWith",
			"inputs": [
				{
					"name": "context",
					"type": "tuple",
					"internalType": "struct JBBeforePayRecordedContext",
					"components": [
						{
							"name": "terminal",
							"type": "address",
							"internalType": "address"
						},
						{
							"name": "payer",
							"type": "address",
							"internalType": "address"
						},
						{
							"name": "amount",
							"type": "tuple",
							"internalType": "struct JBTokenAmount",
							"components": [
								{
									"name": "token",
									"type": "address",
									"internalType": "address"
								},
								{
									"name": "decimals",
									"type": "uint8",
									"internalType": "uint8"
								},
								{
									"name": "currency",
									"type": "uint32",
									"internalType": "uint32"
								},
								{
									"name": "value",
									"type": "uint256",
									"internalType": "uint256"
								}
							]
						},
						{
							"name": "projectId",
							"type": "uint256",
							"internalType": "uint256"
						},
						{
							"name": "rulesetId",
							"type": "uint256",
							"internalType": "uint256"
						},
						{
							"name": "beneficiary",
							"type": "address",
							"internalType": "address"
						},
						{
							"name": "weight",
							"type": "uint256",
							"internalType": "uint256"
						},
						{
							"name": "reservedPercent",
							"type": "uint256",
							"internalType": "uint256"
						},
						{
							"name": "metadata",
							"type": "bytes",
							"internalType": "bytes"
						}
					]
				}
			],
			"outputs": [
				{
					"name": "weight",
					"type": "uint256",
					"internalType": "uint256"
				},
				{
					"name": "hookSpecifications",
					"type": "tuple[]",
					"internalType": "struct JBPayHookSpecification[]",
					"components": [
						{
							"name": "hook",
							"type": "address",
							"internalType": "contract IJBPayHook"
						},
						{
							"name": "noop",
							"type": "bool",
							"internalType": "bool"
						},
						{
							"name": "amount",
							"type": "uint256",
							"internalType": "uint256"
						},
						{
							"name": "metadata",
							"type": "bytes",
							"internalType": "bytes"
						}
					]
				}
			],
			"stateMutability": "view"
		},
		{
			"type": "function",
			"name": "burnHeldTokensOf",
			"inputs": [
				{
					"name": "revnetId",
					"type": "uint256",
					"internalType": "uint256"
				}
			],
			"outputs": [],
			"stateMutability": "nonpayable"
		},
		{
			"type": "function",
			"name": "cashOutDelayOf",
			"inputs": [
				{
					"name": "revnetId",
					"type": "uint256",
					"internalType": "uint256"
				}
			],
			"outputs": [
				{
					"name": "cashOutDelay",
					"type": "uint256",
					"internalType": "uint256"
				}
			],
			"stateMutability": "view"
		},
		{
			"type": "function",
			"name": "deployer",
			"inputs": [],
			"outputs": [
				{
					"name": "",
					"type": "address",
					"internalType": "contract IREVDeployer"
				}
			],
			"stateMutability": "view"
		},
		{
			"type": "function",
			"name": "hasMintPermissionFor",
			"inputs": [
				{
					"name": "revnetId",
					"type": "uint256",
					"internalType": "uint256"
				},
				{
					"name": "ruleset",
					"type": "tuple",
					"internalType": "struct JBRuleset",
					"components": [
						{
							"name": "cycleNumber",
							"type": "uint48",
							"internalType": "uint48"
						},
						{
							"name": "id",
							"type": "uint48",
							"internalType": "uint48"
						},
						{
							"name": "basedOnId",
							"type": "uint48",
							"internalType": "uint48"
						},
						{
							"name": "start",
							"type": "uint48",
							"internalType": "uint48"
						},
						{
							"name": "duration",
							"type": "uint32",
							"internalType": "uint32"
						},
						{
							"name": "weight",
							"type": "uint112",
							"internalType": "uint112"
						},
						{
							"name": "weightCutPercent",
							"type": "uint32",
							"internalType": "uint32"
						},
						{
							"name": "approvalHook",
							"type": "address",
							"internalType": "contract IJBRulesetApprovalHook"
						},
						{
							"name": "metadata",
							"type": "uint256",
							"internalType": "uint256"
						}
					]
				},
				{
					"name": "addr",
					"type": "address",
					"internalType": "address"
				}
			],
			"outputs": [
				{
					"name": "",
					"type": "bool",
					"internalType": "bool"
				}
			],
			"stateMutability": "view"
		},
		{
			"type": "function",
			"name": "initializeRevnet",
			"inputs": [
				{
					"name": "revnetId",
					"type": "uint256",
					"internalType": "uint256"
				},
				{
					"name": "init",
					"type": "tuple",
					"internalType": "struct REVOwnerRevnetInit",
					"components": [
						{
							"name": "cashOutDelay",
							"type": "uint256",
							"internalType": "uint256"
						},
						{
							"name": "tiered721Hook",
							"type": "address",
							"internalType": "contract IJB721TiersHook"
						},
						{
							"name": "operator",
							"type": "address",
							"internalType": "address"
						},
						{
							"name": "extraOperatorPermissionIds",
							"type": "uint256[]",
							"internalType": "uint256[]"
						},
						{
							"name": "autoIssuances",
							"type": "tuple[]",
							"internalType": "struct REVOwnerAutoIssuance[]",
							"components": [
								{
									"name": "stageId",
									"type": "uint256",
									"internalType": "uint256"
								},
								{
									"name": "beneficiary",
									"type": "address",
									"internalType": "address"
								},
								{
									"name": "count",
									"type": "uint256",
									"internalType": "uint256"
								}
							]
						},
						{
							"name": "extraGrants",
							"type": "tuple[]",
							"internalType": "struct REVOwnerExtraGrant[]",
							"components": [
								{
									"name": "operator",
									"type": "address",
									"internalType": "address"
								},
								{
									"name": "permissionId",
									"type": "uint8",
									"internalType": "uint8"
								}
							]
						}
					]
				}
			],
			"outputs": [],
			"stateMutability": "nonpayable"
		},
		{
			"type": "function",
			"name": "isOperatorOf",
			"inputs": [
				{
					"name": "revnetId",
					"type": "uint256",
					"internalType": "uint256"
				},
				{
					"name": "addr",
					"type": "address",
					"internalType": "address"
				}
			],
			"outputs": [
				{
					"name": "",
					"type": "bool",
					"internalType": "bool"
				}
			],
			"stateMutability": "view"
		},
		{
			"type": "function",
			"name": "onERC721Received",
			"inputs": [
				{
					"name": "",
					"type": "address",
					"internalType": "address"
				},
				{
					"name": "",
					"type": "address",
					"internalType": "address"
				},
				{
					"name": "",
					"type": "uint256",
					"internalType": "uint256"
				},
				{
					"name": "",
					"type": "bytes",
					"internalType": "bytes"
				}
			],
			"outputs": [
				{
					"name": "",
					"type": "bytes4",
					"internalType": "bytes4"
				}
			],
			"stateMutability": "view"
		},
		{
			"type": "function",
			"name": "peerChainAdjustedAccountsOf",
			"inputs": [
				{
					"name": "revnetId",
					"type": "uint256",
					"internalType": "uint256"
				}
			],
			"outputs": [
				{
					"name": "supply",
					"type": "uint256",
					"internalType": "uint256"
				},
				{
					"name": "contexts",
					"type": "tuple[]",
					"internalType": "struct JBSourceContext[]",
					"components": [
						{
							"name": "token",
							"type": "bytes32",
							"internalType": "bytes32"
						},
						{
							"name": "decimals",
							"type": "uint8",
							"internalType": "uint8"
						},
						{
							"name": "surplus",
							"type": "uint128",
							"internalType": "uint128"
						},
						{
							"name": "balance",
							"type": "uint128",
							"internalType": "uint128"
						}
					]
				}
			],
			"stateMutability": "view"
		},
		{
			"type": "function",
			"name": "setDeployer",
			"inputs": [
				{
					"name": "newDeployer",
					"type": "address",
					"internalType": "contract IREVDeployer"
				}
			],
			"outputs": [],
			"stateMutability": "nonpayable"
		},
		{
			"type": "function",
			"name": "setOperatorOf",
			"inputs": [
				{
					"name": "revnetId",
					"type": "uint256",
					"internalType": "uint256"
				},
				{
					"name": "newOperator",
					"type": "address",
					"internalType": "address"
				}
			],
			"outputs": [],
			"stateMutability": "nonpayable"
		},
		{
			"type": "function",
			"name": "supportsInterface",
			"inputs": [
				{
					"name": "interfaceId",
					"type": "bytes4",
					"internalType": "bytes4"
				}
			],
			"outputs": [
				{
					"name": "flag",
					"type": "bool",
					"internalType": "bool"
				}
			],
			"stateMutability": "view"
		},
		{
			"type": "function",
			"name": "tiered721HookOf",
			"inputs": [
				{
					"name": "revnetId",
					"type": "uint256",
					"internalType": "uint256"
				}
			],
			"outputs": [
				{
					"name": "tiered721Hook",
					"type": "address",
					"internalType": "contract IJB721TiersHook"
				}
			],
			"stateMutability": "view"
		},
		{
			"type": "event",
			"name": "AutoIssue",
			"inputs": [
				{
					"name": "revnetId",
					"type": "uint256",
					"indexed": true,
					"internalType": "uint256"
				},
				{
					"name": "stageId",
					"type": "uint256",
					"indexed": true,
					"internalType": "uint256"
				},
				{
					"name": "beneficiary",
					"type": "address",
					"indexed": true,
					"internalType": "address"
				},
				{
					"name": "count",
					"type": "uint256",
					"indexed": false,
					"internalType": "uint256"
				},
				{
					"name": "caller",
					"type": "address",
					"indexed": false,
					"internalType": "address"
				}
			],
			"anonymous": false
		},
		{
			"type": "event",
			"name": "BurnHeldTokens",
			"inputs": [
				{
					"name": "revnetId",
					"type": "uint256",
					"indexed": true,
					"internalType": "uint256"
				},
				{
					"name": "count",
					"type": "uint256",
					"indexed": false,
					"internalType": "uint256"
				},
				{
					"name": "caller",
					"type": "address",
					"indexed": false,
					"internalType": "address"
				}
			],
			"anonymous": false
		},
		{
			"type": "event",
			"name": "InitializeRevnet",
			"inputs": [
				{
					"name": "revnetId",
					"type": "uint256",
					"indexed": true,
					"internalType": "uint256"
				},
				{
					"name": "caller",
					"type": "address",
					"indexed": false,
					"internalType": "address"
				}
			],
			"anonymous": false
		},
		{
			"type": "event",
			"name": "ReplaceOperator",
			"inputs": [
				{
					"name": "revnetId",
					"type": "uint256",
					"indexed": true,
					"internalType": "uint256"
				},
				{
					"name": "newOperator",
					"type": "address",
					"indexed": true,
					"internalType": "address"
				},
				{
					"name": "caller",
					"type": "address",
					"indexed": false,
					"internalType": "address"
				}
			],
			"anonymous": false
		},
		{
			"type": "error",
			"name": "PRBMath_MulDiv_Overflow",
			"inputs": [
				{
					"name": "x",
					"type": "uint256",
					"internalType": "uint256"
				},
				{
					"name": "y",
					"type": "uint256",
					"internalType": "uint256"
				},
				{
					"name": "denominator",
					"type": "uint256",
					"internalType": "uint256"
				}
			]
		},
		{
			"type": "error",
			"name": "REVOwner_AlreadyInitialized",
			"inputs": [
				{
					"name": "deployer",
					"type": "address",
					"internalType": "address"
				}
			]
		},
		{
			"type": "error",
			"name": "REVOwner_CashOutDelayNotFinished",
			"inputs": [
				{
					"name": "cashOutDelay",
					"type": "uint256",
					"internalType": "uint256"
				},
				{
					"name": "blockTimestamp",
					"type": "uint256",
					"internalType": "uint256"
				}
			]
		},
		{
			"type": "error",
			"name": "REVOwner_InvalidLoanSourceToken",
			"inputs": [
				{
					"name": "revnetId",
					"type": "uint256",
					"internalType": "uint256"
				},
				{
					"name": "token",
					"type": "address",
					"internalType": "address"
				}
			]
		},
		{
			"type": "error",
			"name": "REVOwner_NativeFeeValueMismatch",
			"inputs": [
				{
					"name": "expected",
					"type": "uint256",
					"internalType": "uint256"
				},
				{
					"name": "actual",
					"type": "uint256",
					"internalType": "uint256"
				}
			]
		},
		{
			"type": "error",
			"name": "REVOwner_NothingToAutoIssue",
			"inputs": [
				{
					"name": "revnetId",
					"type": "uint256",
					"internalType": "uint256"
				},
				{
					"name": "stageId",
					"type": "uint256",
					"internalType": "uint256"
				},
				{
					"name": "beneficiary",
					"type": "address",
					"internalType": "address"
				}
			]
		},
		{
			"type": "error",
			"name": "REVOwner_NothingToBurn",
			"inputs": [
				{
					"name": "revnetId",
					"type": "uint256",
					"internalType": "uint256"
				},
				{
					"name": "holder",
					"type": "address",
					"internalType": "address"
				}
			]
		},
		{
			"type": "error",
			"name": "REVOwner_StageNotStarted",
			"inputs": [
				{
					"name": "stageId",
					"type": "uint256",
					"internalType": "uint256"
				}
			]
		},
		{
			"type": "error",
			"name": "REVOwner_Unauthorized",
			"inputs": [
				{
					"name": "caller",
					"type": "address",
					"internalType": "address"
				},
				{
					"name": "expectedCaller",
					"type": "address",
					"internalType": "address"
				}
			]
		},
		{
			"type": "error",
			"name": "REVOwner_UnauthorizedOperator",
			"inputs": [
				{
					"name": "revnetId",
					"type": "uint256",
					"internalType": "uint256"
				},
				{
					"name": "caller",
					"type": "address",
					"internalType": "address"
				}
			]
		},
		{
			"type": "error",
			"name": "SafeERC20FailedDecreaseAllowance",
			"inputs": [
				{
					"name": "spender",
					"type": "address",
					"internalType": "address"
				},
				{
					"name": "currentAllowance",
					"type": "uint256",
					"internalType": "uint256"
				},
				{
					"name": "requestedDecrease",
					"type": "uint256",
					"internalType": "uint256"
				}
			]
		},
		{
			"type": "error",
			"name": "SafeERC20FailedOperation",
			"inputs": [
				{
					"name": "token",
					"type": "address",
					"internalType": "address"
				}
			]
		}
	],
	"args": [
		"0xae527222e908A8BBf93210b08050950DCbC6e68D",
		"0xC8F09F7d39519256E1D335CD34a0cef08f84517E",
		"3",
		"0x4C46AE4da2AB1c0B0765E98AFA52b3F780e96547",
		"0xa4921c8FdE8358492E88Cc7C2d5A903465ce9635",
		"0xd5136c794ee43BEf1eD4cF1eB6DEe45b7F803437"
	],
	"solcInputHash": "f8b4c2487621b6a6ed4b3fd065a4d6dd",
	"bytecode": "0x6101403461017157601f6142e638819003918201601f19168301916001600160401b038311848410176101755780849260c094604052833981010312610171578051906001600160a01b03821682036101715760208101516001600160a01b03811681036101715760408201516060830151916001600160a01b0383168303610171576080840151936001600160a01b03851685036101715760a00151946001600160a01b03861686036101715760805260a05260c0526101005260e0526101205260405161415c908161018a8239608051818181611154015281816111e3015281816113eb0152818161176601528181611e080152818161309401526132fd015260a051818181611b600152612f70015260c05181818161068f01528181611ee00152612f2c015260e051818181610ebc0152818161100201528181611398015281816125a00152613b2e015261010051818181610f9701528181613397015261389e0152610120518161123e0152f35b5f80fd5b634e487b7160e01b5f52604160045260245ffdfe6080806040526004361015610012575f80fd5b5f905f3560e01c90816301ffc9a714611f8457508063150b7a0214611f035780631680e17214611ec9578063293c499914611ea1578063437e610714611e605780634fa9af6914611e375780635b3435b414611df35780636298273014611d5157806373966f5d14611b8f57806388bc2ef314611b4a5780638cc3584614611583578063902b742e14611550578063962147351461121457806399f6d77f14610fc6578063b5d2553314610f81578063b64ce2c314610eeb578063b7249ca614610ea6578063b987005d14610a51578063c22903b2146105b6578063d59529fe146102cd578063d5f39488146102a4578063dfe5d20a14610273578063ee0fc1211461024a578063f434c914146102215763f672acac14610131575f80fd5b3461021e57602036600319011261021e576004356001600160401b03811161021c576101c0600319823603011261021c5761016e90600401612e81565b92939060409592955195869560a0870193875260208701526040860152606085015260a06080850152825180915260c08401602060c08360051b870101940192905b8282106101bf57505050500390f35b9193600191939550602061020c819260bf198a8203018652608060608a51878060a01b03815116845285810151151586850152604081015160408501520151918160608201520190612071565b96019201920185949391926101b0565b505b80fd5b503461021e578060031936011261021e576005546040516001600160a01b039091168152602090f35b503461021e578060031936011261021e576004546040516001600160a01b039091168152602090f35b503461021e57604036600319011261021e57602061029a61029261201d565b600435612aae565b6040519015158152f35b503461021e578060031936011261021e576003546040516001600160a01b039091168152602090f35b503461021e57604036600319011261021e576024356004356001600160401b0382116105b257816004019160c060031982360301126105ae576003546001600160a01b0316338190036105985750823580610586575b50602481016001600160a01b03610339826129e0565b1661054e575b50916084830190845b61035283836129f4565b90508110156103d25761036583836129f4565b8210156103be579060019160608202018588526002602052604088208135895260205260408820610398602083016129e0565b848060a01b03165f526020526103b66040805f209201358254612a29565b905501610348565b634e487b7160e01b87526032600452602487fd5b5083856064820185825b6103e68387612a36565b9050811015610470578184526007602052604084206104058488612a36565b83101561045c578154916801000000000000000083101561044857600183018082558310156103be57865260208620600584901b909101359101556001016103dc565b634e487b7160e01b87526041600452602487fd5b634e487b7160e01b86526032600452602486fd5b83868387610489610483604483016129e0565b836136d2565b60409360209160a401815b61049e8287612a6b565b905081101561051f576104b18287612a6b565b82101561050b57906105056001928260061b01876104ff8b51926104d58d856120fb565b868452893660208601376104eb60208201612aa0565b60ff6104f686612331565b911690526129e0565b306135f1565b01610494565b634e487b7160e01b84526032600452602484fd5b82857f81292c4d4e88fb7943bb880206d4a261fc961134c0a553ce9fd52db18ffe606e6020604051338152a280f35b610557906129e0565b82855260016020526040852080546001600160a01b0319166001600160a01b039092169190911790555f61033f565b8285528460205260408520555f610323565b63380a0e1360e21b855233600452602452604484fd5b8380fd5b8280fd5b50602036600319011261021e57600435906001600160401b03821161021e5781360361020060031982011261021c5761010483019061eeee6001600160a01b036105ff846129e0565b16036109a75761016484013580340361099157505b6101c484013590602219018112156105b25783016004810135906001600160401b0382116105ae576024810191803603831361098d57602090820191909103126105b257356001600160a01b03811693908490036105b257610675826129e0565b906106876101648201358093876138d9565b9161074360207f0000000000000000000000000000000000000000000000000000000000000000946106b8876129e0565b9060246106c7876004016129e0565b960135956040519287858501528484526106e26040856120fb565b60405163fef4325760e01b8152600481018a90526001600160a01b0391821660248201526044810188905291166064820152608481018a905260e060a482015260e481018a905261010060c482015293849283918291610104830190612071565b03918b5af1908161095e575b50610947573d15610942573d610764816121a5565b9061077260405192836120fb565b81528560203d92013e5b61eeee6001600160a01b03610790866129e0565b1603610876575b8495506107af816107a98697966129e0565b336138d9565b6107b8866129e0565b604051946020860152602085526107d06040866120fb565b333b1561087257859361082b60405196879586948594639e6eec0560e01b8652600486015260018060a01b03166024850152604484015286606484015260c060848401528660c484015260e060a484015260e4830190612071565b0391335af1801561086757610852575b505061084961084f916129e0565b33613978565b80f35b8161085c916120fb565b61021c57815f61083b565b6040513d84823e3d90fd5b8580fd5b6001600160a01b03610887856129e0565b604051636eb1769f60e11b81523060048201526001600160a01b0389166024820152911690602081604481855afa908115610937578791610901575b508281106108e557908697836108dd939897980391613fec565b939293610797565b63e570110f60e01b875260048890526024526044829052606486fd5b90506020813d60201161092f575b8161091c602093836120fb565b8101031261092b57515f6108c3565b5f80fd5b3d915061090f565b6040513d89823e3d90fd5b61077c565b5050509161095861084f92936129e0565b90613978565b6020813d602011610985575b81610977602093836120fb565b8101031261092b575161074f565b3d915061096a565b8480fd5b630f83da9960e11b845260045234602452604483fd5b34610a39576001600160a01b036109bd836129e0565b166040516323b872dd60e01b8552336004523060245261016486013560445260208560648180865af1906001865114821615610a18575b6040528460605215610a065750610614565b635274afe760e01b8452600452602483fd5b906001811516610a3057823b15153d151616906109f4565b503d85823e3d90fd5b630f83da9960e11b8352600483905234602452604483fd5b503461021e57610a6036612047565b9091604461038060018060a01b036004541660405192838092630969875760e21b82528660048301528860248301525afa908115610e9b578591610c06575b506060015165ffffffffffff164210610bf2578084526002602052604084208385526020526040842060018060a01b0383165f5260205260405f2054918215610bcc5781855260026020908152604080872086885282528087206001600160a01b03939093165f8181529383529281902087905580518581523381840152929591949360c49390928792909184917f0ad8046f3d571312df6d1867ac30c26e100f5684a9d7c2d3340c4e2a5b56360f91a48560018060a01b036004541660405196879586946363fdc96f60e11b865260048601526024850152604484015260a060648401528160a48401528160848401525af1801561086757610ba0575080f35b610bc19060203d602011610bc5575b610bb981836120fb565b810190612165565b5080f35b503d610baf565b6333dc00ab60e01b855260049190915260248390526001600160a01b0316604452606483fd5b631f9af7b360e21b84526004839052602484fd5b8091506103803d8111610e94575b610c1e81836120fb565b8101039061038082126108725761012082126108725760405191610c4183612095565b610c4a826129be565b8352610c58602083016129be565b6020840152610c69604083016129be565b6040840152610c7a606083016129be565b6060840152610c8b60808301612541565b608084015260a08201516001600160701b0381168103610e905760a0840152610cb660c08301612541565b60c084015260e0820151906001600160a01b0382168203610e90576102609160e085015261010083015161010085015261011f190112610872576040519061026082018281106001600160401b03821117610e7c5791610240610e7261036065ffffffffffff9694606096604052610d3161012082016129d1565b8552610d4061014082016129d1565b6020860152610d526101608201612541565b6040860152610d646101808201612198565b87860152610d756101a08201612198565b6080860152610d876101c08201612198565b60a0860152610d996101e08201612198565b60c0860152610dab6102008201612198565b60e0860152610dbd6102208201612198565b610100860152610dce848201612198565b610120860152610de16102608201612198565b610140860152610df46102808201612198565b610160860152610e076102a08201612198565b610180860152610e1a6102c08201612198565b6101a0860152610e2d6102e08201612198565b6101c0860152610e406103008201612198565b6101e0860152610e536103208201612198565b610200860152610e66610340820161247f565b610220860152016129d1565b9101529150610a9f565b634e487b7160e01b88526041600452602488fd5b8780fd5b503d610c14565b6040513d87823e3d90fd5b503461021e578060031936011261021e576040517f00000000000000000000000000000000000000000000000000000000000000006001600160a01b03168152602090f35b503461021e57602036600319011261021e57610f0860043561259d565b604051928392604084019084526040602085015282518091526020606085019301915b818110610f39575050500390f35b91935091602060806001926001600160801b03606088518051845260ff8682015116868501528260408201511660408501520151166060820152019401910191849392610f2b565b503461021e578060031936011261021e576040517f00000000000000000000000000000000000000000000000000000000000000006001600160a01b03168152602090f35b503461021e5761016036600319011261021e576004359061012036602319011261021e57610144356001600160a01b038116928382036105b2577f00000000000000000000000000000000000000000000000000000000000000006001600160a01b031684149283156111e1575b8315611064575b50602093508215611053575b50506040519015158152f35b61105d925061386d565b5f80611047565b909250604051936399f6d77f60e01b855283600486015260243565ffffffffffff81168091036105b257602486015260443565ffffffffffff81168091036105b257604486015260643565ffffffffffff81168091036105b257606486015260843565ffffffffffff81168091036105b257608486015260a43563ffffffff81168091036105b25760a486015260c4356001600160701b0381168091036105b25760c486015260e43563ffffffff81168091036105b25760e4860152610104356001600160a01b038116908190036105b257610104860152610124803590860152610144850152602084610164817f00000000000000000000000000000000000000000000000000000000000000006001600160a01b03165afa9081156111d5578091611198575b5060209350915f61103b565b90506020843d6020116111cd575b816111b3602093836120fb565b8101031261021e57506111c7602093612198565b5f61118c565b3d91506111a6565b604051903d90823e3d90fd5b7f00000000000000000000000000000000000000000000000000000000000000006001600160a01b031685149350611034565b503461021e57602036600319011261021e576004356001600160a01b038116919082900361021e577f00000000000000000000000000000000000000000000000000000000000000006001600160a01b03163381900361153957506003546001600160a01b038116929083611525576001600160a01b031916811760035560405163ee0fc12160e01b8152602081600481855afa9081156114965783916114e3575b5060018060a01b03166bffffffffffffffffffffffff60a01b6004541617600455604051633d0d324560e21b8152602081600481855afa9081156114965783916114a1575b50600580546001600160a01b0319166001600160a01b039290921691909117905560405163293c499960e01b815290602082600481845afa8015611496578390611450575b61084f925060018060a01b03166bffffffffffffffffffffffff60a01b60065416176006556040611419815161137683826120fb565b600181526113c6601f1984019182366020830137601261139582612331565b527f00000000000000000000000000000000000000000000000000000000000000006001600160a01b03163061350d565b8251906113d384836120fb565b60018252366020830137601d6113e882612331565b527f00000000000000000000000000000000000000000000000000000000000000006001600160a01b03163061350d565b51906114266060836120fb565b600282526040366020840137602161143d83612331565b52602061144983612352565b523061350d565b50906020813d60201161148e575b8161146b602093836120fb565b810103126105b25751906001600160a01b03821682036105b25761084f91611340565b3d915061145e565b6040513d85823e3d90fd5b90506020813d6020116114db575b816114bc602093836120fb565b810103126105b257516001600160a01b03811681036105b257836112fb565b3d91506114af565b90506020813d60201161151d575b816114fe602093836120fb565b810103126105b257516001600160a01b03811681036105b257836112b6565b3d91506114f1565b6332a5609360e11b83526004849052602483fd5b63380a0e1360e21b82523360045260245260449150fd5b503461021e57602036600319011261021e57602090600435815260018252604060018060a01b0391205416604051908152f35b503461021e57602036600319011261021e576004356001600160401b03811161021c5736819003600482016101806003198301126105ae5760c4830135808552600160205260408520546001600160a01b031692856115e0612174565b95819286151596876119b5575b505060a4810135928381106119a5575081945b6116156040519161161083612095565b612033565b815261162360248301612033565b91602082019283526116383660448301612397565b9560408301968752606083019081526080830160e4830135815261165f6101048401612033565b60a0850190815260c0850190610124850135825260e086019261014486013584526101648601356001600160401b0381116119a1576117629660046116a792369201016123e8565b61010088019081528b5160609081018e905260408051634661ac2360e11b81526020600482018190529a516001600160a01b0390811660248301529b518c1660448201529d518051909b1660648f0152988a015160ff1660848e01529789015163ffffffff1660a48d0152979096015160c48b01528996879690945160e488015251610104870152516001600160a01b03166101248601525161014485015251610164840152516101806101848401526101a4830190612071565b03817f00000000000000000000000000000000000000000000000000000000000000006001600160a01b03165afa928315611996578692879461196c575b508281611945575050505083915b81511515811561193f5760015b81156119365760ff8060015b1691160160ff81116119225760ff1694826117e18761211c565b966117ef60405198896120fb565b8088526117fe601f199161211c565b01885b8181106119065750506118ec575b506118b1575b5050906040519283926040840190845260406020850152825180915260608401602060608360051b870101940192905b82821061185457505050500390f35b919360019193955060206118a18192605f198a8203018652608060608a51878060a01b03815116845285810151151586850152604081015160408501520151918160608201520190612071565b9601920192018594939192611845565b6118bd6118dc92612331565b5190156118e45760ff60015b16906118d58286612362565b5283612362565b505f80611815565b60ff856118c9565b6118f586612331565b526118ff85612331565b505f61180f565b6020919250611913612174565b82828b01015201908491611801565b634e487b7160e01b87526011600452602487fd5b60ff80886117c7565b856117bb565b828296949610611958575b5050506117ae565b6119639395506137cd565b915f8080611950565b90935061198c9192503d8088833e61198481836120fb565b810190612206565b919091925f6117a0565b6040513d88823e3d90fd5b8980fd5b6119af9084612376565b94611600565b604051634661ac2360e11b815260206004820152916001600160a01b036119db89612033565b16602484015260018060a01b036119f460248601612033565b16604484015260018060a01b03611a0d60448601612033565b16606484015260ff611a2160648601612312565b16608484015263ffffffff611a3860848601612320565b1660a484015260a484013560c48401528660e484015260e484013561010484015260018060a01b03611a6d6101048601612033565b16610124840152610124840135610144840152610144840135610164840152610164840135906022190181121561098d578301602460048201359101916001600160401b03821161087257813603831361087257836101c4818481958a97610180610184850152816101a4850152848401378181018301879052601f01601f191681010301915afa908115611496578391611b2e575b508051611b11575b806115ed565b91509550611b1f9150612331565b5193856040860151915f611b0b565b611b4291503d8085833e61198481836120fb565b90505f611b03565b503461021e578060031936011261021e576040517f00000000000000000000000000000000000000000000000000000000000000006001600160a01b03168152602090f35b503461092b57602036600319011261092b5760043560018060a01b0360045416604051630760c75760e21b8152602081600481855afa908115611cb6575f91611d0c575b506040516310f0007760e31b8152306004820152602481018490529190602090839060449082906001600160a01b03165afa918215611cb6575f92611cd8575b508115611cc157803b1561092b575f809160a46040518094819363516a997360e11b8352306004840152886024840152876044840152608060648401528160848401525af18015611cb657611c9f575b50604080519182523360208301527fd399cf348b30f568c932b5653327b008a5811ed0f843af136e3cfeab99bcde0b9190819081015b0390a280f35b611cac9193505f906120fb565b5f91611c99611c63565b6040513d5f823e3d90fd5b8263028136c960e31b5f526004523060245260445ffd5b9091506020813d602011611d04575b81611cf4602093836120fb565b8101031261092b5751905f611c13565b3d9150611ce7565b90506020813d602011611d49575b81611d27602093836120fb565b8101031261092b5751906001600160a01b038216820361092b57906020611bd3565b3d9150611d1a565b3461092b57604036600319011261092b57600435611d6d61201d565b611d773383612aae565b15611ddc57611dda91604051338152817f52a3e49c8cd6285101d0e0ce7bfe480932f746a11e864dd80b0ee48ad5196c3e602060018060a01b03861693a3611dd5604051611dc66020826120fb565b5f81525f3681378233306135f1565b6136d2565b005b5063376b3ad360e01b5f526004523360245260445ffd5b3461092b575f36600319011261092b576040517f00000000000000000000000000000000000000000000000000000000000000006001600160a01b03168152602090f35b3461092b57602036600319011261092b576004355f525f602052602060405f2054604051908152f35b3461092b57611e6e36612047565b915f52600260205260405f20905f5260205260405f209060018060a01b03165f52602052602060405f2054604051908152f35b3461092b575f36600319011261092b576006546040516001600160a01b039091168152602090f35b3461092b575f36600319011261092b5760206040517f00000000000000000000000000000000000000000000000000000000000000008152f35b3461092b57608036600319011261092b57611f1c612007565b50611f2561201d565b506064356001600160401b03811161092b573660238201121561092b5780600401356001600160401b03811161092b573691016024011161092b576006546001600160a01b0316330361092b57604051630a85bd0160e11b8152602090f35b3461092b57602036600319011261092b576004359063ffffffff60e01b821680920361092b576020916301ffc9a760e01b8114908115611ff6575b8115611fe5575b8115611fd4575b5015158152f35b63b64ce2c360e01b14905083611fcd565b63611481d960e11b81149150611fc6565b63e347239560e01b81149150611fbf565b600435906001600160a01b038216820361092b57565b602435906001600160a01b038216820361092b57565b35906001600160a01b038216820361092b57565b606090600319011261092b5760043590602435906044356001600160a01b038116810361092b5790565b805180835260209291819084018484015e5f828201840152601f01601f1916010190565b61012081019081106001600160401b038211176120b157604052565b634e487b7160e01b5f52604160045260245ffd5b608081019081106001600160401b038211176120b157604052565b606081019081106001600160401b038211176120b157604052565b90601f801991011681019081106001600160401b038211176120b157604052565b6001600160401b0381116120b15760051b60200190565b9061213d8261211c565b61214a60405191826120fb565b828152809261215b601f199161211c565b0190602036910137565b9081602091031261092b575190565b60405190612181826120c5565b606080835f81525f60208201525f60408201520152565b5190811515820361092b57565b6001600160401b0381116120b157601f01601f191660200190565b81601f8201121561092b578051906121d7826121a5565b926121e560405194856120fb565b8284526020838301011161092b57815f9260208093018386015e8301015290565b919060408382031261092b578251926020810151906001600160401b03821161092b57019080601f8301121561092b578151916122428361211c565b9261225060405194856120fb565b80845260208085019160051b8301019183831161092b5760208101915b83831061227c57505050505090565b82516001600160401b03811161092b578201906080828703601f19011261092b57604051906122aa826120c5565b60208301516001600160a01b038116810361092b5782526122cd60408401612198565b6020830152606083015160408301526080830151916001600160401b03831161092b57612302886020809695819601016121c0565b606082015281520192019161226d565b359060ff8216820361092b57565b359063ffffffff8216820361092b57565b80511561233e5760200190565b634e487b7160e01b5f52603260045260245ffd5b80516001101561233e5760400190565b805182101561233e5760209160051b010190565b9190820391821161238357565b634e487b7160e01b5f52601160045260245ffd5b919082608091031261092b576040516123af816120c5565b60608082946123bd81612033565b84526123cb60208201612312565b60208501526123dc60408201612320565b60408501520135910152565b81601f8201121561092b578035906123ff826121a5565b9261240d60405194856120fb565b8284526020838301011161092b57815f926020809301838601378301015290565b6040519061243d6020836120fb565b5f80835282815b82811061245057505050565b60209060405161245f816120c5565b5f81525f838201525f60408201525f606082015282828501015201612444565b51906001600160a01b038216820361092b57565b60208183031261092b578051906001600160401b03821161092b57019080601f8301121561092b5781516124c68161211c565b926124d460405194856120fb565b81845260208085019260051b82010192831161092b57602001905b8282106124fc5750505090565b602080916125098461247f565b8152019101906124ef565b5f1981146123835760010190565b9081602091031261092b57516001600160a01b038116810361092b5790565b519063ffffffff8216820361092b57565b9081606091031261092b576040519061256a826120e0565b6125738161247f565b8252602081015160ff8116810361092b57602083015261259590604001612541565b604082015290565b907f00000000000000000000000000000000000000000000000000000000000000006001600160a01b031690811580156129b5575b6129a657604051636670798960e01b815260048101849052602081602481865afa908115611cb6575f91612974575b50604051636abcccf160e11b8152600481018590529092835f83602481855afa928315611cb6575f93612950575b5082511561293f57506126428251612133565b915f935f5b82518110156127145761269860206001600160a01b036126678487612362565b51604051633bc96a2d60e11b8152600481018d905291166001600160a01b0316602482015291829081906044820190565b0381885afa908115611cb6575f916126e3575b506126b68287612362565b526126c18186612362565b516126cf575b600101612647565b946126db600191612514565b9590506126c7565b90506020813d821161270c575b816126fd602093836120fb565b8101031261092b57515f6126ab565b3d91506126f0565b5094939291506127238361211c565b61273060405191826120fb565b838152601f1961273f8561211c565b015f5b81811061291057505080931561290757506003546040516368439abf60e11b8152929190602090849060049082906001600160a01b03165afa928315611cb6575f936128d6575b505f945f5b82518110156128cb576127a18185612362565b51156128c3576001600160a01b036127b98285612362565b51604051633a01714f60e01b8152600481018c905291166001600160a01b03811660248301529790606081806044810103816001600160a01b038b165afa908115611cb6575f91612895575b5080516001600160a01b031689900361287e5782916128769160ff60206001600160801b036128366001988c612362565b5116920151166040519b6128498d6120c5565b8c5260208c01528060408c015260608b015261286481612514565b9961286f828b612362565b5288612362565b505b0161278e565b888b633cc3fac360e21b5f5260045260245260445ffd5b6128b6915060603d81116128bc575b6128ae81836120fb565b810190612552565b5f612805565b503d6128a4565b600190612878565b509650505050919050565b6128f991935060203d602011612900575b6128f181836120fb565b810190612522565b915f612789565b503d6128e7565b95505050509190565b60209060405161291f816120c5565b5f81525f838201525f60408201525f606082015282828601015201612742565b94505050905061294d61242e565b90565b61296d9193503d805f833e61296581836120fb565b810190612493565b915f61262f565b90506020813d60201161299e575b8161298f602093836120fb565b8101031261092b57515f612601565b3d9150612982565b9150506129b161242e565b5f91565b50813b156125d2565b519065ffffffffffff8216820361092b57565b519061ffff8216820361092b57565b356001600160a01b038116810361092b5790565b903590601e198136030182121561092b57018035906001600160401b03821161092b5760200191606082023603831361092b57565b9190820180921161238357565b903590601e198136030182121561092b57018035906001600160401b03821161092b57602001918160051b3603831361092b57565b903590601e198136030182121561092b57018035906001600160401b03821161092b57602001918160061b3603831361092b57565b3560ff8116810361092b5790565b6005546001600160a01b031690612ac4816139ec565b60405163632af95f60e01b81526001600160a01b039094166004850152306024850152604484019190915260c06064840152805160c48401819052839160e48301916020909101905f5b818110612b73575050509181806020945f60848301525f60a483015203915afa908115611cb6575f91612b3f575090565b90506020813d602011612b6b575b81612b5a602093836120fb565b8101031261092b5761294d90612198565b3d9150612b4d565b8251845286945060209384019390920191600101612b0e565b3563ffffffff8116810361092b5790565b35801515810361092b5790565b3590811515820361092b57565b91906101c08382031261092b576040519061016082018281106001600160401b038211176120b1576040528193612bed81612033565b8352612bfb60208201612033565b602084015260408101356040840152606081013560608401526080810135608084015260a081013560a0840152612c358260c08301612397565b60c0840152612c476101408201612baa565b60e0840152610160810135610100840152612c656101808201612baa565b6101208401526101a0810135916001600160401b03831161092b5761014092612c8e92016123e8565b910152565b919060a08382031261092b578251926020810151926040820151926060830151926080810151906001600160401b03821161092b57019080601f8301121561092b57815191612ce18361211c565b92612cef60405194856120fb565b80845260208085019160051b8301019183831161092b5760208101915b838310612d1b57505050505090565b82516001600160401b03811161092b578201906080828703601f19011261092b5760405190612d49826120c5565b60208301516001600160a01b038116810361092b578252612d6c60408401612198565b6020830152606083015160408301526080830151916001600160401b03831161092b57612da1886020809695819601016121c0565b6060820152815201920191612d0c565b6101e061014061294d936020845260018060a01b03815116602085015260018060a01b0360208201511660408501526040810151606085015260608101516080850152608081015160a085015260a081015160c0850152612e4960c082015160e08601906060809160018060a01b03815116845260ff602082015116602085015263ffffffff60408201511660408501520151910152565b60e0810151151561016085015261010081015161018085015261012081015115156101a08501520151916101c0808201520190612071565b60408101359160e0820190612e9582612aa0565b90612ec8612ebb61010086019360ff63ffffffff612eb287612b8c565b16911688613b2c565b60a0879392930135612a29565b93612ed96101208701359283612a29565b93612eef612ee9602089016129e0565b8961386d565b6134fb57875f525f60205260405f2054974289116134e4578798506020612f1d60c0612f6c98999a016129e0565b604051630862026560e41b81527f000000000000000000000000000000000000000000000000000000000000000060048201526001600160a01b03909116602482015296879081906044820190565b03817f00000000000000000000000000000000000000000000000000000000000000006001600160a01b03165afa958615611cb6575f966134c3575b50612fb66101408a01612b9d565b15613389575b50505061016086013580158015613378575b8015613365575b6132bc579561309096608082013594612ff2602887048097612376565b61302a613001848b848c613f84565b938a859986858d8281115f146132af576130249261301e91612376565b93612376565b91613f84565b926130358482612a29565b868111613277575b505f929394888a92818114158061326e575b613253575b5050613061903690612bb7565b9160808301528960a0830152606060c08301510152604051809a8192633d9cab2b60e21b835260048301612db1565b03817f00000000000000000000000000000000000000000000000000000000000000006001600160a01b03165afa948515611cb6575f935f995f97613222575b5089858515613214575050836130e591612376565b808211613202575b50506040519060018060a01b031660208201526020815261310f6040826120fb565b6040519161311c836120c5565b3083525f6020840152604083015260608201528351156131ac5760405190606061314681846120fb565b60028352601f19015f5b8181106131955750509061318c916131688296612331565b5161317283612331565b5261317c82612331565b5061318682612352565b52612352565b505b9493929190565b6020906131a0612174565b82828701015201613150565b925060408051906131bd81836120fb565b60018252601f19015f5b8181106131eb575050806131e591946131df82612331565b52612331565b5061318e565b6020906131f6612174565b828286010152016131c7565b61320c92976137cd565b945f806130ed565b9a5098979695945050505050565b91945095506132449198503d805f833e61323c81836120fb565b810190612c93565b9a93915050939098955f6130d0565b61306192935090613264918c6137cd565b919050885f613054565b5081151561304f565b9081875f95969315861461329557505050508182945b94939261303d565b6132a382826132a9956137cd565b936137cd565b9461328d565b5061302491505f93612376565b505090505f6132cf6132f9953690612bb7565b8460a082015283606060c0830151015260405180968192633d9cab2b60e21b835260048301612db1565b03817f00000000000000000000000000000000000000000000000000000000000000006001600160a01b03165afa908115611cb6575f5f955f9361333f57509493929190565b9195505061335791503d805f833e61323c81836120fb565b9296929391505f905061318c565b506133736101808801612b9d565b612fd5565b506001600160a01b03841615612fce565b909295919660018060a01b037f000000000000000000000000000000000000000000000000000000000000000016906040519063139db5a960e31b8252836004830152602082602481865afa918215611cb6575f92613489575b509263ffffffff61340a6134046133fe606495602098612a29565b9c612aa0565b97612b8c565b169260ff604051978895869463622c574160e11b8652600486015260248501521660448301525afa908115611cb6575f91613453575b61344a9250612a29565b925f8080612fbc565b90506020823d602011613481575b8161346e602093836120fb565b8101031261092b5761344a915190613440565b3d9150613461565b9150926020823d6020116134bb575b816134a5602093836120fb565b8101031261092b579051909263ffffffff6133e3565b3d9150613498565b6134dd91965060203d602011612900576128f181836120fb565b945f612fa8565b88635f7f3c2b60e11b5f526004524260245260445ffd5b505f9650505060809093013592606090565b91906040519061351c826120e0565b6001600160a01b0390811682525f60208301908152604083019384526005549091169290833b1561092b5760408051631127c92960e21b81526001600160a01b03968716600482015260248101919091529251909416604483015292516001600160401b03166064820152915160606084840152805160a48401819052839160c48301916020909101905f5b8181106135d55750505091815f81819503925af18015611cb6576135c95750565b5f6135d3916120fb565b565b825160ff168452869450602093840193909201916001016135a8565b92604051916135ff836120e0565b6001600160a01b0390811683526001600160401b0393909316602083019081526040830191825260055490931692833b1561092b5760408051631127c92960e21b81526001600160a01b03968716600482015260248101919091529251909416604483015292516001600160401b03166064820152915160606084840152805160a48401819052839160c48301916020909101905f5b8181106136b65750505091815f81819503925af18015611cb6576135c95750565b825160ff16845286945060209384019390920191600101613695565b6136db816139ec565b926136e68451612133565b915f5b8551811015613714578060ff61370160019389612362565b511661370d8287612362565b52016136e9565b509093506135d392306135f1565b811561372c570490565b634e487b7160e01b5f52601260045260245ffd5b91905f905f1981850990808502928380841093039280840393146137c0576127108310156137a45750612710907fbc01a36e2eb1c432ca57a786c226809d495182a9930be0ded288ce703afb7e9194950990828211900360fc1b910360041c170290565b60649186630c740aef60e31b8352600452602452612710604452fd5b5050506127109192500490565b90915f19838309928083029283808610950394808603951461386057828510156138485790829109600182190182168092046002816003021880820260020302808202600203028082026002030280820260020302808202600203028091026002030293600183805f03040190848311900302920304170290565b630c740aef60e31b5f5260045260245260445260645ffd5b50509061294d9250613722565b6040516383db9d0160e01b815260048101919091526001600160a01b039091166024820152602081806044810103817f00000000000000000000000000000000000000000000000000000000000000006001600160a01b03165afa908115611cb6575f91612b3f575090565b6001600160a01b039091169061eeee821461397357604051636eb1769f60e11b81523060048201526001600160a01b0382166024820152602081604481865afa908115611cb6575f9161393f575b5061393b9361393591612a29565b91613fec565b5f90565b90506020813d60201161396b575b8161395a602093836120fb565b8101031261092b575161393b613927565b3d915061394d565b505090565b6001600160a01b039091169061eeee82146139e8576139985f8284614063565b156139a1575050565b6139ab81836140b0565b156139d5575f6139bb9183614114565b156139c35750565b635274afe760e01b5f5260045260245ffd5b50635274afe760e01b5f5260045260245ffd5b5050565b5f52600760205260405f2090604051808360208295549384815201905f5260205f20925f5b818110613b05575050613a26925003836120fb565b81516009018060091161238357613a3c90612133565b916013613a4884612331565b52601d613a5484612352565b5282516002101561233e57601c606084015282516003101561233e576007608084015282516004101561233e57602360a084015282516005101561233e57601e60c084015282516006101561233e57601f60e084015282516007101561233e57601661010084015282516008101561233e5760176101208401525f5b81518110156139e857613ae38183612362565b519080600901918260091161238357613afe60019387612362565b5201613ad0565b8454835260019485019487945060209093019201613a11565b604d811161238357600a0a90565b7f00000000000000000000000000000000000000000000000000000000000000006001600160a01b031693915f9185158015613f7b575b613f7057604051636670798960e01b81526004810182905295602087602481845afa968715611cb6575f97613f3c575b50604051636abcccf160e11b815260048101839052875f82602481865afa918215611cb6575f92613f20575b50815115613f14576003546040516368439abf60e11b8152989950969796602090889060049082906001600160a01b03165afa968715611cb6575f97613ef3575b505f955b8251871015613ee7576001600160a01b03613c1f8885612362565b51604051633bc96a2d60e11b81526004810188905291166001600160a01b038116602483015260208280604481010381895afa918215611cb6575f92613eb4575b508115613dc457604051633a01714f60e01b8152600481018890526001600160a01b038216602482015291906060838c81806044810103916001600160a01b03165afa928315611cb6575f93613e94575b5082516001600160a01b0316819003613e7e5750876020830160ff8151168281115f14613e49575091613cf5613cf0613cfb9360ff6040965116612376565b613b1e565b90613722565b915b01805163ffffffff168c03613d225750613d1990600192612a29565b965b0195613c04565b906040516307aaf34d60e21b81526020816004818a5afa928315611cb6578d915f94613e02575b5090608463ffffffff60209351166040519586938492631df139fd60e11b84528d6004850152602484015260448301528c606483015260018060a01b03165afa918215611cb6575f92613dcf575b508115613dc45791613db8613dbe92600194613db28b613b1e565b906137cd565b90612a29565b96613d1b565b505095600190613d1b565b9091506020813d8211613dfa575b81613dea602093836120fb565b8101031261092b5751905f613d97565b3d9150613ddd565b915092506020813d8211613e41575b81613e1e602093836120fb565b8101031261092b57516001600160a01b038116810361092b57918c906084613d49565b3d9150613e11565b918210159050613e7457613cf0613e60918a612376565b808202918204036123835760409091613cfd565b5060409091613cfd565b87633cc3fac360e21b5f5260045260245260445ffd5b613ead91935060603d81116128bc576128ae81836120fb565b915f613cb1565b9091506020813d8211613edf575b81613ecf602093836120fb565b8101031261092b5751905f613c60565b3d9150613ec2565b98509695505050505050565b613f0d91975060203d602011612900576128f181836120fb565b955f613c00565b505f9796505050505050565b613f359192503d805f833e61296581836120fb565b905f613bbf565b9096506020813d602011613f68575b81613f58602093836120fb565b8101031261092b5751955f613b93565b3d9150613f4b565b505f94508493505050565b50853b15613b63565b9291928115613fe4576127108314613fe45783821015613fdd578382613fa9926137cd565b918015613fd65780612710039061271082116123835761294d94613fd093613db8926137cd565b90613740565b5050905090565b9250505090565b505050505f90565b9190613ff9828285614063565b1561400357505050565b61400d81846140b0565b15614045579061401d9183614114565b156140255750565b635274afe760e01b5f9081526001600160a01b0391909116600452602490fd5b635274afe760e01b5f9081526001600160a01b038416600452602490fd5b92916040519163095ea7b360e01b5f5260018060a01b031660045260245260205f60448180875af19260015f511484161561409f575b50604052565b3d15903b151516909216915f614099565b60405163095ea7b360e01b5f9081526001600160a01b03909316600452602483905290929160209060448180875af19260015f51148416156140f25750604052565b6001849294151661410b573b15153d151616915f614099565b833d5f823e3d90fd5b92916040519163095ea7b360e01b5f5260018060a01b031660045260245260205f60448180875af19260015f51148416156140f2575060405256fea164736f6c634300081c000a",
	"gitCommit": "npm:@rev-net/core-v6@0.0.92",
	"gitDirty": false,
	"history": []
}