{
	"format": "sphinx-sol-ct-artifact-1",
	"address": "0x77bee1ad2ac0ace98a9b5b58d75685c8b4d94948",
	"sourceName": "node_modules/@bananapus/buyback-hook-v6/src/JBBuybackHook.sol",
	"contractName": "JBBuybackHook",
	"chainId": "0x1",
	"abi": [
		{
			"type": "constructor",
			"inputs": [
				{
					"name": "directory",
					"type": "address",
					"internalType": "contract IJBDirectory"
				},
				{
					"name": "permissions",
					"type": "address",
					"internalType": "contract IJBPermissions"
				},
				{
					"name": "prices",
					"type": "address",
					"internalType": "contract IJBPrices"
				},
				{
					"name": "projects",
					"type": "address",
					"internalType": "contract IJBProjects"
				},
				{
					"name": "tokens",
					"type": "address",
					"internalType": "contract IJBTokens"
				},
				{
					"name": "deployer",
					"type": "address",
					"internalType": "address"
				},
				{
					"name": "trustedForwarder",
					"type": "address",
					"internalType": "address"
				}
			],
			"stateMutability": "nonpayable"
		},
		{
			"type": "receive",
			"stateMutability": "payable"
		},
		{
			"type": "function",
			"name": "DIRECTORY",
			"inputs": [],
			"outputs": [
				{
					"name": "",
					"type": "address",
					"internalType": "contract IJBDirectory"
				}
			],
			"stateMutability": "view"
		},
		{
			"type": "function",
			"name": "MAX_TWAP_WINDOW",
			"inputs": [],
			"outputs": [
				{
					"name": "",
					"type": "uint256",
					"internalType": "uint256"
				}
			],
			"stateMutability": "view"
		},
		{
			"type": "function",
			"name": "MIN_TWAP_WINDOW",
			"inputs": [],
			"outputs": [
				{
					"name": "",
					"type": "uint256",
					"internalType": "uint256"
				}
			],
			"stateMutability": "view"
		},
		{
			"type": "function",
			"name": "PERMISSIONS",
			"inputs": [],
			"outputs": [
				{
					"name": "",
					"type": "address",
					"internalType": "contract IJBPermissions"
				}
			],
			"stateMutability": "view"
		},
		{
			"type": "function",
			"name": "PRICES",
			"inputs": [],
			"outputs": [
				{
					"name": "",
					"type": "address",
					"internalType": "contract IJBPrices"
				}
			],
			"stateMutability": "view"
		},
		{
			"type": "function",
			"name": "PROJECTS",
			"inputs": [],
			"outputs": [
				{
					"name": "",
					"type": "address",
					"internalType": "contract IJBProjects"
				}
			],
			"stateMutability": "view"
		},
		{
			"type": "function",
			"name": "TOKENS",
			"inputs": [],
			"outputs": [
				{
					"name": "",
					"type": "address",
					"internalType": "contract IJBTokens"
				}
			],
			"stateMutability": "view"
		},
		{
			"type": "function",
			"name": "TWAP_SLIPPAGE_DENOMINATOR",
			"inputs": [],
			"outputs": [
				{
					"name": "",
					"type": "uint256",
					"internalType": "uint256"
				}
			],
			"stateMutability": "view"
		},
		{
			"type": "function",
			"name": "afterCashOutRecordedWith",
			"inputs": [
				{
					"name": "context",
					"type": "tuple",
					"internalType": "struct JBAfterCashOutRecordedContext",
					"components": [
						{
							"name": "holder",
							"type": "address",
							"internalType": "address"
						},
						{
							"name": "projectId",
							"type": "uint256",
							"internalType": "uint256"
						},
						{
							"name": "rulesetId",
							"type": "uint256",
							"internalType": "uint256"
						},
						{
							"name": "cashOutCount",
							"type": "uint256",
							"internalType": "uint256"
						},
						{
							"name": "reclaimedAmount",
							"type": "tuple",
							"internalType": "struct JBTokenAmount",
							"components": [
								{
									"name": "token",
									"type": "address",
									"internalType": "address"
								},
								{
									"name": "decimals",
									"type": "uint8",
									"internalType": "uint8"
								},
								{
									"name": "currency",
									"type": "uint32",
									"internalType": "uint32"
								},
								{
									"name": "value",
									"type": "uint256",
									"internalType": "uint256"
								}
							]
						},
						{
							"name": "forwardedAmount",
							"type": "tuple",
							"internalType": "struct JBTokenAmount",
							"components": [
								{
									"name": "token",
									"type": "address",
									"internalType": "address"
								},
								{
									"name": "decimals",
									"type": "uint8",
									"internalType": "uint8"
								},
								{
									"name": "currency",
									"type": "uint32",
									"internalType": "uint32"
								},
								{
									"name": "value",
									"type": "uint256",
									"internalType": "uint256"
								}
							]
						},
						{
							"name": "cashOutTaxRate",
							"type": "uint256",
							"internalType": "uint256"
						},
						{
							"name": "beneficiary",
							"type": "address",
							"internalType": "address payable"
						},
						{
							"name": "hookMetadata",
							"type": "bytes",
							"internalType": "bytes"
						},
						{
							"name": "cashOutMetadata",
							"type": "bytes",
							"internalType": "bytes"
						}
					]
				}
			],
			"outputs": [],
			"stateMutability": "payable"
		},
		{
			"type": "function",
			"name": "afterPayRecordedWith",
			"inputs": [
				{
					"name": "context",
					"type": "tuple",
					"internalType": "struct JBAfterPayRecordedContext",
					"components": [
						{
							"name": "payer",
							"type": "address",
							"internalType": "address"
						},
						{
							"name": "projectId",
							"type": "uint256",
							"internalType": "uint256"
						},
						{
							"name": "rulesetId",
							"type": "uint256",
							"internalType": "uint256"
						},
						{
							"name": "amount",
							"type": "tuple",
							"internalType": "struct JBTokenAmount",
							"components": [
								{
									"name": "token",
									"type": "address",
									"internalType": "address"
								},
								{
									"name": "decimals",
									"type": "uint8",
									"internalType": "uint8"
								},
								{
									"name": "currency",
									"type": "uint32",
									"internalType": "uint32"
								},
								{
									"name": "value",
									"type": "uint256",
									"internalType": "uint256"
								}
							]
						},
						{
							"name": "forwardedAmount",
							"type": "tuple",
							"internalType": "struct JBTokenAmount",
							"components": [
								{
									"name": "token",
									"type": "address",
									"internalType": "address"
								},
								{
									"name": "decimals",
									"type": "uint8",
									"internalType": "uint8"
								},
								{
									"name": "currency",
									"type": "uint32",
									"internalType": "uint32"
								},
								{
									"name": "value",
									"type": "uint256",
									"internalType": "uint256"
								}
							]
						},
						{
							"name": "weight",
							"type": "uint256",
							"internalType": "uint256"
						},
						{
							"name": "newlyIssuedTokenCount",
							"type": "uint256",
							"internalType": "uint256"
						},
						{
							"name": "beneficiary",
							"type": "address",
							"internalType": "address"
						},
						{
							"name": "hookMetadata",
							"type": "bytes",
							"internalType": "bytes"
						},
						{
							"name": "payerMetadata",
							"type": "bytes",
							"internalType": "bytes"
						}
					]
				}
			],
			"outputs": [],
			"stateMutability": "payable"
		},
		{
			"type": "function",
			"name": "beforeCashOutRecordedWith",
			"inputs": [
				{
					"name": "context",
					"type": "tuple",
					"internalType": "struct JBBeforeCashOutRecordedContext",
					"components": [
						{
							"name": "terminal",
							"type": "address",
							"internalType": "address"
						},
						{
							"name": "holder",
							"type": "address",
							"internalType": "address"
						},
						{
							"name": "projectId",
							"type": "uint256",
							"internalType": "uint256"
						},
						{
							"name": "rulesetId",
							"type": "uint256",
							"internalType": "uint256"
						},
						{
							"name": "cashOutCount",
							"type": "uint256",
							"internalType": "uint256"
						},
						{
							"name": "totalSupply",
							"type": "uint256",
							"internalType": "uint256"
						},
						{
							"name": "surplus",
							"type": "tuple",
							"internalType": "struct JBTokenAmount",
							"components": [
								{
									"name": "token",
									"type": "address",
									"internalType": "address"
								},
								{
									"name": "decimals",
									"type": "uint8",
									"internalType": "uint8"
								},
								{
									"name": "currency",
									"type": "uint32",
									"internalType": "uint32"
								},
								{
									"name": "value",
									"type": "uint256",
									"internalType": "uint256"
								}
							]
						},
						{
							"name": "scopeCashOutsToLocalBalances",
							"type": "bool",
							"internalType": "bool"
						},
						{
							"name": "cashOutTaxRate",
							"type": "uint256",
							"internalType": "uint256"
						},
						{
							"name": "beneficiaryIsFeeless",
							"type": "bool",
							"internalType": "bool"
						},
						{
							"name": "metadata",
							"type": "bytes",
							"internalType": "bytes"
						}
					]
				}
			],
			"outputs": [
				{
					"name": "cashOutTaxRate",
					"type": "uint256",
					"internalType": "uint256"
				},
				{
					"name": "cashOutCount",
					"type": "uint256",
					"internalType": "uint256"
				},
				{
					"name": "totalSupply",
					"type": "uint256",
					"internalType": "uint256"
				},
				{
					"name": "effectiveSurplusValue",
					"type": "uint256",
					"internalType": "uint256"
				},
				{
					"name": "hookSpecifications",
					"type": "tuple[]",
					"internalType": "struct JBCashOutHookSpecification[]",
					"components": [
						{
							"name": "hook",
							"type": "address",
							"internalType": "contract IJBCashOutHook"
						},
						{
							"name": "noop",
							"type": "bool",
							"internalType": "bool"
						},
						{
							"name": "amount",
							"type": "uint256",
							"internalType": "uint256"
						},
						{
							"name": "metadata",
							"type": "bytes",
							"internalType": "bytes"
						}
					]
				}
			],
			"stateMutability": "view"
		},
		{
			"type": "function",
			"name": "beforePayRecordedWith",
			"inputs": [
				{
					"name": "context",
					"type": "tuple",
					"internalType": "struct JBBeforePayRecordedContext",
					"components": [
						{
							"name": "terminal",
							"type": "address",
							"internalType": "address"
						},
						{
							"name": "payer",
							"type": "address",
							"internalType": "address"
						},
						{
							"name": "amount",
							"type": "tuple",
							"internalType": "struct JBTokenAmount",
							"components": [
								{
									"name": "token",
									"type": "address",
									"internalType": "address"
								},
								{
									"name": "decimals",
									"type": "uint8",
									"internalType": "uint8"
								},
								{
									"name": "currency",
									"type": "uint32",
									"internalType": "uint32"
								},
								{
									"name": "value",
									"type": "uint256",
									"internalType": "uint256"
								}
							]
						},
						{
							"name": "projectId",
							"type": "uint256",
							"internalType": "uint256"
						},
						{
							"name": "rulesetId",
							"type": "uint256",
							"internalType": "uint256"
						},
						{
							"name": "beneficiary",
							"type": "address",
							"internalType": "address"
						},
						{
							"name": "weight",
							"type": "uint256",
							"internalType": "uint256"
						},
						{
							"name": "reservedPercent",
							"type": "uint256",
							"internalType": "uint256"
						},
						{
							"name": "metadata",
							"type": "bytes",
							"internalType": "bytes"
						}
					]
				}
			],
			"outputs": [
				{
					"name": "weight",
					"type": "uint256",
					"internalType": "uint256"
				},
				{
					"name": "hookSpecifications",
					"type": "tuple[]",
					"internalType": "struct JBPayHookSpecification[]",
					"components": [
						{
							"name": "hook",
							"type": "address",
							"internalType": "contract IJBPayHook"
						},
						{
							"name": "noop",
							"type": "bool",
							"internalType": "bool"
						},
						{
							"name": "amount",
							"type": "uint256",
							"internalType": "uint256"
						},
						{
							"name": "metadata",
							"type": "bytes",
							"internalType": "bytes"
						}
					]
				}
			],
			"stateMutability": "view"
		},
		{
			"type": "function",
			"name": "hasMintPermissionFor",
			"inputs": [
				{
					"name": "",
					"type": "uint256",
					"internalType": "uint256"
				},
				{
					"name": "",
					"type": "tuple",
					"internalType": "struct JBRuleset",
					"components": [
						{
							"name": "cycleNumber",
							"type": "uint48",
							"internalType": "uint48"
						},
						{
							"name": "id",
							"type": "uint48",
							"internalType": "uint48"
						},
						{
							"name": "basedOnId",
							"type": "uint48",
							"internalType": "uint48"
						},
						{
							"name": "start",
							"type": "uint48",
							"internalType": "uint48"
						},
						{
							"name": "duration",
							"type": "uint32",
							"internalType": "uint32"
						},
						{
							"name": "weight",
							"type": "uint112",
							"internalType": "uint112"
						},
						{
							"name": "weightCutPercent",
							"type": "uint32",
							"internalType": "uint32"
						},
						{
							"name": "approvalHook",
							"type": "address",
							"internalType": "contract IJBRulesetApprovalHook"
						},
						{
							"name": "metadata",
							"type": "uint256",
							"internalType": "uint256"
						}
					]
				},
				{
					"name": "",
					"type": "address",
					"internalType": "address"
				}
			],
			"outputs": [
				{
					"name": "",
					"type": "bool",
					"internalType": "bool"
				}
			],
			"stateMutability": "pure"
		},
		{
			"type": "function",
			"name": "initializePoolFor",
			"inputs": [
				{
					"name": "projectId",
					"type": "uint256",
					"internalType": "uint256"
				},
				{
					"name": "fee",
					"type": "uint24",
					"internalType": "uint24"
				},
				{
					"name": "tickSpacing",
					"type": "int24",
					"internalType": "int24"
				},
				{
					"name": "twapWindow",
					"type": "uint256",
					"internalType": "uint256"
				},
				{
					"name": "terminalToken",
					"type": "address",
					"internalType": "address"
				},
				{
					"name": "sqrtPriceX96",
					"type": "uint160",
					"internalType": "uint160"
				}
			],
			"outputs": [],
			"stateMutability": "nonpayable"
		},
		{
			"type": "function",
			"name": "isTrustedForwarder",
			"inputs": [
				{
					"name": "forwarder",
					"type": "address",
					"internalType": "address"
				}
			],
			"outputs": [
				{
					"name": "",
					"type": "bool",
					"internalType": "bool"
				}
			],
			"stateMutability": "view"
		},
		{
			"type": "function",
			"name": "oracleHook",
			"inputs": [],
			"outputs": [
				{
					"name": "",
					"type": "address",
					"internalType": "contract IHooks"
				}
			],
			"stateMutability": "view"
		},
		{
			"type": "function",
			"name": "poolKeyOf",
			"inputs": [
				{
					"name": "projectId",
					"type": "uint256",
					"internalType": "uint256"
				},
				{
					"name": "terminalToken",
					"type": "address",
					"internalType": "address"
				}
			],
			"outputs": [
				{
					"name": "key",
					"type": "tuple",
					"internalType": "struct PoolKey",
					"components": [
						{
							"name": "currency0",
							"type": "address",
							"internalType": "Currency"
						},
						{
							"name": "currency1",
							"type": "address",
							"internalType": "Currency"
						},
						{
							"name": "fee",
							"type": "uint24",
							"internalType": "uint24"
						},
						{
							"name": "tickSpacing",
							"type": "int24",
							"internalType": "int24"
						},
						{
							"name": "hooks",
							"type": "address",
							"internalType": "contract IHooks"
						}
					]
				}
			],
			"stateMutability": "view"
		},
		{
			"type": "function",
			"name": "poolManager",
			"inputs": [],
			"outputs": [
				{
					"name": "",
					"type": "address",
					"internalType": "contract IPoolManager"
				}
			],
			"stateMutability": "view"
		},
		{
			"type": "function",
			"name": "projectTokenOf",
			"inputs": [
				{
					"name": "projectId",
					"type": "uint256",
					"internalType": "uint256"
				}
			],
			"outputs": [
				{
					"name": "",
					"type": "address",
					"internalType": "address"
				}
			],
			"stateMutability": "view"
		},
		{
			"type": "function",
			"name": "setChainSpecificConstants",
			"inputs": [
				{
					"name": "newPoolManager",
					"type": "address",
					"internalType": "contract IPoolManager"
				},
				{
					"name": "newOracleHook",
					"type": "address",
					"internalType": "contract IHooks"
				}
			],
			"outputs": [],
			"stateMutability": "nonpayable"
		},
		{
			"type": "function",
			"name": "setPoolFor",
			"inputs": [
				{
					"name": "projectId",
					"type": "uint256",
					"internalType": "uint256"
				},
				{
					"name": "fee",
					"type": "uint24",
					"internalType": "uint24"
				},
				{
					"name": "tickSpacing",
					"type": "int24",
					"internalType": "int24"
				},
				{
					"name": "twapWindow",
					"type": "uint256",
					"internalType": "uint256"
				},
				{
					"name": "terminalToken",
					"type": "address",
					"internalType": "address"
				}
			],
			"outputs": [],
			"stateMutability": "nonpayable"
		},
		{
			"type": "function",
			"name": "setPoolFor",
			"inputs": [
				{
					"name": "projectId",
					"type": "uint256",
					"internalType": "uint256"
				},
				{
					"name": "poolKey",
					"type": "tuple",
					"internalType": "struct PoolKey",
					"components": [
						{
							"name": "currency0",
							"type": "address",
							"internalType": "Currency"
						},
						{
							"name": "currency1",
							"type": "address",
							"internalType": "Currency"
						},
						{
							"name": "fee",
							"type": "uint24",
							"internalType": "uint24"
						},
						{
							"name": "tickSpacing",
							"type": "int24",
							"internalType": "int24"
						},
						{
							"name": "hooks",
							"type": "address",
							"internalType": "contract IHooks"
						}
					]
				},
				{
					"name": "twapWindow",
					"type": "uint256",
					"internalType": "uint256"
				},
				{
					"name": "terminalToken",
					"type": "address",
					"internalType": "address"
				}
			],
			"outputs": [],
			"stateMutability": "nonpayable"
		},
		{
			"type": "function",
			"name": "setTwapWindowOf",
			"inputs": [
				{
					"name": "projectId",
					"type": "uint256",
					"internalType": "uint256"
				},
				{
					"name": "terminalToken",
					"type": "address",
					"internalType": "address"
				},
				{
					"name": "newWindow",
					"type": "uint256",
					"internalType": "uint256"
				}
			],
			"outputs": [],
			"stateMutability": "nonpayable"
		},
		{
			"type": "function",
			"name": "supportsInterface",
			"inputs": [
				{
					"name": "interfaceId",
					"type": "bytes4",
					"internalType": "bytes4"
				}
			],
			"outputs": [
				{
					"name": "",
					"type": "bool",
					"internalType": "bool"
				}
			],
			"stateMutability": "pure"
		},
		{
			"type": "function",
			"name": "trustedForwarder",
			"inputs": [],
			"outputs": [
				{
					"name": "",
					"type": "address",
					"internalType": "address"
				}
			],
			"stateMutability": "view"
		},
		{
			"type": "function",
			"name": "twapWindowOf",
			"inputs": [
				{
					"name": "projectId",
					"type": "uint256",
					"internalType": "uint256"
				},
				{
					"name": "terminalToken",
					"type": "address",
					"internalType": "address"
				}
			],
			"outputs": [
				{
					"name": "",
					"type": "uint256",
					"internalType": "uint256"
				}
			],
			"stateMutability": "view"
		},
		{
			"type": "function",
			"name": "unlockCallback",
			"inputs": [
				{
					"name": "data",
					"type": "bytes",
					"internalType": "bytes"
				}
			],
			"outputs": [
				{
					"name": "",
					"type": "bytes",
					"internalType": "bytes"
				}
			],
			"stateMutability": "nonpayable"
		},
		{
			"type": "event",
			"name": "CashOutSwap",
			"inputs": [
				{
					"name": "projectId",
					"type": "uint256",
					"indexed": true,
					"internalType": "uint256"
				},
				{
					"name": "cashOutCount",
					"type": "uint256",
					"indexed": false,
					"internalType": "uint256"
				},
				{
					"name": "poolId",
					"type": "bytes32",
					"indexed": true,
					"internalType": "PoolId"
				},
				{
					"name": "amountReceived",
					"type": "uint256",
					"indexed": false,
					"internalType": "uint256"
				},
				{
					"name": "caller",
					"type": "address",
					"indexed": false,
					"internalType": "address"
				}
			],
			"anonymous": false
		},
		{
			"type": "event",
			"name": "Mint",
			"inputs": [
				{
					"name": "projectId",
					"type": "uint256",
					"indexed": true,
					"internalType": "uint256"
				},
				{
					"name": "leftoverAmount",
					"type": "uint256",
					"indexed": false,
					"internalType": "uint256"
				},
				{
					"name": "tokenCount",
					"type": "uint256",
					"indexed": false,
					"internalType": "uint256"
				},
				{
					"name": "caller",
					"type": "address",
					"indexed": false,
					"internalType": "address"
				}
			],
			"anonymous": false
		},
		{
			"type": "event",
			"name": "PoolAdded",
			"inputs": [
				{
					"name": "projectId",
					"type": "uint256",
					"indexed": true,
					"internalType": "uint256"
				},
				{
					"name": "terminalToken",
					"type": "address",
					"indexed": true,
					"internalType": "address"
				},
				{
					"name": "poolId",
					"type": "bytes32",
					"indexed": false,
					"internalType": "PoolId"
				},
				{
					"name": "caller",
					"type": "address",
					"indexed": false,
					"internalType": "address"
				}
			],
			"anonymous": false
		},
		{
			"type": "event",
			"name": "SellSwapReverted",
			"inputs": [
				{
					"name": "projectId",
					"type": "uint256",
					"indexed": true,
					"internalType": "uint256"
				},
				{
					"name": "holder",
					"type": "address",
					"indexed": true,
					"internalType": "address"
				},
				{
					"name": "amount",
					"type": "uint256",
					"indexed": false,
					"internalType": "uint256"
				},
				{
					"name": "caller",
					"type": "address",
					"indexed": false,
					"internalType": "address"
				}
			],
			"anonymous": false
		},
		{
			"type": "event",
			"name": "Swap",
			"inputs": [
				{
					"name": "projectId",
					"type": "uint256",
					"indexed": true,
					"internalType": "uint256"
				},
				{
					"name": "amountToSwapWith",
					"type": "uint256",
					"indexed": false,
					"internalType": "uint256"
				},
				{
					"name": "poolId",
					"type": "bytes32",
					"indexed": true,
					"internalType": "PoolId"
				},
				{
					"name": "amountReceived",
					"type": "uint256",
					"indexed": false,
					"internalType": "uint256"
				},
				{
					"name": "caller",
					"type": "address",
					"indexed": false,
					"internalType": "address"
				}
			],
			"anonymous": false
		},
		{
			"type": "event",
			"name": "TwapWindowChanged",
			"inputs": [
				{
					"name": "projectId",
					"type": "uint256",
					"indexed": true,
					"internalType": "uint256"
				},
				{
					"name": "terminalToken",
					"type": "address",
					"indexed": true,
					"internalType": "address"
				},
				{
					"name": "oldWindow",
					"type": "uint256",
					"indexed": false,
					"internalType": "uint256"
				},
				{
					"name": "newWindow",
					"type": "uint256",
					"indexed": false,
					"internalType": "uint256"
				},
				{
					"name": "caller",
					"type": "address",
					"indexed": false,
					"internalType": "address"
				}
			],
			"anonymous": false
		},
		{
			"type": "error",
			"name": "FailedCall",
			"inputs": []
		},
		{
			"type": "error",
			"name": "InsufficientBalance",
			"inputs": [
				{
					"name": "balance",
					"type": "uint256",
					"internalType": "uint256"
				},
				{
					"name": "needed",
					"type": "uint256",
					"internalType": "uint256"
				}
			]
		},
		{
			"type": "error",
			"name": "JBBuybackHook_AlreadyConfigured",
			"inputs": []
		},
		{
			"type": "error",
			"name": "JBBuybackHook_CallerNotPoolManager",
			"inputs": [
				{
					"name": "caller",
					"type": "address",
					"internalType": "address"
				}
			]
		},
		{
			"type": "error",
			"name": "JBBuybackHook_CallerNotTerminal",
			"inputs": [
				{
					"name": "caller",
					"type": "address",
					"internalType": "address"
				}
			]
		},
		{
			"type": "error",
			"name": "JBBuybackHook_InsufficientPayAmount",
			"inputs": [
				{
					"name": "swapAmount",
					"type": "uint256",
					"internalType": "uint256"
				},
				{
					"name": "totalPaid",
					"type": "uint256",
					"internalType": "uint256"
				}
			]
		},
		{
			"type": "error",
			"name": "JBBuybackHook_InvalidTwapWindow",
			"inputs": [
				{
					"name": "value",
					"type": "uint256",
					"internalType": "uint256"
				},
				{
					"name": "min",
					"type": "uint256",
					"internalType": "uint256"
				},
				{
					"name": "max",
					"type": "uint256",
					"internalType": "uint256"
				}
			]
		},
		{
			"type": "error",
			"name": "JBBuybackHook_PoolAlreadySet",
			"inputs": [
				{
					"name": "poolId",
					"type": "bytes32",
					"internalType": "PoolId"
				}
			]
		},
		{
			"type": "error",
			"name": "JBBuybackHook_PoolInitializedAtWrongPrice",
			"inputs": [
				{
					"name": "actualSqrtPriceX96",
					"type": "uint160",
					"internalType": "uint160"
				},
				{
					"name": "expectedSqrtPriceX96",
					"type": "uint160",
					"internalType": "uint160"
				}
			]
		},
		{
			"type": "error",
			"name": "JBBuybackHook_PoolKeyCurrenciesMismatch",
			"inputs": []
		},
		{
			"type": "error",
			"name": "JBBuybackHook_PoolNotInitialized",
			"inputs": [
				{
					"name": "poolId",
					"type": "bytes32",
					"internalType": "PoolId"
				}
			]
		},
		{
			"type": "error",
			"name": "JBBuybackHook_PoolNotSet",
			"inputs": [
				{
					"name": "projectId",
					"type": "uint256",
					"internalType": "uint256"
				},
				{
					"name": "terminalToken",
					"type": "address",
					"internalType": "address"
				}
			]
		},
		{
			"type": "error",
			"name": "JBBuybackHook_SpecifiedSlippageExceeded",
			"inputs": [
				{
					"name": "amount",
					"type": "uint256",
					"internalType": "uint256"
				},
				{
					"name": "minimum",
					"type": "uint256",
					"internalType": "uint256"
				}
			]
		},
		{
			"type": "error",
			"name": "JBBuybackHook_TerminalTokenIsProjectToken",
			"inputs": [
				{
					"name": "terminalToken",
					"type": "address",
					"internalType": "address"
				},
				{
					"name": "projectToken",
					"type": "address",
					"internalType": "address"
				}
			]
		},
		{
			"type": "error",
			"name": "JBBuybackHook_Unauthorized",
			"inputs": [
				{
					"name": "caller",
					"type": "address",
					"internalType": "address"
				}
			]
		},
		{
			"type": "error",
			"name": "JBBuybackHook_ZeroProjectToken",
			"inputs": [
				{
					"name": "projectId",
					"type": "uint256",
					"internalType": "uint256"
				}
			]
		},
		{
			"type": "error",
			"name": "JBPermissioned_Unauthorized",
			"inputs": [
				{
					"name": "account",
					"type": "address",
					"internalType": "address"
				},
				{
					"name": "sender",
					"type": "address",
					"internalType": "address"
				},
				{
					"name": "projectId",
					"type": "uint256",
					"internalType": "uint256"
				},
				{
					"name": "permissionId",
					"type": "uint256",
					"internalType": "uint256"
				}
			]
		},
		{
			"type": "error",
			"name": "PRBMath_MulDiv_Overflow",
			"inputs": [
				{
					"name": "x",
					"type": "uint256",
					"internalType": "uint256"
				},
				{
					"name": "y",
					"type": "uint256",
					"internalType": "uint256"
				},
				{
					"name": "denominator",
					"type": "uint256",
					"internalType": "uint256"
				}
			]
		},
		{
			"type": "error",
			"name": "SafeERC20FailedOperation",
			"inputs": [
				{
					"name": "token",
					"type": "address",
					"internalType": "address"
				}
			]
		}
	],
	"args": [
		"0x5AfF29060E023e6FB87BE5596652B33c65Af535B",
		"0xf92AC1aB5A00033E35a3975739124F61928C36B0",
		"0xad45E4627f068d1e6b21E5301870d807543a8401",
		"0x6017d1FBa9DC279BFA0B03fD931C22E242AB3691",
		"0x1f80d8f057eE36b4C2656D107E4e4558B71bA7D9",
		"0x4dc161eF837fF1C4485b08DDFcDB182F2157bE18",
		"0x3bA60b60933916a7C87D0860DcEE62a0CE34E3e2"
	],
	"solcInputHash": "6c677009476b320066216b256beb212f",
	"bytecode": "0x6101a06040523461024e5761627c60e0813803918261001d81610252565b93849283398101031261024e5780516001600160a01b038116810361024e576020820151906001600160a01b038216820361024e576040830151916001600160a01b038316830361024e576060840151916001600160a01b038316830361024e576080850151916001600160a01b038316830361024e576100ac60c06100a560a0890161028b565b970161028b565b9060805260a05260c052610120526101005260e052610160526101246100d26040610252565b600781526618d85cda13dd5d60ca1b6020909101523060601b6001600160601b0319167f86b14ff4df1839d4c5ed01550f2540ea56ad3e38000000000000000000000000186001600160e01b03191690565b610140526101836101356040610252565b600381526270617960e81b6020909101523060601b6001600160601b0319167fadc756803e4eb4ccfb136b73d5f72e3dc0d452d3000000000000000000000000186001600160e01b03191690565b61018052604051615fdc90816102a08239608051818181610254015281816105d60152613df2015260a051818181610fd5015281816110300152615fa1015260c051818181610ee9015281816116890152818161223a0152612c9a015260e0518181816115be01526128ff015261010051818181610405015281816110b5015281816112cd0152818161148b0152611546015261012051818181611122015281816116030152613eb0015261014051816133f90152610160518161030e015261018051816121dd0152f35b5f80fd5b6040519190601f01601f191682016001600160401b0381118382101761027757604052565b634e487b7160e01b5f52604160045260245ffd5b51906001600160a01b038216820361024e5756fe61026080604052600436101561001d575b50361561001b575f80fd5b005b5f905f3560e01c90816301ffc9a714611d15575080631337f9861461164f5780631a65893b146116325780631d831d5c146115ed5780631eabcd34146115a857806327e5141114611575578063293c499914611530578063345c42131461143e57806349e303831461126d57806353fd8e3114611062578063572b6c05146110045780637da0a87714610fbf578063826a5e7414610f1857806388bc2ef314610ed35780638cc3584614610dfc57806391dd7346146108155780639782ed71146107d05780639785f1ed146107a757806399f6d77f146106a7578063b7433b35146103c6578063b88a92b4146103a8578063bac6b2ad146102dc578063c22903b2146102c7578063db312fae146102aa578063dc4c90d314610283578063f434c9141461023e5763f672acac03610010573461023b57602036600319011261023b576004356001600160401b038111610239576101c060031982360301126102395761018b906004016133a2565b92939060409592955195869560a0870193875260208701526040860152606085015260a06080850152825180915260c08401602060c08360051b870101940192905b8282106101dc57505050500390f35b91936001919395506020610229819260bf198a8203018652608060608a51878060a01b03815116845285810151151586850152604081015160408501520151918160608201520190611ec6565b96019201920185949391926101cd565b505b80fd5b503461023b578060031936011261023b576040517f00000000000000000000000000000000000000000000000000000000000000006001600160a01b03168152602090f35b503461023b578060031936011261023b57546040516001600160a01b039091168152602090f35b503461023b578060031936011261023b5760206040516127108152f35b506102d96102d436611dc8565b612c6f565b80f35b503461023b57604036600319011261023b576004356001600160a01b038116908190036102395761030b611e42565b907f00000000000000000000000000000000000000000000000000000000000000006001600160a01b031633036103955782546001600160a01b038116610383576bffffffffffffffffffffffff60a01b1617825560018060a01b03166bffffffffffffffffffffffff60a01b600154161760015580f35b6001622c6feb60e11b03198452600484fd5b634758af1b60e01b835233600452602483fd5b503461023b578060031936011261023b5760206040516202a3008152f35b503461023b57606036600319011261023b576004356103e3611e42565b6040516331a9108f60e11b8152600481018390526044359291906020816024817f00000000000000000000000000000000000000000000000000000000000000006001600160a01b03165afa90811561069c57859161065e575b50610446615f76565b6001600160a01b0391821691168082141580610596575b61056b57505061046c83614d21565b6001600160a01b03811661eeee03610565575082915b81845260056020526040842060018060a01b0384165f5260205260ff60405f20541615610544578184526004602081815260408087206001600160a01b0387165f81815291845282822054878a529484528289209082529092529020829055927fac260005f5a1d1cb696ab1065059083a3769fa09f4b4699f1dafd670d071a921919061053e610510615f76565b6040805197885260208801949094526001600160a01b03908116938701939093529116939081906060820190565b0390a380f35b633d56755560e01b845260048290526001600160a01b038316602452604484fd5b91610482565b908360849260405192631326f75560e11b8452600484015260248301526044820152601c6064820152fd5b50604051631a45b42760e11b8152600481018290526024810183905260448101859052601c606482015260016084820181905260a482015260208160c4817f00000000000000000000000000000000000000000000000000000000000000006001600160a01b03165afa908115610653578791610615575b501561045d565b90506020813d60201161064b575b8161063060209383611f50565b810103126106475761064190611f71565b5f61060e565b8680fd5b3d9150610623565b6040513d89823e3d90fd5b90506020813d602011610694575b8161067960209383611f50565b810103126106905761068a9061203d565b5f61043d565b8480fd5b3d915061066c565b6040513d87823e3d90fd5b503461023b5761016036600319011261023b5761012036602319011261023b57604051906106d482611f34565b60243565ffffffffffff8116810361023957825260443565ffffffffffff8116810361023957602083015260643565ffffffffffff8116810361023957604083015260843565ffffffffffff8116810361023957606083015260a43563ffffffff8116810361023957608083015260c4356001600160701b03811681036102395760a083015260e43563ffffffff811681036102395760c083015261010435916001600160a01b03831683036102395760209260e08201526101006101243591015261079e611e58565b50604051908152f35b503461023b578060031936011261023b576001546040516001600160a01b039091168152602090f35b503461023b57604036600319011261023b5760406107ec611e42565b9160043581526004602052209060018060a01b03165f52602052602060405f2054604051908152f35b503461023b57602036600319011261023b57600435906001600160401b03821161023b573660238301121561023b5781600401356001600160401b0381116102395782019036602483011161023b5780546001600160a01b03169133839003610de957610100848203126102395760a060246040519261089484611f19565b869003016023190112610239576040516108ad81611eea565b6108b960248601611e6f565b81526108c760448601611e6f565b6020820152606485013562ffffff81168103610ba55760408201526108ee60848601611e1e565b60608201526108ff60a48601611e6f565b6080820152815261091260c48501611fb0565b93610940602083019580875260e4830135906101046040860194838652013590816060870152151591614b31565b93825186511515925195600160ff1b8714610dd55760405193606085018581106001600160401b03821117610dc15792610a006109cf938993602098979660405287528787019a84038b52604087019060018060a01b031681526040519084898301528882526109b1604083611f50565b604051633cf3645360e21b81529b8c98899788966004880190611e83565b51151560a48601525160c4850152516001600160a01b031660e4840152610120610104840152610124830190611ec6565b03925af1928315610db6578293610d82575b508260801d935115155f14610d4a575180516020909101516001600160a01b03918216949116906001600160801b03908190610a4d90612c4f565b169316935b6001600160a01b031680610c7e57508154604051630476982d60e21b8152906020908290600490829088906001600160a01b03165af18015610c7357610c44575b505b6001600160a01b031680158015610be15747945b83546001600160a01b031690813b15610690578491606483926040519485938492630b0d9c0960e01b845289600485015230602485015260448401525af18015610bd657908491610bbd575b505015610b40575050610b0b610b3c9247611fe5565b604051916020830152604082015260408152610b28606082611f50565b604051918291602083526020830190611ec6565b0390f35b6020602491604051928380926370a0823160e01b82523060048301525afa918215610bb15791610b79575b50610b3c92610b0b91611fe5565b90506020813d602011610ba9575b81610b9460209383611f50565b81010312610ba55751610b3c610b6b565b5f80fd5b3d9150610b87565b604051903d90823e3d90fd5b81610bc791611f50565b610bd257825f610af5565b8280fd5b6040513d86823e3d90fd5b6040516370a0823160e01b8152306004820152602081602481865afa908115610bd6578491610c12575b5094610aa9565b90506020813d602011610c3c575b81610c2d60209383611f50565b81010312610ba557515f610c0b565b3d9150610c20565b610c659060203d602011610c6c575b610c5d8183611f50565b810190612006565b505f610a93565b503d610c53565b6040513d85823e3d90fd5b82546001600160a01b0316803b15610d4657838091602460405180948193632961046560e21b83528760048401525af18015610bd65785918591610d2d575b50508354610cd6926001600160a01b0390911690614ca9565b8154604051630476982d60e21b8152906020908290600490829087906001600160a01b03165af18015610c7357610d0e575b50610a95565b610d269060203d602011610c6c57610c5d8183611f50565b505f610d08565b81925090610d3a91611f50565b610bd25783835f610cbd565b8380fd5b51602081015190516001600160a01b0391821694939116906001600160801b03908190610d7990600f0b612c4f565b16931693610a52565b9092506020813d602011610dae575b81610d9e60209383611f50565b810103126102395751915f610a12565b3d9150610d91565b6040513d84823e3d90fd5b634e487b7160e01b88526041600452602488fd5b634e487b7160e01b86526011600452602486fd5b63cb25844560e01b825233600452602482fd5b503461023b57602036600319011261023b576004356001600160401b03811161023957610180600319823603011261023957610e3a906004016121a4565b6040519283926040840190845260406020850152825180915260608401602060608360051b870101940192905b828210610e7657505050500390f35b91936001919395506020610ec38192605f198a8203018652608060608a51878060a01b03815116845285810151151586850152604081015160408501520151918160608201520190611ec6565b9601920192018594939192610e67565b503461023b578060031936011261023b576040517f00000000000000000000000000000000000000000000000000000000000000006001600160a01b03168152602090f35b503461023b57604036600319011261023b576040610f34611e42565b91610f3d612070565b5060043581526002602052209060018060a01b03165f5260205260a060405f2060405190610f6a82611eea565b600180841b0381541682526001810154600180851b038116602084015262ffffff81851c16604084015260b81c60020b60608301526002600180851b03910154166080820152610fbd6040518092611e83565bf35b503461023b578060031936011261023b576040517f00000000000000000000000000000000000000000000000000000000000000006001600160a01b03168152602090f35b503461023b57602036600319011261023b576004356001600160a01b03811690819003610239576040517f00000000000000000000000000000000000000000000000000000000000000006001600160a01b03169091148152602090f35b503461023b5761010036600319011261023b5760043560a03660231901126102395760e4356001600160a01b038116808203610d46576040516331a9108f60e11b815260048101849052906020826024817f00000000000000000000000000000000000000000000000000000000000000006001600160a01b03165afa801561069c5784928691611229575b5061eeee926110fc91613d5f565b03611223575081905b60405163ea78803f60e01b815260048101829052916020836024817f00000000000000000000000000000000000000000000000000000000000000006001600160a01b03165afa928315610bd65784936111f2575b506040519161116883611eea565b6024356001600160a01b03811681036111ee5783526044356001600160a01b03811681036111ee57602084015260643562ffffff811681036111ee5760408401526084358060020b81036111ee57606084015260a435936001600160a01b03851685036111ee5760808401949094526102d9936001600160a01b03169260c43591613f7a565b8580fd5b61121591935060203d60201161121c575b61120d8183611f50565b810190612051565b915f61115a565b503d611203565b90611105565b9250506020823d602011611265575b8161124560209383611f50565b81010312610690576110fc8461125d61eeee9461203d565b9150926110ee565b3d9150611238565b503461023b5760c036600319011261023b576004359061128b611dfc565b91611294611e0e565b61129c611e2c565b9060a4359460018060a01b038616809603610690576040516331a9108f60e11b8152600481018590526020816024817f00000000000000000000000000000000000000000000000000000000000000006001600160a01b03165afa9081156114335790859187916113e9575b5061131f9493929161131991613d5f565b84613e6b565b92909184602060018060a01b0382541660c46040518094819363313b65df60e11b835261134f6004840189611e83565b8c60a48401525af16113b0575b50845460a08220611375916001600160a01b031661429a565b5050506001600160a01b03169580870361139957506102d994955060643591613f7a565b6302c5a6e160e11b86526004879052602452604485fd5b6020813d6020116113e1575b816113c960209383611f50565b810103126111ee57518060020b81031561135c578580fd5b3d91506113bc565b9150506020813d60201161142b575b8161140560209383611f50565b810103126111ee57906113198561142061131f96959461203d565b915091929394611308565b3d91506113f8565b6040513d88823e3d90fd5b503461023b5760a036600319011261023b5760043561145b611dfc565b90611464611e0e565b61146c611e2c565b6040516331a9108f60e11b8152600481018490529091906020816024817f00000000000000000000000000000000000000000000000000000000000000006001600160a01b03165afa9081156114335786916114e3575b50906102d994611319856114d79594613d5f565b92909160643591613f7a565b929190506020833d602011611528575b8161150060209383611f50565b810103126111ee576102d9946113198561151c6114d79661203d565b939495505050946114c3565b3d91506114f3565b503461023b578060031936011261023b576040517f00000000000000000000000000000000000000000000000000000000000000006001600160a01b03168152602090f35b503461023b57602036600319011261023b57602090600435815260038252604060018060a01b0391205416604051908152f35b503461023b578060031936011261023b576040517f00000000000000000000000000000000000000000000000000000000000000006001600160a01b03168152602090f35b503461023b578060031936011261023b576040517f00000000000000000000000000000000000000000000000000000000000000006001600160a01b03168152602090f35b503461023b578060031936011261023b57602060405161012c8152f35b5061165936611dc8565b604051636e49181f60e01b8152602082810135600483018190523360248401529190816044816001600160a01b037f0000000000000000000000000000000000000000000000000000000000000000165afa908115611b07575f91611cdb575b5015611cc857816116cf6101c080940182611f7e565b9080949181010312610ba5576116e483611fb0565b926040810135936116f760608301611fb0565b9060808301359260018060a01b03841696878503610ba55760a08201359360c08301359360e08401359261172e6101008601611e1e565b5061173c6101208601611fbd565b5080938781151580611cba575b611c8b575b50505060e088019061eeee6001600160a01b0361176a84611fd1565b161497889761178061177b85611fd1565b613a07565b99611c79575b88159283611bfd575b916117a0916117b49594938d613b13565b9390996117af61177b85611fd1565b611fe5565b5f98816118c2575b5050505081156118b9575b50806118a7575b61188757506117f9926117f38695936117f39360206101608d9b9a0135910135613964565b90612030565b9182611803578380f35b6020936118156101a060c49401611fd1565b9560405196879586946363fdc96f60e11b86526004860152602485015260018060a01b0316604484015260a060648401528160a4840152600160848401525af18015610db657611868575b818180808380f35b6118809060203d602011610c6c57610c5d8183611f50565b505f611860565b886044916118958688612030565b63e2d708a960e01b8352600452602452fd5b50806118b38587612030565b106117ce565b9050155f6117c7565b8c939499505f9e9d9e50825f93611b19575b8115611b1257825b6118e861177b88611fd1565b956118f288611fd1565b91602095604051936119048886611f50565b5f8552333b15610ba5575f9361196260405196879586948594639e6eec0560e01b8652600486015260018060a01b03166024850152604484015286606484015260c060848401528660c484015260e060a484015260e4830190611ec6565b0391335af18015611b0757611aef575b509d9e9d8f90611a8a575b50156119fb57505061199461177b61199a93611fd1565b90611fe5565b945b887faacef1bbb194eac329f8f247fbe8cce3eca2ed1f2e0a45a0488c2dd8afe6e5166119ef6119d1886101608d01358b613964565b604080519a8b5260208b0182905233908b0152989081906060820190565b0390a25f8080806117bc565b6024939192509081906001600160a01b0390611a1690611fd1565b16604051948580926370a0823160e01b82523360048301525afa908115611a7f578d91611a4f575b50611a499250611fe5565b9461199c565b905082813d8311611a78575b611a658183611f50565b81010312610ba557611a4991515f611a3e565b503d611a5b565b6040513d8f823e3d90fd5b6001600160a01b03611a9b87611fd1565b16611aa7823383614fab565b15611ab3575b5061197d565b9050611abf3382614ff8565b15611adc578f611ad090338361505c565b15611adc578f90611aad565b8f602491635274afe760e01b8252600452fd5b909f9e50611afe905f90611f50565b5f9d9e5f611972565b6040513d5f823e3d90fd5b5f926118dc565b60249450925060206001600160a01b03611b3287611fd1565b16604051958680926370a0823160e01b82523360048301525afa8015611b07578d945f91611bc8575b50926001600160a01b03611b6e87611fd1565b16611b7a843383614fab565b15611b86575b506118d4565b909192939450611b963382614ff8565b15611bb657611ba684338361505c565b15611bb657908d94939291611b80565b635274afe760e01b5f5260045260245ffd5b9450506020843d602011611bf5575b81611be460209383611f50565b81010312610ba5578c93515f611b5b565b3d9150611bd7565b6001600160a01b03611c0e86611fd1565b168c610140604051916323b872dd60e01b5f523360045230602452013560445260205f60648180865af19060015f5114821615611c58575b6040525f60605215611bb6575061178f565b906001811516611c7057823b15153d15161690611c46565b503d5f823e3d90fd5b98611c85903490611fe5565b98611786565b90919750611ca0826101408c01358093613964565b978461174e57611cb1939550613964565b915f808061174e565b50816101408c013510611749565b634758af1b60e01b5f523360045260245ffd5b90506020813d602011611d0d575b81611cf660209383611f50565b81010312610ba557611d0790611f71565b5f6116b9565b3d9150611ce9565b34610ba5576020366003190112610ba5576004359063ffffffff60e01b8216809203610ba55760209163e347239560e01b8114908115611db7575b8115611da6575b8115611d95575b8115611d84575b8115611d73575b5015158152f35b6301ffc9a760e01b14905083611d6c565b633d0d324560e21b81149150611d65565b6316f0f2dd60e01b81149150611d5e565b63611481d960e11b81149150611d57565b63099bfcc360e11b81149150611d50565b6020600319820112610ba557600435906001600160401b038211610ba557610200908290036003190112610ba55760040190565b6024359062ffffff82168203610ba557565b604435908160020b8203610ba557565b35908160020b8203610ba557565b608435906001600160a01b0382168203610ba557565b602435906001600160a01b0382168203610ba557565b61014435906001600160a01b0382168203610ba557565b35906001600160a01b0382168203610ba557565b80516001600160a01b03908116835260208083015182169084015260408083015162ffffff169084015260608083015160020b9084015260809182015116910152565b805180835260209291819084018484015e5f828201840152601f01601f1916010190565b60a081019081106001600160401b03821117611f0557604052565b634e487b7160e01b5f52604160045260245ffd5b608081019081106001600160401b03821117611f0557604052565b61012081019081106001600160401b03821117611f0557604052565b90601f801991011681019081106001600160401b03821117611f0557604052565b51908115158203610ba557565b903590601e1981360301821215610ba557018035906001600160401b038211610ba557602001918136038313610ba557565b35908115158203610ba557565b35906001600160801b0382168203610ba557565b356001600160a01b0381168103610ba55790565b91908203918211611ff257565b634e487b7160e01b5f52601160045260245ffd5b90816020910312610ba5575190565b6001600160401b038111611f0557601f01601f191660200190565b91908201809211611ff257565b51906001600160a01b0382168203610ba557565b90816020910312610ba557516001600160a01b0381168103610ba55790565b6040519061207d82611eea565b5f6080838281528260208201528260408201528260608201520152565b9291926120a682612015565b916120b46040519384611f50565b829481845281830111610ba5578281602093845f960137010152565b9190826040910312610ba5576020825192015190565b519065ffffffffffff82168203610ba557565b519063ffffffff82168203610ba557565b519061ffff82168203610ba557565b3563ffffffff81168103610ba55790565b3560ff81168103610ba55790565b6001600160401b038111611f055760051b60200190565b6040519061215c82611f19565b606080835f81525f60208201525f60408201520152565b8051156121805760200190565b634e487b7160e01b5f52603260045260245ffd5b8051600110156121805760400190565b5f6102408190526101408190526040820192610120830135926060906122016121db6121d4610160840184611f7e565b369161209a565b7f000000000000000000000000000000000000000000000000000000000000000061435d565b90612c27575b5060a08101358411612c0c578315612c00575b604051632eec7b5560e11b815260c08201356004820152956020876024817f00000000000000000000000000000000000000000000000000000000000000006001600160a01b03165afa968715611b07575f97612bdf575b506040516320c94b1360e11b815260c08301356004820152610380816024816001600160a01b038c165afa908115611b07575f9161296f575b50608083016122b981612119565b63ffffffff808061010086015160241c16169116145f146128a157505060ff6122e384840161212a565b16604d8111611ff257600a0a5b6122fb818888613964565b60c08401355f908152600360205260409020546001600160a01b039081166101e05290929061eeee9061232d83611fd1565b160361289257505f955b5f60e08190526101a08190526001610220526101405190938493911561285d5760c08601355f52600260205260405f2060018060a01b038a165f5260205260a060405f206040519061238882611eea565b600180841b0381541682526001810154600180851b038116602084015262ffffff81851c16604084015260b81c60020b8a8301526002600180851b03910154166080820152209560c08101355f52600560205260405f2060018060a01b038b165f5260205260ff60405f20541680612835575b8061022052612807575b5f60c081815282013581526005602090815260408083206001600160a01b038e16845290915281205490989060ff161561274c57505f6102005260a08101358403612735575f610200525b61022051156101c0526101c051610180526101c051612728575b6101c0518061271c575b612702578b90610180516101605261018051156126f2575b6101a051806126e7575b806126db575b6126d1575b61024051612644575b5050604061012081905280516101008190526124c69190611f50565b600161010051525f5b61012051601f1901811061262a57506001600160801b0395969798999a610100519a5f60a052610160515f14612621575f60a0525b610120515160805260018060a01b03166101e051106020608051015261020051610120516080510152610240516060608051015261014051151560808051015260018060a01b031660a0608051015260c0608051015260e06080510152610100608051015260020b61012060805101521661014060805101526101606080510152610180608051015260c0516101a0608051015260e0516101c060805101526101a05115156101e060805101526101e0608051526125c6610200608051611f50565b61012051516125d481611f19565b3081526101605115908115602082015260a05161012051820152608051606082015261260261010051612173565b5261260f61010051612173565b5061261657565b610100515f93509150565b8460a052612504565b60209061263561214f565b828261010051010152016124cf565b604080516380d3fe3560e01b815260c092909201356004830152610240516024830152600160448301529298509190829060649082906001600160a01b03165afa8015611b07575f915f916126a0575b5060c052958a5f6124aa565b90506126c4915060403d6040116126ca575b6126bc8183611f50565b8101906120d0565b5f612694565b503d6126b2565b82610240526124a1565b5061024051151561249c565b506101405115612496565b610240518310156101605261248c565b5063e2d708a960e01b5f526004526102405160245260445ffd5b50610240518210612474565b610140516101c05261246a565b6127438460a0830135611fe5565b61020052612450565b9a9b97509550969750505050506102405161279a575b5050610140518061278e575b6127755750565b63e2d708a960e01b5f526004526102405160245260445ffd5b5061024051811061276e565b604080516380d3fe3560e01b815260c092909201356004830152610240516024830152600160448301529091829060649082906001600160a01b03165afa8015611b07576127e9575b80612762565b6128019060403d6040116126ca576126bc8183611f50565b506127e3565b9350935061281f886101e051818560c0880135614884565b91929894979350506101a052959460e052612405565b505f546001600160801b03906128559089906001600160a01b0316614a9d565b1615156123fb565b9350939150612876876101e051818460c087013561451c565b6101a0999592999894979398529796956102405260e052612405565b61289b90611fd1565b95612337565b63ffffffff6101006128b460ff93612119565b93015160241c1663ffffffff6128cb87870161212a565b604051631df139fd60e11b815260c088013560048201529482166024860152911660448401521660648201526020816084817f00000000000000000000000000000000000000000000000000000000000000006001600160a01b03165afa908115611b07575f9161293d575b506122f0565b90506020813d602011612967575b8161295860209383611f50565b81010312610ba557515f612937565b3d915061294b565b8091506103803d8111612bd8575b6129878183611f50565b810103906103808212610ba5576101208212610ba557604051916129aa83611f34565b6129b3826120e6565b83526129c1602083016120e6565b60208401526129d2604083016120e6565b60408401526129e28683016120e6565b868401526129f2608083016120f9565b608084015260a08201516001600160701b0381168103610ba55760a0840152612a1d60c083016120f9565b60c084015260e0820151906001600160a01b0382168203610ba5576102609160e085015261010083015161010085015261011f190112610ba557604051906102608201908282106001600160401b03831117611f0557610360612bcf9161024093604052612a8e610120820161210a565b8552612a9d610140820161210a565b6020860152612aaf61016082016120f9565b6040860152612ac16101808201611f71565b89860152612ad26101a08201611f71565b6080860152612ae46101c08201611f71565b60a0860152612af66101e08201611f71565b60c0860152612b086102008201611f71565b60e0860152612b1a6102208201611f71565b610100860152612b2b848201611f71565b610120860152612b3e6102608201611f71565b610140860152612b516102808201611f71565b610160860152612b646102a08201611f71565b610180860152612b776102c08201611f71565b6101a0860152612b8a6102e08201611f71565b6101c0860152612b9d6103008201611f71565b6101e0860152612bb06103208201611f71565b610200860152612bc3610340820161203d565b6102208601520161210a565b9101525f6122ab565b503d61297d565b612bf991975060203d60201161121c5761120d8183611f50565b955f612272565b60a0810135935061221a565b60a0908463cc8704dd60e01b5f52600452013560245260445ffd5b612c3c919450602080825183010191016120d0565b610240819052151561014052925f612207565b600f0b6f7fffffffffffffffffffffffffffffff198114611ff2575f0390565b604051636e49181f60e01b815260208281013560048301819052336024840152916001600160a01b037f0000000000000000000000000000000000000000000000000000000000000000169181604481855afa908115611b07575f91613368575b5015613355576080830161eeee6001600160a01b03612cee83611fd1565b1603613346575f935b835f52600260205260405f2060018060a01b0386165f5260205260405f209160405192612d2384611eea565b60018060a01b038154168452600181015460018060a01b038116602086015262ffffff8160a01c16604086015260b81c60020b6060850152600260018060a01b03910154166080840152845f52600360205260018060a01b0360405f205416935f9160608401359586925f936101c08701612d9e8189611f7e565b90506132af575b508089116132a6575b50602060249160405192838092632eec7b5560e11b82528d60048301525afa908115611b07575f91613287575b506040516370a0823160e01b815230600482015290602082602481865afa918215611b07575f92613253575b5060208960c48c5f60405195869485936363fdc96f60e11b85526004850152602484015230604484015260a060648401528160a484015281608484015260018060a01b03165af18015611b0757613224575b506040516370a0823160e01b8152306004820152602081602481865afa908115611b07575f916131f0575b50612ea691612e9291611fe5565b996001600160a01b03168210858b89614d5e565b9a91909a61315e578480613155575b8061314c575b613135578a969594939291908082111561312d57612ed891611fe5565b80613113575b5061eeee90506001600160a01b03612ef583611fd1565b1603612f5c5750505091612f3960a092612f346101a07fbda038b4536720f0edb8da72fb3f9779994198517ff2acfe51d419e07feb0379979601611fd1565b614ded565b20604080519283526020830195909552339482019490945280606081015b0390a3565b919350916101a06001600160a01b03612f7484611fd1565b169101916020612f8384611fd1565b6040516370a0823160e01b81526001600160a01b03909116600482015292839060249082905afa918215611b07575f926130dd575b5060209061300790612fee8b6001600160a01b03612fd584611fd1565b166001600160a01b03612fe789611fd1565b1690614ca9565b6001600160a01b039061300090611fd1565b1693611fd1565b6040516370a0823160e01b81526001600160a01b03909116600482015292839060249082905afa8015611b07575f906130a9575b6130459250611fe5565b90806130a0575b80613097575b6130825750509060a07fbda038b4536720f0edb8da72fb3f9779994198517ff2acfe51d419e07feb037992612f39565b63e2d708a960e01b5f5260045260245260445ffd5b50818110613052565b5081151561304c565b506020823d6020116130d5575b816130c360209383611f50565b81010312610ba557613045915161303b565b3d91506130b6565b9091506020813d60201161310b575b816130f960209383611f50565b81010312610ba5575190613007612fb8565b3d91506130ec565b6131269161312087611fd1565b90614ca9565b5f80612ede565b50505f612ed8565b858b63e2d708a960e01b5f5260045260245260445ffd5b50858b10612ebb565b50851515612eb5565b5098509450508091929450906131e7575b6131d15750816131a785612f57936131207f8df6e3a86b047621038c6b98aa897b8dd0a6ce91b348704f248b7bbf0e32b21496611fd1565b6001600160a01b03906131b990611fd1565b60408051968752336020880152911694918291820190565b63e2d708a960e01b5f525f60045260245260445ffd5b5080151561316f565b90506020813d60201161321c575b8161320b60209383611f50565b81010312610ba55751612ea6612e84565b3d91506131fe565b6020813d60201161324b575b8161323d60209383611f50565b81010312610ba55751612e59565b3d9150613230565b9091506020813d60201161327f575b8161326f60209383611f50565b81010312610ba55751905f612e07565b3d9150613262565b6132a0915060203d60201161121c5761120d8183611f50565b5f612ddb565b97506020612dae565b9850945092506101006132c28887611f7e565b905010155f1461331b576132d96101009786611f7e565b9080989181010312610ba5576132f160608801611e1e565b506132fe60808801611fbd565b5061330b60e08801611fb0565b9260208801359735945b5f612da5565b613329604094939786611f7e565b9080959181010312610ba557602084359401359684151593613315565b61334f81611fd1565b93612cf7565b63ccdd427f60e01b5f523360045260245ffd5b90506020813d60201161339a575b8161338360209383611f50565b81010312610ba55761339490611f71565b5f612cd0565b3d9150613376565b61eeee6001600160a01b036133b960c08401611fd1565b16036138a7575f905b6040818101355f8181526003602052918220546001600160a01b0316949192838061341d6133f76121d46101a0860186611f7e565b7f000000000000000000000000000000000000000000000000000000000000000061435d565b90613879575b508015613850575b8015613848575b801561383c575b6137de576101208201359260808301359660a08401359661016085013593613463858a8c8a614e53565b955f905f945f9d600190855f146137b7575050865f52600260205260405f209060018060a01b03165f5260205260a060405f20604051906134a382611eea565b8054600180851b5f19019182168452820154808216602085015262ffffff81861c16604085015260b81c600290810b606085015290910154166080820152205f549091906001600160801b03906135049084906001600160a01b0316614a9d565b161515905b613513818b614ebb565b998215806137b0575b806137a7575b6137905782613786575b600198838061377c575b613641575b50505015958615613627575b50604094855198613558878b611f50565b60018a52601f1987015f5b81811061360f5750509d6001600160801b03918e9f9d9e9c9d8b9d89519860208a015289890152606088015260020b60808701521660a085015260c084015260e0830152151561010082015261010081526135c061012082611f50565b5f8251926135cd84611f19565b308452841515602085015283015260608201526135e984612173565b526135f383612173565b50613606575050506127109392915f9190565b95949391925090565b808c6020809361361d61214f565b9201015201613563565b90955080613637575b945f613547565b5086831115613630565b929890916040938451906136558683611f50565b600182526020820190601f19870136833761367260c08501611fd1565b61367b84612173565b6001600160a01b03918216905261369185611fd1565b16936136ac6101006136a560e0840161212a565b9201612119565b91885196879563b5c104f360e01b875260848701926004880152608060248801525180925260a4860194915f5b81811061375b57505050506020949263ffffffff859360ff859416604485015216606483015203915afa92831561375257505f9261371e575b501115955f808061353b565b9091506020813d60201161374a575b8161373a60209383611f50565b81010312610ba55751905f613712565b3d915061372d565b513d5f823e3d90fd5b83516001600160a01b031687528997506020968701969093019282016136d9565b508b881115613536565b861515925061352c565b868b63e2d708a960e01b5f5260045260245260445ffd5b50868b10613522565b508561351c565b91935095506137cd939d50829194508c87614884565b50909d919592949193929091613509565b929450945050613808575b506101608201359160808101359161012060a083013592013590606090565b61382f8361382a61016082013560a08301356080840135610120850135614e53565b614ebb565b81811061308257506137e9565b50608082013515613439565b508615613432565b50825f52600560205260405f2060018060a01b0387165f5260205260ff60405f2054161561342b565b809650604092508091505181010312610ba55761389d604060208601519501611f71565b841515905f613423565b6138b360c08201611fd1565b906133c2565b81156138c3570490565b634e487b7160e01b5f52601260045260245ffd5b91905f905f1981850990808502928380841093039280840393146139575761271083101561393b5750612710907fbc01a36e2eb1c432ca57a786c226809d495182a9930be0ded288ce703afb7e9194950990828211900360fc1b910360041c170290565b60649186630c740aef60e31b8352600452602452612710604452fd5b5050506127109192500490565b90915f1983830992808302928380861095039480860395146139f757828510156139df5790829109600182190182168092046002816003021880820260020302808202600203028082026002030280820260020302808202600203028091026002030293600183805f03040190848311900302920304170290565b630c740aef60e31b5f5260045260245260445260645ffd5b505090613a0492506138b9565b90565b6001600160a01b031661eeee8103613a1e57504790565b6020602491604051928380926370a0823160e01b82523060048301525afa908115611b07575f91613a4d575090565b90506020813d602011613a74575b81613a6860209383611f50565b81010312610ba5575190565b3d9150613a5b565b91909160e06060610100830194613a94848251611e83565b6020810151151560a0850152604081015160c08501520151910152565b602081830312610ba5578051906001600160401b038211610ba5570181601f82011215610ba557805190613ae482612015565b92613af26040519485611f50565b82845260208383010111610ba557815f9260208093018386015e8301015290565b9091925f925f80613c3b613bfa613c0860e08801956101408901359661eeee60018060a01b03613b4283611fd1565b16148614613d4e5750602085995b0135988986526002602052604086209060018060a01b03168652602052604085209a6040519b613b7f8d611eea565b60018060a01b038154168d528c6060600183015460018060a01b038116602084015262ffffff8160a01c16604084015260b81c60020b910152600260018060a01b039101541660808d015260405191613bd783611f19565b8c8352156020830152876040830152606082015260405192839160208301613a7c565b03601f198101835282611f50565b82546040516348c8949160e01b8152602060048201529485936001600160a01b0390921692849283916024830190611ec6565b03925af15f9181613d2a575b50613c59575050505050505f90600190565b7f2afb56853a8b76a0868e64c0001eedd84d9a7f5bc7fb788aba6180e422ba6ec5613cbc60a0613c97846020808a979d9b9c9d5183010191016120d0565b91909a2060408051968752602087018390523390870152909950939081906060820190565b0390a384613cc8575050565b6001600160a01b031690813b15610ba5575f9160a48392604051948593849263516a997360e11b84523060048501526024840152896044840152608060648401528160848401525af18015611b0757613d1e5750565b5f613d2891611f50565b565b613d479192503d805f833e613d3f8183611f50565b810190613ab1565b905f613c47565b613d59602091611fd1565b99613b50565b90613d68615f76565b6001600160a01b0392831692168083141580613db2575b613d8857505050565b6084935060405192631326f75560e11b8452600484015260248301526044820152601d6064820152fd5b50604051631a45b42760e11b8152600481018290526024810184905260448101839052601d606482015260016084820181905260a482015260208160c4817f00000000000000000000000000000000000000000000000000000000000000006001600160a01b03165afa908115611b07575f91613e31575b5015613d7f565b90506020813d602011613e63575b81613e4c60209383611f50565b81010312610ba557613e5d90611f71565b5f613e2a565b3d9150613e3f565b92919091613e77612070565b506001600160a01b03811661eeee03613f7457505f915b60405163ea78803f60e01b8152600481019490945291928392906020816024817f00000000000000000000000000000000000000000000000000000000000000006001600160a01b03165afa908115611b07575f91613f55575b506001600160a01b03908116931683811015613f48579162ffffff84925b60018060a01b03600154169360405195613f1f87611eea565b6001600160a01b03908116875216602086015216604084015260020b6060830152608082015292565b9162ffffff849392613f06565b613f6e915060203d60201161121c5761120d8183611f50565b5f613ee8565b91613e8e565b9293835f52600560205260405f2060018060a01b0386165f5260205260ff60405f20541661421257613fab83614d21565b6001600160a01b03169384156141ff576001600160a01b0316938085146141e95760a0822090613fe48260018060a01b035f541661429a565b5050506001600160a01b0316156141d65782516020840180519095916001600160a01b03908116848114929091169084908a90846141cc575b84156141ad575b505050501561419e575f8681526002602081815260408084208b85528252808420885181546001600160a01b039182166001600160a01b03199182161783559a51600180840180548d87015160608f015160b81b62ffffff60b81b1662ffffff60a01b60a09290921b919091169486166001600160d01b03199092169190911793909317929092179091556080909a015191909401805491909416908a1617909255888352600581528183208a84528152818320805460ff19169097179096558782526004865280822089835286528082208054908490558883526003909652908190208054909616929092179094557f8b6c6e3acbbb079495759cfeb1dbf99774b60962f29ff5d8299cbf1dc49f9b1493909290869086907fac260005f5a1d1cb696ab1065059083a3769fa09f4b4699f1dafd670d071a92190614167615f76565b875195865260208601919091526001600160a01b038116604086015293606090a382519182526001600160a01b03166020820152a3565b6310f59d6f60e01b5f5260045ffd5b14925090826141c2575b50505f838982614024565b149050825f6141b7565b838214945061401d565b506357421ac560e11b5f5260045260245ffd5b84632ec7c58760e01b5f5260045260245260445ffd5b83633eb257a360e21b5f5260045260245ffd5b5050505f52600260205260405f209060018060a01b03165f5260205260a060405f206040519061424182611eea565b600180841b0381541682526001810154600180851b038116602084015262ffffff81851c16604084015260b81c60020b60608301526002600180851b039101541660808201522063ca5a804360e01b5f5260045260245ffd5b91906142a7602091615097565b604051631e2eaeaf60e01b8152600481019190915292839060249082906001600160a01b03165afa918215611b07575f92614305575b506001600160a01b0382169160a081901c60020b9162ffffff60b883901c81169260d01c1690565b9091506020813d602011614331575b8161432160209383611f50565b81010312610ba55751905f6142dd565b3d9150614314565b908151811015612180570160200190565b81810292918115918404141715611ff257565b90915f916060602585511115614501578451602410156121805760448501518060f81c9160205b60048101808211611ff2576001600160f81b03196143a2828b614339565b51161515806144e2575b156144d8576143bb9089614339565b516020828a01015160f882901c91906001600160e01b03198881169116146143e7575050600501614384565b9550959650929050600983018093119182611ff257611fe0809160f31c16169080820460201490151715611ff25782108015906144b9575b15614482575050611fe0808551925b60f31c16169180830460201490151715611ff2578190039060405193601f19603f8487010116604052828552015f5b82811061446d5750505060019190565b8060208092840101518282880101520161445d565b611ff2576144909085614339565b51611fe0808260f81c9260f31c16169080820460201490151715611ff257611fe080919261442e565b505f90506001600160f81b03196144d08388614339565b51161561441f565b5050949550505050565b5060f384901c611fe01685156020878304141715611ff25782106143ac565b50509150505f90604051614516602082611f50565b5f815290565b949293905f945f91875f52600560205260405f2060018060a01b0385165f5260205260ff60405f2054161561486e57875f52600260205260405f2060018060a01b0385165f5260205260405f20936040519461457786611eea565b80546001600160a01b03908116875260018201548082166020808a019190915260a082811c62ffffff166040808c019190915260b89390931c600290810b60608c015290940154831660808a019081525f9d8e5260048252828e209584168e529490528b20549187209a54919a969116926145f28785614a9d565b6001600160801b03811692831561485657868a63ffffffff9c9d9e614626936001600160801b0387169e8f9216908a6150bd565b909b909a91976001600160a01b038082169084161096928d6001600160801b038e161561470457505050505085156146f6579061467f9392916146688b6154da565b926001600160801b038b1611156146ee57906158b2565b90670de0b6b3a76400008210156146e35790606462ffffff6146a4876146b09561429a565b92505050160490615912565b966122608810156146d85750806127106146ce6146d593998361434a565b0490611fe5565b94565b965086958692509050565b508796879350915050565b5088906158b2565b508a998a9650945050505050565b939b9c50949e509450975060019b9a9b96959194969860018060a01b0390511660018060a01b038a54160361484157508861473e9161429a565b989291968091501580614838575b1561481c57506001600160a01b03811615614807579161477a96959493916147749395615807565b996158b2565b9066b1a2bc2ec5000082116147f95762ffffff606491160461012c018061012c11611ff257655af3107a40006147b1920490612030565b60018101808211611ff25761271011156147ec575f199061271003016127108111611ff2576147e3612710918761434a565b0493925f929190565b505f945084939284929190565b505f95508594938593929150565b505050505050505093505f935f93925f929190565b94935050505061477a939250614831896154da565b91996158b2565b9c50869c61474c565b5f9c508c9b50998b9998975095505050505050565b505f9b508b9a508a998a995089975095505050505050565b50505050509150505f905f905f905f905f905f90565b919294935f90835f52600560205260405f2060018060a01b0382165f5260205260ff60405f20541615614a8957835f52600260205260405f2060018060a01b0382165f5260205260405f2093604051946148dd86611eea565b60018060a01b038154168652600181015460018060a01b038116602088015262ffffff8160a01c16604088015260b81c60020b6060870152600260018060a01b039101541660808601525f52600460205260405f209060018060a01b03165f5260205260405f20549260a081209260018060a01b035f5416916149608584614a9d565b956001600160801b038716918215614a735788614991928c9263ffffffff6001600160801b038816921690886150bd565b9a919890978b986001600160801b03819b9d1615614a5b57508b15614a4a57906149e8949392916149c18b6154da565b936001600160801b038b161115614a4257915b6001600160a01b03908116911610926158b2565b90670de0b6b3a7640000821015614a355790606462ffffff6146a486614a0d9561429a565b95612260871015614a2a57806127106146ce6146d593998361434a565b505f95508594859150565b505f965086958692509050565b5088916149d4565b505f9a508a998a9650945050505050565b5f9c508c9b909a508b99506001975095505050505050565b505f995089988998508897508795509350505050565b505f95508594859450849350839250829150565b90614aa790615097565b60038101809111611ff257604051631e2eaeaf60e01b8152600481019190915290602090829060249082906001600160a01b03165afa8015611b07575f90614af8575b6001600160801b0391501690565b506020813d602011614b29575b81614b1260209383611f50565b81010312610ba5576001600160801b039051614aea565b3d9150614b05565b9080158015614ca1575b614c91578215614c8c57905b600160801b614b5682846138b9565b10614b8357505015614b6b576401000276a490565b73fffd8963efd1fc6a506488495d951d5263988d2590565b600160401b614b9282846138b9565b10614c7457614ba091615a16565b6001600160c01b038111614c4e57614bba9060401b615e54565b905b15614c19576401000276a3811115614c0f5773fffd8963efd1fc6a506488495d951d5263988d26811015614bf6576001600160a01b031690565b5073fffd8963efd1fc6a506488495d951d5263988d2590565b506401000276a490565b73fffd8963efd1fc6a506488495d951d5263988d26811015614bf6576401000276a3811115614c0f576001600160a01b031690565b614c5790615e54565b8060201b908082046401000000001490151715611ff25790614bbc565b614c8190614c869261598c565b615e54565b90614bbc565b614b47565b505015614b6b576401000276a490565b508115614b3b565b916040519163a9059cbb60e01b5f5260018060a01b031660045260245260205f60448180865af19060015f5114821615614d09575b60405215614ce95750565b635274afe760e01b5f9081526001600160a01b0391909116600452602490fd5b906001811516611c7057823b15153d15161690614cde565b61012c81108015614d52575b614d345750565b62904c3760e81b5f5260045261012c6024526202a30060445260645ffd5b506202a3008111614d2d565b613bfa613c08614d9d925f958695869860405193614d7b85611f19565b8452151560208401526040830152606082015260405192839160208301613a7c565b03925af15f9181614dd1575b50614db95750505f905f90600190565b80602080614dcc935183010191016120d0565b919092565b614de69192503d805f833e613d3f8183611f50565b905f614da9565b814710614e3c575f808093819382604051614e09602082611f50565b526001600160a01b03165af115614e1c57565b3d15614e2d576040513d5f823e3d90fd5b63d6bda27560e01b5f5260045ffd5b504763cf47918160e01b5f5260045260245260445ffd5b9291928115614eb3576127108314614eb35783821015614eac578382614e7892613964565b918015614ea5578061271003906127108211611ff257613a0494614e9f936117f392613964565b906138d7565b5050905090565b9250505090565b505050505f90565b6101808201358015158103610ba557614fa65761016082013515614ee857613a0491506028810490611fe5565b614f43916020906001600160a01b03614f0082611fd1565b166040614f0f60c08401611fd1565b815163c66d192b60e01b8152939091013560048401526001600160a01b031660248301529093849190829081906044820190565b03915afa8015611b07575f90614f72575b613a04925080821015614f6a57506028816146ce565b6028906146ce565b506020823d602011614f9e575b81614f8c60209383611f50565b81010312610ba557613a049151614f54565b3d9150614f7f565b905090565b92916040519163095ea7b360e01b5f5260018060a01b031660045260245260205f60448180875af19260015f5114841615614fe7575b50604052565b3d15903b151516909216915f614fe1565b60405163095ea7b360e01b5f9081526001600160a01b03909316600452602483905290929160209060448180875af19260015f511484161561503a5750604052565b60018492941516615053573b15153d151616915f614fe1565b833d5f823e3d90fd5b92916040519163095ea7b360e01b5f5260018060a01b031660045260245260205f60448180875af19260015f511484161561503a5750604052565b6040516020810191825260066040820152604081526150b7606082611f50565b51902090565b9491929390945f9363ffffffff811691821561548557506080870151604051631873947560e01b815291926001600160a01b039091169190615102600483018a611e83565b60208260a481865afa5f9281615449575b50615416575b5050956040519661512b606089611f50565b6002885260208801976040368a3761514281612173565b9863ffffffff8516809a525f61515783612194565b52604051637cb7cbf960e11b815293849260c484019161517b906004860190611e83565b60c060a48501525180915260e4830191905f5b8181106153f7575050509181805f9403915afa90815f915f936152d8575b506151c15750505050505050505f905f905f90565b6151d76151cd82612194565b5160060b91612173565b5160060b900396667fffffffffffff198812667fffffffffffff891317611ff25760060b9660060b87156138c357667fffffffffffff1981145f19891416611ff25787810560020b975f821291826152c9575b50506152b4575b6001600160a01b0361524282612194565b5116906001600160a01b039061525790612173565b511690036001600160a01b038111611ff2576001600160a01b03169081615289575b5050615286929385615807565b92565b61528694506001600160801b03916152ac9160801b63ffffffff60801b166138b9565b16925f615279565b95627fffff198114611ff2575f190195615231565b0760060b151590505f8061522a565b915091503d805f833e6152eb8183611f50565b810190604081830312610ba55780516001600160401b038111610ba55781019082601f83011215610ba557815161532181612138565b9261532f6040519485611f50565b81845260208085019260051b82010190858211610ba557602001915b8183106153dd575050506020810151906001600160401b038211610ba557019180601f84011215610ba55782519061538282612138565b936153906040519586611f50565b82855260208086019360051b820101918211610ba557602001915b8183106153bd5750505090915f6151ac565b82516001600160a01b0381168103610ba5578152602092830192016153ab565b82518060060b8103610ba55781526020928301920161534b565b825163ffffffff1684528694506020938401939092019160010161518e565b63ffffffff82168015615437571061542f575b80615119565b91505f615429565b505050505050505050505f905f905f90565b9092506020813d60201161547d575b8161546560209383611f50565b81010312610ba557615476906120f9565b915f615113565b3d9150615458565b97959691505060a0919293502061549c818761429a565b509097916001600160a01b03161590506154cb576154c69392916154bf91614a9d565b9486615807565b929190565b505050509150505f905f905f90565b60020b908160ff1d82810118620d89e881116157f45763ffffffff9192600182167001fffcb933bd6fad37aa2d162d1a59400102600160801b1891600281166157d8575b600481166157bc575b600881166157a0575b60108116615784575b60208116615768575b6040811661574c575b60808116615730575b6101008116615714575b61020081166156f8575b61040081166156dc575b61080081166156c0575b61100081166156a4575b6120008116615688575b614000811661566c575b6180008116615650575b620100008116615634575b620200008116615619575b6204000081166155fe575b62080000166155e5575b5f126155dd575b0160201c90565b5f19046155d6565b6b048a170391f7dc42444e8fa290910260801c906155cf565b6d2216e584f5fa1ea926041bedfe9890920260801c916155c5565b916e5d6af8dedb81196699c329225ee6040260801c916155ba565b916f09aa508b5b7a84e1c677de54f3e99bc90260801c916155af565b916f31be135f97d08fd981231505542fcfa60260801c916155a4565b916f70d869a156d2a1b890bb3df62baf32f70260801c9161559a565b916fa9f746462d870fdf8a65dc1f90e061e50260801c91615590565b916fd097f3bdfd2022b8845ad8f792aa58250260801c91615586565b916fe7159475a2c29b7443b29c7fa6e889d90260801c9161557c565b916ff3392b0822b70005940c7a398e4b70f30260801c91615572565b916ff987a7253ac413176f2b074cf7815e540260801c91615568565b916ffcbe86c7900a88aedcffc83b479aa3a40260801c9161555e565b916ffe5dee046a99a2a811c461f1969c30530260801c91615554565b916fff2ea16466c96a3843ec78b326b528610260801c9161554b565b916fff973b41fa98c081472e6896dfb254c00260801c91615542565b916fffcb9843d60f6159c9db58835c9266440260801c91615539565b916fffe5caca7e10e4e61c3624eaa0941cd00260801c91615530565b916ffff2e50f5f656932ef12357cf3c7fdcc0260801c91615527565b916ffff97272373d413259a46990580e213a0260801c9161551e565b826345c3193d60e11b5f5260045260245ffd5b909291906001600160a01b039061581d906154da565b166001600160801b03811161586f57806158369161434a565b916001600160a01b039081169116101561585d576001600160801b03613a04921690615c2f565b6001600160801b03613a049216615bad565b8061587991615a99565b916001600160a01b03908116911610156158a0576001600160801b03613a04921690615b64565b6001600160801b03613a049216615ae2565b919291906001600160801b031680158015615901575b614eb3576158d591615c78565b90156158ee57613a04916001600160a01b031690615d8b565b613a04916001600160a01b031690615d08565b506001600160a01b038416156158c8565b9061226081101561597c5760648101809111611ff25760c88110615984575b61226081101561597c578115614fa65766b1a2bc2ec5000019821161597c5780612260036122608111611ff25766b1a2bc2ec500008301808411611ff257613a04936117f392615dd4565b505061226090565b5060c8615931565b9060c082901b905f19600160c01b840992828085109403938085039485841115610ba55714615a0f578190600160c01b900981805f03168092046002816003021880820260020302808202600203028082026002030280820260020302808202600203028091026002030293600183805f03040190848311900302920304170290565b5091500490565b90608082901b905f19600160801b840992828085109403938085039485841115610ba55714615a0f578190600160801b900981805f03168092046002816003021880820260020302808202600203028082026002030280820260020302808202600203028091026002030293600183805f03040190848311900302920304170290565b81810291905f1982820991838084109303928084039384600160401b1115610ba55714615ad957600160401b910990828211900360c01b910360401c1790565b50505060401c90565b90608082901b905f1983600160801b0992828085109403938085039485841115610ba55714615a0f578190600160801b0981805f03168092046002816003021880820260020302808202600203028082026002030280820260020302808202600203028091026002030293600183805f03040190848311900302920304170290565b81810291905f1982820991838084109303928084039384600160801b1115610ba55714615ba457600160801b910990828211900360801b910360801c1790565b50505060801c90565b9060c082901b905f1983600160c01b0992828085109403938085039485841115610ba55714615a0f578190600160c01b0981805f03168092046002816003021880820260020302808202600203028082026002030280820260020302808202600203028091026002030293600183805f03040190848311900302920304170290565b81810291905f1982820991838084109303928084039384600160c01b1115610ba55714615c6f57600160c01b910990828211900360401b910360c01c1790565b50505060c01c90565b90670de0b6b3a76400008202905f19670de0b6b3a7640000840992828085109403938085039485841115610ba55714615a0f57670de0b6b3a764000082910981805f03168092046002816003021880820260020302808202600203028082026002030280820260020302808202600203028091026002030293600183805f03040190848311900302920304170290565b90606082901b905f19600160601b840992828085109403938085039485841115610ba55714615a0f578190600160601b900981805f03168092046002816003021880820260020302808202600203028082026002030280820260020302808202600203028091026002030293600183805f03040190848311900302920304170290565b81810291905f1982820991838084109303928084039384600160601b1115610ba55714615dcb57600160601b910990828211900360a01b910360601c1790565b50505060601c90565b91818302915f1981850993838086109503948086039586851115610ba55714615e4c579082910981805f03168092046002816003021880820260020302808202600203028082026002030280820260020302808202600203028091026002030293600183805f03040190848311900302920304170290565b505091500490565b6001811115613a0457806001600160801b821015615f65575b600482600160401b615f17941015615f58575b640100000000811015615f4b575b62010000811015615f3e575b610100811015615f32575b6010811015615f26575b1015615f1e575b60030260011c615ec681846138b9565b0160011c615ed481846138b9565b0160011c615ee281846138b9565b0160011c615ef081846138b9565b0160011c615efe81846138b9565b0160011c615f0c81846138b9565b0160011c80926138b9565b8111900390565b60011b615eb6565b811c9160021b91615eaf565b60081c91811b91615ea5565b60101c9160081b91615e9a565b60201c9160101b91615e8e565b60401c9160201b91615e80565b5050608081901c600160401b615e6d565b601436101580615f9d575b15615f99576013193601368111610ba5573560601c90565b3390565b50337f00000000000000000000000000000000000000000000000000000000000000006001600160a01b031614615f8156fea164736f6c634300081c000a",
	"gitCommit": "npm:@bananapus/buyback-hook-v6@1.1.1",
	"gitDirty": false,
	"history": []
}