{
	"format": "sphinx-sol-ct-artifact-1",
	"address": "0x2fa194dc476d2b3c091dd13f76908f7294aa95c8",
	"sourceName": "node_modules/@bananapus/univ4-router-v6/src/JBUniswapV4Hook.sol",
	"contractName": "JBUniswapV4Hook",
	"chainId": "0x1",
	"abi": [
		{
			"type": "constructor",
			"inputs": [
				{
					"name": "poolManager",
					"type": "address",
					"internalType": "contract IPoolManager"
				},
				{
					"name": "tokens",
					"type": "address",
					"internalType": "contract IJBTokens"
				},
				{
					"name": "directory",
					"type": "address",
					"internalType": "contract IJBDirectory"
				},
				{
					"name": "prices",
					"type": "address",
					"internalType": "contract IJBPrices"
				}
			],
			"stateMutability": "nonpayable"
		},
		{
			"type": "receive",
			"stateMutability": "payable"
		},
		{
			"type": "function",
			"name": "DIRECTORY",
			"inputs": [],
			"outputs": [
				{
					"name": "",
					"type": "address",
					"internalType": "contract IJBDirectory"
				}
			],
			"stateMutability": "view"
		},
		{
			"type": "function",
			"name": "JB_HOOK_DATA_TAG",
			"inputs": [],
			"outputs": [
				{
					"name": "",
					"type": "bytes4",
					"internalType": "bytes4"
				}
			],
			"stateMutability": "view"
		},
		{
			"type": "function",
			"name": "JB_NATIVE_TOKEN",
			"inputs": [],
			"outputs": [
				{
					"name": "",
					"type": "address",
					"internalType": "address"
				}
			],
			"stateMutability": "view"
		},
		{
			"type": "function",
			"name": "MAX_TWAP_CARDINALITY",
			"inputs": [],
			"outputs": [
				{
					"name": "",
					"type": "uint16",
					"internalType": "uint16"
				}
			],
			"stateMutability": "view"
		},
		{
			"type": "function",
			"name": "MAX_V4_DELTA",
			"inputs": [],
			"outputs": [
				{
					"name": "",
					"type": "uint256",
					"internalType": "uint256"
				}
			],
			"stateMutability": "view"
		},
		{
			"type": "function",
			"name": "PRICES",
			"inputs": [],
			"outputs": [
				{
					"name": "",
					"type": "address",
					"internalType": "contract IJBPrices"
				}
			],
			"stateMutability": "view"
		},
		{
			"type": "function",
			"name": "TOKENS",
			"inputs": [],
			"outputs": [
				{
					"name": "",
					"type": "address",
					"internalType": "contract IJBTokens"
				}
			],
			"stateMutability": "view"
		},
		{
			"type": "function",
			"name": "TWAP_PERIOD",
			"inputs": [],
			"outputs": [
				{
					"name": "",
					"type": "uint32",
					"internalType": "uint32"
				}
			],
			"stateMutability": "view"
		},
		{
			"type": "function",
			"name": "TWAP_SLIPPAGE_DENOMINATOR",
			"inputs": [],
			"outputs": [
				{
					"name": "",
					"type": "uint256",
					"internalType": "uint256"
				}
			],
			"stateMutability": "view"
		},
		{
			"type": "function",
			"name": "UNISWAP_NATIVE_ETH",
			"inputs": [],
			"outputs": [
				{
					"name": "",
					"type": "address",
					"internalType": "address"
				}
			],
			"stateMutability": "view"
		},
		{
			"type": "function",
			"name": "afterAddLiquidity",
			"inputs": [
				{
					"name": "sender",
					"type": "address",
					"internalType": "address"
				},
				{
					"name": "key",
					"type": "tuple",
					"internalType": "struct PoolKey",
					"components": [
						{
							"name": "currency0",
							"type": "address",
							"internalType": "Currency"
						},
						{
							"name": "currency1",
							"type": "address",
							"internalType": "Currency"
						},
						{
							"name": "fee",
							"type": "uint24",
							"internalType": "uint24"
						},
						{
							"name": "tickSpacing",
							"type": "int24",
							"internalType": "int24"
						},
						{
							"name": "hooks",
							"type": "address",
							"internalType": "contract IHooks"
						}
					]
				},
				{
					"name": "params",
					"type": "tuple",
					"internalType": "struct ModifyLiquidityParams",
					"components": [
						{
							"name": "tickLower",
							"type": "int24",
							"internalType": "int24"
						},
						{
							"name": "tickUpper",
							"type": "int24",
							"internalType": "int24"
						},
						{
							"name": "liquidityDelta",
							"type": "int256",
							"internalType": "int256"
						},
						{
							"name": "salt",
							"type": "bytes32",
							"internalType": "bytes32"
						}
					]
				},
				{
					"name": "delta",
					"type": "int256",
					"internalType": "BalanceDelta"
				},
				{
					"name": "feesAccrued",
					"type": "int256",
					"internalType": "BalanceDelta"
				},
				{
					"name": "hookData",
					"type": "bytes",
					"internalType": "bytes"
				}
			],
			"outputs": [
				{
					"name": "",
					"type": "bytes4",
					"internalType": "bytes4"
				},
				{
					"name": "",
					"type": "int256",
					"internalType": "BalanceDelta"
				}
			],
			"stateMutability": "nonpayable"
		},
		{
			"type": "function",
			"name": "afterDonate",
			"inputs": [
				{
					"name": "sender",
					"type": "address",
					"internalType": "address"
				},
				{
					"name": "key",
					"type": "tuple",
					"internalType": "struct PoolKey",
					"components": [
						{
							"name": "currency0",
							"type": "address",
							"internalType": "Currency"
						},
						{
							"name": "currency1",
							"type": "address",
							"internalType": "Currency"
						},
						{
							"name": "fee",
							"type": "uint24",
							"internalType": "uint24"
						},
						{
							"name": "tickSpacing",
							"type": "int24",
							"internalType": "int24"
						},
						{
							"name": "hooks",
							"type": "address",
							"internalType": "contract IHooks"
						}
					]
				},
				{
					"name": "amount0",
					"type": "uint256",
					"internalType": "uint256"
				},
				{
					"name": "amount1",
					"type": "uint256",
					"internalType": "uint256"
				},
				{
					"name": "hookData",
					"type": "bytes",
					"internalType": "bytes"
				}
			],
			"outputs": [
				{
					"name": "",
					"type": "bytes4",
					"internalType": "bytes4"
				}
			],
			"stateMutability": "nonpayable"
		},
		{
			"type": "function",
			"name": "afterInitialize",
			"inputs": [
				{
					"name": "sender",
					"type": "address",
					"internalType": "address"
				},
				{
					"name": "key",
					"type": "tuple",
					"internalType": "struct PoolKey",
					"components": [
						{
							"name": "currency0",
							"type": "address",
							"internalType": "Currency"
						},
						{
							"name": "currency1",
							"type": "address",
							"internalType": "Currency"
						},
						{
							"name": "fee",
							"type": "uint24",
							"internalType": "uint24"
						},
						{
							"name": "tickSpacing",
							"type": "int24",
							"internalType": "int24"
						},
						{
							"name": "hooks",
							"type": "address",
							"internalType": "contract IHooks"
						}
					]
				},
				{
					"name": "sqrtPriceX96",
					"type": "uint160",
					"internalType": "uint160"
				},
				{
					"name": "tick",
					"type": "int24",
					"internalType": "int24"
				}
			],
			"outputs": [
				{
					"name": "",
					"type": "bytes4",
					"internalType": "bytes4"
				}
			],
			"stateMutability": "nonpayable"
		},
		{
			"type": "function",
			"name": "afterRemoveLiquidity",
			"inputs": [
				{
					"name": "sender",
					"type": "address",
					"internalType": "address"
				},
				{
					"name": "key",
					"type": "tuple",
					"internalType": "struct PoolKey",
					"components": [
						{
							"name": "currency0",
							"type": "address",
							"internalType": "Currency"
						},
						{
							"name": "currency1",
							"type": "address",
							"internalType": "Currency"
						},
						{
							"name": "fee",
							"type": "uint24",
							"internalType": "uint24"
						},
						{
							"name": "tickSpacing",
							"type": "int24",
							"internalType": "int24"
						},
						{
							"name": "hooks",
							"type": "address",
							"internalType": "contract IHooks"
						}
					]
				},
				{
					"name": "params",
					"type": "tuple",
					"internalType": "struct ModifyLiquidityParams",
					"components": [
						{
							"name": "tickLower",
							"type": "int24",
							"internalType": "int24"
						},
						{
							"name": "tickUpper",
							"type": "int24",
							"internalType": "int24"
						},
						{
							"name": "liquidityDelta",
							"type": "int256",
							"internalType": "int256"
						},
						{
							"name": "salt",
							"type": "bytes32",
							"internalType": "bytes32"
						}
					]
				},
				{
					"name": "delta",
					"type": "int256",
					"internalType": "BalanceDelta"
				},
				{
					"name": "feesAccrued",
					"type": "int256",
					"internalType": "BalanceDelta"
				},
				{
					"name": "hookData",
					"type": "bytes",
					"internalType": "bytes"
				}
			],
			"outputs": [
				{
					"name": "",
					"type": "bytes4",
					"internalType": "bytes4"
				},
				{
					"name": "",
					"type": "int256",
					"internalType": "BalanceDelta"
				}
			],
			"stateMutability": "nonpayable"
		},
		{
			"type": "function",
			"name": "afterSwap",
			"inputs": [
				{
					"name": "sender",
					"type": "address",
					"internalType": "address"
				},
				{
					"name": "key",
					"type": "tuple",
					"internalType": "struct PoolKey",
					"components": [
						{
							"name": "currency0",
							"type": "address",
							"internalType": "Currency"
						},
						{
							"name": "currency1",
							"type": "address",
							"internalType": "Currency"
						},
						{
							"name": "fee",
							"type": "uint24",
							"internalType": "uint24"
						},
						{
							"name": "tickSpacing",
							"type": "int24",
							"internalType": "int24"
						},
						{
							"name": "hooks",
							"type": "address",
							"internalType": "contract IHooks"
						}
					]
				},
				{
					"name": "params",
					"type": "tuple",
					"internalType": "struct SwapParams",
					"components": [
						{
							"name": "zeroForOne",
							"type": "bool",
							"internalType": "bool"
						},
						{
							"name": "amountSpecified",
							"type": "int256",
							"internalType": "int256"
						},
						{
							"name": "sqrtPriceLimitX96",
							"type": "uint160",
							"internalType": "uint160"
						}
					]
				},
				{
					"name": "delta",
					"type": "int256",
					"internalType": "BalanceDelta"
				},
				{
					"name": "hookData",
					"type": "bytes",
					"internalType": "bytes"
				}
			],
			"outputs": [
				{
					"name": "",
					"type": "bytes4",
					"internalType": "bytes4"
				},
				{
					"name": "",
					"type": "int128",
					"internalType": "int128"
				}
			],
			"stateMutability": "nonpayable"
		},
		{
			"type": "function",
			"name": "beforeAddLiquidity",
			"inputs": [
				{
					"name": "sender",
					"type": "address",
					"internalType": "address"
				},
				{
					"name": "key",
					"type": "tuple",
					"internalType": "struct PoolKey",
					"components": [
						{
							"name": "currency0",
							"type": "address",
							"internalType": "Currency"
						},
						{
							"name": "currency1",
							"type": "address",
							"internalType": "Currency"
						},
						{
							"name": "fee",
							"type": "uint24",
							"internalType": "uint24"
						},
						{
							"name": "tickSpacing",
							"type": "int24",
							"internalType": "int24"
						},
						{
							"name": "hooks",
							"type": "address",
							"internalType": "contract IHooks"
						}
					]
				},
				{
					"name": "params",
					"type": "tuple",
					"internalType": "struct ModifyLiquidityParams",
					"components": [
						{
							"name": "tickLower",
							"type": "int24",
							"internalType": "int24"
						},
						{
							"name": "tickUpper",
							"type": "int24",
							"internalType": "int24"
						},
						{
							"name": "liquidityDelta",
							"type": "int256",
							"internalType": "int256"
						},
						{
							"name": "salt",
							"type": "bytes32",
							"internalType": "bytes32"
						}
					]
				},
				{
					"name": "hookData",
					"type": "bytes",
					"internalType": "bytes"
				}
			],
			"outputs": [
				{
					"name": "",
					"type": "bytes4",
					"internalType": "bytes4"
				}
			],
			"stateMutability": "nonpayable"
		},
		{
			"type": "function",
			"name": "beforeDonate",
			"inputs": [
				{
					"name": "sender",
					"type": "address",
					"internalType": "address"
				},
				{
					"name": "key",
					"type": "tuple",
					"internalType": "struct PoolKey",
					"components": [
						{
							"name": "currency0",
							"type": "address",
							"internalType": "Currency"
						},
						{
							"name": "currency1",
							"type": "address",
							"internalType": "Currency"
						},
						{
							"name": "fee",
							"type": "uint24",
							"internalType": "uint24"
						},
						{
							"name": "tickSpacing",
							"type": "int24",
							"internalType": "int24"
						},
						{
							"name": "hooks",
							"type": "address",
							"internalType": "contract IHooks"
						}
					]
				},
				{
					"name": "amount0",
					"type": "uint256",
					"internalType": "uint256"
				},
				{
					"name": "amount1",
					"type": "uint256",
					"internalType": "uint256"
				},
				{
					"name": "hookData",
					"type": "bytes",
					"internalType": "bytes"
				}
			],
			"outputs": [
				{
					"name": "",
					"type": "bytes4",
					"internalType": "bytes4"
				}
			],
			"stateMutability": "nonpayable"
		},
		{
			"type": "function",
			"name": "beforeInitialize",
			"inputs": [
				{
					"name": "sender",
					"type": "address",
					"internalType": "address"
				},
				{
					"name": "key",
					"type": "tuple",
					"internalType": "struct PoolKey",
					"components": [
						{
							"name": "currency0",
							"type": "address",
							"internalType": "Currency"
						},
						{
							"name": "currency1",
							"type": "address",
							"internalType": "Currency"
						},
						{
							"name": "fee",
							"type": "uint24",
							"internalType": "uint24"
						},
						{
							"name": "tickSpacing",
							"type": "int24",
							"internalType": "int24"
						},
						{
							"name": "hooks",
							"type": "address",
							"internalType": "contract IHooks"
						}
					]
				},
				{
					"name": "sqrtPriceX96",
					"type": "uint160",
					"internalType": "uint160"
				}
			],
			"outputs": [
				{
					"name": "",
					"type": "bytes4",
					"internalType": "bytes4"
				}
			],
			"stateMutability": "nonpayable"
		},
		{
			"type": "function",
			"name": "beforeRemoveLiquidity",
			"inputs": [
				{
					"name": "sender",
					"type": "address",
					"internalType": "address"
				},
				{
					"name": "key",
					"type": "tuple",
					"internalType": "struct PoolKey",
					"components": [
						{
							"name": "currency0",
							"type": "address",
							"internalType": "Currency"
						},
						{
							"name": "currency1",
							"type": "address",
							"internalType": "Currency"
						},
						{
							"name": "fee",
							"type": "uint24",
							"internalType": "uint24"
						},
						{
							"name": "tickSpacing",
							"type": "int24",
							"internalType": "int24"
						},
						{
							"name": "hooks",
							"type": "address",
							"internalType": "contract IHooks"
						}
					]
				},
				{
					"name": "params",
					"type": "tuple",
					"internalType": "struct ModifyLiquidityParams",
					"components": [
						{
							"name": "tickLower",
							"type": "int24",
							"internalType": "int24"
						},
						{
							"name": "tickUpper",
							"type": "int24",
							"internalType": "int24"
						},
						{
							"name": "liquidityDelta",
							"type": "int256",
							"internalType": "int256"
						},
						{
							"name": "salt",
							"type": "bytes32",
							"internalType": "bytes32"
						}
					]
				},
				{
					"name": "hookData",
					"type": "bytes",
					"internalType": "bytes"
				}
			],
			"outputs": [
				{
					"name": "",
					"type": "bytes4",
					"internalType": "bytes4"
				}
			],
			"stateMutability": "nonpayable"
		},
		{
			"type": "function",
			"name": "beforeSwap",
			"inputs": [
				{
					"name": "sender",
					"type": "address",
					"internalType": "address"
				},
				{
					"name": "key",
					"type": "tuple",
					"internalType": "struct PoolKey",
					"components": [
						{
							"name": "currency0",
							"type": "address",
							"internalType": "Currency"
						},
						{
							"name": "currency1",
							"type": "address",
							"internalType": "Currency"
						},
						{
							"name": "fee",
							"type": "uint24",
							"internalType": "uint24"
						},
						{
							"name": "tickSpacing",
							"type": "int24",
							"internalType": "int24"
						},
						{
							"name": "hooks",
							"type": "address",
							"internalType": "contract IHooks"
						}
					]
				},
				{
					"name": "params",
					"type": "tuple",
					"internalType": "struct SwapParams",
					"components": [
						{
							"name": "zeroForOne",
							"type": "bool",
							"internalType": "bool"
						},
						{
							"name": "amountSpecified",
							"type": "int256",
							"internalType": "int256"
						},
						{
							"name": "sqrtPriceLimitX96",
							"type": "uint160",
							"internalType": "uint160"
						}
					]
				},
				{
					"name": "hookData",
					"type": "bytes",
					"internalType": "bytes"
				}
			],
			"outputs": [
				{
					"name": "",
					"type": "bytes4",
					"internalType": "bytes4"
				},
				{
					"name": "",
					"type": "int256",
					"internalType": "BeforeSwapDelta"
				},
				{
					"name": "",
					"type": "uint24",
					"internalType": "uint24"
				}
			],
			"stateMutability": "nonpayable"
		},
		{
			"type": "function",
			"name": "calculateExpectedOutputFromSelling",
			"inputs": [
				{
					"name": "projectId",
					"type": "uint256",
					"internalType": "uint256"
				},
				{
					"name": "tokenAmountIn",
					"type": "uint256",
					"internalType": "uint256"
				},
				{
					"name": "outputToken",
					"type": "address",
					"internalType": "address"
				},
				{
					"name": "terminal",
					"type": "address",
					"internalType": "contract IJBTerminal"
				}
			],
			"outputs": [
				{
					"name": "expectedOutput",
					"type": "uint256",
					"internalType": "uint256"
				}
			],
			"stateMutability": "view"
		},
		{
			"type": "function",
			"name": "calculateExpectedTokensWithCurrency",
			"inputs": [
				{
					"name": "projectId",
					"type": "uint256",
					"internalType": "uint256"
				},
				{
					"name": "paymentToken",
					"type": "address",
					"internalType": "address"
				},
				{
					"name": "paymentAmount",
					"type": "uint256",
					"internalType": "uint256"
				}
			],
			"outputs": [
				{
					"name": "expectedTokens",
					"type": "uint256",
					"internalType": "uint256"
				}
			],
			"stateMutability": "view"
		},
		{
			"type": "function",
			"name": "estimateUniswapOutput",
			"inputs": [
				{
					"name": "poolId",
					"type": "bytes32",
					"internalType": "PoolId"
				},
				{
					"name": "key",
					"type": "tuple",
					"internalType": "struct PoolKey",
					"components": [
						{
							"name": "currency0",
							"type": "address",
							"internalType": "Currency"
						},
						{
							"name": "currency1",
							"type": "address",
							"internalType": "Currency"
						},
						{
							"name": "fee",
							"type": "uint24",
							"internalType": "uint24"
						},
						{
							"name": "tickSpacing",
							"type": "int24",
							"internalType": "int24"
						},
						{
							"name": "hooks",
							"type": "address",
							"internalType": "contract IHooks"
						}
					]
				},
				{
					"name": "amountIn",
					"type": "uint256",
					"internalType": "uint256"
				},
				{
					"name": "zeroForOne",
					"type": "bool",
					"internalType": "bool"
				}
			],
			"outputs": [
				{
					"name": "estimatedOut",
					"type": "uint256",
					"internalType": "uint256"
				}
			],
			"stateMutability": "view"
		},
		{
			"type": "function",
			"name": "getHookPermissions",
			"inputs": [],
			"outputs": [
				{
					"name": "",
					"type": "tuple",
					"internalType": "struct Hooks.Permissions",
					"components": [
						{
							"name": "beforeInitialize",
							"type": "bool",
							"internalType": "bool"
						},
						{
							"name": "afterInitialize",
							"type": "bool",
							"internalType": "bool"
						},
						{
							"name": "beforeAddLiquidity",
							"type": "bool",
							"internalType": "bool"
						},
						{
							"name": "afterAddLiquidity",
							"type": "bool",
							"internalType": "bool"
						},
						{
							"name": "beforeRemoveLiquidity",
							"type": "bool",
							"internalType": "bool"
						},
						{
							"name": "afterRemoveLiquidity",
							"type": "bool",
							"internalType": "bool"
						},
						{
							"name": "beforeSwap",
							"type": "bool",
							"internalType": "bool"
						},
						{
							"name": "afterSwap",
							"type": "bool",
							"internalType": "bool"
						},
						{
							"name": "beforeDonate",
							"type": "bool",
							"internalType": "bool"
						},
						{
							"name": "afterDonate",
							"type": "bool",
							"internalType": "bool"
						},
						{
							"name": "beforeSwapReturnDelta",
							"type": "bool",
							"internalType": "bool"
						},
						{
							"name": "afterSwapReturnDelta",
							"type": "bool",
							"internalType": "bool"
						},
						{
							"name": "afterAddLiquidityReturnDelta",
							"type": "bool",
							"internalType": "bool"
						},
						{
							"name": "afterRemoveLiquidityReturnDelta",
							"type": "bool",
							"internalType": "bool"
						}
					]
				}
			],
			"stateMutability": "pure"
		},
		{
			"type": "function",
			"name": "observations",
			"inputs": [
				{
					"name": "",
					"type": "bytes32",
					"internalType": "PoolId"
				},
				{
					"name": "",
					"type": "uint256",
					"internalType": "uint256"
				}
			],
			"outputs": [
				{
					"name": "blockTimestamp",
					"type": "uint32",
					"internalType": "uint32"
				},
				{
					"name": "tickCumulative",
					"type": "int56",
					"internalType": "int56"
				},
				{
					"name": "secondsPerLiquidityCumulativeX128",
					"type": "uint160",
					"internalType": "uint160"
				},
				{
					"name": "initialized",
					"type": "bool",
					"internalType": "bool"
				}
			],
			"stateMutability": "view"
		},
		{
			"type": "function",
			"name": "observe",
			"inputs": [
				{
					"name": "key",
					"type": "tuple",
					"internalType": "struct PoolKey",
					"components": [
						{
							"name": "currency0",
							"type": "address",
							"internalType": "Currency"
						},
						{
							"name": "currency1",
							"type": "address",
							"internalType": "Currency"
						},
						{
							"name": "fee",
							"type": "uint24",
							"internalType": "uint24"
						},
						{
							"name": "tickSpacing",
							"type": "int24",
							"internalType": "int24"
						},
						{
							"name": "hooks",
							"type": "address",
							"internalType": "contract IHooks"
						}
					]
				},
				{
					"name": "secondsAgos",
					"type": "uint32[]",
					"internalType": "uint32[]"
				}
			],
			"outputs": [
				{
					"name": "tickCumulatives",
					"type": "int56[]",
					"internalType": "int56[]"
				},
				{
					"name": "secondsPerLiquidityCumulativeX128s",
					"type": "uint160[]",
					"internalType": "uint160[]"
				}
			],
			"stateMutability": "view"
		},
		{
			"type": "function",
			"name": "observeTWAP",
			"inputs": [
				{
					"name": "poolId",
					"type": "bytes32",
					"internalType": "PoolId"
				},
				{
					"name": "secondsAgo",
					"type": "uint32",
					"internalType": "uint32"
				},
				{
					"name": "tick",
					"type": "int24",
					"internalType": "int24"
				},
				{
					"name": "index",
					"type": "uint16",
					"internalType": "uint16"
				},
				{
					"name": "liquidity",
					"type": "uint128",
					"internalType": "uint128"
				},
				{
					"name": "cardinality",
					"type": "uint16",
					"internalType": "uint16"
				}
			],
			"outputs": [
				{
					"name": "arithmeticMeanTick",
					"type": "int24",
					"internalType": "int24"
				}
			],
			"stateMutability": "view"
		},
		{
			"type": "function",
			"name": "poolManager",
			"inputs": [],
			"outputs": [
				{
					"name": "",
					"type": "address",
					"internalType": "contract IPoolManager"
				}
			],
			"stateMutability": "view"
		},
		{
			"type": "function",
			"name": "states",
			"inputs": [
				{
					"name": "",
					"type": "bytes32",
					"internalType": "PoolId"
				}
			],
			"outputs": [
				{
					"name": "index",
					"type": "uint16",
					"internalType": "uint16"
				},
				{
					"name": "cardinality",
					"type": "uint16",
					"internalType": "uint16"
				},
				{
					"name": "cardinalityNext",
					"type": "uint16",
					"internalType": "uint16"
				}
			],
			"stateMutability": "view"
		},
		{
			"type": "event",
			"name": "BestRouteSelected",
			"inputs": [
				{
					"name": "poolId",
					"type": "bytes32",
					"indexed": true,
					"internalType": "PoolId"
				},
				{
					"name": "routeType",
					"type": "uint8",
					"indexed": false,
					"internalType": "uint8"
				},
				{
					"name": "expectedTokens",
					"type": "uint256",
					"indexed": false,
					"internalType": "uint256"
				},
				{
					"name": "caller",
					"type": "address",
					"indexed": false,
					"internalType": "address"
				}
			],
			"anonymous": false
		},
		{
			"type": "event",
			"name": "RouteSelected",
			"inputs": [
				{
					"name": "poolId",
					"type": "bytes32",
					"indexed": true,
					"internalType": "PoolId"
				},
				{
					"name": "useJuicebox",
					"type": "bool",
					"indexed": false,
					"internalType": "bool"
				},
				{
					"name": "expectedTokens",
					"type": "uint256",
					"indexed": false,
					"internalType": "uint256"
				},
				{
					"name": "caller",
					"type": "address",
					"indexed": false,
					"internalType": "address"
				}
			],
			"anonymous": false
		},
		{
			"type": "error",
			"name": "HookNotImplemented",
			"inputs": []
		},
		{
			"type": "error",
			"name": "JBUniswapV4Hook_ExactOutputSwapsNotSupported",
			"inputs": [
				{
					"name": "amountSpecified",
					"type": "int256",
					"internalType": "int256"
				}
			]
		},
		{
			"type": "error",
			"name": "JBUniswapV4Hook_InputExceedsV4DeltaLimit",
			"inputs": [
				{
					"name": "amount",
					"type": "uint256",
					"internalType": "uint256"
				}
			]
		},
		{
			"type": "error",
			"name": "JBUniswapV4Hook_InsufficientOutput",
			"inputs": [
				{
					"name": "amount",
					"type": "uint256",
					"internalType": "uint256"
				},
				{
					"name": "minimum",
					"type": "uint256",
					"internalType": "uint256"
				}
			]
		},
		{
			"type": "error",
			"name": "JBUniswapV4Hook_JuiceboxSellDidNotDeliver",
			"inputs": [
				{
					"name": "inputToken",
					"type": "address",
					"internalType": "address"
				},
				{
					"name": "outputToken",
					"type": "address",
					"internalType": "address"
				},
				{
					"name": "amountIn",
					"type": "uint256",
					"internalType": "uint256"
				}
			]
		},
		{
			"type": "error",
			"name": "JBUniswapV4Hook_OutputExceedsV4DeltaLimit",
			"inputs": [
				{
					"name": "amount",
					"type": "uint256",
					"internalType": "uint256"
				}
			]
		},
		{
			"type": "error",
			"name": "JBUniswapV4Hook_ReentrantRouting",
			"inputs": [
				{
					"name": "caller",
					"type": "address",
					"internalType": "address"
				}
			]
		},
		{
			"type": "error",
			"name": "JBUniswapV4Hook_SecondsAgoCannotBeZero",
			"inputs": [
				{
					"name": "secondsAgo",
					"type": "uint32",
					"internalType": "uint32"
				}
			]
		},
		{
			"type": "error",
			"name": "JBUniswapV4Hook_SellInputReturned",
			"inputs": [
				{
					"name": "token",
					"type": "address",
					"internalType": "address"
				},
				{
					"name": "balanceBefore",
					"type": "uint256",
					"internalType": "uint256"
				},
				{
					"name": "balanceAfter",
					"type": "uint256",
					"internalType": "uint256"
				}
			]
		},
		{
			"type": "error",
			"name": "JBUniswapV4Hook_TemporaryAllowanceNotConsumed",
			"inputs": [
				{
					"name": "token",
					"type": "address",
					"internalType": "address"
				},
				{
					"name": "spender",
					"type": "address",
					"internalType": "address"
				},
				{
					"name": "allowance",
					"type": "uint256",
					"internalType": "uint256"
				}
			]
		},
		{
			"type": "error",
			"name": "NotPoolManager",
			"inputs": []
		},
		{
			"type": "error",
			"name": "Oracle_CardinalityCannotBeZero",
			"inputs": [
				{
					"name": "cardinality",
					"type": "uint16",
					"internalType": "uint16"
				}
			]
		},
		{
			"type": "error",
			"name": "Oracle_TargetPredatesOldestObservation",
			"inputs": [
				{
					"name": "oldestTimestamp",
					"type": "uint32",
					"internalType": "uint32"
				},
				{
					"name": "targetTimestamp",
					"type": "uint32",
					"internalType": "uint32"
				}
			]
		},
		{
			"type": "error",
			"name": "SafeERC20FailedOperation",
			"inputs": [
				{
					"name": "token",
					"type": "address",
					"internalType": "address"
				}
			]
		}
	],
	"args": [
		"0x000000000004444c5dc75cB358380D2e3dE08A90",
		"0x1f80d8f057eE36b4C2656D107E4e4558B71bA7D9",
		"0x5AfF29060E023e6FB87BE5596652B33c65Af535B",
		"0xad45E4627f068d1e6b21E5301870d807543a8401"
	],
	"solcInputHash": "36bce9504b7b6ac03ca6c2e7a977c8a3",
	"bytecode": "0x6101006040523461035e57604051601f614a4038819003918201601f19168301916001600160401b038311848410176103625780849260809460405283398101031261035e5780516001600160a01b038116810361035e576020820151916001600160a01b038316830361035e576040810151906001600160a01b038216820361035e5760600151916001600160a01b038316830361035e576080525f6101a06100a7610376565b8281528260208201528260408201528260608201528260808201528260a08201528260c08201528260e0820152826101008201528261012082015282610140820152826101608201528261018082015201525f6101a0610105610376565b8281526001602082015282604082015260016060820152826080820152600160a0820152600160c0820152600160e0820152826101008201528261012082015260016101408201528261016082015282610180820152015261200030161580159061034d575b8015610340575b801561032f575b8015610322575b8015610311575b8015610301575b80156102f1575b80156102e5575b80156102d9575b80156102c9575b80156102bd575b80156102b1575b80156102a5575b6102925760a05260c05260e0526040516146a9908161039782396080518181816102b80152818161045f0152818161056a015281816105bc015281816107ca015281816108ce015281816109c701528181610ac801528181610c0201528181610e1e01528181611b2701528181611c370152818161232f015281816124d8015281816131910152613aed015260a051818181610941015281816113e201528181613a540152613f13015260c051818181610e7401526115bf015260e051818181610eb80152818161391b0152613eb80152f35b630732d7b560e51b5f523060045260245ffd5b506001301615156101bf565b506002301615156101b8565b506004301615156101b1565b50600830161515600114156101aa565b506010301615156101a3565b5060203016151561019c565b5060403016151560011415610195565b506080301615156001141561018e565b506101003016151560011415610187565b5061020030161515610180565b506104003016151560011415610179565b5061080030161515610172565b50611000301615156001141561016b565b5f80fd5b634e487b7160e01b5f52604160045260245ffd5b604051906101c082016001600160401b038111838210176103625760405256fe6080604052600436101561001a575b3615610018575f80fd5b005b5f3560e01c8063087a40b014610ee75780631d831d5c14610ea35780631eabcd3414610e5f57806321d0ee7014610e0b578063259982e514610e0b57806332d19f4114610def5780633f64e5dc14610c60578063575e24b414610bad57806365ec643c14610b8b5780636768b1e614610b6a5780636870b2fa14610b205780636c2bbe7e14610ab25780636fe7e6eb1461098c5780637ca251841461097057806388bc2ef31461092c5780639f063efc146108b8578063b47b2fb114610771578063b6a8b0fa1461044c578063c4e833ce14610607578063db312fae146105eb578063dc4c90d3146105a7578063dc98354e14610539578063dd71cea8146104ca578063e16a53eb146104b0578063e1b4af691461044c578063e384451e14610409578063e8529d7e146103ed578063f96f97f2146101a55763fbdc1ef10361000e57346101a15760203660031901126101a1576004355f526001602052606060405f205461ffff604051918181168352818160101c16602084015260201c166040820152f35b5f80fd5b346101a157366003190160c081126101a15760a0136101a15760a4356001600160401b0381116101a157366023820112156101a15780600401356001600160401b0381116101a15760248160051b830101903682116101a15760405161020a81611147565b6004356001600160a01b03811681036101a15781526024356001600160a01b03811681036101a157602082015260443562ffffff811681036101a15760408201526064358060020b81036101a1576060820152608435906001600160a01b03821682036101a15760a09160808201522090815f52600160205260405f206040519061029482611110565b549161ffff8316825261ffff6020830193818160101c16855260201c1660408301527f0000000000000000000000000000000000000000000000000000000000000000916102f0856102e68186613688565b5050959050613727565b945f525f60205261ffff8060405f209251169451169561030f8361185d565b9261031d6040519485611162565b83526024602084019801975b8189106103d0575050610344965063ffffffff4216906137bb565b90604051918291604083016040845281518091526020606085019201905f5b8181106103b4575050508281036020840152602080835192838152019201905f5b818110610392575050500390f35b82516001600160a01b0316845285945060209384019390920191600101610384565b825160060b845286955060209384019390920191600101610363565b883563ffffffff811681036101a157815260209889019801610329565b346101a1575f3660031901126101a15760206040516104008152f35b346101a1576101003660031901126101a15761042436611183565b60e4359081151582036101a1576020916104449160c43590600435611af4565b604051908152f35b346101a15761045a36611066565b5050507f00000000000000000000000000000000000000000000000000000000000000006001600160a01b0316330392506104a191505057630a85dc2960e01b5f5260045ffd5b63570c108560e11b5f5260045ffd5b346101a1575f3660031901126101a15760206040515f8152f35b346101a15760403660031901126101a1576024356004355f525f60205260405f2061ffff8210156101a157608091610501916110bd565b50546040519063ffffffff811682528060201c60060b602083015260018060a01b038160581c16604083015260f81c15156060820152f35b346101a15760e03660031901126101a157610552610f1d565b5060a03660231901126101a157610567611050565b507f00000000000000000000000000000000000000000000000000000000000000006001600160a01b031633036104a157630a85dc2960e01b5f5260045ffd5b346101a1575f3660031901126101a1576040517f00000000000000000000000000000000000000000000000000000000000000006001600160a01b03168152602090f35b346101a1575f3660031901126101a15760206040516127108152f35b346101a1575f3660031901126101a1575f6101a06040516106278161112b565b8281528260208201528260408201528260608201528260808201528260a08201528260c08201528260e0820152826101008201528261012082015282610140820152826101608201528261018082015201526101c0602060405161068a8161112b565b5f81528181019060018252604081015f81526060820160018152608083015f815260a084016001815260c085016001815260e0860190600182526101008701925f84526101208801945f8652610140890196600188526101608a01985f8a526101a06101808c019b5f8d52019b5f8d526040519d8e915f835251151591015251151560408d015251151560608c015251151560808b015251151560a08a015251151560c089015251151560e08801525115156101008701525115156101208601525115156101408501525115156101608401525115156101808301525115156101a0820152f35b346101a1576101603660031901126101a15761078b610f1d565b5060a03660231901126101a15760603660c31901126101a15761012435610144356001600160401b0381116101a1576107c8903690600401610f47565b7f00000000000000000000000000000000000000000000000000000000000000006001600160a01b031633036104a157610801916138a7565b9160a061080d36611183565b2091610833575b61081d82613aeb565b6040805163b47b2fb160e01b81525f6020820152f35b60c43580151581036101a157156108af5780600f0b5b80600f0b918215908115916108a5575b50610865575b50610814565b5f82121561089f5761087791506130d3565b600f0b5b828110610888578061085f565b9050637ed62b6360e01b5f5260045260245260445ffd5b5061087b565b9050151585610859565b8060801d610849565b346101a1576108c636610fe7565b5093945050507f00000000000000000000000000000000000000000000000000000000000000006001600160a01b0316330391506104a190505760a061091061091692369061120a565b20613aeb565b604080516327c18fbf60e21b81525f6020820152f35b346101a1575f3660031901126101a1576040517f00000000000000000000000000000000000000000000000000000000000000006001600160a01b03168152602090f35b346101a1575f3660031901126101a15760206040516107088152f35b346101a1576101003660031901126101a1576109a6610f1d565b5060a03660231901126101a1576109bb611050565b506109c4610fd7565b507f00000000000000000000000000000000000000000000000000000000000000006001600160a01b031633036104a15760a0610a0036611183565b20805f525f60205260405f20604051610a18816110e1565b4263ffffffff168082525f602083018190526040808401919091526001606090930192909252600160f81b179091555190610a5282611110565b5f82526020820190600182526040830190600182525f52600160205261ffff60405f2093511665ffff0000000063ffff00008554945160101b16925160201b169265ffffffffffff191617171790556020604051636fe7e6eb60e01b8152f35b346101a157610ac036610fe7565b5093945050507f00000000000000000000000000000000000000000000000000000000000000006001600160a01b0316330391506104a190505760a0610910610b0a92369061120a565b60408051633615df3f60e11b81525f6020820152f35b346101a15760803660031901126101a1576044356001600160a01b03811681036101a157606435906001600160a01b03821682036101a157602091610444916024356004356118fa565b346101a1575f3660031901126101a157602060405160016001607f1b038152f35b346101a1575f3660031901126101a1576040516386f23c4960e01b8152602090f35b346101a1576101403660031901126101a157610bc7610f1d565b5060a03660231901126101a15760603660c31901126101a157610124356001600160401b0381116101a157610c00903690600401610f47565b7f00000000000000000000000000000000000000000000000000000000000000006001600160a01b031633036104a157610c4062ffffff9160609361206e565b906040939293519363ffffffff60e01b1684526020840152166040820152f35b346101a15760c03660031901126101a15760243563ffffffff81168091036101a1576044358060020b81036101a15760643561ffff811681036101a1576084356001600160801b03811681036101a15760a4359161ffff831683036101a1578415610ddc57610d1393604051610cd7606082611162565b6002815260403660208301375f610ced8261203d565b5286610cf88261204a565b526004355f525f60205260405f2063ffffffff4216906137bb565b50610d2a610d208261203d565b5160060b9161204a565b5160060b900390667fffffffffffff198212667fffffffffffff831317610da55760060b9060060b8115610dc857667fffffffffffff1981145f19831416610da55781810560020b915f82129182610db9575b5050610d92575b6020906040519060020b8152f35b627fffff198114610da5575f1901610d84565b634e487b7160e01b5f52601160045260245ffd5b0760060b151590508280610d7d565b634e487b7160e01b5f52601260045260245ffd5b84632d727cc160e01b5f5260045260245ffd5b346101a1575f3660031901126101a157602060405161eeee8152f35b346101a157610e1936610f74565b5050507f00000000000000000000000000000000000000000000000000000000000000006001600160a01b0316330391506104a1905057630a85dc2960e01b5f5260045ffd5b346101a1575f3660031901126101a1576040517f00000000000000000000000000000000000000000000000000000000000000006001600160a01b03168152602090f35b346101a1575f3660031901126101a1576040517f00000000000000000000000000000000000000000000000000000000000000006001600160a01b03168152602090f35b346101a15760603660031901126101a1576024356001600160a01b03811681036101a157610444602091604435906004356113c3565b600435906001600160a01b03821682036101a157565b35906001600160a01b03821682036101a157565b9181601f840112156101a1578235916001600160401b0383116101a157602083818601950101116101a157565b906101606003198301126101a1576004356001600160a01b03811681036101a1579160a06023198201126101a157602491608060c3198301126101a15760c49161014435906001600160401b0382116101a157610fd391600401610f47565b9091565b60e435908160020b82036101a157565b906101a06003198301126101a1576004356001600160a01b03811681036101a1579160a06023198201126101a157602491608060c3198301126101a15760c4916101443591610164359161018435906001600160401b0382116101a157610fd391600401610f47565b60c435906001600160a01b03821682036101a157565b6101206003198201126101a1576004356001600160a01b03811681036101a1579160a06023198301126101a15760249160c4359160e4359161010435906001600160401b0382116101a157610fd391600401610f47565b61ffff8210156110cd5701905f90565b634e487b7160e01b5f52603260045260245ffd5b608081019081106001600160401b038211176110fc57604052565b634e487b7160e01b5f52604160045260245ffd5b606081019081106001600160401b038211176110fc57604052565b6101c081019081106001600160401b038211176110fc57604052565b60a081019081106001600160401b038211176110fc57604052565b90601f801991011681019081106001600160401b038211176110fc57604052565b60a09060231901126101a1576040519061119c82611147565b816024356001600160a01b03811681036101a15781526044356001600160a01b03811681036101a157602082015260643562ffffff811681036101a15760408201526084358060020b81036101a157606082015260a435906001600160a01b03821682036101a15760800152565b91908260a09103126101a15760405161122281611147565b809261122d81610f33565b825261123b60208201610f33565b6020830152604081013562ffffff811681036101a15760408301526060810135908160020b82036101a157606083019190915260800135906001600160a01b03821682036101a15760800152565b908160209103126101a157516001600160a01b03811681036101a15790565b519065ffffffffffff821682036101a157565b519063ffffffff821682036101a157565b9190826101209103126101a15760405161012081018181106001600160401b038211176110fc576040528092611301816112a8565b825261130f602082016112a8565b6020830152611320604082016112a8565b6040830152611331606082016112a8565b6060830152611342608082016112bb565b608083015260a08101516001600160701b03811681036101a15760a083015261136d60c082016112bb565b60c083015260e08101516001600160a01b03811681036101a15760e083015261010090810151910152565b519061ffff821682036101a157565b519081151582036101a157565b908160209103126101a1575190565b604051632eec7b5560e11b8152600481018290529192916020816024817f00000000000000000000000000000000000000000000000000000000000000006001600160a01b03165afa90811561185257602491610380915f91611823575b506040516320c94b1360e11b81526004810185905292839182906001600160a01b03165afa91825f925f9461164f575b5061145f5750505050505f90565b61148e61ffff61010063ffffffff60406001600160701b0360a0880151169701511694015160041c1695611c65565b9163ffffffff83169060ff6114a285611c7a565b1693604d8511611643578282036115675750505050670de0b6b3a7640000905b6012810361152f575061ffff92905b670de0b6b3a7640000810361151657506114ea91611d05565b915b16801561151257612710039061ffff8211610da55761ffff61150f921690611d80565b90565b5090565b906115249061152993611d05565b611d05565b916114ec565b670de0b6b3a7640000840293808504670de0b6b3a76400001490151715610da55761ffff9361156191600a0a90611cfb565b906114d1565b6001600160a01b031661eeee1480611639575b1561159157505050670de0b6b3a7640000906114c2565b604051631df139fd60e11b8152600481019390935260248301526044820152601260648201526020816084817f00000000000000000000000000000000000000000000000000000000000000006001600160a01b03165afa5f9181611605575b506115ff5750505050505f90565b906114c2565b9091506020813d602011611631575b8161162160209383611162565b810103126101a15751905f6115f1565b3d9150611614565b506001811461157a565b50505050505050505f90565b925092506103803d811161181c575b6116688184611162565b82018281039061038082126101a15761168461026091856112cc565b9161011f1901126101a1576040519261026084018481106001600160401b038211176110fc576040526116ba6101208201611398565b84526116c96101408201611398565b60208501526116db61016082016112bb565b60408501526116ed61018082016113a7565b60608501526116ff6101a082016113a7565b60808501526117116101c082016113a7565b60a08501526117236101e082016113a7565b60c085015261173561020082016113a7565b60e085015261174761022082016113a7565b61010085015261175a61024082016113a7565b61012085015261176d61026082016113a7565b61014085015261178061028082016113a7565b6101608501526117936102a082016113a7565b6101808501526117a66102c082016113a7565b6101a08501526117b96102e082016113a7565b6101c08501526117cc61030082016113a7565b6101e08501526117df61032082016113a7565b6102008501526103408101516001600160a01b03811681036101a15761022085015261180e9061036001611398565b61024084015291925f611451565b503d61165e565b611845915060203d60201161184b575b61183d8183611162565b810190611289565b5f611421565b503d611833565b6040513d5f823e3d90fd5b6001600160401b0381116110fc5760051b60200190565b81601f820112156101a1578051906001600160401b0382116110fc57604051926118a8601f8401601f191660200185611162565b828452602083830101116101a157815f9260208093018386015e8301015290565b805180835260209291819084018484015e5f828201840152601f01601f1916010190565b91908203918211610da557565b909161190590611c65565b906119665f6020946040519061191b8783611162565b82825260405193849283926312a9c76f60e21b8452306004850152876024850152604484015260018060a01b038816606484015230608484015260c060a484015260c48301906118c9565b03816001600160a01b0389165afa80915f955f936119bc575b505061198e5750505050505f90565b83156119b357156119aa57505061150f915060288104906118ed565b61150f93612f30565b50505050505f90565b91925094503d805f873e6119d08187611162565b850190610180868303126101a1576119e882876112cc565b506101208601519161014087015196610160810151906001600160401b0382116101a157019080601f830112156101a15781518380611a268361185d565b611a336040519182611162565b838152019160051b840101928284116101a157848101915b848310611a615750505050505093905f8061197f565b82516001600160401b0381116101a1578201906080828603601f1901126101a15760405190611a8f826110e1565b828801516001600160a01b03811681036101a1578252611ab1604084016113a7565b88830152606083015160408301526080830151916001600160401b0383116101a157611ae4878a80969581960101611874565b6060820152815201920191611a4b565b909291611b008261314a565b916001600160a01b03831615611c2f575b5062ffffff8194610fff604083611b4b60a085207f0000000000000000000000000000000000000000000000000000000000000000613688565b9492509590500151166280000081145f14611c275750915b8615611c1e57165b61ffff8116611c0657505b1680611be2575b50506001600160a01b0316906001600160801b038211611bbf5781800291808304811490151715610da55715611bb65761150f91611ff4565b61150f91611f71565b9080611bca91611e55565b9015611bd95761150f91611f28565b61150f91611e9e565b90919350620f424003620f42408111610da557611bfe91611de9565b915f80611b7d565b610fff8391169116620f424081830204910103611b76565b600c1c16611b6b565b905091611b63565b611c5b9192507f0000000000000000000000000000000000000000000000000000000000000000613688565b505050905f611b11565b6001600160a01b03811661150f575061eeee90565b6001600160a01b031661eeee8114611cf55760206004916040519283809263313ce56760e01b82525afa5f9181611cb7575b5061150f5750601290565b9091506020813d602011611ced575b81611cd360209383611162565b810103126101a1575160ff811681036101a157905f611cac565b3d9150611cc6565b50601290565b8115610dc8570490565b808202905f1983820990828083109203918083039283670de0b6b3a764000011156101a15714611d6f577faccb18165bd6fe31ae1cf318dc5b51eee0e1ba569b88cd74c1773b91fac1066993670de0b6b3a7640000910990828211900360ee1b910360121c170290565b5050670de0b6b3a764000091500490565b808202905f198382099082808310920391808303928361271011156101a15714611dde577fbc01a36e2eb1c432ca57a786c226809d495182a9930be0ded288ce703afb7e9193612710910990828211900360fc1b910360041c170290565b505061271091500490565b808202905f1983820990828083109203918083039283620f424011156101a15714611e49577fde8f6cefed634549b62c77574f722e1ac57e23f24d8fd5cb790fb65668c2613993620f4240910990828211900360fa1b910360061c170290565b5050620f424091500490565b81810291905f1982820991838084109303928084039384600160401b11156101a15714611e9557600160401b910990828211900360c01b910360401c1790565b50505060401c90565b90608082901b905f19600160801b8409928280851094039380850394858411156101a15714611f21578190600160801b900981805f03168092046002816003021880820260020302808202600203028082026002030280820260020302808202600203028091026002030293600183805f03040190848311900302920304170290565b5091500490565b81810291905f1982820991838084109303928084039384600160801b11156101a15714611f6857600160801b910990828211900360801b910360801c1790565b50505060801c90565b9060c082901b905f19600160c01b8409928280851094039380850394858411156101a15714611f21578190600160c01b900981805f03168092046002816003021880820260020302808202600203028082026002030280820260020302808202600203028091026002030293600183805f03040190848311900302920304170290565b81810291905f1982820991838084109303928084039384600160c01b11156101a1571461203457600160c01b910990828211900360401b910360c01c1790565b50505060c01c90565b8051156110cd5760200190565b8051600110156110cd5760400190565b80518210156110cd5760209160051b010190565b905f916002549160ff8316612f1d57612086916138a7565b905060a061209536602461120a565b20915f60e43513612f085760c435151560c435036101a15760c43515612eef576024356001600160a01b03811681036101a157905b60c43515612ed6576044356001600160a01b03811681036101a157905b60e435600160ff1b14610da5576121066001600160a01b0384166138f8565b926121196001600160a01b0384166138f8565b801580159690612ecf5781955b8015612ec957805b5f905f945f935f9b612cae575b80612c76575b81159115612c6d575b50612c1c5761216c60c43560e4355f038d61216636602461120a565b90611af4565b996001600160a01b038416801515969087612c11575b506001600160a01b038216801515949085612c06575b5087612bfc575b87612bea575b84612be0575b84612bce575b8780612bb3575b85612b98575b508415612b905750935b8315612b885750985b8215612b805750925b848515612b79575b80612b70575b8015612b45578b7f7a23c5ecccd05a835903b88a2163b466b6337b968dde0e581fdccf14d5c74ed9606060018e5b8515612b405750875b60ff604051921682526020820152336040820152a26122855750505050505050505060607f263dfe81324d31d9db2a4afda6df10810d5f84b970529f73d0b0834cfe99ab5091604051908582526020820152336040820152a26315d7892d60e21b918190565b909294969891939597997f263dfe81324d31d9db2a4afda6df10810d5f84b970529f73d0b0834cfe99ab50606060405160018152876020820152336040820152a2809280612b37575b15612af157505050600190945b60ff1916176002558115612ae3575b811580612ad1575b15612aca576040516370a0823160e01b81523060048201526020816024816001600160a01b0388165afa908115611852575f91612a98575b50955b7f00000000000000000000000000000000000000000000000000000000000000006001600160a01b0316803b156101a157604051630b0d9c0960e01b81526001600160a01b038616600482015230602482015260e4355f908103604483015290918290606490829084905af1801561185257612a83575b506123b76001600160a01b038516611c65565b6001600160a01b03871615918215612a175747935b8515612940576001600160a01b03871615908b9082156127e3575b82156127dc578960e4355f035b60209687936124666040516124098782611162565b8781526040519788968795869563fef4325760e01b8752600487015260018060a01b0316602486015260e4355f036044860152306064860152608485015260e060a485015260e484015261010060c48401526101048301906118c9565b03916001600160a01b0388165af180156127d1576127a7575b5015612702575b50505b156126915761249890476118ed565b9481158061267f575b6125d7575b5015806125cc575b806125c4575b61259a5750808310612583575060016001607f1b03821161256f57816124fd9130907f0000000000000000000000000000000000000000000000000000000000000000906143ff565b60ff196002541660025560016001607f1b0360e4355f0311612558576001600160801b0361252e9116600f0b6130d3565b6001600160801b0316916315d7892d60e21b926001600160801b031960e4355f0360801b16179190565b63028446dd60e11b825260e4355f03600452602482fd5b6363ce7e7160e11b83526004829052602483fd5b637ed62b6360e01b84526004839052602452604483fd5b63c0714aa760e01b85526001600160a01b03908116600452821660245260e4355f03604452606484fd5b5083156124b4565b5060e43515156124ae565b6040516370a0823160e01b8152306004820152906020826024816001600160a01b0388165afa918215612674578892612640575b5080820361261957506124a6565b63c43d3adb60e01b88526001600160a01b0390931660045260249290925250604452606484fd5b9091506020813d60201161266c575b8161265c60209383611162565b810103126101a15751905f61260b565b3d915061264f565b6040513d8a823e3d90fd5b506001600160a01b03831615156124a1565b6040516370a0823160e01b8152306004820152906020826024816001600160a01b038a165afa80156126745788906126ce575b61249892506118ed565b506020823d6020116126fa575b816126e860209383611162565b810103126101a15761249891516126c4565b3d91506126db565b604051636eb1769f60e11b81523060048201526001600160a01b0382811660248301528390829060449082908b165afa92831561279c578b9361276c575b50508115612486576331f611dd60e11b8a526001600160a01b0380871660045216602452604452606488fd5b9080929350813d8311612795575b6127848183611162565b810103126101a15751905f80612740565b503d61277a565b6040513d8d823e3d90fd5b8381813d83116127ca575b6127bc8183611162565b810103126101a1575161247f565b503d6127b2565b6040513d8e823e3d90fd5b89826123f4565b60405163095ea7b360e01b83526001600160a01b0385811660045260e4355f036024526020908490604490829081908f165af1906001845114821615612927575b6040526123e75790508b886001602083604481806040519663095ea7b360e01b8252868060a01b038c1660045281602452868060a01b03165af1925114821615612906575b604052156128c0578b886001602083604481806040519663095ea7b360e01b8252868060a01b038c1660045260e4355f03602452868060a01b03165af19251148216156128dc575b604052156128c0578b906123e7565b635274afe760e01b8c526001600160a01b03881660045260248cfd5b9060018115166128fd573d156001600160a01b038b163b15151616906128b1565b503d8d823e3d90fd5b9060018115166128fd573d156001600160a01b038b163b1515161690612869565b3d156001600160a01b038c163b15151690911690612824565b6129bf925060209161295a6001600160a01b038b16611c65565b8c604051936129698686611162565b818552604051968795869485936313da831760e01b8552306004860152602485015260e4355f03604485015260018060a01b031660648401528d60848401523060a484015260e060c484015260e48301906118c9565b03926001600160a01b03165af18015612a0c576129dd575b50612489565b6129fe9060203d602011612a05575b6129f68183611162565b8101906113b4565b505f6129d7565b503d6129ec565b6040513d8b823e3d90fd5b6040516370a0823160e01b81523060048201526020816024816001600160a01b038d165afa90811561279c578b91612a51575b50936123cc565b90506020813d602011612a7b575b81612a6c60209383611162565b810103126101a157515f612a4a565b3d9150612a5f565b612a909198505f90611162565b5f965f6123a4565b90506020813d602011612ac2575b81612ab360209383611162565b810103126101a157515f61232a565b3d9150612aa6565b5f9561232d565b506001600160a01b03831615156122f2565b612aec81613e95565b6122ea565b8580929398945091612b23575b50612b0d575b506001906122db565b90945060018101809111610da557936001612b04565b905060018201808311610da557115f612afe565b508084116122ce565b61221f565b8b7f7a23c5ecccd05a835903b88a2163b466b6337b968dde0e581fdccf14d5c74ed960605f8e612216565b508983116121e8565b50816121e2565b9050926121da565b9050986121d1565b9050936121c8565b909450158015612baa575b935f6121be565b50838111612ba3565b975084158015612bc4575b976121b8565b5081811015612bbe565b60016001607f1b0382111594506121b1565b81151594506121ab565b60016001607f1b0381111597506121a5565b801515975061219f565b3b151594505f612198565b3b151596505f612182565b5050505050505050505090507f263dfe81324d31d9db2a4afda6df10810d5f84b970529f73d0b0834cfe99ab5060606040515f81525f6020820152336040820152a26315d7892d60e21b905f908190565b9050155f61214a565b909a509450612c8e6001600160a01b03891682613a12565b99612ca88b6001600160a01b038b1660e4355f03856118fa565b95612141565b9093509150612cc66001600160a01b0387168a613a12565b926001600160a01b0384168015612ec157612d51905f8c612cef6001600160a01b038c16611c65565b9260209360405192612d018685611162565b848452604051630aff0c3160e01b815260048101919091526001600160a01b03909116602482015260e4358403604482015230606482015260a060848201529485928391829160a48301906118c9565b03915afa9182915f93612d73575b5050612d6d57505f9261213b565b9261213b565b909192503d805f843e612d868184611162565b6101808382810103126101a157612d9f818401846112cc565b50610120830151926101608101516001600160401b0381116101a157828201601f8284010112156101a157808201519284612dd98561185d565b612de66040519182611162565b8581520191818401868660051b8387010101116101a1578581850101925b868660051b83870101018410612e235750505050505050905f80612d5f565b83516001600160401b0381116101a15782860101906080601f19838689010301126101a15760405191612e55836110e1565b808901516001600160a01b03811681036101a1578352612e77604082016113a7565b89840152606081015160408401526080810151916001600160401b0383116101a1578993612eaf8594938580958a8d01920101611874565b60608201528152019401939050612e04565b505f9261213b565b5f61212e565b5f95612126565b6024356001600160a01b03811681036101a157906120e7565b6044356001600160a01b03811681036101a157906120ca565b6301c0fdc160e31b5f5260e43560045260245ffd5b637e428b3560e01b5f523360045260245ffd5b60405163659a204760e01b81526001600160a01b03919091169290602081600481875afa5f918161308f575b50612f68575050505090565b60405163438bebe160e11b8152306004820181905260248201859052604482015290602090829060649082906001600160a01b03165afa5f9181613053575b50612fb3575050505090565b61304d5760405163c66d192b60e01b815260048101929092526001600160a01b0316602482015290602090829060449082905afa5f9181613019575b50612ff8575090565b61150f91908082101561301157506028815b04906118ed565b60289061300a565b9091506020813d602011613045575b8161303560209383611162565b810103126101a15751905f612fef565b3d9150613028565b50505090565b9091506020813d602011613087575b8161306f60209383611162565b810103126101a157613080906113a7565b905f612fa7565b3d9150613062565b9091506020813d6020116130cb575b816130ab60209383611162565b810103126101a157516001600160a01b03811681036101a157905f612f5c565b3d915061309e565b600f0b6f7fffffffffffffffffffffffffffffff198114610da5575f0390565b9061ffff16908115610dc85761ffff160690565b90604051613114816110e1565b915463ffffffff81168352602081811c60060b90840152605881901c6001600160a01b0316604084015260f81c15156060830152565b805f52600160205260405f20906040519161316483611110565b5461ffff81168352600261ffff8260101c1661ffff602086019382855260201c16604086015210613681577f0000000000000000000000000000000000000000000000000000000000000000906131c9836131bf8185613688565b5050949050613727565b9163ffffffff42169361070885115f1461367b5761070719850163ffffffff8111610da5575b815f525f60205260405f20600161ffff8951160161ffff8111610da55761322f916132236132299261ffff895116906130f3565b906110bd565b50613107565b606081015115613659575b63ffffffff8091511691161061364f5761ffff8061329a9751169351169460405191613267606084611162565b6002835260403660208501375f61327d8461203d565b5261070861328a8461204a565b525f525f60205260405f206137bb565b506132a7610d208261203d565b5160060b9003667fffffffffffff198112667fffffffffffff821317610da55760060b5f610708820560020b915f8112908161363b575b50613612575b5060020b908160ff1d82810118620d89e881116135ff5763ffffffff9192600182167001fffcb933bd6fad37aa2d162d1a59400102600160801b1891600281166135e3575b600481166135c7575b600881166135ab575b6010811661358f575b60208116613573575b60408116613557575b6080811661353b575b610100811661351f575b6102008116613503575b61040081166134e7575b61080081166134cb575b61100081166134af575b6120008116613493575b6140008116613477575b618000811661345b575b62010000811661343f575b620200008116613424575b620400008116613409575b62080000166133f0575b5f126133e8575b0160201c90565b5f19046133e1565b6b048a170391f7dc42444e8fa290910260801c906133da565b6d2216e584f5fa1ea926041bedfe9890920260801c916133d0565b916e5d6af8dedb81196699c329225ee6040260801c916133c5565b916f09aa508b5b7a84e1c677de54f3e99bc90260801c916133ba565b916f31be135f97d08fd981231505542fcfa60260801c916133af565b916f70d869a156d2a1b890bb3df62baf32f70260801c916133a5565b916fa9f746462d870fdf8a65dc1f90e061e50260801c9161339b565b916fd097f3bdfd2022b8845ad8f792aa58250260801c91613391565b916fe7159475a2c29b7443b29c7fa6e889d90260801c91613387565b916ff3392b0822b70005940c7a398e4b70f30260801c9161337d565b916ff987a7253ac413176f2b074cf7815e540260801c91613373565b916ffcbe86c7900a88aedcffc83b479aa3a40260801c91613369565b916ffe5dee046a99a2a811c461f1969c30530260801c9161335f565b916fff2ea16466c96a3843ec78b326b528610260801c91613356565b916fff973b41fa98c081472e6896dfb254c00260801c9161334d565b916fffcb9843d60f6159c9db58835c9266440260801c91613344565b916fffe5caca7e10e4e61c3624eaa0941cd00260801c9161333b565b916ffff2e50f5f656932ef12357cf3c7fdcc0260801c91613332565b916ffff97272373d413259a46990580e213a0260801c91613329565b826345c3193d60e11b5f5260045260245ffd5b627fffff19821461362757505f19015f6132e4565b634e487b7160e01b81526011600452602490fd5b9150506107085f910760060b15155f6132de565b5050505050505f90565b50815f525f60205263ffffffff8061367360405f20613107565b91505061323a565b5f6131ef565b5050505f90565b9190613695602091613d1d565b604051631e2eaeaf60e01b8152600481019190915292839060249082906001600160a01b03165afa918215611852575f926136f3575b506001600160a01b0382169160a081901c60020b9162ffffff60b883901c81169260d01c1690565b9091506020813d60201161371f575b8161370f60209383611162565b810103126101a15751905f6136cb565b3d9150613702565b9061373190613d1d565b60038101809111610da557604051631e2eaeaf60e01b8152600481019190915290602090829060249082906001600160a01b03165afa8015611852575f90613782575b6001600160801b0391501690565b506020813d6020116137b3575b8161379c60209383611162565b810103126101a1576001600160801b039051613774565b3d915061378f565b9694959092919561ffff8216801561389557508651946137da8661185d565b936137e86040519586611162565b868552601f196137f78861185d565b0136602087013784996138098861185d565b966138176040519889611162565b888852601f196138268a61185d565b013660208a0137879a5f5b8a8110613845575050505050505050505050565b808a8161387561386d8c8c8c8c8c8c63ffffffff61386560019d8f61205a565b511691613d43565b92909361205a565b90848060a01b03169052613889828c61205a565b9060060b905201613831565b631bd3597160e31b5f5260045260245ffd5b915f925f926024811015806138d5575b6138bf575050565b91925092506024116101a1576004600192013590565b50806004116101a15781356001600160e01b0319166386f23c4960e01b146138b7565b604051630f85421b60e01b81526001600160a01b039182166004820181905290917f000000000000000000000000000000000000000000000000000000000000000016602083602481845afa928315611852575f936139de575b5082156136815760206024916040519283809263ea78803f60e01b82528760048301525afa908115611852575f9161399c575b506001600160a01b0316036139975790565b505f90565b90506020813d6020116139d6575b816139b760209383611162565b810103126101a157516001600160a01b03811681036101a1575f613985565b3d91506139aa565b9092506020813d602011613a0a575b816139fa60209383611162565b810103126101a15751915f613952565b3d91506139ed565b602090613a21613a5093611c65565b604051630862026560e41b815260048101929092526001600160a01b0316602482015291829081906044820190565b03817f00000000000000000000000000000000000000000000000000000000000000006001600160a01b03165afa5f9181613a90575b5061150f57505f90565b9091506020813d602011613acc575b81613aac60209383611162565b810103126101a157516001600160a01b03811681036101a157905f613a86565b3d9150613a9f565b60011b906201fffe61fffe831692168203610da557565b7f0000000000000000000000000000000000000000000000000000000000000000613b2482613b1a8184613688565b5050939050613727565b825f52600160205260405f209060405191613b3e83611110565b549261ffff84169283815261ffff8560101c1693602082019480865261ffff604084019760201c1687526104008114613ca7575b505061ffff8551169461ffff8551168681149081613c87575b50613c25575b5091613bbd93918593875f525f60205261ffff8060405f209251169451169363ffffffff421691614066565b91909261ffff60405194613bd086611110565b16845261ffff602085019316835261ffff60408501921682525f52600160205261ffff60405f2093511665ffff0000000063ffff00008554945160101b16925160201b169265ffffffffffff19161717179055565b613bbd949295508061040061ffff613c4581613c68959896985116613ad4565b161115613c7357610400905b885f525f60205261ffff60405f2091511690613ffc565b949193929092613b91565b613c8161ffff825116613ad4565b90613c51565b905061ffff835116905f190161ffff8111610da55761ffff16145f613b8b565b613cbe6132299161ffff6002613cce9501166130f3565b885f525f60205260405f206110bd565b606081015115159081613cf0575b50613ce8575f80613b72565b505050505050565b63ffffffff9150511663ffffffff42160363ffffffff8111610da55763ffffffff6107089116105f613cdc565b604051602081019182526006604082015260408152613d3d606082611162565b51902090565b9492909695939163ffffffff811615613e3f579463ffffffff613d6b96890316978891614243565b909263ffffffff8451168082145f14613d9a57505050602082015160060b91604060018060a01b039101511690565b63ffffffff83959351168083145f14613dca5750505050602082015160060b91604060018060a01b039101511690565b9063ffffffff81819397949597031693031693602081015160060b9283602084015160060b0360060b928160060b928315610dc8576040908101519101516001600160a01b0392918316918391613e2a9190831684900383168a02611cfb565b1601169460060b91050260060b0160060b9190565b50925061322990613e5092946110bd565b9363ffffffff85511663ffffffff821603613e82575b505050602082015160060b91604060018060a01b039101511690565b613e8c9394614189565b905f8080613e66565b60405163c6c116bd60e01b815230600482015260248101829052906020826044817f00000000000000000000000000000000000000000000000000000000000000006001600160a01b03165afa918215611852575f92613fc8575b508115613fc457604051632eec7b5560e11b8152600481018290526020816024817f00000000000000000000000000000000000000000000000000000000000000006001600160a01b03165afa908115611852575f91613fa5575b506001600160a01b031691823b156101a15760845f9283604051958694859363181faefd60e11b8552306004860152602485015260448401523060648401525af1801561185257613f995750565b5f613fa391611162565b565b613fbe915060203d60201161184b5761183d8183611162565b5f613f4b565b5050565b9091506020813d602011613ff4575b81613fe460209383611162565b810103126101a15751905f613ef0565b3d9150613fd7565b61ffff82169182156140535761ffff84169283111561404c575b8261ffff8216106140275750505090565b60018161403761ffff93856110bd565b50805463ffffffff1916831790550116614016565b9250505090565b82631bd3597160e31b5f5260045260245ffd5b939195929096949661407b61322982876110bd565b9363ffffffff85511663ffffffff89161461415b57916140c36140d195949261ffff6140cb958c8260019d9e16838316118061414b575b1561414157509a8b925b01166130f3565b988994614189565b926110bd565b91909161412e57805160208083015160408401516060909401516001600160f81b031990151560f81b16600160581b600160f81b0360589590951b9490941663ffffffff909316911b6affffffffffffff00000000161717179055565b634e487b7160e01b5f525f60045260245ffd5b90509a8b926140bc565b508383165f1982018416146140b2565b5096955050505050565b60405190614172826110e1565b5f6060838281528260208201528260408201520152565b91929092614195614165565b5063ffffffff835116840392602081015160060b90604060018060a01b0391015116926001600160801b03811615155f14614233576001600160801b03905b16918215610dc85763ffffffff604051966141ee886110e1565b16865263ffffffff851660060b9060020b0260060b0160060b602085015260018060a01b039263ffffffff60801b9060801b1604011660408201526001606082015290565b506001600160801b0360016141d4565b9692949094939193614253614165565b5061425c614165565b9161426a613229858b6110bd565b9163ffffffff83511661427e88828b614614565b6143d4575050505050600161ffff9101166142a561322961429f87846130f3565b886110bd565b6060810151156143be575b5163ffffffff166142c2848287614614565b156143a1575061ffff6142e88682936142d9614165565b506142e2614165565b506130f3565b169416935f19858201015b80820160011c9061431061322961430a8985614692565b8a6110bd565b60608101511561439657600183019061433561322961432f8b85614692565b8c6110bd565b6143478863ffffffff8451168b614614565b91828061437e575b61436f5750506143665750505f1901905b906142f3565b91509150614360565b9a509850949650505050505050565b5061439163ffffffff8351168a8c614614565b61434f565b509150600101614360565b8363ffffffff91630703673b60e01b5f526004521660245260445ffd5b5063ffffffff6143cd87613107565b90506142b0565b93995094975090955093915063ffffffff8216036143f3575050509190565b8361150f949650614189565b831561460e576001600160a01b031691826144b457506001600160a01b0316803b156101a15760405191632961046560e21b835260048301525a915f8160248183868198f180156118525761449e575b50602090600460405180958193630476982d60e21b83525af190811561449257506144775750565b61448f9060203d602011612a05576129f68183611162565b50565b604051903d90823e3d90fd5b6144ab9192505f90611162565b5f90602061444f565b926001600160a01b039091169190823b156101a157604051632961046560e21b815260048101839052935a945f816024818389819bf18015611852576145f9575b506001600160a01b0316903082146145a057604051916323b872dd60e01b86526004528360245260445260208460648180865af190600185511482161561457f575b604052836060521561456d5750602082915b600460405180958193630476982d60e21b83525af190811561449257506144775750565b635274afe760e01b8352600452602482fd5b90600181151661459757823b15153d15161690614537565b503d84823e3d90fd5b90506040519063a9059cbb60e01b85528360045260245260208460448180865af19060018551148216156145e1575b6040521561456d575060208291614549565b90600181151661459757823b15153d151616906145cf565b6146069195505f90611162565b5f935f6144f5565b50505050565b63ffffffff918216929116808311801580614682575b614675579063ffffffff64ffffffffff939484935f1461466657945b1690811115614658575b169116111590565b640100000000018116614650565b64010000000001831694614646565b505063ffffffff16101590565b508163ffffffff8416111561462a565b8115610dc857069056fea164736f6c634300081c000a",
	"gitCommit": "npm:@bananapus/univ4-router-v6@1.0.0",
	"gitDirty": false,
	"history": []
}