{
	"format": "sphinx-sol-ct-artifact-1",
	"address": "0xe2229dd6a7da99ebb8f7d749612edd1b2addafe1",
	"sourceName": "node_modules/@ballkidz/defifa/src/DefifaHook.sol",
	"contractName": "DefifaHook",
	"chainId": "0xa",
	"abi": [
		{
			"type": "constructor",
			"inputs": [
				{
					"name": "directory",
					"type": "address",
					"internalType": "contract IJBDirectory"
				},
				{
					"name": "defifaToken",
					"type": "address",
					"internalType": "contract IERC20"
				},
				{
					"name": "baseProtocolToken",
					"type": "address",
					"internalType": "contract IERC20"
				}
			],
			"stateMutability": "nonpayable"
		},
		{
			"type": "function",
			"name": "BASE_PROTOCOL_TOKEN",
			"inputs": [],
			"outputs": [
				{
					"name": "",
					"type": "address",
					"internalType": "contract IERC20"
				}
			],
			"stateMutability": "view"
		},
		{
			"type": "function",
			"name": "CODE_ORIGIN",
			"inputs": [],
			"outputs": [
				{
					"name": "",
					"type": "address",
					"internalType": "address"
				}
			],
			"stateMutability": "view"
		},
		{
			"type": "function",
			"name": "DEFIFA_TOKEN",
			"inputs": [],
			"outputs": [
				{
					"name": "",
					"type": "address",
					"internalType": "contract IERC20"
				}
			],
			"stateMutability": "view"
		},
		{
			"type": "function",
			"name": "DIRECTORY",
			"inputs": [],
			"outputs": [
				{
					"name": "",
					"type": "address",
					"internalType": "contract IJBDirectory"
				}
			],
			"stateMutability": "view"
		},
		{
			"type": "function",
			"name": "METADATA_ID_TARGET",
			"inputs": [],
			"outputs": [
				{
					"name": "",
					"type": "address",
					"internalType": "address"
				}
			],
			"stateMutability": "view"
		},
		{
			"type": "function",
			"name": "TOTAL_CASHOUT_WEIGHT",
			"inputs": [],
			"outputs": [
				{
					"name": "",
					"type": "uint256",
					"internalType": "uint256"
				}
			],
			"stateMutability": "view"
		},
		{
			"type": "function",
			"name": "adjustedPendingReservesFor",
			"inputs": [
				{
					"name": "tierId",
					"type": "uint256",
					"internalType": "uint256"
				}
			],
			"outputs": [
				{
					"name": "",
					"type": "uint256",
					"internalType": "uint256"
				}
			],
			"stateMutability": "view"
		},
		{
			"type": "function",
			"name": "afterCashOutRecordedWith",
			"inputs": [
				{
					"name": "context",
					"type": "tuple",
					"internalType": "struct JBAfterCashOutRecordedContext",
					"components": [
						{
							"name": "holder",
							"type": "address",
							"internalType": "address"
						},
						{
							"name": "projectId",
							"type": "uint256",
							"internalType": "uint256"
						},
						{
							"name": "rulesetId",
							"type": "uint256",
							"internalType": "uint256"
						},
						{
							"name": "cashOutCount",
							"type": "uint256",
							"internalType": "uint256"
						},
						{
							"name": "reclaimedAmount",
							"type": "tuple",
							"internalType": "struct JBTokenAmount",
							"components": [
								{
									"name": "token",
									"type": "address",
									"internalType": "address"
								},
								{
									"name": "decimals",
									"type": "uint8",
									"internalType": "uint8"
								},
								{
									"name": "currency",
									"type": "uint32",
									"internalType": "uint32"
								},
								{
									"name": "value",
									"type": "uint256",
									"internalType": "uint256"
								}
							]
						},
						{
							"name": "forwardedAmount",
							"type": "tuple",
							"internalType": "struct JBTokenAmount",
							"components": [
								{
									"name": "token",
									"type": "address",
									"internalType": "address"
								},
								{
									"name": "decimals",
									"type": "uint8",
									"internalType": "uint8"
								},
								{
									"name": "currency",
									"type": "uint32",
									"internalType": "uint32"
								},
								{
									"name": "value",
									"type": "uint256",
									"internalType": "uint256"
								}
							]
						},
						{
							"name": "cashOutTaxRate",
							"type": "uint256",
							"internalType": "uint256"
						},
						{
							"name": "beneficiary",
							"type": "address",
							"internalType": "address payable"
						},
						{
							"name": "hookMetadata",
							"type": "bytes",
							"internalType": "bytes"
						},
						{
							"name": "cashOutMetadata",
							"type": "bytes",
							"internalType": "bytes"
						}
					]
				}
			],
			"outputs": [],
			"stateMutability": "payable"
		},
		{
			"type": "function",
			"name": "afterPayRecordedWith",
			"inputs": [
				{
					"name": "context",
					"type": "tuple",
					"internalType": "struct JBAfterPayRecordedContext",
					"components": [
						{
							"name": "payer",
							"type": "address",
							"internalType": "address"
						},
						{
							"name": "projectId",
							"type": "uint256",
							"internalType": "uint256"
						},
						{
							"name": "rulesetId",
							"type": "uint256",
							"internalType": "uint256"
						},
						{
							"name": "amount",
							"type": "tuple",
							"internalType": "struct JBTokenAmount",
							"components": [
								{
									"name": "token",
									"type": "address",
									"internalType": "address"
								},
								{
									"name": "decimals",
									"type": "uint8",
									"internalType": "uint8"
								},
								{
									"name": "currency",
									"type": "uint32",
									"internalType": "uint32"
								},
								{
									"name": "value",
									"type": "uint256",
									"internalType": "uint256"
								}
							]
						},
						{
							"name": "forwardedAmount",
							"type": "tuple",
							"internalType": "struct JBTokenAmount",
							"components": [
								{
									"name": "token",
									"type": "address",
									"internalType": "address"
								},
								{
									"name": "decimals",
									"type": "uint8",
									"internalType": "uint8"
								},
								{
									"name": "currency",
									"type": "uint32",
									"internalType": "uint32"
								},
								{
									"name": "value",
									"type": "uint256",
									"internalType": "uint256"
								}
							]
						},
						{
							"name": "weight",
							"type": "uint256",
							"internalType": "uint256"
						},
						{
							"name": "newlyIssuedTokenCount",
							"type": "uint256",
							"internalType": "uint256"
						},
						{
							"name": "beneficiary",
							"type": "address",
							"internalType": "address"
						},
						{
							"name": "hookMetadata",
							"type": "bytes",
							"internalType": "bytes"
						},
						{
							"name": "payerMetadata",
							"type": "bytes",
							"internalType": "bytes"
						}
					]
				}
			],
			"outputs": [],
			"stateMutability": "payable"
		},
		{
			"type": "function",
			"name": "amountRedeemed",
			"inputs": [],
			"outputs": [
				{
					"name": "",
					"type": "uint256",
					"internalType": "uint256"
				}
			],
			"stateMutability": "view"
		},
		{
			"type": "function",
			"name": "approve",
			"inputs": [
				{
					"name": "to",
					"type": "address",
					"internalType": "address"
				},
				{
					"name": "tokenId",
					"type": "uint256",
					"internalType": "uint256"
				}
			],
			"outputs": [],
			"stateMutability": "nonpayable"
		},
		{
			"type": "function",
			"name": "balanceOf",
			"inputs": [
				{
					"name": "owner",
					"type": "address",
					"internalType": "address"
				}
			],
			"outputs": [
				{
					"name": "",
					"type": "uint256",
					"internalType": "uint256"
				}
			],
			"stateMutability": "view"
		},
		{
			"type": "function",
			"name": "baseURI",
			"inputs": [],
			"outputs": [
				{
					"name": "",
					"type": "string",
					"internalType": "string"
				}
			],
			"stateMutability": "view"
		},
		{
			"type": "function",
			"name": "beforeCashOutRecordedWith",
			"inputs": [
				{
					"name": "context",
					"type": "tuple",
					"internalType": "struct JBBeforeCashOutRecordedContext",
					"components": [
						{
							"name": "terminal",
							"type": "address",
							"internalType": "address"
						},
						{
							"name": "holder",
							"type": "address",
							"internalType": "address"
						},
						{
							"name": "projectId",
							"type": "uint256",
							"internalType": "uint256"
						},
						{
							"name": "rulesetId",
							"type": "uint256",
							"internalType": "uint256"
						},
						{
							"name": "cashOutCount",
							"type": "uint256",
							"internalType": "uint256"
						},
						{
							"name": "totalSupply",
							"type": "uint256",
							"internalType": "uint256"
						},
						{
							"name": "surplus",
							"type": "tuple",
							"internalType": "struct JBTokenAmount",
							"components": [
								{
									"name": "token",
									"type": "address",
									"internalType": "address"
								},
								{
									"name": "decimals",
									"type": "uint8",
									"internalType": "uint8"
								},
								{
									"name": "currency",
									"type": "uint32",
									"internalType": "uint32"
								},
								{
									"name": "value",
									"type": "uint256",
									"internalType": "uint256"
								}
							]
						},
						{
							"name": "scopeCashOutsToLocalBalances",
							"type": "bool",
							"internalType": "bool"
						},
						{
							"name": "cashOutTaxRate",
							"type": "uint256",
							"internalType": "uint256"
						},
						{
							"name": "beneficiaryIsFeeless",
							"type": "bool",
							"internalType": "bool"
						},
						{
							"name": "metadata",
							"type": "bytes",
							"internalType": "bytes"
						}
					]
				}
			],
			"outputs": [
				{
					"name": "cashOutTaxRate",
					"type": "uint256",
					"internalType": "uint256"
				},
				{
					"name": "cashOutCount",
					"type": "uint256",
					"internalType": "uint256"
				},
				{
					"name": "totalSupply",
					"type": "uint256",
					"internalType": "uint256"
				},
				{
					"name": "effectiveSurplusValue",
					"type": "uint256",
					"internalType": "uint256"
				},
				{
					"name": "hookSpecifications",
					"type": "tuple[]",
					"internalType": "struct JBCashOutHookSpecification[]",
					"components": [
						{
							"name": "hook",
							"type": "address",
							"internalType": "contract IJBCashOutHook"
						},
						{
							"name": "noop",
							"type": "bool",
							"internalType": "bool"
						},
						{
							"name": "amount",
							"type": "uint256",
							"internalType": "uint256"
						},
						{
							"name": "metadata",
							"type": "bytes",
							"internalType": "bytes"
						}
					]
				}
			],
			"stateMutability": "view"
		},
		{
			"type": "function",
			"name": "beforePayRecordedWith",
			"inputs": [
				{
					"name": "context",
					"type": "tuple",
					"internalType": "struct JBBeforePayRecordedContext",
					"components": [
						{
							"name": "terminal",
							"type": "address",
							"internalType": "address"
						},
						{
							"name": "payer",
							"type": "address",
							"internalType": "address"
						},
						{
							"name": "amount",
							"type": "tuple",
							"internalType": "struct JBTokenAmount",
							"components": [
								{
									"name": "token",
									"type": "address",
									"internalType": "address"
								},
								{
									"name": "decimals",
									"type": "uint8",
									"internalType": "uint8"
								},
								{
									"name": "currency",
									"type": "uint32",
									"internalType": "uint32"
								},
								{
									"name": "value",
									"type": "uint256",
									"internalType": "uint256"
								}
							]
						},
						{
							"name": "projectId",
							"type": "uint256",
							"internalType": "uint256"
						},
						{
							"name": "rulesetId",
							"type": "uint256",
							"internalType": "uint256"
						},
						{
							"name": "beneficiary",
							"type": "address",
							"internalType": "address"
						},
						{
							"name": "weight",
							"type": "uint256",
							"internalType": "uint256"
						},
						{
							"name": "reservedPercent",
							"type": "uint256",
							"internalType": "uint256"
						},
						{
							"name": "metadata",
							"type": "bytes",
							"internalType": "bytes"
						}
					]
				}
			],
			"outputs": [
				{
					"name": "weight",
					"type": "uint256",
					"internalType": "uint256"
				},
				{
					"name": "hookSpecifications",
					"type": "tuple[]",
					"internalType": "struct JBPayHookSpecification[]",
					"components": [
						{
							"name": "hook",
							"type": "address",
							"internalType": "contract IJBPayHook"
						},
						{
							"name": "noop",
							"type": "bool",
							"internalType": "bool"
						},
						{
							"name": "amount",
							"type": "uint256",
							"internalType": "uint256"
						},
						{
							"name": "metadata",
							"type": "bytes",
							"internalType": "bytes"
						}
					]
				}
			],
			"stateMutability": "view"
		},
		{
			"type": "function",
			"name": "cashOutWeightIsSet",
			"inputs": [],
			"outputs": [
				{
					"name": "",
					"type": "bool",
					"internalType": "bool"
				}
			],
			"stateMutability": "view"
		},
		{
			"type": "function",
			"name": "cashOutWeightOf",
			"inputs": [
				{
					"name": "tokenId",
					"type": "uint256",
					"internalType": "uint256"
				}
			],
			"outputs": [
				{
					"name": "",
					"type": "uint256",
					"internalType": "uint256"
				}
			],
			"stateMutability": "view"
		},
		{
			"type": "function",
			"name": "cashOutWeightOf",
			"inputs": [
				{
					"name": "tokenIds",
					"type": "uint256[]",
					"internalType": "uint256[]"
				}
			],
			"outputs": [
				{
					"name": "cumulativeWeight",
					"type": "uint256",
					"internalType": "uint256"
				}
			],
			"stateMutability": "view"
		},
		{
			"type": "function",
			"name": "contractURI",
			"inputs": [],
			"outputs": [
				{
					"name": "",
					"type": "string",
					"internalType": "string"
				}
			],
			"stateMutability": "view"
		},
		{
			"type": "function",
			"name": "currentSupplyOfTier",
			"inputs": [
				{
					"name": "tierId",
					"type": "uint256",
					"internalType": "uint256"
				}
			],
			"outputs": [
				{
					"name": "",
					"type": "uint256",
					"internalType": "uint256"
				}
			],
			"stateMutability": "view"
		},
		{
			"type": "function",
			"name": "defaultAttestationDelegate",
			"inputs": [],
			"outputs": [
				{
					"name": "",
					"type": "address",
					"internalType": "address"
				}
			],
			"stateMutability": "view"
		},
		{
			"type": "function",
			"name": "firstOwnerOf",
			"inputs": [
				{
					"name": "tokenId",
					"type": "uint256",
					"internalType": "uint256"
				}
			],
			"outputs": [
				{
					"name": "",
					"type": "address",
					"internalType": "address"
				}
			],
			"stateMutability": "view"
		},
		{
			"type": "function",
			"name": "gamePhaseReporter",
			"inputs": [],
			"outputs": [
				{
					"name": "",
					"type": "address",
					"internalType": "contract IDefifaGamePhaseReporter"
				}
			],
			"stateMutability": "view"
		},
		{
			"type": "function",
			"name": "gamePotReporter",
			"inputs": [],
			"outputs": [
				{
					"name": "",
					"type": "address",
					"internalType": "contract IDefifaGamePotReporter"
				}
			],
			"stateMutability": "view"
		},
		{
			"type": "function",
			"name": "getApproved",
			"inputs": [
				{
					"name": "tokenId",
					"type": "uint256",
					"internalType": "uint256"
				}
			],
			"outputs": [
				{
					"name": "",
					"type": "address",
					"internalType": "address"
				}
			],
			"stateMutability": "view"
		},
		{
			"type": "function",
			"name": "getPastTierAttestationUnitsOf",
			"inputs": [
				{
					"name": "account",
					"type": "address",
					"internalType": "address"
				},
				{
					"name": "tier",
					"type": "uint256",
					"internalType": "uint256"
				},
				{
					"name": "timestamp",
					"type": "uint48",
					"internalType": "uint48"
				}
			],
			"outputs": [
				{
					"name": "",
					"type": "uint256",
					"internalType": "uint256"
				}
			],
			"stateMutability": "view"
		},
		{
			"type": "function",
			"name": "getPastTierTotalAttestationUnitsOf",
			"inputs": [
				{
					"name": "tier",
					"type": "uint256",
					"internalType": "uint256"
				},
				{
					"name": "timestamp",
					"type": "uint48",
					"internalType": "uint48"
				}
			],
			"outputs": [
				{
					"name": "",
					"type": "uint256",
					"internalType": "uint256"
				}
			],
			"stateMutability": "view"
		},
		{
			"type": "function",
			"name": "getTierAttestationUnitsOf",
			"inputs": [
				{
					"name": "account",
					"type": "address",
					"internalType": "address"
				},
				{
					"name": "tier",
					"type": "uint256",
					"internalType": "uint256"
				}
			],
			"outputs": [
				{
					"name": "",
					"type": "uint256",
					"internalType": "uint256"
				}
			],
			"stateMutability": "view"
		},
		{
			"type": "function",
			"name": "getTierDelegateOf",
			"inputs": [
				{
					"name": "account",
					"type": "address",
					"internalType": "address"
				},
				{
					"name": "tier",
					"type": "uint256",
					"internalType": "uint256"
				}
			],
			"outputs": [
				{
					"name": "",
					"type": "address",
					"internalType": "address"
				}
			],
			"stateMutability": "view"
		},
		{
			"type": "function",
			"name": "getTierTotalAttestationUnitsOf",
			"inputs": [
				{
					"name": "tier",
					"type": "uint256",
					"internalType": "uint256"
				}
			],
			"outputs": [
				{
					"name": "",
					"type": "uint256",
					"internalType": "uint256"
				}
			],
			"stateMutability": "view"
		},
		{
			"type": "function",
			"name": "hasMintPermissionFor",
			"inputs": [
				{
					"name": "",
					"type": "uint256",
					"internalType": "uint256"
				},
				{
					"name": "",
					"type": "tuple",
					"internalType": "struct JBRuleset",
					"components": [
						{
							"name": "cycleNumber",
							"type": "uint48",
							"internalType": "uint48"
						},
						{
							"name": "id",
							"type": "uint48",
							"internalType": "uint48"
						},
						{
							"name": "basedOnId",
							"type": "uint48",
							"internalType": "uint48"
						},
						{
							"name": "start",
							"type": "uint48",
							"internalType": "uint48"
						},
						{
							"name": "duration",
							"type": "uint32",
							"internalType": "uint32"
						},
						{
							"name": "weight",
							"type": "uint112",
							"internalType": "uint112"
						},
						{
							"name": "weightCutPercent",
							"type": "uint32",
							"internalType": "uint32"
						},
						{
							"name": "approvalHook",
							"type": "address",
							"internalType": "contract IJBRulesetApprovalHook"
						},
						{
							"name": "metadata",
							"type": "uint256",
							"internalType": "uint256"
						}
					]
				},
				{
					"name": "",
					"type": "address",
					"internalType": "address"
				}
			],
			"outputs": [
				{
					"name": "",
					"type": "bool",
					"internalType": "bool"
				}
			],
			"stateMutability": "pure"
		},
		{
			"type": "function",
			"name": "initialize",
			"inputs": [
				{
					"name": "_gameId",
					"type": "uint256",
					"internalType": "uint256"
				},
				{
					"name": "_name",
					"type": "string",
					"internalType": "string"
				},
				{
					"name": "_symbol",
					"type": "string",
					"internalType": "string"
				},
				{
					"name": "_rulesets",
					"type": "address",
					"internalType": "contract IJBRulesets"
				},
				{
					"name": "_baseUri",
					"type": "string",
					"internalType": "string"
				},
				{
					"name": "_tokenUriResolver",
					"type": "address",
					"internalType": "contract IJB721TokenUriResolver"
				},
				{
					"name": "_contractUri",
					"type": "string",
					"internalType": "string"
				},
				{
					"name": "_tiers",
					"type": "tuple[]",
					"internalType": "struct JB721TierConfig[]",
					"components": [
						{
							"name": "price",
							"type": "uint104",
							"internalType": "uint104"
						},
						{
							"name": "initialSupply",
							"type": "uint32",
							"internalType": "uint32"
						},
						{
							"name": "votingUnits",
							"type": "uint32",
							"internalType": "uint32"
						},
						{
							"name": "reserveFrequency",
							"type": "uint16",
							"internalType": "uint16"
						},
						{
							"name": "reserveBeneficiary",
							"type": "address",
							"internalType": "address"
						},
						{
							"name": "encodedIpfsUri",
							"type": "bytes32",
							"internalType": "bytes32"
						},
						{
							"name": "category",
							"type": "uint24",
							"internalType": "uint24"
						},
						{
							"name": "discountPercent",
							"type": "uint8",
							"internalType": "uint8"
						},
						{
							"name": "flags",
							"type": "tuple",
							"internalType": "struct JB721TierConfigFlags",
							"components": [
								{
									"name": "allowOwnerMint",
									"type": "bool",
									"internalType": "bool"
								},
								{
									"name": "useReserveBeneficiaryAsDefault",
									"type": "bool",
									"internalType": "bool"
								},
								{
									"name": "transfersPausable",
									"type": "bool",
									"internalType": "bool"
								},
								{
									"name": "useVotingUnits",
									"type": "bool",
									"internalType": "bool"
								},
								{
									"name": "cantBeRemoved",
									"type": "bool",
									"internalType": "bool"
								},
								{
									"name": "cantIncreaseDiscountPercent",
									"type": "bool",
									"internalType": "bool"
								},
								{
									"name": "cantBuyWithCredits",
									"type": "bool",
									"internalType": "bool"
								}
							]
						},
						{
							"name": "splitPercent",
							"type": "uint32",
							"internalType": "uint32"
						},
						{
							"name": "splits",
							"type": "tuple[]",
							"internalType": "struct JBSplit[]",
							"components": [
								{
									"name": "percent",
									"type": "uint32",
									"internalType": "uint32"
								},
								{
									"name": "projectId",
									"type": "uint64",
									"internalType": "uint64"
								},
								{
									"name": "beneficiary",
									"type": "address",
									"internalType": "address payable"
								},
								{
									"name": "preferAddToBalance",
									"type": "bool",
									"internalType": "bool"
								},
								{
									"name": "lockedUntil",
									"type": "uint48",
									"internalType": "uint48"
								},
								{
									"name": "hook",
									"type": "address",
									"internalType": "contract IJBSplitHook"
								}
							]
						}
					]
				},
				{
					"name": "_currency",
					"type": "uint48",
					"internalType": "uint48"
				},
				{
					"name": "_store",
					"type": "address",
					"internalType": "contract IJB721TiersHookStore"
				},
				{
					"name": "_gamePhaseReporter",
					"type": "address",
					"internalType": "contract IDefifaGamePhaseReporter"
				},
				{
					"name": "_gamePotReporter",
					"type": "address",
					"internalType": "contract IDefifaGamePotReporter"
				},
				{
					"name": "_defaultAttestationDelegate",
					"type": "address",
					"internalType": "address"
				},
				{
					"name": "_tierNames",
					"type": "string[]",
					"internalType": "string[]"
				}
			],
			"outputs": [],
			"stateMutability": "nonpayable"
		},
		{
			"type": "function",
			"name": "isApprovedForAll",
			"inputs": [
				{
					"name": "owner",
					"type": "address",
					"internalType": "address"
				},
				{
					"name": "operator",
					"type": "address",
					"internalType": "address"
				}
			],
			"outputs": [
				{
					"name": "",
					"type": "bool",
					"internalType": "bool"
				}
			],
			"stateMutability": "view"
		},
		{
			"type": "function",
			"name": "isReserveMint",
			"inputs": [
				{
					"name": "tokenId",
					"type": "uint256",
					"internalType": "uint256"
				}
			],
			"outputs": [
				{
					"name": "",
					"type": "bool",
					"internalType": "bool"
				}
			],
			"stateMutability": "view"
		},
		{
			"type": "function",
			"name": "mintReservesFor",
			"inputs": [
				{
					"name": "mintReservesForTiersData",
					"type": "tuple[]",
					"internalType": "struct JB721TiersMintReservesConfig[]",
					"components": [
						{
							"name": "tierId",
							"type": "uint32",
							"internalType": "uint32"
						},
						{
							"name": "count",
							"type": "uint16",
							"internalType": "uint16"
						}
					]
				}
			],
			"outputs": [],
			"stateMutability": "nonpayable"
		},
		{
			"type": "function",
			"name": "mintReservesFor",
			"inputs": [
				{
					"name": "tierId",
					"type": "uint256",
					"internalType": "uint256"
				},
				{
					"name": "count",
					"type": "uint256",
					"internalType": "uint256"
				}
			],
			"outputs": [],
			"stateMutability": "nonpayable"
		},
		{
			"type": "function",
			"name": "name",
			"inputs": [],
			"outputs": [
				{
					"name": "",
					"type": "string",
					"internalType": "string"
				}
			],
			"stateMutability": "view"
		},
		{
			"type": "function",
			"name": "owner",
			"inputs": [],
			"outputs": [
				{
					"name": "",
					"type": "address",
					"internalType": "address"
				}
			],
			"stateMutability": "view"
		},
		{
			"type": "function",
			"name": "ownerOf",
			"inputs": [
				{
					"name": "tokenId",
					"type": "uint256",
					"internalType": "uint256"
				}
			],
			"outputs": [
				{
					"name": "",
					"type": "address",
					"internalType": "address"
				}
			],
			"stateMutability": "view"
		},
		{
			"type": "function",
			"name": "pricingCurrency",
			"inputs": [],
			"outputs": [
				{
					"name": "",
					"type": "uint256",
					"internalType": "uint256"
				}
			],
			"stateMutability": "view"
		},
		{
			"type": "function",
			"name": "projectId",
			"inputs": [],
			"outputs": [
				{
					"name": "",
					"type": "uint256",
					"internalType": "uint256"
				}
			],
			"stateMutability": "view"
		},
		{
			"type": "function",
			"name": "refundedBurnsFrom",
			"inputs": [
				{
					"name": "",
					"type": "uint256",
					"internalType": "uint256"
				}
			],
			"outputs": [
				{
					"name": "",
					"type": "uint256",
					"internalType": "uint256"
				}
			],
			"stateMutability": "view"
		},
		{
			"type": "function",
			"name": "renounceOwnership",
			"inputs": [],
			"outputs": [],
			"stateMutability": "nonpayable"
		},
		{
			"type": "function",
			"name": "rulesets",
			"inputs": [],
			"outputs": [
				{
					"name": "",
					"type": "address",
					"internalType": "contract IJBRulesets"
				}
			],
			"stateMutability": "view"
		},
		{
			"type": "function",
			"name": "safeTransferFrom",
			"inputs": [
				{
					"name": "from",
					"type": "address",
					"internalType": "address"
				},
				{
					"name": "to",
					"type": "address",
					"internalType": "address"
				},
				{
					"name": "tokenId",
					"type": "uint256",
					"internalType": "uint256"
				}
			],
			"outputs": [],
			"stateMutability": "nonpayable"
		},
		{
			"type": "function",
			"name": "safeTransferFrom",
			"inputs": [
				{
					"name": "from",
					"type": "address",
					"internalType": "address"
				},
				{
					"name": "to",
					"type": "address",
					"internalType": "address"
				},
				{
					"name": "tokenId",
					"type": "uint256",
					"internalType": "uint256"
				},
				{
					"name": "data",
					"type": "bytes",
					"internalType": "bytes"
				}
			],
			"outputs": [],
			"stateMutability": "nonpayable"
		},
		{
			"type": "function",
			"name": "setApprovalForAll",
			"inputs": [
				{
					"name": "operator",
					"type": "address",
					"internalType": "address"
				},
				{
					"name": "approved",
					"type": "bool",
					"internalType": "bool"
				}
			],
			"outputs": [],
			"stateMutability": "nonpayable"
		},
		{
			"type": "function",
			"name": "setTierCashOutWeightsTo",
			"inputs": [
				{
					"name": "tierWeights",
					"type": "tuple[]",
					"internalType": "struct DefifaTierCashOutWeight[]",
					"components": [
						{
							"name": "id",
							"type": "uint256",
							"internalType": "uint256"
						},
						{
							"name": "cashOutWeight",
							"type": "uint256",
							"internalType": "uint256"
						}
					]
				}
			],
			"outputs": [],
			"stateMutability": "nonpayable"
		},
		{
			"type": "function",
			"name": "setTierDelegateTo",
			"inputs": [
				{
					"name": "delegatee",
					"type": "address",
					"internalType": "address"
				},
				{
					"name": "tierId",
					"type": "uint256",
					"internalType": "uint256"
				}
			],
			"outputs": [],
			"stateMutability": "nonpayable"
		},
		{
			"type": "function",
			"name": "setTierDelegatesTo",
			"inputs": [
				{
					"name": "delegations",
					"type": "tuple[]",
					"internalType": "struct DefifaDelegation[]",
					"components": [
						{
							"name": "delegatee",
							"type": "address",
							"internalType": "address"
						},
						{
							"name": "tierId",
							"type": "uint256",
							"internalType": "uint256"
						}
					]
				}
			],
			"outputs": [],
			"stateMutability": "nonpayable"
		},
		{
			"type": "function",
			"name": "store",
			"inputs": [],
			"outputs": [
				{
					"name": "",
					"type": "address",
					"internalType": "contract IJB721TiersHookStore"
				}
			],
			"stateMutability": "view"
		},
		{
			"type": "function",
			"name": "supportsInterface",
			"inputs": [
				{
					"name": "interfaceId",
					"type": "bytes4",
					"internalType": "bytes4"
				}
			],
			"outputs": [
				{
					"name": "",
					"type": "bool",
					"internalType": "bool"
				}
			],
			"stateMutability": "view"
		},
		{
			"type": "function",
			"name": "symbol",
			"inputs": [],
			"outputs": [
				{
					"name": "",
					"type": "string",
					"internalType": "string"
				}
			],
			"stateMutability": "view"
		},
		{
			"type": "function",
			"name": "tierCashOutWeights",
			"inputs": [],
			"outputs": [
				{
					"name": "",
					"type": "uint256[128]",
					"internalType": "uint256[128]"
				}
			],
			"stateMutability": "view"
		},
		{
			"type": "function",
			"name": "tierNameOf",
			"inputs": [
				{
					"name": "tierId",
					"type": "uint256",
					"internalType": "uint256"
				}
			],
			"outputs": [
				{
					"name": "",
					"type": "string",
					"internalType": "string"
				}
			],
			"stateMutability": "view"
		},
		{
			"type": "function",
			"name": "tokenURI",
			"inputs": [
				{
					"name": "tokenId",
					"type": "uint256",
					"internalType": "uint256"
				}
			],
			"outputs": [
				{
					"name": "",
					"type": "string",
					"internalType": "string"
				}
			],
			"stateMutability": "view"
		},
		{
			"type": "function",
			"name": "tokensClaimableFor",
			"inputs": [
				{
					"name": "tokenIds",
					"type": "uint256[]",
					"internalType": "uint256[]"
				}
			],
			"outputs": [
				{
					"name": "defifaTokenAmount",
					"type": "uint256",
					"internalType": "uint256"
				},
				{
					"name": "baseProtocolTokenAmount",
					"type": "uint256",
					"internalType": "uint256"
				}
			],
			"stateMutability": "view"
		},
		{
			"type": "function",
			"name": "tokensRedeemedFrom",
			"inputs": [
				{
					"name": "",
					"type": "uint256",
					"internalType": "uint256"
				}
			],
			"outputs": [
				{
					"name": "",
					"type": "uint256",
					"internalType": "uint256"
				}
			],
			"stateMutability": "view"
		},
		{
			"type": "function",
			"name": "totalCashOutWeight",
			"inputs": [],
			"outputs": [
				{
					"name": "",
					"type": "uint256",
					"internalType": "uint256"
				}
			],
			"stateMutability": "view"
		},
		{
			"type": "function",
			"name": "totalMintCost",
			"inputs": [],
			"outputs": [
				{
					"name": "",
					"type": "uint256",
					"internalType": "uint256"
				}
			],
			"stateMutability": "view"
		},
		{
			"type": "function",
			"name": "transferFrom",
			"inputs": [
				{
					"name": "from",
					"type": "address",
					"internalType": "address"
				},
				{
					"name": "to",
					"type": "address",
					"internalType": "address"
				},
				{
					"name": "tokenId",
					"type": "uint256",
					"internalType": "uint256"
				}
			],
			"outputs": [],
			"stateMutability": "nonpayable"
		},
		{
			"type": "function",
			"name": "transferOwnership",
			"inputs": [
				{
					"name": "newOwner",
					"type": "address",
					"internalType": "address"
				}
			],
			"outputs": [],
			"stateMutability": "nonpayable"
		},
		{
			"type": "event",
			"name": "Approval",
			"inputs": [
				{
					"name": "owner",
					"type": "address",
					"indexed": true,
					"internalType": "address"
				},
				{
					"name": "approved",
					"type": "address",
					"indexed": true,
					"internalType": "address"
				},
				{
					"name": "tokenId",
					"type": "uint256",
					"indexed": true,
					"internalType": "uint256"
				}
			],
			"anonymous": false
		},
		{
			"type": "event",
			"name": "ApprovalForAll",
			"inputs": [
				{
					"name": "owner",
					"type": "address",
					"indexed": true,
					"internalType": "address"
				},
				{
					"name": "operator",
					"type": "address",
					"indexed": true,
					"internalType": "address"
				},
				{
					"name": "approved",
					"type": "bool",
					"indexed": false,
					"internalType": "bool"
				}
			],
			"anonymous": false
		},
		{
			"type": "event",
			"name": "ClaimedTokens",
			"inputs": [
				{
					"name": "beneficiary",
					"type": "address",
					"indexed": true,
					"internalType": "address"
				},
				{
					"name": "defifaTokenAmount",
					"type": "uint256",
					"indexed": false,
					"internalType": "uint256"
				},
				{
					"name": "baseProtocolTokenAmount",
					"type": "uint256",
					"indexed": false,
					"internalType": "uint256"
				},
				{
					"name": "caller",
					"type": "address",
					"indexed": false,
					"internalType": "address"
				}
			],
			"anonymous": false
		},
		{
			"type": "event",
			"name": "DelegateChanged",
			"inputs": [
				{
					"name": "delegator",
					"type": "address",
					"indexed": true,
					"internalType": "address"
				},
				{
					"name": "fromDelegate",
					"type": "address",
					"indexed": true,
					"internalType": "address"
				},
				{
					"name": "toDelegate",
					"type": "address",
					"indexed": true,
					"internalType": "address"
				},
				{
					"name": "caller",
					"type": "address",
					"indexed": false,
					"internalType": "address"
				}
			],
			"anonymous": false
		},
		{
			"type": "event",
			"name": "Mint",
			"inputs": [
				{
					"name": "tokenId",
					"type": "uint256",
					"indexed": true,
					"internalType": "uint256"
				},
				{
					"name": "tierId",
					"type": "uint256",
					"indexed": true,
					"internalType": "uint256"
				},
				{
					"name": "beneficiary",
					"type": "address",
					"indexed": true,
					"internalType": "address"
				},
				{
					"name": "totalAmountContributed",
					"type": "uint256",
					"indexed": false,
					"internalType": "uint256"
				},
				{
					"name": "caller",
					"type": "address",
					"indexed": false,
					"internalType": "address"
				}
			],
			"anonymous": false
		},
		{
			"type": "event",
			"name": "MintReservedToken",
			"inputs": [
				{
					"name": "tokenId",
					"type": "uint256",
					"indexed": true,
					"internalType": "uint256"
				},
				{
					"name": "tierId",
					"type": "uint256",
					"indexed": true,
					"internalType": "uint256"
				},
				{
					"name": "beneficiary",
					"type": "address",
					"indexed": true,
					"internalType": "address"
				},
				{
					"name": "caller",
					"type": "address",
					"indexed": false,
					"internalType": "address"
				}
			],
			"anonymous": false
		},
		{
			"type": "event",
			"name": "OwnershipTransferred",
			"inputs": [
				{
					"name": "previousOwner",
					"type": "address",
					"indexed": true,
					"internalType": "address"
				},
				{
					"name": "newOwner",
					"type": "address",
					"indexed": true,
					"internalType": "address"
				}
			],
			"anonymous": false
		},
		{
			"type": "event",
			"name": "TierCashOutWeightsSet",
			"inputs": [
				{
					"name": "tierWeights",
					"type": "tuple[]",
					"indexed": false,
					"internalType": "struct DefifaTierCashOutWeight[]",
					"components": [
						{
							"name": "id",
							"type": "uint256",
							"internalType": "uint256"
						},
						{
							"name": "cashOutWeight",
							"type": "uint256",
							"internalType": "uint256"
						}
					]
				},
				{
					"name": "caller",
					"type": "address",
					"indexed": false,
					"internalType": "address"
				}
			],
			"anonymous": false
		},
		{
			"type": "event",
			"name": "TierDelegateAttestationsChanged",
			"inputs": [
				{
					"name": "delegate",
					"type": "address",
					"indexed": true,
					"internalType": "address"
				},
				{
					"name": "tierId",
					"type": "uint256",
					"indexed": true,
					"internalType": "uint256"
				},
				{
					"name": "previousBalance",
					"type": "uint256",
					"indexed": false,
					"internalType": "uint256"
				},
				{
					"name": "newBalance",
					"type": "uint256",
					"indexed": false,
					"internalType": "uint256"
				},
				{
					"name": "caller",
					"type": "address",
					"indexed": false,
					"internalType": "address"
				}
			],
			"anonymous": false
		},
		{
			"type": "event",
			"name": "Transfer",
			"inputs": [
				{
					"name": "from",
					"type": "address",
					"indexed": true,
					"internalType": "address"
				},
				{
					"name": "to",
					"type": "address",
					"indexed": true,
					"internalType": "address"
				},
				{
					"name": "tokenId",
					"type": "uint256",
					"indexed": true,
					"internalType": "uint256"
				}
			],
			"anonymous": false
		},
		{
			"type": "error",
			"name": "CheckpointUnorderedInsertion",
			"inputs": []
		},
		{
			"type": "error",
			"name": "DefifaHook_CashoutWeightsAlreadySet",
			"inputs": [
				{
					"name": "projectId",
					"type": "uint256",
					"internalType": "uint256"
				}
			]
		},
		{
			"type": "error",
			"name": "DefifaHook_DelegateAddressZero",
			"inputs": [
				{
					"name": "tierId",
					"type": "uint256",
					"internalType": "uint256"
				}
			]
		},
		{
			"type": "error",
			"name": "DefifaHook_DelegateChangesUnavailableInThisPhase",
			"inputs": [
				{
					"name": "projectId",
					"type": "uint256",
					"internalType": "uint256"
				},
				{
					"name": "phase",
					"type": "uint8",
					"internalType": "enum DefifaGamePhase"
				}
			]
		},
		{
			"type": "error",
			"name": "DefifaHook_GameIsntScoringYet",
			"inputs": [
				{
					"name": "projectId",
					"type": "uint256",
					"internalType": "uint256"
				},
				{
					"name": "phase",
					"type": "uint8",
					"internalType": "enum DefifaGamePhase"
				}
			]
		},
		{
			"type": "error",
			"name": "DefifaHook_IdenticalTokens",
			"inputs": [
				{
					"name": "defifaToken",
					"type": "address",
					"internalType": "address"
				},
				{
					"name": "baseProtocolToken",
					"type": "address",
					"internalType": "address"
				}
			]
		},
		{
			"type": "error",
			"name": "DefifaHook_NothingToClaim",
			"inputs": [
				{
					"name": "reclaimedAmount",
					"type": "uint256",
					"internalType": "uint256"
				},
				{
					"name": "beneficiaryReceivedTokens",
					"type": "bool",
					"internalType": "bool"
				}
			]
		},
		{
			"type": "error",
			"name": "DefifaHook_NothingToMint",
			"inputs": [
				{
					"name": "metadataFound",
					"type": "bool",
					"internalType": "bool"
				},
				{
					"name": "tierCount",
					"type": "uint256",
					"internalType": "uint256"
				}
			]
		},
		{
			"type": "error",
			"name": "DefifaHook_Overspending",
			"inputs": [
				{
					"name": "leftoverAmount",
					"type": "uint256",
					"internalType": "uint256"
				}
			]
		},
		{
			"type": "error",
			"name": "DefifaHook_ReservedTokenMintingBlockedInNoContest",
			"inputs": [
				{
					"name": "projectId",
					"type": "uint256",
					"internalType": "uint256"
				},
				{
					"name": "tierId",
					"type": "uint256",
					"internalType": "uint256"
				}
			]
		},
		{
			"type": "error",
			"name": "DefifaHook_ReservedTokenMintingPaused",
			"inputs": [
				{
					"name": "projectId",
					"type": "uint256",
					"internalType": "uint256"
				},
				{
					"name": "tierId",
					"type": "uint256",
					"internalType": "uint256"
				}
			]
		},
		{
			"type": "error",
			"name": "DefifaHook_TransfersPaused",
			"inputs": [
				{
					"name": "projectId",
					"type": "uint256",
					"internalType": "uint256"
				},
				{
					"name": "tokenId",
					"type": "uint256",
					"internalType": "uint256"
				},
				{
					"name": "from",
					"type": "address",
					"internalType": "address"
				},
				{
					"name": "to",
					"type": "address",
					"internalType": "address"
				}
			]
		},
		{
			"type": "error",
			"name": "DefifaHook_Unauthorized",
			"inputs": [
				{
					"name": "tokenId",
					"type": "uint256",
					"internalType": "uint256"
				},
				{
					"name": "owner",
					"type": "address",
					"internalType": "address"
				},
				{
					"name": "holder",
					"type": "address",
					"internalType": "address"
				}
			]
		},
		{
			"type": "error",
			"name": "DefifaHook_WrongCurrency",
			"inputs": [
				{
					"name": "expectedCurrency",
					"type": "uint256",
					"internalType": "uint256"
				},
				{
					"name": "actualCurrency",
					"type": "uint256",
					"internalType": "uint256"
				}
			]
		},
		{
			"type": "error",
			"name": "ERC721IncorrectOwner",
			"inputs": [
				{
					"name": "sender",
					"type": "address",
					"internalType": "address"
				},
				{
					"name": "tokenId",
					"type": "uint256",
					"internalType": "uint256"
				},
				{
					"name": "owner",
					"type": "address",
					"internalType": "address"
				}
			]
		},
		{
			"type": "error",
			"name": "ERC721InsufficientApproval",
			"inputs": [
				{
					"name": "operator",
					"type": "address",
					"internalType": "address"
				},
				{
					"name": "tokenId",
					"type": "uint256",
					"internalType": "uint256"
				}
			]
		},
		{
			"type": "error",
			"name": "ERC721InvalidApprover",
			"inputs": [
				{
					"name": "approver",
					"type": "address",
					"internalType": "address"
				}
			]
		},
		{
			"type": "error",
			"name": "ERC721InvalidOperator",
			"inputs": [
				{
					"name": "operator",
					"type": "address",
					"internalType": "address"
				}
			]
		},
		{
			"type": "error",
			"name": "ERC721InvalidOwner",
			"inputs": [
				{
					"name": "owner",
					"type": "address",
					"internalType": "address"
				}
			]
		},
		{
			"type": "error",
			"name": "ERC721InvalidReceiver",
			"inputs": [
				{
					"name": "receiver",
					"type": "address",
					"internalType": "address"
				}
			]
		},
		{
			"type": "error",
			"name": "ERC721InvalidSender",
			"inputs": [
				{
					"name": "sender",
					"type": "address",
					"internalType": "address"
				}
			]
		},
		{
			"type": "error",
			"name": "ERC721NonexistentToken",
			"inputs": [
				{
					"name": "tokenId",
					"type": "uint256",
					"internalType": "uint256"
				}
			]
		},
		{
			"type": "error",
			"name": "JB721Hook_InvalidCashOut",
			"inputs": [
				{
					"name": "caller",
					"type": "address",
					"internalType": "address"
				},
				{
					"name": "contextProjectId",
					"type": "uint256",
					"internalType": "uint256"
				},
				{
					"name": "projectId",
					"type": "uint256",
					"internalType": "uint256"
				},
				{
					"name": "msgValue",
					"type": "uint256",
					"internalType": "uint256"
				}
			]
		},
		{
			"type": "error",
			"name": "JB721Hook_InvalidPay",
			"inputs": [
				{
					"name": "caller",
					"type": "address",
					"internalType": "address"
				},
				{
					"name": "contextProjectId",
					"type": "uint256",
					"internalType": "uint256"
				},
				{
					"name": "projectId",
					"type": "uint256",
					"internalType": "uint256"
				}
			]
		},
		{
			"type": "error",
			"name": "JB721Hook_InvalidPayValue",
			"inputs": [
				{
					"name": "token",
					"type": "address",
					"internalType": "address"
				},
				{
					"name": "msgValue",
					"type": "uint256",
					"internalType": "uint256"
				},
				{
					"name": "forwardedValue",
					"type": "uint256",
					"internalType": "uint256"
				}
			]
		},
		{
			"type": "error",
			"name": "JB721Hook_UnauthorizedToken",
			"inputs": [
				{
					"name": "tokenId",
					"type": "uint256",
					"internalType": "uint256"
				},
				{
					"name": "holder",
					"type": "address",
					"internalType": "address"
				}
			]
		},
		{
			"type": "error",
			"name": "JB721Hook_UnexpectedTokenCashedOut",
			"inputs": [
				{
					"name": "cashOutCount",
					"type": "uint256",
					"internalType": "uint256"
				}
			]
		},
		{
			"type": "error",
			"name": "OwnableInvalidOwner",
			"inputs": [
				{
					"name": "owner",
					"type": "address",
					"internalType": "address"
				}
			]
		},
		{
			"type": "error",
			"name": "OwnableUnauthorizedAccount",
			"inputs": [
				{
					"name": "account",
					"type": "address",
					"internalType": "address"
				}
			]
		}
	],
	"args": [
		"0x5AfF29060E023e6FB87BE5596652B33c65Af535B",
		"0x13925909B15aC8E4b2768b5180cc766826556869",
		"0x6b50843C88290c180DF24c445E37B296d9760FA8"
	],
	"solcInputHash": "76821dab3d1fe04714a23893e2ee7d30",
	"bytecode": "0x6101203461018057601f61608b38819003918201601f19168301916001600160401b0383118484101761018457808492606094604052833981010312610180578051906001600160a01b03821682036101805761006a604061006360208401610198565b9201610198565b916080523060a052331561016d5760078054336001600160a01b0319821681179092556001600160a01b03167f8be0079c531659141344cd1fd0a4f28419497f9722a3daafe3b4186f6b6457e05f80a36001600160a01b03828116908216818114610158575050306101005260c05260e052604051615ede90816101ad82396080518181816115380152614924015260a051818181611af901526122de015260c0518181816114f401528181613c1601526156cb015260e051818181610fe701528181613c6a01526156f3015261010051818181610a68015281816113e60152818161296301526143c80152f35b63357c548360e01b5f5260045260245260445ffd5b631e4fbdf760e01b5f525f60045260245ffd5b5f80fd5b634e487b7160e01b5f52604160045260245ffd5b51906001600160a01b03821682036101805756fe60806040526004361015610011575f80fd5b5f3560e01c806301ffc9a7146103ef57806306fdde03146103ea57806307405b24146103e557806307ba5461146103e0578063081812fc146103db578063095ea7b3146103d65780630fa617c0146103d15780631337f986146103cc5780631baabc3e146103c757806323b872dd146103c257806327f6e979146103bd57806329eabfe7146103b857806332457dec146103b35780633da16c87146103ae5780633fafa127146103a957806342842e0e146103a45780634b03fde31461039f57806354c6d1f51461039a57806359196c7d1461039557806361d4c25a146103905780636352211e1461038b57806364640c1e146103865780636c0360eb1461038157806370a082311461037c578063715018a6146103775780637245d80c14610372578063743682b51461036d5780637bf94ac5146103685780637f98988714610363578063859252e21461035e578063873e7e4b146102f55780638801ef9a1461035957806388bc2ef3146103545780638cc358461461034f5780638da5cb5b1461034a57806395d89b4114610345578063975057e71461034057806399f6d77f1461033b5780639c8c6cd514610336578063a0b6490c14610331578063a22cb4651461032c578063aa4fb15b14610327578063b88d4fde14610322578063c22903b21461031d578063c3c69a9614610318578063c87b56dd14610313578063c90f51261461030e578063c9149c5f14610309578063caa00cf914610304578063cb7043f7146102ff578063d3fef143146102fa578063d4ab100f146102f5578063e0ffb358146102f0578063e4f650b8146102eb578063e8a3d485146102e6578063e985e9c5146102e1578063edab09b9146102dc578063f0ce767c146102d7578063f2fde38b146102d2578063f672acac146102cd578063f7623b81146102c85763f88422e5146102c3575f80fd5b612c41565b612c11565b61291f565b612828565b612709565b6122c9565b612265565b6121c0565b612135565b61210f565b6114bd565b6120ed565b6120c5565b611fdc565b611fb4565b611f03565b611dfe565b611dac565b611ad0565b611a69565b6119f9565b611942565b611905565b6118b7565b61180d565b61177f565b6116da565b6116b2565b6115fb565b611523565b6114df565b61143d565b611415565b6113d1565b6113a7565b61137f565b611324565b6112cf565b61122a565b6111d5565b6111b7565b61116e565b6110b6565b611086565b61105c565b611033565b611016565b610fd2565b610fa3565b610ee7565b610eca565b610eb3565b610dc7565b610a1f565b610948565b61074f565b610713565b6106e7565b610650565b610543565b61040a565b6001600160e01b031981160361040657565b5f80fd5b346104065760203660031901126104065761045860043561042a816103f4565b63ffffffff60e01b16630106f5ff60e11b811490811561045c575b5060405190151581529081906020820190565b0390f35b635ab8866d60e01b8114915081156104f0575b81156104df575b81156104ce575b811561048b575b505f610445565b6380ac58cd60e01b8114915081156104bd575b81156104ac575b505f610484565b6301ffc9a760e01b1490505f6104a5565b635b5e139f60e01b8114915061049e565b63611481d960e11b8114915061047d565b63099bfcc360e11b81149150610476565b63e347239560e01b8114915061046f565b5f91031261040657565b805180835260209291819084018484015e5f828201840152601f01601f1916010190565b90602061054092818152019061050b565b90565b34610406575f366003190112610406576040515f5f54610562816111f2565b80845290600181169081156105f25750600114610596575b6104588361058a818503826108c2565b6040519182918261052f565b5f8080527f290decd9548b62a8d60345a988386fc84ba6bc95484008f6362f93160ef3e563939250905b8082106105d85750909150810160200161058a61057a565b9192600181602092548385880101520191019092916105c0565b60ff191660208086019190915291151560051b8401909101915061058a905061057a565b6001600160a01b0381160361040657565b610144359061063582610616565b565b610184359061063582610616565b359061063582610616565b346104065760403660031901126104065760043561066d81610616565b6024356001600160a01b038216156106d5576006549161068c83614753565b60068110156106c157600181036106aa576106a88383336147aa565b005b63529d22e960e11b5f526106be9084612c70565b5ffd5b634e487b7160e01b5f52602160045260245ffd5b632a45558360e21b5f5260045260245ffd5b34610406575f366003190112610406576020608d54604051908152f35b90816020910312610406573590565b346104065760203660031901126104065760043561073081614891565b505f526004602052602060018060a01b0360405f205416604051908152f35b346104065760403660031901126104065760043561076c81610616565b6024359061077982614891565b33151580610845575b80610807575b6107f4576106a8926107d59181906001600160a01b0385811691167f8c5be1e5ebec7d5bd14f71427d1e84f3dd0314c0f7b2291e5b200ac8c7c3b9255f80a45f52600460205260405f2090565b80546001600160a01b0319166001600160a01b03909216919091179055565b63a9fbf51f60e01b5f523360045260245ffd5b5060ff61083d336108288460018060a01b03165f52600560205260405f2090565b9060018060a01b03165f5260205260405f2090565b541615610788565b506001600160a01b038116331415610782565b634e487b7160e01b5f52604160045260245ffd5b604081019081106001600160401b0382111761088757604052565b610858565b60e081019081106001600160401b0382111761088757604052565b60c081019081106001600160401b0382111761088757604052565b90601f801991011681019081106001600160401b0382111761088757604052565b604051906106356080836108c2565b60405190610635610120836108c2565b60405190610635610160836108c2565b604051906106356101a0836108c2565b604051906106356040836108c2565b6001600160401b0381116108875760051b60200190565b34610406576020366003190112610406576004356001600160401b03811161040657366023820112156104065780600401359061098482610931565b9061099260405192836108c2565b8282526024602083019360061b8201019036821161040657602401925b8184106109bf576106a883612c83565b60408436031261040657602060409182516109d98161086c565b8635815282870135838201528152019301926109af565b6020600319820112610406576004356001600160401b0381116104065761020090600401809203126104065790565b610a28366109f0565b6006543415801590610db7575b8015610da9575b610d8b575063ffffffff60a08201610a5381614988565b6096549283911603610d605782610adc610abe7f0000000000000000000000000000000000000000000000000000000000000000610a8f614992565b805160209091012060609190911b6bffffffffffffffffffffffff199081169116186001600160e01b03191690565b610ad6610acf6101e08501856139ef565b3691611a33565b906152a1565b81929115610d465780602080610af7935183010191016149b3565b91906001600160a01b03168015610d1d575b82518015610d05575060995460405163e205b23760e01b81529291905f9084908190610b449030906001600160a01b03168960048501614a97565b038173a095f42fb3ba805a7ac899988fc6d77afed09df55af4928315610d00575f915f915f95610cd9575b506101a0840194925f5b848110610bb157610b9860c087013589610b928a613a21565b91615ab4565b80610b9f57005b637bf1983360e11b5f5260045260245ffd5b8086610bd5610c08610bfb8b610bee610bcc6001988a6132dc565b51948592613a21565b6001600160a01b03165f90815260886020526040902090565b905f5260205260405f2090565b546001600160a01b031690565b848060a01b0387168015918c83158094610cc9575b610c2e575b50505050505001610b79565b610c52610c46610c40610c8b98613a21565b92613a21565b6001600160a01b031690565b90888060a01b0316149283610cc1575b5082610cae575b5050610c96575b610c798a613a21565b90610c8484896132dc565b5191614ef5565b868a8080808c610c22565b610ca98187610ca48d613a21565b6147aa565b610c70565b909150858060a01b031614158c80610c69565b92508e610c62565b50878060a01b0382161515610c1d565b91509350610cf991503d805f833e610cf181836108c2565b810190614a47565b9386610b6f565b612e72565b631fddfdef60e31b5f5284151560045260245260445ffd5b506092546001600160a01b03168015155f03610b095750610d416101a08201613a21565b610b09565b631fddfdef60e31b5f90815283151560045260245260445ffd5b90610d6d6106be92614988565b633511b56b60e11b5f5260049190915263ffffffff16602452604490565b60208201356335f5573160e21b5f523360045260245260445260645ffd5b508060208301351415610a3c565b50610dc181614901565b15610a35565b34610406576020366003190112610406576004355f52608c60205260405f20604051905f90805490610df8826111f2565b8085529160018116908115610e605750600114610e20575b6104588461058a818603826108c2565b5f90815260208120939250905b808210610e465750909150810160200161058a82610e10565b919260018160209254838588010152019101909291610e2d565b60ff191660208087019190915292151560051b8501909201925061058a9150839050610e10565b606090600319011261040657600435610e9f81610616565b90602435610eac81610616565b9060443590565b34610406576106a8610ec436610e87565b91612f5c565b34610406575f366003190112610406576020608e54604051908152f35b34610406576020366003190112610406576004356099546040516338cf310960e21b815260048101929092526001600160a01b0316602482015230604482015260086064820152609a608482015260208160a48173a095f42fb3ba805a7ac899988fc6d77afed09df55af48015610d0057610458915f91610f74575b506040519081529081906020820190565b610f96915060203d602011610f9c575b610f8e81836108c2565b8101906131b1565b5f610f63565b503d610f84565b34610406576020366003190112610406576004355f526095602052602060ff60405f2054166040519015158152f35b34610406575f366003190112610406576040517f00000000000000000000000000000000000000000000000000000000000000006001600160a01b03168152602090f35b34610406575f366003190112610406576020600654604051908152f35b34610406576106a861104436610e87565b90604051926110546020856108c2565b5f84526138cf565b34610406576020366003190112610406576004355f526097602052602060405f2054604051908152f35b346104065760203660031901126104065760206110a46004356131d4565b6040516001600160a01b039091168152f35b34610406576020366003190112610406576004356001600160401b03811161040657366023820112156104065780600401356001600160401b038111610406573660248260061b840101116104065760246106a89201613224565b65ffffffffffff81160361040657565b6024359061063582611111565b6044359061063582611111565b6064359061063582611111565b6084359061063582611111565b610104359061063582611111565b359061063582611111565b3461040657604036600319011261040657602060243560043561119082611111565b5f908152608a8352604090206001600160d01b03916111ae91614af1565b16604051908152f35b346104065760203660031901126104065760206110a4600435614891565b34610406575f366003190112610406576020609654604051908152f35b90600182811c92168015611220575b602083101461120c57565b634e487b7160e01b5f52602260045260245ffd5b91607f1691611201565b34610406575f366003190112610406576040515f608f5461124a816111f2565b80845290600181169081156105f25750600114611271576104588361058a818503826108c2565b608f5f9081527f337f7913db22d91ef425f82102bc8075ef67e23a2be359965ea316e78e1eff3f939250905b8082106112b55750909150810160200161058a61057a565b91926001816020925483858801015201910190929161129d565b34610406576020366003190112610406576004356112ec81610616565b6001600160a01b03168015611311575f526003602052602060405f2054604051908152f35b6322718ad960e21b5f525f60045260245ffd5b34610406575f3660031901126104065761133c6148c5565b600780546001600160a01b031981169091555f906001600160a01b03167f8be0079c531659141344cd1fd0a4f28419497f9722a3daafe3b4186f6b6457e08280a3005b34610406575f366003190112610406576094546040516001600160a01b039091168152602090f35b34610406576020366003190112610406576004355f52609a602052602060405f2054604051908152f35b34610406575f366003190112610406576040517f00000000000000000000000000000000000000000000000000000000000000006001600160a01b03168152602090f35b34610406575f366003190112610406576092546040516001600160a01b039091168152602090f35b3461040657602036600319011261040657600435609954604051630d34ce9560e01b81526001600160a01b039091166004820152306024820152604481019190915260208160648173a095f42fb3ba805a7ac899988fc6d77afed09df55af48015610d0057610458915f91610f7457506040519081529081906020820190565b34610406575f366003190112610406576020604051670de0b6b3a76400008152f35b34610406575f366003190112610406576040517f00000000000000000000000000000000000000000000000000000000000000006001600160a01b03168152602090f35b34610406575f366003190112610406576040517f00000000000000000000000000000000000000000000000000000000000000006001600160a01b03168152602090f35b90604082019082526040602083015282518091526060820191602060608360051b8301019401925f915b8383106115a057505050505090565b90919293946020806115ec600193605f19868203018752608060608b51878060a01b0381511684528581015115158685015260408101516040850152015191816060820152019061050b565b97019301930191939290611591565b34610406576020366003190112610406576004356001600160401b03811161040657610180600319823603011261040657610124013560409081519161164181846108c2565b60018352601f1981015f5b81811061169b575050610458906116616131c0565b6116696108e3565b308152905f60208301525f838301526060820152611686856132ca565b52611690846132ca565b505192839283611567565b6020906116a6613296565b8282880101520161164c565b34610406575f366003190112610406576007546040516001600160a01b039091168152602090f35b34610406575f366003190112610406576040515f6001546116fa816111f2565b80845290600181169081156105f25750600114611721576104588361058a818503826108c2565b60015f9081527fb10e2d527612073b26eecdfd717e6a320cf44b4afac2b0732d9fcbe2b7fa0cf6939250905b8082106117655750909150810160200161058a61057a565b91926001816020925483858801015201910190929161174d565b34610406575f366003190112610406576099546040516001600160a01b039091168152602090f35b63ffffffff81160361040657565b60a43590610635826117a7565b60e43590610635826117a7565b3590610635826117a7565b6dffffffffffffffffffffffffffff81160361040657565b60c43590610635826117da565b610104359061063582610616565b346104065761016036600319011261040657610120366023190112610406576118346108f2565b61183c611121565b815261184661112e565b602082015261185361113b565b6040820152611860611148565b606082015261186d6117b5565b608082015261187a6117f2565b60a08201526118876117c2565b60c08201526118946117ff565b60e0820152610100610124359101526118ab610627565b506040515f8152602090f35b34610406576040366003190112610406576004356118d481610616565b6001600160a01b039081165f9081526088602090815260408083206024358452825291829020549151919092168152f35b34610406575f366003190112610406576093546040516001600160a01b039091168152602090f35b8015150361040657565b35906106358261192d565b346104065760403660031901126104065760043561195f81610616565b60243561196b8161192d565b6001600160a01b0382169182156119e657816119a56119b692335f52600560205260405f209060018060a01b03165f5260205260405f2090565b9060ff801983541691151516179055565b60405190151581527f17307eab39ab6107e8899845ad3d59bd9653f200f220920489ca2b5937696c3160203392a3005b82630b61174360e31b5f5260045260245ffd5b34610406576040366003190112610406576106a86024356004356135e8565b6001600160401b03811161088757601f01601f191660200190565b929192611a3f82611a18565b91611a4d60405193846108c2565b829481845281830111610406578281602093845f960137010152565b3461040657608036600319011261040657600435611a8681610616565b60243590611a9382610616565b604435606435926001600160401b038411610406573660238501121561040657611aca6106a8943690602481600401359101611a33565b926138cf565b611ad9366109f0565b6006543415801590611d96575b8015611d88575b611d5857611b31611b207f0000000000000000000000000000000000000000000000000000000000000000610a8f6139ca565b610ad6610acf6101e08601866139ef565b90156104065780602080611b4a9351830101910161336d565b6004611b57825193614753565b611b6081612c59565b609954911491906001600160a01b03165f5b848110611c40578584611b84856155c3565b611b9d611b956101c08401846139ef565b810190610704565b915f91611be8575b60e00135801580611be0575b611bc9576106a8611bc484608d54613a39565b608d55565b635aeba72560e01b5f52600452151560245260445ffd5b508115611bb1565b9050611c02611bfd60e0830135608e546135db565b608e55565b60e0611c38611c146101a08401613a21565b84611c29608d54611c23615648565b906135db565b916001600160a01b031661569c565b919050611ba5565b611c4a81846132dc565b51611c60610bfb825f52600260205260405f2090565b611c6c610c4689613a21565b6001600160a01b03821603611d23575090602082611c8c611cab946153ff565b604051809481926342f9914b60e01b8352600483019190602083019252565b0381865afa8015610d00576001925f91611d05575b508515611ce757611cd9905f52609a60205260405f2090565b805460010190555b01611b72565b611cf9905f52609760205260405f2090565b80546001019055611ce1565b611d1d915060203d8111610f9c57610f8e81836108c2565b5f611cc0565b6106be9250611d3188613a21565b63179de99b60e31b5f526004929092526001600160a01b0390811660245216604452606490565b604051630734d96960e01b8152336004820152602083013560248201526044810191909152346064820152608490fd5b508060208301351415611aed565b50611da7611da382614901565b1590565b611ae6565b3461040657604036600319011261040657600435611dc981610616565b6001600160a01b03165f908152608960209081526040808320602435845282529091206001600160d01b03906111ae90615748565b3461040657602036600319011261040657600435609954611e27906001600160a01b0316610c46565b604051630fab094760e01b815230600482015290602090829060249082905afa918215610d0057611e87925f928391611ed4575b50604051635e703e7160e01b815230600482015260248101929092529092839190829081906044820190565b03916001600160a01b03165afa8015610d0057610458915f91611eb2575b506040519182918261052f565b611ece91503d805f833e611ec681836108c2565b810190613a46565b5f611ea5565b611ef6915060203d602011611efc575b611eee81836108c2565b8101906132fb565b5f611e5b565b503d611ee4565b34610406576020366003190112610406576004356001600160401b038111610406573660238201121561040657806004013590611f3f82610931565b90611f4d60405192836108c2565b8282526024602083019360061b8201019036821161040657602401925b818410611f7a576106a883613a83565b6040843603126104065760206040918251611f948161086c565b8635611f9f81610616565b81528287013583820152815201930192611f6a565b34610406575f366003190112610406576098546040516001600160a01b039091168152602090f35b3461040657606036600319011261040657600435611ff981610616565b6024356044359161200983611111565b6001600160a01b03165f908152608960209081526040808320938352929052206001600160d01b039161203b91614af1565b60405191168152602090f35b602060031982011261040657600435906001600160401b038211610406578060238301121561040657816004013561207e81610931565b9261208c60405194856108c2565b8184526024602085019260051b82010192831161040657602401905b8282106120b55750505090565b81358152602091820191016120a8565b34610406576120db6120d636612047565b613bb9565b60408051928352602083019190915290f35b34610406575f36600319011261040657602060ff609054166040519015158152f35b3461040657602036600319011261040657602061212d600435613d63565b604051908152f35b34610406575f366003190112610406576110008060405161215682826108c2565b36903760405160085f825b608082106121aa57838561217581836108c2565b6040519182918201905f835b60808210612190575050500390f35b825181528594506020928301926001929092019101612181565b6001602081928554815201930191019091612161565b34610406575f366003190112610406576040515f6091546121e0816111f2565b80845290600181169081156105f25750600114612207576104588361058a818503826108c2565b60915f9081527fcdae184edd6bf71c1fb62d6e6682fdb2032455c0e50143742135fbbe809bd793939250905b80821061224b5750909150810160200161058a61057a565b919260018160209254838588010152019101909291612233565b3461040657604036600319011261040657602060ff6122bd60043561228981610616565b6024359061229682610616565b60018060a01b03165f526005845260405f209060018060a01b03165f5260205260405f2090565b54166040519015158152f35b34610406575f366003190112610406576040517f00000000000000000000000000000000000000000000000000000000000000006001600160a01b03168152602090f35b9080601f830112156104065781602061054093359101611a33565b6064359061063582610616565b60a4359061063582610616565b6001600160681b0381160361040657565b359061063582612342565b61ffff81160361040657565b35906106358261235e565b62ffffff81160361040657565b359061063582612375565b60ff81160361040657565b35906106358261238d565b91908260e0910312610406576040516123bb8161088c565b60c061242d81839580356123ce8161192d565b855260208101356123de8161192d565b60208601526123ef60408201611937565b604086015261240060608201611937565b606086015261241160808201611937565b608086015261242260a08201611937565b60a086015201611937565b910152565b81601f820112156104065780359061244982610931565b9261245760405194856108c2565b828452602060c081860194028301019181831161040657602001925b828410612481575050505090565b60c0848303126104065760405190612498826108a7565b84356124a3816117a7565b82526020850135906001600160401b038216820361040657826020928360c09501526124d160408801610645565b60408201526124e260608801611937565b60608201526124f360808801611163565b608082015261250460a08801610645565b60a0820152815201930192612473565b9080601f830112156104065781359161252c83610931565b9261253a60405194856108c2565b80845260208085019160051b830101918383116104065760208101915b83831061256657505050505090565b82356001600160401b03811161040657820190610220828703601f19011261040657612590610902565b9061259d60208401612353565b82526125ab604084016117cf565b60208301526125bc606084016117cf565b60408301526125cd6080840161236a565b60608301526125de60a08401610645565b608083015260c083013560a08301526125f960e08401612382565b60c083015261260b6101008401612398565b60e083015261261e8761012085016123a3565b61010083015261263161020084016117cf565b610120830152610220830135916001600160401b0383116104065761265e88602080969581960101612432565b610140820152815201920191612557565b610124359061063582610616565b610164359061063582610616565b9080601f830112156104065781356126a281610931565b926126b060405194856108c2565b81845260208085019260051b820101918383116104065760208201905b8382106126dc57505050505090565b81356001600160401b038111610406576020916126fe8784809488010161230d565b8152019101906126cd565b34610406576101c0366003190112610406576004356024356001600160401b0381116104065761273d90369060040161230d565b906044356001600160401b0381116104065761275d90369060040161230d565b91612766612328565b926084356001600160401b0381116104065761278690369060040161230d565b9361278f612335565b9460c4356001600160401b038111610406576127af90369060040161230d565b9560e435966001600160401b038811610406576127d86001600160401b03983690600401612514565b906127e1611155565b926127ea61266f565b946127f3610627565b966127fc61267d565b98612805610637565b9a6101a4359d8e11610406576128226106a89e369060040161268b565b9c6143b6565b346104065760203660031901126104065760043561284581610616565b61284d6148c5565b6001600160a01b03811615612865576106a890614b6c565b631e4fbdf760e01b5f525f60045260245ffd5b939192909260a0850193855260208501526040840152606083015260a06080830152825180915260c0820191602060c08360051b8301019401925f915b8383106128c457505050505090565b909192939460208061291060019360bf19868203018752608060608b51878060a01b0381511684528581015115158685015260408101516040850152015191816060820152019061050b565b970193019301919392906128b5565b34610406576020366003190112610406576004356001600160401b038111610406576101c0600319823603011261040657608481013580612bff575061299e61298a7f0000000000000000000000000000000000000000000000000000000000000000610a8f6139ca565b610ad6610acf6101a48501856004016139ef565b60609291612bdf575b506093546129eb91906020906129c5906001600160a01b0316610c46565b60405163038ab08560e11b81526044840135600482015293849190829081906024820190565b03915afa908115610d0057612a61925f92612bae575b506099546001600160a01b031691602073a095f42fb3ba805a7ac899988fc6d77afed09df593612a3083612c59565b60018314908115612b99575b8115612b84575b6040516301b2ddbf60e21b8152968792839230908b60048601614637565b0381865af4938415610d00575f94612b62575b50602090612a8061466d565b93604051612aa781612a99898783019190602083019252565b03601f1981018352826108c2565b612aaf6108e3565b308152905f858301525f60408301526060820152612acc866132ca565b52612ad6856132ca565b50610124840135958692612b0c612aef608e549a6146d8565b60405163296d2fbb60e21b81529a8b9687958695600487016146ad565b03915af4938415610d00575f94612b37575b5090610164610458920135928060405195869586612878565b61045892919450612b596101649160203d602011610f9c57610f8e81836108c2565b94919250612b1e565b6020919450612b7d90823d8411610f9c57610f8e81836108c2565b9390612a74565b9050612b8f83612c59565b6005831490612a43565b9050612ba483612c59565b6002831490612a3c565b612bd191925060203d602011612bd8575b612bc981836108c2565b81019061461f565b905f612a01565b503d612bbf565b6129eb91925080602080612bf89351830101910161336d565b91906129a7565b6304029f2360e51b5f5260045260245ffd5b34610406576020366003190112610406576004355f52608a602052602060018060d01b036111ae60405f20615748565b3461040657602061212d612c5436612047565b6146d8565b600611156106c157565b9060068210156106c15752565b9190602461063591604494600452612c63565b612c8b6148c5565b600654612c9781614753565b612ca081612c59565b60038103612da3575060905460ff16612d915750609954604051637b0705af60e11b815291906110009083908190612ce79030906001600160a01b03168660048501612e08565b038173a095f42fb3ba805a7ac899988fc6d77afed09df55af4908115610d0057612d3d612d5d927f9a6cf4ff8f1a3ee73be4815b44949c83dbc2e76a386eaf652b2a454bac9d2412945f91612d62575b50612ed5565b612d4f600160ff196090541617609055565b604051918291339083612ef8565b0390a1565b612d8491506110003d8111612d8a575b612d7c81836108c2565b810190612db6565b5f612d37565b503d612d72565b63498c002560e01b5f5260045260245ffd5b63fe3f454560e01b5f526106be91612c70565b90611000828203126104065780601f830112156104065761100060405192612dde82856108c2565b8391810192831161040657905b828210612df85750505090565b8151815260209182019101612deb565b91939290606083016060845281518091526020608085019201905f5b818110612e48575050506001600160a01b0394851660208401529316604090910152565b9091926020604082612e67600194885160208091805184520151910152565b019401929101612e24565b6040513d5f823e3d90fd5b634e487b7160e01b5f52601160045260245ffd5b908160051b9180830460201490151715612ea757565b612e7d565b81810292918115918404141715612ea757565b818110612eca575050565b5f8155600101612ebf565b5f5b60808110612ee3575050565b60019060208351930192816008015501612ed7565b9092919260408201906040835280518092526020606084019101915f5b818110612f30575050602091509360018060a01b0316910152565b90916020604082612f4e600194885160208091805184520151910152565b019401910192919092612f15565b9091906001600160a01b0383161561319e57609954612f83906001600160a01b0316610c46565b60405163c44a8e6d60e01b8152306004820152602481018490525f604482018190529094919085606481845afa948515610d00575f9561317a575b50612fca338584615bc7565b6001600160a01b03811695909290861515806130d1575b90612ff591613090575b5163ffffffff1690565b90823b15610406576040516330b157e560e21b815263ffffffff9290921660048301526001600160a01b038481166024840152166044820152905f908290606490829084905af18015610d0057613076575b50506001600160a01b031680830361305e57505050565b6364283d7b60e01b5f5260045260245260445260645ffd5b806130845f61308a936108c2565b80610501565b5f613047565b6130cc6130a1825163ffffffff1690565b63ffffffff6001600160681b036130c260808601516001600160681b031690565b169116858861506d565b612feb565b61014082015160200151613126575b90612ff5916130fd610c46610bfb8a5f52608b60205260405f2090565b1561310b575b909150612fe1565b613121866107d58a5f52608b60205260405f2090565b613103565b61313a613131614bca565b60018091161490565b156130e057600654604051633007fc0360e01b81526004810191909152602481018890526001600160a01b03868116604483015284166064820152608490fd5b6131979195503d805f833e61318f81836108c2565b810190613492565b935f612fbe565b633250574960e11b5f525f60045260245ffd5b90816020910312610406575190565b604051906131cf6020836108c2565b5f8252565b5f818152608b60205260409020546001600160a01b03168061320b57505f908152600260205260409020546001600160a01b031690565b905090565b634e487b7160e01b5f52603260045260245ffd5b90915f5b83811015613290578060061b8301906040823603126104065761328a602063ffffffff61ffff808260019760405161325f8161086c565b8682359261326c846117a7565b838352013596879161327d8361235e565b01521693161691166135e8565b01613228565b50915050565b60405190608082018281106001600160401b0382111761088757604052606080835f81525f60208201525f60408201520152565b8051156132d75760200190565b613210565b80518210156132d75760209160051b010190565b519061063582610616565b90816020910312610406575161054081610616565b9080601f8301121561040657815161332781610931565b9261333560405194856108c2565b81845260208085019260051b82010192831161040657602001905b82821061335d5750505090565b8151815260209182019101613350565b906020828203126104065781516001600160401b038111610406576105409201613310565b5190610635826117a7565b519061063582612342565b51906106358261235e565b519061063582612375565b51906106358261238d565b91908260a09103126104065760405160a081018181106001600160401b0382111761088757604052608080829480516134018161192d565b845260208101516134118161192d565b602085015260408101516134248161192d565b604085015260608101516134378161192d565b60608501520151916134488361192d565b0152565b81601f820112156104065780519061346382611a18565b9261347160405194856108c2565b8284526020838301011161040657815f9260208093018386015e8301015290565b602081830312610406578051906001600160401b038211610406570161022081830312610406576134c1610912565b916134cb82613392565b83526134d96020830161339d565b60208401526134ea60408301613392565b60408401526134fb60608301613392565b606084015261350c6080830161339d565b608084015261351d60a083016133a8565b60a084015261352e60c083016132f0565b60c084015260e082015160e084015261354a61010083016133b3565b61010084015261355d61012083016133be565b6101208401526135718161014084016133c9565b6101408401526135846101e08301613392565b6101608401526102008201516001600160401b038111610406576135a8920161344c565b61018082015290565b9060018201809211612ea757565b9060048201809211612ea757565b9060098201809211612ea757565b91908201809211612ea757565b9190916136016135f6614bca565b60018091811c161490565b6138b757600654600561361382614753565b61361c81612c59565b146138a25750609954613637906001600160a01b0316610c46565b60405162d5cc0160e21b8152306004820152602481018390529190602083604481845afa928315610d00575f93613881575b506001600160a01b038381165f90815260886020526040902061369190610bfb908590610bee565b1615613853575b6136a182613d63565b80861161384b575b50604051635d53f40760e11b81526004810183905260248101869052945f8660448183865af1958615610d00575f96613827575b506040516364faa15960e01b8152306004820152602481018490525f604482018190529092839060649082905afa918215610d00575f9261380b575b50613754611bc461374c8361374761373b60208801516001600160681b031690565b6001600160681b031690565b612eac565b608d546135db565b5f5b81811061379257505061063593946001600160681b03613783608061378c9401516001600160681b031690565b91519116612eac565b91614ef5565b8061379f600192896132dc565b516137c26137b5825f52609560205260405f2090565b805460ff19166001179055565b6137cc8188614ce8565b60405133815260a084901b84900388169187917f031e1988c95a91ec4d655ff63a8f87a80bc9daf28d95ae10ee08c0022cfb5c8b90602090a401613756565b6138209192503d805f833e61318f81836108c2565b905f613719565b6138449196503d805f833e61383c81836108c2565b81019061336d565b945f6136dd565b94505f6136a9565b6092546001600160a01b031682811561387657613871915b856147aa565b613698565b61387191508461386b565b61389b91935060203d602011611efc57611eee81836108c2565b915f613669565b63690488f560e01b5f5260045260245260445ffd5b600654633c4d68b360e21b5f5260045260245260445ffd5b9092916138dd818584612f5c565b833b6138ea575b50505050565b60209161390c6040519485938493630a85bd0160e11b85523360048601615230565b03815f6001600160a01b0387165af15f9181613999575b5061395d5750613931615261565b805191908261395657633250574960e11b5f526001600160a01b03821660045260245ffd5b9050602001fd5b6001600160e01b03191663757a42ff60e11b0161397e57505f8080806138e4565b633250574960e11b5f526001600160a01b031660045260245ffd5b6139bc91925060203d6020116139c3575b6139b481836108c2565b81019061521b565b905f613923565b503d6139aa565b604051906139d96040836108c2565b600782526618d85cda13dd5d60ca1b6020830152565b903590601e198136030182121561040657018035906001600160401b0382116104065760200191813603831361040657565b3561054081610616565b5f19810191908211612ea757565b91908203918211612ea757565b906020828203126104065781516001600160401b03811161040657610540920161344c565b60405190613a788261086c565b5f6020838281520152565b600654613a8f81614753565b90613a9982612c59565b60018203613b1d575050805190613aae613a6b565b505f5b828110613abd57505050565b613ac781836132dc565b518051613adc906001600160a01b0316610c46565b15613b0757805160019291613b01916020906001600160a01b031691015190336147aa565b01613ab1565b60200151632a45558360e21b5f5260045260245ffd5b63529d22e960e11b5f526106be9250612c70565b9190826040910312610406576020825192015190565b90602080835192838152019201905f5b818110613b645750505090565b8251845260209384019390920191600101613b57565b92613b9560a09592989796939860c0865260c0860190613b47565b5f196001871b01988916602086015297166040840152606083015260808201520152565b906004613bc7600654614753565b613bd081612c59565b03613d5c576099546001600160a01b0316613bef608d54611c23615648565b6040516370a0823160e01b8152306004820152909390916020836024816001600160a01b037f0000000000000000000000000000000000000000000000000000000000000000165afa928315610d00575f93613d3b575b506040516370a0823160e01b81523060048201526020816024816001600160a01b037f0000000000000000000000000000000000000000000000000000000000000000165afa8015610d0057604094613cbd925f92613d1a575b5085516317831b8160e21b81529788958695309160048801613b7a565b038173a095f42fb3ba805a7ac899988fc6d77afed09df55af4918215610d00575f905f93613cea57509190565b9050613d0f91925060403d604011613d13575b613d0781836108c2565b810190613b31565b9091565b503d613cfd565b613d3491925060203d602011610f9c57610f8e81836108c2565b905f613ca0565b613d5591935060203d602011610f9c57610f8e81836108c2565b915f613c46565b5f91508190565b6099545f82815260976020908152604091829020549151630dc4bd2360e31b815260048101949094526001600160a01b03909216602484015230604484015260648301528160848173a095f42fb3ba805a7ac899988fc6d77afed09df55af4908115610d00575f91613dd3575090565b610540915060203d602011610f9c57610f8e81836108c2565b90601f8211613df9575050565b610635915f805260205f20906020601f840160051c83019310613e24575b601f0160051c0190612ebf565b9091508190613e17565b9190601f8111613e3d57505050565b610635925f5260205f20906020601f840160051c83019310613e2457601f0160051c0190612ebf565b9081516001600160401b03811161088757613e8d81613e86608f546111f2565b608f613e2e565b602092601f8211600114613ecd57613ebd929382915f92613ec2575b50508160011b915f199060031b1c19161790565b608f55565b015190505f80613ea9565b608f5f52601f198216937f337f7913db22d91ef425f82102bc8075ef67e23a2be359965ea316e78e1eff3f915f5b868110613f315750836001959610613f19575b505050811b01608f55565b01515f1960f88460031b161c191690555f8080613f0e565b91926020600181928685015181550194019201613efb565b9081516001600160401b03811161088757613f7081613f696091546111f2565b6091613e2e565b602092601f8211600114613fa457613f9f929382915f92613ec25750508160011b915f199060031b1c19161790565b609155565b60915f52601f198216937fcdae184edd6bf71c1fb62d6e6682fdb2032455c0e50143742135fbbe809bd793915f5b8681106140085750836001959610613ff0575b505050811b01609155565b01515f1960f88460031b161c191690555f8080613fe5565b91926020600181928685015181550194019201613fd2565b9081516001600160401b03811161088757614047816140406001546111f2565b6001613e2e565b602092601f821160011461407b57614076929382915f92613ec25750508160011b915f199060031b1c19161790565b600155565b60015f52601f198216937fb10e2d527612073b26eecdfd717e6a320cf44b4afac2b0732d9fcbe2b7fa0cf6915f5b8681106140df57508360019596106140c7575b505050811b01600155565b01515f1960f88460031b161c191690555f80806140bc565b919260206001819286850151815501940192016140a9565b91909182516001600160401b0381116108875761411e8161411884546111f2565b84613e2e565b6020601f821160011461415157819061414d9394955f92613ec25750508160011b915f199060031b1c19161790565b9055565b601f19821690614164845f5260205f2090565b915f5b81811061419e57509583600195969710614186575b505050811b019055565b01515f1960f88460031b161c191690555f808061417c565b9192602060018192868b015181550194019201614167565b9060c0806106359380511515845260208101511515602085015260408101511515604085015260608101511515606085015260808101511515608085015261420760a082015160a086019015159052565b01511515910152565b90602080835192838152019201905f5b81811061422d5750505090565b909192602060c0600192865163ffffffff81511682526001600160401b03848201511684830152848060a01b03604082015116604083015260608101511515606083015265ffffffffffff608082015116608083015260a08580821b039101511660a08201520194019101919091614220565b602081016020825282518091526040820191602060408360051b8301019401925f915b8383106142d257505050505090565b90919293946020806143a7600193603f198682030187526102206101408b516143048482516001600160681b03169052565b8086015163ffffffff168487015260408181015163ffffffff169085015260608181015161ffff16908501526080818101516001600160a01b03169085015260a081015160a085015261436360c082015160c086019062ffffff169052565b60e08181015160ff16908501526143846101008201516101008601906141b6565b61012081015163ffffffff166101e0850152015191816102008201520190614210565b970193019301919392906142c3565b989b969a9499959893979695919493307f00000000000000000000000000000000000000000000000000000000000000006001600160a01b031614610406576099546001600160a01b039061440c908216610c46565b16610406576144cf976144728e614455614495976144386144b29b6144789865ffffffffffff98615772565b60018060a01b03166001600160601b0360a01b6098541617609855565b60018060a01b03166001600160601b0360a01b6099541617609955565b16609655565b60018060a01b03166001600160601b0360a01b6093541617609355565b60018060a01b03166001600160601b0360a01b6094541617609455565b60018060a01b03166001600160601b0360a01b6092541617609255565b8051614610575b508051614601575b506001600160a01b038116614591575b506145125f92839260405194858094819363052e4c3b60e31b8352600483016142a0565b03926001600160a01b03165af18015610d0057614579575b508051905f5b8281106145435750505061063533614b6c565b80614573614553600193856132dc565b5161456e614560846135b1565b5f52608c60205260405f2090565b6140f7565b01614530565b61458c903d805f833e61383c81836108c2565b61452a565b90916001600160a01b038116803b156104065760405163036129cb60e61b81526001600160a01b039390931660048401525f908390602490829084905af1908115610d00575f938493614512936145ed575b50925092506144ee565b80613084866145fb936108c2565b5f6145e3565b61460a90613f49565b5f6144de565b61461990613e66565b5f6144d6565b90816020910312610406575160068110156104065790565b9261464f606093969592608086526080860190613b47565b6001600160a01b039687166020860152951660408401521515910152565b6040805190919061467e83826108c2565b6001815291601f1901825f5b82811061469657505050565b6020906146a1613296565b8282850101520161468a565b919260809396959491966146c58460a0810199612c63565b6020840152604083015260608201520152565b6099546040516359dff39760e11b815260a0600482015291602091839182916001600160a01b03169061470f9060a4840190613b47565b90602483015230604483015260086064830152609a6084830152038173a095f42fb3ba805a7ac899988fc6d77afed09df55af4908115610d00575f91613dd3575090565b60935460405163038ab08560e11b81526004810192909252602090829060249082906001600160a01b03165afa908115610d00575f91614791575090565b610540915060203d602011612bd857612bc981836108c2565b6001600160a01b039081165f818152608860209081526040808320878452909152902080549194919092169290916147e39082906107d5565b6040513381526001600160a01b03821690849086907fffd690c2b6db0649e91a0ba8cf58693b5714b372c2333c4a8c6eae507b9e36f790602090a46099546040516305c9a1d560e31b8152306004820152602481019590955260448501839052602090859060649082906001600160a01b03165afa928315610d0057610635945f94614870575b50615862565b61488a91945060203d602011610f9c57610f8e81836108c2565b925f61486a565b5f818152600260205260409020546001600160a01b03169081156148b3575090565b637e27328960e01b5f5260045260245ffd5b6007546001600160a01b031633036148d957565b63118cdaa760e01b5f523360045260245ffd5b9081602091031261040657516105408161192d565b604051636e49181f60e01b815260048101919091523360248201526020816044817f00000000000000000000000000000000000000000000000000000000000000006001600160a01b03165afa908115610d00575f9161495f575090565b610540915060203d602011614981575b61497981836108c2565b8101906148ec565b503d61496f565b35610540816117a7565b604051906149a16040836108c2565b600382526270617960e81b6020830152565b91906040838203126104065782516149ca81610616565b926020810151906001600160401b03821161040657019080601f830112156104065781516149f781610931565b92614a0560405194856108c2565b81845260208085019260051b82010192831161040657602001905b828210614a2d5750505090565b602080918351614a3c8161235e565b815201910190614a20565b90916060828403126104065781516001600160401b0381116104065783614a6f918401613310565b9260208301516001600160401b03811161040657604091614a91918501613310565b92015190565b91939290606083016060845281518091526020608085019201905f5b818110614ad7575050506001600160a01b0394851660208401529316604090910152565b825161ffff16845260209384019390920191600101614ab3565b9081549065ffffffffffff5f91165b828210614b2c57505080614b145750505f90565b614b1d90613a2b565b905f5260205f20015460301c90565b909180831860011c8184160190845f528265ffffffffffff8360205f20015416115f14614b5c5750915b90614b00565b9250614b67906135b1565b614b56565b600780546001600160a01b039283166001600160a01b0319821681179092559091167f8be0079c531659141344cd1fd0a4f28419497f9722a3daafe3b4186f6b6457e05f80a3565b519061063582611111565b5190610635826117da565b60018060a01b03609854166101206006546024604051809481936321d1336160e11b835260048301525afa908115610d00575f91614c18575b5061010001516105409060f21c5b61ffff1690565b9050610120813d8211614ce0575b81614c3461012093836108c2565b8101031261040657614c1161054091610100614c4e6108f2565b91614c5881614bb4565b8352614c6660208201614bb4565b6020840152614c7760408201614bb4565b6040840152614c8860608201614bb4565b6060840152614c9960808201613392565b6080840152614caa60a08201614bbf565b60a0840152614cbb60c08201613392565b60c0840152614ccc60e082016132f0565b60e084015201516101008201529150614c03565b3d9150614c26565b906001600160a01b0382161561319e57609954614d0d906001600160a01b0316610c46565b60405163c44a8e6d60e01b8152306004820152602481018390525f6044820181905290939084606481855afa938415610d00575f94614ea7575b50614d535f8483615bc7565b6001600160a01b0381161515949093908580614dfe575b614d7d9250613090575163ffffffff1690565b90823b15610406576040516330b157e560e21b815263ffffffff9290921660048301526001600160a01b038481166024840152166044820152905f908290606490829084905af18015610d0057614dea575b5050614dd757565b6339e3563760e11b5f525f60045260245ffd5b806130845f614df8936108c2565b5f614dcf565b61014082015160200151614e53575b8286614e2a610c46610bfb614d7d975f52608b60205260405f2090565b15614e37575b5050614d6a565b6107d5614e4c925f52608b60205260405f2090565b5f86614e30565b5090614e60613131614bca565b614e6b579085614e0d565b600654604051633007fc0360e01b8152600481019190915260248101919091526001600160a01b03858116604483015283166064820152608490fd5b614ebc9194503d805f833e61318f81836108c2565b925f614d47565b6001600160d01b039182169082160191908211612ea757565b6001600160d01b039182169082160391908211612ea757565b906106359291614f15614f10835f52608a60205260405f2090565b615748565b906001600160d01b038416614f2a8184614ec3565b90614f51614f40865f52608a60205260405f2090565b9265ffffffffffff42168094615dfb565b50506001600160a01b03831680159490929085615042575b5050506001600160a01b038281165f908152608860209081526040808320888452909152902054169283159081615039575b50614fdd575b50505f80526088602052614fd8610bfb837f046491916a0278bc7eb038aba60c896854c99d791b5a890a9ff3ed75cc95e12a610bee565b615862565b909150615002826107d585610bee8360018060a01b03165f52608860205260405f2090565b6040513381525f9082907fffd690c2b6db0649e91a0ba8cf58693b5714b372c2333c4a8c6eae507b9e36f790602090a45f80614fa1565b9050155f614f9b565b6150679261504f91614edc565b90615062875f52608a60205260405f2090565b615dfb565b5f614f69565b6106359392919082906001600160a01b0381161580801561520a575b615173575b506150b0610bfb83610bee8660018060a01b03165f52608860205260405f2090565b926001600160a01b0384161580615161575b6150eb575b506001600160a01b03165f908152608860205260409020614fd891610bfb91610bee565b9250614fd891610bee610bfb928561511b816107d586610bee8360018060a01b03165f52608860205260405f2090565b6040513381526001600160a01b0391909116905f9082907fffd690c2b6db0649e91a0ba8cf58693b5714b372c2333c4a8c6eae507b9e36f790602090a4925050916150c7565b506001600160a01b03811615156150c2565b615188614f10845f52608a60205260405f2090565b906151db575b6001600160a01b03841661508e576151d5906151b4906001600160d01b03881690614edc565b6151c6845f52608a60205260405f2090565b65ffffffffffff421690615dfb565b5061508e565b6152036151f16001600160d01b03881683614ec3565b6151c6855f52608a60205260405f2090565b505061518e565b506001600160a01b03841615615089565b908160209103126104065751610540816103f4565b6001600160a01b0391821681529116602082015260408101919091526080606082018190526105409291019061050b565b3d1561528b573d9061527282611a18565b9161528060405193846108c2565b82523d5f602084013e565b606090565b9081518110156132d7570160200190565b5f916060926025825111156153f1576152de6152d86152d26152c4602486615290565b516001600160f81b03191690565b60f81c90565b60ff1690565b9060205b6153076152fa6152c46152f4846135bf565b87615290565b6001600160f81b03191690565b1515806153e0575b156153d85761532f6152d86152d26152c4615329856135bf565b88615290565b602082860101516001600160e01b031987811691161461535257506005016152e2565b945091905061538e945061536e615368836135cd565b91612e91565b118015906153b9575b156153935750615388815192612e91565b90615d6a565b600191565b6153b36153ae6152d86152d26152c46152f4615388966135cd565b612e91565b92612e91565b506153d26152fa6152c46153cc846135cd565b85615290565b15615377565b509492505050565b506153ea83612e91565b811061530f565b505050505f906105406131c0565b6099545f9190615417906001600160a01b0316610c46565b60405163c44a8e6d60e01b8152306004820152602481018390525f6044820181905290919082606481845afa918215610d00575f926155a7575b5061545d5f8481615bc7565b6001600160a01b038116159290919083158061554a575b906154879161550e575163ffffffff1690565b813b1561550a576040516330b157e560e21b815263ffffffff9190911660048201526001600160a01b038381166024830152861660448201529085908290606490829084905af18015610d00576154f6575b50506154e3575050565b637e27328960e01b825260045260249150fd5b8061308486615504936108c2565b5f6154d9565b8580fd5b6130cc61551f825163ffffffff1690565b63ffffffff6001600160681b0361554060808601516001600160681b031690565b169116898761506d565b6101408201516020015161559f575b9061548791615576610c46610bfb895f52608b60205260405f2090565b15615584575b909150615474565b61559a856107d5895f52608b60205260405f2090565b61557c565b5f9650615559565b6155bc9192503d805f833e61318f81836108c2565b905f615451565b6099546001600160a01b0316803b156104065760405180926386bc2be360e01b8252602482016020600484015281518091526020604484019201905f5b81811061562f5750505091815f81819503925af18015610d00576156215750565b806130845f610635936108c2565b8251845286945060209384019390920191600101615600565b609954604051638a8533ff60e01b81526001600160a01b03909116600482015230602482015260208160448173a095f42fb3ba805a7ac899988fc6d77afed09df55af4908115610d00575f91613dd3575090565b60405163629389af60e11b81526001600160a01b039182166004820152602481019290925260448201929092527f0000000000000000000000000000000000000000000000000000000000000000821660648201527f0000000000000000000000000000000000000000000000000000000000000000909116608482015260208160a48173a095f42fb3ba805a7ac899988fc6d77afed09df55af4908115610d00575f9161495f575090565b805490816157565750505f90565b815f19810111612ea7575f525f199060205f2001015460301c90565b90929183516001600160401b03811161088757615798816157935f546111f2565b613dec565b6020601f82116001146157da57816157d593926157ce9261063597985f92613ec25750508160011b915f199060031b1c19161790565b5f55614020565b600655565b5f8052601f198216957f290decd9548b62a8d60345a988386fc84ba6bc95484008f6362f93160ef3e563965f5b81811061584a57509660019284926157d59695610635999a10615832575b505050811b015f55614020565b01515f1960f88460031b161c191690555f8080615825565b83830151895560019098019760209384019301615807565b91926001600160a01b03808316939192919081168085148015615a07575b6159ff57859181615955575b5050508261589a5750505050565b7f26abcd0483bf852c577c9beff4daa5920a203234050413150a0aa946fb598bfa916159168261590687610bee6158eb614f1083610bee6159269a60018060a01b03165f52608960205260405f2090565b6001600160a01b039094165f90815260896020526040902090565b926001600160d01b031690614ec3565b9065ffffffffffff421690615dfb565b604080516001600160d01b0393841681529190921660208201523391810191909152606090a35f8080806138e4565b6159d1816159166159c086610bee6159a5614f1083610bee7f26abcd0483bf852c577c9beff4daa5920a203234050413150a0aa946fb598bfa9a60018060a01b03165f52608960205260405f2090565b6001600160a01b039095165f90815260896020526040902090565b916001600160d01b03891690614edc565b604080516001600160d01b0393841681529190921660208201523391810191909152606090a3835f8061588c565b505050505050565b508315615880565b615a21905f52600460205260405f2090565b80546001600160a01b0319169055565b90606082820312610406578151906001600160401b03821161040657615a58918301613310565b916040602083015192015190565b929190606084019084526060602085015281518091526020608085019201905f5b818110615a9a5750505060405f91930152565b825161ffff16845260209384019390920191600101615a87565b60995491939291615acd906001600160a01b0316610c46565b915f604051809463eaa19ab360e01b8252818381615aef8b8960048401615a66565b03925af18015610d00575f935f91615b9e575b5094835193615b16611bc485608d546135db565b5f5b858110615b2757505050505050565b80615b34600192846132dc565b51615b3f8187614ce8565b61ffff615b57615b4f84886132dc565b5161ffff1690565b604080518a815233602082015260a087901b8790038a169492909316927f598baf7bf150ca2f42be9e9f8f55e81d45f5715c3ff22bf46d697fabec7f31d69190a401615b18565b9050615bbd9193503d805f833e615bb581836108c2565b810190615a31565b509290925f615b02565b5f828152600260205260409020546001600160a01b0390811693908116615c97575b506001600160a01b03831680615c6b575b6001600160a01b03821691615c219083615c48575b6107d5855f52600260205260405f2090565b7fddf252ad1be2c89b69c2b068fc378daa952ba7f163c4a11628f55a4df523b3ef5f80a490565b6001600160a01b0381165f90815260036020526040902060018154019055615c0f565b615c7483615a0f565b6001600160a01b0384165f90815260036020526040902080545f19019055615bfa565b615cb26001600160a01b0382168015159081615cf857501590565b15615be957826001600160a01b038516615cd857637e27328960e01b5f5260045260245ffd5b63177e802f60e01b5f526001600160a01b0390911660045260245260445ffd5b6001600160a01b03871680821492508215615d38575b508115615d1a57501590565b5f868152600460205260409020546001600160a01b03161415919050565b9091505f52600560205260ff615d618460405f209060018060a01b03165f5260205260405f2090565b5416905f615d0e565b92918190039060405193601f19603f8487010116604052828552015f5b828110615d9357505050565b80602080928401015182828801015201615d87565b9081546801000000000000000081101561088757600181018084558110156132d7575f9283526020928390208251929093015160301b65ffffffffffff191665ffffffffffff9290921691909117910155565b80549293928015615ea757615e12615e1d91613a2b565b825f5260205f200190565b8054603081901c9365ffffffffffff91821692918116808411615e9857879303615e645750615e6092509065ffffffffffff82549181199060301b169116179055565b9190565b915050615e6091615e84615e76610922565b65ffffffffffff9093168352565b6001600160d01b0386166020830152615da8565b632520601d60e01b5f5260045ffd5b5090615ecc91615eb8615e76610922565b6001600160d01b0385166020830152615da8565b5f919056fea164736f6c634300081c000a",
	"gitCommit": "npm:@ballkidz/defifa@1.0.2",
	"gitDirty": false,
	"history": []
}