{
	"format": "sphinx-sol-ct-artifact-1",
	"address": "0xb5dacddc67b7c36dae9166cdf5fcf61388d76f47",
	"sourceName": "node_modules/@bananapus/core-v6/src/JBChainlinkV3SequencerPriceFeed.sol",
	"contractName": "JBChainlinkV3SequencerPriceFeed",
	"chainId": "0xa",
	"abi": [
		{
			"type": "constructor",
			"inputs": [
				{
					"name": "feed",
					"type": "address",
					"internalType": "contract AggregatorV3Interface"
				},
				{
					"name": "threshold",
					"type": "uint256",
					"internalType": "uint256"
				},
				{
					"name": "sequencerFeed",
					"type": "address",
					"internalType": "contract AggregatorV2V3Interface"
				},
				{
					"name": "gracePeriod",
					"type": "uint256",
					"internalType": "uint256"
				}
			],
			"stateMutability": "nonpayable"
		},
		{
			"type": "function",
			"name": "FEED",
			"inputs": [],
			"outputs": [
				{
					"name": "",
					"type": "address",
					"internalType": "contract AggregatorV3Interface"
				}
			],
			"stateMutability": "view"
		},
		{
			"type": "function",
			"name": "GRACE_PERIOD_TIME",
			"inputs": [],
			"outputs": [
				{
					"name": "",
					"type": "uint256",
					"internalType": "uint256"
				}
			],
			"stateMutability": "view"
		},
		{
			"type": "function",
			"name": "SEQUENCER_FEED",
			"inputs": [],
			"outputs": [
				{
					"name": "",
					"type": "address",
					"internalType": "contract AggregatorV2V3Interface"
				}
			],
			"stateMutability": "view"
		},
		{
			"type": "function",
			"name": "THRESHOLD",
			"inputs": [],
			"outputs": [
				{
					"name": "",
					"type": "uint256",
					"internalType": "uint256"
				}
			],
			"stateMutability": "view"
		},
		{
			"type": "function",
			"name": "currentUnitPrice",
			"inputs": [
				{
					"name": "decimals",
					"type": "uint256",
					"internalType": "uint256"
				}
			],
			"outputs": [
				{
					"name": "",
					"type": "uint256",
					"internalType": "uint256"
				}
			],
			"stateMutability": "view"
		},
		{
			"type": "error",
			"name": "JBChainlinkV3PriceFeed_IncompleteRound",
			"inputs": [
				{
					"name": "roundId",
					"type": "uint80",
					"internalType": "uint80"
				},
				{
					"name": "answeredInRound",
					"type": "uint80",
					"internalType": "uint80"
				},
				{
					"name": "updatedAt",
					"type": "uint256",
					"internalType": "uint256"
				}
			]
		},
		{
			"type": "error",
			"name": "JBChainlinkV3PriceFeed_NegativePrice",
			"inputs": [
				{
					"name": "price",
					"type": "int256",
					"internalType": "int256"
				}
			]
		},
		{
			"type": "error",
			"name": "JBChainlinkV3PriceFeed_StalePrice",
			"inputs": [
				{
					"name": "timestamp",
					"type": "uint256",
					"internalType": "uint256"
				},
				{
					"name": "threshold",
					"type": "uint256",
					"internalType": "uint256"
				},
				{
					"name": "updatedAt",
					"type": "uint256",
					"internalType": "uint256"
				}
			]
		},
		{
			"type": "error",
			"name": "JBChainlinkV3SequencerPriceFeed_InvalidRound",
			"inputs": [
				{
					"name": "startedAt",
					"type": "uint256",
					"internalType": "uint256"
				}
			]
		},
		{
			"type": "error",
			"name": "JBChainlinkV3SequencerPriceFeed_SequencerDownOrRestarting",
			"inputs": [
				{
					"name": "timestamp",
					"type": "uint256",
					"internalType": "uint256"
				},
				{
					"name": "gracePeriodTime",
					"type": "uint256",
					"internalType": "uint256"
				},
				{
					"name": "startedAt",
					"type": "uint256",
					"internalType": "uint256"
				}
			]
		}
	],
	"args": [
		"0x13e3Ee699D1909E989722E753853AE30b17e08c5",
		"3600",
		"0x371EAD81c9102C9BF4874A9075FFFf170F2Ee389",
		"3600"
	],
	"solcInputHash": "07de4322938d140b896d7da78bd4edea",
	"bytecode": "0x610100604052348015610010575f5ffd5b5060405161084b38038061084b83398101604081905261002f91610069565b6001600160a01b0393841660805260a09290925260c0919091521660e0526100af565b6001600160a01b0381168114610066575f5ffd5b50565b5f5f5f5f6080858703121561007c575f5ffd5b845161008781610052565b60208601516040870151919550935061009f81610052565b6060959095015193969295505050565b60805160a05160c05160e05161073b6101105f395f8181610111015261013801525f818160ea015281816101eb015261023601525f818160a20152818161039501526103d501525f8181605e01528181610281015261042e015261073b5ff3fe608060405234801561000f575f5ffd5b5060043610610055575f3560e01c80630beaf38c14610059578063785ffb371461009d578063d3f5c15f146100d2578063ed2f8603146100e5578063f9405e631461010c575b5f5ffd5b6100807f000000000000000000000000000000000000000000000000000000000000000081565b6040516001600160a01b0390911681526020015b60405180910390f35b6100c47f000000000000000000000000000000000000000000000000000000000000000081565b604051908152602001610094565b6100c46100e036600461052a565b610133565b6100c47f000000000000000000000000000000000000000000000000000000000000000081565b6100807f000000000000000000000000000000000000000000000000000000000000000081565b5f5f5f7f00000000000000000000000000000000000000000000000000000000000000006001600160a01b031663feaf968c6040518163ffffffff1660e01b815260040160a060405180830381865afa158015610192573d5f5f3e3d5ffd5b505050506040513d601f19601f820116820180604052508101906101b6919061055c565b50509250925050805f036101e557604051631adef7f560e21b8152600481018290526024015b60405180910390fd5b61020f817f00000000000000000000000000000000000000000000000000000000000000006105be565b4211158061021c57508115155b1561026957604051630d5d8d4160e31b81524260048201527f00000000000000000000000000000000000000000000000000000000000000006024820152604481018290526064016101dc565b6102728461027a565b949350505050565b5f5f5f5f5f7f00000000000000000000000000000000000000000000000000000000000000006001600160a01b031663feaf968c6040518163ffffffff1660e01b815260040160a060405180830381865afa1580156102db573d5f5f3e3d5ffd5b505050506040513d601f19601f820116820180604052508101906102ff919061055c565b945094505093509350815f036103425760405163d998366560e01b81526001600160501b03808616600483015282166024820152604481018390526064016101dc565b836001600160501b0316816001600160501b0316101561038f5760405163d998366560e01b81526001600160501b03808616600483015282166024820152604481018390526064016101dc565b6103b9827f00000000000000000000000000000000000000000000000000000000000000006105be565b421115610408576040516352b4aba960e11b81524260048201527f00000000000000000000000000000000000000000000000000000000000000006024820152604481018390526064016101dc565b5f831361042b5760405163e374febf60e01b8152600481018490526024016101dc565b5f7f00000000000000000000000000000000000000000000000000000000000000006001600160a01b031663313ce5676040518163ffffffff1660e01b8152600401602060405180830381865afa158015610488573d5f5f3e3d5ffd5b505050506040513d601f19601f820116820180604052508101906104ac91906105d7565b60ff1690506104bc8482896104c7565b979650505050505050565b5f8282036104d6575082610523565b82821115610504576104e883836105f7565b6104f390600a6106ed565b6104fd90856106f8565b9050610523565b61050e82846105f7565b61051990600a6106ed565b6104fd908561070f565b9392505050565b5f6020828403121561053a575f5ffd5b5035919050565b80516001600160501b0381168114610557575f5ffd5b919050565b5f5f5f5f5f60a08688031215610570575f5ffd5b61057986610541565b6020870151604088015160608901519297509095509350915061059e60808701610541565b90509295509295909350565b634e487b7160e01b5f52601160045260245ffd5b808201808211156105d1576105d16105aa565b92915050565b5f602082840312156105e7575f5ffd5b815160ff81168114610523575f5ffd5b818103818111156105d1576105d16105aa565b6001815b600184111561064557808504811115610629576106296105aa565b600184161561063757908102905b60019390931c92800261060e565b935093915050565b5f8261065b575060016105d1565b8161066757505f6105d1565b816001811461067d5760028114610687576106a3565b60019150506105d1565b60ff841115610698576106986105aa565b50506001821b6105d1565b5060208310610133831016604e8410600b84101617156106c6575081810a6105d1565b6106d25f19848461060a565b805f19048211156106e5576106e56105aa565b029392505050565b5f610523838361064d565b80820281158282048414176105d1576105d16105aa565b5f8261072957634e487b7160e01b5f52601260045260245ffd5b50049056fea164736f6c634300081c000a",
	"gitCommit": "npm:@bananapus/core-v6@1.0.2",
	"gitDirty": false,
	"history": []
}