{
	"format": "sphinx-sol-ct-artifact-1",
	"address": "0x0de147532f522fe9f4559bd7f34774786424176e",
	"sourceName": "node_modules/@bananapus/project-payer-v6/src/JBProjectPayer.sol",
	"contractName": "JBProjectPayer",
	"chainId": "0xa",
	"abi": [
		{
			"type": "constructor",
			"inputs": [
				{
					"name": "directory",
					"type": "address",
					"internalType": "contract IJBDirectory"
				}
			],
			"stateMutability": "nonpayable"
		},
		{
			"type": "receive",
			"stateMutability": "payable"
		},
		{
			"type": "function",
			"name": "DEPLOYER",
			"inputs": [],
			"outputs": [
				{
					"name": "",
					"type": "address",
					"internalType": "address"
				}
			],
			"stateMutability": "view"
		},
		{
			"type": "function",
			"name": "DIRECTORY",
			"inputs": [],
			"outputs": [
				{
					"name": "",
					"type": "address",
					"internalType": "contract IJBDirectory"
				}
			],
			"stateMutability": "view"
		},
		{
			"type": "function",
			"name": "addToBalanceOf",
			"inputs": [
				{
					"name": "projectId",
					"type": "uint256",
					"internalType": "uint256"
				},
				{
					"name": "token",
					"type": "address",
					"internalType": "address"
				},
				{
					"name": "amount",
					"type": "uint256",
					"internalType": "uint256"
				},
				{
					"name": "memo",
					"type": "string",
					"internalType": "string"
				},
				{
					"name": "metadata",
					"type": "bytes",
					"internalType": "bytes"
				}
			],
			"outputs": [],
			"stateMutability": "payable"
		},
		{
			"type": "function",
			"name": "defaultAddToBalance",
			"inputs": [],
			"outputs": [
				{
					"name": "",
					"type": "bool",
					"internalType": "bool"
				}
			],
			"stateMutability": "view"
		},
		{
			"type": "function",
			"name": "defaultBeneficiary",
			"inputs": [],
			"outputs": [
				{
					"name": "",
					"type": "address",
					"internalType": "address payable"
				}
			],
			"stateMutability": "view"
		},
		{
			"type": "function",
			"name": "defaultMemo",
			"inputs": [],
			"outputs": [
				{
					"name": "",
					"type": "string",
					"internalType": "string"
				}
			],
			"stateMutability": "view"
		},
		{
			"type": "function",
			"name": "defaultMetadata",
			"inputs": [],
			"outputs": [
				{
					"name": "",
					"type": "bytes",
					"internalType": "bytes"
				}
			],
			"stateMutability": "view"
		},
		{
			"type": "function",
			"name": "defaultProjectId",
			"inputs": [],
			"outputs": [
				{
					"name": "",
					"type": "uint256",
					"internalType": "uint256"
				}
			],
			"stateMutability": "view"
		},
		{
			"type": "function",
			"name": "initialize",
			"inputs": [
				{
					"name": "projectId",
					"type": "uint256",
					"internalType": "uint256"
				},
				{
					"name": "beneficiary",
					"type": "address",
					"internalType": "address payable"
				},
				{
					"name": "memo",
					"type": "string",
					"internalType": "string"
				},
				{
					"name": "metadata",
					"type": "bytes",
					"internalType": "bytes"
				},
				{
					"name": "addToBalance",
					"type": "bool",
					"internalType": "bool"
				},
				{
					"name": "owner",
					"type": "address",
					"internalType": "address"
				}
			],
			"outputs": [],
			"stateMutability": "nonpayable"
		},
		{
			"type": "function",
			"name": "originalPayer",
			"inputs": [],
			"outputs": [
				{
					"name": "",
					"type": "address",
					"internalType": "address"
				}
			],
			"stateMutability": "view"
		},
		{
			"type": "function",
			"name": "owner",
			"inputs": [],
			"outputs": [
				{
					"name": "",
					"type": "address",
					"internalType": "address"
				}
			],
			"stateMutability": "view"
		},
		{
			"type": "function",
			"name": "pay",
			"inputs": [
				{
					"name": "projectId",
					"type": "uint256",
					"internalType": "uint256"
				},
				{
					"name": "token",
					"type": "address",
					"internalType": "address"
				},
				{
					"name": "amount",
					"type": "uint256",
					"internalType": "uint256"
				},
				{
					"name": "beneficiary",
					"type": "address",
					"internalType": "address"
				},
				{
					"name": "minReturnedTokens",
					"type": "uint256",
					"internalType": "uint256"
				},
				{
					"name": "memo",
					"type": "string",
					"internalType": "string"
				},
				{
					"name": "metadata",
					"type": "bytes",
					"internalType": "bytes"
				}
			],
			"outputs": [],
			"stateMutability": "payable"
		},
		{
			"type": "function",
			"name": "renounceOwnership",
			"inputs": [],
			"outputs": [],
			"stateMutability": "nonpayable"
		},
		{
			"type": "function",
			"name": "setDefaultValues",
			"inputs": [
				{
					"name": "projectId",
					"type": "uint256",
					"internalType": "uint256"
				},
				{
					"name": "beneficiary",
					"type": "address",
					"internalType": "address payable"
				},
				{
					"name": "memo",
					"type": "string",
					"internalType": "string"
				},
				{
					"name": "metadata",
					"type": "bytes",
					"internalType": "bytes"
				},
				{
					"name": "addToBalance",
					"type": "bool",
					"internalType": "bool"
				}
			],
			"outputs": [],
			"stateMutability": "nonpayable"
		},
		{
			"type": "function",
			"name": "supportsInterface",
			"inputs": [
				{
					"name": "interfaceId",
					"type": "bytes4",
					"internalType": "bytes4"
				}
			],
			"outputs": [
				{
					"name": "",
					"type": "bool",
					"internalType": "bool"
				}
			],
			"stateMutability": "view"
		},
		{
			"type": "function",
			"name": "transferOwnership",
			"inputs": [
				{
					"name": "newOwner",
					"type": "address",
					"internalType": "address"
				}
			],
			"outputs": [],
			"stateMutability": "nonpayable"
		},
		{
			"type": "event",
			"name": "OwnershipTransferred",
			"inputs": [
				{
					"name": "previousOwner",
					"type": "address",
					"indexed": true,
					"internalType": "address"
				},
				{
					"name": "newOwner",
					"type": "address",
					"indexed": true,
					"internalType": "address"
				}
			],
			"anonymous": false
		},
		{
			"type": "event",
			"name": "SetDefaultValues",
			"inputs": [
				{
					"name": "projectId",
					"type": "uint256",
					"indexed": true,
					"internalType": "uint256"
				},
				{
					"name": "beneficiary",
					"type": "address",
					"indexed": true,
					"internalType": "address"
				},
				{
					"name": "memo",
					"type": "string",
					"indexed": false,
					"internalType": "string"
				},
				{
					"name": "metadata",
					"type": "bytes",
					"indexed": false,
					"internalType": "bytes"
				},
				{
					"name": "addToBalance",
					"type": "bool",
					"indexed": false,
					"internalType": "bool"
				},
				{
					"name": "caller",
					"type": "address",
					"indexed": false,
					"internalType": "address"
				}
			],
			"anonymous": false
		},
		{
			"type": "error",
			"name": "JBProjectPayer_AlreadyInitialized",
			"inputs": [
				{
					"name": "caller",
					"type": "address",
					"internalType": "address"
				},
				{
					"name": "deployer",
					"type": "address",
					"internalType": "address"
				}
			]
		},
		{
			"type": "error",
			"name": "JBProjectPayer_NoMsgValueAllowed",
			"inputs": [
				{
					"name": "msgValue",
					"type": "uint256",
					"internalType": "uint256"
				},
				{
					"name": "token",
					"type": "address",
					"internalType": "address"
				}
			]
		},
		{
			"type": "error",
			"name": "JBProjectPayer_TerminalNotFound",
			"inputs": [
				{
					"name": "projectId",
					"type": "uint256",
					"internalType": "uint256"
				},
				{
					"name": "token",
					"type": "address",
					"internalType": "address"
				}
			]
		},
		{
			"type": "error",
			"name": "OwnableInvalidOwner",
			"inputs": [
				{
					"name": "owner",
					"type": "address",
					"internalType": "address"
				}
			]
		},
		{
			"type": "error",
			"name": "OwnableUnauthorizedAccount",
			"inputs": [
				{
					"name": "account",
					"type": "address",
					"internalType": "address"
				}
			]
		},
		{
			"type": "error",
			"name": "SafeERC20FailedOperation",
			"inputs": [
				{
					"name": "token",
					"type": "address",
					"internalType": "address"
				}
			]
		}
	],
	"args": [
		"0x5AfF29060E023e6FB87BE5596652B33c65Af535B"
	],
	"solcInputHash": "8dc241066e35529122a84a865193c5d6",
	"bytecode": "0x60c0346100f757601f611b7138819003918201601f19168301916001600160401b038311848410176100fb578084926020946040528339810103126100f757516001600160a01b03811681036100f75733156100e4575f8054336001600160a01b0319821681178355604051939290916001600160a01b0316907f8be0079c531659141344cd1fd0a4f28419497f9722a3daafe3b4186f6b6457e09080a36080523360a052611a6190816101108239608051818181605e01528181610203015281816105a201528181610a4e0152610c99015260a0518181816108b501526111140152f35b631e4fbdf760e01b5f525f60045260245ffd5b5f80fd5b634e487b7160e01b5f52604160045260245ffdfe608080604052600436101561038f575b50361561001a575f80fd5b60055460ff16156101be576001546100306115b0565b906100396114a8565b604051630862026560e41b81526004810183905261eeee6024820152926020846044817f00000000000000000000000000000000000000000000000000000000000000006001600160a01b03165afa8015610168575f945f9161018f575b506001600160a01b0316928315610177576001600160a01b035f5c811694906100be6118bb565b166001600160601b0360a01b5f5c16175f5d803b15610173575f9261011e9261013060405196879586948594639e6eec0560e01b8652600486015261eeee602486015234604486015288606486015260c0608486015260c485019061155f565b8381036003190160a48501529061155f565b039134905af1801561016857610153575b50815c6001600160a01b03191617905d005b6101609192505f906113d1565b5f905f610141565b6040513d5f823e3d90fd5b5f80fd5b631b10fc5160e01b5f5260045261eeee60245260445ffd5b6101b1915060203d6020116101b7575b6101a981836113d1565b8101906117f5565b5f610097565b503d61019f565b6001546002546001600160a01b0316906101d66115b0565b906101df6114a8565b604051630862026560e41b81526004810183905261eeee60248201526020816044817f00000000000000000000000000000000000000000000000000000000000000006001600160a01b03165afa908115610168575f91610370575b506001600160a01b031691821561017757916102d8939160209360018060a01b035f5c169660018060a01b0361026f6118bb565b166001600160601b0360a01b5f5c16175f5d801561033e576102ea90925b6040519788968795869563fef4325760e01b8752600487015261eeee602487015234604487015260018060a01b031660648601525f608486015260e060a486015260e485019061155f565b8381036003190160c48501529061155f565b039134905af180156101685761030f575b506001600160601b0360a01b5f5c16175f5d005b6020813d602011610336575b81610328602093836113d1565b8101031261017357516102fb565b3d915061031b565b506002546001600160a01b0316801561035c576102ea905b9261028d565b506102ea5f5c6001600160a01b0316610356565b610389915060203d6020116101b7576101a981836113d1565b5f61023b565b5f905f3560e01c90816301ffc9a71461135057508063232a208a1461109d578063296eee51146110785780633ce9830b1461105b5780633d5a52a014610d6257806354ab58af14610d3a578063715018a614610ce35780637e64654914610cc857806388bc2ef314610c845780638da5cb5b14610c5d578063a7e93f4914610c3b578063b52b646614610918578063b96053df146108e4578063c1b8411a1461089f578063f2fde38b146108485763fef432570361000f5760e03660031901126108455760043561045e6113bb565b906064356001600160a01b038116918282036108435760a4356001600160401b03811161083f57610493903690600401611583565b909360c4356001600160401b03811161083b576104b4903690600401611583565b6001600160a01b0388169761eeee891497881597929693919291906044358a610826573461080e578c602460208e604051928380926370a0823160e01b82523060048301525afa928315610803578e9183946107c8575b5060249161051d602092303384611763565b6040516370a0823160e01b815230600482015292839182905afa9182156107bc5791610782575b509261056560209361055c61056d9461059e976116d6565b9a5b369161140d565b99369161140d565b604051630862026560e41b8152600481018790526001600160a01b0390951660248601529391829081906044820190565b03817f00000000000000000000000000000000000000000000000000000000000000006001600160a01b03165afa908115610777578b91610758575b506001600160a01b03169788156107415792610686602095938b9388968c8f9b9a8d610730575b5050156107295786955b6001600160a01b038b5c81169b906106216118bb565b166001600160a01b0319825c1617815d50156106f7576102d890985b604051998a988997889763fef4325760e01b895260048901526024880152604487015260018060a01b03166064860152608435608486015260e060a486015260e485019061155f565b0391885af180156106ec576106bd575b50845c6001600160a01b03191617845d6106ae578280f35b6106b791611814565b5f808280f35b6020813d6020116106e4575b816106d6602093836113d1565b810103126101735751610696565b3d91506106c9565b6040513d88823e3d90fd5b506002546001600160a01b03168015610715576102d8905b9861063d565b506102d88d5c6001600160a01b031661070f565b899561060b565b61073a918861186c565b8c88610601565b60448b8b86631b10fc5160e01b8352600452602452fd5b610771915060203d6020116101b7576101a981836113d1565b5f6105da565b6040513d8d823e3d90fd5b919390506020823d6020116107b4575b8161079f602093836113d1565b81010312610173579051909290610565610544565b3d9150610792565b604051903d90823e3d90fd5b92509250506020813d6020116107fb575b816107e6602093836113d1565b810103126101735751908d908d90602461050b565b3d91506107d9565b6040513d84823e3d90fd5b6345f8bef960e11b8d523460045260248c905260448dfd5b5061056d61059e92610565602093349a61055e565b8780fd5b8580fd5b845b80fd5b5034610845576020366003190112610845576004356001600160a01b03811680820361089b5761087661173d565b1561088757610884906116f7565b80f35b631e4fbdf760e01b82526004829052602482fd5b8280fd5b50346108455780600319360112610845576040517f00000000000000000000000000000000000000000000000000000000000000006001600160a01b03168152602090f35b50346108455780600319360112610845576109146109006115b0565b60405191829160208352602083019061155f565b0390f35b5060a0366003190112610173576004356109306113bb565b6064356001600160401b0381116101735761094f903690600401611583565b90916084356001600160401b03811161017357610970903690600401611583565b6001600160a01b0383169561eeee87149586159592939192919060443588610c265734610c0f576040516370a0823160e01b8152306004820152906020826024818e5afa918215610168575f92610bd9575b506109cf9030338d611763565b6040516370a0823160e01b81523060048201526020816024818e5afa908115610168575f91610b9f575b5092610a11602093610a11610a1994610a4a976116d6565b96369161140d565b604051630862026560e41b8152600481018690526001600160a01b0390971660248801529591829081906044820190565b03817f00000000000000000000000000000000000000000000000000000000000000006001600160a01b03165afa908115610168575f91610b80575b506001600160a01b0316958615610b695785610b59575b15610b5357805b6001600160a01b035f5c81169590610aba6118bb565b166001600160601b0360a01b5f5c16175f5d873b15610173575f93610b178a9261011e60405198899788968796639e6eec0560e01b885260048801526024870152604486015288606486015260c0608486015260c485019061155f565b0391885af1801561016857610b3e5750845c6001600160a01b03191617845d6106ae578280f35b610b4b9195505f906113d1565b5f935f610696565b5f610aa4565b610b6482888a61186c565b610a9d565b8783631b10fc5160e01b5f5260045260245260445ffd5b610b99915060203d6020116101b7576101a981836113d1565b5f610a86565b919390506020823d602011610bd1575b81610bbc602093836113d1565b81010312610173579051909290610a116109f9565b3d9150610baf565b9091506020813d602011610c07575b81610bf5602093836113d1565b810103126101735751906109cf6109c2565b3d9150610be8565b896345f8bef960e11b5f523460045260245260445ffd5b50610a19610a4a92610a11602093349661055e565b34610173575f36600319011261017357602060ff600554166040519015158152f35b34610173575f366003190112610173575f546040516001600160a01b039091168152602090f35b34610173575f366003190112610173576040517f00000000000000000000000000000000000000000000000000000000000000006001600160a01b03168152602090f35b34610173575f366003190112610173576109146109006114a8565b34610173575f36600319011261017357610cfb61173d565b5f80546001600160a01b0319811682556001600160a01b03167f8be0079c531659141344cd1fd0a4f28419497f9722a3daafe3b4186f6b6457e08280a3005b34610173575f366003190112610173576002546040516001600160a01b039091168152602090f35b346101735760a036600319011261017357600435610d7e6113bb565b906044356001600160401b03811161017357610d9e903690600401611443565b6064356001600160401b03811161017357610dbd903690600401611443565b610dc5611461565b93610dce61173d565b8360015560018060a01b031693846001600160601b0360a01b600254161760025582516001600160401b038111610fbc57610e1381610e0e600354611470565b61165b565b6020601f8211600114610fdb579080610e40925f91610fd0575b508160011b915f199060031b1c19161790565b6003555b81516001600160401b038111610fbc57610e6881610e63600454611470565b61169e565b6020601f8211600114610f12577f3deb63dc642de6ac4b8cefcd51b9dc16f4fbe2f2f84e5682a91899633e28fc789492610ebe83610ee89694610ef6945f91610f0757508160011b915f199060031b1c19161790565b6004555b15159160ff196005541660ff84161760055560405194859460808652608086019061155f565b90848203602086015261155f565b9060408301523360608301520390a3005b90508501518b610e2d565b601f1982169060045f527f8a35acfbc15ff81a39ae7d344fd709f28e8600b4aa8c65c6b64bfe7fe36bd19b915f5b818110610fa4575083610ef6937f3deb63dc642de6ac4b8cefcd51b9dc16f4fbe2f2f84e5682a91899633e28fc78989693610ee8989660019410610f8c575b5050811b01600455610ec2565b8601515f1960f88460031b161c191690558a80610f7f565b9192602060018192868a015181550194019201610f40565b634e487b7160e01b5f52604160045260245ffd5b905085015188610e2d565b601f1982169060035f527fc2575a0e9e593c00f959f8c92f12db2869c3395a3b0502d05e2516446f71f85b915f5b8181106110435750908360019493921061102b575b5050811b01600355610e44565b8601515f1960f88460031b161c19169055878061101e565b9192602060018192868b015181550194019201611009565b34610173575f366003190112610173576020600154604051908152f35b34610173575f366003190112610173576040515f5c6001600160a01b03168152602090f35b346101735760c0366003190112610173576110b66113bb565b6044356001600160401b038111610173576110d5903690600401611443565b906064356001600160401b038111610173576110f5903690600401611443565b906110fe611461565b60a435916001600160a01b0383168303610173577f00000000000000000000000000000000000000000000000000000000000000006001600160a01b03163381900361133a575060043560015560018060a01b03166001600160601b0360a01b600254161760025583516001600160401b038111610fbc5761118581610e0e600354611470565b602094601f82116001146112b9576111b79293949582915f92611228575b50508160011b915f199060031b1c19161790565b6003555b8251926001600160401b038411610fbc576111db84610e63600454611470565b602090601f851160011461123357938061120d92611226965f926112285750508160011b915f199060031b1c19161790565b6004555b60ff80196005541691151516176005556116f7565b005b0151905086806111a3565b90601f1985169160045f527f8a35acfbc15ff81a39ae7d344fd709f28e8600b4aa8c65c6b64bfe7fe36bd19b925f5b8181106112a15750916001939187611226989410611289575b505050811b01600455611211565b01515f1960f88460031b161c1916905585808061127b565b92936020600181928786015181550195019301611262565b601f1982169560035f527fc2575a0e9e593c00f959f8c92f12db2869c3395a3b0502d05e2516446f71f85b915f5b8881106113225750836001959697981061130a575b505050811b016003556111bb565b01515f1960f88460031b161c191690558580806112fc565b919260206001819286850151815501940192016112e7565b637c2dcd2b60e11b5f523360045260245260445ffd5b34610173576020366003190112610173576004359063ffffffff60e01b821680920361017357602091631404998960e01b81149081156113aa575b8115611399575b5015158152f35b6301ffc9a760e01b14905083611392565b63296eee5160e01b8114915061138b565b602435906001600160a01b038216820361017357565b90601f801991011681019081106001600160401b03821117610fbc57604052565b6001600160401b038111610fbc57601f01601f191660200190565b929192611419826113f2565b9161142760405193846113d1565b829481845281830111610173578281602093845f960137010152565b9080601f830112156101735781602061145e9335910161140d565b90565b60843590811515820361017357565b90600182811c9216801561149e575b602083101461148a57565b634e487b7160e01b5f52602260045260245ffd5b91607f169161147f565b604051905f82600454916114bb83611470565b808352926001811690811561154057506001146114e1575b6114df925003836113d1565b565b5060045f90815290917f8a35acfbc15ff81a39ae7d344fd709f28e8600b4aa8c65c6b64bfe7fe36bd19b5b8183106115245750509060206114df928201016114d3565b602091935080600191548385890101520191019091849261150c565b602092506114df94915060ff191682840152151560051b8201016114d3565b805180835260209291819084018484015e5f828201840152601f01601f1916010190565b9181601f84011215610173578235916001600160401b038311610173576020838186019501011161017357565b604051905f82600354916115c383611470565b808352926001811690811561154057506001146115e6576114df925003836113d1565b5060035f90815290917fc2575a0e9e593c00f959f8c92f12db2869c3395a3b0502d05e2516446f71f85b5b8183106116295750509060206114df928201016114d3565b6020919350806001915483858901015201910190918492611611565b818110611650575050565b5f8155600101611645565b90601f8211611668575050565b6114df9160035f5260205f20906020601f840160051c83019310611694575b601f0160051c0190611645565b9091508190611687565b90601f82116116ab575050565b6114df9160045f5260205f20906020601f840160051c8301931061169457601f0160051c0190611645565b919082039182116116e357565b634e487b7160e01b5f52601160045260245ffd5b5f80546001600160a01b039283166001600160a01b03198216811783559216907f8be0079c531659141344cd1fd0a4f28419497f9722a3daafe3b4186f6b6457e09080a3565b5f546001600160a01b0316330361175057565b63118cdaa760e01b5f523360045260245ffd5b6040516323b872dd60e01b5f9081526001600160a01b039384166004529290931660245260449390935260209060648180865af19060015f51148216156117d4575b6040525f606052156117b45750565b635274afe760e01b5f9081526001600160a01b0391909116600452602490fd5b9060018115166117ec57823b15153d151616906117a5565b503d5f823e3d90fd5b9081602091031261017357516001600160a01b03811681036101735790565b906118205f8284611968565b15611829575050565b61183381836119b5565b1561184b575f6118439183611a19565b156117b45750565b50635274afe760e01b5f9081526001600160a01b0391909116600452602490fd5b9190611879828285611968565b1561188357505050565b61188d81846119b5565b1561189d57906118439183611a19565b635274afe760e01b5f9081526001600160a01b038416600452602490fd5b333b15611964575f80604051602081019063296eee5160e01b8252600481526118e56024826113d1565b5190335afa3d1561195c573d906118fb826113f2565b9161190960405193846113d1565b82523d5f602084013e5b158015611951575b61194c5760208180518101031261017357602001516001600160a01b03811690819003610173578061145e57503390565b503390565b50602081511061191b565b606090611913565b3390565b92916040519163095ea7b360e01b5f5260018060a01b031660045260245260205f60448180875af19260015f51148416156119a4575b50604052565b3d15903b151516909216915f61199e565b60405163095ea7b360e01b5f9081526001600160a01b03909316600452602483905290929160209060448180875af19260015f51148416156119f75750604052565b60018492941516611a10573b15153d151616915f61199e565b833d5f823e3d90fd5b92916040519163095ea7b360e01b5f5260018060a01b031660045260245260205f60448180875af19260015f51148416156119f7575060405256fea164736f6c634300081c000a",
	"gitCommit": "npm:@bananapus/project-payer-v6@1.0.1",
	"gitDirty": false,
	"history": []
}