{
	"format": "sphinx-sol-ct-artifact-1",
	"address": "0x26f2228a4e8b0079ed1c2a3d22f12ff7f83cdfba",
	"sourceName": "node_modules/@bananapus/core-v6/src/JBRulesets.sol",
	"contractName": "JBRulesets",
	"chainId": "0xa",
	"abi": [
		{
			"type": "constructor",
			"inputs": [
				{
					"name": "directory",
					"type": "address",
					"internalType": "contract IJBDirectory"
				}
			],
			"stateMutability": "nonpayable"
		},
		{
			"type": "function",
			"name": "DIRECTORY",
			"inputs": [],
			"outputs": [
				{
					"name": "",
					"type": "address",
					"internalType": "contract IJBDirectory"
				}
			],
			"stateMutability": "view"
		},
		{
			"type": "function",
			"name": "allOf",
			"inputs": [
				{
					"name": "projectId",
					"type": "uint256",
					"internalType": "uint256"
				},
				{
					"name": "startingId",
					"type": "uint256",
					"internalType": "uint256"
				},
				{
					"name": "size",
					"type": "uint256",
					"internalType": "uint256"
				}
			],
			"outputs": [
				{
					"name": "rulesets",
					"type": "tuple[]",
					"internalType": "struct JBRuleset[]",
					"components": [
						{
							"name": "cycleNumber",
							"type": "uint48",
							"internalType": "uint48"
						},
						{
							"name": "id",
							"type": "uint48",
							"internalType": "uint48"
						},
						{
							"name": "basedOnId",
							"type": "uint48",
							"internalType": "uint48"
						},
						{
							"name": "start",
							"type": "uint48",
							"internalType": "uint48"
						},
						{
							"name": "duration",
							"type": "uint32",
							"internalType": "uint32"
						},
						{
							"name": "weight",
							"type": "uint112",
							"internalType": "uint112"
						},
						{
							"name": "weightCutPercent",
							"type": "uint32",
							"internalType": "uint32"
						},
						{
							"name": "approvalHook",
							"type": "address",
							"internalType": "contract IJBRulesetApprovalHook"
						},
						{
							"name": "metadata",
							"type": "uint256",
							"internalType": "uint256"
						}
					]
				}
			],
			"stateMutability": "view"
		},
		{
			"type": "function",
			"name": "currentApprovalStatusForLatestRulesetOf",
			"inputs": [
				{
					"name": "projectId",
					"type": "uint256",
					"internalType": "uint256"
				}
			],
			"outputs": [
				{
					"name": "",
					"type": "uint8",
					"internalType": "enum JBApprovalStatus"
				}
			],
			"stateMutability": "view"
		},
		{
			"type": "function",
			"name": "currentOf",
			"inputs": [
				{
					"name": "projectId",
					"type": "uint256",
					"internalType": "uint256"
				}
			],
			"outputs": [
				{
					"name": "ruleset",
					"type": "tuple",
					"internalType": "struct JBRuleset",
					"components": [
						{
							"name": "cycleNumber",
							"type": "uint48",
							"internalType": "uint48"
						},
						{
							"name": "id",
							"type": "uint48",
							"internalType": "uint48"
						},
						{
							"name": "basedOnId",
							"type": "uint48",
							"internalType": "uint48"
						},
						{
							"name": "start",
							"type": "uint48",
							"internalType": "uint48"
						},
						{
							"name": "duration",
							"type": "uint32",
							"internalType": "uint32"
						},
						{
							"name": "weight",
							"type": "uint112",
							"internalType": "uint112"
						},
						{
							"name": "weightCutPercent",
							"type": "uint32",
							"internalType": "uint32"
						},
						{
							"name": "approvalHook",
							"type": "address",
							"internalType": "contract IJBRulesetApprovalHook"
						},
						{
							"name": "metadata",
							"type": "uint256",
							"internalType": "uint256"
						}
					]
				}
			],
			"stateMutability": "view"
		},
		{
			"type": "function",
			"name": "deriveCycleNumberFrom",
			"inputs": [
				{
					"name": "baseRulesetCycleNumber",
					"type": "uint256",
					"internalType": "uint256"
				},
				{
					"name": "baseRulesetStart",
					"type": "uint256",
					"internalType": "uint256"
				},
				{
					"name": "baseRulesetDuration",
					"type": "uint256",
					"internalType": "uint256"
				},
				{
					"name": "start",
					"type": "uint256",
					"internalType": "uint256"
				}
			],
			"outputs": [
				{
					"name": "",
					"type": "uint256",
					"internalType": "uint256"
				}
			],
			"stateMutability": "pure"
		},
		{
			"type": "function",
			"name": "deriveStartFrom",
			"inputs": [
				{
					"name": "baseRulesetStart",
					"type": "uint256",
					"internalType": "uint256"
				},
				{
					"name": "baseRulesetDuration",
					"type": "uint256",
					"internalType": "uint256"
				},
				{
					"name": "mustStartAtOrAfter",
					"type": "uint256",
					"internalType": "uint256"
				}
			],
			"outputs": [
				{
					"name": "start",
					"type": "uint256",
					"internalType": "uint256"
				}
			],
			"stateMutability": "pure"
		},
		{
			"type": "function",
			"name": "deriveWeightFrom",
			"inputs": [
				{
					"name": "projectId",
					"type": "uint256",
					"internalType": "uint256"
				},
				{
					"name": "baseRulesetStart",
					"type": "uint256",
					"internalType": "uint256"
				},
				{
					"name": "baseRulesetDuration",
					"type": "uint256",
					"internalType": "uint256"
				},
				{
					"name": "baseRulesetWeight",
					"type": "uint256",
					"internalType": "uint256"
				},
				{
					"name": "baseRulesetWeightCutPercent",
					"type": "uint256",
					"internalType": "uint256"
				},
				{
					"name": "baseRulesetCacheId",
					"type": "uint256",
					"internalType": "uint256"
				},
				{
					"name": "start",
					"type": "uint256",
					"internalType": "uint256"
				}
			],
			"outputs": [
				{
					"name": "weight",
					"type": "uint256",
					"internalType": "uint256"
				}
			],
			"stateMutability": "view"
		},
		{
			"type": "function",
			"name": "getRulesetOf",
			"inputs": [
				{
					"name": "projectId",
					"type": "uint256",
					"internalType": "uint256"
				},
				{
					"name": "rulesetId",
					"type": "uint256",
					"internalType": "uint256"
				}
			],
			"outputs": [
				{
					"name": "ruleset",
					"type": "tuple",
					"internalType": "struct JBRuleset",
					"components": [
						{
							"name": "cycleNumber",
							"type": "uint48",
							"internalType": "uint48"
						},
						{
							"name": "id",
							"type": "uint48",
							"internalType": "uint48"
						},
						{
							"name": "basedOnId",
							"type": "uint48",
							"internalType": "uint48"
						},
						{
							"name": "start",
							"type": "uint48",
							"internalType": "uint48"
						},
						{
							"name": "duration",
							"type": "uint32",
							"internalType": "uint32"
						},
						{
							"name": "weight",
							"type": "uint112",
							"internalType": "uint112"
						},
						{
							"name": "weightCutPercent",
							"type": "uint32",
							"internalType": "uint32"
						},
						{
							"name": "approvalHook",
							"type": "address",
							"internalType": "contract IJBRulesetApprovalHook"
						},
						{
							"name": "metadata",
							"type": "uint256",
							"internalType": "uint256"
						}
					]
				}
			],
			"stateMutability": "view"
		},
		{
			"type": "function",
			"name": "latestQueuedOf",
			"inputs": [
				{
					"name": "projectId",
					"type": "uint256",
					"internalType": "uint256"
				}
			],
			"outputs": [
				{
					"name": "ruleset",
					"type": "tuple",
					"internalType": "struct JBRuleset",
					"components": [
						{
							"name": "cycleNumber",
							"type": "uint48",
							"internalType": "uint48"
						},
						{
							"name": "id",
							"type": "uint48",
							"internalType": "uint48"
						},
						{
							"name": "basedOnId",
							"type": "uint48",
							"internalType": "uint48"
						},
						{
							"name": "start",
							"type": "uint48",
							"internalType": "uint48"
						},
						{
							"name": "duration",
							"type": "uint32",
							"internalType": "uint32"
						},
						{
							"name": "weight",
							"type": "uint112",
							"internalType": "uint112"
						},
						{
							"name": "weightCutPercent",
							"type": "uint32",
							"internalType": "uint32"
						},
						{
							"name": "approvalHook",
							"type": "address",
							"internalType": "contract IJBRulesetApprovalHook"
						},
						{
							"name": "metadata",
							"type": "uint256",
							"internalType": "uint256"
						}
					]
				},
				{
					"name": "approvalStatus",
					"type": "uint8",
					"internalType": "enum JBApprovalStatus"
				}
			],
			"stateMutability": "view"
		},
		{
			"type": "function",
			"name": "latestRulesetIdOf",
			"inputs": [
				{
					"name": "projectId",
					"type": "uint256",
					"internalType": "uint256"
				}
			],
			"outputs": [
				{
					"name": "",
					"type": "uint256",
					"internalType": "uint256"
				}
			],
			"stateMutability": "view"
		},
		{
			"type": "function",
			"name": "queueFor",
			"inputs": [
				{
					"name": "projectId",
					"type": "uint256",
					"internalType": "uint256"
				},
				{
					"name": "duration",
					"type": "uint256",
					"internalType": "uint256"
				},
				{
					"name": "weight",
					"type": "uint256",
					"internalType": "uint256"
				},
				{
					"name": "weightCutPercent",
					"type": "uint256",
					"internalType": "uint256"
				},
				{
					"name": "approvalHook",
					"type": "address",
					"internalType": "contract IJBRulesetApprovalHook"
				},
				{
					"name": "metadata",
					"type": "uint256",
					"internalType": "uint256"
				},
				{
					"name": "mustStartAtOrAfter",
					"type": "uint256",
					"internalType": "uint256"
				}
			],
			"outputs": [
				{
					"name": "",
					"type": "tuple",
					"internalType": "struct JBRuleset",
					"components": [
						{
							"name": "cycleNumber",
							"type": "uint48",
							"internalType": "uint48"
						},
						{
							"name": "id",
							"type": "uint48",
							"internalType": "uint48"
						},
						{
							"name": "basedOnId",
							"type": "uint48",
							"internalType": "uint48"
						},
						{
							"name": "start",
							"type": "uint48",
							"internalType": "uint48"
						},
						{
							"name": "duration",
							"type": "uint32",
							"internalType": "uint32"
						},
						{
							"name": "weight",
							"type": "uint112",
							"internalType": "uint112"
						},
						{
							"name": "weightCutPercent",
							"type": "uint32",
							"internalType": "uint32"
						},
						{
							"name": "approvalHook",
							"type": "address",
							"internalType": "contract IJBRulesetApprovalHook"
						},
						{
							"name": "metadata",
							"type": "uint256",
							"internalType": "uint256"
						}
					]
				}
			],
			"stateMutability": "nonpayable"
		},
		{
			"type": "function",
			"name": "upcomingOf",
			"inputs": [
				{
					"name": "projectId",
					"type": "uint256",
					"internalType": "uint256"
				}
			],
			"outputs": [
				{
					"name": "ruleset",
					"type": "tuple",
					"internalType": "struct JBRuleset",
					"components": [
						{
							"name": "cycleNumber",
							"type": "uint48",
							"internalType": "uint48"
						},
						{
							"name": "id",
							"type": "uint48",
							"internalType": "uint48"
						},
						{
							"name": "basedOnId",
							"type": "uint48",
							"internalType": "uint48"
						},
						{
							"name": "start",
							"type": "uint48",
							"internalType": "uint48"
						},
						{
							"name": "duration",
							"type": "uint32",
							"internalType": "uint32"
						},
						{
							"name": "weight",
							"type": "uint112",
							"internalType": "uint112"
						},
						{
							"name": "weightCutPercent",
							"type": "uint32",
							"internalType": "uint32"
						},
						{
							"name": "approvalHook",
							"type": "address",
							"internalType": "contract IJBRulesetApprovalHook"
						},
						{
							"name": "metadata",
							"type": "uint256",
							"internalType": "uint256"
						}
					]
				}
			],
			"stateMutability": "view"
		},
		{
			"type": "function",
			"name": "updateRulesetWeightCache",
			"inputs": [
				{
					"name": "projectId",
					"type": "uint256",
					"internalType": "uint256"
				},
				{
					"name": "rulesetId",
					"type": "uint256",
					"internalType": "uint256"
				}
			],
			"outputs": [],
			"stateMutability": "nonpayable"
		},
		{
			"type": "event",
			"name": "RulesetInitialized",
			"inputs": [
				{
					"name": "rulesetId",
					"type": "uint256",
					"indexed": true,
					"internalType": "uint256"
				},
				{
					"name": "projectId",
					"type": "uint256",
					"indexed": true,
					"internalType": "uint256"
				},
				{
					"name": "basedOnId",
					"type": "uint256",
					"indexed": true,
					"internalType": "uint256"
				},
				{
					"name": "caller",
					"type": "address",
					"indexed": false,
					"internalType": "address"
				}
			],
			"anonymous": false
		},
		{
			"type": "event",
			"name": "RulesetQueued",
			"inputs": [
				{
					"name": "rulesetId",
					"type": "uint256",
					"indexed": true,
					"internalType": "uint256"
				},
				{
					"name": "projectId",
					"type": "uint256",
					"indexed": true,
					"internalType": "uint256"
				},
				{
					"name": "duration",
					"type": "uint256",
					"indexed": false,
					"internalType": "uint256"
				},
				{
					"name": "weight",
					"type": "uint256",
					"indexed": false,
					"internalType": "uint256"
				},
				{
					"name": "weightCutPercent",
					"type": "uint256",
					"indexed": false,
					"internalType": "uint256"
				},
				{
					"name": "approvalHook",
					"type": "address",
					"indexed": false,
					"internalType": "contract IJBRulesetApprovalHook"
				},
				{
					"name": "metadata",
					"type": "uint256",
					"indexed": false,
					"internalType": "uint256"
				},
				{
					"name": "mustStartAtOrAfter",
					"type": "uint256",
					"indexed": false,
					"internalType": "uint256"
				},
				{
					"name": "caller",
					"type": "address",
					"indexed": false,
					"internalType": "address"
				}
			],
			"anonymous": false
		},
		{
			"type": "event",
			"name": "WeightCacheUpdated",
			"inputs": [
				{
					"name": "projectId",
					"type": "uint256",
					"indexed": false,
					"internalType": "uint256"
				},
				{
					"name": "weight",
					"type": "uint112",
					"indexed": false,
					"internalType": "uint112"
				},
				{
					"name": "weightCutMultiple",
					"type": "uint256",
					"indexed": false,
					"internalType": "uint256"
				},
				{
					"name": "caller",
					"type": "address",
					"indexed": false,
					"internalType": "address"
				}
			],
			"anonymous": false
		},
		{
			"type": "error",
			"name": "JBControlled_ControllerUnauthorized",
			"inputs": [
				{
					"name": "controller",
					"type": "address",
					"internalType": "address"
				}
			]
		},
		{
			"type": "error",
			"name": "JBRulesets_InvalidRulesetApprovalHook",
			"inputs": [
				{
					"name": "hook",
					"type": "address",
					"internalType": "contract IJBRulesetApprovalHook"
				}
			]
		},
		{
			"type": "error",
			"name": "JBRulesets_InvalidRulesetDuration",
			"inputs": [
				{
					"name": "duration",
					"type": "uint256",
					"internalType": "uint256"
				},
				{
					"name": "limit",
					"type": "uint256",
					"internalType": "uint256"
				}
			]
		},
		{
			"type": "error",
			"name": "JBRulesets_InvalidRulesetEndTime",
			"inputs": [
				{
					"name": "timestamp",
					"type": "uint256",
					"internalType": "uint256"
				},
				{
					"name": "limit",
					"type": "uint256",
					"internalType": "uint256"
				}
			]
		},
		{
			"type": "error",
			"name": "JBRulesets_InvalidWeight",
			"inputs": [
				{
					"name": "weight",
					"type": "uint256",
					"internalType": "uint256"
				},
				{
					"name": "limit",
					"type": "uint256",
					"internalType": "uint256"
				}
			]
		},
		{
			"type": "error",
			"name": "JBRulesets_InvalidWeightCutPercent",
			"inputs": [
				{
					"name": "percent",
					"type": "uint256",
					"internalType": "uint256"
				}
			]
		},
		{
			"type": "error",
			"name": "JBRulesets_WeightCacheRequired",
			"inputs": [
				{
					"name": "projectId",
					"type": "uint256",
					"internalType": "uint256"
				}
			]
		},
		{
			"type": "error",
			"name": "PRBMath_MulDiv_Overflow",
			"inputs": [
				{
					"name": "x",
					"type": "uint256",
					"internalType": "uint256"
				},
				{
					"name": "y",
					"type": "uint256",
					"internalType": "uint256"
				},
				{
					"name": "denominator",
					"type": "uint256",
					"internalType": "uint256"
				}
			]
		}
	],
	"args": [
		"0x5AfF29060E023e6FB87BE5596652B33c65Af535B"
	],
	"solcInputHash": "4397a4dfd435f1143a153abcaffa19a0",
	"bytecode": "0x60a0604052348015600e575f5ffd5b50604051611e47380380611e47833981016040819052602b91603b565b6001600160a01b03166080526066565b5f60208284031215604a575f5ffd5b81516001600160a01b0381168114605f575f5ffd5b9392505050565b608051611dc26100855f395f81816101a601526114420152611dc25ff3fe608060405234801561000f575f5ffd5b50600436106100cb575f3560e01c806370174dcc11610088578063bfc48c9e11610063578063bfc48c9e146101e0578063d7e1ec88146101f3578063f3532c7914610213578063fe81dd8014610228575f5ffd5b806370174dcc1461016d578063855a54ed1461018057806388bc2ef3146101a1575f5ffd5b80631b9b2e5f146100cf57806325a61d5c146100f55780632e6bc58a1461011557806333f5bd0a1461012857806343a266c214610147578063441c0cc51461015a575b5f5ffd5b6100e26100dd366004611963565b610248565b6040519081526020015b60405180910390f35b610108610103366004611992565b61028f565b6040516100ec9190611a76565b610108610123366004611a85565b6102aa565b6100e2610136366004611a85565b5f6020819052908152604090205481565b610108610155366004611a85565b610475565b6100e2610168366004611a9c565b6105f4565b61010861017b366004611afa565b610745565b61019361018e366004611a85565b610a6d565b6040516100ec929190611b88565b6101c87f000000000000000000000000000000000000000000000000000000000000000081565b6040516001600160a01b0390911681526020016100ec565b6100e26101ee366004611ba5565b610aa3565b610206610201366004611a85565b610b14565b6040516100ec9190611bce565b610226610221366004611992565b610b3b565b005b61023b610236366004611ba5565b610d0a565b6040516100ec9190611bdc565b5f825f036102625761025b856001611c3e565b9050610287565b5f61026d8584611c51565b90506102798482611c78565b6102839087611c3e565b9150505b949350505050565b610297611918565b6102a383836001610e53565b9392505050565b6102b2611918565b5f8281526020819052604081205490036102d7576102d15f5f5f610e53565b92915050565b5f6102e183610f28565b90505f811561037b576102f684836001610e53565b9250610302848461102d565b9050600481600581111561031857610318611b54565b14806103355750600381600581111561033357610333611b54565b145b8061035057505f81600581111561034e5761034e611b54565b145b1561035c575050919050565b61037484846040015165ffffffffffff166001610e53565b92506103cc565b5f848152602081905260409020546103969085906001610e53565b92505b42836060015165ffffffffffff1611156103cc576103c584846040015165ffffffffffff166001610e53565b9250610399565b826080015163ffffffff165f036103e8576102875f5f5f610e53565b6103f2848461102d565b9050600481600581111561040857610408611b54565b148061042457505f81600581111561042257610422611b54565b145b156104345761028784845f611105565b61044c84846040015165ffffffffffff166001610e53565b9250826080015163ffffffff165f0361046a576102875f5f5f610e53565b61028784845f611105565b61047d611918565b5f82815260208190526040812054900361049c576102d15f5f5f610e53565b5f6104a68361129d565b90508015610528576104ba83826001610e53565b91505f6104c7848461102d565b905060048160058111156104dd576104dd611b54565b14806104f957505f8160058111156104f7576104f7611b54565b145b15610505575050919050565b826040015165ffffffffffff16915061052084836001610e53565b9250506105d1565b505f8281526020819052604090205461054383826001610e53565b91505f610550848461102d565b90505b600481600581111561056757610567611b54565b1415801561058657505f81600581111561058357610583611b54565b14155b8061059c5750826060015165ffffffffffff1642105b156105cf57826040015165ffffffffffff1691506105bc84836001610e53565b92506105c8848461102d565b9050610553565b505b816080015163ffffffff165f036105e85750919050565b6102a383836001611105565b5f855f0361061f576106188561060e86633b9aca00611c51565b633b9aca0061135b565b905061073a565b5083831561073a575f6106328884611c51565b90505f87828161064457610644611c64565b0490505f851180156106575750614e2081115b156106ce575f8a8152600460209081526040808320888452825291829020825180840190935280546001600160701b03168352600101546001600160a81b0316908201819052156106cc57805160208201516001600160701b0390911694506106c9906001600160a81b031683611c51565b91505b505b614e208111156106f95760405163421a685360e01b8152600481018b90526024015b60405180910390fd5b5f61070887633b9aca00611c51565b9050633b9aca005f5b838110156107345761072486848461135b565b9550851561073457600101610711565b50505050505b979650505050505050565b61074d611918565b876107578161142a565b63ffffffff88111561078957604051638444f64b60e01b81526004810189905263ffffffff60248201526044016106f0565b633b9aca008611156107b1576040516321e5c74960e21b8152600481018790526024016106f0565b6001600160701b038711156107e957604051632dd7f24160e01b8152600481018890526001600160701b0360248201526044016106f0565b825f036107f4574292505b65ffffffffffff6108058985611c3e565b111561083e576108158884611c3e565b604051632ce261d560e21b8152600481019190915265ffffffffffff60248201526044016106f0565b6001600160a01b0385161561093c57846001600160a01b03163b5f036108825760405163045b9cdd60e31b81526001600160a01b03861660048201526024016106f0565b6040516301ffc9a760e01b8152630c0dbbf160e21b60048201526001600160a01b038616906301ffc9a790602401602060405180830381865afa9250505080156108e9575060408051601f3d908101601f191682019092526108e691810190611c8b565b60015b6109115760405163045b9cdd60e31b81526001600160a01b03861660048201526024016106f0565b8061093a5760405163045b9cdd60e31b81526001600160a01b03871660048201526024016106f0565b505b5f8981526020819052604081205490428210156109595742610964565b610964826001611c3e565b90506109728b828b886114ed565b6001600160a01b03871615158061098857505f8a115b8061099257505f88115b156109c8575f8b8152600360209081526040808320848452909152902060c089901b60a08c901b6001600160a01b038a16171790555b85156109ea575f8b815260016020908152604080832084845290915290208690555b604080518b8152602081018b90529081018990526001600160a01b03881660608201526080810187905260a081018690523360c08201528b9082907f11a490bebff1beffe4bdd210894aca6ea5049427ce4b3c48865717677199cb079060e00160405180910390a3610a5e8b826001610e53565b9b9a5050505050505050505050565b610a75611918565b5f82815260208190526040812054610a8f84826001610e53565b9250610a9b848461102d565b915050915091565b5f825f03610ab25750806102a3565b5f610abd8486611c3e565b9050828110610acd5790506102a3565b5f84610ad98386611c51565b610ae39190611caa565b9050610aef8185611c51565b92505b82841115610b0b57610b048584611c3e565b9250610af2565b50509392505050565b5f8181526020819052604081205481610b2f84836001610e53565b9050610287848261102d565b5f610b4783835f610e53565b9050806080015163ffffffff165f1480610b69575060c081015163ffffffff16155b15610b7357505050565b5f8381526004602090815260408083208483015165ffffffffffff16845290915281206080830151600182015491929163ffffffff90911690610bc290614e20906001600160a81b0316611c3e565b610bcc9190611cbd565b836060015165ffffffffffff16610be39190611c3e565b90505f814210610bf35781610bf5565b425b90505f846060015165ffffffffffff1682610c109190611c51565b90505f856080015163ffffffff168281610c2c57610c2c611c64565b049050610c7788876060015165ffffffffffff16886080015163ffffffff168960a001516001600160701b03168a60c0015163ffffffff168b6020015165ffffffffffff16896105f4565b85546dffffffffffffffffffffffffffff19166001600160701b039190911690811786556001860180546001600160a81b0319166001600160a81b038416908117909155604080518b815260208101939093528201523360608201527f10eae80a31644a6399eaac72c95b18a77049f4192107734621f4cdce85b457729060800160405180910390a15050505050505050565b6060825f03610d24575f8481526020819052604090205492505b5f80610d31868683610e53565b90505b602081015165ffffffffffff1615801590610d4e57508382105b15610d7e5781610d5d81611cd4565b925050610d7786826040015165ffffffffffff165f610e53565b9050610d34565b8167ffffffffffffffff811115610d9757610d97611cec565b604051908082528060200260200182016040528015610dd057816020015b610dbd611918565b815260200190600190039081610db55790505b509250815f03610de15750506102a3565b610ded86866001610e53565b90505f5b82811015610e4957818482610e0581611cd4565b935081518110610e1757610e17611d00565b6020026020010181905250828114610e4457610e4187836040015165ffffffffffff166001610e53565b91505b610df1565b5050509392505050565b610e5b611918565b82156102a35765ffffffffffff8381166020838101919091525f8681526002825260408082208783528352808220546001600160701b03811660a080880191909152607082901c86168388015281811c909516606087015260d081901c8652888352600384528183208884529093529020546001600160a01b03811660e08501529182901c63ffffffff908116608085015260c083811c90911690840152908315610b0b575f86815260016020908152604080832088845290915290205461010084015250509392505050565b5f8181526020819052604081205490610f42838383610e53565b9050806060015165ffffffffffff164210610f5f57505f92915050565b805165ffffffffffff16600103610f765750919050565b604081015165ffffffffffff16610f8b611918565b610f9685835f610e53565b9050806060015165ffffffffffff16421015610fcf57806020015165ffffffffffff169350806040015165ffffffffffff169150610f8b565b610fda85855f610e53565b9250806080015163ffffffff165f141580156110165750806080015163ffffffff16836060015161100b9190611d14565b65ffffffffffff1642105b1561102557505f949350505050565b505050919050565b5f816040015165ffffffffffff165f0361104857505f6102d1565b5f8381526003602090815260408083208582015165ffffffffffff168452909152902054806001600160a01b038116611085575f925050506102d1565b604051632bd6bd4d60e01b81526001600160a01b03821690632bd6bd4d906110b39088908890600401611d32565b602060405180830381865afa9250505080156110ec575060408051601f3d908101601f191682019092526110e991810190611d47565b60015b6110fb576005925050506102d1565b92506102d1915050565b61110d611918565b5f82156111525742846080015163ffffffff16101561114b57608084015161113b9063ffffffff1642611c51565b611146906001611c3e565b61115d565b600161115d565b61115d426001611c3e565b90505f611181856060015165ffffffffffff16866080015163ffffffff1684610aa3565b90505f6111b1865f015165ffffffffffff16876060015165ffffffffffff16886080015163ffffffff1685610248565b90506040518061012001604052808265ffffffffffff168152602001876020015165ffffffffffff168152602001876040015165ffffffffffff1681526020018365ffffffffffff168152602001876080015163ffffffff16815260200161125789896060015165ffffffffffff168a6080015163ffffffff168b60a001516001600160701b03168c60c0015163ffffffff168d6020015165ffffffffffff168a6105f4565b6001600160701b031681526020018760c0015163ffffffff1681526020018760e001516001600160a01b0316815260200187610100015181525093505050509392505050565b5f81815260208190526040812054816112b7848383610e53565b90505b608081015163ffffffff16158015906112f45750806080015163ffffffff1681606001516112e89190611d65565b65ffffffffffff164210155b1561130257505f9392505050565b806060015165ffffffffffff164210611328576020015165ffffffffffff169392505050565b61133f84826040015165ffffffffffff165f610e53565b805190915065ffffffffffff165f036112ba57505f9392505050565b5f80805f19858709858702925082811083820303915050805f036113925783828161138857611388611c64565b04925050506102a3565b8381106113c357604051630c740aef60e31b81526004810187905260248101869052604481018590526064016106f0565b5f8486880960026001871981018816978890046003810283188082028403028082028403028082028403028082028403028082028403029081029092039091025f889003889004909101858311909403939093029303949094049190911702949350505050565b604051632eec7b5560e11b8152600481018290525f907f00000000000000000000000000000000000000000000000000000000000000006001600160a01b031690635dd8f6aa90602401602060405180830381865afa15801561148f573d5f5f3e3d5ffd5b505050506040513d601f19601f820116820180604052508101906114b39190611d83565b90506001600160a01b03811633146114e957604051639a007b3960e01b81526001600160a01b03821660048201526024016106f0565b5050565b5f84815260208190526040812054908190036115205761151a856115125f5f5f610e53565b868587611776565b50611770565b5f61152d86836001610e53565b90505f61153a878361102d565b9050816060015165ffffffffffff16421015801561156a5750600481600581111561156757611567611b54565b14155b801561158757505f81600581111561158457611584611b54565b14155b806115e65750816060015165ffffffffffff16421080156115c85750816080015163ffffffff1682606001516115bd9190611d65565b65ffffffffffff1684105b80156115e6575060048160058111156115e3576115e3611b54565b14155b806116815750816060015165ffffffffffff16421080156116285750816080015163ffffffff16826060015161161c9190611d65565b65ffffffffffff168410155b80156116465750600481600581111561164357611643611b54565b14155b80156116645750600381600581111561166157611661611b54565b14155b801561168157505f81600581111561167e5761167e611b54565b14155b156116a05761169d87836040015165ffffffffffff165f610e53565b91505b83826060015165ffffffffffff1611156116c457816060015165ffffffffffff1693505b60e08201515f906001600160a01b031615611750578260e001516001600160a01b0316631be052896040518163ffffffff1660e01b8152600401602060405180830381865afa925050508015611737575060408051601f3d908101601f1916820190925261173491810190611d9e565b60015b61174257505f611750565b61174c8189611c3e565b9150505b61176b8884898885116117635788611765565b845b8a611776565b505050505b50505050565b835165ffffffffffff165f036117cc576020808501515f8781526002835260408082208783529093529190912065ffffffffffff60701b60709290921b91909116821760a084901b17600160d01b1790556118bc565b5f6117ee856060015165ffffffffffff16866080015163ffffffff1685610aa3565b9050816001146117fe5781611846565b61184686866060015165ffffffffffff16876080015163ffffffff168860a001516001600160701b03168960c0015163ffffffff168a6020015165ffffffffffff16876105f4565b91505f611876865f015165ffffffffffff16876060015165ffffffffffff16886080015163ffffffff1685610248565b6020808801515f8a81526002835260408082208a83529093529190912065ffffffffffff60701b60709290921b91909116851760a085901b1760d083901b179055905050505b5f858152602081815260409182902085905585810151915133815265ffffffffffff90921691879186917f470520533918800d64f06ee1795a39e90ff3c27a15350a235e17bd23698a470e910160405180910390a45050505050565b60408051610120810182525f80825260208201819052918101829052606081018290526080810182905260a0810182905260c0810182905260e0810182905261010081019190915290565b5f5f5f5f60808587031215611976575f5ffd5b5050823594602084013594506040840135936060013592509050565b5f5f604083850312156119a3575f5ffd5b50508035926020909101359150565b65ffffffffffff815116825265ffffffffffff602082015116602083015260408101516119e9604084018265ffffffffffff169052565b506060810151611a03606084018265ffffffffffff169052565b506080810151611a1b608084018263ffffffff169052565b5060a0810151611a3660a08401826001600160701b03169052565b5060c0810151611a4e60c084018263ffffffff169052565b5060e0810151611a6960e08401826001600160a01b03169052565b5061010090810151910152565b61012081016102d182846119b2565b5f60208284031215611a95575f5ffd5b5035919050565b5f5f5f5f5f5f5f60e0888a031215611ab2575f5ffd5b505085359760208701359750604087013596606081013596506080810135955060a0810135945060c0013592509050565b6001600160a01b0381168114611af7575f5ffd5b50565b5f5f5f5f5f5f5f60e0888a031215611b10575f5ffd5b873596506020880135955060408801359450606088013593506080880135611b3781611ae3565b9699959850939692959460a0840135945060c09093013592915050565b634e487b7160e01b5f52602160045260245ffd5b60068110611b8457634e487b7160e01b5f52602160045260245ffd5b9052565b6101408101611b9782856119b2565b6102a3610120830184611b68565b5f5f5f60608486031215611bb7575f5ffd5b505081359360208301359350604090920135919050565b602081016102d18284611b68565b602080825282518282018190525f918401906040840190835b81811015611c1f57611c088385516119b2565b602093909301926101209290920191600101611bf5565b509095945050505050565b634e487b7160e01b5f52601160045260245ffd5b808201808211156102d1576102d1611c2a565b818103818111156102d1576102d1611c2a565b634e487b7160e01b5f52601260045260245ffd5b5f82611c8657611c86611c64565b500490565b5f60208284031215611c9b575f5ffd5b815180151581146102a3575f5ffd5b5f82611cb857611cb8611c64565b500690565b80820281158282048414176102d1576102d1611c2a565b5f60018201611ce557611ce5611c2a565b5060010190565b634e487b7160e01b5f52604160045260245ffd5b634e487b7160e01b5f52603260045260245ffd5b65ffffffffffff82811682821603908111156102d1576102d1611c2a565b82815261014081016102a360208301846119b2565b5f60208284031215611d57575f5ffd5b8151600681106102a3575f5ffd5b65ffffffffffff81811683821601908111156102d1576102d1611c2a565b5f60208284031215611d93575f5ffd5b81516102a381611ae3565b5f60208284031215611dae575f5ffd5b505191905056fea164736f6c634300081c000a",
	"gitCommit": "npm:@bananapus/core-v6@1.0.2",
	"gitDirty": false,
	"history": []
}