{
	"format": "sphinx-sol-ct-artifact-1",
	"address": "0xa0cefa58fd913c1838c39b2c3d0b08eb7f5d6d53",
	"sourceName": "node_modules/@ballkidz/defifa/src/DefifaGovernor.sol",
	"contractName": "DefifaGovernor",
	"chainId": "0x2105",
	"abi": [
		{
			"type": "constructor",
			"inputs": [
				{
					"name": "controller",
					"type": "address",
					"internalType": "contract IJBController"
				},
				{
					"name": "owner",
					"type": "address",
					"internalType": "address"
				}
			],
			"stateMutability": "nonpayable"
		},
		{
			"type": "function",
			"name": "CONTROLLER",
			"inputs": [],
			"outputs": [
				{
					"name": "",
					"type": "address",
					"internalType": "contract IJBController"
				}
			],
			"stateMutability": "view"
		},
		{
			"type": "function",
			"name": "MAX_ATTESTATION_POWER_TIER",
			"inputs": [],
			"outputs": [
				{
					"name": "",
					"type": "uint256",
					"internalType": "uint256"
				}
			],
			"stateMutability": "view"
		},
		{
			"type": "function",
			"name": "MIN_ATTESTATION_GRACE_PERIOD",
			"inputs": [],
			"outputs": [
				{
					"name": "",
					"type": "uint256",
					"internalType": "uint256"
				}
			],
			"stateMutability": "view"
		},
		{
			"type": "function",
			"name": "attestToScorecardFrom",
			"inputs": [
				{
					"name": "gameId",
					"type": "uint256",
					"internalType": "uint256"
				},
				{
					"name": "scorecardId",
					"type": "uint256",
					"internalType": "uint256"
				}
			],
			"outputs": [
				{
					"name": "weight",
					"type": "uint256",
					"internalType": "uint256"
				}
			],
			"stateMutability": "nonpayable"
		},
		{
			"type": "function",
			"name": "attestationCountOf",
			"inputs": [
				{
					"name": "gameId",
					"type": "uint256",
					"internalType": "uint256"
				},
				{
					"name": "scorecardId",
					"type": "uint256",
					"internalType": "uint256"
				}
			],
			"outputs": [
				{
					"name": "",
					"type": "uint256",
					"internalType": "uint256"
				}
			],
			"stateMutability": "view"
		},
		{
			"type": "function",
			"name": "attestationGracePeriodOf",
			"inputs": [
				{
					"name": "gameId",
					"type": "uint256",
					"internalType": "uint256"
				}
			],
			"outputs": [
				{
					"name": "",
					"type": "uint256",
					"internalType": "uint256"
				}
			],
			"stateMutability": "view"
		},
		{
			"type": "function",
			"name": "attestationStartTimeOf",
			"inputs": [
				{
					"name": "gameId",
					"type": "uint256",
					"internalType": "uint256"
				}
			],
			"outputs": [
				{
					"name": "",
					"type": "uint256",
					"internalType": "uint256"
				}
			],
			"stateMutability": "view"
		},
		{
			"type": "function",
			"name": "defaultAttestationDelegateProposalOf",
			"inputs": [
				{
					"name": "",
					"type": "uint256",
					"internalType": "uint256"
				}
			],
			"outputs": [
				{
					"name": "",
					"type": "uint256",
					"internalType": "uint256"
				}
			],
			"stateMutability": "view"
		},
		{
			"type": "function",
			"name": "getAttestationWeight",
			"inputs": [
				{
					"name": "gameId",
					"type": "uint256",
					"internalType": "uint256"
				},
				{
					"name": "account",
					"type": "address",
					"internalType": "address"
				},
				{
					"name": "timestamp",
					"type": "uint48",
					"internalType": "uint48"
				}
			],
			"outputs": [
				{
					"name": "attestationPower",
					"type": "uint256",
					"internalType": "uint256"
				}
			],
			"stateMutability": "view"
		},
		{
			"type": "function",
			"name": "getBWAAttestationWeight",
			"inputs": [
				{
					"name": "gameId",
					"type": "uint256",
					"internalType": "uint256"
				},
				{
					"name": "scorecardId",
					"type": "uint256",
					"internalType": "uint256"
				},
				{
					"name": "account",
					"type": "address",
					"internalType": "address"
				},
				{
					"name": "timestamp",
					"type": "uint48",
					"internalType": "uint48"
				}
			],
			"outputs": [
				{
					"name": "bwaAttestationPower",
					"type": "uint256",
					"internalType": "uint256"
				}
			],
			"stateMutability": "view"
		},
		{
			"type": "function",
			"name": "hasAttestedTo",
			"inputs": [
				{
					"name": "gameId",
					"type": "uint256",
					"internalType": "uint256"
				},
				{
					"name": "scorecardId",
					"type": "uint256",
					"internalType": "uint256"
				},
				{
					"name": "account",
					"type": "address",
					"internalType": "address"
				}
			],
			"outputs": [
				{
					"name": "",
					"type": "bool",
					"internalType": "bool"
				}
			],
			"stateMutability": "view"
		},
		{
			"type": "function",
			"name": "initializeGame",
			"inputs": [
				{
					"name": "gameId",
					"type": "uint256",
					"internalType": "uint256"
				},
				{
					"name": "attestationStartTime",
					"type": "uint256",
					"internalType": "uint256"
				},
				{
					"name": "attestationGracePeriod",
					"type": "uint256",
					"internalType": "uint256"
				},
				{
					"name": "timelockDuration",
					"type": "uint256",
					"internalType": "uint256"
				}
			],
			"outputs": [],
			"stateMutability": "nonpayable"
		},
		{
			"type": "function",
			"name": "owner",
			"inputs": [],
			"outputs": [
				{
					"name": "",
					"type": "address",
					"internalType": "address"
				}
			],
			"stateMutability": "view"
		},
		{
			"type": "function",
			"name": "quorum",
			"inputs": [
				{
					"name": "gameId",
					"type": "uint256",
					"internalType": "uint256"
				}
			],
			"outputs": [
				{
					"name": "",
					"type": "uint256",
					"internalType": "uint256"
				}
			],
			"stateMutability": "view"
		},
		{
			"type": "function",
			"name": "ratifiedScorecardIdOf",
			"inputs": [
				{
					"name": "",
					"type": "uint256",
					"internalType": "uint256"
				}
			],
			"outputs": [
				{
					"name": "",
					"type": "uint256",
					"internalType": "uint256"
				}
			],
			"stateMutability": "view"
		},
		{
			"type": "function",
			"name": "ratifyScorecardFrom",
			"inputs": [
				{
					"name": "gameId",
					"type": "uint256",
					"internalType": "uint256"
				},
				{
					"name": "tierWeights",
					"type": "tuple[]",
					"internalType": "struct DefifaTierCashOutWeight[]",
					"components": [
						{
							"name": "id",
							"type": "uint256",
							"internalType": "uint256"
						},
						{
							"name": "cashOutWeight",
							"type": "uint256",
							"internalType": "uint256"
						}
					]
				}
			],
			"outputs": [
				{
					"name": "scorecardId",
					"type": "uint256",
					"internalType": "uint256"
				}
			],
			"stateMutability": "nonpayable"
		},
		{
			"type": "function",
			"name": "renounceOwnership",
			"inputs": [],
			"outputs": [],
			"stateMutability": "nonpayable"
		},
		{
			"type": "function",
			"name": "revokeAttestationFrom",
			"inputs": [
				{
					"name": "gameId",
					"type": "uint256",
					"internalType": "uint256"
				},
				{
					"name": "scorecardId",
					"type": "uint256",
					"internalType": "uint256"
				}
			],
			"outputs": [],
			"stateMutability": "nonpayable"
		},
		{
			"type": "function",
			"name": "scorecardIdOf",
			"inputs": [
				{
					"name": "gameHook",
					"type": "address",
					"internalType": "address"
				},
				{
					"name": "tierWeights",
					"type": "tuple[]",
					"internalType": "struct DefifaTierCashOutWeight[]",
					"components": [
						{
							"name": "id",
							"type": "uint256",
							"internalType": "uint256"
						},
						{
							"name": "cashOutWeight",
							"type": "uint256",
							"internalType": "uint256"
						}
					]
				}
			],
			"outputs": [
				{
					"name": "",
					"type": "uint256",
					"internalType": "uint256"
				}
			],
			"stateMutability": "pure"
		},
		{
			"type": "function",
			"name": "stateOf",
			"inputs": [
				{
					"name": "gameId",
					"type": "uint256",
					"internalType": "uint256"
				},
				{
					"name": "scorecardId",
					"type": "uint256",
					"internalType": "uint256"
				}
			],
			"outputs": [
				{
					"name": "",
					"type": "uint8",
					"internalType": "enum DefifaScorecardState"
				}
			],
			"stateMutability": "view"
		},
		{
			"type": "function",
			"name": "submitScorecardFor",
			"inputs": [
				{
					"name": "gameId",
					"type": "uint256",
					"internalType": "uint256"
				},
				{
					"name": "tierWeights",
					"type": "tuple[]",
					"internalType": "struct DefifaTierCashOutWeight[]",
					"components": [
						{
							"name": "id",
							"type": "uint256",
							"internalType": "uint256"
						},
						{
							"name": "cashOutWeight",
							"type": "uint256",
							"internalType": "uint256"
						}
					]
				}
			],
			"outputs": [
				{
					"name": "scorecardId",
					"type": "uint256",
					"internalType": "uint256"
				}
			],
			"stateMutability": "nonpayable"
		},
		{
			"type": "function",
			"name": "timelockDurationOf",
			"inputs": [
				{
					"name": "gameId",
					"type": "uint256",
					"internalType": "uint256"
				}
			],
			"outputs": [
				{
					"name": "",
					"type": "uint256",
					"internalType": "uint256"
				}
			],
			"stateMutability": "view"
		},
		{
			"type": "function",
			"name": "transferOwnership",
			"inputs": [
				{
					"name": "newOwner",
					"type": "address",
					"internalType": "address"
				}
			],
			"outputs": [],
			"stateMutability": "nonpayable"
		},
		{
			"type": "event",
			"name": "AttestationRevoked",
			"inputs": [
				{
					"name": "gameId",
					"type": "uint256",
					"indexed": true,
					"internalType": "uint256"
				},
				{
					"name": "scorecardId",
					"type": "uint256",
					"indexed": true,
					"internalType": "uint256"
				},
				{
					"name": "account",
					"type": "address",
					"indexed": false,
					"internalType": "address"
				},
				{
					"name": "weight",
					"type": "uint256",
					"indexed": false,
					"internalType": "uint256"
				},
				{
					"name": "caller",
					"type": "address",
					"indexed": false,
					"internalType": "address"
				}
			],
			"anonymous": false
		},
		{
			"type": "event",
			"name": "GameInitialized",
			"inputs": [
				{
					"name": "gameId",
					"type": "uint256",
					"indexed": true,
					"internalType": "uint256"
				},
				{
					"name": "attestationStartTime",
					"type": "uint256",
					"indexed": false,
					"internalType": "uint256"
				},
				{
					"name": "attestationGracePeriod",
					"type": "uint256",
					"indexed": false,
					"internalType": "uint256"
				},
				{
					"name": "timelockDuration",
					"type": "uint256",
					"indexed": false,
					"internalType": "uint256"
				},
				{
					"name": "caller",
					"type": "address",
					"indexed": false,
					"internalType": "address"
				}
			],
			"anonymous": false
		},
		{
			"type": "event",
			"name": "OwnershipTransferred",
			"inputs": [
				{
					"name": "previousOwner",
					"type": "address",
					"indexed": true,
					"internalType": "address"
				},
				{
					"name": "newOwner",
					"type": "address",
					"indexed": true,
					"internalType": "address"
				}
			],
			"anonymous": false
		},
		{
			"type": "event",
			"name": "ScorecardAttested",
			"inputs": [
				{
					"name": "gameId",
					"type": "uint256",
					"indexed": true,
					"internalType": "uint256"
				},
				{
					"name": "scorecardId",
					"type": "uint256",
					"indexed": true,
					"internalType": "uint256"
				},
				{
					"name": "weight",
					"type": "uint256",
					"indexed": false,
					"internalType": "uint256"
				},
				{
					"name": "caller",
					"type": "address",
					"indexed": false,
					"internalType": "address"
				}
			],
			"anonymous": false
		},
		{
			"type": "event",
			"name": "ScorecardRatified",
			"inputs": [
				{
					"name": "gameId",
					"type": "uint256",
					"indexed": true,
					"internalType": "uint256"
				},
				{
					"name": "scorecardId",
					"type": "uint256",
					"indexed": true,
					"internalType": "uint256"
				},
				{
					"name": "caller",
					"type": "address",
					"indexed": false,
					"internalType": "address"
				}
			],
			"anonymous": false
		},
		{
			"type": "event",
			"name": "ScorecardSubmitted",
			"inputs": [
				{
					"name": "gameId",
					"type": "uint256",
					"indexed": true,
					"internalType": "uint256"
				},
				{
					"name": "scorecardId",
					"type": "uint256",
					"indexed": true,
					"internalType": "uint256"
				},
				{
					"name": "tierWeights",
					"type": "tuple[]",
					"indexed": false,
					"internalType": "struct DefifaTierCashOutWeight[]",
					"components": [
						{
							"name": "id",
							"type": "uint256",
							"internalType": "uint256"
						},
						{
							"name": "cashOutWeight",
							"type": "uint256",
							"internalType": "uint256"
						}
					]
				},
				{
					"name": "isDefaultAttestationDelegate",
					"type": "bool",
					"indexed": false,
					"internalType": "bool"
				},
				{
					"name": "caller",
					"type": "address",
					"indexed": false,
					"internalType": "address"
				}
			],
			"anonymous": false
		},
		{
			"type": "error",
			"name": "DefifaGovernor_AlreadyAttested",
			"inputs": [
				{
					"name": "gameId",
					"type": "uint256",
					"internalType": "uint256"
				},
				{
					"name": "scorecardId",
					"type": "uint256",
					"internalType": "uint256"
				},
				{
					"name": "account",
					"type": "address",
					"internalType": "address"
				}
			]
		},
		{
			"type": "error",
			"name": "DefifaGovernor_AlreadyInitialized",
			"inputs": [
				{
					"name": "gameId",
					"type": "uint256",
					"internalType": "uint256"
				}
			]
		},
		{
			"type": "error",
			"name": "DefifaGovernor_AlreadyRatified",
			"inputs": [
				{
					"name": "gameId",
					"type": "uint256",
					"internalType": "uint256"
				},
				{
					"name": "scorecardId",
					"type": "uint256",
					"internalType": "uint256"
				}
			]
		},
		{
			"type": "error",
			"name": "DefifaGovernor_DuplicateScorecard",
			"inputs": [
				{
					"name": "gameId",
					"type": "uint256",
					"internalType": "uint256"
				},
				{
					"name": "scorecardId",
					"type": "uint256",
					"internalType": "uint256"
				}
			]
		},
		{
			"type": "error",
			"name": "DefifaGovernor_GameNotFound",
			"inputs": [
				{
					"name": "gameId",
					"type": "uint256",
					"internalType": "uint256"
				}
			]
		},
		{
			"type": "error",
			"name": "DefifaGovernor_GracePeriodTooShort",
			"inputs": [
				{
					"name": "gracePeriod",
					"type": "uint256",
					"internalType": "uint256"
				},
				{
					"name": "minGracePeriod",
					"type": "uint256",
					"internalType": "uint256"
				}
			]
		},
		{
			"type": "error",
			"name": "DefifaGovernor_NotAllowed",
			"inputs": [
				{
					"name": "gameId",
					"type": "uint256",
					"internalType": "uint256"
				},
				{
					"name": "scorecardId",
					"type": "uint256",
					"internalType": "uint256"
				},
				{
					"name": "caller",
					"type": "address",
					"internalType": "address"
				}
			]
		},
		{
			"type": "error",
			"name": "DefifaGovernor_NotAttested",
			"inputs": [
				{
					"name": "gameId",
					"type": "uint256",
					"internalType": "uint256"
				},
				{
					"name": "scorecardId",
					"type": "uint256",
					"internalType": "uint256"
				},
				{
					"name": "account",
					"type": "address",
					"internalType": "address"
				}
			]
		},
		{
			"type": "error",
			"name": "DefifaGovernor_Uint48Overflow",
			"inputs": [
				{
					"name": "value",
					"type": "uint256",
					"internalType": "uint256"
				},
				{
					"name": "max",
					"type": "uint256",
					"internalType": "uint256"
				}
			]
		},
		{
			"type": "error",
			"name": "DefifaGovernor_UnknownProposal",
			"inputs": [
				{
					"name": "gameId",
					"type": "uint256",
					"internalType": "uint256"
				},
				{
					"name": "scorecardId",
					"type": "uint256",
					"internalType": "uint256"
				}
			]
		},
		{
			"type": "error",
			"name": "DefifaGovernor_UnownedProposedCashoutValue",
			"inputs": [
				{
					"name": "gameId",
					"type": "uint256",
					"internalType": "uint256"
				},
				{
					"name": "tierId",
					"type": "uint256",
					"internalType": "uint256"
				},
				{
					"name": "cashOutWeight",
					"type": "uint256",
					"internalType": "uint256"
				}
			]
		},
		{
			"type": "error",
			"name": "FailedCall",
			"inputs": []
		},
		{
			"type": "error",
			"name": "OwnableInvalidOwner",
			"inputs": [
				{
					"name": "owner",
					"type": "address",
					"internalType": "address"
				}
			]
		},
		{
			"type": "error",
			"name": "OwnableUnauthorizedAccount",
			"inputs": [
				{
					"name": "account",
					"type": "address",
					"internalType": "address"
				}
			]
		},
		{
			"type": "error",
			"name": "PRBMath_MulDiv_Overflow",
			"inputs": [
				{
					"name": "x",
					"type": "uint256",
					"internalType": "uint256"
				},
				{
					"name": "y",
					"type": "uint256",
					"internalType": "uint256"
				},
				{
					"name": "denominator",
					"type": "uint256",
					"internalType": "uint256"
				}
			]
		}
	],
	"args": [
		"0x3Fcec3572e84b624477BcfF4E2CF1f7dEAb648F1",
		"0x4dc161eF837fF1C4485b08DDFcDB182F2157bE18"
	],
	"solcInputHash": "3347d3d9880eb5a6a8d888f292a7f72c",
	"bytecode": "0x60a03461010957601f612d6e38819003918201601f19168301916001600160401b0383118484101761010d578084926040948552833981010312610109578051906001600160a01b038216820361010957602001516001600160a01b03811691908290036101095781156100f6575f80546001600160a01b031981168417825560405193916001600160a01b03909116907f8be0079c531659141344cd1fd0a4f28419497f9722a3daafe3b4186f6b6457e09080a3608052612c4c9081610122823960805181818161025f0152818161035e015281816106760152818161120801528181611867015281816121dd01526126640152f35b631e4fbdf760e01b5f525f60045260245ffd5b5f80fd5b634e487b7160e01b5f52604160045260245ffdfe60c0806040526004361015610012575f80fd5b5f905f3560e01c908163222e143b14611b6957508063251164291461183c5780632be37efb146117fe5780632cb70178146116ce57806349e985691461159d578063517a61801461157f578063555bde521461154c5780635e34fbfe146111b1578063715018a61461115a5780638da5cb5b1461113357806391fb2e981461110057806392347991146110ab578063b7e8f6da14610627578063ce1e82d514610328578063d826e899146102fb578063deec0bb0146102ac578063e31d4ebf1461028e578063ee0fc12114610249578063f0a92a1e1461021f578063f2fde38b14610199578063f80c73a11461016f578063f8ce560a146101485763f94633fb1461011b575f80fd5b3461014557602061013461012e36611b97565b9061288f565b6040519061014181611c3c565b8152f35b80fd5b5034610145576020366003190112610145576020610167600435612646565b604051908152f35b50346101455760203660031901126101455760406020916004358152600183522054604051908152f35b5034610145576020366003190112610145576101b3611bc3565b6101bb612b62565b6001600160a01b0316801561020b5781546001600160a01b03198116821783556001600160a01b03167f8be0079c531659141344cd1fd0a4f28419497f9722a3daafe3b4186f6b6457e08380a380f35b631e4fbdf760e01b82526004829052602482fd5b50346101455760203660031901126101455760406020916004358152600283522054604051908152f35b50346101455780600319360112610145576040517f00000000000000000000000000000000000000000000000000000000000000006001600160a01b03168152602090f35b50346101455780600319360112610145576020604051620151808152f35b5034610145576040366003190112610145576102c6611bc3565b90602435906001600160401b038211610145576020610167846102f56102ef3660048801611bd9565b90612b88565b90612bc1565b503461014557604060209161030f36611b97565b9082526005845282822090825283522054604051908152f35b346105215761033636611c09565b825f52600260205260405f2054610602576040516320c94b1360e11b815260048101849052917f00000000000000000000000000000000000000000000000000000000000000006001600160a01b0316919061038084602481865afa938415610516575f946105c5575b50610220916103ae91612b88565b9201916103c48160018060a01b03855116612bc1565b9260036103d1858761288f565b6103da81611c3c565b036105aa57916104375f806020946004968983526002875288604084205560018060a01b03905116828783519301915af13d156105a2573d9061041c82611f92565b9161042a6040519384611c5a565b82523d5f8684013e612c19565b5060405163293c499960e01b815292839182905afa908115610516575f9161055f575b506040516331a9108f60e11b81526004810184905290602090829060249082906001600160a01b03165afa908115610516575f91610525575b506001600160a01b031691823b15610521575f8093602460405180968193635b33a66f60e11b83528660048401525af1908115610516576020938392610506575b507f47c473fdeacbc61881306133d8e38075619b3cfed85b1a2c9552ddd3a788dc2f84604051338152a3604051908152f35b5f61051091611c5a565b5f6104d4565b6040513d5f823e3d90fd5b5f80fd5b90506020813d602011610557575b8161054060209383611c5a565b810103126105215761055190611cbb565b83610493565b3d9150610533565b90506020813d60201161059a575b8161057a60209383611c5a565b8101031261052157516001600160a01b038116810361052157602061045a565b3d915061056d565b606090612c19565b83856315dbe1ab60e11b5f526004526024523360445260645ffd5b6103ae919450916105f0610220936103803d81116105fb575b6105e88183611c5a565b810190611ccf565b9050949150916103a0565b503d6105de565b5f83815260026020526040812054633f2239c960e11b82526004859052602452604490fd5b346105215761063536611c09565b91805f52600260205260405f205461108857805f52600360205260405f205415611076576040516320c94b1360e11b815260048101829052610380816024817f00000000000000000000000000000000000000000000000000000000000000006001600160a01b03165afa801561051657610220915f91611055575b5001805160405163282d924360e21b815291949190602090829060049082906001600160a01b03165afa908115610516576024916020915f91611038575b5060405163038ab08560e11b81526004810186905292839182906001600160a01b03165afa8015610516576003915f91611009575b5061072e81611c3c565b03610fee575f5b818110610f185750835160405163975057e760e01b8152939490602090859060049082906001600160a01b03165afa938415610516575f94610ee7575b508051604051637b0705af60e11b815260606004820152606481018490526001600160a01b039091169460848201908290885f5b878110610ebb5750506001600160a01b0316602482018190526044820197909752611000918190038173a095f42fb3ba805a7ac899988fc6d77afed09df55af4801561051657610e26575b50805161080b906001600160a01b03166102f58488612b88565b93835f52600460205260405f20855f5260205260405f209065ffffffffffff825416610e0f57845f52600360205265ffffffffffff60405f20541680421015610dee575b65ffffffffffff8111610dd35765ffffffffffff6108a3911665ffffffffffff811665ffffffffffff1985541617845561089d875f52600360205265ffffffffffff60405f205460301c1690565b90611f71565b65ffffffffffff8111610dd35782545f194201428111610b83576bffffffffffff0000000000009065ffffffffffff60601b9060601b169260301b169071ffffffffffffffffffffffff0000000000001916171782555f5b848110610d815750825160405163f1bea54f60e01b81526001600160a01b03909116600482015290602082602481845afa918215610516575f92610d4d575b505f5b828110610b975750505061095084612646565b90633b9aca00821015610a75575b6001015551604051637f98988760e01b815290602090829060049082906001600160a01b03165afa908115610516575f91610a0d575b506020948493927fa8529171c1868e465ad2895d671a738ffb5f0764bd6dffd13339152af5c5f3a0926001600160a01b03163314806109fb575b6109e56040519384936060855260608501916125e7565b90888301523360408301520390a3604051908152f35b845f52600188528560405f20556109ce565b90506020929192813d602011610a6d575b81610a2b60209383611c5a565b81010312610521576020948493610a627fa8529171c1868e465ad2895d671a738ffb5f0764bd6dffd13339152af5c5f3a093611cbb565b925092935094610994565b3d9150610a1e565b90633b9ac9ff198101818111610b83576004908581818111610b72575b5050845160405163873e7e4b60e01b81529260209184919082906001600160a01b03165afa918215610516575f92610b3e575b505f5f5b878110610afe57506004959361089d84600194610aed6020999786610af397612ac2565b90612ac2565b93505090925061095e565b878b836020610b0e8585856125c3565b013511610b20575b5050600101610ac9565b826001939450602092610b32926125c3565b0135919050878b610b16565b9091506020813d602011610b6a575b81610b5a60209383611c5a565b8101031261052157519089610ac5565b3d9150610b4d565b610b7c92506121ad565b858a610a92565b634e487b7160e01b5f52601160045260245ffd5b60018101809111610b835784516040516364faa15960e01b81526001600160a01b039091166004820152602481018290525f6044820181905281606481865afa8015610516576024915f91610d2b575b508651604051631c1ff66b60e31b8152600481018590529260209184919082906001600160a01b03165afa918215610516575f92610cf7575b5086516040516342c9297160e11b8152600481018590529190602090839060249082906001600160a01b03165afa918215610516575f92610cbd575b50906001600160681b036080610c75930151169061219a565b90885f52600660205260405f208a5f5260205260405f20835f5260205260405f2055875f52600760205260405f20895f5260205260405f20825f5260205260405f205561093d565b91506020823d8211610cef575b81610cd760209383611c5a565b81010312610521579051906001600160681b03610c5c565b3d9150610cca565b9091506020813d8211610d23575b81610d1260209383611c5a565b810103126105215751906024610c20565b3d9150610d05565b610d4791503d805f833e610d3f8183611c5a565b810190611fad565b8b610be7565b9091506020813d602011610d79575b81610d6960209383611c5a565b810103126105215751908861093a565b3d9150610d5c565b6020610d8e82878b6125c3565b013590865f52600860205260405f20885f5260205260405f2091610db382888c6125c3565b35925f198401938411610b83576001935f5260205260405f2055016108fb565b62df999b60e41b5f5260045265ffffffffffff60245260445ffd5b50600142018042111561084f57634e487b7160e01b5f52601160045260245ffd5b8585631b41fdcd60e11b5f5260045260245260445ffd5b6110003d8111610eb4575b610e3b8183611c5a565b8101611000828203126105215780601f83011215610521576040519161100083018381106001600160401b03821117610ea0576040528290611000810192831161052157905b828210610e90575050506107f1565b8151815260209182019101610e81565b634e487b7160e01b5f52604160045260245ffd5b503d610e31565b9192509260408082610ed96001948860208091803584520135910152565b0194019101908492916107a6565b610f0a91945060203d602011610f11575b610f028183611c5a565b810190611f3a565b9285610772565b503d610ef8565b84516001600160a01b03166020610f308385886125c3565b356024604051809481936342c9297160e11b835260048301525afa908115610516575f91610fbd575b506020610f678385886125c3565b013515159081610fb4575b50610f7f57600101610735565b610f998183610f926020948896876125c3565b35946125c3565b013591631872b4e960e31b5f5260045260245260445260645ffd5b90501586610f72565b90506020813d8211610fe6575b81610fd760209383611c5a565b81010312610521575186610f59565b3d9150610fca565b506315dbe1ab60e11b5f526004525f6024523360445260645ffd5b61102b915060203d602011611031575b6110238183611c5a565b810190611f59565b86610724565b503d611019565b61104f9150823d8411610f1157610f028183611c5a565b876106ef565b61106e91506103803d81116105fb576105e88183611c5a565b9050856106b1565b63808419db60e01b5f5260045260245ffd5b805f52600260205260405f205490633f2239c960e11b5f5260045260245260445ffd5b34610521576060366003190112610521576110c4611bad565b6004355f52600560205260405f206024355f52602052600160405f20019060018060a01b03165f52602052602060405f20541515604051908152f35b346105215760203660031901126105215760206101676004355f52600360205265ffffffffffff60405f205460301c1690565b34610521575f366003190112610521575f546040516001600160a01b039091168152602090f35b34610521575f36600319011261052157611172612b62565b5f80546001600160a01b0319811682556001600160a01b03167f8be0079c531659141344cd1fd0a4f28419497f9722a3daafe3b4186f6b6457e08280a3005b34610521576060366003190112610521576024356001600160a01b03811681036105215760443565ffffffffffff81168103610521576040516320c94b1360e11b815260048035908201525f9190610380816024817f00000000000000000000000000000000000000000000000000000000000000006001600160a01b03165afa801561051657610220915f9161152b575b5001805160405163975057e760e01b81526001600160a01b03909116929190602081600481875afa908115610516575f9161150c575b50815160405163f1bea54f60e01b81526001600160a01b03918216600482015296911690602087602481855afa968715610516575f976114d8575b505f5b8781106112c957602087604051908152f35b60018101809111610b835760405163caa00cf960e01b81526001600160a01b03831660048201526024810182905265ffffffffffff861660448201526020816064818a5afa908115610516575f916114a7575b506040516330ea612d60e11b81526004810183905265ffffffffffff87166024820152906020826044818b5afa918215610516575f92611474575b508551604051631c1ff66b60e31b815260048101859052908390602090839060249082906001600160a01b03165afa918215610516575f92611441575b50816113c0575b5050806113aa575b50506112b7565b906113b791989298612a11565b019588806113a3565b9091925060018060a01b03875116604051906364faa15960e01b825260048201528460248201525f60448201525f816064818a5afa928315610516576001600160681b03608061141f9561089d945f91611427575b500151169061219a565b908a8061139b565b61143b91503d805f833e610d3f8183611c5a565b5f611415565b9091506020813d821161146c575b8161145c60209383611c5a565b810103126105215751908c611394565b3d915061144f565b9091506020813d821161149f575b8161148f60209383611c5a565b810103126105215751908a611357565b3d9150611482565b90506020813d82116114d0575b816114c160209383611c5a565b8101031261052157518961131c565b3d91506114b4565b9096506020813d602011611504575b816114f460209383611c5a565b81010312610521575195876112b4565b3d91506114e7565b611525915060203d602011610f1157610f028183611c5a565b86611279565b61154491506103803d81116105fb576105e88183611c5a565b905085611243565b346105215760203660031901126105215760206101676004355f52600360205265ffffffffffff60405f205460601c1690565b34610521575f366003190112610521576020604051633b9aca008152f35b34610521576080366003190112610521576004356024356064356044356115c2612b62565b82845f52600360205260405f20546116bb57156116b3575b62015180811061169a5765ffffffffffff831161167e5765ffffffffffff8111610dd35765ffffffffffff821161166257916080917f77b821e8b593db62879fa44904ba23a852bc1fbc7c823ef0914e85a684894acd93855f5260036020528160601b8160301b84171760405f205560405192835260208301526040820152336060820152a2005b5062df999b60e41b5f5260045265ffffffffffff60245260445ffd5b8262df999b60e41b5f5260045265ffffffffffff60245260445ffd5b63160e49a160e31b5f526004526201518060245260445ffd5b4292506115da565b846371ef3d2d60e11b5f5260045260245ffd5b34610521576116dc36611b97565b9060016116e9838361288f565b6116f281611c3c565b036117e5575f8181526005602090815260408083208584528252808320338452600181019283905292205480156117c95782606092611753837f1b3a5b7b73e38d22feec90a39bf1716b803f7e0d02c59d8f42af45aae84c7d1a96546121ad565b825560018060a01b0333165f526020525f6040812055845f52600460205260405f20865f52602052600160405f209154910154116117a1575b604051903382526020820152336040820152a3005b835f52600960205260405f20855f5260205260405f2065ffffffffffff19815416905561178c565b505050633ec6df3d60e21b5f526004526024523360445260645ffd5b6315dbe1ab60e11b5f526004526024523360445260645ffd5b3461052157608036600319011261052157611817611bad565b6064359065ffffffffffff8216820361052157602091610167916024356004356121ba565b346105215761184a36611b97565b6040516320c94b1360e11b815260048101839052610380816024817f00000000000000000000000000000000000000000000000000000000000000006001600160a01b03165afa908115610516576004916020915f91611b48575b50610220015160405163282d924360e21b815292839182906001600160a01b03165afa908115610516576024916020915f91611b2b575b5060405163038ab08560e11b81526004810186905292839182906001600160a01b03165afa8015610516576003915f91611b0c575b5061191b81611c3c565b03611af257815f52600460205260405f20815f5260205260405f2090611941818461288f565b61194a81611c3c565b60018114159081611adc575b81611ac7575b50611aad57825f52600560205260405f20815f5260205260405f20926001840160018060a01b0333165f528060205260405f2054611a93576119ac65ffffffffffff855460601c163385856121ba565b938415611a7857856119c18660209854611f71565b809155835f526009875260405f20855f52875265ffffffffffff60405f205416159182611a69575b5050611a39575b60018060a01b0333165f5284528260405f20557fc49d39a4ac0db2fda0e72ce3ff9d5ee27f409cecd8fa183fd8bf36a05f9c788d604080518581523387820152a3604051908152f35b5f82815260098652604080822085835287529020805465ffffffffffff19164265ffffffffffff161790556119f0565b600101541115905086806119e9565b50506315dbe1ab60e11b5f526004526024523360445260645ffd5b50633488ac6960e11b5f526004526024523360445260645ffd5b826315dbe1ab60e11b5f526004526024523360445260645ffd5b60049150611ad481611c3c565b14158461195c565b9050611ae781611c3c565b600381141590611956565b906315dbe1ab60e11b5f526004526024523360445260645ffd5b611b25915060203d602011611031576110238183611c5a565b84611911565b611b429150823d8411610f1157610f028183611c5a565b856118dc565b611b6191506103803d81116105fb576105e88183611c5a565b9050856118a5565b34610521576020366003190112610521576020906004355f526003825265ffffffffffff60405f2054168152f35b6040906003190112610521576004359060243590565b604435906001600160a01b038216820361052157565b600435906001600160a01b038216820361052157565b9181601f84011215610521578235916001600160401b038311610521576020808501948460061b01011161052157565b9060406003198301126105215760043591602435906001600160401b03821161052157611c3891600401611bd9565b9091565b60061115611c4657565b634e487b7160e01b5f52602160045260245ffd5b90601f801991011681019081106001600160401b03821117610ea057604052565b519065ffffffffffff8216820361052157565b519063ffffffff8216820361052157565b519061ffff8216820361052157565b5190811515820361052157565b51906001600160a01b038216820361052157565b809291039161038083126105215761012083126105215760405161012081018181106001600160401b03821117610ea057604052611d0c82611c7b565b8152611d1a60208301611c7b565b6020820152611d2b60408301611c7b565b6040820152611d3c60608301611c7b565b6060820152611d4d60808301611c8e565b608082015260a08201516dffffffffffffffffffffffffffff811681036105215760a0820152611d7f60c08301611c8e565b60c082015260e0820151906001600160a01b0382168203610521576102609160e08201526101008301516101008201529361011f190112610521576040519061026082018281106001600160401b03821117610ea057611f319161036091604052611ded6101208201611c9f565b8452611dfc6101408201611c9f565b6020850152611e0e6101608201611c8e565b6040850152611e206101808201611cae565b6060850152611e326101a08201611cae565b6080850152611e446101c08201611cae565b60a0850152611e566101e08201611cae565b60c0850152611e686102008201611cae565b60e0850152611e7a6102208201611cae565b610100850152611e8d6102408201611cae565b610120850152611ea06102608201611cae565b610140850152611eb36102808201611cae565b610160850152611ec66102a08201611cae565b610180850152611ed96102c08201611cae565b6101a0850152611eec6102e08201611cae565b6101c0850152611eff6103008201611cae565b6101e0850152611f126103208201611cae565b610200850152611f256103408201611cbb565b61022085015201611c9f565b61024082015290565b9081602091031261052157516001600160a01b03811681036105215790565b90816020910312610521575160068110156105215790565b91908201809211610b8357565b51906001600160681b038216820361052157565b6001600160401b038111610ea057601f01601f191660200190565b602081830312610521578051906001600160401b03821161052157019081810391610220831261052157604051926101a084018481106001600160401b03821117610ea057604052611ffe82611c8e565b845261200c60208301611f7e565b602085015261201d60408301611c8e565b604085015261202e60608301611c8e565b606085015261203f60808301611f7e565b608085015261205060a08301611c9f565b60a085015261206160c08301611cbb565b60c085015260e082015160e085015261010082015162ffffff81168103610521576101008501526101208201519060ff821682036105215760a09161012086015261013f1901126105215760405160a081018181106001600160401b03821117610ea0576040526120d56101408301611cae565b81526120e46101608301611cae565b60208201526120f66101808301611cae565b60408201526121086101a08301611cae565b606082015261211a6101c08301611cae565b60808201526101408401526121326101e08201611c8e565b610160840152610200810151906001600160401b038211610521570181601f820112156105215780519061216582611f92565b926121736040519485611c5a565b8284526020838301011161052157815f9260208093018386015e8301015261018082015290565b81810292918115918404141715610b8357565b91908203918211610b8357565b6040516320c94b1360e11b8152600481018290525f9594939092610380846024817f00000000000000000000000000000000000000000000000000000000000000006001600160a01b03165afa938415610516575f946125a0575b5060018060a01b03610220850151166080526040519163975057e760e01b83526020836004816080515afa928315610516575f9361257f575b5061022085015160405163f1bea54f60e01b81526001600160a01b03918216600482015293906020908590602490829085165afa938415610516575f9461254b575b506040519563873e7e4b60e01b87526020876004816080515afa968715610516575f97612517575b505f5b8581106122cd57505050505050505050565b6001810160a05260a0518111610b835760405163caa00cf960e01b815260a0516001600160a01b0386166004830152602482015265ffffffffffff8a166044820152602081806064810103816080515afa908115610516575f916124e6575b508061233d575b505060a0516122bb565b6040516330ea612d60e11b815260a051600482015265ffffffffffff8b166024820152929b919290602082806044810103816080515afa908115610516578a925f926124b0575b50818a5f52600760205260405f20895f5260205260405f2060a0515f5260205260405f20548091116124a8575b50895f52600660205260405f20885f5260205260405f2060a0515f5260205260405f205480612421575b50936123ee61089d939261241996612a11565b908a5f52600860205260405f20895f5260205260405f20905f52602052610aed60405f2054836121ad565b985f80612333565b6102208f01516040516364faa15960e01b81526001600160a01b03918216600482015260a05160248201525f604482018190529397949550939290849060649082908b165afa9586156105165761249d61089d9561089d8f96946001600160681b0360806124199c6123ee985f9161142757500151169061219a565b9394509195506123db565b91505f6123b1565b925090506020823d82116124de575b816124cc60209383611c5a565b8101031261052157899151905f612384565b3d91506124bf565b90506020813d821161250f575b8161250060209383611c5a565b8101031261052157515f61232c565b3d91506124f3565b9096506020813d602011612543575b8161253360209383611c5a565b810103126105215751955f6122b8565b3d9150612526565b9093506020813d602011612577575b8161256760209383611c5a565b810103126105215751925f612290565b3d915061255a565b61259991935060203d602011610f1157610f028183611c5a565b915f61224e565b6125ba9194506103803d81116105fb576105e88183611c5a565b9050925f612215565b91908110156125d35760061b0190565b634e487b7160e01b5f52603260045260245ffd5b916020908281520191905f5b8181106126005750505090565b9091926040808261261d6001948860208091803584520135910152565b0194019291016125f3565b8115612632570490565b634e487b7160e01b5f52601260045260245ffd5b6040516320c94b1360e11b81526004810191909152610380816024817f00000000000000000000000000000000000000000000000000000000000000006001600160a01b03165afa801561051657610220915f9161286e575b5001805160405163975057e760e01b81526001600160a01b0390911691602082600481865afa918215610516575f9261284c575b505160405163f1bea54f60e01b81526001600160a01b0391821660048201529160209183916024918391165afa908115610516575f9161281a575b505f915f5b8281106127235750505060011c90565b60018101809111610b83576040516342c9297160e11b815260048101829052602081602481865afa908115610516575f916127e9575b50604051631c1ff66b60e31b81526004810183905290602082602481875afa918215610516575f926127b6575b5015908115916127ac575b50156127135792633b9aca008101809111610b835792612713565b905015155f612791565b9091506020813d82116127e1575b816127d160209383611c5a565b810103126105215751905f612786565b3d91506127c4565b90506020813d8211612812575b8161280360209383611c5a565b8101031261052157515f612759565b3d91506127f6565b90506020813d602011612844575b8161283560209383611c5a565b8101031261052157515f61270e565b3d9150612828565b602091925061286790823d8411610f1157610f028183611c5a565b91906126d3565b61288791506103803d81116105fb576105e88183611c5a565b90505f61269f565b90815f52600260205260405f2054806129ff5750815f52600460205260405f20815f5260205260405f2060405190608082018281106001600160401b03821117610ea057604052805491600165ffffffffffff84169283835265ffffffffffff6020840195818160301c16875260601c16604084015201549160608201928352156129e8575165ffffffffffff1642106129e0574265ffffffffffff835116116129d75751835f52600560205260405f20835f5260205260405f2054101561295957505050600190565b612977835f52600360205265ffffffffffff60405f205460601c1690565b9182612987575b50505050600390565b6129bc935f52600960205260405f20905f5260205265ffffffffffff8060405f2054169151168082115f146129d05750611f71565b42106129cb575f80808061297e565b600490565b9050611f71565b50505050600190565b505050505f90565b838563713c3c9160e11b5f5260045260245260445ffd5b14159050612a0c57600590565b600290565b5f1981633b9aca00099181633b9aca000291828085109403938085039414612ab35781841015612a96578190633b9aca0009600182190182168092046002816003021880820260020302808202600203028082026002030280820260020302808202600203028091026002030293600183805f03040190848311900302920304170290565b630c740aef60e31b5f52633b9aca0060045260245260445260645ffd5b5090612abf9250612628565b90565b90915f198383099280830292838086109503948086039514612b555782851015612b3d5790829109600182190182168092046002816003021880820260020302808202600203028082026002030280820260020302808202600203028091026002030293600183805f03040190848311900302920304170290565b630c740aef60e31b5f5260045260245260445260645ffd5b505090612abf9250612628565b5f546001600160a01b03163303612b7557565b63118cdaa760e01b5f523360045260245ffd5b90612abf90612bb3604051938492623e985f60e61b60208501526020602485015260448401916125e7565b03601f198101835282611c5a565b90612c1360806020926040519384918183019660018060a01b031687526040808401528051918291826060860152018484015e5f838284010152601f801991011681010301601f198101835282611c5a565b51902090565b15612c215790565b805115612c3057602081519101fd5b63d6bda27560e01b5f5260045ffdfea164736f6c634300081c000a",
	"gitCommit": "npm:@ballkidz/defifa@1.0.2",
	"gitDirty": false,
	"history": []
}