{
	"format": "sphinx-sol-ct-artifact-1",
	"address": "0x6017d1fba9dc279bfa0b03fd931c22e242ab3691",
	"sourceName": "node_modules/@bananapus/core-v6/src/JBProjects.sol",
	"contractName": "JBProjects",
	"chainId": "0x2105",
	"abi": [
		{
			"type": "constructor",
			"inputs": [
				{
					"name": "owner",
					"type": "address",
					"internalType": "address"
				},
				{
					"name": "feeProjectOwner",
					"type": "address",
					"internalType": "address"
				},
				{
					"name": "trustedForwarder",
					"type": "address",
					"internalType": "address"
				}
			],
			"stateMutability": "nonpayable"
		},
		{
			"type": "function",
			"name": "MAX_CREATION_FEE",
			"inputs": [],
			"outputs": [
				{
					"name": "",
					"type": "uint256",
					"internalType": "uint256"
				}
			],
			"stateMutability": "view"
		},
		{
			"type": "function",
			"name": "approve",
			"inputs": [
				{
					"name": "to",
					"type": "address",
					"internalType": "address"
				},
				{
					"name": "tokenId",
					"type": "uint256",
					"internalType": "uint256"
				}
			],
			"outputs": [],
			"stateMutability": "nonpayable"
		},
		{
			"type": "function",
			"name": "balanceOf",
			"inputs": [
				{
					"name": "owner",
					"type": "address",
					"internalType": "address"
				}
			],
			"outputs": [
				{
					"name": "",
					"type": "uint256",
					"internalType": "uint256"
				}
			],
			"stateMutability": "view"
		},
		{
			"type": "function",
			"name": "count",
			"inputs": [],
			"outputs": [
				{
					"name": "",
					"type": "uint256",
					"internalType": "uint256"
				}
			],
			"stateMutability": "view"
		},
		{
			"type": "function",
			"name": "createFor",
			"inputs": [
				{
					"name": "owner",
					"type": "address",
					"internalType": "address"
				}
			],
			"outputs": [
				{
					"name": "projectId",
					"type": "uint256",
					"internalType": "uint256"
				}
			],
			"stateMutability": "payable"
		},
		{
			"type": "function",
			"name": "creationFee",
			"inputs": [],
			"outputs": [
				{
					"name": "",
					"type": "uint256",
					"internalType": "uint256"
				}
			],
			"stateMutability": "view"
		},
		{
			"type": "function",
			"name": "creationFeeReceiver",
			"inputs": [],
			"outputs": [
				{
					"name": "",
					"type": "address",
					"internalType": "address payable"
				}
			],
			"stateMutability": "view"
		},
		{
			"type": "function",
			"name": "getApproved",
			"inputs": [
				{
					"name": "tokenId",
					"type": "uint256",
					"internalType": "uint256"
				}
			],
			"outputs": [
				{
					"name": "",
					"type": "address",
					"internalType": "address"
				}
			],
			"stateMutability": "view"
		},
		{
			"type": "function",
			"name": "isApprovedForAll",
			"inputs": [
				{
					"name": "owner",
					"type": "address",
					"internalType": "address"
				},
				{
					"name": "operator",
					"type": "address",
					"internalType": "address"
				}
			],
			"outputs": [
				{
					"name": "",
					"type": "bool",
					"internalType": "bool"
				}
			],
			"stateMutability": "view"
		},
		{
			"type": "function",
			"name": "isTrustedForwarder",
			"inputs": [
				{
					"name": "forwarder",
					"type": "address",
					"internalType": "address"
				}
			],
			"outputs": [
				{
					"name": "",
					"type": "bool",
					"internalType": "bool"
				}
			],
			"stateMutability": "view"
		},
		{
			"type": "function",
			"name": "name",
			"inputs": [],
			"outputs": [
				{
					"name": "",
					"type": "string",
					"internalType": "string"
				}
			],
			"stateMutability": "view"
		},
		{
			"type": "function",
			"name": "originalPayer",
			"inputs": [],
			"outputs": [
				{
					"name": "",
					"type": "address",
					"internalType": "address"
				}
			],
			"stateMutability": "view"
		},
		{
			"type": "function",
			"name": "owner",
			"inputs": [],
			"outputs": [
				{
					"name": "",
					"type": "address",
					"internalType": "address"
				}
			],
			"stateMutability": "view"
		},
		{
			"type": "function",
			"name": "ownerOf",
			"inputs": [
				{
					"name": "tokenId",
					"type": "uint256",
					"internalType": "uint256"
				}
			],
			"outputs": [
				{
					"name": "",
					"type": "address",
					"internalType": "address"
				}
			],
			"stateMutability": "view"
		},
		{
			"type": "function",
			"name": "renounceOwnership",
			"inputs": [],
			"outputs": [],
			"stateMutability": "nonpayable"
		},
		{
			"type": "function",
			"name": "safeTransferFrom",
			"inputs": [
				{
					"name": "from",
					"type": "address",
					"internalType": "address"
				},
				{
					"name": "to",
					"type": "address",
					"internalType": "address"
				},
				{
					"name": "tokenId",
					"type": "uint256",
					"internalType": "uint256"
				}
			],
			"outputs": [],
			"stateMutability": "nonpayable"
		},
		{
			"type": "function",
			"name": "safeTransferFrom",
			"inputs": [
				{
					"name": "from",
					"type": "address",
					"internalType": "address"
				},
				{
					"name": "to",
					"type": "address",
					"internalType": "address"
				},
				{
					"name": "tokenId",
					"type": "uint256",
					"internalType": "uint256"
				},
				{
					"name": "data",
					"type": "bytes",
					"internalType": "bytes"
				}
			],
			"outputs": [],
			"stateMutability": "nonpayable"
		},
		{
			"type": "function",
			"name": "setApprovalForAll",
			"inputs": [
				{
					"name": "operator",
					"type": "address",
					"internalType": "address"
				},
				{
					"name": "approved",
					"type": "bool",
					"internalType": "bool"
				}
			],
			"outputs": [],
			"stateMutability": "nonpayable"
		},
		{
			"type": "function",
			"name": "setCreationFee",
			"inputs": [
				{
					"name": "fee",
					"type": "uint256",
					"internalType": "uint256"
				},
				{
					"name": "receiver",
					"type": "address",
					"internalType": "address payable"
				}
			],
			"outputs": [],
			"stateMutability": "nonpayable"
		},
		{
			"type": "function",
			"name": "setTokenUriResolver",
			"inputs": [
				{
					"name": "resolver",
					"type": "address",
					"internalType": "contract IJBTokenUriResolver"
				}
			],
			"outputs": [],
			"stateMutability": "nonpayable"
		},
		{
			"type": "function",
			"name": "supportsInterface",
			"inputs": [
				{
					"name": "interfaceId",
					"type": "bytes4",
					"internalType": "bytes4"
				}
			],
			"outputs": [
				{
					"name": "",
					"type": "bool",
					"internalType": "bool"
				}
			],
			"stateMutability": "view"
		},
		{
			"type": "function",
			"name": "symbol",
			"inputs": [],
			"outputs": [
				{
					"name": "",
					"type": "string",
					"internalType": "string"
				}
			],
			"stateMutability": "view"
		},
		{
			"type": "function",
			"name": "tokenURI",
			"inputs": [
				{
					"name": "projectId",
					"type": "uint256",
					"internalType": "uint256"
				}
			],
			"outputs": [
				{
					"name": "",
					"type": "string",
					"internalType": "string"
				}
			],
			"stateMutability": "view"
		},
		{
			"type": "function",
			"name": "tokenUriResolver",
			"inputs": [],
			"outputs": [
				{
					"name": "",
					"type": "address",
					"internalType": "contract IJBTokenUriResolver"
				}
			],
			"stateMutability": "view"
		},
		{
			"type": "function",
			"name": "transferFrom",
			"inputs": [
				{
					"name": "from",
					"type": "address",
					"internalType": "address"
				},
				{
					"name": "to",
					"type": "address",
					"internalType": "address"
				},
				{
					"name": "tokenId",
					"type": "uint256",
					"internalType": "uint256"
				}
			],
			"outputs": [],
			"stateMutability": "nonpayable"
		},
		{
			"type": "function",
			"name": "transferOwnership",
			"inputs": [
				{
					"name": "newOwner",
					"type": "address",
					"internalType": "address"
				}
			],
			"outputs": [],
			"stateMutability": "nonpayable"
		},
		{
			"type": "function",
			"name": "trustedForwarder",
			"inputs": [],
			"outputs": [
				{
					"name": "",
					"type": "address",
					"internalType": "address"
				}
			],
			"stateMutability": "view"
		},
		{
			"type": "event",
			"name": "Approval",
			"inputs": [
				{
					"name": "owner",
					"type": "address",
					"indexed": true,
					"internalType": "address"
				},
				{
					"name": "approved",
					"type": "address",
					"indexed": true,
					"internalType": "address"
				},
				{
					"name": "tokenId",
					"type": "uint256",
					"indexed": true,
					"internalType": "uint256"
				}
			],
			"anonymous": false
		},
		{
			"type": "event",
			"name": "ApprovalForAll",
			"inputs": [
				{
					"name": "owner",
					"type": "address",
					"indexed": true,
					"internalType": "address"
				},
				{
					"name": "operator",
					"type": "address",
					"indexed": true,
					"internalType": "address"
				},
				{
					"name": "approved",
					"type": "bool",
					"indexed": false,
					"internalType": "bool"
				}
			],
			"anonymous": false
		},
		{
			"type": "event",
			"name": "Create",
			"inputs": [
				{
					"name": "projectId",
					"type": "uint256",
					"indexed": true,
					"internalType": "uint256"
				},
				{
					"name": "owner",
					"type": "address",
					"indexed": true,
					"internalType": "address"
				},
				{
					"name": "caller",
					"type": "address",
					"indexed": false,
					"internalType": "address"
				}
			],
			"anonymous": false
		},
		{
			"type": "event",
			"name": "OwnershipTransferred",
			"inputs": [
				{
					"name": "previousOwner",
					"type": "address",
					"indexed": true,
					"internalType": "address"
				},
				{
					"name": "newOwner",
					"type": "address",
					"indexed": true,
					"internalType": "address"
				}
			],
			"anonymous": false
		},
		{
			"type": "event",
			"name": "SetCreationFee",
			"inputs": [
				{
					"name": "fee",
					"type": "uint256",
					"indexed": false,
					"internalType": "uint256"
				},
				{
					"name": "receiver",
					"type": "address",
					"indexed": false,
					"internalType": "address payable"
				},
				{
					"name": "caller",
					"type": "address",
					"indexed": false,
					"internalType": "address"
				}
			],
			"anonymous": false
		},
		{
			"type": "event",
			"name": "SetTokenUriResolver",
			"inputs": [
				{
					"name": "resolver",
					"type": "address",
					"indexed": true,
					"internalType": "contract IJBTokenUriResolver"
				},
				{
					"name": "caller",
					"type": "address",
					"indexed": false,
					"internalType": "address"
				}
			],
			"anonymous": false
		},
		{
			"type": "event",
			"name": "Transfer",
			"inputs": [
				{
					"name": "from",
					"type": "address",
					"indexed": true,
					"internalType": "address"
				},
				{
					"name": "to",
					"type": "address",
					"indexed": true,
					"internalType": "address"
				},
				{
					"name": "tokenId",
					"type": "uint256",
					"indexed": true,
					"internalType": "uint256"
				}
			],
			"anonymous": false
		},
		{
			"type": "error",
			"name": "ERC721IncorrectOwner",
			"inputs": [
				{
					"name": "sender",
					"type": "address",
					"internalType": "address"
				},
				{
					"name": "tokenId",
					"type": "uint256",
					"internalType": "uint256"
				},
				{
					"name": "owner",
					"type": "address",
					"internalType": "address"
				}
			]
		},
		{
			"type": "error",
			"name": "ERC721InsufficientApproval",
			"inputs": [
				{
					"name": "operator",
					"type": "address",
					"internalType": "address"
				},
				{
					"name": "tokenId",
					"type": "uint256",
					"internalType": "uint256"
				}
			]
		},
		{
			"type": "error",
			"name": "ERC721InvalidApprover",
			"inputs": [
				{
					"name": "approver",
					"type": "address",
					"internalType": "address"
				}
			]
		},
		{
			"type": "error",
			"name": "ERC721InvalidOperator",
			"inputs": [
				{
					"name": "operator",
					"type": "address",
					"internalType": "address"
				}
			]
		},
		{
			"type": "error",
			"name": "ERC721InvalidOwner",
			"inputs": [
				{
					"name": "owner",
					"type": "address",
					"internalType": "address"
				}
			]
		},
		{
			"type": "error",
			"name": "ERC721InvalidReceiver",
			"inputs": [
				{
					"name": "receiver",
					"type": "address",
					"internalType": "address"
				}
			]
		},
		{
			"type": "error",
			"name": "ERC721InvalidSender",
			"inputs": [
				{
					"name": "sender",
					"type": "address",
					"internalType": "address"
				}
			]
		},
		{
			"type": "error",
			"name": "ERC721NonexistentToken",
			"inputs": [
				{
					"name": "tokenId",
					"type": "uint256",
					"internalType": "uint256"
				}
			]
		},
		{
			"type": "error",
			"name": "FailedCall",
			"inputs": []
		},
		{
			"type": "error",
			"name": "InsufficientBalance",
			"inputs": [
				{
					"name": "balance",
					"type": "uint256",
					"internalType": "uint256"
				},
				{
					"name": "needed",
					"type": "uint256",
					"internalType": "uint256"
				}
			]
		},
		{
			"type": "error",
			"name": "JBProjects_CreationFeeExceedsMax",
			"inputs": [
				{
					"name": "fee",
					"type": "uint256",
					"internalType": "uint256"
				},
				{
					"name": "max",
					"type": "uint256",
					"internalType": "uint256"
				}
			]
		},
		{
			"type": "error",
			"name": "JBProjects_InvalidCreationFee",
			"inputs": [
				{
					"name": "value",
					"type": "uint256",
					"internalType": "uint256"
				},
				{
					"name": "requiredFee",
					"type": "uint256",
					"internalType": "uint256"
				}
			]
		},
		{
			"type": "error",
			"name": "JBProjects_ZeroCreationFeeReceiver",
			"inputs": []
		},
		{
			"type": "error",
			"name": "OwnableInvalidOwner",
			"inputs": [
				{
					"name": "owner",
					"type": "address",
					"internalType": "address"
				}
			]
		},
		{
			"type": "error",
			"name": "OwnableUnauthorizedAccount",
			"inputs": [
				{
					"name": "account",
					"type": "address",
					"internalType": "address"
				}
			]
		}
	],
	"args": [
		"0x4dc161eF837fF1C4485b08DDFcDB182F2157bE18",
		"0x4dc161eF837fF1C4485b08DDFcDB182F2157bE18",
		"0x3bA60b60933916a7C87D0860DcEE62a0CE34E3e2"
	],
	"solcInputHash": "6a0a42d6717c51b2cf865d9f781f5f44",
	"bytecode": "0x60a060405234801561000f575f5ffd5b5060405161247838038061247883398101604081905261002e91610980565b8281604051806040016040528060118152602001704a75696365626f782050726f6a6563747360781b81525060405180604001604052806008815260200167094aa92868a849eb60c31b815250815f90816100899190610a54565b5060016100968282610a54565b5050506001600160a01b0390811660805281166100cd57604051631e4fbdf760e01b81525f60048201526024015b60405180910390fd5b6100d6816100f9565b506001600160a01b038216156100f1576100ef8261014a565b505b505050610c4a565b600680546001600160a01b038381166001600160a01b0319831681179093556040519116919082907f8be0079c531659141344cd1fd0a4f28419497f9722a3daafe3b4186f6b6457e0905f90a35050565b6007545f9034811461017857604051632e373fa360e01b8152346004820152602481018290526044016100c4565b60095f815461018690610b0e565b918290555091506001600160a01b038316827f365b3162cd780731fc55a794b59494d472bc2af701007f581843a706738146986101c1610263565b6040516001600160a01b03909116815260200160405180910390a36101e68383610271565b801561025d576008546001600160a01b031680610216576040516350dcc30760e01b815260040160405180910390fd5b610226610221610263565b610294565b5f805c6001600160a01b0319166001600160a01b03831617905d5061024b8183610380565b5f6001600160a01b0319815c16815d50505b50919050565b5f61026c6103f9565b905090565b610290828260405180602001604052805f81525061043f60201b60201c565b5050565b5f816001600160a01b03163b5f036102aa575090565b60408051600481526024810182526020810180516001600160e01b031663296eee5160e01b17905290515f9182916001600160a01b038616916102ec91610b32565b5f60405180830381855afa9150503d805f8114610324576040519150601f19603f3d011682016040523d82523d5f602084013e610329565b606091505b509150915081158061033c575060208151105b1561034957509192915050565b5f8180602001905181019061035e9190610b48565b90506001600160a01b038116156103755780610377565b845b95945050505050565b804710156103aa5760405163cf47918160e01b8152476004820152602481018290526044016100c4565b6103c9828260405180602001604052805f81525061046260201b60201c565b156103d2575050565b3d156103e057610290610477565b60405163d6bda27560e01b815260040160405180910390fd5b5f366014808210801590610411575061041133610482565b156104375761042436828403815f610b6a565b61042d91610b91565b60601c9250505090565b339250505090565b61044983836104a7565b61045d610454610263565b5f858585610508565b505050565b5f5f5f83516020850186885af1949350505050565b6040513d5f823e3d81fd5b5f61048c60805190565b6001600160a01b0316826001600160a01b0316149050919050565b6001600160a01b0382166104d057604051633250574960e11b81525f60048201526024016100c4565b5f6104dc838383610630565b90506001600160a01b0381161561045d576040516339e3563760e11b81525f60048201526024016100c4565b6001600160a01b0383163b1561062957604051630a85bd0160e11b81526001600160a01b0384169063150b7a029061054a908890889087908790600401610bc9565b6020604051808303815f875af1925050508015610584575060408051601f3d908101601f1916820190925261058191810190610c23565b60015b6105eb573d8080156105b1576040519150601f19603f3d011682016040523d82523d5f602084013e6105b6565b606091505b5080515f036105e357604051633250574960e11b81526001600160a01b03851660048201526024016100c4565b805160208201fd5b6001600160e01b03198116630a85bd0160e11b1461062757604051633250574960e11b81526001600160a01b03851660048201526024016100c4565b505b5050505050565b5f828152600260205260408120546001600160a01b039081169083161561065c5761065c818486610722565b6001600160a01b03811615610696576106775f858180610786565b6001600160a01b0381165f90815260036020526040902080545f190190555b6001600160a01b038516156106c4576001600160a01b0385165f908152600360205260409020805460010190555b5f8481526002602052604080822080546001600160a01b0319166001600160a01b0389811691821790925591518793918516917fddf252ad1be2c89b69c2b068fc378daa952ba7f163c4a11628f55a4df523b3ef91a4949350505050565b61072d8383836108a8565b61045d576001600160a01b03831661075b57604051637e27328960e01b8152600481018290526024016100c4565b60405163177e802f60e01b81526001600160a01b0383166004820152602481018290526044016100c4565b808061079a57506001600160a01b03821615155b15610879575f6107a98461092b565b90506001600160a01b038316158015906107d55750826001600160a01b0316816001600160a01b031614155b801561080657506001600160a01b038082165f9081526005602090815260408083209387168352929052205460ff16155b1561082f5760405163a9fbf51f60e01b81526001600160a01b03841660048201526024016100c4565b81156108775783856001600160a01b0316826001600160a01b03167f8c5be1e5ebec7d5bd14f71427d1e84f3dd0314c0f7b2291e5b200ac8c7c3b92560405160405180910390a45b505b50505f90815260046020526040902080546001600160a01b0319166001600160a01b0392909216919091179055565b5f6001600160a01b038316158015906109235750826001600160a01b0316846001600160a01b0316148061090057506001600160a01b038085165f9081526005602090815260408083209387168352929052205460ff165b8061092357505f828152600460205260409020546001600160a01b038481169116145b949350505050565b5f818152600260205260408120546001600160a01b03168061096357604051637e27328960e01b8152600481018490526024016100c4565b92915050565b6001600160a01b038116811461097d575f5ffd5b50565b5f5f5f60608486031215610992575f5ffd5b835161099d81610969565b60208501519093506109ae81610969565b60408501519092506109bf81610969565b809150509250925092565b634e487b7160e01b5f52604160045260245ffd5b600181811c908216806109f257607f821691505b60208210810361025d57634e487b7160e01b5f52602260045260245ffd5b601f82111561045d57805f5260205f20601f840160051c81016020851015610a355750805b601f840160051c820191505b81811015610629575f8155600101610a41565b81516001600160401b03811115610a6d57610a6d6109ca565b610a8181610a7b84546109de565b84610a10565b6020601f821160018114610ab3575f8315610a9c5750848201515b5f19600385901b1c1916600184901b178455610629565b5f84815260208120601f198516915b82811015610ae25787850151825560209485019460019092019101610ac2565b5084821015610aff57868401515f19600387901b60f8161c191681555b50505050600190811b01905550565b5f60018201610b2b57634e487b7160e01b5f52601160045260245ffd5b5060010190565b5f82518060208501845e5f920191825250919050565b5f60208284031215610b58575f5ffd5b8151610b6381610969565b9392505050565b5f5f85851115610b78575f5ffd5b83861115610b84575f5ffd5b5050820193919092039150565b80356001600160601b03198116906014841015610bc2576001600160601b0319601485900360031b81901b82161691505b5092915050565b60018060a01b038516815260018060a01b0384166020820152826040820152608060608201525f8251806080840152806020850160a085015e5f60a0828501015260a0601f19601f83011684010191505095945050505050565b5f60208284031215610c33575f5ffd5b81516001600160e01b031981168114610b63575f5ffd5b608051611808610c705f395f818161031e015281816103ae01526110b401526118085ff3fe608060405260043610610195575f3560e01c8063715018a6116100e7578063c071588811610087578063dce0b4e411610062578063dce0b4e4146104ac578063e131fc0c146104c1578063e985e9c5146104e0578063f2fde38b146104ff575f5ffd5b8063c07158881461045b578063c87b56dd1461046e578063ceca49a91461048d575f5ffd5b80638da5cb5b116100c25780638da5cb5b146103ec57806395d89b4114610409578063a22cb4651461041d578063b88d4fde1461043c575f5ffd5b8063715018a61461038c5780637da0a877146103a057806387cb5f94146103d2575f5ffd5b806323b872dd1161015257806342842e0e1161012d57806342842e0e146102e3578063572b6c05146103025780636352211e1461034e57806370a082311461036d575f5ffd5b806323b872dd146102885780632407497e146102a7578063296eee51146102c6575f5ffd5b806301ffc9a71461019957806306661abd146101cd57806306fdde03146101f0578063081812fc14610211578063095ea7b3146102485780631fc7a20914610269575b5f5ffd5b3480156101a4575f5ffd5b506101b86101b336600461138d565b61051e565b60405190151581526020015b60405180910390f35b3480156101d8575f5ffd5b506101e260095481565b6040519081526020016101c4565b3480156101fb575f5ffd5b50610204610563565b6040516101c491906113d6565b34801561021c575f5ffd5b5061023061022b3660046113e8565b6105f2565b6040516001600160a01b0390911681526020016101c4565b348015610253575f5ffd5b50610267610262366004611413565b610619565b005b348015610274575f5ffd5b5061026761028336600461143d565b61062f565b348015610293575f5ffd5b506102676102a236600461146b565b61071f565b3480156102b2575f5ffd5b506102676102c13660046114a9565b6107af565b3480156102d1575f5ffd5b506102306001600160a01b035f5c1681565b3480156102ee575f5ffd5b506102676102fd36600461146b565b61081c565b34801561030d575f5ffd5b506101b861031c3660046114a9565b7f00000000000000000000000000000000000000000000000000000000000000006001600160a01b0390811691161490565b348015610359575f5ffd5b506102306103683660046113e8565b61083b565b348015610378575f5ffd5b506101e26103873660046114a9565b610845565b348015610397575f5ffd5b5061026761088a565b3480156103ab575f5ffd5b507f0000000000000000000000000000000000000000000000000000000000000000610230565b3480156103dd575f5ffd5b506101e266038d7ea4c6800081565b3480156103f7575f5ffd5b506006546001600160a01b0316610230565b348015610414575f5ffd5b5061020461089d565b348015610428575f5ffd5b506102676104373660046114c4565b6108ac565b348015610447575f5ffd5b50610267610456366004611560565b6108be565b6101e26104693660046114a9565b6108dd565b348015610479575f5ffd5b506102046104883660046113e8565b6109f6565b348015610498575f5ffd5b50600854610230906001600160a01b031681565b3480156104b7575f5ffd5b506101e260075481565b3480156104cc575f5ffd5b50600a54610230906001600160a01b031681565b3480156104eb575f5ffd5b506101b86104fa366004611608565b610a8f565b34801561050a575f5ffd5b506102676105193660046114a9565b610abc565b5f6001600160e01b03198216638907f79760e01b148061054e57506001600160e01b0319821663296eee5160e01b145b8061055d575061055d82610af9565b92915050565b60605f805461057190611634565b80601f016020809104026020016040519081016040528092919081815260200182805461059d90611634565b80156105e85780601f106105bf576101008083540402835291602001916105e8565b820191905f5260205f20905b8154815290600101906020018083116105cb57829003601f168201915b5050505050905090565b5f6105fc82610b48565b505f828152600460205260409020546001600160a01b031661055d565b61062b8282610626610b80565b610b8e565b5050565b610637610b9b565b66038d7ea4c6800082111561067457604051630aa6b55560e21b81526004810183905266038d7ea4c6800060248201526044015b60405180910390fd5b811580159061068a57506001600160a01b038116155b156106a8576040516350dcc30760e01b815260040160405180910390fd5b6007829055600880546001600160a01b0319166001600160a01b0383161790557f15eb42cb0a51a0e08df4f48d4f8d94319402ec9a74d75fe0fc72b96b59bb8e6382826106f3610b80565b604080519384526001600160a01b03928316602085015291169082015260600160405180910390a15050565b6001600160a01b03821661074857604051633250574960e11b81525f600482015260240161066b565b5f61075b8383610756610b80565b610bf9565b9050836001600160a01b0316816001600160a01b0316146107a9576040516364283d7b60e01b81526001600160a01b038086166004830152602482018490528216604482015260640161066b565b50505050565b6107b7610b9b565b600a80546001600160a01b0319166001600160a01b0383169081179091557fe7784d93cfbfa4408e19577e6cc0436f4dbb51214b70e100905dfce9def88c166107fe610b80565b6040516001600160a01b03909116815260200160405180910390a250565b61083683838360405180602001604052805f8152506108be565b505050565b5f61055d82610b48565b5f6001600160a01b03821661086f576040516322718ad960e21b81525f600482015260240161066b565b506001600160a01b03165f9081526003602052604090205490565b610892610b9b565b61089b5f610ceb565b565b60606001805461057190611634565b61062b6108b7610b80565b8383610d3c565b6108c984848461071f565b6107a96108d4610b80565b85858585610e03565b6007545f9034811461090b57604051632e373fa360e01b81523460048201526024810182905260440161066b565b60095f815461091990611666565b918290555091506001600160a01b038316827f365b3162cd780731fc55a794b59494d472bc2af701007f581843a70673814698610954610b80565b6040516001600160a01b03909116815260200160405180910390a36109798383610f2b565b80156109f0576008546001600160a01b0316806109a9576040516350dcc30760e01b815260040160405180910390fd5b6109b96109b4610b80565b610f44565b5f805c6001600160a01b0319166001600160a01b03831617905d506109de8183611030565b5f6001600160a01b0319815c16815d50505b50919050565b600a546060906001600160a01b031680610a1f57505060408051602081019091525f8152919050565b604051636d02a25560e11b8152600481018490526001600160a01b0382169063da0544aa906024015f60405180830381865afa158015610a61573d5f5f3e3d5ffd5b505050506040513d5f823e601f3d908101601f19168201604052610a88919081019061168a565b9392505050565b6001600160a01b039182165f90815260056020908152604080832093909416825291909152205460ff1690565b610ac4610b9b565b6001600160a01b038116610aed57604051631e4fbdf760e01b81525f600482015260240161066b565b610af681610ceb565b50565b5f6001600160e01b031982166380ac58cd60e01b1480610b2957506001600160e01b03198216635b5e139f60e01b145b8061055d57506301ffc9a760e01b6001600160e01b031983161461055d565b5f818152600260205260408120546001600160a01b03168061055d57604051637e27328960e01b81526004810184905260240161066b565b5f610b896110a3565b905090565b610836838383600161110d565b610ba3610b80565b6001600160a01b0316610bbe6006546001600160a01b031690565b6001600160a01b03161461089b57610bd4610b80565b60405163118cdaa760e01b81526001600160a01b03909116600482015260240161066b565b5f828152600260205260408120546001600160a01b0390811690831615610c2557610c25818486611211565b6001600160a01b03811615610c5f57610c405f855f5f61110d565b6001600160a01b0381165f90815260036020526040902080545f190190555b6001600160a01b03851615610c8d576001600160a01b0385165f908152600360205260409020805460010190555b5f8481526002602052604080822080546001600160a01b0319166001600160a01b0389811691821790925591518793918516917fddf252ad1be2c89b69c2b068fc378daa952ba7f163c4a11628f55a4df523b3ef91a4949350505050565b600680546001600160a01b038381166001600160a01b0319831681179093556040519116919082907f8be0079c531659141344cd1fd0a4f28419497f9722a3daafe3b4186f6b6457e0905f90a35050565b6001600160a01b038316610d655760405163a9fbf51f60e01b81525f600482015260240161066b565b6001600160a01b038216610d9757604051630b61174360e31b81526001600160a01b038316600482015260240161066b565b6001600160a01b038381165f81815260056020908152604080832094871680845294825291829020805460ff191686151590811790915591519182527f17307eab39ab6107e8899845ad3d59bd9653f200f220920489ca2b5937696c31910160405180910390a3505050565b6001600160a01b0383163b15610f2457604051630a85bd0160e11b81526001600160a01b0384169063150b7a0290610e459088908890879087906004016116ff565b6020604051808303815f875af1925050508015610e7f575060408051601f3d908101601f19168201909252610e7c9181019061173b565b60015b610ee6573d808015610eac576040519150601f19603f3d011682016040523d82523d5f602084013e610eb1565b606091505b5080515f03610ede57604051633250574960e11b81526001600160a01b038516600482015260240161066b565b805160208201fd5b6001600160e01b03198116630a85bd0160e11b14610f2257604051633250574960e11b81526001600160a01b038516600482015260240161066b565b505b5050505050565b61062b828260405180602001604052805f815250611275565b5f816001600160a01b03163b5f03610f5a575090565b60408051600481526024810182526020810180516001600160e01b031663296eee5160e01b17905290515f9182916001600160a01b03861691610f9c91611756565b5f60405180830381855afa9150503d805f8114610fd4576040519150601f19603f3d011682016040523d82523d5f602084013e610fd9565b606091505b5091509150811580610fec575060208151105b15610ff957509192915050565b5f8180602001905181019061100e919061176c565b90506001600160a01b038116156110255780611027565b845b95945050505050565b8047101561105a5760405163cf47918160e01b81524760048201526024810182905260440161066b565b611073828260405180602001604052805f815250611293565b1561107c575050565b3d1561108a5761062b6112a8565b60405163d6bda27560e01b815260040160405180910390fd5b5f3660148082108015906110df57507f00000000000000000000000000000000000000000000000000000000000000006001600160a01b031633145b15611105576110f236828403815f611787565b6110fb916117ae565b60601c9250505090565b339250505090565b808061112157506001600160a01b03821615155b156111e2575f61113084610b48565b90506001600160a01b0383161580159061115c5750826001600160a01b0316816001600160a01b031614155b801561116f575061116d8184610a8f565b155b156111985760405163a9fbf51f60e01b81526001600160a01b038416600482015260240161066b565b81156111e05783856001600160a01b0316826001600160a01b03167f8c5be1e5ebec7d5bd14f71427d1e84f3dd0314c0f7b2291e5b200ac8c7c3b92560405160405180910390a45b505b50505f90815260046020526040902080546001600160a01b0319166001600160a01b0392909216919091179055565b61121c8383836112b3565b610836576001600160a01b03831661124a57604051637e27328960e01b81526004810182905260240161066b565b60405163177e802f60e01b81526001600160a01b03831660048201526024810182905260440161066b565b61127f8383611317565b61083661128a610b80565b5f858585610e03565b5f5f5f83516020850186885af1949350505050565b6040513d5f823e3d81fd5b5f6001600160a01b0383161580159061130f5750826001600160a01b0316846001600160a01b031614806112ec57506112ec8484610a8f565b8061130f57505f828152600460205260409020546001600160a01b038481169116145b949350505050565b6001600160a01b03821661134057604051633250574960e11b81525f600482015260240161066b565b5f61134c83835f610bf9565b90506001600160a01b03811615610836576040516339e3563760e11b81525f600482015260240161066b565b6001600160e01b031981168114610af6575f5ffd5b5f6020828403121561139d575f5ffd5b8135610a8881611378565b5f81518084528060208401602086015e5f602082860101526020601f19601f83011685010191505092915050565b602081525f610a8860208301846113a8565b5f602082840312156113f8575f5ffd5b5035919050565b6001600160a01b0381168114610af6575f5ffd5b5f5f60408385031215611424575f5ffd5b823561142f816113ff565b946020939093013593505050565b5f5f6040838503121561144e575f5ffd5b823591506020830135611460816113ff565b809150509250929050565b5f5f5f6060848603121561147d575f5ffd5b8335611488816113ff565b92506020840135611498816113ff565b929592945050506040919091013590565b5f602082840312156114b9575f5ffd5b8135610a88816113ff565b5f5f604083850312156114d5575f5ffd5b82356114e0816113ff565b915060208301358015158114611460575f5ffd5b634e487b7160e01b5f52604160045260245ffd5b604051601f8201601f1916810167ffffffffffffffff81118282101715611531576115316114f4565b604052919050565b5f67ffffffffffffffff821115611552576115526114f4565b50601f01601f191660200190565b5f5f5f5f60808587031215611573575f5ffd5b843561157e816113ff565b9350602085013561158e816113ff565b925060408501359150606085013567ffffffffffffffff8111156115b0575f5ffd5b8501601f810187136115c0575f5ffd5b80356115d36115ce82611539565b611508565b8181528860208385010111156115e7575f5ffd5b816020840160208301375f6020838301015280935050505092959194509250565b5f5f60408385031215611619575f5ffd5b8235611624816113ff565b91506020830135611460816113ff565b600181811c9082168061164857607f821691505b6020821081036109f057634e487b7160e01b5f52602260045260245ffd5b5f6001820161168357634e487b7160e01b5f52601160045260245ffd5b5060010190565b5f6020828403121561169a575f5ffd5b815167ffffffffffffffff8111156116b0575f5ffd5b8201601f810184136116c0575f5ffd5b80516116ce6115ce82611539565b8181528560208385010111156116e2575f5ffd5b8160208401602083015e5f91810160200191909152949350505050565b6001600160a01b03858116825284166020820152604081018390526080606082018190525f90611731908301846113a8565b9695505050505050565b5f6020828403121561174b575f5ffd5b8151610a8881611378565b5f82518060208501845e5f920191825250919050565b5f6020828403121561177c575f5ffd5b8151610a88816113ff565b5f5f85851115611795575f5ffd5b838611156117a1575f5ffd5b5050820193919092039150565b80356bffffffffffffffffffffffff1981169060148410156117f4576bffffffffffffffffffffffff196bffffffffffffffffffffffff198560140360031b1b82161691505b509291505056fea164736f6c634300081c000a",
	"gitCommit": "npm:@bananapus/core-v6@1.0.2",
	"gitDirty": false,
	"history": []
}