{
	"format": "sphinx-sol-ct-artifact-1",
	"address": "0xf70b71605f1c0a8ff7580557645bb7e29fe495c8",
	"sourceName": "node_modules/@bananapus/univ4-router-v6/src/JBUniswapV4Hook.sol",
	"contractName": "JBUniswapV4Hook",
	"chainId": "0x2105",
	"abi": [
		{
			"type": "constructor",
			"inputs": [
				{
					"name": "poolManager",
					"type": "address",
					"internalType": "contract IPoolManager"
				},
				{
					"name": "tokens",
					"type": "address",
					"internalType": "contract IJBTokens"
				},
				{
					"name": "directory",
					"type": "address",
					"internalType": "contract IJBDirectory"
				},
				{
					"name": "prices",
					"type": "address",
					"internalType": "contract IJBPrices"
				}
			],
			"stateMutability": "nonpayable"
		},
		{
			"type": "receive",
			"stateMutability": "payable"
		},
		{
			"type": "function",
			"name": "DIRECTORY",
			"inputs": [],
			"outputs": [
				{
					"name": "",
					"type": "address",
					"internalType": "contract IJBDirectory"
				}
			],
			"stateMutability": "view"
		},
		{
			"type": "function",
			"name": "JB_HOOK_DATA_TAG",
			"inputs": [],
			"outputs": [
				{
					"name": "",
					"type": "bytes4",
					"internalType": "bytes4"
				}
			],
			"stateMutability": "view"
		},
		{
			"type": "function",
			"name": "JB_NATIVE_TOKEN",
			"inputs": [],
			"outputs": [
				{
					"name": "",
					"type": "address",
					"internalType": "address"
				}
			],
			"stateMutability": "view"
		},
		{
			"type": "function",
			"name": "MAX_TWAP_CARDINALITY",
			"inputs": [],
			"outputs": [
				{
					"name": "",
					"type": "uint16",
					"internalType": "uint16"
				}
			],
			"stateMutability": "view"
		},
		{
			"type": "function",
			"name": "MAX_V4_DELTA",
			"inputs": [],
			"outputs": [
				{
					"name": "",
					"type": "uint256",
					"internalType": "uint256"
				}
			],
			"stateMutability": "view"
		},
		{
			"type": "function",
			"name": "PRICES",
			"inputs": [],
			"outputs": [
				{
					"name": "",
					"type": "address",
					"internalType": "contract IJBPrices"
				}
			],
			"stateMutability": "view"
		},
		{
			"type": "function",
			"name": "TOKENS",
			"inputs": [],
			"outputs": [
				{
					"name": "",
					"type": "address",
					"internalType": "contract IJBTokens"
				}
			],
			"stateMutability": "view"
		},
		{
			"type": "function",
			"name": "TWAP_PERIOD",
			"inputs": [],
			"outputs": [
				{
					"name": "",
					"type": "uint32",
					"internalType": "uint32"
				}
			],
			"stateMutability": "view"
		},
		{
			"type": "function",
			"name": "TWAP_SLIPPAGE_DENOMINATOR",
			"inputs": [],
			"outputs": [
				{
					"name": "",
					"type": "uint256",
					"internalType": "uint256"
				}
			],
			"stateMutability": "view"
		},
		{
			"type": "function",
			"name": "UNISWAP_NATIVE_ETH",
			"inputs": [],
			"outputs": [
				{
					"name": "",
					"type": "address",
					"internalType": "address"
				}
			],
			"stateMutability": "view"
		},
		{
			"type": "function",
			"name": "afterAddLiquidity",
			"inputs": [
				{
					"name": "sender",
					"type": "address",
					"internalType": "address"
				},
				{
					"name": "key",
					"type": "tuple",
					"internalType": "struct PoolKey",
					"components": [
						{
							"name": "currency0",
							"type": "address",
							"internalType": "Currency"
						},
						{
							"name": "currency1",
							"type": "address",
							"internalType": "Currency"
						},
						{
							"name": "fee",
							"type": "uint24",
							"internalType": "uint24"
						},
						{
							"name": "tickSpacing",
							"type": "int24",
							"internalType": "int24"
						},
						{
							"name": "hooks",
							"type": "address",
							"internalType": "contract IHooks"
						}
					]
				},
				{
					"name": "params",
					"type": "tuple",
					"internalType": "struct ModifyLiquidityParams",
					"components": [
						{
							"name": "tickLower",
							"type": "int24",
							"internalType": "int24"
						},
						{
							"name": "tickUpper",
							"type": "int24",
							"internalType": "int24"
						},
						{
							"name": "liquidityDelta",
							"type": "int256",
							"internalType": "int256"
						},
						{
							"name": "salt",
							"type": "bytes32",
							"internalType": "bytes32"
						}
					]
				},
				{
					"name": "delta",
					"type": "int256",
					"internalType": "BalanceDelta"
				},
				{
					"name": "feesAccrued",
					"type": "int256",
					"internalType": "BalanceDelta"
				},
				{
					"name": "hookData",
					"type": "bytes",
					"internalType": "bytes"
				}
			],
			"outputs": [
				{
					"name": "",
					"type": "bytes4",
					"internalType": "bytes4"
				},
				{
					"name": "",
					"type": "int256",
					"internalType": "BalanceDelta"
				}
			],
			"stateMutability": "nonpayable"
		},
		{
			"type": "function",
			"name": "afterDonate",
			"inputs": [
				{
					"name": "sender",
					"type": "address",
					"internalType": "address"
				},
				{
					"name": "key",
					"type": "tuple",
					"internalType": "struct PoolKey",
					"components": [
						{
							"name": "currency0",
							"type": "address",
							"internalType": "Currency"
						},
						{
							"name": "currency1",
							"type": "address",
							"internalType": "Currency"
						},
						{
							"name": "fee",
							"type": "uint24",
							"internalType": "uint24"
						},
						{
							"name": "tickSpacing",
							"type": "int24",
							"internalType": "int24"
						},
						{
							"name": "hooks",
							"type": "address",
							"internalType": "contract IHooks"
						}
					]
				},
				{
					"name": "amount0",
					"type": "uint256",
					"internalType": "uint256"
				},
				{
					"name": "amount1",
					"type": "uint256",
					"internalType": "uint256"
				},
				{
					"name": "hookData",
					"type": "bytes",
					"internalType": "bytes"
				}
			],
			"outputs": [
				{
					"name": "",
					"type": "bytes4",
					"internalType": "bytes4"
				}
			],
			"stateMutability": "nonpayable"
		},
		{
			"type": "function",
			"name": "afterInitialize",
			"inputs": [
				{
					"name": "sender",
					"type": "address",
					"internalType": "address"
				},
				{
					"name": "key",
					"type": "tuple",
					"internalType": "struct PoolKey",
					"components": [
						{
							"name": "currency0",
							"type": "address",
							"internalType": "Currency"
						},
						{
							"name": "currency1",
							"type": "address",
							"internalType": "Currency"
						},
						{
							"name": "fee",
							"type": "uint24",
							"internalType": "uint24"
						},
						{
							"name": "tickSpacing",
							"type": "int24",
							"internalType": "int24"
						},
						{
							"name": "hooks",
							"type": "address",
							"internalType": "contract IHooks"
						}
					]
				},
				{
					"name": "sqrtPriceX96",
					"type": "uint160",
					"internalType": "uint160"
				},
				{
					"name": "tick",
					"type": "int24",
					"internalType": "int24"
				}
			],
			"outputs": [
				{
					"name": "",
					"type": "bytes4",
					"internalType": "bytes4"
				}
			],
			"stateMutability": "nonpayable"
		},
		{
			"type": "function",
			"name": "afterRemoveLiquidity",
			"inputs": [
				{
					"name": "sender",
					"type": "address",
					"internalType": "address"
				},
				{
					"name": "key",
					"type": "tuple",
					"internalType": "struct PoolKey",
					"components": [
						{
							"name": "currency0",
							"type": "address",
							"internalType": "Currency"
						},
						{
							"name": "currency1",
							"type": "address",
							"internalType": "Currency"
						},
						{
							"name": "fee",
							"type": "uint24",
							"internalType": "uint24"
						},
						{
							"name": "tickSpacing",
							"type": "int24",
							"internalType": "int24"
						},
						{
							"name": "hooks",
							"type": "address",
							"internalType": "contract IHooks"
						}
					]
				},
				{
					"name": "params",
					"type": "tuple",
					"internalType": "struct ModifyLiquidityParams",
					"components": [
						{
							"name": "tickLower",
							"type": "int24",
							"internalType": "int24"
						},
						{
							"name": "tickUpper",
							"type": "int24",
							"internalType": "int24"
						},
						{
							"name": "liquidityDelta",
							"type": "int256",
							"internalType": "int256"
						},
						{
							"name": "salt",
							"type": "bytes32",
							"internalType": "bytes32"
						}
					]
				},
				{
					"name": "delta",
					"type": "int256",
					"internalType": "BalanceDelta"
				},
				{
					"name": "feesAccrued",
					"type": "int256",
					"internalType": "BalanceDelta"
				},
				{
					"name": "hookData",
					"type": "bytes",
					"internalType": "bytes"
				}
			],
			"outputs": [
				{
					"name": "",
					"type": "bytes4",
					"internalType": "bytes4"
				},
				{
					"name": "",
					"type": "int256",
					"internalType": "BalanceDelta"
				}
			],
			"stateMutability": "nonpayable"
		},
		{
			"type": "function",
			"name": "afterSwap",
			"inputs": [
				{
					"name": "sender",
					"type": "address",
					"internalType": "address"
				},
				{
					"name": "key",
					"type": "tuple",
					"internalType": "struct PoolKey",
					"components": [
						{
							"name": "currency0",
							"type": "address",
							"internalType": "Currency"
						},
						{
							"name": "currency1",
							"type": "address",
							"internalType": "Currency"
						},
						{
							"name": "fee",
							"type": "uint24",
							"internalType": "uint24"
						},
						{
							"name": "tickSpacing",
							"type": "int24",
							"internalType": "int24"
						},
						{
							"name": "hooks",
							"type": "address",
							"internalType": "contract IHooks"
						}
					]
				},
				{
					"name": "params",
					"type": "tuple",
					"internalType": "struct SwapParams",
					"components": [
						{
							"name": "zeroForOne",
							"type": "bool",
							"internalType": "bool"
						},
						{
							"name": "amountSpecified",
							"type": "int256",
							"internalType": "int256"
						},
						{
							"name": "sqrtPriceLimitX96",
							"type": "uint160",
							"internalType": "uint160"
						}
					]
				},
				{
					"name": "delta",
					"type": "int256",
					"internalType": "BalanceDelta"
				},
				{
					"name": "hookData",
					"type": "bytes",
					"internalType": "bytes"
				}
			],
			"outputs": [
				{
					"name": "",
					"type": "bytes4",
					"internalType": "bytes4"
				},
				{
					"name": "",
					"type": "int128",
					"internalType": "int128"
				}
			],
			"stateMutability": "nonpayable"
		},
		{
			"type": "function",
			"name": "beforeAddLiquidity",
			"inputs": [
				{
					"name": "sender",
					"type": "address",
					"internalType": "address"
				},
				{
					"name": "key",
					"type": "tuple",
					"internalType": "struct PoolKey",
					"components": [
						{
							"name": "currency0",
							"type": "address",
							"internalType": "Currency"
						},
						{
							"name": "currency1",
							"type": "address",
							"internalType": "Currency"
						},
						{
							"name": "fee",
							"type": "uint24",
							"internalType": "uint24"
						},
						{
							"name": "tickSpacing",
							"type": "int24",
							"internalType": "int24"
						},
						{
							"name": "hooks",
							"type": "address",
							"internalType": "contract IHooks"
						}
					]
				},
				{
					"name": "params",
					"type": "tuple",
					"internalType": "struct ModifyLiquidityParams",
					"components": [
						{
							"name": "tickLower",
							"type": "int24",
							"internalType": "int24"
						},
						{
							"name": "tickUpper",
							"type": "int24",
							"internalType": "int24"
						},
						{
							"name": "liquidityDelta",
							"type": "int256",
							"internalType": "int256"
						},
						{
							"name": "salt",
							"type": "bytes32",
							"internalType": "bytes32"
						}
					]
				},
				{
					"name": "hookData",
					"type": "bytes",
					"internalType": "bytes"
				}
			],
			"outputs": [
				{
					"name": "",
					"type": "bytes4",
					"internalType": "bytes4"
				}
			],
			"stateMutability": "nonpayable"
		},
		{
			"type": "function",
			"name": "beforeDonate",
			"inputs": [
				{
					"name": "sender",
					"type": "address",
					"internalType": "address"
				},
				{
					"name": "key",
					"type": "tuple",
					"internalType": "struct PoolKey",
					"components": [
						{
							"name": "currency0",
							"type": "address",
							"internalType": "Currency"
						},
						{
							"name": "currency1",
							"type": "address",
							"internalType": "Currency"
						},
						{
							"name": "fee",
							"type": "uint24",
							"internalType": "uint24"
						},
						{
							"name": "tickSpacing",
							"type": "int24",
							"internalType": "int24"
						},
						{
							"name": "hooks",
							"type": "address",
							"internalType": "contract IHooks"
						}
					]
				},
				{
					"name": "amount0",
					"type": "uint256",
					"internalType": "uint256"
				},
				{
					"name": "amount1",
					"type": "uint256",
					"internalType": "uint256"
				},
				{
					"name": "hookData",
					"type": "bytes",
					"internalType": "bytes"
				}
			],
			"outputs": [
				{
					"name": "",
					"type": "bytes4",
					"internalType": "bytes4"
				}
			],
			"stateMutability": "nonpayable"
		},
		{
			"type": "function",
			"name": "beforeInitialize",
			"inputs": [
				{
					"name": "sender",
					"type": "address",
					"internalType": "address"
				},
				{
					"name": "key",
					"type": "tuple",
					"internalType": "struct PoolKey",
					"components": [
						{
							"name": "currency0",
							"type": "address",
							"internalType": "Currency"
						},
						{
							"name": "currency1",
							"type": "address",
							"internalType": "Currency"
						},
						{
							"name": "fee",
							"type": "uint24",
							"internalType": "uint24"
						},
						{
							"name": "tickSpacing",
							"type": "int24",
							"internalType": "int24"
						},
						{
							"name": "hooks",
							"type": "address",
							"internalType": "contract IHooks"
						}
					]
				},
				{
					"name": "sqrtPriceX96",
					"type": "uint160",
					"internalType": "uint160"
				}
			],
			"outputs": [
				{
					"name": "",
					"type": "bytes4",
					"internalType": "bytes4"
				}
			],
			"stateMutability": "nonpayable"
		},
		{
			"type": "function",
			"name": "beforeRemoveLiquidity",
			"inputs": [
				{
					"name": "sender",
					"type": "address",
					"internalType": "address"
				},
				{
					"name": "key",
					"type": "tuple",
					"internalType": "struct PoolKey",
					"components": [
						{
							"name": "currency0",
							"type": "address",
							"internalType": "Currency"
						},
						{
							"name": "currency1",
							"type": "address",
							"internalType": "Currency"
						},
						{
							"name": "fee",
							"type": "uint24",
							"internalType": "uint24"
						},
						{
							"name": "tickSpacing",
							"type": "int24",
							"internalType": "int24"
						},
						{
							"name": "hooks",
							"type": "address",
							"internalType": "contract IHooks"
						}
					]
				},
				{
					"name": "params",
					"type": "tuple",
					"internalType": "struct ModifyLiquidityParams",
					"components": [
						{
							"name": "tickLower",
							"type": "int24",
							"internalType": "int24"
						},
						{
							"name": "tickUpper",
							"type": "int24",
							"internalType": "int24"
						},
						{
							"name": "liquidityDelta",
							"type": "int256",
							"internalType": "int256"
						},
						{
							"name": "salt",
							"type": "bytes32",
							"internalType": "bytes32"
						}
					]
				},
				{
					"name": "hookData",
					"type": "bytes",
					"internalType": "bytes"
				}
			],
			"outputs": [
				{
					"name": "",
					"type": "bytes4",
					"internalType": "bytes4"
				}
			],
			"stateMutability": "nonpayable"
		},
		{
			"type": "function",
			"name": "beforeSwap",
			"inputs": [
				{
					"name": "sender",
					"type": "address",
					"internalType": "address"
				},
				{
					"name": "key",
					"type": "tuple",
					"internalType": "struct PoolKey",
					"components": [
						{
							"name": "currency0",
							"type": "address",
							"internalType": "Currency"
						},
						{
							"name": "currency1",
							"type": "address",
							"internalType": "Currency"
						},
						{
							"name": "fee",
							"type": "uint24",
							"internalType": "uint24"
						},
						{
							"name": "tickSpacing",
							"type": "int24",
							"internalType": "int24"
						},
						{
							"name": "hooks",
							"type": "address",
							"internalType": "contract IHooks"
						}
					]
				},
				{
					"name": "params",
					"type": "tuple",
					"internalType": "struct SwapParams",
					"components": [
						{
							"name": "zeroForOne",
							"type": "bool",
							"internalType": "bool"
						},
						{
							"name": "amountSpecified",
							"type": "int256",
							"internalType": "int256"
						},
						{
							"name": "sqrtPriceLimitX96",
							"type": "uint160",
							"internalType": "uint160"
						}
					]
				},
				{
					"name": "hookData",
					"type": "bytes",
					"internalType": "bytes"
				}
			],
			"outputs": [
				{
					"name": "",
					"type": "bytes4",
					"internalType": "bytes4"
				},
				{
					"name": "",
					"type": "int256",
					"internalType": "BeforeSwapDelta"
				},
				{
					"name": "",
					"type": "uint24",
					"internalType": "uint24"
				}
			],
			"stateMutability": "nonpayable"
		},
		{
			"type": "function",
			"name": "calculateExpectedOutputFromSelling",
			"inputs": [
				{
					"name": "projectId",
					"type": "uint256",
					"internalType": "uint256"
				},
				{
					"name": "tokenAmountIn",
					"type": "uint256",
					"internalType": "uint256"
				},
				{
					"name": "outputToken",
					"type": "address",
					"internalType": "address"
				},
				{
					"name": "terminal",
					"type": "address",
					"internalType": "contract IJBTerminal"
				}
			],
			"outputs": [
				{
					"name": "expectedOutput",
					"type": "uint256",
					"internalType": "uint256"
				}
			],
			"stateMutability": "view"
		},
		{
			"type": "function",
			"name": "calculateExpectedTokensWithCurrency",
			"inputs": [
				{
					"name": "projectId",
					"type": "uint256",
					"internalType": "uint256"
				},
				{
					"name": "paymentToken",
					"type": "address",
					"internalType": "address"
				},
				{
					"name": "paymentAmount",
					"type": "uint256",
					"internalType": "uint256"
				}
			],
			"outputs": [
				{
					"name": "expectedTokens",
					"type": "uint256",
					"internalType": "uint256"
				}
			],
			"stateMutability": "view"
		},
		{
			"type": "function",
			"name": "estimateUniswapOutput",
			"inputs": [
				{
					"name": "poolId",
					"type": "bytes32",
					"internalType": "PoolId"
				},
				{
					"name": "key",
					"type": "tuple",
					"internalType": "struct PoolKey",
					"components": [
						{
							"name": "currency0",
							"type": "address",
							"internalType": "Currency"
						},
						{
							"name": "currency1",
							"type": "address",
							"internalType": "Currency"
						},
						{
							"name": "fee",
							"type": "uint24",
							"internalType": "uint24"
						},
						{
							"name": "tickSpacing",
							"type": "int24",
							"internalType": "int24"
						},
						{
							"name": "hooks",
							"type": "address",
							"internalType": "contract IHooks"
						}
					]
				},
				{
					"name": "amountIn",
					"type": "uint256",
					"internalType": "uint256"
				},
				{
					"name": "zeroForOne",
					"type": "bool",
					"internalType": "bool"
				}
			],
			"outputs": [
				{
					"name": "estimatedOut",
					"type": "uint256",
					"internalType": "uint256"
				}
			],
			"stateMutability": "view"
		},
		{
			"type": "function",
			"name": "getHookPermissions",
			"inputs": [],
			"outputs": [
				{
					"name": "",
					"type": "tuple",
					"internalType": "struct Hooks.Permissions",
					"components": [
						{
							"name": "beforeInitialize",
							"type": "bool",
							"internalType": "bool"
						},
						{
							"name": "afterInitialize",
							"type": "bool",
							"internalType": "bool"
						},
						{
							"name": "beforeAddLiquidity",
							"type": "bool",
							"internalType": "bool"
						},
						{
							"name": "afterAddLiquidity",
							"type": "bool",
							"internalType": "bool"
						},
						{
							"name": "beforeRemoveLiquidity",
							"type": "bool",
							"internalType": "bool"
						},
						{
							"name": "afterRemoveLiquidity",
							"type": "bool",
							"internalType": "bool"
						},
						{
							"name": "beforeSwap",
							"type": "bool",
							"internalType": "bool"
						},
						{
							"name": "afterSwap",
							"type": "bool",
							"internalType": "bool"
						},
						{
							"name": "beforeDonate",
							"type": "bool",
							"internalType": "bool"
						},
						{
							"name": "afterDonate",
							"type": "bool",
							"internalType": "bool"
						},
						{
							"name": "beforeSwapReturnDelta",
							"type": "bool",
							"internalType": "bool"
						},
						{
							"name": "afterSwapReturnDelta",
							"type": "bool",
							"internalType": "bool"
						},
						{
							"name": "afterAddLiquidityReturnDelta",
							"type": "bool",
							"internalType": "bool"
						},
						{
							"name": "afterRemoveLiquidityReturnDelta",
							"type": "bool",
							"internalType": "bool"
						}
					]
				}
			],
			"stateMutability": "pure"
		},
		{
			"type": "function",
			"name": "hasObservationCoverage",
			"inputs": [
				{
					"name": "key",
					"type": "tuple",
					"internalType": "struct PoolKey",
					"components": [
						{
							"name": "currency0",
							"type": "address",
							"internalType": "Currency"
						},
						{
							"name": "currency1",
							"type": "address",
							"internalType": "Currency"
						},
						{
							"name": "fee",
							"type": "uint24",
							"internalType": "uint24"
						},
						{
							"name": "tickSpacing",
							"type": "int24",
							"internalType": "int24"
						},
						{
							"name": "hooks",
							"type": "address",
							"internalType": "contract IHooks"
						}
					]
				},
				{
					"name": "secondsAgo",
					"type": "uint32",
					"internalType": "uint32"
				}
			],
			"outputs": [
				{
					"name": "",
					"type": "bool",
					"internalType": "bool"
				}
			],
			"stateMutability": "view"
		},
		{
			"type": "function",
			"name": "observationCoverageOf",
			"inputs": [
				{
					"name": "key",
					"type": "tuple",
					"internalType": "struct PoolKey",
					"components": [
						{
							"name": "currency0",
							"type": "address",
							"internalType": "Currency"
						},
						{
							"name": "currency1",
							"type": "address",
							"internalType": "Currency"
						},
						{
							"name": "fee",
							"type": "uint24",
							"internalType": "uint24"
						},
						{
							"name": "tickSpacing",
							"type": "int24",
							"internalType": "int24"
						},
						{
							"name": "hooks",
							"type": "address",
							"internalType": "contract IHooks"
						}
					]
				}
			],
			"outputs": [
				{
					"name": "oldestSecondsAgo",
					"type": "uint32",
					"internalType": "uint32"
				}
			],
			"stateMutability": "view"
		},
		{
			"type": "function",
			"name": "observations",
			"inputs": [
				{
					"name": "",
					"type": "bytes32",
					"internalType": "PoolId"
				},
				{
					"name": "",
					"type": "uint256",
					"internalType": "uint256"
				}
			],
			"outputs": [
				{
					"name": "blockTimestamp",
					"type": "uint32",
					"internalType": "uint32"
				},
				{
					"name": "tickCumulative",
					"type": "int56",
					"internalType": "int56"
				},
				{
					"name": "secondsPerLiquidityCumulativeX128",
					"type": "uint160",
					"internalType": "uint160"
				},
				{
					"name": "initialized",
					"type": "bool",
					"internalType": "bool"
				}
			],
			"stateMutability": "view"
		},
		{
			"type": "function",
			"name": "observe",
			"inputs": [
				{
					"name": "key",
					"type": "tuple",
					"internalType": "struct PoolKey",
					"components": [
						{
							"name": "currency0",
							"type": "address",
							"internalType": "Currency"
						},
						{
							"name": "currency1",
							"type": "address",
							"internalType": "Currency"
						},
						{
							"name": "fee",
							"type": "uint24",
							"internalType": "uint24"
						},
						{
							"name": "tickSpacing",
							"type": "int24",
							"internalType": "int24"
						},
						{
							"name": "hooks",
							"type": "address",
							"internalType": "contract IHooks"
						}
					]
				},
				{
					"name": "secondsAgos",
					"type": "uint32[]",
					"internalType": "uint32[]"
				}
			],
			"outputs": [
				{
					"name": "tickCumulatives",
					"type": "int56[]",
					"internalType": "int56[]"
				},
				{
					"name": "secondsPerLiquidityCumulativeX128s",
					"type": "uint160[]",
					"internalType": "uint160[]"
				}
			],
			"stateMutability": "view"
		},
		{
			"type": "function",
			"name": "observeTWAP",
			"inputs": [
				{
					"name": "poolId",
					"type": "bytes32",
					"internalType": "PoolId"
				},
				{
					"name": "secondsAgo",
					"type": "uint32",
					"internalType": "uint32"
				},
				{
					"name": "tick",
					"type": "int24",
					"internalType": "int24"
				},
				{
					"name": "index",
					"type": "uint16",
					"internalType": "uint16"
				},
				{
					"name": "liquidity",
					"type": "uint128",
					"internalType": "uint128"
				},
				{
					"name": "cardinality",
					"type": "uint16",
					"internalType": "uint16"
				}
			],
			"outputs": [
				{
					"name": "arithmeticMeanTick",
					"type": "int24",
					"internalType": "int24"
				}
			],
			"stateMutability": "view"
		},
		{
			"type": "function",
			"name": "poolManager",
			"inputs": [],
			"outputs": [
				{
					"name": "",
					"type": "address",
					"internalType": "contract IPoolManager"
				}
			],
			"stateMutability": "view"
		},
		{
			"type": "function",
			"name": "states",
			"inputs": [
				{
					"name": "",
					"type": "bytes32",
					"internalType": "PoolId"
				}
			],
			"outputs": [
				{
					"name": "index",
					"type": "uint16",
					"internalType": "uint16"
				},
				{
					"name": "cardinality",
					"type": "uint16",
					"internalType": "uint16"
				},
				{
					"name": "cardinalityNext",
					"type": "uint16",
					"internalType": "uint16"
				}
			],
			"stateMutability": "view"
		},
		{
			"type": "event",
			"name": "BestRouteSelected",
			"inputs": [
				{
					"name": "poolId",
					"type": "bytes32",
					"indexed": true,
					"internalType": "PoolId"
				},
				{
					"name": "routeType",
					"type": "uint8",
					"indexed": false,
					"internalType": "uint8"
				},
				{
					"name": "expectedTokens",
					"type": "uint256",
					"indexed": false,
					"internalType": "uint256"
				},
				{
					"name": "caller",
					"type": "address",
					"indexed": false,
					"internalType": "address"
				}
			],
			"anonymous": false
		},
		{
			"type": "event",
			"name": "RouteSelected",
			"inputs": [
				{
					"name": "poolId",
					"type": "bytes32",
					"indexed": true,
					"internalType": "PoolId"
				},
				{
					"name": "useJuicebox",
					"type": "bool",
					"indexed": false,
					"internalType": "bool"
				},
				{
					"name": "expectedTokens",
					"type": "uint256",
					"indexed": false,
					"internalType": "uint256"
				},
				{
					"name": "caller",
					"type": "address",
					"indexed": false,
					"internalType": "address"
				}
			],
			"anonymous": false
		},
		{
			"type": "error",
			"name": "HookNotImplemented",
			"inputs": []
		},
		{
			"type": "error",
			"name": "JBUniswapV4Hook_ExactOutputSwapsNotSupported",
			"inputs": [
				{
					"name": "amountSpecified",
					"type": "int256",
					"internalType": "int256"
				}
			]
		},
		{
			"type": "error",
			"name": "JBUniswapV4Hook_InputExceedsV4DeltaLimit",
			"inputs": [
				{
					"name": "amount",
					"type": "uint256",
					"internalType": "uint256"
				}
			]
		},
		{
			"type": "error",
			"name": "JBUniswapV4Hook_InsufficientOutput",
			"inputs": [
				{
					"name": "amount",
					"type": "uint256",
					"internalType": "uint256"
				},
				{
					"name": "minimum",
					"type": "uint256",
					"internalType": "uint256"
				}
			]
		},
		{
			"type": "error",
			"name": "JBUniswapV4Hook_JuiceboxSellDidNotDeliver",
			"inputs": [
				{
					"name": "inputToken",
					"type": "address",
					"internalType": "address"
				},
				{
					"name": "outputToken",
					"type": "address",
					"internalType": "address"
				},
				{
					"name": "amountIn",
					"type": "uint256",
					"internalType": "uint256"
				}
			]
		},
		{
			"type": "error",
			"name": "JBUniswapV4Hook_OutputExceedsV4DeltaLimit",
			"inputs": [
				{
					"name": "amount",
					"type": "uint256",
					"internalType": "uint256"
				}
			]
		},
		{
			"type": "error",
			"name": "JBUniswapV4Hook_ReentrantRouting",
			"inputs": [
				{
					"name": "caller",
					"type": "address",
					"internalType": "address"
				}
			]
		},
		{
			"type": "error",
			"name": "JBUniswapV4Hook_SecondsAgoCannotBeZero",
			"inputs": [
				{
					"name": "secondsAgo",
					"type": "uint32",
					"internalType": "uint32"
				}
			]
		},
		{
			"type": "error",
			"name": "JBUniswapV4Hook_SellInputReturned",
			"inputs": [
				{
					"name": "token",
					"type": "address",
					"internalType": "address"
				},
				{
					"name": "balanceBefore",
					"type": "uint256",
					"internalType": "uint256"
				},
				{
					"name": "balanceAfter",
					"type": "uint256",
					"internalType": "uint256"
				}
			]
		},
		{
			"type": "error",
			"name": "JBUniswapV4Hook_TemporaryAllowanceNotConsumed",
			"inputs": [
				{
					"name": "token",
					"type": "address",
					"internalType": "address"
				},
				{
					"name": "spender",
					"type": "address",
					"internalType": "address"
				},
				{
					"name": "allowance",
					"type": "uint256",
					"internalType": "uint256"
				}
			]
		},
		{
			"type": "error",
			"name": "NotPoolManager",
			"inputs": []
		},
		{
			"type": "error",
			"name": "Oracle_CardinalityCannotBeZero",
			"inputs": [
				{
					"name": "cardinality",
					"type": "uint16",
					"internalType": "uint16"
				}
			]
		},
		{
			"type": "error",
			"name": "Oracle_TargetPredatesOldestObservation",
			"inputs": [
				{
					"name": "oldestTimestamp",
					"type": "uint32",
					"internalType": "uint32"
				},
				{
					"name": "targetTimestamp",
					"type": "uint32",
					"internalType": "uint32"
				}
			]
		},
		{
			"type": "error",
			"name": "SafeERC20FailedOperation",
			"inputs": [
				{
					"name": "token",
					"type": "address",
					"internalType": "address"
				}
			]
		}
	],
	"args": [
		"0x498581fF718922c3f8e6A244956aF099B2652b2b",
		"0x1f80d8f057eE36b4C2656D107E4e4558B71bA7D9",
		"0x5AfF29060E023e6FB87BE5596652B33c65Af535B",
		"0xad45E4627f068d1e6b21E5301870d807543a8401"
	],
	"solcInputHash": "ed3eaab14df48c98b2ff06317f6573fc",
	"bytecode": "0x6101006040523461035e57604051601f614cc438819003918201601f19168301916001600160401b038311848410176103625780849260809460405283398101031261035e5780516001600160a01b038116810361035e576020820151916001600160a01b038316830361035e576040810151906001600160a01b038216820361035e5760600151916001600160a01b038316830361035e576080525f6101a06100a7610376565b8281528260208201528260408201528260608201528260808201528260a08201528260c08201528260e0820152826101008201528261012082015282610140820152826101608201528261018082015201525f6101a0610105610376565b8281526001602082015282604082015260016060820152826080820152600160a0820152600160c0820152600160e0820152826101008201528261012082015260016101408201528261016082015282610180820152015261200030161580159061034d575b8015610340575b801561032f575b8015610322575b8015610311575b8015610301575b80156102f1575b80156102e5575b80156102d9575b80156102c9575b80156102bd575b80156102b1575b80156102a5575b6102925760a05260c05260e05260405161492d9081610397823960805181818161025e0152818161040501528181610510015281816105620152818161077001528181610874015281816109b701528181610ab801528181610bf201528181610cf801528181611afd01528181611c0d015281816125660152818161270f015281816135e80152613c0e015260a0518181816108e70152818161138c01528181613f270152614306015260c051818181610d4e015261157d015260e051818181610d9201528181613df301526142ab0152f35b630732d7b560e51b5f523060045260245ffd5b506001301615156101bf565b506002301615156101b8565b506004301615156101b1565b50600830161515600114156101aa565b506010301615156101a3565b5060203016151561019c565b5060403016151560011415610195565b506080301615156001141561018e565b506101003016151560011415610187565b5061020030161515610180565b506104003016151560011415610179565b5061080030161515610172565b50611000301615156001141561016b565b5f80fd5b634e487b7160e01b5f52604160045260245ffd5b604051906101c082016001600160401b038111838210176103625760405256fe6080604052600436101561001a575b3615610018575f80fd5b005b5f3560e01c8063087a40b014610df65780631873947514610dc15780631d831d5c14610d7d5780631eabcd3414610d3957806321d0ee7014610ce5578063259982e514610ce557806332d19f4114610cc95780633f64e5dc14610c50578063575e24b414610b9d57806365ec643c14610b7b5780636768b1e614610b5a5780636870b2fa14610b105780636c2bbe7e14610aa25780636fe7e6eb1461097c5780637ca251841461096057806383e050211461091657806388bc2ef3146108d25780639f063efc1461085e578063b47b2fb114610717578063b6a8b0fa146103f2578063c4e833ce146105ad578063db312fae14610591578063dc4c90d31461054d578063dc98354e146104df578063dd71cea814610470578063e16a53eb14610456578063e1b4af69146103f2578063e384451e146103af578063e8529d7e14610393578063f96f97f2146101bb5763fbdc1ef10361000e57346101b75760203660031901126101b7576004355f526001602052606060405f205461ffff604051918181168352818160101c16602084015260201c166040820152f35b5f80fd5b346101b757366003190160c081126101b75760a0136101b75760a4356001600160401b0381116101b757366023820112156101b75780600401356001600160401b0381116101b75760248160051b830101903682116101b75760a061021f36611092565b2090815f52600160205260405f206040519061023a8261101f565b549161ffff8316825261ffff6020830193818160101c16855260201c1660408301527f0000000000000000000000000000000000000000000000000000000000000000916102968561028c8186613990565b5050959050613a2f565b945f525f60205261ffff8060405f20925116945116956102b583611813565b926102c36040519485611071565b83526024602084019801975b8189106103765750506102ea965063ffffffff421690613ac3565b90604051918291604083016040845281518091526020606085019201905f5b81811061035a575050508281036020840152602080835192838152019201905f5b818110610338575050500390f35b82516001600160a01b031684528594506020938401939092019160010161032a565b825160060b845286955060209384019390920191600101610309565b883563ffffffff811681036101b7578152602098890198016102cf565b346101b7575f3660031901126101b75760206040516107098152f35b346101b7576101003660031901126101b7576103ca36611119565b60e4359081151582036101b7576020916103ea9160c43590600435611aca565b604051908152f35b346101b75761040036610f75565b5050507f00000000000000000000000000000000000000000000000000000000000000006001600160a01b03163303925061044791505057630a85dc2960e01b5f5260045ffd5b63570c108560e11b5f5260045ffd5b346101b7575f3660031901126101b75760206040515f8152f35b346101b75760403660031901126101b7576024356004355f525f60205260405f2061ffff8210156101b7576080916104a791610fcc565b50546040519063ffffffff811682528060201c60060b602083015260018060a01b038160581c16604083015260f81c15156060820152f35b346101b75760e03660031901126101b7576104f8610e2c565b5060a03660231901126101b75761050d610f5f565b507f00000000000000000000000000000000000000000000000000000000000000006001600160a01b0316330361044757630a85dc2960e01b5f5260045ffd5b346101b7575f3660031901126101b7576040517f00000000000000000000000000000000000000000000000000000000000000006001600160a01b03168152602090f35b346101b7575f3660031901126101b75760206040516127108152f35b346101b7575f3660031901126101b7575f6101a06040516105cd8161103a565b8281528260208201528260408201528260608201528260808201528260a08201528260c08201528260e0820152826101008201528261012082015282610140820152826101608201528261018082015201526101c060206040516106308161103a565b5f81528181019060018252604081015f81526060820160018152608083015f815260a084016001815260c085016001815260e0860190600182526101008701925f84526101208801945f8652610140890196600188526101608a01985f8a526101a06101808c019b5f8d52019b5f8d526040519d8e915f835251151591015251151560408d015251151560608c015251151560808b015251151560a08a015251151560c089015251151560e08801525115156101008701525115156101208601525115156101408501525115156101608401525115156101808301525115156101a0820152f35b346101b7576101603660031901126101b757610731610e2c565b5060a03660231901126101b75760603660c31901126101b75761012435610144356001600160401b0381116101b75761076e903690600401610e56565b7f00000000000000000000000000000000000000000000000000000000000000006001600160a01b03163303610447576107a791613d7f565b9160a06107b336611119565b20916107d9575b6107c382613bc6565b6040805163b47b2fb160e01b81525f6020820152f35b60c43580151581036101b757156108555780600f0b5b80600f0b9182159081159161084b575b5061080b575b506107ba565b5f8212156108455761081d9150613581565b600f0b5b82811061082e5780610805565b9050637ed62b6360e01b5f5260045260245260445ffd5b50610821565b90501515856107ff565b8060801d6107ef565b346101b75761086c36610ef6565b5093945050507f00000000000000000000000000000000000000000000000000000000000000006001600160a01b03163303915061044790505760a06108b66108bc9236906111a0565b20613bc6565b604080516327c18fbf60e21b81525f6020820152f35b346101b7575f3660031901126101b7576040517f00000000000000000000000000000000000000000000000000000000000000006001600160a01b03168152602090f35b346101b757366003190160c081126101b75760a0136101b75760a43563ffffffff811681036101b75761095660209160a061095036611092565b20613518565b6040519015158152f35b346101b7575f3660031901126101b75760206040516107088152f35b346101b7576101003660031901126101b757610996610e2c565b5060a03660231901126101b7576109ab610f5f565b506109b4610ee6565b507f00000000000000000000000000000000000000000000000000000000000000006001600160a01b031633036104475760a06109f036611119565b20805f525f60205260405f20604051610a0881610ff0565b4263ffffffff168082525f602083018190526040808401919091526001606090930192909252600160f81b179091555190610a428261101f565b5f82526020820190600182526040830190600182525f52600160205261ffff60405f2093511665ffff0000000063ffff00008554945160101b16925160201b169265ffffffffffff191617171790556020604051636fe7e6eb60e01b8152f35b346101b757610ab036610ef6565b5093945050507f00000000000000000000000000000000000000000000000000000000000000006001600160a01b03163303915061044790505760a06108b6610afa9236906111a0565b60408051633615df3f60e11b81525f6020820152f35b346101b75760803660031901126101b7576044356001600160a01b03811681036101b757606435906001600160a01b03821682036101b7576020916103ea916024356004356118b0565b346101b7575f3660031901126101b757602060405160016001607f1b038152f35b346101b7575f3660031901126101b7576040516386f23c4960e01b8152602090f35b346101b7576101403660031901126101b757610bb7610e2c565b5060a03660231901126101b75760603660c31901126101b757610124356001600160401b0381116101b757610bf0903690600401610e56565b7f00000000000000000000000000000000000000000000000000000000000000006001600160a01b0316330361044757610c3062ffffff9160609361229c565b906040939293519363ffffffff60e01b1684526020840152166040820152f35b346101b75760c03660031901126101b75760243563ffffffff811681036101b757604435908160020b82036101b75760643561ffff811681036101b7576084356001600160801b03811681036101b75760a4359161ffff831683036101b757602094610cbe94600435612198565b6040519060020b8152f35b346101b7575f3660031901126101b757602060405161eeee8152f35b346101b757610cf336610e83565b5050507f00000000000000000000000000000000000000000000000000000000000000006001600160a01b031633039150610447905057630a85dc2960e01b5f5260045ffd5b346101b7575f3660031901126101b7576040517f00000000000000000000000000000000000000000000000000000000000000006001600160a01b03168152602090f35b346101b7575f3660031901126101b7576040517f00000000000000000000000000000000000000000000000000000000000000006001600160a01b03168152602090f35b346101b75760a03660031901126101b7576020610de860a0610de236611092565b2061208a565b63ffffffff60405191168152f35b346101b75760603660031901126101b7576024356001600160a01b03811681036101b7576103ea6020916044359060043561136d565b600435906001600160a01b03821682036101b757565b35906001600160a01b03821682036101b757565b9181601f840112156101b7578235916001600160401b0383116101b757602083818601950101116101b757565b906101606003198301126101b7576004356001600160a01b03811681036101b7579160a06023198201126101b757602491608060c3198301126101b75760c49161014435906001600160401b0382116101b757610ee291600401610e56565b9091565b60e435908160020b82036101b757565b906101a06003198301126101b7576004356001600160a01b03811681036101b7579160a06023198201126101b757602491608060c3198301126101b75760c4916101443591610164359161018435906001600160401b0382116101b757610ee291600401610e56565b60c435906001600160a01b03821682036101b757565b6101206003198201126101b7576004356001600160a01b03811681036101b7579160a06023198301126101b75760249160c4359160e4359161010435906001600160401b0382116101b757610ee291600401610e56565b61ffff821015610fdc5701905f90565b634e487b7160e01b5f52603260045260245ffd5b608081019081106001600160401b0382111761100b57604052565b634e487b7160e01b5f52604160045260245ffd5b606081019081106001600160401b0382111761100b57604052565b6101c081019081106001600160401b0382111761100b57604052565b60a081019081106001600160401b0382111761100b57604052565b90601f801991011681019081106001600160401b0382111761100b57604052565b60a09060031901126101b757604051906110ab82611056565b816004356001600160a01b03811681036101b75781526024356001600160a01b03811681036101b757602082015260443562ffffff811681036101b75760408201526064358060020b81036101b7576060820152608435906001600160a01b03821682036101b75760800152565b60a09060231901126101b7576040519061113282611056565b816024356001600160a01b03811681036101b75781526044356001600160a01b03811681036101b757602082015260643562ffffff811681036101b75760408201526084358060020b81036101b757606082015260a435906001600160a01b03821682036101b75760800152565b91908260a09103126101b7576040516111b881611056565b80926111c381610e42565b82526111d160208201610e42565b6020830152604081013562ffffff811681036101b75760408301526060810135908160020b82036101b757606083019190915260800135906001600160a01b03821682036101b75760800152565b908160209103126101b757516001600160a01b03811681036101b75790565b519065ffffffffffff821682036101b757565b519063ffffffff821682036101b757565b9190826101209103126101b75760405161012081018181106001600160401b0382111761100b5760405280926112978161123e565b82526112a56020820161123e565b60208301526112b66040820161123e565b60408301526112c76060820161123e565b60608301526112d860808201611251565b608083015260a08101516001600160701b03811681036101b75760a083015261130360c08201611251565b60c083015260e08101516001600160a01b03811681036101b75760e083015261010090810151910152565b519061ffff821682036101b757565b519081151582036101b757565b51906001600160a01b03821682036101b757565b908160209103126101b7575190565b604051632eec7b5560e11b8152600481018290529192916020816024817f00000000000000000000000000000000000000000000000000000000000000006001600160a01b03165afa90811561180857602491610380915f916117d9575b506040516320c94b1360e11b81526004810185905292839182906001600160a01b03165afa91825f925f9461160d575b506114095750505050505f90565b61143861ffff61010063ffffffff60406001600160701b0360a0880151169701511694015160041c1695611c3b565b9163ffffffff83169060ff61144c85611c5e565b1693604d8511611601578282036115255750505050670de0b6b3a7640000905b601281036114ed575061ffff92905b670de0b6b3a764000081036114d4575061149491611cfb565b915b1680156114d057612710039061ffff82116114bc5761ffff6114b9921690611d76565b90565b634e487b7160e01b5f52601160045260245ffd5b5090565b906114e2906114e793611cfb565b611cfb565b91611496565b670de0b6b3a7640000840293808504670de0b6b3a764000014901517156114bc5761ffff9361151f91600a0a90611cdd565b9061147b565b6001600160a01b031661eeee14806115f7575b1561154f57505050670de0b6b3a76400009061146c565b604051631df139fd60e11b8152600481019390935260248301526044820152601260648201526020816084817f00000000000000000000000000000000000000000000000000000000000000006001600160a01b03165afa5f91816115c3575b506115bd5750505050505f90565b9061146c565b9091506020813d6020116115ef575b816115df60209383611071565b810103126101b75751905f6115af565b3d91506115d2565b5060018114611538565b50505050505050505f90565b925092506103803d81116117d2575b6116268184611071565b82018281039061038082126101b7576116426102609185611262565b9161011f1901126101b7576040519261026084018481106001600160401b0382111761100b576117c49161036091604052611680610120820161132e565b865261168f610140820161132e565b60208701526116a16101608201611251565b60408701526116b3610180820161133d565b60608701526116c56101a0820161133d565b60808701526116d76101c0820161133d565b60a08701526116e96101e0820161133d565b60c08701526116fb610200820161133d565b60e087015261170d610220820161133d565b610100870152611720610240820161133d565b610120870152611733610260820161133d565b610140870152611746610280820161133d565b6101608701526117596102a0820161133d565b61018087015261176c6102c0820161133d565b6101a087015261177f6102e0820161133d565b6101c0870152611792610300820161133d565b6101e08701526117a5610320820161133d565b6102008701526117b8610340820161134a565b6102208701520161132e565b61024084015291925f6113fb565b503d61161c565b6117fb915060203d602011611801575b6117f38183611071565b81019061121f565b5f6113cb565b503d6117e9565b6040513d5f823e3d90fd5b6001600160401b03811161100b5760051b60200190565b81601f820112156101b7578051906001600160401b03821161100b576040519261185e601f8401601f191660200185611071565b828452602083830101116101b757815f9260208093018386015e8301015290565b805180835260209291819084018484015e5f828201840152601f01601f1916010190565b919082039182116114bc57565b6118bc61191a93611c3b565b915f602091604051906118cf8483611071565b82825260405196879283926312a9c76f60e21b8452306004850152876024850152604484015260018060a01b038816606484015230608484015260c060a484015260c483019061187f565b03816001600160a01b0389165afa805f955f935f9361198e575b5050611944575050505050505f90565b8415611984576119579085858589613167565b1561197b57156119725750506114b9915060288104906118a3565b6114b993613375565b50505050505f90565b5050505050505f90565b9350955090503d805f873e6119a38187611071565b850191610180868403126101b7576119bb8387611262565b506101208601519061014087015196610160810151906001600160401b0382116101b7570184601f820112156101b7578051946119f786611813565b95611a056040519788611071565b808752838088019160051b840101928284116101b757848101915b848310611a37575050505050509491905f80611934565b82516001600160401b0381116101b7578201906080828603601f1901126101b75760405190611a6582610ff0565b828801516001600160a01b03811681036101b7578252611a876040840161133d565b88830152606083015160408301526080830151916001600160401b0383116101b757611aba878a8096958196010161182a565b6060820152815201920191611a20565b909291611ad6826135a1565b916001600160a01b03831615611c05575b5062ffffff8194610fff604083611b2160a085207f0000000000000000000000000000000000000000000000000000000000000000613990565b9492509590500151166280000081145f14611bfd5750915b8615611bf457165b61ffff8116611bdc57505b1680611bb8575b50506001600160a01b0316906001600160801b038211611b9557818002918083048114901517156114bc5715611b8c576114b991611fea565b6114b991611f67565b9080611ba091611e4b565b9015611baf576114b991611f1e565b6114b991611e94565b90919350620f424003620f424081116114bc57611bd491611ddf565b915f80611b53565b610fff8391169116620f424081830204910103611b4c565b600c1c16611b41565b905091611b39565b611c319192507f0000000000000000000000000000000000000000000000000000000000000000613990565b505050905f611ae7565b6001600160a01b0381166114b9575061eeee90565b519060ff821682036101b757565b6001600160a01b031661eeee8114611cd75760206004916040519283809263313ce56760e01b82525afa5f9181611c9b575b506114b95750601290565b9091506020813d602011611ccf575b81611cb760209383611071565b810103126101b757611cc890611c50565b905f611c90565b3d9150611caa565b50601290565b8115611ce7570490565b634e487b7160e01b5f52601260045260245ffd5b808202905f1983820990828083109203918083039283670de0b6b3a764000011156101b75714611d65577faccb18165bd6fe31ae1cf318dc5b51eee0e1ba569b88cd74c1773b91fac1066993670de0b6b3a7640000910990828211900360ee1b910360121c170290565b5050670de0b6b3a764000091500490565b808202905f198382099082808310920391808303928361271011156101b75714611dd4577fbc01a36e2eb1c432ca57a786c226809d495182a9930be0ded288ce703afb7e9193612710910990828211900360fc1b910360041c170290565b505061271091500490565b808202905f1983820990828083109203918083039283620f424011156101b75714611e3f577fde8f6cefed634549b62c77574f722e1ac57e23f24d8fd5cb790fb65668c2613993620f4240910990828211900360fa1b910360061c170290565b5050620f424091500490565b81810291905f1982820991838084109303928084039384600160401b11156101b75714611e8b57600160401b910990828211900360c01b910360401c1790565b50505060401c90565b90608082901b905f19600160801b8409928280851094039380850394858411156101b75714611f17578190600160801b900981805f03168092046002816003021880820260020302808202600203028082026002030280820260020302808202600203028091026002030293600183805f03040190848311900302920304170290565b5091500490565b81810291905f1982820991838084109303928084039384600160801b11156101b75714611f5e57600160801b910990828211900360801b910360801c1790565b50505060801c90565b9060c082901b905f19600160c01b8409928280851094039380850394858411156101b75714611f17578190600160c01b900981805f03168092046002816003021880820260020302808202600203028082026002030280820260020302808202600203028091026002030293600183805f03040190848311900302920304170290565b81810291905f1982820991838084109303928084039384600160c01b11156101b7571461202a57600160c01b910990828211900360401b910360c01c1790565b50505060c01c90565b9061ffff16908115611ce75761ffff160690565b9060405161205481610ff0565b915463ffffffff81168352602081811c60060b90840152605881901c6001600160a01b0316604084015260f81c15156060830152565b805f52600160205260405f20604051906120a38261101f565b5461ffff8116825261ffff808260101c169182602085015260201c1660408301526002811061216057825f525f602052600161ffff60405f20935116019161ffff83116114bc576120fa6121009261210694612033565b90610fcc565b50612047565b90606082015115612146575b506060810151156121415763ffffffff8042169151168181101561213b5763ffffffff91031690565b50505f90565b505f90565b90505f525f60205261215a60405f20612047565b5f612112565b5050505f90565b805115610fdc5760200190565b805160011015610fdc5760400190565b8051821015610fdc5760209160051b010190565b93919594929063ffffffff16958615612289576040516121f6956121bd606083611071565b6002825260403660208401375f6121d383612167565b52886121de83612174565b525f525f60205260405f2063ffffffff421690613ac3565b5061220d61220382612167565b5160060b91612174565b5160060b900391667fffffffffffff198312667fffffffffffff8413176114bc5760060b9160060b8215611ce757667fffffffffffff1981145f198414166114bc5782810560020b925f8212918261227a575b505061226857565b90627fffff1981146114bc575f190190565b0760060b151590505f80612260565b86632d727cc160e01b5f5260045260245ffd5b5f9160a06122ab3660246111a0565b20916122b683613bc6565b6002549160ff8316613154576122cb91613d7f565b9190505f60e4351361313f5760c435151560c435036101b75760c43515613126576024356001600160a01b03811681036101b757905b60c4351561310d576044356001600160a01b03811681036101b757905b60e435600160ff1b146114bc5761233d6001600160a01b038416613dd0565b926123506001600160a01b038416613dd0565b8015801596906131065781955b801561310057805b5f905f945f935f9b612ee5575b80612ead575b81159115612ea4575b50612e53576123a360c43560e4355f038d61239d3660246111a0565b90611aca565b996001600160a01b038416801515969087612e48575b506001600160a01b038216801515949085612e3d575b5087612e33575b87612e21575b84612e17575b84612e05575b8780612dea575b85612dcf575b508415612dc75750935b8315612dbf5750985b8215612db75750925b848515612db0575b80612da7575b8015612d7c578b7f7a23c5ecccd05a835903b88a2163b466b6337b968dde0e581fdccf14d5c74ed9606060018e5b8515612d775750875b60ff604051921682526020820152336040820152a26124bc5750505050505050505060607f263dfe81324d31d9db2a4afda6df10810d5f84b970529f73d0b0834cfe99ab5091604051908582526020820152336040820152a26315d7892d60e21b918190565b909294969891939597997f263dfe81324d31d9db2a4afda6df10810d5f84b970529f73d0b0834cfe99ab50606060405160018152876020820152336040820152a2809280612d6e575b15612d2857505050600190945b60ff1916176002558115612d1a575b811580612d08575b15612d01576040516370a0823160e01b81523060048201526020816024816001600160a01b0388165afa908115611808575f91612ccf575b50955b7f00000000000000000000000000000000000000000000000000000000000000006001600160a01b0316803b156101b757604051630b0d9c0960e01b81526001600160a01b038616600482015230602482015260e4355f908103604483015290918290606490829084905af1801561180857612cba575b506125ee6001600160a01b038516611c3b565b6001600160a01b03871615918215612c4e5747935b8515612b77576001600160a01b03871615908b908215612a1a575b8215612a13578960e4355f035b602096879361269d6040516126408782611071565b8781526040519788968795869563fef4325760e01b8752600487015260018060a01b0316602486015260e4355f036044860152306064860152608485015260e060a485015260e484015261010060c484015261010483019061187f565b03916001600160a01b0388165af18015612a08576129de575b5015612939575b50505b156128c8576126cf90476118a3565b948115806128b6575b61280e575b501580612803575b806127fb575b6127d157508083106127ba575060016001607f1b0382116127a657816127349130907f000000000000000000000000000000000000000000000000000000000000000090614689565b60ff196002541660025560016001607f1b0360e4355f031161278f576001600160801b036127659116600f0b613581565b6001600160801b0316916315d7892d60e21b926001600160801b031960e4355f0360801b16179190565b63028446dd60e11b825260e4355f03600452602482fd5b6363ce7e7160e11b83526004829052602483fd5b637ed62b6360e01b84526004839052602452604483fd5b63c0714aa760e01b85526001600160a01b03908116600452821660245260e4355f03604452606484fd5b5083156126eb565b5060e43515156126e5565b6040516370a0823160e01b8152306004820152906020826024816001600160a01b0388165afa9182156128ab578892612877575b5080820361285057506126dd565b63c43d3adb60e01b88526001600160a01b0390931660045260249290925250604452606484fd5b9091506020813d6020116128a3575b8161289360209383611071565b810103126101b75751905f612842565b3d9150612886565b6040513d8a823e3d90fd5b506001600160a01b03831615156126d8565b6040516370a0823160e01b8152306004820152906020826024816001600160a01b038a165afa80156128ab578890612905575b6126cf92506118a3565b506020823d602011612931575b8161291f60209383611071565b810103126101b7576126cf91516128fb565b3d9150612912565b604051636eb1769f60e11b81523060048201526001600160a01b0382811660248301528390829060449082908b165afa9283156129d3578b936129a3575b505081156126bd576331f611dd60e11b8a526001600160a01b0380871660045216602452604452606488fd5b9080929350813d83116129cc575b6129bb8183611071565b810103126101b75751905f80612977565b503d6129b1565b6040513d8d823e3d90fd5b8381813d8311612a01575b6129f38183611071565b810103126101b757516126b6565b503d6129e9565b6040513d8e823e3d90fd5b898261262b565b60405163095ea7b360e01b83526001600160a01b0385811660045260e4355f036024526020908490604490829081908f165af1906001845114821615612b5e575b60405261261e5790508b886001602083604481806040519663095ea7b360e01b8252868060a01b038c1660045281602452868060a01b03165af1925114821615612b3d575b60405215612af7578b886001602083604481806040519663095ea7b360e01b8252868060a01b038c1660045260e4355f03602452868060a01b03165af1925114821615612b13575b60405215612af7578b9061261e565b635274afe760e01b8c526001600160a01b03881660045260248cfd5b906001811516612b34573d156001600160a01b038b163b1515161690612ae8565b503d8d823e3d90fd5b906001811516612b34573d156001600160a01b038b163b1515161690612aa0565b3d156001600160a01b038c163b15151690911690612a5b565b612bf69250602091612b916001600160a01b038b16611c3b565b8c60405193612ba08686611071565b818552604051968795869485936313da831760e01b8552306004860152602485015260e4355f03604485015260018060a01b031660648401528d60848401523060a484015260e060c484015260e483019061187f565b03926001600160a01b03165af18015612c4357612c14575b506126c0565b612c359060203d602011612c3c575b612c2d8183611071565b81019061135e565b505f612c0e565b503d612c23565b6040513d8b823e3d90fd5b6040516370a0823160e01b81523060048201526020816024816001600160a01b038d165afa9081156129d3578b91612c88575b5093612603565b90506020813d602011612cb2575b81612ca360209383611071565b810103126101b757515f612c81565b3d9150612c96565b612cc79198505f90611071565b5f965f6125db565b90506020813d602011612cf9575b81612cea60209383611071565b810103126101b757515f612561565b3d9150612cdd565b5f95612564565b506001600160a01b0383161515612529565b612d2381614288565b612521565b8580929398945091612d5a575b50612d44575b50600190612512565b909450600181018091116114bc57936001612d3b565b9050600182018083116114bc57115f612d35565b50808411612505565b612456565b8b7f7a23c5ecccd05a835903b88a2163b466b6337b968dde0e581fdccf14d5c74ed960605f8e61244d565b5089831161241f565b5081612419565b905092612411565b905098612408565b9050936123ff565b909450158015612de1575b935f6123f5565b50838111612dda565b975084158015612dfb575b976123ef565b5081811015612df5565b60016001607f1b0382111594506123e8565b81151594506123e2565b60016001607f1b0381111597506123dc565b80151597506123d6565b3b151594505f6123cf565b3b151596505f6123b9565b5050505050505050505090507f263dfe81324d31d9db2a4afda6df10810d5f84b970529f73d0b0834cfe99ab5060606040515f81525f6020820152336040820152a26315d7892d60e21b905f908190565b9050155f612381565b909a509450612ec56001600160a01b03891682613ee5565b99612edf8b6001600160a01b038b1660e4355f03856118b0565b95612378565b9093509150612efd6001600160a01b0387168a613ee5565b926001600160a01b03841680156130f857612f88905f8c612f266001600160a01b038c16611c3b565b9260209360405192612f388685611071565b848452604051630aff0c3160e01b815260048101919091526001600160a01b03909116602482015260e4358403604482015230606482015260a060848201529485928391829160a483019061187f565b03915afa9182915f93612faa575b5050612fa457505f92612372565b92612372565b909192503d805f843e612fbd8184611071565b6101808382810103126101b757612fd681840184611262565b50610120830151926101608101516001600160401b0381116101b757828201601f8284010112156101b75780820151928461301085611813565b61301d6040519182611071565b8581520191818401868660051b8387010101116101b7578581850101925b868660051b8387010101841061305a5750505050505050905f80612f96565b83516001600160401b0381116101b75782860101906080601f19838689010301126101b7576040519161308c83610ff0565b808901516001600160a01b03811681036101b75783526130ae6040820161133d565b89840152606081015160408401526080810151916001600160401b0383116101b75789936130e68594938580958a8d0192010161182a565b6060820152815201940193905061303b565b505f92612372565b5f612365565b5f9561235d565b6024356001600160a01b03811681036101b7579061231e565b6044356001600160a01b03811681036101b75790612301565b6301c0fdc160e31b5f5260e43560045260245ffd5b637e428b3560e01b5f523360045260245ffd5b93919492945f955b83518710156131af5760406131848886612184565b510151811981116131a35781018091116114bc5760019096019561316f565b50505050509150505f90565b604051633a01714f60e01b8152600481018490526001600160a01b0383811660248301529597509295909416925090606081604481865afa5f918161330a575b506131fd5750505050505f90565b80516001600160a01b03928316921682900361197b579060408051926132238285611071565b600184526020840192601f19830136853761323d85612167565b5263ffffffff8260ff60208401511692015116915196879463b5c104f360e01b865260848601916004870152608060248701525180915260a4850193905f5b8181106132e85750505060209492849283926044840152606483015203915afa5f92816132b4575b506132af5750505f90565b111590565b9092506020813d6020116132e0575b816132d060209383611071565b810103126101b75751915f6132a4565b3d91506132c3565b82516001600160a01b031686528996506020958601959092019160010161327c565b9091506060813d60601161336d575b8161332660609383611071565b810103126101b757613361604080519261333f8461101f565b6133488161134a565b845261335660208201611c50565b602085015201611251565b6040820152905f6131ef565b3d9150613319565b60405163659a204760e01b81526001600160a01b03919091169290602081600481875afa5f91816134d4575b506133ad575050505090565b60405163438bebe160e11b8152306004820181905260248201859052604482015290602090829060649082906001600160a01b03165afa5f9181613498575b506133f8575050505090565b6134925760405163c66d192b60e01b815260048101929092526001600160a01b0316602482015290602090829060449082905afa5f918161345e575b5061343d575090565b6114b991908082101561345657506028815b04906118a3565b60289061344f565b9091506020813d60201161348a575b8161347a60209383611071565b810103126101b75751905f613434565b3d915061346d565b50505090565b9091506020813d6020116134cc575b816134b460209383611071565b810103126101b7576134c59061133d565b905f6133ec565b3d91506134a7565b9091506020813d602011613510575b816134f060209383611071565b810103126101b757516001600160a01b03811681036101b757905f6133a1565b3d91506134e3565b90815f52600160205260405f20604051906135328261101f565b549061ffff82168152604061ffff808460101c169384602085015260201c169101521561213b5763ffffffff1690811561357a5761357463ffffffff9161208a565b16101590565b5050600190565b600f0b6f7fffffffffffffffffffffffffffffff1981146114bc575f0390565b805f52600160205260405f2090604051916135bb8361101f565b5461ffff81168352600261ffff8260101c1661ffff602086019382855260201c16604086015210612160577f000000000000000000000000000000000000000000000000000000000000000090613620836136168185613990565b5050949050613a2f565b9161362a8461208a565b61070863ffffffff82161015613987575b63ffffffff8116156119845761ffff8061365a97511693511694612198565b60020b908160ff1d82810118620d89e881116139745763ffffffff9192600182167001fffcb933bd6fad37aa2d162d1a59400102600160801b189160028116613958575b6004811661393c575b60088116613920575b60108116613904575b602081166138e8575b604081166138cc575b608081166138b0575b6101008116613894575b6102008116613878575b610400811661385c575b6108008116613840575b6110008116613824575b6120008116613808575b61400081166137ec575b61800081166137d0575b6201000081166137b4575b620200008116613799575b62040000811661377e575b6208000016613765575b5f1261375d575b0160201c90565b5f1904613756565b6b048a170391f7dc42444e8fa290910260801c9061374f565b6d2216e584f5fa1ea926041bedfe9890920260801c91613745565b916e5d6af8dedb81196699c329225ee6040260801c9161373a565b916f09aa508b5b7a84e1c677de54f3e99bc90260801c9161372f565b916f31be135f97d08fd981231505542fcfa60260801c91613724565b916f70d869a156d2a1b890bb3df62baf32f70260801c9161371a565b916fa9f746462d870fdf8a65dc1f90e061e50260801c91613710565b916fd097f3bdfd2022b8845ad8f792aa58250260801c91613706565b916fe7159475a2c29b7443b29c7fa6e889d90260801c916136fc565b916ff3392b0822b70005940c7a398e4b70f30260801c916136f2565b916ff987a7253ac413176f2b074cf7815e540260801c916136e8565b916ffcbe86c7900a88aedcffc83b479aa3a40260801c916136de565b916ffe5dee046a99a2a811c461f1969c30530260801c916136d4565b916fff2ea16466c96a3843ec78b326b528610260801c916136cb565b916fff973b41fa98c081472e6896dfb254c00260801c916136c2565b916fffcb9843d60f6159c9db58835c9266440260801c916136b9565b916fffe5caca7e10e4e61c3624eaa0941cd00260801c916136b0565b916ffff2e50f5f656932ef12357cf3c7fdcc0260801c916136a7565b916ffff97272373d413259a46990580e213a0260801c9161369e565b826345c3193d60e11b5f5260045260245ffd5b5061070861363b565b919061399d602091613fa7565b604051631e2eaeaf60e01b8152600481019190915292839060249082906001600160a01b03165afa918215611808575f926139fb575b506001600160a01b0382169160a081901c60020b9162ffffff60b883901c81169260d01c1690565b9091506020813d602011613a27575b81613a1760209383611071565b810103126101b75751905f6139d3565b3d9150613a0a565b90613a3990613fa7565b600381018091116114bc57604051631e2eaeaf60e01b8152600481019190915290602090829060249082906001600160a01b03165afa8015611808575f90613a8a575b6001600160801b0391501690565b506020813d602011613abb575b81613aa460209383611071565b810103126101b7576001600160801b039051613a7c565b3d9150613a97565b9694959092919561ffff82168015613b9d5750865194613ae286611813565b93613af06040519586611071565b868552601f19613aff88611813565b013660208701378499613b1188611813565b96613b1f6040519889611071565b888852601f19613b2e8a611813565b013660208a0137879a5f5b8a8110613b4d575050505050505050505050565b808a81613b7d613b758c8c8c8c8c8c63ffffffff613b6d60019d8f612184565b511691613fcd565b929093612184565b90848060a01b03169052613b91828c612184565b9060060b905201613b39565b631bd3597160e31b5f5260045260245ffd5b60011b906201fffe61fffe8316921682036114bc57565b805f52600160205260405f2060405190613bdf8261101f565b549061ffff8216815261ffff8260101c1690602081019180835261ffff604083019460201c16845215613d79577f0000000000000000000000000000000000000000000000000000000000000000613c4585613c3b8184613990565b5050939050613a2f565b9161ffff8551169461ffff8551168681149081613d59575b50613cf7575b5091613c8f93918593875f525f60205261ffff8060405f209251169451169363ffffffff421691614189565b91909261ffff60405194613ca28661101f565b16845261ffff602085019316835261ffff60408501921682525f52600160205261ffff60405f2093511665ffff0000000063ffff00008554945160101b16925160201b169265ffffffffffff19161717179055565b613c8f949295508061070961ffff613d1781613d3a959896985116613baf565b161115613d4557610709905b885f525f60205261ffff60405f209151169061411f565b949193929092613c63565b613d5361ffff825116613baf565b90613d23565b905061ffff835116905f190161ffff81116114bc5761ffff16145f613c5d565b50505050565b915f925f92602481101580613dad575b613d97575050565b91925092506024116101b7576004600192013590565b50806004116101b75781356001600160e01b0319166386f23c4960e01b14613d8f565b604051630f85421b60e01b81526001600160a01b039182166004820181905290917f000000000000000000000000000000000000000000000000000000000000000016602083602481845afa928315611808575f93613eb1575b5082156121605760206024916040519283809263ea78803f60e01b82528760048301525afa908115611808575f91613e6f575b506001600160a01b0316036121415790565b90506020813d602011613ea9575b81613e8a60209383611071565b810103126101b757516001600160a01b03811681036101b7575f613e5d565b3d9150613e7d565b9092506020813d602011613edd575b81613ecd60209383611071565b810103126101b75751915f613e2a565b3d9150613ec0565b602090613ef4613f2393611c3b565b604051630862026560e41b815260048101929092526001600160a01b0316602482015291829081906044820190565b03817f00000000000000000000000000000000000000000000000000000000000000006001600160a01b03165afa5f9181613f63575b506114b957505f90565b9091506020813d602011613f9f575b81613f7f60209383611071565b810103126101b757516001600160a01b03811681036101b757905f613f59565b3d9150613f72565b604051602081019182526006604082015260408152613fc7606082611071565b51902090565b9492909695939163ffffffff8116156140c9579463ffffffff613ff5968903169788916144cd565b909263ffffffff8451168082145f1461402457505050602082015160060b91604060018060a01b039101511690565b63ffffffff83959351168083145f146140545750505050602082015160060b91604060018060a01b039101511690565b9063ffffffff81819397949597031693031693602081015160060b9283602084015160060b0360060b928160060b928315611ce7576040908101519101516001600160a01b03929183169183916140b49190831684900383168a02611cdd565b1601169460060b91050260060b0160060b9190565b509250612100906140da9294610fcc565b9363ffffffff85511663ffffffff82160361410c575b505050602082015160060b91604060018060a01b039101511690565b6141169394614413565b905f80806140f0565b61ffff82169182156141765761ffff84169283111561416f575b8261ffff82161061414a5750505090565b60018161415a61ffff9385610fcc565b50805463ffffffff1916831790550116614139565b9250505090565b82631bd3597160e31b5f5260045260245ffd5b939195929096949661419e6121008287610fcc565b9363ffffffff85511663ffffffff89161461427e57916141e66141f495949261ffff6141ee958c8260019d9e16838316118061426e575b1561426457509a8b925b0116612033565b988994614413565b92610fcc565b91909161425157805160208083015160408401516060909401516001600160f81b031990151560f81b16600160581b600160f81b0360589590951b9490941663ffffffff909316911b6affffffffffffff00000000161717179055565b634e487b7160e01b5f525f60045260245ffd5b90509a8b926141df565b508383165f1982018416146141d5565b5096955050505050565b60405163c6c116bd60e01b815230600482015260248101829052906020826044817f00000000000000000000000000000000000000000000000000000000000000006001600160a01b03165afa918215611808575f926143bb575b5081156143b757604051632eec7b5560e11b8152600481018290526020816024817f00000000000000000000000000000000000000000000000000000000000000006001600160a01b03165afa908115611808575f91614398575b506001600160a01b031691823b156101b75760845f9283604051958694859363181faefd60e11b8552306004860152602485015260448401523060648401525af180156118085761438c5750565b5f61439691611071565b565b6143b1915060203d602011611801576117f38183611071565b5f61433e565b5050565b9091506020813d6020116143e7575b816143d760209383611071565b810103126101b75751905f6142e3565b3d91506143ca565b604051906143fc82610ff0565b5f6060838281528260208201528260408201520152565b9192909261441f6143ef565b5063ffffffff835116840392602081015160060b90604060018060a01b0391015116926001600160801b03811615155f146144bd576001600160801b03905b16918215611ce75763ffffffff6040519661447888610ff0565b16865263ffffffff851660060b9060020b0260060b0160060b602085015260018060a01b039263ffffffff60801b9060801b1604011660408201526001606082015290565b506001600160801b03600161445e565b96929490949391936144dd6143ef565b506144e66143ef565b916144f4612100858b610fcc565b9163ffffffff83511661450888828b614898565b61465e575050505050600161ffff91011661452f6121006145298784612033565b88610fcc565b606081015115614648575b5163ffffffff1661454c848287614898565b1561462b575061ffff6145728682936145636143ef565b5061456c6143ef565b50612033565b169416935f19858201015b80820160011c9061459a6121006145948985614916565b8a610fcc565b6060810151156146205760018301906145bf6121006145b98b85614916565b8c610fcc565b6145d18863ffffffff8451168b614898565b918280614608575b6145f95750506145f05750505f1901905b9061457d565b915091506145ea565b9a509850949650505050505050565b5061461b63ffffffff8351168a8c614898565b6145d9565b5091506001016145ea565b8363ffffffff91630703673b60e01b5f526004521660245260445ffd5b5063ffffffff61465787612047565b905061453a565b93995094975090955093915063ffffffff82160361467d575050509190565b836114b9949650614413565b8315613d79576001600160a01b0316918261473e57506001600160a01b0316803b156101b75760405191632961046560e21b835260048301525a915f8160248183868198f1801561180857614728575b50602090600460405180958193630476982d60e21b83525af190811561471c57506147015750565b6147199060203d602011612c3c57612c2d8183611071565b50565b604051903d90823e3d90fd5b6147359192505f90611071565b5f9060206146d9565b926001600160a01b039091169190823b156101b757604051632961046560e21b815260048101839052935a945f816024818389819bf1801561180857614883575b506001600160a01b03169030821461482a57604051916323b872dd60e01b86526004528360245260445260208460648180865af1906001855114821615614809575b60405283606052156147f75750602082915b600460405180958193630476982d60e21b83525af190811561471c57506147015750565b635274afe760e01b8352600452602482fd5b90600181151661482157823b15153d151616906147c1565b503d84823e3d90fd5b90506040519063a9059cbb60e01b85528360045260245260208460448180865af190600185511482161561486b575b604052156147f75750602082916147d3565b90600181151661482157823b15153d15161690614859565b6148909195505f90611071565b5f935f61477f565b63ffffffff918216929116808311801580614906575b6148f9579063ffffffff64ffffffffff939484935f146148ea57945b16908111156148dc575b169116111590565b6401000000000181166148d4565b640100000000018316946148ca565b505063ffffffff16101590565b508163ffffffff841611156148ae565b8115611ce757069056fea164736f6c634300081c000a",
	"gitCommit": "npm:@bananapus/univ4-router-v6@1.1.2",
	"gitDirty": false,
	"history": []
}