{
	"format": "sphinx-sol-ct-artifact-1",
	"address": "0xbfa54a97099485c134f06c9a08a4909c26fd7318",
	"sourceName": "node_modules/@ballkidz/defifa/src/DefifaDeployer.sol",
	"contractName": "DefifaDeployer",
	"chainId": "0xaa36a7",
	"abi": [
		{
			"type": "constructor",
			"inputs": [
				{
					"name": "hookCodeOrigin",
					"type": "address",
					"internalType": "address"
				},
				{
					"name": "tokenUriResolver",
					"type": "address",
					"internalType": "contract IJB721TokenUriResolver"
				},
				{
					"name": "governor",
					"type": "address",
					"internalType": "contract IDefifaGovernor"
				},
				{
					"name": "controller",
					"type": "address",
					"internalType": "contract IJBController"
				},
				{
					"name": "registry",
					"type": "address",
					"internalType": "contract IJBAddressRegistry"
				},
				{
					"name": "defifaProjectId",
					"type": "uint256",
					"internalType": "uint256"
				},
				{
					"name": "baseProtocolProjectId",
					"type": "uint256",
					"internalType": "uint256"
				},
				{
					"name": "hookStore",
					"type": "address",
					"internalType": "contract IJB721TiersHookStore"
				},
				{
					"name": "trustedForwarder",
					"type": "address",
					"internalType": "address"
				}
			],
			"stateMutability": "nonpayable"
		},
		{
			"type": "function",
			"name": "BASE_PROTOCOL_FEE_DIVISOR",
			"inputs": [],
			"outputs": [
				{
					"name": "",
					"type": "uint256",
					"internalType": "uint256"
				}
			],
			"stateMutability": "view"
		},
		{
			"type": "function",
			"name": "BASE_PROTOCOL_PROJECT_ID",
			"inputs": [],
			"outputs": [
				{
					"name": "",
					"type": "uint256",
					"internalType": "uint256"
				}
			],
			"stateMutability": "view"
		},
		{
			"type": "function",
			"name": "CONTROLLER",
			"inputs": [],
			"outputs": [
				{
					"name": "",
					"type": "address",
					"internalType": "contract IJBController"
				}
			],
			"stateMutability": "view"
		},
		{
			"type": "function",
			"name": "DEFIFA_FEE_DIVISOR",
			"inputs": [],
			"outputs": [
				{
					"name": "",
					"type": "uint256",
					"internalType": "uint256"
				}
			],
			"stateMutability": "view"
		},
		{
			"type": "function",
			"name": "DEFIFA_PROJECT_ID",
			"inputs": [],
			"outputs": [
				{
					"name": "",
					"type": "uint256",
					"internalType": "uint256"
				}
			],
			"stateMutability": "view"
		},
		{
			"type": "function",
			"name": "DIRECTORY",
			"inputs": [],
			"outputs": [
				{
					"name": "",
					"type": "address",
					"internalType": "contract IJBDirectory"
				}
			],
			"stateMutability": "view"
		},
		{
			"type": "function",
			"name": "GOVERNOR",
			"inputs": [],
			"outputs": [
				{
					"name": "",
					"type": "address",
					"internalType": "contract IDefifaGovernor"
				}
			],
			"stateMutability": "view"
		},
		{
			"type": "function",
			"name": "HOOK_CODE_ORIGIN",
			"inputs": [],
			"outputs": [
				{
					"name": "",
					"type": "address",
					"internalType": "address"
				}
			],
			"stateMutability": "view"
		},
		{
			"type": "function",
			"name": "HOOK_STORE",
			"inputs": [],
			"outputs": [
				{
					"name": "",
					"type": "address",
					"internalType": "contract IJB721TiersHookStore"
				}
			],
			"stateMutability": "view"
		},
		{
			"type": "function",
			"name": "PROJECTS",
			"inputs": [],
			"outputs": [
				{
					"name": "",
					"type": "address",
					"internalType": "contract IJBProjects"
				}
			],
			"stateMutability": "view"
		},
		{
			"type": "function",
			"name": "REGISTRY",
			"inputs": [],
			"outputs": [
				{
					"name": "",
					"type": "address",
					"internalType": "contract IJBAddressRegistry"
				}
			],
			"stateMutability": "view"
		},
		{
			"type": "function",
			"name": "RULESETS",
			"inputs": [],
			"outputs": [
				{
					"name": "",
					"type": "address",
					"internalType": "contract IJBRulesets"
				}
			],
			"stateMutability": "view"
		},
		{
			"type": "function",
			"name": "TOKEN_URI_RESOLVER",
			"inputs": [],
			"outputs": [
				{
					"name": "",
					"type": "address",
					"internalType": "contract IJB721TokenUriResolver"
				}
			],
			"stateMutability": "view"
		},
		{
			"type": "function",
			"name": "commitmentsFulfilledFor",
			"inputs": [
				{
					"name": "",
					"type": "uint256",
					"internalType": "uint256"
				}
			],
			"outputs": [
				{
					"name": "",
					"type": "bool",
					"internalType": "bool"
				}
			],
			"stateMutability": "view"
		},
		{
			"type": "function",
			"name": "currentGamePhaseOf",
			"inputs": [
				{
					"name": "gameId",
					"type": "uint256",
					"internalType": "uint256"
				}
			],
			"outputs": [
				{
					"name": "",
					"type": "uint8",
					"internalType": "enum DefifaGamePhase"
				}
			],
			"stateMutability": "view"
		},
		{
			"type": "function",
			"name": "currentGamePotOf",
			"inputs": [
				{
					"name": "gameId",
					"type": "uint256",
					"internalType": "uint256"
				},
				{
					"name": "includeCommitments",
					"type": "bool",
					"internalType": "bool"
				}
			],
			"outputs": [
				{
					"name": "",
					"type": "uint256",
					"internalType": "uint256"
				},
				{
					"name": "",
					"type": "address",
					"internalType": "address"
				},
				{
					"name": "",
					"type": "uint256",
					"internalType": "uint256"
				}
			],
			"stateMutability": "view"
		},
		{
			"type": "function",
			"name": "fulfillCommitmentsOf",
			"inputs": [
				{
					"name": "gameId",
					"type": "uint256",
					"internalType": "uint256"
				}
			],
			"outputs": [],
			"stateMutability": "nonpayable"
		},
		{
			"type": "function",
			"name": "fulfilledCommitmentsOf",
			"inputs": [
				{
					"name": "",
					"type": "uint256",
					"internalType": "uint256"
				}
			],
			"outputs": [
				{
					"name": "",
					"type": "uint256",
					"internalType": "uint256"
				}
			],
			"stateMutability": "view"
		},
		{
			"type": "function",
			"name": "isTrustedForwarder",
			"inputs": [
				{
					"name": "forwarder",
					"type": "address",
					"internalType": "address"
				}
			],
			"outputs": [
				{
					"name": "",
					"type": "bool",
					"internalType": "bool"
				}
			],
			"stateMutability": "view"
		},
		{
			"type": "function",
			"name": "launchGameWith",
			"inputs": [
				{
					"name": "launchProjectData",
					"type": "tuple",
					"internalType": "struct DefifaLaunchProjectData",
					"components": [
						{
							"name": "name",
							"type": "string",
							"internalType": "string"
						},
						{
							"name": "projectUri",
							"type": "string",
							"internalType": "string"
						},
						{
							"name": "contractUri",
							"type": "string",
							"internalType": "string"
						},
						{
							"name": "baseUri",
							"type": "string",
							"internalType": "string"
						},
						{
							"name": "tiers",
							"type": "tuple[]",
							"internalType": "struct DefifaTierParams[]",
							"components": [
								{
									"name": "name",
									"type": "string",
									"internalType": "string"
								},
								{
									"name": "reservedRate",
									"type": "uint16",
									"internalType": "uint16"
								},
								{
									"name": "reservedTokenBeneficiary",
									"type": "address",
									"internalType": "address"
								},
								{
									"name": "encodedIpfsUri",
									"type": "bytes32",
									"internalType": "bytes32"
								},
								{
									"name": "shouldUseReservedTokenBeneficiaryAsDefault",
									"type": "bool",
									"internalType": "bool"
								}
							]
						},
						{
							"name": "tierPrice",
							"type": "uint104",
							"internalType": "uint104"
						},
						{
							"name": "token",
							"type": "tuple",
							"internalType": "struct JBAccountingContext",
							"components": [
								{
									"name": "token",
									"type": "address",
									"internalType": "address"
								},
								{
									"name": "decimals",
									"type": "uint8",
									"internalType": "uint8"
								},
								{
									"name": "currency",
									"type": "uint32",
									"internalType": "uint32"
								}
							]
						},
						{
							"name": "mintPeriodDuration",
							"type": "uint24",
							"internalType": "uint24"
						},
						{
							"name": "refundPeriodDuration",
							"type": "uint24",
							"internalType": "uint24"
						},
						{
							"name": "start",
							"type": "uint48",
							"internalType": "uint48"
						},
						{
							"name": "splits",
							"type": "tuple[]",
							"internalType": "struct JBSplit[]",
							"components": [
								{
									"name": "percent",
									"type": "uint32",
									"internalType": "uint32"
								},
								{
									"name": "projectId",
									"type": "uint64",
									"internalType": "uint64"
								},
								{
									"name": "beneficiary",
									"type": "address",
									"internalType": "address payable"
								},
								{
									"name": "preferAddToBalance",
									"type": "bool",
									"internalType": "bool"
								},
								{
									"name": "lockedUntil",
									"type": "uint48",
									"internalType": "uint48"
								},
								{
									"name": "hook",
									"type": "address",
									"internalType": "contract IJBSplitHook"
								}
							]
						},
						{
							"name": "attestationStartTime",
							"type": "uint256",
							"internalType": "uint256"
						},
						{
							"name": "attestationGracePeriod",
							"type": "uint256",
							"internalType": "uint256"
						},
						{
							"name": "defaultAttestationDelegate",
							"type": "address",
							"internalType": "address"
						},
						{
							"name": "defaultTokenUriResolver",
							"type": "address",
							"internalType": "contract IJB721TokenUriResolver"
						},
						{
							"name": "terminal",
							"type": "address",
							"internalType": "contract IJBTerminal"
						},
						{
							"name": "minParticipation",
							"type": "uint256",
							"internalType": "uint256"
						},
						{
							"name": "scorecardTimeout",
							"type": "uint32",
							"internalType": "uint32"
						},
						{
							"name": "timelockDuration",
							"type": "uint256",
							"internalType": "uint256"
						}
					]
				}
			],
			"outputs": [
				{
					"name": "gameId",
					"type": "uint256",
					"internalType": "uint256"
				}
			],
			"stateMutability": "payable"
		},
		{
			"type": "function",
			"name": "nextPhaseNeedsQueueing",
			"inputs": [
				{
					"name": "gameId",
					"type": "uint256",
					"internalType": "uint256"
				}
			],
			"outputs": [
				{
					"name": "",
					"type": "bool",
					"internalType": "bool"
				}
			],
			"stateMutability": "view"
		},
		{
			"type": "function",
			"name": "noContestTriggeredFor",
			"inputs": [
				{
					"name": "",
					"type": "uint256",
					"internalType": "uint256"
				}
			],
			"outputs": [
				{
					"name": "",
					"type": "bool",
					"internalType": "bool"
				}
			],
			"stateMutability": "view"
		},
		{
			"type": "function",
			"name": "onERC721Received",
			"inputs": [
				{
					"name": "",
					"type": "address",
					"internalType": "address"
				},
				{
					"name": "",
					"type": "address",
					"internalType": "address"
				},
				{
					"name": "",
					"type": "uint256",
					"internalType": "uint256"
				},
				{
					"name": "",
					"type": "bytes",
					"internalType": "bytes"
				}
			],
			"outputs": [
				{
					"name": "",
					"type": "bytes4",
					"internalType": "bytes4"
				}
			],
			"stateMutability": "pure"
		},
		{
			"type": "function",
			"name": "originalPayer",
			"inputs": [],
			"outputs": [
				{
					"name": "",
					"type": "address",
					"internalType": "address"
				}
			],
			"stateMutability": "view"
		},
		{
			"type": "function",
			"name": "safetyParamsOf",
			"inputs": [
				{
					"name": "gameId",
					"type": "uint256",
					"internalType": "uint256"
				}
			],
			"outputs": [
				{
					"name": "minParticipation",
					"type": "uint256",
					"internalType": "uint256"
				},
				{
					"name": "scorecardTimeout",
					"type": "uint32",
					"internalType": "uint32"
				}
			],
			"stateMutability": "view"
		},
		{
			"type": "function",
			"name": "timesFor",
			"inputs": [
				{
					"name": "gameId",
					"type": "uint256",
					"internalType": "uint256"
				}
			],
			"outputs": [
				{
					"name": "",
					"type": "uint48",
					"internalType": "uint48"
				},
				{
					"name": "",
					"type": "uint24",
					"internalType": "uint24"
				},
				{
					"name": "",
					"type": "uint24",
					"internalType": "uint24"
				}
			],
			"stateMutability": "view"
		},
		{
			"type": "function",
			"name": "tokenOf",
			"inputs": [
				{
					"name": "gameId",
					"type": "uint256",
					"internalType": "uint256"
				}
			],
			"outputs": [
				{
					"name": "",
					"type": "address",
					"internalType": "address"
				}
			],
			"stateMutability": "view"
		},
		{
			"type": "function",
			"name": "triggerNoContestFor",
			"inputs": [
				{
					"name": "gameId",
					"type": "uint256",
					"internalType": "uint256"
				}
			],
			"outputs": [],
			"stateMutability": "nonpayable"
		},
		{
			"type": "function",
			"name": "trustedForwarder",
			"inputs": [],
			"outputs": [
				{
					"name": "",
					"type": "address",
					"internalType": "address"
				}
			],
			"stateMutability": "view"
		},
		{
			"type": "event",
			"name": "CommitmentPayoutFailed",
			"inputs": [
				{
					"name": "gameId",
					"type": "uint256",
					"indexed": true,
					"internalType": "uint256"
				},
				{
					"name": "amount",
					"type": "uint256",
					"indexed": false,
					"internalType": "uint256"
				},
				{
					"name": "reason",
					"type": "bytes",
					"indexed": false,
					"internalType": "bytes"
				},
				{
					"name": "caller",
					"type": "address",
					"indexed": false,
					"internalType": "address"
				}
			],
			"anonymous": false
		},
		{
			"type": "event",
			"name": "FulfilledCommitments",
			"inputs": [
				{
					"name": "gameId",
					"type": "uint256",
					"indexed": true,
					"internalType": "uint256"
				},
				{
					"name": "pot",
					"type": "uint256",
					"indexed": false,
					"internalType": "uint256"
				},
				{
					"name": "caller",
					"type": "address",
					"indexed": false,
					"internalType": "address"
				}
			],
			"anonymous": false
		},
		{
			"type": "event",
			"name": "LaunchGame",
			"inputs": [
				{
					"name": "gameId",
					"type": "uint256",
					"indexed": true,
					"internalType": "uint256"
				},
				{
					"name": "hook",
					"type": "address",
					"indexed": true,
					"internalType": "contract IDefifaHook"
				},
				{
					"name": "governor",
					"type": "address",
					"indexed": true,
					"internalType": "contract IDefifaGovernor"
				},
				{
					"name": "tokenUriResolver",
					"type": "address",
					"indexed": false,
					"internalType": "contract IJB721TokenUriResolver"
				},
				{
					"name": "caller",
					"type": "address",
					"indexed": false,
					"internalType": "address"
				}
			],
			"anonymous": false
		},
		{
			"type": "event",
			"name": "QueuedNoContest",
			"inputs": [
				{
					"name": "gameId",
					"type": "uint256",
					"indexed": true,
					"internalType": "uint256"
				},
				{
					"name": "caller",
					"type": "address",
					"indexed": false,
					"internalType": "address"
				}
			],
			"anonymous": false
		},
		{
			"type": "error",
			"name": "DefifaDeployer_CantFulfillYet",
			"inputs": [
				{
					"name": "gameId",
					"type": "uint256",
					"internalType": "uint256"
				}
			]
		},
		{
			"type": "error",
			"name": "DefifaDeployer_InvalidCurrency",
			"inputs": [
				{
					"name": "token",
					"type": "address",
					"internalType": "address"
				},
				{
					"name": "currency",
					"type": "uint256",
					"internalType": "uint256"
				}
			]
		},
		{
			"type": "error",
			"name": "DefifaDeployer_InvalidGameConfiguration",
			"inputs": [
				{
					"name": "start",
					"type": "uint256",
					"internalType": "uint256"
				},
				{
					"name": "mintPeriodDuration",
					"type": "uint256",
					"internalType": "uint256"
				},
				{
					"name": "refundPeriodDuration",
					"type": "uint256",
					"internalType": "uint256"
				},
				{
					"name": "tierCount",
					"type": "uint256",
					"internalType": "uint256"
				}
			]
		},
		{
			"type": "error",
			"name": "DefifaDeployer_NoContestAlreadyTriggered",
			"inputs": [
				{
					"name": "gameId",
					"type": "uint256",
					"internalType": "uint256"
				}
			]
		},
		{
			"type": "error",
			"name": "DefifaDeployer_NotNoContest",
			"inputs": [
				{
					"name": "gameId",
					"type": "uint256",
					"internalType": "uint256"
				},
				{
					"name": "phase",
					"type": "uint8",
					"internalType": "enum DefifaGamePhase"
				}
			]
		},
		{
			"type": "error",
			"name": "DefifaDeployer_SplitsDontAddUp",
			"inputs": [
				{
					"name": "totalPercent",
					"type": "uint256",
					"internalType": "uint256"
				},
				{
					"name": "maxPercent",
					"type": "uint256",
					"internalType": "uint256"
				}
			]
		},
		{
			"type": "error",
			"name": "FailedDeployment",
			"inputs": []
		},
		{
			"type": "error",
			"name": "InsufficientBalance",
			"inputs": [
				{
					"name": "balance",
					"type": "uint256",
					"internalType": "uint256"
				},
				{
					"name": "needed",
					"type": "uint256",
					"internalType": "uint256"
				}
			]
		},
		{
			"type": "error",
			"name": "PRBMath_MulDiv_Overflow",
			"inputs": [
				{
					"name": "x",
					"type": "uint256",
					"internalType": "uint256"
				},
				{
					"name": "y",
					"type": "uint256",
					"internalType": "uint256"
				},
				{
					"name": "denominator",
					"type": "uint256",
					"internalType": "uint256"
				}
			]
		}
	],
	"args": [
		"0x3184783d0E3cBf5A821794b246C71a3D1A0cF312",
		"0x3c2263D4237f584506bBa1B775d11a69555845dE",
		"0xA0ceFA58fD913c1838C39b2c3D0b08EB7F5D6d53",
		"0x3Fcec3572e84b624477BcfF4E2CF1f7dEAb648F1",
		"0x581bFD1eAD279E0a27B736e49494db3a7d85993C",
		"5",
		"1",
		"0x69913acF79DbBA170d9EfAFe605ee62B42164F9C",
		"0x3bA60b60933916a7C87D0860DcEE62a0CE34E3e2"
	],
	"solcInputHash": "0d4f32df8680ef41296ebfbbccf1f9de",
	"bytecode": "0x61020080604052346102a85761012081614c4080380380916100218285610344565b8339810103126102a8576100348161037b565b60208201516001600160a01b03811681036102a85760408301516001600160a01b03811681036102a85760608401516001600160a01b038116908181036102a8576080860151926001600160a01b03841684036102a85760a08701519460c08801519660e08901519860018060a01b038a168a036102a8576101006100b9910161037b565b608052610140526101e0526101205260c0526040516388bc2ef360e01b8152602081600481855afa9081156102b4575f91610302575b506101005260405163293c499960e01b8152602081600481855afa9081156102b4575f916102bf575b506101805260405163d4a1b4b160e01b815290602090829060049082905afa9081156102b4575f9161026e575b506101c0526101a05260e05260a052610160526040516148b090816103908239608051818181612bca01528181612c5d0152614486015260a05181818161133601526125c6015260c0518181816101df0152818161152501528181612d87015281816136f301528181613fdd015261464d015260e0518181816112a9015261305401526101005181818161266a0152818161299a015261409701526101205181818161156c0152612c0e015261014051818181610989015281816109c10152818161169d0152613164015261016051818181610c790152612a2201526101805181818161072501526130b101526101a05181818161164001526131d401526101c05181818161025b01528181610bd70152612a7b01526101e051818181611f9801526129de0152f35b90506020813d6020116102ac575b8161028960209383610344565b810103126102a857516001600160a01b03811681036102a8575f610145565b5f80fd5b3d915061027c565b6040513d5f823e3d90fd5b90506020813d6020116102fa575b816102da60209383610344565b810103126102a857516001600160a01b03811681036102a8576004610118565b3d91506102cd565b90506020813d60201161033c575b8161031d60209383610344565b810103126102a857516001600160a01b03811681036102a8575f6100ef565b3d9150610310565b601f909101601f19168101906001600160401b0382119082101761036757604052565b634e487b7160e01b5f52604160045260245ffd5b51906001600160a01b03821682036102a85756fe610180806040526004361015610013575f80fd5b5f60a0525f3560e01c90816306433b1b146131c2575080630715610a146131935780630e76aef51461314f578063150b7a02146130e0578063293c49991461309c578063296eee5114613077578063404739571461303d5780634366e8ab14612d1657806357039a9114612c91578063572b6c0514612c3d5780636dc0ae2214612bf95780637da0a87714612bb557806381312a1414612a515780638266e64514612a0d57806388a7f53c146129c957806388bc2ef314612985578063a178d2f214612956578063a6f018ad1461293b578063b07925d3146128a9578063b4dfb08614612607578063b6674cde146125e9578063bece0b6e146125af578063c55b14c4146102a7578063ccf64cdb1461028a578063d4a1b4b114610244578063ea78803f1461020e578063ee0fc121146101c8578063f2ae5f6e146101995763f98e4baa14610160575f80fd5b346101935760203660031901126101935760043560a051526002602052602060ff604060a0512054166040519015158152f35b60a05180fd5b346101935760203660031901126101935760043560a0515260a0516020526020604060a0512054604051908152f35b346101935760a051366003190112610193576040517f00000000000000000000000000000000000000000000000000000000000000006001600160a01b03168152602090f35b346101935760203660031901126101935760043560a051526003602052602060018060a01b03604060a051205416604051908152f35b346101935760a051366003190112610193576040517f00000000000000000000000000000000000000000000000000000000000000006001600160a01b03168152602090f35b346101935760a05136600319011261019357602060405160148152f35b6020366003190112611f02576001600160401b0360043511611f025760043536036102a0600319820112611f0257604051610120526102e86101205161326b565b600435600401356001600160401b038111611f025761030e906004369181350101613382565b6101205152602460043501356001600160401b038111611f0257610339906004369181350101613382565b6020610120510152604460043501356001600160401b038111611f0257610367906004369181350101613382565b6040610120510152606460043501356001600160401b038111611f0257610395906004369181350101613382565b6060610120510152608460043501356001600160401b038111611f02576004350136602382011215611f025760048101356103cf816133c8565b916103dd6040519384613346565b818352602060048185019360051b8301010190368211611f025760248101925b828410612508578585608061012051015260a46004350135906001600160681b0382168203611f025760609160a061012051015260c3190112611f0257604051610446816132be565b61045460c46004350161322f565b815260e4600435013560ff81168103611f0257602082015261047b610104600435016133df565b604082015260c0610120510152610497610124600435016133f0565b60e06101205101526104ae610144600435016133f0565b6101006101205101526104c661016460043501613400565b6101208051015261018460043501356001600160401b038111611f02576004350136602382011215611f02576004810135610500816133c8565b9161050e6040519384613346565b8183526020600460c082860194028301010190368211611f0257602401915b81831061246457836101406101205101526101a460043501356101606101205101526101c4600435013561018061012051015261056f6101e46004350161322f565b610120516101a0015260043561020401356001600160a01b0381169003611f025761020460043501356101c0610120510152610224600435013560018060a01b0381168103611f02576101e061012051015261024460043501356102006101205101526105e1610264600435016133df565b610220610120510152610284600435013561024061012051015265ffffffffffff610120805101511680155f146123eb575061064061062c62ffffff60e06101205101511642613f32565b62ffffff6101006101205101511690613f32565b65ffffffffffff811161239f5765ffffffffffff16610120805101525b62ffffff60e06101205101511615801561235c575b61227757608061012051015151608081116123095763ffffffff6102206101205101511615612277576101205160c0015180516001600160a01b03169061eeee821415806122f7575b6122d65763ffffffff61022061012051015116612216575b6106db61445b565b60c08190526001600160a01b03906106f2906147fe565b166bffffffffffffffffffffffff60a01b5f5c16175f5d60405163180e2b1160e31b8152306004820152602081602481347f00000000000000000000000000000000000000000000000000000000000000006001600160a01b03165af18015611da1575f610100526121e2575b505f805c6001600160a01b031916905d60018060a01b0360c0610120510151511663ffffffff600262ffffff60e0610120510151169262ffffff6101006101205101511665ffffffffffff610120805101511661020061012051015191856102206101205101511696604051946107d5866132a3565b85526020850192835260408501908152606085019182526080850193845260a08501978852610100515f52600360205260405f209460018060a01b039051169285549065ffffffffffff60a01b905160a01b169162ffffff60d01b905160d01b169262ffffff60e81b905160e81b169360018060e81b039162ffffff60e81b16171617171782555160018201550191511663ffffffff19825416179055608061012051015151610884816133c8565b6108916040519182613346565b818152601f196108a0836133c8565b015f5b818110612154575050608061012051015151906108bf826133c8565b916108cd6040519384613346565b8083526108dc601f19916133c8565b015f5b8181106121415750505f60806040516108f7816132d9565b6060815282602082015282604082015282606082015201525f925b808410611fcc5750610925600554614429565b6080819052600581905560405160c05160601b6001600160601b03191660208201908152603482019290925261096881605481015b03601f198101835282613346565b519020763d602d80600a3d3981f3363d3d373d3d3d363d7300000062ffffff7f000000000000000000000000000000000000000000000000000000000000000060881c16175f526e5af43d82803e903d91602b57fd5bf37f000000000000000000000000000000000000000000000000000000000000000060781b1760205260018060a01b0390603760095ff51660e05260e05115611fbd57610120516101c001516001600160a01b03168015611f9557915b6101205151610100519092905f908072184f03e93ff9f4daa797ed6e38ed64bf6a1f0160401b811015611f6e575b806d04ee2d6d415b85acef8100000000600a921015611f53575b662386f26fc10000811015611f3f575b6305f5e100811015611f2e575b612710811015611f1f575b6064811015611f11575b1015611f06575b600a60216001840193610ac7610ab186613367565b95610abf6040519788613346565b808752613367565b601f19013660208701378401015b5f1901916f181899199a1a9b1b9c1cb0b131b232b360811b8282061a835304908115610b0357600a90610ad5565b5050610b43602860209260405193849167444546494641202360c01b828401528051918291018484015e81015f838201520301601f198101835282613346565b60606101205101519360406101205101519063ffffffff604060c06101205101510151169160018060a01b036101a0610120510151169360e0513b15611f025790610c166101c098610bd5610c3794610bc360249b9a9998976040519d8e9d8e633c339d9f60e21b815261010051600482015201526101c48d0190613f6e565b8b81036003190160448d015290613f6e565b7f00000000000000000000000000000000000000000000000000000000000000006001600160a01b031660648b01528981036003190160848b015290613f6e565b6001600160a01b038a1660a48901528781036003190160c489015290613f6e565b6003198682030160e4870152835180825260208201916020808360051b8301019601925f915b838310611ddd5750505050506101048501526001600160a01b037f000000000000000000000000000000000000000000000000000000000000000016610124850152306101448501819052610164850152610184840152600319838203016101a484015281518082526020600582901b83018101938101925f918101905b838310611dac5788875f81808a03818360e0515af18015611da157611d8d575b50604061014081905280519190610d129083613346565b6001825260a0515b61014051601f19018110611d5a575060c0610120510151610d3a83613b2f565b52610d4482613b2f565b50610140515191610d586101405184613346565b6001835260a0515b61014051601f19018110611d435750610120516101e00151610140515191906001600160a01b0316610d9183613250565b82526020820152610da183613b2f565b52610dab82613b2f565b5061012051610100015162ffffff161580159290611d3a5760ff60035b1690610dd3826133c8565b91610de361014051519384613346565b808352610df2601f19916133c8565b0160a0515b818110611c35575050610e3c610e2865ffffffffffff610120805101511662ffffff60e06101205101511690614885565b62ffffff6101006101205101511690614885565b62ffffff60e06101205101511663ffffffff6101405160c061012051015101511661ffff610e826101405151610e7181613250565b60a051815260016020820152614437565b16610140515191610e928361326b565b60a051835260a05160208401526101405183015260a051606083015260a051608083015260a05160a083015260a05160c083015260a05160e083015260a05161010083015260a05161012083015260a05161014083015260a05161016083015260a05161018083015260a0516101a083015260016101c083015260016101e0830152600161020083015260e051610220830152610240820152610f33613aa4565b90610f3c613add565b9265ffffffffffff610140515195610f5387613287565b168552602085015260a0516101405185015260a051606085015260a051608085015260a084015260c083015260e0820152610f8d83613b2f565b52610f9782613b2f565b50600193611aad575b610140515160409490610fb38682613346565b6001815260a0515b601f1987018110611a84575063ffffffff6101405160c0610120510151015116610140515190610fea82613250565b6001600160e01b038252602082015261100282613b2f565b5261100c81613b2f565b5061014051519061101d8783613346565b6001825260a0515b601f1988018110611a4c5750610120516101e081015160c0909101515160a0516001600160a01b0392831693919092169161105f906133c8565b9161106f61014051519384613346565b60a0518352601f1961108260a0516133c8565b0160a0515b818110611a2357505061014051519361109f8561332b565b845260208401526101405183015260608201526110bb82613b2f565b526110c581613b2f565b5065ffffffffffff61012080510151169063ffffffff6101405160c06101205101510151169661ffff61111161014051516110ff81613250565b60a051815260a0516020820152614437565b166101405151986111218a61326b565b60a0518a5260a05160208b0152610140518a0152600160608a015260a05160808a015260a05160a08a015260a05160c08a015260a05160e08a015260a0516101008a015260a0516101208a015260a0516101408a015260a0516101608a015260016101808a015260a0516101a08a015260016101c08a015260016101e08a015260016102008a015260e0516102208a015261024089015260018060a01b0360c061012051015151169761014061012051015198895160a0515063047868c060a0515060a051509a60a0515060a0515b828110611a055750633b9aca008c116119e6576101005160a0515260046020528b6101405160a0512055600282018211611902576112459b8291611236600284016133c8565b9161014051519e8f9384613346565b60028401808452601f1990611259906133c8565b0160a0515b81811061199057505060a0519182905b85821061191a5750506113069361128761130092614757565b936101405151611296816132a3565b63ffffffff861681526001600160401b037f000000000000000000000000000000000000000000000000000000000000000016602082015260e0516101405182015260a051606082015260a051608082015260a05160a08201526112fa8383613b60565b52613b60565b50613f32565b633b9aca009081039081116119025763ffffffff610140515191611329836132a3565b1681526001600160401b037f000000000000000000000000000000000000000000000000000000000000000016602082015260e0516101405182015260a051606082015260a051608082015260a05160a0820152600282016001830111611902576113a59160019161139d8383018f613b60565b52018b613b60565b506101405151926113b68185613346565b6001845260a0519798975b601f19820181106118d157505090611463959493929161149c999a6101405151916113eb83613250565b825260208201526113fb83613b2f565b5261140582613b2f565b5061014051519361141585613287565b845260a051602085015260a0516101405185015260a051606085015260a051608085015260a084015260c083015260e082015261145182614429565b5061145c8285613b60565b5282613b60565b506114ae60206101205101519161014051519485936307128b6b60e31b855261010051600486015260a0602486015260a4850190613f6e565b83810360031901604485015290613c52565b91600319828403016064830152805180845260208401936020808360051b83010193019460a051915b83831061182d57888660208188752630bab731b434b733902232b334b3309033b0b6b29760511b83838303926003198401608486015260168152015261014051018160a05160018060a01b037f0000000000000000000000000000000000000000000000000000000000000000165af180156117bd576117fe575b5061012051610160810151610180820151610240909201517f00000000000000000000000000000000000000000000000000000000000000006001600160a01b03169392843b156101935761014051516349e9856960e01b815261010051600482015260248101939093526044830152606482015260a0518160848183875af180156117bd576117e5575b5060e0513b1561019357610140515163f2fde38b60e01b815282600482015260a0518160248160a05160e0515af180156117bd576117cc575b50610140515160805160c05160601b6001600160601b0319166020830190815260348301919091527f00000000000000000000000000000000000000000000000000000000000000006001600160a01b031691611676816054810161095a565b5190206101405151733d602d80600a3d3981f3363d3d373d3d3d363d7360601b60208201527f000000000000000000000000000000000000000000000000000000000000000060601b6001600160601b03191660348201526e5af43d82803e903d91602b57fd5bf360881b604882015260378152906116f6605783613346565b823b15610193576101405151928391636d1e458560e11b8352306004840152602483015260606044830152818061173460a051956064830190613f6e565b039160a051905af180156117bd576117a4575b506101408051516001600160a01b03928316815260c051909216602083015260e05161010051915190927f3082991f3dda023098e5849ea3903c6fbfd657dc6f9232f5eb81ad8a7ba161d69190a460206101405151610100518152f35b60a0516117b091613346565b60a0516101935782611747565b61014051513d60a051823e3d90fd5b60a0516117d891613346565b60a0516101935782611616565b60a0516117f191613346565b60a05161019357826115dd565b61181f9060203d602011611826575b6118178183613346565b8101906136c6565b5081611552565b503d61180d565b919390929450601f19828203018352855160206060816101405185019360018060a01b038151168652015193610140518382015284518094520192019060a051905b80821061189157505050602080600192970193019301909286949295936114d7565b9091926020606060019263ffffffff8751858060a01b03815116835260ff858201511685840152610140510151166101405182015201940192019061186f565b6020906118df9a999a613a8b565b828288010152019897986113c1565b634e487b7160e01b5f52604160045260245ffd5b634e487b7160e01b60a051526011600452602460a051fd5b9281955063ffffffff61197983600195976119386119829689613b60565b516119438383613b60565b5261194e8282613b60565b50836119678a8261195f868d613b60565b515116614694565b166119728383613b60565b5152613b60565b51511690613f32565b930190918493918f9361126e565b909294506020919382826101405151926119a9846132a3565b60a051845260a0518385015260a0516101405185015260a051606085015260a051608085015260a05160a085015201015201918493918f9361125e565b8b6317b5093760e11b60a05152600452633b9aca00602452604460a051fd5b9b611a1c60019163ffffffff8f6119799086613b60565b9c016111f0565b6020906101405151611a3481613250565b60a051815260a0518382015282828801015201611087565b6020906101405151611a5d8161332b565b60a051815260a0518382015260606101405182015260608082015282828601015201611025565b6020906101405151611a9581613250565b60a051815260a0518382015282828501015201610fbb565b611ad365ffffffffffff610120805101511662ffffff6101006101205101511690614885565b9362ffffff610100610120510151169063ffffffff6101405160c06101205101510151169061ffff611b1c6101405151611b0c81613250565b60a0518152836020820152614437565b1690610140515192611b2d8461326b565b60a051845260a05160208501526101405184015280606084015260a051608084015260a05160a084015260a05160c084015260a05160e084015260a05161010084015260a05161012084015260a05161014084015260a05161016084015260a05161018084015260a0516101a0840152806101c0840152806101e084015261020083015260e051610220830152610240820152611bc8613aa4565b90611bd1613add565b9265ffffffffffff610140515198611be88a613287565b168852602088015260a0516101405188015260a051606088015260a051608088015260a087015260c086015260e0850152600293611c2583613b50565b52611c2f82613b50565b50610fa0565b6020906101405151611c4681613287565b60a051815260a0518382015260a0516101405182015260a051606082015260a05160808201526101405151611c7a8161326b565b60a051815260a0518482015260a0516101405182015260a051606082015260a051608082015260a05160a082015260a05160c082015260a05160e082015260a05161010082015260a05161012082015260a05161014082015260a05161016082015260a05161018082015260a0516101a082015260a0516101c082015260a0516101e082015260a05161020082015260a05161022082015260a05161024082015260a0820152606060c0820152606060e082015282828701015201610df7565b60ff6002610dc8565b602090611d4e613a8b565b82828701015201610d60565b6020906101405151611d6b816132be565b60a051815260a0518382015260a0516101405182015282828601015201610d1a565b5f611d9791613346565b5f60a05281610cfb565b6040513d5f823e3d90fd5b919395509193602080611dcb600193601f198682030187528951613f6e565b97019301930190928695949293610cdb565b919397985091939495602080611eed600193601f198682030187526102206101408d516001600160681b03815116845263ffffffff86820151168685015263ffffffff604082015116604085015261ffff6060820151166060850152878060a01b03608082015116608085015260a081015160a085015262ffffff60c08201511660c085015260ff60e08201511660e085015260c0610100820151805115156101008701528781015115156101208701526040810151151584870152606081015115156101608701526080810151151561018087015260a081015115156101a0870152015115156101c085015263ffffffff610120820151166101e0850152015191816102008201520190613b74565b99019301930190928998979695949293610c5d565b5f80fd5b600190910190610a9c565b606460029104930192610a95565b61271060049104930192610a8b565b6305f5e10060089104930192610a80565b662386f26fc1000060109104930192610a73565b6d04ee2d6d415b85acef810000000060209104930192610a63565b50610100516040925072184f03e93ff9f4daa797ed6e38ed64bf6a1f0160401b9004610a49565b507f000000000000000000000000000000000000000000000000000000000000000091610a1b565b63b06ebf3d60e01b5f5260045ffd5b611fdd846080610120510151613b60565b51936001600160681b0360a0610120510151169461ffff6020820151169560018060a01b03604083015116606083015160808401511515906040519161202283613310565b5f835260208301525f60408301525f606083015260016080830152600160a08301525f60c08301526001600160401b035f116118ee5760405192612067602085613346565b5f84525f6101608190525b610160518110612106575060019798999a60405195612090876132f4565b8652633b9ac9ff60208701525f60408701526060860152608085015260a08401525f60c08401525f60e08401526101008301525f6101208301526101408201526120da8387613b60565b526120e58286613b60565b50516120f18287613b60565b526120fc8186613b60565b5001929190610912565b602090604051612115816132a3565b5f81525f838201525f60408201525f60608201525f60808201525f60a082015282828801015201612072565b60606020828601810191909152016108df565b602090604051612163816132f4565b5f81525f838201525f60408201525f60608201525f60808201525f60a08201525f60c08201525f60e082015260405161219b81613310565b5f81525f848201525f60408201525f60608201525f60808201525f60a08201525f60c08201526101008201525f6101208201526060610140820152828286010152016108a3565b6020813d60201161220e575b816121fb60209383613346565b81010312611f025751610100528061075f565b3d91506121ee565b610120805161016081015191015165ffffffffffff16808211156122ce5761223d9161441c565b61227161226263ffffffff610220610120510151169261018061012051015190613f32565b61024061012051015190613f32565b106106d3575b61012080519081015160e0820151610100830151608090930151516040516348296efd60e11b815265ffffffffffff909316600484015262ffffff9182166024840152921660448201526064810191909152608490fd5b50505f61223d565b604063ffffffff91015116906328eae2fb60e01b5f5260045260245260445ffd5b5063ffffffff604082015116156106bb565b61012080519081015160e0820151610100909201516040516348296efd60e11b815265ffffffffffff909216600483015262ffffff92831660248301529190911660448201526064810191909152608490fd5b5065ffffffffffff610120805101511661239961238662ffffff6101006101205101511642613f32565b62ffffff60e06101205101511690613f32565b11610672565b60849062ffffff60e06101205101511662ffffff6101006101205101511660806101205101515191604051936348296efd60e11b85526004850152602484015260448301526064820152fd5b62ffffff60e061012051015116159081612444575b501561065d5762ffffff61243665ffffffffffff6101208051015116612430836101006101205101511642613f32565b9061441c565b1660e061012051015261065d565b905061245d62ffffff6101006101205101511642613f32565b1081612400565b60c083360312611f02576040519061247b826132a3565b612484846133df565b825260208401356001600160401b0381168103611f0257602083015260408401356001600160a01b0381168103611f025760408301526124c660608501613243565b60608301526124d760808501613400565b608083015260a0840135906001600160a01b0382168203611f02578260209260a060c095015281520192019161052d565b83356001600160401b038111611f02576004908301019060a0601f198336030112611f02576040519061253a826132d9565b60208301356001600160401b038111611f025761255d9060203691860101613382565b825260408301359161ffff83168303611f025761259f60a060209586958685015261258a6060820161322f565b60408501526080810135606085015201613243565b60808201528152019301926103fd565b34611f02575f366003190112611f025760206040517f00000000000000000000000000000000000000000000000000000000000000008152f35b34611f02576020366003190112611f0257612605600435613f92565b005b34611f02576040366003190112611f02576004356024358015158103611f02575f82815260036020908152604091829020549151630862026560e41b8152600481018590526001600160a01b0390921660248301819052919081806044810103817f00000000000000000000000000000000000000000000000000000000000000006001600160a01b03165afa908115611da1575f9161288a575b50604051633a01714f60e01b8152600481018590526001600160a01b0383811660248301529190911693606082604481885afa918215611da1575f9261281a575b5060405163507f146560e01b8152602081600481895afa958615611da157612750968386926020945f936127eb575b5060405163467f4cb960e01b81526001600160a01b039182166004820152602481019290925290921660448301529096879190829081906064820190565b03916001600160a01b03165afa908115611da1575f916127b6575b606095508194612793575b5050602060ff910151169060405192835260208301526040820152f35b60ff9294506020916127af915f525f835260405f205490613f32565b9391612776565b90506020853d6020116127e3575b816127d160209383613346565b81010312611f0257606094519061276b565b3d91506127c4565b61280c919350853d8711612813575b6128048183613346565b810190613f13565b918a612712565b503d6127fa565b9091506060813d606011612882575b8161283660609383613346565b81010312611f02576040519061284b826132be565b6128548161351f565b8252602081015160ff81168103611f0257602083015261287690604001613426565b604082015290856126e3565b3d9150612829565b6128a3915060203d602011612813576128048183613346565b846126a2565b34611f02576020366003190112611f02576004355f526003602052606060405f20604051906128d7826132a3565b805460018060a01b038116835265ffffffffffff8160a01c169283602082015260a063ffffffff600262ffffff8560d01c169485604086015260e81c9586898601526001810154608086015201541691015260405192835260208301526040820152f35b34611f02575f366003190112611f0257602060405160288152f35b34611f02576020366003190112611f02576004355f526001602052602060ff60405f2054166040519015158152f35b34611f02575f366003190112611f02576040517f00000000000000000000000000000000000000000000000000000000000000006001600160a01b03168152602090f35b34611f02575f366003190112611f02576040517f00000000000000000000000000000000000000000000000000000000000000006001600160a01b03168152602090f35b34611f02575f366003190112611f02576040517f00000000000000000000000000000000000000000000000000000000000000006001600160a01b03168152602090f35b34611f02576020366003190112611f02576040516321d1336160e11b8152600480359082018190527f00000000000000000000000000000000000000000000000000000000000000006001600160a01b0316919061012082602481865afa918215611da1575f92612b74575b506101409060246040518095819363855a54ed60e01b835260048301525afa8015611da1575f90612b2a575b6020925063ffffffff60808301511615159182612b0d575b50506040519015158152f35b65ffffffffffff8092935084809201511692015116148280612b01565b506101403d8111612b6d575b612b408184613346565b820161014083820312611f0257610120612b5c60069285613437565b9301511015611f0257602091612ae9565b503d612b36565b9091506101203d8111612bae575b612b8c8183613346565b81019061012081830312611f025761014091612ba791613437565b9190612abd565b503d612b82565b34611f02575f366003190112611f02576040517f00000000000000000000000000000000000000000000000000000000000000006001600160a01b03168152602090f35b34611f02575f366003190112611f02576040517f00000000000000000000000000000000000000000000000000000000000000006001600160a01b03168152602090f35b34611f02576020366003190112611f02576020612c58613203565b6040517f00000000000000000000000000000000000000000000000000000000000000006001600160a01b039081169216919091148152f35b34611f02576020366003190112611f02576004355f5260036020526040805f2060a08251612cbe816132a3565b8254600180841b038116825265ffffffffffff81841c16602083015262ffffff8160d01c168583015260e81c606082015263ffffffff6002600185015494856080850152015416918291015282519182526020820152f35b34611f02576020366003190112611f0257600435612d33816136d5565b600681101561302957600581036130135750805f52600260205260ff60405f205416613001575f8181526002602052604090819020805460ff19166001179055516320c94b1360e11b8152600481018290527f00000000000000000000000000000000000000000000000000000000000000006001600160a01b03169061038081602481855afa908115611da157604092602092612f1d925f91612fd0575b50612ddb613995565b9063ffffffff86820151169061022060018060a01b039101511661ffff612e138851612e0681613250565b5f81525f89820152614437565b1690875192612e218461326b565b5f84525f8885015288840152600160608401525f60808401525f60a08401525f60c08401525f60e08401525f6101008401525f6101208401525f6101408401525f61016084015260016101808401525f6101a084015260016101c084015260016101e08401526001610200840152610220830152610240820152612ea3613aa4565b612eab613add565b90875192612eb884613287565b5f84525f888501525f898501525f60608501525f608085015260a084015260c083015260e0820152612ee982613b2f565b52612ef381613b2f565b505f855195869485936303141db760e41b8552896004860152606060248601526064850190613c52565b7f4465666966612067616d653a206e6f20636f6e746573742e000000000000000087858303926003198401604488015260188152015201925af18015611da157612fa1575b507f9b148a463b302341922ada41a3ae174156303492e0c4335ee452ad4ebe65d7426020612f8e61445b565b6040516001600160a01b039091168152a2005b6020813d602011612fc8575b81612fba60209383613346565b81010312611f025751612f62565b3d9150612fad565b612ff291506103803d8111612ffa575b612fea8183613346565b810190613533565b905086612dd2565b503d612fe0565b638185786b60e01b5f5260045260245ffd5b906315fb13c560e31b5f5260045260245260445ffd5b634e487b7160e01b5f52602160045260245ffd5b34611f02575f366003190112611f025760206040517f00000000000000000000000000000000000000000000000000000000000000008152f35b34611f02575f366003190112611f02576040515f5c6001600160a01b03168152602090f35b34611f02575f366003190112611f02576040517f00000000000000000000000000000000000000000000000000000000000000006001600160a01b03168152602090f35b34611f02576080366003190112611f02576130f9613203565b50613102613219565b506064356001600160401b038111611f025736602382011215611f025780600401356001600160401b038111611f025736910160240111611f0257604051630a85bd0160e11b8152602090f35b34611f02575f366003190112611f02576040517f00000000000000000000000000000000000000000000000000000000000000006001600160a01b03168152602090f35b34611f02576020366003190112611f02576131af6004356136d5565b6040516006821015613029576020918152f35b34611f02575f366003190112611f02577f00000000000000000000000000000000000000000000000000000000000000006001600160a01b03168152602090f35b600435906001600160a01b0382168203611f0257565b602435906001600160a01b0382168203611f0257565b35906001600160a01b0382168203611f0257565b35908115158203611f0257565b604081019081106001600160401b038211176118ee57604052565b61026081019081106001600160401b038211176118ee57604052565b61010081019081106001600160401b038211176118ee57604052565b60c081019081106001600160401b038211176118ee57604052565b606081019081106001600160401b038211176118ee57604052565b60a081019081106001600160401b038211176118ee57604052565b61016081019081106001600160401b038211176118ee57604052565b60e081019081106001600160401b038211176118ee57604052565b608081019081106001600160401b038211176118ee57604052565b90601f801991011681019081106001600160401b038211176118ee57604052565b6001600160401b0381116118ee57601f01601f191660200190565b81601f82011215611f025780359061339982613367565b926133a76040519485613346565b82845260208383010111611f0257815f926020809301838601378301015290565b6001600160401b0381116118ee5760051b60200190565b359063ffffffff82168203611f0257565b359062ffffff82168203611f0257565b359065ffffffffffff82168203611f0257565b519065ffffffffffff82168203611f0257565b519063ffffffff82168203611f0257565b919082610120910312611f025760405161012081018181106001600160401b038211176118ee57604052809261346c81613413565b825261347a60208201613413565b602083015261348b60408201613413565b604083015261349c60608201613413565b60608301526134ad60808201613426565b608083015260a08101516001600160701b0381168103611f025760a08301526134d860c08201613426565b60c083015260e08101516001600160a01b0381168103611f025760e083015261010090810151910152565b519061ffff82168203611f0257565b51908115158203611f0257565b51906001600160a01b0382168203611f0257565b80820392916103808412611f025761354e6102609183613437565b9361011f190112611f02576136bd6103606040519261356c8461326b565b6135796101208201613503565b84526135886101408201613503565b602085015261359a6101608201613426565b60408501526135ac6101808201613512565b60608501526135be6101a08201613512565b60808501526135d06101c08201613512565b60a08501526135e26101e08201613512565b60c08501526135f46102008201613512565b60e08501526136066102208201613512565b6101008501526136196102408201613512565b61012085015261362c6102608201613512565b61014085015261363f6102808201613512565b6101608501526136526102a08201613512565b6101808501526136656102c08201613512565b6101a08501526136786102e08201613512565b6101c085015261368b6103008201613512565b6101e085015261369e6103208201613512565b6102008501526136b1610340820161351f565b61022085015201613503565b61024082015290565b90816020910312611f02575190565b6040516320c94b1360e11b81526004810182905290610380826024817f00000000000000000000000000000000000000000000000000000000000000006001600160a01b03165afa8015611da1575f925f91613970575b5065ffffffffffff8351168015613968576001811461395f5760021480613947575b61393f5761022001805160405163d3fef14360e01b815291929190602090829060049082906001600160a01b03165afa908115611da1575f91613905575b506138fd57805f52600260205260ff60405f2054166138f5575f52600360205260405f20604051916137bd836132a3565b815460018060a01b038116845265ffffffffffff8160a01c16602085015262ffffff8160d01c16604085015260e81c6060840152600182015460a063ffffffff600260808701958487520154169401938452613879575b50505163ffffffff168015159182613837575b505061383257600390565b600590565b65ffffffffffff91925060600151160165ffffffffffff81116138655765ffffffffffff1642115f80613827565b634e487b7160e01b5f52601160045260245ffd5b516040516307ba546160e01b81529190602090839060049082906001600160a01b03165afa918215611da1575f926138c1575b5051116138ba575f80613814565b5050600590565b9091506020813d6020116138ed575b816138dd60209383613346565b81010312611f025751905f6138ac565b3d91506138d0565b505050600590565b505050600490565b90506020813d602011613937575b8161392060209383613346565b81010312611f025761393190613512565b5f61378c565b3d9150613913565b505050600290565b50815f52600360205260405f205460e81c151561374e565b50505050600190565b505050505f90565b905061398c9192506103803d8111612ffa57612fea8183613346565b9190915f61372c565b604080519091906139a68382613346565b6001815291601f1901825f5b8281106139be57505050565b6020906040516139cd81613287565b5f81525f838201525f60408201525f60608201525f60808201526040516139f38161326b565b5f81525f848201525f60408201525f60608201525f60808201525f60a08201525f60c08201525f60e08201525f6101008201525f6101208201525f6101408201525f6101608201525f6101808201525f6101a08201525f6101c08201525f6101e08201525f6102008201525f6102208201525f61024082015260a0820152606060c0820152606060e0820152828285010152016139b2565b60405190613a9882613250565b60606020835f81520152565b60405190613ab3602083613346565b5f80835282815b828110613ac657505050565b602090613ad1613a8b565b82828501015201613aba565b60405190613aec602083613346565b5f80835282815b828110613aff57505050565b602090604051613b0e8161332b565b5f81525f838201526060604082015260608082015282828501015201613af3565b805115613b3c5760200190565b634e487b7160e01b5f52603260045260245ffd5b805160011015613b3c5760400190565b8051821015613b3c5760209160051b010190565b90602080835192838152019201905f5b818110613b915750505090565b909192602060c0600192865163ffffffff81511682526001600160401b03848201511684830152848060a01b03604082015116604083015260608101511515606083015265ffffffffffff608082015116608083015260a08580821b039101511660a08201520194019101919091613b84565b90602080835192838152019201905f5b818110613c215750505090565b825180516001600160e01b0316855260209081015163ffffffff168186015260409094019390920191600101613c14565b9080602083519182815201916020808360051b8301019401925f915b838310613c7d57505050505090565b9091929394601f19828203018352855161034082019065ffffffffffff815116835263ffffffff60208201511660208401526001600160701b03604082015116604084015263ffffffff606082015116606084015260018060a01b03608082015116608084015261ffff61024060a08301518281511660a08701528260208201511660c087015263ffffffff60408201511660e0870152606081015115156101008701526080810151151561012087015260a0810151151561014087015260c0810151151561016087015260e0810151151561018087015261010081015115156101a087015261012081015115156101c087015261014081015115156101e0870152610160810151151561020087015261018081015115156102208701526101a08101511515828701526101c081015115156102608701526101e0810151151561028087015261020081015115156102a087015260018060a01b03610220820151166102c08701520151166102e084015260c0810151916103406103008501528251809152610360840160206103608360051b8701019401915f5b818110613ed8575050505060e0015191610320818303910152815180825260208201906020808260051b8501019401925f5b828110613e6b57505050505060208060019297019301930191939290613c6e565b9091929394602080613ecb600193601f19878203018952895190858060a01b038251168152858060a01b038483015116848201526060613eba6040840151608060408501526080840190613c04565b920151906060818403910152613c04565b9701950193929101613e4a565b90919294602080613f0760019361035f198b82030188526040838b518051845201519181858201520190613b74565b97019401929101613e18565b90816020910312611f0257516001600160a01b0381168103611f025790565b9190820180921161386557565b3d15613f69573d90613f5082613367565b91613f5e6040519384613346565b82523d5f602084013e565b606090565b805180835260209291819084018484015e5f828201840152601f01601f1916010190565b805f52600160205260ff60405f205416614419575f81815260016020819052604091829020805460ff19169091179055516320c94b1360e11b815260048101829052610380816024817f00000000000000000000000000000000000000000000000000000000000000006001600160a01b03165afa908115611da1575f916143f8575b5061022081015160405163d3fef14360e01b815290602090829060049082906001600160a01b03165afa908115611da1575f916143be575b50156143ab575f82815260036020908152604091829020549151630862026560e41b8152600481018590526001600160a01b039092166024830181905292919081806044810103817f00000000000000000000000000000000000000000000000000000000000000006001600160a01b03165afa908115611da1575f9161438c575b5060405163507f146560e01b81526001600160a01b03919091169190602081600481865afa908115611da1575f9161436d575b5060405163467f4cb960e01b81526001600160a01b038481166004830152602482018790528581166044830152909160209183916064918391165afa928315611da15785915f94614336575b5083156142e557815f526004602052602061416d60405f205486614769565b95835f525f82528660405f205560a463ffffffff604087015116915f604051958694859363cfaf583960e01b855289600486015260248501528b604485015260648401528160848401525af1908161428e575b507fe5d1da1fa18899cfe28f941d7fc5ecd5b8429a787f4f8db4313280d644fcc40f94614263939291614287577f87cc2a3ee10f5f5a833bada5fda06a13df2fd6a089a2fb2b7e56010f552a2f8390614217613f3f565b90835f525f6020525f604081205561422d61445b565b6142496040519384938452606060208501526060840190613f6e565b6001600160a01b0390911660408301520390a25b846144b4565b61426b61445b565b604080519283526001600160a01b0391909116602083015290a2565b505061425d565b909291506020813d6020116142dd575b816142ab60209383613346565b81010312611f0257509084907fe5d1da1fa18899cfe28f941d7fc5ecd5b8429a787f4f8db4313280d644fcc40f6141c0565b3d915061429e565b509091506142f392506144b4565b7fe5d1da1fa18899cfe28f941d7fc5ecd5b8429a787f4f8db4313280d644fcc40f604061431e61445b565b81515f81526001600160a01b039091166020820152a2565b915092506020813d602011614365575b8161435360209383613346565b81010312611f0257849051925f61414e565b3d9150614346565b614386915060203d602011612813576128048183613346565b5f614102565b6143a5915060203d602011612813576128048183613346565b5f6140cf565b50631da23c2f60e21b5f5260045260245ffd5b90506020813d6020116143f0575b816143d960209383613346565b81010312611f02576143ea90613512565b5f61404d565b3d91506143cc565b61441191506103803d8111612ffa57612fea8183613346565b90505f614015565b50565b9190820391821161386557565b5f1981146138655760010190565b905f918051614452575b6020015161444b57565b9060021790565b60019250614441565b601436101580614482575b1561447e576013193601368111611f02573560601c90565b3390565b50337f00000000000000000000000000000000000000000000000000000000000000006001600160a01b031614614466565b6020906144bf613995565b9263ffffffff6040820151169061022060018060a01b039101511661ffff6144f96040516144ec81613250565b5f81525f87820152614437565b1690604051926145088461326b565b5f84525f868501526040840152600160608401525f60808401525f60a08401525f60c08401525f60e08401525f6101008401525f6101208401525f6101408401525f6101608401525f6101808401525f6101a084015260016101c084015260016101e0840152600161020084015261022083015261024082015261458a613aa4565b614592613add565b90604051926145a084613287565b5f84525f868501525f60408501525f60608501525f608085015260a084015260c083015260e08201526145d284613b2f565b526145dc83613b2f565b50604061460781519485936303141db760e41b85526004850152606060248501526064840190613c52565b82810360031981016044850152601982527f4465666966612067616d65206861732066696e69736865642e000000000000009185019190915201815f6001600160a01b037f0000000000000000000000000000000000000000000000000000000000000000165af18015611da15761467c5750565b6144199060203d602011611826576118178183613346565b5f19633b9aca00820991633b9aca00820291828085109403938085039414614736578184101561471957633b9aca00829109600182190182168092046002816003021880820260020302808202600203028082026002030280820260020302808202600203028091026002030293600183805f03040190848311900302920304170290565b630c740aef60e31b5f52600452633b9aca0060245260445260645ffd5b5091508115614743570490565b634e487b7160e01b5f52601260045260245ffd5b80156147435766b1a2bc2ec500000490565b91905f905f1981850990808502928380841093039280840393146147ef57633b9aca008310156147d15750633b9aca00907f88f2cfb83100cb4e69e7c79c58b316e597157d372fb9787e8e47ce423a2e9c6d94950990828211900360f71b910360091c170290565b60649186630c740aef60e31b8352600452602452633b9aca00604452fd5b505050633b9aca009192500490565b803b15614882575f80604051602081019063296eee5160e01b825260048152614828602482613346565b5190845afa614835613f3f565b90158015614877575b61487357602081805181010312611f0257602001516001600160a01b03811690819003611f02578061486e575090565b905090565b5090565b50602081511061483e565b90565b9065ffffffffffff8091169116039065ffffffffffff82116138655756fea164736f6c634300081c000a",
	"gitCommit": "npm:@ballkidz/defifa@1.0.2",
	"gitDirty": false,
	"history": []
}