{
	"format": "sphinx-sol-ct-artifact-1",
	"address": "0x76a97eeb5602a51ac2067d925269e0f9a0bd296b",
	"sourceName": "node_modules/@bananapus/721-hook-v6/src/JB721CheckpointsDeployer.sol",
	"contractName": "JB721CheckpointsDeployer",
	"chainId": "0xaa36a7",
	"abi": [
		{
			"type": "constructor",
			"inputs": [
				{
					"name": "store",
					"type": "address",
					"internalType": "contract IJB721TiersHookStore"
				}
			],
			"stateMutability": "nonpayable"
		},
		{
			"type": "function",
			"name": "IMPLEMENTATION",
			"inputs": [],
			"outputs": [
				{
					"name": "",
					"type": "address",
					"internalType": "address"
				}
			],
			"stateMutability": "view"
		},
		{
			"type": "function",
			"name": "STORE",
			"inputs": [],
			"outputs": [
				{
					"name": "",
					"type": "address",
					"internalType": "contract IJB721TiersHookStore"
				}
			],
			"stateMutability": "view"
		},
		{
			"type": "function",
			"name": "deploy",
			"inputs": [
				{
					"name": "hook",
					"type": "address",
					"internalType": "address"
				}
			],
			"outputs": [
				{
					"name": "module",
					"type": "address",
					"internalType": "contract IJB721Checkpoints"
				}
			],
			"stateMutability": "nonpayable"
		},
		{
			"type": "error",
			"name": "JB721CheckpointsDeployer_Unauthorized",
			"inputs": [
				{
					"name": "caller",
					"type": "address",
					"internalType": "address"
				},
				{
					"name": "hook",
					"type": "address",
					"internalType": "address"
				}
			]
		}
	],
	"args": [
		"0x69913acF79DbBA170d9EfAFe605ee62B42164F9C"
	],
	"solcInputHash": "9dda346737a38e3f09a0300bd46f506d",
	"bytecode": "0x60c060405234801561000f575f5ffd5b50604051612e62380380612e6283398101604081905261002e91610092565b6001600160a01b03811660a052604051819061004990610085565b6001600160a01b039091168152602001604051809103905ff080158015610072573d5f5f3e3d5ffd5b506001600160a01b0316608052506100bf565b612b538061030f83390190565b5f602082840312156100a2575f5ffd5b81516001600160a01b03811681146100b8575f5ffd5b9392505050565b60805160a05161022a6100e55f395f609e01525f818160480152610104015261022a5ff3fe608060405234801561000f575f5ffd5b506004361061003f575f3560e01c80633a4741bd146100435780634c96a38914610086578063507f146514610099575b5f5ffd5b61006a7f000000000000000000000000000000000000000000000000000000000000000081565b6040516001600160a01b03909116815260200160405180910390f35b61006a6100943660046101f7565b6100c0565b61006a7f000000000000000000000000000000000000000000000000000000000000000081565b5f336001600160a01b038316146100ff576040516312588bb560e11b81523360048201526001600160a01b038316602482015260440160405180910390fd5b6101327f00000000000000000000000000000000000000000000000000000000000000006001600160a01b038416610191565b60405163189acdbd60e31b81526001600160a01b0384811660048301529192509082169063c4d66de8906024015f604051808303815f87803b158015610176575f5ffd5b505af1158015610188573d5f5f3e3d5ffd5b50505050919050565b5f61019d5f84846101a4565b9392505050565b5f6c5af43d3d93803e602a57fd5bf36021528260145273602c3d8160093d39f33d3d3d3d363d3d37363d735f52816035600c86f59050806101ec5763301164255f526004601cfd5b5f6021529392505050565b5f60208284031215610207575f5ffd5b81356001600160a01b038116811461019d575f5ffdfea164736f6c634300081c000a610180604052348015610010575f5ffd5b50604051612b53380380612b5383398101604081905261002f916101ba565b604080518082018252601081526f4a42373231436865636b706f696e747360801b602080830191909152825180840190935260018352603160f81b9083015290610079825f610142565b61012052610088816001610142565b61014052815160208084019190912060e052815190820120610100524660a05261011460e05161010051604080517f8b73c3c69bb8fe3d512ecc4cf759cc79239f7b179b0ffacaa9a75d522b39400f60208201529081019290925260608201524660808201523060a08201525f9060c00160405160208183030381529060405280519060200120905090565b60805250503060c0526001600160a01b031661016052600680546001600160a01b0319166001179055610391565b5f60208351101561015d5761015683610174565b905061016e565b81610168848261027f565b5060ff90505b92915050565b5f5f829050601f815111156101a7578260405163305a27a960e01b815260040161019e9190610339565b60405180910390fd5b80516101b28261036e565b179392505050565b5f602082840312156101ca575f5ffd5b81516001600160a01b03811681146101e0575f5ffd5b9392505050565b634e487b7160e01b5f52604160045260245ffd5b600181811c9082168061020f57607f821691505b60208210810361022d57634e487b7160e01b5f52602260045260245ffd5b50919050565b601f82111561027a57805f5260205f20601f840160051c810160208510156102585750805b601f840160051c820191505b81811015610277575f8155600101610264565b50505b505050565b81516001600160401b03811115610298576102986101e7565b6102ac816102a684546101fb565b84610233565b6020601f8211600181146102de575f83156102c75750848201515b5f19600385901b1c1916600184901b178455610277565b5f84815260208120601f198516915b8281101561030d57878501518255602094850194600190920191016102ed565b508482101561032a57868401515f19600387901b60f8161c191681555b50505050600190811b01905550565b602081525f82518060208401528060208501604085015e5f604082850101526040601f19601f83011684010191505092915050565b8051602080830151919081101561022d575f1960209190910360031b1b16919050565b60805160a05160c05160e0516101005161012051610140516101605161273d6104165f395f81816101cc015281816104a3015281816105420152818161093f015281816109ed015281816118b501526119c501525f61125201525f61122601525f611c2501525f611bfd01525f611b5801525f611b8201525f611bac015261273d5ff3fe608060405234801561000f575f5ffd5b5060043610610148575f3560e01c80637f5a7c7b116100bf578063a875a4b111610079578063a875a4b11461030b578063b5b88cd21461031e578063c013524914610331578063c2d4d20c14610344578063c3cda5201461034c578063c4d66de81461035f575f5ffd5b80637f5a7c7b1461027557806384b0196e146102885780638e539e8c146102a357806391ddadf4146102b65780639ab24eb0146102d5578063a539a169146102e8575f5ffd5b8063587cde1e11610110578063587cde1e146101ee5780635a1075e7146102015780635c19a95c14610214578063613aac1b1461022757806377fd0de31461023a5780637ecebe001461024d575f5ffd5b80633056210b1461014c5780633a46b1a81461017c5780634a3931491461019d5780634bf5d7e9146101b2578063507f1465146101c7575b5f5ffd5b61015f61015a3660046121c0565b610372565b6040516001600160a01b0390911681526020015b60405180910390f35b61018f61018a3660046121f7565b6103ee565b604051908152602001610173565b6101b06101ab366004612221565b610428565b005b6101ba610737565b604051610173919061228d565b61015f7f000000000000000000000000000000000000000000000000000000000000000081565b61015f6101fc36600461229f565b6107af565b61018f61020f3660046122ba565b6107cc565b6101b061022236600461229f565b61081a565b6101b0610235366004612334565b610829565b61018f6102483660046121c0565b610a70565b61018f61025b36600461229f565b6001600160a01b03165f9081526002602052604090205490565b60065461015f906001600160a01b031681565b610290610aa8565b6040516101739796959493929190612385565b61018f6102b136600461241b565b610aea565b6102be610b0e565b60405165ffffffffffff9091168152602001610173565b61018f6102e336600461229f565b610b1c565b6102fb6102f6366004612432565b610b3c565b6040519015158152602001610173565b61018f6103193660046121c0565b610c61565b61018f61032c36600461241b565b610c89565b61018f61033f36600461241b565b610cae565b61018f610cc3565b6101b061035a3660046124a0565b610cdc565b6101b061036d36600461229f565b610d98565b5f5f61037d83610df3565b5f858152600960205260408120919250610395825490565b9050805f036103a9575f93505050506103e8565b6001600160601b0383166103bd835f610e49565b516001600160601b031611156103d8575f93505050506103e8565b6103e28284610eb7565b93505050505b92915050565b5f6104186103fb83610f68565b6001600160a01b0385165f90815260046020526040902090610fb6565b6001600160d01b03169392505050565b6006546001600160a01b0316331461046d576006546040516353dc27d960e01b81523360048201526001600160a01b0390911660248201526044015b60405180910390fd5b816001600160a01b0316836001600160a01b03160361048b57505050565b6040516342f9914b60e01b8152600481018290525f907f00000000000000000000000000000000000000000000000000000000000000006001600160a01b0316906342f9914b90602401602060405180830381865afa1580156104f0573d5f5f3e3d5ffd5b505050506040513d601f19601f8201168201806040525081019061051491906124fd565b600654604051633db8514960e11b81526001600160a01b039182166004820152602481018590529192505f917f000000000000000000000000000000000000000000000000000000000000000090911690637b70a29290604401602060405180830381865afa158015610589573d5f5f3e3d5ffd5b505050506040513d601f19601f820116820180604052508101906105ad91906124fd565b5f8481526009602052604081209192506105c5825490565b151590506001600160a01b0386161515806105e857506001600160a01b03871615155b156105fb576105f882438861104c565b50505b6001600160a01b03871615801561061a57506001600160a01b03861615155b1561063c5761062b86856001611066565b61063784846001611099565b61068e565b6001600160a01b0386166106665780156106375761065b87855f611066565b61063784845f611099565b806106775761062b86856001611066565b61068287855f611066565b61068e86856001611066565b5f6001600160a01b038816158015906106b857505f6106ac896107af565b6001600160a01b031614155b90505f6001600160a01b038816158015906106e457505f6106d8896107af565b6001600160a01b031614155b90506106f18989876110b1565b8115610703576107038987875f611137565b8015610716576107168887876001611137565b8015158215151461072c5761072c868683611164565b505050505050505050565b606061074161117c565b65ffffffffffff16610751610b0e565b65ffffffffffff1614610777576040516301bfc1c560e61b815260040160405180910390fd5b5060408051808201909152601d81527f6d6f64653d626c6f636b6e756d6265722666726f6d3d64656661756c74000000602082015290565b6001600160a01b039081165f908152600360205260409020541690565b5f6108096107d983610f68565b6001600160a01b0386165f90815260076020908152604080832088845290915290209065ffffffffffff16610eb7565b6001600160a01b0316949350505050565b336108258183611186565b5050565b6108333384611186565b5f5b81811015610a6a575f83838381811061085057610850612514565b6006546040516331a9108f60e11b8152602092909202939093013560048201819052935033926001600160a01b03169150636352211e90602401602060405180830381865afa1580156108a5573d5f5f3e3d5ffd5b505050506040513d601f19601f820116820180604052508101906108c99190612528565b6001600160a01b0316146108f9576040516352017fa760e11b815260048101829052336024820152604401610464565b5f818152600960205260409020545f03610a61575f81815260096020526040902061092590433361104c565b50506040516342f9914b60e01b8152600481018290525f907f00000000000000000000000000000000000000000000000000000000000000006001600160a01b0316906342f9914b90602401602060405180830381865afa15801561098c573d5f5f3e3d5ffd5b505050506040513d601f19601f820116820180604052508101906109b091906124fd565b90506109be33826001611066565b600654604051633db8514960e11b81526001600160a01b03918216600482015260248101849052610a5f9183917f000000000000000000000000000000000000000000000000000000000000000090911690637b70a29290604401602060405180830381865afa158015610a34573d5f5f3e3d5ffd5b505050506040513d601f19601f82011682018060405250810190610a5891906124fd565b6001611099565b505b50600101610835565b50505050565b5f610a98610a7d83610f68565b5f858152600a602052604090209065ffffffffffff16610eb7565b6001600160a01b03169392505050565b5f6060805f5f5f6060610ab961121f565b610ac161124b565b604080515f80825260208201909252600f60f81b9b939a50919850469750309650945092509050565b5f610aff610af783610f68565b600590610fb6565b6001600160d01b031692915050565b5f610b1761117c565b905090565b6001600160a01b0381165f908152600460205260408120610aff90611278565b5f838103610b4b57505f610c58565b5f610b5583610df3565b90505f846001811115610b6a57610b6a612557565b03610bf6575f5b85811015610bec576001600160a01b0388165f908152600860205260408120610bcb918491908a8a86818110610ba957610ba9612514565b9050602002013581526020019081526020015f20610eb790919063ffffffff16565b6001600160a01b031615610be457600192505050610c58565b600101610b71565b505f915050610c58565b5f5b85811015610c51576001600160a01b0388165f908152600860205260408120610c30918491908a8a86818110610ba957610ba9612514565b6001600160a01b03165f03610c49575f92505050610c58565b600101610bf8565b5060019150505b95945050505050565b5f610a98610c6e83610f68565b5f858152600b602052604090209065ffffffffffff16610eb7565b5f818152600a60205260408120610c9f906112af565b6001600160a01b031692915050565b5f610aff610cbb83610f68565b600c90610fb6565b5f610cce600c611278565b6001600160d01b0316905090565b83421115610d0057604051632341d78760e11b815260048101859052602401610464565b604080517fe48329057bfd03d55e49b547132e39cffd9c1820ad7b9d4c5307691425d15adf60208201526001600160a01b0388169181019190915260608101869052608081018590525f90610d7990610d719060a001604051602081830303815290604052805190602001206112de565b85858561130a565b9050610d858187611336565b610d8f8188611186565b50505050505050565b6006546001600160a01b031615610dd1576006546040516301d2d00760e61b81526001600160a01b039091166004820152602401610464565b600680546001600160a01b0319166001600160a01b0392909216919091179055565b5f5f610dfd610b0e565b90508065ffffffffffff16831115610e3957604051637669fc0f60e11b81526004810184905265ffffffffffff82166024820152604401610464565b610e4283611388565b9392505050565b604080518082019091525f8082526020820152825f018263ffffffff1681548110610e7657610e76612514565b5f918252602091829020604080518082019091529101546001600160601b0381168252600160601b90046001600160a01b0316918101919091529392505050565b81545f9081816005811115610f14575f610ed0846113bf565b610eda908561257f565b5f888152602090209091508101546001600160601b039081169087161015610f0457809150610f12565b610f0f816001612592565b92505b505b5f610f2187878585611517565b90508015610f5b57610f4587610f3860018461257f565b5f91825260209091200190565b54600160601b90046001600160a01b0316610f5d565b5f5b979650505050505050565b5f5f610f72610b0e565b90508065ffffffffffff168310610fad57604051637669fc0f60e11b81526004810184905265ffffffffffff82166024820152604401610464565b610e428361156e565b81545f9081816005811115611012575f610fcf846113bf565b610fd9908561257f565b5f8881526020902090915081015465ffffffffffff908116908716101561100257809150611010565b61100d816001612592565b92505b505b5f61101f878785856115a0565b90508015610f5b5761103687610f3860018461257f565b54600160301b90046001600160d01b0316610f5d565b5f806110598585856115ee565b915091505b935093915050565b6001600160a01b0383165f908152600860209081526040808320858452909152902061109490600183611744565b505050565b5f838152600b60205260409020611094908383611744565b5f6001600160a01b038416158015906110db57505f6110cf856107af565b6001600160a01b031614155b90505f6001600160a01b0384161580159061110757505f6110fb856107af565b6001600160a01b031614155b90506111148585856117b4565b80151582151503611126575050505050565b6111308382611818565b5050505050565b6001600160a01b0384165f9081526007602090815260408083208684529091529020610a6a908383611744565b5f838152600a60205260409020611094908383611744565b5f610b174361156e565b5f611190836107af565b90505f61119c84611889565b90506111a8848461191e565b6001600160a01b0382161580156111c757506001600160a01b03831615155b156111e7576111d7816001611818565b6111e2846001611997565b610a6a565b6001600160a01b0382161580159061120657506001600160a01b038316155b15610a6a57611215815f611818565b610a6a845f611997565b6060610b177f00000000000000000000000000000000000000000000000000000000000000005f611aa3565b6060610b177f00000000000000000000000000000000000000000000000000000000000000006001611aa3565b80545f9080156112a75761129183610f3860018461257f565b54600160301b90046001600160d01b0316610e42565b5f9392505050565b80545f9080156112a7576112c883610f3860018461257f565b54600160601b90046001600160a01b0316610e42565b5f6103e86112ea611b4c565b8360405161190160f01b8152600281019290925260228201526042902090565b5f5f5f5f61131a88888888611c75565b92509250925061132a8282611d3d565b50909695505050505050565b6001600160a01b0382165f908152600260205260409020805460018101909155818114611094576040516301d4b62360e61b81526001600160a01b038416600482015260248101829052604401610464565b5f6001600160601b038211156113bb576040516306dfcc6560e41b81526060600482015260248101839052604401610464565b5090565b5f600182116113cc575090565b816001600160801b82106113e55760809190911c9060401b5b6801000000000000000082106114005760409190911c9060201b5b64010000000082106114175760209190911c9060101b5b62010000821061142c5760109190911c9060081b5b61010082106114405760089190911c9060041b5b601082106114535760049190911c9060021b5b6004821061145f5760011b5b600302600190811c90818581611477576114776125a5565b048201901c9050600181858161148f5761148f6125a5565b048201901c905060018185816114a7576114a76125a5565b048201901c905060018185816114bf576114bf6125a5565b048201901c905060018185816114d7576114d76125a5565b048201901c905060018185816114ef576114ef6125a5565b048201901c905061150e818581611508576115086125a5565b04821190565b90039392505050565b5f5b81831015611566575f8581526020902083831660028585180401908101546001600160601b038681169116111561155257809250611560565b61155d816001612592565b93505b50611519565b509392505050565b5f65ffffffffffff8211156113bb576040516306dfcc6560e41b81526030600482015260248101839052604401610464565b5f5b81831015611566575f85815260209020838316600285851804019081015465ffffffffffff868116911611156115da578092506115e8565b6115e5816001612592565b93505b506115a2565b82545f90819080156116e9575f61160a87610f3860018561257f565b80549091506001600160601b0380821691600160601b90046001600160a01b031690881682111561164e57604051632520601d60e01b815260040160405180910390fd5b876001600160601b0316826001600160601b03160361168a5782546001600160601b0316600160601b6001600160a01b038916021783556116db565b604080518082019091526001600160601b03808a1682526001600160a01b03808a1660208085019182528d54600181018f555f8f81529190912094519151909216600160601b029216919091179101555b945085935061105e92505050565b5050604080518082019091526001600160601b0380851682526001600160a01b0380851660208085019182528854600181018a555f8a815291822095519251909316600160601b02919093161792019190915590508161105e565b815f0361175057505050565b5f816117785782611760856112af565b6001600160a01b0316611773919061257f565b611795565b82611782856112af565b6001600160a01b03166117959190612592565b90506117ac436117a483611df5565b86919061104c565b505050505050565b6001600160a01b0383166117db576117d86005611e286117d384611e33565b611e66565b50505b6001600160a01b0382166117fd576117fa6005611e916117d384611e33565b50505b611094611809846107af565b611812846107af565b83611e9c565b815f03611823575050565b5f8161184c5782611834600c611278565b6001600160d01b0316611847919061257f565b61186a565b82611857600c611278565b6001600160d01b031661186a9190612592565b9050611130611877610b0e565b61188083611e33565b600c9190612000565b600654604051631266aaaf60e31b81526001600160a01b03918216600482015282821660248201525f917f00000000000000000000000000000000000000000000000000000000000000001690639335557890604401602060405180830381865afa1580156118fa573d5f5f3e3d5ffd5b505050506040513d601f19601f820116820180604052508101906103e891906124fd565b5f611928836107af565b6001600160a01b038481165f8181526003602052604080822080546001600160a01b031916888616908117909155905194955093928516927f3134e8a2e6d97e929a7e54011ea5485d7d196dd5f0ba4d4ef95803e8e3fc257f9190a4611094818361199286611889565b611e9c565b600654604051630cc41f0560e11b81526001600160a01b03918216600482015283821660248201525f9182917f0000000000000000000000000000000000000000000000000000000000000000909116906319883e0a906044015f60405180830381865afa158015611a0b573d5f5f3e3d5ffd5b505050506040513d5f823e601f3d908101601f19168201604052611a329190810190612655565b915091505f5b8251811015611130575f838281518110611a5457611a54612514565b602002602001015190505f838381518110611a7157611a71612514565b60200260200101519050805f14611a9957611a8d828288611164565b611a9987838389611137565b5050600101611a38565b606060ff8314611abd57611ab68361200d565b90506103e8565b818054611ac9906126ba565b80601f0160208091040260200160405190810160405280929190818152602001828054611af5906126ba565b8015611b405780601f10611b1757610100808354040283529160200191611b40565b820191905f5260205f20905b815481529060010190602001808311611b2357829003601f168201915b505050505090506103e8565b5f306001600160a01b037f000000000000000000000000000000000000000000000000000000000000000016148015611ba457507f000000000000000000000000000000000000000000000000000000000000000046145b15611bce57507f000000000000000000000000000000000000000000000000000000000000000090565b610b17604080517f8b73c3c69bb8fe3d512ecc4cf759cc79239f7b179b0ffacaa9a75d522b39400f60208201527f0000000000000000000000000000000000000000000000000000000000000000918101919091527f000000000000000000000000000000000000000000000000000000000000000060608201524660808201523060a08201525f9060c00160405160208183030381529060405280519060200120905090565b5f80807f7fffffffffffffffffffffffffffffff5d576e7357a4501ddfe92f46681b20a0841115611cae57505f91506003905082611d33565b604080515f808252602082018084528a905260ff891692820192909252606081018790526080810186905260019060a0016020604051602081039080840390855afa158015611cff573d5f5f3e3d5ffd5b5050604051601f1901519150506001600160a01b038116611d2a57505f925060019150829050611d33565b92505f91508190505b9450945094915050565b5f826003811115611d5057611d50612557565b03611d59575050565b6001826003811115611d6d57611d6d612557565b03611d8b5760405163f645eedf60e01b815260040160405180910390fd5b6002826003811115611d9f57611d9f612557565b03611dc05760405163fce698f760e01b815260048101829052602401610464565b6003826003811115611dd457611dd4612557565b03610825576040516335e2f38360e21b815260048101829052602401610464565b5f6001600160a01b038211156113bb576040516306dfcc6560e41b815260a0600482015260248101839052604401610464565b5f610e4282846126f2565b5f6001600160d01b038211156113bb576040516306dfcc6560e41b815260d0600482015260248101839052604401610464565b5f5f611059611e73610b0e565b611e89611e7f88611278565b868863ffffffff16565b879190612000565b5f610e428284612711565b816001600160a01b0316836001600160a01b031614158015611ebd57505f81115b15611094576001600160a01b03831615611f5f576001600160a01b0383165f9081526004602052604081208190611efa90611e916117d386611e33565b6001600160d01b031691506001600160d01b03169150846001600160a01b03167fdec2bacdd2f05b59de34da9b523dff8be42e5e38e818c82fdb0bae774387a7248383604051611f54929190918252602082015260400190565b60405180910390a250505b6001600160a01b03821615611094576001600160a01b0382165f9081526004602052604081208190611f9790611e286117d386611e33565b6001600160d01b031691506001600160d01b03169150836001600160a01b03167fdec2bacdd2f05b59de34da9b523dff8be42e5e38e818c82fdb0bae774387a7248383604051611ff1929190918252602082015260400190565b60405180910390a25050505050565b5f8061105985858561204a565b60605f61201983612199565b6040805160208082528183019092529192505f91906020820181803683375050509182525060208101929092525090565b82545f908190801561213f575f61206687610f3860018561257f565b805490915065ffffffffffff80821691600160301b90046001600160d01b03169088168211156120a957604051632520601d60e01b815260040160405180910390fd5b8765ffffffffffff168265ffffffffffff16036120e257825465ffffffffffff16600160301b6001600160d01b038916021783556116db565b6040805180820190915265ffffffffffff808a1682526001600160d01b03808a1660208085019182528d54600181018f555f8f81529190912094519151909216600160301b02921691909117910155945085935061105e92505050565b50506040805180820190915265ffffffffffff80851682526001600160d01b0380851660208085019182528854600181018a555f8a815291822095519251909316600160301b02919093161792019190915590508161105e565b5f60ff8216601f8111156103e857604051632cd44ac360e21b815260040160405180910390fd5b5f5f604083850312156121d1575f5ffd5b50508035926020909101359150565b6001600160a01b03811681146121f4575f5ffd5b50565b5f5f60408385031215612208575f5ffd5b8235612213816121e0565b946020939093013593505050565b5f5f5f60608486031215612233575f5ffd5b833561223e816121e0565b9250602084013561224e816121e0565b929592945050506040919091013590565b5f81518084528060208401602086015e5f602082860101526020601f19601f83011685010191505092915050565b602081525f610e42602083018461225f565b5f602082840312156122af575f5ffd5b8135610e42816121e0565b5f5f5f606084860312156122cc575f5ffd5b83356122d7816121e0565b95602085013595506040909401359392505050565b5f5f83601f8401126122fc575f5ffd5b50813567ffffffffffffffff811115612313575f5ffd5b6020830191508360208260051b850101111561232d575f5ffd5b9250929050565b5f5f5f60408486031215612346575f5ffd5b8335612351816121e0565b9250602084013567ffffffffffffffff81111561236c575f5ffd5b612378868287016122ec565b9497909650939450505050565b60ff60f81b8816815260e060208201525f6123a360e083018961225f565b82810360408401526123b5818961225f565b606084018890526001600160a01b038716608085015260a0840186905283810360c0850152845180825260208087019350909101905f5b8181101561240a5783518352602093840193909201916001016123ec565b50909b9a5050505050505050505050565b5f6020828403121561242b575f5ffd5b5035919050565b5f5f5f5f5f60808688031215612446575f5ffd5b8535612451816121e0565b9450602086013567ffffffffffffffff81111561246c575f5ffd5b612478888289016122ec565b90955093505060408601356002811061248f575f5ffd5b949793965091946060013592915050565b5f5f5f5f5f5f60c087890312156124b5575f5ffd5b86356124c0816121e0565b95506020870135945060408701359350606087013560ff811681146124e3575f5ffd5b9598949750929560808101359460a0909101359350915050565b5f6020828403121561250d575f5ffd5b5051919050565b634e487b7160e01b5f52603260045260245ffd5b5f60208284031215612538575f5ffd5b8151610e42816121e0565b634e487b7160e01b5f52604160045260245ffd5b634e487b7160e01b5f52602160045260245ffd5b634e487b7160e01b5f52601160045260245ffd5b818103818111156103e8576103e861256b565b808201808211156103e8576103e861256b565b634e487b7160e01b5f52601260045260245ffd5b5f82601f8301126125c8575f5ffd5b815167ffffffffffffffff8111156125e2576125e2612543565b8060051b604051601f19603f830116810181811067ffffffffffffffff8211171561260f5761260f612543565b60405291825260208185018101929081018684111561262c575f5ffd5b6020860192505b8383101561264b578251815260209283019201612633565b5095945050505050565b5f5f60408385031215612666575f5ffd5b825167ffffffffffffffff81111561267c575f5ffd5b612688858286016125b9565b925050602083015167ffffffffffffffff8111156126a4575f5ffd5b6126b0858286016125b9565b9150509250929050565b600181811c908216806126ce57607f821691505b6020821081036126ec57634e487b7160e01b5f52602260045260245ffd5b50919050565b6001600160d01b0381811683821601908111156103e8576103e861256b565b6001600160d01b0382811682821603908111156103e8576103e861256b56fea164736f6c634300081c000a",
	"gitCommit": "npm:@bananapus/721-hook-v6@1.0.1",
	"gitDirty": false,
	"history": []
}