{
	"format": "sphinx-sol-ct-artifact-1",
	"address": "0xe48a3081ed509e646eadf95131fae5e41cbed178",
	"sourceName": "node_modules/@bananapus/buyback-hook-v6/src/JBBuybackHook.sol",
	"contractName": "JBBuybackHook",
	"chainId": "0xaa36a7",
	"abi": [
		{
			"type": "constructor",
			"inputs": [
				{
					"name": "directory",
					"type": "address",
					"internalType": "contract IJBDirectory"
				},
				{
					"name": "permissions",
					"type": "address",
					"internalType": "contract IJBPermissions"
				},
				{
					"name": "prices",
					"type": "address",
					"internalType": "contract IJBPrices"
				},
				{
					"name": "projects",
					"type": "address",
					"internalType": "contract IJBProjects"
				},
				{
					"name": "tokens",
					"type": "address",
					"internalType": "contract IJBTokens"
				},
				{
					"name": "deployer",
					"type": "address",
					"internalType": "address"
				},
				{
					"name": "trustedForwarder",
					"type": "address",
					"internalType": "address"
				}
			],
			"stateMutability": "nonpayable"
		},
		{
			"type": "receive",
			"stateMutability": "payable"
		},
		{
			"type": "function",
			"name": "DIRECTORY",
			"inputs": [],
			"outputs": [
				{
					"name": "",
					"type": "address",
					"internalType": "contract IJBDirectory"
				}
			],
			"stateMutability": "view"
		},
		{
			"type": "function",
			"name": "MAX_TWAP_WINDOW",
			"inputs": [],
			"outputs": [
				{
					"name": "",
					"type": "uint256",
					"internalType": "uint256"
				}
			],
			"stateMutability": "view"
		},
		{
			"type": "function",
			"name": "MIN_TWAP_WINDOW",
			"inputs": [],
			"outputs": [
				{
					"name": "",
					"type": "uint256",
					"internalType": "uint256"
				}
			],
			"stateMutability": "view"
		},
		{
			"type": "function",
			"name": "PERMISSIONS",
			"inputs": [],
			"outputs": [
				{
					"name": "",
					"type": "address",
					"internalType": "contract IJBPermissions"
				}
			],
			"stateMutability": "view"
		},
		{
			"type": "function",
			"name": "PRICES",
			"inputs": [],
			"outputs": [
				{
					"name": "",
					"type": "address",
					"internalType": "contract IJBPrices"
				}
			],
			"stateMutability": "view"
		},
		{
			"type": "function",
			"name": "PROJECTS",
			"inputs": [],
			"outputs": [
				{
					"name": "",
					"type": "address",
					"internalType": "contract IJBProjects"
				}
			],
			"stateMutability": "view"
		},
		{
			"type": "function",
			"name": "TOKENS",
			"inputs": [],
			"outputs": [
				{
					"name": "",
					"type": "address",
					"internalType": "contract IJBTokens"
				}
			],
			"stateMutability": "view"
		},
		{
			"type": "function",
			"name": "TWAP_SLIPPAGE_DENOMINATOR",
			"inputs": [],
			"outputs": [
				{
					"name": "",
					"type": "uint256",
					"internalType": "uint256"
				}
			],
			"stateMutability": "view"
		},
		{
			"type": "function",
			"name": "afterCashOutRecordedWith",
			"inputs": [
				{
					"name": "context",
					"type": "tuple",
					"internalType": "struct JBAfterCashOutRecordedContext",
					"components": [
						{
							"name": "holder",
							"type": "address",
							"internalType": "address"
						},
						{
							"name": "projectId",
							"type": "uint256",
							"internalType": "uint256"
						},
						{
							"name": "rulesetId",
							"type": "uint256",
							"internalType": "uint256"
						},
						{
							"name": "cashOutCount",
							"type": "uint256",
							"internalType": "uint256"
						},
						{
							"name": "reclaimedAmount",
							"type": "tuple",
							"internalType": "struct JBTokenAmount",
							"components": [
								{
									"name": "token",
									"type": "address",
									"internalType": "address"
								},
								{
									"name": "decimals",
									"type": "uint8",
									"internalType": "uint8"
								},
								{
									"name": "currency",
									"type": "uint32",
									"internalType": "uint32"
								},
								{
									"name": "value",
									"type": "uint256",
									"internalType": "uint256"
								}
							]
						},
						{
							"name": "forwardedAmount",
							"type": "tuple",
							"internalType": "struct JBTokenAmount",
							"components": [
								{
									"name": "token",
									"type": "address",
									"internalType": "address"
								},
								{
									"name": "decimals",
									"type": "uint8",
									"internalType": "uint8"
								},
								{
									"name": "currency",
									"type": "uint32",
									"internalType": "uint32"
								},
								{
									"name": "value",
									"type": "uint256",
									"internalType": "uint256"
								}
							]
						},
						{
							"name": "cashOutTaxRate",
							"type": "uint256",
							"internalType": "uint256"
						},
						{
							"name": "beneficiary",
							"type": "address",
							"internalType": "address payable"
						},
						{
							"name": "hookMetadata",
							"type": "bytes",
							"internalType": "bytes"
						},
						{
							"name": "cashOutMetadata",
							"type": "bytes",
							"internalType": "bytes"
						}
					]
				}
			],
			"outputs": [],
			"stateMutability": "payable"
		},
		{
			"type": "function",
			"name": "afterPayRecordedWith",
			"inputs": [
				{
					"name": "context",
					"type": "tuple",
					"internalType": "struct JBAfterPayRecordedContext",
					"components": [
						{
							"name": "payer",
							"type": "address",
							"internalType": "address"
						},
						{
							"name": "projectId",
							"type": "uint256",
							"internalType": "uint256"
						},
						{
							"name": "rulesetId",
							"type": "uint256",
							"internalType": "uint256"
						},
						{
							"name": "amount",
							"type": "tuple",
							"internalType": "struct JBTokenAmount",
							"components": [
								{
									"name": "token",
									"type": "address",
									"internalType": "address"
								},
								{
									"name": "decimals",
									"type": "uint8",
									"internalType": "uint8"
								},
								{
									"name": "currency",
									"type": "uint32",
									"internalType": "uint32"
								},
								{
									"name": "value",
									"type": "uint256",
									"internalType": "uint256"
								}
							]
						},
						{
							"name": "forwardedAmount",
							"type": "tuple",
							"internalType": "struct JBTokenAmount",
							"components": [
								{
									"name": "token",
									"type": "address",
									"internalType": "address"
								},
								{
									"name": "decimals",
									"type": "uint8",
									"internalType": "uint8"
								},
								{
									"name": "currency",
									"type": "uint32",
									"internalType": "uint32"
								},
								{
									"name": "value",
									"type": "uint256",
									"internalType": "uint256"
								}
							]
						},
						{
							"name": "weight",
							"type": "uint256",
							"internalType": "uint256"
						},
						{
							"name": "newlyIssuedTokenCount",
							"type": "uint256",
							"internalType": "uint256"
						},
						{
							"name": "beneficiary",
							"type": "address",
							"internalType": "address"
						},
						{
							"name": "hookMetadata",
							"type": "bytes",
							"internalType": "bytes"
						},
						{
							"name": "payerMetadata",
							"type": "bytes",
							"internalType": "bytes"
						}
					]
				}
			],
			"outputs": [],
			"stateMutability": "payable"
		},
		{
			"type": "function",
			"name": "beforeCashOutRecordedWith",
			"inputs": [
				{
					"name": "context",
					"type": "tuple",
					"internalType": "struct JBBeforeCashOutRecordedContext",
					"components": [
						{
							"name": "terminal",
							"type": "address",
							"internalType": "address"
						},
						{
							"name": "holder",
							"type": "address",
							"internalType": "address"
						},
						{
							"name": "projectId",
							"type": "uint256",
							"internalType": "uint256"
						},
						{
							"name": "rulesetId",
							"type": "uint256",
							"internalType": "uint256"
						},
						{
							"name": "cashOutCount",
							"type": "uint256",
							"internalType": "uint256"
						},
						{
							"name": "totalSupply",
							"type": "uint256",
							"internalType": "uint256"
						},
						{
							"name": "surplus",
							"type": "tuple",
							"internalType": "struct JBTokenAmount",
							"components": [
								{
									"name": "token",
									"type": "address",
									"internalType": "address"
								},
								{
									"name": "decimals",
									"type": "uint8",
									"internalType": "uint8"
								},
								{
									"name": "currency",
									"type": "uint32",
									"internalType": "uint32"
								},
								{
									"name": "value",
									"type": "uint256",
									"internalType": "uint256"
								}
							]
						},
						{
							"name": "scopeCashOutsToLocalBalances",
							"type": "bool",
							"internalType": "bool"
						},
						{
							"name": "cashOutTaxRate",
							"type": "uint256",
							"internalType": "uint256"
						},
						{
							"name": "beneficiaryIsFeeless",
							"type": "bool",
							"internalType": "bool"
						},
						{
							"name": "metadata",
							"type": "bytes",
							"internalType": "bytes"
						}
					]
				}
			],
			"outputs": [
				{
					"name": "cashOutTaxRate",
					"type": "uint256",
					"internalType": "uint256"
				},
				{
					"name": "cashOutCount",
					"type": "uint256",
					"internalType": "uint256"
				},
				{
					"name": "totalSupply",
					"type": "uint256",
					"internalType": "uint256"
				},
				{
					"name": "effectiveSurplusValue",
					"type": "uint256",
					"internalType": "uint256"
				},
				{
					"name": "hookSpecifications",
					"type": "tuple[]",
					"internalType": "struct JBCashOutHookSpecification[]",
					"components": [
						{
							"name": "hook",
							"type": "address",
							"internalType": "contract IJBCashOutHook"
						},
						{
							"name": "noop",
							"type": "bool",
							"internalType": "bool"
						},
						{
							"name": "amount",
							"type": "uint256",
							"internalType": "uint256"
						},
						{
							"name": "metadata",
							"type": "bytes",
							"internalType": "bytes"
						}
					]
				}
			],
			"stateMutability": "view"
		},
		{
			"type": "function",
			"name": "beforePayRecordedWith",
			"inputs": [
				{
					"name": "context",
					"type": "tuple",
					"internalType": "struct JBBeforePayRecordedContext",
					"components": [
						{
							"name": "terminal",
							"type": "address",
							"internalType": "address"
						},
						{
							"name": "payer",
							"type": "address",
							"internalType": "address"
						},
						{
							"name": "amount",
							"type": "tuple",
							"internalType": "struct JBTokenAmount",
							"components": [
								{
									"name": "token",
									"type": "address",
									"internalType": "address"
								},
								{
									"name": "decimals",
									"type": "uint8",
									"internalType": "uint8"
								},
								{
									"name": "currency",
									"type": "uint32",
									"internalType": "uint32"
								},
								{
									"name": "value",
									"type": "uint256",
									"internalType": "uint256"
								}
							]
						},
						{
							"name": "projectId",
							"type": "uint256",
							"internalType": "uint256"
						},
						{
							"name": "rulesetId",
							"type": "uint256",
							"internalType": "uint256"
						},
						{
							"name": "beneficiary",
							"type": "address",
							"internalType": "address"
						},
						{
							"name": "weight",
							"type": "uint256",
							"internalType": "uint256"
						},
						{
							"name": "reservedPercent",
							"type": "uint256",
							"internalType": "uint256"
						},
						{
							"name": "metadata",
							"type": "bytes",
							"internalType": "bytes"
						}
					]
				}
			],
			"outputs": [
				{
					"name": "weight",
					"type": "uint256",
					"internalType": "uint256"
				},
				{
					"name": "hookSpecifications",
					"type": "tuple[]",
					"internalType": "struct JBPayHookSpecification[]",
					"components": [
						{
							"name": "hook",
							"type": "address",
							"internalType": "contract IJBPayHook"
						},
						{
							"name": "noop",
							"type": "bool",
							"internalType": "bool"
						},
						{
							"name": "amount",
							"type": "uint256",
							"internalType": "uint256"
						},
						{
							"name": "metadata",
							"type": "bytes",
							"internalType": "bytes"
						}
					]
				}
			],
			"stateMutability": "view"
		},
		{
			"type": "function",
			"name": "hasMintPermissionFor",
			"inputs": [
				{
					"name": "",
					"type": "uint256",
					"internalType": "uint256"
				},
				{
					"name": "",
					"type": "tuple",
					"internalType": "struct JBRuleset",
					"components": [
						{
							"name": "cycleNumber",
							"type": "uint48",
							"internalType": "uint48"
						},
						{
							"name": "id",
							"type": "uint48",
							"internalType": "uint48"
						},
						{
							"name": "basedOnId",
							"type": "uint48",
							"internalType": "uint48"
						},
						{
							"name": "start",
							"type": "uint48",
							"internalType": "uint48"
						},
						{
							"name": "duration",
							"type": "uint32",
							"internalType": "uint32"
						},
						{
							"name": "weight",
							"type": "uint112",
							"internalType": "uint112"
						},
						{
							"name": "weightCutPercent",
							"type": "uint32",
							"internalType": "uint32"
						},
						{
							"name": "approvalHook",
							"type": "address",
							"internalType": "contract IJBRulesetApprovalHook"
						},
						{
							"name": "metadata",
							"type": "uint256",
							"internalType": "uint256"
						}
					]
				},
				{
					"name": "",
					"type": "address",
					"internalType": "address"
				}
			],
			"outputs": [
				{
					"name": "",
					"type": "bool",
					"internalType": "bool"
				}
			],
			"stateMutability": "pure"
		},
		{
			"type": "function",
			"name": "initializePoolFor",
			"inputs": [
				{
					"name": "projectId",
					"type": "uint256",
					"internalType": "uint256"
				},
				{
					"name": "fee",
					"type": "uint24",
					"internalType": "uint24"
				},
				{
					"name": "tickSpacing",
					"type": "int24",
					"internalType": "int24"
				},
				{
					"name": "twapWindow",
					"type": "uint256",
					"internalType": "uint256"
				},
				{
					"name": "terminalToken",
					"type": "address",
					"internalType": "address"
				},
				{
					"name": "sqrtPriceX96",
					"type": "uint160",
					"internalType": "uint160"
				}
			],
			"outputs": [],
			"stateMutability": "nonpayable"
		},
		{
			"type": "function",
			"name": "isTrustedForwarder",
			"inputs": [
				{
					"name": "forwarder",
					"type": "address",
					"internalType": "address"
				}
			],
			"outputs": [
				{
					"name": "",
					"type": "bool",
					"internalType": "bool"
				}
			],
			"stateMutability": "view"
		},
		{
			"type": "function",
			"name": "oracleHook",
			"inputs": [],
			"outputs": [
				{
					"name": "",
					"type": "address",
					"internalType": "contract IHooks"
				}
			],
			"stateMutability": "view"
		},
		{
			"type": "function",
			"name": "poolKeyOf",
			"inputs": [
				{
					"name": "projectId",
					"type": "uint256",
					"internalType": "uint256"
				},
				{
					"name": "terminalToken",
					"type": "address",
					"internalType": "address"
				}
			],
			"outputs": [
				{
					"name": "key",
					"type": "tuple",
					"internalType": "struct PoolKey",
					"components": [
						{
							"name": "currency0",
							"type": "address",
							"internalType": "Currency"
						},
						{
							"name": "currency1",
							"type": "address",
							"internalType": "Currency"
						},
						{
							"name": "fee",
							"type": "uint24",
							"internalType": "uint24"
						},
						{
							"name": "tickSpacing",
							"type": "int24",
							"internalType": "int24"
						},
						{
							"name": "hooks",
							"type": "address",
							"internalType": "contract IHooks"
						}
					]
				}
			],
			"stateMutability": "view"
		},
		{
			"type": "function",
			"name": "poolManager",
			"inputs": [],
			"outputs": [
				{
					"name": "",
					"type": "address",
					"internalType": "contract IPoolManager"
				}
			],
			"stateMutability": "view"
		},
		{
			"type": "function",
			"name": "projectTokenOf",
			"inputs": [
				{
					"name": "projectId",
					"type": "uint256",
					"internalType": "uint256"
				}
			],
			"outputs": [
				{
					"name": "",
					"type": "address",
					"internalType": "address"
				}
			],
			"stateMutability": "view"
		},
		{
			"type": "function",
			"name": "setChainSpecificConstants",
			"inputs": [
				{
					"name": "newPoolManager",
					"type": "address",
					"internalType": "contract IPoolManager"
				},
				{
					"name": "newOracleHook",
					"type": "address",
					"internalType": "contract IHooks"
				}
			],
			"outputs": [],
			"stateMutability": "nonpayable"
		},
		{
			"type": "function",
			"name": "setPoolFor",
			"inputs": [
				{
					"name": "projectId",
					"type": "uint256",
					"internalType": "uint256"
				},
				{
					"name": "fee",
					"type": "uint24",
					"internalType": "uint24"
				},
				{
					"name": "tickSpacing",
					"type": "int24",
					"internalType": "int24"
				},
				{
					"name": "twapWindow",
					"type": "uint256",
					"internalType": "uint256"
				},
				{
					"name": "terminalToken",
					"type": "address",
					"internalType": "address"
				}
			],
			"outputs": [],
			"stateMutability": "nonpayable"
		},
		{
			"type": "function",
			"name": "setPoolFor",
			"inputs": [
				{
					"name": "projectId",
					"type": "uint256",
					"internalType": "uint256"
				},
				{
					"name": "poolKey",
					"type": "tuple",
					"internalType": "struct PoolKey",
					"components": [
						{
							"name": "currency0",
							"type": "address",
							"internalType": "Currency"
						},
						{
							"name": "currency1",
							"type": "address",
							"internalType": "Currency"
						},
						{
							"name": "fee",
							"type": "uint24",
							"internalType": "uint24"
						},
						{
							"name": "tickSpacing",
							"type": "int24",
							"internalType": "int24"
						},
						{
							"name": "hooks",
							"type": "address",
							"internalType": "contract IHooks"
						}
					]
				},
				{
					"name": "twapWindow",
					"type": "uint256",
					"internalType": "uint256"
				},
				{
					"name": "terminalToken",
					"type": "address",
					"internalType": "address"
				}
			],
			"outputs": [],
			"stateMutability": "nonpayable"
		},
		{
			"type": "function",
			"name": "setTwapWindowOf",
			"inputs": [
				{
					"name": "projectId",
					"type": "uint256",
					"internalType": "uint256"
				},
				{
					"name": "terminalToken",
					"type": "address",
					"internalType": "address"
				},
				{
					"name": "newWindow",
					"type": "uint256",
					"internalType": "uint256"
				}
			],
			"outputs": [],
			"stateMutability": "nonpayable"
		},
		{
			"type": "function",
			"name": "supportsInterface",
			"inputs": [
				{
					"name": "interfaceId",
					"type": "bytes4",
					"internalType": "bytes4"
				}
			],
			"outputs": [
				{
					"name": "",
					"type": "bool",
					"internalType": "bool"
				}
			],
			"stateMutability": "pure"
		},
		{
			"type": "function",
			"name": "trustedForwarder",
			"inputs": [],
			"outputs": [
				{
					"name": "",
					"type": "address",
					"internalType": "address"
				}
			],
			"stateMutability": "view"
		},
		{
			"type": "function",
			"name": "twapWindowOf",
			"inputs": [
				{
					"name": "projectId",
					"type": "uint256",
					"internalType": "uint256"
				},
				{
					"name": "terminalToken",
					"type": "address",
					"internalType": "address"
				}
			],
			"outputs": [
				{
					"name": "",
					"type": "uint256",
					"internalType": "uint256"
				}
			],
			"stateMutability": "view"
		},
		{
			"type": "function",
			"name": "unlockCallback",
			"inputs": [
				{
					"name": "data",
					"type": "bytes",
					"internalType": "bytes"
				}
			],
			"outputs": [
				{
					"name": "",
					"type": "bytes",
					"internalType": "bytes"
				}
			],
			"stateMutability": "nonpayable"
		},
		{
			"type": "event",
			"name": "CashOutSwap",
			"inputs": [
				{
					"name": "projectId",
					"type": "uint256",
					"indexed": true,
					"internalType": "uint256"
				},
				{
					"name": "cashOutCount",
					"type": "uint256",
					"indexed": false,
					"internalType": "uint256"
				},
				{
					"name": "poolId",
					"type": "bytes32",
					"indexed": true,
					"internalType": "PoolId"
				},
				{
					"name": "amountReceived",
					"type": "uint256",
					"indexed": false,
					"internalType": "uint256"
				},
				{
					"name": "caller",
					"type": "address",
					"indexed": false,
					"internalType": "address"
				}
			],
			"anonymous": false
		},
		{
			"type": "event",
			"name": "Mint",
			"inputs": [
				{
					"name": "projectId",
					"type": "uint256",
					"indexed": true,
					"internalType": "uint256"
				},
				{
					"name": "leftoverAmount",
					"type": "uint256",
					"indexed": false,
					"internalType": "uint256"
				},
				{
					"name": "tokenCount",
					"type": "uint256",
					"indexed": false,
					"internalType": "uint256"
				},
				{
					"name": "caller",
					"type": "address",
					"indexed": false,
					"internalType": "address"
				}
			],
			"anonymous": false
		},
		{
			"type": "event",
			"name": "PoolAdded",
			"inputs": [
				{
					"name": "projectId",
					"type": "uint256",
					"indexed": true,
					"internalType": "uint256"
				},
				{
					"name": "terminalToken",
					"type": "address",
					"indexed": true,
					"internalType": "address"
				},
				{
					"name": "poolId",
					"type": "bytes32",
					"indexed": false,
					"internalType": "PoolId"
				},
				{
					"name": "caller",
					"type": "address",
					"indexed": false,
					"internalType": "address"
				}
			],
			"anonymous": false
		},
		{
			"type": "event",
			"name": "SellSwapReverted",
			"inputs": [
				{
					"name": "projectId",
					"type": "uint256",
					"indexed": true,
					"internalType": "uint256"
				},
				{
					"name": "holder",
					"type": "address",
					"indexed": true,
					"internalType": "address"
				},
				{
					"name": "amount",
					"type": "uint256",
					"indexed": false,
					"internalType": "uint256"
				},
				{
					"name": "caller",
					"type": "address",
					"indexed": false,
					"internalType": "address"
				}
			],
			"anonymous": false
		},
		{
			"type": "event",
			"name": "Swap",
			"inputs": [
				{
					"name": "projectId",
					"type": "uint256",
					"indexed": true,
					"internalType": "uint256"
				},
				{
					"name": "amountToSwapWith",
					"type": "uint256",
					"indexed": false,
					"internalType": "uint256"
				},
				{
					"name": "poolId",
					"type": "bytes32",
					"indexed": true,
					"internalType": "PoolId"
				},
				{
					"name": "amountReceived",
					"type": "uint256",
					"indexed": false,
					"internalType": "uint256"
				},
				{
					"name": "caller",
					"type": "address",
					"indexed": false,
					"internalType": "address"
				}
			],
			"anonymous": false
		},
		{
			"type": "event",
			"name": "TwapWindowChanged",
			"inputs": [
				{
					"name": "projectId",
					"type": "uint256",
					"indexed": true,
					"internalType": "uint256"
				},
				{
					"name": "terminalToken",
					"type": "address",
					"indexed": true,
					"internalType": "address"
				},
				{
					"name": "oldWindow",
					"type": "uint256",
					"indexed": false,
					"internalType": "uint256"
				},
				{
					"name": "newWindow",
					"type": "uint256",
					"indexed": false,
					"internalType": "uint256"
				},
				{
					"name": "caller",
					"type": "address",
					"indexed": false,
					"internalType": "address"
				}
			],
			"anonymous": false
		},
		{
			"type": "error",
			"name": "FailedCall",
			"inputs": []
		},
		{
			"type": "error",
			"name": "InsufficientBalance",
			"inputs": [
				{
					"name": "balance",
					"type": "uint256",
					"internalType": "uint256"
				},
				{
					"name": "needed",
					"type": "uint256",
					"internalType": "uint256"
				}
			]
		},
		{
			"type": "error",
			"name": "JBBuybackHook_AlreadyConfigured",
			"inputs": []
		},
		{
			"type": "error",
			"name": "JBBuybackHook_CallerNotPoolManager",
			"inputs": [
				{
					"name": "caller",
					"type": "address",
					"internalType": "address"
				}
			]
		},
		{
			"type": "error",
			"name": "JBBuybackHook_CallerNotTerminal",
			"inputs": [
				{
					"name": "caller",
					"type": "address",
					"internalType": "address"
				}
			]
		},
		{
			"type": "error",
			"name": "JBBuybackHook_InsufficientPayAmount",
			"inputs": [
				{
					"name": "swapAmount",
					"type": "uint256",
					"internalType": "uint256"
				},
				{
					"name": "totalPaid",
					"type": "uint256",
					"internalType": "uint256"
				}
			]
		},
		{
			"type": "error",
			"name": "JBBuybackHook_InvalidTwapWindow",
			"inputs": [
				{
					"name": "value",
					"type": "uint256",
					"internalType": "uint256"
				},
				{
					"name": "min",
					"type": "uint256",
					"internalType": "uint256"
				},
				{
					"name": "max",
					"type": "uint256",
					"internalType": "uint256"
				}
			]
		},
		{
			"type": "error",
			"name": "JBBuybackHook_PoolAlreadySet",
			"inputs": [
				{
					"name": "poolId",
					"type": "bytes32",
					"internalType": "PoolId"
				}
			]
		},
		{
			"type": "error",
			"name": "JBBuybackHook_PoolInitializedAtWrongPrice",
			"inputs": [
				{
					"name": "actualSqrtPriceX96",
					"type": "uint160",
					"internalType": "uint160"
				},
				{
					"name": "expectedSqrtPriceX96",
					"type": "uint160",
					"internalType": "uint160"
				}
			]
		},
		{
			"type": "error",
			"name": "JBBuybackHook_PoolNotInitialized",
			"inputs": [
				{
					"name": "poolId",
					"type": "bytes32",
					"internalType": "PoolId"
				}
			]
		},
		{
			"type": "error",
			"name": "JBBuybackHook_PoolNotSet",
			"inputs": [
				{
					"name": "projectId",
					"type": "uint256",
					"internalType": "uint256"
				},
				{
					"name": "terminalToken",
					"type": "address",
					"internalType": "address"
				}
			]
		},
		{
			"type": "error",
			"name": "JBBuybackHook_SpecifiedSlippageExceeded",
			"inputs": [
				{
					"name": "amount",
					"type": "uint256",
					"internalType": "uint256"
				},
				{
					"name": "minimum",
					"type": "uint256",
					"internalType": "uint256"
				}
			]
		},
		{
			"type": "error",
			"name": "JBBuybackHook_TerminalTokenIsProjectToken",
			"inputs": [
				{
					"name": "terminalToken",
					"type": "address",
					"internalType": "address"
				},
				{
					"name": "projectToken",
					"type": "address",
					"internalType": "address"
				}
			]
		},
		{
			"type": "error",
			"name": "JBBuybackHook_Unauthorized",
			"inputs": [
				{
					"name": "caller",
					"type": "address",
					"internalType": "address"
				}
			]
		},
		{
			"type": "error",
			"name": "JBBuybackHook_ZeroProjectToken",
			"inputs": [
				{
					"name": "projectId",
					"type": "uint256",
					"internalType": "uint256"
				}
			]
		},
		{
			"type": "error",
			"name": "JBPermissioned_Unauthorized",
			"inputs": [
				{
					"name": "account",
					"type": "address",
					"internalType": "address"
				},
				{
					"name": "sender",
					"type": "address",
					"internalType": "address"
				},
				{
					"name": "projectId",
					"type": "uint256",
					"internalType": "uint256"
				},
				{
					"name": "permissionId",
					"type": "uint256",
					"internalType": "uint256"
				}
			]
		},
		{
			"type": "error",
			"name": "PRBMath_MulDiv_Overflow",
			"inputs": [
				{
					"name": "x",
					"type": "uint256",
					"internalType": "uint256"
				},
				{
					"name": "y",
					"type": "uint256",
					"internalType": "uint256"
				},
				{
					"name": "denominator",
					"type": "uint256",
					"internalType": "uint256"
				}
			]
		},
		{
			"type": "error",
			"name": "SafeERC20FailedOperation",
			"inputs": [
				{
					"name": "token",
					"type": "address",
					"internalType": "address"
				}
			]
		}
	],
	"args": [
		"0x255c5901827dB2d5b982BF8c25090809c36aBA18",
		"0xBf9A259b0F3c5c4B72896752B8046FB7cecbd23E",
		"0x9dAe07bBF1602a1f79A95eFed65A56176df25586",
		"0x056D2823a5699Ce0F58948Ab12DeB8f4B93c6cb6",
		"0x4e24aC736F2DB0f0abd9ae891d4AA353F6D433CA",
		"0xd5136c794ee43BEf1eD4cF1eB6DEe45b7F803437",
		"0x85C82dfA5cdb397C6EaE6ffb793f9F308579E820"
	],
	"solcInputHash": "fa2a3df2d9909a04184793a96feeced5",
	"bytecode": "0x6101a06040523461024e576159d360e0813803918261001d81610252565b93849283398101031261024e5780516001600160a01b038116810361024e576020820151906001600160a01b038216820361024e576040830151916001600160a01b038316830361024e576060840151916001600160a01b038316830361024e576080850151916001600160a01b038316830361024e576100ac60c06100a560a0890161028b565b970161028b565b9060805260a05260c052610120526101005260e052610160526101246100d26040610252565b600781526618d85cda13dd5d60ca1b6020909101523060601b6001600160601b0319167f86b14ff4df1839d4c5ed01550f2540ea56ad3e38000000000000000000000000186001600160e01b03191690565b610140526101836101356040610252565b600381526270617960e81b6020909101523060601b6001600160601b0319167fadc756803e4eb4ccfb136b73d5f72e3dc0d452d3000000000000000000000000186001600160e01b03191690565b6101805260405161573390816102a08239608051818181610254015281816105ff0152613942015260a051818181610ffe01528181611059015261564d015260c051818181610f12015281816116b2015281816121dd01526129cb015260e0518181816115e701526126350152610100518181816103fb015281816110de015281816112f6015281816114b4015261156f01526101205181818161114b0152818161162c0152613a00015261014051816131350152610160518161030e0152610180518161217e0152f35b5f80fd5b6040519190601f01601f191682016001600160401b0381118382101761027757604052565b634e487b7160e01b5f52604160045260245ffd5b51906001600160a01b038216820361024e5756fe61010080604052600436101561001d575b50361561001b575f80fd5b005b5f905f3560e01c90816301ffc9a714611cca575080631337f986146116785780631a65893b1461165b5780631d831d5c146116165780631eabcd34146115d157806327e514111461159e578063293c499914611559578063345c42131461146757806349e303831461129657806353fd8e311461108b578063572b6c051461102d5780637da0a87714610fe8578063826a5e7414610f4157806388bc2ef314610efc5780638cc3584614610e2557806391dd73461461083e5780639782ed71146107f95780639785f1ed146107d057806399f6d77f146106d0578063b7433b35146103bc578063b88a92b41461039e578063bac6b2ad146102dc578063c22903b2146102c7578063db312fae146102aa578063dc4c90d314610283578063f434c9141461023e5763f672acac03610010573461023b57602036600319011261023b576004356001600160401b038111610239576101c060031982360301126102395761018b906004016130da565b92939060409592955195869560a0870193875260208701526040860152606085015260a06080850152825180915260c08401602060c08360051b870101940192905b8282106101dc57505050500390f35b91936001919395506020610229819260bf198a8203018652608060608a51878060a01b03815116845285810151151586850152604081015160408501520151918160608201520190611e7b565b96019201920185949391926101cd565b505b80fd5b503461023b578060031936011261023b576040517f00000000000000000000000000000000000000000000000000000000000000006001600160a01b03168152602090f35b503461023b578060031936011261023b57546040516001600160a01b039091168152602090f35b503461023b578060031936011261023b5760206040516127108152f35b506102d96102d436611d7d565b6129a0565b80f35b503461023b57604036600319011261023b576004356001600160a01b038116908190036102395761030b611df7565b907f00000000000000000000000000000000000000000000000000000000000000006001600160a01b0316330361038b5782546001600160a01b038116610379576001600160601b0360a01b1617825560018060a01b03166001600160601b0360a01b600154161760015580f35b6001622c6feb60e11b03198452600484fd5b634758af1b60e01b835233600452602483fd5b503461023b578060031936011261023b5760206040516202a3008152f35b503461023b57606036600319011261023b576004356103d9611df7565b6040516331a9108f60e11b8152600481018390526044359291906020816024817f00000000000000000000000000000000000000000000000000000000000000006001600160a01b03165afa9081156106c5578591610687575b5061043c615622565b6001600160a01b03918216911680821415806105bf575b61059457505061012c83108015610588575b610568576001600160a01b03811661eeee03610562575082915b81845260056020526040842060018060a01b0384165f5260205260ff60405f20541615610541578184526004602081815260408087206001600160a01b0387165f81815291845282822054878a529484528289209082529092529020829055927fac260005f5a1d1cb696ab1065059083a3769fa09f4b4699f1dafd670d071a921919061053b61050d615622565b6040805197885260208801949094526001600160a01b03908116938701939093529116939081906060820190565b0390a380f35b633d56755560e01b845260048290526001600160a01b038316602452604484fd5b9161047f565b62904c3760e81b8452600483905261012c6024526202a300604452606484fd5b506202a3008311610465565b908360849260405192631326f75560e11b8452600484015260248301526044820152601c6064820152fd5b50604051631a45b42760e11b8152600481018290526024810183905260448101859052601c606482015260016084820181905260a482015260208160c4817f00000000000000000000000000000000000000000000000000000000000000006001600160a01b03165afa90811561067c57879161063e575b5015610453565b90506020813d602011610674575b8161065960209383611f05565b810103126106705761066a90611f26565b5f610637565b8680fd5b3d915061064c565b6040513d89823e3d90fd5b90506020813d6020116106bd575b816106a260209383611f05565b810103126106b9576106b390611fde565b5f610433565b8480fd5b3d9150610695565b6040513d87823e3d90fd5b503461023b5761016036600319011261023b5761012036602319011261023b57604051906106fd82611ee9565b60243565ffffffffffff8116810361023957825260443565ffffffffffff8116810361023957602083015260643565ffffffffffff8116810361023957604083015260843565ffffffffffff8116810361023957606083015260a43563ffffffff8116810361023957608083015260c4356001600160701b03811681036102395760a083015260e43563ffffffff811681036102395760c083015261010435916001600160a01b03831683036102395760209260e0820152610100610124359101526107c7611e0d565b50604051908152f35b503461023b578060031936011261023b576001546040516001600160a01b039091168152602090f35b503461023b57604036600319011261023b576040610815611df7565b9160043581526004602052209060018060a01b03165f52602052602060405f2054604051908152f35b503461023b57602036600319011261023b57600435906001600160401b03821161023b573660238301121561023b5781600401356001600160401b0381116102395782019036602483011161023b5780546001600160a01b03169133839003610e1257610100848203126102395760a06024604051926108bd84611ece565b869003016023190112610239576040516108d681611e9f565b6108e260248601611e24565b81526108f060448601611e24565b6020820152606485013562ffffff81168103610bce57604082015261091760848601611dd3565b606082015261092860a48601611e24565b6080820152815261093b60c48501611f65565b93610969602083019580875260e48301359061010460408601948386520135908160608701521515916142ef565b93825186511515925195600160ff1b8714610dfe5760405193606085018581106001600160401b03821117610dea5792610a296109f8938993602098979660405287528787019a84038b52604087019060018060a01b031681526040519084898301528882526109da604083611f05565b604051633cf3645360e21b81529b8c98899788966004880190611e38565b51151560a48601525160c4850152516001600160a01b031660e4840152610120610104840152610124830190611e7b565b03925af1928315610ddf578293610dab575b508260801d935115155f14610d73575180516020909101516001600160a01b03918216949116906001600160801b03908190610a7690612980565b169316935b6001600160a01b031680610ca757508154604051630476982d60e21b8152906020908290600490829088906001600160a01b03165af18015610c9c57610c6d575b505b6001600160a01b031680158015610c0a5747945b83546001600160a01b031690813b156106b9578491606483926040519485938492630b0d9c0960e01b845289600485015230602485015260448401525af18015610bff57908491610be6575b505015610b69575050610b34610b659247611f86565b604051916020830152604082015260408152610b51606082611f05565b604051918291602083526020830190611e7b565b0390f35b6020602491604051928380926370a0823160e01b82523060048301525afa918215610bda5791610ba2575b50610b6592610b3491611f86565b90506020813d602011610bd2575b81610bbd60209383611f05565b81010312610bce5751610b65610b94565b5f80fd5b3d9150610bb0565b604051903d90823e3d90fd5b81610bf091611f05565b610bfb57825f610b1e565b8280fd5b6040513d86823e3d90fd5b6040516370a0823160e01b8152306004820152602081602481865afa908115610bff578491610c3b575b5094610ad2565b90506020813d602011610c65575b81610c5660209383611f05565b81010312610bce57515f610c34565b3d9150610c49565b610c8e9060203d602011610c95575b610c868183611f05565b810190611fa7565b505f610abc565b503d610c7c565b6040513d85823e3d90fd5b82546001600160a01b0316803b15610d6f57838091602460405180948193632961046560e21b83528760048401525af18015610bff5785918591610d56575b50508354610cff926001600160a01b0390911690614467565b8154604051630476982d60e21b8152906020908290600490829087906001600160a01b03165af18015610c9c57610d37575b50610abe565b610d4f9060203d602011610c9557610c868183611f05565b505f610d31565b81925090610d6391611f05565b610bfb5783835f610ce6565b8380fd5b51602081015190516001600160a01b0391821694939116906001600160801b03908190610da290600f0b612980565b16931693610a7b565b9092506020813d602011610dd7575b81610dc760209383611f05565b810103126102395751915f610a3b565b3d9150610dba565b6040513d84823e3d90fd5b634e487b7160e01b88526041600452602488fd5b634e487b7160e01b86526011600452602486fd5b63cb25844560e01b825233600452602482fd5b503461023b57602036600319011261023b576004356001600160401b03811161023957610180600319823603011261023957610e6390600401612145565b6040519283926040840190845260406020850152825180915260608401602060608360051b870101940192905b828210610e9f57505050500390f35b91936001919395506020610eec8192605f198a8203018652608060608a51878060a01b03815116845285810151151586850152604081015160408501520151918160608201520190611e7b565b9601920192018594939192610e90565b503461023b578060031936011261023b576040517f00000000000000000000000000000000000000000000000000000000000000006001600160a01b03168152602090f35b503461023b57604036600319011261023b576040610f5d611df7565b91610f66612011565b5060043581526002602052209060018060a01b03165f5260205260a060405f2060405190610f9382611e9f565b600180841b0381541682526001810154600180851b038116602084015262ffffff81851c16604084015260b81c60020b60608301526002600180851b03910154166080820152610fe66040518092611e38565bf35b503461023b578060031936011261023b576040517f00000000000000000000000000000000000000000000000000000000000000006001600160a01b03168152602090f35b503461023b57602036600319011261023b576004356001600160a01b03811690819003610239576040517f00000000000000000000000000000000000000000000000000000000000000006001600160a01b03169091148152602090f35b503461023b5761010036600319011261023b5760043560a03660231901126102395760e4356001600160a01b038116808203610d6f576040516331a9108f60e11b815260048101849052906020826024817f00000000000000000000000000000000000000000000000000000000000000006001600160a01b03165afa80156106c55784928691611252575b5061eeee92611125916138af565b0361124c575081905b60405163ea78803f60e01b815260048101829052916020836024817f00000000000000000000000000000000000000000000000000000000000000006001600160a01b03165afa928315610bff57849361121b575b506040519161119183611e9f565b6024356001600160a01b03811681036112175783526044356001600160a01b038116810361121757602084015260643562ffffff811681036112175760408401526084358060020b810361121757606084015260a435936001600160a01b03851685036112175760808401949094526102d9936001600160a01b03169260c43591613aca565b8580fd5b61123e91935060203d602011611245575b6112368183611f05565b810190611ff2565b915f611183565b503d61122c565b9061112e565b9250506020823d60201161128e575b8161126e60209383611f05565b810103126106b9576111258461128661eeee94611fde565b915092611117565b3d9150611261565b503461023b5760c036600319011261023b57600435906112b4611db1565b916112bd611dc3565b6112c5611de1565b9060a4359460018060a01b0386168096036106b9576040516331a9108f60e11b8152600481018590526020816024817f00000000000000000000000000000000000000000000000000000000000000006001600160a01b03165afa90811561145c579085918791611412575b5061134894939291611342916138af565b846139bb565b92909184602060018060a01b0382541660c46040518094819363313b65df60e11b83526113786004840189611e38565b8c60a48401525af16113d9575b50845460a0822061139e916001600160a01b0316613ebb565b5050506001600160a01b0316958087036113c257506102d994955060643591613aca565b6302c5a6e160e11b86526004879052602452604485fd5b6020813d60201161140a575b816113f260209383611f05565b8101031261121757518060020b810315611385578580fd5b3d91506113e5565b9150506020813d602011611454575b8161142e60209383611f05565b81010312611217579061134285611449611348969594611fde565b915091929394611331565b3d9150611421565b6040513d88823e3d90fd5b503461023b5760a036600319011261023b57600435611484611db1565b9061148d611dc3565b611495611de1565b6040516331a9108f60e11b8152600481018490529091906020816024817f00000000000000000000000000000000000000000000000000000000000000006001600160a01b03165afa90811561145c57869161150c575b50906102d9946113428561150095946138af565b92909160643591613aca565b929190506020833d602011611551575b8161152960209383611f05565b81010312611217576102d9946113428561154561150096611fde565b939495505050946114ec565b3d915061151c565b503461023b578060031936011261023b576040517f00000000000000000000000000000000000000000000000000000000000000006001600160a01b03168152602090f35b503461023b57602036600319011261023b57602090600435815260038252604060018060a01b0391205416604051908152f35b503461023b578060031936011261023b576040517f00000000000000000000000000000000000000000000000000000000000000006001600160a01b03168152602090f35b503461023b578060031936011261023b576040517f00000000000000000000000000000000000000000000000000000000000000006001600160a01b03168152602090f35b503461023b578060031936011261023b57602060405161012c8152f35b5061168236611d7d565b604051636e49181f60e01b8152602082810135600483018190523360248401529190816044816001600160a01b037f0000000000000000000000000000000000000000000000000000000000000000165afa908115611afa575f91611c90575b5015611c7d57816116f96101c060e0940182611f33565b9080949181010312610bce5761170e83611f65565b60408401359361172060608201611f65565b60808201356001600160a01b03811696909290878403610bce5760c08201359260e0870161eeee6001600160a01b0361175883611f72565b161496879661176e61176984611f72565b613409565b98611c6b575b87159182611bf0575b6117a79392916117939160a0890135908d613515565b9390996117a261176985611f72565b611f86565b5f98816118b5575b5050505081156118ac575b508061189a575b61187a57506117ec926117e68695936117e69360206101608d9b9a013591013561380c565b90611fd1565b91826117f6578380f35b6020936118086101a060c49401611f72565b9560405196879586946363fdc96f60e11b86526004860152602485015260018060a01b0316604484015260a060648401528160a4840152600160848401525af18015610ddf5761185b575b818180808380f35b6118739060203d602011610c9557610c868183611f05565b505f611853565b886044916118888688611fd1565b63e2d708a960e01b8352600452602452fd5b50806118a68587611fd1565b106117c1565b9050155f6117ba565b8c939499505f9e9d9e50825f93611b0c575b8115611b0557825b6118db61176988611f72565b956118e588611f72565b91602095604051936118f78886611f05565b5f8552333b15610bce575f9361195560405196879586948594639e6eec0560e01b8652600486015260018060a01b03166024850152604484015286606484015260c060848401528660c484015260e060a484015260e4830190611e7b565b0391335af18015611afa57611ae2575b509d9e9d8f90611a7d575b50156119ee57505061198761176961198d93611f72565b90611f86565b945b887faacef1bbb194eac329f8f247fbe8cce3eca2ed1f2e0a45a0488c2dd8afe6e5166119e26119c4886101608d01358b61380c565b604080519a8b5260208b0182905233908b0152989081906060820190565b0390a25f8080806117af565b6024939192509081906001600160a01b0390611a0990611f72565b16604051948580926370a0823160e01b82523360048301525afa908115611a72578d91611a42575b50611a3c9250611f86565b9461198f565b905082813d8311611a6b575b611a588183611f05565b81010312610bce57611a3c91515f611a31565b503d611a4e565b6040513d8f823e3d90fd5b6001600160a01b03611a8e87611f72565b16611a9a82338361472c565b15611aa6575b50611970565b9050611ab23382614779565b15611acf578f611ac39033836147dd565b15611acf578f90611aa0565b8f602491635274afe760e01b8252600452fd5b909f9e50611af1905f90611f05565b5f9d9e5f611965565b6040513d5f823e3d90fd5b5f926118cf565b60249450925060206001600160a01b03611b2587611f72565b16604051958680926370a0823160e01b82523360048301525afa8015611afa578d945f91611bbb575b50926001600160a01b03611b6187611f72565b16611b6d84338361472c565b15611b79575b506118c7565b909192939450611b893382614779565b15611ba957611b998433836147dd565b15611ba957908d94939291611b73565b635274afe760e01b5f5260045260245ffd5b9450506020843d602011611be8575b81611bd760209383611f05565b81010312610bce578c93515f611b4e565b3d9150611bca565b6001600160a01b03611c0185611f72565b166040516323b872dd60e01b5f5233600452306024526101408d013560445260205f60648180865af19060015f5114821615611c4a575b6040525f60605215611ba9575061177d565b906001811516611c6257823b15153d15161690611c38565b503d5f823e3d90fd5b97611c77903490611f86565b97611774565b634758af1b60e01b5f523360045260245ffd5b90506020813d602011611cc2575b81611cab60209383611f05565b81010312610bce57611cbc90611f26565b5f6116e2565b3d9150611c9e565b34610bce576020366003190112610bce576004359063ffffffff60e01b8216809203610bce5760209163e347239560e01b8114908115611d6c575b8115611d5b575b8115611d4a575b8115611d39575b8115611d28575b5015158152f35b6301ffc9a760e01b14905083611d21565b633d0d324560e21b81149150611d1a565b6316f0f2dd60e01b81149150611d13565b63611481d960e11b81149150611d0c565b63099bfcc360e11b81149150611d05565b6020600319820112610bce57600435906001600160401b038211610bce57610200908290036003190112610bce5760040190565b6024359062ffffff82168203610bce57565b604435908160020b8203610bce57565b35908160020b8203610bce57565b608435906001600160a01b0382168203610bce57565b602435906001600160a01b0382168203610bce57565b61014435906001600160a01b0382168203610bce57565b35906001600160a01b0382168203610bce57565b80516001600160a01b03908116835260208083015182169084015260408083015162ffffff169084015260608083015160020b9084015260809182015116910152565b805180835260209291819084018484015e5f828201840152601f01601f1916010190565b60a081019081106001600160401b03821117611eba57604052565b634e487b7160e01b5f52604160045260245ffd5b608081019081106001600160401b03821117611eba57604052565b61012081019081106001600160401b03821117611eba57604052565b90601f801991011681019081106001600160401b03821117611eba57604052565b51908115158203610bce57565b903590601e1981360301821215610bce57018035906001600160401b038211610bce57602001918136038313610bce57565b35908115158203610bce57565b356001600160a01b0381168103610bce5790565b91908203918211611f9357565b634e487b7160e01b5f52601160045260245ffd5b90816020910312610bce575190565b6001600160401b038111611eba57601f01601f191660200190565b91908201809211611f9357565b51906001600160a01b0382168203610bce57565b90816020910312610bce57516001600160a01b0381168103610bce5790565b6040519061201e82611e9f565b5f6080838281528260208201528260408201528260608201520152565b92919261204782611fb6565b916120556040519384611f05565b829481845281830111610bce578281602093845f960137010152565b9190826040910312610bce576020825192015190565b519065ffffffffffff82168203610bce57565b519063ffffffff82168203610bce57565b519061ffff82168203610bce57565b3563ffffffff81168103610bce5790565b3560ff81168103610bce5790565b6001600160401b038111611eba5760051b60200190565b604051906120fd82611ece565b606080835f81525f60208201525f60408201520152565b8051156121215760200190565b634e487b7160e01b5f52603260045260245ffd5b8051600110156121215760400190565b5f60e081905261012082013592909160408101908360a082013560606121a261217c612175610160870187611f33565b369161203b565b7f0000000000000000000000000000000000000000000000000000000000000000613f7e565b90612958575b50818711612941578615612938575b604051632eec7b5560e11b815260c08501356004820181905290949092906020866024817f00000000000000000000000000000000000000000000000000000000000000006001600160a01b03165afa958615611afa575f96612917575b506040516320c94b1360e11b815260048101859052610380816024816001600160a01b038b165afa918215611afa5784915f936126a6575b506080810161225b816120ba565b63ffffffff808061010088015160241c16169116145f146125de575060ff925061228591016120cb565b16604d8111611f9357600a0a935b61229e858b8b61380c565b6080525f848152600360205260409020546001600160a01b03908116979061eeee906122c983611f72565b16036125cf57505f955b5f955f915f93805f146125a657875f52600260205260405f2060018060a01b038b165f5260205260a060405f206040519061230d82611e9f565b8054600180851b5f19019182168452820154808216602085015262ffffff81861c16604085015260b81c600290810b8c8501529091015416608082015220955b5f975f9960e051612521575b5f52600560205260405f2060018060a01b038d165f5260205260ff60405f2054165f146124df57508d8181036124d15750505f5b604060c0819052805160a08190526123a59190611f05565b600160a051525f5b60c051601f190181106124b85750906001600160801b03959493929160a0519e60e05160805110155f146124b257505f9c5b60c051519c60018060a01b03161160208d015260c0518c015260e05160608c0152151560808b015260018060a01b031660a08a015260805160c08a015260e089015260020b610100880152166101208601526101408501526101608401526101808301526101a08201526101a0815261245a6101c082611f05565b60c051519161246883611ece565b30835260e0516080511015602084015260c051830152606082015261248e60a051612114565b5261249a60a051612114565b5060e051608051106124a857565b60a0515f93509150565b9c6123df565b6020906124c36120f0565b828260a051010152016123ad565b6124da91611f86565b61238d565b9d5050995050505050505050505080612514575b6124f957565b63e2d708a960e01b5f5260805160045260e05160245260445ffd5b5060e051608051106124f3565b604080516380d3fe3560e01b81526004810183905260e0516024820152600160448201529b509099508a6064816001600160a01b0388165afa8015611afa575f9a5f91612571575b509998612359565b9050612596919a5060403d60401161259f575b61258e8183611f05565b810190612071565b9990995f612569565b503d612584565b925092509295506125ba8789818d8961413d565b96939096959294919596959460e0529861234d565b6125d890611f72565b956122d3565b61260460ff9363ffffffff6101006125f682956120ba565b97015160241c1693016120cb565b604051631df139fd60e11b8152600481018990529482166024860152911660448401521660648201526020816084817f00000000000000000000000000000000000000000000000000000000000000006001600160a01b03165afa908115611afa575f91612674575b5093612293565b90506020813d60201161269e575b8161268f60209383611f05565b81010312610bce57515f61266d565b3d9150612682565b91509150806103803d8111612910575b6126c08183611f05565b8101036103808112610bce576101208112610bce57604051906126e282611ee9565b6126eb83612087565b82526126f960208401612087565b602083015261270a60408401612087565b604083015261271a868401612087565b8683015261272a6080840161209a565b608083015260a08301516001600160701b0381168103610bce5760a083015261275560c0840161209a565b60c083015260e0830151906001600160a01b0382168203610bce576102609160e084015261010084015161010084015261011f190112610bce5760405161026081018181106001600160401b03821117611eba576129066103608895610240936040526127c561012082016120ab565b85526127d461014082016120ab565b60208601526127e6610160820161209a565b60408601526127f86101808201611f26565b878601526128096101a08201611f26565b608086015261281b6101c08201611f26565b60a086015261282d6101e08201611f26565b60c086015261283f6102008201611f26565b60e08601526128516102208201611f26565b610100860152612862848201611f26565b6101208601526128756102608201611f26565b6101408601526128886102808201611f26565b61016086015261289b6102a08201611f26565b6101808601526128ae6102c08201611f26565b6101a08601526128c16102e08201611f26565b6101c08601526128d46103008201611f26565b6101e08601526128e76103208201611f26565b6102008601526128fa6103408201611fde565b610220860152016120ab565b910152915f61224d565b503d6126b6565b61293191965060203d602011611245576112368183611f05565b945f612215565b955080956121b7565b508563cc8704dd60e01b5f5260045260245260445ffd5b90925061297091965060208082518301019101612071565b95908660e052951515915f6121a8565b600f0b6f7fffffffffffffffffffffffffffffff198114611f93575f0390565b604051636e49181f60e01b815260208281013560048301819052336024840152916001600160a01b037f0000000000000000000000000000000000000000000000000000000000000000169181604481855afa908115611afa575f916130a0575b501561308d576080830161eeee6001600160a01b03612a1f83611f72565b160361307e575f935b835f52600260205260405f2060018060a01b0386165f5260205260405f209160405192612a5484611e9f565b60018060a01b038154168452600181015460018060a01b038116602086015262ffffff8160a01c16604086015260b81c60020b6060850152600260018060a01b03910154166080840152845f52600360205260018060a01b0360405f205416935f9160608401359586925f936101c08701612acf8189611f33565b9050612fe0575b50808911612fd7575b50602060249160405192838092632eec7b5560e11b82528d60048301525afa908115611afa575f91612fb8575b506040516370a0823160e01b815230600482015290602082602481865afa918215611afa575f92612f84575b5060208960c48c5f60405195869485936363fdc96f60e11b85526004850152602484015230604484015260a060648401528160a484015281608484015260018060a01b03165af18015611afa57612f55575b506040516370a0823160e01b8152306004820152602081602481865afa908115611afa575f91612f21575b50612bd791612bc391611f86565b996001600160a01b03168210858b896144df565b9a91909a612e8f578480612e86575b80612e7d575b612e66578a9695949392919080821115612e5e57612c0991611f86565b80612e44575b5061eeee90506001600160a01b03612c2683611f72565b1603612c8d5750505091612c6a60a092612c656101a07fbda038b4536720f0edb8da72fb3f9779994198517ff2acfe51d419e07feb0379979601611f72565b61456e565b20604080519283526020830195909552339482019490945280606081015b0390a3565b919350916101a06001600160a01b03612ca584611f72565b169101916020612cb484611f72565b6040516370a0823160e01b81526001600160a01b03909116600482015292839060249082905afa918215611afa575f92612e0e575b50602090612d3890612d1f8b6001600160a01b03612d0684611f72565b166001600160a01b03612d1889611f72565b1690614467565b6001600160a01b0390612d3190611f72565b1693611f72565b6040516370a0823160e01b81526001600160a01b03909116600482015292839060249082905afa8015611afa575f90612dda575b612d769250611f86565b9080612dd1575b80612dc8575b612db35750509060a07fbda038b4536720f0edb8da72fb3f9779994198517ff2acfe51d419e07feb037992612c6a565b63e2d708a960e01b5f5260045260245260445ffd5b50818110612d83565b50811515612d7d565b506020823d602011612e06575b81612df460209383611f05565b81010312610bce57612d769151612d6c565b3d9150612de7565b9091506020813d602011612e3c575b81612e2a60209383611f05565b81010312610bce575190612d38612ce9565b3d9150612e1d565b612e5791612e5187611f72565b90614467565b5f80612c0f565b50505f612c09565b858b63e2d708a960e01b5f5260045260245260445ffd5b50858b10612bec565b50851515612be6565b509850945050809192945090612f18575b612f02575081612ed885612c8893612e517f8df6e3a86b047621038c6b98aa897b8dd0a6ce91b348704f248b7bbf0e32b21496611f72565b6001600160a01b0390612eea90611f72565b60408051968752336020880152911694918291820190565b63e2d708a960e01b5f525f60045260245260445ffd5b50801515612ea0565b90506020813d602011612f4d575b81612f3c60209383611f05565b81010312610bce5751612bd7612bb5565b3d9150612f2f565b6020813d602011612f7c575b81612f6e60209383611f05565b81010312610bce5751612b8a565b3d9150612f61565b9091506020813d602011612fb0575b81612fa060209383611f05565b81010312610bce5751905f612b38565b3d9150612f93565b612fd1915060203d602011611245576112368183611f05565b5f612b0c565b97506020612adf565b985094509250610100612ff38887611f33565b905010155f146130535761300a6101009786611f33565b9080989181010312610bce5761302260608801611dd3565b5060808701356001600160801b03811603610bce5761304360e08801611f65565b9260208801359735945b5f612ad6565b613061604094939786611f33565b9080959181010312610bce5760208435940135968415159361304d565b61308781611f72565b93612a28565b63ccdd427f60e01b5f523360045260245ffd5b90506020813d6020116130d2575b816130bb60209383611f05565b81010312610bce576130cc90611f26565b5f612a01565b3d91506130ae565b9060c0820161eeee6001600160a01b036130f383611f72565b16036133fb57505f5b6040838101355f8181526003602052918220546001600160a01b0316949093919283806131596131336121756101a0870187611f33565b7f0000000000000000000000000000000000000000000000000000000000000000613f7e565b906133cd575b5080156133a4575b801561339c575b8015613390575b613332576101208301359260808101359660a0820135966101608301359361319f858a8c8a6145d4565b935f965f945f9d845f1461330857509061322592915f52600260205260405f209060018060a01b03165f5260205260a060405f20604051906131e082611e9f565b8054600180851b5f19019182168452820154808216602085015262ffffff81861c16604085015260b81c600290810b606085015290910154166080820152209561463c565b95868311159460409485519861323b878b611f05565b60018a52601f1987015f5b8181106132f05750509d6001600160801b03918e9f9d9e9c9d8b9d89519860208a015289890152606088015260020b60808701521660a085015260c084015260e0830152151561010082015261010081526132a361012082611f05565b5f8251926132b084611ece565b30845284602085015283015260608201526132ca84612114565b526132d483612114565b506132e7575050506127109392915f9190565b95949391925090565b808c602080936132fe6120f0565b9201015201613246565b91939d508392969850613225955061332294508c9061413d565b9c9294919c95909c94939761463c565b92945050935061335c575b506101608201359160808101359161012060a083013592013590606090565b6133838361337e61016082013560a083013560808401356101208501356145d4565b61463c565b818110612db3575061333d565b50608083013515613175565b50861561316e565b50855f52600560205260405f2060018060a01b0383165f5260205260ff60405f20541615613167565b809650604092508091505181010312610bce576133f1604060208601519501611f26565b841515905f61315f565b61340490611f72565b6130fc565b6001600160a01b031661eeee810361342057504790565b6020602491604051928380926370a0823160e01b82523060048301525afa908115611afa575f9161344f575090565b90506020813d602011613476575b8161346a60209383611f05565b81010312610bce575190565b3d915061345d565b91909160e06060610100830194613496848251611e38565b6020810151151560a0850152604081015160c08501520151910152565b602081830312610bce578051906001600160401b038211610bce570181601f82011215610bce578051906134e682611fb6565b926134f46040519485611f05565b82845260208383010111610bce57815f9260208093018386015e8301015290565b9091925f925f8061363d6135fc61360a60e08801956101408901359661eeee60018060a01b0361354483611f72565b161486146137505750602085995b0135988986526002602052604086209060018060a01b03168652602052604085209a6040519b6135818d611e9f565b60018060a01b038154168d528c6060600183015460018060a01b038116602084015262ffffff8160a01c16604084015260b81c60020b910152600260018060a01b039101541660808d0152604051916135d983611ece565b8c835215602083015287604083015260608201526040519283916020830161347e565b03601f198101835282611f05565b82546040516348c8949160e01b8152602060048201529485936001600160a01b0390921692849283916024830190611e7b565b03925af15f918161372c575b5061365b575050505050505f90600190565b7f2afb56853a8b76a0868e64c0001eedd84d9a7f5bc7fb788aba6180e422ba6ec56136be60a0613699846020808a979d9b9c9d518301019101612071565b91909a2060408051968752602087018390523390870152909950939081906060820190565b0390a3846136ca575050565b6001600160a01b031690813b15610bce575f9160a48392604051948593849263516a997360e11b84523060048501526024840152896044840152608060648401528160848401525af18015611afa576137205750565b5f61372a91611f05565b565b6137499192503d805f833e6137418183611f05565b8101906134b3565b905f613649565b61375b602091611f72565b99613552565b811561376b570490565b634e487b7160e01b5f52601260045260245ffd5b91905f905f1981850990808502928380841093039280840393146137ff576127108310156137e35750612710907fbc01a36e2eb1c432ca57a786c226809d495182a9930be0ded288ce703afb7e9194950990828211900360fc1b910360041c170290565b60649186630c740aef60e31b8352600452602452612710604452fd5b5050506127109192500490565b90915f19838309928083029283808610950394808603951461389f57828510156138875790829109600182190182168092046002816003021880820260020302808202600203028082026002030280820260020302808202600203028091026002030293600183805f03040190848311900302920304170290565b630c740aef60e31b5f5260045260245260445260645ffd5b5050906138ac9250613761565b90565b906138b8615622565b6001600160a01b0392831692168083141580613902575b6138d857505050565b6084935060405192631326f75560e11b8452600484015260248301526044820152601d6064820152fd5b50604051631a45b42760e11b8152600481018290526024810184905260448101839052601d606482015260016084820181905260a482015260208160c4817f00000000000000000000000000000000000000000000000000000000000000006001600160a01b03165afa908115611afa575f91613981575b50156138cf565b90506020813d6020116139b3575b8161399c60209383611f05565b81010312610bce576139ad90611f26565b5f61397a565b3d915061398f565b929190916139c7612011565b506001600160a01b03811661eeee03613ac457505f915b60405163ea78803f60e01b8152600481019490945291928392906020816024817f00000000000000000000000000000000000000000000000000000000000000006001600160a01b03165afa908115611afa575f91613aa5575b506001600160a01b03908116931683811015613a98579162ffffff84925b60018060a01b03600154169360405195613a6f87611e9f565b6001600160a01b03908116875216602086015216604084015260020b6060830152608082015292565b9162ffffff849392613a56565b613abe915060203d602011611245576112368183611f05565b5f613a38565b916139de565b9293919091835f52600560205260405f2060018060a01b0386165f5260205260ff60405f205416613e335761012c82108015613e27575b613e08576001600160a01b0316938415613df5576001600160a01b031693808514613ddf5760a0832090613b3e8260018060a01b035f5416613ebb565b5050506001600160a01b031615613dcc57835160208501805190916001600160a01b03908116848114929091169084908a9084613dc2575b8415613da3575b5050505015613d4a577fac260005f5a1d1cb696ab1065059083a3769fa09f4b4699f1dafd670d071a9216040948893889360027f8b6c6e3acbbb079495759cfeb1dbf99774b60962f29ff5d8299cbf1dc49f9b1499865f5281602052895f20885f52602052895f209260018060a01b0360018060a01b03835116166001600160601b0360a01b855416178455600184019060018060a01b039060018060a01b03905116166001600160601b0360a01b8254161781558a8201518154606084015160b81b62ffffff60b81b169162ffffff60a01b9060a01b169065ffffffffffff60a01b191617179055608060018060a01b039101511691019060018060a01b03166001600160601b0360a01b825416179055835f526005602052865f20855f52602052865f20600160ff19825416179055835f526004602052865f20855f52602052865f205490845f526004602052875f20865f5260205282885f2055845f526003602052875f20906001600160601b0360a01b825416179055613d29613d02615622565b885192835260208301939093526001600160a01b0390921660408201529081906060820190565b0390a3613d34615622565b82519182526001600160a01b03166020820152a3565b60405162461bcd60e51b815260206004820152602b60248201527f4a424275796261636b486f6f6b3a20706f6f6c206b65792063757272656e636960448201526a0cae640dad2e6dac2e8c6d60ab1b6064820152608490fd5b1492509082613db8575b50505f838982613b7d565b149050825f613dad565b8382149450613b76565b506357421ac560e11b5f5260045260245ffd5b84632ec7c58760e01b5f5260045260245260445ffd5b83633eb257a360e21b5f5260045260245ffd5b5062904c3760e81b5f5260045261012c6024526202a30060445260645ffd5b506202a3008211613b01565b5050505f52600260205260405f209060018060a01b03165f5260205260a060405f2060405190613e6282611e9f565b600180841b0381541682526001810154600180851b038116602084015262ffffff81851c16604084015260b81c60020b60608301526002600180851b039101541660808201522063ca5a804360e01b5f5260045260245ffd5b9190613ec8602091614818565b604051631e2eaeaf60e01b8152600481019190915292839060249082906001600160a01b03165afa918215611afa575f92613f26575b506001600160a01b0382169160a081901c60020b9162ffffff60b883901c81169260d01c1690565b9091506020813d602011613f52575b81613f4260209383611f05565b81010312610bce5751905f613efe565b3d9150613f35565b908151811015612121570160200190565b81810292918115918404141715611f9357565b90915f916060602585511115614122578451602410156121215760448501518060f81c9160205b60048101808211611f93576001600160f81b0319613fc3828b613f5a565b5116151580614103575b156140f957613fdc9089613f5a565b516020828a01015160f882901c91906001600160e01b0319888116911614614008575050600501613fa5565b9550959650929050600983018093119182611f9357611fe0809160f31c16169080820460201490151715611f935782108015906140da575b156140a3575050611fe0808551925b60f31c16169180830460201490151715611f93578190039060405193601f19603f8487010116604052828552015f5b82811061408e5750505060019190565b8060208092840101518282880101520161407e565b611f93576140b19085613f5a565b51611fe0808260f81c9260f31c16169080820460201490151715611f9357611fe080919261404f565b505f90506001600160f81b03196140f18388613f5a565b511615614040565b5050949550505050565b5060f384901c611fe01685156020878304141715611f93578210613fcd565b50509150505f90604051614137602082611f05565b5f815290565b9092919493815f52600560205260405f2060018060a01b0382165f5260205260ff60405f205416156142de57815f52600260205260405f2060018060a01b0382165f5260205260405f20916040519261419584611e9f565b60018060a01b038154168452600181015460018060a01b038116602086015262ffffff8160a01c16604086015260b81c60020b6060850152600260018060a01b039101541660808401525f52600460205260405f209060018060a01b03165f5260205260405f20549061422b838760a084209460018060a01b035f54169463ffffffff6001600160801b038a169216908661483e565b91979095919486868a156142cd5750506001600160801b038616156142c157614292939260649262ffffff92614286928892614280926001600160a01b03908116911610908a61427a8d614c31565b91614f5e565b94613ebb565b92505050160490614fbe565b946127108610156142b957806127106142af6142b6939883613f6b565b0490611f86565b93565b505f94508493565b505f9750879692505050565b5f9a508a9991985096509350505050565b505f94508493849350839250829150565b908015801561445f575b61444f57821561444a57905b600160801b6143148284613761565b1061434157505015614329576401000276a490565b73fffd8963efd1fc6a506488495d951d5263988d2590565b600160401b6143508284613761565b106144325761435e916150c2565b6001600160c01b03811161440c576143789060401b615500565b905b156143d7576401000276a38111156143cd5773fffd8963efd1fc6a506488495d951d5263988d268110156143b4576001600160a01b031690565b5073fffd8963efd1fc6a506488495d951d5263988d2590565b506401000276a490565b73fffd8963efd1fc6a506488495d951d5263988d268110156143b4576401000276a38111156143cd576001600160a01b031690565b61441590615500565b8060201b908082046401000000001490151715611f93579061437a565b61443f9061444492615038565b615500565b9061437a565b614305565b505015614329576401000276a490565b5081156142f9565b916040519163a9059cbb60e01b5f5260018060a01b031660045260245260205f60448180865af19060015f51148216156144c7575b604052156144a75750565b635274afe760e01b5f9081526001600160a01b0391909116600452602490fd5b906001811516611c6257823b15153d1516169061449c565b6135fc61360a61451e925f9586958698604051936144fc85611ece565b845215156020840152604083015260608201526040519283916020830161347e565b03925af15f9181614552575b5061453a5750505f905f90600190565b8060208061454d93518301019101612071565b919092565b6145679192503d805f833e6137418183611f05565b905f61452a565b8147106145bd575f80809381938260405161458a602082611f05565b526001600160a01b03165af11561459d57565b3d156145ae576040513d5f823e3d90fd5b63d6bda27560e01b5f5260045ffd5b504763cf47918160e01b5f5260045260245260445ffd5b9291928115614634576127108314614634578382101561462d5783826145f99261380c565b918015614626578061271003906127108211611f93576138ac94614620936117e69261380c565b9061377f565b5050905090565b9250505090565b505050505f90565b6101808201358015158103610bce576147275761016082013515614669576138ac91506028810490611f86565b6146c4916020906001600160a01b0361468182611f72565b16604061469060c08401611f72565b815163c66d192b60e01b8152939091013560048401526001600160a01b031660248301529093849190829081906044820190565b03915afa8015611afa575f906146f3575b6138ac9250808210156146eb57506028816142af565b6028906142af565b506020823d60201161471f575b8161470d60209383611f05565b81010312610bce576138ac91516146d5565b3d9150614700565b905090565b92916040519163095ea7b360e01b5f5260018060a01b031660045260245260205f60448180875af19260015f5114841615614768575b50604052565b3d15903b151516909216915f614762565b60405163095ea7b360e01b5f9081526001600160a01b03909316600452602483905290929160209060448180875af19260015f51148416156147bb5750604052565b600184929415166147d4573b15153d151616915f614762565b833d5f823e3d90fd5b92916040519163095ea7b360e01b5f5260018060a01b031660045260245260205f60448180875af19260015f51148416156147bb5750604052565b604051602081019182526006604082015260408152614838606082611f05565b51902090565b9491939092935f9363ffffffff8216968715614b51575060018060a01b03608082015116604051614870606082611f05565b600281526020810160403682378961488783612114565b525f61489283612135565b52604051637cb7cbf960e11b815293849260c48401916148b6906004860190611e38565b60c060a48501525180915260e4830191905f5b818110614b32575050509181805f9403915afa90815f915f93614a13575b506148fc5750505050505050505f905f905f90565b61491261490882612135565b5160060b91612114565b5160060b900396667fffffffffffff198812667fffffffffffff891317611f935760030b9660060b871561376b57667fffffffffffff1981145f19891416611f935787810560020b975f82129182614a04575b50506149ef575b6001600160a01b0361497d82612135565b5116906001600160a01b039061499290612114565b511690036001600160a01b038111611f93576001600160a01b031690816149c4575b50506149c192938561567b565b92565b6149c194506001600160801b03916149e79160801b63ffffffff60801b16613761565b16925f6149b4565b95627fffff198114611f93575f19019561496c565b0760060b151590505f80614965565b915091503d805f833e614a268183611f05565b810190604081830312610bce5780516001600160401b038111610bce5781019082601f83011215610bce578151614a5c816120d9565b92614a6a6040519485611f05565b81845260208085019260051b82010190858211610bce57602001915b818310614b18575050506020810151906001600160401b038211610bce57019180601f84011215610bce57825190614abd826120d9565b93614acb6040519586611f05565b82855260208086019360051b820101918211610bce57602001915b818310614af85750505090915f6148e7565b82516001600160a01b0381168103610bce57815260209283019201614ae6565b82518060060b8103610bce57815260209283019201614a86565b825163ffffffff168452869450602093840193909201916001016148c9565b9650905060a0919293509593952094614b6a8686613ebb565b509097916001600160a01b0316159050614c2257614b8790614818565b60038101809111611f9357604051631e2eaeaf60e01b8152600481019190915294602090869060249082906001600160a01b03165afa948515611afa575f95614be6575b5091614be0916001600160801b03938761567b565b93921690565b91929094506020823d602011614c1a575b81614c0460209383611f05565b81010312610bce57905193909190614be0614bcb565b3d9150614bf7565b505050509150505f905f905f90565b60020b908160ff1d82810118620d89e88111614f4b5763ffffffff9192600182167001fffcb933bd6fad37aa2d162d1a59400102600160801b189160028116614f2f575b60048116614f13575b60088116614ef7575b60108116614edb575b60208116614ebf575b60408116614ea3575b60808116614e87575b6101008116614e6b575b6102008116614e4f575b6104008116614e33575b6108008116614e17575b6110008116614dfb575b6120008116614ddf575b6140008116614dc3575b6180008116614da7575b620100008116614d8b575b620200008116614d70575b620400008116614d55575b6208000016614d3c575b5f12614d34575b0160201c90565b5f1904614d2d565b6b048a170391f7dc42444e8fa290910260801c90614d26565b6d2216e584f5fa1ea926041bedfe9890920260801c91614d1c565b916e5d6af8dedb81196699c329225ee6040260801c91614d11565b916f09aa508b5b7a84e1c677de54f3e99bc90260801c91614d06565b916f31be135f97d08fd981231505542fcfa60260801c91614cfb565b916f70d869a156d2a1b890bb3df62baf32f70260801c91614cf1565b916fa9f746462d870fdf8a65dc1f90e061e50260801c91614ce7565b916fd097f3bdfd2022b8845ad8f792aa58250260801c91614cdd565b916fe7159475a2c29b7443b29c7fa6e889d90260801c91614cd3565b916ff3392b0822b70005940c7a398e4b70f30260801c91614cc9565b916ff987a7253ac413176f2b074cf7815e540260801c91614cbf565b916ffcbe86c7900a88aedcffc83b479aa3a40260801c91614cb5565b916ffe5dee046a99a2a811c461f1969c30530260801c91614cab565b916fff2ea16466c96a3843ec78b326b528610260801c91614ca2565b916fff973b41fa98c081472e6896dfb254c00260801c91614c99565b916fffcb9843d60f6159c9db58835c9266440260801c91614c90565b916fffe5caca7e10e4e61c3624eaa0941cd00260801c91614c87565b916ffff2e50f5f656932ef12357cf3c7fdcc0260801c91614c7e565b916ffff97272373d413259a46990580e213a0260801c91614c75565b826345c3193d60e11b5f5260045260245ffd5b919291906001600160801b031680158015614fad575b61463457614f8191615145565b9015614f9a576138ac916001600160a01b031690615258565b6138ac916001600160a01b0316906151d5565b506001600160a01b03841615614f74565b906122608110156150285760648101809111611f935760c88110615030575b6122608110156150285781156147275766b1a2bc2ec500001982116150285780612260036122608111611f935766b1a2bc2ec500008301808411611f93576138ac936117e692615480565b505061226090565b5060c8614fdd565b9060c082901b905f19600160c01b840992828085109403938085039485841115610bce57146150bb578190600160c01b900981805f03168092046002816003021880820260020302808202600203028082026002030280820260020302808202600203028091026002030293600183805f03040190848311900302920304170290565b5091500490565b90608082901b905f19600160801b840992828085109403938085039485841115610bce57146150bb578190600160801b900981805f03168092046002816003021880820260020302808202600203028082026002030280820260020302808202600203028091026002030293600183805f03040190848311900302920304170290565b90670de0b6b3a76400008202905f19670de0b6b3a7640000840992828085109403938085039485841115610bce57146150bb57670de0b6b3a764000082910981805f03168092046002816003021880820260020302808202600203028082026002030280820260020302808202600203028091026002030293600183805f03040190848311900302920304170290565b90606082901b905f19600160601b840992828085109403938085039485841115610bce57146150bb578190600160601b900981805f03168092046002816003021880820260020302808202600203028082026002030280820260020302808202600203028091026002030293600183805f03040190848311900302920304170290565b81810291905f1982820991838084109303928084039384600160601b1115610bce571461529857600160601b910990828211900360a01b910360601c1790565b50505060601c90565b81810291905f1982820991838084109303928084039384600160401b1115610bce57146152e157600160401b910990828211900360c01b910360401c1790565b50505060401c90565b90608082901b905f1983600160801b0992828085109403938085039485841115610bce57146150bb578190600160801b0981805f03168092046002816003021880820260020302808202600203028082026002030280820260020302808202600203028091026002030293600183805f03040190848311900302920304170290565b81810291905f1982820991838084109303928084039384600160801b1115610bce57146153ac57600160801b910990828211900360801b910360801c1790565b50505060801c90565b9060c082901b905f1983600160c01b0992828085109403938085039485841115610bce57146150bb578190600160c01b0981805f03168092046002816003021880820260020302808202600203028082026002030280820260020302808202600203028091026002030293600183805f03040190848311900302920304170290565b81810291905f1982820991838084109303928084039384600160c01b1115610bce571461547757600160c01b910990828211900360401b910360c01c1790565b50505060c01c90565b91818302915f1981850993838086109503948086039586851115610bce57146154f8579082910981805f03168092046002816003021880820260020302808202600203028082026002030280820260020302808202600203028091026002030293600183805f03040190848311900302920304170290565b505091500490565b60018111156138ac57806001600160801b821015615611575b600482600160401b6155c3941015615604575b6401000000008110156155f7575b620100008110156155ea575b6101008110156155de575b60108110156155d2575b10156155ca575b60030260011c6155728184613761565b0160011c6155808184613761565b0160011c61558e8184613761565b0160011c61559c8184613761565b0160011c6155aa8184613761565b0160011c6155b88184613761565b0160011c8092613761565b8111900390565b60011b615562565b811c9160021b9161555b565b60081c91811b91615551565b60101c9160081b91615546565b60201c9160101b9161553a565b60401c9160201b9161552c565b5050608081901c600160401b615519565b601436101580615649575b15615645576013193601368111610bce573560601c90565b3390565b50337f00000000000000000000000000000000000000000000000000000000000000006001600160a01b03161461562d565b909291906001600160a01b039061569190614c31565b166001600160801b0381116156e357806156aa91613f6b565b916001600160a01b03908116911610156156d1576001600160801b036138ac921690615437565b6001600160801b036138ac92166153b5565b806156ed916152a1565b916001600160a01b0390811691161015615714576001600160801b036138ac92169061536c565b6001600160801b036138ac92166152ea56fea164736f6c634300081c000a",
	"gitCommit": "npm:@bananapus/buyback-hook-v6@0.0.68",
	"gitDirty": false,
	"history": []
}