{
	"format": "sphinx-sol-ct-artifact-1",
	"address": "0x3fcec3572e84b624477bcff4e2cf1f7deab648f1",
	"sourceName": "node_modules/@bananapus/core-v6/src/JBController.sol",
	"contractName": "JBController",
	"chainId": "0xaa36a7",
	"abi": [
		{
			"type": "constructor",
			"inputs": [
				{
					"name": "directory",
					"type": "address",
					"internalType": "contract IJBDirectory"
				},
				{
					"name": "fundAccessLimits",
					"type": "address",
					"internalType": "contract IJBFundAccessLimits"
				},
				{
					"name": "permissions",
					"type": "address",
					"internalType": "contract IJBPermissions"
				},
				{
					"name": "prices",
					"type": "address",
					"internalType": "contract IJBPrices"
				},
				{
					"name": "projects",
					"type": "address",
					"internalType": "contract IJBProjects"
				},
				{
					"name": "rulesets",
					"type": "address",
					"internalType": "contract IJBRulesets"
				},
				{
					"name": "splits",
					"type": "address",
					"internalType": "contract IJBSplits"
				},
				{
					"name": "tokens",
					"type": "address",
					"internalType": "contract IJBTokens"
				},
				{
					"name": "omnichainRulesetOperator",
					"type": "address",
					"internalType": "address"
				},
				{
					"name": "trustedForwarder",
					"type": "address",
					"internalType": "address"
				}
			],
			"stateMutability": "nonpayable"
		},
		{
			"type": "function",
			"name": "DIRECTORY",
			"inputs": [],
			"outputs": [
				{
					"name": "",
					"type": "address",
					"internalType": "contract IJBDirectory"
				}
			],
			"stateMutability": "view"
		},
		{
			"type": "function",
			"name": "FUND_ACCESS_LIMITS",
			"inputs": [],
			"outputs": [
				{
					"name": "",
					"type": "address",
					"internalType": "contract IJBFundAccessLimits"
				}
			],
			"stateMutability": "view"
		},
		{
			"type": "function",
			"name": "OMNICHAIN_RULESET_OPERATOR",
			"inputs": [],
			"outputs": [
				{
					"name": "",
					"type": "address",
					"internalType": "address"
				}
			],
			"stateMutability": "view"
		},
		{
			"type": "function",
			"name": "PERMISSIONS",
			"inputs": [],
			"outputs": [
				{
					"name": "",
					"type": "address",
					"internalType": "contract IJBPermissions"
				}
			],
			"stateMutability": "view"
		},
		{
			"type": "function",
			"name": "PRICES",
			"inputs": [],
			"outputs": [
				{
					"name": "",
					"type": "address",
					"internalType": "contract IJBPrices"
				}
			],
			"stateMutability": "view"
		},
		{
			"type": "function",
			"name": "PROJECTS",
			"inputs": [],
			"outputs": [
				{
					"name": "",
					"type": "address",
					"internalType": "contract IJBProjects"
				}
			],
			"stateMutability": "view"
		},
		{
			"type": "function",
			"name": "RULESETS",
			"inputs": [],
			"outputs": [
				{
					"name": "",
					"type": "address",
					"internalType": "contract IJBRulesets"
				}
			],
			"stateMutability": "view"
		},
		{
			"type": "function",
			"name": "SPLITS",
			"inputs": [],
			"outputs": [
				{
					"name": "",
					"type": "address",
					"internalType": "contract IJBSplits"
				}
			],
			"stateMutability": "view"
		},
		{
			"type": "function",
			"name": "TOKENS",
			"inputs": [],
			"outputs": [
				{
					"name": "",
					"type": "address",
					"internalType": "contract IJBTokens"
				}
			],
			"stateMutability": "view"
		},
		{
			"type": "function",
			"name": "addPriceFeedFor",
			"inputs": [
				{
					"name": "projectId",
					"type": "uint256",
					"internalType": "uint256"
				},
				{
					"name": "pricingCurrency",
					"type": "uint256",
					"internalType": "uint256"
				},
				{
					"name": "unitCurrency",
					"type": "uint256",
					"internalType": "uint256"
				},
				{
					"name": "feed",
					"type": "address",
					"internalType": "contract IJBPriceFeed"
				}
			],
			"outputs": [],
			"stateMutability": "nonpayable"
		},
		{
			"type": "function",
			"name": "afterReceiveMigrationFrom",
			"inputs": [
				{
					"name": "from",
					"type": "address",
					"internalType": "contract IERC165"
				},
				{
					"name": "projectId",
					"type": "uint256",
					"internalType": "uint256"
				}
			],
			"outputs": [],
			"stateMutability": "view"
		},
		{
			"type": "function",
			"name": "allRulesetsOf",
			"inputs": [
				{
					"name": "projectId",
					"type": "uint256",
					"internalType": "uint256"
				},
				{
					"name": "startingId",
					"type": "uint256",
					"internalType": "uint256"
				},
				{
					"name": "size",
					"type": "uint256",
					"internalType": "uint256"
				}
			],
			"outputs": [
				{
					"name": "rulesets",
					"type": "tuple[]",
					"internalType": "struct JBRulesetWithMetadata[]",
					"components": [
						{
							"name": "ruleset",
							"type": "tuple",
							"internalType": "struct JBRuleset",
							"components": [
								{
									"name": "cycleNumber",
									"type": "uint48",
									"internalType": "uint48"
								},
								{
									"name": "id",
									"type": "uint48",
									"internalType": "uint48"
								},
								{
									"name": "basedOnId",
									"type": "uint48",
									"internalType": "uint48"
								},
								{
									"name": "start",
									"type": "uint48",
									"internalType": "uint48"
								},
								{
									"name": "duration",
									"type": "uint32",
									"internalType": "uint32"
								},
								{
									"name": "weight",
									"type": "uint112",
									"internalType": "uint112"
								},
								{
									"name": "weightCutPercent",
									"type": "uint32",
									"internalType": "uint32"
								},
								{
									"name": "approvalHook",
									"type": "address",
									"internalType": "contract IJBRulesetApprovalHook"
								},
								{
									"name": "metadata",
									"type": "uint256",
									"internalType": "uint256"
								}
							]
						},
						{
							"name": "metadata",
							"type": "tuple",
							"internalType": "struct JBRulesetMetadata",
							"components": [
								{
									"name": "reservedPercent",
									"type": "uint16",
									"internalType": "uint16"
								},
								{
									"name": "cashOutTaxRate",
									"type": "uint16",
									"internalType": "uint16"
								},
								{
									"name": "baseCurrency",
									"type": "uint32",
									"internalType": "uint32"
								},
								{
									"name": "pausePay",
									"type": "bool",
									"internalType": "bool"
								},
								{
									"name": "pauseCreditTransfers",
									"type": "bool",
									"internalType": "bool"
								},
								{
									"name": "allowOwnerMinting",
									"type": "bool",
									"internalType": "bool"
								},
								{
									"name": "allowSetCustomToken",
									"type": "bool",
									"internalType": "bool"
								},
								{
									"name": "allowTerminalMigration",
									"type": "bool",
									"internalType": "bool"
								},
								{
									"name": "allowSetTerminals",
									"type": "bool",
									"internalType": "bool"
								},
								{
									"name": "allowSetController",
									"type": "bool",
									"internalType": "bool"
								},
								{
									"name": "allowAddAccountingContext",
									"type": "bool",
									"internalType": "bool"
								},
								{
									"name": "allowAddPriceFeed",
									"type": "bool",
									"internalType": "bool"
								},
								{
									"name": "ownerMustSendPayouts",
									"type": "bool",
									"internalType": "bool"
								},
								{
									"name": "holdFees",
									"type": "bool",
									"internalType": "bool"
								},
								{
									"name": "scopeCashOutsToLocalBalances",
									"type": "bool",
									"internalType": "bool"
								},
								{
									"name": "useDataHookForPay",
									"type": "bool",
									"internalType": "bool"
								},
								{
									"name": "useDataHookForCashOut",
									"type": "bool",
									"internalType": "bool"
								},
								{
									"name": "dataHook",
									"type": "address",
									"internalType": "address"
								},
								{
									"name": "metadata",
									"type": "uint16",
									"internalType": "uint16"
								}
							]
						}
					]
				}
			],
			"stateMutability": "view"
		},
		{
			"type": "function",
			"name": "beforeReceiveMigrationFrom",
			"inputs": [
				{
					"name": "from",
					"type": "address",
					"internalType": "contract IERC165"
				},
				{
					"name": "projectId",
					"type": "uint256",
					"internalType": "uint256"
				}
			],
			"outputs": [],
			"stateMutability": "nonpayable"
		},
		{
			"type": "function",
			"name": "burnTokensOf",
			"inputs": [
				{
					"name": "holder",
					"type": "address",
					"internalType": "address"
				},
				{
					"name": "projectId",
					"type": "uint256",
					"internalType": "uint256"
				},
				{
					"name": "tokenCount",
					"type": "uint256",
					"internalType": "uint256"
				},
				{
					"name": "memo",
					"type": "string",
					"internalType": "string"
				}
			],
			"outputs": [],
			"stateMutability": "nonpayable"
		},
		{
			"type": "function",
			"name": "claimTokensFor",
			"inputs": [
				{
					"name": "holder",
					"type": "address",
					"internalType": "address"
				},
				{
					"name": "projectId",
					"type": "uint256",
					"internalType": "uint256"
				},
				{
					"name": "tokenCount",
					"type": "uint256",
					"internalType": "uint256"
				},
				{
					"name": "beneficiary",
					"type": "address",
					"internalType": "address"
				}
			],
			"outputs": [],
			"stateMutability": "nonpayable"
		},
		{
			"type": "function",
			"name": "currentRulesetOf",
			"inputs": [
				{
					"name": "projectId",
					"type": "uint256",
					"internalType": "uint256"
				}
			],
			"outputs": [
				{
					"name": "ruleset",
					"type": "tuple",
					"internalType": "struct JBRuleset",
					"components": [
						{
							"name": "cycleNumber",
							"type": "uint48",
							"internalType": "uint48"
						},
						{
							"name": "id",
							"type": "uint48",
							"internalType": "uint48"
						},
						{
							"name": "basedOnId",
							"type": "uint48",
							"internalType": "uint48"
						},
						{
							"name": "start",
							"type": "uint48",
							"internalType": "uint48"
						},
						{
							"name": "duration",
							"type": "uint32",
							"internalType": "uint32"
						},
						{
							"name": "weight",
							"type": "uint112",
							"internalType": "uint112"
						},
						{
							"name": "weightCutPercent",
							"type": "uint32",
							"internalType": "uint32"
						},
						{
							"name": "approvalHook",
							"type": "address",
							"internalType": "contract IJBRulesetApprovalHook"
						},
						{
							"name": "metadata",
							"type": "uint256",
							"internalType": "uint256"
						}
					]
				},
				{
					"name": "metadata",
					"type": "tuple",
					"internalType": "struct JBRulesetMetadata",
					"components": [
						{
							"name": "reservedPercent",
							"type": "uint16",
							"internalType": "uint16"
						},
						{
							"name": "cashOutTaxRate",
							"type": "uint16",
							"internalType": "uint16"
						},
						{
							"name": "baseCurrency",
							"type": "uint32",
							"internalType": "uint32"
						},
						{
							"name": "pausePay",
							"type": "bool",
							"internalType": "bool"
						},
						{
							"name": "pauseCreditTransfers",
							"type": "bool",
							"internalType": "bool"
						},
						{
							"name": "allowOwnerMinting",
							"type": "bool",
							"internalType": "bool"
						},
						{
							"name": "allowSetCustomToken",
							"type": "bool",
							"internalType": "bool"
						},
						{
							"name": "allowTerminalMigration",
							"type": "bool",
							"internalType": "bool"
						},
						{
							"name": "allowSetTerminals",
							"type": "bool",
							"internalType": "bool"
						},
						{
							"name": "allowSetController",
							"type": "bool",
							"internalType": "bool"
						},
						{
							"name": "allowAddAccountingContext",
							"type": "bool",
							"internalType": "bool"
						},
						{
							"name": "allowAddPriceFeed",
							"type": "bool",
							"internalType": "bool"
						},
						{
							"name": "ownerMustSendPayouts",
							"type": "bool",
							"internalType": "bool"
						},
						{
							"name": "holdFees",
							"type": "bool",
							"internalType": "bool"
						},
						{
							"name": "scopeCashOutsToLocalBalances",
							"type": "bool",
							"internalType": "bool"
						},
						{
							"name": "useDataHookForPay",
							"type": "bool",
							"internalType": "bool"
						},
						{
							"name": "useDataHookForCashOut",
							"type": "bool",
							"internalType": "bool"
						},
						{
							"name": "dataHook",
							"type": "address",
							"internalType": "address"
						},
						{
							"name": "metadata",
							"type": "uint16",
							"internalType": "uint16"
						}
					]
				}
			],
			"stateMutability": "view"
		},
		{
			"type": "function",
			"name": "deployERC20For",
			"inputs": [
				{
					"name": "projectId",
					"type": "uint256",
					"internalType": "uint256"
				},
				{
					"name": "name",
					"type": "string",
					"internalType": "string"
				},
				{
					"name": "symbol",
					"type": "string",
					"internalType": "string"
				},
				{
					"name": "salt",
					"type": "bytes32",
					"internalType": "bytes32"
				}
			],
			"outputs": [
				{
					"name": "token",
					"type": "address",
					"internalType": "contract IJBToken"
				}
			],
			"stateMutability": "nonpayable"
		},
		{
			"type": "function",
			"name": "executePayReservedTokenToTerminal",
			"inputs": [
				{
					"name": "terminal",
					"type": "address",
					"internalType": "contract IJBTerminal"
				},
				{
					"name": "projectId",
					"type": "uint256",
					"internalType": "uint256"
				},
				{
					"name": "token",
					"type": "address",
					"internalType": "contract IJBToken"
				},
				{
					"name": "splitTokenCount",
					"type": "uint256",
					"internalType": "uint256"
				},
				{
					"name": "beneficiary",
					"type": "address",
					"internalType": "address"
				},
				{
					"name": "metadata",
					"type": "bytes",
					"internalType": "bytes"
				}
			],
			"outputs": [],
			"stateMutability": "nonpayable"
		},
		{
			"type": "function",
			"name": "getRulesetOf",
			"inputs": [
				{
					"name": "projectId",
					"type": "uint256",
					"internalType": "uint256"
				},
				{
					"name": "rulesetId",
					"type": "uint256",
					"internalType": "uint256"
				}
			],
			"outputs": [
				{
					"name": "ruleset",
					"type": "tuple",
					"internalType": "struct JBRuleset",
					"components": [
						{
							"name": "cycleNumber",
							"type": "uint48",
							"internalType": "uint48"
						},
						{
							"name": "id",
							"type": "uint48",
							"internalType": "uint48"
						},
						{
							"name": "basedOnId",
							"type": "uint48",
							"internalType": "uint48"
						},
						{
							"name": "start",
							"type": "uint48",
							"internalType": "uint48"
						},
						{
							"name": "duration",
							"type": "uint32",
							"internalType": "uint32"
						},
						{
							"name": "weight",
							"type": "uint112",
							"internalType": "uint112"
						},
						{
							"name": "weightCutPercent",
							"type": "uint32",
							"internalType": "uint32"
						},
						{
							"name": "approvalHook",
							"type": "address",
							"internalType": "contract IJBRulesetApprovalHook"
						},
						{
							"name": "metadata",
							"type": "uint256",
							"internalType": "uint256"
						}
					]
				},
				{
					"name": "metadata",
					"type": "tuple",
					"internalType": "struct JBRulesetMetadata",
					"components": [
						{
							"name": "reservedPercent",
							"type": "uint16",
							"internalType": "uint16"
						},
						{
							"name": "cashOutTaxRate",
							"type": "uint16",
							"internalType": "uint16"
						},
						{
							"name": "baseCurrency",
							"type": "uint32",
							"internalType": "uint32"
						},
						{
							"name": "pausePay",
							"type": "bool",
							"internalType": "bool"
						},
						{
							"name": "pauseCreditTransfers",
							"type": "bool",
							"internalType": "bool"
						},
						{
							"name": "allowOwnerMinting",
							"type": "bool",
							"internalType": "bool"
						},
						{
							"name": "allowSetCustomToken",
							"type": "bool",
							"internalType": "bool"
						},
						{
							"name": "allowTerminalMigration",
							"type": "bool",
							"internalType": "bool"
						},
						{
							"name": "allowSetTerminals",
							"type": "bool",
							"internalType": "bool"
						},
						{
							"name": "allowSetController",
							"type": "bool",
							"internalType": "bool"
						},
						{
							"name": "allowAddAccountingContext",
							"type": "bool",
							"internalType": "bool"
						},
						{
							"name": "allowAddPriceFeed",
							"type": "bool",
							"internalType": "bool"
						},
						{
							"name": "ownerMustSendPayouts",
							"type": "bool",
							"internalType": "bool"
						},
						{
							"name": "holdFees",
							"type": "bool",
							"internalType": "bool"
						},
						{
							"name": "scopeCashOutsToLocalBalances",
							"type": "bool",
							"internalType": "bool"
						},
						{
							"name": "useDataHookForPay",
							"type": "bool",
							"internalType": "bool"
						},
						{
							"name": "useDataHookForCashOut",
							"type": "bool",
							"internalType": "bool"
						},
						{
							"name": "dataHook",
							"type": "address",
							"internalType": "address"
						},
						{
							"name": "metadata",
							"type": "uint16",
							"internalType": "uint16"
						}
					]
				}
			],
			"stateMutability": "view"
		},
		{
			"type": "function",
			"name": "isTrustedForwarder",
			"inputs": [
				{
					"name": "forwarder",
					"type": "address",
					"internalType": "address"
				}
			],
			"outputs": [
				{
					"name": "",
					"type": "bool",
					"internalType": "bool"
				}
			],
			"stateMutability": "view"
		},
		{
			"type": "function",
			"name": "latestQueuedRulesetOf",
			"inputs": [
				{
					"name": "projectId",
					"type": "uint256",
					"internalType": "uint256"
				}
			],
			"outputs": [
				{
					"name": "ruleset",
					"type": "tuple",
					"internalType": "struct JBRuleset",
					"components": [
						{
							"name": "cycleNumber",
							"type": "uint48",
							"internalType": "uint48"
						},
						{
							"name": "id",
							"type": "uint48",
							"internalType": "uint48"
						},
						{
							"name": "basedOnId",
							"type": "uint48",
							"internalType": "uint48"
						},
						{
							"name": "start",
							"type": "uint48",
							"internalType": "uint48"
						},
						{
							"name": "duration",
							"type": "uint32",
							"internalType": "uint32"
						},
						{
							"name": "weight",
							"type": "uint112",
							"internalType": "uint112"
						},
						{
							"name": "weightCutPercent",
							"type": "uint32",
							"internalType": "uint32"
						},
						{
							"name": "approvalHook",
							"type": "address",
							"internalType": "contract IJBRulesetApprovalHook"
						},
						{
							"name": "metadata",
							"type": "uint256",
							"internalType": "uint256"
						}
					]
				},
				{
					"name": "metadata",
					"type": "tuple",
					"internalType": "struct JBRulesetMetadata",
					"components": [
						{
							"name": "reservedPercent",
							"type": "uint16",
							"internalType": "uint16"
						},
						{
							"name": "cashOutTaxRate",
							"type": "uint16",
							"internalType": "uint16"
						},
						{
							"name": "baseCurrency",
							"type": "uint32",
							"internalType": "uint32"
						},
						{
							"name": "pausePay",
							"type": "bool",
							"internalType": "bool"
						},
						{
							"name": "pauseCreditTransfers",
							"type": "bool",
							"internalType": "bool"
						},
						{
							"name": "allowOwnerMinting",
							"type": "bool",
							"internalType": "bool"
						},
						{
							"name": "allowSetCustomToken",
							"type": "bool",
							"internalType": "bool"
						},
						{
							"name": "allowTerminalMigration",
							"type": "bool",
							"internalType": "bool"
						},
						{
							"name": "allowSetTerminals",
							"type": "bool",
							"internalType": "bool"
						},
						{
							"name": "allowSetController",
							"type": "bool",
							"internalType": "bool"
						},
						{
							"name": "allowAddAccountingContext",
							"type": "bool",
							"internalType": "bool"
						},
						{
							"name": "allowAddPriceFeed",
							"type": "bool",
							"internalType": "bool"
						},
						{
							"name": "ownerMustSendPayouts",
							"type": "bool",
							"internalType": "bool"
						},
						{
							"name": "holdFees",
							"type": "bool",
							"internalType": "bool"
						},
						{
							"name": "scopeCashOutsToLocalBalances",
							"type": "bool",
							"internalType": "bool"
						},
						{
							"name": "useDataHookForPay",
							"type": "bool",
							"internalType": "bool"
						},
						{
							"name": "useDataHookForCashOut",
							"type": "bool",
							"internalType": "bool"
						},
						{
							"name": "dataHook",
							"type": "address",
							"internalType": "address"
						},
						{
							"name": "metadata",
							"type": "uint16",
							"internalType": "uint16"
						}
					]
				},
				{
					"name": "approvalStatus",
					"type": "uint8",
					"internalType": "enum JBApprovalStatus"
				}
			],
			"stateMutability": "view"
		},
		{
			"type": "function",
			"name": "launchProjectFor",
			"inputs": [
				{
					"name": "owner",
					"type": "address",
					"internalType": "address"
				},
				{
					"name": "projectUri",
					"type": "string",
					"internalType": "string"
				},
				{
					"name": "rulesetConfigurations",
					"type": "tuple[]",
					"internalType": "struct JBRulesetConfig[]",
					"components": [
						{
							"name": "mustStartAtOrAfter",
							"type": "uint48",
							"internalType": "uint48"
						},
						{
							"name": "duration",
							"type": "uint32",
							"internalType": "uint32"
						},
						{
							"name": "weight",
							"type": "uint112",
							"internalType": "uint112"
						},
						{
							"name": "weightCutPercent",
							"type": "uint32",
							"internalType": "uint32"
						},
						{
							"name": "approvalHook",
							"type": "address",
							"internalType": "contract IJBRulesetApprovalHook"
						},
						{
							"name": "metadata",
							"type": "tuple",
							"internalType": "struct JBRulesetMetadata",
							"components": [
								{
									"name": "reservedPercent",
									"type": "uint16",
									"internalType": "uint16"
								},
								{
									"name": "cashOutTaxRate",
									"type": "uint16",
									"internalType": "uint16"
								},
								{
									"name": "baseCurrency",
									"type": "uint32",
									"internalType": "uint32"
								},
								{
									"name": "pausePay",
									"type": "bool",
									"internalType": "bool"
								},
								{
									"name": "pauseCreditTransfers",
									"type": "bool",
									"internalType": "bool"
								},
								{
									"name": "allowOwnerMinting",
									"type": "bool",
									"internalType": "bool"
								},
								{
									"name": "allowSetCustomToken",
									"type": "bool",
									"internalType": "bool"
								},
								{
									"name": "allowTerminalMigration",
									"type": "bool",
									"internalType": "bool"
								},
								{
									"name": "allowSetTerminals",
									"type": "bool",
									"internalType": "bool"
								},
								{
									"name": "allowSetController",
									"type": "bool",
									"internalType": "bool"
								},
								{
									"name": "allowAddAccountingContext",
									"type": "bool",
									"internalType": "bool"
								},
								{
									"name": "allowAddPriceFeed",
									"type": "bool",
									"internalType": "bool"
								},
								{
									"name": "ownerMustSendPayouts",
									"type": "bool",
									"internalType": "bool"
								},
								{
									"name": "holdFees",
									"type": "bool",
									"internalType": "bool"
								},
								{
									"name": "scopeCashOutsToLocalBalances",
									"type": "bool",
									"internalType": "bool"
								},
								{
									"name": "useDataHookForPay",
									"type": "bool",
									"internalType": "bool"
								},
								{
									"name": "useDataHookForCashOut",
									"type": "bool",
									"internalType": "bool"
								},
								{
									"name": "dataHook",
									"type": "address",
									"internalType": "address"
								},
								{
									"name": "metadata",
									"type": "uint16",
									"internalType": "uint16"
								}
							]
						},
						{
							"name": "splitGroups",
							"type": "tuple[]",
							"internalType": "struct JBSplitGroup[]",
							"components": [
								{
									"name": "groupId",
									"type": "uint256",
									"internalType": "uint256"
								},
								{
									"name": "splits",
									"type": "tuple[]",
									"internalType": "struct JBSplit[]",
									"components": [
										{
											"name": "percent",
											"type": "uint32",
											"internalType": "uint32"
										},
										{
											"name": "projectId",
											"type": "uint64",
											"internalType": "uint64"
										},
										{
											"name": "beneficiary",
											"type": "address",
											"internalType": "address payable"
										},
										{
											"name": "preferAddToBalance",
											"type": "bool",
											"internalType": "bool"
										},
										{
											"name": "lockedUntil",
											"type": "uint48",
											"internalType": "uint48"
										},
										{
											"name": "hook",
											"type": "address",
											"internalType": "contract IJBSplitHook"
										}
									]
								}
							]
						},
						{
							"name": "fundAccessLimitGroups",
							"type": "tuple[]",
							"internalType": "struct JBFundAccessLimitGroup[]",
							"components": [
								{
									"name": "terminal",
									"type": "address",
									"internalType": "address"
								},
								{
									"name": "token",
									"type": "address",
									"internalType": "address"
								},
								{
									"name": "payoutLimits",
									"type": "tuple[]",
									"internalType": "struct JBCurrencyAmount[]",
									"components": [
										{
											"name": "amount",
											"type": "uint224",
											"internalType": "uint224"
										},
										{
											"name": "currency",
											"type": "uint32",
											"internalType": "uint32"
										}
									]
								},
								{
									"name": "surplusAllowances",
									"type": "tuple[]",
									"internalType": "struct JBCurrencyAmount[]",
									"components": [
										{
											"name": "amount",
											"type": "uint224",
											"internalType": "uint224"
										},
										{
											"name": "currency",
											"type": "uint32",
											"internalType": "uint32"
										}
									]
								}
							]
						}
					]
				},
				{
					"name": "terminalConfigurations",
					"type": "tuple[]",
					"internalType": "struct JBTerminalConfig[]",
					"components": [
						{
							"name": "terminal",
							"type": "address",
							"internalType": "contract IJBTerminal"
						},
						{
							"name": "accountingContextsToAccept",
							"type": "tuple[]",
							"internalType": "struct JBAccountingContext[]",
							"components": [
								{
									"name": "token",
									"type": "address",
									"internalType": "address"
								},
								{
									"name": "decimals",
									"type": "uint8",
									"internalType": "uint8"
								},
								{
									"name": "currency",
									"type": "uint32",
									"internalType": "uint32"
								}
							]
						}
					]
				},
				{
					"name": "memo",
					"type": "string",
					"internalType": "string"
				}
			],
			"outputs": [
				{
					"name": "projectId",
					"type": "uint256",
					"internalType": "uint256"
				}
			],
			"stateMutability": "payable"
		},
		{
			"type": "function",
			"name": "launchRulesetsFor",
			"inputs": [
				{
					"name": "projectId",
					"type": "uint256",
					"internalType": "uint256"
				},
				{
					"name": "projectUri",
					"type": "string",
					"internalType": "string"
				},
				{
					"name": "rulesetConfigurations",
					"type": "tuple[]",
					"internalType": "struct JBRulesetConfig[]",
					"components": [
						{
							"name": "mustStartAtOrAfter",
							"type": "uint48",
							"internalType": "uint48"
						},
						{
							"name": "duration",
							"type": "uint32",
							"internalType": "uint32"
						},
						{
							"name": "weight",
							"type": "uint112",
							"internalType": "uint112"
						},
						{
							"name": "weightCutPercent",
							"type": "uint32",
							"internalType": "uint32"
						},
						{
							"name": "approvalHook",
							"type": "address",
							"internalType": "contract IJBRulesetApprovalHook"
						},
						{
							"name": "metadata",
							"type": "tuple",
							"internalType": "struct JBRulesetMetadata",
							"components": [
								{
									"name": "reservedPercent",
									"type": "uint16",
									"internalType": "uint16"
								},
								{
									"name": "cashOutTaxRate",
									"type": "uint16",
									"internalType": "uint16"
								},
								{
									"name": "baseCurrency",
									"type": "uint32",
									"internalType": "uint32"
								},
								{
									"name": "pausePay",
									"type": "bool",
									"internalType": "bool"
								},
								{
									"name": "pauseCreditTransfers",
									"type": "bool",
									"internalType": "bool"
								},
								{
									"name": "allowOwnerMinting",
									"type": "bool",
									"internalType": "bool"
								},
								{
									"name": "allowSetCustomToken",
									"type": "bool",
									"internalType": "bool"
								},
								{
									"name": "allowTerminalMigration",
									"type": "bool",
									"internalType": "bool"
								},
								{
									"name": "allowSetTerminals",
									"type": "bool",
									"internalType": "bool"
								},
								{
									"name": "allowSetController",
									"type": "bool",
									"internalType": "bool"
								},
								{
									"name": "allowAddAccountingContext",
									"type": "bool",
									"internalType": "bool"
								},
								{
									"name": "allowAddPriceFeed",
									"type": "bool",
									"internalType": "bool"
								},
								{
									"name": "ownerMustSendPayouts",
									"type": "bool",
									"internalType": "bool"
								},
								{
									"name": "holdFees",
									"type": "bool",
									"internalType": "bool"
								},
								{
									"name": "scopeCashOutsToLocalBalances",
									"type": "bool",
									"internalType": "bool"
								},
								{
									"name": "useDataHookForPay",
									"type": "bool",
									"internalType": "bool"
								},
								{
									"name": "useDataHookForCashOut",
									"type": "bool",
									"internalType": "bool"
								},
								{
									"name": "dataHook",
									"type": "address",
									"internalType": "address"
								},
								{
									"name": "metadata",
									"type": "uint16",
									"internalType": "uint16"
								}
							]
						},
						{
							"name": "splitGroups",
							"type": "tuple[]",
							"internalType": "struct JBSplitGroup[]",
							"components": [
								{
									"name": "groupId",
									"type": "uint256",
									"internalType": "uint256"
								},
								{
									"name": "splits",
									"type": "tuple[]",
									"internalType": "struct JBSplit[]",
									"components": [
										{
											"name": "percent",
											"type": "uint32",
											"internalType": "uint32"
										},
										{
											"name": "projectId",
											"type": "uint64",
											"internalType": "uint64"
										},
										{
											"name": "beneficiary",
											"type": "address",
											"internalType": "address payable"
										},
										{
											"name": "preferAddToBalance",
											"type": "bool",
											"internalType": "bool"
										},
										{
											"name": "lockedUntil",
											"type": "uint48",
											"internalType": "uint48"
										},
										{
											"name": "hook",
											"type": "address",
											"internalType": "contract IJBSplitHook"
										}
									]
								}
							]
						},
						{
							"name": "fundAccessLimitGroups",
							"type": "tuple[]",
							"internalType": "struct JBFundAccessLimitGroup[]",
							"components": [
								{
									"name": "terminal",
									"type": "address",
									"internalType": "address"
								},
								{
									"name": "token",
									"type": "address",
									"internalType": "address"
								},
								{
									"name": "payoutLimits",
									"type": "tuple[]",
									"internalType": "struct JBCurrencyAmount[]",
									"components": [
										{
											"name": "amount",
											"type": "uint224",
											"internalType": "uint224"
										},
										{
											"name": "currency",
											"type": "uint32",
											"internalType": "uint32"
										}
									]
								},
								{
									"name": "surplusAllowances",
									"type": "tuple[]",
									"internalType": "struct JBCurrencyAmount[]",
									"components": [
										{
											"name": "amount",
											"type": "uint224",
											"internalType": "uint224"
										},
										{
											"name": "currency",
											"type": "uint32",
											"internalType": "uint32"
										}
									]
								}
							]
						}
					]
				},
				{
					"name": "terminalConfigurations",
					"type": "tuple[]",
					"internalType": "struct JBTerminalConfig[]",
					"components": [
						{
							"name": "terminal",
							"type": "address",
							"internalType": "contract IJBTerminal"
						},
						{
							"name": "accountingContextsToAccept",
							"type": "tuple[]",
							"internalType": "struct JBAccountingContext[]",
							"components": [
								{
									"name": "token",
									"type": "address",
									"internalType": "address"
								},
								{
									"name": "decimals",
									"type": "uint8",
									"internalType": "uint8"
								},
								{
									"name": "currency",
									"type": "uint32",
									"internalType": "uint32"
								}
							]
						}
					]
				},
				{
					"name": "memo",
					"type": "string",
					"internalType": "string"
				}
			],
			"outputs": [
				{
					"name": "rulesetId",
					"type": "uint256",
					"internalType": "uint256"
				}
			],
			"stateMutability": "nonpayable"
		},
		{
			"type": "function",
			"name": "migrate",
			"inputs": [
				{
					"name": "projectId",
					"type": "uint256",
					"internalType": "uint256"
				},
				{
					"name": "to",
					"type": "address",
					"internalType": "contract IERC165"
				}
			],
			"outputs": [],
			"stateMutability": "nonpayable"
		},
		{
			"type": "function",
			"name": "mintTokensOf",
			"inputs": [
				{
					"name": "projectId",
					"type": "uint256",
					"internalType": "uint256"
				},
				{
					"name": "tokenCount",
					"type": "uint256",
					"internalType": "uint256"
				},
				{
					"name": "beneficiary",
					"type": "address",
					"internalType": "address"
				},
				{
					"name": "memo",
					"type": "string",
					"internalType": "string"
				},
				{
					"name": "useReservedPercent",
					"type": "bool",
					"internalType": "bool"
				}
			],
			"outputs": [
				{
					"name": "beneficiaryTokenCount",
					"type": "uint256",
					"internalType": "uint256"
				}
			],
			"stateMutability": "nonpayable"
		},
		{
			"type": "function",
			"name": "originalPayer",
			"inputs": [],
			"outputs": [
				{
					"name": "",
					"type": "address",
					"internalType": "address"
				}
			],
			"stateMutability": "view"
		},
		{
			"type": "function",
			"name": "pendingReservedTokenBalanceOf",
			"inputs": [
				{
					"name": "projectId",
					"type": "uint256",
					"internalType": "uint256"
				}
			],
			"outputs": [
				{
					"name": "",
					"type": "uint256",
					"internalType": "uint256"
				}
			],
			"stateMutability": "view"
		},
		{
			"type": "function",
			"name": "previewMintOf",
			"inputs": [
				{
					"name": "projectId",
					"type": "uint256",
					"internalType": "uint256"
				},
				{
					"name": "tokenCount",
					"type": "uint256",
					"internalType": "uint256"
				},
				{
					"name": "useReservedPercent",
					"type": "bool",
					"internalType": "bool"
				}
			],
			"outputs": [
				{
					"name": "beneficiaryTokenCount",
					"type": "uint256",
					"internalType": "uint256"
				},
				{
					"name": "reservedTokenCount",
					"type": "uint256",
					"internalType": "uint256"
				}
			],
			"stateMutability": "view"
		},
		{
			"type": "function",
			"name": "queueRulesetsOf",
			"inputs": [
				{
					"name": "projectId",
					"type": "uint256",
					"internalType": "uint256"
				},
				{
					"name": "rulesetConfigurations",
					"type": "tuple[]",
					"internalType": "struct JBRulesetConfig[]",
					"components": [
						{
							"name": "mustStartAtOrAfter",
							"type": "uint48",
							"internalType": "uint48"
						},
						{
							"name": "duration",
							"type": "uint32",
							"internalType": "uint32"
						},
						{
							"name": "weight",
							"type": "uint112",
							"internalType": "uint112"
						},
						{
							"name": "weightCutPercent",
							"type": "uint32",
							"internalType": "uint32"
						},
						{
							"name": "approvalHook",
							"type": "address",
							"internalType": "contract IJBRulesetApprovalHook"
						},
						{
							"name": "metadata",
							"type": "tuple",
							"internalType": "struct JBRulesetMetadata",
							"components": [
								{
									"name": "reservedPercent",
									"type": "uint16",
									"internalType": "uint16"
								},
								{
									"name": "cashOutTaxRate",
									"type": "uint16",
									"internalType": "uint16"
								},
								{
									"name": "baseCurrency",
									"type": "uint32",
									"internalType": "uint32"
								},
								{
									"name": "pausePay",
									"type": "bool",
									"internalType": "bool"
								},
								{
									"name": "pauseCreditTransfers",
									"type": "bool",
									"internalType": "bool"
								},
								{
									"name": "allowOwnerMinting",
									"type": "bool",
									"internalType": "bool"
								},
								{
									"name": "allowSetCustomToken",
									"type": "bool",
									"internalType": "bool"
								},
								{
									"name": "allowTerminalMigration",
									"type": "bool",
									"internalType": "bool"
								},
								{
									"name": "allowSetTerminals",
									"type": "bool",
									"internalType": "bool"
								},
								{
									"name": "allowSetController",
									"type": "bool",
									"internalType": "bool"
								},
								{
									"name": "allowAddAccountingContext",
									"type": "bool",
									"internalType": "bool"
								},
								{
									"name": "allowAddPriceFeed",
									"type": "bool",
									"internalType": "bool"
								},
								{
									"name": "ownerMustSendPayouts",
									"type": "bool",
									"internalType": "bool"
								},
								{
									"name": "holdFees",
									"type": "bool",
									"internalType": "bool"
								},
								{
									"name": "scopeCashOutsToLocalBalances",
									"type": "bool",
									"internalType": "bool"
								},
								{
									"name": "useDataHookForPay",
									"type": "bool",
									"internalType": "bool"
								},
								{
									"name": "useDataHookForCashOut",
									"type": "bool",
									"internalType": "bool"
								},
								{
									"name": "dataHook",
									"type": "address",
									"internalType": "address"
								},
								{
									"name": "metadata",
									"type": "uint16",
									"internalType": "uint16"
								}
							]
						},
						{
							"name": "splitGroups",
							"type": "tuple[]",
							"internalType": "struct JBSplitGroup[]",
							"components": [
								{
									"name": "groupId",
									"type": "uint256",
									"internalType": "uint256"
								},
								{
									"name": "splits",
									"type": "tuple[]",
									"internalType": "struct JBSplit[]",
									"components": [
										{
											"name": "percent",
											"type": "uint32",
											"internalType": "uint32"
										},
										{
											"name": "projectId",
											"type": "uint64",
											"internalType": "uint64"
										},
										{
											"name": "beneficiary",
											"type": "address",
											"internalType": "address payable"
										},
										{
											"name": "preferAddToBalance",
											"type": "bool",
											"internalType": "bool"
										},
										{
											"name": "lockedUntil",
											"type": "uint48",
											"internalType": "uint48"
										},
										{
											"name": "hook",
											"type": "address",
											"internalType": "contract IJBSplitHook"
										}
									]
								}
							]
						},
						{
							"name": "fundAccessLimitGroups",
							"type": "tuple[]",
							"internalType": "struct JBFundAccessLimitGroup[]",
							"components": [
								{
									"name": "terminal",
									"type": "address",
									"internalType": "address"
								},
								{
									"name": "token",
									"type": "address",
									"internalType": "address"
								},
								{
									"name": "payoutLimits",
									"type": "tuple[]",
									"internalType": "struct JBCurrencyAmount[]",
									"components": [
										{
											"name": "amount",
											"type": "uint224",
											"internalType": "uint224"
										},
										{
											"name": "currency",
											"type": "uint32",
											"internalType": "uint32"
										}
									]
								},
								{
									"name": "surplusAllowances",
									"type": "tuple[]",
									"internalType": "struct JBCurrencyAmount[]",
									"components": [
										{
											"name": "amount",
											"type": "uint224",
											"internalType": "uint224"
										},
										{
											"name": "currency",
											"type": "uint32",
											"internalType": "uint32"
										}
									]
								}
							]
						}
					]
				},
				{
					"name": "memo",
					"type": "string",
					"internalType": "string"
				}
			],
			"outputs": [
				{
					"name": "rulesetId",
					"type": "uint256",
					"internalType": "uint256"
				}
			],
			"stateMutability": "nonpayable"
		},
		{
			"type": "function",
			"name": "sendReservedTokensToSplitsOf",
			"inputs": [
				{
					"name": "projectId",
					"type": "uint256",
					"internalType": "uint256"
				}
			],
			"outputs": [
				{
					"name": "",
					"type": "uint256",
					"internalType": "uint256"
				}
			],
			"stateMutability": "nonpayable"
		},
		{
			"type": "function",
			"name": "setControllerAllowed",
			"inputs": [
				{
					"name": "projectId",
					"type": "uint256",
					"internalType": "uint256"
				}
			],
			"outputs": [
				{
					"name": "",
					"type": "bool",
					"internalType": "bool"
				}
			],
			"stateMutability": "view"
		},
		{
			"type": "function",
			"name": "setSplitGroupsOf",
			"inputs": [
				{
					"name": "projectId",
					"type": "uint256",
					"internalType": "uint256"
				},
				{
					"name": "rulesetId",
					"type": "uint256",
					"internalType": "uint256"
				},
				{
					"name": "splitGroups",
					"type": "tuple[]",
					"internalType": "struct JBSplitGroup[]",
					"components": [
						{
							"name": "groupId",
							"type": "uint256",
							"internalType": "uint256"
						},
						{
							"name": "splits",
							"type": "tuple[]",
							"internalType": "struct JBSplit[]",
							"components": [
								{
									"name": "percent",
									"type": "uint32",
									"internalType": "uint32"
								},
								{
									"name": "projectId",
									"type": "uint64",
									"internalType": "uint64"
								},
								{
									"name": "beneficiary",
									"type": "address",
									"internalType": "address payable"
								},
								{
									"name": "preferAddToBalance",
									"type": "bool",
									"internalType": "bool"
								},
								{
									"name": "lockedUntil",
									"type": "uint48",
									"internalType": "uint48"
								},
								{
									"name": "hook",
									"type": "address",
									"internalType": "contract IJBSplitHook"
								}
							]
						}
					]
				}
			],
			"outputs": [],
			"stateMutability": "nonpayable"
		},
		{
			"type": "function",
			"name": "setTerminalsAllowed",
			"inputs": [
				{
					"name": "projectId",
					"type": "uint256",
					"internalType": "uint256"
				}
			],
			"outputs": [
				{
					"name": "",
					"type": "bool",
					"internalType": "bool"
				}
			],
			"stateMutability": "view"
		},
		{
			"type": "function",
			"name": "setTokenFor",
			"inputs": [
				{
					"name": "projectId",
					"type": "uint256",
					"internalType": "uint256"
				},
				{
					"name": "token",
					"type": "address",
					"internalType": "contract IJBToken"
				}
			],
			"outputs": [],
			"stateMutability": "nonpayable"
		},
		{
			"type": "function",
			"name": "setTokenMetadataOf",
			"inputs": [
				{
					"name": "projectId",
					"type": "uint256",
					"internalType": "uint256"
				},
				{
					"name": "name",
					"type": "string",
					"internalType": "string"
				},
				{
					"name": "symbol",
					"type": "string",
					"internalType": "string"
				}
			],
			"outputs": [],
			"stateMutability": "nonpayable"
		},
		{
			"type": "function",
			"name": "setUriOf",
			"inputs": [
				{
					"name": "projectId",
					"type": "uint256",
					"internalType": "uint256"
				},
				{
					"name": "uri",
					"type": "string",
					"internalType": "string"
				}
			],
			"outputs": [],
			"stateMutability": "nonpayable"
		},
		{
			"type": "function",
			"name": "supportsInterface",
			"inputs": [
				{
					"name": "interfaceId",
					"type": "bytes4",
					"internalType": "bytes4"
				}
			],
			"outputs": [
				{
					"name": "",
					"type": "bool",
					"internalType": "bool"
				}
			],
			"stateMutability": "pure"
		},
		{
			"type": "function",
			"name": "totalTokenSupplyWithReservedTokensOf",
			"inputs": [
				{
					"name": "projectId",
					"type": "uint256",
					"internalType": "uint256"
				}
			],
			"outputs": [
				{
					"name": "",
					"type": "uint256",
					"internalType": "uint256"
				}
			],
			"stateMutability": "view"
		},
		{
			"type": "function",
			"name": "transferCreditsFrom",
			"inputs": [
				{
					"name": "holder",
					"type": "address",
					"internalType": "address"
				},
				{
					"name": "projectId",
					"type": "uint256",
					"internalType": "uint256"
				},
				{
					"name": "recipient",
					"type": "address",
					"internalType": "address"
				},
				{
					"name": "creditCount",
					"type": "uint256",
					"internalType": "uint256"
				}
			],
			"outputs": [],
			"stateMutability": "nonpayable"
		},
		{
			"type": "function",
			"name": "trustedForwarder",
			"inputs": [],
			"outputs": [
				{
					"name": "",
					"type": "address",
					"internalType": "address"
				}
			],
			"stateMutability": "view"
		},
		{
			"type": "function",
			"name": "upcomingRulesetOf",
			"inputs": [
				{
					"name": "projectId",
					"type": "uint256",
					"internalType": "uint256"
				}
			],
			"outputs": [
				{
					"name": "ruleset",
					"type": "tuple",
					"internalType": "struct JBRuleset",
					"components": [
						{
							"name": "cycleNumber",
							"type": "uint48",
							"internalType": "uint48"
						},
						{
							"name": "id",
							"type": "uint48",
							"internalType": "uint48"
						},
						{
							"name": "basedOnId",
							"type": "uint48",
							"internalType": "uint48"
						},
						{
							"name": "start",
							"type": "uint48",
							"internalType": "uint48"
						},
						{
							"name": "duration",
							"type": "uint32",
							"internalType": "uint32"
						},
						{
							"name": "weight",
							"type": "uint112",
							"internalType": "uint112"
						},
						{
							"name": "weightCutPercent",
							"type": "uint32",
							"internalType": "uint32"
						},
						{
							"name": "approvalHook",
							"type": "address",
							"internalType": "contract IJBRulesetApprovalHook"
						},
						{
							"name": "metadata",
							"type": "uint256",
							"internalType": "uint256"
						}
					]
				},
				{
					"name": "metadata",
					"type": "tuple",
					"internalType": "struct JBRulesetMetadata",
					"components": [
						{
							"name": "reservedPercent",
							"type": "uint16",
							"internalType": "uint16"
						},
						{
							"name": "cashOutTaxRate",
							"type": "uint16",
							"internalType": "uint16"
						},
						{
							"name": "baseCurrency",
							"type": "uint32",
							"internalType": "uint32"
						},
						{
							"name": "pausePay",
							"type": "bool",
							"internalType": "bool"
						},
						{
							"name": "pauseCreditTransfers",
							"type": "bool",
							"internalType": "bool"
						},
						{
							"name": "allowOwnerMinting",
							"type": "bool",
							"internalType": "bool"
						},
						{
							"name": "allowSetCustomToken",
							"type": "bool",
							"internalType": "bool"
						},
						{
							"name": "allowTerminalMigration",
							"type": "bool",
							"internalType": "bool"
						},
						{
							"name": "allowSetTerminals",
							"type": "bool",
							"internalType": "bool"
						},
						{
							"name": "allowSetController",
							"type": "bool",
							"internalType": "bool"
						},
						{
							"name": "allowAddAccountingContext",
							"type": "bool",
							"internalType": "bool"
						},
						{
							"name": "allowAddPriceFeed",
							"type": "bool",
							"internalType": "bool"
						},
						{
							"name": "ownerMustSendPayouts",
							"type": "bool",
							"internalType": "bool"
						},
						{
							"name": "holdFees",
							"type": "bool",
							"internalType": "bool"
						},
						{
							"name": "scopeCashOutsToLocalBalances",
							"type": "bool",
							"internalType": "bool"
						},
						{
							"name": "useDataHookForPay",
							"type": "bool",
							"internalType": "bool"
						},
						{
							"name": "useDataHookForCashOut",
							"type": "bool",
							"internalType": "bool"
						},
						{
							"name": "dataHook",
							"type": "address",
							"internalType": "address"
						},
						{
							"name": "metadata",
							"type": "uint16",
							"internalType": "uint16"
						}
					]
				}
			],
			"stateMutability": "view"
		},
		{
			"type": "function",
			"name": "uriOf",
			"inputs": [
				{
					"name": "projectId",
					"type": "uint256",
					"internalType": "uint256"
				}
			],
			"outputs": [
				{
					"name": "",
					"type": "string",
					"internalType": "string"
				}
			],
			"stateMutability": "view"
		},
		{
			"type": "event",
			"name": "BurnTokens",
			"inputs": [
				{
					"name": "holder",
					"type": "address",
					"indexed": true,
					"internalType": "address"
				},
				{
					"name": "projectId",
					"type": "uint256",
					"indexed": true,
					"internalType": "uint256"
				},
				{
					"name": "tokenCount",
					"type": "uint256",
					"indexed": false,
					"internalType": "uint256"
				},
				{
					"name": "memo",
					"type": "string",
					"indexed": false,
					"internalType": "string"
				},
				{
					"name": "caller",
					"type": "address",
					"indexed": false,
					"internalType": "address"
				}
			],
			"anonymous": false
		},
		{
			"type": "event",
			"name": "DeployERC20",
			"inputs": [
				{
					"name": "projectId",
					"type": "uint256",
					"indexed": true,
					"internalType": "uint256"
				},
				{
					"name": "deployer",
					"type": "address",
					"indexed": true,
					"internalType": "address"
				},
				{
					"name": "salt",
					"type": "bytes32",
					"indexed": false,
					"internalType": "bytes32"
				},
				{
					"name": "saltHash",
					"type": "bytes32",
					"indexed": false,
					"internalType": "bytes32"
				},
				{
					"name": "caller",
					"type": "address",
					"indexed": false,
					"internalType": "address"
				}
			],
			"anonymous": false
		},
		{
			"type": "event",
			"name": "LaunchProject",
			"inputs": [
				{
					"name": "rulesetId",
					"type": "uint256",
					"indexed": false,
					"internalType": "uint256"
				},
				{
					"name": "projectId",
					"type": "uint256",
					"indexed": false,
					"internalType": "uint256"
				},
				{
					"name": "projectUri",
					"type": "string",
					"indexed": false,
					"internalType": "string"
				},
				{
					"name": "memo",
					"type": "string",
					"indexed": false,
					"internalType": "string"
				},
				{
					"name": "caller",
					"type": "address",
					"indexed": false,
					"internalType": "address"
				}
			],
			"anonymous": false
		},
		{
			"type": "event",
			"name": "LaunchRulesets",
			"inputs": [
				{
					"name": "rulesetId",
					"type": "uint256",
					"indexed": false,
					"internalType": "uint256"
				},
				{
					"name": "projectId",
					"type": "uint256",
					"indexed": false,
					"internalType": "uint256"
				},
				{
					"name": "projectUri",
					"type": "string",
					"indexed": false,
					"internalType": "string"
				},
				{
					"name": "memo",
					"type": "string",
					"indexed": false,
					"internalType": "string"
				},
				{
					"name": "caller",
					"type": "address",
					"indexed": false,
					"internalType": "address"
				}
			],
			"anonymous": false
		},
		{
			"type": "event",
			"name": "Migrate",
			"inputs": [
				{
					"name": "projectId",
					"type": "uint256",
					"indexed": true,
					"internalType": "uint256"
				},
				{
					"name": "to",
					"type": "address",
					"indexed": false,
					"internalType": "contract IERC165"
				},
				{
					"name": "caller",
					"type": "address",
					"indexed": false,
					"internalType": "address"
				}
			],
			"anonymous": false
		},
		{
			"type": "event",
			"name": "MintTokens",
			"inputs": [
				{
					"name": "beneficiary",
					"type": "address",
					"indexed": true,
					"internalType": "address"
				},
				{
					"name": "projectId",
					"type": "uint256",
					"indexed": true,
					"internalType": "uint256"
				},
				{
					"name": "tokenCount",
					"type": "uint256",
					"indexed": false,
					"internalType": "uint256"
				},
				{
					"name": "beneficiaryTokenCount",
					"type": "uint256",
					"indexed": false,
					"internalType": "uint256"
				},
				{
					"name": "memo",
					"type": "string",
					"indexed": false,
					"internalType": "string"
				},
				{
					"name": "reservedPercent",
					"type": "uint256",
					"indexed": false,
					"internalType": "uint256"
				},
				{
					"name": "caller",
					"type": "address",
					"indexed": false,
					"internalType": "address"
				}
			],
			"anonymous": false
		},
		{
			"type": "event",
			"name": "QueueRulesets",
			"inputs": [
				{
					"name": "rulesetId",
					"type": "uint256",
					"indexed": false,
					"internalType": "uint256"
				},
				{
					"name": "projectId",
					"type": "uint256",
					"indexed": false,
					"internalType": "uint256"
				},
				{
					"name": "memo",
					"type": "string",
					"indexed": false,
					"internalType": "string"
				},
				{
					"name": "caller",
					"type": "address",
					"indexed": false,
					"internalType": "address"
				}
			],
			"anonymous": false
		},
		{
			"type": "event",
			"name": "ReservedDistributionReverted",
			"inputs": [
				{
					"name": "projectId",
					"type": "uint256",
					"indexed": true,
					"internalType": "uint256"
				},
				{
					"name": "split",
					"type": "tuple",
					"indexed": false,
					"internalType": "struct JBSplit",
					"components": [
						{
							"name": "percent",
							"type": "uint32",
							"internalType": "uint32"
						},
						{
							"name": "projectId",
							"type": "uint64",
							"internalType": "uint64"
						},
						{
							"name": "beneficiary",
							"type": "address",
							"internalType": "address payable"
						},
						{
							"name": "preferAddToBalance",
							"type": "bool",
							"internalType": "bool"
						},
						{
							"name": "lockedUntil",
							"type": "uint48",
							"internalType": "uint48"
						},
						{
							"name": "hook",
							"type": "address",
							"internalType": "contract IJBSplitHook"
						}
					]
				},
				{
					"name": "tokenCount",
					"type": "uint256",
					"indexed": false,
					"internalType": "uint256"
				},
				{
					"name": "reason",
					"type": "bytes",
					"indexed": false,
					"internalType": "bytes"
				},
				{
					"name": "caller",
					"type": "address",
					"indexed": false,
					"internalType": "address"
				}
			],
			"anonymous": false
		},
		{
			"type": "event",
			"name": "SendReservedTokensToSplit",
			"inputs": [
				{
					"name": "projectId",
					"type": "uint256",
					"indexed": true,
					"internalType": "uint256"
				},
				{
					"name": "rulesetId",
					"type": "uint256",
					"indexed": true,
					"internalType": "uint256"
				},
				{
					"name": "groupId",
					"type": "uint256",
					"indexed": true,
					"internalType": "uint256"
				},
				{
					"name": "split",
					"type": "tuple",
					"indexed": false,
					"internalType": "struct JBSplit",
					"components": [
						{
							"name": "percent",
							"type": "uint32",
							"internalType": "uint32"
						},
						{
							"name": "projectId",
							"type": "uint64",
							"internalType": "uint64"
						},
						{
							"name": "beneficiary",
							"type": "address",
							"internalType": "address payable"
						},
						{
							"name": "preferAddToBalance",
							"type": "bool",
							"internalType": "bool"
						},
						{
							"name": "lockedUntil",
							"type": "uint48",
							"internalType": "uint48"
						},
						{
							"name": "hook",
							"type": "address",
							"internalType": "contract IJBSplitHook"
						}
					]
				},
				{
					"name": "tokenCount",
					"type": "uint256",
					"indexed": false,
					"internalType": "uint256"
				},
				{
					"name": "caller",
					"type": "address",
					"indexed": false,
					"internalType": "address"
				}
			],
			"anonymous": false
		},
		{
			"type": "event",
			"name": "SendReservedTokensToSplits",
			"inputs": [
				{
					"name": "rulesetId",
					"type": "uint256",
					"indexed": true,
					"internalType": "uint256"
				},
				{
					"name": "rulesetCycleNumber",
					"type": "uint256",
					"indexed": true,
					"internalType": "uint256"
				},
				{
					"name": "projectId",
					"type": "uint256",
					"indexed": true,
					"internalType": "uint256"
				},
				{
					"name": "owner",
					"type": "address",
					"indexed": false,
					"internalType": "address"
				},
				{
					"name": "tokenCount",
					"type": "uint256",
					"indexed": false,
					"internalType": "uint256"
				},
				{
					"name": "leftoverAmount",
					"type": "uint256",
					"indexed": false,
					"internalType": "uint256"
				},
				{
					"name": "caller",
					"type": "address",
					"indexed": false,
					"internalType": "address"
				}
			],
			"anonymous": false
		},
		{
			"type": "event",
			"name": "SetUri",
			"inputs": [
				{
					"name": "projectId",
					"type": "uint256",
					"indexed": true,
					"internalType": "uint256"
				},
				{
					"name": "uri",
					"type": "string",
					"indexed": false,
					"internalType": "string"
				},
				{
					"name": "caller",
					"type": "address",
					"indexed": false,
					"internalType": "address"
				}
			],
			"anonymous": false
		},
		{
			"type": "event",
			"name": "SplitHookReverted",
			"inputs": [
				{
					"name": "projectId",
					"type": "uint256",
					"indexed": true,
					"internalType": "uint256"
				},
				{
					"name": "hook",
					"type": "address",
					"indexed": false,
					"internalType": "address"
				},
				{
					"name": "reason",
					"type": "bytes",
					"indexed": false,
					"internalType": "bytes"
				},
				{
					"name": "caller",
					"type": "address",
					"indexed": false,
					"internalType": "address"
				}
			],
			"anonymous": false
		},
		{
			"type": "error",
			"name": "JBController_AddingPriceFeedNotAllowed",
			"inputs": [
				{
					"name": "projectId",
					"type": "uint256",
					"internalType": "uint256"
				}
			]
		},
		{
			"type": "error",
			"name": "JBController_CreditTransfersPaused",
			"inputs": [
				{
					"name": "projectId",
					"type": "uint256",
					"internalType": "uint256"
				},
				{
					"name": "rulesetId",
					"type": "uint256",
					"internalType": "uint256"
				}
			]
		},
		{
			"type": "error",
			"name": "JBController_InvalidCashOutTaxRate",
			"inputs": [
				{
					"name": "rate",
					"type": "uint256",
					"internalType": "uint256"
				},
				{
					"name": "limit",
					"type": "uint256",
					"internalType": "uint256"
				}
			]
		},
		{
			"type": "error",
			"name": "JBController_InvalidCreationFee",
			"inputs": [
				{
					"name": "value",
					"type": "uint256",
					"internalType": "uint256"
				},
				{
					"name": "requiredFee",
					"type": "uint256",
					"internalType": "uint256"
				}
			]
		},
		{
			"type": "error",
			"name": "JBController_InvalidReservedPercent",
			"inputs": [
				{
					"name": "percent",
					"type": "uint256",
					"internalType": "uint256"
				},
				{
					"name": "limit",
					"type": "uint256",
					"internalType": "uint256"
				}
			]
		},
		{
			"type": "error",
			"name": "JBController_MintNotAllowedAndNotTerminalOrHook",
			"inputs": [
				{
					"name": "caller",
					"type": "address",
					"internalType": "address"
				}
			]
		},
		{
			"type": "error",
			"name": "JBController_NoReservedTokens",
			"inputs": [
				{
					"name": "projectId",
					"type": "uint256",
					"internalType": "uint256"
				}
			]
		},
		{
			"type": "error",
			"name": "JBController_OnlyDirectory",
			"inputs": [
				{
					"name": "sender",
					"type": "address",
					"internalType": "address"
				},
				{
					"name": "directory",
					"type": "address",
					"internalType": "contract IJBDirectory"
				}
			]
		},
		{
			"type": "error",
			"name": "JBController_PendingReservedTokens",
			"inputs": [
				{
					"name": "pendingReservedTokenBalance",
					"type": "uint256",
					"internalType": "uint256"
				}
			]
		},
		{
			"type": "error",
			"name": "JBController_ReservedTokenSplitProjectSameAsOwner",
			"inputs": [
				{
					"name": "projectId",
					"type": "uint256",
					"internalType": "uint256"
				}
			]
		},
		{
			"type": "error",
			"name": "JBController_RulesetSetTokenNotAllowed",
			"inputs": [
				{
					"name": "projectId",
					"type": "uint256",
					"internalType": "uint256"
				}
			]
		},
		{
			"type": "error",
			"name": "JBController_RulesetsAlreadyLaunched",
			"inputs": [
				{
					"name": "projectId",
					"type": "uint256",
					"internalType": "uint256"
				}
			]
		},
		{
			"type": "error",
			"name": "JBController_RulesetsArrayEmpty",
			"inputs": [
				{
					"name": "projectId",
					"type": "uint256",
					"internalType": "uint256"
				},
				{
					"name": "rulesetConfigurationCount",
					"type": "uint256",
					"internalType": "uint256"
				}
			]
		},
		{
			"type": "error",
			"name": "JBController_TerminalTokensNotTransferred",
			"inputs": [
				{
					"name": "terminal",
					"type": "address",
					"internalType": "address"
				},
				{
					"name": "token",
					"type": "address",
					"internalType": "address"
				},
				{
					"name": "allowance",
					"type": "uint256",
					"internalType": "uint256"
				}
			]
		},
		{
			"type": "error",
			"name": "JBController_ZeroTokensToBurn",
			"inputs": [
				{
					"name": "projectId",
					"type": "uint256",
					"internalType": "uint256"
				},
				{
					"name": "holder",
					"type": "address",
					"internalType": "address"
				}
			]
		},
		{
			"type": "error",
			"name": "JBController_ZeroTokensToMint",
			"inputs": [
				{
					"name": "projectId",
					"type": "uint256",
					"internalType": "uint256"
				},
				{
					"name": "beneficiary",
					"type": "address",
					"internalType": "address"
				}
			]
		},
		{
			"type": "error",
			"name": "JBPermissioned_Unauthorized",
			"inputs": [
				{
					"name": "account",
					"type": "address",
					"internalType": "address"
				},
				{
					"name": "sender",
					"type": "address",
					"internalType": "address"
				},
				{
					"name": "projectId",
					"type": "uint256",
					"internalType": "uint256"
				},
				{
					"name": "permissionId",
					"type": "uint256",
					"internalType": "uint256"
				}
			]
		},
		{
			"type": "error",
			"name": "PRBMath_MulDiv_Overflow",
			"inputs": [
				{
					"name": "x",
					"type": "uint256",
					"internalType": "uint256"
				},
				{
					"name": "y",
					"type": "uint256",
					"internalType": "uint256"
				},
				{
					"name": "denominator",
					"type": "uint256",
					"internalType": "uint256"
				}
			]
		},
		{
			"type": "error",
			"name": "SafeERC20FailedOperation",
			"inputs": [
				{
					"name": "token",
					"type": "address",
					"internalType": "address"
				}
			]
		}
	],
	"args": [
		"0x5AfF29060E023e6FB87BE5596652B33c65Af535B",
		"0xC93360158f187Fc8FC8f1062a1b31d06F185DbAB",
		"0xf92AC1aB5A00033E35a3975739124F61928C36B0",
		"0xad45E4627f068d1e6b21E5301870d807543a8401",
		"0x6017d1FBa9DC279BFA0B03fD931C22E242AB3691",
		"0x26f2228A4e8b0079Ed1c2a3D22f12ff7f83CdFBA",
		"0x28B3D11FcB8D2Ad0A143C5B193cD9f2e4d43F4C3",
		"0x1f80d8f057eE36b4C2656D107E4e4558B71bA7D9",
		"0xB853758A70a6b4216c09f1d071eA2344AbA0a34f",
		"0x3bA60b60933916a7C87D0860DcEE62a0CE34E3e2"
	],
	"solcInputHash": "721a211ec29f32661ab33030429e1d90",
	"bytecode": "0x6101c0604052348015610010575f5ffd5b506040516161ee3803806161ee83398101604081905261002f916100a0565b6001600160a01b03978816608052871660a05297861660c05295851660e052928416610100529083166101205282166101405281166101605290811661018052166101a05261016e565b6001600160a01b038116811461008d575f5ffd5b50565b805161009b81610079565b919050565b5f5f5f5f5f5f5f5f5f5f6101408b8d0312156100ba575f5ffd5b8a516100c581610079565b60208c0151909a506100d681610079565b60408c01519099506100e781610079565b60608c01519098506100f881610079565b60808c015190975061010981610079565b60a08c015190965061011a81610079565b60c08c015190955061012b81610079565b60e08c015190945061013c81610079565b6101008c015190935061014e81610079565b915061015d6101208c01610090565b90509295989b9194979a5092959850565b60805160a05160c05160e05161010051610120516101405161016051610180516101a051615edd6103115f395f81816103ed01528181610b400152610c0c01525f81816102bf01528181610a9901528181610f7e015281816110e001528181611729015281816118b701528181611bcf015281816120590152818161217a0152818161236d015281816131ef0152818161341c01528181613719015261384801525f818161033d0152818161161c01528181612a8901526130db01525f81816107bb015281816109d201528181610ca6015281816113f5015281816119330152818161296b01528181612d300152612f6d01525f818161039d0152818161116f01528181611262015261280c01525f818161030a0152611a5901525f81816108bc0152612b0b01525f818161063601528181610d6d01528181610e4801528181610e8a0152818161131d01528181611cfb01528181611d51015281816120b70152818161211c01528181612cdb01528181612edd015261354901525f8181610512015281816105cd015261389401525f818161082c015261274a0152615edd5ff3fe608060405260043610610249575f3560e01c80637da0a87711610134578063c1ec61ee116100b3578063f12b64a511610078578063f12b64a5146107fc578063f434c9141461081b578063f60082221461084e578063fac3a6a21461086d578063fb61b4e31461088c578063ffa08244146108ab575f5ffd5b8063c1ec61ee1461073e578063c6081d711461076c578063c7fb92de1461078b578063d4a1b4b1146107aa578063f0118e18146107dd575f5ffd5b8063a2d532e6116100f9578063a2d532e614610696578063a312889b146106b5578063b1a50e33146106e1578063b1e6d2a114610700578063c02c63ad1461071f575f5ffd5b80637da0a877146105bf57806380d3fe35146105f157806388bc2ef3146106255780638a36dffd1461065857806399d25a3414610677575f5ffd5b80633141db70116101cb5780634da781a9116101905780634da781a9146104d7578063572b6c05146104f657806358178191146105425780635c7465e5146105615780636567b40614610574578063702a3977146105a0575f5ffd5b80633141db701461043057806338945b581461044f578063399755711461046e578063405b84fa1461049957806341929626146104b8575f5ffd5b806325a61d5c1161021157806325a61d5c1461035f578063293c49991461038c578063296eee51146103bf5780632fdb77e9146103dc578063303f5dfa1461040f575f5ffd5b806301ffc9a71461024d578063090db2f1146102815780631d831d5c146102ae5780631eabcd34146102f95780631f47ce691461032c575b5f5ffd5b348015610258575f5ffd5b5061026c610267366004613d23565b6108de565b60405190151581526020015b60405180910390f35b34801561028c575f5ffd5b506102a061029b366004613d4a565b61099b565b604051908152602001610278565b3480156102b9575f5ffd5b506102e17f000000000000000000000000000000000000000000000000000000000000000081565b6040516001600160a01b039091168152602001610278565b348015610304575f5ffd5b506102e17f000000000000000000000000000000000000000000000000000000000000000081565b348015610337575f5ffd5b506102e17f000000000000000000000000000000000000000000000000000000000000000081565b34801561036a575f5ffd5b5061037e610379366004613d61565b6109a5565b604051610278929190613fd9565b348015610397575f5ffd5b506102e17f000000000000000000000000000000000000000000000000000000000000000081565b3480156103ca575f5ffd5b506102e16001600160a01b035f5c1681565b3480156103e7575f5ffd5b506102e17f000000000000000000000000000000000000000000000000000000000000000081565b34801561041a575f5ffd5b5061042e61042936600461401d565b610a58565b005b34801561043b575f5ffd5b506102a061044a3660046140e8565b610af7565b34801561045a575f5ffd5b506102a061046936600461415f565b610bd3565b348015610479575f5ffd5b506102a0610488366004613d4a565b5f6020819052908152604090205481565b3480156104a4575f5ffd5b5061042e6104b3366004614234565b610e3d565b3480156104c3575f5ffd5b5061037e6104d2366004613d4a565b610f2f565b3480156104e2575f5ffd5b506102a06104f1366004613d4a565b610f5a565b348015610501575f5ffd5b5061026c610510366004614262565b7f00000000000000000000000000000000000000000000000000000000000000006001600160a01b0390811691161490565b34801561054d575f5ffd5b506102e161055c36600461427d565b610ff9565b6102a061056f3660046142fc565b61116b565b34801561057f575f5ffd5b5061059361058e366004614339565b6113c4565b6040516102789190614362565b3480156105ab575f5ffd5b5061042e6105ba3660046143c5565b61152d565b3480156105ca575f5ffd5b507f00000000000000000000000000000000000000000000000000000000000000006102e1565b3480156105fc575f5ffd5b5061061061060b366004614424565b6115a2565b60408051928352602083019190915201610278565b348015610630575f5ffd5b506102e17f000000000000000000000000000000000000000000000000000000000000000081565b348015610663575f5ffd5b5061042e61067236600461445a565b6115f1565b348015610682575f5ffd5b5061026c610691366004613d4a565b611657565b3480156106a1575f5ffd5b5061042e6106b03660046144a8565b611674565b3480156106c0575f5ffd5b506106d46106cf366004613d4a565b611796565b604051610278919061451d565b3480156106ec575f5ffd5b5061026c6106fb366004613d4a565b61182d565b34801561070b575f5ffd5b5061042e61071a36600461452f565b611845565b34801561072a575f5ffd5b5061037e610739366004613d4a565b6118f2565b348015610749575f5ffd5b5061075d610758366004613d4a565b61190b565b60405161027893929190614574565b348015610777575f5ffd5b5061042e6107863660046145bc565b6119bc565b348015610796575f5ffd5b506102a06107a53660046145ef565b611a88565b3480156107b5575f5ffd5b506102e17f000000000000000000000000000000000000000000000000000000000000000081565b3480156107e8575f5ffd5b5061042e6107f7366004614665565b611cee565b348015610807575f5ffd5b5061042e610816366004614234565b611fc5565b348015610826575f5ffd5b506102e17f000000000000000000000000000000000000000000000000000000000000000081565b348015610859575f5ffd5b5061042e610868366004614665565b6120b5565b348015610878575f5ffd5b5061042e61088736600461468f565b61214f565b348015610897575f5ffd5b5061042e6108a63660046146cb565b6121b7565b3480156108b6575f5ffd5b506102e17f000000000000000000000000000000000000000000000000000000000000000081565b5f6001600160e01b03198216630756feb760e51b148061090e57506001600160e01b031982166334ce2c7b60e21b145b8061092957506001600160e01b03198216632877540760e01b145b8061094457506001600160e01b031982166301192a2360e61b145b8061095f57506001600160e01b03198216633d0d324560e21b145b8061097a57506001600160e01b0319821663296eee5160e01b145b8061099557506001600160e01b031982166301ffc9a760e01b145b92915050565b5f610995826122fb565b6109ad613c18565b6109b5613c63565b604051630969875760e21b815260048101859052602481018490527f00000000000000000000000000000000000000000000000000000000000000006001600160a01b0316906325a61d5c9060440161012060405180830381865afa158015610a20573d5f5f3e3d5ffd5b505050506040513d601f19601f82011682018060405250810190610a4491906149a2565b9150610a4f826124a5565b90509250929050565b610a648484600c6126df565b60405163181faefd60e11b81526001600160a01b038581166004830152602482018590526044820184905282811660648301527f0000000000000000000000000000000000000000000000000000000000000000169063303f5dfa906084015b5f604051808303815f87803b158015610adb575f5ffd5b505af1158015610aed573d5f5f3e3d5ffd5b5050505050505050565b5f838103610b2757604051633558b79760e21b815260048101879052602481018590526044015b60405180910390fd5b610b77610b33876127f4565b8760026001600160a01b037f000000000000000000000000000000000000000000000000000000000000000016610b6861287d565b6001600160a01b03161461288b565b610b8286868661289b565b90507f24d02d612b06648bfa2000859f3de7e6f336139eaf5877c24b0d21320625286281878585610bb161287d565b604051610bc29594939291906149e5565b60405180910390a195945050505050565b5f858103610bfe57604051633558b79760e21b8152600481018b905260248101879052604401610b1e565b5f610c0761287d565b90505f7f00000000000000000000000000000000000000000000000000000000000000006001600160a01b0316826001600160a01b0316149050610c56610c4d8d6127f4565b8d60038461288b565b610c6b610c628d6127f4565b8d600f8461288b565b8915610c8657610c86610c7d8d6127f4565b8d60078461288b565b6040516319fade8560e11b8152600481018d90525f906001600160a01b037f000000000000000000000000000000000000000000000000000000000000000016906333f5bd0a90602401602060405180830381865afa158015610ceb573d5f5f3e3d5ffd5b505050506040513d601f19601f82011682018060405250810190610d0f9190614a1e565b1115610d315760405163513eec8160e01b8152600481018d9052602401610b1e565b8915610d51575f8c8152600160205260409020610d4f8b8d83614ab8565b505b6040516338a73f9960e11b8152600481018d90523060248201527f00000000000000000000000000000000000000000000000000000000000000006001600160a01b03169063714e7f32906044015f604051808303815f87803b158015610db6575f5ffd5b505af1158015610dc8573d5f5f3e3d5ffd5b50505050610dd78c8888612ba4565b610de28c8a8a61289b565b92507f8c9d461b22fb3063f8aebc64fc6ca08d8e98aebee1bb8fe17c57dcd091bd90a2838d8d8d8989610e1361287d565b604051610e269796959493929190614b71565b60405180910390a150509998505050505050505050565b336001600160a01b037f00000000000000000000000000000000000000000000000000000000000000001614610eb757604051639653dbed60e01b81523360048201526001600160a01b037f0000000000000000000000000000000000000000000000000000000000000000166024820152604401610b1e565b604080516001600160a01b038316815233602082015283917f01f954abace731a88ab86e71186040cc2be49fe517ea06bc0d24f25b82b83456910160405180910390a25f828152602081905260409020548015610f2a57604051633007de8d60e21b815260048101829052602401610b1e565b505050565b610f37613c18565b610f3f613c63565b610f4883612d12565b9150610f53826124a5565b9050915091565b5f818152602081905260408082205490516375b0d9cd60e01b8152600481018490527f00000000000000000000000000000000000000000000000000000000000000006001600160a01b0316906375b0d9cd90602401602060405180830381865afa158015610fcb573d5f5f3e3d5ffd5b505050506040513d601f19601f82011682018060405250810190610fef9190614a1e565b6109959190614bd4565b5f61100e611006886127f4565b8860086126df565b5f8261101a575f611063565b61102261287d565b8360405160200161104c92919060609290921b6001600160601b0319168252601482015260340190565b604051602081830303815290604052805190602001205b905061106d61287d565b6001600160a01b0316887fa05dbc6b81da28529b01c0a1d1166c44ccd67676f06d2441002870ec5bc4a15885846110a261287d565b6040805193845260208401929092526001600160a01b03169082015260600160405180910390a3604051635817819160e01b81526001600160a01b037f0000000000000000000000000000000000000000000000000000000000000000169063581781919061111f908b908b908b908b908b908990600401614be7565b6020604051808303815f875af115801561113b573d5f5f3e3d5ffd5b505050506040513d601f19601f8201168201806040525081019061115f9190614c27565b98975050505050505050565b5f5f7f00000000000000000000000000000000000000000000000000000000000000006001600160a01b031663dce0b4e46040518163ffffffff1660e01b8152600401602060405180830381865afa1580156111c9573d5f5f3e3d5ffd5b505050506040513d601f19601f820116820180604052508101906111ed9190614a1e565b90508034146112185760405163584f1c4960e01b815234600482015260248101829052604401610b1e565b61122861122361287d565b612da3565b5f805c6001600160a01b0319166001600160a01b03831617905d5060405163180e2b1160e31b81526001600160a01b038c811660048301527f0000000000000000000000000000000000000000000000000000000000000000169063c071588890839060240160206040518083038185885af11580156112aa573d5f5f3e3d5ffd5b50505050506040513d601f19601f820116820180604052508101906112cf9190614a1e565b91505f6001600160a01b0319815c16815d508815611301575f8281526001602052604090206112ff8a8c83614ab8565b505b6040516338a73f9960e11b8152600481018390523060248201527f00000000000000000000000000000000000000000000000000000000000000006001600160a01b03169063714e7f32906044015f604051808303815f87803b158015611366575f5ffd5b505af1158015611378573d5f5f3e3d5ffd5b50505050611387828787612ba4565b5f611393838a8a61289b565b90507f8dac501f24f52bda9ebdfa6a1789878c1d1e23823c771f7d52b5ba41261b0f4581848d8d8989610e1361287d565b6040516301fd03bb60e71b81526004810184905260248101839052604481018290526060905f906001600160a01b037f0000000000000000000000000000000000000000000000000000000000000000169063fe81dd80906064015f60405180830381865afa158015611439573d5f5f3e3d5ffd5b505050506040513d5f823e601f3d908101601f191682016040526114609190810190614c64565b8051909150806001600160401b0381111561147d5761147d614753565b6040519080825280602002602001820160405280156114b657816020015b6114a3613cfe565b81526020019060019003908161149b5790505b5092505f5b81811015611523575f8382815181106114d6576114d6614d05565b6020026020010151905060405180604001604052808281526020016114fa836124a5565b81525085838151811061150f5761150f614d05565b6020908102919091010152506001016114bb565b5050509392505050565b611541611539846127f4565b8460076126df565b5f838152600160205260409020611559828483614ab8565b50827f0f3d240fe5efaeda774d27bf0425f932ddd2098297b26de8070d6c8bef534b16838361158661287d565b60405161159593929190614d19565b60405180910390a2505050565b5f5f835f036115b557505f9050806115e9565b5f6115bf86612d12565b90506115e385856115d0575f6115da565b61010083015160041c5b61ffff16612e8f565b92509250505b935093915050565b6116056115fd856127f4565b8560136126df565b604051638a36dffd60e01b81526001600160a01b037f00000000000000000000000000000000000000000000000000000000000000001690638a36dffd90610ac4908790879087908790600401614d6e565b5f61166961166483612d12565b6124a5565b610120015192915050565b6116918585600b61168c8261168761287d565b612eb5565b61288b565b825f036116c3576040516337f635db60e01b8152600481018590526001600160a01b0386166024820152604401610b1e565b83856001600160a01b03167fdf04e13ee4fcd48a81ab2fd114757093740a3efa9b6475d86e05878b4c59d0798585856116fa61287d565b60405161170a9493929190614ef9565b60405180910390a360405163124d91e560e01b81526001600160a01b037f0000000000000000000000000000000000000000000000000000000000000000169063124d91e59061176290889088908890600401614f2b565b5f604051808303815f87803b158015611779575f5ffd5b505af115801561178b573d5f5f3e3d5ffd5b505050505050505050565b60016020525f9081526040902080546117ae90614a35565b80601f01602080910402602001604051908101604052809291908181526020018280546117da90614a35565b80156118255780601f106117fc57610100808354040283529160200191611825565b820191905f5260205f20905b81548152906001019060200180831161180857829003601f168201915b505050505081565b5f61183a61166483612d12565b610100015192915050565b6118518484600d6126df565b5f61185b84612d12565b61010081015190915060451c6001908116036118a057602081015160405162a1824360e71b81526004810186905265ffffffffffff9091166024820152604401610b1e565b60405163b1e6d2a160e01b81526001600160a01b037f0000000000000000000000000000000000000000000000000000000000000000169063b1e6d2a190611762908890889088908890600401614f4c565b6118fa613c18565b611902613c63565b610f4883612f4f565b611913613c18565b61191b613c63565b60405163855a54ed60e01b8152600481018490525f907f00000000000000000000000000000000000000000000000000000000000000006001600160a01b03169063855a54ed9060240161014060405180830381865afa158015611981573d5f5f3e3d5ffd5b505050506040513d601f19601f820116820180604052508101906119a59190614f76565b90935090506119b3836124a5565b91509193909250565b6119d06119c8856127f4565b8560146126df565b5f6119da85612d12565b9050806020015165ffffffffffff165f14158015611a045750610100810151604c1c600190811614155b15611a25576040516305ed262160e11b815260048101869052602401610b1e565b60405163c6081d7160e01b81526004810186905260248101859052604481018490526001600160a01b0383811660648301527f0000000000000000000000000000000000000000000000000000000000000000169063c6081d7190608401611762565b5f855f03611abb57604051634e96347960e01b8152600481018890526001600160a01b0386166024820152604401610b1e565b5f5f611ac689612d12565b90505f611ad161287d565b90505f611ade8b83612eb5565b90505f8180611b06575061010084015160521c6001600160a01b0316836001600160a01b0316145b90505f81158015611b1d5750611b1d8d8686612fa4565b9050611b3b611b2b8e6127f4565b8e600a858061168c57508461288b565b602085015165ffffffffffff1615801590611b62575061010085015160461c600190811614155b8015611b6c575081155b8015611b76575080155b15611b9f5760405163acaa137360e01b81526001600160a01b0385166004820152602401610b1e565b87611baa575f611bb4565b61010085015160041c5b61ffff169550611bc48c87612e8f565b5096508615611c5f577f00000000000000000000000000000000000000000000000000000000000000006001600160a01b031663aab68bdb8c8f8a6040518463ffffffff1660e01b8152600401611c1d93929190614f2b565b6020604051808303815f875af1158015611c39573d5f5f3e3d5ffd5b505050506040513d601f19601f82011682018060405250810190611c5d9190614c27565b505b8c8b6001600160a01b03167fe6fee9c572244c0c2238c3112ac12d411750a7ee00eeebd32521c3e5a666c14b8e8a8e8e8c8b604051611ca396959493929190614fa6565b60405180910390a38515611cde57611cbb878d614fe8565b5f8e81526020819052604081208054909190611cd8908490614bd4565b90915550505b5050505050509695505050505050565b5f611cf761287d565b90507f00000000000000000000000000000000000000000000000000000000000000006001600160a01b0316816001600160a01b031614611d7e57604051639653dbed60e01b81526001600160a01b0380831660048301527f0000000000000000000000000000000000000000000000000000000000000000166024820152604401610b1e565b6040516301ffc9a760e01b81526334ce2c7b60e21b60048201526001600160a01b038416906301ffc9a790602401602060405180830381865afa158015611dc7573d5f5f3e3d5ffd5b505050506040513d601f19601f82011682018060405250810190611deb9190614ffb565b15611e735760405163a312889b60e01b8152600481018390526001600160a01b0384169063a312889b906024015f60405180830381865afa158015611e32573d5f5f3e3d5ffd5b505050506040513d5f823e601f3d908101601f19168201604052611e599190810190615016565b5f83815260016020526040902090611e7190826150a8565b505b6040516301ffc9a760e01b8152630756feb760e51b60048201526001600160a01b038416906301ffc9a790602401602060405180830381865afa158015611ebc573d5f5f3e3d5ffd5b505050506040513d601f19601f82011682018060405250810190611ee09190614ffb565b8015611f525750604051633997557160e01b8152600481018390525f906001600160a01b03851690633997557190602401602060405180830381865afa158015611f2c573d5f5f3e3d5ffd5b505050506040513d601f19601f82011682018060405250810190611f509190614a1e565b115b15610f2a5760405163090db2f160e01b8152600481018390526001600160a01b0384169063090db2f1906024016020604051808303815f875af1158015611f9b573d5f5f3e3d5ffd5b505050506040513d601f19601f82011682018060405250810190611fbf9190614a1e565b50505050565b611fd9611fd1836127f4565b8360096126df565b5f611fe383612d12565b9050806020015165ffffffffffff165f036120045761200183612f4f565b90505b61010081015160471c6001908116146120335760405163fbd30e7b60e01b815260048101849052602401610b1e565b60405163f12b64a560e01b8152600481018490526001600160a01b0383811660248301527f0000000000000000000000000000000000000000000000000000000000000000169063f12b64a5906044015f604051808303815f87803b15801561209a575f5ffd5b505af11580156120ac573d5f5f3e3d5ffd5b50505050505050565b7f00000000000000000000000000000000000000000000000000000000000000006001600160a01b03166120e761287d565b6001600160a01b03161461214b576120fd61287d565b604051639653dbed60e01b81526001600160a01b0391821660048201527f00000000000000000000000000000000000000000000000000000000000000009091166024820152604401610b1e565b5050565b61216361215b866127f4565b8660166126df565b60405163995922ed60e01b81526001600160a01b037f0000000000000000000000000000000000000000000000000000000000000000169063995922ed906117629088908890889088908890600401615162565b3330146121c2575f5ffd5b6121d66001600160a01b0386168886613039565b60405163fef4325760e01b81526001600160a01b0388169063fef432579061220e9089908990899089905f908a908a9060040161518e565b6020604051808303815f875af115801561222a573d5f5f3e3d5ffd5b505050506040513d601f19601f8201168201806040525081019061224e9190614a1e565b50604051636eb1769f60e11b81523060048201526001600160a01b0388811660248301525f919087169063dd62ed3e90604401602060405180830381865afa15801561229c573d5f5f3e3d5ffd5b505050506040513d601f19601f820116820180604052508101906122c09190614a1e565b90508015610aed576040516360b56ab760e01b81526001600160a01b03808a1660048301528716602482015260448101829052606401610b1e565b5f818152602081905260408120549081900361232d57604051630197ddfd60e21b815260048101839052602401610b1e565b5f61233783612d12565b90505f612343846127f4565b5f858152602081905260408082208290555163aab68bdb60e01b8152919250906001600160a01b037f0000000000000000000000000000000000000000000000000000000000000000169063aab68bdb906123a690309089908990600401614f2b565b6020604051808303815f875af11580156123c2573d5f5f3e3d5ffd5b505050506040513d601f19601f820116820180604052508101906123e69190614c27565b90505f841561240e5761240986856020015165ffffffffffff16600188866130b3565b612410565b5f5b905080156124245761242486828585613809565b85845f015165ffffffffffff16856020015165ffffffffffff167f32411cac611c47cfe73afc187645c9cf3aec828d5f91780138d8421378fc0edb86898661246a61287d565b604080516001600160a01b0395861681526020810194909452830191909152909116606082015260800160405180910390a450505050919050565b6124ad613c63565b6040518061026001604052806124c884610100015160041c90565b61ffff1681526020016124e084610100015160141c90565b61ffff1681526020016124f884610100015160241c90565b63ffffffff16815260200161251a846101000151600160449190911c81161490565b15158152602001612538846101000151600160459190911c81161490565b15158152602001612556846101000151600160469190911c81161490565b15158152602001612574846101000151600160479190911c81161490565b15158152602001612592846101000151600160489190911c81161490565b151581526020016125b0846101000151600160499190911c81161490565b151581526020016125ce8461010001516001604a9190911c81161490565b151581526020016125ec8461010001516001604b9190911c81161490565b1515815260200161260a8461010001516001604c9190911c81161490565b151581526020016126288461010001516001604d9190911c81161490565b151581526020016126468461010001516001604e9190911c81161490565b151581526020016126648461010001516001604f9190911c81161490565b15158152602001612682846101000151600160509190911c81161490565b151581526020016126a0846101000151600160519190911c81161490565b151581526020016126b684610100015160521c90565b6001600160a01b031681526020016126d384610100015160f21c90565b61ffff16905292915050565b5f6126e861287d565b9050836001600160a01b0316816001600160a01b0316141580156127b55750604051631a45b42760e11b81526001600160a01b0382811660048301528581166024830152604482018590526064820184905260016084830181905260a48301527f0000000000000000000000000000000000000000000000000000000000000000169063348b684e9060c401602060405180830381865afa15801561278f573d5f5f3e3d5ffd5b505050506040513d601f19601f820116820180604052508101906127b39190614ffb565b155b15611fbf57604051631326f75560e11b81526001600160a01b038086166004830152821660248201526044810184905260648101839052608401610b1e565b6040516331a9108f60e11b8152600481018290525f907f00000000000000000000000000000000000000000000000000000000000000006001600160a01b031690636352211e90602401602060405180830381865afa158015612859573d5f5f3e3d5ffd5b505050506040513d601f19601f820116820180604052508101906109959190614c27565b5f612886613883565b905090565b80611fbf57611fbf8484846126df565b5f5f5b82811015612b9c575f8484838181106128b9576128b9614d05565b90506020028101906128cb91906151ea565b6128d4906156f4565b905061271061ffff168160a001515f015161ffff16111561291d5760a08101515160405163a162453f60e01b815261ffff90911660048201526127106024820152604401610b1e565b61271061ffff168160a001516020015161ffff1611156129685760a0810151602001516040516318e037d360e11b815261ffff90911660048201526127106024820152604401610b1e565b5f7f00000000000000000000000000000000000000000000000000000000000000006001600160a01b03166370174dcc8884602001518560400151866060015187608001516129ba8960a001516138ed565b895160405160e089901b6001600160e01b0319168152600481019790975263ffffffff95861660248801526001600160701b0390941660448701529390911660648501526001600160a01b0316608484015260a483019190915265ffffffffffff1660c482015260e401610120604051808303815f875af1158015612a41573d5f5f3e3d5ffd5b505050506040513d601f19601f82011682018060405250810190612a6591906149a2565b602081015160c0840151604051638a36dffd60e01b81529293506001600160a01b037f00000000000000000000000000000000000000000000000000000000000000001692638a36dffd92612abe928c92600401615829565b5f604051808303815f87803b158015612ad5575f5ffd5b505af1158015612ae7573d5f5f3e3d5ffd5b505050602082015160e08401516040516323c620f360e21b81526001600160a01b037f0000000000000000000000000000000000000000000000000000000000000000169350638f1883cc92612b41928c92600401615940565b5f604051808303815f87803b158015612b58575f5ffd5b505af1158015612b6a573d5f5f3e3d5ffd5b50612b7c925060019150879050614fe8565b8303612b9257806020015165ffffffffffff1693505b505060010161289e565b509392505050565b5f816001600160401b03811115612bbd57612bbd614753565b604051908082528060200260200182016040528015612be6578160200160208202803683370190505b5090505f5b82811015612cbd575f848483818110612c0657612c06614d05565b9050602002810190612c1891906159f6565b612c2190615a0a565b805160208201516040516304a6e43960e31b81529293506001600160a01b039091169163253721c891612c59918a9190600401615b07565b5f604051808303815f87803b158015612c70575f5ffd5b505af1158015612c82573d5f5f3e3d5ffd5b50505050805f0151838381518110612c9c57612c9c614d05565b6001600160a01b039092166020928302919091019091015250600101612beb565b508115611fbf5760405163104373fb60e31b81526001600160a01b037f0000000000000000000000000000000000000000000000000000000000000000169063821b9fd890610ac49087908590600401615b7f565b612d1a613c18565b6040516321d1336160e11b8152600481018390527f00000000000000000000000000000000000000000000000000000000000000006001600160a01b0316906343a266c2906024015b61012060405180830381865afa158015612d7f573d5f5f3e3d5ffd5b505050506040513d601f19601f8201168201806040525081019061099591906149a2565b5f816001600160a01b03163b5f03612db9575090565b60408051600481526024810182526020810180516001600160e01b031663296eee5160e01b17905290515f9182916001600160a01b03861691612dfb91615bc9565b5f60405180830381855afa9150503d805f8114612e33576040519150601f19603f3d011682016040523d82523d5f602084013e612e38565b606091505b5091509150811580612e4b575060208151105b15612e5857509192915050565b5f81806020019051810190612e6d9190614c27565b90506001600160a01b03811615612e845780612e86565b845b95945050505050565b5f80612ea984612ea185612710614fe8565b612710613a95565b9150610a4f8285614fe8565b604051636e49181f60e01b8152600481018390526001600160a01b0382811660248301525f917f000000000000000000000000000000000000000000000000000000000000000090911690636e49181f90604401602060405180830381865afa158015612f24573d5f5f3e3d5ffd5b505050506040513d601f19601f82011682018060405250810190612f489190614ffb565b9392505050565b612f57613c18565b604051631735e2c560e11b8152600481018390527f00000000000000000000000000000000000000000000000000000000000000006001600160a01b031690632e6bc58a90602401612d63565b5f5f612fb584610100015160521c90565b90506001600160a01b03811615801590612e8657506040516399f6d77f60e01b81526001600160a01b038216906399f6d77f90612ffa90889088908890600401615bdf565b602060405180830381865afa158015613015573d5f5f3e3d5ffd5b505050506040513d601f19601f82011682018060405250810190612e869190614ffb565b6130458383835f613b64565b610f2a5761305683835f6001613b64565b61307e57604051635274afe760e01b81526001600160a01b0384166004820152602401610b1e565b61308b8383836001613b64565b610f2a57604051635274afe760e01b81526001600160a01b0384166004820152602401610b1e565b6040516369e11cc560e01b815260048101869052602481018590526044810184905282905f907f00000000000000000000000000000000000000000000000000000000000000006001600160a01b0316906369e11cc5906064015f60405180830381865afa158015613127573d5f5f3e3d5ffd5b505050506040513d5f823e601f3d908101601f1916820160405261314e9190810190615c0e565b80519091505f61315c61287d565b90505f5b828110156137fc575f84828151811061317b5761317b614d05565b602002602001015190505f6131a489835f015163ffffffff16633b9aca0063ffffffff16613a95565b905080156137b45760a08201516001600160a01b03161561349f576001600160a01b038816156131ed5760a08201516131e8906001600160a01b038a169083613039565b613271565b7f00000000000000000000000000000000000000000000000000000000000000006001600160a01b031663b1e6d2a1308e8560a00151856040518563ffffffff1660e01b81526004016132439493929190614f4c565b5f604051808303815f87803b15801561325a575f5ffd5b505af115801561326c573d5f5f3e3d5ffd5b505050505b8160a001516001600160a01b031663c5a093886040518060c001604052808b6001600160a01b03168152602001848152602001601281526020018f81526020018d8152602001858152506040518263ffffffff1660e01b81526004016132d79190615d18565b5f604051808303815f87803b1580156132ee575f5ffd5b505af19250505080156132ff575060015b613374573d80801561332c576040519150601f19603f3d011682016040523d82523d5f602084013e613331565b606091505b508c7f09b03c29883643ac445bae0f9df02778ec19fbead9f9a082254d12fac7c359958460a00151838860405161336a93929190615d6c565b60405180910390a2505b6001600160a01b0388161561349a5760a0820151604051636eb1769f60e11b81523060048201526001600160a01b0391821660248201525f918a169063dd62ed3e90604401602060405180830381865afa1580156133d4573d5f5f3e3d5ffd5b505050506040513d601f19601f820116820180604052508101906133f89190614a1e565b905080156134985760a083015161341a906001600160a01b038b16905f613039565b7f00000000000000000000000000000000000000000000000000000000000000006001600160a01b031663124d91e5308f846040518463ffffffff1660e01b815260040161346a93929190614f2b565b5f604051808303815f87803b158015613481575f5ffd5b505af1158015613493573d5f5f3e3d5ffd5b505050505b505b6137a7565b60408201515f906001600160a01b03166134b957846134bf565b82604001515b905082602001516001600160401b03165f14613704578c83602001516001600160401b03160361350557604051636f4447e560e01b8152600481018e9052602401610b1e565b5f6001600160a01b038a16156135b7576020840151604051630862026560e41b81526001600160401b0390911660048201526001600160a01b038b811660248301527f00000000000000000000000000000000000000000000000000000000000000001690638620265090604401602060405180830381865afa15801561358e573d5f5f3e3d5ffd5b505050506040513d601f19601f820116820180604052508101906135b29190614c27565b6135b9565b5f5b90506001600160a01b038a1615806135d857506001600160a01b038116155b156135ee576135e98e84848d613809565b6136fe565b5f8e60405160200161360291815260200190565b6040516020818303038152906040529050306001600160a01b031663fb61b4e38387602001518e8888876040518763ffffffff1660e01b815260040161364d96959493929190615da7565b5f604051808303815f87803b158015613664575f5ffd5b505af1925050508015613675575060015b6136fc573d8080156136a2576040519150601f19603f3d011682016040523d82523d5f602084013e6136a7565b606091505b508f7fdba24f3504238ca84f6411d16a14bb7ae54061b0a80892bf93eb5a8912ed73558787848c6040516136de9493929190615df0565b60405180910390a26136fa6001600160a01b038d168587613bc6565b505b505b506137a5565b61deac196001600160a01b03821601613799577f00000000000000000000000000000000000000000000000000000000000000006001600160a01b031663124d91e5308f856040518463ffffffff1660e01b815260040161376793929190614f2b565b5f604051808303815f87803b15801561377e575f5ffd5b505af1158015613790573d5f5f3e3d5ffd5b505050506137a5565b6137a58d83838c613809565b505b6137b18188614fe8565b96505b898b8d7fbfcad5a78fa104a30927810dfb51a41d1119d43ce12be27620ab589e1273cebe8585896040516137ea93929190615e31565b60405180910390a45050600101613160565b5050505095945050505050565b6001600160a01b038116156138315761382c6001600160a01b0382168385613bc6565b611fbf565b60405163b1e6d2a160e01b81526001600160a01b037f0000000000000000000000000000000000000000000000000000000000000000169063b1e6d2a190610ac4903090889087908990600401614f4c565b5f3660148082108015906138bf57507f00000000000000000000000000000000000000000000000000000000000000006001600160a01b031633145b156138e5576138d236828403815f615e5f565b6138db91615e86565b60601c9250505090565b339250505090565b5f600190506004825f015161ffff16901b811790506014826020015161ffff16901b811790506024826040015163ffffffff16901b8117905081606001511561393c5768100000000000000000175b8160800151156139525768200000000000000000175b8160a00151156139685768400000000000000000175b8160c001511561397e5768800000000000000000175b8160e0015115613995576901000000000000000000175b816101000151156139ad576902000000000000000000175b816101200151156139c5576904000000000000000000175b816101400151156139dd576908000000000000000000175b816101600151156139f5576910000000000000000000175b81610180015115613a0d576920000000000000000000175b816101a0015115613a25576940000000000000000000175b816101c0015115613a3d576980000000000000000000175b816101e0015115613a4f57600160501b175b81610200015115613a6157600160511b175b6102208201516102409092015160529290921b600160521b600160f21b03161760f29190911b6001600160f21b0319161790565b5f80805f19858709858702925082811083820303915050805f03613acc57838281613ac257613ac2615ebc565b0492505050612f48565b838110613afd57604051630c740aef60e31b8152600481018790526024810186905260448101859052606401610b1e565b5f8486880960026001871981018816978890046003810283188082028403028082028403028082028403028082028403028082028403029081029092039091025f889003889004909101858311909403939093029303949094049190911702949350505050565b60405163095ea7b360e01b5f8181526001600160a01b038616600452602485905291602083604481808b5af1925060015f51148316613bba578383151615613bae573d5f823e3d81fd5b5f873b113d1516831692505b60405250949350505050565b61308b838383600160405163a9059cbb60e01b5f8181526001600160a01b038616600452602485905291602083604481808b5af1925060015f51148316613bba578383151615613bae573d5f823e3d81fd5b60408051610120810182525f80825260208201819052918101829052606081018290526080810182905260a0810182905260c0810182905260e0810182905261010081019190915290565b60408051610260810182525f80825260208201819052918101829052606081018290526080810182905260a0810182905260c0810182905260e08101829052610100810182905261012081018290526101408101829052610160810182905261018081018290526101a081018290526101c081018290526101e081018290526102008101829052610220810182905261024081019190915290565b6040518060400160405280613d11613c18565b8152602001613d1e613c63565b905290565b5f60208284031215613d33575f5ffd5b81356001600160e01b031981168114612f48575f5ffd5b5f60208284031215613d5a575f5ffd5b5035919050565b5f5f60408385031215613d72575f5ffd5b50508035926020909101359150565b65ffffffffffff815116825265ffffffffffff60208201511660208301526040810151613db8604084018265ffffffffffff169052565b506060810151613dd2606084018265ffffffffffff169052565b506080810151613dea608084018263ffffffff169052565b5060a0810151613e0560a08401826001600160701b03169052565b5060c0810151613e1d60c084018263ffffffff169052565b5060e0810151613e3860e08401826001600160a01b03169052565b5061010090810151910152565b805161ffff1682526020810151613e62602084018261ffff169052565b506040810151613e7a604084018263ffffffff169052565b506060810151613e8e606084018215159052565b506080810151613ea2608084018215159052565b5060a0810151613eb660a084018215159052565b5060c0810151613eca60c084018215159052565b5060e0810151613ede60e084018215159052565b50610100810151613ef461010084018215159052565b50610120810151613f0a61012084018215159052565b50610140810151613f2061014084018215159052565b50610160810151613f3661016084018215159052565b50610180810151613f4c61018084018215159052565b506101a0810151613f626101a084018215159052565b506101c0810151613f786101c084018215159052565b506101e0810151613f8e6101e084018215159052565b50610200810151613fa461020084018215159052565b50610220810151613fc16102208401826001600160a01b03169052565b50610240810151610f2a61024084018261ffff169052565b6103808101613fe88285613d81565b612f48610120830184613e45565b6001600160a01b038116811461400a575f5ffd5b50565b803561401881613ff6565b919050565b5f5f5f5f60808587031215614030575f5ffd5b843561403b81613ff6565b93506020850135925060408501359150606085013561405981613ff6565b939692955090935050565b5f5f83601f840112614074575f5ffd5b5081356001600160401b0381111561408a575f5ffd5b6020830191508360208260051b85010111156140a4575f5ffd5b9250929050565b5f5f83601f8401126140bb575f5ffd5b5081356001600160401b038111156140d1575f5ffd5b6020830191508360208285010111156140a4575f5ffd5b5f5f5f5f5f606086880312156140fc575f5ffd5b8535945060208601356001600160401b03811115614118575f5ffd5b61412488828901614064565b90955093505060408601356001600160401b03811115614142575f5ffd5b61414e888289016140ab565b969995985093965092949392505050565b5f5f5f5f5f5f5f5f5f60a08a8c031215614177575f5ffd5b8935985060208a01356001600160401b03811115614193575f5ffd5b61419f8c828d016140ab565b90995097505060408a01356001600160401b038111156141bd575f5ffd5b6141c98c828d01614064565b90975095505060608a01356001600160401b038111156141e7575f5ffd5b6141f38c828d01614064565b90955093505060808a01356001600160401b03811115614211575f5ffd5b61421d8c828d016140ab565b915080935050809150509295985092959850929598565b5f5f60408385031215614245575f5ffd5b82359150602083013561425781613ff6565b809150509250929050565b5f60208284031215614272575f5ffd5b8135612f4881613ff6565b5f5f5f5f5f5f60808789031215614292575f5ffd5b8635955060208701356001600160401b038111156142ae575f5ffd5b6142ba89828a016140ab565b90965094505060408701356001600160401b038111156142d8575f5ffd5b6142e489828a016140ab565b979a9699509497949695606090950135949350505050565b5f5f5f5f5f5f5f5f5f60a08a8c031215614314575f5ffd5b893561431f81613ff6565b985060208a01356001600160401b03811115614193575f5ffd5b5f5f5f6060848603121561434b575f5ffd5b505081359360208301359350604090920135919050565b602080825282518282018190525f918401906040840190835b818110156143ba578351614390848251613d81565b602001516143a2610120850182613e45565b5060209390930192610380929092019160010161437b565b509095945050505050565b5f5f5f604084860312156143d7575f5ffd5b8335925060208401356001600160401b038111156143f3575f5ffd5b6143ff868287016140ab565b9497909650939450505050565b801515811461400a575f5ffd5b80356140188161440c565b5f5f5f60608486031215614436575f5ffd5b8335925060208401359150604084013561444f8161440c565b809150509250925092565b5f5f5f5f6060858703121561446d575f5ffd5b843593506020850135925060408501356001600160401b03811115614490575f5ffd5b61449c87828801614064565b95989497509550505050565b5f5f5f5f5f608086880312156144bc575f5ffd5b85356144c781613ff6565b9450602086013593506040860135925060608601356001600160401b03811115614142575f5ffd5b5f81518084528060208401602086015e5f602082860101526020601f19601f83011685010191505092915050565b602081525f612f4860208301846144ef565b5f5f5f5f60808587031215614542575f5ffd5b843561454d81613ff6565b935060208501359250604085013561456481613ff6565b9396929550929360600135925050565b6103a081016145838286613d81565b614591610120830185613e45565b600683106145ad57634e487b7160e01b5f52602160045260245ffd5b82610380830152949350505050565b5f5f5f5f608085870312156145cf575f5ffd5b843593506020850135925060408501359150606085013561405981613ff6565b5f5f5f5f5f5f60a08789031215614604575f5ffd5b8635955060208701359450604087013561461d81613ff6565b935060608701356001600160401b03811115614637575f5ffd5b61464389828a016140ab565b90945092505060808701356146578161440c565b809150509295509295509295565b5f5f60408385031215614676575f5ffd5b823561468181613ff6565b946020939093013593505050565b5f5f5f5f5f606086880312156146a3575f5ffd5b8535945060208601356001600160401b038111156146bf575f5ffd5b614124888289016140ab565b5f5f5f5f5f5f5f60c0888a0312156146e1575f5ffd5b87356146ec81613ff6565b965060208801359550604088013561470381613ff6565b945060608801359350608088013561471a81613ff6565b925060a08801356001600160401b03811115614734575f5ffd5b6147408a828b016140ab565b989b979a50959850939692959293505050565b634e487b7160e01b5f52604160045260245ffd5b60405161012081016001600160401b038111828210171561478a5761478a614753565b60405290565b60405161026081016001600160401b038111828210171561478a5761478a614753565b604080519081016001600160401b038111828210171561478a5761478a614753565b60405160c081016001600160401b038111828210171561478a5761478a614753565b604051608081016001600160401b038111828210171561478a5761478a614753565b60405161010081016001600160401b038111828210171561478a5761478a614753565b604051606081016001600160401b038111828210171561478a5761478a614753565b604051601f8201601f191681016001600160401b038111828210171561488657614886614753565b604052919050565b65ffffffffffff8116811461400a575f5ffd5b80516140188161488e565b63ffffffff8116811461400a575f5ffd5b8051614018816148ac565b6001600160701b038116811461400a575f5ffd5b8051614018816148c8565b805161401881613ff6565b5f6101208284031215614903575f5ffd5b61490b614767565b9050614916826148a1565b8152614924602083016148a1565b6020820152614935604083016148a1565b6040820152614946606083016148a1565b6060820152614957608083016148bd565b608082015261496860a083016148dc565b60a082015261497960c083016148bd565b60c082015261498a60e083016148e7565b60e08201526101009182015191810191909152919050565b5f61012082840312156149b3575f5ffd5b612f4883836148f2565b81835281816020850137505f828201602090810191909152601f909101601f19169091010190565b858152846020820152608060408201525f614a046080830185876149bd565b905060018060a01b03831660608301529695505050505050565b5f60208284031215614a2e575f5ffd5b5051919050565b600181811c90821680614a4957607f821691505b602082108103614a6757634e487b7160e01b5f52602260045260245ffd5b50919050565b601f821115610f2a57805f5260205f20601f840160051c81016020851015614a925750805b601f840160051c820191505b81811015614ab1575f8155600101614a9e565b5050505050565b6001600160401b03831115614acf57614acf614753565b614ae383614add8354614a35565b83614a6d565b5f601f841160018114614b14575f8515614afd5750838201355b5f19600387901b1c1916600186901b178355614ab1565b5f83815260208120601f198716915b82811015614b435786850135825560209485019460019092019101614b23565b5086821015614b5f575f1960f88860031b161c19848701351681555b505060018560011b0183555050505050565b87815286602082015260a060408201525f614b9060a0830187896149bd565b8281036060840152614ba38186886149bd565b91505060018060a01b038316608083015298975050505050505050565b634e487b7160e01b5f52601160045260245ffd5b8082018082111561099557610995614bc0565b868152608060208201525f614c006080830187896149bd565b8281036040840152614c138186886149bd565b915050826060830152979650505050505050565b5f60208284031215614c37575f5ffd5b8151612f4881613ff6565b5f6001600160401b03821115614c5a57614c5a614753565b5060051b60200190565b5f60208284031215614c74575f5ffd5b81516001600160401b03811115614c89575f5ffd5b8201601f81018413614c99575f5ffd5b8051614cac614ca782614c42565b61485e565b8082825260208201915060206101208402850101925086831115614cce575f5ffd5b6020840193505b82841015614cfb57614ce787856148f2565b825260208201915061012084019350614cd5565b9695505050505050565b634e487b7160e01b5f52603260045260245ffd5b604081525f614d2c6040830185876149bd565b905060018060a01b0383166020830152949350505050565b8035614018816148ac565b6001600160401b038116811461400a575f5ffd5b80356140188161488e565b5f60608201868352856020840152606060408401528084825260808401905060808560051b8501019150855f603e19883603015b87821015614eea57868503607f190184528235818112614dc0575f5ffd5b89018035865260408601602082013536839003601e19018112614de1575f5ffd5b6020920191820191356001600160401b03811115614dfd575f5ffd5b60c081023603831315614e0e575f5ffd5b60406020890152908190525f90606088015b81831015614ece578335614e33816148ac565b63ffffffff1681526020840135614e4981614d4f565b6001600160401b031660208201526040840135614e6581613ff6565b6001600160a01b031660408201526060840135614e818161440c565b15156060820152614e9460808501614d63565b65ffffffffffff166080820152614ead60a0850161400d565b6001600160a01b031660a082015260c0938401936001939093019201614e20565b9750505060209485019493909301925060019190910190614da2565b50929998505050505050505050565b848152606060208201525f614f126060830185876149bd565b905060018060a01b038316604083015295945050505050565b6001600160a01b039390931683526020830191909152604082015260600190565b6001600160a01b039485168152602081019390935292166040820152606081019190915260800190565b5f5f6101408385031215614f88575f5ffd5b614f9284846148f2565b915061012083015160068110614257575f5ffd5b86815285602082015260a060408201525f614fc560a0830186886149bd565b6060830194909452506001600160a01b0391909116608090910152949350505050565b8181038181111561099557610995614bc0565b5f6020828403121561500b575f5ffd5b8151612f488161440c565b5f60208284031215615026575f5ffd5b81516001600160401b0381111561503b575f5ffd5b8201601f8101841361504b575f5ffd5b80516001600160401b0381111561506457615064614753565b615077601f8201601f191660200161485e565b81815285602083850101111561508b575f5ffd5b8160208401602083015e5f91810160200191909152949350505050565b81516001600160401b038111156150c1576150c1614753565b6150d5816150cf8454614a35565b84614a6d565b6020601f821160018114615107575f83156150f05750848201515b5f19600385901b1c1916600184901b178455614ab1565b5f84815260208120601f198516915b828110156151365787850151825560209485019460019092019101615116565b508482101561515357868401515f19600387901b60f8161c191681555b50505050600190811b01905550565b858152606060208201525f61517b6060830186886149bd565b828103604084015261115f8185876149bd565b8781526001600160a01b03878116602083015260408201879052851660608201526080810184905260e060a082018190525f90820181905261010060c083018190526151dd90830184866149bd565b9998505050505050505050565b5f823561033e198336030181126151ff575f5ffd5b9190910192915050565b8035614018816148c8565b803561ffff81168114614018575f5ffd5b5f6102608284031215615236575f5ffd5b61523e614790565b905061524982615214565b815261525760208301615214565b602082015261526860408301614d44565b604082015261527960608301614419565b606082015261528a60808301614419565b608082015261529b60a08301614419565b60a08201526152ac60c08301614419565b60c08201526152bd60e08301614419565b60e08201526152cf6101008301614419565b6101008201526152e26101208301614419565b6101208201526152f56101408301614419565b6101408201526153086101608301614419565b61016082015261531b6101808301614419565b61018082015261532e6101a08301614419565b6101a08201526153416101c08301614419565b6101c08201526153546101e08301614419565b6101e08201526153676102008301614419565b61020082015261537a610220830161400d565b61022082015261538d6102408301615214565b61024082015292915050565b5f82601f8301126153a8575f5ffd5b81356153b6614ca782614c42565b8082825260208201915060208360051b8601019250858311156153d7575f5ffd5b602085015b838110156155405780356001600160401b038111156153f9575f5ffd5b86016040818903601f1901121561540e575f5ffd5b6154166147b3565b6020820135815260408201356001600160401b03811115615435575f5ffd5b60208184010192505088601f83011261544c575f5ffd5b813561545a614ca782614c42565b80828252602082019150602060c0840286010192508b83111561547b575f5ffd5b6020850194505b828510156155215760c0858d031215615499575f5ffd5b6154a16147d5565b85356154ac816148ac565b815260208601356154bc81614d4f565b602082015260408601356154cf81613ff6565b604082015260608601356154e28161440c565b606082015260808601356154f58161488e565b608082015260a086013561550881613ff6565b60a0820152825260c09490940193602090910190615482565b80602085015250505080855250506020830192506020810190506153dc565b5095945050505050565b5f82601f830112615559575f5ffd5b8135615567614ca782614c42565b8082825260208201915060208360061b860101925085831115615588575f5ffd5b602085015b8381101561554057604081880312156155a4575f5ffd5b6155ac6147b3565b81356001600160e01b03811681146155c2575f5ffd5b815260208201356155d2816148ac565b602082810191909152908452929092019160400161558d565b5f82601f8301126155fa575f5ffd5b8135615608614ca782614c42565b8082825260208201915060208360051b860101925085831115615629575f5ffd5b602085015b838110156155405780356001600160401b0381111561564b575f5ffd5b86016080818903601f19011215615660575f5ffd5b6156686147f7565b602082013561567681613ff6565b8152604082013561568681613ff6565b602082015260608201356001600160401b038111156156a3575f5ffd5b6156b28a60208386010161554a565b60408301525060808201356001600160401b038111156156d0575f5ffd5b6156df8a60208386010161554a565b6060830152508452506020928301920161562e565b5f6103408236031215615705575f5ffd5b61570d614819565b61571683614d63565b815261572460208401614d44565b602082015261573560408401615209565b604082015261574660608401614d44565b60608201526157576080840161400d565b60808201526157693660a08501615225565b60a08201526103008301356001600160401b03811115615787575f5ffd5b61579336828601615399565b60c0830152506103208301356001600160401b038111156157b2575f5ffd5b6157be368286016155eb565b60e08301525092915050565b805163ffffffff1682526020808201516001600160401b0316908301526040808201516001600160a01b039081169184019190915260608083015115159084015260808083015165ffffffffffff169084015260a09182015116910152565b5f6060820185835265ffffffffffff851660208401526060604084015280845180835260808501915060808160051b8601019250602086015f5b828110156158dd57868503607f19018452815180518652602090810151604082880181905281519088018190529101905f9060608801905b808310156158c5576158ae8285516157ca565b60c08201915060208401935060018301925061589b565b50965050506020938401939190910190600101615863565b509298975050505050505050565b5f8151808452602084019350602083015f5b8281101561593657815180516001600160e01b0316875260209081015163ffffffff1681880152604090960195909101906001016158fd565b5093949350505050565b5f6060820185835265ffffffffffff851660208401526060604084015280845180835260808501915060808160051b8601019250602086015f5b828110156158dd57868503607f19018452815180516001600160a01b039081168752602080830151909116908701526040808201516080918801829052906159c4908801826158eb565b90506060820151915086810360608801526159df81836158eb565b96505050602093840193919091019060010161597a565b5f8235603e198336030181126151ff575f5ffd5b5f60408236031215615a1a575f5ffd5b615a226147b3565b8235615a2d81613ff6565b815260208301356001600160401b03811115615a47575f5ffd5b830136601f820112615a57575f5ffd5b8035615a65614ca782614c42565b80828252602082019150602060608402850101925036831115615a86575f5ffd5b6020840193505b82841015615af85760608436031215615aa4575f5ffd5b615aac61483c565b8435615ab781613ff6565b8152602085013560ff81168114615acc575f5ffd5b60208201526040850135615adf816148ac565b6040820152825260609390930192602090910190615a8d565b60208501525091949350505050565b5f60408201848352604060208401528084518083526060850191506020860192505f5b81811015615b7357835180516001600160a01b0316845260208082015160ff168186015260409182015163ffffffff169185019190915290930192606090920191600101615b2a565b50909695505050505050565b5f60408201848352604060208401528084518083526060850191506020860192505f5b81811015615b735783516001600160a01b0316835260209384019390920191600101615ba2565b5f82518060208501845e5f920191825250919050565b8381526101608101615bf46020830185613d81565b6001600160a01b0392909216610140919091015292915050565b5f60208284031215615c1e575f5ffd5b81516001600160401b03811115615c33575f5ffd5b8201601f81018413615c43575f5ffd5b8051615c51614ca782614c42565b80828252602082019150602060c08402850101925086831115615c72575f5ffd5b6020840193505b82841015614cfb5760c08488031215615c90575f5ffd5b615c986147d5565b8451615ca3816148ac565b81526020850151615cb381614d4f565b60208201526040850151615cc681613ff6565b60408201526060850151615cd98161440c565b60608201526080850151615cec8161488e565b608082015260a0850151615cff81613ff6565b60a0820152825260c09390930192602090910190615c79565b81516001600160a01b031681526020808301519082015260408083015190820152606080830151908201526080808301519082015260a082810151610160830191615d65908401826157ca565b5092915050565b6001600160a01b03841681526060602082018190525f90615d8f908301856144ef565b905060018060a01b0383166040830152949350505050565b6001600160a01b0387811682526001600160401b03871660208301528581166040830152606082018590528316608082015260c060a082018190525f9061115f908301846144ef565b615dfa81866157ca565b8360c082015261012060e08201525f615e176101208301856144ef565b905060018060a01b03831661010083015295945050505050565b6101008101615e4082866157ca565b60c08201939093526001600160a01b039190911660e090910152919050565b5f5f85851115615e6d575f5ffd5b83861115615e79575f5ffd5b5050820193919092039150565b80356001600160601b03198116906014841015615d65576001600160601b031960149490940360031b84901b1690921692915050565b634e487b7160e01b5f52601260045260245ffdfea164736f6c634300081c000a",
	"gitCommit": "npm:@bananapus/core-v6@1.0.2",
	"gitDirty": false,
	"history": []
}