{
	"format": "sphinx-sol-ct-artifact-1",
	"address": "0x0317c7edc74f14e6ac5d9b5da74ad86041293d2a",
	"sourceName": "node_modules/@bananapus/core-v6/src/JBERC20.sol",
	"contractName": "JBERC20",
	"chainId": "0xaa36a7",
	"abi": [
		{
			"type": "constructor",
			"inputs": [
				{
					"name": "permissions",
					"type": "address",
					"internalType": "contract IJBPermissions"
				},
				{
					"name": "projects",
					"type": "address",
					"internalType": "contract IJBProjects"
				}
			],
			"stateMutability": "nonpayable"
		},
		{
			"type": "function",
			"name": "CLOCK_MODE",
			"inputs": [],
			"outputs": [
				{
					"name": "",
					"type": "string",
					"internalType": "string"
				}
			],
			"stateMutability": "view"
		},
		{
			"type": "function",
			"name": "DOMAIN_SEPARATOR",
			"inputs": [],
			"outputs": [
				{
					"name": "",
					"type": "bytes32",
					"internalType": "bytes32"
				}
			],
			"stateMutability": "view"
		},
		{
			"type": "function",
			"name": "PERMISSIONS",
			"inputs": [],
			"outputs": [
				{
					"name": "",
					"type": "address",
					"internalType": "contract IJBPermissions"
				}
			],
			"stateMutability": "view"
		},
		{
			"type": "function",
			"name": "PROJECTS",
			"inputs": [],
			"outputs": [
				{
					"name": "",
					"type": "address",
					"internalType": "contract IJBProjects"
				}
			],
			"stateMutability": "view"
		},
		{
			"type": "function",
			"name": "allowance",
			"inputs": [
				{
					"name": "owner",
					"type": "address",
					"internalType": "address"
				},
				{
					"name": "spender",
					"type": "address",
					"internalType": "address"
				}
			],
			"outputs": [
				{
					"name": "",
					"type": "uint256",
					"internalType": "uint256"
				}
			],
			"stateMutability": "view"
		},
		{
			"type": "function",
			"name": "approve",
			"inputs": [
				{
					"name": "spender",
					"type": "address",
					"internalType": "address"
				},
				{
					"name": "value",
					"type": "uint256",
					"internalType": "uint256"
				}
			],
			"outputs": [
				{
					"name": "",
					"type": "bool",
					"internalType": "bool"
				}
			],
			"stateMutability": "nonpayable"
		},
		{
			"type": "function",
			"name": "balanceOf",
			"inputs": [
				{
					"name": "account",
					"type": "address",
					"internalType": "address"
				}
			],
			"outputs": [
				{
					"name": "",
					"type": "uint256",
					"internalType": "uint256"
				}
			],
			"stateMutability": "view"
		},
		{
			"type": "function",
			"name": "burn",
			"inputs": [
				{
					"name": "account",
					"type": "address",
					"internalType": "address"
				},
				{
					"name": "amount",
					"type": "uint256",
					"internalType": "uint256"
				}
			],
			"outputs": [],
			"stateMutability": "nonpayable"
		},
		{
			"type": "function",
			"name": "canBeAddedTo",
			"inputs": [
				{
					"name": "",
					"type": "uint256",
					"internalType": "uint256"
				}
			],
			"outputs": [
				{
					"name": "",
					"type": "bool",
					"internalType": "bool"
				}
			],
			"stateMutability": "pure"
		},
		{
			"type": "function",
			"name": "checkpoints",
			"inputs": [
				{
					"name": "account",
					"type": "address",
					"internalType": "address"
				},
				{
					"name": "pos",
					"type": "uint32",
					"internalType": "uint32"
				}
			],
			"outputs": [
				{
					"name": "",
					"type": "tuple",
					"internalType": "struct Checkpoints.Checkpoint208",
					"components": [
						{
							"name": "_key",
							"type": "uint48",
							"internalType": "uint48"
						},
						{
							"name": "_value",
							"type": "uint208",
							"internalType": "uint208"
						}
					]
				}
			],
			"stateMutability": "view"
		},
		{
			"type": "function",
			"name": "clock",
			"inputs": [],
			"outputs": [
				{
					"name": "",
					"type": "uint48",
					"internalType": "uint48"
				}
			],
			"stateMutability": "view"
		},
		{
			"type": "function",
			"name": "decimals",
			"inputs": [],
			"outputs": [
				{
					"name": "",
					"type": "uint8",
					"internalType": "uint8"
				}
			],
			"stateMutability": "view"
		},
		{
			"type": "function",
			"name": "delegate",
			"inputs": [
				{
					"name": "delegatee",
					"type": "address",
					"internalType": "address"
				}
			],
			"outputs": [],
			"stateMutability": "nonpayable"
		},
		{
			"type": "function",
			"name": "delegateBySig",
			"inputs": [
				{
					"name": "delegatee",
					"type": "address",
					"internalType": "address"
				},
				{
					"name": "nonce",
					"type": "uint256",
					"internalType": "uint256"
				},
				{
					"name": "expiry",
					"type": "uint256",
					"internalType": "uint256"
				},
				{
					"name": "v",
					"type": "uint8",
					"internalType": "uint8"
				},
				{
					"name": "r",
					"type": "bytes32",
					"internalType": "bytes32"
				},
				{
					"name": "s",
					"type": "bytes32",
					"internalType": "bytes32"
				}
			],
			"outputs": [],
			"stateMutability": "nonpayable"
		},
		{
			"type": "function",
			"name": "delegates",
			"inputs": [
				{
					"name": "account",
					"type": "address",
					"internalType": "address"
				}
			],
			"outputs": [
				{
					"name": "",
					"type": "address",
					"internalType": "address"
				}
			],
			"stateMutability": "view"
		},
		{
			"type": "function",
			"name": "eip712Domain",
			"inputs": [],
			"outputs": [
				{
					"name": "fields",
					"type": "bytes1",
					"internalType": "bytes1"
				},
				{
					"name": "name",
					"type": "string",
					"internalType": "string"
				},
				{
					"name": "version",
					"type": "string",
					"internalType": "string"
				},
				{
					"name": "chainId",
					"type": "uint256",
					"internalType": "uint256"
				},
				{
					"name": "verifyingContract",
					"type": "address",
					"internalType": "address"
				},
				{
					"name": "salt",
					"type": "bytes32",
					"internalType": "bytes32"
				},
				{
					"name": "extensions",
					"type": "uint256[]",
					"internalType": "uint256[]"
				}
			],
			"stateMutability": "view"
		},
		{
			"type": "function",
			"name": "getPastTotalSupply",
			"inputs": [
				{
					"name": "timepoint",
					"type": "uint256",
					"internalType": "uint256"
				}
			],
			"outputs": [
				{
					"name": "",
					"type": "uint256",
					"internalType": "uint256"
				}
			],
			"stateMutability": "view"
		},
		{
			"type": "function",
			"name": "getPastVotes",
			"inputs": [
				{
					"name": "account",
					"type": "address",
					"internalType": "address"
				},
				{
					"name": "timepoint",
					"type": "uint256",
					"internalType": "uint256"
				}
			],
			"outputs": [
				{
					"name": "",
					"type": "uint256",
					"internalType": "uint256"
				}
			],
			"stateMutability": "view"
		},
		{
			"type": "function",
			"name": "getVotes",
			"inputs": [
				{
					"name": "account",
					"type": "address",
					"internalType": "address"
				}
			],
			"outputs": [
				{
					"name": "",
					"type": "uint256",
					"internalType": "uint256"
				}
			],
			"stateMutability": "view"
		},
		{
			"type": "function",
			"name": "initialize",
			"inputs": [
				{
					"name": "name_",
					"type": "string",
					"internalType": "string"
				},
				{
					"name": "symbol_",
					"type": "string",
					"internalType": "string"
				},
				{
					"name": "tokensAddress",
					"type": "address",
					"internalType": "address"
				}
			],
			"outputs": [],
			"stateMutability": "nonpayable"
		},
		{
			"type": "function",
			"name": "isValidSignature",
			"inputs": [
				{
					"name": "hash",
					"type": "bytes32",
					"internalType": "bytes32"
				},
				{
					"name": "signature",
					"type": "bytes",
					"internalType": "bytes"
				}
			],
			"outputs": [
				{
					"name": "magicValue",
					"type": "bytes4",
					"internalType": "bytes4"
				}
			],
			"stateMutability": "view"
		},
		{
			"type": "function",
			"name": "mint",
			"inputs": [
				{
					"name": "account",
					"type": "address",
					"internalType": "address"
				},
				{
					"name": "amount",
					"type": "uint256",
					"internalType": "uint256"
				}
			],
			"outputs": [],
			"stateMutability": "nonpayable"
		},
		{
			"type": "function",
			"name": "name",
			"inputs": [],
			"outputs": [
				{
					"name": "",
					"type": "string",
					"internalType": "string"
				}
			],
			"stateMutability": "view"
		},
		{
			"type": "function",
			"name": "nonces",
			"inputs": [
				{
					"name": "owner",
					"type": "address",
					"internalType": "address"
				}
			],
			"outputs": [
				{
					"name": "",
					"type": "uint256",
					"internalType": "uint256"
				}
			],
			"stateMutability": "view"
		},
		{
			"type": "function",
			"name": "numCheckpoints",
			"inputs": [
				{
					"name": "account",
					"type": "address",
					"internalType": "address"
				}
			],
			"outputs": [
				{
					"name": "",
					"type": "uint32",
					"internalType": "uint32"
				}
			],
			"stateMutability": "view"
		},
		{
			"type": "function",
			"name": "permit",
			"inputs": [
				{
					"name": "owner",
					"type": "address",
					"internalType": "address"
				},
				{
					"name": "spender",
					"type": "address",
					"internalType": "address"
				},
				{
					"name": "value",
					"type": "uint256",
					"internalType": "uint256"
				},
				{
					"name": "deadline",
					"type": "uint256",
					"internalType": "uint256"
				},
				{
					"name": "v",
					"type": "uint8",
					"internalType": "uint8"
				},
				{
					"name": "r",
					"type": "bytes32",
					"internalType": "bytes32"
				},
				{
					"name": "s",
					"type": "bytes32",
					"internalType": "bytes32"
				}
			],
			"outputs": [],
			"stateMutability": "nonpayable"
		},
		{
			"type": "function",
			"name": "setMetadata",
			"inputs": [
				{
					"name": "name_",
					"type": "string",
					"internalType": "string"
				},
				{
					"name": "symbol_",
					"type": "string",
					"internalType": "string"
				}
			],
			"outputs": [],
			"stateMutability": "nonpayable"
		},
		{
			"type": "function",
			"name": "symbol",
			"inputs": [],
			"outputs": [
				{
					"name": "",
					"type": "string",
					"internalType": "string"
				}
			],
			"stateMutability": "view"
		},
		{
			"type": "function",
			"name": "tokens",
			"inputs": [],
			"outputs": [
				{
					"name": "",
					"type": "address",
					"internalType": "contract IJBTokens"
				}
			],
			"stateMutability": "view"
		},
		{
			"type": "function",
			"name": "totalSupply",
			"inputs": [],
			"outputs": [
				{
					"name": "",
					"type": "uint256",
					"internalType": "uint256"
				}
			],
			"stateMutability": "view"
		},
		{
			"type": "function",
			"name": "transfer",
			"inputs": [
				{
					"name": "to",
					"type": "address",
					"internalType": "address"
				},
				{
					"name": "value",
					"type": "uint256",
					"internalType": "uint256"
				}
			],
			"outputs": [
				{
					"name": "",
					"type": "bool",
					"internalType": "bool"
				}
			],
			"stateMutability": "nonpayable"
		},
		{
			"type": "function",
			"name": "transferFrom",
			"inputs": [
				{
					"name": "from",
					"type": "address",
					"internalType": "address"
				},
				{
					"name": "to",
					"type": "address",
					"internalType": "address"
				},
				{
					"name": "value",
					"type": "uint256",
					"internalType": "uint256"
				}
			],
			"outputs": [
				{
					"name": "",
					"type": "bool",
					"internalType": "bool"
				}
			],
			"stateMutability": "nonpayable"
		},
		{
			"type": "event",
			"name": "Approval",
			"inputs": [
				{
					"name": "owner",
					"type": "address",
					"indexed": true,
					"internalType": "address"
				},
				{
					"name": "spender",
					"type": "address",
					"indexed": true,
					"internalType": "address"
				},
				{
					"name": "value",
					"type": "uint256",
					"indexed": false,
					"internalType": "uint256"
				}
			],
			"anonymous": false
		},
		{
			"type": "event",
			"name": "DelegateChanged",
			"inputs": [
				{
					"name": "delegator",
					"type": "address",
					"indexed": true,
					"internalType": "address"
				},
				{
					"name": "fromDelegate",
					"type": "address",
					"indexed": true,
					"internalType": "address"
				},
				{
					"name": "toDelegate",
					"type": "address",
					"indexed": true,
					"internalType": "address"
				}
			],
			"anonymous": false
		},
		{
			"type": "event",
			"name": "DelegateVotesChanged",
			"inputs": [
				{
					"name": "delegate",
					"type": "address",
					"indexed": true,
					"internalType": "address"
				},
				{
					"name": "previousVotes",
					"type": "uint256",
					"indexed": false,
					"internalType": "uint256"
				},
				{
					"name": "newVotes",
					"type": "uint256",
					"indexed": false,
					"internalType": "uint256"
				}
			],
			"anonymous": false
		},
		{
			"type": "event",
			"name": "EIP712DomainChanged",
			"inputs": [],
			"anonymous": false
		},
		{
			"type": "event",
			"name": "Transfer",
			"inputs": [
				{
					"name": "from",
					"type": "address",
					"indexed": true,
					"internalType": "address"
				},
				{
					"name": "to",
					"type": "address",
					"indexed": true,
					"internalType": "address"
				},
				{
					"name": "value",
					"type": "uint256",
					"indexed": false,
					"internalType": "uint256"
				}
			],
			"anonymous": false
		},
		{
			"type": "error",
			"name": "CheckpointUnorderedInsertion",
			"inputs": []
		},
		{
			"type": "error",
			"name": "ECDSAInvalidSignature",
			"inputs": []
		},
		{
			"type": "error",
			"name": "ECDSAInvalidSignatureLength",
			"inputs": [
				{
					"name": "length",
					"type": "uint256",
					"internalType": "uint256"
				}
			]
		},
		{
			"type": "error",
			"name": "ECDSAInvalidSignatureS",
			"inputs": [
				{
					"name": "s",
					"type": "bytes32",
					"internalType": "bytes32"
				}
			]
		},
		{
			"type": "error",
			"name": "ERC20ExceededSafeSupply",
			"inputs": [
				{
					"name": "increasedSupply",
					"type": "uint256",
					"internalType": "uint256"
				},
				{
					"name": "cap",
					"type": "uint256",
					"internalType": "uint256"
				}
			]
		},
		{
			"type": "error",
			"name": "ERC20InsufficientAllowance",
			"inputs": [
				{
					"name": "spender",
					"type": "address",
					"internalType": "address"
				},
				{
					"name": "allowance",
					"type": "uint256",
					"internalType": "uint256"
				},
				{
					"name": "needed",
					"type": "uint256",
					"internalType": "uint256"
				}
			]
		},
		{
			"type": "error",
			"name": "ERC20InsufficientBalance",
			"inputs": [
				{
					"name": "sender",
					"type": "address",
					"internalType": "address"
				},
				{
					"name": "balance",
					"type": "uint256",
					"internalType": "uint256"
				},
				{
					"name": "needed",
					"type": "uint256",
					"internalType": "uint256"
				}
			]
		},
		{
			"type": "error",
			"name": "ERC20InvalidApprover",
			"inputs": [
				{
					"name": "approver",
					"type": "address",
					"internalType": "address"
				}
			]
		},
		{
			"type": "error",
			"name": "ERC20InvalidReceiver",
			"inputs": [
				{
					"name": "receiver",
					"type": "address",
					"internalType": "address"
				}
			]
		},
		{
			"type": "error",
			"name": "ERC20InvalidSender",
			"inputs": [
				{
					"name": "sender",
					"type": "address",
					"internalType": "address"
				}
			]
		},
		{
			"type": "error",
			"name": "ERC20InvalidSpender",
			"inputs": [
				{
					"name": "spender",
					"type": "address",
					"internalType": "address"
				}
			]
		},
		{
			"type": "error",
			"name": "ERC2612ExpiredSignature",
			"inputs": [
				{
					"name": "deadline",
					"type": "uint256",
					"internalType": "uint256"
				}
			]
		},
		{
			"type": "error",
			"name": "ERC2612InvalidSigner",
			"inputs": [
				{
					"name": "signer",
					"type": "address",
					"internalType": "address"
				},
				{
					"name": "owner",
					"type": "address",
					"internalType": "address"
				}
			]
		},
		{
			"type": "error",
			"name": "ERC5805FutureLookup",
			"inputs": [
				{
					"name": "timepoint",
					"type": "uint256",
					"internalType": "uint256"
				},
				{
					"name": "clock",
					"type": "uint48",
					"internalType": "uint48"
				}
			]
		},
		{
			"type": "error",
			"name": "ERC6372InconsistentClock",
			"inputs": []
		},
		{
			"type": "error",
			"name": "InvalidAccountNonce",
			"inputs": [
				{
					"name": "account",
					"type": "address",
					"internalType": "address"
				},
				{
					"name": "currentNonce",
					"type": "uint256",
					"internalType": "uint256"
				}
			]
		},
		{
			"type": "error",
			"name": "InvalidShortString",
			"inputs": []
		},
		{
			"type": "error",
			"name": "JBERC20_AlreadyInitialized",
			"inputs": [
				{
					"name": "currentNameLength",
					"type": "uint256",
					"internalType": "uint256"
				},
				{
					"name": "newNameLength",
					"type": "uint256",
					"internalType": "uint256"
				}
			]
		},
		{
			"type": "error",
			"name": "JBERC20_Unauthorized",
			"inputs": [
				{
					"name": "caller",
					"type": "address",
					"internalType": "address"
				},
				{
					"name": "tokens",
					"type": "address",
					"internalType": "address"
				}
			]
		},
		{
			"type": "error",
			"name": "JBPermissioned_Unauthorized",
			"inputs": [
				{
					"name": "account",
					"type": "address",
					"internalType": "address"
				},
				{
					"name": "sender",
					"type": "address",
					"internalType": "address"
				},
				{
					"name": "projectId",
					"type": "uint256",
					"internalType": "uint256"
				},
				{
					"name": "permissionId",
					"type": "uint256",
					"internalType": "uint256"
				}
			]
		},
		{
			"type": "error",
			"name": "SafeCastOverflowedUintDowncast",
			"inputs": [
				{
					"name": "bits",
					"type": "uint8",
					"internalType": "uint8"
				},
				{
					"name": "value",
					"type": "uint256",
					"internalType": "uint256"
				}
			]
		},
		{
			"type": "error",
			"name": "StringTooLong",
			"inputs": [
				{
					"name": "str",
					"type": "string",
					"internalType": "string"
				}
			]
		},
		{
			"type": "error",
			"name": "VotesExpiredSignature",
			"inputs": [
				{
					"name": "expiry",
					"type": "uint256",
					"internalType": "uint256"
				}
			]
		}
	],
	"args": [],
	"solcInputHash": "d854fd1105fc7bcdb8e5835317be42c6",
	"bytecode": "0x6101a0604052348015610010575f5ffd5b50604051612a4c380380612a4c83398101604081905261002f91610257565b816040518060400160405280600781526020016625212a37b5b2b760c91b81525080604051806040016040528060018152602001603160f81b815250604051806040016040528060078152602001661a5b9d985b1a5960ca1b815250604051806040016040528060078152602001661a5b9d985b1a5960ca1b81525081600390816100ba9190610327565b5060046100c78282610327565b506100d7915083905060056101c8565b610120526100e68160066101c8565b61014052815160208084019190912060e052815190820120610100524660a05261017260e05161010051604080517f8b73c3c69bb8fe3d512ecc4cf759cc79239f7b179b0ffacaa9a75d522b39400f60208201529081019290925260608201524660808201523060a08201525f9060c00160405160208183030381529060405280519060200120905090565b60805250503060c052506001600160a01b0316610160526040805180820190915260078152661a5b9d985b1a5960ca1b6020820152600c906101b49082610327565b506001600160a01b03166101805250610439565b5f6020835110156101e3576101dc836101fa565b90506101f4565b816101ee8482610327565b5060ff90505b92915050565b5f5f829050601f8151111561022d578260405163305a27a960e01b815260040161022491906103e1565b60405180910390fd5b805161023882610416565b179392505050565b6001600160a01b0381168114610254575f5ffd5b50565b5f5f60408385031215610268575f5ffd5b825161027381610240565b602084015190925061028481610240565b809150509250929050565b634e487b7160e01b5f52604160045260245ffd5b600181811c908216806102b757607f821691505b6020821081036102d557634e487b7160e01b5f52602260045260245ffd5b50919050565b601f82111561032257805f5260205f20601f840160051c810160208510156103005750805b601f840160051c820191505b8181101561031f575f815560010161030c565b50505b505050565b81516001600160401b038111156103405761034061028f565b6103548161034e84546102a3565b846102db565b6020601f821160018114610386575f831561036f5750848201515b5f19600385901b1c1916600184901b17845561031f565b5f84815260208120601f198516915b828110156103b55787850151825560209485019460019092019101610395565b50848210156103d257868401515f19600387901b60f8161c191681555b50505050600190811b01905550565b602081525f82518060208401528060208501604085015e5f604082850101526040601f19601f83011684010191505092915050565b805160208083015191908110156102d5575f1960209190910360031b1b16919050565b60805160a05160c05160e05161010051610120516101405161016051610180516125a06104ac5f395f818161029b015261073e01525f818161050f0152610d7801525f61120b01525f6111de01525f610f9c01525f610f7401525f610ecf01525f610ef901525f610f2301526125a05ff3fe608060405234801561000f575f5ffd5b50600436106101e7575f3560e01c80636fcfff45116101095780639d63848a1161009e578063d505accf1161006e578063d505accf14610480578063dd62ed3e14610493578063f1127ed8146104cb578063f434c9141461050a575f5ffd5b80639d63848a146104345780639dc29fac14610447578063a9059cbb1461045a578063c3cda5201461046d575f5ffd5b80638e539e8c116100d95780638e539e8c146103e757806391ddadf4146103fa57806395d89b41146104195780639ab24eb014610421575f5ffd5b80636fcfff451461037e57806370a08231146103a65780637ecebe00146103b957806384b0196e146103cc575f5ffd5b80633644e5151161017f57806351335b501161014f57806351335b501461031a578063587cde1e1461032d5780635c19a95c146103585780636e5fe1f21461036b575f5ffd5b80633644e515146102e45780633a46b1a8146102ec57806340c10f19146102ff5780634bf5d7e914610312575f5ffd5b806318160ddd116101ba57806318160ddd1461026d57806323b872dd14610283578063293c499914610296578063313ce567146102d5575f5ffd5b806306fdde03146101eb578063077f224a14610209578063095ea7b31461021e5780631626ba7e14610241575b5f5ffd5b6101f3610531565b6040516102009190611ee4565b60405180910390f35b61021c610217366004611fb6565b6105c1565b005b61023161022c36600461202e565b61065a565b6040519015158152602001610200565b61025461024f366004612058565b610673565b6040516001600160e01b03199091168152602001610200565b6102756107e3565b604051908152602001610200565b6102316102913660046120af565b6107f2565b6102bd7f000000000000000000000000000000000000000000000000000000000000000081565b6040516001600160a01b039091168152602001610200565b60405160128152602001610200565b610275610815565b6102756102fa36600461202e565b61081e565b61021c61030d36600461202e565b610858565b6101f36108a6565b61021c6103283660046120ed565b61091e565b6102bd61033b366004612148565b6001600160a01b039081165f908152600860205260409020541690565b61021c610366366004612148565b61097c565b610231610379366004612163565b505f90565b61039161038c366004612148565b610987565b60405163ffffffff9091168152602001610200565b6102756103b4366004612148565b610991565b6102756103c7366004612148565b6109ae565b6103d46109b8565b604051610200979695949392919061217a565b6102756103f5366004612163565b6109fa565b610402610a1e565b60405165ffffffffffff9091168152602001610200565b6101f3610a27565b61027561042f366004612148565b610a36565b600b546102bd906001600160a01b031681565b61021c61045536600461202e565b610a56565b61023161046836600461202e565b610aa0565b61021c61047b366004612225565b610aad565b61021c61048e36600461227b565b610b69565b6102756104a13660046122e5565b6001600160a01b039182165f90815260016020908152604080832093909416825291909152205490565b6104de6104d936600461231c565b610c9f565b60408051825165ffffffffffff1681526020928301516001600160d01b03169281019290925201610200565b6102bd7f000000000000000000000000000000000000000000000000000000000000000081565b6060600c805461054090612350565b80601f016020809104026020016040519081016040528092919081815260200182805461056c90612350565b80156105b75780601f1061058e576101008083540402835291602001916105b7565b820191905f5260205f20905b81548152906001019060200180831161059a57829003601f168201915b5050505050905090565b600c80546105ce90612350565b15159050806105dc57508251155b1561061c57600c80546105ee90612350565b8451604051638464d66f60e01b81526106139350600401918252602082015260400190565b60405180910390fd5b600c61062884826123d3565b50600d61063583826123d3565b50600b80546001600160a01b0319166001600160a01b03929092169190911790555050565b5f33610667818585610cc3565b60019150505b92915050565b5f5f5f6106808585610cd0565b5090925090505f8160038111156106995761069961248e565b146106b157506001600160e01b0319915061066d9050565b600b54604051630f85421b60e01b81523060048201525f916001600160a01b031690630f85421b90602401602060405180830381865afa1580156106f7573d5f5f3e3d5ffd5b505050506040513d601f19601f8201168201806040525081019061071b91906124a2565b6040516331a9108f60e11b8152600481018290529091505f906001600160a01b037f00000000000000000000000000000000000000000000000000000000000000001690636352211e90602401602060405180830381865afa158015610783573d5f5f3e3d5ffd5b505050506040513d601f19601f820116820180604052508101906107a791906124b9565b90506107b68482846017610d19565b156107cf5750630b135d3f60e11b935061066d92505050565b506001600160e01b03199695505050505050565b5f6107ed60025490565b905090565b5f336107ff858285610dea565b61080a858585610e66565b506001949350505050565b5f6107ed610ec3565b5f61084861082b83610fec565b6001600160a01b0385165f9081526009602052604090209061103a565b6001600160d01b03169392505050565b600b546001600160a01b0316331461089857600b546040516355f75f5d60e01b81523360048201526001600160a01b039091166024820152604401610613565b6108a282826110ea565b5050565b60606108b061111e565b65ffffffffffff166108c0610a1e565b65ffffffffffff16146108e6576040516301bfc1c560e61b815260040160405180910390fd5b5060408051808201909152601d81527f6d6f64653d626c6f636b6e756d6265722666726f6d3d64656661756c74000000602082015290565b600b546001600160a01b0316331461095e57600b546040516355f75f5d60e01b81523360048201526001600160a01b039091166024820152604401610613565b600c61096a83826123d3565b50600d61097782826123d3565b505050565b336108a28183611128565b5f61066d82611199565b6001600160a01b0381165f9081526020819052604081205461066d565b5f61066d826111ba565b5f6060805f5f5f60606109c96111d7565b6109d1611204565b604080515f80825260208201909252600f60f81b9b939a50919850469750309650945092509050565b5f610a0f610a0783610fec565b600a9061103a565b6001600160d01b031692915050565b5f6107ed61111e565b6060600d805461054090612350565b6001600160a01b0381165f908152600960205260408120610a0f90611231565b600b546001600160a01b03163314610a9657600b546040516355f75f5d60e01b81523360048201526001600160a01b039091166024820152604401610613565b6108a28282611268565b5f33610667818585610e66565b83421115610ad157604051632341d78760e11b815260048101859052602401610613565b604080517fe48329057bfd03d55e49b547132e39cffd9c1820ad7b9d4c5307691425d15adf60208201526001600160a01b0388169181019190915260608101869052608081018590525f90610b4a90610b429060a0016040516020818303038152906040528051906020012061129c565b8585856112c8565b9050610b5681876112f4565b610b608188611128565b50505050505050565b83421115610b8d5760405163313c898160e11b815260048101859052602401610613565b5f7f6e71edae12b1b97f4d1f60370fef10105fa2faae0126114a169c64845d6126c9888888610bd88c6001600160a01b03165f90815260076020526040902080546001810190915590565b6040805160208101969096526001600160a01b0394851690860152929091166060840152608083015260a082015260c0810186905260e0016040516020818303038152906040528051906020012090505f610c328261129c565b90505f610c41828787876112c8565b9050896001600160a01b0316816001600160a01b031614610c88576040516325c0072360e11b81526001600160a01b0380831660048301528b166024820152604401610613565b610c938a8a8a610cc3565b50505050505050505050565b604080518082019091525f8082526020820152610cbc8383611346565b9392505050565b610977838383600161137a565b5f5f5f8351604103610d07576020840151604085015160608601515f1a610cf98882858561144c565b955095509550505050610d12565b505081515f91506002905b9250925092565b5f836001600160a01b0316856001600160a01b03161480610de15750604051631a45b42760e11b81526001600160a01b0386811660048301528581166024830152604482018590526064820184905260016084830181905260a48301527f0000000000000000000000000000000000000000000000000000000000000000169063348b684e9060c401602060405180830381865afa158015610dbd573d5f5f3e3d5ffd5b505050506040513d601f19601f82011682018060405250810190610de191906124d4565b95945050505050565b6001600160a01b038381165f908152600160209081526040808320938616835292905220545f19811015610e605781811015610e5257604051637dc7a0d960e11b81526001600160a01b03841660048201526024810182905260448101839052606401610613565b610e6084848484035f61137a565b50505050565b6001600160a01b038316610e8f57604051634b637e8f60e11b81525f6004820152602401610613565b6001600160a01b038216610eb85760405163ec442f0560e01b81525f6004820152602401610613565b610977838383611514565b5f306001600160a01b037f000000000000000000000000000000000000000000000000000000000000000016148015610f1b57507f000000000000000000000000000000000000000000000000000000000000000046145b15610f4557507f000000000000000000000000000000000000000000000000000000000000000090565b6107ed604080517f8b73c3c69bb8fe3d512ecc4cf759cc79239f7b179b0ffacaa9a75d522b39400f60208201527f0000000000000000000000000000000000000000000000000000000000000000918101919091527f000000000000000000000000000000000000000000000000000000000000000060608201524660808201523060a08201525f9060c00160405160208183030381529060405280519060200120905090565b5f5f610ff6610a1e565b90508065ffffffffffff16831061103157604051637669fc0f60e11b81526004810184905265ffffffffffff82166024820152604401610613565b610cbc8361151f565b81545f9081816005811115611096575f61105384611555565b61105d9085612507565b5f8881526020902090915081015465ffffffffffff908116908716101561108657809150611094565b61109181600161251a565b92505b505b5f6110a3878785856116ad565b905080156110dd576110c7876110ba600184612507565b5f91825260209091200190565b54600160301b90046001600160d01b03166110df565b5f5b979650505050505050565b6001600160a01b0382166111135760405163ec442f0560e01b81525f6004820152602401610613565b6108a25f8383611514565b5f6107ed4361151f565b6001600160a01b038281165f8181526008602052604080822080548686166001600160a01b0319821681179092559151919094169392849290917f3134e8a2e6d97e929a7e54011ea5485d7d196dd5f0ba4d4ef95803e8e3fc257f9190a4610977818361119486611703565b61170d565b6001600160a01b0381165f9081526009602052604081205461066d90611876565b6001600160a01b0381165f9081526007602052604081205461066d565b60606107ed7f000000000000000000000000000000000000000000000000000000000000000060056118a6565b60606107ed7f000000000000000000000000000000000000000000000000000000000000000060066118a6565b80545f9080156112605761124a836110ba600184612507565b54600160301b90046001600160d01b0316610cbc565b5f9392505050565b6001600160a01b03821661129157604051634b637e8f60e11b81525f6004820152602401610613565b6108a2825f83611514565b5f61066d6112a8610ec3565b8360405161190160f01b8152600281019290925260228201526042902090565b5f5f5f5f6112d88888888861144c565b9250925092506112e8828261194f565b50909695505050505050565b6001600160a01b0382165f908152600760205260409020805460018101909155818114610977576040516301d4b62360e61b81526001600160a01b038416600482015260248101829052604401610613565b604080518082019091525f80825260208201526001600160a01b0383165f908152600960205260409020610cbc9083611a07565b6001600160a01b0384166113a35760405163e602df0560e01b81525f6004820152602401610613565b6001600160a01b0383166113cc57604051634a1406b160e11b81525f6004820152602401610613565b6001600160a01b038085165f9081526001602090815260408083209387168352929052208290558015610e6057826001600160a01b0316846001600160a01b03167f8c5be1e5ebec7d5bd14f71427d1e84f3dd0314c0f7b2291e5b200ac8c7c3b9258460405161143e91815260200190565b60405180910390a350505050565b5f80807f7fffffffffffffffffffffffffffffff5d576e7357a4501ddfe92f46681b20a084111561148557505f9150600390508261150a565b604080515f808252602082018084528a905260ff891692820192909252606081018790526080810186905260019060a0016020604051602081039080840390855afa1580156114d6573d5f5f3e3d5ffd5b5050604051601f1901519150506001600160a01b03811661150157505f92506001915082905061150a565b92505f91508190505b9450945094915050565b610977838383611a74565b5f65ffffffffffff821115611551576040516306dfcc6560e41b81526030600482015260248101839052604401610613565b5090565b5f60018211611562575090565b816001600160801b821061157b5760809190911c9060401b5b6801000000000000000082106115965760409190911c9060201b5b64010000000082106115ad5760209190911c9060101b5b6201000082106115c25760109190911c9060081b5b61010082106115d65760089190911c9060041b5b601082106115e95760049190911c9060021b5b600482106115f55760011b5b600302600190811c9081858161160d5761160d61252d565b048201901c905060018185816116255761162561252d565b048201901c9050600181858161163d5761163d61252d565b048201901c905060018185816116555761165561252d565b048201901c9050600181858161166d5761166d61252d565b048201901c905060018185816116855761168561252d565b048201901c90506116a481858161169e5761169e61252d565b04821190565b90039392505050565b5f5b818310156116fb575f85815260209020838316600285851804019081015465ffffffffffff868116911611156116e7578092506116f5565b6116f281600161251a565b93505b506116af565b509392505050565b5f61066d82610991565b816001600160a01b0316836001600160a01b03161415801561172e57505f81115b15610977576001600160a01b038316156117d5576001600160a01b0383165f908152600960205260408120819061177090611ad961176b86611ae4565b611b17565b6001600160d01b031691506001600160d01b03169150846001600160a01b03167fdec2bacdd2f05b59de34da9b523dff8be42e5e38e818c82fdb0bae774387a72483836040516117ca929190918252602082015260400190565b60405180910390a250505b6001600160a01b03821615610977576001600160a01b0382165f908152600960205260408120819061180d90611b4f61176b86611ae4565b6001600160d01b031691506001600160d01b03169150836001600160a01b03167fdec2bacdd2f05b59de34da9b523dff8be42e5e38e818c82fdb0bae774387a7248383604051611867929190918252602082015260400190565b60405180910390a25050505050565b5f63ffffffff821115611551576040516306dfcc6560e41b81526020600482015260248101839052604401610613565b606060ff83146118c0576118b983611b5a565b905061066d565b8180546118cc90612350565b80601f01602080910402602001604051908101604052809291908181526020018280546118f890612350565b80156119435780601f1061191a57610100808354040283529160200191611943565b820191905f5260205f20905b81548152906001019060200180831161192657829003601f168201915b5050505050905061066d565b5f8260038111156119625761196261248e565b0361196b575050565b600182600381111561197f5761197f61248e565b0361199d5760405163f645eedf60e01b815260040160405180910390fd5b60028260038111156119b1576119b161248e565b036119d25760405163fce698f760e01b815260048101829052602401610613565b60038260038111156119e6576119e661248e565b036108a2576040516335e2f38360e21b815260048101829052602401610613565b604080518082019091525f8082526020820152825f018263ffffffff1681548110611a3457611a34612541565b5f9182526020918290206040805180820190915291015465ffffffffffff81168252600160301b90046001600160d01b0316918101919091529392505050565b611a7f838383611b97565b6001600160a01b038316611ace575f611a966107e3565b90506001600160d01b0380821115611acb57604051630e58ae9360e11b81526004810183905260248101829052604401610613565b50505b610977838383611cbd565b5f610cbc8284612555565b5f6001600160d01b03821115611551576040516306dfcc6560e41b815260d0600482015260248101839052604401610613565b5f5f611b42611b24610a1e565b611b3a611b3088611231565b868863ffffffff16565b879190611d32565b915091505b935093915050565b5f610cbc8284612574565b60605f611b6683611d3f565b6040805160208082528183019092529192505f91906020820181803683375050509182525060208101929092525090565b6001600160a01b038316611bc1578060025f828254611bb6919061251a565b90915550611c319050565b6001600160a01b0383165f9081526020819052604090205481811015611c135760405163391434e360e21b81526001600160a01b03851660048201526024810182905260448101839052606401610613565b6001600160a01b0384165f9081526020819052604090209082900390555b6001600160a01b038216611c4d57600280548290039055611c6b565b6001600160a01b0382165f9081526020819052604090208054820190555b816001600160a01b0316836001600160a01b03167fddf252ad1be2c89b69c2b068fc378daa952ba7f163c4a11628f55a4df523b3ef83604051611cb091815260200190565b60405180910390a3505050565b6001600160a01b038316611cdf57611cdc600a611b4f61176b84611ae4565b50505b6001600160a01b038216611d0157611cfe600a611ad961176b84611ae4565b50505b6001600160a01b038381165f908152600860205260408082205485841683529120546109779291821691168361170d565b5f80611b42858585611d66565b5f60ff8216601f81111561066d57604051632cd44ac360e21b815260040160405180910390fd5b82545f9081908015611e5c575f611d82876110ba600185612507565b805490915065ffffffffffff80821691600160301b90046001600160d01b0316908816821115611dc557604051632520601d60e01b815260040160405180910390fd5b8765ffffffffffff168265ffffffffffff1603611dfe57825465ffffffffffff16600160301b6001600160d01b03891602178355611e4e565b6040805180820190915265ffffffffffff808a1682526001600160d01b03808a1660208085019182528d54600181018f555f8f81529190912094519151909216600160301b029216919091179101555b9450859350611b4792505050565b50506040805180820190915265ffffffffffff80851682526001600160d01b0380851660208085019182528854600181018a555f8a815291822095519251909316600160301b029190931617920191909155905081611b47565b5f81518084528060208401602086015e5f602082860101526020601f19601f83011685010191505092915050565b602081525f610cbc6020830184611eb6565b634e487b7160e01b5f52604160045260245ffd5b5f5f67ffffffffffffffff841115611f2457611f24611ef6565b50604051601f19601f85018116603f0116810181811067ffffffffffffffff82111715611f5357611f53611ef6565b604052838152905080828401851015611f6a575f5ffd5b838360208301375f60208583010152509392505050565b5f82601f830112611f90575f5ffd5b610cbc83833560208501611f0a565b6001600160a01b0381168114611fb3575f5ffd5b50565b5f5f5f60608486031215611fc8575f5ffd5b833567ffffffffffffffff811115611fde575f5ffd5b611fea86828701611f81565b935050602084013567ffffffffffffffff811115612006575f5ffd5b61201286828701611f81565b925050604084013561202381611f9f565b809150509250925092565b5f5f6040838503121561203f575f5ffd5b823561204a81611f9f565b946020939093013593505050565b5f5f60408385031215612069575f5ffd5b82359150602083013567ffffffffffffffff811115612086575f5ffd5b8301601f81018513612096575f5ffd5b6120a585823560208401611f0a565b9150509250929050565b5f5f5f606084860312156120c1575f5ffd5b83356120cc81611f9f565b925060208401356120dc81611f9f565b929592945050506040919091013590565b5f5f604083850312156120fe575f5ffd5b823567ffffffffffffffff811115612114575f5ffd5b61212085828601611f81565b925050602083013567ffffffffffffffff81111561213c575f5ffd5b6120a585828601611f81565b5f60208284031215612158575f5ffd5b8135610cbc81611f9f565b5f60208284031215612173575f5ffd5b5035919050565b60ff60f81b8816815260e060208201525f61219860e0830189611eb6565b82810360408401526121aa8189611eb6565b606084018890526001600160a01b038716608085015260a0840186905283810360c0850152845180825260208087019350909101905f5b818110156121ff5783518352602093840193909201916001016121e1565b50909b9a5050505050505050505050565b803560ff81168114612220575f5ffd5b919050565b5f5f5f5f5f5f60c0878903121561223a575f5ffd5b863561224581611f9f565b9550602087013594506040870135935061226160608801612210565b9598949750929560808101359460a0909101359350915050565b5f5f5f5f5f5f5f60e0888a031215612291575f5ffd5b873561229c81611f9f565b965060208801356122ac81611f9f565b955060408801359450606088013593506122c860808901612210565b9699959850939692959460a0840135945060c09093013592915050565b5f5f604083850312156122f6575f5ffd5b823561230181611f9f565b9150602083013561231181611f9f565b809150509250929050565b5f5f6040838503121561232d575f5ffd5b823561233881611f9f565b9150602083013563ffffffff81168114612311575f5ffd5b600181811c9082168061236457607f821691505b60208210810361238257634e487b7160e01b5f52602260045260245ffd5b50919050565b601f82111561097757805f5260205f20601f840160051c810160208510156123ad5750805b601f840160051c820191505b818110156123cc575f81556001016123b9565b5050505050565b815167ffffffffffffffff8111156123ed576123ed611ef6565b612401816123fb8454612350565b84612388565b6020601f821160018114612433575f831561241c5750848201515b5f19600385901b1c1916600184901b1784556123cc565b5f84815260208120601f198516915b828110156124625787850151825560209485019460019092019101612442565b508482101561247f57868401515f19600387901b60f8161c191681555b50505050600190811b01905550565b634e487b7160e01b5f52602160045260245ffd5b5f602082840312156124b2575f5ffd5b5051919050565b5f602082840312156124c9575f5ffd5b8151610cbc81611f9f565b5f602082840312156124e4575f5ffd5b81518015158114610cbc575f5ffd5b634e487b7160e01b5f52601160045260245ffd5b8181038181111561066d5761066d6124f3565b8082018082111561066d5761066d6124f3565b634e487b7160e01b5f52601260045260245ffd5b634e487b7160e01b5f52603260045260245ffd5b6001600160d01b03828116828216039081111561066d5761066d6124f3565b6001600160d01b03818116838216019081111561066d5761066d6124f356fea164736f6c634300081c000a",
	"gitCommit": "npm:@bananapus/core-v6@0.0.82",
	"gitDirty": false,
	"history": []
}