{
	"format": "sphinx-sol-ct-artifact-1",
	"address": "0xa2bc991414fed5f9603a55d1355062b31b7695c8",
	"sourceName": "node_modules/@bananapus/univ4-router-v6/src/JBUniswapV4Hook.sol",
	"contractName": "JBUniswapV4Hook",
	"chainId": "0xaa36a7",
	"abi": [
		{
			"type": "constructor",
			"inputs": [
				{
					"name": "poolManager",
					"type": "address",
					"internalType": "contract IPoolManager"
				},
				{
					"name": "tokens",
					"type": "address",
					"internalType": "contract IJBTokens"
				},
				{
					"name": "directory",
					"type": "address",
					"internalType": "contract IJBDirectory"
				},
				{
					"name": "prices",
					"type": "address",
					"internalType": "contract IJBPrices"
				}
			],
			"stateMutability": "nonpayable"
		},
		{
			"type": "receive",
			"stateMutability": "payable"
		},
		{
			"type": "function",
			"name": "DIRECTORY",
			"inputs": [],
			"outputs": [
				{
					"name": "",
					"type": "address",
					"internalType": "contract IJBDirectory"
				}
			],
			"stateMutability": "view"
		},
		{
			"type": "function",
			"name": "JB_NATIVE_TOKEN",
			"inputs": [],
			"outputs": [
				{
					"name": "",
					"type": "address",
					"internalType": "address"
				}
			],
			"stateMutability": "view"
		},
		{
			"type": "function",
			"name": "MAX_TWAP_CARDINALITY",
			"inputs": [],
			"outputs": [
				{
					"name": "",
					"type": "uint16",
					"internalType": "uint16"
				}
			],
			"stateMutability": "view"
		},
		{
			"type": "function",
			"name": "MAX_V4_DELTA",
			"inputs": [],
			"outputs": [
				{
					"name": "",
					"type": "uint256",
					"internalType": "uint256"
				}
			],
			"stateMutability": "view"
		},
		{
			"type": "function",
			"name": "PRICES",
			"inputs": [],
			"outputs": [
				{
					"name": "",
					"type": "address",
					"internalType": "contract IJBPrices"
				}
			],
			"stateMutability": "view"
		},
		{
			"type": "function",
			"name": "TOKENS",
			"inputs": [],
			"outputs": [
				{
					"name": "",
					"type": "address",
					"internalType": "contract IJBTokens"
				}
			],
			"stateMutability": "view"
		},
		{
			"type": "function",
			"name": "TWAP_PERIOD",
			"inputs": [],
			"outputs": [
				{
					"name": "",
					"type": "uint32",
					"internalType": "uint32"
				}
			],
			"stateMutability": "view"
		},
		{
			"type": "function",
			"name": "TWAP_SLIPPAGE_DENOMINATOR",
			"inputs": [],
			"outputs": [
				{
					"name": "",
					"type": "uint256",
					"internalType": "uint256"
				}
			],
			"stateMutability": "view"
		},
		{
			"type": "function",
			"name": "UNISWAP_NATIVE_ETH",
			"inputs": [],
			"outputs": [
				{
					"name": "",
					"type": "address",
					"internalType": "address"
				}
			],
			"stateMutability": "view"
		},
		{
			"type": "function",
			"name": "afterAddLiquidity",
			"inputs": [
				{
					"name": "sender",
					"type": "address",
					"internalType": "address"
				},
				{
					"name": "key",
					"type": "tuple",
					"internalType": "struct PoolKey",
					"components": [
						{
							"name": "currency0",
							"type": "address",
							"internalType": "Currency"
						},
						{
							"name": "currency1",
							"type": "address",
							"internalType": "Currency"
						},
						{
							"name": "fee",
							"type": "uint24",
							"internalType": "uint24"
						},
						{
							"name": "tickSpacing",
							"type": "int24",
							"internalType": "int24"
						},
						{
							"name": "hooks",
							"type": "address",
							"internalType": "contract IHooks"
						}
					]
				},
				{
					"name": "params",
					"type": "tuple",
					"internalType": "struct ModifyLiquidityParams",
					"components": [
						{
							"name": "tickLower",
							"type": "int24",
							"internalType": "int24"
						},
						{
							"name": "tickUpper",
							"type": "int24",
							"internalType": "int24"
						},
						{
							"name": "liquidityDelta",
							"type": "int256",
							"internalType": "int256"
						},
						{
							"name": "salt",
							"type": "bytes32",
							"internalType": "bytes32"
						}
					]
				},
				{
					"name": "delta",
					"type": "int256",
					"internalType": "BalanceDelta"
				},
				{
					"name": "feesAccrued",
					"type": "int256",
					"internalType": "BalanceDelta"
				},
				{
					"name": "hookData",
					"type": "bytes",
					"internalType": "bytes"
				}
			],
			"outputs": [
				{
					"name": "",
					"type": "bytes4",
					"internalType": "bytes4"
				},
				{
					"name": "",
					"type": "int256",
					"internalType": "BalanceDelta"
				}
			],
			"stateMutability": "nonpayable"
		},
		{
			"type": "function",
			"name": "afterDonate",
			"inputs": [
				{
					"name": "sender",
					"type": "address",
					"internalType": "address"
				},
				{
					"name": "key",
					"type": "tuple",
					"internalType": "struct PoolKey",
					"components": [
						{
							"name": "currency0",
							"type": "address",
							"internalType": "Currency"
						},
						{
							"name": "currency1",
							"type": "address",
							"internalType": "Currency"
						},
						{
							"name": "fee",
							"type": "uint24",
							"internalType": "uint24"
						},
						{
							"name": "tickSpacing",
							"type": "int24",
							"internalType": "int24"
						},
						{
							"name": "hooks",
							"type": "address",
							"internalType": "contract IHooks"
						}
					]
				},
				{
					"name": "amount0",
					"type": "uint256",
					"internalType": "uint256"
				},
				{
					"name": "amount1",
					"type": "uint256",
					"internalType": "uint256"
				},
				{
					"name": "hookData",
					"type": "bytes",
					"internalType": "bytes"
				}
			],
			"outputs": [
				{
					"name": "",
					"type": "bytes4",
					"internalType": "bytes4"
				}
			],
			"stateMutability": "nonpayable"
		},
		{
			"type": "function",
			"name": "afterInitialize",
			"inputs": [
				{
					"name": "sender",
					"type": "address",
					"internalType": "address"
				},
				{
					"name": "key",
					"type": "tuple",
					"internalType": "struct PoolKey",
					"components": [
						{
							"name": "currency0",
							"type": "address",
							"internalType": "Currency"
						},
						{
							"name": "currency1",
							"type": "address",
							"internalType": "Currency"
						},
						{
							"name": "fee",
							"type": "uint24",
							"internalType": "uint24"
						},
						{
							"name": "tickSpacing",
							"type": "int24",
							"internalType": "int24"
						},
						{
							"name": "hooks",
							"type": "address",
							"internalType": "contract IHooks"
						}
					]
				},
				{
					"name": "sqrtPriceX96",
					"type": "uint160",
					"internalType": "uint160"
				},
				{
					"name": "tick",
					"type": "int24",
					"internalType": "int24"
				}
			],
			"outputs": [
				{
					"name": "",
					"type": "bytes4",
					"internalType": "bytes4"
				}
			],
			"stateMutability": "nonpayable"
		},
		{
			"type": "function",
			"name": "afterRemoveLiquidity",
			"inputs": [
				{
					"name": "sender",
					"type": "address",
					"internalType": "address"
				},
				{
					"name": "key",
					"type": "tuple",
					"internalType": "struct PoolKey",
					"components": [
						{
							"name": "currency0",
							"type": "address",
							"internalType": "Currency"
						},
						{
							"name": "currency1",
							"type": "address",
							"internalType": "Currency"
						},
						{
							"name": "fee",
							"type": "uint24",
							"internalType": "uint24"
						},
						{
							"name": "tickSpacing",
							"type": "int24",
							"internalType": "int24"
						},
						{
							"name": "hooks",
							"type": "address",
							"internalType": "contract IHooks"
						}
					]
				},
				{
					"name": "params",
					"type": "tuple",
					"internalType": "struct ModifyLiquidityParams",
					"components": [
						{
							"name": "tickLower",
							"type": "int24",
							"internalType": "int24"
						},
						{
							"name": "tickUpper",
							"type": "int24",
							"internalType": "int24"
						},
						{
							"name": "liquidityDelta",
							"type": "int256",
							"internalType": "int256"
						},
						{
							"name": "salt",
							"type": "bytes32",
							"internalType": "bytes32"
						}
					]
				},
				{
					"name": "delta",
					"type": "int256",
					"internalType": "BalanceDelta"
				},
				{
					"name": "feesAccrued",
					"type": "int256",
					"internalType": "BalanceDelta"
				},
				{
					"name": "hookData",
					"type": "bytes",
					"internalType": "bytes"
				}
			],
			"outputs": [
				{
					"name": "",
					"type": "bytes4",
					"internalType": "bytes4"
				},
				{
					"name": "",
					"type": "int256",
					"internalType": "BalanceDelta"
				}
			],
			"stateMutability": "nonpayable"
		},
		{
			"type": "function",
			"name": "afterSwap",
			"inputs": [
				{
					"name": "sender",
					"type": "address",
					"internalType": "address"
				},
				{
					"name": "key",
					"type": "tuple",
					"internalType": "struct PoolKey",
					"components": [
						{
							"name": "currency0",
							"type": "address",
							"internalType": "Currency"
						},
						{
							"name": "currency1",
							"type": "address",
							"internalType": "Currency"
						},
						{
							"name": "fee",
							"type": "uint24",
							"internalType": "uint24"
						},
						{
							"name": "tickSpacing",
							"type": "int24",
							"internalType": "int24"
						},
						{
							"name": "hooks",
							"type": "address",
							"internalType": "contract IHooks"
						}
					]
				},
				{
					"name": "params",
					"type": "tuple",
					"internalType": "struct SwapParams",
					"components": [
						{
							"name": "zeroForOne",
							"type": "bool",
							"internalType": "bool"
						},
						{
							"name": "amountSpecified",
							"type": "int256",
							"internalType": "int256"
						},
						{
							"name": "sqrtPriceLimitX96",
							"type": "uint160",
							"internalType": "uint160"
						}
					]
				},
				{
					"name": "delta",
					"type": "int256",
					"internalType": "BalanceDelta"
				},
				{
					"name": "hookData",
					"type": "bytes",
					"internalType": "bytes"
				}
			],
			"outputs": [
				{
					"name": "",
					"type": "bytes4",
					"internalType": "bytes4"
				},
				{
					"name": "",
					"type": "int128",
					"internalType": "int128"
				}
			],
			"stateMutability": "nonpayable"
		},
		{
			"type": "function",
			"name": "beforeAddLiquidity",
			"inputs": [
				{
					"name": "sender",
					"type": "address",
					"internalType": "address"
				},
				{
					"name": "key",
					"type": "tuple",
					"internalType": "struct PoolKey",
					"components": [
						{
							"name": "currency0",
							"type": "address",
							"internalType": "Currency"
						},
						{
							"name": "currency1",
							"type": "address",
							"internalType": "Currency"
						},
						{
							"name": "fee",
							"type": "uint24",
							"internalType": "uint24"
						},
						{
							"name": "tickSpacing",
							"type": "int24",
							"internalType": "int24"
						},
						{
							"name": "hooks",
							"type": "address",
							"internalType": "contract IHooks"
						}
					]
				},
				{
					"name": "params",
					"type": "tuple",
					"internalType": "struct ModifyLiquidityParams",
					"components": [
						{
							"name": "tickLower",
							"type": "int24",
							"internalType": "int24"
						},
						{
							"name": "tickUpper",
							"type": "int24",
							"internalType": "int24"
						},
						{
							"name": "liquidityDelta",
							"type": "int256",
							"internalType": "int256"
						},
						{
							"name": "salt",
							"type": "bytes32",
							"internalType": "bytes32"
						}
					]
				},
				{
					"name": "hookData",
					"type": "bytes",
					"internalType": "bytes"
				}
			],
			"outputs": [
				{
					"name": "",
					"type": "bytes4",
					"internalType": "bytes4"
				}
			],
			"stateMutability": "nonpayable"
		},
		{
			"type": "function",
			"name": "beforeDonate",
			"inputs": [
				{
					"name": "sender",
					"type": "address",
					"internalType": "address"
				},
				{
					"name": "key",
					"type": "tuple",
					"internalType": "struct PoolKey",
					"components": [
						{
							"name": "currency0",
							"type": "address",
							"internalType": "Currency"
						},
						{
							"name": "currency1",
							"type": "address",
							"internalType": "Currency"
						},
						{
							"name": "fee",
							"type": "uint24",
							"internalType": "uint24"
						},
						{
							"name": "tickSpacing",
							"type": "int24",
							"internalType": "int24"
						},
						{
							"name": "hooks",
							"type": "address",
							"internalType": "contract IHooks"
						}
					]
				},
				{
					"name": "amount0",
					"type": "uint256",
					"internalType": "uint256"
				},
				{
					"name": "amount1",
					"type": "uint256",
					"internalType": "uint256"
				},
				{
					"name": "hookData",
					"type": "bytes",
					"internalType": "bytes"
				}
			],
			"outputs": [
				{
					"name": "",
					"type": "bytes4",
					"internalType": "bytes4"
				}
			],
			"stateMutability": "nonpayable"
		},
		{
			"type": "function",
			"name": "beforeInitialize",
			"inputs": [
				{
					"name": "sender",
					"type": "address",
					"internalType": "address"
				},
				{
					"name": "key",
					"type": "tuple",
					"internalType": "struct PoolKey",
					"components": [
						{
							"name": "currency0",
							"type": "address",
							"internalType": "Currency"
						},
						{
							"name": "currency1",
							"type": "address",
							"internalType": "Currency"
						},
						{
							"name": "fee",
							"type": "uint24",
							"internalType": "uint24"
						},
						{
							"name": "tickSpacing",
							"type": "int24",
							"internalType": "int24"
						},
						{
							"name": "hooks",
							"type": "address",
							"internalType": "contract IHooks"
						}
					]
				},
				{
					"name": "sqrtPriceX96",
					"type": "uint160",
					"internalType": "uint160"
				}
			],
			"outputs": [
				{
					"name": "",
					"type": "bytes4",
					"internalType": "bytes4"
				}
			],
			"stateMutability": "nonpayable"
		},
		{
			"type": "function",
			"name": "beforeRemoveLiquidity",
			"inputs": [
				{
					"name": "sender",
					"type": "address",
					"internalType": "address"
				},
				{
					"name": "key",
					"type": "tuple",
					"internalType": "struct PoolKey",
					"components": [
						{
							"name": "currency0",
							"type": "address",
							"internalType": "Currency"
						},
						{
							"name": "currency1",
							"type": "address",
							"internalType": "Currency"
						},
						{
							"name": "fee",
							"type": "uint24",
							"internalType": "uint24"
						},
						{
							"name": "tickSpacing",
							"type": "int24",
							"internalType": "int24"
						},
						{
							"name": "hooks",
							"type": "address",
							"internalType": "contract IHooks"
						}
					]
				},
				{
					"name": "params",
					"type": "tuple",
					"internalType": "struct ModifyLiquidityParams",
					"components": [
						{
							"name": "tickLower",
							"type": "int24",
							"internalType": "int24"
						},
						{
							"name": "tickUpper",
							"type": "int24",
							"internalType": "int24"
						},
						{
							"name": "liquidityDelta",
							"type": "int256",
							"internalType": "int256"
						},
						{
							"name": "salt",
							"type": "bytes32",
							"internalType": "bytes32"
						}
					]
				},
				{
					"name": "hookData",
					"type": "bytes",
					"internalType": "bytes"
				}
			],
			"outputs": [
				{
					"name": "",
					"type": "bytes4",
					"internalType": "bytes4"
				}
			],
			"stateMutability": "nonpayable"
		},
		{
			"type": "function",
			"name": "beforeSwap",
			"inputs": [
				{
					"name": "sender",
					"type": "address",
					"internalType": "address"
				},
				{
					"name": "key",
					"type": "tuple",
					"internalType": "struct PoolKey",
					"components": [
						{
							"name": "currency0",
							"type": "address",
							"internalType": "Currency"
						},
						{
							"name": "currency1",
							"type": "address",
							"internalType": "Currency"
						},
						{
							"name": "fee",
							"type": "uint24",
							"internalType": "uint24"
						},
						{
							"name": "tickSpacing",
							"type": "int24",
							"internalType": "int24"
						},
						{
							"name": "hooks",
							"type": "address",
							"internalType": "contract IHooks"
						}
					]
				},
				{
					"name": "params",
					"type": "tuple",
					"internalType": "struct SwapParams",
					"components": [
						{
							"name": "zeroForOne",
							"type": "bool",
							"internalType": "bool"
						},
						{
							"name": "amountSpecified",
							"type": "int256",
							"internalType": "int256"
						},
						{
							"name": "sqrtPriceLimitX96",
							"type": "uint160",
							"internalType": "uint160"
						}
					]
				},
				{
					"name": "hookData",
					"type": "bytes",
					"internalType": "bytes"
				}
			],
			"outputs": [
				{
					"name": "",
					"type": "bytes4",
					"internalType": "bytes4"
				},
				{
					"name": "",
					"type": "int256",
					"internalType": "BeforeSwapDelta"
				},
				{
					"name": "",
					"type": "uint24",
					"internalType": "uint24"
				}
			],
			"stateMutability": "nonpayable"
		},
		{
			"type": "function",
			"name": "calculateExpectedOutputFromSelling",
			"inputs": [
				{
					"name": "projectId",
					"type": "uint256",
					"internalType": "uint256"
				},
				{
					"name": "tokenAmountIn",
					"type": "uint256",
					"internalType": "uint256"
				},
				{
					"name": "outputToken",
					"type": "address",
					"internalType": "address"
				},
				{
					"name": "terminal",
					"type": "address",
					"internalType": "contract IJBTerminal"
				}
			],
			"outputs": [
				{
					"name": "expectedOutput",
					"type": "uint256",
					"internalType": "uint256"
				}
			],
			"stateMutability": "view"
		},
		{
			"type": "function",
			"name": "calculateExpectedTokensWithCurrency",
			"inputs": [
				{
					"name": "projectId",
					"type": "uint256",
					"internalType": "uint256"
				},
				{
					"name": "paymentToken",
					"type": "address",
					"internalType": "address"
				},
				{
					"name": "paymentAmount",
					"type": "uint256",
					"internalType": "uint256"
				}
			],
			"outputs": [
				{
					"name": "expectedTokens",
					"type": "uint256",
					"internalType": "uint256"
				}
			],
			"stateMutability": "view"
		},
		{
			"type": "function",
			"name": "estimateUniswapOutput",
			"inputs": [
				{
					"name": "poolId",
					"type": "bytes32",
					"internalType": "PoolId"
				},
				{
					"name": "key",
					"type": "tuple",
					"internalType": "struct PoolKey",
					"components": [
						{
							"name": "currency0",
							"type": "address",
							"internalType": "Currency"
						},
						{
							"name": "currency1",
							"type": "address",
							"internalType": "Currency"
						},
						{
							"name": "fee",
							"type": "uint24",
							"internalType": "uint24"
						},
						{
							"name": "tickSpacing",
							"type": "int24",
							"internalType": "int24"
						},
						{
							"name": "hooks",
							"type": "address",
							"internalType": "contract IHooks"
						}
					]
				},
				{
					"name": "amountIn",
					"type": "uint256",
					"internalType": "uint256"
				},
				{
					"name": "zeroForOne",
					"type": "bool",
					"internalType": "bool"
				}
			],
			"outputs": [
				{
					"name": "estimatedOut",
					"type": "uint256",
					"internalType": "uint256"
				}
			],
			"stateMutability": "view"
		},
		{
			"type": "function",
			"name": "getHookPermissions",
			"inputs": [],
			"outputs": [
				{
					"name": "",
					"type": "tuple",
					"internalType": "struct Hooks.Permissions",
					"components": [
						{
							"name": "beforeInitialize",
							"type": "bool",
							"internalType": "bool"
						},
						{
							"name": "afterInitialize",
							"type": "bool",
							"internalType": "bool"
						},
						{
							"name": "beforeAddLiquidity",
							"type": "bool",
							"internalType": "bool"
						},
						{
							"name": "afterAddLiquidity",
							"type": "bool",
							"internalType": "bool"
						},
						{
							"name": "beforeRemoveLiquidity",
							"type": "bool",
							"internalType": "bool"
						},
						{
							"name": "afterRemoveLiquidity",
							"type": "bool",
							"internalType": "bool"
						},
						{
							"name": "beforeSwap",
							"type": "bool",
							"internalType": "bool"
						},
						{
							"name": "afterSwap",
							"type": "bool",
							"internalType": "bool"
						},
						{
							"name": "beforeDonate",
							"type": "bool",
							"internalType": "bool"
						},
						{
							"name": "afterDonate",
							"type": "bool",
							"internalType": "bool"
						},
						{
							"name": "beforeSwapReturnDelta",
							"type": "bool",
							"internalType": "bool"
						},
						{
							"name": "afterSwapReturnDelta",
							"type": "bool",
							"internalType": "bool"
						},
						{
							"name": "afterAddLiquidityReturnDelta",
							"type": "bool",
							"internalType": "bool"
						},
						{
							"name": "afterRemoveLiquidityReturnDelta",
							"type": "bool",
							"internalType": "bool"
						}
					]
				}
			],
			"stateMutability": "pure"
		},
		{
			"type": "function",
			"name": "observations",
			"inputs": [
				{
					"name": "",
					"type": "bytes32",
					"internalType": "PoolId"
				},
				{
					"name": "",
					"type": "uint256",
					"internalType": "uint256"
				}
			],
			"outputs": [
				{
					"name": "blockTimestamp",
					"type": "uint32",
					"internalType": "uint32"
				},
				{
					"name": "tickCumulative",
					"type": "int56",
					"internalType": "int56"
				},
				{
					"name": "secondsPerLiquidityCumulativeX128",
					"type": "uint160",
					"internalType": "uint160"
				},
				{
					"name": "initialized",
					"type": "bool",
					"internalType": "bool"
				}
			],
			"stateMutability": "view"
		},
		{
			"type": "function",
			"name": "observe",
			"inputs": [
				{
					"name": "key",
					"type": "tuple",
					"internalType": "struct PoolKey",
					"components": [
						{
							"name": "currency0",
							"type": "address",
							"internalType": "Currency"
						},
						{
							"name": "currency1",
							"type": "address",
							"internalType": "Currency"
						},
						{
							"name": "fee",
							"type": "uint24",
							"internalType": "uint24"
						},
						{
							"name": "tickSpacing",
							"type": "int24",
							"internalType": "int24"
						},
						{
							"name": "hooks",
							"type": "address",
							"internalType": "contract IHooks"
						}
					]
				},
				{
					"name": "secondsAgos",
					"type": "uint32[]",
					"internalType": "uint32[]"
				}
			],
			"outputs": [
				{
					"name": "tickCumulatives",
					"type": "int56[]",
					"internalType": "int56[]"
				},
				{
					"name": "secondsPerLiquidityCumulativeX128s",
					"type": "uint160[]",
					"internalType": "uint160[]"
				}
			],
			"stateMutability": "view"
		},
		{
			"type": "function",
			"name": "observeTWAP",
			"inputs": [
				{
					"name": "poolId",
					"type": "bytes32",
					"internalType": "PoolId"
				},
				{
					"name": "secondsAgo",
					"type": "uint32",
					"internalType": "uint32"
				},
				{
					"name": "tick",
					"type": "int24",
					"internalType": "int24"
				},
				{
					"name": "index",
					"type": "uint16",
					"internalType": "uint16"
				},
				{
					"name": "liquidity",
					"type": "uint128",
					"internalType": "uint128"
				},
				{
					"name": "cardinality",
					"type": "uint16",
					"internalType": "uint16"
				}
			],
			"outputs": [
				{
					"name": "arithmeticMeanTick",
					"type": "int24",
					"internalType": "int24"
				}
			],
			"stateMutability": "view"
		},
		{
			"type": "function",
			"name": "poolManager",
			"inputs": [],
			"outputs": [
				{
					"name": "",
					"type": "address",
					"internalType": "contract IPoolManager"
				}
			],
			"stateMutability": "view"
		},
		{
			"type": "function",
			"name": "states",
			"inputs": [
				{
					"name": "",
					"type": "bytes32",
					"internalType": "PoolId"
				}
			],
			"outputs": [
				{
					"name": "index",
					"type": "uint16",
					"internalType": "uint16"
				},
				{
					"name": "cardinality",
					"type": "uint16",
					"internalType": "uint16"
				},
				{
					"name": "cardinalityNext",
					"type": "uint16",
					"internalType": "uint16"
				}
			],
			"stateMutability": "view"
		},
		{
			"type": "event",
			"name": "BestRouteSelected",
			"inputs": [
				{
					"name": "poolId",
					"type": "bytes32",
					"indexed": true,
					"internalType": "PoolId"
				},
				{
					"name": "routeType",
					"type": "uint8",
					"indexed": false,
					"internalType": "uint8"
				},
				{
					"name": "expectedTokens",
					"type": "uint256",
					"indexed": false,
					"internalType": "uint256"
				},
				{
					"name": "caller",
					"type": "address",
					"indexed": false,
					"internalType": "address"
				}
			],
			"anonymous": false
		},
		{
			"type": "event",
			"name": "RouteSelected",
			"inputs": [
				{
					"name": "poolId",
					"type": "bytes32",
					"indexed": true,
					"internalType": "PoolId"
				},
				{
					"name": "useJuicebox",
					"type": "bool",
					"indexed": false,
					"internalType": "bool"
				},
				{
					"name": "expectedTokens",
					"type": "uint256",
					"indexed": false,
					"internalType": "uint256"
				},
				{
					"name": "caller",
					"type": "address",
					"indexed": false,
					"internalType": "address"
				}
			],
			"anonymous": false
		},
		{
			"type": "error",
			"name": "HookNotImplemented",
			"inputs": []
		},
		{
			"type": "error",
			"name": "JBUniswapV4Hook_AmountOutMinRequired",
			"inputs": [
				{
					"name": "hookDataLength",
					"type": "uint256",
					"internalType": "uint256"
				}
			]
		},
		{
			"type": "error",
			"name": "JBUniswapV4Hook_ExactOutputSwapsNotSupported",
			"inputs": [
				{
					"name": "amountSpecified",
					"type": "int256",
					"internalType": "int256"
				}
			]
		},
		{
			"type": "error",
			"name": "JBUniswapV4Hook_InputExceedsV4DeltaLimit",
			"inputs": [
				{
					"name": "amount",
					"type": "uint256",
					"internalType": "uint256"
				}
			]
		},
		{
			"type": "error",
			"name": "JBUniswapV4Hook_InsufficientOutput",
			"inputs": [
				{
					"name": "amount",
					"type": "uint256",
					"internalType": "uint256"
				},
				{
					"name": "minimum",
					"type": "uint256",
					"internalType": "uint256"
				}
			]
		},
		{
			"type": "error",
			"name": "JBUniswapV4Hook_JuiceboxSellDidNotDeliver",
			"inputs": [
				{
					"name": "inputToken",
					"type": "address",
					"internalType": "address"
				},
				{
					"name": "outputToken",
					"type": "address",
					"internalType": "address"
				},
				{
					"name": "amountIn",
					"type": "uint256",
					"internalType": "uint256"
				}
			]
		},
		{
			"type": "error",
			"name": "JBUniswapV4Hook_OutputExceedsV4DeltaLimit",
			"inputs": [
				{
					"name": "amount",
					"type": "uint256",
					"internalType": "uint256"
				}
			]
		},
		{
			"type": "error",
			"name": "JBUniswapV4Hook_ReentrantRouting",
			"inputs": [
				{
					"name": "caller",
					"type": "address",
					"internalType": "address"
				}
			]
		},
		{
			"type": "error",
			"name": "JBUniswapV4Hook_SecondsAgoCannotBeZero",
			"inputs": [
				{
					"name": "secondsAgo",
					"type": "uint32",
					"internalType": "uint32"
				}
			]
		},
		{
			"type": "error",
			"name": "JBUniswapV4Hook_SellInputReturned",
			"inputs": [
				{
					"name": "token",
					"type": "address",
					"internalType": "address"
				},
				{
					"name": "balanceBefore",
					"type": "uint256",
					"internalType": "uint256"
				},
				{
					"name": "balanceAfter",
					"type": "uint256",
					"internalType": "uint256"
				}
			]
		},
		{
			"type": "error",
			"name": "JBUniswapV4Hook_TemporaryAllowanceNotConsumed",
			"inputs": [
				{
					"name": "token",
					"type": "address",
					"internalType": "address"
				},
				{
					"name": "spender",
					"type": "address",
					"internalType": "address"
				},
				{
					"name": "allowance",
					"type": "uint256",
					"internalType": "uint256"
				}
			]
		},
		{
			"type": "error",
			"name": "NotPoolManager",
			"inputs": []
		},
		{
			"type": "error",
			"name": "Oracle_CardinalityCannotBeZero",
			"inputs": [
				{
					"name": "cardinality",
					"type": "uint16",
					"internalType": "uint16"
				}
			]
		},
		{
			"type": "error",
			"name": "Oracle_TargetPredatesOldestObservation",
			"inputs": [
				{
					"name": "oldestTimestamp",
					"type": "uint32",
					"internalType": "uint32"
				},
				{
					"name": "targetTimestamp",
					"type": "uint32",
					"internalType": "uint32"
				}
			]
		},
		{
			"type": "error",
			"name": "SafeERC20FailedOperation",
			"inputs": [
				{
					"name": "token",
					"type": "address",
					"internalType": "address"
				}
			]
		}
	],
	"args": [
		"0xE03A1074c86CFeDd5C142C4F04F1a1536e203543",
		"0x4e24aC736F2DB0f0abd9ae891d4AA353F6D433CA",
		"0x255c5901827dB2d5b982BF8c25090809c36aBA18",
		"0x9dAe07bBF1602a1f79A95eFed65A56176df25586"
	],
	"solcInputHash": "6a3cb4fff0cecc758d484c50fc738106",
	"bytecode": "0x6101006040523461035e57604051601f6149e438819003918201601f19168301916001600160401b038311848410176103625780849260809460405283398101031261035e5780516001600160a01b038116810361035e576020820151916001600160a01b038316830361035e576040810151906001600160a01b038216820361035e5760600151916001600160a01b038316830361035e576080525f6101a06100a7610376565b8281528260208201528260408201528260608201528260808201528260a08201528260c08201528260e0820152826101008201528261012082015282610140820152826101608201528261018082015201525f6101a0610105610376565b8281526001602082015282604082015260016060820152826080820152600160a0820152600160c0820152600160e0820152826101008201528261012082015260016101408201528261016082015282610180820152015261200030161580159061034d575b8015610340575b801561032f575b8015610322575b8015610311575b8015610301575b80156102f1575b80156102e5575b80156102d9575b80156102c9575b80156102bd575b80156102b1575b80156102a5575b6102925760a05260c05260e05260405161464d908161039782396080518181816102ad015281816104540152818161055f015281816105b1015281816107bf015281816108d4015281816109c701528181610ac801528181610be001528181610dfc01528181611b0501528181611c1501528181612312015281816124bb015281816131860152613a91015260a051818181610941015281816113c0015281816139f80152613eb7015260c051818181610e52015261159d015260e051818181610e96015281816138bf0152613e5c0152f35b630732d7b560e51b5f523060045260245ffd5b506001301615156101bf565b506002301615156101b8565b506004301615156101b1565b50600830161515600114156101aa565b506010301615156101a3565b5060203016151561019c565b5060403016151560011415610195565b506080301615156001141561018e565b506101003016151560011415610187565b5061020030161515610180565b506104003016151560011415610179565b5061080030161515610172565b50611000301615156001141561016b565b5f80fd5b634e487b7160e01b5f52604160045260245ffd5b604051906101c082016001600160401b038111838210176103625760405256fe6080604052600436101561001a575b3615610018575f80fd5b005b5f3560e01c8063087a40b014610ec55780631d831d5c14610e815780631eabcd3414610e3d57806321d0ee7014610de9578063259982e514610de957806332d19f4114610dcd5780633f64e5dc14610c3e578063575e24b414610b8b5780636768b1e614610b6a5780636870b2fa14610b205780636c2bbe7e14610ab25780636fe7e6eb1461098c5780637ca251841461097057806388bc2ef31461092c5780639f063efc146108be578063b47b2fb114610766578063b6a8b0fa14610441578063c4e833ce146105fc578063db312fae146105e0578063dc4c90d31461059c578063dc98354e1461052e578063dd71cea8146104bf578063e16a53eb146104a5578063e1b4af6914610441578063e384451e146103fe578063e8529d7e146103e2578063f96f97f21461019a5763fbdc1ef10361000e5734610196576020366003190112610196576004355f526001602052606060405f205461ffff604051918181168352818160101c16602084015260201c166040820152f35b5f80fd5b3461019657366003190160c081126101965760a0136101965760a4356001600160401b03811161019657366023820112156101965780600401356001600160401b0381116101965760248160051b83010190368211610196576040516101ff81611125565b6004356001600160a01b03811681036101965781526024356001600160a01b038116810361019657602082015260443562ffffff811681036101965760408201526064358060020b8103610196576060820152608435906001600160a01b03821682036101965760a09160808201522090815f52600160205260405f2060405190610289826110ee565b549161ffff8316825261ffff6020830193818160101c16855260201c1660408301527f0000000000000000000000000000000000000000000000000000000000000000916102e5856102db818661367d565b505095905061371c565b945f525f60205261ffff8060405f20925116945116956103048361183b565b926103126040519485611140565b83526024602084019801975b8189106103c5575050610339965063ffffffff4216906137b0565b90604051918291604083016040845281518091526020606085019201905f5b8181106103a9575050508281036020840152602080835192838152019201905f5b818110610387575050500390f35b82516001600160a01b0316845285945060209384019390920191600101610379565b825160060b845286955060209384019390920191600101610358565b883563ffffffff811681036101965781526020988901980161031e565b34610196575f3660031901126101965760206040516104008152f35b34610196576101003660031901126101965761041936611161565b60e435908115158203610196576020916104399160c43590600435611ad2565b604051908152f35b346101965761044f36611044565b5050507f00000000000000000000000000000000000000000000000000000000000000006001600160a01b03163303925061049691505057630a85dc2960e01b5f5260045ffd5b63570c108560e11b5f5260045ffd5b34610196575f3660031901126101965760206040515f8152f35b34610196576040366003190112610196576024356004355f525f60205260405f2061ffff821015610196576080916104f69161109b565b50546040519063ffffffff811682528060201c60060b602083015260018060a01b038160581c16604083015260f81c15156060820152f35b346101965760e036600319011261019657610547610efb565b5060a03660231901126101965761055c61102e565b507f00000000000000000000000000000000000000000000000000000000000000006001600160a01b0316330361049657630a85dc2960e01b5f5260045ffd5b34610196575f366003190112610196576040517f00000000000000000000000000000000000000000000000000000000000000006001600160a01b03168152602090f35b34610196575f3660031901126101965760206040516127108152f35b34610196575f366003190112610196575f6101a060405161061c81611109565b8281528260208201528260408201528260608201528260808201528260a08201528260c08201528260e0820152826101008201528261012082015282610140820152826101608201528261018082015201526101c0602060405161067f81611109565b5f81528181019060018252604081015f81526060820160018152608083015f815260a084016001815260c085016001815260e0860190600182526101008701925f84526101208801945f8652610140890196600188526101608a01985f8a526101a06101808c019b5f8d52019b5f8d526040519d8e915f835251151591015251151560408d015251151560608c015251151560808b015251151560a08a015251151560c089015251151560e08801525115156101008701525115156101208601525115156101408501525115156101608401525115156101808301525115156101a0820152f35b346101965761016036600319011261019657610780610efb565b5060a03660231901126101965760603660c31901126101965761012435610144356001600160401b038111610196576107bd903690600401610f25565b7f00000000000000000000000000000000000000000000000000000000000000006001600160a01b03163303610496576020811015610821575b61080b60a061080536611161565b20613a8f565b6040805163b47b2fb160e01b81525f6020820152f35b81602091810103126101965735908161083b575b806107f7565b60c435801515810361019657156108b55780600f0b5b80600f0b918215908115916108ab575b5061086d575b50610835565b5f8212156108a55761087f91506130c8565b600f0b5b8181106108905780610867565b637ed62b6360e01b5f5260045260245260445ffd5b50610883565b9050151584610861565b8060801d610851565b34610196576108cc36610fc5565b5093945050507f00000000000000000000000000000000000000000000000000000000000000006001600160a01b03163303915061049690505760a06108056109169236906111e8565b604080516327c18fbf60e21b81525f6020820152f35b34610196575f366003190112610196576040517f00000000000000000000000000000000000000000000000000000000000000006001600160a01b03168152602090f35b34610196575f3660031901126101965760206040516107088152f35b3461019657610100366003190112610196576109a6610efb565b5060a0366023190112610196576109bb61102e565b506109c4610fb5565b507f00000000000000000000000000000000000000000000000000000000000000006001600160a01b031633036104965760a0610a0036611161565b20805f525f60205260405f20604051610a18816110bf565b4263ffffffff168082525f602083018190526040808401919091526001606090930192909252600160f81b179091555190610a52826110ee565b5f82526020820190600182526040830190600182525f52600160205261ffff60405f2093511665ffff0000000063ffff00008554945160101b16925160201b169265ffffffffffff191617171790556020604051636fe7e6eb60e01b8152f35b3461019657610ac036610fc5565b5093945050507f00000000000000000000000000000000000000000000000000000000000000006001600160a01b03163303915061049690505760a0610805610b0a9236906111e8565b60408051633615df3f60e11b81525f6020820152f35b34610196576080366003190112610196576044356001600160a01b038116810361019657606435906001600160a01b038216820361019657602091610439916024356004356118d8565b34610196575f36600319011261019657602060405160016001607f1b038152f35b346101965761014036600319011261019657610ba5610efb565b5060a03660231901126101965760603660c319011261019657610124356001600160401b03811161019657610bde903690600401610f25565b7f00000000000000000000000000000000000000000000000000000000000000006001600160a01b0316330361049657610c1e62ffffff9160609361204c565b906040939293519363ffffffff60e01b1684526020840152166040820152f35b346101965760c03660031901126101965760243563ffffffff8116809103610196576044358060020b81036101965760643561ffff81168103610196576084356001600160801b03811681036101965760a4359161ffff83168303610196578415610dba57610cf193604051610cb5606082611140565b6002815260403660208301375f610ccb8261201b565b5286610cd682612028565b526004355f525f60205260405f2063ffffffff4216906137b0565b50610d08610cfe8261201b565b5160060b91612028565b5160060b900390667fffffffffffff198212667fffffffffffff831317610d835760060b9060060b8115610da657667fffffffffffff1981145f19831416610d835781810560020b915f82129182610d97575b5050610d70575b6020906040519060020b8152f35b627fffff198114610d83575f1901610d62565b634e487b7160e01b5f52601160045260245ffd5b0760060b151590508280610d5b565b634e487b7160e01b5f52601260045260245ffd5b84632d727cc160e01b5f5260045260245ffd5b34610196575f36600319011261019657602060405161eeee8152f35b3461019657610df736610f52565b5050507f00000000000000000000000000000000000000000000000000000000000000006001600160a01b031633039150610496905057630a85dc2960e01b5f5260045ffd5b34610196575f366003190112610196576040517f00000000000000000000000000000000000000000000000000000000000000006001600160a01b03168152602090f35b34610196575f366003190112610196576040517f00000000000000000000000000000000000000000000000000000000000000006001600160a01b03168152602090f35b34610196576060366003190112610196576024356001600160a01b038116810361019657610439602091604435906004356113a1565b600435906001600160a01b038216820361019657565b35906001600160a01b038216820361019657565b9181601f84011215610196578235916001600160401b038311610196576020838186019501011161019657565b90610160600319830112610196576004356001600160a01b0381168103610196579160a060231982011261019657602491608060c3198301126101965760c49161014435906001600160401b03821161019657610fb191600401610f25565b9091565b60e435908160020b820361019657565b906101a0600319830112610196576004356001600160a01b0381168103610196579160a060231982011261019657602491608060c3198301126101965760c4916101443591610164359161018435906001600160401b03821161019657610fb191600401610f25565b60c435906001600160a01b038216820361019657565b610120600319820112610196576004356001600160a01b0381168103610196579160a06023198301126101965760249160c4359160e4359161010435906001600160401b03821161019657610fb191600401610f25565b61ffff8210156110ab5701905f90565b634e487b7160e01b5f52603260045260245ffd5b608081019081106001600160401b038211176110da57604052565b634e487b7160e01b5f52604160045260245ffd5b606081019081106001600160401b038211176110da57604052565b6101c081019081106001600160401b038211176110da57604052565b60a081019081106001600160401b038211176110da57604052565b90601f801991011681019081106001600160401b038211176110da57604052565b60a0906023190112610196576040519061117a82611125565b816024356001600160a01b03811681036101965781526044356001600160a01b038116810361019657602082015260643562ffffff811681036101965760408201526084358060020b810361019657606082015260a435906001600160a01b03821682036101965760800152565b91908260a09103126101965760405161120081611125565b809261120b81610f11565b825261121960208201610f11565b6020830152604081013562ffffff811681036101965760408301526060810135908160020b820361019657606083019190915260800135906001600160a01b03821682036101965760800152565b9081602091031261019657516001600160a01b03811681036101965790565b519065ffffffffffff8216820361019657565b519063ffffffff8216820361019657565b9190826101209103126101965760405161012081018181106001600160401b038211176110da5760405280926112df81611286565b82526112ed60208201611286565b60208301526112fe60408201611286565b604083015261130f60608201611286565b606083015261132060808201611299565b608083015260a08101516001600160701b03811681036101965760a083015261134b60c08201611299565b60c083015260e08101516001600160a01b03811681036101965760e083015261010090810151910152565b519061ffff8216820361019657565b5190811515820361019657565b90816020910312610196575190565b604051632eec7b5560e11b8152600481018290529192916020816024817f00000000000000000000000000000000000000000000000000000000000000006001600160a01b03165afa90811561183057602491610380915f91611801575b506040516320c94b1360e11b81526004810185905292839182906001600160a01b03165afa91825f925f9461162d575b5061143d5750505050505f90565b61146c61ffff61010063ffffffff60406001600160701b0360a0880151169701511694015160041c1695611c43565b9163ffffffff83169060ff61148085611c58565b1693604d8511611621578282036115455750505050670de0b6b3a7640000905b6012810361150d575061ffff92905b670de0b6b3a764000081036114f457506114c891611ce3565b915b1680156114f057612710039061ffff8211610d835761ffff6114ed921690611d5e565b90565b5090565b906115029061150793611ce3565b611ce3565b916114ca565b670de0b6b3a7640000840293808504670de0b6b3a76400001490151715610d835761ffff9361153f91600a0a90611cd9565b906114af565b6001600160a01b031661eeee1480611617575b1561156f57505050670de0b6b3a7640000906114a0565b604051631df139fd60e11b8152600481019390935260248301526044820152601260648201526020816084817f00000000000000000000000000000000000000000000000000000000000000006001600160a01b03165afa5f91816115e3575b506115dd5750505050505f90565b906114a0565b9091506020813d60201161160f575b816115ff60209383611140565b810103126101965751905f6115cf565b3d91506115f2565b5060018114611558565b50505050505050505f90565b925092506103803d81116117fa575b6116468184611140565b82018281039061038082126101965761166261026091856112aa565b9161011f190112610196576040519261026084018481106001600160401b038211176110da576040526116986101208201611376565b84526116a76101408201611376565b60208501526116b96101608201611299565b60408501526116cb6101808201611385565b60608501526116dd6101a08201611385565b60808501526116ef6101c08201611385565b60a08501526117016101e08201611385565b60c08501526117136102008201611385565b60e08501526117256102208201611385565b6101008501526117386102408201611385565b61012085015261174b6102608201611385565b61014085015261175e6102808201611385565b6101608501526117716102a08201611385565b6101808501526117846102c08201611385565b6101a08501526117976102e08201611385565b6101c08501526117aa6103008201611385565b6101e08501526117bd6103208201611385565b6102008501526103408101516001600160a01b0381168103610196576102208501526117ec9061036001611376565b61024084015291925f61142f565b503d61163c565b611823915060203d602011611829575b61181b8183611140565b810190611267565b5f6113ff565b503d611811565b6040513d5f823e3d90fd5b6001600160401b0381116110da5760051b60200190565b81601f82011215610196578051906001600160401b0382116110da5760405192611886601f8401601f191660200185611140565b8284526020838301011161019657815f9260208093018386015e8301015290565b805180835260209291819084018484015e5f828201840152601f01601f1916010190565b91908203918211610d8357565b90916118e390611c43565b906119445f602094604051906118f98783611140565b82825260405193849283926312a9c76f60e21b8452306004850152876024850152604484015260018060a01b038816606484015230608484015260c060a484015260c48301906118a7565b03816001600160a01b0389165afa80915f955f9361199a575b505061196c5750505050505f90565b831561199157156119885750506114ed915060288104906118cb565b6114ed93612f25565b50505050505f90565b91925094503d805f873e6119ae8187611140565b85019061018086830312610196576119c682876112aa565b506101208601519161014087015196610160810151906001600160401b03821161019657019080601f830112156101965781518380611a048361183b565b611a116040519182611140565b838152019160051b8401019282841161019657848101915b848310611a3f5750505050505093905f8061195d565b82516001600160401b038111610196578201906080828603601f1901126101965760405190611a6d826110bf565b828801516001600160a01b0381168103610196578252611a8f60408401611385565b88830152606083015160408301526080830151916001600160401b03831161019657611ac2878a80969581960101611852565b6060820152815201920191611a29565b909291611ade8261313f565b916001600160a01b03831615611c0d575b5062ffffff8194610fff604083611b2960a085207f000000000000000000000000000000000000000000000000000000000000000061367d565b9492509590500151166280000081145f14611c055750915b8615611bfc57165b61ffff8116611be457505b1680611bc0575b50506001600160a01b0316906001600160801b038211611b9d5781800291808304811490151715610d835715611b94576114ed91611fd2565b6114ed91611f4f565b9080611ba891611e33565b9015611bb7576114ed91611f06565b6114ed91611e7c565b90919350620f424003620f42408111610d8357611bdc91611dc7565b915f80611b5b565b610fff8391169116620f424081830204910103611b54565b600c1c16611b49565b905091611b41565b611c399192507f000000000000000000000000000000000000000000000000000000000000000061367d565b505050905f611aef565b6001600160a01b0381166114ed575061eeee90565b6001600160a01b031661eeee8114611cd35760206004916040519283809263313ce56760e01b82525afa5f9181611c95575b506114ed5750601290565b9091506020813d602011611ccb575b81611cb160209383611140565b81010312610196575160ff8116810361019657905f611c8a565b3d9150611ca4565b50601290565b8115610da6570490565b808202905f1983820990828083109203918083039283670de0b6b3a764000011156101965714611d4d577faccb18165bd6fe31ae1cf318dc5b51eee0e1ba569b88cd74c1773b91fac1066993670de0b6b3a7640000910990828211900360ee1b910360121c170290565b5050670de0b6b3a764000091500490565b808202905f198382099082808310920391808303928361271011156101965714611dbc577fbc01a36e2eb1c432ca57a786c226809d495182a9930be0ded288ce703afb7e9193612710910990828211900360fc1b910360041c170290565b505061271091500490565b808202905f1983820990828083109203918083039283620f424011156101965714611e27577fde8f6cefed634549b62c77574f722e1ac57e23f24d8fd5cb790fb65668c2613993620f4240910990828211900360fa1b910360061c170290565b5050620f424091500490565b81810291905f1982820991838084109303928084039384600160401b11156101965714611e7357600160401b910990828211900360c01b910360401c1790565b50505060401c90565b90608082901b905f19600160801b8409928280851094039380850394858411156101965714611eff578190600160801b900981805f03168092046002816003021880820260020302808202600203028082026002030280820260020302808202600203028091026002030293600183805f03040190848311900302920304170290565b5091500490565b81810291905f1982820991838084109303928084039384600160801b11156101965714611f4657600160801b910990828211900360801b910360801c1790565b50505060801c90565b9060c082901b905f19600160c01b8409928280851094039380850394858411156101965714611eff578190600160c01b900981805f03168092046002816003021880820260020302808202600203028082026002030280820260020302808202600203028091026002030293600183805f03040190848311900302920304170290565b81810291905f1982820991838084109303928084039384600160c01b1115610196571461201257600160c01b910990828211900360401b910360c01c1790565b50505060c01c90565b8051156110ab5760200190565b8051600110156110ab5760400190565b80518210156110ab5760209160051b010190565b905f916002549160ff8316612f125760208110612f0057602011610196573560a06120783660246111e8565b20915f60e43513612eeb5760c435151560c435036101965760c43515612ed2576024356001600160a01b038116810361019657905b60c43515612eb9576044356001600160a01b038116810361019657905b60e435600160ff1b14610d83576120e96001600160a01b03841661389c565b926120fc6001600160a01b03841661389c565b801580159690612eb25781955b8015612eac57805b5f905f945f935f9b612c91575b80612c59575b81159115612c50575b50612bff5761214f60c43560e4355f038d6121493660246111e8565b90611ad2565b996001600160a01b038416801515969087612bf4575b506001600160a01b038216801515949085612be9575b5087612bdf575b87612bcd575b84612bc3575b84612bb1575b8780612b96575b85612b7b575b508415612b735750935b8315612b6b5750985b8215612b635750925b848515612b5c575b80612b53575b8015612b28578b7f7a23c5ecccd05a835903b88a2163b466b6337b968dde0e581fdccf14d5c74ed9606060018e5b8515612b235750875b60ff604051921682526020820152336040820152a26122685750505050505050505060607f263dfe81324d31d9db2a4afda6df10810d5f84b970529f73d0b0834cfe99ab5091604051908582526020820152336040820152a26315d7892d60e21b918190565b909294969891939597997f263dfe81324d31d9db2a4afda6df10810d5f84b970529f73d0b0834cfe99ab50606060405160018152876020820152336040820152a2809280612b1a575b15612ad457505050600190945b60ff1916176002558115612ac6575b811580612ab4575b15612aad576040516370a0823160e01b81523060048201526020816024816001600160a01b0388165afa908115611830575f91612a7b575b50955b7f00000000000000000000000000000000000000000000000000000000000000006001600160a01b0316803b1561019657604051630b0d9c0960e01b81526001600160a01b038616600482015230602482015260e4355f908103604483015290918290606490829084905af1801561183057612a66575b5061239a6001600160a01b038516611c43565b6001600160a01b038716159182156129fa5747935b8515612923576001600160a01b03871615908b9082156127c6575b82156127bf578960e4355f035b60209687936124496040516123ec8782611140565b8781526040519788968795869563fef4325760e01b8752600487015260018060a01b0316602486015260e4355f036044860152306064860152608485015260e060a485015260e484015261010060c48401526101048301906118a7565b03916001600160a01b0388165af180156127b45761278a575b50156126e5575b50505b156126745761247b90476118cb565b94811580612662575b6125ba575b5015806125af575b806125a7575b61257d5750808310612566575060016001607f1b03821161255257816124e09130907f0000000000000000000000000000000000000000000000000000000000000000906143a3565b60ff196002541660025560016001607f1b0360e4355f031161253b576001600160801b036125119116600f0b6130c8565b6001600160801b0316916315d7892d60e21b926001600160801b031960e4355f0360801b16179190565b63028446dd60e11b825260e4355f03600452602482fd5b6363ce7e7160e11b83526004829052602483fd5b637ed62b6360e01b84526004839052602452604483fd5b63c0714aa760e01b85526001600160a01b03908116600452821660245260e4355f03604452606484fd5b508315612497565b5060e4351515612491565b6040516370a0823160e01b8152306004820152906020826024816001600160a01b0388165afa918215612657578892612623575b508082036125fc5750612489565b63c43d3adb60e01b88526001600160a01b0390931660045260249290925250604452606484fd5b9091506020813d60201161264f575b8161263f60209383611140565b810103126101965751905f6125ee565b3d9150612632565b6040513d8a823e3d90fd5b506001600160a01b0383161515612484565b6040516370a0823160e01b8152306004820152906020826024816001600160a01b038a165afa80156126575788906126b1575b61247b92506118cb565b506020823d6020116126dd575b816126cb60209383611140565b810103126101965761247b91516126a7565b3d91506126be565b604051636eb1769f60e11b81523060048201526001600160a01b0382811660248301528390829060449082908b165afa92831561277f578b9361274f575b50508115612469576331f611dd60e11b8a526001600160a01b0380871660045216602452604452606488fd5b9080929350813d8311612778575b6127678183611140565b810103126101965751905f80612723565b503d61275d565b6040513d8d823e3d90fd5b8381813d83116127ad575b61279f8183611140565b810103126101965751612462565b503d612795565b6040513d8e823e3d90fd5b89826123d7565b60405163095ea7b360e01b83526001600160a01b0385811660045260e4355f036024526020908490604490829081908f165af190600184511482161561290a575b6040526123ca5790508b886001602083604481806040519663095ea7b360e01b8252868060a01b038c1660045281602452868060a01b03165af19251148216156128e9575b604052156128a3578b886001602083604481806040519663095ea7b360e01b8252868060a01b038c1660045260e4355f03602452868060a01b03165af19251148216156128bf575b604052156128a3578b906123ca565b635274afe760e01b8c526001600160a01b03881660045260248cfd5b9060018115166128e0573d156001600160a01b038b163b1515161690612894565b503d8d823e3d90fd5b9060018115166128e0573d156001600160a01b038b163b151516169061284c565b3d156001600160a01b038c163b15151690911690612807565b6129a2925060209161293d6001600160a01b038b16611c43565b8c6040519361294c8686611140565b818552604051968795869485936313da831760e01b8552306004860152602485015260e4355f03604485015260018060a01b031660648401528d60848401523060a484015260e060c484015260e48301906118a7565b03926001600160a01b03165af180156129ef576129c0575b5061246c565b6129e19060203d6020116129e8575b6129d98183611140565b810190611392565b505f6129ba565b503d6129cf565b6040513d8b823e3d90fd5b6040516370a0823160e01b81523060048201526020816024816001600160a01b038d165afa90811561277f578b91612a34575b50936123af565b90506020813d602011612a5e575b81612a4f60209383611140565b8101031261019657515f612a2d565b3d9150612a42565b612a739198505f90611140565b5f965f612387565b90506020813d602011612aa5575b81612a9660209383611140565b8101031261019657515f61230d565b3d9150612a89565b5f95612310565b506001600160a01b03831615156122d5565b612acf81613e39565b6122cd565b8580929398945091612b06575b50612af0575b506001906122be565b90945060018101809111610d8357936001612ae7565b905060018201808311610d8357115f612ae1565b508084116122b1565b612202565b8b7f7a23c5ecccd05a835903b88a2163b466b6337b968dde0e581fdccf14d5c74ed960605f8e6121f9565b508983116121cb565b50816121c5565b9050926121bd565b9050986121b4565b9050936121ab565b909450158015612b8d575b935f6121a1565b50838111612b86565b975084158015612ba7575b9761219b565b5081811015612ba1565b60016001607f1b038211159450612194565b811515945061218e565b60016001607f1b038111159750612188565b8015159750612182565b3b151594505f61217b565b3b151596505f612165565b5050505050505050505090507f263dfe81324d31d9db2a4afda6df10810d5f84b970529f73d0b0834cfe99ab5060606040515f81525f6020820152336040820152a26315d7892d60e21b905f908190565b9050155f61212d565b909a509450612c716001600160a01b038916826139b6565b99612c8b8b6001600160a01b038b1660e4355f03856118d8565b95612124565b9093509150612ca96001600160a01b0387168a6139b6565b926001600160a01b0384168015612ea457612d34905f8c612cd26001600160a01b038c16611c43565b9260209360405192612ce48685611140565b848452604051630aff0c3160e01b815260048101919091526001600160a01b03909116602482015260e4358403604482015230606482015260a060848201529485928391829160a48301906118a7565b03915afa9182915f93612d56575b5050612d5057505f9261211e565b9261211e565b909192503d805f843e612d698184611140565b61018083828101031261019657612d82818401846112aa565b50610120830151926101608101516001600160401b03811161019657828201601f82840101121561019657808201519284612dbc8561183b565b612dc96040519182611140565b8581520191818401868660051b838701010111610196578581850101925b868660051b83870101018410612e065750505050505050905f80612d42565b83516001600160401b0381116101965782860101906080601f19838689010301126101965760405191612e38836110bf565b808901516001600160a01b0381168103610196578352612e5a60408201611385565b89840152606081015160408401526080810151916001600160401b038311610196578993612e928594938580958a8d01920101611852565b60608201528152019401939050612de7565b505f9261211e565b5f612111565b5f95612109565b6024356001600160a01b038116810361019657906120ca565b6044356001600160a01b038116810361019657906120ad565b6301c0fdc160e31b5f5260e43560045260245ffd5b639505e34760e01b5f5260045260245ffd5b637e428b3560e01b5f523360045260245ffd5b60405163659a204760e01b81526001600160a01b03919091169290602081600481875afa5f9181613084575b50612f5d575050505090565b60405163438bebe160e11b8152306004820181905260248201859052604482015290602090829060649082906001600160a01b03165afa5f9181613048575b50612fa8575050505090565b6130425760405163c66d192b60e01b815260048101929092526001600160a01b0316602482015290602090829060449082905afa5f918161300e575b50612fed575090565b6114ed91908082101561300657506028815b04906118cb565b602890612fff565b9091506020813d60201161303a575b8161302a60209383611140565b810103126101965751905f612fe4565b3d915061301d565b50505090565b9091506020813d60201161307c575b8161306460209383611140565b810103126101965761307590611385565b905f612f9c565b3d9150613057565b9091506020813d6020116130c0575b816130a060209383611140565b8101031261019657516001600160a01b038116810361019657905f612f51565b3d9150613093565b600f0b6f7fffffffffffffffffffffffffffffff198114610d83575f0390565b9061ffff16908115610da65761ffff160690565b90604051613109816110bf565b915463ffffffff81168352602081811c60060b90840152605881901c6001600160a01b0316604084015260f81c15156060830152565b805f52600160205260405f209060405191613159836110ee565b5461ffff81168352600261ffff8260101c1661ffff602086019382855260201c16604086015210613676577f0000000000000000000000000000000000000000000000000000000000000000906131be836131b4818561367d565b505094905061371c565b9163ffffffff42169361070885115f146136705761070719850163ffffffff8111610d83575b815f525f60205260405f20600161ffff8951160161ffff8111610d83576132249161321861321e9261ffff895116906130e8565b9061109b565b506130fc565b60608101511561364e575b63ffffffff809151169116106136445761ffff8061328f975116935116946040519161325c606084611140565b6002835260403660208501375f6132728461201b565b5261070861327f84612028565b525f525f60205260405f206137b0565b5061329c610cfe8261201b565b5160060b9003667fffffffffffff198112667fffffffffffff821317610d835760060b5f610708820560020b915f81129081613630575b50613607575b5060020b908160ff1d82810118620d89e881116135f45763ffffffff9192600182167001fffcb933bd6fad37aa2d162d1a59400102600160801b1891600281166135d8575b600481166135bc575b600881166135a0575b60108116613584575b60208116613568575b6040811661354c575b60808116613530575b6101008116613514575b61020081166134f8575b61040081166134dc575b61080081166134c0575b61100081166134a4575b6120008116613488575b614000811661346c575b6180008116613450575b620100008116613434575b620200008116613419575b6204000081166133fe575b62080000166133e5575b5f126133dd575b0160201c90565b5f19046133d6565b6b048a170391f7dc42444e8fa290910260801c906133cf565b6d2216e584f5fa1ea926041bedfe9890920260801c916133c5565b916e5d6af8dedb81196699c329225ee6040260801c916133ba565b916f09aa508b5b7a84e1c677de54f3e99bc90260801c916133af565b916f31be135f97d08fd981231505542fcfa60260801c916133a4565b916f70d869a156d2a1b890bb3df62baf32f70260801c9161339a565b916fa9f746462d870fdf8a65dc1f90e061e50260801c91613390565b916fd097f3bdfd2022b8845ad8f792aa58250260801c91613386565b916fe7159475a2c29b7443b29c7fa6e889d90260801c9161337c565b916ff3392b0822b70005940c7a398e4b70f30260801c91613372565b916ff987a7253ac413176f2b074cf7815e540260801c91613368565b916ffcbe86c7900a88aedcffc83b479aa3a40260801c9161335e565b916ffe5dee046a99a2a811c461f1969c30530260801c91613354565b916fff2ea16466c96a3843ec78b326b528610260801c9161334b565b916fff973b41fa98c081472e6896dfb254c00260801c91613342565b916fffcb9843d60f6159c9db58835c9266440260801c91613339565b916fffe5caca7e10e4e61c3624eaa0941cd00260801c91613330565b916ffff2e50f5f656932ef12357cf3c7fdcc0260801c91613327565b916ffff97272373d413259a46990580e213a0260801c9161331e565b826345c3193d60e11b5f5260045260245ffd5b627fffff19821461361c57505f19015f6132d9565b634e487b7160e01b81526011600452602490fd5b9150506107085f910760060b15155f6132d3565b5050505050505f90565b50815f525f60205263ffffffff8061366860405f206130fc565b91505061322f565b5f6131e4565b5050505f90565b919061368a602091613cc1565b604051631e2eaeaf60e01b8152600481019190915292839060249082906001600160a01b03165afa918215611830575f926136e8575b506001600160a01b0382169160a081901c60020b9162ffffff60b883901c81169260d01c1690565b9091506020813d602011613714575b8161370460209383611140565b810103126101965751905f6136c0565b3d91506136f7565b9061372690613cc1565b60038101809111610d8357604051631e2eaeaf60e01b8152600481019190915290602090829060249082906001600160a01b03165afa8015611830575f90613777575b6001600160801b0391501690565b506020813d6020116137a8575b8161379160209383611140565b81010312610196576001600160801b039051613769565b3d9150613784565b9694959092919561ffff8216801561388a57508651946137cf8661183b565b936137dd6040519586611140565b868552601f196137ec8861183b565b0136602087013784996137fe8861183b565b9661380c6040519889611140565b888852601f1961381b8a61183b565b013660208a0137879a5f5b8a811061383a575050505050505050505050565b808a8161386a6138628c8c8c8c8c8c63ffffffff61385a60019d8f612038565b511691613ce7565b929093612038565b90848060a01b0316905261387e828c612038565b9060060b905201613826565b631bd3597160e31b5f5260045260245ffd5b604051630f85421b60e01b81526001600160a01b039182166004820181905290917f000000000000000000000000000000000000000000000000000000000000000016602083602481845afa928315611830575f93613982575b5082156136765760206024916040519283809263ea78803f60e01b82528760048301525afa908115611830575f91613940575b506001600160a01b03160361393b5790565b505f90565b90506020813d60201161397a575b8161395b60209383611140565b8101031261019657516001600160a01b0381168103610196575f613929565b3d915061394e565b9092506020813d6020116139ae575b8161399e60209383611140565b810103126101965751915f6138f6565b3d9150613991565b6020906139c56139f493611c43565b604051630862026560e41b815260048101929092526001600160a01b0316602482015291829081906044820190565b03817f00000000000000000000000000000000000000000000000000000000000000006001600160a01b03165afa5f9181613a34575b506114ed57505f90565b9091506020813d602011613a70575b81613a5060209383611140565b8101031261019657516001600160a01b038116810361019657905f613a2a565b3d9150613a43565b60011b906201fffe61fffe831692168203610d8357565b7f0000000000000000000000000000000000000000000000000000000000000000613ac882613abe818461367d565b505093905061371c565b825f52600160205260405f209060405191613ae2836110ee565b549261ffff84169283815261ffff8560101c1693602082019480865261ffff604084019760201c1687526104008114613c4b575b505061ffff8551169461ffff8551168681149081613c2b575b50613bc9575b5091613b6193918593875f525f60205261ffff8060405f209251169451169363ffffffff42169161400a565b91909261ffff60405194613b74866110ee565b16845261ffff602085019316835261ffff60408501921682525f52600160205261ffff60405f2093511665ffff0000000063ffff00008554945160101b16925160201b169265ffffffffffff19161717179055565b613b61949295508061040061ffff613be981613c0c959896985116613a78565b161115613c1757610400905b885f525f60205261ffff60405f2091511690613fa0565b949193929092613b35565b613c2561ffff825116613a78565b90613bf5565b905061ffff835116905f190161ffff8111610d835761ffff16145f613b2f565b613c6261321e9161ffff6002613c729501166130e8565b885f525f60205260405f2061109b565b606081015115159081613c94575b50613c8c575f80613b16565b505050505050565b63ffffffff9150511663ffffffff42160363ffffffff8111610d835763ffffffff6107089116105f613c80565b604051602081019182526006604082015260408152613ce1606082611140565b51902090565b9492909695939163ffffffff811615613de3579463ffffffff613d0f968903169788916141e7565b909263ffffffff8451168082145f14613d3e57505050602082015160060b91604060018060a01b039101511690565b63ffffffff83959351168083145f14613d6e5750505050602082015160060b91604060018060a01b039101511690565b9063ffffffff81819397949597031693031693602081015160060b9283602084015160060b0360060b928160060b928315610da6576040908101519101516001600160a01b0392918316918391613dce9190831684900383168a02611cd9565b1601169460060b91050260060b0160060b9190565b50925061321e90613df4929461109b565b9363ffffffff85511663ffffffff821603613e26575b505050602082015160060b91604060018060a01b039101511690565b613e30939461412d565b905f8080613e0a565b60405163c6c116bd60e01b815230600482015260248101829052906020826044817f00000000000000000000000000000000000000000000000000000000000000006001600160a01b03165afa918215611830575f92613f6c575b508115613f6857604051632eec7b5560e11b8152600481018290526020816024817f00000000000000000000000000000000000000000000000000000000000000006001600160a01b03165afa908115611830575f91613f49575b506001600160a01b031691823b156101965760845f9283604051958694859363181faefd60e11b8552306004860152602485015260448401523060648401525af1801561183057613f3d5750565b5f613f4791611140565b565b613f62915060203d6020116118295761181b8183611140565b5f613eef565b5050565b9091506020813d602011613f98575b81613f8860209383611140565b810103126101965751905f613e94565b3d9150613f7b565b61ffff8216918215613ff75761ffff841692831115613ff0575b8261ffff821610613fcb5750505090565b600181613fdb61ffff938561109b565b50805463ffffffff1916831790550116613fba565b9250505090565b82631bd3597160e31b5f5260045260245ffd5b939195929096949661401f61321e828761109b565b9363ffffffff85511663ffffffff8916146140ff579161406761407595949261ffff61406f958c8260019d9e1683831611806140ef575b156140e557509a8b925b01166130e8565b98899461412d565b9261109b565b9190916140d257805160208083015160408401516060909401516001600160f81b031990151560f81b16600160581b600160f81b0360589590951b9490941663ffffffff909316911b6affffffffffffff00000000161717179055565b634e487b7160e01b5f525f60045260245ffd5b90509a8b92614060565b508383165f198201841614614056565b5096955050505050565b60405190614116826110bf565b5f6060838281528260208201528260408201520152565b91929092614139614109565b5063ffffffff835116840392602081015160060b90604060018060a01b0391015116926001600160801b03811615155f146141d7576001600160801b03905b16918215610da65763ffffffff60405196614192886110bf565b16865263ffffffff851660060b9060020b0260060b0160060b602085015260018060a01b039263ffffffff60801b9060801b1604011660408201526001606082015290565b506001600160801b036001614178565b96929490949391936141f7614109565b50614200614109565b9161420e61321e858b61109b565b9163ffffffff83511661422288828b6145b8565b614378575050505050600161ffff91011661424961321e61424387846130e8565b8861109b565b606081015115614362575b5163ffffffff166142668482876145b8565b15614345575061ffff61428c86829361427d614109565b50614286614109565b506130e8565b169416935f19858201015b80820160011c906142b461321e6142ae8985614636565b8a61109b565b60608101511561433a5760018301906142d961321e6142d38b85614636565b8c61109b565b6142eb8863ffffffff8451168b6145b8565b918280614322575b61431357505061430a5750505f1901905b90614297565b91509150614304565b9a509850949650505050505050565b5061433563ffffffff8351168a8c6145b8565b6142f3565b509150600101614304565b8363ffffffff91630703673b60e01b5f526004521660245260445ffd5b5063ffffffff614371876130fc565b9050614254565b93995094975090955093915063ffffffff821603614397575050509190565b836114ed94965061412d565b83156145b2576001600160a01b0316918261445857506001600160a01b0316803b156101965760405191632961046560e21b835260048301525a915f8160248183868198f1801561183057614442575b50602090600460405180958193630476982d60e21b83525af1908115614436575061441b5750565b6144339060203d6020116129e8576129d98183611140565b50565b604051903d90823e3d90fd5b61444f9192505f90611140565b5f9060206143f3565b926001600160a01b039091169190823b1561019657604051632961046560e21b815260048101839052935a945f816024818389819bf180156118305761459d575b506001600160a01b03169030821461454457604051916323b872dd60e01b86526004528360245260445260208460648180865af1906001855114821615614523575b60405283606052156145115750602082915b600460405180958193630476982d60e21b83525af1908115614436575061441b5750565b635274afe760e01b8352600452602482fd5b90600181151661453b57823b15153d151616906144db565b503d84823e3d90fd5b90506040519063a9059cbb60e01b85528360045260245260208460448180865af1906001855114821615614585575b604052156145115750602082916144ed565b90600181151661453b57823b15153d15161690614573565b6145aa9195505f90611140565b5f935f614499565b50505050565b63ffffffff918216929116808311801580614626575b614619579063ffffffff64ffffffffff939484935f1461460a57945b16908111156145fc575b169116111590565b6401000000000181166145f4565b640100000000018316946145ea565b505063ffffffff16101590565b508163ffffffff841611156145ce565b8115610da657069056fea164736f6c634300081c000a",
	"gitCommit": "npm:@bananapus/univ4-router-v6@0.0.52",
	"gitDirty": false,
	"history": []
}