{
	"format": "sphinx-sol-ct-artifact-1",
	"address": "0xa11a1e3761da548b6ae1d11028a0c59220e6030c",
	"sourceName": "node_modules/@rev-net/core-v6/src/REVOwner.sol",
	"contractName": "REVOwner",
	"chainId": "0xaa36a7",
	"abi": [
		{
			"type": "constructor",
			"inputs": [
				{
					"name": "buybackHook",
					"type": "address",
					"internalType": "contract IJBBuybackHookRegistry"
				},
				{
					"name": "directory",
					"type": "address",
					"internalType": "contract IJBDirectory"
				},
				{
					"name": "feeRevnetId",
					"type": "uint256",
					"internalType": "uint256"
				},
				{
					"name": "suckerRegistry",
					"type": "address",
					"internalType": "contract IJBSuckerRegistry"
				},
				{
					"name": "loans",
					"type": "address",
					"internalType": "contract IREVLoans"
				},
				{
					"name": "trustedForwarder",
					"type": "address",
					"internalType": "address"
				},
				{
					"name": "deployerAddress",
					"type": "address",
					"internalType": "address"
				}
			],
			"stateMutability": "nonpayable"
		},
		{
			"type": "function",
			"name": "BUYBACK_HOOK",
			"inputs": [],
			"outputs": [
				{
					"name": "",
					"type": "address",
					"internalType": "contract IJBBuybackHookRegistry"
				}
			],
			"stateMutability": "view"
		},
		{
			"type": "function",
			"name": "CONTROLLER",
			"inputs": [],
			"outputs": [
				{
					"name": "",
					"type": "address",
					"internalType": "contract IJBController"
				}
			],
			"stateMutability": "view"
		},
		{
			"type": "function",
			"name": "DIRECTORY",
			"inputs": [],
			"outputs": [
				{
					"name": "",
					"type": "address",
					"internalType": "contract IJBDirectory"
				}
			],
			"stateMutability": "view"
		},
		{
			"type": "function",
			"name": "FEE_REVNET_ID",
			"inputs": [],
			"outputs": [
				{
					"name": "",
					"type": "uint256",
					"internalType": "uint256"
				}
			],
			"stateMutability": "view"
		},
		{
			"type": "function",
			"name": "LOANS",
			"inputs": [],
			"outputs": [
				{
					"name": "",
					"type": "address",
					"internalType": "contract IREVLoans"
				}
			],
			"stateMutability": "view"
		},
		{
			"type": "function",
			"name": "PERMISSIONS",
			"inputs": [],
			"outputs": [
				{
					"name": "",
					"type": "address",
					"internalType": "contract IJBPermissions"
				}
			],
			"stateMutability": "view"
		},
		{
			"type": "function",
			"name": "PROJECTS",
			"inputs": [],
			"outputs": [
				{
					"name": "",
					"type": "address",
					"internalType": "contract IJBProjects"
				}
			],
			"stateMutability": "view"
		},
		{
			"type": "function",
			"name": "SUCKER_REGISTRY",
			"inputs": [],
			"outputs": [
				{
					"name": "",
					"type": "address",
					"internalType": "contract IJBSuckerRegistry"
				}
			],
			"stateMutability": "view"
		},
		{
			"type": "function",
			"name": "afterCashOutRecordedWith",
			"inputs": [
				{
					"name": "context",
					"type": "tuple",
					"internalType": "struct JBAfterCashOutRecordedContext",
					"components": [
						{
							"name": "holder",
							"type": "address",
							"internalType": "address"
						},
						{
							"name": "projectId",
							"type": "uint256",
							"internalType": "uint256"
						},
						{
							"name": "rulesetId",
							"type": "uint256",
							"internalType": "uint256"
						},
						{
							"name": "cashOutCount",
							"type": "uint256",
							"internalType": "uint256"
						},
						{
							"name": "reclaimedAmount",
							"type": "tuple",
							"internalType": "struct JBTokenAmount",
							"components": [
								{
									"name": "token",
									"type": "address",
									"internalType": "address"
								},
								{
									"name": "decimals",
									"type": "uint8",
									"internalType": "uint8"
								},
								{
									"name": "currency",
									"type": "uint32",
									"internalType": "uint32"
								},
								{
									"name": "value",
									"type": "uint256",
									"internalType": "uint256"
								}
							]
						},
						{
							"name": "forwardedAmount",
							"type": "tuple",
							"internalType": "struct JBTokenAmount",
							"components": [
								{
									"name": "token",
									"type": "address",
									"internalType": "address"
								},
								{
									"name": "decimals",
									"type": "uint8",
									"internalType": "uint8"
								},
								{
									"name": "currency",
									"type": "uint32",
									"internalType": "uint32"
								},
								{
									"name": "value",
									"type": "uint256",
									"internalType": "uint256"
								}
							]
						},
						{
							"name": "cashOutTaxRate",
							"type": "uint256",
							"internalType": "uint256"
						},
						{
							"name": "beneficiary",
							"type": "address",
							"internalType": "address payable"
						},
						{
							"name": "hookMetadata",
							"type": "bytes",
							"internalType": "bytes"
						},
						{
							"name": "cashOutMetadata",
							"type": "bytes",
							"internalType": "bytes"
						}
					]
				}
			],
			"outputs": [],
			"stateMutability": "payable"
		},
		{
			"type": "function",
			"name": "amountToAutoIssue",
			"inputs": [
				{
					"name": "revnetId",
					"type": "uint256",
					"internalType": "uint256"
				},
				{
					"name": "stageId",
					"type": "uint256",
					"internalType": "uint256"
				},
				{
					"name": "beneficiary",
					"type": "address",
					"internalType": "address"
				}
			],
			"outputs": [
				{
					"name": "count",
					"type": "uint256",
					"internalType": "uint256"
				}
			],
			"stateMutability": "view"
		},
		{
			"type": "function",
			"name": "autoIssueFor",
			"inputs": [
				{
					"name": "revnetId",
					"type": "uint256",
					"internalType": "uint256"
				},
				{
					"name": "stageId",
					"type": "uint256",
					"internalType": "uint256"
				},
				{
					"name": "beneficiary",
					"type": "address",
					"internalType": "address"
				}
			],
			"outputs": [],
			"stateMutability": "nonpayable"
		},
		{
			"type": "function",
			"name": "beforeCashOutRecordedWith",
			"inputs": [
				{
					"name": "context",
					"type": "tuple",
					"internalType": "struct JBBeforeCashOutRecordedContext",
					"components": [
						{
							"name": "terminal",
							"type": "address",
							"internalType": "address"
						},
						{
							"name": "holder",
							"type": "address",
							"internalType": "address"
						},
						{
							"name": "projectId",
							"type": "uint256",
							"internalType": "uint256"
						},
						{
							"name": "rulesetId",
							"type": "uint256",
							"internalType": "uint256"
						},
						{
							"name": "cashOutCount",
							"type": "uint256",
							"internalType": "uint256"
						},
						{
							"name": "totalSupply",
							"type": "uint256",
							"internalType": "uint256"
						},
						{
							"name": "surplus",
							"type": "tuple",
							"internalType": "struct JBTokenAmount",
							"components": [
								{
									"name": "token",
									"type": "address",
									"internalType": "address"
								},
								{
									"name": "decimals",
									"type": "uint8",
									"internalType": "uint8"
								},
								{
									"name": "currency",
									"type": "uint32",
									"internalType": "uint32"
								},
								{
									"name": "value",
									"type": "uint256",
									"internalType": "uint256"
								}
							]
						},
						{
							"name": "scopeCashOutsToLocalBalances",
							"type": "bool",
							"internalType": "bool"
						},
						{
							"name": "cashOutTaxRate",
							"type": "uint256",
							"internalType": "uint256"
						},
						{
							"name": "beneficiaryIsFeeless",
							"type": "bool",
							"internalType": "bool"
						},
						{
							"name": "metadata",
							"type": "bytes",
							"internalType": "bytes"
						}
					]
				}
			],
			"outputs": [
				{
					"name": "cashOutTaxRate",
					"type": "uint256",
					"internalType": "uint256"
				},
				{
					"name": "cashOutCount",
					"type": "uint256",
					"internalType": "uint256"
				},
				{
					"name": "totalSupply",
					"type": "uint256",
					"internalType": "uint256"
				},
				{
					"name": "effectiveSurplusValue",
					"type": "uint256",
					"internalType": "uint256"
				},
				{
					"name": "hookSpecifications",
					"type": "tuple[]",
					"internalType": "struct JBCashOutHookSpecification[]",
					"components": [
						{
							"name": "hook",
							"type": "address",
							"internalType": "contract IJBCashOutHook"
						},
						{
							"name": "noop",
							"type": "bool",
							"internalType": "bool"
						},
						{
							"name": "amount",
							"type": "uint256",
							"internalType": "uint256"
						},
						{
							"name": "metadata",
							"type": "bytes",
							"internalType": "bytes"
						}
					]
				}
			],
			"stateMutability": "view"
		},
		{
			"type": "function",
			"name": "beforePayRecordedWith",
			"inputs": [
				{
					"name": "context",
					"type": "tuple",
					"internalType": "struct JBBeforePayRecordedContext",
					"components": [
						{
							"name": "terminal",
							"type": "address",
							"internalType": "address"
						},
						{
							"name": "payer",
							"type": "address",
							"internalType": "address"
						},
						{
							"name": "amount",
							"type": "tuple",
							"internalType": "struct JBTokenAmount",
							"components": [
								{
									"name": "token",
									"type": "address",
									"internalType": "address"
								},
								{
									"name": "decimals",
									"type": "uint8",
									"internalType": "uint8"
								},
								{
									"name": "currency",
									"type": "uint32",
									"internalType": "uint32"
								},
								{
									"name": "value",
									"type": "uint256",
									"internalType": "uint256"
								}
							]
						},
						{
							"name": "projectId",
							"type": "uint256",
							"internalType": "uint256"
						},
						{
							"name": "rulesetId",
							"type": "uint256",
							"internalType": "uint256"
						},
						{
							"name": "beneficiary",
							"type": "address",
							"internalType": "address"
						},
						{
							"name": "weight",
							"type": "uint256",
							"internalType": "uint256"
						},
						{
							"name": "reservedPercent",
							"type": "uint256",
							"internalType": "uint256"
						},
						{
							"name": "metadata",
							"type": "bytes",
							"internalType": "bytes"
						}
					]
				}
			],
			"outputs": [
				{
					"name": "weight",
					"type": "uint256",
					"internalType": "uint256"
				},
				{
					"name": "hookSpecifications",
					"type": "tuple[]",
					"internalType": "struct JBPayHookSpecification[]",
					"components": [
						{
							"name": "hook",
							"type": "address",
							"internalType": "contract IJBPayHook"
						},
						{
							"name": "noop",
							"type": "bool",
							"internalType": "bool"
						},
						{
							"name": "amount",
							"type": "uint256",
							"internalType": "uint256"
						},
						{
							"name": "metadata",
							"type": "bytes",
							"internalType": "bytes"
						}
					]
				}
			],
			"stateMutability": "view"
		},
		{
			"type": "function",
			"name": "burnHeldTokensOf",
			"inputs": [
				{
					"name": "revnetId",
					"type": "uint256",
					"internalType": "uint256"
				}
			],
			"outputs": [],
			"stateMutability": "nonpayable"
		},
		{
			"type": "function",
			"name": "cashOutDelayOf",
			"inputs": [
				{
					"name": "revnetId",
					"type": "uint256",
					"internalType": "uint256"
				}
			],
			"outputs": [
				{
					"name": "cashOutDelay",
					"type": "uint256",
					"internalType": "uint256"
				}
			],
			"stateMutability": "view"
		},
		{
			"type": "function",
			"name": "deployer",
			"inputs": [],
			"outputs": [
				{
					"name": "",
					"type": "address",
					"internalType": "contract IREVDeployer"
				}
			],
			"stateMutability": "view"
		},
		{
			"type": "function",
			"name": "hasMintPermissionFor",
			"inputs": [
				{
					"name": "revnetId",
					"type": "uint256",
					"internalType": "uint256"
				},
				{
					"name": "ruleset",
					"type": "tuple",
					"internalType": "struct JBRuleset",
					"components": [
						{
							"name": "cycleNumber",
							"type": "uint48",
							"internalType": "uint48"
						},
						{
							"name": "id",
							"type": "uint48",
							"internalType": "uint48"
						},
						{
							"name": "basedOnId",
							"type": "uint48",
							"internalType": "uint48"
						},
						{
							"name": "start",
							"type": "uint48",
							"internalType": "uint48"
						},
						{
							"name": "duration",
							"type": "uint32",
							"internalType": "uint32"
						},
						{
							"name": "weight",
							"type": "uint112",
							"internalType": "uint112"
						},
						{
							"name": "weightCutPercent",
							"type": "uint32",
							"internalType": "uint32"
						},
						{
							"name": "approvalHook",
							"type": "address",
							"internalType": "contract IJBRulesetApprovalHook"
						},
						{
							"name": "metadata",
							"type": "uint256",
							"internalType": "uint256"
						}
					]
				},
				{
					"name": "addr",
					"type": "address",
					"internalType": "address"
				}
			],
			"outputs": [
				{
					"name": "",
					"type": "bool",
					"internalType": "bool"
				}
			],
			"stateMutability": "view"
		},
		{
			"type": "function",
			"name": "initializeRevnet",
			"inputs": [
				{
					"name": "revnetId",
					"type": "uint256",
					"internalType": "uint256"
				},
				{
					"name": "init",
					"type": "tuple",
					"internalType": "struct REVOwnerRevnetInit",
					"components": [
						{
							"name": "cashOutDelay",
							"type": "uint256",
							"internalType": "uint256"
						},
						{
							"name": "tiered721Hook",
							"type": "address",
							"internalType": "contract IJB721TiersHook"
						},
						{
							"name": "operator",
							"type": "address",
							"internalType": "address"
						},
						{
							"name": "extraOperatorPermissionIds",
							"type": "uint256[]",
							"internalType": "uint256[]"
						},
						{
							"name": "autoIssuances",
							"type": "tuple[]",
							"internalType": "struct REVOwnerAutoIssuance[]",
							"components": [
								{
									"name": "stageId",
									"type": "uint256",
									"internalType": "uint256"
								},
								{
									"name": "beneficiary",
									"type": "address",
									"internalType": "address"
								},
								{
									"name": "count",
									"type": "uint256",
									"internalType": "uint256"
								}
							]
						},
						{
							"name": "extraGrants",
							"type": "tuple[]",
							"internalType": "struct REVOwnerExtraGrant[]",
							"components": [
								{
									"name": "operator",
									"type": "address",
									"internalType": "address"
								},
								{
									"name": "permissionId",
									"type": "uint8",
									"internalType": "uint8"
								}
							]
						}
					]
				}
			],
			"outputs": [],
			"stateMutability": "nonpayable"
		},
		{
			"type": "function",
			"name": "isOperatorOf",
			"inputs": [
				{
					"name": "revnetId",
					"type": "uint256",
					"internalType": "uint256"
				},
				{
					"name": "addr",
					"type": "address",
					"internalType": "address"
				}
			],
			"outputs": [
				{
					"name": "",
					"type": "bool",
					"internalType": "bool"
				}
			],
			"stateMutability": "view"
		},
		{
			"type": "function",
			"name": "isTrustedForwarder",
			"inputs": [
				{
					"name": "forwarder",
					"type": "address",
					"internalType": "address"
				}
			],
			"outputs": [
				{
					"name": "",
					"type": "bool",
					"internalType": "bool"
				}
			],
			"stateMutability": "view"
		},
		{
			"type": "function",
			"name": "onERC721Received",
			"inputs": [
				{
					"name": "",
					"type": "address",
					"internalType": "address"
				},
				{
					"name": "",
					"type": "address",
					"internalType": "address"
				},
				{
					"name": "",
					"type": "uint256",
					"internalType": "uint256"
				},
				{
					"name": "",
					"type": "bytes",
					"internalType": "bytes"
				}
			],
			"outputs": [
				{
					"name": "",
					"type": "bytes4",
					"internalType": "bytes4"
				}
			],
			"stateMutability": "view"
		},
		{
			"type": "function",
			"name": "peerChainAdjustedAccountsOf",
			"inputs": [
				{
					"name": "revnetId",
					"type": "uint256",
					"internalType": "uint256"
				}
			],
			"outputs": [
				{
					"name": "supply",
					"type": "uint256",
					"internalType": "uint256"
				},
				{
					"name": "contexts",
					"type": "tuple[]",
					"internalType": "struct JBSourceContext[]",
					"components": [
						{
							"name": "token",
							"type": "bytes32",
							"internalType": "bytes32"
						},
						{
							"name": "decimals",
							"type": "uint8",
							"internalType": "uint8"
						},
						{
							"name": "surplus",
							"type": "uint128",
							"internalType": "uint128"
						},
						{
							"name": "balance",
							"type": "uint128",
							"internalType": "uint128"
						}
					]
				}
			],
			"stateMutability": "view"
		},
		{
			"type": "function",
			"name": "setDeployer",
			"inputs": [
				{
					"name": "newDeployer",
					"type": "address",
					"internalType": "contract IREVDeployer"
				}
			],
			"outputs": [],
			"stateMutability": "nonpayable"
		},
		{
			"type": "function",
			"name": "setOperatorOf",
			"inputs": [
				{
					"name": "revnetId",
					"type": "uint256",
					"internalType": "uint256"
				},
				{
					"name": "newOperator",
					"type": "address",
					"internalType": "address"
				}
			],
			"outputs": [],
			"stateMutability": "nonpayable"
		},
		{
			"type": "function",
			"name": "supportsInterface",
			"inputs": [
				{
					"name": "interfaceId",
					"type": "bytes4",
					"internalType": "bytes4"
				}
			],
			"outputs": [
				{
					"name": "flag",
					"type": "bool",
					"internalType": "bool"
				}
			],
			"stateMutability": "view"
		},
		{
			"type": "function",
			"name": "tiered721HookOf",
			"inputs": [
				{
					"name": "revnetId",
					"type": "uint256",
					"internalType": "uint256"
				}
			],
			"outputs": [
				{
					"name": "tiered721Hook",
					"type": "address",
					"internalType": "contract IJB721TiersHook"
				}
			],
			"stateMutability": "view"
		},
		{
			"type": "function",
			"name": "trustedForwarder",
			"inputs": [],
			"outputs": [
				{
					"name": "",
					"type": "address",
					"internalType": "address"
				}
			],
			"stateMutability": "view"
		},
		{
			"type": "event",
			"name": "AutoIssue",
			"inputs": [
				{
					"name": "revnetId",
					"type": "uint256",
					"indexed": true,
					"internalType": "uint256"
				},
				{
					"name": "stageId",
					"type": "uint256",
					"indexed": true,
					"internalType": "uint256"
				},
				{
					"name": "beneficiary",
					"type": "address",
					"indexed": true,
					"internalType": "address"
				},
				{
					"name": "count",
					"type": "uint256",
					"indexed": false,
					"internalType": "uint256"
				},
				{
					"name": "caller",
					"type": "address",
					"indexed": false,
					"internalType": "address"
				}
			],
			"anonymous": false
		},
		{
			"type": "event",
			"name": "BurnHeldTokens",
			"inputs": [
				{
					"name": "revnetId",
					"type": "uint256",
					"indexed": true,
					"internalType": "uint256"
				},
				{
					"name": "count",
					"type": "uint256",
					"indexed": false,
					"internalType": "uint256"
				},
				{
					"name": "caller",
					"type": "address",
					"indexed": false,
					"internalType": "address"
				}
			],
			"anonymous": false
		},
		{
			"type": "event",
			"name": "InitializeRevnet",
			"inputs": [
				{
					"name": "revnetId",
					"type": "uint256",
					"indexed": true,
					"internalType": "uint256"
				},
				{
					"name": "caller",
					"type": "address",
					"indexed": false,
					"internalType": "address"
				}
			],
			"anonymous": false
		},
		{
			"type": "event",
			"name": "ReplaceOperator",
			"inputs": [
				{
					"name": "revnetId",
					"type": "uint256",
					"indexed": true,
					"internalType": "uint256"
				},
				{
					"name": "newOperator",
					"type": "address",
					"indexed": true,
					"internalType": "address"
				},
				{
					"name": "caller",
					"type": "address",
					"indexed": false,
					"internalType": "address"
				}
			],
			"anonymous": false
		},
		{
			"type": "error",
			"name": "PRBMath_MulDiv_Overflow",
			"inputs": [
				{
					"name": "x",
					"type": "uint256",
					"internalType": "uint256"
				},
				{
					"name": "y",
					"type": "uint256",
					"internalType": "uint256"
				},
				{
					"name": "denominator",
					"type": "uint256",
					"internalType": "uint256"
				}
			]
		},
		{
			"type": "error",
			"name": "REVOwner_AlreadyInitialized",
			"inputs": [
				{
					"name": "deployer",
					"type": "address",
					"internalType": "address"
				}
			]
		},
		{
			"type": "error",
			"name": "REVOwner_CashOutDelayNotFinished",
			"inputs": [
				{
					"name": "cashOutDelay",
					"type": "uint256",
					"internalType": "uint256"
				},
				{
					"name": "blockTimestamp",
					"type": "uint256",
					"internalType": "uint256"
				}
			]
		},
		{
			"type": "error",
			"name": "REVOwner_InvalidLoanSourceToken",
			"inputs": [
				{
					"name": "revnetId",
					"type": "uint256",
					"internalType": "uint256"
				},
				{
					"name": "token",
					"type": "address",
					"internalType": "address"
				}
			]
		},
		{
			"type": "error",
			"name": "REVOwner_NativeFeeValueMismatch",
			"inputs": [
				{
					"name": "expected",
					"type": "uint256",
					"internalType": "uint256"
				},
				{
					"name": "actual",
					"type": "uint256",
					"internalType": "uint256"
				}
			]
		},
		{
			"type": "error",
			"name": "REVOwner_NothingToAutoIssue",
			"inputs": [
				{
					"name": "revnetId",
					"type": "uint256",
					"internalType": "uint256"
				},
				{
					"name": "stageId",
					"type": "uint256",
					"internalType": "uint256"
				},
				{
					"name": "beneficiary",
					"type": "address",
					"internalType": "address"
				}
			]
		},
		{
			"type": "error",
			"name": "REVOwner_NothingToBurn",
			"inputs": [
				{
					"name": "revnetId",
					"type": "uint256",
					"internalType": "uint256"
				},
				{
					"name": "holder",
					"type": "address",
					"internalType": "address"
				}
			]
		},
		{
			"type": "error",
			"name": "REVOwner_OverflowAlert",
			"inputs": [
				{
					"name": "value",
					"type": "uint256",
					"internalType": "uint256"
				},
				{
					"name": "limit",
					"type": "uint256",
					"internalType": "uint256"
				}
			]
		},
		{
			"type": "error",
			"name": "REVOwner_StageNotStarted",
			"inputs": [
				{
					"name": "stageId",
					"type": "uint256",
					"internalType": "uint256"
				}
			]
		},
		{
			"type": "error",
			"name": "REVOwner_TooManyBuybackHookSpecifications",
			"inputs": [
				{
					"name": "count",
					"type": "uint256",
					"internalType": "uint256"
				}
			]
		},
		{
			"type": "error",
			"name": "REVOwner_Unauthorized",
			"inputs": [
				{
					"name": "caller",
					"type": "address",
					"internalType": "address"
				},
				{
					"name": "expectedCaller",
					"type": "address",
					"internalType": "address"
				}
			]
		},
		{
			"type": "error",
			"name": "REVOwner_UnauthorizedOperator",
			"inputs": [
				{
					"name": "revnetId",
					"type": "uint256",
					"internalType": "uint256"
				},
				{
					"name": "caller",
					"type": "address",
					"internalType": "address"
				}
			]
		},
		{
			"type": "error",
			"name": "REVOwner_ZeroPrice",
			"inputs": [
				{
					"name": "revnetId",
					"type": "uint256",
					"internalType": "uint256"
				},
				{
					"name": "pricingCurrency",
					"type": "uint256",
					"internalType": "uint256"
				},
				{
					"name": "unitCurrency",
					"type": "uint256",
					"internalType": "uint256"
				}
			]
		},
		{
			"type": "error",
			"name": "SafeERC20FailedDecreaseAllowance",
			"inputs": [
				{
					"name": "spender",
					"type": "address",
					"internalType": "address"
				},
				{
					"name": "currentAllowance",
					"type": "uint256",
					"internalType": "uint256"
				},
				{
					"name": "requestedDecrease",
					"type": "uint256",
					"internalType": "uint256"
				}
			]
		},
		{
			"type": "error",
			"name": "SafeERC20FailedOperation",
			"inputs": [
				{
					"name": "token",
					"type": "address",
					"internalType": "address"
				}
			]
		}
	],
	"args": [
		"0xc024b2Dd71FE31DED8590e1C7B7C4f521e4A1d42",
		"0x64AdBfeA4C04557aEcc4a0DCf9Afd2465b915851",
		"3",
		"0x12D6958823BFa587Ffc54EC911FA6350a13cc593",
		"0x6a39Aa01F231769F3e57fABBbEA73ae98e04B03E",
		"0xc3d209565fA468581cdE5F6F3e381F7CcabC76C9",
		"0x4dc161eF837fF1C4485b08DDFcDB182F2157bE18"
	],
	"solcInputHash": "fa89347efb317504c86bb42edee65081",
	"bytecode": "0x6101603461019057601f61450638819003918201601f19168301916001600160401b038311848410176101945780849260e0946040528339810103126101905780516001600160a01b03811681036101905760208201516001600160a01b03811681036101905760408301516060840151916001600160a01b0383168303610190576080850151936001600160a01b0385168503610190576100af60c06100a860a089016101a8565b97016101a8565b9560805260a05260c05260e05261012052610100526101405260405161434990816101bd8239608051818181611be401528181611f1f01526136b0015260a051818181611189015281816112180152818161142b015281816117a501528181611ed0015281816131ef0152613475015260c051818181611b9f01526130cb015260e0518181816106a501528181611ffc0152613087015261010051818181610ef101528181611037015281816113d8015281816126bb0152613d00015261012051818181610fcc0152818161350f0152613a6f015261014051816112830152f35b5f80fd5b634e487b7160e01b5f52604160045260245ffd5b51906001600160a01b03821682036101905756fe6080806040526004361015610012575f80fd5b5f905f3560e01c90816301ffc9a7146120a057508063150b7a021461201f5780631680e17214611fe5578063293c499914611fbd578063437e610714611f7c5780634fa9af6914611f53578063572b6c0514611eff5780635b3435b414611ebb5780636298273014611dff57806373966f5d14611c135780637da0a87714611bce57806388bc2ef314611b895780638cc35846146115c2578063902b742e1461158f578063962147351461124957806399f6d77f14610ffb578063b5d2553314610fb6578063b64ce2c314610f20578063b7249ca614610edb578063b987005d14610a67578063c22903b2146105cc578063d59529fe146102e3578063d5f39488146102ba578063dfe5d20a14610289578063ee0fc12114610260578063f434c914146102375763f672acac14610147575f80fd5b34610234576020366003190112610234576004356001600160401b038111610232576101c060031982360301126102325761018490600401612fdc565b92939060409592955195869560a0870193875260208701526040860152606085015260a06080850152825180915260c08401602060c08360051b870101940192905b8282106101d557505050500390f35b91936001919395506020610222819260bf198a8203018652608060608a51878060a01b0381511684528581015115158685015260408101516040850152015191816060820152019061218d565b96019201920185949391926101c6565b505b80fd5b50346102345780600319360112610234576005546040516001600160a01b039091168152602090f35b50346102345780600319360112610234576004546040516001600160a01b039091168152602090f35b50346102345760403660031901126102345760206102b06102a8612139565b600435612c09565b6040519015158152f35b50346102345780600319360112610234576003546040516001600160a01b039091168152602090f35b5034610234576040366003190112610234576024356004356001600160401b0382116105c857816004019160c060031982360301126105c4576003546001600160a01b0316338190036105ae575082358061059c575b50602481016001600160a01b0361034f82612b3b565b16610564575b50916084830190845b6103688383612b4f565b90508110156103e85761037b8383612b4f565b8210156103d45790600191606082020185885260026020526040882081358952602052604088206103ae60208301612b3b565b848060a01b03165f526020526103cc6040805f209201358254612b84565b90550161035e565b634e487b7160e01b87526032600452602487fd5b5083856064820185825b6103fc8387612b91565b90508110156104865781845260076020526040842061041b8488612b91565b831015610472578154916801000000000000000083101561045e57600183018082558310156103d457865260208620600584901b909101359101556001016103f2565b634e487b7160e01b87526041600452602487fd5b634e487b7160e01b86526032600452602486fd5b8386838761049f61049960448301612b3b565b836138a3565b60409360209160a401815b6104b48287612bc6565b9050811015610535576104c78287612bc6565b821015610521579061051b6001928260061b01876105158b51926104eb8d85612217565b8684528936602086013761050160208201612bfb565b60ff61050c8661244d565b91169052612b3b565b306137c2565b016104aa565b634e487b7160e01b84526032600452602484fd5b82857f81292c4d4e88fb7943bb880206d4a261fc961134c0a553ce9fd52db18ffe606e6020604051338152a280f35b61056d90612b3b565b82855260016020526040852080546001600160a01b0319166001600160a01b039092169190911790555f610355565b8285528460205260408520555f610339565b63380a0e1360e21b855233600452602452604484fd5b8380fd5b8280fd5b50602036600319011261023457600435906001600160401b038211610234578136036102006003198201126102325761010483019061eeee6001600160a01b0361061584612b3b565b16036109bd576101648401358034036109a757505b6101c484013590602219018112156105c85783016004810135906001600160401b0382116105c457602481019180360383136109a357602090820191909103126105c857356001600160a01b03811693908490036105c85761068b82612b3b565b9061069d610164820135809387613aaa565b9161075960207f0000000000000000000000000000000000000000000000000000000000000000946106ce87612b3b565b9060246106dd87600401612b3b565b960135956040519287858501528484526106f8604085612217565b60405163fef4325760e01b8152600481018a90526001600160a01b0391821660248201526044810188905291166064820152608481018a905260e060a482015260e481018a905261010060c48201529384928391829161010483019061218d565b03918b5af19081610974575b5061095d573d15610958573d61077a816122c1565b906107886040519283612217565b81528560203d92013e5b61eeee6001600160a01b036107a686612b3b565b160361088c575b8495506107c5816107bf869796612b3b565b33613aaa565b6107ce86612b3b565b604051946020860152602085526107e6604086612217565b333b1561088857859361084160405196879586948594639e6eec0560e01b8652600486015260018060a01b03166024850152604484015286606484015260c060848401528660c484015260e060a484015260e483019061218d565b0391335af1801561087d57610868575b505061085f61086591612b3b565b33613b49565b80f35b8161087291612217565b61023257815f610851565b6040513d84823e3d90fd5b8580fd5b6001600160a01b0361089d85612b3b565b604051636eb1769f60e11b81523060048201526001600160a01b0389166024820152911690602081604481855afa90811561094d578791610917575b508281106108fb57908697836108f39398979803916141d9565b9392936107ad565b63e570110f60e01b875260048890526024526044829052606486fd5b90506020813d602011610945575b8161093260209383612217565b8101031261094157515f6108d9565b5f80fd5b3d9150610925565b6040513d89823e3d90fd5b610792565b5050509161096e6108659293612b3b565b90613b49565b6020813d60201161099b575b8161098d60209383612217565b810103126109415751610765565b3d9150610980565b8480fd5b630f83da9960e11b845260045234602452604483fd5b34610a4f576001600160a01b036109d383612b3b565b166040516323b872dd60e01b8552336004523060245261016486013560445260208560648180865af1906001865114821615610a2e575b6040528460605215610a1c575061062a565b635274afe760e01b8452600452602483fd5b906001811516610a4657823b15153d15161690610a0a565b503d85823e3d90fd5b630f83da9960e11b8352600483905234602452604483fd5b503461023457610a7636612163565b60048054604051630969875760e21b81529182018590526024820184905292939261038090829060449082906001600160a01b03165afa908115610ed0578591610c3b575b506060015165ffffffffffff164210610c27578184526002602052604084208385526020526040842060018060a01b0382165f5260205260405f2054928315610bff5782610b80949260c4926020958852600286526040882081895286526040882060018060a01b0383165f5286528760405f2055827f0ad8046f3d571312df6d1867ac30c26e100f5684a9d7c2d3340c4e2a5b56360f610b5a613685565b604080518981526001600160a01b03928316602082015291909516998a95829190820190565b0390a48560018060a01b036004541660405196879586946363fdc96f60e11b865260048601526024850152604484015260a060648401528160a48401528160848401525af1801561087d57610bd3575080f35b610bf49060203d602011610bf8575b610bec8183612217565b810190612281565b5080f35b503d610be2565b6333dc00ab60e01b85526004929092526024919091526001600160a01b031660445250606481fd5b631f9af7b360e21b84526004839052602484fd5b8091506103803d8111610ec9575b610c538183612217565b8101039061038082126108885761012082126108885760405191610c76836121b1565b610c7f82612b19565b8352610c8d60208301612b19565b6020840152610c9e60408301612b19565b6040840152610caf60608301612b19565b6060840152610cc06080830161265d565b608084015260a08201516001600160701b0381168103610ec55760a0840152610ceb60c0830161265d565b60c084015260e0820151906001600160a01b0382168203610ec5576102609160e085015261010083015161010085015261011f190112610888576040519061026082018281106001600160401b03821117610eb15791610240610ea761036065ffffffffffff9694606096604052610d666101208201612b2c565b8552610d756101408201612b2c565b6020860152610d87610160820161265d565b6040860152610d9961018082016122b4565b87860152610daa6101a082016122b4565b6080860152610dbc6101c082016122b4565b60a0860152610dce6101e082016122b4565b60c0860152610de061020082016122b4565b60e0860152610df261022082016122b4565b610100860152610e038482016122b4565b610120860152610e1661026082016122b4565b610140860152610e2961028082016122b4565b610160860152610e3c6102a082016122b4565b610180860152610e4f6102c082016122b4565b6101a0860152610e626102e082016122b4565b6101c0860152610e7561030082016122b4565b6101e0860152610e8861032082016122b4565b610200860152610e9b610340820161259b565b61022086015201612b2c565b9101529150610abb565b634e487b7160e01b88526041600452602488fd5b8780fd5b503d610c49565b6040513d87823e3d90fd5b50346102345780600319360112610234576040517f00000000000000000000000000000000000000000000000000000000000000006001600160a01b03168152602090f35b503461023457602036600319011261023457610f3d6004356126b9565b604051928392604084019084526040602085015282518091526020606085019301915b818110610f6e575050500390f35b91935091602060806001926001600160801b03606088518051845260ff8682015116868501528260408201511660408501520151166060820152019401910191849392610f60565b50346102345780600319360112610234576040517f00000000000000000000000000000000000000000000000000000000000000006001600160a01b03168152602090f35b503461023457610160366003190112610234576004359061012036602319011261023457610144356001600160a01b038116928382036105c8577f00000000000000000000000000000000000000000000000000000000000000006001600160a01b03168414928315611216575b8315611099575b50602093508215611088575b50506040519015158152f35b6110929250613a3e565b5f8061107c565b909250604051936399f6d77f60e01b855283600486015260243565ffffffffffff81168091036105c857602486015260443565ffffffffffff81168091036105c857604486015260643565ffffffffffff81168091036105c857606486015260843565ffffffffffff81168091036105c857608486015260a43563ffffffff81168091036105c85760a486015260c4356001600160701b0381168091036105c85760c486015260e43563ffffffff81168091036105c85760e4860152610104356001600160a01b038116908190036105c857610104860152610124803590860152610144850152602084610164817f00000000000000000000000000000000000000000000000000000000000000006001600160a01b03165afa90811561120a5780916111cd575b5060209350915f611070565b90506020843d602011611202575b816111e860209383612217565b8101031261023457506111fc6020936122b4565b5f6111c1565b3d91506111db565b604051903d90823e3d90fd5b7f00000000000000000000000000000000000000000000000000000000000000006001600160a01b031685149350611069565b5034610234576020366003190112610234576004356001600160a01b038116919082900361023457611279613685565b6001600160a01b037f0000000000000000000000000000000000000000000000000000000000000000811691168181036115795750506003546001600160a01b038116929083611565576001600160a01b031916811760035560405163ee0fc12160e01b8152602081600481855afa9081156114d6578391611523575b5060018060a01b03166bffffffffffffffffffffffff60a01b6004541617600455604051633d0d324560e21b8152602081600481855afa9081156114d65783916114e1575b50600580546001600160a01b0319166001600160a01b039290921691909117905560405163293c499960e01b815290602082600481845afa80156114d6578390611490575b610865925060018060a01b03166bffffffffffffffffffffffff60a01b6006541617600655604061145981516113b68382612217565b60018152611406601f198401918236602083013760126113d58261244d565b527f00000000000000000000000000000000000000000000000000000000000000006001600160a01b0316306136de565b8251906114138483612217565b60018252366020830137601d6114288261244d565b527f00000000000000000000000000000000000000000000000000000000000000006001600160a01b0316306136de565b5190611466606083612217565b600282526040366020840137602161147d8361244d565b5260206114898361246e565b52306136de565b50906020813d6020116114ce575b816114ab60209383612217565b810103126105c85751906001600160a01b03821682036105c85761086591611380565b3d915061149e565b6040513d85823e3d90fd5b90506020813d60201161151b575b816114fc60209383612217565b810103126105c857516001600160a01b03811681036105c8578361133b565b3d91506114ef565b90506020813d60201161155d575b8161153e60209383612217565b810103126105c857516001600160a01b03811681036105c857836112f6565b3d9150611531565b6332a5609360e11b83526004849052602483fd5b63380a0e1360e21b835260045260245260449150fd5b503461023457602036600319011261023457602090600435815260018252604060018060a01b0391205416604051908152f35b5034610234576020366003190112610234576004356001600160401b0381116102325736819003600482016101806003198301126105c45760c4830135808552600160205260408520546001600160a01b0316928561161f612290565b95819286151596876119f4575b505060a4810135928381106119e4575081945b6116546040519161164f836121b1565b61214f565b81526116626024830161214f565b916020820192835261167736604483016124b3565b9560408301968752606083019081526080830160e4830135815261169e610104840161214f565b60a0850190815260c0850190610124850135825260e086019261014486013584526101648601356001600160401b0381116119e0576117a19660046116e69236920101612504565b61010088019081528b5160609081018e905260408051634661ac2360e11b81526020600482018190529a516001600160a01b0390811660248301529b518c1660448201529d518051909b1660648f0152988a015160ff1660848e01529789015163ffffffff1660a48d0152979096015160c48b01528996879690945160e488015251610104870152516001600160a01b03166101248601525161014485015251610164840152516101806101848401526101a483019061218d565b03817f00000000000000000000000000000000000000000000000000000000000000006001600160a01b03165afa9283156119d557869287946119ab575b508281611984575050505083915b81511515811561197e5760015b81156119755760ff8060015b1691160160ff81116119615760ff16948261182087612238565b9661182e6040519889612217565b80885261183d601f1991612238565b01885b81811061194557505061192b575b506118f0575b5050906040519283926040840190845260406020850152825180915260608401602060608360051b870101940192905b82821061189357505050500390f35b919360019193955060206118e08192605f198a8203018652608060608a51878060a01b0381511684528581015115158685015260408101516040850152015191816060820152019061218d565b9601920192018594939192611884565b6118fc61191b9261244d565b5190156119235760ff60015b1690611914828661247e565b528361247e565b505f80611854565b60ff85611908565b6119348661244d565b5261193e8561244d565b505f61184e565b6020919250611952612290565b82828b01015201908491611840565b634e487b7160e01b87526011600452602487fd5b60ff8088611806565b856117fa565b828296949610611997575b5050506117ed565b6119a293955061399e565b915f808061198f565b9093506119cb9192503d8088833e6119c38183612217565b810190612322565b919091925f6117df565b6040513d88823e3d90fd5b8980fd5b6119ee9084612492565b9461163f565b604051634661ac2360e11b815260206004820152916001600160a01b03611a1a8961214f565b16602484015260018060a01b03611a336024860161214f565b16604484015260018060a01b03611a4c6044860161214f565b16606484015260ff611a606064860161242e565b16608484015263ffffffff611a776084860161243c565b1660a484015260a484013560c48401528660e484015260e484013561010484015260018060a01b03611aac610104860161214f565b1661012484015261012484013561014484015261014484013561016484015261016484013590602219018112156109a3578301602460048201359101916001600160401b03821161088857813603831361088857836101c4818481958a97610180610184850152816101a4850152848401378181018301879052601f01601f191681010301915afa9081156114d6578391611b6d575b508051611b50575b8061162c565b91509550611b5e915061244d565b5193856040860151915f611b4a565b611b8191503d8085833e6119c38183612217565b90505f611b42565b50346102345780600319360112610234576040517f00000000000000000000000000000000000000000000000000000000000000006001600160a01b03168152602090f35b50346102345780600319360112610234576040517f00000000000000000000000000000000000000000000000000000000000000006001600160a01b03168152602090f35b50346109415760203660031901126109415760043560018060a01b0360045416604051630760c75760e21b8152602081600481855afa908115611d64575f91611dba575b506040516310f0007760e31b8152306004820152602481018490529190602090839060449082906001600160a01b03165afa918215611d64575f92611d86575b508115611d6f57803b15610941575f809160a46040518094819363516a997360e11b8352306004840152886024840152876044840152608060648401528160848401525af18015611d6457611d2f575b507fd399cf348b30f568c932b5653327b008a5811ed0f843af136e3cfeab99bcde0b90611d12613685565b604080519283526001600160a01b0391909116602083015290a280f35b611d3c9193505f90612217565b5f917fd399cf348b30f568c932b5653327b008a5811ed0f843af136e3cfeab99bcde0b611ce7565b6040513d5f823e3d90fd5b8263028136c960e31b5f526004523060245260445ffd5b9091506020813d602011611db2575b81611da260209383612217565b810103126109415751905f611c97565b3d9150611d95565b90506020813d602011611df7575b81611dd560209383612217565b810103126109415751906001600160a01b038216820361094157906020611c57565b3d9150611dc8565b3461094157604036600319011261094157600435611e1b612139565b611e23613685565b91611e2e8382612c09565b15611e9c576040516001600160a01b038085168252611e9a94611e9592909185169084907f52a3e49c8cd6285101d0e0ce7bfe480932f746a11e864dd80b0ee48ad5196c3e90602090a38260405191611e88602084612217565b5f83525f368137306137c2565b6138a3565b005b905063376b3ad360e01b5f5260045260018060a01b031660245260445ffd5b34610941575f366003190112610941576040517f00000000000000000000000000000000000000000000000000000000000000006001600160a01b03168152602090f35b34610941576020366003190112610941576020611f1a612123565b6040517f00000000000000000000000000000000000000000000000000000000000000006001600160a01b039081169216919091148152f35b34610941576020366003190112610941576004355f525f602052602060405f2054604051908152f35b3461094157611f8a36612163565b915f52600260205260405f20905f5260205260405f209060018060a01b03165f52602052602060405f2054604051908152f35b34610941575f366003190112610941576006546040516001600160a01b039091168152602090f35b34610941575f3660031901126109415760206040517f00000000000000000000000000000000000000000000000000000000000000008152f35b3461094157608036600319011261094157612038612123565b50612041612139565b506064356001600160401b03811161094157366023820112156109415780600401356001600160401b0381116109415736910160240111610941576006546001600160a01b0316330361094157604051630a85bd0160e11b8152602090f35b34610941576020366003190112610941576004359063ffffffff60e01b8216809203610941576020916301ffc9a760e01b8114908115612112575b8115612101575b81156120f0575b5015158152f35b63b64ce2c360e01b149050836120e9565b63611481d960e11b811491506120e2565b63e347239560e01b811491506120db565b600435906001600160a01b038216820361094157565b602435906001600160a01b038216820361094157565b35906001600160a01b038216820361094157565b60609060031901126109415760043590602435906044356001600160a01b03811681036109415790565b805180835260209291819084018484015e5f828201840152601f01601f1916010190565b61012081019081106001600160401b038211176121cd57604052565b634e487b7160e01b5f52604160045260245ffd5b608081019081106001600160401b038211176121cd57604052565b606081019081106001600160401b038211176121cd57604052565b90601f801991011681019081106001600160401b038211176121cd57604052565b6001600160401b0381116121cd5760051b60200190565b9061225982612238565b6122666040519182612217565b8281528092612277601f1991612238565b0190602036910137565b90816020910312610941575190565b6040519061229d826121e1565b606080835f81525f60208201525f60408201520152565b5190811515820361094157565b6001600160401b0381116121cd57601f01601f191660200190565b81601f82011215610941578051906122f3826122c1565b926123016040519485612217565b8284526020838301011161094157815f9260208093018386015e8301015290565b9190604083820312610941578251926020810151906001600160401b03821161094157019080601f830112156109415781519161235e83612238565b9261236c6040519485612217565b80845260208085019160051b830101918383116109415760208101915b83831061239857505050505090565b82516001600160401b038111610941578201906080828703601f19011261094157604051906123c6826121e1565b60208301516001600160a01b03811681036109415782526123e9604084016122b4565b6020830152606083015160408301526080830151916001600160401b0383116109415761241e886020809695819601016122dc565b6060820152815201920191612389565b359060ff8216820361094157565b359063ffffffff8216820361094157565b80511561245a5760200190565b634e487b7160e01b5f52603260045260245ffd5b80516001101561245a5760400190565b805182101561245a5760209160051b010190565b9190820391821161249f57565b634e487b7160e01b5f52601160045260245ffd5b9190826080910312610941576040516124cb816121e1565b60608082946124d98161214f565b84526124e76020820161242e565b60208501526124f86040820161243c565b60408501520135910152565b81601f820112156109415780359061251b826122c1565b926125296040519485612217565b8284526020838301011161094157815f926020809301838601378301015290565b60405190612559602083612217565b5f80835282815b82811061256c57505050565b60209060405161257b816121e1565b5f81525f838201525f60408201525f606082015282828501015201612560565b51906001600160a01b038216820361094157565b602081830312610941578051906001600160401b03821161094157019080601f830112156109415781516125e281612238565b926125f06040519485612217565b81845260208085019260051b82010192831161094157602001905b8282106126185750505090565b602080916126258461259b565b81520191019061260b565b5f19811461249f5760010190565b9081602091031261094157516001600160a01b03811681036109415790565b519063ffffffff8216820361094157565b908160609103126109415760405190612686826121fc565b61268f8161259b565b8252602081015160ff811681036109415760208301526126b19060400161265d565b604082015290565b7f00000000000000000000000000000000000000000000000000000000000000006001600160a01b03169182158015612b10575b612b0157604051636670798960e01b815260048101839052602081602481875afa908115611d64575f91612acf575b50604051636abcccf160e11b8152600481018490529092835f83602481895afa928315611d64575f93612aab575b50825115612a9a575061275d825161224f565b915f935f5b825181101561282f576127b360206001600160a01b03612782848761247e565b51604051633bc96a2d60e11b81526004810189905291166001600160a01b0316602482015291829081906044820190565b03818c5afa908115611d64575f916127fe575b506127d1828761247e565b526127dc818661247e565b516127ea575b600101612762565b946127f6600191612630565b9590506127e2565b90506020813d8211612827575b8161281860209383612217565b8101031261094157515f6127c6565b3d915061280b565b50949392955061283e83612238565b61284b6040519182612217565b838152601f1961285a85612238565b015f5b818110612a6b575050809315612a6257506003546040516368439abf60e11b81529190602090839060049082906001600160a01b03165afa918215611d64575f92612a31575b505f945f5b8251811015612a26576128bb818a61247e565b5115612a1e576001600160a01b036128d3828561247e565b51604051633a01714f60e01b81526004810188905291166001600160a01b03811660248301529790606081806044810103816001600160a01b038a165afa908115611d64575f916129f0575b5080516001600160a01b03168990036129d9576001600160801b03612944848d61247e565b51116129b15782916129a99160ff60206001600160801b038f6001986129699161247e565b5116920151166040519b61297c8d6121e1565b8c5260208c01528060408c015260608b015261299781612630565b996129a2828b61247e565b528861247e565b505b016128a8565b6129bb838c61247e565b5163d91aa0ad60e01b5f526004526001600160801b0360245260445ffd5b8887633cc3fac360e21b5f5260045260245260445ffd5b612a11915060603d8111612a17575b612a098183612217565b81019061266e565b5f61291f565b503d6129ff565b6001906129ab565b509650505050919050565b612a5491925060203d602011612a5b575b612a4c8183612217565b81019061263e565b905f6128a3565b503d612a42565b95505050509190565b602090604051612a7a816121e1565b5f81525f838201525f60408201525f60608201528282860101520161285d565b945050509050612aa861254a565b90565b612ac89193503d805f833e612ac08183612217565b8101906125af565b915f61274a565b90506020813d602011612af9575b81612aea60209383612217565b8101031261094157515f61271c565b3d9150612add565b915050612b0c61254a565b5f91565b50823b156126ed565b519065ffffffffffff8216820361094157565b519061ffff8216820361094157565b356001600160a01b03811681036109415790565b903590601e198136030182121561094157018035906001600160401b0382116109415760200191606082023603831361094157565b9190820180921161249f57565b903590601e198136030182121561094157018035906001600160401b03821161094157602001918160051b3603831361094157565b903590601e198136030182121561094157018035906001600160401b03821161094157602001918160061b3603831361094157565b3560ff811681036109415790565b6005546001600160a01b031690612c1f81613bbd565b60405163632af95f60e01b81526001600160a01b039094166004850152306024850152604484019190915260c06064840152805160c48401819052839160e48301916020909101905f5b818110612cce575050509181806020945f60848301525f60a483015203915afa908115611d64575f91612c9a575090565b90506020813d602011612cc6575b81612cb560209383612217565b8101031261094157612aa8906122b4565b3d9150612ca8565b8251845286945060209384019390920191600101612c69565b3563ffffffff811681036109415790565b3580151581036109415790565b3590811515820361094157565b91906101c083820312610941576040519061016082018281106001600160401b038211176121cd576040528193612d488161214f565b8352612d566020820161214f565b602084015260408101356040840152606081013560608401526080810135608084015260a081013560a0840152612d908260c083016124b3565b60c0840152612da26101408201612d05565b60e0840152610160810135610100840152612dc06101808201612d05565b6101208401526101a0810135916001600160401b0383116109415761014092612de99201612504565b910152565b919060a083820312610941578251926020810151926040820151926060830151926080810151906001600160401b03821161094157019080601f8301121561094157815191612e3c83612238565b92612e4a6040519485612217565b80845260208085019160051b830101918383116109415760208101915b838310612e7657505050505090565b82516001600160401b038111610941578201906080828703601f1901126109415760405190612ea4826121e1565b60208301516001600160a01b0381168103610941578252612ec7604084016122b4565b6020830152606083015160408301526080830151916001600160401b03831161094157612efc886020809695819601016122dc565b6060820152815201920191612e67565b6101e0610140612aa8936020845260018060a01b03815116602085015260018060a01b0360208201511660408501526040810151606085015260608101516080850152608081015160a085015260a081015160c0850152612fa460c082015160e08601906060809160018060a01b03815116845260ff602082015116602085015263ffffffff60408201511660408501520151910152565b60e0810151151561016085015261010081015161018085015261012081015115156101a08501520151916101c080820152019061218d565b60408101359160e0820190612ff082612bfb565b9061302361301661010086019360ff63ffffffff61300d87612ce7565b16911688613cfd565b60a0879392930135612b84565b936130346101208701359283612b84565b9361304a61304460208901612b3b565b89613a3e565b61367357875f525f60205260405f20549742891161365c57879850602061307860c06130c798999a01612b3b565b604051630862026560e41b81527f000000000000000000000000000000000000000000000000000000000000000060048201526001600160a01b03909116602482015296879081906044820190565b03817f00000000000000000000000000000000000000000000000000000000000000006001600160a01b03165afa958615611d64575f9661363b575b506131116101408a01612cf8565b15613501575b505050610160860135801580156134f0575b80156134dd575b61343457956131eb9660808201359461314d602887048097612492565b61318561315c848b848c614171565b938a859986858d8281115f146134275761317f9261317991612492565b93612492565b91614171565b926131908482612b84565b8681116133ef575b505f929394888a9281811415806133e6575b6133cb575b50506131bc903690612d12565b9160808301528960a0830152606060c08301510152604051809a8192633d9cab2b60e21b835260048301612f0c565b03817f00000000000000000000000000000000000000000000000000000000000000006001600160a01b03165afa948515611d64575f935f995f9761339a575b508985851561338c5750508361324091612492565b80821161337a575b50506040519060018060a01b031660208201526020815261326a604082612217565b60405191613277836121e1565b3083525f6020840152604083015260608201528351600181116133685750835115613312576040519060606132ac8184612217565b60028352601f19015f5b8181106132fb575050906132f2916132ce829661244d565b516132d88361244d565b526132e28261244d565b506132ec8261246e565b5261246e565b505b9493929190565b602090613306612290565b828287010152016132b6565b925060408051906133238183612217565b60018252601f19015f5b8181106133515750508061334b91946133458261244d565b5261244d565b506132f4565b60209061335c612290565b8282860101520161332d565b636bcd859f60e11b5f5260045260245ffd5b613384929761399e565b945f80613248565b9a5098979695945050505050565b91945095506133bc9198503d805f833e6133b48183612217565b810190612dee565b9a93915050939098955f61322b565b6131bc929350906133dc918c61399e565b919050885f6131af565b508115156131aa565b9081875f95969315861461340d57505050508182945b949392613198565b61341b82826134219561399e565b9361399e565b94613405565b5061317f91505f93612492565b505090505f613447613471953690612d12565b8460a082015283606060c0830151015260405180968192633d9cab2b60e21b835260048301612f0c565b03817f00000000000000000000000000000000000000000000000000000000000000006001600160a01b03165afa908115611d64575f5f955f936134b757509493929190565b919550506134cf91503d805f833e6133b48183612217565b9296929391505f90506132f2565b506134eb6101808801612cf8565b613130565b506001600160a01b03841615613129565b909295919660018060a01b037f000000000000000000000000000000000000000000000000000000000000000016906040519063139db5a960e31b8252836004830152602082602481865afa918215611d64575f92613601575b509263ffffffff61358261357c613576606495602098612b84565b9c612bfb565b97612ce7565b169260ff604051978895869463622c574160e11b8652600486015260248501521660448301525afa908115611d64575f916135cb575b6135c29250612b84565b925f8080613117565b90506020823d6020116135f9575b816135e660209383612217565b81010312610941576135c29151906135b8565b3d91506135d9565b9150926020823d602011613633575b8161361d60209383612217565b81010312610941579051909263ffffffff61355b565b3d9150613610565b61365591965060203d602011612a5b57612a4c8183612217565b945f613103565b88635f7f3c2b60e11b5f526004524260245260445ffd5b505f9650505060809093013592606090565b6014361015806136ac575b156136a8576013193601368111610941573560601c90565b3390565b50337f00000000000000000000000000000000000000000000000000000000000000006001600160a01b031614613690565b9190604051906136ed826121fc565b6001600160a01b0390811682525f60208301908152604083019384526005549091169290833b156109415760408051631127c92960e21b81526001600160a01b03968716600482015260248101919091529251909416604483015292516001600160401b03166064820152915160606084840152805160a48401819052839160c48301916020909101905f5b8181106137a65750505091815f81819503925af18015611d645761379a5750565b5f6137a491612217565b565b825160ff16845286945060209384019390920191600101613779565b92604051916137d0836121fc565b6001600160a01b0390811683526001600160401b0393909316602083019081526040830191825260055490931692833b156109415760408051631127c92960e21b81526001600160a01b03968716600482015260248101919091529251909416604483015292516001600160401b03166064820152915160606084840152805160a48401819052839160c48301916020909101905f5b8181106138875750505091815f81819503925af18015611d645761379a5750565b825160ff16845286945060209384019390920191600101613866565b6138ac81613bbd565b926138b7845161224f565b915f5b85518110156138e5578060ff6138d26001938961247e565b51166138de828761247e565b52016138ba565b509093506137a492306137c2565b81156138fd570490565b634e487b7160e01b5f52601260045260245ffd5b91905f905f198185099080850292838084109303928084039314613991576127108310156139755750612710907fbc01a36e2eb1c432ca57a786c226809d495182a9930be0ded288ce703afb7e9194950990828211900360fc1b910360041c170290565b60649186630c740aef60e31b8352600452602452612710604452fd5b5050506127109192500490565b90915f198383099280830292838086109503948086039514613a315782851015613a195790829109600182190182168092046002816003021880820260020302808202600203028082026002030280820260020302808202600203028091026002030293600183805f03040190848311900302920304170290565b630c740aef60e31b5f5260045260245260445260645ffd5b505090612aa892506138f3565b6040516383db9d0160e01b815260048101919091526001600160a01b039091166024820152602081806044810103817f00000000000000000000000000000000000000000000000000000000000000006001600160a01b03165afa908115611d64575f91612c9a575090565b6001600160a01b039091169061eeee8214613b4457604051636eb1769f60e11b81523060048201526001600160a01b0382166024820152602081604481865afa908115611d64575f91613b10575b50613b0c93613b0691612b84565b916141d9565b5f90565b90506020813d602011613b3c575b81613b2b60209383612217565b810103126109415751613b0c613af8565b3d9150613b1e565b505090565b6001600160a01b039091169061eeee8214613bb957613b695f8284614250565b15613b72575050565b613b7c818361429d565b15613ba6575f613b8c9183614301565b15613b945750565b635274afe760e01b5f5260045260245ffd5b50635274afe760e01b5f5260045260245ffd5b5050565b5f52600760205260405f2090604051808360208295549384815201905f5260205f20925f5b818110613cd6575050613bf792500383612217565b81516009018060091161249f57613c0d9061224f565b916013613c198461244d565b52601d613c258461246e565b5282516002101561245a57601c606084015282516003101561245a576007608084015282516004101561245a57602360a084015282516005101561245a57601e60c084015282516006101561245a57601f60e084015282516007101561245a57601661010084015282516008101561245a5760176101208401525f5b8151811015613bb957613cb4818361247e565b519080600901918260091161249f57613ccf6001938761247e565b5201613ca1565b8454835260019485019487945060209093019201613be2565b604d811161249f57600a0a90565b927f00000000000000000000000000000000000000000000000000000000000000006001600160a01b03169290915f9184158015614168575b61415d57604051636670798960e01b81526004810187905295602087602481895afa968715611d64575f97614129575b50604051636abcccf160e11b815260048101829052875f826024818b5afa918215611d64575f9261410d575b50815115614101576003546040516368439abf60e11b8152989950969796602090889060049082906001600160a01b03165afa968715611d64575f976140e0575b505f955b82518710156140d4576001600160a01b03613df2888561247e565b51604051633bc96a2d60e11b81526004810187905291166001600160a01b0381166024830152906020816044818f5afa908115611d64575f916140a3575b50801561409857604051633a01714f60e01b8152600481018790526001600160a01b0383166024820152916060838c81806044810103916001600160a01b03165afa928315611d64575f93614078575b5082516001600160a01b03168190036140625750876020830160ff8151168281115f1461402d575091613ec4613ebf613eca9360ff6040965116612492565b613cef565b906138f3565b915b01805163ffffffff168703613ef15750613ee890600192612b84565b965b0195613dd7565b9060049160208d604051948580926307aaf34d60e21b82525afa928315611d64575f93613fea575b50602063ffffffff825116608460405180968193631df139fd60e11b83528c600484015260248301528c60448301528d606483015260018060a01b03165afa928315611d64575f93613fb7575b508215613f94575091613f88613f8e92600194613f828b613cef565b9061399e565b90612b84565b96613eea565b8663ffffffff89925116906312cd703760e31b5f5260045260245260445260645ffd5b9092506020813d8211613fe2575b81613fd260209383612217565b810103126109415751915f613f66565b3d9150613fc5565b9092506020813d8211614025575b8161400560209383612217565b8101031261094157516001600160a01b038116810361094157915f613f19565b3d9150613ff8565b91821015905061405857613ebf614044918a612492565b8082029182040361249f5760409091613ecc565b5060409091613ecc565b86633cc3fac360e21b5f5260045260245260445ffd5b61409191935060603d8111612a1757612a098183612217565b915f613e80565b505095600190613eea565b90506020813d82116140cc575b816140bd60209383612217565b8101031261094157515f613e30565b3d91506140b0565b98509695505050505050565b6140fa91975060203d602011612a5b57612a4c8183612217565b955f613dd3565b505f9796505050505050565b6141229192503d805f833e612ac08183612217565b905f613d92565b9096506020813d602011614155575b8161414560209383612217565b810103126109415751955f613d66565b3d9150614138565b505f94508493505050565b50843b15613d36565b92919281156141d15761271083146141d157838210156141ca5783826141969261399e565b9180156141c357806127100390612710821161249f57612aa8946141bd93613f889261399e565b90613911565b5050905090565b9250505090565b505050505f90565b91906141e6828285614250565b156141f057505050565b6141fa818461429d565b15614232579061420a9183614301565b156142125750565b635274afe760e01b5f9081526001600160a01b0391909116600452602490fd5b635274afe760e01b5f9081526001600160a01b038416600452602490fd5b92916040519163095ea7b360e01b5f5260018060a01b031660045260245260205f60448180875af19260015f511484161561428c575b50604052565b3d15903b151516909216915f614286565b60405163095ea7b360e01b5f9081526001600160a01b03909316600452602483905290929160209060448180875af19260015f51148416156142df5750604052565b600184929415166142f8573b15153d151616915f614286565b833d5f823e3d90fd5b92916040519163095ea7b360e01b5f5260018060a01b031660045260245260205f60448180875af19260015f51148416156142df575060405256fea164736f6c634300081c000a",
	"gitCommit": "npm:@rev-net/core-v6@0.0.96",
	"gitDirty": false,
	"history": []
}