{
	"format": "sphinx-sol-ct-artifact-1",
	"address": "0x725adfe9c53e8ceb84282456578f2b742915fd10",
	"sourceName": "node_modules/@croptop/core-v6/src/CTProjectOwner.sol",
	"contractName": "CTProjectOwner",
	"chainId": "0x14a34",
	"abi": [
		{
			"type": "constructor",
			"inputs": [
				{
					"name": "permissions",
					"type": "address",
					"internalType": "contract IJBPermissions"
				},
				{
					"name": "projects",
					"type": "address",
					"internalType": "contract IJBProjects"
				},
				{
					"name": "publisher",
					"type": "address",
					"internalType": "contract ICTPublisher"
				}
			],
			"stateMutability": "nonpayable"
		},
		{
			"type": "function",
			"name": "PERMISSIONS",
			"inputs": [],
			"outputs": [
				{
					"name": "",
					"type": "address",
					"internalType": "contract IJBPermissions"
				}
			],
			"stateMutability": "view"
		},
		{
			"type": "function",
			"name": "PROJECTS",
			"inputs": [],
			"outputs": [
				{
					"name": "",
					"type": "address",
					"internalType": "contract IJBProjects"
				}
			],
			"stateMutability": "view"
		},
		{
			"type": "function",
			"name": "PUBLISHER",
			"inputs": [],
			"outputs": [
				{
					"name": "",
					"type": "address",
					"internalType": "contract ICTPublisher"
				}
			],
			"stateMutability": "view"
		},
		{
			"type": "function",
			"name": "onERC721Received",
			"inputs": [
				{
					"name": "operator",
					"type": "address",
					"internalType": "address"
				},
				{
					"name": "from",
					"type": "address",
					"internalType": "address"
				},
				{
					"name": "tokenId",
					"type": "uint256",
					"internalType": "uint256"
				},
				{
					"name": "data",
					"type": "bytes",
					"internalType": "bytes"
				}
			],
			"outputs": [
				{
					"name": "",
					"type": "bytes4",
					"internalType": "bytes4"
				}
			],
			"stateMutability": "nonpayable"
		}
	],
	"args": [
		"0xBf9A259b0F3c5c4B72896752B8046FB7cecbd23E",
		"0x056D2823a5699Ce0F58948Ab12DeB8f4B93c6cb6",
		"0x411AA797550FCBd89CcF719165E8d1A976d88f69"
	],
	"solcInputHash": "e9a258cf0208de9f5e5b414ee58250f8",
	"bytecode": "0x60e0346100c157601f61048738819003918201601f19168301916001600160401b038311848410176100c5578084926060946040528339810103126100c1578051906001600160a01b03821682036100c1576020810151906001600160a01b03821682036100c15760400151916001600160a01b03831683036100c15760805260a05260c0526040516103ad90816100da8239608051818181605b01526101d4015260a05181818160e80152610178015260c05181818160a301526102180152f35b5f80fd5b634e487b7160e01b5f52604160045260245ffdfe60806040526004361015610011575f80fd5b5f5f3560e01c8063150b7a0214610117578063293c4999146100d2578063dbfbe5da1461008d5763f434c91414610046575f80fd5b3461008a578060031936011261008a576040517f00000000000000000000000000000000000000000000000000000000000000006001600160a01b03168152602090f35b80fd5b503461008a578060031936011261008a576040517f00000000000000000000000000000000000000000000000000000000000000006001600160a01b03168152602090f35b503461008a578060031936011261008a576040517f00000000000000000000000000000000000000000000000000000000000000006001600160a01b03168152602090f35b3461032657608036600319011261032657610130610352565b50610139610368565b5060643567ffffffffffffffff8111610326573660238201121561032657806004013567ffffffffffffffff81116103265736910160240111610326577f00000000000000000000000000000000000000000000000000000000000000006001600160a01b031633036103265760408051906101b5818361037e565b6001825260208201601f19820136823782511561033e576018905280517f00000000000000000000000000000000000000000000000000000000000000006001600160a01b0316906060810167ffffffffffffffff81118282101761032a5783527f00000000000000000000000000000000000000000000000000000000000000006001600160a01b0316815260443567ffffffffffffffff166020820190815281840194855293823b15610326578351631127c92960e21b81523060048201526024810185905291516001600160a01b03166044830152935167ffffffffffffffff166064820152925160606084850152805160a48501819052849160c48301916020909101905f5b81811061030a5750505091815f81819503925af1918215610300576020926102f0575b5051630a85bd0160e11b8152f35b5f6102fa9161037e565b5f6102e2565b50513d5f823e3d90fd5b825160ff168452879450602093840193909201916001016102bf565b5f80fd5b634e487b7160e01b5f52604160045260245ffd5b634e487b7160e01b5f52603260045260245ffd5b600435906001600160a01b038216820361032657565b602435906001600160a01b038216820361032657565b90601f8019910116810190811067ffffffffffffffff82111761032a5760405256fea164736f6c634300081c000a",
	"gitCommit": "npm:@croptop/core-v6@0.0.66",
	"gitDirty": false,
	"history": []
}