{
	"format": "sphinx-sol-ct-artifact-1",
	"address": "0xb46229faec58c9760ae8a5b1ff870ef310e258a6",
	"sourceName": "node_modules/@ballkidz/defifa/src/DefifaTokenUriResolver.sol",
	"contractName": "DefifaTokenUriResolver",
	"chainId": "0x14a34",
	"abi": [
		{
			"type": "constructor",
			"inputs": [
				{
					"name": "deployer",
					"type": "address",
					"internalType": "address"
				}
			],
			"stateMutability": "nonpayable"
		},
		{
			"type": "function",
			"name": "setChainSpecificConstants",
			"inputs": [
				{
					"name": "newTypeface",
					"type": "address",
					"internalType": "contract ITypeface"
				}
			],
			"outputs": [],
			"stateMutability": "nonpayable"
		},
		{
			"type": "function",
			"name": "tokenUriOf",
			"inputs": [
				{
					"name": "nft",
					"type": "address",
					"internalType": "address"
				},
				{
					"name": "tokenId",
					"type": "uint256",
					"internalType": "uint256"
				}
			],
			"outputs": [
				{
					"name": "",
					"type": "string",
					"internalType": "string"
				}
			],
			"stateMutability": "view"
		},
		{
			"type": "function",
			"name": "typeface",
			"inputs": [],
			"outputs": [
				{
					"name": "",
					"type": "address",
					"internalType": "contract ITypeface"
				}
			],
			"stateMutability": "view"
		},
		{
			"type": "error",
			"name": "DefifaTokenUriResolver_AlreadyConfigured",
			"inputs": []
		},
		{
			"type": "error",
			"name": "DefifaTokenUriResolver_Unauthorized",
			"inputs": [
				{
					"name": "caller",
					"type": "address",
					"internalType": "address"
				}
			]
		},
		{
			"type": "error",
			"name": "PRBMath_MulDiv_Overflow",
			"inputs": [
				{
					"name": "x",
					"type": "uint256",
					"internalType": "uint256"
				},
				{
					"name": "y",
					"type": "uint256",
					"internalType": "uint256"
				},
				{
					"name": "denominator",
					"type": "uint256",
					"internalType": "uint256"
				}
			]
		},
		{
			"type": "error",
			"name": "StringsInsufficientHexLength",
			"inputs": [
				{
					"name": "value",
					"type": "uint256",
					"internalType": "uint256"
				},
				{
					"name": "length",
					"type": "uint256",
					"internalType": "uint256"
				}
			]
		}
	],
	"args": [
		"0x4dc161eF837fF1C4485b08DDFcDB182F2157bE18"
	],
	"solcInputHash": "2394e9f757af03a29674eb875c59c569",
	"bytecode": "0x60a034606657601f612da038819003918201601f19168301916001600160401b03831184841017606a57808492602094604052833981010312606657516001600160a01b0381168103606657608052604051612d21908161007f8239608051816101000152f35b5f80fd5b634e487b7160e01b5f52604160045260245ffdfe60806040526004361015610011575f80fd5b5f3560e01c80634d5a1d11146100875780635e703e711461003f576397c93eda1461003a575f80fd5b6100e1565b346100835760403660031901126100835761007f61006b600435610062816100ac565b60243590610954565b6040519182916020835260208301906100bd565b0390f35b5f80fd5b34610083575f366003190112610083575f546001600160a01b03166080908152602090f35b6001600160a01b0381160361008357565b805180835260209291819084018484015e5f828201840152601f01601f1916010190565b34610083576020366003190112610083576004356100fe816100ac565b7f00000000000000000000000000000000000000000000000000000000000000006001600160a01b03163303610169575f54906001600160a01b03821661015a576001600160a01b03166001600160a01b031991909116175f55005b63f351252b60e01b5f5260045ffd5b63ae46203560e01b5f523360045260245ffd5b634e487b7160e01b5f52604160045260245ffd5b6040810190811067ffffffffffffffff8211176101ac57604052565b61017c565b90601f8019910116810190811067ffffffffffffffff8211176101ac57604052565b90816020910312610083575190565b6040513d5f823e3d90fd5b604051906101fd6101a0836101b1565b565b67ffffffffffffffff81116101ac57601f01601f191660200190565b929192610227826101ff565b9161023560405193846101b1565b829481845281830111610083578281602093845f96015e010152565b9080601f8301121561008357815161026b9260200161021b565b90565b9060208282031261008357815167ffffffffffffffff81116100835761026b9201610251565b67ffffffffffffffff81116101ac5760051b60200190565b60405160a091906102bd83826101b1565b6004815291601f1901825f5b8281106102d557505050565b8060606020809385010152016102c9565b90816020910312610083575161026b816100ac565b519063ffffffff8216820361008357565b51906cffffffffffffffffffffffffff8216820361008357565b519061ffff8216820361008357565b51906101fd826100ac565b519062ffffff8216820361008357565b519060ff8216820361008357565b5190811515820361008357565b91908260a09103126100835760405160a0810181811067ffffffffffffffff8211176101ac5760405260806103e08183956103a58161035e565b85526103b36020820161035e565b60208601526103c46040820161035e565b60408601526103d56060820161035e565b60608601520161035e565b910152565b6020818303126100835780519067ffffffffffffffff8211610083570161022081830312610083576104156101ed565b9161041f826102fb565b835261042d6020830161030c565b602084015261043e604083016102fb565b604084015261044f606083016102fb565b60608401526104606080830161030c565b608084015261047160a08301610326565b60a084015261048260c08301610335565b60c084015260e082015160e084015261049e6101008301610340565b6101008401526104b16101208301610350565b6101208401526104c581610140840161036b565b6101408401526104d86101e083016102fb565b61016084015261020082015167ffffffffffffffff8111610083576104fd9201610251565b61018082015290565b604051906105156020836101b1565b5f8252565b604051906105296040836101b1565b601d82527f646174613a6170706c69636174696f6e2f6a736f6e3b6261736536342c0000006020830152565b634e487b7160e01b5f52603260045260245ffd5b8051156105765760200190565b610555565b8051600110156105765760400190565b8051600210156105765760600190565b8051600310156105765760800190565b80518210156105765760209160051b010190565b805191908290602001825e015f815290565b90816020910312610083575160068110156100835790565b908160609103126100835780519160406020830151610607816100ac565b92015190565b634e487b7160e01b5f52601160045260245ffd5b906001820180921161062f57565b61060d565b906002820180921161062f57565b906020820180921161062f57565b9190820180921161062f57565b6006111561066757565b634e487b7160e01b5f52602160045260245ffd5b6040519061068a6040836101b1565b601982527f4e6f20636f6e746573742e20526566756e6473206f70656e2e000000000000006020830152565b604051906106c56060836101b1565b602a82526934b6903932bbb0b9321760b11b6040837f53636f726563617264206c6f636b656420696e2e204275726e20746f20636c6160208201520152565b604051906107136040836101b1565b601c82527f4177616974696e672073636f72656361726420617070726f76616c2e000000006020830152565b6040519061074e6060836101b1565b602482526334b7339760e11b6040837f4d696e74696e67206973206f7665722e20526566756e64732061726520656e6460208201520152565b604051906107966040836101b1565b601d82527f4d696e74696e6720616e6420726566756e647320617265206f70656e2e0000006020830152565b604051906107d16040836101b1565b601482527326b4b73a34b7339039ba30b93a399039b7b7b71760611b6020830152565b604051906108036040836101b1565b601382527220636172647320696e206578697374656e636560681b6020830152565b604051906108346040836101b1565b6012825271206361726420696e206578697374656e636560701b6020830152565b604051906108646040836101b1565b600d82526c1031b0b932399039b7903330b960991b6020830152565b6040519061088f6040836101b1565b600c82526b1031b0b9321039b7903330b960a11b6020830152565b908160209103126100835761026b9061035e565b604051906108cd6040836101b1565b601582527420bbb0b4ba34b7339039b1b7b932b1b0b93217171760591b6020830152565b661e17ba32bc3a1f60c91b815260070190565b604051906109136040836101b1565b6002825261227d60f01b6020830152565b6101fd90610946610940949360405195869360208501906105bf565b906105bf565b03601f1981018452836101b1565b604051633fafa12760e01b81526001600160a01b039190911691602082600481865afa9182156118b1575f92611c26575b506040516306fdde0360e01b8152606091905f81600481885afa80156118b1576109b6915f91611c0c575b50611d17565b916109bf6102ac565b946040519263975057e760e01b8452602084600481855afa9384156118b1575f94611beb575b5060405163c44a8e6d60e01b81526001600160a01b038381166004830152602482018390525f60448301819052919586916064918391165afa9384156118b1575f94611bc7575b50610a655f610a3f865163ffffffff1690565b604051630dd55e1f60e11b815263ffffffff909116600482015291829081906024820190565b0381865afa9081156118b1575f91611bad575b50610a8b610a8582611ee8565b91611d17565b9060e086018051611b4c5750610bc786610bb9610b81610b4694610ac08e610ab161051a565b610aba82610569565b52610569565b50610940610b6f610afd610aed610ae4610af2610aed610ae48b5163ffffffff1690565b63ffffffff1690565b612090565b985163ffffffff1690565b92610940604051998a98610940610b30610b2a60208d01600990683d913730b6b2911d1160b91b81520190565b866105bf565b691116101134b2111d101160b11b8152600a0190565b7f222c226465736372697074696f6e223a225465616d3a20000000000000000000815260170190565b650161024a21d160d51b815260060190565b7f2e222c22696d616765223a22646174613a696d6167652f7376672b786d6c3b62815265185cd94d8d0b60d21b602082015260260190565b03601f1981018352826101b1565b610bd08961057b565b52610bda8861057b565b5060405163282d924360e21b815293602085600481875afa9485156118b1575f95611b2b575b5060405163038ab08560e11b81526004810189905294602090869060249082906001600160a01b03165afa9485156118b1575f95611afa575b50604051631c91760360e21b8152602081600481885afa80156118b157898391610c8d935f91611adb575b506040518080958194635a6fd84360e11b83526004830160205f91939293604081019481520152565b03916001600160a01b03165afa80156118b1575f5f925f92611aa9575b506040516327f6e97960e01b8152906020826004818b5afa9081156118b157610cda925f92611a88575b50610650565b610ce58284836121fe565b93610cef8961065d565b886119fd5750610cfd6107c2565b985b610d386020610d12835163ffffffff1690565b6040516342c9297160e11b815263ffffffff909116600482015291829081906024820190565b03818c5afa9081156118b1575f916119de575b50610d558a61065d565b60018a036119aa57610d90816001610d6f61094094612090565b910361199a57610bb9610d80610880565b60405194859360208501906105bf565b985b610d9b8161065d565b60038114908115611986575b501561196257506040516329eabfe760e01b815260048101879052906020826024818b5afa9182156118b1575f92611941575b5060405163873e7e4b60e01b8152916020836004818c5afa9182156118b157610e0a935f93611920575b5061234a565b9160405163d3fef14360e01b81526020816004818b5afa9081156118b1575f916118f1575b506118e357505050610e3f6108be565b955b5f546001600160a01b031697610e68610e62610e5c8b612466565b9a6124df565b9a612090565b9560405163975057e760e01b8152602081600481855afa9182156118b157610ec2926020925f916118b6575b50604051630cf9530d60e41b81526001600160a01b0390921660048301529092839190829081906024820190565b03916001600160a01b03165afa80156118b157610ee6915f91611882575b50612090565b91610ef9610ef38361250b565b926125c8565b92610f038661266a565b51151580611870575b1561186257610f1a866127ae565b945b610f258761266a565b511561183157610f57610f378861270c565b975b610f428161266a565b511561180b57610f519061266a565b98612090565b986040519d8e9d60208f01610fb690603e907f3c7376672076696577426f783d2230203020353030203530302220786d6c6e7381527f3d22687474703a2f2f7777772e77332e6f72672f323030302f737667223e000060208201520190565b7f3c7374796c653e40666f6e742d666163657b666f6e742d66616d696c793a224381527f617073756c65732d353030223b7372633a75726c28646174613a666f6e742f7460208201527f727565747970653b636861727365743d7574662d383b6261736536342c0000006040820152605d01611031916105bf565b75293b666f726d617428226f70656e7479706522293b7d60501b81526016017f40666f6e742d666163657b666f6e742d66616d696c793a2243617073756c657381527f2d373030223b7372633a75726c28646174613a666f6e742f74727565747970656020820152750ed8da185c9cd95d0f5d5d198b4e0ed8985cd94d8d0b60521b60408201526056016110c4916105bf565b75293b666f726d617428226f70656e7479706522293b7d60501b81526016017f746578747b77686974652d73706163653a7072652d777261703b20776964746881526f1d189818129d903e9e17b9ba3cb6329f60811b60208201526030017f3c726563742077696474683d223130302522206865696768743d223130302522815270103334b6361e9111989c189a191a11179f60791b60208201526031017f3c7465787420783d2231302220793d22333022207374796c653d22666f6e742d81527f73697a653a313670783b20666f6e742d66616d696c793a2043617073756c657360208201527f2d3530303b20666f6e742d7765696768743a3530303b2066696c6c3a2023633060408201526c03119b3189d911f23a0a6a29d1609d1b6060820152606d016111f3916105bf565b670103e102827aa1d160c51b815260080161120d916105bf565b690103e1021a0a922299d160b51b8152600a01611229916105bf565b611232906108f1565b7f3c7465787420783d2231302220793d22353022207374796c653d22666f6e742d81527f73697a653a313670783b20666f6e742d66616d696c793a2043617073756c657360208201527f2d3530303b20666f6e742d7765696768743a3530303b2066696c6c3a2023656460408201526618189bb19d911f60c91b60608201526067016112bd916105bf565b6112c6906108f1565b7f3c7465787420783d2231302220793d22383522207374796c653d22666f6e742d81527f73697a653a323670783b20666f6e742d66616d696c793a2043617073756c657360208201527f2d3530303b20666f6e742d7765696768743a3530303b2066696c6c3a202363306040820152663119b3189d911f60c91b6060820152606701611351916105bf565b61135a906108f1565b7f3c7465787420783d2231302220793d2231323022207374796c653d22666f6e7481527f2d73697a653a323670783b20666f6e742d66616d696c793a2043617073756c6560208201525f516020612cf55f395f51905f52604082015267183119b3189d911f60c11b60608201526068016113d3916105bf565b6113dc906108f1565b7f3c7465787420783d2231302220793d2232303522207374796c653d22666f6e7481527f2d73697a653a383070783b20666f6e742d66616d696c793a2043617073756c6560208201527f732d3730303b20666f6e742d7765696768743a3730303b2066696c6c3a20236660408201526732b0991c191d911f60c11b6060820152606801611468916105bf565b611471906108f1565b7f3c7465787420783d2231302220793d2232393522207374796c653d22666f6e7481527f2d73697a653a383070783b20666f6e742d66616d696c793a2043617073756c6560208201527f732d3730303b20666f6e742d7765696768743a3730303b2066696c6c3a20236660408201526732b0991c191d911f60c11b60608201526068016114fd916105bf565b611506906108f1565b7f3c7465787420783d2231302220793d2233383522207374796c653d22666f6e7481527f2d73697a653a383070783b20666f6e742d66616d696c793a2043617073756c6560208201527f732d3730303b20666f6e742d7765696768743a3730303b2066696c6c3a20236660408201526732b0991c191d911f60c11b6060820152606801611592916105bf565b61159b906108f1565b7f3c7465787420783d2231302220793d2234333022207374796c653d22666f6e7481527f2d73697a653a313670783b20666f6e742d66616d696c793a2043617073756c6560208201525f516020612cf55f395f51905f526040820152710183119b3189d911f2a27a5a2a71024a21d160751b606082015260720161161e916105bf565b611627906108f1565b7f3c7465787420783d2231302220793d2234353522207374796c653d22666f6e7481527f2d73697a653a313670783b20666f6e742d66616d696c793a2043617073756c6560208201525f516020612cf55f395f51905f5260408201526f0183119b3189d911f2920a924aa2c9d160851b60608201526070016116a8916105bf565b6116b1906108f1565b7f3c7465787420783d2231302220793d2234383022207374796c653d22666f6e7481527f2d73697a653a313670783b20666f6e742d66616d696c793a2043617073756c6560208201525f516020612cf55f395f51905f526040820152720183119b3189d911f2120a1a5a2a210212c9d1606d1b6060820152607301611735916105bf565b61173e906108f1565b651e17b9bb339f60d11b815260060103601f198101825261175f90826101b1565b611768906128ab565b6117718261058b565b5261177b8161058b565b50611784610904565b61178d8261059b565b526117978161059b565b506117a181610569565b51906117ac8161057b565b516117b68261058b565b51916117c19061059b565b51604051928392602084016117d5916105bf565b6117de916105bf565b6117e7916105bf565b03601f19810182526117f990826101b1565b611802906128ab565b61026b91610924565b6118148161270c565b511561182357610f519061270c565b61182c906127ae565b610f51565b61183a8761270c565b511561185257610f5761184c886127ae565b97610f39565b610f5761185d610506565b61184c565b61186a610506565b94610f1c565b5061187a8661270c565b511515610f0c565b6118a4915060203d6020116118aa575b61189c81836101b1565b8101906101d3565b5f610ee0565b503d611892565b6101e2565b6118d69150833d85116118dc575b6118ce81836101b1565b8101906102e6565b5f610e94565b503d6118c4565b6118ec926121fe565b610e3f565b611913915060203d602011611919575b61190b81836101b1565b8101906108aa565b5f610e2f565b503d611901565b61193a91935060203d6020116118aa5761189c81836101b1565b915f610e04565b61195b91925060203d6020116118aa5761189c81836101b1565b905f610dda565b602001516119809391506cffffffffffffffffffffffffff166121fe565b95610e41565b600491506119938161065d565b145f610da7565b610bb96119a5610855565b610d80565b6119cd8160016119bc61094094612090565b91036119d357610bb9610d80610825565b98610d92565b610bb96119a56107f4565b6119f7915060203d6020116118aa5761189c81836101b1565b5f610d4b565b611a068961065d565b60018903611a1e5750611a17610787565b985b610cff565b611a278961065d565b60028903611a385750611a1761073f565b611a418961065d565b60038903611a525750611a17610704565b611a5b8961065d565b60048903611a6c5750611a176106b6565b98611a768961065d565b60058903611a19579850611a1761067b565b611aa291925060203d6020116118aa5761189c81836101b1565b905f610cd4565b915050611acc9150823d8411611ad4575b611ac481836101b1565b8101906105e9565b90915f610caa565b503d611aba565b611af4915060203d6020116118dc576118ce81836101b1565b5f610c64565b611b1d91955060203d602011611b24575b611b1581836101b1565b8101906105d1565b935f610c39565b503d611b0b565b611b4591955060203d6020116118dc576118ce81836101b1565b935f610c00565b604051636c0360eb60e01b8152995097505f9650889550600494508593925050505afa9081156118b15761026b925f92611b89575b50519061201d565b611ba69192503d805f833e611b9e81836101b1565b81019061026e565b905f611b81565b611bc191503d805f833e611b9e81836101b1565b5f610a78565b611be49194503d805f833e611bdc81836101b1565b8101906103e5565b925f610a2c565b611c0591945060203d6020116118dc576118ce81836101b1565b925f6109e5565b611c2091503d805f833e611b9e81836101b1565b5f6109b0565b611c4091925060203d6020116118aa5761189c81836101b1565b905f610985565b9060068202918083046006149015171561062f57565b908160011b918083046002149015171561062f57565b600281901b91906001600160fe1b0381160361062f57565b600181901b91906001600160ff1b0381160361062f57565b8181029291811591840414171561062f57565b90611cc0826101ff565b611ccd60405191826101b1565b8281528092611cde601f19916101ff565b0190602036910137565b8051600110156105765760210190565b908151811015610576570160200190565b5f19811461062f5760010190565b90611d2a611d258351611c47565b611cb6565b915f905f5b8151811015611ea957611d53611d458284611cf8565b516001600160f81b03191690565b6001600160f81b03198116601360f91b8103611dc75750506001906026611d83611d7c86611d09565b9588611cf8565b536061611d92611d7c86611d09565b53606d611da1611d7c86611d09565b536070611db0611d7c86611d09565b53603b611dbf611d7c86611d09565b535b01611d2f565b600f60fa1b8103611e185750506001906026611de5611d7c86611d09565b53606c611df4611d7c86611d09565b536074611e03611d7c86611d09565b53603b611e12611d7c86611d09565b53611dc1565b601f60f91b8103611e455750506001906026611e36611d7c86611d09565b536067611df4611d7c86611d09565b601160f91b03611e8e57506001906026611e61611d7c86611d09565b536071611e70611d7c86611d09565b536075611e7f611d7c86611d09565b53606f611df4611d7c86611d09565b9260019190611e12611e9f82611d09565b955f1a9188611cf8565b5050611eb481611cb6565b905f5b818110611ec5575090925050565b80611ed5611d4560019388611cf8565b5f1a611ee18286611cf8565b5301611eb7565b90611ef6611d258351611c5d565b915f905f5b8151811015611fde57611f11611d458284611cf8565b926001600160f81b03198416601160f91b81148015611fd1575b15611f5f57509081605c611f4a611f43600195611d09565b9289611cf8565b53611f57611e9f82611d09565b535b01611efb565b909390600560f91b8103611f95575050600190605c611f80611d7c86611d09565b53606e611f8f611d7c86611d09565b53611f59565b600d60f81b03611fc05750600190605c611fb1611d7c86611d09565b536072611f8f611d7c86611d09565b9260019190611f8f611e9f82611d09565b50601760fa1b8114611f2b565b5050611fe981611cb6565b905f5b818110611ffa575090925050565b8061200a611d4560019388611cf8565b5f1a6120168286611cf8565b5301611fec565b61026b90610bb9610d806109409460405190609160f51b602083015260228201526022815261204d6042826101b1565b6129d8565b604051906120616020836101b1565b5f808352366020840137565b634e487b7160e01b5f52601260045260245ffd5b811561208b570490565b61206d565b805f9172184f03e93ff9f4daa797ed6e38ed64bf6a1f0160401b8210156121c3575b806d04ee2d6d415b85acef8100000000600a9210156121a7575b662386f26fc10000811015612192575b6305f5e100811015612180575b612710811015612170575b6064811015612161575b1015612156575b612141602161211660018501611cb6565b938401015b5f1901916f181899199a1a9b1b9c1cb0b131b232b360811b600a82061a8353600a900490565b801561215157612141909161211b565b505090565b600190910190612105565b600290606490049301926120fe565b60049061271090049301926120f4565b6008906305f5e10090049301926120e9565b601090662386f26fc1000090049301926120dc565b6020906d04ee2d6d415b85acef810000000090049301926120cc565b506040915072184f03e93ff9f4daa797ed6e38ed64bf6a1f0160401b81046120b2565b604d811161062f57600a0a90565b811561208b570690565b6001600160a01b03909116929161224b90610aed9061221c906121e6565b61224661223682612230610aed8289612081565b966121f4565b61224060056121e6565b90611ca3565b612081565b60058151101561227b57604051600360fc1b602082015290612276908290610bb99060218301610940565b61224b565b90919261eeee81146123205791610bb961026b926109406122e76122da966040516395d89b4160e01b81525f81600481855afa5f9181612304575b506122f457506122c590612b08565b925b61094060405198899760208901906105bf565b601760f91b815260010190565b600160fd1b815260010190565b6122fe9150611d17565b926122c7565b6123199192503d805f833e611b9e81836101b1565b905f6122b6565b5060405161674f60f11b60208201529161026b918391610bb99190610940906122da906022860183565b90915f1983830992808302928380861095039480860395146123dd57828510156123c55790829109600182190182168092046002816003021880820260020302808202600203028082026002030280820260020302808202600203028091026002030293600183805f03040190848311900302920304170290565b630c740aef60e31b5f5260045260245260445260645ffd5b50509061026b9250612081565b604051906123f96040836101b1565b60068252651b9bdc9b585b60d21b6020830152565b6020818303126100835780519067ffffffffffffffff821161008357019080601f8301121561008357815161026b9260200161021b565b6060602061026b9381845280518285015201519160408082015201906100bd565b5f6124a5916040519061247882610190565b6101f482526124856123ea565b6020830152604051808095819463bf6519ad60e01b835260048301612445565b03916001600160a01b03165afa9081156118b1575f916124c3575090565b61026b91503d805f833e6124d781836101b1565b81019061240e565b5f6124a591604051906124f182610190565b6102bc82526124856123ea565b9190820391821161062f57565b90601e8251156125bd57825180601e116125b5575b50600160fd1b6001600160f81b031961253c611d455f87611cf8565b16036125ae5761254b5f610621565b905b808210156125a257612562611d2583836124fe565b91805b82811061257457509193505050565b80612584611d4560019389611cf8565b61259b61259185846124fe565b915f1a9187611cf8565b5301612565565b5050905061026b610506565b5f9061254d565b90505f612520565b50905061026b610506565b90603c8251601e10156125bd57825180603c11612662575b50600160fd1b6001600160f81b03196125fd611d45601e87611cf8565b160361265a5761260d601e610621565b905b808210156125a257612624611d2583836124fe565b91805b82811061263657509193505050565b80612646611d4560019389611cf8565b61265361259185846124fe565b5301612627565b601e9061260f565b90505f6125e0565b90601e8251601410156125bd57825180601e11612704575b50600160fd1b6001600160f81b031961269f611d45601487611cf8565b16036126fc576126af6014610621565b905b808210156125a2576126c6611d2583836124fe565b91805b8281106126d857509193505050565b806126e8611d4560019389611cf8565b6126f561259185846124fe565b53016126c9565b6014906126b1565b90505f612682565b9060148251600a10156125bd578251806014116127a6575b50600160fd1b6001600160f81b0319612741611d45600a87611cf8565b160361279e57612751600a610621565b905b808210156125a257612768611d2583836124fe565b91805b82811061277a57509193505050565b8061278a611d4560019389611cf8565b61279761259185846124fe565b530161276b565b600a90612753565b90505f612724565b90600a8251156125bd57825180600a11612842575b50600160fd1b6001600160f81b03196127df611d455f87611cf8565b160361283b576127ee5f610621565b905b808210156125a257612805611d2583836124fe565b91805b82811061281757509193505050565b80612827611d4560019389611cf8565b61283461259185846124fe565b5301612808565b5f906127f0565b90505f6127c3565b604051906128596060836101b1565b604082527f6768696a6b6c6d6e6f707172737475767778797a303132333435363738392b2f6040837f4142434445464748494a4b4c4d4e4f505152535455565758595a61626364656660208201520152565b805115612984576128ba61284a565b6128d66128d16128ca8451610634565b6003900490565b611c73565b916128e3611d2584610642565b9283528091815182019060208501935b8281106129345750505060039051068060011461292357600214612915575090565b603d60f81b5f199091015290565b50613d3d60f01b6001199091015290565b60036004919592939501916001603f845182828260121c16880101518453828282600c1c16880101518385015382828260061c1688010151600285015316850101516003820153019391906128f3565b5061026b610506565b6040516105e0919061299f83826101b1565b602e815291601f1901366020840137565b906129ba82610294565b6129c760405191826101b1565b8281528092611cde601f1991610294565b90815115612af2576129e861298d565b915f6129f384610569565b5280516001915f5b828110612a2057505050612a16612a1b9161026b9394612bb9565b612bfa565b612c3f565b612a3f612a39612a33611d458486611cf8565b60f81c90565b60ff1690565b5f5b8760ff87168210612a9b575050805b612a5d57506001016129fb565b9360ff6001612a9592612a8b612a77612a398a603a900690565b612a838584168d6105ab565b9060ff169052565b011694603a900490565b80612a50565b612acb8293612ac5612abf612a39612ab8600197612aeb976105ab565b5160ff1690565b60081b90565b90610650565b612ae4612ada603a8306612a39565b612a83868d6105ab565b603a900490565b9101612a41565b905061026b612052565b801561062f575f190190565b80612b1e611d25612b196014611c8b565b610634565b916030612b2a84610569565b536078612b3684611ce8565b53612b49612b446014611c8b565b610621565b60018111612b715750612b5a575090565b63e22e27eb60e01b5f52600452601460245260445ffd5b90600f8116601081101561057657612bb491612bae916f181899199a1a9b1b9c1cb0b131b232b360811b901a612ba78588611cf8565b5360041c90565b91612afc565b612b49565b919060ff16612bc7816129b0565b905f5b818110612bd8575090925050565b8060ff612be7600193886105ab565b5116612bf382866105ab565b5201612bca565b908151612c06816129b0565b905f5b818110612c17575090925050565b60019060ff612c2c5f198389510301886105ab565b5116612c3882866105ab565b5201612c09565b8051612c4a81611cb6565b9160605f5b838110612c5d575050505090565b600190604051612c6d84826101b1565b603a81527f31323334353637383941424344454647484a4b4c4d4e5051525354555657585960208201527f5a6162636465666768696a6b6d6e6f707172737475767778797a00000000000060408201526001600160f81b031990612cdf9060ff612cd785896105ab565b511690611cf8565b51165f1a612ced8288611cf8565b5301612c4f56fe732d3530303b20666f6e742d7765696768743a3530303b2066696c6c3a202363a164736f6c634300081c000a",
	"gitCommit": "npm:@ballkidz/defifa@0.0.61",
	"gitDirty": false,
	"history": []
}