{
	"format": "sphinx-sol-ct-artifact-1",
	"address": "0xd2b80081a261210cd39af7fac0c659d128da3a11",
	"sourceName": "node_modules/@ballkidz/defifa/src/DefifaDeployer.sol",
	"contractName": "DefifaDeployer",
	"chainId": "0x14a34",
	"abi": [
		{
			"type": "constructor",
			"inputs": [
				{
					"name": "hookCodeOrigin",
					"type": "address",
					"internalType": "address"
				},
				{
					"name": "tokenUriResolver",
					"type": "address",
					"internalType": "contract IJB721TokenUriResolver"
				},
				{
					"name": "governor",
					"type": "address",
					"internalType": "contract IDefifaGovernor"
				},
				{
					"name": "controller",
					"type": "address",
					"internalType": "contract IJBController"
				},
				{
					"name": "registry",
					"type": "address",
					"internalType": "contract IJBAddressRegistry"
				},
				{
					"name": "defifaProjectId",
					"type": "uint256",
					"internalType": "uint256"
				},
				{
					"name": "baseProtocolProjectId",
					"type": "uint256",
					"internalType": "uint256"
				},
				{
					"name": "hookStore",
					"type": "address",
					"internalType": "contract IJB721TiersHookStore"
				}
			],
			"stateMutability": "nonpayable"
		},
		{
			"type": "function",
			"name": "BASE_PROTOCOL_FEE_DIVISOR",
			"inputs": [],
			"outputs": [
				{
					"name": "",
					"type": "uint256",
					"internalType": "uint256"
				}
			],
			"stateMutability": "view"
		},
		{
			"type": "function",
			"name": "BASE_PROTOCOL_PROJECT_ID",
			"inputs": [],
			"outputs": [
				{
					"name": "",
					"type": "uint256",
					"internalType": "uint256"
				}
			],
			"stateMutability": "view"
		},
		{
			"type": "function",
			"name": "CONTROLLER",
			"inputs": [],
			"outputs": [
				{
					"name": "",
					"type": "address",
					"internalType": "contract IJBController"
				}
			],
			"stateMutability": "view"
		},
		{
			"type": "function",
			"name": "DEFIFA_FEE_DIVISOR",
			"inputs": [],
			"outputs": [
				{
					"name": "",
					"type": "uint256",
					"internalType": "uint256"
				}
			],
			"stateMutability": "view"
		},
		{
			"type": "function",
			"name": "DEFIFA_PROJECT_ID",
			"inputs": [],
			"outputs": [
				{
					"name": "",
					"type": "uint256",
					"internalType": "uint256"
				}
			],
			"stateMutability": "view"
		},
		{
			"type": "function",
			"name": "GOVERNOR",
			"inputs": [],
			"outputs": [
				{
					"name": "",
					"type": "address",
					"internalType": "contract IDefifaGovernor"
				}
			],
			"stateMutability": "view"
		},
		{
			"type": "function",
			"name": "HOOK_CODE_ORIGIN",
			"inputs": [],
			"outputs": [
				{
					"name": "",
					"type": "address",
					"internalType": "address"
				}
			],
			"stateMutability": "view"
		},
		{
			"type": "function",
			"name": "HOOK_STORE",
			"inputs": [],
			"outputs": [
				{
					"name": "",
					"type": "address",
					"internalType": "contract IJB721TiersHookStore"
				}
			],
			"stateMutability": "view"
		},
		{
			"type": "function",
			"name": "REGISTRY",
			"inputs": [],
			"outputs": [
				{
					"name": "",
					"type": "address",
					"internalType": "contract IJBAddressRegistry"
				}
			],
			"stateMutability": "view"
		},
		{
			"type": "function",
			"name": "SPLIT_GROUP",
			"inputs": [],
			"outputs": [
				{
					"name": "",
					"type": "uint256",
					"internalType": "uint256"
				}
			],
			"stateMutability": "view"
		},
		{
			"type": "function",
			"name": "TOKEN_URI_RESOLVER",
			"inputs": [],
			"outputs": [
				{
					"name": "",
					"type": "address",
					"internalType": "contract IJB721TokenUriResolver"
				}
			],
			"stateMutability": "view"
		},
		{
			"type": "function",
			"name": "commitmentsFulfilledFor",
			"inputs": [
				{
					"name": "",
					"type": "uint256",
					"internalType": "uint256"
				}
			],
			"outputs": [
				{
					"name": "",
					"type": "bool",
					"internalType": "bool"
				}
			],
			"stateMutability": "view"
		},
		{
			"type": "function",
			"name": "currentGamePhaseOf",
			"inputs": [
				{
					"name": "gameId",
					"type": "uint256",
					"internalType": "uint256"
				}
			],
			"outputs": [
				{
					"name": "",
					"type": "uint8",
					"internalType": "enum DefifaGamePhase"
				}
			],
			"stateMutability": "view"
		},
		{
			"type": "function",
			"name": "currentGamePotOf",
			"inputs": [
				{
					"name": "gameId",
					"type": "uint256",
					"internalType": "uint256"
				},
				{
					"name": "includeCommitments",
					"type": "bool",
					"internalType": "bool"
				}
			],
			"outputs": [
				{
					"name": "",
					"type": "uint256",
					"internalType": "uint256"
				},
				{
					"name": "",
					"type": "address",
					"internalType": "address"
				},
				{
					"name": "",
					"type": "uint256",
					"internalType": "uint256"
				}
			],
			"stateMutability": "view"
		},
		{
			"type": "function",
			"name": "fulfillCommitmentsOf",
			"inputs": [
				{
					"name": "gameId",
					"type": "uint256",
					"internalType": "uint256"
				}
			],
			"outputs": [],
			"stateMutability": "nonpayable"
		},
		{
			"type": "function",
			"name": "fulfilledCommitmentsOf",
			"inputs": [
				{
					"name": "",
					"type": "uint256",
					"internalType": "uint256"
				}
			],
			"outputs": [
				{
					"name": "",
					"type": "uint256",
					"internalType": "uint256"
				}
			],
			"stateMutability": "view"
		},
		{
			"type": "function",
			"name": "launchGameWith",
			"inputs": [
				{
					"name": "launchProjectData",
					"type": "tuple",
					"internalType": "struct DefifaLaunchProjectData",
					"components": [
						{
							"name": "name",
							"type": "string",
							"internalType": "string"
						},
						{
							"name": "projectUri",
							"type": "string",
							"internalType": "string"
						},
						{
							"name": "contractUri",
							"type": "string",
							"internalType": "string"
						},
						{
							"name": "baseUri",
							"type": "string",
							"internalType": "string"
						},
						{
							"name": "tiers",
							"type": "tuple[]",
							"internalType": "struct DefifaTierParams[]",
							"components": [
								{
									"name": "name",
									"type": "string",
									"internalType": "string"
								},
								{
									"name": "reservedRate",
									"type": "uint16",
									"internalType": "uint16"
								},
								{
									"name": "reservedTokenBeneficiary",
									"type": "address",
									"internalType": "address"
								},
								{
									"name": "encodedIpfsUri",
									"type": "bytes32",
									"internalType": "bytes32"
								},
								{
									"name": "shouldUseReservedTokenBeneficiaryAsDefault",
									"type": "bool",
									"internalType": "bool"
								}
							]
						},
						{
							"name": "tierPrice",
							"type": "uint104",
							"internalType": "uint104"
						},
						{
							"name": "token",
							"type": "tuple",
							"internalType": "struct JBAccountingContext",
							"components": [
								{
									"name": "token",
									"type": "address",
									"internalType": "address"
								},
								{
									"name": "decimals",
									"type": "uint8",
									"internalType": "uint8"
								},
								{
									"name": "currency",
									"type": "uint32",
									"internalType": "uint32"
								}
							]
						},
						{
							"name": "mintPeriodDuration",
							"type": "uint24",
							"internalType": "uint24"
						},
						{
							"name": "refundPeriodDuration",
							"type": "uint24",
							"internalType": "uint24"
						},
						{
							"name": "start",
							"type": "uint48",
							"internalType": "uint48"
						},
						{
							"name": "splits",
							"type": "tuple[]",
							"internalType": "struct JBSplit[]",
							"components": [
								{
									"name": "percent",
									"type": "uint32",
									"internalType": "uint32"
								},
								{
									"name": "projectId",
									"type": "uint64",
									"internalType": "uint64"
								},
								{
									"name": "beneficiary",
									"type": "address",
									"internalType": "address payable"
								},
								{
									"name": "preferAddToBalance",
									"type": "bool",
									"internalType": "bool"
								},
								{
									"name": "lockedUntil",
									"type": "uint48",
									"internalType": "uint48"
								},
								{
									"name": "hook",
									"type": "address",
									"internalType": "contract IJBSplitHook"
								}
							]
						},
						{
							"name": "attestationStartTime",
							"type": "uint256",
							"internalType": "uint256"
						},
						{
							"name": "attestationGracePeriod",
							"type": "uint256",
							"internalType": "uint256"
						},
						{
							"name": "defaultAttestationDelegate",
							"type": "address",
							"internalType": "address"
						},
						{
							"name": "defaultTokenUriResolver",
							"type": "address",
							"internalType": "contract IJB721TokenUriResolver"
						},
						{
							"name": "terminal",
							"type": "address",
							"internalType": "contract IJBTerminal"
						},
						{
							"name": "minParticipation",
							"type": "uint256",
							"internalType": "uint256"
						},
						{
							"name": "scorecardTimeout",
							"type": "uint32",
							"internalType": "uint32"
						},
						{
							"name": "timelockDuration",
							"type": "uint256",
							"internalType": "uint256"
						}
					]
				}
			],
			"outputs": [
				{
					"name": "gameId",
					"type": "uint256",
					"internalType": "uint256"
				}
			],
			"stateMutability": "payable"
		},
		{
			"type": "function",
			"name": "nextPhaseNeedsQueueing",
			"inputs": [
				{
					"name": "gameId",
					"type": "uint256",
					"internalType": "uint256"
				}
			],
			"outputs": [
				{
					"name": "",
					"type": "bool",
					"internalType": "bool"
				}
			],
			"stateMutability": "view"
		},
		{
			"type": "function",
			"name": "noContestTriggeredFor",
			"inputs": [
				{
					"name": "",
					"type": "uint256",
					"internalType": "uint256"
				}
			],
			"outputs": [
				{
					"name": "",
					"type": "bool",
					"internalType": "bool"
				}
			],
			"stateMutability": "view"
		},
		{
			"type": "function",
			"name": "onERC721Received",
			"inputs": [
				{
					"name": "",
					"type": "address",
					"internalType": "address"
				},
				{
					"name": "",
					"type": "address",
					"internalType": "address"
				},
				{
					"name": "",
					"type": "uint256",
					"internalType": "uint256"
				},
				{
					"name": "",
					"type": "bytes",
					"internalType": "bytes"
				}
			],
			"outputs": [
				{
					"name": "",
					"type": "bytes4",
					"internalType": "bytes4"
				}
			],
			"stateMutability": "pure"
		},
		{
			"type": "function",
			"name": "safetyParamsOf",
			"inputs": [
				{
					"name": "gameId",
					"type": "uint256",
					"internalType": "uint256"
				}
			],
			"outputs": [
				{
					"name": "minParticipation",
					"type": "uint256",
					"internalType": "uint256"
				},
				{
					"name": "scorecardTimeout",
					"type": "uint32",
					"internalType": "uint32"
				}
			],
			"stateMutability": "view"
		},
		{
			"type": "function",
			"name": "timesFor",
			"inputs": [
				{
					"name": "gameId",
					"type": "uint256",
					"internalType": "uint256"
				}
			],
			"outputs": [
				{
					"name": "",
					"type": "uint48",
					"internalType": "uint48"
				},
				{
					"name": "",
					"type": "uint24",
					"internalType": "uint24"
				},
				{
					"name": "",
					"type": "uint24",
					"internalType": "uint24"
				}
			],
			"stateMutability": "view"
		},
		{
			"type": "function",
			"name": "tokenOf",
			"inputs": [
				{
					"name": "gameId",
					"type": "uint256",
					"internalType": "uint256"
				}
			],
			"outputs": [
				{
					"name": "",
					"type": "address",
					"internalType": "address"
				}
			],
			"stateMutability": "view"
		},
		{
			"type": "function",
			"name": "triggerNoContestFor",
			"inputs": [
				{
					"name": "gameId",
					"type": "uint256",
					"internalType": "uint256"
				}
			],
			"outputs": [],
			"stateMutability": "nonpayable"
		},
		{
			"type": "event",
			"name": "CommitmentPayoutFailed",
			"inputs": [
				{
					"name": "gameId",
					"type": "uint256",
					"indexed": true,
					"internalType": "uint256"
				},
				{
					"name": "amount",
					"type": "uint256",
					"indexed": false,
					"internalType": "uint256"
				},
				{
					"name": "reason",
					"type": "bytes",
					"indexed": false,
					"internalType": "bytes"
				},
				{
					"name": "caller",
					"type": "address",
					"indexed": false,
					"internalType": "address"
				}
			],
			"anonymous": false
		},
		{
			"type": "event",
			"name": "FulfilledCommitments",
			"inputs": [
				{
					"name": "gameId",
					"type": "uint256",
					"indexed": true,
					"internalType": "uint256"
				},
				{
					"name": "pot",
					"type": "uint256",
					"indexed": false,
					"internalType": "uint256"
				},
				{
					"name": "caller",
					"type": "address",
					"indexed": false,
					"internalType": "address"
				}
			],
			"anonymous": false
		},
		{
			"type": "event",
			"name": "LaunchGame",
			"inputs": [
				{
					"name": "gameId",
					"type": "uint256",
					"indexed": true,
					"internalType": "uint256"
				},
				{
					"name": "hook",
					"type": "address",
					"indexed": true,
					"internalType": "contract IDefifaHook"
				},
				{
					"name": "governor",
					"type": "address",
					"indexed": true,
					"internalType": "contract IDefifaGovernor"
				},
				{
					"name": "tokenUriResolver",
					"type": "address",
					"indexed": false,
					"internalType": "contract IJB721TokenUriResolver"
				},
				{
					"name": "caller",
					"type": "address",
					"indexed": false,
					"internalType": "address"
				}
			],
			"anonymous": false
		},
		{
			"type": "event",
			"name": "QueuedNoContest",
			"inputs": [
				{
					"name": "gameId",
					"type": "uint256",
					"indexed": true,
					"internalType": "uint256"
				},
				{
					"name": "caller",
					"type": "address",
					"indexed": false,
					"internalType": "address"
				}
			],
			"anonymous": false
		},
		{
			"type": "error",
			"name": "DefifaDeployer_CantFulfillYet",
			"inputs": [
				{
					"name": "gameId",
					"type": "uint256",
					"internalType": "uint256"
				}
			]
		},
		{
			"type": "error",
			"name": "DefifaDeployer_InvalidCurrency",
			"inputs": [
				{
					"name": "token",
					"type": "address",
					"internalType": "address"
				},
				{
					"name": "currency",
					"type": "uint256",
					"internalType": "uint256"
				}
			]
		},
		{
			"type": "error",
			"name": "DefifaDeployer_InvalidGameConfiguration",
			"inputs": [
				{
					"name": "start",
					"type": "uint256",
					"internalType": "uint256"
				},
				{
					"name": "mintPeriodDuration",
					"type": "uint256",
					"internalType": "uint256"
				},
				{
					"name": "refundPeriodDuration",
					"type": "uint256",
					"internalType": "uint256"
				},
				{
					"name": "tierCount",
					"type": "uint256",
					"internalType": "uint256"
				}
			]
		},
		{
			"type": "error",
			"name": "DefifaDeployer_NoContestAlreadyTriggered",
			"inputs": [
				{
					"name": "gameId",
					"type": "uint256",
					"internalType": "uint256"
				}
			]
		},
		{
			"type": "error",
			"name": "DefifaDeployer_NotNoContest",
			"inputs": [
				{
					"name": "gameId",
					"type": "uint256",
					"internalType": "uint256"
				},
				{
					"name": "phase",
					"type": "uint8",
					"internalType": "enum DefifaGamePhase"
				}
			]
		},
		{
			"type": "error",
			"name": "DefifaDeployer_SplitsDontAddUp",
			"inputs": [
				{
					"name": "totalPercent",
					"type": "uint256",
					"internalType": "uint256"
				},
				{
					"name": "maxPercent",
					"type": "uint256",
					"internalType": "uint256"
				}
			]
		},
		{
			"type": "error",
			"name": "FailedDeployment",
			"inputs": []
		},
		{
			"type": "error",
			"name": "InsufficientBalance",
			"inputs": [
				{
					"name": "balance",
					"type": "uint256",
					"internalType": "uint256"
				},
				{
					"name": "needed",
					"type": "uint256",
					"internalType": "uint256"
				}
			]
		},
		{
			"type": "error",
			"name": "PRBMath_MulDiv_Overflow",
			"inputs": [
				{
					"name": "x",
					"type": "uint256",
					"internalType": "uint256"
				},
				{
					"name": "y",
					"type": "uint256",
					"internalType": "uint256"
				},
				{
					"name": "denominator",
					"type": "uint256",
					"internalType": "uint256"
				}
			]
		}
	],
	"args": [
		"0xeB69d8Ee698B3874E20c5760Ae1A83D71cDA550D",
		"0x8442b34FEE226945E8fFbA2F350d01e1aCD5Cd1d",
		"0xf57D80550574A822bF76542F68E2885280254EE6",
		"0x8e344bd40b3696B80922776Ff17C806b071274e8",
		"0x4cffc6D4c620A6fa94d59C9Cbaf652E38E7BFC0a",
		"5",
		"1",
		"0x0f9b0985f839C2d1c8c023b8251F8abCB6b4EEb6"
	],
	"solcInputHash": "9b636a37486d466b51f48e2348aab974",
	"bytecode": "0x6101a0346101d057601f61492b38819003918201601f19168301916001600160401b038311848410176101d457808492610100946040528339810103126101d0578051906001600160a01b03821682036101d05760208101516001600160a01b03811681036101d05760408201516001600160a01b03811681036101d05760608301516001600160a01b03811681036101d0576080840151916001600160a01b03831683036101d05760a085015160c086015160e090960151969094906001600160a01b03881688036101d057610100526101805260e05260a0526101405260c05260805261012052306101605260405161474290816101e982396080518181816112a0015261257f015260a0518181816101a80152818161065001528181610aa40152818161148e0152818161261101528181612a1d01528181612d820152818161367301528181613f170152614566015260c051818181611213015261303d015260e0518181816114d40152612c230152610100518181816108d60152818161090e0152818161160301526130e4015261012051818181610bef01526129ce0152610140518181816115a6015261315401526101605181612c69015261018051818181611f28015261298a0152f35b5f80fd5b634e487b7160e01b5f52604160045260245ffdfe610140806040526004361015610013575f80fd5b5f60a0525f3560e01c90816306433b1b14613142575080630715610a146131135780630e76aef5146130cf578063150b7a021461306057806340473957146130265780634366e8ab14612d1157806357039a9114612c8c5780636c55eab014612c525780636dc0ae2214612c0e57806381312a14146129fd5780638266e645146129b957806388a7f53c14612975578063a178d2f214612946578063a6f018ad1461292b578063b07925d314612899578063b4dfb086146125c0578063b6674cde146125a2578063bece0b6e14612568578063c55b14c41461022a578063ccf64cdb1461020d578063ea78803f146101d7578063ee0fc12114610191578063f2ae5f6e146101625763f98e4baa14610129575f80fd5b3461015c57602036600319011261015c5760043560a051526002602052602060ff604060a0512054166040519015158152f35b60a05180fd5b3461015c57602036600319011261015c5760043560a0515260a0516020526020604060a0512054604051908152f35b3461015c5760a05136600319011261015c576040517f00000000000000000000000000000000000000000000000000000000000000006001600160a01b03168152602090f35b3461015c57602036600319011261015c5760043560a051526003602052602060018060a01b03604060a051205416604051908152f35b3461015c5760a05136600319011261015c57602060405160148152f35b6020366003190112611e61576001600160401b0360043511611e615760043536036102a0600319820112611e615760405160e05261026960e0516131eb565b600435600401356001600160401b038111611e615761028f906004369181350101613302565b60e05152602460043501356001600160401b038111611e61576102b9906004369181350101613302565b602060e0510152604460043501356001600160401b038111611e61576102e6906004369181350101613302565b604060e0510152606460043501356001600160401b038111611e6157610313906004369181350101613302565b606060e0510152608460043501356001600160401b038111611e61576004350136602382011215611e6157600481013561034c81613348565b9161035a60405193846132c6565b818352602060048185019360051b8301010190368211611e615760248101925b8284106124c1578585608060e051015260a46004350135906001600160681b0382168203611e615760609160a060e051015260c3190112611e61576040516103c18161323e565b6103cf60c4600435016131af565b815260e4600435013560ff81168103611e615760208201526103f66101046004350161335f565b604082015260c060e051015261041161012460043501613370565b60e08051015261042661014460043501613370565b61010060e051015261043d61016460043501613380565b61012060e051015261018460043501356001600160401b038111611e61576004350136602382011215611e6157600481013561047881613348565b9161048660405193846132c6565b8183526020600460c082860194028301010190368211611e6157602401915b81831061241d578361014060e05101526101a4600435013561016060e05101526101c4600435013561018060e05101526104e46101e4600435016131af565b60e0516101a0015260043561020401356001600160a01b0381169003611e615761020460043501356101c060e0510152610224600435013560018060a01b0381168103611e61576101e060e0510152610244600435013561020060e05101526105526102646004350161335f565b61022060e0510152610284600435013561024060e051015265ffffffffffff61012060e05101511680155f146123a957506105ad61059a62ffffff60e0805101511642613eb2565b62ffffff61010060e05101511690613eb2565b65ffffffffffff81116123615765ffffffffffff1661012060e05101525b62ffffff60e08051015116158015612320575b61224157608060e051015151608081116122d05763ffffffff61022060e051015116156122415760e05160c0015180516001600160a01b03169061eeee821415806122be575b61229d5763ffffffff61022060e0510151166121e0575b60405163293c499960e01b81526020816004817f00000000000000000000000000000000000000000000000000000000000000006001600160a01b03165afa908115611d00575f9161219d575b5060405163180e2b1160e31b8152306004820152906020908290602490829034906001600160a01b03165af18015611d00575f61012052612169575b5060018060a01b0360c060e0510151511663ffffffff600262ffffff60e080510151169262ffffff61010060e05101511665ffffffffffff61012060e05101511661020060e0510151918561022060e051015116966040519461072686613223565b85526020850192835260408501908152606085019182526080850193845260a08501978852610120515f52600360205260405f209460018060a01b039051169285549065ffffffffffff60a01b905160a01b169162ffffff60d01b905160d01b169262ffffff60e81b905160e81b169360018060e81b039162ffffff60e81b16171617171782555160018201550191511663ffffffff19825416179055608060e0510151516107d481613348565b6107e160405191826132c6565b818152601f196107f083613348565b015f5b8181106120db575050608060e0510151519061080e82613348565b9161081c60405193846132c6565b80835261082b601f1991613348565b015f5b8181106120c85750505f608060405161084681613259565b6060815282602082015282604082015282606082015201525f925b808410611f5c575061087460055461439b565b608081905260058190556040513360601b6001600160601b0319166020820190815260348201929092526108b581605481015b03601f1981018352826132c6565b519020763d602d80600a3d3981f3363d3d373d3d3d363d7300000062ffffff7f000000000000000000000000000000000000000000000000000000000000000060881c16175f526e5af43d82803e903d91602b57fd5bf37f000000000000000000000000000000000000000000000000000000000000000060781b1760205260018060a01b0390603760095ff51660c05260c05115611f4d5760e0516101c001516001600160a01b03168015611f2557915b60e05151610120519092905f908072184f03e93ff9f4daa797ed6e38ed64bf6a1f0160401b811015611efe575b806d04ee2d6d415b85acef8100000000600a921015611ee3575b662386f26fc10000811015611ecf575b6305f5e100811015611ebe575b612710811015611eaf575b6064811015611ea1575b1015611e96575b600a60216001840193610a126109fc866132e7565b95610a0a60405197886132c6565b8087526132e7565b601f19013660208701378401015b5f1901916f181899199a1a9b1b9c1cb0b131b232b360811b8282061a835304908115610a4e57600a90610a20565b5050610a8e602860209260405193849167444546494641202360c01b828401528051918291018484015e81015f838201520301601f1981018352826132c6565b60405163d4a1b4b160e01b8152906020826004817f00000000000000000000000000000000000000000000000000000000000000006001600160a01b03165afa918215611d00575f92611e65575b50606060e051015194604060e051015163ffffffff604060c060e05101510151169260018060a01b036101a060e0510151169460c0513b15611e6157610b8c906101c4989796959499610b6b610bad9594610b596040519d8e9d8e633c339d9f60e21b81526101205160048201526101c060248201520190613ebf565b8c81036003190160448e015290613ebf565b6001600160a01b0390921660648b01528982036003190160848b0152613ebf565b6001600160a01b038a1660a48901528781036003190160c489015290613ebf565b6003198682030160e4870152835180825260208201916020808360051b8301019601925f915b838310611d3c5750505050506101048501526001600160a01b037f000000000000000000000000000000000000000000000000000000000000000016610124850152306101448501819052610164850152610184840152600319838203016101a484015281518082526020600582901b83018101938101925f918101905b838310611d0b5788875f81808a03818360c0515af18015611d0057611cec575b50604061010081905280519190610c8890836132c6565b6001825260a0515b61010051601f19018110611cb9575060c060e0510151610caf83613aaf565b52610cb982613aaf565b50610100515191610ccd61010051846132c6565b6001835260a0515b61010051601f19018110611ca2575060e0516101e00151610100515191906001600160a01b0316610d05836131d0565b82526020820152610d1583613aaf565b52610d1f82613aaf565b5060e051610100015162ffffff161580159290611c995760ff60035b1690610d4682613348565b91610d56610100515193846132c6565b808352610d65601f1991613348565b0160a0515b818110611b94575050610dad610d9a65ffffffffffff61012060e05101511662ffffff60e0805101511690614717565b62ffffff61010060e05101511690614717565b62ffffff60e0805101511663ffffffff6101005160c060e051015101511661ffff610df06101005151610ddf816131d0565b60a0518152600160208201526143a9565b16610100515191610e00836131eb565b60a051835260a05160208401526101005183015260a051606083015260a051608083015260a05160a083015260a05160c083015260a05160e083015260a05161010083015260a05161012083015260a05161014083015260a05161016083015260a05161018083015260a0516101a083015260016101c083015260016101e0830152600161020083015260c051610220830152610240820152610ea1613a24565b90610eaa613a5d565b9265ffffffffffff610100515195610ec187613207565b168552602085015260a0516101005185015260a051606085015260a051608085015260a084015260c083015260e0820152610efb83613aaf565b52610f0582613aaf565b50600193611a0e575b610100515160409490610f2186826132c6565b6001815260a0515b601f19870181106119e5575063ffffffff6101005160c060e0510151015116610100515190610f57826131d0565b6001600160e01b0382526020820152610f6f82613aaf565b52610f7981613aaf565b50610100515190610f8a87836132c6565b6001825260a0515b601f19880181106119ad575060e0516101e081015160c0909101515160a0516001600160a01b03928316939190921691610fcb90613348565b91610fdb610100515193846132c6565b60a0518352601f19610fee60a051613348565b0160a0515b81811061198457505061010051519361100b856132ab565b8452602084015261010051830152606082015261102782613aaf565b5261103181613aaf565b5065ffffffffffff61012060e0510151169063ffffffff6101005160c060e05101510151169661ffff61107d610100515161106b816131d0565b60a051815260a05160208201526143a9565b1661010051519861108d8a6131eb565b60a0518a5260a05160208b0152610100518a0152600160608a015260a05160808a015260a05160a08a015260a05160c08a015260a05160e08a015260a0516101008a015260a0516101208a015260a0516101408a015260a0516101608a015260016101808a015260a0516101a08a015260016101c08a015260016101e08a015260016102008a015260c0516102208a015261024089015260018060a01b0360c060e051015151169761014060e051015198895160a0515063047868c060a0515060a051509a60a0515060a0515b8281106119665750633b9aca008c11611947576101205160a0515260046020528b6101005160a0512055600282018211611863576111af9b82916111a060028401613348565b9161010051519e8f93846132c6565b60028401808452601f19906111c390613348565b0160a0515b8181106118f157505060a0519182905b85821061187b575050611270936111f161126a92614670565b93610100515161120081613223565b63ffffffff861681526001600160401b037f000000000000000000000000000000000000000000000000000000000000000016602082015260c0516101005182015260a051606082015260a051608082015260a05160a08201526112648383613ae0565b52613ae0565b50613eb2565b633b9aca009081039081116118635763ffffffff61010051519161129383613223565b1681526001600160401b037f000000000000000000000000000000000000000000000000000000000000000016602082015260c0516101005182015260a051606082015260a051608082015260a05160a08201526002820160018301116118635761130f916001916113078383018f613ae0565b52018b613ae0565b5061010051519261132081856132c6565b6001845260a0519798975b601f1982018110611832575050906113cd9594939291611405999a610100515191611355836131d0565b8252602082015261136583613aaf565b5261136f82613aaf565b5061010051519361137f85613207565b845260a051602085015260a0516101005185015260a051606085015260a051608085015260a084015260c083015260e08201526113bb8261439b565b506113c68285613ae0565b5282613ae0565b50611417602060e05101519161010051519485936307128b6b60e31b855261012051600486015260a0602486015260a4850190613ebf565b83810360031901604485015290613bd2565b91600319828403016064830152805180845260208401936020808360051b83010193019460a051915b83831061178e57888660208188752630bab731b434b733902232b334b3309033b0b6b29760511b83838303926003198401608486015260168152015261010051018160a05160018060a01b037f0000000000000000000000000000000000000000000000000000000000000000165af1801561171e5761175f575b5060e051610160810151610180820151610240909201517f00000000000000000000000000000000000000000000000000000000000000006001600160a01b03169392843b1561015c5761010051516349e9856960e01b815261012051600482015260248101939093526044830152606482015260a0518160848183875af1801561171e57611746575b5060c0513b1561015c57610100515163f2fde38b60e01b815282600482015260a0518160248160a05160c0515af1801561171e5761172d575b5061010051516080513360601b6001600160601b0319166020830190815260348301919091527f00000000000000000000000000000000000000000000000000000000000000006001600160a01b0316916115dc81605481016108a7565b5190206101005151733d602d80600a3d3981f3363d3d373d3d3d363d7360601b60208201527f000000000000000000000000000000000000000000000000000000000000000060601b6001600160601b03191660348201526e5af43d82803e903d91602b57fd5bf360881b6048820152603781529061165c6057836132c6565b823b1561015c576101005151928391636d1e458560e11b8352306004840152602483015260606044830152818061169a60a051956064830190613ebf565b039160a051905af1801561171e57611705575b506101008051516001600160a01b03909216825233602083015260c05161012051915190927f3082991f3dda023098e5849ea3903c6fbfd657dc6f9232f5eb81ad8a7ba161d69190a460206101005151610120518152f35b60a051611711916132c6565b60a05161015c57826116ad565b61010051513d60a051823e3d90fd5b60a051611739916132c6565b60a05161015c578261157e565b60a051611752916132c6565b60a05161015c5782611545565b6117809060203d602011611787575b61177881836132c6565b810190613646565b50816114bb565b503d61176e565b919390929450601f19828203018352855160206060816101005185019360018060a01b038151168652015193610100518382015284518094520192019060a051905b8082106117f25750505060208060019297019301930190928694929593611440565b9091926020606060019263ffffffff8751858060a01b03815116835260ff85820151168584015261010051015116610100518201520194019201906117d0565b6020906118409a999a613a0b565b8282880101520198979861132b565b634e487b7160e01b5f52604160045260245ffd5b634e487b7160e01b60a051526011600452602460a051fd5b9281955063ffffffff6118da83600195976118996118e39689613ae0565b516118a48383613ae0565b526118af8282613ae0565b50836118c88a826118c0868d613ae0565b5151166145ad565b166118d38383613ae0565b5152613ae0565b51511690613eb2565b930190918493918f936111d8565b9092945060209193828261010051519261190a84613223565b60a051845260a0518385015260a0516101005185015260a051606085015260a051608085015260a05160a085015201015201918493918f936111c8565b8b6317b5093760e11b60a05152600452633b9aca00602452604460a051fd5b9b61197d60019163ffffffff8f6118da9086613ae0565b9c0161115a565b6020906101005151611995816131d0565b60a051815260a0518382015282828801015201610ff3565b60209061010051516119be816132ab565b60a051815260a0518382015260606101005182015260608082015282828601015201610f92565b60209061010051516119f6816131d0565b60a051815260a0518382015282828501015201610f29565b611a3465ffffffffffff61012060e05101511662ffffff61010060e05101511690614717565b9362ffffff61010060e0510151169063ffffffff6101005160c060e05101510151169061ffff611a7b6101005151611a6b816131d0565b60a05181528360208201526143a9565b1690610100515192611a8c846131eb565b60a051845260a05160208501526101005184015280606084015260a051608084015260a05160a084015260a05160c084015260a05160e084015260a05161010084015260a05161012084015260a05161014084015260a05161016084015260a05161018084015260a0516101a0840152806101c0840152806101e084015261020083015260c051610220830152610240820152611b27613a24565b90611b30613a5d565b9265ffffffffffff610100515198611b478a613207565b168852602088015260a0516101005188015260a051606088015260a051608088015260a087015260c086015260e0850152600293611b8483613ad0565b52611b8e82613ad0565b50610f0e565b6020906101005151611ba581613207565b60a051815260a0518382015260a0516101005182015260a051606082015260a05160808201526101005151611bd9816131eb565b60a051815260a0518482015260a0516101005182015260a051606082015260a051608082015260a05160a082015260a05160c082015260a05160e082015260a05161010082015260a05161012082015260a05161014082015260a05161016082015260a05161018082015260a0516101a082015260a0516101c082015260a0516101e082015260a05161020082015260a05161022082015260a05161024082015260a0820152606060c0820152606060e082015282828701015201610d6a565b60ff6002610d3b565b602090611cad613a0b565b82828701015201610cd5565b6020906101005151611cca8161323e565b60a051815260a0518382015260a0516101005182015282828601015201610c90565b5f611cf6916132c6565b5f60a05281610c71565b6040513d5f823e3d90fd5b919395509193602080611d2a600193601f198682030187528951613ebf565b97019301930190928695949293610c51565b919397985091939495602080611e4c600193601f198682030187526102206101408d516001600160681b03815116845263ffffffff86820151168685015263ffffffff604082015116604085015261ffff6060820151166060850152878060a01b03608082015116608085015260a081015160a085015262ffffff60c08201511660c085015260ff60e08201511660e085015260c0610100820151805115156101008701528781015115156101208701526040810151151584870152606081015115156101608701526080810151151561018087015260a081015115156101a0870152015115156101c085015263ffffffff610120820151166101e0850152015191816102008201520190613af4565b99019301930190928998979695949293610bd3565b5f80fd5b611e8891925060203d602011611e8f575b611e8081836132c6565b810190613e93565b9086610adc565b503d611e76565b6001909101906109e7565b6064600291049301926109e0565b612710600491049301926109d6565b6305f5e100600891049301926109cb565b662386f26fc10000601091049301926109be565b6d04ee2d6d415b85acef8100000000602091049301926109ae565b50610120516040925072184f03e93ff9f4daa797ed6e38ed64bf6a1f0160401b9004610994565b507f000000000000000000000000000000000000000000000000000000000000000091610967565b63b06ebf3d60e01b5f5260045ffd5b611f6c84608060e0510151613ae0565b51936001600160681b0360a060e0510151169461ffff6020820151169560018060a01b036040830151166060830151608084015115159060405191611fb083613290565b5f835260208301525f60408301525f606083015260016080830152600160a08301525f60c08301526001600160401b035f1161184f5760405192611ff56020856132c6565b5f84525f805b81811061208d57505060019798999a6040519561201787613274565b8652633b9ac9ff60208701525f60408701526060860152608085015260a08401525f60c08401525f60e08401526101008301525f6101208301526101408201526120618387613ae0565b5261206c8286613ae0565b50516120788287613ae0565b526120838186613ae0565b5001929190610861565b60209060405161209c81613223565b5f81525f838201525f60408201525f60608201525f60808201525f60a082015282828901015201611ffb565b606060208286018101919091520161082e565b6020906040516120ea81613274565b5f81525f838201525f60408201525f60608201525f60808201525f60a08201525f60c08201525f60e082015260405161212281613290565b5f81525f848201525f60408201525f60608201525f60808201525f60a08201525f60c08201526101008201525f6101208201526060610140820152828286010152016107f3565b6020813d602011612195575b81612182602093836132c6565b81010312611e61575161012052806106c4565b3d9150612175565b90506020813d6020116121d8575b816121b8602093836132c6565b81010312611e6157516001600160a01b0381168103611e61576020610688565b3d91506121ab565b61016060e051015165ffffffffffff61012060e0510151168082115f146122955761220a9161438e565b61223b61222d63ffffffff61022060e0510151169261018060e051015190613eb2565b61024060e051015190613eb2565b1061063b575b60e0805161012081015191810151610100820151608090920151516040516348296efd60e11b815265ffffffffffff909416600485015262ffffff9182166024850152911660448301526064820152608490fd5b50505f61220a565b604063ffffffff91015116906328eae2fb60e01b5f5260045260245260445ffd5b5063ffffffff60408201511615610624565b60e0805161012081015191810151610100909101516040516348296efd60e11b815265ffffffffffff909316600484015262ffffff91821660248401521660448201526064810191909152608490fd5b5065ffffffffffff61012060e05101511661235b61234a62ffffff61010060e05101511642613eb2565b62ffffff60e0805101511690613eb2565b116105de565b60849062ffffff60e0805101511662ffffff61010060e051015116608060e05101515191604051936348296efd60e11b85526004850152602484015260448301526064820152fd5b62ffffff60e080510151161590816123fe575b50156105cb5762ffffff6123f265ffffffffffff61012060e0510151166123ec8361010060e05101511642613eb2565b9061438e565b1660e0805101526105cb565b905061241662ffffff61010060e05101511642613eb2565b10816123bc565b60c083360312611e61576040519061243482613223565b61243d8461335f565b825260208401356001600160401b0381168103611e6157602083015260408401356001600160a01b0381168103611e6157604083015261247f606085016131c3565b606083015261249060808501613380565b608083015260a0840135906001600160a01b0382168203611e61578260209260a060c09501528152019201916104a5565b83356001600160401b038111611e61576004908301019060a0601f198336030112611e6157604051906124f382613259565b60208301356001600160401b038111611e61576125169060203691860101613302565b825260408301359161ffff83168303611e615761255860a0602095869586850152612543606082016131af565b604085015260808101356060850152016131c3565b608082015281520193019261037a565b34611e61575f366003190112611e615760206040517f00000000000000000000000000000000000000000000000000000000000000008152f35b34611e61576020366003190112611e61576125be600435613ee3565b005b34611e61576040366003190112611e61576004356024358015158103611e6157815f52600360205260018060a01b0360405f2054166040516388bc2ef360e01b815260208160048160018060a01b037f0000000000000000000000000000000000000000000000000000000000000000165afa908115611d00575f9161287a575b50604051630862026560e41b8152600481018590526001600160a01b038381166024830152909160209183916044918391165afa908115611d00575f9161285b575b50604051633a01714f60e01b8152600481018590526001600160a01b0383811660248301529190911693606082604481885afa918215611d00575f926127eb575b5060405163507f146560e01b8152602081600481895afa958615611d0057612731968386926020945f936127cc575b5060405163467f4cb960e01b81526001600160a01b039182166004820152602481019290925290921660448301529096879190829081906064820190565b03916001600160a01b03165afa908115611d00575f91612797575b606095508194612774575b5050602060ff910151169060405192835260208301526040820152f35b60ff929450602091612790915f525f835260405f205490613eb2565b9391612757565b90506020853d6020116127c4575b816127b2602093836132c6565b81010312611e6157606094519061274c565b3d91506127a5565b6127e4919350853d8711611e8f57611e8081836132c6565b918a6126f3565b9091506060813d606011612853575b81612807606093836132c6565b81010312611e61576040519061281c8261323e565b6128258161349f565b8252602081015160ff81168103611e61576020830152612847906040016133a6565b604082015290856126c4565b3d91506127fa565b612874915060203d602011611e8f57611e8081836132c6565b84612683565b612893915060203d602011611e8f57611e8081836132c6565b84612641565b34611e61576020366003190112611e61576004355f526003602052606060405f20604051906128c782613223565b805460018060a01b038116835265ffffffffffff8160a01c169283602082015260a063ffffffff600262ffffff8560d01c169485604086015260e81c9586898601526001810154608086015201541691015260405192835260208301526040820152f35b34611e61575f366003190112611e6157602060405160288152f35b34611e61576020366003190112611e61576004355f526001602052602060ff60405f2054166040519015158152f35b34611e61575f366003190112611e61576040517f00000000000000000000000000000000000000000000000000000000000000006001600160a01b03168152602090f35b34611e61575f366003190112611e61576040517f00000000000000000000000000000000000000000000000000000000000000006001600160a01b03168152602090f35b34611e61576020366003190112611e615760405163d4a1b4b160e01b81527f00000000000000000000000000000000000000000000000000000000000000006001600160a01b0316906004803590602090839081865afa918215611d0057602492610120915f91612bef575b506040516321d1336160e11b81526004810184905293849182906001600160a01b03165afa918215611d00575f92612bad575b5060206004936040519485809263d4a1b4b160e01b82525afa928315611d00575f93612b88575b5060405163855a54ed60e01b815260048101919091529161014090839060249082906001600160a01b03165afa8015611d00575f90612b3e575b6020925063ffffffff60808301511615159182612b21575b50506040519015158152f35b65ffffffffffff8092935084809201511692015116148280612b15565b506101403d8111612b81575b612b5481846132c6565b820161014083820312611e6157610120612b70600692856133b7565b9301511015611e6157602091612afd565b503d612b4a565b610140919350612ba69060203d602011611e8f57611e8081836132c6565b9290612ac3565b9291506101203d8111612be8575b612bc581856132c6565b830161012084820312611e6157612be06020916004956133b7565b929350612a9c565b503d612bbb565b612c08915060203d602011611e8f57611e8081836132c6565b85612a69565b34611e61575f366003190112611e61576040517f00000000000000000000000000000000000000000000000000000000000000006001600160a01b03168152602090f35b34611e61575f366003190112611e615760206040517f00000000000000000000000000000000000000000000000000000000000000008152f35b34611e61576020366003190112611e61576004355f5260036020526040805f2060a08251612cb981613223565b8254600180841b038116825265ffffffffffff81841c16602083015262ffffff8160d01c168583015260e81c606082015263ffffffff6002600185015494856080850152015416918291015282519182526020820152f35b34611e61576020366003190112611e6157600435612d2e81613655565b60068110156130125760058103612ffc5750805f52600260205260ff60405f205416612fea575f8181526002602052604090819020805460ff19166001179055516320c94b1360e11b8152600481018290527f00000000000000000000000000000000000000000000000000000000000000006001600160a01b03169061038081602481855afa908115611d0057604092602092612f18925f91612fb9575b50612dd6613915565b9063ffffffff86820151169061022060018060a01b039101511661ffff612e0e8851612e01816131d0565b5f81525f898201526143a9565b1690875192612e1c846131eb565b5f84525f8885015288840152600160608401525f60808401525f60a08401525f60c08401525f60e08401525f6101008401525f6101208401525f6101408401525f61016084015260016101808401525f6101a084015260016101c084015260016101e08401526001610200840152610220830152610240820152612e9e613a24565b612ea6613a5d565b90875192612eb384613207565b5f84525f888501525f898501525f60608501525f608085015260a084015260c083015260e0820152612ee482613aaf565b52612eee81613aaf565b505f855195869485936303141db760e41b8552896004860152606060248601526064850190613bd2565b7f4465666966612067616d653a206e6f20636f6e746573742e000000000000000087858303926003198401604488015260188152015201925af18015611d0057612f8a575b507f9b148a463b302341922ada41a3ae174156303492e0c4335ee452ad4ebe65d7426020604051338152a2005b6020813d602011612fb1575b81612fa3602093836132c6565b81010312611e615751612f5d565b3d9150612f96565b612fdb91506103803d8111612fe3575b612fd381836132c6565b8101906134b3565b905086612dcd565b503d612fc9565b638185786b60e01b5f5260045260245ffd5b906315fb13c560e31b5f5260045260245260445ffd5b634e487b7160e01b5f52602160045260245ffd5b34611e61575f366003190112611e615760206040517f00000000000000000000000000000000000000000000000000000000000000008152f35b34611e61576080366003190112611e6157613079613183565b50613082613199565b506064356001600160401b038111611e615736602382011215611e615780600401356001600160401b038111611e615736910160240111611e6157604051630a85bd0160e11b8152602090f35b34611e61575f366003190112611e61576040517f00000000000000000000000000000000000000000000000000000000000000006001600160a01b03168152602090f35b34611e61576020366003190112611e615761312f600435613655565b6040516006821015613012576020918152f35b34611e61575f366003190112611e61577f00000000000000000000000000000000000000000000000000000000000000006001600160a01b03168152602090f35b600435906001600160a01b0382168203611e6157565b602435906001600160a01b0382168203611e6157565b35906001600160a01b0382168203611e6157565b35908115158203611e6157565b604081019081106001600160401b0382111761184f57604052565b61026081019081106001600160401b0382111761184f57604052565b61010081019081106001600160401b0382111761184f57604052565b60c081019081106001600160401b0382111761184f57604052565b606081019081106001600160401b0382111761184f57604052565b60a081019081106001600160401b0382111761184f57604052565b61016081019081106001600160401b0382111761184f57604052565b60e081019081106001600160401b0382111761184f57604052565b608081019081106001600160401b0382111761184f57604052565b90601f801991011681019081106001600160401b0382111761184f57604052565b6001600160401b03811161184f57601f01601f191660200190565b81601f82011215611e6157803590613319826132e7565b9261332760405194856132c6565b82845260208383010111611e6157815f926020809301838601378301015290565b6001600160401b03811161184f5760051b60200190565b359063ffffffff82168203611e6157565b359062ffffff82168203611e6157565b359065ffffffffffff82168203611e6157565b519065ffffffffffff82168203611e6157565b519063ffffffff82168203611e6157565b919082610120910312611e615760405161012081018181106001600160401b0382111761184f5760405280926133ec81613393565b82526133fa60208201613393565b602083015261340b60408201613393565b604083015261341c60608201613393565b606083015261342d608082016133a6565b608083015260a08101516001600160701b0381168103611e615760a083015261345860c082016133a6565b60c083015260e08101516001600160a01b0381168103611e615760e083015261010090810151910152565b519061ffff82168203611e6157565b51908115158203611e6157565b51906001600160a01b0382168203611e6157565b80820392916103808412611e61576134ce61026091836133b7565b9361011f190112611e615761363d610360604051926134ec846131eb565b6134f96101208201613483565b84526135086101408201613483565b602085015261351a61016082016133a6565b604085015261352c6101808201613492565b606085015261353e6101a08201613492565b60808501526135506101c08201613492565b60a08501526135626101e08201613492565b60c08501526135746102008201613492565b60e08501526135866102208201613492565b6101008501526135996102408201613492565b6101208501526135ac6102608201613492565b6101408501526135bf6102808201613492565b6101608501526135d26102a08201613492565b6101808501526135e56102c08201613492565b6101a08501526135f86102e08201613492565b6101c085015261360b6103008201613492565b6101e085015261361e6103208201613492565b610200850152613631610340820161349f565b61022085015201613483565b61024082015290565b90816020910312611e61575190565b6040516320c94b1360e11b81526004810182905290610380826024817f00000000000000000000000000000000000000000000000000000000000000006001600160a01b03165afa8015611d00575f925f916138f0575b5065ffffffffffff83511680156138e857600181146138df57600214806138c7575b6138bf5761022001805160405163d3fef14360e01b815291929190602090829060049082906001600160a01b03165afa908115611d00575f91613885575b5061387d57805f52600260205260ff60405f205416613875575f52600360205260405f206040519161373d83613223565b815460018060a01b038116845265ffffffffffff8160a01c16602085015262ffffff8160d01c16604085015260e81c6060840152600182015460a063ffffffff6002608087019584875201541694019384526137f9575b50505163ffffffff1680151591826137b7575b50506137b257600390565b600590565b65ffffffffffff91925060600151160165ffffffffffff81116137e55765ffffffffffff1642115f806137a7565b634e487b7160e01b5f52601160045260245ffd5b516040516307ba546160e01b81529190602090839060049082906001600160a01b03165afa918215611d00575f92613841575b50511161383a575f80613794565b5050600590565b9091506020813d60201161386d575b8161385d602093836132c6565b81010312611e615751905f61382c565b3d9150613850565b505050600590565b505050600490565b90506020813d6020116138b7575b816138a0602093836132c6565b81010312611e61576138b190613492565b5f61370c565b3d9150613893565b505050600290565b50815f52600360205260405f205460e81c15156136ce565b50505050600190565b505050505f90565b905061390c9192506103803d8111612fe357612fd381836132c6565b9190915f6136ac565b6040805190919061392683826132c6565b6001815291601f1901825f5b82811061393e57505050565b60209060405161394d81613207565b5f81525f838201525f60408201525f60608201525f6080820152604051613973816131eb565b5f81525f848201525f60408201525f60608201525f60808201525f60a08201525f60c08201525f60e08201525f6101008201525f6101208201525f6101408201525f6101608201525f6101808201525f6101a08201525f6101c08201525f6101e08201525f6102008201525f6102208201525f61024082015260a0820152606060c0820152606060e082015282828501015201613932565b60405190613a18826131d0565b60606020835f81520152565b60405190613a336020836132c6565b5f80835282815b828110613a4657505050565b602090613a51613a0b565b82828501015201613a3a565b60405190613a6c6020836132c6565b5f80835282815b828110613a7f57505050565b602090604051613a8e816132ab565b5f81525f838201526060604082015260608082015282828501015201613a73565b805115613abc5760200190565b634e487b7160e01b5f52603260045260245ffd5b805160011015613abc5760400190565b8051821015613abc5760209160051b010190565b90602080835192838152019201905f5b818110613b115750505090565b909192602060c0600192865163ffffffff81511682526001600160401b03848201511684830152848060a01b03604082015116604083015260608101511515606083015265ffffffffffff608082015116608083015260a08580821b039101511660a08201520194019101919091613b04565b90602080835192838152019201905f5b818110613ba15750505090565b825180516001600160e01b0316855260209081015163ffffffff168186015260409094019390920191600101613b94565b9080602083519182815201916020808360051b8301019401925f915b838310613bfd57505050505090565b9091929394601f19828203018352855161034082019065ffffffffffff815116835263ffffffff60208201511660208401526001600160701b03604082015116604084015263ffffffff606082015116606084015260018060a01b03608082015116608084015261ffff61024060a08301518281511660a08701528260208201511660c087015263ffffffff60408201511660e0870152606081015115156101008701526080810151151561012087015260a0810151151561014087015260c0810151151561016087015260e0810151151561018087015261010081015115156101a087015261012081015115156101c087015261014081015115156101e0870152610160810151151561020087015261018081015115156102208701526101a08101511515828701526101c081015115156102608701526101e0810151151561028087015261020081015115156102a087015260018060a01b03610220820151166102c08701520151166102e084015260c0810151916103406103008501528251809152610360840160206103608360051b8701019401915f5b818110613e58575050505060e0015191610320818303910152815180825260208201906020808260051b8501019401925f5b828110613deb57505050505060208060019297019301930191939290613bee565b9091929394602080613e4b600193601f19878203018952895190858060a01b038251168152858060a01b038483015116848201526060613e3a6040840151608060408501526080840190613b84565b920151906060818403910152613b84565b9701950193929101613dca565b90919294602080613e8760019361035f198b82030188526040838b518051845201519181858201520190613af4565b97019401929101613d98565b90816020910312611e6157516001600160a01b0381168103611e615790565b919082018092116137e557565b805180835260209291819084018484015e5f828201840152601f01601f1916010190565b805f52600160205260ff60405f20541661438b57805f52600160205260405f20600160ff1982541617905560018060a01b037f0000000000000000000000000000000000000000000000000000000000000000166040516320c94b1360e11b815282600482015261038081602481855afa908115611d00575f9161436a575b5061022081015160405163d3fef14360e01b815290602090829060049082906001600160a01b03165afa908115611d00575f91614330575b501561431d57825f5260036020526004602060018060a01b0360405f20541693604051928380926388bc2ef360e01b82525afa908115611d00575f916142fe575b50604051630862026560e41b8152600481018590526001600160a01b038481166024830152909160209183916044918391165afa908115611d00575f916142df575b5060405163507f146560e01b81526001600160a01b039190911692602082600481875afa918215611d00575f926142be575b5060405163467f4cb960e01b81526001600160a01b038581166004830152602482018790528281166044830152909260209184916064918391165afa938415611d005785925f95614287575b50841561424a57825f52600460205260206140ba60405f205487614682565b92845f525f82528360405f205560a463ffffffff604088015116915f604051958694859363cfaf583960e01b85528a6004860152602485015288604485015260648401528160848401525af190816141ef575b50927fe5d1da1fa18899cfe28f941d7fc5ecd5b8429a787f4f8db4313280d644fcc40f94926141c5926141db95155f146141e8577f87cc2a3ee10f5f5a833bada5fda06a13df2fd6a089a2fb2b7e56010f552a2f83903d156141e0573d90614174826132e7565b9161418260405193846132c6565b82523d5f602084013e5b835f525f6020525f60408120556141b56040519283928352606060208401526060830190613ebf565b3360408301520390a25b856143cd565b6040805191825233602083015290918291820190565b0390a2565b60609061418c565b50506141bf565b94925090926020853d602011614242575b8161420d602093836132c6565b81010312611e6157919350909184917fe5d1da1fa18899cfe28f941d7fc5ecd5b8429a787f4f8db4313280d644fcc40f61410d565b3d9150614200565b505061425692506143cd565b7fe5d1da1fa18899cfe28f941d7fc5ecd5b8429a787f4f8db4313280d644fcc40f604080515f8152336020820152a2565b925093506020823d6020116142b6575b816142a4602093836132c6565b81010312611e6157849151935f61409b565b3d9150614297565b6142d891925060203d602011611e8f57611e8081836132c6565b905f61404f565b6142f8915060203d602011611e8f57611e8081836132c6565b5f61401d565b614317915060203d602011611e8f57611e8081836132c6565b5f613fdb565b82631da23c2f60e21b5f5260045260245ffd5b90506020813d602011614362575b8161434b602093836132c6565b81010312611e615761435c90613492565b5f613f9a565b3d915061433e565b61438391506103803d8111612fe357612fd381836132c6565b90505f613f62565b50565b919082039182116137e557565b5f1981146137e55760010190565b905f9180516143c4575b602001516143bd57565b9060021790565b600192506143b3565b6020906143d8613915565b9263ffffffff6040820151169061022060018060a01b039101511661ffff614412604051614405816131d0565b5f81525f878201526143a9565b169060405192614421846131eb565b5f84525f868501526040840152600160608401525f60808401525f60a08401525f60c08401525f60e08401525f6101008401525f6101208401525f6101408401525f6101608401525f6101808401525f6101a084015260016101c084015260016101e084015260016102008401526102208301526102408201526144a3613a24565b6144ab613a5d565b90604051926144b984613207565b5f84525f868501525f60408501525f60608501525f608085015260a084015260c083015260e08201526144eb84613aaf565b526144f583613aaf565b50604061452081519485936303141db760e41b85526004850152606060248501526064840190613bd2565b82810360031981016044850152601982527f4465666966612067616d65206861732066696e69736865642e000000000000009185019190915201815f6001600160a01b037f0000000000000000000000000000000000000000000000000000000000000000165af18015611d00576145955750565b61438b9060203d6020116117875761177881836132c6565b5f19633b9aca00820991633b9aca0082029182808510940393808503941461464f578184101561463257633b9aca00829109600182190182168092046002816003021880820260020302808202600203028082026002030280820260020302808202600203028091026002030293600183805f03040190848311900302920304170290565b630c740aef60e31b5f52600452633b9aca0060245260445260645ffd5b509150811561465c570490565b634e487b7160e01b5f52601260045260245ffd5b801561465c5766b1a2bc2ec500000490565b91905f905f19818509908085029283808410930392808403931461470857633b9aca008310156146ea5750633b9aca00907f88f2cfb83100cb4e69e7c79c58b316e597157d372fb9787e8e47ce423a2e9c6d94950990828211900360f71b910360091c170290565b60649186630c740aef60e31b8352600452602452633b9aca00604452fd5b505050633b9aca009192500490565b9065ffffffffffff8091169116039065ffffffffffff82116137e55756fea164736f6c634300081c000a",
	"gitCommit": "npm:@ballkidz/defifa@0.0.56",
	"gitDirty": false,
	"history": []
}