{
	"format": "sphinx-sol-ct-artifact-1",
	"address": "0x63b8235235267d7bd7f8c1aab075f104851751eb",
	"sourceName": "node_modules/@bananapus/721-hook-v6/src/JB721TiersHookProjectDeployer.sol",
	"contractName": "JB721TiersHookProjectDeployer",
	"chainId": "0x14a34",
	"abi": [
		{
			"type": "constructor",
			"inputs": [
				{
					"name": "directory",
					"type": "address",
					"internalType": "contract IJBDirectory"
				},
				{
					"name": "permissions",
					"type": "address",
					"internalType": "contract IJBPermissions"
				},
				{
					"name": "hookDeployer",
					"type": "address",
					"internalType": "contract IJB721TiersHookDeployer"
				},
				{
					"name": "trustedForwarder",
					"type": "address",
					"internalType": "address"
				}
			],
			"stateMutability": "nonpayable"
		},
		{
			"type": "function",
			"name": "DIRECTORY",
			"inputs": [],
			"outputs": [
				{
					"name": "",
					"type": "address",
					"internalType": "contract IJBDirectory"
				}
			],
			"stateMutability": "view"
		},
		{
			"type": "function",
			"name": "HOOK_DEPLOYER",
			"inputs": [],
			"outputs": [
				{
					"name": "",
					"type": "address",
					"internalType": "contract IJB721TiersHookDeployer"
				}
			],
			"stateMutability": "view"
		},
		{
			"type": "function",
			"name": "PERMISSIONS",
			"inputs": [],
			"outputs": [
				{
					"name": "",
					"type": "address",
					"internalType": "contract IJBPermissions"
				}
			],
			"stateMutability": "view"
		},
		{
			"type": "function",
			"name": "isTrustedForwarder",
			"inputs": [
				{
					"name": "forwarder",
					"type": "address",
					"internalType": "address"
				}
			],
			"outputs": [
				{
					"name": "",
					"type": "bool",
					"internalType": "bool"
				}
			],
			"stateMutability": "view"
		},
		{
			"type": "function",
			"name": "launchProjectFor",
			"inputs": [
				{
					"name": "owner",
					"type": "address",
					"internalType": "address"
				},
				{
					"name": "deployTiersHookConfig",
					"type": "tuple",
					"internalType": "struct JBDeploy721TiersHookConfig",
					"components": [
						{
							"name": "name",
							"type": "string",
							"internalType": "string"
						},
						{
							"name": "symbol",
							"type": "string",
							"internalType": "string"
						},
						{
							"name": "baseUri",
							"type": "string",
							"internalType": "string"
						},
						{
							"name": "tokenUriResolver",
							"type": "address",
							"internalType": "contract IJB721TokenUriResolver"
						},
						{
							"name": "contractUri",
							"type": "string",
							"internalType": "string"
						},
						{
							"name": "tiersConfig",
							"type": "tuple",
							"internalType": "struct JB721InitTiersConfig",
							"components": [
								{
									"name": "tiers",
									"type": "tuple[]",
									"internalType": "struct JB721TierConfig[]",
									"components": [
										{
											"name": "price",
											"type": "uint104",
											"internalType": "uint104"
										},
										{
											"name": "initialSupply",
											"type": "uint32",
											"internalType": "uint32"
										},
										{
											"name": "votingUnits",
											"type": "uint32",
											"internalType": "uint32"
										},
										{
											"name": "reserveFrequency",
											"type": "uint16",
											"internalType": "uint16"
										},
										{
											"name": "reserveBeneficiary",
											"type": "address",
											"internalType": "address"
										},
										{
											"name": "encodedIpfsUri",
											"type": "bytes32",
											"internalType": "bytes32"
										},
										{
											"name": "category",
											"type": "uint24",
											"internalType": "uint24"
										},
										{
											"name": "discountPercent",
											"type": "uint8",
											"internalType": "uint8"
										},
										{
											"name": "flags",
											"type": "tuple",
											"internalType": "struct JB721TierConfigFlags",
											"components": [
												{
													"name": "allowOwnerMint",
													"type": "bool",
													"internalType": "bool"
												},
												{
													"name": "useReserveBeneficiaryAsDefault",
													"type": "bool",
													"internalType": "bool"
												},
												{
													"name": "transfersPausable",
													"type": "bool",
													"internalType": "bool"
												},
												{
													"name": "useVotingUnits",
													"type": "bool",
													"internalType": "bool"
												},
												{
													"name": "cantBeRemoved",
													"type": "bool",
													"internalType": "bool"
												},
												{
													"name": "cantIncreaseDiscountPercent",
													"type": "bool",
													"internalType": "bool"
												},
												{
													"name": "cantBuyWithCredits",
													"type": "bool",
													"internalType": "bool"
												}
											]
										},
										{
											"name": "splitPercent",
											"type": "uint32",
											"internalType": "uint32"
										},
										{
											"name": "splits",
											"type": "tuple[]",
											"internalType": "struct JBSplit[]",
											"components": [
												{
													"name": "percent",
													"type": "uint32",
													"internalType": "uint32"
												},
												{
													"name": "projectId",
													"type": "uint64",
													"internalType": "uint64"
												},
												{
													"name": "beneficiary",
													"type": "address",
													"internalType": "address payable"
												},
												{
													"name": "preferAddToBalance",
													"type": "bool",
													"internalType": "bool"
												},
												{
													"name": "lockedUntil",
													"type": "uint48",
													"internalType": "uint48"
												},
												{
													"name": "hook",
													"type": "address",
													"internalType": "contract IJBSplitHook"
												}
											]
										}
									]
								},
								{
									"name": "currency",
									"type": "uint32",
									"internalType": "uint32"
								},
								{
									"name": "decimals",
									"type": "uint8",
									"internalType": "uint8"
								}
							]
						},
						{
							"name": "flags",
							"type": "tuple",
							"internalType": "struct JB721TiersHookFlags",
							"components": [
								{
									"name": "noNewTiersWithReserves",
									"type": "bool",
									"internalType": "bool"
								},
								{
									"name": "noNewTiersWithVotes",
									"type": "bool",
									"internalType": "bool"
								},
								{
									"name": "noNewTiersWithOwnerMinting",
									"type": "bool",
									"internalType": "bool"
								},
								{
									"name": "preventOverspending",
									"type": "bool",
									"internalType": "bool"
								},
								{
									"name": "issueTokensForSplits",
									"type": "bool",
									"internalType": "bool"
								}
							]
						}
					]
				},
				{
					"name": "launchProjectConfig",
					"type": "tuple",
					"internalType": "struct JBLaunchProjectConfig",
					"components": [
						{
							"name": "projectUri",
							"type": "string",
							"internalType": "string"
						},
						{
							"name": "rulesetConfigurations",
							"type": "tuple[]",
							"internalType": "struct JBPayDataHookRulesetConfig[]",
							"components": [
								{
									"name": "mustStartAtOrAfter",
									"type": "uint48",
									"internalType": "uint48"
								},
								{
									"name": "duration",
									"type": "uint32",
									"internalType": "uint32"
								},
								{
									"name": "weight",
									"type": "uint112",
									"internalType": "uint112"
								},
								{
									"name": "weightCutPercent",
									"type": "uint32",
									"internalType": "uint32"
								},
								{
									"name": "approvalHook",
									"type": "address",
									"internalType": "contract IJBRulesetApprovalHook"
								},
								{
									"name": "metadata",
									"type": "tuple",
									"internalType": "struct JBPayDataHookRulesetMetadata",
									"components": [
										{
											"name": "reservedPercent",
											"type": "uint16",
											"internalType": "uint16"
										},
										{
											"name": "cashOutTaxRate",
											"type": "uint16",
											"internalType": "uint16"
										},
										{
											"name": "baseCurrency",
											"type": "uint32",
											"internalType": "uint32"
										},
										{
											"name": "pausePay",
											"type": "bool",
											"internalType": "bool"
										},
										{
											"name": "pauseCreditTransfers",
											"type": "bool",
											"internalType": "bool"
										},
										{
											"name": "allowOwnerMinting",
											"type": "bool",
											"internalType": "bool"
										},
										{
											"name": "allowSetCustomToken",
											"type": "bool",
											"internalType": "bool"
										},
										{
											"name": "allowTerminalMigration",
											"type": "bool",
											"internalType": "bool"
										},
										{
											"name": "allowSetTerminals",
											"type": "bool",
											"internalType": "bool"
										},
										{
											"name": "allowSetController",
											"type": "bool",
											"internalType": "bool"
										},
										{
											"name": "allowAddAccountingContext",
											"type": "bool",
											"internalType": "bool"
										},
										{
											"name": "allowAddPriceFeed",
											"type": "bool",
											"internalType": "bool"
										},
										{
											"name": "ownerMustSendPayouts",
											"type": "bool",
											"internalType": "bool"
										},
										{
											"name": "holdFees",
											"type": "bool",
											"internalType": "bool"
										},
										{
											"name": "scopeCashOutsToLocalBalances",
											"type": "bool",
											"internalType": "bool"
										},
										{
											"name": "useDataHookForCashOut",
											"type": "bool",
											"internalType": "bool"
										},
										{
											"name": "metadata",
											"type": "uint16",
											"internalType": "uint16"
										}
									]
								},
								{
									"name": "splitGroups",
									"type": "tuple[]",
									"internalType": "struct JBSplitGroup[]",
									"components": [
										{
											"name": "groupId",
											"type": "uint256",
											"internalType": "uint256"
										},
										{
											"name": "splits",
											"type": "tuple[]",
											"internalType": "struct JBSplit[]",
											"components": [
												{
													"name": "percent",
													"type": "uint32",
													"internalType": "uint32"
												},
												{
													"name": "projectId",
													"type": "uint64",
													"internalType": "uint64"
												},
												{
													"name": "beneficiary",
													"type": "address",
													"internalType": "address payable"
												},
												{
													"name": "preferAddToBalance",
													"type": "bool",
													"internalType": "bool"
												},
												{
													"name": "lockedUntil",
													"type": "uint48",
													"internalType": "uint48"
												},
												{
													"name": "hook",
													"type": "address",
													"internalType": "contract IJBSplitHook"
												}
											]
										}
									]
								},
								{
									"name": "fundAccessLimitGroups",
									"type": "tuple[]",
									"internalType": "struct JBFundAccessLimitGroup[]",
									"components": [
										{
											"name": "terminal",
											"type": "address",
											"internalType": "address"
										},
										{
											"name": "token",
											"type": "address",
											"internalType": "address"
										},
										{
											"name": "payoutLimits",
											"type": "tuple[]",
											"internalType": "struct JBCurrencyAmount[]",
											"components": [
												{
													"name": "amount",
													"type": "uint224",
													"internalType": "uint224"
												},
												{
													"name": "currency",
													"type": "uint32",
													"internalType": "uint32"
												}
											]
										},
										{
											"name": "surplusAllowances",
											"type": "tuple[]",
											"internalType": "struct JBCurrencyAmount[]",
											"components": [
												{
													"name": "amount",
													"type": "uint224",
													"internalType": "uint224"
												},
												{
													"name": "currency",
													"type": "uint32",
													"internalType": "uint32"
												}
											]
										}
									]
								}
							]
						},
						{
							"name": "terminalConfigurations",
							"type": "tuple[]",
							"internalType": "struct JBTerminalConfig[]",
							"components": [
								{
									"name": "terminal",
									"type": "address",
									"internalType": "contract IJBTerminal"
								},
								{
									"name": "accountingContextsToAccept",
									"type": "tuple[]",
									"internalType": "struct JBAccountingContext[]",
									"components": [
										{
											"name": "token",
											"type": "address",
											"internalType": "address"
										},
										{
											"name": "decimals",
											"type": "uint8",
											"internalType": "uint8"
										},
										{
											"name": "currency",
											"type": "uint32",
											"internalType": "uint32"
										}
									]
								}
							]
						},
						{
							"name": "memo",
							"type": "string",
							"internalType": "string"
						}
					]
				},
				{
					"name": "controller",
					"type": "address",
					"internalType": "contract IJBController"
				},
				{
					"name": "salt",
					"type": "bytes32",
					"internalType": "bytes32"
				}
			],
			"outputs": [
				{
					"name": "projectId",
					"type": "uint256",
					"internalType": "uint256"
				},
				{
					"name": "hook",
					"type": "address",
					"internalType": "contract IJB721TiersHook"
				}
			],
			"stateMutability": "payable"
		},
		{
			"type": "function",
			"name": "launchRulesetsFor",
			"inputs": [
				{
					"name": "projectId",
					"type": "uint256",
					"internalType": "uint256"
				},
				{
					"name": "deployTiersHookConfig",
					"type": "tuple",
					"internalType": "struct JBDeploy721TiersHookConfig",
					"components": [
						{
							"name": "name",
							"type": "string",
							"internalType": "string"
						},
						{
							"name": "symbol",
							"type": "string",
							"internalType": "string"
						},
						{
							"name": "baseUri",
							"type": "string",
							"internalType": "string"
						},
						{
							"name": "tokenUriResolver",
							"type": "address",
							"internalType": "contract IJB721TokenUriResolver"
						},
						{
							"name": "contractUri",
							"type": "string",
							"internalType": "string"
						},
						{
							"name": "tiersConfig",
							"type": "tuple",
							"internalType": "struct JB721InitTiersConfig",
							"components": [
								{
									"name": "tiers",
									"type": "tuple[]",
									"internalType": "struct JB721TierConfig[]",
									"components": [
										{
											"name": "price",
											"type": "uint104",
											"internalType": "uint104"
										},
										{
											"name": "initialSupply",
											"type": "uint32",
											"internalType": "uint32"
										},
										{
											"name": "votingUnits",
											"type": "uint32",
											"internalType": "uint32"
										},
										{
											"name": "reserveFrequency",
											"type": "uint16",
											"internalType": "uint16"
										},
										{
											"name": "reserveBeneficiary",
											"type": "address",
											"internalType": "address"
										},
										{
											"name": "encodedIpfsUri",
											"type": "bytes32",
											"internalType": "bytes32"
										},
										{
											"name": "category",
											"type": "uint24",
											"internalType": "uint24"
										},
										{
											"name": "discountPercent",
											"type": "uint8",
											"internalType": "uint8"
										},
										{
											"name": "flags",
											"type": "tuple",
											"internalType": "struct JB721TierConfigFlags",
											"components": [
												{
													"name": "allowOwnerMint",
													"type": "bool",
													"internalType": "bool"
												},
												{
													"name": "useReserveBeneficiaryAsDefault",
													"type": "bool",
													"internalType": "bool"
												},
												{
													"name": "transfersPausable",
													"type": "bool",
													"internalType": "bool"
												},
												{
													"name": "useVotingUnits",
													"type": "bool",
													"internalType": "bool"
												},
												{
													"name": "cantBeRemoved",
													"type": "bool",
													"internalType": "bool"
												},
												{
													"name": "cantIncreaseDiscountPercent",
													"type": "bool",
													"internalType": "bool"
												},
												{
													"name": "cantBuyWithCredits",
													"type": "bool",
													"internalType": "bool"
												}
											]
										},
										{
											"name": "splitPercent",
											"type": "uint32",
											"internalType": "uint32"
										},
										{
											"name": "splits",
											"type": "tuple[]",
											"internalType": "struct JBSplit[]",
											"components": [
												{
													"name": "percent",
													"type": "uint32",
													"internalType": "uint32"
												},
												{
													"name": "projectId",
													"type": "uint64",
													"internalType": "uint64"
												},
												{
													"name": "beneficiary",
													"type": "address",
													"internalType": "address payable"
												},
												{
													"name": "preferAddToBalance",
													"type": "bool",
													"internalType": "bool"
												},
												{
													"name": "lockedUntil",
													"type": "uint48",
													"internalType": "uint48"
												},
												{
													"name": "hook",
													"type": "address",
													"internalType": "contract IJBSplitHook"
												}
											]
										}
									]
								},
								{
									"name": "currency",
									"type": "uint32",
									"internalType": "uint32"
								},
								{
									"name": "decimals",
									"type": "uint8",
									"internalType": "uint8"
								}
							]
						},
						{
							"name": "flags",
							"type": "tuple",
							"internalType": "struct JB721TiersHookFlags",
							"components": [
								{
									"name": "noNewTiersWithReserves",
									"type": "bool",
									"internalType": "bool"
								},
								{
									"name": "noNewTiersWithVotes",
									"type": "bool",
									"internalType": "bool"
								},
								{
									"name": "noNewTiersWithOwnerMinting",
									"type": "bool",
									"internalType": "bool"
								},
								{
									"name": "preventOverspending",
									"type": "bool",
									"internalType": "bool"
								},
								{
									"name": "issueTokensForSplits",
									"type": "bool",
									"internalType": "bool"
								}
							]
						}
					]
				},
				{
					"name": "launchRulesetsConfig",
					"type": "tuple",
					"internalType": "struct JBLaunchRulesetsConfig",
					"components": [
						{
							"name": "projectId",
							"type": "uint64",
							"internalType": "uint64"
						},
						{
							"name": "rulesetConfigurations",
							"type": "tuple[]",
							"internalType": "struct JBPayDataHookRulesetConfig[]",
							"components": [
								{
									"name": "mustStartAtOrAfter",
									"type": "uint48",
									"internalType": "uint48"
								},
								{
									"name": "duration",
									"type": "uint32",
									"internalType": "uint32"
								},
								{
									"name": "weight",
									"type": "uint112",
									"internalType": "uint112"
								},
								{
									"name": "weightCutPercent",
									"type": "uint32",
									"internalType": "uint32"
								},
								{
									"name": "approvalHook",
									"type": "address",
									"internalType": "contract IJBRulesetApprovalHook"
								},
								{
									"name": "metadata",
									"type": "tuple",
									"internalType": "struct JBPayDataHookRulesetMetadata",
									"components": [
										{
											"name": "reservedPercent",
											"type": "uint16",
											"internalType": "uint16"
										},
										{
											"name": "cashOutTaxRate",
											"type": "uint16",
											"internalType": "uint16"
										},
										{
											"name": "baseCurrency",
											"type": "uint32",
											"internalType": "uint32"
										},
										{
											"name": "pausePay",
											"type": "bool",
											"internalType": "bool"
										},
										{
											"name": "pauseCreditTransfers",
											"type": "bool",
											"internalType": "bool"
										},
										{
											"name": "allowOwnerMinting",
											"type": "bool",
											"internalType": "bool"
										},
										{
											"name": "allowSetCustomToken",
											"type": "bool",
											"internalType": "bool"
										},
										{
											"name": "allowTerminalMigration",
											"type": "bool",
											"internalType": "bool"
										},
										{
											"name": "allowSetTerminals",
											"type": "bool",
											"internalType": "bool"
										},
										{
											"name": "allowSetController",
											"type": "bool",
											"internalType": "bool"
										},
										{
											"name": "allowAddAccountingContext",
											"type": "bool",
											"internalType": "bool"
										},
										{
											"name": "allowAddPriceFeed",
											"type": "bool",
											"internalType": "bool"
										},
										{
											"name": "ownerMustSendPayouts",
											"type": "bool",
											"internalType": "bool"
										},
										{
											"name": "holdFees",
											"type": "bool",
											"internalType": "bool"
										},
										{
											"name": "scopeCashOutsToLocalBalances",
											"type": "bool",
											"internalType": "bool"
										},
										{
											"name": "useDataHookForCashOut",
											"type": "bool",
											"internalType": "bool"
										},
										{
											"name": "metadata",
											"type": "uint16",
											"internalType": "uint16"
										}
									]
								},
								{
									"name": "splitGroups",
									"type": "tuple[]",
									"internalType": "struct JBSplitGroup[]",
									"components": [
										{
											"name": "groupId",
											"type": "uint256",
											"internalType": "uint256"
										},
										{
											"name": "splits",
											"type": "tuple[]",
											"internalType": "struct JBSplit[]",
											"components": [
												{
													"name": "percent",
													"type": "uint32",
													"internalType": "uint32"
												},
												{
													"name": "projectId",
													"type": "uint64",
													"internalType": "uint64"
												},
												{
													"name": "beneficiary",
													"type": "address",
													"internalType": "address payable"
												},
												{
													"name": "preferAddToBalance",
													"type": "bool",
													"internalType": "bool"
												},
												{
													"name": "lockedUntil",
													"type": "uint48",
													"internalType": "uint48"
												},
												{
													"name": "hook",
													"type": "address",
													"internalType": "contract IJBSplitHook"
												}
											]
										}
									]
								},
								{
									"name": "fundAccessLimitGroups",
									"type": "tuple[]",
									"internalType": "struct JBFundAccessLimitGroup[]",
									"components": [
										{
											"name": "terminal",
											"type": "address",
											"internalType": "address"
										},
										{
											"name": "token",
											"type": "address",
											"internalType": "address"
										},
										{
											"name": "payoutLimits",
											"type": "tuple[]",
											"internalType": "struct JBCurrencyAmount[]",
											"components": [
												{
													"name": "amount",
													"type": "uint224",
													"internalType": "uint224"
												},
												{
													"name": "currency",
													"type": "uint32",
													"internalType": "uint32"
												}
											]
										},
										{
											"name": "surplusAllowances",
											"type": "tuple[]",
											"internalType": "struct JBCurrencyAmount[]",
											"components": [
												{
													"name": "amount",
													"type": "uint224",
													"internalType": "uint224"
												},
												{
													"name": "currency",
													"type": "uint32",
													"internalType": "uint32"
												}
											]
										}
									]
								}
							]
						},
						{
							"name": "terminalConfigurations",
							"type": "tuple[]",
							"internalType": "struct JBTerminalConfig[]",
							"components": [
								{
									"name": "terminal",
									"type": "address",
									"internalType": "contract IJBTerminal"
								},
								{
									"name": "accountingContextsToAccept",
									"type": "tuple[]",
									"internalType": "struct JBAccountingContext[]",
									"components": [
										{
											"name": "token",
											"type": "address",
											"internalType": "address"
										},
										{
											"name": "decimals",
											"type": "uint8",
											"internalType": "uint8"
										},
										{
											"name": "currency",
											"type": "uint32",
											"internalType": "uint32"
										}
									]
								}
							]
						},
						{
							"name": "memo",
							"type": "string",
							"internalType": "string"
						}
					]
				},
				{
					"name": "projectUri",
					"type": "string",
					"internalType": "string"
				},
				{
					"name": "controller",
					"type": "address",
					"internalType": "contract IJBController"
				},
				{
					"name": "salt",
					"type": "bytes32",
					"internalType": "bytes32"
				}
			],
			"outputs": [
				{
					"name": "rulesetId",
					"type": "uint256",
					"internalType": "uint256"
				},
				{
					"name": "hook",
					"type": "address",
					"internalType": "contract IJB721TiersHook"
				}
			],
			"stateMutability": "nonpayable"
		},
		{
			"type": "function",
			"name": "onERC721Received",
			"inputs": [
				{
					"name": "",
					"type": "address",
					"internalType": "address"
				},
				{
					"name": "from",
					"type": "address",
					"internalType": "address"
				},
				{
					"name": "",
					"type": "uint256",
					"internalType": "uint256"
				},
				{
					"name": "",
					"type": "bytes",
					"internalType": "bytes"
				}
			],
			"outputs": [
				{
					"name": "",
					"type": "bytes4",
					"internalType": "bytes4"
				}
			],
			"stateMutability": "view"
		},
		{
			"type": "function",
			"name": "queueRulesetsOf",
			"inputs": [
				{
					"name": "projectId",
					"type": "uint256",
					"internalType": "uint256"
				},
				{
					"name": "deployTiersHookConfig",
					"type": "tuple",
					"internalType": "struct JBDeploy721TiersHookConfig",
					"components": [
						{
							"name": "name",
							"type": "string",
							"internalType": "string"
						},
						{
							"name": "symbol",
							"type": "string",
							"internalType": "string"
						},
						{
							"name": "baseUri",
							"type": "string",
							"internalType": "string"
						},
						{
							"name": "tokenUriResolver",
							"type": "address",
							"internalType": "contract IJB721TokenUriResolver"
						},
						{
							"name": "contractUri",
							"type": "string",
							"internalType": "string"
						},
						{
							"name": "tiersConfig",
							"type": "tuple",
							"internalType": "struct JB721InitTiersConfig",
							"components": [
								{
									"name": "tiers",
									"type": "tuple[]",
									"internalType": "struct JB721TierConfig[]",
									"components": [
										{
											"name": "price",
											"type": "uint104",
											"internalType": "uint104"
										},
										{
											"name": "initialSupply",
											"type": "uint32",
											"internalType": "uint32"
										},
										{
											"name": "votingUnits",
											"type": "uint32",
											"internalType": "uint32"
										},
										{
											"name": "reserveFrequency",
											"type": "uint16",
											"internalType": "uint16"
										},
										{
											"name": "reserveBeneficiary",
											"type": "address",
											"internalType": "address"
										},
										{
											"name": "encodedIpfsUri",
											"type": "bytes32",
											"internalType": "bytes32"
										},
										{
											"name": "category",
											"type": "uint24",
											"internalType": "uint24"
										},
										{
											"name": "discountPercent",
											"type": "uint8",
											"internalType": "uint8"
										},
										{
											"name": "flags",
											"type": "tuple",
											"internalType": "struct JB721TierConfigFlags",
											"components": [
												{
													"name": "allowOwnerMint",
													"type": "bool",
													"internalType": "bool"
												},
												{
													"name": "useReserveBeneficiaryAsDefault",
													"type": "bool",
													"internalType": "bool"
												},
												{
													"name": "transfersPausable",
													"type": "bool",
													"internalType": "bool"
												},
												{
													"name": "useVotingUnits",
													"type": "bool",
													"internalType": "bool"
												},
												{
													"name": "cantBeRemoved",
													"type": "bool",
													"internalType": "bool"
												},
												{
													"name": "cantIncreaseDiscountPercent",
													"type": "bool",
													"internalType": "bool"
												},
												{
													"name": "cantBuyWithCredits",
													"type": "bool",
													"internalType": "bool"
												}
											]
										},
										{
											"name": "splitPercent",
											"type": "uint32",
											"internalType": "uint32"
										},
										{
											"name": "splits",
											"type": "tuple[]",
											"internalType": "struct JBSplit[]",
											"components": [
												{
													"name": "percent",
													"type": "uint32",
													"internalType": "uint32"
												},
												{
													"name": "projectId",
													"type": "uint64",
													"internalType": "uint64"
												},
												{
													"name": "beneficiary",
													"type": "address",
													"internalType": "address payable"
												},
												{
													"name": "preferAddToBalance",
													"type": "bool",
													"internalType": "bool"
												},
												{
													"name": "lockedUntil",
													"type": "uint48",
													"internalType": "uint48"
												},
												{
													"name": "hook",
													"type": "address",
													"internalType": "contract IJBSplitHook"
												}
											]
										}
									]
								},
								{
									"name": "currency",
									"type": "uint32",
									"internalType": "uint32"
								},
								{
									"name": "decimals",
									"type": "uint8",
									"internalType": "uint8"
								}
							]
						},
						{
							"name": "flags",
							"type": "tuple",
							"internalType": "struct JB721TiersHookFlags",
							"components": [
								{
									"name": "noNewTiersWithReserves",
									"type": "bool",
									"internalType": "bool"
								},
								{
									"name": "noNewTiersWithVotes",
									"type": "bool",
									"internalType": "bool"
								},
								{
									"name": "noNewTiersWithOwnerMinting",
									"type": "bool",
									"internalType": "bool"
								},
								{
									"name": "preventOverspending",
									"type": "bool",
									"internalType": "bool"
								},
								{
									"name": "issueTokensForSplits",
									"type": "bool",
									"internalType": "bool"
								}
							]
						}
					]
				},
				{
					"name": "queueRulesetsConfig",
					"type": "tuple",
					"internalType": "struct JBQueueRulesetsConfig",
					"components": [
						{
							"name": "projectId",
							"type": "uint64",
							"internalType": "uint64"
						},
						{
							"name": "rulesetConfigurations",
							"type": "tuple[]",
							"internalType": "struct JBPayDataHookRulesetConfig[]",
							"components": [
								{
									"name": "mustStartAtOrAfter",
									"type": "uint48",
									"internalType": "uint48"
								},
								{
									"name": "duration",
									"type": "uint32",
									"internalType": "uint32"
								},
								{
									"name": "weight",
									"type": "uint112",
									"internalType": "uint112"
								},
								{
									"name": "weightCutPercent",
									"type": "uint32",
									"internalType": "uint32"
								},
								{
									"name": "approvalHook",
									"type": "address",
									"internalType": "contract IJBRulesetApprovalHook"
								},
								{
									"name": "metadata",
									"type": "tuple",
									"internalType": "struct JBPayDataHookRulesetMetadata",
									"components": [
										{
											"name": "reservedPercent",
											"type": "uint16",
											"internalType": "uint16"
										},
										{
											"name": "cashOutTaxRate",
											"type": "uint16",
											"internalType": "uint16"
										},
										{
											"name": "baseCurrency",
											"type": "uint32",
											"internalType": "uint32"
										},
										{
											"name": "pausePay",
											"type": "bool",
											"internalType": "bool"
										},
										{
											"name": "pauseCreditTransfers",
											"type": "bool",
											"internalType": "bool"
										},
										{
											"name": "allowOwnerMinting",
											"type": "bool",
											"internalType": "bool"
										},
										{
											"name": "allowSetCustomToken",
											"type": "bool",
											"internalType": "bool"
										},
										{
											"name": "allowTerminalMigration",
											"type": "bool",
											"internalType": "bool"
										},
										{
											"name": "allowSetTerminals",
											"type": "bool",
											"internalType": "bool"
										},
										{
											"name": "allowSetController",
											"type": "bool",
											"internalType": "bool"
										},
										{
											"name": "allowAddAccountingContext",
											"type": "bool",
											"internalType": "bool"
										},
										{
											"name": "allowAddPriceFeed",
											"type": "bool",
											"internalType": "bool"
										},
										{
											"name": "ownerMustSendPayouts",
											"type": "bool",
											"internalType": "bool"
										},
										{
											"name": "holdFees",
											"type": "bool",
											"internalType": "bool"
										},
										{
											"name": "scopeCashOutsToLocalBalances",
											"type": "bool",
											"internalType": "bool"
										},
										{
											"name": "useDataHookForCashOut",
											"type": "bool",
											"internalType": "bool"
										},
										{
											"name": "metadata",
											"type": "uint16",
											"internalType": "uint16"
										}
									]
								},
								{
									"name": "splitGroups",
									"type": "tuple[]",
									"internalType": "struct JBSplitGroup[]",
									"components": [
										{
											"name": "groupId",
											"type": "uint256",
											"internalType": "uint256"
										},
										{
											"name": "splits",
											"type": "tuple[]",
											"internalType": "struct JBSplit[]",
											"components": [
												{
													"name": "percent",
													"type": "uint32",
													"internalType": "uint32"
												},
												{
													"name": "projectId",
													"type": "uint64",
													"internalType": "uint64"
												},
												{
													"name": "beneficiary",
													"type": "address",
													"internalType": "address payable"
												},
												{
													"name": "preferAddToBalance",
													"type": "bool",
													"internalType": "bool"
												},
												{
													"name": "lockedUntil",
													"type": "uint48",
													"internalType": "uint48"
												},
												{
													"name": "hook",
													"type": "address",
													"internalType": "contract IJBSplitHook"
												}
											]
										}
									]
								},
								{
									"name": "fundAccessLimitGroups",
									"type": "tuple[]",
									"internalType": "struct JBFundAccessLimitGroup[]",
									"components": [
										{
											"name": "terminal",
											"type": "address",
											"internalType": "address"
										},
										{
											"name": "token",
											"type": "address",
											"internalType": "address"
										},
										{
											"name": "payoutLimits",
											"type": "tuple[]",
											"internalType": "struct JBCurrencyAmount[]",
											"components": [
												{
													"name": "amount",
													"type": "uint224",
													"internalType": "uint224"
												},
												{
													"name": "currency",
													"type": "uint32",
													"internalType": "uint32"
												}
											]
										},
										{
											"name": "surplusAllowances",
											"type": "tuple[]",
											"internalType": "struct JBCurrencyAmount[]",
											"components": [
												{
													"name": "amount",
													"type": "uint224",
													"internalType": "uint224"
												},
												{
													"name": "currency",
													"type": "uint32",
													"internalType": "uint32"
												}
											]
										}
									]
								}
							]
						},
						{
							"name": "memo",
							"type": "string",
							"internalType": "string"
						}
					]
				},
				{
					"name": "controller",
					"type": "address",
					"internalType": "contract IJBController"
				},
				{
					"name": "salt",
					"type": "bytes32",
					"internalType": "bytes32"
				}
			],
			"outputs": [
				{
					"name": "rulesetId",
					"type": "uint256",
					"internalType": "uint256"
				},
				{
					"name": "hook",
					"type": "address",
					"internalType": "contract IJB721TiersHook"
				}
			],
			"stateMutability": "nonpayable"
		},
		{
			"type": "function",
			"name": "trustedForwarder",
			"inputs": [],
			"outputs": [
				{
					"name": "",
					"type": "address",
					"internalType": "address"
				}
			],
			"stateMutability": "view"
		},
		{
			"type": "error",
			"name": "JBPermissioned_Unauthorized",
			"inputs": [
				{
					"name": "account",
					"type": "address",
					"internalType": "address"
				},
				{
					"name": "sender",
					"type": "address",
					"internalType": "address"
				},
				{
					"name": "projectId",
					"type": "uint256",
					"internalType": "uint256"
				},
				{
					"name": "permissionId",
					"type": "uint256",
					"internalType": "uint256"
				}
			]
		}
	],
	"args": [
		"0xE7d0F5ADC3847d4AfD70B7bcd58e34B1AAFDffbc",
		"0xCF5870A8F942110C2ea89fd03B7a3D578816a265",
		"0xA19E29ADA73ec9170902fd69A266867f00808622",
		"0x53d5A7E174A87721c527ED14c7Ce7cb515465607"
	],
	"solcInputHash": "e483f56f9c8b604abda4f81b54d06fea",
	"bytecode": "0x610100604052348015610010575f5ffd5b5060405161319c38038061319c83398101604081905261002f91610069565b6001600160a01b0390811660805291821660a05291811660c0521660e0526100c5565b6001600160a01b0381168114610066575f5ffd5b50565b5f5f5f5f6080858703121561007c575f5ffd5b845161008781610052565b602086015190945061009881610052565b60408601519093506100a981610052565b60608601519092506100ba81610052565b939692955090935050565b60805160a05160c05160e05161305e61013e5f395f81816101e701528181610457015281816106d4015261097c01525f81816101b40152818161027101528181610337015281816105dd015261088001525f818161024c0152610b2c01525f818161011d0152818161016b01526114d8015261305e5ff3fe608060405260043610610084575f3560e01c806388bc2ef31161005757806388bc2ef3146101a3578063abf8c5c8146101d6578063c04ae38f14610209578063c96c06541461021c578063f434c9141461023b575f5ffd5b8063150b7a0214610088578063334d3b16146100c5578063572b6c05146101015780637da0a8771461015d575b5f5ffd5b348015610093575f5ffd5b506100a76100a2366004611671565b61026e565b6040516001600160e01b031990911681526020015b60405180910390f35b3480156100d0575f5ffd5b506100e46100df366004611705565b610332565b604080519283526001600160a01b039091166020830152016100bc565b34801561010c575f5ffd5b5061014d61011b3660046117bd565b7f00000000000000000000000000000000000000000000000000000000000000006001600160a01b0390811691161490565b60405190151581526020016100bc565b348015610168575f5ffd5b507f00000000000000000000000000000000000000000000000000000000000000005b6040516001600160a01b0390911681526020016100bc565b3480156101ae575f5ffd5b5061018b7f000000000000000000000000000000000000000000000000000000000000000081565b3480156101e1575f5ffd5b5061018b7f000000000000000000000000000000000000000000000000000000000000000081565b6100e46102173660046117df565b6105d8565b348015610227575f5ffd5b506100e461023636600461186d565b610879565b348015610246575f5ffd5b5061018b7f000000000000000000000000000000000000000000000000000000000000000081565b5f7f00000000000000000000000000000000000000000000000000000000000000006001600160a01b031663293c49996040518163ffffffff1660e01b8152600401602060405180830381865afa1580156102cb573d5f5f3e3d5ffd5b505050506040513d601f19601f820116820180604052508101906102ef91906118e5565b6001600160a01b0316336001600160a01b031614158061031757506001600160a01b03851615155b15610320575f5ffd5b50630a85bd0160e11b95945050505050565b5f5f5f7f00000000000000000000000000000000000000000000000000000000000000006001600160a01b031663293c49996040518163ffffffff1660e01b8152600401602060405180830381865afa158015610391573d5f5f3e3d5ffd5b505050506040513d601f19601f820116820180604052508101906103b591906118e5565b6040516331a9108f60e11b8152600481018c90529091505f906001600160a01b03831690636352211e90602401602060405180830381865afa1580156103fd573d5f5f3e3d5ffd5b505050506040513d601f19601f8201168201806040525081019061042191906118e5565b905061042f818c6003610ac1565b61043b818c600f610ac1565b861561044d5761044d818c6007610ac1565b6001600160a01b037f000000000000000000000000000000000000000000000000000000000000000016636f6947868c8c88156104c35761048c610be0565b604080516001600160a01b03909216602083015281018a9052606001604051602081830303815290604052805190602001206104c5565b5f5b6040518463ffffffff1660e01b81526004016104e393929190611e0c565b6020604051808303815f875af11580156104ff573d5f5f3e3d5ffd5b505050506040513d601f19601f8201168201806040525081019061052391906118e5565b6040516351106b4b60e11b8152600481018d90529093506001600160a01b0384169063a220d696906024015f604051808303815f87803b158015610565575f5ffd5b505af1158015610577573d5f5f3e3d5ffd5b505050506105c88b8a6105899061283a565b8a8a8080601f0160208091040260200160405190810160405280939291908181526020018383808284375f920191909152508992508c9150610bee9050565b9350505097509795505050505050565b5f5f5f7f00000000000000000000000000000000000000000000000000000000000000006001600160a01b031663293c49996040518163ffffffff1660e01b8152600401602060405180830381865afa158015610637573d5f5f3e3d5ffd5b505050506040513d601f19601f8201168201806040525081019061065b91906118e5565b60405163180e2b1160e31b81523060048201529091506001600160a01b0382169063c071588890349060240160206040518083038185885af11580156106a3573d5f5f3e3d5ffd5b50505050506040513d601f19601f820116820180604052508101906106c891906128e1565b92506001600160a01b037f000000000000000000000000000000000000000000000000000000000000000016636f6947868489871561074057610709610be0565b604080516001600160a01b039092166020830152810189905260600160405160208183030381529060405280519060200120610742565b5f5b6040518463ffffffff1660e01b815260040161076093929190611e0c565b6020604051808303815f875af115801561077c573d5f5f3e3d5ffd5b505050506040513d601f19601f820116820180604052508101906107a091906118e5565b91506107b6836107af886128f8565b8488610ee7565b6040516351106b4b60e11b8152600481018490526001600160a01b0383169063a220d696906024015f604051808303815f87803b1580156107f5575f5ffd5b505af1158015610807573d5f5f3e3d5ffd5b5050604051632142170760e11b81523060048201526001600160a01b038b8116602483015260448201879052841692506342842e0e91506064015f604051808303815f87803b158015610858575f5ffd5b505af115801561086a573d5f5f3e3d5ffd5b50505050509550959350505050565b5f5f6109727f00000000000000000000000000000000000000000000000000000000000000006001600160a01b031663293c49996040518163ffffffff1660e01b8152600401602060405180830381865afa1580156108da573d5f5f3e3d5ffd5b505050506040513d601f19601f820116820180604052508101906108fe91906118e5565b6001600160a01b0316636352211e896040518263ffffffff1660e01b815260040161092b91815260200190565b602060405180830381865afa158015610946573d5f5f3e3d5ffd5b505050506040513d601f19601f8201168201806040525081019061096a91906118e5565b886002610ac1565b6001600160a01b037f000000000000000000000000000000000000000000000000000000000000000016636f694786888886156109e8576109b1610be0565b604080516001600160a01b0390921660208301528101889052606001604051602081830303815290604052805190602001206109ea565b5f5b6040518463ffffffff1660e01b8152600401610a0893929190611e0c565b6020604051808303815f875af1158015610a24573d5f5f3e3d5ffd5b505050506040513d601f19601f82011682018060405250810190610a4891906118e5565b6040516351106b4b60e11b8152600481018990529091506001600160a01b0382169063a220d696906024015f604051808303815f87803b158015610a8a575f5ffd5b505af1158015610a9c573d5f5f3e3d5ffd5b50505050610ab58786610aae9061294c565b83876111d9565b91509550959350505050565b5f610aca610be0565b9050836001600160a01b0316816001600160a01b031614158015610b975750604051631a45b42760e11b81526001600160a01b0382811660048301528581166024830152604482018590526064820184905260016084830181905260a48301527f0000000000000000000000000000000000000000000000000000000000000000169063348b684e9060c401602060405180830381865afa158015610b71573d5f5f3e3d5ffd5b505050506040513d601f19601f82011682018060405250810190610b9591906129c9565b155b15610bda57604051631326f75560e11b81526001600160a01b03808616600483015282166024820152604481018490526064810183905260840160405180910390fd5b50505050565b5f610be96114c7565b905090565b5f5f8560200151516001600160401b03811115610c0d57610c0d611f18565b604051908082528060200260200182016040528015610c4657816020015b610c33611531565b815260200190600190039081610c2b5790505b5090505f5b866020015151811015610e5d575f87602001518281518110610c6f57610c6f6129e4565b60200260200101519050604051806101000160405280825f015165ffffffffffff168152602001826020015163ffffffff16815260200182604001516001600160701b03168152602001826060015163ffffffff16815260200182608001516001600160a01b031681526020016040518061026001604052808460a001515f015161ffff1681526020018460a001516020015161ffff1681526020018460a001516040015163ffffffff1681526020018460a0015160600151151581526020018460a0015160800151151581526020018460a0015160a00151151581526020018460a0015160c00151151581526020018460a0015160e00151151581526020018460a001516101000151151581526020018460a001516101200151151581526020018460a001516101400151151581526020018460a001516101600151151581526020018460a001516101800151151581526020018460a001516101a00151151581526020018460a001516101c00151151581526020016001151581526020018460a001516101e0015115158152602001896001600160a01b031681526020018460a00151610200015161ffff1681525081526020018260c0015181526020018260e00151815250838381518110610e4957610e496129e4565b602090810291909101015250600101610c4b565b50604080870151606088015191516307128b6b60e31b81525f926001600160a01b038716926338945b5892610e9b928d928c92899290600401612e9c565b6020604051808303815f875af1158015610eb7573d5f5f3e3d5ffd5b505050506040513d601f19601f82011682018060405250810190610edb91906128e1565b98975050505050505050565b5f8360200151516001600160401b03811115610f0557610f05611f18565b604051908082528060200260200182016040528015610f3e57816020015b610f2b611531565b815260200190600190039081610f235790505b5090505f5b846020015151811015611155575f85602001518281518110610f6757610f676129e4565b60200260200101519050604051806101000160405280825f015165ffffffffffff168152602001826020015163ffffffff16815260200182604001516001600160701b03168152602001826060015163ffffffff16815260200182608001516001600160a01b031681526020016040518061026001604052808460a001515f015161ffff1681526020018460a001516020015161ffff1681526020018460a001516040015163ffffffff1681526020018460a0015160600151151581526020018460a0015160800151151581526020018460a0015160a00151151581526020018460a0015160c00151151581526020018460a0015160e00151151581526020018460a001516101000151151581526020018460a001516101200151151581526020018460a001516101400151151581526020018460a001516101600151151581526020018460a001516101800151151581526020018460a001516101a00151151581526020018460a001516101c00151151581526020016001151581526020018460a001516101e0015115158152602001886001600160a01b031681526020018460a00151610200015161ffff1681525081526020018260c0015181526020018260e00151815250838381518110611141576111416129e4565b602090810291909101015250600101610f43565b508351604080860151606087015191516307128b6b60e31b81526001600160a01b038616936338945b5893611191938b93889290600401612e9c565b6020604051808303815f875af11580156111ad573d5f5f3e3d5ffd5b505050506040513d601f19601f820116820180604052508101906111d191906128e1565b505050505050565b5f5f8460200151516001600160401b038111156111f8576111f8611f18565b60405190808252806020026020018201604052801561123157816020015b61121e611531565b8152602001906001900390816112165790505b5090505f5b856020015151811015611448575f8660200151828151811061125a5761125a6129e4565b60200260200101519050604051806101000160405280825f015165ffffffffffff168152602001826020015163ffffffff16815260200182604001516001600160701b03168152602001826060015163ffffffff16815260200182608001516001600160a01b031681526020016040518061026001604052808460a001515f015161ffff1681526020018460a001516020015161ffff1681526020018460a001516040015163ffffffff1681526020018460a0015160600151151581526020018460a0015160800151151581526020018460a0015160a00151151581526020018460a0015160c00151151581526020018460a0015160e00151151581526020018460a001516101000151151581526020018460a001516101200151151581526020018460a001516101400151151581526020018460a001516101600151151581526020018460a001516101800151151581526020018460a001516101a00151151581526020018460a001516101c00151151581526020016001151581526020018460a001516101e0015115158152602001896001600160a01b031681526020018460a00151610200015161ffff1681525081526020018260c0015181526020018260e00151815250838381518110611434576114346129e4565b602090810291909101015250600101611236565b5060408086015190516303141db760e41b81526001600160a01b03851691633141db709161147d918a91869190600401612fb3565b6020604051808303815f875af1158015611499573d5f5f3e3d5ffd5b505050506040513d601f19601f820116820180604052508101906114bd91906128e1565b9695505050505050565b5f36601480821080159061150357507f00000000000000000000000000000000000000000000000000000000000000006001600160a01b031633145b156115295761151636828403815f612fdd565b61151f91613004565b60601c9250505090565b339250505090565b6040805161010080820183525f808352602080840182905283850182905260608085018390526080808601849052865161026081018852848152928301849052958201839052810182905293840181905260a084810182905260c0850182905260e0850182905291840181905261012084018190526101408401819052610160840181905261018084018190526101a084018190526101c084018190526101e0840181905261020084018190526102208401819052610240840152909190820190815260200160608152602001606081525090565b6001600160a01b038116811461161a575f5ffd5b50565b803561162881611606565b919050565b5f5f83601f84011261163d575f5ffd5b5081356001600160401b03811115611653575f5ffd5b60208301915083602082850101111561166a575f5ffd5b9250929050565b5f5f5f5f5f60808688031215611685575f5ffd5b853561169081611606565b945060208601356116a081611606565b93506040860135925060608601356001600160401b038111156116c1575f5ffd5b6116cd8882890161162d565b969995985093965092949392505050565b5f61016082840312156116ef575f5ffd5b50919050565b5f608082840312156116ef575f5ffd5b5f5f5f5f5f5f5f60c0888a03121561171b575f5ffd5b8735965060208801356001600160401b03811115611737575f5ffd5b6117438a828b016116de565b96505060408801356001600160401b0381111561175e575f5ffd5b61176a8a828b016116f5565b95505060608801356001600160401b03811115611785575f5ffd5b6117918a828b0161162d565b90955093505060808801356117a581611606565b96999598509396929591949193505060a09091013590565b5f602082840312156117cd575f5ffd5b81356117d881611606565b9392505050565b5f5f5f5f5f60a086880312156117f3575f5ffd5b85356117fe81611606565b945060208601356001600160401b03811115611818575f5ffd5b611824888289016116de565b94505060408601356001600160401b0381111561183f575f5ffd5b61184b888289016116f5565b935050606086013561185c81611606565b949793965091946080013592915050565b5f5f5f5f5f60a08688031215611881575f5ffd5b8535945060208601356001600160401b0381111561189d575f5ffd5b6118a9888289016116de565b94505060408601356001600160401b038111156118c4575f5ffd5b8601606081890312156118d5575f5ffd5b9250606086013561185c81611606565b5f602082840312156118f5575f5ffd5b81516117d881611606565b5f5f8335601e19843603018112611915575f5ffd5b83016020810192503590506001600160401b03811115611933575f5ffd5b80360382131561166a575f5ffd5b81835281816020850137505f828201602090810191909152601f909101601f19169091010190565b5f8235605e1983360301811261197d575f5ffd5b90910192915050565b80356cffffffffffffffffffffffffff81168114611628575f5ffd5b803563ffffffff81168114611628575f5ffd5b803561ffff81168114611628575f5ffd5b803562ffffff81168114611628575f5ffd5b803560ff81168114611628575f5ffd5b801515811461161a575f5ffd5b8035611628816119e8565b8035611a0b816119e8565b151582526020810135611a1d816119e8565b151560208301526040810135611a32816119e8565b15156040830152611a45606082016119f5565b15156060830152611a58608082016119f5565b15156080830152611a6b60a082016119f5565b151560a0830152611a7e60c082016119f5565b80151560c0840152505050565b505050565b5f5f8335601e19843603018112611aa5575f5ffd5b83016020810192503590506001600160401b03811115611ac3575f5ffd5b60c08102360382131561166a575f5ffd5b80356001600160401b0381168114611628575f5ffd5b803565ffffffffffff81168114611628575f5ffd5b8183526020830192505f815f5b84811015611bb65763ffffffff611b22836119a2565b1686526001600160401b03611b3960208401611ad4565b1660208701526040820135611b4d81611606565b6001600160a01b031660408701526060820135611b69816119e8565b1515606087015265ffffffffffff611b8360808401611aea565b166080870152611b9560a0830161161d565b6001600160a01b031660a087015260c0958601959190910190600101611b0c565b5093949350505050565b5f606083018235601e19843603018112611bd8575f5ffd5b83018035602082016001600160401b03821115611bf3575f5ffd5b8160051b803603821315611c05575f5ffd5b606088529382905260809387018401935f90880161023e1936869003015b84831015611d6957898703607f190182528335818112611c41575f5ffd5b860160208101611c6789611c5483611986565b6cffffffffffffffffffffffffff169052565b611c73604083016119a2565b63ffffffff1660208a0152611c8a606083016119a2565b63ffffffff1660408a0152611ca1608083016119b5565b61ffff1660608a0152611cb660a0830161161d565b6001600160a01b031660808a015260c082013560a08a0152611cda60e083016119c6565b62ffffff1660c08a0152611cf161010083016119d8565b60ff1660e08a0152611d0b6101008a016101208401611a00565b611d1861020083016119a2565b63ffffffff166101e08a0152611d32610220830182611a90565b925090506102206102008a0152611d4e6102208a018383611aff565b98505050602084019350602082019150600183019250611c23565b505050505050611d7b602084016119a2565b63ffffffff166020850152611d92604084016119d8565b60ff81166040860152509392505050565b8035611dae816119e8565b151582526020810135611dc0816119e8565b151560208301526040810135611dd5816119e8565b151560408301526060810135611dea816119e8565b151560608301526080810135611dff816119e8565b8015156080840152505050565b838152606060208201525f611e218485611900565b6101606060850152611e386101c085018284611941565b915050611e486020860186611900565b848303605f19016080860152611e5f838284611941565b92505050611e706040860186611900565b848303605f190160a0860152611e87838284611941565b925050506060850135611e9981611606565b6001600160a01b031660c0840152611eb46080860186611900565b848303605f190160e0860152611ecb838284611941565b92505050611edc60a0860186611969565b838203605f1901610100850152611ef38282611bc0565b915050611f07610120840160c08701611da3565b604092909201929092529392505050565b634e487b7160e01b5f52604160045260245ffd5b60405161022081016001600160401b0381118282101715611f4f57611f4f611f18565b60405290565b604080519081016001600160401b0381118282101715611f4f57611f4f611f18565b60405160c081016001600160401b0381118282101715611f4f57611f4f611f18565b604051608081016001600160401b0381118282101715611f4f57611f4f611f18565b60405161010081016001600160401b0381118282101715611f4f57611f4f611f18565b604051606081016001600160401b0381118282101715611f4f57611f4f611f18565b604051601f8201601f191681016001600160401b038111828210171561202857612028611f18565b604052919050565b5f6001600160401b0382111561204857612048611f18565b5060051b60200190565b80356001600160701b0381168114611628575f5ffd5b5f6102208284031215612079575f5ffd5b612081611f2c565b905061208c826119b5565b815261209a602083016119b5565b60208201526120ab604083016119a2565b60408201526120bc606083016119f5565b60608201526120cd608083016119f5565b60808201526120de60a083016119f5565b60a08201526120ef60c083016119f5565b60c082015261210060e083016119f5565b60e082015261211261010083016119f5565b61010082015261212561012083016119f5565b61012082015261213861014083016119f5565b61014082015261214b61016083016119f5565b61016082015261215e61018083016119f5565b6101808201526121716101a083016119f5565b6101a08201526121846101c083016119f5565b6101c08201526121976101e083016119f5565b6101e08201526121aa61020083016119b5565b61020082015292915050565b5f82601f8301126121c5575f5ffd5b81356121d86121d382612030565b612000565b8082825260208201915060208360051b8601019250858311156121f9575f5ffd5b602085015b8381101561235c5780356001600160401b0381111561221b575f5ffd5b86016040818903601f19011215612230575f5ffd5b612238611f55565b6020820135815260408201356001600160401b03811115612257575f5ffd5b60208184010192505088601f83011261226e575f5ffd5b813561227c6121d382612030565b80828252602082019150602060c0840286010192508b83111561229d575f5ffd5b6020850194505b8285101561233d5760c0858d0312156122bb575f5ffd5b6122c3611f77565b6122cc866119a2565b81526122da60208701611ad4565b602082015260408601356122ed81611606565b60408201526060860135612300816119e8565b606082015261231160808701611aea565b608082015260a086013561232481611606565b60a0820152825260c094909401936020909101906122a4565b80602085015250505080855250506020830192506020810190506121fe565b5095945050505050565b5f82601f830112612375575f5ffd5b81356123836121d382612030565b8082825260208201915060208360061b8601019250858311156123a4575f5ffd5b602085015b8381101561235c57604081880312156123c0575f5ffd5b6123c8611f55565b81356001600160e01b03811681146123de575f5ffd5b81526123ec602083016119a2565b6020820152808452506020830192506040810190506123a9565b5f82601f830112612415575f5ffd5b81356124236121d382612030565b8082825260208201915060208360051b860101925085831115612444575f5ffd5b602085015b8381101561235c5780356001600160401b03811115612466575f5ffd5b86016080818903601f1901121561247b575f5ffd5b612483611f99565b602082013561249181611606565b815260408201356124a181611606565b602082015260608201356001600160401b038111156124be575f5ffd5b6124cd8a602083860101612366565b60408301525060808201356001600160401b038111156124eb575f5ffd5b6124fa8a602083860101612366565b60608301525084525060209283019201612449565b5f82601f83011261251e575f5ffd5b813561252c6121d382612030565b8082825260208201915060208360051b86010192508583111561254d575f5ffd5b602085015b8381101561235c5780356001600160401b0381111561256f575f5ffd5b8601610300818903601f19011215612585575f5ffd5b61258d611fbb565b61259960208301611aea565b81526125a7604083016119a2565b60208201526125b860608301612052565b60408201526125c9608083016119a2565b60608201526125da60a0830161161d565b60808201526125ec8960c08401612068565b60a08201526102e08201356001600160401b0381111561260a575f5ffd5b6126198a6020838601016121b6565b60c0830152506103008201356001600160401b03811115612638575f5ffd5b6126478a602083860101612406565b60e08301525084525060209283019201612552565b5f82601f83011261266b575f5ffd5b81356126796121d382612030565b8082825260208201915060208360051b86010192508583111561269a575f5ffd5b602085015b8381101561235c5780356001600160401b038111156126bc575f5ffd5b86016040818903601f190112156126d1575f5ffd5b6126d9611f55565b60208201356126e781611606565b815260408201356001600160401b03811115612701575f5ffd5b60208184010192505088601f830112612718575f5ffd5b81356127266121d382612030565b8082825260208201915060206060840286010192508b831115612747575f5ffd5b6020850194505b828510156127b0576060858d031215612765575f5ffd5b61276d611fde565b853561277881611606565b8152612786602087016119d8565b6020820152612797604087016119a2565b604082015282526060949094019360209091019061274e565b806020850152505050808552505060208301925060208101905061269f565b5f82601f8301126127de575f5ffd5b81356001600160401b038111156127f7576127f7611f18565b61280a601f8201601f1916602001612000565b81815284602083860101111561281e575f5ffd5b816020850160208301375f918101602001919091529392505050565b5f6080823603121561284a575f5ffd5b612852611f99565b61285b83611ad4565b815260208301356001600160401b03811115612875575f5ffd5b6128813682860161250f565b60208301525060408301356001600160401b0381111561289f575f5ffd5b6128ab3682860161265c565b60408301525060608301356001600160401b038111156128c9575f5ffd5b6128d5368286016127cf565b60608301525092915050565b5f602082840312156128f1575f5ffd5b5051919050565b5f60808236031215612908575f5ffd5b612910611f99565b82356001600160401b03811115612925575f5ffd5b612931368286016127cf565b82525060208301356001600160401b03811115612875575f5ffd5b5f6060823603121561295c575f5ffd5b612964611fde565b61296d83611ad4565b815260208301356001600160401b03811115612987575f5ffd5b6129933682860161250f565b60208301525060408301356001600160401b038111156129b1575f5ffd5b6129bd368286016127cf565b60408301525092915050565b5f602082840312156129d9575f5ffd5b81516117d8816119e8565b634e487b7160e01b5f52603260045260245ffd5b5f81518084528060208401602086015e5f602082860101526020601f19601f83011685010191505092915050565b805161ffff1682526020810151612a43602084018261ffff169052565b506040810151612a5b604084018263ffffffff169052565b506060810151612a6f606084018215159052565b506080810151612a83608084018215159052565b5060a0810151612a9760a084018215159052565b5060c0810151612aab60c084018215159052565b5060e0810151612abf60e084018215159052565b50610100810151612ad561010084018215159052565b50610120810151612aeb61012084018215159052565b50610140810151612b0161014084018215159052565b50610160810151612b1761016084018215159052565b50610180810151612b2d61018084018215159052565b506101a0810151612b436101a084018215159052565b506101c0810151612b596101c084018215159052565b506101e0810151612b6f6101e084018215159052565b50610200810151612b8561020084018215159052565b50610220810151612ba26102208401826001600160a01b03169052565b50610240810151611a8b61024084018261ffff169052565b5f82825180855260208501945060208160051b830101602085015f5b83811015612ca857848303601f19018852815180518452602090810151604082860181905281519086018190529101905f9060608601905b80831015612c8f57835163ffffffff81511683526001600160401b03602082015116602084015260018060a01b03604082015116604084015260608101511515606084015265ffffffffffff608082015116608084015260018060a01b0360a08201511660a08401525060c082019150602084019350600183019250612c0e565b5060209a8b019a90955093909301925050600101612bd6565b50909695505050505050565b5f8151808452602084019350602083015f5b82811015611bb657815180516001600160e01b0316875260209081015163ffffffff168188015260409096019590910190600101612cc6565b5f82825180855260208501945060208160051b830101602085015f5b83811015612ca857848303601f19018852815180516001600160a01b03908116855260208083015190911690850152604080820151608091860182905290612d6590860182612cb4565b9050606082015191508481036060860152612d808183612cb4565b60209a8b019a90955093909301925050600101612d1b565b5f82825180855260208501945060208160051b830101602085015f5b83811015612ca857848303601f190188528151805165ffffffffffff1684526020810151612dea602086018263ffffffff169052565b506040810151612e0560408601826001600160701b03169052565b506060810151612e1d606086018263ffffffff169052565b506080810151612e3860808601826001600160a01b03169052565b5060a0810151612e4b60a0860182612a26565b5060c0810151610340610300860152612e68610340860182612bba565b905060e08201519150848103610320860152612e848183612cff565b60209a8b019a90955093909301925050600101612db4565b85815260a060208201525f612eb460a08301876129f8565b8281036040840152612ec68187612d98565b9050828103606084015280855180835260208301915060208160051b840101602088015f5b83811015612f9057858303601f19018552815180516001600160a01b03168452602090810151604082860181905281519086018190529101905f9060608601905b80831015612f7757835160018060a01b03815116835260ff602082015116602084015263ffffffff604082015116604084015250606082019150602084019350600183019250612f2c565b5060209788019790955093909301925050600101612eeb565b50508581036080870152612fa481886129f8565b9b9a5050505050505050505050565b838152606060208201525f612fcb6060830185612d98565b82810360408401526114bd81856129f8565b5f5f85851115612feb575f5ffd5b83861115612ff7575f5ffd5b5050820193919092039150565b80356bffffffffffffffffffffffff19811690601484101561304a576bffffffffffffffffffffffff196bffffffffffffffffffffffff198560140360031b1b82161691505b509291505056fea164736f6c634300081c000a",
	"gitCommit": "npm:@bananapus/721-hook-v6@0.0.69",
	"gitDirty": false,
	"history": []
}