{
	"format": "sphinx-sol-ct-artifact-1",
	"address": "0xfc679ee1a49b7265260fbef906dbe36e341b3f82",
	"sourceName": "node_modules/@bananapus/721-hook-v6/src/JB721CheckpointsDeployer.sol",
	"contractName": "JB721CheckpointsDeployer",
	"chainId": "0x14a34",
	"abi": [
		{
			"type": "constructor",
			"inputs": [
				{
					"name": "store",
					"type": "address",
					"internalType": "contract IJB721TiersHookStore"
				}
			],
			"stateMutability": "nonpayable"
		},
		{
			"type": "function",
			"name": "IMPLEMENTATION",
			"inputs": [],
			"outputs": [
				{
					"name": "",
					"type": "address",
					"internalType": "address"
				}
			],
			"stateMutability": "view"
		},
		{
			"type": "function",
			"name": "STORE",
			"inputs": [],
			"outputs": [
				{
					"name": "",
					"type": "address",
					"internalType": "contract IJB721TiersHookStore"
				}
			],
			"stateMutability": "view"
		},
		{
			"type": "function",
			"name": "deploy",
			"inputs": [
				{
					"name": "hook",
					"type": "address",
					"internalType": "address"
				}
			],
			"outputs": [
				{
					"name": "module",
					"type": "address",
					"internalType": "contract IJB721Checkpoints"
				}
			],
			"stateMutability": "nonpayable"
		},
		{
			"type": "error",
			"name": "JB721CheckpointsDeployer_Unauthorized",
			"inputs": [
				{
					"name": "caller",
					"type": "address",
					"internalType": "address"
				},
				{
					"name": "hook",
					"type": "address",
					"internalType": "address"
				}
			]
		}
	],
	"args": [
		"0x0f9b0985f839C2d1c8c023b8251F8abCB6b4EEb6"
	],
	"solcInputHash": "d376f161cd0c7da02c0070c5554601d7",
	"bytecode": "0x60c060405234801561000f575f5ffd5b5060405161254038038061254083398101604081905261002e91610092565b6001600160a01b03811660a052604051819061004990610085565b6001600160a01b039091168152602001604051809103905ff080158015610072573d5f5f3e3d5ffd5b506001600160a01b0316608052506100bf565b6122318061030f83390190565b5f602082840312156100a2575f5ffd5b81516001600160a01b03811681146100b8575f5ffd5b9392505050565b60805160a05161022a6100e55f395f609e01525f818160480152610104015261022a5ff3fe608060405234801561000f575f5ffd5b506004361061003f575f3560e01c80633a4741bd146100435780634c96a38914610086578063507f146514610099575b5f5ffd5b61006a7f000000000000000000000000000000000000000000000000000000000000000081565b6040516001600160a01b03909116815260200160405180910390f35b61006a6100943660046101f7565b6100c0565b61006a7f000000000000000000000000000000000000000000000000000000000000000081565b5f336001600160a01b038316146100ff576040516312588bb560e11b81523360048201526001600160a01b038316602482015260440160405180910390fd5b6101327f00000000000000000000000000000000000000000000000000000000000000006001600160a01b038416610191565b60405163189acdbd60e31b81526001600160a01b0384811660048301529192509082169063c4d66de8906024015f604051808303815f87803b158015610176575f5ffd5b505af1158015610188573d5f5f3e3d5ffd5b50505050919050565b5f61019d5f84846101a4565b9392505050565b5f6c5af43d3d93803e602a57fd5bf36021528260145273602c3d8160093d39f33d3d3d3d363d3d37363d735f52816035600c86f59050806101ec5763301164255f526004601cfd5b5f6021529392505050565b5f60208284031215610207575f5ffd5b81356001600160a01b038116811461019d575f5ffdfea164736f6c634300081c000a610180604052348015610010575f5ffd5b5060405161223138038061223183398101604081905261002f916101ba565b604080518082018252601081526f4a42373231436865636b706f696e747360801b602080830191909152825180840190935260018352603160f81b9083015290610079825f610142565b61012052610088816001610142565b61014052815160208084019190912060e052815190820120610100524660a05261011460e05161010051604080517f8b73c3c69bb8fe3d512ecc4cf759cc79239f7b179b0ffacaa9a75d522b39400f60208201529081019290925260608201524660808201523060a08201525f9060c00160405160208183030381529060405280519060200120905090565b60805250503060c0526001600160a01b031661016052600680546001600160a01b0319166001179055610391565b5f60208351101561015d5761015683610174565b905061016e565b81610168848261027f565b5060ff90505b92915050565b5f5f829050601f815111156101a7578260405163305a27a960e01b815260040161019e9190610339565b60405180910390fd5b80516101b28261036e565b179392505050565b5f602082840312156101ca575f5ffd5b81516001600160a01b03811681146101e0575f5ffd5b9392505050565b634e487b7160e01b5f52604160045260245ffd5b600181811c9082168061020f57607f821691505b60208210810361022d57634e487b7160e01b5f52602260045260245ffd5b50919050565b601f82111561027a57805f5260205f20601f840160051c810160208510156102585750805b601f840160051c820191505b81811015610277575f8155600101610264565b50505b505050565b81516001600160401b03811115610298576102986101e7565b6102ac816102a684546101fb565b84610233565b6020601f8211600181146102de575f83156102c75750848201515b5f19600385901b1c1916600184901b178455610277565b5f84815260208120601f198516915b8281101561030d57878501518255602094850194600190920191016102ed565b508482101561032a57868401515f19600387901b60f8161c191681555b50505050600190811b01905550565b602081525f82518060208401528060208501604085015e5f604082850101526040601f19601f83011684010191505092915050565b8051602080830151919081101561022d575f1960209190910360031b1b16919050565b60805160a05160c05160e05161010051610120516101405161016051611e1b6104165f395f818161018a015281816103ec015281816104bb01528181610557015281816107830152818161081d01526114ee01525f610e2b01525f610dff01525f6116d901525f6116b101525f61160c01525f61163601525f6116600152611e1b5ff3fe608060405234801561000f575f5ffd5b5060043610610106575f3560e01c80637ecebe001161009e57806391ddadf41161006e57806391ddadf4146102665780639ab24eb014610285578063a875a4b114610298578063c3cda520146102ab578063c4d66de8146102be575f5ffd5b80637ecebe00146101fd5780637f5a7c7b1461022557806384b0196e146102385780638e539e8c14610253575f5ffd5b8063507f1465116100d9578063507f146514610185578063587cde1e146101ac5780635c19a95c146101d7578063613aac1b146101ea575f5ffd5b80633056210b1461010a5780633a46b1a81461013a5780634a3931491461015b5780634bf5d7e914610170575b5f5ffd5b61011d610118366004611a69565b6102d1565b6040516001600160a01b0390911681526020015b60405180910390f35b61014d610148366004611aa0565b610342565b604051908152602001610131565b61016e610169366004611aca565b61037c565b005b6101786105e4565b6040516101319190611b36565b61011d7f000000000000000000000000000000000000000000000000000000000000000081565b61011d6101ba366004611b48565b6001600160a01b039081165f908152600360205260409020541690565b61016e6101e5366004611b48565b61065c565b61016e6101f8366004611b63565b61066b565b61014d61020b366004611b48565b6001600160a01b03165f9081526002602052604090205490565b60065461011d906001600160a01b031681565b610240610898565b6040516101319796959493929190611be6565b61014d610261366004611c7c565b6108da565b61026e6108fe565b60405165ffffffffffff9091168152602001610131565b61014d610293366004611b48565b61090c565b61014d6102a6366004611a69565b61092c565b61016e6102b9366004611c93565b610964565b61016e6102cc366004611b48565b610a20565b5f8281526007602052604081208290826102e9825490565b9050805f036102fd575f935050505061033c565b6001600160601b038316610311835f610a7b565b516001600160601b0316111561032c575f935050505061033c565b6103368284610ae9565b93505050505b92915050565b5f61036c61034f83610b9a565b6001600160a01b0385165f90815260046020526040902090610bef565b6001600160d01b03169392505050565b6006546001600160a01b031633146103c1576006546040516353dc27d960e01b81523360048201526001600160a01b0390911660248201526044015b60405180910390fd5b600654604051633db8514960e11b81526001600160a01b039182166004820152602481018390525f917f00000000000000000000000000000000000000000000000000000000000000001690637b70a29290604401602060405180830381865afa158015610431573d5f5f3e3d5ffd5b505050506040513d601f19601f820116820180604052508101906104559190611cf0565b90506001600160a01b038416156105d3575f8281526007602052604081209061047c825490565b1515905061048b824387610c85565b50506001600160a01b038516610538578015610533576040516342f9914b60e01b815260048101859052610533907f00000000000000000000000000000000000000000000000000000000000000006001600160a01b0316906342f9914b90602401602060405180830381865afa158015610508573d5f5f3e3d5ffd5b505050506040513d601f19601f8201168201806040525081019061052c9190611cf0565b845f610c9f565b6105d0565b806105d0576040516342f9914b60e01b8152600481018590526105d0907f00000000000000000000000000000000000000000000000000000000000000006001600160a01b0316906342f9914b90602401602060405180830381865afa1580156105a4573d5f5f3e3d5ffd5b505050506040513d601f19601f820116820180604052508101906105c89190611cf0565b846001610c9f565b50505b6105de848483610cfe565b50505050565b60606105ee610d7d565b65ffffffffffff166105fe6108fe565b65ffffffffffff1614610624576040516301bfc1c560e61b815260040160405180910390fd5b5060408051808201909152601d81527f6d6f64653d626c6f636b6e756d6265722666726f6d3d64656661756c74000000602082015290565b336106678183610d87565b5050565b6106753384610d87565b5f5b818110156105de575f83838381811061069257610692611d07565b6006546040516331a9108f60e11b8152602092909202939093013560048201819052935033926001600160a01b03169150636352211e90602401602060405180830381865afa1580156106e7573d5f5f3e3d5ffd5b505050506040513d601f19601f8201168201806040525081019061070b9190611d1b565b6001600160a01b03161461073b576040516352017fa760e11b8152600481018290523360248201526044016103b8565b5f818152600760205260409020545f0361088f575f818152600760205260409020610767904333610c85565b50506040516342f9914b60e01b81526004810182905261088f907f00000000000000000000000000000000000000000000000000000000000000006001600160a01b0316906342f9914b90602401602060405180830381865afa1580156107d0573d5f5f3e3d5ffd5b505050506040513d601f19601f820116820180604052508101906107f49190611cf0565b600654604051633db8514960e11b81526001600160a01b039182166004820152602481018590527f000000000000000000000000000000000000000000000000000000000000000090911690637b70a29290604401602060405180830381865afa158015610864573d5f5f3e3d5ffd5b505050506040513d601f19601f820116820180604052508101906108889190611cf0565b6001610c9f565b50600101610677565b5f6060805f5f5f60606108a9610df8565b6108b1610e24565b604080515f80825260208201909252600f60f81b9b939a50919850469750309650945092509050565b5f6108ef6108e783610b9a565b600590610bef565b6001600160d01b031692915050565b5f610907610d7d565b905090565b6001600160a01b0381165f9081526004602052604081206108ef90610e51565b5f61095461093983610b9a565b5f8581526008602052604090209065ffffffffffff16610ae9565b6001600160a01b03169392505050565b8342111561098857604051632341d78760e11b8152600481018590526024016103b8565b604080517fe48329057bfd03d55e49b547132e39cffd9c1820ad7b9d4c5307691425d15adf60208201526001600160a01b0388169181019190915260608101869052608081018590525f90610a01906109f99060a00160405160208183030381529060405280519060200120610e88565b858585610eb4565b9050610a0d8187610ee0565b610a178188610d87565b50505050505050565b6006546001600160a01b031615610a59576006546040516301d2d00760e61b81526001600160a01b0390911660048201526024016103b8565b600680546001600160a01b0319166001600160a01b0392909216919091179055565b604080518082019091525f8082526020820152825f018263ffffffff1681548110610aa857610aa8611d07565b5f918252602091829020604080518082019091529101546001600160601b0381168252600160601b90046001600160a01b0316918101919091529392505050565b81545f9081816005811115610b46575f610b0284610f32565b610b0c9085611d4a565b5f888152602090209091508101546001600160601b039081169087161015610b3657809150610b44565b610b41816001611d5d565b92505b505b5f610b538787858561108a565b90508015610b8d57610b7787610b6a600184611d4a565b5f91825260209091200190565b54600160601b90046001600160a01b0316610b8f565b5f5b979650505050505050565b5f5f610ba46108fe565b90508065ffffffffffff168310610bdf57604051637669fc0f60e11b81526004810184905265ffffffffffff821660248201526044016103b8565b610be8836110e1565b9392505050565b81545f9081816005811115610c4b575f610c0884610f32565b610c129085611d4a565b5f8881526020902090915081015465ffffffffffff9081169087161015610c3b57809150610c49565b610c46816001611d5d565b92505b505b5f610c5887878585611117565b90508015610b8d57610c6f87610b6a600184611d4a565b54600160301b90046001600160d01b0316610b8f565b5f80610c92858585611165565b915091505b935093915050565b5f8381526008602052604081209082610cd45783610cbc836112bb565b6001600160a01b0316610ccf9190611d4a565b610cf1565b83610cde836112bb565b6001600160a01b0316610cf19190611d5d565b9050610a17824383610c85565b6001600160a01b038316610d2557610d2260056112ea610d1d846112f5565b611328565b50505b6001600160a01b038216610d4757610d446005611353610d1d846112f5565b50505b6001600160a01b038381165f90815260036020526040808220548584168352912054610d789291821691168361135e565b505050565b5f610907436110e1565b6001600160a01b038281165f8181526003602052604080822080548686166001600160a01b0319821681179092559151919094169392849290917f3134e8a2e6d97e929a7e54011ea5485d7d196dd5f0ba4d4ef95803e8e3fc257f9190a4610d788183610df3866114c2565b61135e565b60606109077f00000000000000000000000000000000000000000000000000000000000000005f611557565b60606109077f00000000000000000000000000000000000000000000000000000000000000006001611557565b80545f908015610e8057610e6a83610b6a600184611d4a565b54600160301b90046001600160d01b0316610be8565b5f9392505050565b5f61033c610e94611600565b8360405161190160f01b8152600281019290925260228201526042902090565b5f5f5f5f610ec488888888611729565b925092509250610ed482826117f1565b50909695505050505050565b6001600160a01b0382165f908152600260205260409020805460018101909155818114610d78576040516301d4b62360e61b81526001600160a01b0384166004820152602481018290526044016103b8565b5f60018211610f3f575090565b816001600160801b8210610f585760809190911c9060401b5b680100000000000000008210610f735760409190911c9060201b5b6401000000008210610f8a5760209190911c9060101b5b620100008210610f9f5760109190911c9060081b5b6101008210610fb35760089190911c9060041b5b60108210610fc65760049190911c9060021b5b60048210610fd25760011b5b600302600190811c90818581610fea57610fea611d70565b048201901c9050600181858161100257611002611d70565b048201901c9050600181858161101a5761101a611d70565b048201901c9050600181858161103257611032611d70565b048201901c9050600181858161104a5761104a611d70565b048201901c9050600181858161106257611062611d70565b048201901c905061108181858161107b5761107b611d70565b04821190565b90039392505050565b5f5b818310156110d9575f8581526020902083831660028585180401908101546001600160601b03868116911611156110c5578092506110d3565b6110d0816001611d5d565b93505b5061108c565b509392505050565b5f65ffffffffffff821115611113576040516306dfcc6560e41b815260306004820152602481018390526044016103b8565b5090565b5f5b818310156110d9575f85815260209020838316600285851804019081015465ffffffffffff868116911611156111515780925061115f565b61115c816001611d5d565b93505b50611119565b82545f9081908015611260575f61118187610b6a600185611d4a565b80549091506001600160601b0380821691600160601b90046001600160a01b03169088168211156111c557604051632520601d60e01b815260040160405180910390fd5b876001600160601b0316826001600160601b0316036112015782546001600160601b0316600160601b6001600160a01b03891602178355611252565b604080518082019091526001600160601b03808a1682526001600160a01b03808a1660208085019182528d54600181018f555f8f81529190912094519151909216600160601b029216919091179101555b9450859350610c9792505050565b5050604080518082019091526001600160601b0380851682526001600160a01b0380851660208085019182528854600181018a555f8a815291822095519251909316600160601b029190931617920191909155905081610c97565b80545f908015610e80576112d483610b6a600184611d4a565b54600160601b90046001600160a01b0316610be8565b5f610be88284611d84565b5f6001600160d01b03821115611113576040516306dfcc6560e41b815260d06004820152602481018390526044016103b8565b5f5f610c926113356108fe565b61134b61134188610e51565b868863ffffffff16565b8791906118a9565b5f610be88284611da3565b816001600160a01b0316836001600160a01b03161415801561137f57505f81115b15610d78576001600160a01b03831615611421576001600160a01b0383165f90815260046020526040812081906113bc90611353610d1d866112f5565b6001600160d01b031691506001600160d01b03169150846001600160a01b03167fdec2bacdd2f05b59de34da9b523dff8be42e5e38e818c82fdb0bae774387a7248383604051611416929190918252602082015260400190565b60405180910390a250505b6001600160a01b03821615610d78576001600160a01b0382165f9081526004602052604081208190611459906112ea610d1d866112f5565b6001600160d01b031691506001600160d01b03169150836001600160a01b03167fdec2bacdd2f05b59de34da9b523dff8be42e5e38e818c82fdb0bae774387a72483836040516114b3929190918252602082015260400190565b60405180910390a25050505050565b600654604051631266aaaf60e31b81526001600160a01b03918216600482015282821660248201525f917f00000000000000000000000000000000000000000000000000000000000000001690639335557890604401602060405180830381865afa158015611533573d5f5f3e3d5ffd5b505050506040513d601f19601f8201168201806040525081019061033c9190611cf0565b606060ff83146115715761156a836118b6565b905061033c565b81805461157d90611dc2565b80601f01602080910402602001604051908101604052809291908181526020018280546115a990611dc2565b80156115f45780601f106115cb576101008083540402835291602001916115f4565b820191905f5260205f20905b8154815290600101906020018083116115d757829003601f168201915b5050505050905061033c565b5f306001600160a01b037f00000000000000000000000000000000000000000000000000000000000000001614801561165857507f000000000000000000000000000000000000000000000000000000000000000046145b1561168257507f000000000000000000000000000000000000000000000000000000000000000090565b610907604080517f8b73c3c69bb8fe3d512ecc4cf759cc79239f7b179b0ffacaa9a75d522b39400f60208201527f0000000000000000000000000000000000000000000000000000000000000000918101919091527f000000000000000000000000000000000000000000000000000000000000000060608201524660808201523060a08201525f9060c00160405160208183030381529060405280519060200120905090565b5f80807f7fffffffffffffffffffffffffffffff5d576e7357a4501ddfe92f46681b20a084111561176257505f915060039050826117e7565b604080515f808252602082018084528a905260ff891692820192909252606081018790526080810186905260019060a0016020604051602081039080840390855afa1580156117b3573d5f5f3e3d5ffd5b5050604051601f1901519150506001600160a01b0381166117de57505f9250600191508290506117e7565b92505f91508190505b9450945094915050565b5f82600381111561180457611804611dfa565b0361180d575050565b600182600381111561182157611821611dfa565b0361183f5760405163f645eedf60e01b815260040160405180910390fd5b600282600381111561185357611853611dfa565b036118745760405163fce698f760e01b8152600481018290526024016103b8565b600382600381111561188857611888611dfa565b03610667576040516335e2f38360e21b8152600481018290526024016103b8565b5f80610c928585856118f3565b60605f6118c283611a42565b6040805160208082528183019092529192505f91906020820181803683375050509182525060208101929092525090565b82545f90819080156119e8575f61190f87610b6a600185611d4a565b805490915065ffffffffffff80821691600160301b90046001600160d01b031690881682111561195257604051632520601d60e01b815260040160405180910390fd5b8765ffffffffffff168265ffffffffffff160361198b57825465ffffffffffff16600160301b6001600160d01b03891602178355611252565b6040805180820190915265ffffffffffff808a1682526001600160d01b03808a1660208085019182528d54600181018f555f8f81529190912094519151909216600160301b029216919091179101559450859350610c9792505050565b50506040805180820190915265ffffffffffff80851682526001600160d01b0380851660208085019182528854600181018a555f8a815291822095519251909316600160301b029190931617920191909155905081610c97565b5f60ff8216601f81111561033c57604051632cd44ac360e21b815260040160405180910390fd5b5f5f60408385031215611a7a575f5ffd5b50508035926020909101359150565b6001600160a01b0381168114611a9d575f5ffd5b50565b5f5f60408385031215611ab1575f5ffd5b8235611abc81611a89565b946020939093013593505050565b5f5f5f60608486031215611adc575f5ffd5b8335611ae781611a89565b92506020840135611af781611a89565b929592945050506040919091013590565b5f81518084528060208401602086015e5f602082860101526020601f19601f83011685010191505092915050565b602081525f610be86020830184611b08565b5f60208284031215611b58575f5ffd5b8135610be881611a89565b5f5f5f60408486031215611b75575f5ffd5b8335611b8081611a89565b9250602084013567ffffffffffffffff811115611b9b575f5ffd5b8401601f81018613611bab575f5ffd5b803567ffffffffffffffff811115611bc1575f5ffd5b8660208260051b8401011115611bd5575f5ffd5b939660209190910195509293505050565b60ff60f81b8816815260e060208201525f611c0460e0830189611b08565b8281036040840152611c168189611b08565b606084018890526001600160a01b038716608085015260a0840186905283810360c0850152845180825260208087019350909101905f5b81811015611c6b578351835260209384019390920191600101611c4d565b50909b9a5050505050505050505050565b5f60208284031215611c8c575f5ffd5b5035919050565b5f5f5f5f5f5f60c08789031215611ca8575f5ffd5b8635611cb381611a89565b95506020870135945060408701359350606087013560ff81168114611cd6575f5ffd5b9598949750929560808101359460a0909101359350915050565b5f60208284031215611d00575f5ffd5b5051919050565b634e487b7160e01b5f52603260045260245ffd5b5f60208284031215611d2b575f5ffd5b8151610be881611a89565b634e487b7160e01b5f52601160045260245ffd5b8181038181111561033c5761033c611d36565b8082018082111561033c5761033c611d36565b634e487b7160e01b5f52601260045260245ffd5b6001600160d01b03818116838216019081111561033c5761033c611d36565b6001600160d01b03828116828216039081111561033c5761033c611d36565b600181811c90821680611dd657607f821691505b602082108103611df457634e487b7160e01b5f52602260045260245ffd5b50919050565b634e487b7160e01b5f52602160045260245ffdfea164736f6c634300081c000a",
	"gitCommit": "npm:@bananapus/721-hook-v6@0.0.68",
	"gitDirty": false,
	"history": []
}