{
	"format": "sphinx-sol-ct-artifact-1",
	"address": "0x581bfd1ead279e0a27b736e49494db3a7d85993c",
	"sourceName": "node_modules/@bananapus/address-registry-v6/src/JBAddressRegistry.sol",
	"contractName": "JBAddressRegistry",
	"chainId": "0x14a34",
	"abi": [
		{
			"type": "function",
			"name": "deployerOf",
			"inputs": [
				{
					"name": "addr",
					"type": "address",
					"internalType": "address"
				}
			],
			"outputs": [
				{
					"name": "deployer",
					"type": "address",
					"internalType": "address"
				}
			],
			"stateMutability": "view"
		},
		{
			"type": "function",
			"name": "registerAddress",
			"inputs": [
				{
					"name": "deployer",
					"type": "address",
					"internalType": "address"
				},
				{
					"name": "nonce",
					"type": "uint256",
					"internalType": "uint256"
				}
			],
			"outputs": [],
			"stateMutability": "nonpayable"
		},
		{
			"type": "function",
			"name": "registerAddress",
			"inputs": [
				{
					"name": "deployer",
					"type": "address",
					"internalType": "address"
				},
				{
					"name": "salt",
					"type": "bytes32",
					"internalType": "bytes32"
				},
				{
					"name": "bytecode",
					"type": "bytes",
					"internalType": "bytes"
				}
			],
			"outputs": [],
			"stateMutability": "nonpayable"
		},
		{
			"type": "event",
			"name": "AddressRegistered",
			"inputs": [
				{
					"name": "addr",
					"type": "address",
					"indexed": true,
					"internalType": "address"
				},
				{
					"name": "deployer",
					"type": "address",
					"indexed": true,
					"internalType": "address"
				},
				{
					"name": "caller",
					"type": "address",
					"indexed": false,
					"internalType": "address"
				}
			],
			"anonymous": false
		},
		{
			"type": "error",
			"name": "JBAddressRegistry_AddressNotDeployed",
			"inputs": [
				{
					"name": "addr",
					"type": "address",
					"internalType": "address"
				}
			]
		},
		{
			"type": "error",
			"name": "JBAddressRegistry_AlreadyRegistered",
			"inputs": [
				{
					"name": "addr",
					"type": "address",
					"internalType": "address"
				}
			]
		},
		{
			"type": "error",
			"name": "JBAddressRegistry_NonceTooLarge",
			"inputs": [
				{
					"name": "nonce",
					"type": "uint256",
					"internalType": "uint256"
				}
			]
		},
		{
			"type": "error",
			"name": "JBAddressRegistry_ZeroDeployer",
			"inputs": [
				{
					"name": "deployer",
					"type": "address",
					"internalType": "address"
				}
			]
		}
	],
	"args": [],
	"solcInputHash": "d708ff01879584041f3753e3f6488e2d",
	"bytecode": "0x6080604052348015600e575f5ffd5b506107318061001c5f395ff3fe608060405234801561000f575f5ffd5b506004361061003f575f3560e01c8063416dc73214610043578063b94417ab14610087578063da3c8b0a1461009c575b5f5ffd5b61006b61005136600461064a565b5f602081905290815260409020546001600160a01b031681565b6040516001600160a01b03909116815260200160405180910390f35b61009a61009536600461066a565b6100af565b005b61009a6100aa366004610692565b6100cb565b5f6100ba8383610155565b90506100c68184610523565b505050565b5f60ff60f81b858585856040516100e3929190610715565b60405190819003812061012a949392916020016001600160f81b031994909416845260609290921b6001600160601b03191660018401526015830152603582015260550190565b604051602081830303815290604052805190602001205f1c905061014e8186610523565b5050505050565b5f67ffffffffffffffff82111561018757604051636e1fe4fb60e11b8152600481018390526024015b60405180910390fd5b6060825f036101df57604051606b60f91b6020820152602560fa1b60218201526001600160601b0319606086901b166022820152600160ff1b60368201526037015b6040516020818303038152906040529050610510565b607f831161022e57604051606b60f91b6020820152602560fa1b60218201526001600160601b0319606086901b16602282015260f884901b6001600160f81b03191660368201526037016101c9565b60ff83116102875760405160d760f81b6020820152602560fa1b60218201526001600160601b0319606086901b166022820152608160f81b603682015260f884901b6001600160f81b03191660378201526038016101c9565b61ffff83116102e157604051601b60fb1b6020820152602560fa1b60218201526001600160601b0319606086901b166022820152604160f91b60368201526001600160f01b031960f085901b1660378201526039016101c9565b62ffffff831161033c5760405160d960f81b6020820152602560fa1b60218201526001600160601b0319606086901b166022820152608360f81b60368201526001600160e81b031960e885901b166037820152603a016101c9565b63ffffffff831161039857604051606d60f91b6020820152602560fa1b60218201526001600160601b0319606086901b166022820152602160fa1b60368201526001600160e01b031960e085901b166037820152603b016101c9565b64ffffffffff83116103f55760405160db60f81b6020820152602560fa1b60218201526001600160601b0319606086901b166022820152608560f81b60368201526001600160d81b031960d885901b166037820152603c016101c9565b65ffffffffffff831161045357604051603760fa1b6020820152602560fa1b60218201526001600160601b0319606086901b166022820152604360f91b60368201526001600160d01b031960d085901b166037820152603d016101c9565b66ffffffffffffff83116104b25760405160dd60f81b6020820152602560fa1b60218201526001600160601b0319606086901b166022820152608760f81b60368201526001600160c81b031960c885901b166037820152603e016101c9565b604051606f60f91b6020820152602560fa1b60218201526001600160601b0319606086901b166022820152601160fb1b60368201526001600160c01b031960c085901b166037820152603f0160405160208183030381529060405290505b80516020909101205f8190529392505050565b6001600160a01b03811661055557604051637fb8dd6d60e01b81526001600160a01b038216600482015260240161017e565b816001600160a01b03163b5f0361058a576040516357b8ac4960e01b81526001600160a01b038316600482015260240161017e565b6001600160a01b038281165f9081526020819052604090205416156105cd57604051636ec80b3360e11b81526001600160a01b038316600482015260240161017e565b6001600160a01b038281165f818152602081815260409182902080546001600160a01b031916948616948517905590513381527f7d6162a71c5021da669d43dd6f106854635e56ebf51a7d028ade33473c69c0fc910160405180910390a35050565b80356001600160a01b0381168114610645575f5ffd5b919050565b5f6020828403121561065a575f5ffd5b6106638261062f565b9392505050565b5f5f6040838503121561067b575f5ffd5b6106848361062f565b946020939093013593505050565b5f5f5f5f606085870312156106a5575f5ffd5b6106ae8561062f565b935060208501359250604085013567ffffffffffffffff8111156106d0575f5ffd5b8501601f810187136106e0575f5ffd5b803567ffffffffffffffff8111156106f6575f5ffd5b876020828401011115610707575f5ffd5b949793965060200194505050565b818382375f910190815291905056fea164736f6c634300081c000a",
	"gitCommit": "npm:@bananapus/address-registry-v6@1.0.0",
	"gitDirty": false,
	"history": []
}