{
	"format": "sphinx-sol-ct-artifact-1",
	"address": "0xfa7a0a1a9450ebfc4a44a2d8ebe3683217408325",
	"sourceName": "node_modules/@bananapus/suckers-v6/src/JBBaseSucker.sol",
	"contractName": "JBBaseSucker",
	"chainId": "0x14a34",
	"abi": [
		{
			"type": "constructor",
			"inputs": [
				{
					"name": "deployer",
					"type": "address",
					"internalType": "contract JBOptimismSuckerDeployer"
				},
				{
					"name": "directory",
					"type": "address",
					"internalType": "contract IJBDirectory"
				},
				{
					"name": "permissions",
					"type": "address",
					"internalType": "contract IJBPermissions"
				},
				{
					"name": "tokens",
					"type": "address",
					"internalType": "contract IJBTokens"
				},
				{
					"name": "feeProjectId",
					"type": "uint256",
					"internalType": "uint256"
				},
				{
					"name": "registry",
					"type": "address",
					"internalType": "contract IJBSuckerRegistry"
				},
				{
					"name": "trustedForwarder",
					"type": "address",
					"internalType": "address"
				}
			],
			"stateMutability": "nonpayable"
		},
		{
			"type": "receive",
			"stateMutability": "payable"
		},
		{
			"type": "function",
			"name": "DIRECTORY",
			"inputs": [],
			"outputs": [
				{
					"name": "",
					"type": "address",
					"internalType": "contract IJBDirectory"
				}
			],
			"stateMutability": "view"
		},
		{
			"type": "function",
			"name": "FEE_PROJECT_ID",
			"inputs": [],
			"outputs": [
				{
					"name": "",
					"type": "uint256",
					"internalType": "uint256"
				}
			],
			"stateMutability": "view"
		},
		{
			"type": "function",
			"name": "MESSAGE_VERSION",
			"inputs": [],
			"outputs": [
				{
					"name": "",
					"type": "uint8",
					"internalType": "uint8"
				}
			],
			"stateMutability": "view"
		},
		{
			"type": "function",
			"name": "MESSENGER_BASE_GAS_LIMIT",
			"inputs": [],
			"outputs": [
				{
					"name": "",
					"type": "uint32",
					"internalType": "uint32"
				}
			],
			"stateMutability": "view"
		},
		{
			"type": "function",
			"name": "MESSENGER_ERC20_MIN_GAS_LIMIT",
			"inputs": [],
			"outputs": [
				{
					"name": "",
					"type": "uint32",
					"internalType": "uint32"
				}
			],
			"stateMutability": "view"
		},
		{
			"type": "function",
			"name": "OPBRIDGE",
			"inputs": [],
			"outputs": [
				{
					"name": "",
					"type": "address",
					"internalType": "contract IOPStandardBridge"
				}
			],
			"stateMutability": "view"
		},
		{
			"type": "function",
			"name": "OPMESSENGER",
			"inputs": [],
			"outputs": [
				{
					"name": "",
					"type": "address",
					"internalType": "contract IOPMessenger"
				}
			],
			"stateMutability": "view"
		},
		{
			"type": "function",
			"name": "PERMISSIONS",
			"inputs": [],
			"outputs": [
				{
					"name": "",
					"type": "address",
					"internalType": "contract IJBPermissions"
				}
			],
			"stateMutability": "view"
		},
		{
			"type": "function",
			"name": "PROJECTS",
			"inputs": [],
			"outputs": [
				{
					"name": "",
					"type": "address",
					"internalType": "contract IJBProjects"
				}
			],
			"stateMutability": "view"
		},
		{
			"type": "function",
			"name": "REGISTRY",
			"inputs": [],
			"outputs": [
				{
					"name": "",
					"type": "address",
					"internalType": "contract IJBSuckerRegistry"
				}
			],
			"stateMutability": "view"
		},
		{
			"type": "function",
			"name": "TOKENS",
			"inputs": [],
			"outputs": [
				{
					"name": "",
					"type": "address",
					"internalType": "contract IJBTokens"
				}
			],
			"stateMutability": "view"
		},
		{
			"type": "function",
			"name": "amountToAddToBalanceOf",
			"inputs": [
				{
					"name": "token",
					"type": "address",
					"internalType": "address"
				}
			],
			"outputs": [
				{
					"name": "",
					"type": "uint256",
					"internalType": "uint256"
				}
			],
			"stateMutability": "view"
		},
		{
			"type": "function",
			"name": "claim",
			"inputs": [
				{
					"name": "claims",
					"type": "tuple[]",
					"internalType": "struct JBClaim[]",
					"components": [
						{
							"name": "token",
							"type": "address",
							"internalType": "address"
						},
						{
							"name": "leaf",
							"type": "tuple",
							"internalType": "struct JBLeaf",
							"components": [
								{
									"name": "index",
									"type": "uint256",
									"internalType": "uint256"
								},
								{
									"name": "beneficiary",
									"type": "bytes32",
									"internalType": "bytes32"
								},
								{
									"name": "projectTokenCount",
									"type": "uint256",
									"internalType": "uint256"
								},
								{
									"name": "terminalTokenAmount",
									"type": "uint256",
									"internalType": "uint256"
								},
								{
									"name": "metadata",
									"type": "bytes32",
									"internalType": "bytes32"
								}
							]
						},
						{
							"name": "proof",
							"type": "bytes32[32]",
							"internalType": "bytes32[32]"
						}
					]
				}
			],
			"outputs": [],
			"stateMutability": "nonpayable"
		},
		{
			"type": "function",
			"name": "claim",
			"inputs": [
				{
					"name": "claimData",
					"type": "tuple",
					"internalType": "struct JBClaim",
					"components": [
						{
							"name": "token",
							"type": "address",
							"internalType": "address"
						},
						{
							"name": "leaf",
							"type": "tuple",
							"internalType": "struct JBLeaf",
							"components": [
								{
									"name": "index",
									"type": "uint256",
									"internalType": "uint256"
								},
								{
									"name": "beneficiary",
									"type": "bytes32",
									"internalType": "bytes32"
								},
								{
									"name": "projectTokenCount",
									"type": "uint256",
									"internalType": "uint256"
								},
								{
									"name": "terminalTokenAmount",
									"type": "uint256",
									"internalType": "uint256"
								},
								{
									"name": "metadata",
									"type": "bytes32",
									"internalType": "bytes32"
								}
							]
						},
						{
							"name": "proof",
							"type": "bytes32[32]",
							"internalType": "bytes32[32]"
						}
					]
				}
			],
			"outputs": [],
			"stateMutability": "nonpayable"
		},
		{
			"type": "function",
			"name": "claimRetainedToRemoteFee",
			"inputs": [
				{
					"name": "beneficiary",
					"type": "address",
					"internalType": "address payable"
				}
			],
			"outputs": [],
			"stateMutability": "nonpayable"
		},
		{
			"type": "function",
			"name": "claimRetainedTransportPaymentRefund",
			"inputs": [
				{
					"name": "beneficiary",
					"type": "address",
					"internalType": "address payable"
				}
			],
			"outputs": [],
			"stateMutability": "nonpayable"
		},
		{
			"type": "function",
			"name": "deployer",
			"inputs": [],
			"outputs": [
				{
					"name": "",
					"type": "address",
					"internalType": "address"
				}
			],
			"stateMutability": "view"
		},
		{
			"type": "function",
			"name": "enableEmergencyHatchFor",
			"inputs": [
				{
					"name": "tokens",
					"type": "address[]",
					"internalType": "address[]"
				}
			],
			"outputs": [],
			"stateMutability": "nonpayable"
		},
		{
			"type": "function",
			"name": "executedLeafHashOf",
			"inputs": [
				{
					"name": "token",
					"type": "address",
					"internalType": "address"
				},
				{
					"name": "index",
					"type": "uint256",
					"internalType": "uint256"
				}
			],
			"outputs": [
				{
					"name": "",
					"type": "bytes32",
					"internalType": "bytes32"
				}
			],
			"stateMutability": "view"
		},
		{
			"type": "function",
			"name": "exitThroughEmergencyHatch",
			"inputs": [
				{
					"name": "claimData",
					"type": "tuple",
					"internalType": "struct JBClaim",
					"components": [
						{
							"name": "token",
							"type": "address",
							"internalType": "address"
						},
						{
							"name": "leaf",
							"type": "tuple",
							"internalType": "struct JBLeaf",
							"components": [
								{
									"name": "index",
									"type": "uint256",
									"internalType": "uint256"
								},
								{
									"name": "beneficiary",
									"type": "bytes32",
									"internalType": "bytes32"
								},
								{
									"name": "projectTokenCount",
									"type": "uint256",
									"internalType": "uint256"
								},
								{
									"name": "terminalTokenAmount",
									"type": "uint256",
									"internalType": "uint256"
								},
								{
									"name": "metadata",
									"type": "bytes32",
									"internalType": "bytes32"
								}
							]
						},
						{
							"name": "proof",
							"type": "bytes32[32]",
							"internalType": "bytes32[32]"
						}
					]
				}
			],
			"outputs": [],
			"stateMutability": "nonpayable"
		},
		{
			"type": "function",
			"name": "fromRemote",
			"inputs": [
				{
					"name": "root",
					"type": "tuple",
					"internalType": "struct JBMessageRoot",
					"components": [
						{
							"name": "version",
							"type": "uint8",
							"internalType": "uint8"
						},
						{
							"name": "token",
							"type": "bytes32",
							"internalType": "bytes32"
						},
						{
							"name": "amount",
							"type": "uint256",
							"internalType": "uint256"
						},
						{
							"name": "remoteRoot",
							"type": "tuple",
							"internalType": "struct JBInboxTreeRoot",
							"components": [
								{
									"name": "nonce",
									"type": "uint64",
									"internalType": "uint64"
								},
								{
									"name": "root",
									"type": "bytes32",
									"internalType": "bytes32"
								}
							]
						},
						{
							"name": "sourceTotalSupply",
							"type": "uint256",
							"internalType": "uint256"
						},
						{
							"name": "sourceContexts",
							"type": "tuple[]",
							"internalType": "struct JBSourceContext[]",
							"components": [
								{
									"name": "token",
									"type": "bytes32",
									"internalType": "bytes32"
								},
								{
									"name": "decimals",
									"type": "uint8",
									"internalType": "uint8"
								},
								{
									"name": "surplus",
									"type": "uint128",
									"internalType": "uint128"
								},
								{
									"name": "balance",
									"type": "uint128",
									"internalType": "uint128"
								}
							]
						},
						{
							"name": "sourceTimestamp",
							"type": "uint256",
							"internalType": "uint256"
						}
					]
				}
			],
			"outputs": [],
			"stateMutability": "payable"
		},
		{
			"type": "function",
			"name": "fromRemoteAccounting",
			"inputs": [
				{
					"name": "snapshot",
					"type": "tuple",
					"internalType": "struct JBAccountingSnapshot",
					"components": [
						{
							"name": "version",
							"type": "uint8",
							"internalType": "uint8"
						},
						{
							"name": "sourceTotalSupply",
							"type": "uint256",
							"internalType": "uint256"
						},
						{
							"name": "sourceContexts",
							"type": "tuple[]",
							"internalType": "struct JBSourceContext[]",
							"components": [
								{
									"name": "token",
									"type": "bytes32",
									"internalType": "bytes32"
								},
								{
									"name": "decimals",
									"type": "uint8",
									"internalType": "uint8"
								},
								{
									"name": "surplus",
									"type": "uint128",
									"internalType": "uint128"
								},
								{
									"name": "balance",
									"type": "uint128",
									"internalType": "uint128"
								}
							]
						},
						{
							"name": "sourceTimestamp",
							"type": "uint256",
							"internalType": "uint256"
						}
					]
				}
			],
			"outputs": [],
			"stateMutability": "nonpayable"
		},
		{
			"type": "function",
			"name": "inboxOf",
			"inputs": [
				{
					"name": "token",
					"type": "address",
					"internalType": "address"
				}
			],
			"outputs": [
				{
					"name": "",
					"type": "tuple",
					"internalType": "struct JBInboxTreeRoot",
					"components": [
						{
							"name": "nonce",
							"type": "uint64",
							"internalType": "uint64"
						},
						{
							"name": "root",
							"type": "bytes32",
							"internalType": "bytes32"
						}
					]
				}
			],
			"stateMutability": "view"
		},
		{
			"type": "function",
			"name": "initialize",
			"inputs": [
				{
					"name": "localProjectId",
					"type": "uint256",
					"internalType": "uint256"
				},
				{
					"name": "remotePeer",
					"type": "bytes32",
					"internalType": "bytes32"
				}
			],
			"outputs": [],
			"stateMutability": "nonpayable"
		},
		{
			"type": "function",
			"name": "initialize",
			"inputs": [
				{
					"name": "initialProjectId",
					"type": "uint256",
					"internalType": "uint256"
				}
			],
			"outputs": [],
			"stateMutability": "nonpayable"
		},
		{
			"type": "function",
			"name": "isMapped",
			"inputs": [
				{
					"name": "token",
					"type": "address",
					"internalType": "address"
				}
			],
			"outputs": [
				{
					"name": "",
					"type": "bool",
					"internalType": "bool"
				}
			],
			"stateMutability": "view"
		},
		{
			"type": "function",
			"name": "isTrustedForwarder",
			"inputs": [
				{
					"name": "forwarder",
					"type": "address",
					"internalType": "address"
				}
			],
			"outputs": [
				{
					"name": "",
					"type": "bool",
					"internalType": "bool"
				}
			],
			"stateMutability": "view"
		},
		{
			"type": "function",
			"name": "mapToken",
			"inputs": [
				{
					"name": "map",
					"type": "tuple",
					"internalType": "struct JBTokenMapping",
					"components": [
						{
							"name": "localToken",
							"type": "address",
							"internalType": "address"
						},
						{
							"name": "minGas",
							"type": "uint32",
							"internalType": "uint32"
						},
						{
							"name": "remoteToken",
							"type": "bytes32",
							"internalType": "bytes32"
						}
					]
				}
			],
			"outputs": [],
			"stateMutability": "payable"
		},
		{
			"type": "function",
			"name": "mapTokens",
			"inputs": [
				{
					"name": "maps",
					"type": "tuple[]",
					"internalType": "struct JBTokenMapping[]",
					"components": [
						{
							"name": "localToken",
							"type": "address",
							"internalType": "address"
						},
						{
							"name": "minGas",
							"type": "uint32",
							"internalType": "uint32"
						},
						{
							"name": "remoteToken",
							"type": "bytes32",
							"internalType": "bytes32"
						}
					]
				}
			],
			"outputs": [],
			"stateMutability": "payable"
		},
		{
			"type": "function",
			"name": "outboxOf",
			"inputs": [
				{
					"name": "token",
					"type": "address",
					"internalType": "address"
				}
			],
			"outputs": [
				{
					"name": "",
					"type": "tuple",
					"internalType": "struct JBOutboxTree",
					"components": [
						{
							"name": "nonce",
							"type": "uint64",
							"internalType": "uint64"
						},
						{
							"name": "numberOfClaimsSent",
							"type": "uint192",
							"internalType": "uint192"
						},
						{
							"name": "balance",
							"type": "uint256",
							"internalType": "uint256"
						},
						{
							"name": "tree",
							"type": "tuple",
							"internalType": "struct MerkleLib.Tree",
							"components": [
								{
									"name": "branch",
									"type": "bytes32[32]",
									"internalType": "bytes32[32]"
								},
								{
									"name": "count",
									"type": "uint256",
									"internalType": "uint256"
								}
							]
						}
					]
				}
			],
			"stateMutability": "view"
		},
		{
			"type": "function",
			"name": "peer",
			"inputs": [],
			"outputs": [
				{
					"name": "",
					"type": "bytes32",
					"internalType": "bytes32"
				}
			],
			"stateMutability": "view"
		},
		{
			"type": "function",
			"name": "peerChainContextsOf",
			"inputs": [],
			"outputs": [
				{
					"name": "contexts",
					"type": "tuple[]",
					"internalType": "struct JBPeerChainContext[]",
					"components": [
						{
							"name": "currency",
							"type": "uint32",
							"internalType": "uint32"
						},
						{
							"name": "decimals",
							"type": "uint8",
							"internalType": "uint8"
						},
						{
							"name": "surplus",
							"type": "uint128",
							"internalType": "uint128"
						},
						{
							"name": "balance",
							"type": "uint128",
							"internalType": "uint128"
						}
					]
				},
				{
					"name": "chainId",
					"type": "uint256",
					"internalType": "uint256"
				},
				{
					"name": "snapshot",
					"type": "uint256",
					"internalType": "uint256"
				}
			],
			"stateMutability": "view"
		},
		{
			"type": "function",
			"name": "peerChainId",
			"inputs": [],
			"outputs": [
				{
					"name": "",
					"type": "uint256",
					"internalType": "uint256"
				}
			],
			"stateMutability": "view"
		},
		{
			"type": "function",
			"name": "peerChainTotalSupply",
			"inputs": [],
			"outputs": [
				{
					"name": "",
					"type": "uint256",
					"internalType": "uint256"
				}
			],
			"stateMutability": "view"
		},
		{
			"type": "function",
			"name": "peerChainTotalSupplyValue",
			"inputs": [],
			"outputs": [
				{
					"name": "",
					"type": "tuple",
					"internalType": "struct JBPeerChainValue",
					"components": [
						{
							"name": "value",
							"type": "uint256",
							"internalType": "uint256"
						},
						{
							"name": "peerChainId",
							"type": "uint256",
							"internalType": "uint256"
						},
						{
							"name": "snapshotTimestamp",
							"type": "uint256",
							"internalType": "uint256"
						}
					]
				}
			],
			"stateMutability": "view"
		},
		{
			"type": "function",
			"name": "prepare",
			"inputs": [
				{
					"name": "projectTokenCount",
					"type": "uint256",
					"internalType": "uint256"
				},
				{
					"name": "beneficiary",
					"type": "bytes32",
					"internalType": "bytes32"
				},
				{
					"name": "minTokensReclaimed",
					"type": "uint256",
					"internalType": "uint256"
				},
				{
					"name": "token",
					"type": "address",
					"internalType": "address"
				},
				{
					"name": "metadata",
					"type": "bytes32",
					"internalType": "bytes32"
				}
			],
			"outputs": [],
			"stateMutability": "nonpayable"
		},
		{
			"type": "function",
			"name": "projectId",
			"inputs": [],
			"outputs": [
				{
					"name": "",
					"type": "uint256",
					"internalType": "uint256"
				}
			],
			"stateMutability": "view"
		},
		{
			"type": "function",
			"name": "remoteTokenFor",
			"inputs": [
				{
					"name": "token",
					"type": "address",
					"internalType": "address"
				}
			],
			"outputs": [
				{
					"name": "",
					"type": "tuple",
					"internalType": "struct JBRemoteToken",
					"components": [
						{
							"name": "enabled",
							"type": "bool",
							"internalType": "bool"
						},
						{
							"name": "emergencyHatch",
							"type": "bool",
							"internalType": "bool"
						},
						{
							"name": "minGas",
							"type": "uint32",
							"internalType": "uint32"
						},
						{
							"name": "addr",
							"type": "bytes32",
							"internalType": "bytes32"
						}
					]
				}
			],
			"stateMutability": "view"
		},
		{
			"type": "function",
			"name": "retainedToRemoteFeeBalance",
			"inputs": [],
			"outputs": [
				{
					"name": "",
					"type": "uint256",
					"internalType": "uint256"
				}
			],
			"stateMutability": "view"
		},
		{
			"type": "function",
			"name": "retainedToRemoteFeeOf",
			"inputs": [
				{
					"name": "account",
					"type": "address",
					"internalType": "address"
				}
			],
			"outputs": [
				{
					"name": "amount",
					"type": "uint256",
					"internalType": "uint256"
				}
			],
			"stateMutability": "view"
		},
		{
			"type": "function",
			"name": "retainedTransportPaymentRefundBalance",
			"inputs": [],
			"outputs": [
				{
					"name": "",
					"type": "uint256",
					"internalType": "uint256"
				}
			],
			"stateMutability": "view"
		},
		{
			"type": "function",
			"name": "retainedTransportPaymentRefundOf",
			"inputs": [
				{
					"name": "account",
					"type": "address",
					"internalType": "address"
				}
			],
			"outputs": [
				{
					"name": "amount",
					"type": "uint256",
					"internalType": "uint256"
				}
			],
			"stateMutability": "view"
		},
		{
			"type": "function",
			"name": "setDeprecation",
			"inputs": [
				{
					"name": "timestamp",
					"type": "uint40",
					"internalType": "uint40"
				}
			],
			"outputs": [],
			"stateMutability": "nonpayable"
		},
		{
			"type": "function",
			"name": "snapshotTimestamp",
			"inputs": [],
			"outputs": [
				{
					"name": "",
					"type": "uint256",
					"internalType": "uint256"
				}
			],
			"stateMutability": "view"
		},
		{
			"type": "function",
			"name": "state",
			"inputs": [],
			"outputs": [
				{
					"name": "",
					"type": "uint8",
					"internalType": "enum JBSuckerState"
				}
			],
			"stateMutability": "view"
		},
		{
			"type": "function",
			"name": "supportsInterface",
			"inputs": [
				{
					"name": "interfaceId",
					"type": "bytes4",
					"internalType": "bytes4"
				}
			],
			"outputs": [
				{
					"name": "",
					"type": "bool",
					"internalType": "bool"
				}
			],
			"stateMutability": "view"
		},
		{
			"type": "function",
			"name": "syncAccountingData",
			"inputs": [],
			"outputs": [],
			"stateMutability": "payable"
		},
		{
			"type": "function",
			"name": "toRemote",
			"inputs": [
				{
					"name": "token",
					"type": "address",
					"internalType": "address"
				}
			],
			"outputs": [],
			"stateMutability": "payable"
		},
		{
			"type": "function",
			"name": "trustedForwarder",
			"inputs": [],
			"outputs": [
				{
					"name": "",
					"type": "address",
					"internalType": "address"
				}
			],
			"stateMutability": "view"
		},
		{
			"type": "event",
			"name": "AccountingDataSynced",
			"inputs": [
				{
					"name": "sourceTimestamp",
					"type": "uint256",
					"indexed": false,
					"internalType": "uint256"
				},
				{
					"name": "caller",
					"type": "address",
					"indexed": false,
					"internalType": "address"
				}
			],
			"anonymous": false
		},
		{
			"type": "event",
			"name": "ClaimFailed",
			"inputs": [
				{
					"name": "token",
					"type": "address",
					"indexed": true,
					"internalType": "address"
				},
				{
					"name": "index",
					"type": "uint256",
					"indexed": false,
					"internalType": "uint256"
				},
				{
					"name": "caller",
					"type": "address",
					"indexed": false,
					"internalType": "address"
				}
			],
			"anonymous": false
		},
		{
			"type": "event",
			"name": "Claimed",
			"inputs": [
				{
					"name": "beneficiary",
					"type": "bytes32",
					"indexed": false,
					"internalType": "bytes32"
				},
				{
					"name": "token",
					"type": "address",
					"indexed": false,
					"internalType": "address"
				},
				{
					"name": "projectTokenCount",
					"type": "uint256",
					"indexed": false,
					"internalType": "uint256"
				},
				{
					"name": "terminalTokenAmount",
					"type": "uint256",
					"indexed": false,
					"internalType": "uint256"
				},
				{
					"name": "index",
					"type": "uint256",
					"indexed": false,
					"internalType": "uint256"
				},
				{
					"name": "metadata",
					"type": "bytes32",
					"indexed": false,
					"internalType": "bytes32"
				},
				{
					"name": "caller",
					"type": "address",
					"indexed": false,
					"internalType": "address"
				}
			],
			"anonymous": false
		},
		{
			"type": "event",
			"name": "DeprecationTimeUpdated",
			"inputs": [
				{
					"name": "timestamp",
					"type": "uint40",
					"indexed": false,
					"internalType": "uint40"
				},
				{
					"name": "caller",
					"type": "address",
					"indexed": false,
					"internalType": "address"
				}
			],
			"anonymous": false
		},
		{
			"type": "event",
			"name": "EmergencyExit",
			"inputs": [
				{
					"name": "beneficiary",
					"type": "address",
					"indexed": true,
					"internalType": "address"
				},
				{
					"name": "token",
					"type": "address",
					"indexed": true,
					"internalType": "address"
				},
				{
					"name": "terminalTokenAmount",
					"type": "uint256",
					"indexed": false,
					"internalType": "uint256"
				},
				{
					"name": "projectTokenCount",
					"type": "uint256",
					"indexed": false,
					"internalType": "uint256"
				},
				{
					"name": "caller",
					"type": "address",
					"indexed": false,
					"internalType": "address"
				}
			],
			"anonymous": false
		},
		{
			"type": "event",
			"name": "EmergencyHatchOpened",
			"inputs": [
				{
					"name": "tokens",
					"type": "address[]",
					"indexed": false,
					"internalType": "address[]"
				},
				{
					"name": "caller",
					"type": "address",
					"indexed": false,
					"internalType": "address"
				}
			],
			"anonymous": false
		},
		{
			"type": "event",
			"name": "Initialized",
			"inputs": [
				{
					"name": "version",
					"type": "uint64",
					"indexed": false,
					"internalType": "uint64"
				}
			],
			"anonymous": false
		},
		{
			"type": "event",
			"name": "InsertToOutboxTree",
			"inputs": [
				{
					"name": "beneficiary",
					"type": "bytes32",
					"indexed": true,
					"internalType": "bytes32"
				},
				{
					"name": "token",
					"type": "address",
					"indexed": true,
					"internalType": "address"
				},
				{
					"name": "hashed",
					"type": "bytes32",
					"indexed": false,
					"internalType": "bytes32"
				},
				{
					"name": "index",
					"type": "uint256",
					"indexed": false,
					"internalType": "uint256"
				},
				{
					"name": "root",
					"type": "bytes32",
					"indexed": false,
					"internalType": "bytes32"
				},
				{
					"name": "projectTokenCount",
					"type": "uint256",
					"indexed": false,
					"internalType": "uint256"
				},
				{
					"name": "terminalTokenAmount",
					"type": "uint256",
					"indexed": false,
					"internalType": "uint256"
				},
				{
					"name": "metadata",
					"type": "bytes32",
					"indexed": false,
					"internalType": "bytes32"
				},
				{
					"name": "caller",
					"type": "address",
					"indexed": false,
					"internalType": "address"
				}
			],
			"anonymous": false
		},
		{
			"type": "event",
			"name": "NewInboxTreeRoot",
			"inputs": [
				{
					"name": "token",
					"type": "address",
					"indexed": true,
					"internalType": "address"
				},
				{
					"name": "nonce",
					"type": "uint64",
					"indexed": false,
					"internalType": "uint64"
				},
				{
					"name": "root",
					"type": "bytes32",
					"indexed": false,
					"internalType": "bytes32"
				},
				{
					"name": "caller",
					"type": "address",
					"indexed": false,
					"internalType": "address"
				}
			],
			"anonymous": false
		},
		{
			"type": "event",
			"name": "RetainedToRemoteFee",
			"inputs": [
				{
					"name": "account",
					"type": "address",
					"indexed": true,
					"internalType": "address"
				},
				{
					"name": "amount",
					"type": "uint256",
					"indexed": false,
					"internalType": "uint256"
				},
				{
					"name": "caller",
					"type": "address",
					"indexed": false,
					"internalType": "address"
				}
			],
			"anonymous": false
		},
		{
			"type": "event",
			"name": "RetainedToRemoteFeeClaimed",
			"inputs": [
				{
					"name": "account",
					"type": "address",
					"indexed": true,
					"internalType": "address"
				},
				{
					"name": "beneficiary",
					"type": "address",
					"indexed": true,
					"internalType": "address"
				},
				{
					"name": "amount",
					"type": "uint256",
					"indexed": false,
					"internalType": "uint256"
				},
				{
					"name": "caller",
					"type": "address",
					"indexed": false,
					"internalType": "address"
				}
			],
			"anonymous": false
		},
		{
			"type": "event",
			"name": "RetainedTransportPaymentRefund",
			"inputs": [
				{
					"name": "account",
					"type": "address",
					"indexed": true,
					"internalType": "address"
				},
				{
					"name": "amount",
					"type": "uint256",
					"indexed": false,
					"internalType": "uint256"
				},
				{
					"name": "caller",
					"type": "address",
					"indexed": false,
					"internalType": "address"
				}
			],
			"anonymous": false
		},
		{
			"type": "event",
			"name": "RetainedTransportPaymentRefundClaimed",
			"inputs": [
				{
					"name": "account",
					"type": "address",
					"indexed": true,
					"internalType": "address"
				},
				{
					"name": "beneficiary",
					"type": "address",
					"indexed": true,
					"internalType": "address"
				},
				{
					"name": "amount",
					"type": "uint256",
					"indexed": false,
					"internalType": "uint256"
				},
				{
					"name": "caller",
					"type": "address",
					"indexed": false,
					"internalType": "address"
				}
			],
			"anonymous": false
		},
		{
			"type": "event",
			"name": "RootToRemote",
			"inputs": [
				{
					"name": "root",
					"type": "bytes32",
					"indexed": true,
					"internalType": "bytes32"
				},
				{
					"name": "token",
					"type": "address",
					"indexed": true,
					"internalType": "address"
				},
				{
					"name": "index",
					"type": "uint256",
					"indexed": false,
					"internalType": "uint256"
				},
				{
					"name": "nonce",
					"type": "uint64",
					"indexed": false,
					"internalType": "uint64"
				},
				{
					"name": "caller",
					"type": "address",
					"indexed": false,
					"internalType": "address"
				}
			],
			"anonymous": false
		},
		{
			"type": "event",
			"name": "StaleRootRejected",
			"inputs": [
				{
					"name": "token",
					"type": "address",
					"indexed": true,
					"internalType": "address"
				},
				{
					"name": "receivedNonce",
					"type": "uint64",
					"indexed": false,
					"internalType": "uint64"
				},
				{
					"name": "currentNonce",
					"type": "uint64",
					"indexed": false,
					"internalType": "uint64"
				},
				{
					"name": "caller",
					"type": "address",
					"indexed": false,
					"internalType": "address"
				}
			],
			"anonymous": false
		},
		{
			"type": "error",
			"name": "InvalidInitialization",
			"inputs": []
		},
		{
			"type": "error",
			"name": "JBPermissioned_Unauthorized",
			"inputs": [
				{
					"name": "account",
					"type": "address",
					"internalType": "address"
				},
				{
					"name": "sender",
					"type": "address",
					"internalType": "address"
				},
				{
					"name": "projectId",
					"type": "uint256",
					"internalType": "uint256"
				},
				{
					"name": "permissionId",
					"type": "uint256",
					"internalType": "uint256"
				}
			]
		},
		{
			"type": "error",
			"name": "JBSucker_AccountingSyncUnsupported",
			"inputs": []
		},
		{
			"type": "error",
			"name": "JBSucker_AmountExceedsUint128",
			"inputs": [
				{
					"name": "amount",
					"type": "uint256",
					"internalType": "uint256"
				}
			]
		},
		{
			"type": "error",
			"name": "JBSucker_BelowMinGas",
			"inputs": [
				{
					"name": "minGas",
					"type": "uint256",
					"internalType": "uint256"
				},
				{
					"name": "minGasLimit",
					"type": "uint256",
					"internalType": "uint256"
				}
			]
		},
		{
			"type": "error",
			"name": "JBSucker_Deprecated",
			"inputs": [
				{
					"name": "state",
					"type": "uint8",
					"internalType": "enum JBSuckerState"
				}
			]
		},
		{
			"type": "error",
			"name": "JBSucker_DeprecationTimestampTooSoon",
			"inputs": [
				{
					"name": "givenTime",
					"type": "uint256",
					"internalType": "uint256"
				},
				{
					"name": "minimumTime",
					"type": "uint256",
					"internalType": "uint256"
				}
			]
		},
		{
			"type": "error",
			"name": "JBSucker_ExpectedMsgValue",
			"inputs": [
				{
					"name": "msgValue",
					"type": "uint256",
					"internalType": "uint256"
				}
			]
		},
		{
			"type": "error",
			"name": "JBSucker_IndexOutOfRange",
			"inputs": [
				{
					"name": "index",
					"type": "uint256",
					"internalType": "uint256"
				}
			]
		},
		{
			"type": "error",
			"name": "JBSucker_InsufficientBalance",
			"inputs": [
				{
					"name": "amount",
					"type": "uint256",
					"internalType": "uint256"
				},
				{
					"name": "balance",
					"type": "uint256",
					"internalType": "uint256"
				}
			]
		},
		{
			"type": "error",
			"name": "JBSucker_InsufficientMsgValue",
			"inputs": [
				{
					"name": "received",
					"type": "uint256",
					"internalType": "uint256"
				},
				{
					"name": "expected",
					"type": "uint256",
					"internalType": "uint256"
				}
			]
		},
		{
			"type": "error",
			"name": "JBSucker_InvalidMessageVersion",
			"inputs": [
				{
					"name": "received",
					"type": "uint8",
					"internalType": "uint8"
				},
				{
					"name": "expected",
					"type": "uint8",
					"internalType": "uint8"
				}
			]
		},
		{
			"type": "error",
			"name": "JBSucker_InvalidNativeRemoteAddress",
			"inputs": [
				{
					"name": "remoteToken",
					"type": "bytes32",
					"internalType": "bytes32"
				}
			]
		},
		{
			"type": "error",
			"name": "JBSucker_InvalidProof",
			"inputs": [
				{
					"name": "root",
					"type": "bytes32",
					"internalType": "bytes32"
				},
				{
					"name": "inboxRoot",
					"type": "bytes32",
					"internalType": "bytes32"
				}
			]
		},
		{
			"type": "error",
			"name": "JBSucker_LeafAlreadyExecuted",
			"inputs": [
				{
					"name": "token",
					"type": "address",
					"internalType": "address"
				},
				{
					"name": "index",
					"type": "uint256",
					"internalType": "uint256"
				}
			]
		},
		{
			"type": "error",
			"name": "JBSucker_NoRetainedToRemoteFee",
			"inputs": [
				{
					"name": "account",
					"type": "address",
					"internalType": "address"
				}
			]
		},
		{
			"type": "error",
			"name": "JBSucker_NoRetainedTransportPaymentRefund",
			"inputs": [
				{
					"name": "account",
					"type": "address",
					"internalType": "address"
				}
			]
		},
		{
			"type": "error",
			"name": "JBSucker_NoTerminalForToken",
			"inputs": [
				{
					"name": "projectId",
					"type": "uint256",
					"internalType": "uint256"
				},
				{
					"name": "token",
					"type": "address",
					"internalType": "address"
				}
			]
		},
		{
			"type": "error",
			"name": "JBSucker_NotPeer",
			"inputs": [
				{
					"name": "caller",
					"type": "bytes32",
					"internalType": "bytes32"
				}
			]
		},
		{
			"type": "error",
			"name": "JBSucker_NothingToSend",
			"inputs": [
				{
					"name": "token",
					"type": "address",
					"internalType": "address"
				},
				{
					"name": "outboxBalance",
					"type": "uint256",
					"internalType": "uint256"
				},
				{
					"name": "treeCount",
					"type": "uint256",
					"internalType": "uint256"
				},
				{
					"name": "numberOfClaimsSent",
					"type": "uint256",
					"internalType": "uint256"
				}
			]
		},
		{
			"type": "error",
			"name": "JBSucker_RefundFailed",
			"inputs": [
				{
					"name": "beneficiary",
					"type": "address",
					"internalType": "address"
				},
				{
					"name": "amount",
					"type": "uint256",
					"internalType": "uint256"
				}
			]
		},
		{
			"type": "error",
			"name": "JBSucker_RemoteTokenAlreadyMapped",
			"inputs": [
				{
					"name": "remoteToken",
					"type": "bytes32",
					"internalType": "bytes32"
				},
				{
					"name": "localToken",
					"type": "address",
					"internalType": "address"
				}
			]
		},
		{
			"type": "error",
			"name": "JBSucker_TokenAlreadyMapped",
			"inputs": [
				{
					"name": "localToken",
					"type": "address",
					"internalType": "address"
				},
				{
					"name": "mappedTo",
					"type": "bytes32",
					"internalType": "bytes32"
				}
			]
		},
		{
			"type": "error",
			"name": "JBSucker_TokenHasInvalidEmergencyHatchState",
			"inputs": [
				{
					"name": "token",
					"type": "address",
					"internalType": "address"
				}
			]
		},
		{
			"type": "error",
			"name": "JBSucker_TokenNotMapped",
			"inputs": [
				{
					"name": "token",
					"type": "address",
					"internalType": "address"
				}
			]
		},
		{
			"type": "error",
			"name": "JBSucker_UnexpectedMsgValue",
			"inputs": [
				{
					"name": "value",
					"type": "uint256",
					"internalType": "uint256"
				}
			]
		},
		{
			"type": "error",
			"name": "JBSucker_UnexpectedTokenBalance",
			"inputs": [
				{
					"name": "token",
					"type": "address",
					"internalType": "address"
				},
				{
					"name": "expectedBalance",
					"type": "uint256",
					"internalType": "uint256"
				},
				{
					"name": "actualBalance",
					"type": "uint256",
					"internalType": "uint256"
				}
			]
		},
		{
			"type": "error",
			"name": "JBSucker_ZeroBeneficiary",
			"inputs": [
				{
					"name": "beneficiary",
					"type": "bytes32",
					"internalType": "bytes32"
				}
			]
		},
		{
			"type": "error",
			"name": "JBSucker_ZeroERC20Token",
			"inputs": [
				{
					"name": "projectId",
					"type": "uint256",
					"internalType": "uint256"
				}
			]
		},
		{
			"type": "error",
			"name": "JBSucker_ZeroProjectTokenCount",
			"inputs": []
		},
		{
			"type": "error",
			"name": "MerkleLib_InsertTreeIsFull",
			"inputs": [
				{
					"name": "size",
					"type": "uint256",
					"internalType": "uint256"
				},
				{
					"name": "maxLeaves",
					"type": "uint256",
					"internalType": "uint256"
				}
			]
		},
		{
			"type": "error",
			"name": "NotInitializing",
			"inputs": []
		},
		{
			"type": "error",
			"name": "SafeERC20FailedOperation",
			"inputs": [
				{
					"name": "token",
					"type": "address",
					"internalType": "address"
				}
			]
		}
	],
	"args": [
		"0xDBaA9E5E29703035af830442A5140cB515fFc17D",
		"0x64AdBfeA4C04557aEcc4a0DCf9Afd2465b915851",
		"0x8dC962f3C239788e2E037dC0e0eaC59C1DfA00D6",
		"0x07986D1Da3F75bFB685B6CDEe856c24558BB5b37",
		"1",
		"0x12D6958823BFa587Ffc54EC911FA6350a13cc593",
		"0xc3d209565fA468581cdE5F6F3e381F7CcabC76C9"
	],
	"solcInputHash": "3155f5626490b8a608efeaf7a4831546",
	"bytecode": "0x6101a0604052348015610010575f5ffd5b50604051615a4a380380615a4a83398101604081905261002f916102b1565b6001600160a01b0380821660805280861660a052861660c081905260e08490526040805163293c499960e01b8152905189928992899289928992899289928892889288928892889288929163293c49999160048083019260209291908290030181865afa1580156100a2573d5f5f3e3d5ffd5b505050506040513d601f19601f820116820180604052508101906100c6919061033e565b6001600160a01b0390811661010052828116610120528416610140526100ea6101eb565b505050505050866001600160a01b03166328db992a6040518163ffffffff1660e01b8152600401602060405180830381865afa15801561012c573d5f5f3e3d5ffd5b505050506040513d601f19601f82011682018060405250810190610150919061033e565b6001600160a01b0316610160816001600160a01b031681525050866001600160a01b031663516bf2f36040518163ffffffff1660e01b8152600401602060405180830381865afa1580156101a6573d5f5f3e3d5ffd5b505050506040513d601f19601f820116820180604052508101906101ca919061033e565b6001600160a01b031661018052506103609c50505050505050505050505050565b7ff0c57e16840df040f15088dc2f81fe391c3923bec73e23a9662efc9c229c6a00805468010000000000000000900460ff161561023b5760405163f92ee8a960e01b815260040160405180910390fd5b80546001600160401b039081161461029a5780546001600160401b0319166001600160401b0390811782556040519081527fc7f505b2f371ae2175ee4913f4499e1f2633a7b5936321eed1cdaeb6115181d29060200160405180910390a15b50565b6001600160a01b038116811461029a575f5ffd5b5f5f5f5f5f5f5f60e0888a0312156102c7575f5ffd5b87516102d28161029d565b60208901519097506102e38161029d565b60408901519096506102f48161029d565b60608901519095506103058161029d565b608089015160a08a0151919550935061031d8161029d565b60c089015190925061032e8161029d565b8091505092959891949750929550565b5f6020828403121561034e575f5ffd5b81516103598161029d565b9392505050565b60805160a05160c05160e05161010051610120516101405161016051610180516155f26104585f395f8181610a57015281816125e201528181612629015281816132ab015261448101525f81816103df01528181614387015281816143ae015261445101525f81816103ac015261130d01525f818161032c01528181611570015261222f01525f81816104120152612b3c01525f818161065e0152818161162d015261168501525f81816107e7015281816118110152818161301d015281816134b30152818161397d0152613e3801525f81816109da0152612c1801525f8181610553015281816106ad01526138e401526155f25ff3fe6080604052600436106102a8575f3560e01c80637de6fba21161016f578063cdfceeba116100d8578063f3aefd7b11610092578063fc072f231161006d578063fc072f2314610a27578063fc8fa43d14610a46578063fc9f18b014610a79578063fe4b84df14610a9c575f5ffd5b8063f3aefd7b146109aa578063f434c914146109c9578063f925558c146109fc575f5ffd5b8063cdfceeba14610906578063cf26bafb1461091a578063cf2a1c741461092f578063d5f3948814610942578063d935222f14610960578063eac1f29e1461097f575f5ffd5b8063af629bbb11610129578063af629bbb14610853578063b71c117914610872578063bf557aee14610885578063c19d93fb146108be578063c1ca1ec7146108df578063cbb2adce146108e7575f5ffd5b80637de6fba2146106d1578063802c8fa0146107aa57806388bc2ef3146107d657806392ee1ea7146108095780639c43eb541461081f5780639e6d7d4314610834575f5ffd5b80633fafa127116102115780635cc4f369116101cb5780635cc4f369146105835780636284386a146105b95780636d9e384b146105d85780636f4115a91461064d57806375451559146106805780637da0a8771461069f575f5ffd5b80633fafa1271461049a5780634035d3b1146104ae57806346cb4e80146104e45780634f0677e1146105035780635417694914610518578063572b6c0514610537575f5ffd5b80631d831d5c116102625780631d831d5c1461039b5780632847f1f3146103ce578063293c499914610401578063352a34e3146104345780633a5de07d146104495780633f827a5a14610474575f5ffd5b8063014dc2a6146102b357806301ffc9a7146102c857806303da64a8146102fc57806306433b1b1461031b5780630ce92d4b1461036657806311cda41514610379575f5ffd5b366102af57005b5f5ffd5b6102c66102c13660046146f1565b610abb565b005b3480156102d3575f5ffd5b506102e76102e2366004614760565b610beb565b60405190151581526020015b60405180910390f35b348015610307575f5ffd5b506102c6610316366004614787565b610c57565b348015610326575f5ffd5b5061034e7f000000000000000000000000000000000000000000000000000000000000000081565b6040516001600160a01b0390911681526020016102f3565b6102c66103743660046147e7565b610d70565b348015610384575f5ffd5b5061038d610d94565b6040519081526020016102f3565b3480156103a6575f5ffd5b5061034e7f000000000000000000000000000000000000000000000000000000000000000081565b3480156103d9575f5ffd5b5061034e7f000000000000000000000000000000000000000000000000000000000000000081565b34801561040c575f5ffd5b5061034e7f000000000000000000000000000000000000000000000000000000000000000081565b34801561043f575f5ffd5b5061038d60025481565b348015610454575f5ffd5b5061045f62030d4081565b60405163ffffffff90911681526020016102f3565b34801561047f575f5ffd5b50610488600181565b60405160ff90911681526020016102f3565b3480156104a5575f5ffd5b5060115461038d565b3480156104b9575f5ffd5b5061038d6104c8366004614814565b600160209081525f928352604080842090915290825290205481565b3480156104ef575f5ffd5b506102c66104fe36600461483e565b610dab565b34801561050e575f5ffd5b5061038d60045481565b348015610523575f5ffd5b506102c6610532366004614874565b610e4b565b348015610542575f5ffd5b506102e7610551366004614894565b7f00000000000000000000000000000000000000000000000000000000000000006001600160a01b0390811691161490565b34801561058e575f5ffd5b50610597610f44565b60408051825181526020808401519082015291810151908201526060016102f3565b3480156105c4575f5ffd5b506102c66105d33660046148af565b610f90565b3480156105e3575f5ffd5b506106406105f2366004614894565b604080518082019091525f8082526020820152506001600160a01b03165f908152600a6020908152604091829020825180840190935280546001600160401b03168352600101549082015290565b6040516102f391906148d3565b348015610658575f5ffd5b5061038d7f000000000000000000000000000000000000000000000000000000000000000081565b34801561068b575f5ffd5b506102c661069a3660046148f3565b611076565b3480156106aa575f5ffd5b507f000000000000000000000000000000000000000000000000000000000000000061034e565b3480156106dc575f5ffd5b5061076d6106eb366004614894565b604080516080810182525f808252602082018190529181018290526060810191909152506001600160a01b03165f908152600f60209081526040918290208251608081018452815460ff808216151583526101008204161515938201939093526201000090920463ffffffff1692820192909252600190910154606082015290565b6040516102f3919081511515815260208083015115159082015260408083015163ffffffff16908201526060918201519181019190915260800190565b3480156107b5575f5ffd5b506107c96107c4366004614894565b611193565b6040516102f39190614952565b3480156107e1575f5ffd5b5061034e7f000000000000000000000000000000000000000000000000000000000000000081565b348015610814575f5ffd5b5061045f620493e081565b34801561082a575f5ffd5b5061038d60075481565b34801561083f575f5ffd5b5061038d61084e366004614894565b61123c565b34801561085e575f5ffd5b506102c661086d3660046149c4565b6112c9565b6102c6610880366004614894565b611453565b348015610890575f5ffd5b506102e761089f366004614894565b6001600160a01b03165f908152600f6020526040902060010154151590565b3480156108c9575f5ffd5b506108d261178c565b6040516102f39190614a1d565b6102c66117d3565b3480156108f2575f5ffd5b506102c6610901366004614a43565b61190a565b348015610911575f5ffd5b5061038d6119ef565b348015610925575f5ffd5b5061038d60035481565b6102c661093d366004614a55565b611a43565b34801561094d575f5ffd5b505f5461034e906001600160a01b031681565b34801561096b575f5ffd5b506102c661097a366004614a43565b611cab565b34801561098a575f5ffd5b5061038d610999366004614894565b60066020525f908152604090205481565b3480156109b5575f5ffd5b506102c66109c4366004614894565b611db6565b3480156109d4575f5ffd5b5061034e7f000000000000000000000000000000000000000000000000000000000000000081565b348015610a07575f5ffd5b5061038d610a16366004614894565b60056020525f908152604090205481565b348015610a32575f5ffd5b506102c6610a41366004614894565b611ecd565b348015610a51575f5ffd5b5061034e7f000000000000000000000000000000000000000000000000000000000000000081565b348015610a84575f5ffd5b50610a8d611fbf565b6040516102f393929190614a8c565b348015610aa7575f5ffd5b506102c6610ab6366004614b1b565b612074565b5f5f5b82811015610b66575f600e5f868685818110610adc57610adc614b32565b610af29260206060909202019081019150614894565b6001600160a01b0316815260208101919091526040015f9081209150858584818110610b2057610b20614b32565b90506060020160400135148015610b4c575060228101548154600160401b90046001600160c01b031614155b15610b5d57610b5a83614b5a565b92505b50600101610abe565b505f8115610b7d57610b788234614b86565b610b7f565b5f5b90505f5f5b84811015610bc157610bad868683818110610ba157610ba1614b32565b9050606002018461216c565b610bb79083614b99565b9150600101610b84565b5080341115610be457610be4610bd561254f565b610bdf8334614bac565b61255d565b5050505050565b5f6001600160e01b031982166314a66dd360e21b1480610c1b57506001600160e01b031982166320cc1c1160e11b145b80610c3657506001600160e01b03198216633d0d324560e21b145b80610c5157506301ffc9a760e01b6001600160e01b03198316145b92915050565b5f5b81811015610d6b573063cbb2adce848484818110610c7957610c79614b32565b90506104c002016040518263ffffffff1660e01b8152600401610c9c9190614bbf565b5f604051808303815f87803b158015610cb3575f5ffd5b505af1925050508015610cc4575060015b610d6357828282818110610cda57610cda614b32565b610cf19260206104c0909202019081019150614894565b6001600160a01b03167fc1054f794d197971822697afa7ff4777cac6fb7a512e4bfec63aebaab98187b6848484818110610d2d57610d2d614b32565b90506104c002016020015f0135610d4261254f565b604080519283526001600160a01b0390911660208301520160405180910390a25b600101610c59565b505050565b5f610d7b823461216c565b905080341115610d9057610d90610bd561254f565b5050565b6013545f908015610da457919050565b3091505090565b610db4336125df565b610ddf57335b60405163f957028d60e01b8152600401610dd691815260200190565b60405180910390fd5b6001610dee6020830183614c2c565b60ff1614610e2957610e036020820182614c2c565b60405163e667c12560e01b815260ff909116600482015260016024820152604401610dd6565b610e4860608201356020830135610e436040850185614c47565b6126bb565b50565b5f610e54612a6c565b805490915060ff600160401b82041615906001600160401b03165f81158015610e7a5750825b90505f826001600160401b03166001148015610e955750303b155b905081158015610ea3575080155b15610ec15760405163f92ee8a960e01b815260040160405180910390fd5b845467ffffffffffffffff191660011785558315610eeb57845460ff60401b1916600160401b1785555b610ef58787612a94565b8315610f3b57845460ff60401b19168555604051600181527fc7f505b2f371ae2175ee4913f4499e1f2633a7b5936321eed1cdaeb6115181d29060200160405180910390a15b50505050505050565b610f6560405180606001604052805f81526020015f81526020015f81525090565b60405180606001604052806002548152602001610f806119ef565b8152602001600754815250905090565b610f98612ac9565b5f610fa260115490565b9050610fb8610fb082612b24565b826024612bad565b5f610fc66212750042614b99565b905064ffffffffff831615801590610fe55750808364ffffffffff1611155b1561101357604051630111a46b60e21b815264ffffffffff8416600482015260248101829052604401610dd6565b64ffffffffff83166008557f455efa76af2a8686dc0dd3041bda89ece5ba4691277d525e2161003bbca8b2458361104861254f565b6040805164ffffffffff90931683526001600160a01b039091166020830152015b60405180910390a1505050565b5f61108060115490565b905061109661108e82612b24565b826023612bad565b5f5b82811015611158575f600f5f8686858181106110b6576110b6614b32565b90506020020160208101906110cb9190614894565b6001600160a01b0316815260208101919091526040015f908120805460ff191692151592909217909155600190600f9086868581811061110d5761110d614b32565b90506020020160208101906111229190614894565b6001600160a01b0316815260208101919091526040015f2080549115156101000261ff0019909216919091179055600101611098565b507f8021bce60b20a9afb57085869a3552e0ee5b272b868df894fb30c5e90e74c072838361118461254f565b60405161106993929190614c93565b61119b614624565b6001600160a01b0382165f908152600e6020908152604091829020825160808101845281546001600160401b0381168252600160401b90046001600160c01b031681840152600182015481850152835161044081018086529194929360608601939192600286019284929083019184919082845b81548152602001906001019080831161120f57505050918352505060209182015491015290525092915050565b6001600160a01b0381165f908152600e602052604081206001015481906112638430612cc2565b61126d9190614bac565b905061eeed196001600160a01b03841601610c515760035480821161129557505f9392505050565b61129f8183614bac565b6004549092508083116112b657505f949350505050565b6112c08184614bac565b95945050505050565b845f036112e957604051632bcf4c5760e21b815260040160405180910390fd5b8361130a5760405163b2fe07f160e01b815260048101859052602401610dd6565b5f7f00000000000000000000000000000000000000000000000000000000000000006001600160a01b031663ea78803f61134360115490565b6040518263ffffffff1660e01b815260040161136191815260200190565b602060405180830381865afa15801561137c573d5f5f3e3d5ffd5b505050506040513d601f19601f820116820180604052508101906113a09190614cf5565b90506001600160a01b0381166113cf576011546040516309794d0160e11b8152600401610dd691815260200190565b6001600160a01b0383165f908152600f602052604090205460ff166114125760405163027edf0360e11b81526001600160a01b0384166004820152602401610dd6565b61141a612ac9565b61143761142561254f565b6001600160a01b038316903089612d56565b5f61144482888688612d8c565b9050610f3b8785838987612e9f565b6001600160a01b0381165f908152600f60209081526040918290208251608081018452815460ff808216151583526101008204161580159483019490945262010000900463ffffffff16938101939093526001015460608301526114d5576040516304bba81f60e41b81526001600160a01b0383166004820152602401610dd6565b6001600160a01b0382165f908152600e602052604090206001810154158015611513575080546022820154600160401b9091046001600160c01b0316145b1561156d5760018101546022820154825460405163096c1e2160e21b81526001600160a01b038716600482015260248101939093526044830191909152600160401b90046001600160c01b03166064820152608401610dd6565b5f7f00000000000000000000000000000000000000000000000000000000000000006001600160a01b031663421159156040518163ffffffff1660e01b8152600401602060405180830381865afa1580156115ca573d5f5f3e3d5ffd5b505050506040513d601f19601f820116820180604052508101906115ee9190614d10565b90508034101561161a57604051630ee99a4760e01b815234600482015260248101829052604401610dd6565b5f6116258234614bac565b90505f6116547f000000000000000000000000000000000000000000000000000000000000000061eeee612ff5565b90505f6001600160a01b0382161580159061166e57508315155b1561175e57816001600160a01b031663fef43257857f000000000000000000000000000000000000000000000000000000000000000061eeee886116b061254f565b5f6040518763ffffffff1660e01b81526004016117189594939291909485526001600160a01b03938416602086015260408501929092529091166060830152608082015260e060a082018190525f90820181905261010060c083018190528201526101200190565b60206040518083038185885af193505050508015611753575060408051601f3d908101601f1916820190925261175091810190614d10565b60015b1561175e5760019150505b8015801561176b57508315155b156117815761178161177b61254f565b85613088565b610f3b838888613124565b6008545f9080820361179f575f91505090565b6117ac6212750082614bac565b4210156117bb57600191505090565b804210156117cb57600291505090565b600391505090565b6117db612ac9565b5f6117f260128054600101908190554260801b1790565b90505f73129fc28f9beb5deb3ec4ef65dcdce5dd2185dde563726a4a817f000000000000000000000000000000000000000000000000000000000000000061183960115490565b6040516001600160e01b031960e085901b1681526001600160a01b039092166004830152602482015260016044820152606481018590526084015f60405180830381865af415801561188d573d5f5f3e3d5ffd5b505050506040513d5f823e601f3d908101601f191682016040526118b49190810190614eac565b90507f77bd1556265e71d247f11bb5886efda7fd5e5b21e6a4d2c871e8e6b49ac92f3d826118e061254f565b604080519283526001600160a01b0390911660208301520160405180910390a1610d903482613287565b61193c606082013561191f6020840184614894565b6080840135604085013560a0860135602087013560c0880161336e565b7fa8d6760b4e1a89f513fc87990f66d051c419d735fb8191104014e0529d9ae2d3604082013561196f6020840184614894565b60608401356080850135602086013560a087013561198b61254f565b604080519788526001600160a01b0396871660208901528701949094526060860192909252608085015260a08401521660c082015260e00160405180910390a1610e486119db6020830183614894565b608083013560608401356040850135613480565b5f466001819003611a035761210591505090565b8061210503611a1457600191505090565b8062aa36a703611a285762014a3491505090565b8062014a3403611a3c5762aa36a791505090565b5f91505090565b611a4c336125df565b611a565733610dba565b6001611a656020830183614c2c565b60ff1614611a7a57610e036020820182614c2c565b6001600160a01b036020828101359182165f908152600a9091526040902080546001600160401b0316611ab36080850160608601614f53565b6001600160401b03161115611c1057611ad26080840160608501614f53565b815467ffffffffffffffff19166001600160401b03919091161781556080830135600182018190557f27ae5ba08d7291c96c8cbddcc148bf48a6d68c7974b94356f53754ef6171d75714611b92576001600160a01b0382165f908152600b6020526040812054600490611b46906001614b99565b611b509190614f6e565b6001600160a01b0384165f908152600b60209081526040808320849055600c90915290209091506080850135908260048110611b8e57611b8e614b32565b0155505b6001600160a01b0382167fc69d3412489554fb7820c4c2784cb644b6c79bfc117444b93977d3d33a9b8eac611bcd6080860160608701614f53565b6080860135611bda61254f565b604080516001600160401b03909416845260208401929092526001600160a01b03169082015260600160405180910390a2611c91565b6001600160a01b0382167f2eb8abf720d2b9cf9e357f7a24a2bee502a7bdba38de0de230e10c33dafbd3eb611c4b6080860160608701614f53565b83546001600160401b0316611c5e61254f565b604080516001600160401b0394851681529390921660208401526001600160a01b03169082015260600160405180910390a25b610d6b60e084013560a0850135610e4360c0870187614c47565b611cdd6060820135611cc06020840184614894565b6080840135604085013560a0860135602087013560c088016135be565b6080810135600e5f611cf26020850185614894565b6001600160a01b03166001600160a01b031681526020019081526020015f206001015f828254611d229190614bac565b90915550611d3590506020820182614894565b6001600160a01b031660408201356001600160a01b03167fe33107c4043e574d8a4da32dac235e219f8f34a0e45e473ea6643a6145f2528560808401356060850135611d7f61254f565b6040805193845260208401929092526001600160a01b03169082015260600160405180910390a3610e486119db6020830183614894565b6001600160a01b038116611ddf5760405163b2fe07f160e01b81525f6004820152602401610dd6565b5f611de861254f565b6001600160a01b0381165f90815260066020526040812054919250819003611e2e57604051631733ad2160e21b81526001600160a01b0383166004820152602401610dd6565b6001600160a01b0382165f90815260066020526040812081905560048054839290611e5a908490614bac565b90915550611e6a9050838261255d565b826001600160a01b0316826001600160a01b03167ffbcfe54e4aa35e7772f25a5f52fedccde889e4fc5031ad9826b9bf6b890baa5983611ea861254f565b604080519283526001600160a01b0390911660208301520160405180910390a3505050565b6001600160a01b038116611ef65760405163b2fe07f160e01b81525f6004820152602401610dd6565b5f611eff61254f565b6001600160a01b0381165f90815260056020526040812054919250819003611f455760405163578a51dd60e11b81526001600160a01b0383166004820152602401610dd6565b6001600160a01b0382165f90815260056020526040812081905560038054839290611f71908490614bac565b90915550611f819050838261255d565b826001600160a01b0316826001600160a01b03167f1e70ff8443e61b2a2555b5ad56645461a75dd29591b5c4a6281f70a6d395db4583611ea861254f565b60605f5f6014611fcd6119ef565b60075482805480602002602001604051908101604052809291908181526020015f905b82821015612063575f8481526020908190206040805160808101825260028602909201805463ffffffff8116845260ff640100000000820416848601526001600160801b036501000000000090910481169284019290925260019081015490911660608301529083529092019101611ff0565b505050509250925092509250909192565b5f61207d612a6c565b805490915060ff600160401b82041615906001600160401b03165f811580156120a35750825b90505f826001600160401b031660011480156120be5750303b155b9050811580156120cc575080155b156120ea5760405163f92ee8a960e01b815260040160405180910390fd5b845467ffffffffffffffff19166001178555831561211457845460ff60401b1916600160401b1785555b61211e865f612a94565b831561216457845460ff60401b19168555604051600181527fc7f505b2f371ae2175ee4913f4499e1f2633a7b5936321eed1cdaeb6115181d29060200160405180910390a15b505050505050565b5f8061217b6020850185614894565b6001600160a01b0381165f908152600f60209081526040918290208251608081018452815460ff808216151583526101008204161580159483019490945262010000900463ffffffff169381019390935260010154606083015291925090612201576040516304bba81f60e41b81526001600160a01b0383166004820152602401610dd6565b61220a856137fc565b5f61221460115490565b905061226661222282612b24565b8260206001600160a01b037f00000000000000000000000000000000000000000000000000000000000000001661225761254f565b6001600160a01b0316146138c3565b60608201511580159061228157508560400135826060015114155b80156122905750604086013515155b80156122b557506001600160a01b0383165f908152600e602052604090206022015415155b156122eb57606082015160405163aef430a360e01b81526001600160a01b03851660048201526024810191909152604401610dd6565b604086013515612365576040808701355f908152600d60205220546001600160a01b031680158015906123305750836001600160a01b0316816001600160a01b031614155b15612363576040805163d6a305d960e01b81529088013560048201526001600160a01b0382166024820152604401610dd6565b505b60408601351580156123a357506001600160a01b0383165f908152600e6020526040902060228101549054600160401b90046001600160c01b031614155b156123d6576001600160a01b0383165f908152600f60205260409020805460ff191690556123d2858484613124565b8493505b6040860135158015906123ec5750606082015115155b801561240057508560400135826060015114155b8015612429575060608201515f908152600d60205260409020546001600160a01b038481169116145b1561244f5760608201515f908152600d6020526040902080546001600160a01b03191690555b5f60408701351561246457866040013561246a565b82606001515b90508015612499575f818152600d6020526040902080546001600160a01b0319166001600160a01b0386161790555b604080516080810182528882018035151582525f60208084019190915291928301916124c791908b01614f92565b63ffffffff90811682526020918201939093526001600160a01b039095165f908152600f8652604090819020825181549784015192840151909416620100000265ffffffff0000199215156101000261ff00199515159590951661ffff1990981697909717939093171694909417815560609093015160019093019290925550909392505050565b5f6125586138d3565b905090565b5f826001600160a01b0316826040515f6040518083038185875af1925050503d805f81146125a6576040519150601f19603f3d011682016040523d82523d5f602084013e6125ab565b606091505b5050905080610d6b57604051630590bd2d60e41b81526001600160a01b038416600482015260248101839052604401610dd6565b5f7f00000000000000000000000000000000000000000000000000000000000000006001600160a01b0316826001600160a01b0316148015610c515750612624610d94565b6126b47f00000000000000000000000000000000000000000000000000000000000000006001600160a01b0316636e296e456040518163ffffffff1660e01b81526004016020604051808303815f875af1158015612684573d5f5f3e3d5ffd5b505050506040513d601f19601f820116820180604052508101906126a89190614cf5565b6001600160a01b031690565b1492915050565b600754841115612a6657600784905560028390556126da60145f614660565b805f5b8181101561216457368484838181106126f8576126f8614b32565b6080029190910180355f908152600d60205260409020549092506001600160a01b0316905080612726575080355b5f5f6127318361393d565b9150915080801561275d57506001600160a01b0383165f9081526010602052604090205463ffffffff16155b1561278d576001600160a01b0383165f908152601060205260409020805463ffffffff191663ffffffff84161790555b6014545f805b82811015612945578463ffffffff16601482815481106127b5576127b5614b32565b5f91825260209091206002909102015463ffffffff1614801561281657506127e36040880160208901614c2c565b60ff16601482815481106127f9576127f9614b32565b5f918252602090912060029091020154640100000000900460ff16145b1561293d576128686014828154811061283157612831614b32565b5f9182526020909120600290910201546501000000000090046001600160801b031661286360608a0160408b01614fad565b613b7b565b6014828154811061287b5761287b614b32565b905f5260205f2090600202015f0160056101000a8154816001600160801b0302191690836001600160801b031602179055506128ef601482815481106128c3576128c3614b32565b5f9182526020909120600160029092020101546001600160801b031661286360808a0160608b01614fad565b6014828154811061290257612902614b32565b905f5260205f2090600202016001015f6101000a8154816001600160801b0302191690836001600160801b0316021790555060019150612945565b600101612793565b5080612a5557601460405180608001604052808663ffffffff1681526020018860200160208101906129779190614c2c565b60ff16815260200161298f60608a0160408b01614fad565b6001600160801b031681526020016129ad60808a0160608b01614fad565b6001600160801b039081169091528254600181810185555f948552602094859020845160029093020180549585015160408601518516650100000000000274ffffffffffffffffffffffffffffffff00000000001960ff9092166401000000000264ffffffffff1990981663ffffffff909516949094179690961795909516919091178455606090920151929091018054929091166001600160801b03199092169190911790555b8660010196505050505050506126dd565b50505050565b5f807ff0c57e16840df040f15088dc2f81fe391c3923bec73e23a9662efc9c229c6a00610c51565b60118290556013819055612aa661254f565b5f80546001600160a01b0319166001600160a01b03929092169190911790555050565b5f612ad261178c565b90506003816003811115612ae857612ae8614a09565b1480612b0557506002816003811115612b0357612b03614a09565b145b15610e48578060405162a7958f60e81b8152600401610dd69190614a1d565b6040516331a9108f60e11b8152600481018290525f907f00000000000000000000000000000000000000000000000000000000000000006001600160a01b031690636352211e90602401602060405180830381865afa158015612b89573d5f5f3e3d5ffd5b505050506040513d601f19601f82011682018060405250810190610c519190614cf5565b5f612bb661254f565b9050836001600160a01b0316816001600160a01b031614158015612c835750604051631a45b42760e11b81526001600160a01b0382811660048301528581166024830152604482018590526064820184905260016084830181905260a48301527f0000000000000000000000000000000000000000000000000000000000000000169063348b684e9060c401602060405180830381865afa158015612c5d573d5f5f3e3d5ffd5b505050506040513d601f19601f82011682018060405250810190612c819190614fc8565b155b15612a6657604051631326f75560e11b81526001600160a01b038086166004830152821660248201526044810184905260648101839052608401610dd6565b5f61eeed196001600160a01b03841601612ce757506001600160a01b03811631610c51565b6040516370a0823160e01b81526001600160a01b0383811660048301528416906370a0823190602401602060405180830381865afa158015612d2b573d5f5f3e3d5ffd5b505050506040513d601f19601f82011682018060405250810190612d4f9190614d10565b9392505050565b612d64848484846001613ba9565b612a6657604051635274afe760e01b81526001600160a01b0385166004820152602401610dd6565b5f5f612d9760115490565b90505f612da48286612ff5565b90506001600160a01b038116612ddf5760405163b61c181f60e01b8152600481018390526001600160a01b0386166024820152604401610dd6565b5f612dea8630612cc2565b604080516020810182525f815290516313da831760e01b81529192506001600160a01b038416916313da831791612e2f91309188918d918d918d918691600401615015565b6020604051808303815f875af1158015612e4b573d5f5f3e3d5ffd5b505050506040513d601f19601f82011682018060405250810190612e6f9190614d10565b935080612e7c8730612cc2565b612e869190614bac565b8414612e9457612e9461506a565b505050949350505050565b6001600160801b03831115612eca576040516335bf001160e11b815260048101849052602401610dd6565b6001600160801b03851115612ef5576040516335bf001160e11b815260048101869052602401610dd6565b6040805186815260208082018690528183018590526060820184905260809091206001600160a01b0387165f908152600e909252919020612f396002820183613c16565b84816001015f828254612f4c9190614b99565b92505081905550856001600160a01b0316847fc92fa1150c24ee5470c272112539aab52450a5e05573e7ea7bdfb98829b893218460018560020160200154612f949190614bac565b612fa086600201613d01565b8c8b8a612fab61254f565b604080519788526020880196909652948601939093526060850191909152608084015260a08301526001600160a01b031660c082015260e00160405180910390a350505050505050565b604051630862026560e41b8152600481018390526001600160a01b0382811660248301525f917f000000000000000000000000000000000000000000000000000000000000000090911690638620265090604401602060405180830381865afa158015613064573d5f5f3e3d5ffd5b505050506040513d601f19601f82011682018060405250810190612d4f9190614cf5565b6001600160a01b0382165f90815260056020526040812080548392906130af908490614b99565b925050819055508060035f8282546130c79190614b99565b90915550506001600160a01b0382167f2a3798c6648c17f70b43a33a8378cec543367ac1543e62aa7b392660569717778261310061254f565b604080519283526001600160a01b0390911660208301520160405180910390a25050565b60608101516131515760405163027edf0360e11b81526001600160a01b0383166004820152602401610dd6565b613159612ac9565b6001600160a01b0382165f908152600e6020526040812060228101548291829182919080830361318e57505050505050505050565b6001820180545f9182905583549097508391906131b3906001600160401b031661507e565b91906101000a8154816001600160401b0302191690836001600160401b03160217905594506131e482600201613d01565b82546001600160401b0316600160401b6001600160c01b03841602178355935061320f600182614bac565b92505050856001600160a01b0316827f47c5615513b0f669da2dd7e3362a34610ca2695d0a0e2da2160cee952eab203c838661324961254f565b604080519384526001600160401b0390921660208401526001600160a01b03169082015260600160405180910390a3610f3b87878787878787613e02565b81156132a957604051636ba3461960e11b815260048101839052602401610dd6565b7f00000000000000000000000000000000000000000000000000000000000000006001600160a01b0316633dbb202b6132e66132e3610d94565b90565b836040516024016132f7919061511d565b60408051601f198184030181529181526020820180516001600160e01b0316628d969d60e71b179052516001600160e01b031960e085901b168152613345929190620493e090600401615165565b5f604051808303815f87803b15801561335c575f5ffd5b505af1158015612164573d5f5f3e3d5ffd5b6401000000008210613396576040516309f6605160e41b815260048101839052602401610dd6565b6001600160a01b0386165f908152600960209081526040808320600886901c8452909152902054600160ff84161b16156133f557604051632939af3b60e21b81526001600160a01b038716600482015260248101839052604401610dd6565b6001600160a01b0386165f818152600960209081526040808320600887901c845282528083208054600160ff891681901b90911790915581518c81528084018b90528083018a905260608101899052608090209484528252808320868452909152812082905561346788838686613f16565b90506134758183868661402c565b505050505050505050565b5f61348a60115490565b9050831561349d5761349d8585836140d3565b604051632eec7b5560e11b8152600481018290527f00000000000000000000000000000000000000000000000000000000000000006001600160a01b031690635dd8f6aa90602401602060405180830381865afa158015613500573d5f5f3e3d5ffd5b505050506040513d601f19601f820116820180604052508101906135249190614cf5565b6001600160a01b031663c7fb92de8285856040516001600160e01b031960e086901b168152600481019390935260248301919091526001600160a01b0316604482015260a060648201525f60a48201819052608482015260c4016020604051808303815f875af115801561359a573d5f5f3e3d5ffd5b505050506040513d601f19601f820116820180604052508101906121649190614d10565b64010000000082106135e6576040516309f6605160e41b815260048101839052602401610dd6565b5f6135ef61178c565b9050600381600381111561360557613605614a09565b141580156136255750600281600381111561362257613622614a09565b14155b801561364e57506001600160a01b0387165f908152600f6020526040902054610100900460ff16155b15613677576040516304bba81f60e41b81526001600160a01b0388166004820152602401610dd6565b6001600160a01b0387165f908152600e602052604090208054600160401b90046001600160c01b0316158015906136d55750805484906136c990600190600160401b90046001600160c01b031661519e565b6001600160c01b031610155b1561370557604051632939af3b60e21b81526001600160a01b038916600482015260248101859052604401610dd6565b604080516001600160a01b038a1660208201525f910160408051808303601f19018152918152815160209283012060601c5f8181526009845282812060088a901c8252909352912054909150600160ff87161b161561378957604051632939af3b60e21b81526001600160a01b038a16600482015260248101869052604401610dd6565b6001600160a01b039081165f908152600960209081526040808320600889901c845282528083208054600160ff8b161b179055928b168252600e905220613475906137d690600201613d01565b604080518c8152602081018b90529081018990526060810188905260809020868661402c565b5f61eeee61380d6020840184614894565b6001600160a01b031614905080801561382c575061eeee826040013514155b801561383b5750604082013515155b1561385e576040805162e80c7760e31b8152908301356004820152602401610dd6565b62030d406138726040840160208501614f92565b63ffffffff16108015613883575080155b15610d90576138986040830160208401614f92565b604051630555d0f160e41b815263ffffffff909116600482015262030d406024820152604401610dd6565b80612a6657612a66848484612bad565b5f36601480821080159061390f57507f00000000000000000000000000000000000000000000000000000000000000006001600160a01b031633145b156139355761392236828403815f6151bd565b61392b916151e4565b60601c9250505090565b339250505090565b6001600160a01b0381165f90815260106020526040812054819063ffffffff16801561396d579360019350915050565b5f61397760115490565b90505f5f7f00000000000000000000000000000000000000000000000000000000000000006001600160a01b031683886040516024016139ca9291909182526001600160a01b0316602082015260400190565b60408051601f198184030181529181526020820180516001600160e01b0316630862026560e41b179052516139ff9190615231565b5f60405180830381855afa9150503d805f8114613a37576040519150601f19603f3d011682016040523d82523d5f602084013e613a3c565b606091505b5091509150818015613a5057506020815110155b15613b6e575f81806020019051810190613a6a9190614cf5565b90506001600160a01b03811615613b6c57604051602481018590526001600160a01b0389811660448301525f91829184169060640160408051601f198184030181529181526020820180516001600160e01b0316633a01714f60e01b17905251613ad49190615231565b5f60405180830381855afa9150503d805f8114613b0c576040519150601f19603f3d011682016040523d82523d5f602084013e613b11565b606091505b5091509150818015613b2557506060815110155b15613b69575f81806020019051810190613b3f9190615247565b9050806040015163ffffffff165f14613b6757604001519a60019a5098505050505050505050565b505b50505b505b5094955f95509350505050565b5f6001600160801b0383811681841601908111613b985780613ba1565b6001600160801b035b949350505050565b6040516323b872dd60e01b5f8181526001600160a01b038781166004528616602452604485905291602083606481808c5af1925060015f51148316613c05578383151615613bf9573d5f823e3d81fd5b5f883b113d1516831692505b604052505f60605295945050505050565b5f826020015f8154613c2790614b5a565b918290555090506001613c3c6020600261539b565b613c469190614bac565b811115613c8857806001613c5c6020600261539b565b613c669190614bac565b60405163515447c160e01b815260048101929092526024820152604401610dd6565b5f5b6020811015613ceb5781600116600103613cb95782848260208110613cb157613cb1614b32565b015550505050565b5f848260208110613ccc57613ccc614b32565b01545f90815260209490945250604090922091600191821c9101613c8a565b508260200154600160206002613c5c919061539b565b60208101545f90808203613d3757507f27ae5ba08d7291c96c8cbddcc148bf48a6d68c7974b94356f53754ef6171d75792915050565b613d3f61467e565b5f5b6020811015613d89576001811b831615613d8157848160208110613d6757613d67614b32565b0154828260208110613d7b57613d7b614b32565b60200201525b600101613d41565b50604051634a490c2560e01b815273129fc28f9beb5deb3ec4ef65dcdce5dd2185dde590634a490c2590613dc390849086906004016153a6565b602060405180830381865af4158015613dde573d5f5f3e3d5ffd5b505050506040513d601f19601f82011682018060405250810190613ba19190614d10565b5f613e1960128054600101908190554260801b1790565b90505f73129fc28f9beb5deb3ec4ef65dcdce5dd2185dde563c60a0b827f0000000000000000000000000000000000000000000000000000000000000000613e6060115490565b60608b01516040516001600160e01b031960e086901b1681526001600160a01b03909316600484015260248301919091526044820152606481018990526001600160401b038816608482015260a48101879052600160c482015260e48101859052610104015f60405180830381865af4158015613edf573d5f5f3e3d5ffd5b505050506040513d5f823e601f3d908101601f19168201604052613f069190810190615437565b905061347589848a898b86614331565b6001600160a01b0384165f908152600a60205260408082206001015490516307fbe4d560e41b8152829073129fc28f9beb5deb3ec4ef65dcdce5dd2185dde590637fbe4d5090613f6e90899088908a906004016154ee565b602060405180830381865af4158015613f89573d5f5f3e3d5ffd5b505050506040513d601f19601f82011682018060405250810190613fad9190614d10565b9050818103613fbe57509050613ba1565b6001600160a01b0387165f908152600c60205260408120905b600481101561401f575f828260048110613ff357613ff3614b32565b01549050801580159061400557508084145b15614016579450613ba19350505050565b50600101613fd7565b5091979650505050505050565b6040516307fbe4d560e41b81525f9073129fc28f9beb5deb3ec4ef65dcdce5dd2185dde590637fbe4d5090614069908790869088906004016154ee565b602060405180830381865af4158015614084573d5f5f3e3d5ffd5b505050506040513d601f19601f820116820180604052508101906140a89190614d10565b9050848114610be4576040516272c3e960e11b81526004810182905260248101869052604401610dd6565b5f6140dd8461123c565b90508083111561410a576040516360ec3e7160e01b81526004810184905260248101829052604401610dd6565b5f6141158386612ff5565b90506001600160a01b0381166141505760405163b61c181f60e01b8152600481018490526001600160a01b0386166024820152604401610dd6565b5f806001600160a01b03871661eeee148015906141df576040516370a0823160e01b81523060048201526001600160a01b038916906370a0823190602401602060405180830381865afa1580156141a9573d5f5f3e3d5ffd5b505050506040513d601f19601f820116820180604052508101906141cd9190614d10565b91506141da888589614548565b6141e3565b8692505b604051639e6eec0560e01b8152600481018790526001600160a01b038981166024830152604482018990525f6064830181905260c0608484015260c4830181905260e060a484015260e4830152851690639e6eec05908590610104015f604051808303818588803b158015614256575f5ffd5b505af1158015614268573d5f5f3e3d5ffd5b50505050508015614327575f61427e8884614bac565b6040516370a0823160e01b81523060048201529091505f906001600160a01b038b16906370a0823190602401602060405180830381865afa1580156142c5573d5f5f3e3d5ffd5b505050506040513d601f19601f820116820180604052508101906142e99190614d10565b90508181146143245760405163884aa24960e01b81526001600160a01b038b1660048201526024810183905260448101829052606401610dd6565b50505b5050505050505050565b5f861561435457604051636ba3461960e11b815260048101889052602401610dd6565b5f6143606132e3610d94565b90506001600160a01b03861661eeee1480159061437c57508415155b1561447b576143ac867f000000000000000000000000000000000000000000000000000000000000000087614548565b7f00000000000000000000000000000000000000000000000000000000000000006001600160a01b031663540abf73876143e7876060015190565b8489896040015160405180602001604052805f8152506040518763ffffffff1660e01b815260040161441e9695949392919061550e565b5f604051808303815f87803b158015614435575f5ffd5b505af1158015614447573d5f5f3e3d5ffd5b50505050614476867f00000000000000000000000000000000000000000000000000000000000000005f614548565b61447f565b8491505b7f00000000000000000000000000000000000000000000000000000000000000006001600160a01b0316633dbb202b8383866040516024016144c19190615560565b60408051601f198184030181529181526020820180516001600160e01b03166333ca871d60e21b179052516001600160e01b031960e086901b168152614510929190620493e090600401615165565b5f604051808303818588803b158015614527575f5ffd5b505af1158015614539573d5f5f3e3d5ffd5b50505050505050505050505050565b6145548383835f6145c2565b610d6b5761456583835f60016145c2565b61458d57604051635274afe760e01b81526001600160a01b0384166004820152602401610dd6565b61459a83838360016145c2565b610d6b57604051635274afe760e01b81526001600160a01b0384166004820152602401610dd6565b60405163095ea7b360e01b5f8181526001600160a01b038616600452602485905291602083604481808b5af1925060015f5114831661461857838315161561460c573d5f823e3d81fd5b5f873b113d1516831692505b60405250949350505050565b60405180608001604052805f6001600160401b031681526020015f6001600160c01b031681526020015f815260200161465b61469d565b905290565b5080545f8255600202905f5260205f2090810190610e4891906146bc565b6040518061040001604052806020906020820280368337509192915050565b60405180604001604052806146b061467e565b81526020015f81525090565b5b808211156146ed5780546001600160a81b03191681556001810180546001600160801b03191690556002016146bd565b5090565b5f5f60208385031215614702575f5ffd5b82356001600160401b03811115614717575f5ffd5b8301601f81018513614727575f5ffd5b80356001600160401b0381111561473c575f5ffd5b856020606083028401011115614750575f5ffd5b6020919091019590945092505050565b5f60208284031215614770575f5ffd5b81356001600160e01b031981168114612d4f575f5ffd5b5f5f60208385031215614798575f5ffd5b82356001600160401b038111156147ad575f5ffd5b8301601f810185136147bd575f5ffd5b80356001600160401b038111156147d2575f5ffd5b8560206104c083028401011115614750575f5ffd5b5f60608284031280156147f8575f5ffd5b509092915050565b6001600160a01b0381168114610e48575f5ffd5b5f5f60408385031215614825575f5ffd5b823561483081614800565b946020939093013593505050565b5f6020828403121561484e575f5ffd5b81356001600160401b03811115614863575f5ffd5b820160808185031215612d4f575f5ffd5b5f5f60408385031215614885575f5ffd5b50508035926020909101359150565b5f602082840312156148a4575f5ffd5b8135612d4f81614800565b5f602082840312156148bf575f5ffd5b813564ffffffffff81168114612d4f575f5ffd5b81516001600160401b031681526020808301519082015260408101610c51565b5f5f60208385031215614904575f5ffd5b82356001600160401b03811115614919575f5ffd5b8301601f81018513614929575f5ffd5b80356001600160401b0381111561493e575f5ffd5b8560208260051b8401011115614750575f5ffd5b81516001600160401b031681526020808301516001600160c01b0316908201526040808301519082015260608083015180516104808401925f9085015b60208210156149af5782518152602092830192600192909201910161498f565b50505060208101516104608401525092915050565b5f5f5f5f5f60a086880312156149d8575f5ffd5b85359450602086013593506040860135925060608601356149f881614800565b949793965091946080013592915050565b634e487b7160e01b5f52602160045260245ffd5b6020810160048310614a3d57634e487b7160e01b5f52602160045260245ffd5b91905290565b5f6104c08284031280156147f8575f5ffd5b5f60208284031215614a65575f5ffd5b81356001600160401b03811115614a7a575f5ffd5b82016101008185031215612d4f575f5ffd5b606080825284519082018190525f9060208601906080840190835b81811015614b0657835163ffffffff815116845260ff60208201511660208501526001600160801b0360408201511660408501526001600160801b03606082015116606085015250608083019250602084019350600181019050614aa7565b50506020840195909552505060400152919050565b5f60208284031215614b2b575f5ffd5b5035919050565b634e487b7160e01b5f52603260045260245ffd5b634e487b7160e01b5f52601160045260245ffd5b5f60018201614b6b57614b6b614b46565b5060010190565b634e487b7160e01b5f52601260045260245ffd5b5f82614b9457614b94614b72565b500490565b80820180821115610c5157610c51614b46565b81810381811115610c5157610c51614b46565b6104c081018235614bcf81614800565b6001600160a01b031682526020838101359083015260408084013590830152606080840135908301526080808401359083015260a0838101359083015261040060c08085019084013792915050565b60ff81168114610e48575f5ffd5b5f60208284031215614c3c575f5ffd5b8135612d4f81614c1e565b5f5f8335601e19843603018112614c5c575f5ffd5b8301803591506001600160401b03821115614c75575f5ffd5b6020019150600781901b3603821315614c8c575f5ffd5b9250929050565b604080825281018390525f8460608301825b86811015614cd5578235614cb881614800565b6001600160a01b0316825260209283019290910190600101614ca5565b506001600160a01b03949094166020939093019290925250909392505050565b5f60208284031215614d05575f5ffd5b8151612d4f81614800565b5f60208284031215614d20575f5ffd5b5051919050565b634e487b7160e01b5f52604160045260245ffd5b604051608081016001600160401b0381118282101715614d5d57614d5d614d27565b60405290565b60405160e081016001600160401b0381118282101715614d5d57614d5d614d27565b604051601f8201601f191681016001600160401b0381118282101715614dad57614dad614d27565b604052919050565b8051614dc081614c1e565b919050565b6001600160801b0381168114610e48575f5ffd5b5f82601f830112614de8575f5ffd5b81516001600160401b03811115614e0157614e01614d27565b614e1060208260051b01614d85565b8082825260208201915060208360071b860101925085831115614e31575f5ffd5b602085015b83811015614ea25760808188031215614e4d575f5ffd5b614e55614d3b565b815181526020820151614e6781614c1e565b60208201526040820151614e7a81614dc5565b60408201526060820151614e8d81614dc5565b60608201528352602090920191608001614e36565b5095945050505050565b5f60208284031215614ebc575f5ffd5b81516001600160401b03811115614ed1575f5ffd5b820160808185031215614ee2575f5ffd5b614eea614d3b565b8151614ef581614c1e565b81526020828101519082015260408201516001600160401b03811115614f19575f5ffd5b614f2586828501614dd9565b604083015250606091820151918101919091529392505050565b6001600160401b0381168114610e48575f5ffd5b5f60208284031215614f63575f5ffd5b8135612d4f81614f3f565b5f82614f7c57614f7c614b72565b500690565b63ffffffff81168114610e48575f5ffd5b5f60208284031215614fa2575f5ffd5b8135612d4f81614f81565b5f60208284031215614fbd575f5ffd5b8135612d4f81614dc5565b5f60208284031215614fd8575f5ffd5b81518015158114612d4f575f5ffd5b5f81518084528060208401602086015e5f602082860101526020601f19601f83011685010191505092915050565b6001600160a01b0388811682526020820188905260408201879052858116606083015260808201859052831660a082015260e060c082018190525f9061505d90830184614fe7565b9998505050505050505050565b634e487b7160e01b5f52600160045260245ffd5b5f6001600160401b0382166001600160401b03810361509f5761509f614b46565b60010192915050565b5f8151808452602084019350602083015f5b828110156151135781518051875260ff60208201511660208801526001600160801b0360408201511660408801526001600160801b036060820151166060880152506080860195506020820191506001810190506150ba565b5093949350505050565b6020815260ff8251166020820152602082015160408201525f60408301516080606084015261514f60a08401826150a8565b9050606084015160808401528091505092915050565b6001600160a01b03841681526060602082018190525f9061518890830185614fe7565b905063ffffffff83166040830152949350505050565b6001600160c01b038281168282160390811115610c5157610c51614b46565b5f5f858511156151cb575f5ffd5b838611156151d7575f5ffd5b5050820193919092039150565b80356bffffffffffffffffffffffff19811690601484101561522a576bffffffffffffffffffffffff196bffffffffffffffffffffffff198560140360031b1b82161691505b5092915050565b5f82518060208501845e5f920191825250919050565b5f6060828403128015615258575f5ffd5b50604051606081016001600160401b038111828210171561527b5761527b614d27565b604052825161528981614800565b8152602083015161529981614c1e565b602082015260408301516152ac81614f81565b60408201529392505050565b6001815b60018411156152f3578085048111156152d7576152d7614b46565b60018416156152e557908102905b60019390931c9280026152bc565b935093915050565b5f8261530957506001610c51565b8161531557505f610c51565b816001811461532b576002811461533557615351565b6001915050610c51565b60ff84111561534657615346614b46565b50506001821b610c51565b5060208310610133831016604e8410600b8410161715615374575081810a610c51565b6153805f1984846152b8565b805f190482111561539357615393614b46565b029392505050565b5f612d4f83836152fb565b610420810181845f5b60208110156153ce5781518352602092830192909101906001016153af565b505050826104008301529392505050565b5f604082840312156153ef575f5ffd5b604080519081016001600160401b038111828210171561541157615411614d27565b8060405250809150825161542481614f3f565b8152602092830151920191909152919050565b5f60208284031215615447575f5ffd5b81516001600160401b0381111561545c575f5ffd5b8201610100818503121561546e575f5ffd5b615476614d63565b61547f82614db5565b815260208281015190820152604080830151908201526154a285606084016153df565b606082015260a0820151608082015260c08201516001600160401b038111156154c9575f5ffd5b6154d586828501614dd9565b60a08301525060e0919091015160c08201529392505050565b838152610440810161040084602084013782610420830152949350505050565b6001600160a01b0387811682528681166020830152851660408201526060810184905263ffffffff8316608082015260c060a082018190525f9061555490830184614fe7565b98975050505050505050565b6020815260ff825116602082015260208201516040820152604082015160608201525f60608301516155a8608084018280516001600160401b03168252602090810151910152565b50608083015160c083015260a083015161010060e08401526155ce6101208401826150a8565b905060c0840151610100840152809150509291505056fea164736f6c634300081c000a",
	"gitCommit": "npm:@bananapus/suckers-v6@0.0.78",
	"gitDirty": false,
	"history": []
}