{
	"format": "sphinx-sol-ct-artifact-1",
	"address": "0xaa5d36fa6d279f7018101e04164e7e7aac685c7d",
	"sourceName": "node_modules/@bananapus/core-v6/src/periphery/JBDeadline7Days.sol",
	"contractName": "JBDeadline7Days",
	"chainId": "0x14a34",
	"abi": [
		{
			"type": "constructor",
			"inputs": [],
			"stateMutability": "nonpayable"
		},
		{
			"type": "function",
			"name": "DURATION",
			"inputs": [],
			"outputs": [
				{
					"name": "",
					"type": "uint256",
					"internalType": "uint256"
				}
			],
			"stateMutability": "view"
		},
		{
			"type": "function",
			"name": "approvalStatusOf",
			"inputs": [
				{
					"name": "",
					"type": "uint256",
					"internalType": "uint256"
				},
				{
					"name": "ruleset",
					"type": "tuple",
					"internalType": "struct JBRuleset",
					"components": [
						{
							"name": "cycleNumber",
							"type": "uint48",
							"internalType": "uint48"
						},
						{
							"name": "id",
							"type": "uint48",
							"internalType": "uint48"
						},
						{
							"name": "basedOnId",
							"type": "uint48",
							"internalType": "uint48"
						},
						{
							"name": "start",
							"type": "uint48",
							"internalType": "uint48"
						},
						{
							"name": "duration",
							"type": "uint32",
							"internalType": "uint32"
						},
						{
							"name": "weight",
							"type": "uint112",
							"internalType": "uint112"
						},
						{
							"name": "weightCutPercent",
							"type": "uint32",
							"internalType": "uint32"
						},
						{
							"name": "approvalHook",
							"type": "address",
							"internalType": "contract IJBRulesetApprovalHook"
						},
						{
							"name": "metadata",
							"type": "uint256",
							"internalType": "uint256"
						}
					]
				}
			],
			"outputs": [
				{
					"name": "",
					"type": "uint8",
					"internalType": "enum JBApprovalStatus"
				}
			],
			"stateMutability": "view"
		},
		{
			"type": "function",
			"name": "supportsInterface",
			"inputs": [
				{
					"name": "interfaceId",
					"type": "bytes4",
					"internalType": "bytes4"
				}
			],
			"outputs": [
				{
					"name": "",
					"type": "bool",
					"internalType": "bool"
				}
			],
			"stateMutability": "view"
		}
	],
	"args": [],
	"solcInputHash": "a0d5698d4f6b968fd505bb55c0b7a9fc",
	"bytecode": "0x60a0604052348015600e575f5ffd5b5062093a8060805260805161036261003b5f395f8181607001528181610121015261016701526103625ff3fe608060405234801561000f575f5ffd5b506004361061003f575f3560e01c806301ffc9a7146100435780631be052891461006b5780632bd6bd4d146100a0575b5f5ffd5b6100566100513660046101a5565b6100c0565b60405190151581526020015b60405180910390f35b6100927f000000000000000000000000000000000000000000000000000000000000000081565b604051908152602001610062565b6100b36100ae366004610262565b6100f6565b604051610062919061032f565b5f6001600160e01b03198216630c0dbbf160e21b14806100f057506001600160e01b031982166301ffc9a760e01b145b92915050565b5f816060015165ffffffffffff16826020015165ffffffffffff16111561011f575060056100f0565b7f0000000000000000000000000000000000000000000000000000000000000000826020015183606001510365ffffffffffff161061019b57816060015165ffffffffffff167f000000000000000000000000000000000000000000000000000000000000000042011061019457600461019e565b600361019e565b60055b9392505050565b5f602082840312156101b5575f5ffd5b81356001600160e01b03198116811461019e575f5ffd5b604051610120810167ffffffffffffffff811182821017156101fc57634e487b7160e01b5f52604160045260245ffd5b60405290565b803565ffffffffffff81168114610217575f5ffd5b919050565b803563ffffffff81168114610217575f5ffd5b80356dffffffffffffffffffffffffffff81168114610217575f5ffd5b80356001600160a01b0381168114610217575f5ffd5b5f5f828403610140811215610275575f5ffd5b83359250610120601f198201121561028b575f5ffd5b506102946101cc565b6102a060208501610202565b81526102ae60408501610202565b60208201526102bf60608501610202565b60408201526102d060808501610202565b60608201526102e160a0850161021c565b60808201526102f260c0850161022f565b60a082015261030360e0850161021c565b60c0820152610315610100850161024c565b60e082015261012093909301356101008401525092909150565b602081016006831061034f57634e487b7160e01b5f52602160045260245ffd5b9190529056fea164736f6c634300081c000a",
	"gitCommit": "npm:@bananapus/core-v6@0.0.81",
	"gitDirty": false,
	"history": []
}