{
	"format": "sphinx-sol-ct-artifact-1",
	"address": "0x47e77032858c6b0201b2d53f19715a7a1372d400",
	"sourceName": "node_modules/@bananapus/core-v6/src/JBERC20.sol",
	"contractName": "JBERC20",
	"chainId": "0x14a34",
	"abi": [
		{
			"type": "constructor",
			"inputs": [
				{
					"name": "permissions",
					"type": "address",
					"internalType": "contract IJBPermissions"
				},
				{
					"name": "projects",
					"type": "address",
					"internalType": "contract IJBProjects"
				}
			],
			"stateMutability": "nonpayable"
		},
		{
			"type": "function",
			"name": "CLOCK_MODE",
			"inputs": [],
			"outputs": [
				{
					"name": "",
					"type": "string",
					"internalType": "string"
				}
			],
			"stateMutability": "view"
		},
		{
			"type": "function",
			"name": "DOMAIN_SEPARATOR",
			"inputs": [],
			"outputs": [
				{
					"name": "",
					"type": "bytes32",
					"internalType": "bytes32"
				}
			],
			"stateMutability": "view"
		},
		{
			"type": "function",
			"name": "PERMISSIONS",
			"inputs": [],
			"outputs": [
				{
					"name": "",
					"type": "address",
					"internalType": "contract IJBPermissions"
				}
			],
			"stateMutability": "view"
		},
		{
			"type": "function",
			"name": "PROJECTS",
			"inputs": [],
			"outputs": [
				{
					"name": "",
					"type": "address",
					"internalType": "contract IJBProjects"
				}
			],
			"stateMutability": "view"
		},
		{
			"type": "function",
			"name": "allowance",
			"inputs": [
				{
					"name": "owner",
					"type": "address",
					"internalType": "address"
				},
				{
					"name": "spender",
					"type": "address",
					"internalType": "address"
				}
			],
			"outputs": [
				{
					"name": "",
					"type": "uint256",
					"internalType": "uint256"
				}
			],
			"stateMutability": "view"
		},
		{
			"type": "function",
			"name": "approve",
			"inputs": [
				{
					"name": "spender",
					"type": "address",
					"internalType": "address"
				},
				{
					"name": "value",
					"type": "uint256",
					"internalType": "uint256"
				}
			],
			"outputs": [
				{
					"name": "",
					"type": "bool",
					"internalType": "bool"
				}
			],
			"stateMutability": "nonpayable"
		},
		{
			"type": "function",
			"name": "balanceOf",
			"inputs": [
				{
					"name": "account",
					"type": "address",
					"internalType": "address"
				}
			],
			"outputs": [
				{
					"name": "",
					"type": "uint256",
					"internalType": "uint256"
				}
			],
			"stateMutability": "view"
		},
		{
			"type": "function",
			"name": "burn",
			"inputs": [
				{
					"name": "account",
					"type": "address",
					"internalType": "address"
				},
				{
					"name": "amount",
					"type": "uint256",
					"internalType": "uint256"
				}
			],
			"outputs": [],
			"stateMutability": "nonpayable"
		},
		{
			"type": "function",
			"name": "canBeAddedTo",
			"inputs": [
				{
					"name": "",
					"type": "uint256",
					"internalType": "uint256"
				}
			],
			"outputs": [
				{
					"name": "",
					"type": "bool",
					"internalType": "bool"
				}
			],
			"stateMutability": "pure"
		},
		{
			"type": "function",
			"name": "checkpoints",
			"inputs": [
				{
					"name": "account",
					"type": "address",
					"internalType": "address"
				},
				{
					"name": "pos",
					"type": "uint32",
					"internalType": "uint32"
				}
			],
			"outputs": [
				{
					"name": "",
					"type": "tuple",
					"internalType": "struct Checkpoints.Checkpoint208",
					"components": [
						{
							"name": "_key",
							"type": "uint48",
							"internalType": "uint48"
						},
						{
							"name": "_value",
							"type": "uint208",
							"internalType": "uint208"
						}
					]
				}
			],
			"stateMutability": "view"
		},
		{
			"type": "function",
			"name": "clock",
			"inputs": [],
			"outputs": [
				{
					"name": "",
					"type": "uint48",
					"internalType": "uint48"
				}
			],
			"stateMutability": "view"
		},
		{
			"type": "function",
			"name": "decimals",
			"inputs": [],
			"outputs": [
				{
					"name": "",
					"type": "uint8",
					"internalType": "uint8"
				}
			],
			"stateMutability": "view"
		},
		{
			"type": "function",
			"name": "delegate",
			"inputs": [
				{
					"name": "delegatee",
					"type": "address",
					"internalType": "address"
				}
			],
			"outputs": [],
			"stateMutability": "nonpayable"
		},
		{
			"type": "function",
			"name": "delegateBySig",
			"inputs": [
				{
					"name": "delegatee",
					"type": "address",
					"internalType": "address"
				},
				{
					"name": "nonce",
					"type": "uint256",
					"internalType": "uint256"
				},
				{
					"name": "expiry",
					"type": "uint256",
					"internalType": "uint256"
				},
				{
					"name": "v",
					"type": "uint8",
					"internalType": "uint8"
				},
				{
					"name": "r",
					"type": "bytes32",
					"internalType": "bytes32"
				},
				{
					"name": "s",
					"type": "bytes32",
					"internalType": "bytes32"
				}
			],
			"outputs": [],
			"stateMutability": "nonpayable"
		},
		{
			"type": "function",
			"name": "delegates",
			"inputs": [
				{
					"name": "account",
					"type": "address",
					"internalType": "address"
				}
			],
			"outputs": [
				{
					"name": "",
					"type": "address",
					"internalType": "address"
				}
			],
			"stateMutability": "view"
		},
		{
			"type": "function",
			"name": "eip712Domain",
			"inputs": [],
			"outputs": [
				{
					"name": "fields",
					"type": "bytes1",
					"internalType": "bytes1"
				},
				{
					"name": "name",
					"type": "string",
					"internalType": "string"
				},
				{
					"name": "version",
					"type": "string",
					"internalType": "string"
				},
				{
					"name": "chainId",
					"type": "uint256",
					"internalType": "uint256"
				},
				{
					"name": "verifyingContract",
					"type": "address",
					"internalType": "address"
				},
				{
					"name": "salt",
					"type": "bytes32",
					"internalType": "bytes32"
				},
				{
					"name": "extensions",
					"type": "uint256[]",
					"internalType": "uint256[]"
				}
			],
			"stateMutability": "view"
		},
		{
			"type": "function",
			"name": "getPastTotalActiveVotes",
			"inputs": [
				{
					"name": "blockNumber",
					"type": "uint256",
					"internalType": "uint256"
				}
			],
			"outputs": [
				{
					"name": "activeVotes",
					"type": "uint256",
					"internalType": "uint256"
				}
			],
			"stateMutability": "view"
		},
		{
			"type": "function",
			"name": "getPastTotalSupply",
			"inputs": [
				{
					"name": "timepoint",
					"type": "uint256",
					"internalType": "uint256"
				}
			],
			"outputs": [
				{
					"name": "",
					"type": "uint256",
					"internalType": "uint256"
				}
			],
			"stateMutability": "view"
		},
		{
			"type": "function",
			"name": "getPastVotes",
			"inputs": [
				{
					"name": "account",
					"type": "address",
					"internalType": "address"
				},
				{
					"name": "timepoint",
					"type": "uint256",
					"internalType": "uint256"
				}
			],
			"outputs": [
				{
					"name": "",
					"type": "uint256",
					"internalType": "uint256"
				}
			],
			"stateMutability": "view"
		},
		{
			"type": "function",
			"name": "getTotalActiveVotes",
			"inputs": [],
			"outputs": [
				{
					"name": "activeVotes",
					"type": "uint256",
					"internalType": "uint256"
				}
			],
			"stateMutability": "view"
		},
		{
			"type": "function",
			"name": "getVotes",
			"inputs": [
				{
					"name": "account",
					"type": "address",
					"internalType": "address"
				}
			],
			"outputs": [
				{
					"name": "",
					"type": "uint256",
					"internalType": "uint256"
				}
			],
			"stateMutability": "view"
		},
		{
			"type": "function",
			"name": "initialize",
			"inputs": [
				{
					"name": "name_",
					"type": "string",
					"internalType": "string"
				},
				{
					"name": "symbol_",
					"type": "string",
					"internalType": "string"
				},
				{
					"name": "tokensAddress",
					"type": "address",
					"internalType": "address"
				}
			],
			"outputs": [],
			"stateMutability": "nonpayable"
		},
		{
			"type": "function",
			"name": "isValidSignature",
			"inputs": [
				{
					"name": "hash",
					"type": "bytes32",
					"internalType": "bytes32"
				},
				{
					"name": "signature",
					"type": "bytes",
					"internalType": "bytes"
				}
			],
			"outputs": [
				{
					"name": "magicValue",
					"type": "bytes4",
					"internalType": "bytes4"
				}
			],
			"stateMutability": "view"
		},
		{
			"type": "function",
			"name": "mint",
			"inputs": [
				{
					"name": "account",
					"type": "address",
					"internalType": "address"
				},
				{
					"name": "amount",
					"type": "uint256",
					"internalType": "uint256"
				}
			],
			"outputs": [],
			"stateMutability": "nonpayable"
		},
		{
			"type": "function",
			"name": "name",
			"inputs": [],
			"outputs": [
				{
					"name": "",
					"type": "string",
					"internalType": "string"
				}
			],
			"stateMutability": "view"
		},
		{
			"type": "function",
			"name": "nonces",
			"inputs": [
				{
					"name": "owner",
					"type": "address",
					"internalType": "address"
				}
			],
			"outputs": [
				{
					"name": "",
					"type": "uint256",
					"internalType": "uint256"
				}
			],
			"stateMutability": "view"
		},
		{
			"type": "function",
			"name": "numCheckpoints",
			"inputs": [
				{
					"name": "account",
					"type": "address",
					"internalType": "address"
				}
			],
			"outputs": [
				{
					"name": "",
					"type": "uint32",
					"internalType": "uint32"
				}
			],
			"stateMutability": "view"
		},
		{
			"type": "function",
			"name": "permit",
			"inputs": [
				{
					"name": "owner",
					"type": "address",
					"internalType": "address"
				},
				{
					"name": "spender",
					"type": "address",
					"internalType": "address"
				},
				{
					"name": "value",
					"type": "uint256",
					"internalType": "uint256"
				},
				{
					"name": "deadline",
					"type": "uint256",
					"internalType": "uint256"
				},
				{
					"name": "v",
					"type": "uint8",
					"internalType": "uint8"
				},
				{
					"name": "r",
					"type": "bytes32",
					"internalType": "bytes32"
				},
				{
					"name": "s",
					"type": "bytes32",
					"internalType": "bytes32"
				}
			],
			"outputs": [],
			"stateMutability": "nonpayable"
		},
		{
			"type": "function",
			"name": "setMetadata",
			"inputs": [
				{
					"name": "name_",
					"type": "string",
					"internalType": "string"
				},
				{
					"name": "symbol_",
					"type": "string",
					"internalType": "string"
				}
			],
			"outputs": [],
			"stateMutability": "nonpayable"
		},
		{
			"type": "function",
			"name": "symbol",
			"inputs": [],
			"outputs": [
				{
					"name": "",
					"type": "string",
					"internalType": "string"
				}
			],
			"stateMutability": "view"
		},
		{
			"type": "function",
			"name": "tokens",
			"inputs": [],
			"outputs": [
				{
					"name": "",
					"type": "address",
					"internalType": "contract IJBTokens"
				}
			],
			"stateMutability": "view"
		},
		{
			"type": "function",
			"name": "totalSupply",
			"inputs": [],
			"outputs": [
				{
					"name": "",
					"type": "uint256",
					"internalType": "uint256"
				}
			],
			"stateMutability": "view"
		},
		{
			"type": "function",
			"name": "transfer",
			"inputs": [
				{
					"name": "to",
					"type": "address",
					"internalType": "address"
				},
				{
					"name": "value",
					"type": "uint256",
					"internalType": "uint256"
				}
			],
			"outputs": [
				{
					"name": "",
					"type": "bool",
					"internalType": "bool"
				}
			],
			"stateMutability": "nonpayable"
		},
		{
			"type": "function",
			"name": "transferFrom",
			"inputs": [
				{
					"name": "from",
					"type": "address",
					"internalType": "address"
				},
				{
					"name": "to",
					"type": "address",
					"internalType": "address"
				},
				{
					"name": "value",
					"type": "uint256",
					"internalType": "uint256"
				}
			],
			"outputs": [
				{
					"name": "",
					"type": "bool",
					"internalType": "bool"
				}
			],
			"stateMutability": "nonpayable"
		},
		{
			"type": "event",
			"name": "Approval",
			"inputs": [
				{
					"name": "owner",
					"type": "address",
					"indexed": true,
					"internalType": "address"
				},
				{
					"name": "spender",
					"type": "address",
					"indexed": true,
					"internalType": "address"
				},
				{
					"name": "value",
					"type": "uint256",
					"indexed": false,
					"internalType": "uint256"
				}
			],
			"anonymous": false
		},
		{
			"type": "event",
			"name": "DelegateChanged",
			"inputs": [
				{
					"name": "delegator",
					"type": "address",
					"indexed": true,
					"internalType": "address"
				},
				{
					"name": "fromDelegate",
					"type": "address",
					"indexed": true,
					"internalType": "address"
				},
				{
					"name": "toDelegate",
					"type": "address",
					"indexed": true,
					"internalType": "address"
				}
			],
			"anonymous": false
		},
		{
			"type": "event",
			"name": "DelegateVotesChanged",
			"inputs": [
				{
					"name": "delegate",
					"type": "address",
					"indexed": true,
					"internalType": "address"
				},
				{
					"name": "previousVotes",
					"type": "uint256",
					"indexed": false,
					"internalType": "uint256"
				},
				{
					"name": "newVotes",
					"type": "uint256",
					"indexed": false,
					"internalType": "uint256"
				}
			],
			"anonymous": false
		},
		{
			"type": "event",
			"name": "EIP712DomainChanged",
			"inputs": [],
			"anonymous": false
		},
		{
			"type": "event",
			"name": "Transfer",
			"inputs": [
				{
					"name": "from",
					"type": "address",
					"indexed": true,
					"internalType": "address"
				},
				{
					"name": "to",
					"type": "address",
					"indexed": true,
					"internalType": "address"
				},
				{
					"name": "value",
					"type": "uint256",
					"indexed": false,
					"internalType": "uint256"
				}
			],
			"anonymous": false
		},
		{
			"type": "error",
			"name": "CheckpointUnorderedInsertion",
			"inputs": []
		},
		{
			"type": "error",
			"name": "ECDSAInvalidSignature",
			"inputs": []
		},
		{
			"type": "error",
			"name": "ECDSAInvalidSignatureLength",
			"inputs": [
				{
					"name": "length",
					"type": "uint256",
					"internalType": "uint256"
				}
			]
		},
		{
			"type": "error",
			"name": "ECDSAInvalidSignatureS",
			"inputs": [
				{
					"name": "s",
					"type": "bytes32",
					"internalType": "bytes32"
				}
			]
		},
		{
			"type": "error",
			"name": "ERC20ExceededSafeSupply",
			"inputs": [
				{
					"name": "increasedSupply",
					"type": "uint256",
					"internalType": "uint256"
				},
				{
					"name": "cap",
					"type": "uint256",
					"internalType": "uint256"
				}
			]
		},
		{
			"type": "error",
			"name": "ERC20InsufficientAllowance",
			"inputs": [
				{
					"name": "spender",
					"type": "address",
					"internalType": "address"
				},
				{
					"name": "allowance",
					"type": "uint256",
					"internalType": "uint256"
				},
				{
					"name": "needed",
					"type": "uint256",
					"internalType": "uint256"
				}
			]
		},
		{
			"type": "error",
			"name": "ERC20InsufficientBalance",
			"inputs": [
				{
					"name": "sender",
					"type": "address",
					"internalType": "address"
				},
				{
					"name": "balance",
					"type": "uint256",
					"internalType": "uint256"
				},
				{
					"name": "needed",
					"type": "uint256",
					"internalType": "uint256"
				}
			]
		},
		{
			"type": "error",
			"name": "ERC20InvalidApprover",
			"inputs": [
				{
					"name": "approver",
					"type": "address",
					"internalType": "address"
				}
			]
		},
		{
			"type": "error",
			"name": "ERC20InvalidReceiver",
			"inputs": [
				{
					"name": "receiver",
					"type": "address",
					"internalType": "address"
				}
			]
		},
		{
			"type": "error",
			"name": "ERC20InvalidSender",
			"inputs": [
				{
					"name": "sender",
					"type": "address",
					"internalType": "address"
				}
			]
		},
		{
			"type": "error",
			"name": "ERC20InvalidSpender",
			"inputs": [
				{
					"name": "spender",
					"type": "address",
					"internalType": "address"
				}
			]
		},
		{
			"type": "error",
			"name": "ERC2612ExpiredSignature",
			"inputs": [
				{
					"name": "deadline",
					"type": "uint256",
					"internalType": "uint256"
				}
			]
		},
		{
			"type": "error",
			"name": "ERC2612InvalidSigner",
			"inputs": [
				{
					"name": "signer",
					"type": "address",
					"internalType": "address"
				},
				{
					"name": "owner",
					"type": "address",
					"internalType": "address"
				}
			]
		},
		{
			"type": "error",
			"name": "ERC5805FutureLookup",
			"inputs": [
				{
					"name": "timepoint",
					"type": "uint256",
					"internalType": "uint256"
				},
				{
					"name": "clock",
					"type": "uint48",
					"internalType": "uint48"
				}
			]
		},
		{
			"type": "error",
			"name": "ERC6372InconsistentClock",
			"inputs": []
		},
		{
			"type": "error",
			"name": "InvalidAccountNonce",
			"inputs": [
				{
					"name": "account",
					"type": "address",
					"internalType": "address"
				},
				{
					"name": "currentNonce",
					"type": "uint256",
					"internalType": "uint256"
				}
			]
		},
		{
			"type": "error",
			"name": "InvalidShortString",
			"inputs": []
		},
		{
			"type": "error",
			"name": "JBERC20_AlreadyInitialized",
			"inputs": [
				{
					"name": "currentNameLength",
					"type": "uint256",
					"internalType": "uint256"
				},
				{
					"name": "newNameLength",
					"type": "uint256",
					"internalType": "uint256"
				}
			]
		},
		{
			"type": "error",
			"name": "JBERC20_Unauthorized",
			"inputs": [
				{
					"name": "caller",
					"type": "address",
					"internalType": "address"
				},
				{
					"name": "tokens",
					"type": "address",
					"internalType": "address"
				}
			]
		},
		{
			"type": "error",
			"name": "JBPermissioned_Unauthorized",
			"inputs": [
				{
					"name": "account",
					"type": "address",
					"internalType": "address"
				},
				{
					"name": "sender",
					"type": "address",
					"internalType": "address"
				},
				{
					"name": "projectId",
					"type": "uint256",
					"internalType": "uint256"
				},
				{
					"name": "permissionId",
					"type": "uint256",
					"internalType": "uint256"
				}
			]
		},
		{
			"type": "error",
			"name": "SafeCastOverflowedUintDowncast",
			"inputs": [
				{
					"name": "bits",
					"type": "uint8",
					"internalType": "uint8"
				},
				{
					"name": "value",
					"type": "uint256",
					"internalType": "uint256"
				}
			]
		},
		{
			"type": "error",
			"name": "StringTooLong",
			"inputs": [
				{
					"name": "str",
					"type": "string",
					"internalType": "string"
				}
			]
		},
		{
			"type": "error",
			"name": "VotesExpiredSignature",
			"inputs": [
				{
					"name": "expiry",
					"type": "uint256",
					"internalType": "uint256"
				}
			]
		}
	],
	"args": [],
	"solcInputHash": "f65b08307cb3d6208227167bf41f1969",
	"bytecode": "0x6101a0604052348015610010575f5ffd5b50604051612c16380380612c1683398101604081905261002f91610257565b816040518060400160405280600781526020016625212a37b5b2b760c91b81525080604051806040016040528060018152602001603160f81b815250604051806040016040528060078152602001661a5b9d985b1a5960ca1b815250604051806040016040528060078152602001661a5b9d985b1a5960ca1b81525081600390816100ba9190610327565b5060046100c78282610327565b506100d7915083905060056101c8565b610120526100e68160066101c8565b61014052815160208084019190912060e052815190820120610100524660a05261017260e05161010051604080517f8b73c3c69bb8fe3d512ecc4cf759cc79239f7b179b0ffacaa9a75d522b39400f60208201529081019290925260608201524660808201523060a08201525f9060c00160405160208183030381529060405280519060200120905090565b60805250503060c052506001600160a01b0316610160526040805180820190915260078152661a5b9d985b1a5960ca1b6020820152600d906101b49082610327565b506001600160a01b03166101805250610439565b5f6020835110156101e3576101dc836101fa565b90506101f4565b816101ee8482610327565b5060ff90505b92915050565b5f5f829050601f8151111561022d578260405163305a27a960e01b815260040161022491906103e1565b60405180910390fd5b805161023882610416565b179392505050565b6001600160a01b0381168114610254575f5ffd5b50565b5f5f60408385031215610268575f5ffd5b825161027381610240565b602084015190925061028481610240565b809150509250929050565b634e487b7160e01b5f52604160045260245ffd5b600181811c908216806102b757607f821691505b6020821081036102d557634e487b7160e01b5f52602260045260245ffd5b50919050565b601f82111561032257805f5260205f20601f840160051c810160208510156103005750805b601f840160051c820191505b8181101561031f575f815560010161030c565b50505b505050565b81516001600160401b038111156103405761034061028f565b6103548161034e84546102a3565b846102db565b6020601f821160018114610386575f831561036f5750848201515b5f19600385901b1c1916600184901b17845561031f565b5f84815260208120601f198516915b828110156103b55787850151825560209485019460019092019101610395565b50848210156103d257868401515f19600387901b60f8161c191681555b50505050600190811b01905550565b602081525f82518060208401528060208501604085015e5f604082850101526040601f19601f83011684010191505092915050565b805160208083015191908110156102d5575f1960209190910360031b1b16919050565b60805160a05160c05160e051610100516101205161014051610160516101805161276a6104ac5f395f81816102b1015261075701525f81816105280152610ddc01525f61128201525f61125501525f61100001525f610fd801525f610f3301525f610f5d01525f610f87015261276a5ff3fe608060405234801561000f575f5ffd5b50600436106101fd575f3560e01c806370a08231116101145780639dc29fac116100a9578063c3cda52011610079578063c3cda52014610486578063d505accf14610499578063dd62ed3e146104ac578063f1127ed8146104e4578063f434c91414610523575f5ffd5b80639dc29fac14610445578063a9059cbb14610458578063c01352491461046b578063c2d4d20c1461047e575f5ffd5b806391ddadf4116100e457806391ddadf4146103f857806395d89b41146104175780639ab24eb01461041f5780639d63848a14610432575f5ffd5b806370a08231146103a45780637ecebe00146103b757806384b0196e146103ca5780638e539e8c146103e5575f5ffd5b80633644e5151161019557806351335b501161016557806351335b5014610330578063587cde1e146103435780635c19a95c146103565780636e5fe1f2146103695780636fcfff451461037c575f5ffd5b80633644e515146102fa5780633a46b1a81461030257806340c10f19146103155780634bf5d7e914610328575f5ffd5b806318160ddd116101d057806318160ddd1461028357806323b872dd14610299578063293c4999146102ac578063313ce567146102eb575f5ffd5b806306fdde0314610201578063077f224a1461021f578063095ea7b3146102345780631626ba7e14610257575b5f5ffd5b61020961054a565b60405161021691906120b5565b60405180910390f35b61023261022d366004612187565b6105da565b005b6102476102423660046121ff565b610673565b6040519015158152602001610216565b61026a610265366004612229565b61068c565b6040516001600160e01b03199091168152602001610216565b61028b6107fc565b604051908152602001610216565b6102476102a7366004612280565b61080b565b6102d37f000000000000000000000000000000000000000000000000000000000000000081565b6040516001600160a01b039091168152602001610216565b60405160128152602001610216565b61028b61082e565b61028b6103103660046121ff565b610837565b6102326103233660046121ff565b610871565b6102096108bf565b61023261033e3660046122be565b610937565b6102d3610351366004612319565b610995565b610232610364366004612319565b6109b2565b610247610377366004612334565b505f90565b61038f61038a366004612319565b6109bd565b60405163ffffffff9091168152602001610216565b61028b6103b2366004612319565b6109c7565b61028b6103c5366004612319565b6109e4565b6103d26109ee565b604051610216979695949392919061234b565b61028b6103f3366004612334565b610a30565b610400610a54565b60405165ffffffffffff9091168152602001610216565b610209610a5d565b61028b61042d366004612319565b610a6c565b600b546102d3906001600160a01b031681565b6102326104533660046121ff565b610a8c565b6102476104663660046121ff565b610ad6565b61028b610479366004612334565b610ae3565b61028b610af8565b6102326104943660046123f6565b610b11565b6102326104a736600461244c565b610bcd565b61028b6104ba3660046124b6565b6001600160a01b039182165f90815260016020908152604080832093909416825291909152205490565b6104f76104f23660046124ed565b610d03565b60408051825165ffffffffffff1681526020928301516001600160d01b03169281019290925201610216565b6102d37f000000000000000000000000000000000000000000000000000000000000000081565b6060600d805461055990612521565b80601f016020809104026020016040519081016040528092919081815260200182805461058590612521565b80156105d05780601f106105a7576101008083540402835291602001916105d0565b820191905f5260205f20905b8154815290600101906020018083116105b357829003601f168201915b5050505050905090565b600d80546105e790612521565b15159050806105f557508251155b1561063557600d805461060790612521565b8451604051638464d66f60e01b815261062c9350600401918252602082015260400190565b60405180910390fd5b600d610641848261259d565b50600e61064e838261259d565b50600b80546001600160a01b0319166001600160a01b03929092169190911790555050565b5f33610680818585610d27565b60019150505b92915050565b5f5f5f6106998585610d34565b5090925090505f8160038111156106b2576106b2612658565b146106ca57506001600160e01b031991506106869050565b600b54604051630f85421b60e01b81523060048201525f916001600160a01b031690630f85421b90602401602060405180830381865afa158015610710573d5f5f3e3d5ffd5b505050506040513d601f19601f82011682018060405250810190610734919061266c565b6040516331a9108f60e11b8152600481018290529091505f906001600160a01b037f00000000000000000000000000000000000000000000000000000000000000001690636352211e90602401602060405180830381865afa15801561079c573d5f5f3e3d5ffd5b505050506040513d601f19601f820116820180604052508101906107c09190612683565b90506107cf8482846017610d7d565b156107e85750630b135d3f60e11b935061068692505050565b506001600160e01b03199695505050505050565b5f61080660025490565b905090565b5f33610818858285610e4e565b610823858585610eca565b506001949350505050565b5f610806610f27565b5f61086161084483611050565b6001600160a01b0385165f9081526009602052604090209061109e565b6001600160d01b03169392505050565b600b546001600160a01b031633146108b157600b546040516355f75f5d60e01b81523360048201526001600160a01b03909116602482015260440161062c565b6108bb828261114e565b5050565b60606108c9611182565b65ffffffffffff166108d9610a54565b65ffffffffffff16146108ff576040516301bfc1c560e61b815260040160405180910390fd5b5060408051808201909152601d81527f6d6f64653d626c6f636b6e756d6265722666726f6d3d64656661756c74000000602082015290565b600b546001600160a01b0316331461097757600b546040516355f75f5d60e01b81523360048201526001600160a01b03909116602482015260440161062c565b600d610983838261259d565b50600e610990828261259d565b505050565b6001600160a01b039081165f908152600860205260409020541690565b336108bb818361118c565b5f61068682611210565b6001600160a01b0381165f90815260208190526040812054610686565b5f61068682611231565b5f6060805f5f5f60606109ff61124e565b610a0761127b565b604080515f80825260208201909252600f60f81b9b939a50919850469750309650945092509050565b5f610a45610a3d83611050565b600a9061109e565b6001600160d01b031692915050565b5f610806611182565b6060600e805461055990612521565b6001600160a01b0381165f908152600960205260408120610a45906112a8565b600b546001600160a01b03163314610acc57600b546040516355f75f5d60e01b81523360048201526001600160a01b03909116602482015260440161062c565b6108bb82826112df565b5f33610680818585610eca565b5f610a45610af083611050565b600c9061109e565b5f610b03600c6112a8565b6001600160d01b0316905090565b83421115610b3557604051632341d78760e11b81526004810185905260240161062c565b604080517fe48329057bfd03d55e49b547132e39cffd9c1820ad7b9d4c5307691425d15adf60208201526001600160a01b0388169181019190915260608101869052608081018590525f90610bae90610ba69060a00160405160208183030381529060405280519060200120611313565b85858561133f565b9050610bba818761136b565b610bc4818861118c565b50505050505050565b83421115610bf15760405163313c898160e11b81526004810185905260240161062c565b5f7f6e71edae12b1b97f4d1f60370fef10105fa2faae0126114a169c64845d6126c9888888610c3c8c6001600160a01b03165f90815260076020526040902080546001810190915590565b6040805160208101969096526001600160a01b0394851690860152929091166060840152608083015260a082015260c0810186905260e0016040516020818303038152906040528051906020012090505f610c9682611313565b90505f610ca58287878761133f565b9050896001600160a01b0316816001600160a01b031614610cec576040516325c0072360e11b81526001600160a01b0380831660048301528b16602482015260440161062c565b610cf78a8a8a610d27565b50505050505050505050565b604080518082019091525f8082526020820152610d2083836113bd565b9392505050565b61099083838360016113f1565b5f5f5f8351604103610d6b576020840151604085015160608601515f1a610d5d888285856114c3565b955095509550505050610d76565b505081515f91506002905b9250925092565b5f836001600160a01b0316856001600160a01b03161480610e455750604051631a45b42760e11b81526001600160a01b0386811660048301528581166024830152604482018590526064820184905260016084830181905260a48301527f0000000000000000000000000000000000000000000000000000000000000000169063348b684e9060c401602060405180830381865afa158015610e21573d5f5f3e3d5ffd5b505050506040513d601f19601f82011682018060405250810190610e45919061269e565b95945050505050565b6001600160a01b038381165f908152600160209081526040808320938616835292905220545f19811015610ec45781811015610eb657604051637dc7a0d960e11b81526001600160a01b0384166004820152602481018290526044810183905260640161062c565b610ec484848484035f6113f1565b50505050565b6001600160a01b038316610ef357604051634b637e8f60e11b81525f600482015260240161062c565b6001600160a01b038216610f1c5760405163ec442f0560e01b81525f600482015260240161062c565b61099083838361158b565b5f306001600160a01b037f000000000000000000000000000000000000000000000000000000000000000016148015610f7f57507f000000000000000000000000000000000000000000000000000000000000000046145b15610fa957507f000000000000000000000000000000000000000000000000000000000000000090565b610806604080517f8b73c3c69bb8fe3d512ecc4cf759cc79239f7b179b0ffacaa9a75d522b39400f60208201527f0000000000000000000000000000000000000000000000000000000000000000918101919091527f000000000000000000000000000000000000000000000000000000000000000060608201524660808201523060a08201525f9060c00160405160208183030381529060405280519060200120905090565b5f5f61105a610a54565b90508065ffffffffffff16831061109557604051637669fc0f60e11b81526004810184905265ffffffffffff8216602482015260440161062c565b610d2083611596565b81545f90818160058111156110fa575f6110b7846115cc565b6110c190856126d1565b5f8881526020902090915081015465ffffffffffff90811690871610156110ea578091506110f8565b6110f58160016126e4565b92505b505b5f61110787878585611724565b905080156111415761112b8761111e6001846126d1565b5f91825260209091200190565b54600160301b90046001600160d01b0316611143565b5f5b979650505050505050565b6001600160a01b0382166111775760405163ec442f0560e01b81525f600482015260240161062c565b6108bb5f838361158b565b5f61080643611596565b5f61119683610995565b90505f6111a28461177a565b90506111ae8484611784565b6001600160a01b0382161580156111cd57506001600160a01b03831615155b156111e2576111dd8160016117fd565b610ec4565b6001600160a01b0382161580159061120157506001600160a01b038316155b15610ec457610ec4815f6117fd565b6001600160a01b0381165f9081526009602052604081205461068690611875565b6001600160a01b0381165f90815260076020526040812054610686565b60606108067f000000000000000000000000000000000000000000000000000000000000000060056118a5565b60606108067f000000000000000000000000000000000000000000000000000000000000000060066118a5565b80545f9080156112d7576112c18361111e6001846126d1565b54600160301b90046001600160d01b0316610d20565b5f9392505050565b6001600160a01b03821661130857604051634b637e8f60e11b81525f600482015260240161062c565b6108bb825f8361158b565b5f61068661131f610f27565b8360405161190160f01b8152600281019290925260228201526042902090565b5f5f5f5f61134f888888886114c3565b92509250925061135f828261194e565b50909695505050505050565b6001600160a01b0382165f908152600760205260409020805460018101909155818114610990576040516301d4b62360e61b81526001600160a01b03841660048201526024810182905260440161062c565b604080518082019091525f80825260208201526001600160a01b0383165f908152600960205260409020610d209083611a06565b6001600160a01b03841661141a5760405163e602df0560e01b81525f600482015260240161062c565b6001600160a01b03831661144357604051634a1406b160e11b81525f600482015260240161062c565b6001600160a01b038085165f9081526001602090815260408083209387168352929052208290558015610ec457826001600160a01b0316846001600160a01b03167f8c5be1e5ebec7d5bd14f71427d1e84f3dd0314c0f7b2291e5b200ac8c7c3b925846040516114b591815260200190565b60405180910390a350505050565b5f80807f7fffffffffffffffffffffffffffffff5d576e7357a4501ddfe92f46681b20a08411156114fc57505f91506003905082611581565b604080515f808252602082018084528a905260ff891692820192909252606081018790526080810186905260019060a0016020604051602081039080840390855afa15801561154d573d5f5f3e3d5ffd5b5050604051601f1901519150506001600160a01b03811661157857505f925060019150829050611581565b92505f91508190505b9450945094915050565b610990838383611a73565b5f65ffffffffffff8211156115c8576040516306dfcc6560e41b8152603060048201526024810183905260440161062c565b5090565b5f600182116115d9575090565b816001600160801b82106115f25760809190911c9060401b5b68010000000000000000821061160d5760409190911c9060201b5b64010000000082106116245760209190911c9060101b5b6201000082106116395760109190911c9060081b5b610100821061164d5760089190911c9060041b5b601082106116605760049190911c9060021b5b6004821061166c5760011b5b600302600190811c90818581611684576116846126f7565b048201901c9050600181858161169c5761169c6126f7565b048201901c905060018185816116b4576116b46126f7565b048201901c905060018185816116cc576116cc6126f7565b048201901c905060018185816116e4576116e46126f7565b048201901c905060018185816116fc576116fc6126f7565b048201901c905061171b818581611715576117156126f7565b04821190565b90039392505050565b5f5b81831015611772575f85815260209020838316600285851804019081015465ffffffffffff8681169116111561175e5780925061176c565b6117698160016126e4565b93505b50611726565b509392505050565b5f610686826109c7565b5f61178e83610995565b6001600160a01b038481165f8181526008602052604080822080546001600160a01b031916888616908117909155905194955093928516927f3134e8a2e6d97e929a7e54011ea5485d7d196dd5f0ba4d4ef95803e8e3fc257f9190a461099081836117f88661177a565b611ad8565b815f03611808575050565b5f816118315782611819600c6112a8565b6001600160d01b031661182c91906126d1565b61184f565b8261183c600c6112a8565b6001600160d01b031661184f91906126e4565b905061186e61185c610a54565b61186583611c41565b600c9190611c74565b5050505050565b5f63ffffffff8211156115c8576040516306dfcc6560e41b8152602060048201526024810183905260440161062c565b606060ff83146118bf576118b883611c8e565b9050610686565b8180546118cb90612521565b80601f01602080910402602001604051908101604052809291908181526020018280546118f790612521565b80156119425780601f1061191957610100808354040283529160200191611942565b820191905f5260205f20905b81548152906001019060200180831161192557829003601f168201915b50505050509050610686565b5f82600381111561196157611961612658565b0361196a575050565b600182600381111561197e5761197e612658565b0361199c5760405163f645eedf60e01b815260040160405180910390fd5b60028260038111156119b0576119b0612658565b036119d15760405163fce698f760e01b81526004810182905260240161062c565b60038260038111156119e5576119e5612658565b036108bb576040516335e2f38360e21b81526004810182905260240161062c565b604080518082019091525f8082526020820152825f018263ffffffff1681548110611a3357611a3361270b565b5f9182526020918290206040805180820190915291015465ffffffffffff81168252600160301b90046001600160d01b0316918101919091529392505050565b611a7e838383611ccb565b6001600160a01b038316611acd575f611a956107fc565b90506001600160d01b0380821115611aca57604051630e58ae9360e11b8152600481018390526024810182905260440161062c565b50505b610990838383611df1565b816001600160a01b0316836001600160a01b031614158015611af957505f81115b15610990576001600160a01b03831615611ba0576001600160a01b0383165f9081526009602052604081208190611b3b90611e70611b3686611c41565b611e7b565b6001600160d01b031691506001600160d01b03169150846001600160a01b03167fdec2bacdd2f05b59de34da9b523dff8be42e5e38e818c82fdb0bae774387a7248383604051611b95929190918252602082015260400190565b60405180910390a250505b6001600160a01b03821615610990576001600160a01b0382165f9081526009602052604081208190611bd890611ea6611b3686611c41565b6001600160d01b031691506001600160d01b03169150836001600160a01b03167fdec2bacdd2f05b59de34da9b523dff8be42e5e38e818c82fdb0bae774387a7248383604051611c32929190918252602082015260400190565b60405180910390a25050505050565b5f6001600160d01b038211156115c8576040516306dfcc6560e41b815260d060048201526024810183905260440161062c565b5f80611c81858585611eb1565b915091505b935093915050565b60605f611c9a83612001565b6040805160208082528183019092529192505f91906020820181803683375050509182525060208101929092525090565b6001600160a01b038316611cf5578060025f828254611cea91906126e4565b90915550611d659050565b6001600160a01b0383165f9081526020819052604090205481811015611d475760405163391434e360e21b81526001600160a01b0385166004820152602481018290526044810183905260640161062c565b6001600160a01b0384165f9081526020819052604090209082900390555b6001600160a01b038216611d8157600280548290039055611d9f565b6001600160a01b0382165f9081526020819052604090208054820190555b816001600160a01b0316836001600160a01b03167fddf252ad1be2c89b69c2b068fc378daa952ba7f163c4a11628f55a4df523b3ef83604051611de491815260200190565b60405180910390a3505050565b5f6001600160a01b03841615801590611e1b57505f611e0f85610995565b6001600160a01b031614155b90505f6001600160a01b03841615801590611e4757505f611e3b85610995565b6001600160a01b031614155b9050611e54858585612028565b80151582151503611e66575050505050565b61186e83826117fd565b5f610d20828461271f565b5f5f611c81611e88610a54565b611e9e611e94886112a8565b868863ffffffff16565b879190611c74565b5f610d20828461273e565b82545f9081908015611fa7575f611ecd8761111e6001856126d1565b805490915065ffffffffffff80821691600160301b90046001600160d01b0316908816821115611f1057604051632520601d60e01b815260040160405180910390fd5b8765ffffffffffff168265ffffffffffff1603611f4957825465ffffffffffff16600160301b6001600160d01b03891602178355611f99565b6040805180820190915265ffffffffffff808a1682526001600160d01b03808a1660208085019182528d54600181018f555f8f81529190912094519151909216600160301b029216919091179101555b9450859350611c8692505050565b50506040805180820190915265ffffffffffff80851682526001600160d01b0380851660208085019182528854600181018a555f8a815291822095519251909316600160301b029190931617920191909155905081611c86565b5f60ff8216601f81111561068657604051632cd44ac360e21b815260040160405180910390fd5b6001600160a01b03831661204a57612047600a611ea6611b3684611c41565b50505b6001600160a01b03821661206c57612069600a611e70611b3684611c41565b50505b61099061207884610995565b61208184610995565b83611ad8565b5f81518084528060208401602086015e5f602082860101526020601f19601f83011685010191505092915050565b602081525f610d206020830184612087565b634e487b7160e01b5f52604160045260245ffd5b5f5f67ffffffffffffffff8411156120f5576120f56120c7565b50604051601f19601f85018116603f0116810181811067ffffffffffffffff82111715612124576121246120c7565b60405283815290508082840185101561213b575f5ffd5b838360208301375f60208583010152509392505050565b5f82601f830112612161575f5ffd5b610d20838335602085016120db565b6001600160a01b0381168114612184575f5ffd5b50565b5f5f5f60608486031215612199575f5ffd5b833567ffffffffffffffff8111156121af575f5ffd5b6121bb86828701612152565b935050602084013567ffffffffffffffff8111156121d7575f5ffd5b6121e386828701612152565b92505060408401356121f481612170565b809150509250925092565b5f5f60408385031215612210575f5ffd5b823561221b81612170565b946020939093013593505050565b5f5f6040838503121561223a575f5ffd5b82359150602083013567ffffffffffffffff811115612257575f5ffd5b8301601f81018513612267575f5ffd5b612276858235602084016120db565b9150509250929050565b5f5f5f60608486031215612292575f5ffd5b833561229d81612170565b925060208401356122ad81612170565b929592945050506040919091013590565b5f5f604083850312156122cf575f5ffd5b823567ffffffffffffffff8111156122e5575f5ffd5b6122f185828601612152565b925050602083013567ffffffffffffffff81111561230d575f5ffd5b61227685828601612152565b5f60208284031215612329575f5ffd5b8135610d2081612170565b5f60208284031215612344575f5ffd5b5035919050565b60ff60f81b8816815260e060208201525f61236960e0830189612087565b828103604084015261237b8189612087565b606084018890526001600160a01b038716608085015260a0840186905283810360c0850152845180825260208087019350909101905f5b818110156123d05783518352602093840193909201916001016123b2565b50909b9a5050505050505050505050565b803560ff811681146123f1575f5ffd5b919050565b5f5f5f5f5f5f60c0878903121561240b575f5ffd5b863561241681612170565b95506020870135945060408701359350612432606088016123e1565b9598949750929560808101359460a0909101359350915050565b5f5f5f5f5f5f5f60e0888a031215612462575f5ffd5b873561246d81612170565b9650602088013561247d81612170565b95506040880135945060608801359350612499608089016123e1565b9699959850939692959460a0840135945060c09093013592915050565b5f5f604083850312156124c7575f5ffd5b82356124d281612170565b915060208301356124e281612170565b809150509250929050565b5f5f604083850312156124fe575f5ffd5b823561250981612170565b9150602083013563ffffffff811681146124e2575f5ffd5b600181811c9082168061253557607f821691505b60208210810361255357634e487b7160e01b5f52602260045260245ffd5b50919050565b601f82111561099057805f5260205f20601f840160051c8101602085101561257e5750805b601f840160051c820191505b8181101561186e575f815560010161258a565b815167ffffffffffffffff8111156125b7576125b76120c7565b6125cb816125c58454612521565b84612559565b6020601f8211600181146125fd575f83156125e65750848201515b5f19600385901b1c1916600184901b17845561186e565b5f84815260208120601f198516915b8281101561262c578785015182556020948501946001909201910161260c565b508482101561264957868401515f19600387901b60f8161c191681555b50505050600190811b01905550565b634e487b7160e01b5f52602160045260245ffd5b5f6020828403121561267c575f5ffd5b5051919050565b5f60208284031215612693575f5ffd5b8151610d2081612170565b5f602082840312156126ae575f5ffd5b81518015158114610d20575f5ffd5b634e487b7160e01b5f52601160045260245ffd5b81810381811115610686576106866126bd565b80820180821115610686576106866126bd565b634e487b7160e01b5f52601260045260245ffd5b634e487b7160e01b5f52603260045260245ffd5b6001600160d01b038281168282160390811115610686576106866126bd565b6001600160d01b038181168382160190811115610686576106866126bd56fea164736f6c634300081c000a",
	"gitCommit": "npm:@bananapus/core-v6@1.0.2",
	"gitDirty": false,
	"history": []
}