{
	"format": "sphinx-sol-ct-artifact-1",
	"address": "0x1317bac73ef0dd068791caccd4e705991443c63b",
	"sourceName": "node_modules/@bananapus/core-v6/src/JBFeelessAddresses.sol",
	"contractName": "JBFeelessAddresses",
	"chainId": "0x14a34",
	"abi": [
		{
			"type": "constructor",
			"inputs": [
				{
					"name": "owner",
					"type": "address",
					"internalType": "address"
				}
			],
			"stateMutability": "nonpayable"
		},
		{
			"type": "function",
			"name": "feelessHook",
			"inputs": [],
			"outputs": [
				{
					"name": "",
					"type": "address",
					"internalType": "contract IJBFeelessHook"
				}
			],
			"stateMutability": "view"
		},
		{
			"type": "function",
			"name": "isFeelessFor",
			"inputs": [
				{
					"name": "addr",
					"type": "address",
					"internalType": "address"
				},
				{
					"name": "projectId",
					"type": "uint256",
					"internalType": "uint256"
				},
				{
					"name": "caller",
					"type": "address",
					"internalType": "address"
				}
			],
			"outputs": [
				{
					"name": "",
					"type": "bool",
					"internalType": "bool"
				}
			],
			"stateMutability": "view"
		},
		{
			"type": "function",
			"name": "owner",
			"inputs": [],
			"outputs": [
				{
					"name": "",
					"type": "address",
					"internalType": "address"
				}
			],
			"stateMutability": "view"
		},
		{
			"type": "function",
			"name": "renounceOwnership",
			"inputs": [],
			"outputs": [],
			"stateMutability": "nonpayable"
		},
		{
			"type": "function",
			"name": "setFeelessAddress",
			"inputs": [
				{
					"name": "addr",
					"type": "address",
					"internalType": "address"
				},
				{
					"name": "flag",
					"type": "bool",
					"internalType": "bool"
				}
			],
			"outputs": [],
			"stateMutability": "nonpayable"
		},
		{
			"type": "function",
			"name": "setFeelessAddressFor",
			"inputs": [
				{
					"name": "projectId",
					"type": "uint256",
					"internalType": "uint256"
				},
				{
					"name": "addr",
					"type": "address",
					"internalType": "address"
				},
				{
					"name": "flag",
					"type": "bool",
					"internalType": "bool"
				}
			],
			"outputs": [],
			"stateMutability": "nonpayable"
		},
		{
			"type": "function",
			"name": "setFeelessHook",
			"inputs": [
				{
					"name": "hook",
					"type": "address",
					"internalType": "contract IJBFeelessHook"
				}
			],
			"outputs": [],
			"stateMutability": "nonpayable"
		},
		{
			"type": "function",
			"name": "supportsInterface",
			"inputs": [
				{
					"name": "interfaceId",
					"type": "bytes4",
					"internalType": "bytes4"
				}
			],
			"outputs": [
				{
					"name": "",
					"type": "bool",
					"internalType": "bool"
				}
			],
			"stateMutability": "view"
		},
		{
			"type": "function",
			"name": "transferOwnership",
			"inputs": [
				{
					"name": "newOwner",
					"type": "address",
					"internalType": "address"
				}
			],
			"outputs": [],
			"stateMutability": "nonpayable"
		},
		{
			"type": "event",
			"name": "OwnershipTransferred",
			"inputs": [
				{
					"name": "previousOwner",
					"type": "address",
					"indexed": true,
					"internalType": "address"
				},
				{
					"name": "newOwner",
					"type": "address",
					"indexed": true,
					"internalType": "address"
				}
			],
			"anonymous": false
		},
		{
			"type": "event",
			"name": "SetFeelessAddress",
			"inputs": [
				{
					"name": "projectId",
					"type": "uint256",
					"indexed": true,
					"internalType": "uint256"
				},
				{
					"name": "addr",
					"type": "address",
					"indexed": true,
					"internalType": "address"
				},
				{
					"name": "isFeeless",
					"type": "bool",
					"indexed": true,
					"internalType": "bool"
				},
				{
					"name": "caller",
					"type": "address",
					"indexed": false,
					"internalType": "address"
				}
			],
			"anonymous": false
		},
		{
			"type": "event",
			"name": "SetFeelessHook",
			"inputs": [
				{
					"name": "hook",
					"type": "address",
					"indexed": true,
					"internalType": "contract IJBFeelessHook"
				},
				{
					"name": "caller",
					"type": "address",
					"indexed": false,
					"internalType": "address"
				}
			],
			"anonymous": false
		},
		{
			"type": "error",
			"name": "JBFeelessAddresses_InvalidFeelessHook",
			"inputs": [
				{
					"name": "hook",
					"type": "address",
					"internalType": "contract IJBFeelessHook"
				}
			]
		},
		{
			"type": "error",
			"name": "OwnableInvalidOwner",
			"inputs": [
				{
					"name": "owner",
					"type": "address",
					"internalType": "address"
				}
			]
		},
		{
			"type": "error",
			"name": "OwnableUnauthorizedAccount",
			"inputs": [
				{
					"name": "account",
					"type": "address",
					"internalType": "address"
				}
			]
		}
	],
	"args": [
		"0xd5136c794ee43BEf1eD4cF1eB6DEe45b7F803437"
	],
	"solcInputHash": "9e0e486d623fb57584a16fa170d5670b",
	"bytecode": "0x6080604052348015600e575f5ffd5b506040516107b73803806107b7833981016040819052602b9160b4565b806001600160a01b038116605857604051631e4fbdf760e01b81525f600482015260240160405180910390fd5b605f816065565b505060df565b5f80546001600160a01b038381166001600160a01b0319831681178455604051919092169283917f8be0079c531659141344cd1fd0a4f28419497f9722a3daafe3b4186f6b6457e09190a35050565b5f6020828403121560c3575f5ffd5b81516001600160a01b038116811460d8575f5ffd5b9392505050565b6106cb806100ec5f395ff3fe608060405234801561000f575f5ffd5b5060043610610090575f3560e01c80638717d7c2116100635780638717d7c2146101045780638da5cb5b14610117578063c98eb63514610127578063f2fde38b1461013a578063f3fa13c91461014d575f5ffd5b806301ffc9a7146100945780636546346f146100bc578063715018a6146100e75780637258002c146100f1575b5f5ffd5b6100a76100a2366004610596565b610160565b60405190151581526020015b60405180910390f35b6001546100cf906001600160a01b031681565b6040516001600160a01b0390911681526020016100b3565b6100ef610196565b005b6100ef6100ff3660046105de565b6101a9565b6100a7610112366004610615565b610239565b5f546001600160a01b03166100cf565b6100ef610135366004610654565b610354565b6100ef610148366004610654565b610461565b6100ef61015b36600461066f565b61049e565b5f6001600160e01b0319821663aa7d467d60e01b148061019057506001600160e01b031982166301ffc9a760e01b145b92915050565b61019e61051b565b6101a75f610547565b565b6101b161051b565b6001600160a01b0382165f8181527fac33ff75c19e70fe83507db0d683fd3465c996598dc972688b7ace676c89077b60205260408120805460ff191684151590811790915591907ff520af77565614cc01d5174a06a9fedbd99aafbc13791838f31de111b48c790a336040516001600160a01b03909116815260200160405180910390a45050565b6001600160a01b0383165f9081527fac33ff75c19e70fe83507db0d683fd3465c996598dc972688b7ace676c89077b602052604081205460ff168061029f57505f8381526002602090815260408083206001600160a01b038816845290915290205460ff165b156102ac5750600161034d565b6001546001600160a01b0316806102c6575f91505061034d565b604051634384220160e01b8152600481018590526001600160a01b0386811660248301528481166044830152821690634384220190606401602060405180830381865afa925050508015610337575060408051601f3d908101601f19168201909252610334918101906106a3565b60015b610344575f91505061034d565b915061034d9050565b9392505050565b61035c61051b565b6001600160a01b038116158015906103de57506040516301ffc9a760e01b8152634384220160e01b60048201526001600160a01b038216906301ffc9a790602401602060405180830381865afa1580156103b8573d5f5f3e3d5ffd5b505050506040513d601f19601f820116820180604052508101906103dc91906106a3565b155b1561040c5760405163806949db60e01b81526001600160a01b03821660048201526024015b60405180910390fd5b600180546001600160a01b0383166001600160a01b031990911681179091556040805133815290517f66c35cae54328fc3c9620f1c8ef954243db5c2ee518c7bc0307961c2539ff6269181900360200190a250565b61046961051b565b6001600160a01b03811661049257604051631e4fbdf760e01b81525f6004820152602401610403565b61049b81610547565b50565b6104a661051b565b5f8381526002602090815260408083206001600160a01b0386168085529252909120805460ff191683151590811790915590847ff520af77565614cc01d5174a06a9fedbd99aafbc13791838f31de111b48c790a336040516001600160a01b03909116815260200160405180910390a4505050565b5f546001600160a01b031633146101a75760405163118cdaa760e01b8152336004820152602401610403565b5f80546001600160a01b038381166001600160a01b0319831681178455604051919092169283917f8be0079c531659141344cd1fd0a4f28419497f9722a3daafe3b4186f6b6457e09190a35050565b5f602082840312156105a6575f5ffd5b81356001600160e01b03198116811461034d575f5ffd5b6001600160a01b038116811461049b575f5ffd5b801515811461049b575f5ffd5b5f5f604083850312156105ef575f5ffd5b82356105fa816105bd565b9150602083013561060a816105d1565b809150509250929050565b5f5f5f60608486031215610627575f5ffd5b8335610632816105bd565b9250602084013591506040840135610649816105bd565b809150509250925092565b5f60208284031215610664575f5ffd5b813561034d816105bd565b5f5f5f60608486031215610681575f5ffd5b833592506020840135610693816105bd565b91506040840135610649816105d1565b5f602082840312156106b3575f5ffd5b815161034d816105d156fea164736f6c634300081c000a",
	"gitCommit": "npm:@bananapus/core-v6@0.0.87",
	"gitDirty": false,
	"history": []
}