{
	"format": "sphinx-sol-ct-artifact-1",
	"address": "0xeee9d72fe5a2148861d6827246b328939df21eea",
	"sourceName": "node_modules/@bananapus/core-v6/src/JBFundAccessLimits.sol",
	"contractName": "JBFundAccessLimits",
	"chainId": "0x14a34",
	"abi": [
		{
			"type": "constructor",
			"inputs": [
				{
					"name": "directory",
					"type": "address",
					"internalType": "contract IJBDirectory"
				}
			],
			"stateMutability": "nonpayable"
		},
		{
			"type": "function",
			"name": "DIRECTORY",
			"inputs": [],
			"outputs": [
				{
					"name": "",
					"type": "address",
					"internalType": "contract IJBDirectory"
				}
			],
			"stateMutability": "view"
		},
		{
			"type": "function",
			"name": "payoutLimitOf",
			"inputs": [
				{
					"name": "projectId",
					"type": "uint256",
					"internalType": "uint256"
				},
				{
					"name": "rulesetId",
					"type": "uint256",
					"internalType": "uint256"
				},
				{
					"name": "terminal",
					"type": "address",
					"internalType": "address"
				},
				{
					"name": "token",
					"type": "address",
					"internalType": "address"
				},
				{
					"name": "currency",
					"type": "uint256",
					"internalType": "uint256"
				}
			],
			"outputs": [
				{
					"name": "payoutLimit",
					"type": "uint256",
					"internalType": "uint256"
				}
			],
			"stateMutability": "view"
		},
		{
			"type": "function",
			"name": "payoutLimitsOf",
			"inputs": [
				{
					"name": "projectId",
					"type": "uint256",
					"internalType": "uint256"
				},
				{
					"name": "rulesetId",
					"type": "uint256",
					"internalType": "uint256"
				},
				{
					"name": "terminal",
					"type": "address",
					"internalType": "address"
				},
				{
					"name": "token",
					"type": "address",
					"internalType": "address"
				}
			],
			"outputs": [
				{
					"name": "payoutLimits",
					"type": "tuple[]",
					"internalType": "struct JBCurrencyAmount[]",
					"components": [
						{
							"name": "amount",
							"type": "uint224",
							"internalType": "uint224"
						},
						{
							"name": "currency",
							"type": "uint32",
							"internalType": "uint32"
						}
					]
				}
			],
			"stateMutability": "view"
		},
		{
			"type": "function",
			"name": "setFundAccessLimitsFor",
			"inputs": [
				{
					"name": "projectId",
					"type": "uint256",
					"internalType": "uint256"
				},
				{
					"name": "rulesetId",
					"type": "uint256",
					"internalType": "uint256"
				},
				{
					"name": "fundAccessLimitGroups",
					"type": "tuple[]",
					"internalType": "struct JBFundAccessLimitGroup[]",
					"components": [
						{
							"name": "terminal",
							"type": "address",
							"internalType": "address"
						},
						{
							"name": "token",
							"type": "address",
							"internalType": "address"
						},
						{
							"name": "payoutLimits",
							"type": "tuple[]",
							"internalType": "struct JBCurrencyAmount[]",
							"components": [
								{
									"name": "amount",
									"type": "uint224",
									"internalType": "uint224"
								},
								{
									"name": "currency",
									"type": "uint32",
									"internalType": "uint32"
								}
							]
						},
						{
							"name": "surplusAllowances",
							"type": "tuple[]",
							"internalType": "struct JBCurrencyAmount[]",
							"components": [
								{
									"name": "amount",
									"type": "uint224",
									"internalType": "uint224"
								},
								{
									"name": "currency",
									"type": "uint32",
									"internalType": "uint32"
								}
							]
						}
					]
				}
			],
			"outputs": [],
			"stateMutability": "nonpayable"
		},
		{
			"type": "function",
			"name": "surplusAllowanceOf",
			"inputs": [
				{
					"name": "projectId",
					"type": "uint256",
					"internalType": "uint256"
				},
				{
					"name": "rulesetId",
					"type": "uint256",
					"internalType": "uint256"
				},
				{
					"name": "terminal",
					"type": "address",
					"internalType": "address"
				},
				{
					"name": "token",
					"type": "address",
					"internalType": "address"
				},
				{
					"name": "currency",
					"type": "uint256",
					"internalType": "uint256"
				}
			],
			"outputs": [
				{
					"name": "surplusAllowance",
					"type": "uint256",
					"internalType": "uint256"
				}
			],
			"stateMutability": "view"
		},
		{
			"type": "function",
			"name": "surplusAllowancesOf",
			"inputs": [
				{
					"name": "projectId",
					"type": "uint256",
					"internalType": "uint256"
				},
				{
					"name": "rulesetId",
					"type": "uint256",
					"internalType": "uint256"
				},
				{
					"name": "terminal",
					"type": "address",
					"internalType": "address"
				},
				{
					"name": "token",
					"type": "address",
					"internalType": "address"
				}
			],
			"outputs": [
				{
					"name": "surplusAllowances",
					"type": "tuple[]",
					"internalType": "struct JBCurrencyAmount[]",
					"components": [
						{
							"name": "amount",
							"type": "uint224",
							"internalType": "uint224"
						},
						{
							"name": "currency",
							"type": "uint32",
							"internalType": "uint32"
						}
					]
				}
			],
			"stateMutability": "view"
		},
		{
			"type": "event",
			"name": "SetFundAccessLimits",
			"inputs": [
				{
					"name": "rulesetId",
					"type": "uint256",
					"indexed": true,
					"internalType": "uint256"
				},
				{
					"name": "projectId",
					"type": "uint256",
					"indexed": true,
					"internalType": "uint256"
				},
				{
					"name": "fundAccessLimitGroup",
					"type": "tuple",
					"indexed": false,
					"internalType": "struct JBFundAccessLimitGroup",
					"components": [
						{
							"name": "terminal",
							"type": "address",
							"internalType": "address"
						},
						{
							"name": "token",
							"type": "address",
							"internalType": "address"
						},
						{
							"name": "payoutLimits",
							"type": "tuple[]",
							"internalType": "struct JBCurrencyAmount[]",
							"components": [
								{
									"name": "amount",
									"type": "uint224",
									"internalType": "uint224"
								},
								{
									"name": "currency",
									"type": "uint32",
									"internalType": "uint32"
								}
							]
						},
						{
							"name": "surplusAllowances",
							"type": "tuple[]",
							"internalType": "struct JBCurrencyAmount[]",
							"components": [
								{
									"name": "amount",
									"type": "uint224",
									"internalType": "uint224"
								},
								{
									"name": "currency",
									"type": "uint32",
									"internalType": "uint32"
								}
							]
						}
					]
				},
				{
					"name": "caller",
					"type": "address",
					"indexed": false,
					"internalType": "address"
				}
			],
			"anonymous": false
		},
		{
			"type": "error",
			"name": "JBControlled_ControllerUnauthorized",
			"inputs": [
				{
					"name": "controller",
					"type": "address",
					"internalType": "address"
				}
			]
		},
		{
			"type": "error",
			"name": "JBFundAccessLimits_DuplicateFundAccessLimitGroup",
			"inputs": [
				{
					"name": "projectId",
					"type": "uint256",
					"internalType": "uint256"
				},
				{
					"name": "rulesetId",
					"type": "uint256",
					"internalType": "uint256"
				},
				{
					"name": "groupIndex",
					"type": "uint256",
					"internalType": "uint256"
				},
				{
					"name": "terminal",
					"type": "address",
					"internalType": "address"
				},
				{
					"name": "token",
					"type": "address",
					"internalType": "address"
				}
			]
		},
		{
			"type": "error",
			"name": "JBFundAccessLimits_InvalidPayoutLimitCurrencyOrdering",
			"inputs": [
				{
					"name": "projectId",
					"type": "uint256",
					"internalType": "uint256"
				},
				{
					"name": "rulesetId",
					"type": "uint256",
					"internalType": "uint256"
				},
				{
					"name": "groupIndex",
					"type": "uint256",
					"internalType": "uint256"
				},
				{
					"name": "limitIndex",
					"type": "uint256",
					"internalType": "uint256"
				}
			]
		},
		{
			"type": "error",
			"name": "JBFundAccessLimits_InvalidSurplusAllowanceCurrencyOrdering",
			"inputs": [
				{
					"name": "projectId",
					"type": "uint256",
					"internalType": "uint256"
				},
				{
					"name": "rulesetId",
					"type": "uint256",
					"internalType": "uint256"
				},
				{
					"name": "groupIndex",
					"type": "uint256",
					"internalType": "uint256"
				},
				{
					"name": "allowanceIndex",
					"type": "uint256",
					"internalType": "uint256"
				}
			]
		}
	],
	"args": [
		"0x255c5901827dB2d5b982BF8c25090809c36aBA18"
	],
	"solcInputHash": "a28f2c3851084369e47be52e789f22d8",
	"bytecode": "0x60a0604052348015600e575f5ffd5b5060405161102b38038061102b833981016040819052602b91603b565b6001600160a01b03166080526066565b5f60208284031215604a575f5ffd5b81516001600160a01b0381168114605f575f5ffd5b9392505050565b608051610fa76100845f395f8181608f0152610ad40152610fa75ff3fe608060405234801561000f575f5ffd5b5060043610610060575f3560e01c806329ed16cd1461006457806388bc2ef31461008a5780638ca53ccd146100c95780638f1883cc146100dc57806399195fde146100f1578063c8668bfd14610111575b5f5ffd5b610077610072366004610b96565b610124565b6040519081526020015b60405180910390f35b6100b17f000000000000000000000000000000000000000000000000000000000000000081565b6040516001600160a01b039091168152602001610081565b6100776100d7366004610b96565b610200565b6100ef6100ea366004610be4565b6102cd565b005b6101046100ff366004610c63565b610805565b6040516100819190610caa565b61010461011f366004610c63565b610965565b5f85815260016020908152604080832087845282528083206001600160a01b038088168552908352818420908616845282528083208054825181850281018501909352808352849383018282801561019957602002820191905f5260205f20905b815481526020019060010190808311610185575b505083519394505f925050505b818110156101f3575f8382815181106101c1576101c1610d07565b6020026020010151905060e081901c86036101ea576001600160e01b031693506101f792505050565b506001016101a6565b5050505b95945050505050565b5f8581526020818152604080832087845282528083206001600160a01b038088168552908352818420908616845282528083208054825181850281018501909352808352849383018282801561027357602002820191905f5260205f20905b81548152602001906001019080831161025f575b505083519394505f925050505b818110156101f3575f83828151811061029b5761029b610d07565b6020026020010151905060e081901c86036102c4576001600160e01b031693506101f792505050565b50600101610280565b836102d781610abc565b815f5b818110156107fc57368585838181106102f5576102f5610d07565b90506020028101906103079190610d1b565b90505f5b82811015610418573687878381811061032657610326610d07565b90506020028101906103389190610d1b565b90506103476020840184610d39565b6001600160a01b031661035d6020830183610d39565b6001600160a01b03161480156103a2575061037e6040840160208501610d39565b6001600160a01b03166103976040830160208401610d39565b6001600160a01b0316145b1561040f578989856103b76020870187610d39565b6103c76040880160208901610d39565b604051636d28bc7760e11b81526004810195909552602485019390935260448401919091526001600160a01b03908116606484015216608482015260a4015b60405180910390fd5b5060010161030b565b505f6104276040830183610d5b565b905090505f5b818110156105e457366104436040850185610d5b565b8381811061045357610453610d07565b9050604002019050815f141580156104c457506104736040850185610d5b565b61047e600185610da8565b81811061048d5761048d610d07565b90506040020160200160208101906104a59190610de5565b63ffffffff166104bb6040830160208401610de5565b63ffffffff1611155b156104fa57604051630eb4794360e41b8152600481018c9052602481018b90526044810186905260648101839052608401610406565b5f6105086020830183610e14565b6001600160e01b031611156105db575f8b8152602081815260408083208d845282528220919061053a90870187610d39565b6001600160a01b03166001600160a01b031681526020019081526020015f205f85602001602081019061056d9190610d39565b6001600160a01b03166001600160a01b031681526020019081526020015f2060e08260200160208101906105a19190610de5565b63ffffffff16901b6105b66020840184610e14565b82546001810184555f93845260209093206001600160e01b0391909116919091179101555b5060010161042d565b505f6105f36060840184610d5b565b905090505f5b818110156107b2573661060f6060860186610d5b565b8381811061061f5761061f610d07565b9050604002019050815f14158015610690575061063f6060860186610d5b565b61064a600185610da8565b81811061065957610659610d07565b90506040020160200160208101906106719190610de5565b63ffffffff166106876040830160208401610de5565b63ffffffff1611155b156106c657604051632542a7db60e11b8152600481018d9052602481018c90526044810187905260648101839052608401610406565b5f6106d46020830183610e14565b6001600160e01b031611156107a9575f8c81526001602090815260408083208e845282528220919061070890880188610d39565b6001600160a01b03166001600160a01b031681526020019081526020015f205f86602001602081019061073b9190610d39565b6001600160a01b03166001600160a01b031681526020019081526020015f2060e082602001602081019061076f9190610de5565b63ffffffff16901b6107846020840184610e14565b82546001810184555f93845260209093206001600160e01b0391909116919091179101555b506001016105f9565b5089897fce85126d80e10d0807c5b3c14ac4320e0a8e781c2f945e04accd7919bb9d719f85336040516107e6929190610ecf565b60405180910390a38360010193505050506102da565b50505050505050565b5f8481526020818152604080832086845282528083206001600160a01b0380871685529083528184209085168452825280832080548251818502810185019093528083526060949383018282801561087a57602002820191905f5260205f20905b815481526020019060010190808311610866575b50508351939450839250505067ffffffffffffffff81111561089e5761089e610f6b565b6040519080825280602002602001820160405280156108e257816020015b604080518082019091525f80825260208201528152602001906001900390816108bc5790505b5092505f5b8181101561095a575f83828151811061090257610902610d07565b602002602001015190506040518060400160405280826001600160e01b0316815260200160e083901c63ffffffff1681525085838151811061094657610946610d07565b6020908102919091010152506001016108e7565b505050949350505050565b5f84815260016020908152604080832086845282528083206001600160a01b038087168552908352818420908516845282528083208054825181850281018501909352808352606094938301828280156109dc57602002820191905f5260205f20905b8154815260200190600101908083116109c8575b50508351939450839250505067ffffffffffffffff811115610a0057610a00610f6b565b604051908082528060200260200182016040528015610a4457816020015b604080518082019091525f8082526020820152815260200190600190039081610a1e5790505b5092505f5b8181101561095a575f838281518110610a6457610a64610d07565b602002602001015190506040518060400160405280826001600160e01b0316815260200160e083901c63ffffffff16815250858381518110610aa857610aa8610d07565b602090810291909101015250600101610a49565b604051632eec7b5560e11b8152600481018290525f907f00000000000000000000000000000000000000000000000000000000000000006001600160a01b031690635dd8f6aa90602401602060405180830381865afa158015610b21573d5f5f3e3d5ffd5b505050506040513d601f19601f82011682018060405250810190610b459190610f7f565b90506001600160a01b0381163314610b7b57604051639a007b3960e01b81526001600160a01b0382166004820152602401610406565b5050565b6001600160a01b0381168114610b93575f5ffd5b50565b5f5f5f5f5f60a08688031215610baa575f5ffd5b85359450602086013593506040860135610bc381610b7f565b92506060860135610bd381610b7f565b949793965091946080013592915050565b5f5f5f5f60608587031215610bf7575f5ffd5b8435935060208501359250604085013567ffffffffffffffff811115610c1b575f5ffd5b8501601f81018713610c2b575f5ffd5b803567ffffffffffffffff811115610c41575f5ffd5b8760208260051b8401011115610c55575f5ffd5b949793965060200194505050565b5f5f5f5f60808587031215610c76575f5ffd5b84359350602085013592506040850135610c8f81610b7f565b91506060850135610c9f81610b7f565b939692955090935050565b602080825282518282018190525f918401906040840190835b81811015610cfc57835180516001600160e01b0316845260209081015163ffffffff168185015290930192604090920191600101610cc3565b509095945050505050565b634e487b7160e01b5f52603260045260245ffd5b5f8235607e19833603018112610d2f575f5ffd5b9190910192915050565b5f60208284031215610d49575f5ffd5b8135610d5481610b7f565b9392505050565b5f5f8335601e19843603018112610d70575f5ffd5b83018035915067ffffffffffffffff821115610d8a575f5ffd5b6020019150600681901b3603821315610da1575f5ffd5b9250929050565b81810381811115610dc757634e487b7160e01b5f52601160045260245ffd5b92915050565b803563ffffffff81168114610de0575f5ffd5b919050565b5f60208284031215610df5575f5ffd5b610d5482610dcd565b80356001600160e01b0381168114610de0575f5ffd5b5f60208284031215610e24575f5ffd5b610d5482610dfe565b5f5f8335601e19843603018112610e42575f5ffd5b830160208101925035905067ffffffffffffffff811115610e61575f5ffd5b8060061b3603821315610da1575f5ffd5b8183526020830192505f815f5b84811015610ec5576001600160e01b03610e9883610dfe565b16865263ffffffff610eac60208401610dcd565b1660208701526040958601959190910190600101610e7f565b5093949350505050565b604081525f8335610edf81610b7f565b6001600160a01b031660408301526020840135610efb81610b7f565b6001600160a01b03166060830152610f166040850185610e2d565b608080850152610f2a60c085018284610e72565b915050610f3a6060860186610e2d565b848303603f190160a0860152610f51838284610e72565b935050505060018060a01b03831660208301529392505050565b634e487b7160e01b5f52604160045260245ffd5b5f60208284031215610f8f575f5ffd5b8151610d5481610b7f56fea164736f6c634300081c000a",
	"gitCommit": "npm:@bananapus/core-v6@0.0.81",
	"gitDirty": false,
	"history": []
}