{
	"format": "sphinx-sol-ct-artifact-1",
	"address": "0xa37213cbc60cdc9111849d31536471a0f084ece0",
	"sourceName": "node_modules/@bananapus/core-v6/src/periphery/JBMatchingPriceFeed.sol",
	"contractName": "JBMatchingPriceFeed",
	"chainId": "0x14a34",
	"abi": [
		{
			"type": "constructor",
			"inputs": [],
			"stateMutability": "nonpayable"
		},
		{
			"type": "function",
			"name": "currentUnitPrice",
			"inputs": [
				{
					"name": "decimals",
					"type": "uint256",
					"internalType": "uint256"
				}
			],
			"outputs": [
				{
					"name": "",
					"type": "uint256",
					"internalType": "uint256"
				}
			],
			"stateMutability": "view"
		}
	],
	"args": [],
	"solcInputHash": "7cda9d62a3c4e23dd78e1508ca7b3bb9",
	"bytecode": "0x6080604052348015600e575f5ffd5b506101918061001c5f395ff3fe608060405234801561000f575f5ffd5b5060043610610029575f3560e01c8063d3f5c15f1461002d575b5f5ffd5b61004061003b366004610064565b610052565b60405190815260200160405180910390f35b5f61005e82600a610172565b92915050565b5f60208284031215610074575f5ffd5b5035919050565b634e487b7160e01b5f52601160045260245ffd5b6001815b60018411156100ca578085048111156100ae576100ae61007b565b60018416156100bc57908102905b60019390931c928002610093565b935093915050565b5f826100e05750600161005e565b816100ec57505f61005e565b8160018114610102576002811461010c57610128565b600191505061005e565b60ff84111561011d5761011d61007b565b50506001821b61005e565b5060208310610133831016604e8410600b841016171561014b575081810a61005e565b6101575f19848461008f565b805f190482111561016a5761016a61007b565b029392505050565b5f61017d83836100d2565b939250505056fea164736f6c634300081c000a",
	"gitCommit": "npm:@bananapus/core-v6@1.0.2",
	"gitDirty": false,
	"history": []
}