{
	"format": "sphinx-sol-ct-artifact-1",
	"address": "0x047ad1a119cb44b726ce37144d7b55f77781451c",
	"sourceName": "node_modules/@bananapus/omnichain-deployers-v6/src/JBOmnichainDeployer.sol",
	"contractName": "JBOmnichainDeployer",
	"chainId": "0x14a34",
	"abi": [
		{
			"type": "constructor",
			"inputs": [
				{
					"name": "suckerRegistry",
					"type": "address",
					"internalType": "contract IJBSuckerRegistry"
				},
				{
					"name": "hookDeployer",
					"type": "address",
					"internalType": "contract IJB721TiersHookDeployer"
				},
				{
					"name": "permissions",
					"type": "address",
					"internalType": "contract IJBPermissions"
				},
				{
					"name": "controller",
					"type": "address",
					"internalType": "contract IJBController"
				},
				{
					"name": "trustedForwarder",
					"type": "address",
					"internalType": "address"
				}
			],
			"stateMutability": "nonpayable"
		},
		{
			"type": "function",
			"name": "CONTROLLER",
			"inputs": [],
			"outputs": [
				{
					"name": "",
					"type": "address",
					"internalType": "contract IJBController"
				}
			],
			"stateMutability": "view"
		},
		{
			"type": "function",
			"name": "DIRECTORY",
			"inputs": [],
			"outputs": [
				{
					"name": "",
					"type": "address",
					"internalType": "contract IJBDirectory"
				}
			],
			"stateMutability": "view"
		},
		{
			"type": "function",
			"name": "HOOK_DEPLOYER",
			"inputs": [],
			"outputs": [
				{
					"name": "",
					"type": "address",
					"internalType": "contract IJB721TiersHookDeployer"
				}
			],
			"stateMutability": "view"
		},
		{
			"type": "function",
			"name": "PERMISSIONS",
			"inputs": [],
			"outputs": [
				{
					"name": "",
					"type": "address",
					"internalType": "contract IJBPermissions"
				}
			],
			"stateMutability": "view"
		},
		{
			"type": "function",
			"name": "PROJECTS",
			"inputs": [],
			"outputs": [
				{
					"name": "",
					"type": "address",
					"internalType": "contract IJBProjects"
				}
			],
			"stateMutability": "view"
		},
		{
			"type": "function",
			"name": "SUCKER_REGISTRY",
			"inputs": [],
			"outputs": [
				{
					"name": "",
					"type": "address",
					"internalType": "contract IJBSuckerRegistry"
				}
			],
			"stateMutability": "view"
		},
		{
			"type": "function",
			"name": "beforeCashOutRecordedWith",
			"inputs": [
				{
					"name": "context",
					"type": "tuple",
					"internalType": "struct JBBeforeCashOutRecordedContext",
					"components": [
						{
							"name": "terminal",
							"type": "address",
							"internalType": "address"
						},
						{
							"name": "holder",
							"type": "address",
							"internalType": "address"
						},
						{
							"name": "projectId",
							"type": "uint256",
							"internalType": "uint256"
						},
						{
							"name": "rulesetId",
							"type": "uint256",
							"internalType": "uint256"
						},
						{
							"name": "cashOutCount",
							"type": "uint256",
							"internalType": "uint256"
						},
						{
							"name": "totalSupply",
							"type": "uint256",
							"internalType": "uint256"
						},
						{
							"name": "surplus",
							"type": "tuple",
							"internalType": "struct JBTokenAmount",
							"components": [
								{
									"name": "token",
									"type": "address",
									"internalType": "address"
								},
								{
									"name": "decimals",
									"type": "uint8",
									"internalType": "uint8"
								},
								{
									"name": "currency",
									"type": "uint32",
									"internalType": "uint32"
								},
								{
									"name": "value",
									"type": "uint256",
									"internalType": "uint256"
								}
							]
						},
						{
							"name": "scopeCashOutsToLocalBalances",
							"type": "bool",
							"internalType": "bool"
						},
						{
							"name": "cashOutTaxRate",
							"type": "uint256",
							"internalType": "uint256"
						},
						{
							"name": "beneficiaryIsFeeless",
							"type": "bool",
							"internalType": "bool"
						},
						{
							"name": "metadata",
							"type": "bytes",
							"internalType": "bytes"
						}
					]
				}
			],
			"outputs": [
				{
					"name": "cashOutTaxRate",
					"type": "uint256",
					"internalType": "uint256"
				},
				{
					"name": "cashOutCount",
					"type": "uint256",
					"internalType": "uint256"
				},
				{
					"name": "totalSupply",
					"type": "uint256",
					"internalType": "uint256"
				},
				{
					"name": "effectiveSurplusValue",
					"type": "uint256",
					"internalType": "uint256"
				},
				{
					"name": "hookSpecifications",
					"type": "tuple[]",
					"internalType": "struct JBCashOutHookSpecification[]",
					"components": [
						{
							"name": "hook",
							"type": "address",
							"internalType": "contract IJBCashOutHook"
						},
						{
							"name": "noop",
							"type": "bool",
							"internalType": "bool"
						},
						{
							"name": "amount",
							"type": "uint256",
							"internalType": "uint256"
						},
						{
							"name": "metadata",
							"type": "bytes",
							"internalType": "bytes"
						}
					]
				}
			],
			"stateMutability": "view"
		},
		{
			"type": "function",
			"name": "beforePayRecordedWith",
			"inputs": [
				{
					"name": "context",
					"type": "tuple",
					"internalType": "struct JBBeforePayRecordedContext",
					"components": [
						{
							"name": "terminal",
							"type": "address",
							"internalType": "address"
						},
						{
							"name": "payer",
							"type": "address",
							"internalType": "address"
						},
						{
							"name": "amount",
							"type": "tuple",
							"internalType": "struct JBTokenAmount",
							"components": [
								{
									"name": "token",
									"type": "address",
									"internalType": "address"
								},
								{
									"name": "decimals",
									"type": "uint8",
									"internalType": "uint8"
								},
								{
									"name": "currency",
									"type": "uint32",
									"internalType": "uint32"
								},
								{
									"name": "value",
									"type": "uint256",
									"internalType": "uint256"
								}
							]
						},
						{
							"name": "projectId",
							"type": "uint256",
							"internalType": "uint256"
						},
						{
							"name": "rulesetId",
							"type": "uint256",
							"internalType": "uint256"
						},
						{
							"name": "beneficiary",
							"type": "address",
							"internalType": "address"
						},
						{
							"name": "weight",
							"type": "uint256",
							"internalType": "uint256"
						},
						{
							"name": "reservedPercent",
							"type": "uint256",
							"internalType": "uint256"
						},
						{
							"name": "metadata",
							"type": "bytes",
							"internalType": "bytes"
						}
					]
				}
			],
			"outputs": [
				{
					"name": "weight",
					"type": "uint256",
					"internalType": "uint256"
				},
				{
					"name": "hookSpecifications",
					"type": "tuple[]",
					"internalType": "struct JBPayHookSpecification[]",
					"components": [
						{
							"name": "hook",
							"type": "address",
							"internalType": "contract IJBPayHook"
						},
						{
							"name": "noop",
							"type": "bool",
							"internalType": "bool"
						},
						{
							"name": "amount",
							"type": "uint256",
							"internalType": "uint256"
						},
						{
							"name": "metadata",
							"type": "bytes",
							"internalType": "bytes"
						}
					]
				}
			],
			"stateMutability": "view"
		},
		{
			"type": "function",
			"name": "deploySuckersFor",
			"inputs": [
				{
					"name": "projectId",
					"type": "uint256",
					"internalType": "uint256"
				},
				{
					"name": "suckerDeploymentConfiguration",
					"type": "tuple",
					"internalType": "struct JBSuckerDeploymentConfig",
					"components": [
						{
							"name": "deployerConfigurations",
							"type": "tuple[]",
							"internalType": "struct JBSuckerDeployerConfig[]",
							"components": [
								{
									"name": "deployer",
									"type": "address",
									"internalType": "contract IJBSuckerDeployer"
								},
								{
									"name": "peer",
									"type": "bytes32",
									"internalType": "bytes32"
								},
								{
									"name": "mappings",
									"type": "tuple[]",
									"internalType": "struct JBTokenMapping[]",
									"components": [
										{
											"name": "localToken",
											"type": "address",
											"internalType": "address"
										},
										{
											"name": "minGas",
											"type": "uint32",
											"internalType": "uint32"
										},
										{
											"name": "remoteToken",
											"type": "bytes32",
											"internalType": "bytes32"
										}
									]
								}
							]
						},
						{
							"name": "salt",
							"type": "bytes32",
							"internalType": "bytes32"
						}
					]
				}
			],
			"outputs": [
				{
					"name": "suckers",
					"type": "address[]",
					"internalType": "address[]"
				}
			],
			"stateMutability": "nonpayable"
		},
		{
			"type": "function",
			"name": "extraDataHookOf",
			"inputs": [
				{
					"name": "projectId",
					"type": "uint256",
					"internalType": "uint256"
				},
				{
					"name": "rulesetId",
					"type": "uint256",
					"internalType": "uint256"
				}
			],
			"outputs": [
				{
					"name": "hook",
					"type": "tuple",
					"internalType": "struct JBDeployerHookConfig",
					"components": [
						{
							"name": "dataHook",
							"type": "address",
							"internalType": "contract IJBRulesetDataHook"
						},
						{
							"name": "useDataHookForPay",
							"type": "bool",
							"internalType": "bool"
						},
						{
							"name": "useDataHookForCashOut",
							"type": "bool",
							"internalType": "bool"
						}
					]
				}
			],
			"stateMutability": "view"
		},
		{
			"type": "function",
			"name": "hasMintPermissionFor",
			"inputs": [
				{
					"name": "projectId",
					"type": "uint256",
					"internalType": "uint256"
				},
				{
					"name": "ruleset",
					"type": "tuple",
					"internalType": "struct JBRuleset",
					"components": [
						{
							"name": "cycleNumber",
							"type": "uint48",
							"internalType": "uint48"
						},
						{
							"name": "id",
							"type": "uint48",
							"internalType": "uint48"
						},
						{
							"name": "basedOnId",
							"type": "uint48",
							"internalType": "uint48"
						},
						{
							"name": "start",
							"type": "uint48",
							"internalType": "uint48"
						},
						{
							"name": "duration",
							"type": "uint32",
							"internalType": "uint32"
						},
						{
							"name": "weight",
							"type": "uint112",
							"internalType": "uint112"
						},
						{
							"name": "weightCutPercent",
							"type": "uint32",
							"internalType": "uint32"
						},
						{
							"name": "approvalHook",
							"type": "address",
							"internalType": "contract IJBRulesetApprovalHook"
						},
						{
							"name": "metadata",
							"type": "uint256",
							"internalType": "uint256"
						}
					]
				},
				{
					"name": "addr",
					"type": "address",
					"internalType": "address"
				}
			],
			"outputs": [
				{
					"name": "",
					"type": "bool",
					"internalType": "bool"
				}
			],
			"stateMutability": "view"
		},
		{
			"type": "function",
			"name": "isTrustedForwarder",
			"inputs": [
				{
					"name": "forwarder",
					"type": "address",
					"internalType": "address"
				}
			],
			"outputs": [
				{
					"name": "",
					"type": "bool",
					"internalType": "bool"
				}
			],
			"stateMutability": "view"
		},
		{
			"type": "function",
			"name": "launchProjectFor",
			"inputs": [
				{
					"name": "owner",
					"type": "address",
					"internalType": "address"
				},
				{
					"name": "projectUri",
					"type": "string",
					"internalType": "string"
				},
				{
					"name": "deploy721Config",
					"type": "tuple",
					"internalType": "struct JBOmnichain721Config",
					"components": [
						{
							"name": "deployTiersHookConfig",
							"type": "tuple",
							"internalType": "struct JBDeploy721TiersHookConfig",
							"components": [
								{
									"name": "name",
									"type": "string",
									"internalType": "string"
								},
								{
									"name": "symbol",
									"type": "string",
									"internalType": "string"
								},
								{
									"name": "baseUri",
									"type": "string",
									"internalType": "string"
								},
								{
									"name": "tokenUriResolver",
									"type": "address",
									"internalType": "contract IJB721TokenUriResolver"
								},
								{
									"name": "contractUri",
									"type": "string",
									"internalType": "string"
								},
								{
									"name": "tiersConfig",
									"type": "tuple",
									"internalType": "struct JB721InitTiersConfig",
									"components": [
										{
											"name": "tiers",
											"type": "tuple[]",
											"internalType": "struct JB721TierConfig[]",
											"components": [
												{
													"name": "price",
													"type": "uint104",
													"internalType": "uint104"
												},
												{
													"name": "initialSupply",
													"type": "uint32",
													"internalType": "uint32"
												},
												{
													"name": "votingUnits",
													"type": "uint32",
													"internalType": "uint32"
												},
												{
													"name": "reserveFrequency",
													"type": "uint16",
													"internalType": "uint16"
												},
												{
													"name": "reserveBeneficiary",
													"type": "address",
													"internalType": "address"
												},
												{
													"name": "encodedIpfsUri",
													"type": "bytes32",
													"internalType": "bytes32"
												},
												{
													"name": "category",
													"type": "uint24",
													"internalType": "uint24"
												},
												{
													"name": "discountPercent",
													"type": "uint8",
													"internalType": "uint8"
												},
												{
													"name": "flags",
													"type": "tuple",
													"internalType": "struct JB721TierConfigFlags",
													"components": [
														{
															"name": "allowOwnerMint",
															"type": "bool",
															"internalType": "bool"
														},
														{
															"name": "useReserveBeneficiaryAsDefault",
															"type": "bool",
															"internalType": "bool"
														},
														{
															"name": "transfersPausable",
															"type": "bool",
															"internalType": "bool"
														},
														{
															"name": "useVotingUnits",
															"type": "bool",
															"internalType": "bool"
														},
														{
															"name": "cantBeRemoved",
															"type": "bool",
															"internalType": "bool"
														},
														{
															"name": "cantIncreaseDiscountPercent",
															"type": "bool",
															"internalType": "bool"
														},
														{
															"name": "cantBuyWithCredits",
															"type": "bool",
															"internalType": "bool"
														}
													]
												},
												{
													"name": "splitPercent",
													"type": "uint32",
													"internalType": "uint32"
												},
												{
													"name": "splits",
													"type": "tuple[]",
													"internalType": "struct JBSplit[]",
													"components": [
														{
															"name": "percent",
															"type": "uint32",
															"internalType": "uint32"
														},
														{
															"name": "projectId",
															"type": "uint64",
															"internalType": "uint64"
														},
														{
															"name": "beneficiary",
															"type": "address",
															"internalType": "address payable"
														},
														{
															"name": "preferAddToBalance",
															"type": "bool",
															"internalType": "bool"
														},
														{
															"name": "lockedUntil",
															"type": "uint48",
															"internalType": "uint48"
														},
														{
															"name": "hook",
															"type": "address",
															"internalType": "contract IJBSplitHook"
														}
													]
												}
											]
										},
										{
											"name": "currency",
											"type": "uint32",
											"internalType": "uint32"
										},
										{
											"name": "decimals",
											"type": "uint8",
											"internalType": "uint8"
										}
									]
								},
								{
									"name": "flags",
									"type": "tuple",
									"internalType": "struct JB721TiersHookFlags",
									"components": [
										{
											"name": "noNewTiersWithReserves",
											"type": "bool",
											"internalType": "bool"
										},
										{
											"name": "noNewTiersWithVotes",
											"type": "bool",
											"internalType": "bool"
										},
										{
											"name": "noNewTiersWithOwnerMinting",
											"type": "bool",
											"internalType": "bool"
										},
										{
											"name": "preventOverspending",
											"type": "bool",
											"internalType": "bool"
										},
										{
											"name": "issueTokensForSplits",
											"type": "bool",
											"internalType": "bool"
										}
									]
								}
							]
						},
						{
							"name": "useDataHookForCashOut",
							"type": "bool",
							"internalType": "bool"
						},
						{
							"name": "salt",
							"type": "bytes32",
							"internalType": "bytes32"
						}
					]
				},
				{
					"name": "rulesetConfigurations",
					"type": "tuple[]",
					"internalType": "struct JBRulesetConfig[]",
					"components": [
						{
							"name": "mustStartAtOrAfter",
							"type": "uint48",
							"internalType": "uint48"
						},
						{
							"name": "duration",
							"type": "uint32",
							"internalType": "uint32"
						},
						{
							"name": "weight",
							"type": "uint112",
							"internalType": "uint112"
						},
						{
							"name": "weightCutPercent",
							"type": "uint32",
							"internalType": "uint32"
						},
						{
							"name": "approvalHook",
							"type": "address",
							"internalType": "contract IJBRulesetApprovalHook"
						},
						{
							"name": "metadata",
							"type": "tuple",
							"internalType": "struct JBRulesetMetadata",
							"components": [
								{
									"name": "reservedPercent",
									"type": "uint16",
									"internalType": "uint16"
								},
								{
									"name": "cashOutTaxRate",
									"type": "uint16",
									"internalType": "uint16"
								},
								{
									"name": "baseCurrency",
									"type": "uint32",
									"internalType": "uint32"
								},
								{
									"name": "pausePay",
									"type": "bool",
									"internalType": "bool"
								},
								{
									"name": "pauseCreditTransfers",
									"type": "bool",
									"internalType": "bool"
								},
								{
									"name": "allowOwnerMinting",
									"type": "bool",
									"internalType": "bool"
								},
								{
									"name": "allowSetCustomToken",
									"type": "bool",
									"internalType": "bool"
								},
								{
									"name": "allowTerminalMigration",
									"type": "bool",
									"internalType": "bool"
								},
								{
									"name": "allowSetTerminals",
									"type": "bool",
									"internalType": "bool"
								},
								{
									"name": "allowSetController",
									"type": "bool",
									"internalType": "bool"
								},
								{
									"name": "allowAddAccountingContext",
									"type": "bool",
									"internalType": "bool"
								},
								{
									"name": "allowAddPriceFeed",
									"type": "bool",
									"internalType": "bool"
								},
								{
									"name": "ownerMustSendPayouts",
									"type": "bool",
									"internalType": "bool"
								},
								{
									"name": "holdFees",
									"type": "bool",
									"internalType": "bool"
								},
								{
									"name": "scopeCashOutsToLocalBalances",
									"type": "bool",
									"internalType": "bool"
								},
								{
									"name": "useDataHookForPay",
									"type": "bool",
									"internalType": "bool"
								},
								{
									"name": "useDataHookForCashOut",
									"type": "bool",
									"internalType": "bool"
								},
								{
									"name": "dataHook",
									"type": "address",
									"internalType": "address"
								},
								{
									"name": "metadata",
									"type": "uint16",
									"internalType": "uint16"
								}
							]
						},
						{
							"name": "splitGroups",
							"type": "tuple[]",
							"internalType": "struct JBSplitGroup[]",
							"components": [
								{
									"name": "groupId",
									"type": "uint256",
									"internalType": "uint256"
								},
								{
									"name": "splits",
									"type": "tuple[]",
									"internalType": "struct JBSplit[]",
									"components": [
										{
											"name": "percent",
											"type": "uint32",
											"internalType": "uint32"
										},
										{
											"name": "projectId",
											"type": "uint64",
											"internalType": "uint64"
										},
										{
											"name": "beneficiary",
											"type": "address",
											"internalType": "address payable"
										},
										{
											"name": "preferAddToBalance",
											"type": "bool",
											"internalType": "bool"
										},
										{
											"name": "lockedUntil",
											"type": "uint48",
											"internalType": "uint48"
										},
										{
											"name": "hook",
											"type": "address",
											"internalType": "contract IJBSplitHook"
										}
									]
								}
							]
						},
						{
							"name": "fundAccessLimitGroups",
							"type": "tuple[]",
							"internalType": "struct JBFundAccessLimitGroup[]",
							"components": [
								{
									"name": "terminal",
									"type": "address",
									"internalType": "address"
								},
								{
									"name": "token",
									"type": "address",
									"internalType": "address"
								},
								{
									"name": "payoutLimits",
									"type": "tuple[]",
									"internalType": "struct JBCurrencyAmount[]",
									"components": [
										{
											"name": "amount",
											"type": "uint224",
											"internalType": "uint224"
										},
										{
											"name": "currency",
											"type": "uint32",
											"internalType": "uint32"
										}
									]
								},
								{
									"name": "surplusAllowances",
									"type": "tuple[]",
									"internalType": "struct JBCurrencyAmount[]",
									"components": [
										{
											"name": "amount",
											"type": "uint224",
											"internalType": "uint224"
										},
										{
											"name": "currency",
											"type": "uint32",
											"internalType": "uint32"
										}
									]
								}
							]
						}
					]
				},
				{
					"name": "terminalConfigurations",
					"type": "tuple[]",
					"internalType": "struct JBTerminalConfig[]",
					"components": [
						{
							"name": "terminal",
							"type": "address",
							"internalType": "contract IJBTerminal"
						},
						{
							"name": "accountingContextsToAccept",
							"type": "tuple[]",
							"internalType": "struct JBAccountingContext[]",
							"components": [
								{
									"name": "token",
									"type": "address",
									"internalType": "address"
								},
								{
									"name": "decimals",
									"type": "uint8",
									"internalType": "uint8"
								},
								{
									"name": "currency",
									"type": "uint32",
									"internalType": "uint32"
								}
							]
						}
					]
				},
				{
					"name": "memo",
					"type": "string",
					"internalType": "string"
				},
				{
					"name": "suckerDeploymentConfiguration",
					"type": "tuple",
					"internalType": "struct JBSuckerDeploymentConfig",
					"components": [
						{
							"name": "deployerConfigurations",
							"type": "tuple[]",
							"internalType": "struct JBSuckerDeployerConfig[]",
							"components": [
								{
									"name": "deployer",
									"type": "address",
									"internalType": "contract IJBSuckerDeployer"
								},
								{
									"name": "peer",
									"type": "bytes32",
									"internalType": "bytes32"
								},
								{
									"name": "mappings",
									"type": "tuple[]",
									"internalType": "struct JBTokenMapping[]",
									"components": [
										{
											"name": "localToken",
											"type": "address",
											"internalType": "address"
										},
										{
											"name": "minGas",
											"type": "uint32",
											"internalType": "uint32"
										},
										{
											"name": "remoteToken",
											"type": "bytes32",
											"internalType": "bytes32"
										}
									]
								}
							]
						},
						{
							"name": "salt",
							"type": "bytes32",
							"internalType": "bytes32"
						}
					]
				}
			],
			"outputs": [
				{
					"name": "projectId",
					"type": "uint256",
					"internalType": "uint256"
				},
				{
					"name": "hook",
					"type": "address",
					"internalType": "contract IJB721TiersHook"
				},
				{
					"name": "suckers",
					"type": "address[]",
					"internalType": "address[]"
				}
			],
			"stateMutability": "payable"
		},
		{
			"type": "function",
			"name": "launchProjectFor",
			"inputs": [
				{
					"name": "owner",
					"type": "address",
					"internalType": "address"
				},
				{
					"name": "projectUri",
					"type": "string",
					"internalType": "string"
				},
				{
					"name": "rulesetConfigurations",
					"type": "tuple[]",
					"internalType": "struct JBRulesetConfig[]",
					"components": [
						{
							"name": "mustStartAtOrAfter",
							"type": "uint48",
							"internalType": "uint48"
						},
						{
							"name": "duration",
							"type": "uint32",
							"internalType": "uint32"
						},
						{
							"name": "weight",
							"type": "uint112",
							"internalType": "uint112"
						},
						{
							"name": "weightCutPercent",
							"type": "uint32",
							"internalType": "uint32"
						},
						{
							"name": "approvalHook",
							"type": "address",
							"internalType": "contract IJBRulesetApprovalHook"
						},
						{
							"name": "metadata",
							"type": "tuple",
							"internalType": "struct JBRulesetMetadata",
							"components": [
								{
									"name": "reservedPercent",
									"type": "uint16",
									"internalType": "uint16"
								},
								{
									"name": "cashOutTaxRate",
									"type": "uint16",
									"internalType": "uint16"
								},
								{
									"name": "baseCurrency",
									"type": "uint32",
									"internalType": "uint32"
								},
								{
									"name": "pausePay",
									"type": "bool",
									"internalType": "bool"
								},
								{
									"name": "pauseCreditTransfers",
									"type": "bool",
									"internalType": "bool"
								},
								{
									"name": "allowOwnerMinting",
									"type": "bool",
									"internalType": "bool"
								},
								{
									"name": "allowSetCustomToken",
									"type": "bool",
									"internalType": "bool"
								},
								{
									"name": "allowTerminalMigration",
									"type": "bool",
									"internalType": "bool"
								},
								{
									"name": "allowSetTerminals",
									"type": "bool",
									"internalType": "bool"
								},
								{
									"name": "allowSetController",
									"type": "bool",
									"internalType": "bool"
								},
								{
									"name": "allowAddAccountingContext",
									"type": "bool",
									"internalType": "bool"
								},
								{
									"name": "allowAddPriceFeed",
									"type": "bool",
									"internalType": "bool"
								},
								{
									"name": "ownerMustSendPayouts",
									"type": "bool",
									"internalType": "bool"
								},
								{
									"name": "holdFees",
									"type": "bool",
									"internalType": "bool"
								},
								{
									"name": "scopeCashOutsToLocalBalances",
									"type": "bool",
									"internalType": "bool"
								},
								{
									"name": "useDataHookForPay",
									"type": "bool",
									"internalType": "bool"
								},
								{
									"name": "useDataHookForCashOut",
									"type": "bool",
									"internalType": "bool"
								},
								{
									"name": "dataHook",
									"type": "address",
									"internalType": "address"
								},
								{
									"name": "metadata",
									"type": "uint16",
									"internalType": "uint16"
								}
							]
						},
						{
							"name": "splitGroups",
							"type": "tuple[]",
							"internalType": "struct JBSplitGroup[]",
							"components": [
								{
									"name": "groupId",
									"type": "uint256",
									"internalType": "uint256"
								},
								{
									"name": "splits",
									"type": "tuple[]",
									"internalType": "struct JBSplit[]",
									"components": [
										{
											"name": "percent",
											"type": "uint32",
											"internalType": "uint32"
										},
										{
											"name": "projectId",
											"type": "uint64",
											"internalType": "uint64"
										},
										{
											"name": "beneficiary",
											"type": "address",
											"internalType": "address payable"
										},
										{
											"name": "preferAddToBalance",
											"type": "bool",
											"internalType": "bool"
										},
										{
											"name": "lockedUntil",
											"type": "uint48",
											"internalType": "uint48"
										},
										{
											"name": "hook",
											"type": "address",
											"internalType": "contract IJBSplitHook"
										}
									]
								}
							]
						},
						{
							"name": "fundAccessLimitGroups",
							"type": "tuple[]",
							"internalType": "struct JBFundAccessLimitGroup[]",
							"components": [
								{
									"name": "terminal",
									"type": "address",
									"internalType": "address"
								},
								{
									"name": "token",
									"type": "address",
									"internalType": "address"
								},
								{
									"name": "payoutLimits",
									"type": "tuple[]",
									"internalType": "struct JBCurrencyAmount[]",
									"components": [
										{
											"name": "amount",
											"type": "uint224",
											"internalType": "uint224"
										},
										{
											"name": "currency",
											"type": "uint32",
											"internalType": "uint32"
										}
									]
								},
								{
									"name": "surplusAllowances",
									"type": "tuple[]",
									"internalType": "struct JBCurrencyAmount[]",
									"components": [
										{
											"name": "amount",
											"type": "uint224",
											"internalType": "uint224"
										},
										{
											"name": "currency",
											"type": "uint32",
											"internalType": "uint32"
										}
									]
								}
							]
						}
					]
				},
				{
					"name": "terminalConfigurations",
					"type": "tuple[]",
					"internalType": "struct JBTerminalConfig[]",
					"components": [
						{
							"name": "terminal",
							"type": "address",
							"internalType": "contract IJBTerminal"
						},
						{
							"name": "accountingContextsToAccept",
							"type": "tuple[]",
							"internalType": "struct JBAccountingContext[]",
							"components": [
								{
									"name": "token",
									"type": "address",
									"internalType": "address"
								},
								{
									"name": "decimals",
									"type": "uint8",
									"internalType": "uint8"
								},
								{
									"name": "currency",
									"type": "uint32",
									"internalType": "uint32"
								}
							]
						}
					]
				},
				{
					"name": "memo",
					"type": "string",
					"internalType": "string"
				},
				{
					"name": "suckerDeploymentConfiguration",
					"type": "tuple",
					"internalType": "struct JBSuckerDeploymentConfig",
					"components": [
						{
							"name": "deployerConfigurations",
							"type": "tuple[]",
							"internalType": "struct JBSuckerDeployerConfig[]",
							"components": [
								{
									"name": "deployer",
									"type": "address",
									"internalType": "contract IJBSuckerDeployer"
								},
								{
									"name": "peer",
									"type": "bytes32",
									"internalType": "bytes32"
								},
								{
									"name": "mappings",
									"type": "tuple[]",
									"internalType": "struct JBTokenMapping[]",
									"components": [
										{
											"name": "localToken",
											"type": "address",
											"internalType": "address"
										},
										{
											"name": "minGas",
											"type": "uint32",
											"internalType": "uint32"
										},
										{
											"name": "remoteToken",
											"type": "bytes32",
											"internalType": "bytes32"
										}
									]
								}
							]
						},
						{
							"name": "salt",
							"type": "bytes32",
							"internalType": "bytes32"
						}
					]
				}
			],
			"outputs": [
				{
					"name": "projectId",
					"type": "uint256",
					"internalType": "uint256"
				},
				{
					"name": "hook",
					"type": "address",
					"internalType": "contract IJB721TiersHook"
				},
				{
					"name": "suckers",
					"type": "address[]",
					"internalType": "address[]"
				}
			],
			"stateMutability": "payable"
		},
		{
			"type": "function",
			"name": "launchRulesetsFor",
			"inputs": [
				{
					"name": "projectId",
					"type": "uint256",
					"internalType": "uint256"
				},
				{
					"name": "projectUri",
					"type": "string",
					"internalType": "string"
				},
				{
					"name": "rulesetConfigurations",
					"type": "tuple[]",
					"internalType": "struct JBRulesetConfig[]",
					"components": [
						{
							"name": "mustStartAtOrAfter",
							"type": "uint48",
							"internalType": "uint48"
						},
						{
							"name": "duration",
							"type": "uint32",
							"internalType": "uint32"
						},
						{
							"name": "weight",
							"type": "uint112",
							"internalType": "uint112"
						},
						{
							"name": "weightCutPercent",
							"type": "uint32",
							"internalType": "uint32"
						},
						{
							"name": "approvalHook",
							"type": "address",
							"internalType": "contract IJBRulesetApprovalHook"
						},
						{
							"name": "metadata",
							"type": "tuple",
							"internalType": "struct JBRulesetMetadata",
							"components": [
								{
									"name": "reservedPercent",
									"type": "uint16",
									"internalType": "uint16"
								},
								{
									"name": "cashOutTaxRate",
									"type": "uint16",
									"internalType": "uint16"
								},
								{
									"name": "baseCurrency",
									"type": "uint32",
									"internalType": "uint32"
								},
								{
									"name": "pausePay",
									"type": "bool",
									"internalType": "bool"
								},
								{
									"name": "pauseCreditTransfers",
									"type": "bool",
									"internalType": "bool"
								},
								{
									"name": "allowOwnerMinting",
									"type": "bool",
									"internalType": "bool"
								},
								{
									"name": "allowSetCustomToken",
									"type": "bool",
									"internalType": "bool"
								},
								{
									"name": "allowTerminalMigration",
									"type": "bool",
									"internalType": "bool"
								},
								{
									"name": "allowSetTerminals",
									"type": "bool",
									"internalType": "bool"
								},
								{
									"name": "allowSetController",
									"type": "bool",
									"internalType": "bool"
								},
								{
									"name": "allowAddAccountingContext",
									"type": "bool",
									"internalType": "bool"
								},
								{
									"name": "allowAddPriceFeed",
									"type": "bool",
									"internalType": "bool"
								},
								{
									"name": "ownerMustSendPayouts",
									"type": "bool",
									"internalType": "bool"
								},
								{
									"name": "holdFees",
									"type": "bool",
									"internalType": "bool"
								},
								{
									"name": "scopeCashOutsToLocalBalances",
									"type": "bool",
									"internalType": "bool"
								},
								{
									"name": "useDataHookForPay",
									"type": "bool",
									"internalType": "bool"
								},
								{
									"name": "useDataHookForCashOut",
									"type": "bool",
									"internalType": "bool"
								},
								{
									"name": "dataHook",
									"type": "address",
									"internalType": "address"
								},
								{
									"name": "metadata",
									"type": "uint16",
									"internalType": "uint16"
								}
							]
						},
						{
							"name": "splitGroups",
							"type": "tuple[]",
							"internalType": "struct JBSplitGroup[]",
							"components": [
								{
									"name": "groupId",
									"type": "uint256",
									"internalType": "uint256"
								},
								{
									"name": "splits",
									"type": "tuple[]",
									"internalType": "struct JBSplit[]",
									"components": [
										{
											"name": "percent",
											"type": "uint32",
											"internalType": "uint32"
										},
										{
											"name": "projectId",
											"type": "uint64",
											"internalType": "uint64"
										},
										{
											"name": "beneficiary",
											"type": "address",
											"internalType": "address payable"
										},
										{
											"name": "preferAddToBalance",
											"type": "bool",
											"internalType": "bool"
										},
										{
											"name": "lockedUntil",
											"type": "uint48",
											"internalType": "uint48"
										},
										{
											"name": "hook",
											"type": "address",
											"internalType": "contract IJBSplitHook"
										}
									]
								}
							]
						},
						{
							"name": "fundAccessLimitGroups",
							"type": "tuple[]",
							"internalType": "struct JBFundAccessLimitGroup[]",
							"components": [
								{
									"name": "terminal",
									"type": "address",
									"internalType": "address"
								},
								{
									"name": "token",
									"type": "address",
									"internalType": "address"
								},
								{
									"name": "payoutLimits",
									"type": "tuple[]",
									"internalType": "struct JBCurrencyAmount[]",
									"components": [
										{
											"name": "amount",
											"type": "uint224",
											"internalType": "uint224"
										},
										{
											"name": "currency",
											"type": "uint32",
											"internalType": "uint32"
										}
									]
								},
								{
									"name": "surplusAllowances",
									"type": "tuple[]",
									"internalType": "struct JBCurrencyAmount[]",
									"components": [
										{
											"name": "amount",
											"type": "uint224",
											"internalType": "uint224"
										},
										{
											"name": "currency",
											"type": "uint32",
											"internalType": "uint32"
										}
									]
								}
							]
						}
					]
				},
				{
					"name": "terminalConfigurations",
					"type": "tuple[]",
					"internalType": "struct JBTerminalConfig[]",
					"components": [
						{
							"name": "terminal",
							"type": "address",
							"internalType": "contract IJBTerminal"
						},
						{
							"name": "accountingContextsToAccept",
							"type": "tuple[]",
							"internalType": "struct JBAccountingContext[]",
							"components": [
								{
									"name": "token",
									"type": "address",
									"internalType": "address"
								},
								{
									"name": "decimals",
									"type": "uint8",
									"internalType": "uint8"
								},
								{
									"name": "currency",
									"type": "uint32",
									"internalType": "uint32"
								}
							]
						}
					]
				},
				{
					"name": "memo",
					"type": "string",
					"internalType": "string"
				}
			],
			"outputs": [
				{
					"name": "rulesetId",
					"type": "uint256",
					"internalType": "uint256"
				},
				{
					"name": "hook",
					"type": "address",
					"internalType": "contract IJB721TiersHook"
				}
			],
			"stateMutability": "nonpayable"
		},
		{
			"type": "function",
			"name": "launchRulesetsFor",
			"inputs": [
				{
					"name": "projectId",
					"type": "uint256",
					"internalType": "uint256"
				},
				{
					"name": "projectUri",
					"type": "string",
					"internalType": "string"
				},
				{
					"name": "deploy721Config",
					"type": "tuple",
					"internalType": "struct JBOmnichain721Config",
					"components": [
						{
							"name": "deployTiersHookConfig",
							"type": "tuple",
							"internalType": "struct JBDeploy721TiersHookConfig",
							"components": [
								{
									"name": "name",
									"type": "string",
									"internalType": "string"
								},
								{
									"name": "symbol",
									"type": "string",
									"internalType": "string"
								},
								{
									"name": "baseUri",
									"type": "string",
									"internalType": "string"
								},
								{
									"name": "tokenUriResolver",
									"type": "address",
									"internalType": "contract IJB721TokenUriResolver"
								},
								{
									"name": "contractUri",
									"type": "string",
									"internalType": "string"
								},
								{
									"name": "tiersConfig",
									"type": "tuple",
									"internalType": "struct JB721InitTiersConfig",
									"components": [
										{
											"name": "tiers",
											"type": "tuple[]",
											"internalType": "struct JB721TierConfig[]",
											"components": [
												{
													"name": "price",
													"type": "uint104",
													"internalType": "uint104"
												},
												{
													"name": "initialSupply",
													"type": "uint32",
													"internalType": "uint32"
												},
												{
													"name": "votingUnits",
													"type": "uint32",
													"internalType": "uint32"
												},
												{
													"name": "reserveFrequency",
													"type": "uint16",
													"internalType": "uint16"
												},
												{
													"name": "reserveBeneficiary",
													"type": "address",
													"internalType": "address"
												},
												{
													"name": "encodedIpfsUri",
													"type": "bytes32",
													"internalType": "bytes32"
												},
												{
													"name": "category",
													"type": "uint24",
													"internalType": "uint24"
												},
												{
													"name": "discountPercent",
													"type": "uint8",
													"internalType": "uint8"
												},
												{
													"name": "flags",
													"type": "tuple",
													"internalType": "struct JB721TierConfigFlags",
													"components": [
														{
															"name": "allowOwnerMint",
															"type": "bool",
															"internalType": "bool"
														},
														{
															"name": "useReserveBeneficiaryAsDefault",
															"type": "bool",
															"internalType": "bool"
														},
														{
															"name": "transfersPausable",
															"type": "bool",
															"internalType": "bool"
														},
														{
															"name": "useVotingUnits",
															"type": "bool",
															"internalType": "bool"
														},
														{
															"name": "cantBeRemoved",
															"type": "bool",
															"internalType": "bool"
														},
														{
															"name": "cantIncreaseDiscountPercent",
															"type": "bool",
															"internalType": "bool"
														},
														{
															"name": "cantBuyWithCredits",
															"type": "bool",
															"internalType": "bool"
														}
													]
												},
												{
													"name": "splitPercent",
													"type": "uint32",
													"internalType": "uint32"
												},
												{
													"name": "splits",
													"type": "tuple[]",
													"internalType": "struct JBSplit[]",
													"components": [
														{
															"name": "percent",
															"type": "uint32",
															"internalType": "uint32"
														},
														{
															"name": "projectId",
															"type": "uint64",
															"internalType": "uint64"
														},
														{
															"name": "beneficiary",
															"type": "address",
															"internalType": "address payable"
														},
														{
															"name": "preferAddToBalance",
															"type": "bool",
															"internalType": "bool"
														},
														{
															"name": "lockedUntil",
															"type": "uint48",
															"internalType": "uint48"
														},
														{
															"name": "hook",
															"type": "address",
															"internalType": "contract IJBSplitHook"
														}
													]
												}
											]
										},
										{
											"name": "currency",
											"type": "uint32",
											"internalType": "uint32"
										},
										{
											"name": "decimals",
											"type": "uint8",
											"internalType": "uint8"
										}
									]
								},
								{
									"name": "flags",
									"type": "tuple",
									"internalType": "struct JB721TiersHookFlags",
									"components": [
										{
											"name": "noNewTiersWithReserves",
											"type": "bool",
											"internalType": "bool"
										},
										{
											"name": "noNewTiersWithVotes",
											"type": "bool",
											"internalType": "bool"
										},
										{
											"name": "noNewTiersWithOwnerMinting",
											"type": "bool",
											"internalType": "bool"
										},
										{
											"name": "preventOverspending",
											"type": "bool",
											"internalType": "bool"
										},
										{
											"name": "issueTokensForSplits",
											"type": "bool",
											"internalType": "bool"
										}
									]
								}
							]
						},
						{
							"name": "useDataHookForCashOut",
							"type": "bool",
							"internalType": "bool"
						},
						{
							"name": "salt",
							"type": "bytes32",
							"internalType": "bytes32"
						}
					]
				},
				{
					"name": "rulesetConfigurations",
					"type": "tuple[]",
					"internalType": "struct JBRulesetConfig[]",
					"components": [
						{
							"name": "mustStartAtOrAfter",
							"type": "uint48",
							"internalType": "uint48"
						},
						{
							"name": "duration",
							"type": "uint32",
							"internalType": "uint32"
						},
						{
							"name": "weight",
							"type": "uint112",
							"internalType": "uint112"
						},
						{
							"name": "weightCutPercent",
							"type": "uint32",
							"internalType": "uint32"
						},
						{
							"name": "approvalHook",
							"type": "address",
							"internalType": "contract IJBRulesetApprovalHook"
						},
						{
							"name": "metadata",
							"type": "tuple",
							"internalType": "struct JBRulesetMetadata",
							"components": [
								{
									"name": "reservedPercent",
									"type": "uint16",
									"internalType": "uint16"
								},
								{
									"name": "cashOutTaxRate",
									"type": "uint16",
									"internalType": "uint16"
								},
								{
									"name": "baseCurrency",
									"type": "uint32",
									"internalType": "uint32"
								},
								{
									"name": "pausePay",
									"type": "bool",
									"internalType": "bool"
								},
								{
									"name": "pauseCreditTransfers",
									"type": "bool",
									"internalType": "bool"
								},
								{
									"name": "allowOwnerMinting",
									"type": "bool",
									"internalType": "bool"
								},
								{
									"name": "allowSetCustomToken",
									"type": "bool",
									"internalType": "bool"
								},
								{
									"name": "allowTerminalMigration",
									"type": "bool",
									"internalType": "bool"
								},
								{
									"name": "allowSetTerminals",
									"type": "bool",
									"internalType": "bool"
								},
								{
									"name": "allowSetController",
									"type": "bool",
									"internalType": "bool"
								},
								{
									"name": "allowAddAccountingContext",
									"type": "bool",
									"internalType": "bool"
								},
								{
									"name": "allowAddPriceFeed",
									"type": "bool",
									"internalType": "bool"
								},
								{
									"name": "ownerMustSendPayouts",
									"type": "bool",
									"internalType": "bool"
								},
								{
									"name": "holdFees",
									"type": "bool",
									"internalType": "bool"
								},
								{
									"name": "scopeCashOutsToLocalBalances",
									"type": "bool",
									"internalType": "bool"
								},
								{
									"name": "useDataHookForPay",
									"type": "bool",
									"internalType": "bool"
								},
								{
									"name": "useDataHookForCashOut",
									"type": "bool",
									"internalType": "bool"
								},
								{
									"name": "dataHook",
									"type": "address",
									"internalType": "address"
								},
								{
									"name": "metadata",
									"type": "uint16",
									"internalType": "uint16"
								}
							]
						},
						{
							"name": "splitGroups",
							"type": "tuple[]",
							"internalType": "struct JBSplitGroup[]",
							"components": [
								{
									"name": "groupId",
									"type": "uint256",
									"internalType": "uint256"
								},
								{
									"name": "splits",
									"type": "tuple[]",
									"internalType": "struct JBSplit[]",
									"components": [
										{
											"name": "percent",
											"type": "uint32",
											"internalType": "uint32"
										},
										{
											"name": "projectId",
											"type": "uint64",
											"internalType": "uint64"
										},
										{
											"name": "beneficiary",
											"type": "address",
											"internalType": "address payable"
										},
										{
											"name": "preferAddToBalance",
											"type": "bool",
											"internalType": "bool"
										},
										{
											"name": "lockedUntil",
											"type": "uint48",
											"internalType": "uint48"
										},
										{
											"name": "hook",
											"type": "address",
											"internalType": "contract IJBSplitHook"
										}
									]
								}
							]
						},
						{
							"name": "fundAccessLimitGroups",
							"type": "tuple[]",
							"internalType": "struct JBFundAccessLimitGroup[]",
							"components": [
								{
									"name": "terminal",
									"type": "address",
									"internalType": "address"
								},
								{
									"name": "token",
									"type": "address",
									"internalType": "address"
								},
								{
									"name": "payoutLimits",
									"type": "tuple[]",
									"internalType": "struct JBCurrencyAmount[]",
									"components": [
										{
											"name": "amount",
											"type": "uint224",
											"internalType": "uint224"
										},
										{
											"name": "currency",
											"type": "uint32",
											"internalType": "uint32"
										}
									]
								},
								{
									"name": "surplusAllowances",
									"type": "tuple[]",
									"internalType": "struct JBCurrencyAmount[]",
									"components": [
										{
											"name": "amount",
											"type": "uint224",
											"internalType": "uint224"
										},
										{
											"name": "currency",
											"type": "uint32",
											"internalType": "uint32"
										}
									]
								}
							]
						}
					]
				},
				{
					"name": "terminalConfigurations",
					"type": "tuple[]",
					"internalType": "struct JBTerminalConfig[]",
					"components": [
						{
							"name": "terminal",
							"type": "address",
							"internalType": "contract IJBTerminal"
						},
						{
							"name": "accountingContextsToAccept",
							"type": "tuple[]",
							"internalType": "struct JBAccountingContext[]",
							"components": [
								{
									"name": "token",
									"type": "address",
									"internalType": "address"
								},
								{
									"name": "decimals",
									"type": "uint8",
									"internalType": "uint8"
								},
								{
									"name": "currency",
									"type": "uint32",
									"internalType": "uint32"
								}
							]
						}
					]
				},
				{
					"name": "memo",
					"type": "string",
					"internalType": "string"
				}
			],
			"outputs": [
				{
					"name": "rulesetId",
					"type": "uint256",
					"internalType": "uint256"
				},
				{
					"name": "hook",
					"type": "address",
					"internalType": "contract IJB721TiersHook"
				}
			],
			"stateMutability": "nonpayable"
		},
		{
			"type": "function",
			"name": "onERC721Received",
			"inputs": [
				{
					"name": "",
					"type": "address",
					"internalType": "address"
				},
				{
					"name": "from",
					"type": "address",
					"internalType": "address"
				},
				{
					"name": "tokenId",
					"type": "uint256",
					"internalType": "uint256"
				},
				{
					"name": "",
					"type": "bytes",
					"internalType": "bytes"
				}
			],
			"outputs": [
				{
					"name": "",
					"type": "bytes4",
					"internalType": "bytes4"
				}
			],
			"stateMutability": "view"
		},
		{
			"type": "function",
			"name": "peerChainAdjustedAccountsOf",
			"inputs": [
				{
					"name": "projectId",
					"type": "uint256",
					"internalType": "uint256"
				}
			],
			"outputs": [
				{
					"name": "supply",
					"type": "uint256",
					"internalType": "uint256"
				},
				{
					"name": "contexts",
					"type": "tuple[]",
					"internalType": "struct JBSourceContext[]",
					"components": [
						{
							"name": "token",
							"type": "bytes32",
							"internalType": "bytes32"
						},
						{
							"name": "decimals",
							"type": "uint8",
							"internalType": "uint8"
						},
						{
							"name": "surplus",
							"type": "uint128",
							"internalType": "uint128"
						},
						{
							"name": "balance",
							"type": "uint128",
							"internalType": "uint128"
						}
					]
				}
			],
			"stateMutability": "view"
		},
		{
			"type": "function",
			"name": "queueRulesetsOf",
			"inputs": [
				{
					"name": "projectId",
					"type": "uint256",
					"internalType": "uint256"
				},
				{
					"name": "rulesetConfigurations",
					"type": "tuple[]",
					"internalType": "struct JBRulesetConfig[]",
					"components": [
						{
							"name": "mustStartAtOrAfter",
							"type": "uint48",
							"internalType": "uint48"
						},
						{
							"name": "duration",
							"type": "uint32",
							"internalType": "uint32"
						},
						{
							"name": "weight",
							"type": "uint112",
							"internalType": "uint112"
						},
						{
							"name": "weightCutPercent",
							"type": "uint32",
							"internalType": "uint32"
						},
						{
							"name": "approvalHook",
							"type": "address",
							"internalType": "contract IJBRulesetApprovalHook"
						},
						{
							"name": "metadata",
							"type": "tuple",
							"internalType": "struct JBRulesetMetadata",
							"components": [
								{
									"name": "reservedPercent",
									"type": "uint16",
									"internalType": "uint16"
								},
								{
									"name": "cashOutTaxRate",
									"type": "uint16",
									"internalType": "uint16"
								},
								{
									"name": "baseCurrency",
									"type": "uint32",
									"internalType": "uint32"
								},
								{
									"name": "pausePay",
									"type": "bool",
									"internalType": "bool"
								},
								{
									"name": "pauseCreditTransfers",
									"type": "bool",
									"internalType": "bool"
								},
								{
									"name": "allowOwnerMinting",
									"type": "bool",
									"internalType": "bool"
								},
								{
									"name": "allowSetCustomToken",
									"type": "bool",
									"internalType": "bool"
								},
								{
									"name": "allowTerminalMigration",
									"type": "bool",
									"internalType": "bool"
								},
								{
									"name": "allowSetTerminals",
									"type": "bool",
									"internalType": "bool"
								},
								{
									"name": "allowSetController",
									"type": "bool",
									"internalType": "bool"
								},
								{
									"name": "allowAddAccountingContext",
									"type": "bool",
									"internalType": "bool"
								},
								{
									"name": "allowAddPriceFeed",
									"type": "bool",
									"internalType": "bool"
								},
								{
									"name": "ownerMustSendPayouts",
									"type": "bool",
									"internalType": "bool"
								},
								{
									"name": "holdFees",
									"type": "bool",
									"internalType": "bool"
								},
								{
									"name": "scopeCashOutsToLocalBalances",
									"type": "bool",
									"internalType": "bool"
								},
								{
									"name": "useDataHookForPay",
									"type": "bool",
									"internalType": "bool"
								},
								{
									"name": "useDataHookForCashOut",
									"type": "bool",
									"internalType": "bool"
								},
								{
									"name": "dataHook",
									"type": "address",
									"internalType": "address"
								},
								{
									"name": "metadata",
									"type": "uint16",
									"internalType": "uint16"
								}
							]
						},
						{
							"name": "splitGroups",
							"type": "tuple[]",
							"internalType": "struct JBSplitGroup[]",
							"components": [
								{
									"name": "groupId",
									"type": "uint256",
									"internalType": "uint256"
								},
								{
									"name": "splits",
									"type": "tuple[]",
									"internalType": "struct JBSplit[]",
									"components": [
										{
											"name": "percent",
											"type": "uint32",
											"internalType": "uint32"
										},
										{
											"name": "projectId",
											"type": "uint64",
											"internalType": "uint64"
										},
										{
											"name": "beneficiary",
											"type": "address",
											"internalType": "address payable"
										},
										{
											"name": "preferAddToBalance",
											"type": "bool",
											"internalType": "bool"
										},
										{
											"name": "lockedUntil",
											"type": "uint48",
											"internalType": "uint48"
										},
										{
											"name": "hook",
											"type": "address",
											"internalType": "contract IJBSplitHook"
										}
									]
								}
							]
						},
						{
							"name": "fundAccessLimitGroups",
							"type": "tuple[]",
							"internalType": "struct JBFundAccessLimitGroup[]",
							"components": [
								{
									"name": "terminal",
									"type": "address",
									"internalType": "address"
								},
								{
									"name": "token",
									"type": "address",
									"internalType": "address"
								},
								{
									"name": "payoutLimits",
									"type": "tuple[]",
									"internalType": "struct JBCurrencyAmount[]",
									"components": [
										{
											"name": "amount",
											"type": "uint224",
											"internalType": "uint224"
										},
										{
											"name": "currency",
											"type": "uint32",
											"internalType": "uint32"
										}
									]
								},
								{
									"name": "surplusAllowances",
									"type": "tuple[]",
									"internalType": "struct JBCurrencyAmount[]",
									"components": [
										{
											"name": "amount",
											"type": "uint224",
											"internalType": "uint224"
										},
										{
											"name": "currency",
											"type": "uint32",
											"internalType": "uint32"
										}
									]
								}
							]
						}
					]
				},
				{
					"name": "memo",
					"type": "string",
					"internalType": "string"
				}
			],
			"outputs": [
				{
					"name": "rulesetId",
					"type": "uint256",
					"internalType": "uint256"
				},
				{
					"name": "hook",
					"type": "address",
					"internalType": "contract IJB721TiersHook"
				}
			],
			"stateMutability": "nonpayable"
		},
		{
			"type": "function",
			"name": "queueRulesetsOf",
			"inputs": [
				{
					"name": "projectId",
					"type": "uint256",
					"internalType": "uint256"
				},
				{
					"name": "deploy721Config",
					"type": "tuple",
					"internalType": "struct JBOmnichain721Config",
					"components": [
						{
							"name": "deployTiersHookConfig",
							"type": "tuple",
							"internalType": "struct JBDeploy721TiersHookConfig",
							"components": [
								{
									"name": "name",
									"type": "string",
									"internalType": "string"
								},
								{
									"name": "symbol",
									"type": "string",
									"internalType": "string"
								},
								{
									"name": "baseUri",
									"type": "string",
									"internalType": "string"
								},
								{
									"name": "tokenUriResolver",
									"type": "address",
									"internalType": "contract IJB721TokenUriResolver"
								},
								{
									"name": "contractUri",
									"type": "string",
									"internalType": "string"
								},
								{
									"name": "tiersConfig",
									"type": "tuple",
									"internalType": "struct JB721InitTiersConfig",
									"components": [
										{
											"name": "tiers",
											"type": "tuple[]",
											"internalType": "struct JB721TierConfig[]",
											"components": [
												{
													"name": "price",
													"type": "uint104",
													"internalType": "uint104"
												},
												{
													"name": "initialSupply",
													"type": "uint32",
													"internalType": "uint32"
												},
												{
													"name": "votingUnits",
													"type": "uint32",
													"internalType": "uint32"
												},
												{
													"name": "reserveFrequency",
													"type": "uint16",
													"internalType": "uint16"
												},
												{
													"name": "reserveBeneficiary",
													"type": "address",
													"internalType": "address"
												},
												{
													"name": "encodedIpfsUri",
													"type": "bytes32",
													"internalType": "bytes32"
												},
												{
													"name": "category",
													"type": "uint24",
													"internalType": "uint24"
												},
												{
													"name": "discountPercent",
													"type": "uint8",
													"internalType": "uint8"
												},
												{
													"name": "flags",
													"type": "tuple",
													"internalType": "struct JB721TierConfigFlags",
													"components": [
														{
															"name": "allowOwnerMint",
															"type": "bool",
															"internalType": "bool"
														},
														{
															"name": "useReserveBeneficiaryAsDefault",
															"type": "bool",
															"internalType": "bool"
														},
														{
															"name": "transfersPausable",
															"type": "bool",
															"internalType": "bool"
														},
														{
															"name": "useVotingUnits",
															"type": "bool",
															"internalType": "bool"
														},
														{
															"name": "cantBeRemoved",
															"type": "bool",
															"internalType": "bool"
														},
														{
															"name": "cantIncreaseDiscountPercent",
															"type": "bool",
															"internalType": "bool"
														},
														{
															"name": "cantBuyWithCredits",
															"type": "bool",
															"internalType": "bool"
														}
													]
												},
												{
													"name": "splitPercent",
													"type": "uint32",
													"internalType": "uint32"
												},
												{
													"name": "splits",
													"type": "tuple[]",
													"internalType": "struct JBSplit[]",
													"components": [
														{
															"name": "percent",
															"type": "uint32",
															"internalType": "uint32"
														},
														{
															"name": "projectId",
															"type": "uint64",
															"internalType": "uint64"
														},
														{
															"name": "beneficiary",
															"type": "address",
															"internalType": "address payable"
														},
														{
															"name": "preferAddToBalance",
															"type": "bool",
															"internalType": "bool"
														},
														{
															"name": "lockedUntil",
															"type": "uint48",
															"internalType": "uint48"
														},
														{
															"name": "hook",
															"type": "address",
															"internalType": "contract IJBSplitHook"
														}
													]
												}
											]
										},
										{
											"name": "currency",
											"type": "uint32",
											"internalType": "uint32"
										},
										{
											"name": "decimals",
											"type": "uint8",
											"internalType": "uint8"
										}
									]
								},
								{
									"name": "flags",
									"type": "tuple",
									"internalType": "struct JB721TiersHookFlags",
									"components": [
										{
											"name": "noNewTiersWithReserves",
											"type": "bool",
											"internalType": "bool"
										},
										{
											"name": "noNewTiersWithVotes",
											"type": "bool",
											"internalType": "bool"
										},
										{
											"name": "noNewTiersWithOwnerMinting",
											"type": "bool",
											"internalType": "bool"
										},
										{
											"name": "preventOverspending",
											"type": "bool",
											"internalType": "bool"
										},
										{
											"name": "issueTokensForSplits",
											"type": "bool",
											"internalType": "bool"
										}
									]
								}
							]
						},
						{
							"name": "useDataHookForCashOut",
							"type": "bool",
							"internalType": "bool"
						},
						{
							"name": "salt",
							"type": "bytes32",
							"internalType": "bytes32"
						}
					]
				},
				{
					"name": "rulesetConfigurations",
					"type": "tuple[]",
					"internalType": "struct JBRulesetConfig[]",
					"components": [
						{
							"name": "mustStartAtOrAfter",
							"type": "uint48",
							"internalType": "uint48"
						},
						{
							"name": "duration",
							"type": "uint32",
							"internalType": "uint32"
						},
						{
							"name": "weight",
							"type": "uint112",
							"internalType": "uint112"
						},
						{
							"name": "weightCutPercent",
							"type": "uint32",
							"internalType": "uint32"
						},
						{
							"name": "approvalHook",
							"type": "address",
							"internalType": "contract IJBRulesetApprovalHook"
						},
						{
							"name": "metadata",
							"type": "tuple",
							"internalType": "struct JBRulesetMetadata",
							"components": [
								{
									"name": "reservedPercent",
									"type": "uint16",
									"internalType": "uint16"
								},
								{
									"name": "cashOutTaxRate",
									"type": "uint16",
									"internalType": "uint16"
								},
								{
									"name": "baseCurrency",
									"type": "uint32",
									"internalType": "uint32"
								},
								{
									"name": "pausePay",
									"type": "bool",
									"internalType": "bool"
								},
								{
									"name": "pauseCreditTransfers",
									"type": "bool",
									"internalType": "bool"
								},
								{
									"name": "allowOwnerMinting",
									"type": "bool",
									"internalType": "bool"
								},
								{
									"name": "allowSetCustomToken",
									"type": "bool",
									"internalType": "bool"
								},
								{
									"name": "allowTerminalMigration",
									"type": "bool",
									"internalType": "bool"
								},
								{
									"name": "allowSetTerminals",
									"type": "bool",
									"internalType": "bool"
								},
								{
									"name": "allowSetController",
									"type": "bool",
									"internalType": "bool"
								},
								{
									"name": "allowAddAccountingContext",
									"type": "bool",
									"internalType": "bool"
								},
								{
									"name": "allowAddPriceFeed",
									"type": "bool",
									"internalType": "bool"
								},
								{
									"name": "ownerMustSendPayouts",
									"type": "bool",
									"internalType": "bool"
								},
								{
									"name": "holdFees",
									"type": "bool",
									"internalType": "bool"
								},
								{
									"name": "scopeCashOutsToLocalBalances",
									"type": "bool",
									"internalType": "bool"
								},
								{
									"name": "useDataHookForPay",
									"type": "bool",
									"internalType": "bool"
								},
								{
									"name": "useDataHookForCashOut",
									"type": "bool",
									"internalType": "bool"
								},
								{
									"name": "dataHook",
									"type": "address",
									"internalType": "address"
								},
								{
									"name": "metadata",
									"type": "uint16",
									"internalType": "uint16"
								}
							]
						},
						{
							"name": "splitGroups",
							"type": "tuple[]",
							"internalType": "struct JBSplitGroup[]",
							"components": [
								{
									"name": "groupId",
									"type": "uint256",
									"internalType": "uint256"
								},
								{
									"name": "splits",
									"type": "tuple[]",
									"internalType": "struct JBSplit[]",
									"components": [
										{
											"name": "percent",
											"type": "uint32",
											"internalType": "uint32"
										},
										{
											"name": "projectId",
											"type": "uint64",
											"internalType": "uint64"
										},
										{
											"name": "beneficiary",
											"type": "address",
											"internalType": "address payable"
										},
										{
											"name": "preferAddToBalance",
											"type": "bool",
											"internalType": "bool"
										},
										{
											"name": "lockedUntil",
											"type": "uint48",
											"internalType": "uint48"
										},
										{
											"name": "hook",
											"type": "address",
											"internalType": "contract IJBSplitHook"
										}
									]
								}
							]
						},
						{
							"name": "fundAccessLimitGroups",
							"type": "tuple[]",
							"internalType": "struct JBFundAccessLimitGroup[]",
							"components": [
								{
									"name": "terminal",
									"type": "address",
									"internalType": "address"
								},
								{
									"name": "token",
									"type": "address",
									"internalType": "address"
								},
								{
									"name": "payoutLimits",
									"type": "tuple[]",
									"internalType": "struct JBCurrencyAmount[]",
									"components": [
										{
											"name": "amount",
											"type": "uint224",
											"internalType": "uint224"
										},
										{
											"name": "currency",
											"type": "uint32",
											"internalType": "uint32"
										}
									]
								},
								{
									"name": "surplusAllowances",
									"type": "tuple[]",
									"internalType": "struct JBCurrencyAmount[]",
									"components": [
										{
											"name": "amount",
											"type": "uint224",
											"internalType": "uint224"
										},
										{
											"name": "currency",
											"type": "uint32",
											"internalType": "uint32"
										}
									]
								}
							]
						}
					]
				},
				{
					"name": "memo",
					"type": "string",
					"internalType": "string"
				}
			],
			"outputs": [
				{
					"name": "rulesetId",
					"type": "uint256",
					"internalType": "uint256"
				},
				{
					"name": "hook",
					"type": "address",
					"internalType": "contract IJB721TiersHook"
				}
			],
			"stateMutability": "nonpayable"
		},
		{
			"type": "function",
			"name": "supportsInterface",
			"inputs": [
				{
					"name": "interfaceId",
					"type": "bytes4",
					"internalType": "bytes4"
				}
			],
			"outputs": [
				{
					"name": "flag",
					"type": "bool",
					"internalType": "bool"
				}
			],
			"stateMutability": "view"
		},
		{
			"type": "function",
			"name": "tiered721HookOf",
			"inputs": [
				{
					"name": "projectId",
					"type": "uint256",
					"internalType": "uint256"
				},
				{
					"name": "rulesetId",
					"type": "uint256",
					"internalType": "uint256"
				}
			],
			"outputs": [
				{
					"name": "hook",
					"type": "address",
					"internalType": "contract IJB721TiersHook"
				},
				{
					"name": "useDataHookForCashOut",
					"type": "bool",
					"internalType": "bool"
				}
			],
			"stateMutability": "view"
		},
		{
			"type": "function",
			"name": "trustedForwarder",
			"inputs": [],
			"outputs": [
				{
					"name": "",
					"type": "address",
					"internalType": "address"
				}
			],
			"stateMutability": "view"
		},
		{
			"type": "error",
			"name": "JBOmnichainDeployer_ControllerMismatch",
			"inputs": [
				{
					"name": "projectId",
					"type": "uint256",
					"internalType": "uint256"
				},
				{
					"name": "expectedController",
					"type": "address",
					"internalType": "address"
				},
				{
					"name": "actualController",
					"type": "address",
					"internalType": "address"
				}
			]
		},
		{
			"type": "error",
			"name": "JBOmnichainDeployer_InvalidHook",
			"inputs": [
				{
					"name": "hook",
					"type": "address",
					"internalType": "address"
				},
				{
					"name": "projectId",
					"type": "uint256",
					"internalType": "uint256"
				},
				{
					"name": "rulesetId",
					"type": "uint256",
					"internalType": "uint256"
				}
			]
		},
		{
			"type": "error",
			"name": "JBOmnichainDeployer_NoRulesetConfigurations",
			"inputs": [
				{
					"name": "rulesetConfigurationCount",
					"type": "uint256",
					"internalType": "uint256"
				}
			]
		},
		{
			"type": "error",
			"name": "JBOmnichainDeployer_RulesetIdsUnpredictable",
			"inputs": [
				{
					"name": "projectId",
					"type": "uint256",
					"internalType": "uint256"
				},
				{
					"name": "latestRulesetId",
					"type": "uint256",
					"internalType": "uint256"
				},
				{
					"name": "currentTimestamp",
					"type": "uint256",
					"internalType": "uint256"
				}
			]
		},
		{
			"type": "error",
			"name": "JBOmnichainDeployer_UnexpectedNFTReceived",
			"inputs": [
				{
					"name": "caller",
					"type": "address",
					"internalType": "address"
				},
				{
					"name": "from",
					"type": "address",
					"internalType": "address"
				},
				{
					"name": "tokenId",
					"type": "uint256",
					"internalType": "uint256"
				}
			]
		},
		{
			"type": "error",
			"name": "JBPermissioned_Unauthorized",
			"inputs": [
				{
					"name": "account",
					"type": "address",
					"internalType": "address"
				},
				{
					"name": "sender",
					"type": "address",
					"internalType": "address"
				},
				{
					"name": "projectId",
					"type": "uint256",
					"internalType": "uint256"
				},
				{
					"name": "permissionId",
					"type": "uint256",
					"internalType": "uint256"
				}
			]
		},
		{
			"type": "error",
			"name": "PRBMath_MulDiv_Overflow",
			"inputs": [
				{
					"name": "x",
					"type": "uint256",
					"internalType": "uint256"
				},
				{
					"name": "y",
					"type": "uint256",
					"internalType": "uint256"
				},
				{
					"name": "denominator",
					"type": "uint256",
					"internalType": "uint256"
				}
			]
		}
	],
	"args": [
		"0x12D6958823BFa587Ffc54EC911FA6350a13cc593",
		"0xBeCb9ac6aAE4FE293445954C2A0A902d4634C181",
		"0x8dC962f3C239788e2E037dC0e0eaC59C1DfA00D6",
		"0x28eFbEb9A8671Ef91BaD1AEbF6E11c4979a245de",
		"0xc3d209565fA468581cdE5F6F3e381F7CcabC76C9"
	],
	"solcInputHash": "3eb11d37ee675a5d41732a138737fb99",
	"bytecode": "0x61016080604052346103335760a081615ade803803809161002082856103f7565b8339810103126103335780516001600160a01b0381168103610333576020820151906001600160a01b03821682036103335760408301516001600160a01b03811681036103335760608401516001600160a01b0381169490919085830361033357608001516001600160a01b03811681036103335760805260a05260c05260405163293c499960e01b8152602081600481875afa9081156103a1575f916103ac575b506101205261014052610100526040516388bc2ef360e01b815290602090829060049082905afa9081156103a1575f9161035f575b5060e0526040805161010982826103f7565b6001815260208101601f19830136823781511561034b576020905261014051825191906001600160a01b0316606083016001600160401b03811184821017610337578452825260208201915f835283810191825260018060a01b0360a0511691823b15610333578451631127c92960e21b81523060048201526024810186905291516001600160a01b0316604483015292516001600160401b03166064820152915160606084840152805160a48401819052839160c48301916020909101905f5b8181106103175750505091815f81819503925af1801561030d576102fd575b50516156c3908161041b823960805181818161072201528181610b870152615688015260a05181818161021c015281816109d2015281816145b7015281816148dc015281816149c001528181614aa40152614c3a015260c05181818161026001528181612b2501528181613c250152818161405f015281816147a701528181614f9e0152615094015260e0518181816106de01528181614f53015261504d01526101005181818161040d015261526301526101205181818161080401528181610e8b01528181610f0d01528181613b9c01528181613cb801528181613d1f01528181613fe9015261469a01526101405181818161033b015281816108ea015281816127c901528181612f2b0152613dde0152f35b5f610307916103f7565b5f6101e9565b82513d5f823e3d90fd5b825160ff168452869450602093840193909201916001016101ca565b5f80fd5b634e487b7160e01b5f52604160045260245ffd5b634e487b7160e01b5f52603260045260245ffd5b90506020813d602011610399575b8161037a602093836103f7565b8101031261033357516001600160a01b0381168103610333575f6100f7565b3d915061036d565b6040513d5f823e3d90fd5b90506020939193813d6020116103ef575b816103ca602093836103f7565b810103126103335751916001600160a01b0383168303610333579092909160046100c2565b3d91506103bd565b601f909101601f19168101906001600160401b038211908210176103375760405256fe6080806040526004361015610012575f80fd5b5f3560e01c90816301ffc9a714610f7957508063150b7a0214610eba578063293c499914610e765780632d99317314610d865780633141db7014610d2157806338945b5814610c785780634509224414610bbb578063572b6c0514610b67578063670d99be14610a85578063673706e8146107b05780636a19a70f146107515780637da0a8771461070d57806388bc2ef3146106c95780638cc35846146105f057806394e1cf571461055357806399f6d77f1461043c578063abf8c5c8146103f8578063b0401dab1461036a578063b5d2553314610326578063b64ce2c31461028f578063ee0fc1211461024b578063f434c914146102075763f672acac14610119575f80fd5b34610203576020366003190112610203576004356001600160401b038111610203576101c060031982360301126102035761015690600401612f21565b91939060405194859460a0860193865260208601526040850152606084015260a06080840152815180915260c0830190602060c08260051b8601019301915f905b8282106101a657505050500390f35b919360019193955060206101f3819260bf198a8203018652608060608a51878060a01b03815116845285810151151586850152604081015160408501520151918160608201520190611cc3565b9601920192018594939192610197565b5f80fd5b34610203575f366003190112610203576040517f00000000000000000000000000000000000000000000000000000000000000006001600160a01b03168152602090f35b34610203575f366003190112610203576040517f00000000000000000000000000000000000000000000000000000000000000006001600160a01b03168152602090f35b34610203576020366003190112610203576102ab600435612b08565b90604051918291604083019083526040602084015281518091526020606084019201905f5b8181106102de575050500390f35b91935091602060806001926001600160801b03606088518051845260ff86820151168685015282604082015116604085015201511660608201520194019101918493926102d0565b34610203575f366003190112610203576040517f00000000000000000000000000000000000000000000000000000000000000006001600160a01b03168152602090f35b346102035761037836611cad565b905f60408051610387816110b6565b82815282602082015201525f525f60205260405f20905f52602052606060405f20604051906103b5826110b6565b5460018060a01b0381169182815260ff60406020830192828560a01c1615158452019260a81c161515825260405192835251151560208301525115156040820152f35b34610203575f366003190112610203576040517f00000000000000000000000000000000000000000000000000000000000000006001600160a01b03168152602090f35b346102035761016036600319011261020357610120366023190112610203576040516104678161109a565b60243565ffffffffffff8116810361020357815260443565ffffffffffff8116810361020357602082015260643565ffffffffffff8116810361020357604082015260843565ffffffffffff8116810361020357606082015260a43563ffffffff8116810361020357608082015260c4356001600160701b03811681036102035760a082015260e43563ffffffff811681036102035760c0820152610104356001600160a01b03811681036102035760e08201526101243561010082015261014435906001600160a01b03821682036102035760209161054991600435612796565b6040519015158152f35b34610203576080366003190112610203576024356001600160401b038111610203576105839036906004016118d4565b6044356001600160401b038111610203576105a2903690600401611370565b606435916001600160401b038311610203576105c56105d093369060040161103e565b929091600435613fc3565b604080519283526001600160a01b039091166020830152819081015b0390f35b34610203576020366003190112610203576004356001600160401b0381116102035761018060031982360301126102035761062d906004016121c9565b90604051918291604083019083526040602084015281518091526060830190602060608260051b8601019301915f905b82821061066c57505050500390f35b919360019193955060206106b98192605f198a8203018652608060608a51878060a01b03815116845285810151151586850152604081015160408501520151918160608201520190611cc3565b960192019201859493919261065d565b34610203575f366003190112610203576040517f00000000000000000000000000000000000000000000000000000000000000006001600160a01b03168152602090f35b34610203575f366003190112610203576040517f00000000000000000000000000000000000000000000000000000000000000006001600160a01b03168152602090f35b346102035761075f36611cad565b905f52600160205260405f20905f526020526040805f2060208251916107848361106b565b546001600160a01b03811680845260a09190911c60ff1615159190920181905282519182526020820152f35b34610203576040366003190112610203576024356004356001600160401b03821161020357816004019060406003198436030112610203576040516331a9108f60e11b8152600481018290526020816024817f00000000000000000000000000000000000000000000000000000000000000006001600160a01b03165afa90811561095c575f91610a4b575b5061084561565d565b6001600160a01b0382811691168082141580610992575b610967576108e55f86866108c78a61087584848b614b57565b6108af6108bd61088361565d565b6040805160249590950135602086019081526001600160a01b0390921690850152929182906060820190565b03601f19810183528261115a565b5190209280611cfb565b604051639d7f900160e01b8152958694859491939160048601611de5565b0381837f00000000000000000000000000000000000000000000000000000000000000006001600160a01b03165af1801561095c576105ec915f9161093a575b50604051918291602083526020830190611800565b61095691503d805f833e61094e818361115a565b810190611d30565b82610925565b6040513d5f823e3d90fd5b908360849260405192631326f75560e11b845260048401526024830152604482015260216064820152fd5b50604051631a45b42760e11b81526004810182905260248101839052604481018590526021606482015260016084820181905260a482015260208160c4817f00000000000000000000000000000000000000000000000000000000000000006001600160a01b03165afa90811561095c575f91610a11575b501561085c565b90506020813d602011610a43575b81610a2c6020938361115a565b8101031261020357610a3d90611f1a565b87610a0a565b3d9150610a1f565b90506020813d602011610a7d575b81610a666020938361115a565b8101031261020357610a7790611ce7565b8461083c565b3d9150610a59565b60c036600319011261020357610a99611014565b6024356001600160401b03811161020357610ab890369060040161103e565b91906044356001600160401b03811161020357610ad9903690600401611370565b6064356001600160401b03811161020357610af89036906004016117d0565b6084929192356001600160401b03811161020357610b1a90369060040161103e565b93909260a435966001600160401b0388116102035760406003198936030112610203576105ec98610b589860040197610b5284613ec7565b92613b6e565b6040939193519384938461183c565b34610203576020366003190112610203576020610b82611014565b6040517f00000000000000000000000000000000000000000000000000000000000000006001600160a01b039081169216919091148152f35b346102035760c0366003190112610203576024356001600160401b03811161020357610beb90369060040161103e565b6044356001600160401b03811161020357610c0a9036906004016118d4565b916064356001600160401b03811161020357610c2a903690600401611370565b6084356001600160401b03811161020357610c499036906004016117d0565b9160a435956001600160401b03871161020357610c6d6105d097369060040161103e565b96909560043561466a565b346102035760a0366003190112610203576024356001600160401b03811161020357610ca890369060040161103e565b906044356001600160401b03811161020357610cc8903690600401611370565b916064356001600160401b03811161020357610ce89036906004016117d0565b90608435946001600160401b03861161020357610d0c6105d096369060040161103e565b959094610d1883613ec7565b9160043561466a565b34610203576060366003190112610203576024356001600160401b03811161020357610d51903690600401611370565b604435906001600160401b03821161020357610d746105d092369060040161103e565b91610d7e81613ec7565b600435613fc3565b60e036600319011261020357610d9a611014565b6024356001600160401b03811161020357610db990369060040161103e565b9091604435906001600160401b0382116102035760606003198336030112610203576064356001600160401b03811161020357610dfa903690600401611370565b906084356001600160401b03811161020357610e1a9036906004016117d0565b9060a4356001600160401b03811161020357610e3a90369060040161103e565b94909360c435976001600160401b0389116102035760406003198a36030112610203576105ec99610b52610b589a6004019936906004016118d4565b34610203575f366003190112610203576040517f00000000000000000000000000000000000000000000000000000000000000006001600160a01b03168152602090f35b3461020357608036600319011261020357610ed3611014565b506024356001600160a01b03811690819003610203576064356001600160401b03811161020357610f0890369060040161103e565b5050337f00000000000000000000000000000000000000000000000000000000000000006001600160a01b031614801590610f70575b610f5457604051630a85bd0160e11b8152602090f35b6388470c7960e01b5f523360045260245260443560445260645ffd5b50801515610f3e565b34610203576020366003190112610203576004359063ffffffff60e01b82168092036102035760209163c1c8b89b60e01b8114908115611003575b8115610ff2575b8115610fe1575b8115610fd0575b5015158152f35b6301ffc9a760e01b14905083610fc9565b630a85bd0160e11b81149150610fc2565b63b64ce2c360e01b81149150610fbb565b63e347239560e01b81149150610fb4565b600435906001600160a01b038216820361020357565b35906001600160a01b038216820361020357565b9181601f84011215610203578235916001600160401b038311610203576020838186019501011161020357565b604081019081106001600160401b0382111761108657604052565b634e487b7160e01b5f52604160045260245ffd5b61012081019081106001600160401b0382111761108657604052565b606081019081106001600160401b0382111761108657604052565b61026081019081106001600160401b0382111761108657604052565b608081019081106001600160401b0382111761108657604052565b60e081019081106001600160401b0382111761108657604052565b61016081019081106001600160401b0382111761108657604052565b60a081019081106001600160401b0382111761108657604052565b90601f801991011681019081106001600160401b0382111761108657604052565b6001600160401b0381116110865760051b60200190565b359065ffffffffffff8216820361020357565b359063ffffffff8216820361020357565b359061ffff8216820361020357565b3590811515820361020357565b81601f82011215610203578035906111e98261117b565b926111f7604051948561115a565b828452602060c081860194028301019181831161020357602001925b828410611221575050505090565b60c084830312610203576040519060c082018281106001600160401b0382111761108657604052611251856111a5565b825260208501356001600160401b038116810361020357602083015260408501356001600160a01b0381168103610203576040830152611293606086016111c5565b60608301526112a460808601611192565b608083015260a0850135906001600160a01b0382168203610203578260209260a060c0950152815201930192611213565b81601f82011215610203578035906112ec8261117b565b926112fa604051948561115a565b82845260208085019360061b8301019181831161020357602001925b828410611324575050505090565b604084830312610203576040519061133b8261106b565b8435906001600160e01b03821682036102035782602092604094526113618388016111a5565b83820152815201930192611316565b9080601f83011215610203578135916113888361117b565b92611396604051948561115a565b80845260208085019160051b830101918383116102035760208101915b8383106113c257505050505090565b82356001600160401b038111610203578201808603601f1901906103408212610203576040519161010083018381106001600160401b038211176110865760405261140f60208301611192565b835261141d604083016111a5565b60208401526060820135906001600160701b03821682036102035761026091604085015261144d608084016111a5565b606085015261145e60a0840161102a565b6080850152609f19011261020357604051611478816110d1565b61148460c083016111b6565b815261149260e083016111b6565b60208201526114a461010083016111a5565b60408201526114b661012083016111c5565b60608201526114c861014083016111c5565b60808201526114da61016083016111c5565b60a08201526114ec61018083016111c5565b60c08201526114fe6101a083016111c5565b60e08201526115106101c083016111c5565b6101008201526115236101e083016111c5565b61012082015261153661020083016111c5565b61014082015261154961022083016111c5565b61016082015261155c61024083016111c5565b61018082015261156f61026083016111c5565b6101a082015261158261028083016111c5565b6101c08201526115956102a083016111c5565b6101e08201526115a86102c083016111c5565b6102008201526115bb6102e0830161102a565b6102208201526115ce61030083016111b6565b61024082015260a08301526103208101356001600160401b0381116102035760209082010187601f820112156102035780359061160a8261117b565b91611618604051938461115a565b80835260208084019160051b830101918a83116102035760208101915b838310611768575050505060c08301526103408101356001600160401b03811161020357602091010186601f82011215610203578035906116758261117b565b91611683604051938461115a565b80835260208084019160051b830101918983116102035760208101915b8383106116be575050505060e08201528152602092830192016113b3565b82356001600160401b038111610203578201906080828d03601f19011261020357604051906116ec826110ed565b6116f86020840161102a565b82526117066040840161102a565b602083015260608301356001600160401b038111610203578d602061172d928601016112d5565b60408301526080830135916001600160401b038311610203576117588e6020809695819601016112d5565b60608201528152019201916116a0565b82356001600160401b0381116102035782016040818e03601f19011261020357604051916117958361106b565b602082013583526040820135926001600160401b038411610203576117c18f60208096819601016111d2565b83820152815201920191611635565b9181601f84011215610203578235916001600160401b038311610203576020808501948460051b01011161020357565b90602080835192838152019201905f5b81811061181d5750505090565b82516001600160a01b0316845260209384019390920191600101611810565b9081526001600160a01b03909116602082015260606040820181905261186492910190611800565b90565b6001600160401b03811161108657601f01601f191660200190565b81601f820112156102035760208135910161189c82611867565b926118aa604051948561115a565b8284528282011161020357815f92602092838601378301015290565b359060ff8216820361020357565b919060608382031261020357604051906118ed826110b6565b819380356001600160401b038111610203578101908183036101608112610203576040519361191b85611108565b83356001600160401b0381116102035781611937918601611882565b855260208401356001600160401b0381116102035781611958918601611882565b602086015260408401356001600160401b038111610203578161197c918601611882565b604086015260608401356001600160a01b038116810361020357606086015260808401356001600160401b03811161020357816119ba918601611882565b608086015260a08401356001600160401b03811161020357840160608183031261020357604051916119eb836110b6565b81356001600160401b0381116102035782019080601f8301121561020357813591611a158361117b565b92611a23604051948561115a565b80845260208085019160051b830101918383116102035760208101915b838310611b0557505050505060408392611a709260a0969552611a65602082016111a5565b6020850152016118c6565b60408201528583015260bf190112610203576040928392611ae1610140855192611a998461113f565b611aa560c082016111c5565b8452611ab360e082016111c5565b6020850152611ac561010082016111c5565b87850152611ad661012082016111c5565b6060850152016111c5565b608082015260c08201528452611af9602082016111c5565b60208501520135910152565b82356001600160401b03811161020357820190818603601f19019061022082126102035760405191611b3683611123565b60208401356cffffffffffffffffffffffffff81168103610203578352611b5f604085016111a5565b6020840152611b70606085016111a5565b6040840152611b81608085016111b6565b6060840152611b9260a0850161102a565b608084015260c084013560a084015260e08401359062ffffff821682036102035760e09160c0850152611bc861010086016118c6565b8483015260ff19011261020357604051611be181611108565b611bee61012085016111c5565b8152611bfd61014085016111c5565b6020820152611c0f61016085016111c5565b6040820152611c2161018085016111c5565b6060820152611c336101a085016111c5565b6080820152611c456101c085016111c5565b60a0820152611c576101e085016111c5565b60c0820152610100830152611c6f61020084016111a5565b610120830152610220830135916001600160401b03831161020357611c9c886020809695819601016111d2565b610140820152815201920191611a40565b6040906003190112610203576004359060243590565b805180835260209291819084018484015e5f828201840152601f01601f1916010190565b51906001600160a01b038216820361020357565b903590601e198136030182121561020357018035906001600160401b03821161020357602001918160051b3603831361020357565b602081830312610203578051906001600160401b03821161020357019080601f83011215610203578151611d638161117b565b92611d71604051948561115a565b81845260208085019260051b82010192831161020357602001905b828210611d995750505090565b60208091611da684611ce7565b815201910190611d8c565b9035601e19823603018112156102035701602081359101916001600160401b03821161020357606082023603831361020357565b93919082916060860191865260208601526060604086015252608083019260808260051b82010193835f92605e1982360301905b858510611e2a575050505050505090565b90919293949596607f1982820301855287358381121561020357606082019190850180356001600160a01b0381169081900361020357608091611e7d918452602081013560208501526040810190611db1565b60606040850152938490529101915f905b808210611eaf57505050602080600192990195019501939594929190611e19565b909192606080600192838060a01b03611ec78861102a565b16815263ffffffff611edb602089016111a5565b16602082015260408701356040820152019401920190611e8e565b60405190611f03826110ed565b606080835f81525f60208201525f60408201520152565b5190811515820361020357565b81601f8201121561020357805190611f3e82611867565b92611f4c604051948561115a565b8284526020838301011161020357815f9260208093018386015e8301015290565b9190604083820312610203578251926020810151906001600160401b03821161020357019080601f8301121561020357815191611fa98361117b565b92611fb7604051948561115a565b80845260208085019160051b830101918383116102035760208101915b838310611fe357505050505090565b82516001600160401b038111610203578201906080828703601f1901126102035760405190612011826110ed565b60208301516001600160a01b038116810361020357825261203460408401611f1a565b6020830152606083015160408301526080830151916001600160401b0383116102035761206988602080969581960101611f27565b6060820152815201920191611fd4565b60609081906001600160a01b0361208f8261102a565b16845260ff6120a0602083016118c6565b16602085015263ffffffff6120b7604083016111a5565b1660408501520135910152565b9035601e19823603018112156102035701602081359101916001600160401b03821161020357813603831361020357565b908060209392818452848401375f828201840152601f01601f1916010190565b8051156121225760200190565b634e487b7160e01b5f52603260045260245ffd5b80518210156121225760209160051b010190565b9190820391821161215757565b634e487b7160e01b5f52601160045260245ffd5b919082608091031261020357604051612183816110ed565b60608082946121918161102a565b845261219f602082016118c6565b60208501526121b0604082016111a5565b60408501520135910152565b9190820180921161215757565b905f9160c0810135805f52600160205260405f209360e083013594855f5260205260405f2060ff604051916121fd8361106b565b546001600160a01b038116835260a01c161515602082015261221d611ef6565b935f915f975f935f905f9360018060a01b0390511680612606575b5060a0850135908181106125f75750505f965b6060975f93825f525f60205260405f20815f5260205260405f209260405193612273856110b6565b5460018060a01b03811680865260ff808360a01c1615159283602089015260a81c1615156040870152151590816125ef575b506123d0575b5050505050156123b1575b50505081518515806123a9575b61239e576122dc9086156123965760ff60015b166121bc565b926122e68461117b565b936122f4604051958661115a565b808552612303601f199161117b565b015f5b81811061237f57505083905f96612361575b505f5b8351811015612358578061235161233460019387612136565b5161233f838b6121bc565b9061234a828a612136565b5287612136565b500161231b565b50939250935050565b6001965061236e85612115565b5261237884612115565b505f612318565b60209061238a611ef6565b82828901015201612306565b60ff5f6122d6565b509350606092915050565b5080156122c3565b91925090156123c457505b5f80806122b6565b610120915001356123bc565b919399985091935061018086360312610203576040516123ef8161109a565b6123f88761102a565b81526124066020880161102a565b906020810191825261241b3660408a0161216b565b93604082019485528a82019384526080820190815261243d6101008a0161102a565b9a60a083019b8c526101208a01359b60c084018d815260e08501916101408d013583526101608d0135946001600160401b0386116102035761250e9b5f9b8f61248c9061254e99369101611882565b6101008a019081528c51909701525160408051634661ac2360e11b815260206004820181905299516001600160a01b0390811660248301529a518b1660448201529b5180518b1660648e01529889015160ff1660848d015288015163ffffffff1660a48c015260609097015160c48b0152989a8b999690971697899788979190565b5160e488015251610104870152516001600160a01b03166101248601525161014485015251610164840152516101806101848401526101a4830190611cc3565b03915afa801561095c575f915f916125cb575b5095819560019284806125c2575b806125b8575b6125a3575b505085158061259a575b612592575b808080806122ab565b94505f612589565b50801515612584565b6125b09297508690614cb8565b945f8061257a565b5081871415612575565b5081151561256f565b90506125e991503d805f833e6125e1818361115a565b810190611f6d565b5f612561565b90505f6122a5565b6126009161214a565b9661224b565b604051634661ac2360e11b8152602060048201529650600194505f9087906001600160a01b036126358961102a565b1660248301526001600160a01b0361264f60208a0161102a565b1660448301526126656064830160408a01612079565b60e482018b905261010482018690526001600160a01b036126896101008a0161102a565b1661012483015261012088013561014483015261014088013561016483015281806126cf6126bb6101608c018c6120c4565b6101806101848501526101a48401916120f5565b03915afa95861561095c575f905f97612777575b5095805115612238579a505096506126fb8299612115565b519660408801516060890151805160a0811015612719575b50612238565b908092935001906080818303126102035761273660208201611ce7565b5061274360408201611ce7565b506060810151916001600160401b0383116102035760809260208061276c930191840101611f27565b500151905f80612713565b905061278e9196503d805f833e6125e1818361115a565b95905f6126e3565b6040516383db9d0160e01b8152600481018290526001600160a01b038416602482015290929190602081806044810103817f00000000000000000000000000000000000000000000000000000000000000006001600160a01b03165afa90811561095c575f9161298f575b5061298757825f525f60205260405f2090602081019165ffffffffffff8351165f5260205260405f209360405194612838866110b6565b5494604060ff60018060a01b03881697888452818160a01c161515602085015260a81c16151591015284612870575b50505050505f90565b65ffffffffffff946020946101006101649460405198899788966399f6d77f60e01b885260048801528183511660248801525116604486015265ffffffffffff604082015116606486015265ffffffffffff606082015116608486015263ffffffff60808201511660a48601526001600160701b0360a08201511660c486015263ffffffff60c08201511660e486015260018060a01b0360e082015116610104860152015161012484015260018060a01b03166101448301525afa90811561095c575f9161294d575b50612948575f80808080612867565b600190565b90506020813d60201161297f575b816129686020938361115a565b810103126102035761297990611f1a565b5f612939565b3d915061295b565b505050600190565b90506020813d6020116129c1575b816129aa6020938361115a565b81010312610203576129bb90611f1a565b5f612801565b3d915061299d565b519065ffffffffffff8216820361020357565b519063ffffffff8216820361020357565b91908261012091031261020357604051612a068161109a565b8092612a11816129c9565b8252612a1f602082016129c9565b6020830152612a30604082016129c9565b6040830152612a41606082016129c9565b6060830152612a52608082016129dc565b608083015260a08101516001600160701b03811681036102035760a0830152612a7d60c082016129dc565b60c083015260e08101516001600160a01b03811681036102035760e083015261010090810151910152565b519061ffff8216820361020357565b60405190612ac660208361115a565b5f80835282815b828110612ad957505050565b602090604051612ae8816110ed565b5f81525f838201525f60408201525f606082015282828501015201612acd565b6040516320c94b1360e11b815260048101829052610380816024817f00000000000000000000000000000000000000000000000000000000000000006001600160a01b03165afa90811561095c575f91612c4f575b50815f525f60205265ffffffffffff602060405f20920151165f5260205260405f2060405190612b8c826110b6565b5460ff60018060a01b03821691828452818160a01c161515602085015260a81c161515604083015215612c45575160405163b64ce2c360e01b602082019081526024808301949094529281525f9283926001600160a01b031691612bf160448261115a565b51915afa3d15612c3d573d90612c0682611867565b91612c14604051938461115a565b82523d5f602084013e5b15612c3057612c2c90614d6d565b9091565b50612c39612ab7565b5f91565b606090612c1e565b5050612c39612ab7565b90506103803d8111612dfc575b612c66818361115a565b81019080820391610380831261020357612c8361026091836129ed565b9261011f19011261020357610240612df361036060405193612ca4856110d1565b612cb16101208201612aa8565b8552612cc06101408201612aa8565b6020860152612cd261016082016129dc565b6040860152612ce46101808201611f1a565b6060860152612cf66101a08201611f1a565b6080860152612d086101c08201611f1a565b60a0860152612d1a6101e08201611f1a565b60c0860152612d2c6102008201611f1a565b60e0860152612d3e6102208201611f1a565b610100860152612d4f848201611f1a565b610120860152612d626102608201611f1a565b610140860152612d756102808201611f1a565b610160860152612d886102a08201611f1a565b610180860152612d9b6102c08201611f1a565b6101a0860152612dae6102e08201611f1a565b6101c0860152612dc16103008201611f1a565b6101e0860152612dd46103208201611f1a565b610200860152612de76103408201611ce7565b61022086015201612aa8565b9101525f612b5d565b503d612c5c565b919060a083820312610203578251926020810151926040820151926060830151926080810151906001600160401b03821161020357019080601f8301121561020357815191612e518361117b565b92612e5f604051948561115a565b80845260208085019160051b830101918383116102035760208101915b838310612e8b57505050505090565b82516001600160401b038111610203578201906080828703601f1901126102035760405190612eb9826110ed565b60208301516001600160a01b0381168103610203578252612edc60408401611f1a565b6020830152606083015160408301526080830151916001600160401b03831161020357612f1188602080969581960101611f27565b6060820152815201920191612e7c565b6001600160a01b037f00000000000000000000000000000000000000000000000000000000000000008116919060609060208301908135908116810361020357604080516383db9d0160e01b81529085013560048201526001600160a01b03919091166024820152602081604481885afa90811561095c575f91613652575b50613639576101608301359384608085013593849560a0810135948593610120830135956101408401358015908115036102035761351e575b5060209060609560408501355f526001835260405f209a878601359b8c5f52845260405f206040519061300b8261106b565b546001600160a01b03811680835260a09190911c60ff161515959091018590528015159485613516575b50846133ee575b5060609b60408701355f525f60205260405f20815f5260205260405f209460405195613067876110b6565b549060ff60018060a01b03831692838952818160a01c16151560208a015260a81c161515908160408901521591826133e4575b50816133dc575b506131d6575b50505050505050815115908180926131cd575b6131bf57501580806131b5575b15613197575084516001019687600111612157576130e48861117b565b976130f2604051998a61115a565b808952613101601f199161117b565b015f5b8181106131805750506131178892612115565b5161312189612115565b5261312b88612115565b505f5b865181101561316f576131418188612136565b51908060010191826001116121575782613168916131616001958e612136565b528b612136565b500161312e565b5092959194509295505b9493929190565b60209061318b611ef6565b82828d01015201613104565b9692959396949091945f146131ad575091613179565b905091613179565b50855115156130c7565b969794969395509193915050565b508651156130ba565b6101c087989e9d979c999c36031261020357613208604051966131f888611123565b6132018a61102a565b885261102a565b60208701526040880135604087015286860152608085015260a08401526132323660c0870161216b565b60c084015261324461014086016111c5565b60e084015261010083015261325c61018085016111c5565b6101208301526001600160401b036101a085013511610203575f9461328c6101209536906101a081013501611882565b610140840190815261010084019a8b526080840191825260a0840189815260c08501805187018a9052935160408051633d9cab2b60e21b815260206004820181905288516001600160a01b039081166024840152818a015181166044840152838a01516064840152998901516084830152955160a4820152925160c484015294518051881660e48401529384015160ff166101048301529383015163ffffffff166101248201526060929092015161014483015260e084015115156101648301529951610184820152939091015115156101a484015296516101c06101c48401529196879291169082908190613387906101e4830190611cc3565b03915afa92831561095c575f935f955f916133ad575b509493955f8080808080806130a7565b919450506133ce9194503d805f833e6133c6818361115a565b810190612e03565b96939150509390945f61339d565b90505f6130a1565b151591505f61309a565b604051633d9cab2b60e21b815260206004820152919d939b929a5093985096505f92879290916001600160a01b036134258861102a565b1660248501526001600160a01b0361343c8761102a565b166044850152604087013560648501528c608485015260a48401528960c484015261346d60e4840160c08801612079565b61347a61014087016111c5565b151561016484015261018483015261349561018086016111c5565b15156101a483015281806134c46134b06101a08901896120c4565b6101c06101c48501526101e48401916120f5565b03915afa94851561095c575f975f975f975f975f916134ea575b50969798999b5f61303c565b939a5050965096506135079194503d805f833e6133c6818361115a565b9399929891979096935f6134de565b94505f613035565b6040805163139db5a960e31b815290850135600482015290979196916020826024818c5afa90811561095c575f91613603575b61355b92506121bc565b9660e084013560ff8116809103610203576101008501359063ffffffff8216809203610203576064602092604051948593849263622c574160e11b845260408b01356004850152602484015260448301525afa90811561095c575f916135d0575b506135c9906020926121bc565b9590612fd9565b90506020813d6020116135fb575b816135eb6020938361115a565b81010312610203575160206135bc565b3d91506135de565b90506020823d602011613631575b8161361e6020938361115a565b810103126102035761355b915190613551565b3d9150613611565b505f936080830135935060a08301359261012001359190565b90506020813d602011613684575b8161366d6020938361115a565b810103126102035761367e90611f1a565b5f612fa0565b3d9150613660565b90602080835192838152019201905f5b8181106136a95750505090565b909192602060c0600192865163ffffffff81511682526001600160401b03848201511684830152848060a01b03604082015116604083015260608101511515606083015265ffffffffffff608082015116608083015260a08580821b039101511660a0820152019401910191909161369c565b90602080835192838152019201905f5b8181106137395750505090565b825180516001600160e01b0316855260209081015163ffffffff16818601526040909401939092019160010161372c565b9080602083519182815201916020808360051b8301019401925f915b83831061379557505050505090565b9091929394601f19828203018352855161034082019065ffffffffffff815116835263ffffffff60208201511660208401526001600160701b03604082015116604084015263ffffffff606082015116606084015260018060a01b03608082015116608084015261ffff61024060a08301518281511660a08701528260208201511660c087015263ffffffff60408201511660e0870152606081015115156101008701526080810151151561012087015260a0810151151561014087015260c0810151151561016087015260e0810151151561018087015261010081015115156101a087015261012081015115156101c087015261014081015115156101e0870152610160810151151561020087015261018081015115156102208701526101a08101511515828701526101c081015115156102608701526101e0810151151561028087015261020081015115156102a087015260018060a01b03610220820151166102c08701520151166102e084015260c0810151916103406103008501528251809152610360840160206103608360051b8701019401915f5b8181106139f0575050505060e0015191610320818303910152815180825260208201906020808260051b8501019401925f5b82811061398357505050505060208060019297019301930191939290613786565b90919293946020806139e3600193601f19878203018952895190858060a01b038251168152858060a01b0384830151168482015260606139d2604084015160806040850152608084019061371c565b92015190606081840391015261371c565b9701950193929101613962565b90919294602080613a1f60019361035f198b82030188526040838b51805184520151918185820152019061368c565b97019401929101613930565b98979596949391613a5b93613a4d928b5260a060208c015260a08b01916120f5565b9088820360408a015261376a565b938685036060880152808552602085019460208260051b82010195835f92603e1982360301905b858510613aa25750505050505050846080611864959685039101526120f5565b90919293949598601f1982820301855289358381121561020357604082019190850180356001600160a01b0381169081900361020357606091613aeb9184526020810190611db1565b60406020850152938490529101915f905b808210613b1d575050506020806001929b0195019501939594929190613a82565b909192606080600192838060a01b03613b358861102a565b16815260ff613b46602089016118c6565b16602082015263ffffffff613b5d604089016111a5565b166040820152019401920190613afc565b60405163180e2b1160e31b8152306004820152939a939960609994985f989297919592909160208d602481347f00000000000000000000000000000000000000000000000000000000000000006001600160a01b03165af197881561095c578e9d5f99613e88575b50908894939291859f613be887614f37565b613bf29087615105565b9e8f9060200151151590613c069288615439565b6040516307128b6b60e31b8152978897613c239760048a01613a2b565b7f00000000000000000000000000000000000000000000000000000000000000006001600160a01b031691839103815a6020945f91f1801561095c57613e59575b50613c6e82615031565b6001600160a01b038716803b15610203575f80916024604051809481936351106b4b60e11b83528860048401525af1801561095c57613e44575b50602081013580613d73575b50507f00000000000000000000000000000000000000000000000000000000000000006001600160a01b03163b15613d6f57604051632142170760e11b81523060048201526001600160a01b03928316602482015260448101919091529082908290606490829084907f0000000000000000000000000000000000000000000000000000000000000000165af18015613d6457613d4f575050565b613d5a82809261115a565b613d615750565b80fd5b6040513d84823e3d90fd5b8280fd5b829650613db990613d878387949587614b57565b6108af6108bd613d9561565d565b60408051602081019586526001600160a01b03909216908201529182906060820190565b92613dd96040519485938493639d7f900160e01b85528b60048601611de5565b0381837f00000000000000000000000000000000000000000000000000000000000000006001600160a01b03165af1908115613e39578391613e1f575b50935f80613cb4565b613e3391503d8085833e61094e818361115a565b5f613e16565b6040513d85823e3d90fd5b613e519194505f9061115a565b5f925f613ca8565b6020813d602011613e80575b81613e726020938361115a565b810103126102035751613c64565b3d9150613e65565b9d5093929190975060208d3d602011613ebf575b81613ea96020938361115a565b81010312610203578d9c5197909192935f613bd6565b3d9150613e9c565b90604051613ed4816110b6565b604051613ee081611108565b6060815260606020820152606060408201525f606082015260606080820152604051613f0b816110b6565b606081525f60208201525f604082015260a0820152604051613f2c8161113f565b5f81525f60208201525f60408201525f60608201525f608082015260c082015281525f60208201525f6040820152809280518015613f92575060a060129263ffffffff604083613f7c8296612115565b5101510151166020838351015101525101510152565b6328a3030960e21b5f5260045260245ffd5b9081602091031261020357516001600160a01b03811681036102035790565b6040516331a9108f60e11b81526004810182905291945f949093929091906020816024817f00000000000000000000000000000000000000000000000000000000000000006001600160a01b03165afa90811561095c575f91614630575b5061402a61565d565b6001600160a01b0391821691168082141580614577575b61454d57505061405081614f37565b60405163d4a1b4b160e01b81527f00000000000000000000000000000000000000000000000000000000000000006001600160a01b03169390602081600481885afa90811561095c576024916020915f91614530575b506040516319fade8560e11b81526004810186905292839182906001600160a01b03165afa90811561095c575f916144fe575b50428110156144e45750865160a00151515115614216576140fa8783615105565b966001600160a01b03881690813b15610203575f80926024604051809581936351106b4b60e11b83528960048401525af191821561095c5789926141e5575b509261419661415961418496948a946020809a9801511515915b85615439565b93604051988997889687956303141db760e41b8752600487015260606024870152606486019061376a565b848103600319016044860152916120f5565b03925af19182156141d957916141aa575091565b90506020813d6020116141d1575b816141c56020938361115a565b81010312610203575191565b3d91506141b8565b604051903d90823e3d90fd5b6020985088969491925061415961418496946142045f6141969461115a565b8b5f9b50949396985094965050614139565b60405163d4a1b4b160e01b8152909650602081600481875afa90811561095c57602491610140915f916144c5575b5060405163855a54ed60e01b81526004810185905292839182906001600160a01b03165afa90811561095c575f905f92614478575b506020019065ffffffffffff8251161515908161443d575b508061440d575b15614327575165ffffffffffff16955b815f52600160205260405f20875f5260205260405f2096604051976142cc8961106b565b549060ff602060018060a01b0384169a8b8152019260a01c161515825288801561430d5750506020949261419661415961418496948b8b9551151591614153565b8490630b77705360e01b5f5260045260245260445260645ffd5b5060405163d4a1b4b160e01b8152602081600481875afa90811561095c57602491610120915f916143de575b506040516321d1336160e11b81526004810185905292839182906001600160a01b03165afa90811561095c575f91614399575b506020015165ffffffffffff16956142a8565b90506101203d81116143d7575b6143b0818361115a565b810161012082820312610203576143d060209165ffffffffffff936129ed565b9150614386565b503d6143a6565b614400915060203d602011614406575b6143f8818361115a565b810190613fa4565b5f614353565b503d6143ee565b50815f52600160205260405f2065ffffffffffff8251165f5260205260018060a01b0360405f2054161515614298565b90506006811015614464576004811490811561445b575b505f614291565b9050155f614454565b634e487b7160e01b5f52602160045260245ffd5b9150506101403d81116144be575b614490818361115a565b810161014082820312610203576144aa61012091836129ed565b910151906006821015610203576020614279565b503d614486565b6144de915060203d602011614406576143f8818361115a565b5f614244565b8263b357f5c560e01b5f526004526024524260445260645ffd5b90506020813d602011614528575b816145196020938361115a565b8101031261020357515f6140d9565b3d915061450c565b6145479150823d8411614406576143f8818361115a565b5f6140a6565b9160849260405192631326f75560e11b845260048401526024830152604482015260026064820152fd5b50604051631a45b42760e11b81526004810182905260248101839052604481018490526002606482015260016084820181905260a482015260208160c4817f00000000000000000000000000000000000000000000000000000000000000006001600160a01b03165afa90811561095c575f916145f6575b5015614041565b90506020813d602011614628575b816146116020938361115a565b810103126102035761462290611f1a565b5f6145ef565b3d9150614604565b90506020813d602011614662575b8161464b6020938361115a565b810103126102035761465c90611ce7565b5f614021565b3d915061463e565b9896979092949795939195604051946331a9108f60e11b86525f958b600482015260208160248160018060a01b037f0000000000000000000000000000000000000000000000000000000000000000165afa90811561095c575f91614b1d575b506146d361565d565b6001600160a01b0391821691168082141580614a64575b614a3957506001600160a01b036146ff61565d565b168181141580614980575b61495557508861484c575b5061471f8b614f37565b614729878c615105565b996001600160a01b038b1694853b15610203575f809660248f604051998a9384926351106b4b60e11b845260048401525af1801561095c578d968d9161481f575b506147a29594939291614787916020809b9c015115159189615439565b6040516307128b6b60e31b81529a8b98899860048a01613a2b565b0381847f00000000000000000000000000000000000000000000000000000000000000006001600160a01b03165af19081156141d957906147eb575b6147e9915093615031565b565b506020813d602011614817575b816148056020938361115a565b81010312610203576147e990516147de565b3d91506147f8565b6020995061478791509161483a5f6147a2989796959461115a565b8d8a5f9b50509150919293949561476a565b6001600160a01b0361485c61565d565b16818114158061489c575b6148715750614715565b908c60849260405192631326f75560e11b845260048401526024830152604482015260076064820152fd5b50604051631a45b42760e11b81526004810182905260248101839052604481018e90526007606482015260016084820181905260a482015260208160c4817f00000000000000000000000000000000000000000000000000000000000000006001600160a01b03165afa90811561095c575f9161491b575b5015614867565b90506020813d60201161494d575b816149366020938361115a565b810103126102035761494790611f1a565b5f614914565b3d9150614929565b908c60849260405192631326f75560e11b8452600484015260248301526044820152600f6064820152fd5b50604051631a45b42760e11b81526004810182905260248101839052604481018e9052600f606482015260016084820181905260a482015260208160c4817f00000000000000000000000000000000000000000000000000000000000000006001600160a01b03165afa90811561095c575f916149ff575b501561470a565b90506020813d602011614a31575b81614a1a6020938361115a565b8101031261020357614a2b90611f1a565b5f6149f8565b3d9150614a0d565b908c60849260405192631326f75560e11b845260048401526024830152604482015260036064820152fd5b50604051631a45b42760e11b81526004810182905260248101839052604481018e90526003606482015260016084820181905260a482015260208160c4817f00000000000000000000000000000000000000000000000000000000000000006001600160a01b03165afa90811561095c575f91614ae3575b50156146ea565b90506020813d602011614b15575b81614afe6020938361115a565b8101031261020357614b0f90611f1a565b5f614adc565b3d9150614af1565b90506020813d602011614b4f575b81614b386020938361115a565b8101031261020357614b4990611ce7565b5f6146ca565b3d9150614b2b565b905f5b614b648480611cfb565b9050811015614cb257614b778480611cfb565b821015612122578160051b810135605e1982360301811215610203570160200135614ba457600101614b5a565b50909150614bb061565d565b6001600160a01b0392831692168083141580614bfa575b614bd057505050565b6084935060405192631326f75560e11b845260048401526024830152604482015260226064820152fd5b50604051631a45b42760e11b81526004810182905260248101849052604481018390526022606482015260016084820181905260a482015260208160c4817f00000000000000000000000000000000000000000000000000000000000000006001600160a01b03165afa90811561095c575f91614c79575b5015614bc7565b90506020813d8211614caa575b81614c936020938361115a565b8101031261020357614ca490611f1a565b5f614c72565b3d9150614c86565b50505050565b90915f198383099280830292838086109503948086039514614d4b5782851015614d335790829109600182190182168092046002816003021880820260020302808202600203028082026002030280820260020302808202600203028091026002030293600183805f03040190848311900302920304170290565b630c740aef60e31b5f5260045260245260445260645ffd5b505091508115614d59570490565b634e487b7160e01b5f52601260045260245ffd5b6060815110612c3057602081015191604082015191604083108015614f2b575b8015614f15575b614f095760208382010151906020840180941161215757614db684825161214a565b60071c8211614efc57614dc88261117b565b614dd5604051918261115a565b828152601f19614de48461117b565b015f5b818110614ecd575050935f5b838110614e005750505050565b8060071b8181046080148215171561215757614e1c90836121bc565b8301602081015190604081015190608060608201519101519160ff81118015614ebd575b8015614ead575b614e9a57916001600160801b03809260ff600197969560405196614e6a886110ed565b8752166020860152166040840152166060820152614e888289612136565b52614e938188612136565b5001614df3565b5050505050505050915050612c39612ab7565b506001600160801b038311614e47565b506001600160801b038211614e40565b602090604051614edc816110ed565b5f81525f838201525f60408201525f606082015282828601015201614de7565b5050915050612c39612ab7565b50915050612c39612ab7565b508051601f198101908111612157578311614d94565b50601f83161515614d8d565b604051632eec7b5560e11b8152600481018290526020816024817f00000000000000000000000000000000000000000000000000000000000000006001600160a01b03165afa90811561095c575f91614fef575b506001600160a01b0316908115614feb577f00000000000000000000000000000000000000000000000000000000000000006001600160a01b031690818303614fd357505050565b637da4da8b60e01b5f5260045260245260445260645ffd5b5050565b90506020813d602011615029575b8161500a6020938361115a565b8101031261020357516001600160a01b0381168103610203575f614f8b565b3d9150614ffd565b604051632eec7b5560e11b8152600481018290526020816024817f00000000000000000000000000000000000000000000000000000000000000006001600160a01b03165afa90811561095c575f916150c3575b506001600160a01b03908116917f000000000000000000000000000000000000000000000000000000000000000090911690818303614fd357505050565b90506020813d6020116150fd575b816150de6020938361115a565b8101031261020357516001600160a01b0381168103610203575f615085565b3d91506150d1565b906040815191015180155f146153fe57505f915b6040519283916337b4a3c360e11b83526004830152606060248301526151ab61518261516c615156865161016060648801526101c4870190611cc3565b6020870151868203606319016084880152611cc3565b60408601518582036063190160a4870152611cc3565b60608501516001600160a01b031660c485015260808501518482036063190160e4860152611cc3565b9260a0810151936063198482030161010485015260608101948051956060835286518091526080830190602060808260051b8601019801915f905b8282106152d5575050505060c060209693869593604060ff818663ffffffff8d6080990151168d8601520151169101520151805115156101248601528681015115156101448601526040810151151561016486015260608101511515610184860152015115156101a4840152604483015203815f60018060a01b037f0000000000000000000000000000000000000000000000000000000000000000165af190811561095c575f91615296575090565b90506020813d6020116152cd575b816152b16020938361115a565b8101031261020357516001600160a01b03811681036102035790565b3d91506152a4565b9193949596975091976020806153eb6001936102206101408e607f198d8503018952516cffffffffffffffffffffffffff815116845263ffffffff86820151168685015263ffffffff604082015116604085015261ffff6060820151166060850152878060a01b03608082015116608085015260a081015160a085015262ffffff60c08201511660c085015260ff60e08201511660e085015260c0610100820151805115156101008701528781015115156101208701526040810151151584870152606081015115156101608701526080810151151561018087015260a081015115156101a0870152015115156101c085015263ffffffff610120820151166101e085015201519181610200820152019061368c565b9a019201920189979695949391926151e6565b61540661565d565b604080516001600160a01b039092166020830190815282820193909352815261543060608261115a565b51902091615119565b90919392935f5b83518110156156555761545381426121bc565b306001600160a01b0361022060a061546b868a612136565b5101510151161461561f57906001916154e36040516154898161106b565b60a085811b86900387811683528b151560208085019182525f8b815289825260408082208983529092522093518454915160ff60a01b1991909316166001600160a81b03199091161790151590911b60ff60a01b16179055565b828060a01b0361022060a06154f8858a612136565b510151015116615549575b503061022060a06155148489612136565b5101510152816101e060a06155298489612136565b51015101528161020060a061553e8489612136565b510151015201615440565b828060a01b0361022060a061555e858a612136565b510151015116906156006101e060a0615577868b612136565b5101510151151561020060a061558d878c612136565b5101510151151592604051946155a2866110b6565b8552602080860192835260408087019586525f8b815280835281812093815292909152902093518454915160ff60a01b1960a089811b8a900393909316166001600160a81b031990931692909217911515901b60ff60a01b16178355565b51815460ff60a81b191690151560a81b60ff60a81b161790555f615503565b836001600160a01b0361022060a0615637868a612136565b510151015116630b77705360e01b5f5260045260245260445260645ffd5b509193505050565b601436101580615684575b15615680576013193601368111610203573560601c90565b3390565b50337f00000000000000000000000000000000000000000000000000000000000000006001600160a01b03161461566856fea164736f6c634300081c000a",
	"gitCommit": "npm:@bananapus/omnichain-deployers-v6@0.0.64",
	"gitDirty": false,
	"history": []
}