{
	"format": "sphinx-sol-ct-artifact-1",
	"address": "0xcf5870a8f942110c2ea89fd03b7a3d578816a265",
	"sourceName": "node_modules/@bananapus/core-v6/src/JBPermissions.sol",
	"contractName": "JBPermissions",
	"chainId": "0x14a34",
	"abi": [
		{
			"type": "constructor",
			"inputs": [
				{
					"name": "trustedForwarder",
					"type": "address",
					"internalType": "address"
				}
			],
			"stateMutability": "nonpayable"
		},
		{
			"type": "function",
			"name": "WILDCARD_PROJECT_ID",
			"inputs": [],
			"outputs": [
				{
					"name": "",
					"type": "uint256",
					"internalType": "uint256"
				}
			],
			"stateMutability": "view"
		},
		{
			"type": "function",
			"name": "hasPermission",
			"inputs": [
				{
					"name": "operator",
					"type": "address",
					"internalType": "address"
				},
				{
					"name": "account",
					"type": "address",
					"internalType": "address"
				},
				{
					"name": "projectId",
					"type": "uint256",
					"internalType": "uint256"
				},
				{
					"name": "permissionId",
					"type": "uint256",
					"internalType": "uint256"
				},
				{
					"name": "includeRoot",
					"type": "bool",
					"internalType": "bool"
				},
				{
					"name": "includeWildcardProjectId",
					"type": "bool",
					"internalType": "bool"
				}
			],
			"outputs": [
				{
					"name": "",
					"type": "bool",
					"internalType": "bool"
				}
			],
			"stateMutability": "view"
		},
		{
			"type": "function",
			"name": "hasPermissions",
			"inputs": [
				{
					"name": "operator",
					"type": "address",
					"internalType": "address"
				},
				{
					"name": "account",
					"type": "address",
					"internalType": "address"
				},
				{
					"name": "projectId",
					"type": "uint256",
					"internalType": "uint256"
				},
				{
					"name": "permissionIds",
					"type": "uint256[]",
					"internalType": "uint256[]"
				},
				{
					"name": "includeRoot",
					"type": "bool",
					"internalType": "bool"
				},
				{
					"name": "includeWildcardProjectId",
					"type": "bool",
					"internalType": "bool"
				}
			],
			"outputs": [
				{
					"name": "",
					"type": "bool",
					"internalType": "bool"
				}
			],
			"stateMutability": "view"
		},
		{
			"type": "function",
			"name": "isTrustedForwarder",
			"inputs": [
				{
					"name": "forwarder",
					"type": "address",
					"internalType": "address"
				}
			],
			"outputs": [
				{
					"name": "",
					"type": "bool",
					"internalType": "bool"
				}
			],
			"stateMutability": "view"
		},
		{
			"type": "function",
			"name": "permissionsOf",
			"inputs": [
				{
					"name": "operator",
					"type": "address",
					"internalType": "address"
				},
				{
					"name": "account",
					"type": "address",
					"internalType": "address"
				},
				{
					"name": "projectId",
					"type": "uint256",
					"internalType": "uint256"
				}
			],
			"outputs": [
				{
					"name": "",
					"type": "uint256",
					"internalType": "uint256"
				}
			],
			"stateMutability": "view"
		},
		{
			"type": "function",
			"name": "setPermissionsFor",
			"inputs": [
				{
					"name": "account",
					"type": "address",
					"internalType": "address"
				},
				{
					"name": "permissionsData",
					"type": "tuple",
					"internalType": "struct JBPermissionsData",
					"components": [
						{
							"name": "operator",
							"type": "address",
							"internalType": "address"
						},
						{
							"name": "projectId",
							"type": "uint64",
							"internalType": "uint64"
						},
						{
							"name": "permissionIds",
							"type": "uint8[]",
							"internalType": "uint8[]"
						}
					]
				}
			],
			"outputs": [],
			"stateMutability": "nonpayable"
		},
		{
			"type": "function",
			"name": "trustedForwarder",
			"inputs": [],
			"outputs": [
				{
					"name": "",
					"type": "address",
					"internalType": "address"
				}
			],
			"stateMutability": "view"
		},
		{
			"type": "event",
			"name": "OperatorPermissionsSet",
			"inputs": [
				{
					"name": "operator",
					"type": "address",
					"indexed": true,
					"internalType": "address"
				},
				{
					"name": "account",
					"type": "address",
					"indexed": true,
					"internalType": "address"
				},
				{
					"name": "projectId",
					"type": "uint256",
					"indexed": true,
					"internalType": "uint256"
				},
				{
					"name": "permissionIds",
					"type": "uint8[]",
					"indexed": false,
					"internalType": "uint8[]"
				},
				{
					"name": "packed",
					"type": "uint256",
					"indexed": false,
					"internalType": "uint256"
				},
				{
					"name": "caller",
					"type": "address",
					"indexed": false,
					"internalType": "address"
				}
			],
			"anonymous": false
		},
		{
			"type": "error",
			"name": "JBPermissions_NoZeroPermission",
			"inputs": [
				{
					"name": "account",
					"type": "address",
					"internalType": "address"
				},
				{
					"name": "operator",
					"type": "address",
					"internalType": "address"
				},
				{
					"name": "projectId",
					"type": "uint256",
					"internalType": "uint256"
				}
			]
		},
		{
			"type": "error",
			"name": "JBPermissions_PermissionIdOutOfBounds",
			"inputs": [
				{
					"name": "permissionId",
					"type": "uint256",
					"internalType": "uint256"
				}
			]
		},
		{
			"type": "error",
			"name": "JBPermissions_Unauthorized",
			"inputs": [
				{
					"name": "account",
					"type": "address",
					"internalType": "address"
				},
				{
					"name": "operator",
					"type": "address",
					"internalType": "address"
				},
				{
					"name": "projectId",
					"type": "uint256",
					"internalType": "uint256"
				},
				{
					"name": "permissionId",
					"type": "uint256",
					"internalType": "uint256"
				}
			]
		}
	],
	"args": [
		"0x53d5A7E174A87721c527ED14c7Ce7cb515465607"
	],
	"solcInputHash": "9077b8c3e039fc3546e83ef7c5090c6c",
	"bytecode": "0x60a0604052348015600e575f5ffd5b50604051610b16380380610b16833981016040819052602b91603b565b6001600160a01b03166080526066565b5f60208284031215604a575f5ffd5b81516001600160a01b0381168114605f575f5ffd5b9392505050565b608051610a8b61008b5f395f818160cb0152818161011b01526106be0152610a8b5ff3fe608060405234801561000f575f5ffd5b506004361061007a575f3560e01c8063632af95f11610058578063632af95f146100fb5780637da0a8771461010e57806380deb230146101455780638affd7eb14610182575f5ffd5b8063348b684e1461007e578063449f24a4146100a6578063572b6c05146100bb575b5f5ffd5b61009161008c366004610741565b610189565b60405190151581526020015b60405180910390f35b6100b96100b43660046107a3565b610270565b005b6100916100c93660046107f4565b7f00000000000000000000000000000000000000000000000000000000000000006001600160a01b0390811691161490565b610091610109366004610814565b6104d5565b6040516001600160a01b037f000000000000000000000000000000000000000000000000000000000000000016815260200161009d565b6101746101533660046108cf565b5f602081815293815260408082208552928152828120909352825290205481565b60405190815260200161009d565b6101745f81565b5f60ff8411156101b4576040516311f31b1160e21b8152600481018590526024015b60405180910390fd5b6001600160a01b038088165f90815260208181526040808320938a16835292815282822088835290529081205490836101ed575f610219565b6001600160a01b03808a165f90815260208181526040808320938c168352928152828220828052905220545b905084801561023a5750600182811c8116148061023a5750600181811c8116145b1561024a57600192505050610266565b600182871c811614806102615750600181871c8116145b925050505b9695505050505050565b5f6102866102816040840184610909565b610659565b90506001808216036102ed57826102a060208401846107f4565b6102b06040850160208601610956565b604051633a72b99d60e21b81526001600160a01b03938416600482015292909116602483015267ffffffffffffffff1660448201526064016101ab565b5f6102f66106ad565b9050836001600160a01b0316816001600160a01b0316141580156103705750600182811c8116148061034057505f6103346040850160208601610956565b67ffffffffffffffff16145b80610370575061036e818561035b6040870160208801610956565b67ffffffffffffffff1660018080610189565b155b156103cb5783816103876040860160208701610956565b6040516316422e7360e11b81526001600160a01b03938416600482015292909116602483015267ffffffffffffffff166044820152600160648201526084016101ab565b815f806103db60208701876107f4565b6001600160a01b03166001600160a01b031681526020019081526020015f205f866001600160a01b03166001600160a01b031681526020019081526020015f205f85602001602081019061042f9190610956565b67ffffffffffffffff1681526020019081526020015f208190555082602001602081019061045d9190610956565b67ffffffffffffffff166001600160a01b03851661047e60208601866107f4565b6001600160a01b03167f5324a861114a736770617a7dad3321b8417dc39698b30adfade6d0367b2e5d596104b56040880188610909565b87876040516104c7949392919061098d565b60405180910390a450505050565b5f82801561055357506001600160a01b038881165f90815260208181526040808320938b16835292815282822089835290522054600190811c81161480610553575081801561055357506001600160a01b038881165f90815260208181526040808320938b16835292815282822082805290522054600190811c8116145b156105605750600161064e565b6001600160a01b038089165f90815260208181526040808320938b1683529281528282208983529052908120549083610599575f6105c5565b6001600160a01b03808b165f90815260208181526040808320938d168352928152828220828052905220545b90505f5b86811015610646575f8888838181106105e4576105e46109ea565b90506020020135905060ff811115610612576040516311f31b1160e21b8152600481018290526024016101ab565b600184821c81161415801561062c5750600183821c811614155b1561063d575f94505050505061064e565b506001016105c9565b506001925050505b979650505050505050565b5f5f5b828110156106a6575f848483818110610677576106776109ea565b905060200201602081019061068c91906109fe565b60ff169050806001901b831792508160010191505061065c565b5092915050565b5f3660148082108015906106e957507f00000000000000000000000000000000000000000000000000000000000000006001600160a01b031633145b1561070f576106fc36828403815f610a17565b61070591610a3e565b60601c9250505090565b339250505090565b80356001600160a01b038116811461072d575f5ffd5b919050565b8035801515811461072d575f5ffd5b5f5f5f5f5f5f60c08789031215610756575f5ffd5b61075f87610717565b955061076d60208801610717565b9450604087013593506060870135925061078960808801610732565b915061079760a08801610732565b90509295509295509295565b5f5f604083850312156107b4575f5ffd5b6107bd83610717565b9150602083013567ffffffffffffffff8111156107d8575f5ffd5b8301606081860312156107e9575f5ffd5b809150509250929050565b5f60208284031215610804575f5ffd5b61080d82610717565b9392505050565b5f5f5f5f5f5f5f60c0888a03121561082a575f5ffd5b61083388610717565b965061084160208901610717565b955060408801359450606088013567ffffffffffffffff811115610863575f5ffd5b8801601f81018a13610873575f5ffd5b803567ffffffffffffffff811115610889575f5ffd5b8a60208260051b840101111561089d575f5ffd5b602091909101945092506108b360808901610732565b91506108c160a08901610732565b905092959891949750929550565b5f5f5f606084860312156108e1575f5ffd5b6108ea84610717565b92506108f860208501610717565b929592945050506040919091013590565b5f5f8335601e1984360301811261091e575f5ffd5b83018035915067ffffffffffffffff821115610938575f5ffd5b6020019150600581901b360382131561094f575f5ffd5b9250929050565b5f60208284031215610966575f5ffd5b813567ffffffffffffffff8116811461080d575f5ffd5b803560ff8116811461072d575f5ffd5b606080825281018490525f8560808301825b878110156109c75760ff6109b28461097d565b1682526020928301929091019060010161099f565b50602084019590955250506001600160a01b039190911660409091015292915050565b634e487b7160e01b5f52603260045260245ffd5b5f60208284031215610a0e575f5ffd5b61080d8261097d565b5f5f85851115610a25575f5ffd5b83861115610a31575f5ffd5b5050820193919092039150565b80356bffffffffffffffffffffffff1981169060148410156106a6576bffffffffffffffffffffffff1960149490940360031b84901b169092169291505056fea164736f6c634300081c000a",
	"gitCommit": "npm:@bananapus/core-v6@0.0.82",
	"gitDirty": false,
	"history": []
}