{
	"format": "sphinx-sol-ct-artifact-1",
	"address": "0x96798b793d09957266d2cd9fc149996a52588823",
	"sourceName": "node_modules/@bananapus/project-payer-v6/src/JBProjectPayerDeployer.sol",
	"contractName": "JBProjectPayerDeployer",
	"chainId": "0x14a34",
	"abi": [
		{
			"type": "constructor",
			"inputs": [
				{
					"name": "directory",
					"type": "address",
					"internalType": "contract IJBDirectory"
				}
			],
			"stateMutability": "nonpayable"
		},
		{
			"type": "function",
			"name": "DIRECTORY",
			"inputs": [],
			"outputs": [
				{
					"name": "",
					"type": "address",
					"internalType": "contract IJBDirectory"
				}
			],
			"stateMutability": "view"
		},
		{
			"type": "function",
			"name": "IMPLEMENTATION",
			"inputs": [],
			"outputs": [
				{
					"name": "",
					"type": "address",
					"internalType": "address"
				}
			],
			"stateMutability": "view"
		},
		{
			"type": "function",
			"name": "deployProjectPayer",
			"inputs": [
				{
					"name": "defaultProjectId",
					"type": "uint256",
					"internalType": "uint256"
				},
				{
					"name": "defaultBeneficiary",
					"type": "address",
					"internalType": "address payable"
				},
				{
					"name": "defaultMemo",
					"type": "string",
					"internalType": "string"
				},
				{
					"name": "defaultMetadata",
					"type": "bytes",
					"internalType": "bytes"
				},
				{
					"name": "defaultAddToBalance",
					"type": "bool",
					"internalType": "bool"
				},
				{
					"name": "owner",
					"type": "address",
					"internalType": "address"
				}
			],
			"outputs": [
				{
					"name": "projectPayer",
					"type": "address",
					"internalType": "contract IJBProjectPayer"
				}
			],
			"stateMutability": "nonpayable"
		},
		{
			"type": "event",
			"name": "DeployProjectPayer",
			"inputs": [
				{
					"name": "projectPayer",
					"type": "address",
					"indexed": true,
					"internalType": "contract IJBProjectPayer"
				},
				{
					"name": "defaultProjectId",
					"type": "uint256",
					"indexed": false,
					"internalType": "uint256"
				},
				{
					"name": "defaultBeneficiary",
					"type": "address",
					"indexed": false,
					"internalType": "address"
				},
				{
					"name": "defaultMemo",
					"type": "string",
					"indexed": false,
					"internalType": "string"
				},
				{
					"name": "defaultMetadata",
					"type": "bytes",
					"indexed": false,
					"internalType": "bytes"
				},
				{
					"name": "defaultAddToBalance",
					"type": "bool",
					"indexed": false,
					"internalType": "bool"
				},
				{
					"name": "directory",
					"type": "address",
					"indexed": false,
					"internalType": "contract IJBDirectory"
				},
				{
					"name": "owner",
					"type": "address",
					"indexed": false,
					"internalType": "address"
				},
				{
					"name": "caller",
					"type": "address",
					"indexed": false,
					"internalType": "address"
				}
			],
			"anonymous": false
		},
		{
			"type": "error",
			"name": "FailedDeployment",
			"inputs": []
		},
		{
			"type": "error",
			"name": "InsufficientBalance",
			"inputs": [
				{
					"name": "balance",
					"type": "uint256",
					"internalType": "uint256"
				},
				{
					"name": "needed",
					"type": "uint256",
					"internalType": "uint256"
				}
			]
		}
	],
	"args": [
		"0x255c5901827dB2d5b982BF8c25090809c36aBA18"
	],
	"solcInputHash": "9fc7191c686ed2e1f0a2ad4b594f0bf1",
	"bytecode": "0x60c0346100e057601f61202e38819003918201601f19168301916001600160401b038311848410176100cc578084926020946040528339810103126100e057516001600160a01b0381168082036100e05760405190611b768083016001600160401b038111848210176100cc5760209284926104b8843981520301905ff080156100c1576001600160a01b031660805260a0526040516103d390816100e5823960805181818161010001526102f7015260a05181818161023001526102b60152f35b6040513d5f823e3d90fd5b634e487b7160e01b5f52604160045260245ffd5b5f80fdfe6080806040526004361015610012575f80fd5b5f3560e01c9081633a4741bd146102e55750806388bc2ef3146102a15763a396f5e91461003d575f80fd5b3461028e5760c036600319011261028e576004356024356001600160a01b0381169081900361028e5760443567ffffffffffffffff811161028e573660238201121561028e5761009790369060248160040135910161035c565b9160643567ffffffffffffffff811161028e573660238201121561028e576100c990369060248160040135910161035c565b926084359283151580940361028e5760a4356001600160a01b038116939084900361028e576e5af43d82803e903d91602b57fd5bf37f0000000000000000000000000000000000000000000000000000000000000000763d602d80600a3d3981f3363d3d373d3d3d363d7300000062ffffff8260881c16175f5260781b1760205260018060a01b03603760095ff01694851561029257853b1561028e5760405194631195104560e11b865282600487015283602487015260c060448701525f86806101ac61019a60c483018a6103a2565b8281036003190160648401528c6103a2565b8560848301528460a48301520381838b5af1958615610283576020986102187ff8d622edf8bf5e0b4a4df8f3c4457827c1e88c2c06f2e207f122ae5c758bbc8497610226938b9a610273575b5060405197889788528c88015261010060408801526101008701906103a2565b9085820360608701526103a2565b60808401929092527f00000000000000000000000000000000000000000000000000000000000000006001600160a01b031660a084015260c08301523360e08301520390a2604051908152f35b5f61027d91610326565b5f6101f8565b6040513d5f823e3d90fd5b5f80fd5b63b06ebf3d60e01b5f5260045ffd5b3461028e575f36600319011261028e576040517f00000000000000000000000000000000000000000000000000000000000000006001600160a01b03168152602090f35b3461028e575f36600319011261028e577f00000000000000000000000000000000000000000000000000000000000000006001600160a01b03168152602090f35b90601f8019910116810190811067ffffffffffffffff82111761034857604052565b634e487b7160e01b5f52604160045260245ffd5b92919267ffffffffffffffff82116103485760405191610386601f8201601f191660200184610326565b82948184528183011161028e578281602093845f960137010152565b805180835260209291819084018484015e5f828201840152601f01601f191601019056fea164736f6c634300081c000a60c0346100f757601f611b7638819003918201601f19168301916001600160401b038311848410176100fb578084926020946040528339810103126100f757516001600160a01b03811681036100f75733156100e4575f8054336001600160a01b0319821681178355604051939290916001600160a01b0316907f8be0079c531659141344cd1fd0a4f28419497f9722a3daafe3b4186f6b6457e09080a36080523360a052611a6690816101108239608051818181606101528181610217015281816105b101528181610a530152610c9e015260a0518181816108ba01526111190152f35b631e4fbdf760e01b5f525f60045260245ffd5b5f80fd5b634e487b7160e01b5f52604160045260245ffdfe608080604052600436101561039e575b50361561001a575f80fd5b6005545f9060ff16156101c0576001546100326115b5565b61003a6114ad565b604051630862026560e41b81526004810184905261eeee60248201529091906020816044817f00000000000000000000000000000000000000000000000000000000000000006001600160a01b03165afa90811561016a575f91610191575b506001600160a01b0316928315610179576001600160a01b035f5c811694906100c06118c0565b166001600160601b0360a01b5f5c16175f5d803b15610175575f926101209261013260405196879586948594639e6eec0560e01b8652600486015261eeee602486015234604486015288606486015260c0608486015260c4850190611564565b8381036003190160a485015290611564565b039134905af1801561016a57610155575b50815c6001600160a01b03191617905d005b6101629192505f906113d6565b5f905f610143565b6040513d5f823e3d90fd5b5f80fd5b631b10fc5160e01b5f5260045261eeee60245260445ffd5b6101b3915060203d6020116101b9575b6101ab81836113d6565b8101906117fa565b5f610099565b503d6101a1565b506001546002546001600160a01b0316806103995750335b6001600160a01b0316906101ea6115b5565b906101f36114ad565b604051630862026560e41b81526004810183905261eeee60248201526020816044817f00000000000000000000000000000000000000000000000000000000000000006001600160a01b03165afa90811561016a575f9161037a575b506001600160a01b031691821561017957916102ec939160209360018060a01b035f5c169660018060a01b036102836118c0565b166001600160601b0360a01b5f5c16175f5d8015610352576102fe90925b6040519788968795869563fef4325760e01b8752600487015261eeee602487015234604487015260018060a01b031660648601525f608486015260e060a486015260e4850190611564565b8381036003190160c485015290611564565b039134905af1801561016a57610323575b506001600160601b0360a01b5f5c16175f5d005b6020813d60201161034a575b8161033c602093836113d6565b81010312610175575161030f565b3d915061032f565b506002546001600160a01b03168015610370576102fe905b926102a1565b506102fe3361036a565b610393915060203d6020116101b9576101ab81836113d6565b5f61024f565b6101d8565b5f905f3560e01c90816301ffc9a71461135557508063232a208a146110a2578063296eee511461107d5780633ce9830b146110605780633d5a52a014610d6757806354ab58af14610d3f578063715018a614610ce85780637e64654914610ccd57806388bc2ef314610c895780638da5cb5b14610c62578063a7e93f4914610c40578063b52b64661461091d578063b96053df146108e9578063c1b8411a146108a4578063f2fde38b1461084d5763fef432570361000f5760e036600319011261084a5760043561046d6113c0565b906064356001600160a01b038116918282036108485760a4356001600160401b038111610844576104a2903690600401611588565b909360c4356001600160401b038111610840576104c3903690600401611588565b6001600160a01b0388169761eeee891497881597929693919291906044358a61082b5734610813578c602460208e604051928380926370a0823160e01b82523060048301525afa928315610808578e9183946107cd575b5060249161052c602092303384611768565b6040516370a0823160e01b815230600482015292839182905afa9182156107c15791610787575b509261057460209361056b61057c946105ad976116db565b9a5b3691611412565b993691611412565b604051630862026560e41b8152600481018790526001600160a01b0390951660248601529391829081906044820190565b03817f00000000000000000000000000000000000000000000000000000000000000006001600160a01b03165afa90811561077c578b9161075d575b506001600160a01b03169788156107465792610695602095938b9388968c8f9b9a8d610735575b50501561072e5786955b6001600160a01b038b5c81169b906106306118c0565b166001600160a01b0319825c1617815d5015610706576102ec90985b604051998a988997889763fef4325760e01b895260048901526024880152604487015260018060a01b03166064860152608435608486015260e060a486015260e4850190611564565b0391885af180156106fb576106cc575b50845c6001600160a01b03191617845d6106bd578280f35b6106c691611819565b5f808280f35b6020813d6020116106f3575b816106e5602093836113d6565b8101031261017557516106a5565b3d91506106d8565b6040513d88823e3d90fd5b506002546001600160a01b03168015610724576102ec905b9861064c565b506102ec3361071e565b899561061a565b61073f9188611871565b8c88610610565b60448b8b86631b10fc5160e01b8352600452602452fd5b610776915060203d6020116101b9576101ab81836113d6565b5f6105e9565b6040513d8d823e3d90fd5b919390506020823d6020116107b9575b816107a4602093836113d6565b81010312610175579051909290610574610553565b3d9150610797565b604051903d90823e3d90fd5b92509250506020813d602011610800575b816107eb602093836113d6565b810103126101755751908d908d90602461051a565b3d91506107de565b6040513d84823e3d90fd5b6345f8bef960e11b8d523460045260248c905260448dfd5b5061057c6105ad92610574602093349a61056d565b8780fd5b8580fd5b845b80fd5b503461084a57602036600319011261084a576004356001600160a01b0381168082036108a05761087b611742565b1561088c57610889906116fc565b80f35b631e4fbdf760e01b82526004829052602482fd5b8280fd5b503461084a578060031936011261084a576040517f00000000000000000000000000000000000000000000000000000000000000006001600160a01b03168152602090f35b503461084a578060031936011261084a576109196109056115b5565b604051918291602083526020830190611564565b0390f35b5060a0366003190112610175576004356109356113c0565b6064356001600160401b03811161017557610954903690600401611588565b90916084356001600160401b03811161017557610975903690600401611588565b6001600160a01b0383169561eeee87149586159592939192919060443588610c2b5734610c14576040516370a0823160e01b8152306004820152906020826024818e5afa91821561016a575f92610bde575b506109d49030338d611768565b6040516370a0823160e01b81523060048201526020816024818e5afa90811561016a575f91610ba4575b5092610a16602093610a16610a1e94610a4f976116db565b963691611412565b604051630862026560e41b8152600481018690526001600160a01b0390971660248801529591829081906044820190565b03817f00000000000000000000000000000000000000000000000000000000000000006001600160a01b03165afa90811561016a575f91610b85575b506001600160a01b0316958615610b6e5785610b5e575b15610b5857805b6001600160a01b035f5c81169590610abf6118c0565b166001600160601b0360a01b5f5c16175f5d873b15610175575f93610b1c8a9261012060405198899788968796639e6eec0560e01b885260048801526024870152604486015288606486015260c0608486015260c4850190611564565b0391885af1801561016a57610b435750845c6001600160a01b03191617845d6106bd578280f35b610b509195505f906113d6565b5f935f6106a5565b5f610aa9565b610b6982888a611871565b610aa2565b8783631b10fc5160e01b5f5260045260245260445ffd5b610b9e915060203d6020116101b9576101ab81836113d6565b5f610a8b565b919390506020823d602011610bd6575b81610bc1602093836113d6565b81010312610175579051909290610a166109fe565b3d9150610bb4565b9091506020813d602011610c0c575b81610bfa602093836113d6565b810103126101755751906109d46109c7565b3d9150610bed565b896345f8bef960e11b5f523460045260245260445ffd5b50610a1e610a4f92610a16602093349661056d565b34610175575f36600319011261017557602060ff600554166040519015158152f35b34610175575f366003190112610175575f546040516001600160a01b039091168152602090f35b34610175575f366003190112610175576040517f00000000000000000000000000000000000000000000000000000000000000006001600160a01b03168152602090f35b34610175575f366003190112610175576109196109056114ad565b34610175575f36600319011261017557610d00611742565b5f80546001600160a01b0319811682556001600160a01b03167f8be0079c531659141344cd1fd0a4f28419497f9722a3daafe3b4186f6b6457e08280a3005b34610175575f366003190112610175576002546040516001600160a01b039091168152602090f35b346101755760a036600319011261017557600435610d836113c0565b906044356001600160401b03811161017557610da3903690600401611448565b6064356001600160401b03811161017557610dc2903690600401611448565b610dca611466565b93610dd3611742565b8360015560018060a01b031693846001600160601b0360a01b600254161760025582516001600160401b038111610fc157610e1881610e13600354611475565b611660565b6020601f8211600114610fe0579080610e45925f91610fd5575b508160011b915f199060031b1c19161790565b6003555b81516001600160401b038111610fc157610e6d81610e68600454611475565b6116a3565b6020601f8211600114610f17577f3deb63dc642de6ac4b8cefcd51b9dc16f4fbe2f2f84e5682a91899633e28fc789492610ec383610eed9694610efb945f91610f0c57508160011b915f199060031b1c19161790565b6004555b15159160ff196005541660ff841617600555604051948594608086526080860190611564565b908482036020860152611564565b9060408301523360608301520390a3005b90508501518b610e32565b601f1982169060045f527f8a35acfbc15ff81a39ae7d344fd709f28e8600b4aa8c65c6b64bfe7fe36bd19b915f5b818110610fa9575083610efb937f3deb63dc642de6ac4b8cefcd51b9dc16f4fbe2f2f84e5682a91899633e28fc78989693610eed989660019410610f91575b5050811b01600455610ec7565b8601515f1960f88460031b161c191690558a80610f84565b9192602060018192868a015181550194019201610f45565b634e487b7160e01b5f52604160045260245ffd5b905085015188610e32565b601f1982169060035f527fc2575a0e9e593c00f959f8c92f12db2869c3395a3b0502d05e2516446f71f85b915f5b81811061104857509083600194939210611030575b5050811b01600355610e49565b8601515f1960f88460031b161c191690558780611023565b9192602060018192868b01518155019401920161100e565b34610175575f366003190112610175576020600154604051908152f35b34610175575f366003190112610175576040515f5c6001600160a01b03168152602090f35b346101755760c0366003190112610175576110bb6113c0565b6044356001600160401b038111610175576110da903690600401611448565b906064356001600160401b038111610175576110fa903690600401611448565b90611103611466565b60a435916001600160a01b0383168303610175577f00000000000000000000000000000000000000000000000000000000000000006001600160a01b03163381900361133f575060043560015560018060a01b03166001600160601b0360a01b600254161760025583516001600160401b038111610fc15761118a81610e13600354611475565b602094601f82116001146112be576111bc9293949582915f9261122d575b50508160011b915f199060031b1c19161790565b6003555b8251926001600160401b038411610fc1576111e084610e68600454611475565b602090601f85116001146112385793806112129261122b965f9261122d5750508160011b915f199060031b1c19161790565b6004555b60ff80196005541691151516176005556116fc565b005b0151905086806111a8565b90601f1985169160045f527f8a35acfbc15ff81a39ae7d344fd709f28e8600b4aa8c65c6b64bfe7fe36bd19b925f5b8181106112a6575091600193918761122b98941061128e575b505050811b01600455611216565b01515f1960f88460031b161c19169055858080611280565b92936020600181928786015181550195019301611267565b601f1982169560035f527fc2575a0e9e593c00f959f8c92f12db2869c3395a3b0502d05e2516446f71f85b915f5b8881106113275750836001959697981061130f575b505050811b016003556111c0565b01515f1960f88460031b161c19169055858080611301565b919260206001819286850151815501940192016112ec565b637c2dcd2b60e11b5f523360045260245260445ffd5b34610175576020366003190112610175576004359063ffffffff60e01b821680920361017557602091631404998960e01b81149081156113af575b811561139e575b5015158152f35b6301ffc9a760e01b14905083611397565b63296eee5160e01b81149150611390565b602435906001600160a01b038216820361017557565b90601f801991011681019081106001600160401b03821117610fc157604052565b6001600160401b038111610fc157601f01601f191660200190565b92919261141e826113f7565b9161142c60405193846113d6565b829481845281830111610175578281602093845f960137010152565b9080601f830112156101755781602061146393359101611412565b90565b60843590811515820361017557565b90600182811c921680156114a3575b602083101461148f57565b634e487b7160e01b5f52602260045260245ffd5b91607f1691611484565b604051905f82600454916114c083611475565b808352926001811690811561154557506001146114e6575b6114e4925003836113d6565b565b5060045f90815290917f8a35acfbc15ff81a39ae7d344fd709f28e8600b4aa8c65c6b64bfe7fe36bd19b5b8183106115295750509060206114e4928201016114d8565b6020919350806001915483858901015201910190918492611511565b602092506114e494915060ff191682840152151560051b8201016114d8565b805180835260209291819084018484015e5f828201840152601f01601f1916010190565b9181601f84011215610175578235916001600160401b038311610175576020838186019501011161017557565b604051905f82600354916115c883611475565b808352926001811690811561154557506001146115eb576114e4925003836113d6565b5060035f90815290917fc2575a0e9e593c00f959f8c92f12db2869c3395a3b0502d05e2516446f71f85b5b81831061162e5750509060206114e4928201016114d8565b6020919350806001915483858901015201910190918492611616565b818110611655575050565b5f815560010161164a565b90601f821161166d575050565b6114e49160035f5260205f20906020601f840160051c83019310611699575b601f0160051c019061164a565b909150819061168c565b90601f82116116b0575050565b6114e49160045f5260205f20906020601f840160051c8301931061169957601f0160051c019061164a565b919082039182116116e857565b634e487b7160e01b5f52601160045260245ffd5b5f80546001600160a01b039283166001600160a01b03198216811783559216907f8be0079c531659141344cd1fd0a4f28419497f9722a3daafe3b4186f6b6457e09080a3565b5f546001600160a01b0316330361175557565b63118cdaa760e01b5f523360045260245ffd5b6040516323b872dd60e01b5f9081526001600160a01b039384166004529290931660245260449390935260209060648180865af19060015f51148216156117d9575b6040525f606052156117b95750565b635274afe760e01b5f9081526001600160a01b0391909116600452602490fd5b9060018115166117f157823b15153d151616906117aa565b503d5f823e3d90fd5b9081602091031261017557516001600160a01b03811681036101755790565b906118255f828461196d565b1561182e575050565b61183881836119ba565b15611850575f6118489183611a1e565b156117b95750565b50635274afe760e01b5f9081526001600160a01b0391909116600452602490fd5b919061187e82828561196d565b1561188857505050565b61189281846119ba565b156118a257906118489183611a1e565b635274afe760e01b5f9081526001600160a01b038416600452602490fd5b333b15611969575f80604051602081019063296eee5160e01b8252600481526118ea6024826113d6565b5190335afa3d15611961573d90611900826113f7565b9161190e60405193846113d6565b82523d5f602084013e5b158015611956575b6119515760208180518101031261017557602001516001600160a01b03811690819003610175578061146357503390565b503390565b506020815110611920565b606090611918565b3390565b92916040519163095ea7b360e01b5f5260018060a01b031660045260245260205f60448180875af19260015f51148416156119a9575b50604052565b3d15903b151516909216915f6119a3565b60405163095ea7b360e01b5f9081526001600160a01b03909316600452602483905290929160209060448180875af19260015f51148416156119fc5750604052565b60018492941516611a15573b15153d151616915f6119a3565b833d5f823e3d90fd5b92916040519163095ea7b360e01b5f5260018060a01b031660045260245260205f60448180875af19260015f51148416156119fc575060405256fea164736f6c634300081c000a",
	"gitCommit": "npm:@bananapus/project-payer-v6@0.0.21",
	"gitDirty": false,
	"history": []
}