{
	"format": "sphinx-sol-ct-artifact-1",
	"address": "0x129fc28f9beb5deb3ec4ef65dcdce5dd2185dde5",
	"sourceName": "node_modules/@bananapus/suckers-v6/src/libraries/JBSuckerLib.sol",
	"contractName": "JBSuckerLib",
	"chainId": "0x14a34",
	"abi": [
		{
			"type": "function",
			"name": "buildAccountingSnapshot",
			"inputs": [
				{
					"name": "directory",
					"type": "IJBDirectory",
					"internalType": "contract IJBDirectory"
				},
				{
					"name": "projectId",
					"type": "uint256",
					"internalType": "uint256"
				},
				{
					"name": "messageVersion",
					"type": "uint8",
					"internalType": "uint8"
				},
				{
					"name": "sourceTimestamp",
					"type": "uint256",
					"internalType": "uint256"
				}
			],
			"outputs": [
				{
					"name": "snapshot",
					"type": "tuple",
					"internalType": "struct JBAccountingSnapshot",
					"components": [
						{
							"name": "version",
							"type": "uint8",
							"internalType": "uint8"
						},
						{
							"name": "sourceTotalSupply",
							"type": "uint256",
							"internalType": "uint256"
						},
						{
							"name": "sourceContexts",
							"type": "tuple[]",
							"internalType": "struct JBSourceContext[]",
							"components": [
								{
									"name": "token",
									"type": "bytes32",
									"internalType": "bytes32"
								},
								{
									"name": "decimals",
									"type": "uint8",
									"internalType": "uint8"
								},
								{
									"name": "surplus",
									"type": "uint128",
									"internalType": "uint128"
								},
								{
									"name": "balance",
									"type": "uint128",
									"internalType": "uint128"
								}
							]
						},
						{
							"name": "sourceTimestamp",
							"type": "uint256",
							"internalType": "uint256"
						}
					]
				}
			],
			"stateMutability": "view"
		},
		{
			"type": "function",
			"name": "buildSnapshotMessage",
			"inputs": [
				{
					"name": "directory",
					"type": "IJBDirectory",
					"internalType": "contract IJBDirectory"
				},
				{
					"name": "projectId",
					"type": "uint256",
					"internalType": "uint256"
				},
				{
					"name": "remoteToken",
					"type": "bytes32",
					"internalType": "bytes32"
				},
				{
					"name": "amount",
					"type": "uint256",
					"internalType": "uint256"
				},
				{
					"name": "nonce",
					"type": "uint64",
					"internalType": "uint64"
				},
				{
					"name": "root",
					"type": "bytes32",
					"internalType": "bytes32"
				},
				{
					"name": "messageVersion",
					"type": "uint8",
					"internalType": "uint8"
				},
				{
					"name": "sourceTimestamp",
					"type": "uint256",
					"internalType": "uint256"
				}
			],
			"outputs": [
				{
					"name": "message",
					"type": "tuple",
					"internalType": "struct JBMessageRoot",
					"components": [
						{
							"name": "version",
							"type": "uint8",
							"internalType": "uint8"
						},
						{
							"name": "token",
							"type": "bytes32",
							"internalType": "bytes32"
						},
						{
							"name": "amount",
							"type": "uint256",
							"internalType": "uint256"
						},
						{
							"name": "remoteRoot",
							"type": "tuple",
							"internalType": "struct JBInboxTreeRoot",
							"components": [
								{
									"name": "nonce",
									"type": "uint64",
									"internalType": "uint64"
								},
								{
									"name": "root",
									"type": "bytes32",
									"internalType": "bytes32"
								}
							]
						},
						{
							"name": "sourceTotalSupply",
							"type": "uint256",
							"internalType": "uint256"
						},
						{
							"name": "sourceContexts",
							"type": "tuple[]",
							"internalType": "struct JBSourceContext[]",
							"components": [
								{
									"name": "token",
									"type": "bytes32",
									"internalType": "bytes32"
								},
								{
									"name": "decimals",
									"type": "uint8",
									"internalType": "uint8"
								},
								{
									"name": "surplus",
									"type": "uint128",
									"internalType": "uint128"
								},
								{
									"name": "balance",
									"type": "uint128",
									"internalType": "uint128"
								}
							]
						},
						{
							"name": "sourceTimestamp",
							"type": "uint256",
							"internalType": "uint256"
						}
					]
				}
			],
			"stateMutability": "view"
		},
		{
			"type": "function",
			"name": "computeBranchRoot",
			"inputs": [
				{
					"name": "item",
					"type": "bytes32",
					"internalType": "bytes32"
				},
				{
					"name": "branch",
					"type": "bytes32[32]",
					"internalType": "bytes32[32]"
				},
				{
					"name": "index",
					"type": "uint256",
					"internalType": "uint256"
				}
			],
			"outputs": [
				{
					"name": "",
					"type": "bytes32",
					"internalType": "bytes32"
				}
			],
			"stateMutability": "pure"
		},
		{
			"type": "function",
			"name": "computeTreeRoot",
			"inputs": [
				{
					"name": "branch",
					"type": "bytes32[32]",
					"internalType": "bytes32[32]"
				},
				{
					"name": "count",
					"type": "uint256",
					"internalType": "uint256"
				}
			],
			"outputs": [
				{
					"name": "current",
					"type": "bytes32",
					"internalType": "bytes32"
				}
			],
			"stateMutability": "pure"
		}
	],
	"args": [],
	"solcInputHash": "2f7326404067e3461dbd7682ea6f641e",
	"bytecode": "0x611caa610034600b8282823980515f1a607314602857634e487b7160e01b5f525f60045260245ffd5b305f52607381538281f3fe7300000000000000000000000000000000000000003014608060405260043610610055575f3560e01c80634a490c2514610059578063726a4a811461007f5780637fbe4d501461009f578063c60a0b82146103fa575b5f5ffd5b61006c61006736600461143f565b61041a565b6040519081526020015b60405180910390f35b61009261008d36600461148f565b610512565b6040516100769190611549565b61006c6100ad366004611591565b6020600582811b821694855283519482039490945260405f8181206002851615871b808503919091528584015190528181206004851615871b808503919091528286015190528181206008851615871b80850391909152606086015190528181206010851615871b8085039190915260808087015190915282822084861615881b8086039190915260a0870151905282822083861615881b8086039190915260c0870151905282822090851615871b8085039190915260e0860151905281812061010080861615881b80860392909252860151905281812061020080861615881b80860392909252610120870151909152828220610400861615881b808603919091526101408701519052828220610800861615881b808603919091526101608701519052828220611000861615881b808603919091526101808701519052828220612000861615881b808603919091526101a08701519052828220614000861615881b808603919091526101c08701519052828220618000861615881b808603919091526101e0870151905282822062010000861615881b8086039190915290860151905281812062020000851615871b80850391909152610220860151905281812062040000851615871b80850391909152610240860151905281812062080000851615871b80850391909152610260860151905281812062100000851615871b80850391909152610280860151905281812062200000851615871b808503919091526102a0860151905281812062400000851615871b808503919091526102c0860151905281812062800000851615871b808503919091526102e086015190528181206301000000851615871b8085039190915261030086015190528181206302000000851615871b8085039190915261032086015190528181206304000000851615871b8085039190915261034086015190528181206308000000851615871b8085039190915261036086015190528181206310000000851615871b8085039190915261038086015190528181206320000000851615871b808503919091526103a086015190528181206340000000851615871b808503919091526103c0860151905281812063800000009094161590951b91829003929092526103e090920151909152902090565b61040d6104083660046115c7565b610574565b6040516100769190611649565b5f815f0361044957507f27ae5ba08d7291c96c8cbddcc148bf48a6d68c7974b94356f53754ef6171d75761050c565b60405161042081016040525f81525f5b602081101561048a5760208102820151805f52806020525060405f2060206001830102830152600181019050610459565b505f5f5b6020811015610508578180156104d6576001821b861680156104bc57602083028801515f52856020526104ca565b855f52602083028501516020525b5060405f2094506104ff565b6001821b8616156104ff57602082028701515f526020820284015160205260405f209450600192505b5060010161048e565b5050505b92915050565b61053d60405180608001604052805f60ff1681526020015f8152602001606081526020015f81525090565b5f5f610549878761062c565b6040805160808101825260ff9098168852602088019290925290860152505050606082015292915050565b6105c06040805160e0810182525f8082526020808301829052828401829052835180850190945281845283015290606082019081526020015f8152602001606081526020015f81525090565b5f5f6105cc8b8b61062c565b6040805160e08101825260ff909816885260208089019c909c528781019a909a528951808b01909a526001600160401b039098168952988801959095525050606082019490945260808101949094525060a083015260c082015292915050565b5f60605f61063a858561080c565b90506001600160a01b038116156106b457604051634da781a960e01b8152600481018590526001600160a01b03821690634da781a990602401602060405180830381865afa9250505080156106ac575060408051601f3d908101601f191682019092526106a9918101906116c8565b60015b156106b45792505b5f60606001600160a01b038316158015906106d857506001600160a01b0383163b15155b156106f9576106e7838761090a565b90925090506106f682866116f3565b94505b5f5f61070789898551610b74565b915091505f5b83518110156107615783818151811061072857610728611706565b602002602001015183838061073c9061171a565b94508151811061074e5761074e611706565b602090810291909101015260010161070d565b50806001600160401b0381111561077a5761077a611321565b6040519080825280602002602001820160405280156107b357816020015b6107a06112fb565b8152602001906001900390816107985790505b5095505f5b818110156107ff578281815181106107d2576107d2611706565b60200260200101518782815181106107ec576107ec611706565b60209081029190910101526001016107b8565b5050505050509250929050565b604051632eec7b5560e11b8152600481018290525f906001600160a01b03841690635dd8f6aa90602401602060405180830381865afa92505050801561086f575060408051601f3d908101601f1916820190925261086c91810190611732565b60015b1561050c576001600160a01b03811661088b575f91505061050c565b6040516301ffc9a760e01b8152630756feb760e51b60048201526001600160a01b038216906301ffc9a790602401602060405180830381865afa9250505080156108f2575060408051601f3d908101601f191682019092526108ef91810190611768565b60015b15610903578015610901578192505b505b5092915050565b5f60605f5f856001600160a01b03168560405160240161092c91815260200190565b60408051601f198184030181529181526020820180516001600160e01b03166320c94b1360e11b179052516109619190611781565b5f60405180830381855afa9150503d805f8114610999576040519150601f19603f3d011682016040523d82523d5f602084013e61099e565b606091505b50915091508115806109b257506103808151105b156109f357604080515f80825260208201909252816109e7565b6109d46112fb565b8152602001906001900390816109cc5790505b50935093505050610b6d565b5f81806020019051810190610a08919061196c565b5090505f610a1b82610100015160521c90565b90506001600160a01b0381161580610a3b57506001600160a01b0381163b155b15610a7e57604080515f8082526020820190925281610a70565b610a5d6112fb565b815260200190600190039081610a555790505b509550955050505050610b6d565b5f5f826001600160a01b031689604051602401610a9d91815260200190565b60408051601f198184030181529181526020820180516001600160e01b031663b64ce2c360e01b17905251610ad29190611781565b5f60405180830381855afa9150503d805f8114610b0a576040519150601f19603f3d011682016040523d82523d5f602084013e610b0f565b606091505b509150915081610b5957604080515f8082526020820190925281610b49565b610b366112fb565b815260200190600190039081610b2e5790505b5097509750505050505050610b6d565b610b6281610e0d565b975097505050505050505b9250929050565b60605f5f856001600160a01b031663d1754153866040518263ffffffff1660e01b8152600401610ba691815260200190565b5f60405180830381865afa158015610bc0573d5f5f3e3d5ffd5b505050506040513d5f823e601f3d908101601f19168201604052610be79190810190611a5e565b8051909150845f5b82811015610c9757838181518110610c0957610c09611706565b60200260200101516001600160a01b031663515a9293896040518263ffffffff1660e01b8152600401610c3e91815260200190565b5f60405180830381865afa925050508015610c7a57506040513d5f823e601f3d908101601f19168201604052610c779190810190611afc565b60015b15610c8f578051610c8b90846116f3565b9250505b600101610bef565b50806001600160401b03811115610cb057610cb0611321565b604051908082528060200260200182016040528015610ce957816020015b610cd66112fb565b815260200190600190039081610cce5790505b5094505f5b82811015610e0157838181518110610d0857610d08611706565b60200260200101516001600160a01b031663515a9293896040518263ffffffff1660e01b8152600401610d3d91815260200190565b5f60405180830381865afa925050508015610d7957506040513d5f823e601f3d908101601f19168201604052610d769190810190611afc565b60015b15610df9575f5b8151811015610df657610dc6868481518110610d9e57610d9e611706565b60200260200101518b848481518110610db957610db9611706565b60200260200101516110c4565b8888610dd18161171a565b995081518110610de357610de3611706565b6020908102919091010152600101610d80565b50505b600101610cee565b50505050935093915050565b5f60608083511015610e5357604080515f8082526020820190925281610e49565b610e366112fb565b815260200190600190039081610e2e5790505b5091509150915091565b6020830151604080850151919350811080610e775750610e74602082611bdf565b15155b80610e8e575060208451610e8b9190611bf2565b81115b15610ece57604080515f8082526020820190925281610ec3565b610eb06112fb565b815260200190600190039081610ea85790505b509250925050915091565b5f8160208601015190505f826020610ee691906116f3565b90506080818751610ef79190611bf2565b610f019190611c05565b821115610f4557604080515f8082526020820190925281610f38565b610f256112fb565b815260200190600190039081610f1d5790505b5094509450505050915091565b816001600160401b03811115610f5d57610f5d611321565b604051908082528060200260200182016040528015610f9657816020015b610f836112fb565b815260200190600190039081610f7b5790505b5093505f5b828110156110bb575f610faf826080611c18565b610fb990846116f3565b888101602081015160408201516060830151608090930151939450909290919060ff831180610fee57506001600160801b0382115b80610fff57506001600160801b0381115b1561104757604080515f8082526020820190925281611034565b6110216112fb565b8152602001906001900390816110195790505b509a509a50505050505050505050915091565b5f8390505f8390505f83905060405180608001604052808881526020018460ff168152602001836001600160801b03168152602001826001600160801b03168152508d8a8151811061109b5761109b611706565b602002602001018190525050505050505050508080600101915050610f9b565b50505050915091565b6110cc6112fb565b6040805160018082528183019092525f9160208083019080368337019050509050825f0151815f8151811061110357611103611706565b60200260200101906001600160a01b031690816001600160a01b0316815250505f856001600160a01b031663b5c104f38684876020015188604001516040518563ffffffff1660e01b815260040161115e9493929190611c2f565b602060405180830381865afa925050508015611197575060408051601f3d908101601f19168201909252611194918101906116c8565b60015b1561119f5790505b5f866001600160a01b031663507f14656040518163ffffffff1660e01b8152600401602060405180830381865afa1580156111dc573d5f5f3e3d5ffd5b505050506040513d601f19601f820116820180604052508101906112009190611732565b855160405163467f4cb960e01b81526001600160a01b038a81166004830152602482018a9052918216604482015291169063467f4cb990606401602060405180830381865afa925050508015611273575060408051601f3d908101601f19168201909252611270918101906116c8565b60015b1561127b5790505b6040805160808101825286516001600160a01b0316815260208088015160ff16908201529081016112ab846112d8565b6001600160801b031681526020016112c2836112d8565b6001600160801b03169052979650505050505050565b5f6001600160801b0382116112ed578161050c565b6001600160801b0392915050565b604080516080810182525f80825260208201819052918101829052606081019190915290565b634e487b7160e01b5f52604160045260245ffd5b60405161026081016001600160401b038111828210171561135857611358611321565b60405290565b60405161012081016001600160401b038111828210171561135857611358611321565b604051606081016001600160401b038111828210171561135857611358611321565b604051601f8201601f191681016001600160401b03811182821017156113cb576113cb611321565b604052919050565b5f82601f8301126113e2575f5ffd5b60405161040081016001600160401b038111828210171561140557611405611321565b6040528061040084018581111561141a575f5ffd5b845b8181101561143457803583526020928301920161141c565b509195945050505050565b5f5f6104208385031215611451575f5ffd5b61145b84846113d3565b94610400939093013593505050565b6001600160a01b038116811461147e575f5ffd5b50565b60ff8116811461147e575f5ffd5b5f5f5f5f608085870312156114a2575f5ffd5b84356114ad8161146a565b93506020850135925060408501356114c481611481565b9396929550929360600135925050565b5f8151808452602084019350602083015f5b8281101561153f5781518051875260ff60208201511660208801526001600160801b0360408201511660408801526001600160801b036060820151166060880152506080860195506020820191506001810190506114e6565b5093949350505050565b6020815260ff8251166020820152602082015160408201525f60408301516080606084015261157b60a08401826114d4565b9050606084015160808401528091505092915050565b5f5f5f61044084860312156115a4575f5ffd5b833592506115b585602086016113d3565b92959294505050610420919091013590565b5f5f5f5f5f5f5f5f610100898b0312156115df575f5ffd5b88356115ea8161146a565b975060208901359650604089013595506060890135945060808901356001600160401b038116811461161a575f5ffd5b935060a0890135925060c089013561163181611481565b979a969950949793969295919450919260e001359150565b6020815260ff825116602082015260208201516040820152604082015160608201525f60608301516001600160401b038151166080840152602081015160a084015250608083015160c083015260a083015161010060e08401526116b16101208401826114d4565b905060c08401516101008401528091505092915050565b5f602082840312156116d8575f5ffd5b5051919050565b634e487b7160e01b5f52601160045260245ffd5b8082018082111561050c5761050c6116df565b634e487b7160e01b5f52603260045260245ffd5b5f6001820161172b5761172b6116df565b5060010190565b5f60208284031215611742575f5ffd5b815161174d8161146a565b9392505050565b80518015158114611763575f5ffd5b919050565b5f60208284031215611778575f5ffd5b61174d82611754565b5f82518060208501845e5f920191825250919050565b805165ffffffffffff81168114611763575f5ffd5b805163ffffffff81168114611763575f5ffd5b80516dffffffffffffffffffffffffffff81168114611763575f5ffd5b80516117638161146a565b805161ffff81168114611763575f5ffd5b5f6102608284031215611809575f5ffd5b611811611335565b905061181c826117e7565b815261182a602083016117e7565b602082015261183b604083016117ac565b604082015261184c60608301611754565b606082015261185d60808301611754565b608082015261186e60a08301611754565b60a082015261187f60c08301611754565b60c082015261189060e08301611754565b60e08201526118a26101008301611754565b6101008201526118b56101208301611754565b6101208201526118c86101408301611754565b6101408201526118db6101608301611754565b6101608201526118ee6101808301611754565b6101808201526119016101a08301611754565b6101a08201526119146101c08301611754565b6101c08201526119276101e08301611754565b6101e082015261193a6102008301611754565b61020082015261194d61022083016117dc565b61022082015261196061024083016117e7565b61024082015292915050565b5f5f82840361038081121561197f575f5ffd5b61012081121561198d575f5ffd5b5061199661135e565b61199f84611797565b81526119ad60208501611797565b60208201526119be60408501611797565b60408201526119cf60608501611797565b60608201526119e0608085016117ac565b60808201526119f160a085016117bf565b60a0820152611a0260c085016117ac565b60c0820152611a1360e085016117dc565b60e082015261010084810151908201529150611a338461012085016117f8565b90509250929050565b5f6001600160401b03821115611a5457611a54611321565b5060051b60200190565b5f60208284031215611a6e575f5ffd5b81516001600160401b03811115611a83575f5ffd5b8201601f81018413611a93575f5ffd5b8051611aa6611aa182611a3c565b6113a3565b8082825260208201915060208360051b850101925086831115611ac7575f5ffd5b6020840193505b82841015611af2578351611ae18161146a565b825260209384019390910190611ace565b9695505050505050565b5f60208284031215611b0c575f5ffd5b81516001600160401b03811115611b21575f5ffd5b8201601f81018413611b31575f5ffd5b8051611b3f611aa182611a3c565b80828252602082019150602060608402850101925086831115611b60575f5ffd5b6020840193505b82841015611af25760608488031215611b7e575f5ffd5b611b86611381565b8451611b918161146a565b81526020850151611ba181611481565b6020820152611bb2604086016117ac565b6040820152825260609390930192602090910190611b67565b634e487b7160e01b5f52601260045260245ffd5b5f82611bed57611bed611bcb565b500690565b8181038181111561050c5761050c6116df565b5f82611c1357611c13611bcb565b500490565b808202811582820484141761050c5761050c6116df565b5f608082018683526080602084015280865180835260a0850191506020880192505f5b81811015611c795783516001600160a01b0316835260209384019390920191600101611c52565b505060ff959095166040840152505063ffffffff919091166060909101529291505056fea164736f6c634300081c000a",
	"gitCommit": "npm:@bananapus/suckers-v6@0.0.78",
	"gitDirty": false,
	"history": []
}