{
	"format": "sphinx-sol-ct-artifact-1",
	"address": "0x1f80d8f057ee36b4c2656d107e4e4558b71ba7d9",
	"sourceName": "node_modules/@bananapus/core-v6/src/JBTokens.sol",
	"contractName": "JBTokens",
	"chainId": "0x14a34",
	"abi": [
		{
			"type": "constructor",
			"inputs": [
				{
					"name": "directory",
					"type": "address",
					"internalType": "contract IJBDirectory"
				},
				{
					"name": "token",
					"type": "address",
					"internalType": "contract IJBToken"
				}
			],
			"stateMutability": "nonpayable"
		},
		{
			"type": "function",
			"name": "DIRECTORY",
			"inputs": [],
			"outputs": [
				{
					"name": "",
					"type": "address",
					"internalType": "contract IJBDirectory"
				}
			],
			"stateMutability": "view"
		},
		{
			"type": "function",
			"name": "TOKEN",
			"inputs": [],
			"outputs": [
				{
					"name": "",
					"type": "address",
					"internalType": "contract IJBToken"
				}
			],
			"stateMutability": "view"
		},
		{
			"type": "function",
			"name": "burnFrom",
			"inputs": [
				{
					"name": "holder",
					"type": "address",
					"internalType": "address"
				},
				{
					"name": "projectId",
					"type": "uint256",
					"internalType": "uint256"
				},
				{
					"name": "count",
					"type": "uint256",
					"internalType": "uint256"
				}
			],
			"outputs": [],
			"stateMutability": "nonpayable"
		},
		{
			"type": "function",
			"name": "claimTokensFor",
			"inputs": [
				{
					"name": "holder",
					"type": "address",
					"internalType": "address"
				},
				{
					"name": "projectId",
					"type": "uint256",
					"internalType": "uint256"
				},
				{
					"name": "count",
					"type": "uint256",
					"internalType": "uint256"
				},
				{
					"name": "beneficiary",
					"type": "address",
					"internalType": "address"
				}
			],
			"outputs": [],
			"stateMutability": "nonpayable"
		},
		{
			"type": "function",
			"name": "creditBalanceOf",
			"inputs": [
				{
					"name": "holder",
					"type": "address",
					"internalType": "address"
				},
				{
					"name": "projectId",
					"type": "uint256",
					"internalType": "uint256"
				}
			],
			"outputs": [
				{
					"name": "",
					"type": "uint256",
					"internalType": "uint256"
				}
			],
			"stateMutability": "view"
		},
		{
			"type": "function",
			"name": "deployERC20For",
			"inputs": [
				{
					"name": "projectId",
					"type": "uint256",
					"internalType": "uint256"
				},
				{
					"name": "name",
					"type": "string",
					"internalType": "string"
				},
				{
					"name": "symbol",
					"type": "string",
					"internalType": "string"
				},
				{
					"name": "salt",
					"type": "bytes32",
					"internalType": "bytes32"
				}
			],
			"outputs": [
				{
					"name": "token",
					"type": "address",
					"internalType": "contract IJBToken"
				}
			],
			"stateMutability": "nonpayable"
		},
		{
			"type": "function",
			"name": "mintFor",
			"inputs": [
				{
					"name": "holder",
					"type": "address",
					"internalType": "address"
				},
				{
					"name": "projectId",
					"type": "uint256",
					"internalType": "uint256"
				},
				{
					"name": "count",
					"type": "uint256",
					"internalType": "uint256"
				}
			],
			"outputs": [
				{
					"name": "token",
					"type": "address",
					"internalType": "contract IJBToken"
				}
			],
			"stateMutability": "nonpayable"
		},
		{
			"type": "function",
			"name": "projectIdOf",
			"inputs": [
				{
					"name": "token",
					"type": "address",
					"internalType": "contract IJBToken"
				}
			],
			"outputs": [
				{
					"name": "",
					"type": "uint256",
					"internalType": "uint256"
				}
			],
			"stateMutability": "view"
		},
		{
			"type": "function",
			"name": "setTokenFor",
			"inputs": [
				{
					"name": "projectId",
					"type": "uint256",
					"internalType": "uint256"
				},
				{
					"name": "token",
					"type": "address",
					"internalType": "contract IJBToken"
				}
			],
			"outputs": [],
			"stateMutability": "nonpayable"
		},
		{
			"type": "function",
			"name": "setTokenMetadataFor",
			"inputs": [
				{
					"name": "projectId",
					"type": "uint256",
					"internalType": "uint256"
				},
				{
					"name": "name",
					"type": "string",
					"internalType": "string"
				},
				{
					"name": "symbol",
					"type": "string",
					"internalType": "string"
				}
			],
			"outputs": [],
			"stateMutability": "nonpayable"
		},
		{
			"type": "function",
			"name": "tokenOf",
			"inputs": [
				{
					"name": "projectId",
					"type": "uint256",
					"internalType": "uint256"
				}
			],
			"outputs": [
				{
					"name": "",
					"type": "address",
					"internalType": "contract IJBToken"
				}
			],
			"stateMutability": "view"
		},
		{
			"type": "function",
			"name": "totalBalanceOf",
			"inputs": [
				{
					"name": "holder",
					"type": "address",
					"internalType": "address"
				},
				{
					"name": "projectId",
					"type": "uint256",
					"internalType": "uint256"
				}
			],
			"outputs": [
				{
					"name": "balance",
					"type": "uint256",
					"internalType": "uint256"
				}
			],
			"stateMutability": "view"
		},
		{
			"type": "function",
			"name": "totalCreditSupplyOf",
			"inputs": [
				{
					"name": "projectId",
					"type": "uint256",
					"internalType": "uint256"
				}
			],
			"outputs": [
				{
					"name": "",
					"type": "uint256",
					"internalType": "uint256"
				}
			],
			"stateMutability": "view"
		},
		{
			"type": "function",
			"name": "totalSupplyOf",
			"inputs": [
				{
					"name": "projectId",
					"type": "uint256",
					"internalType": "uint256"
				}
			],
			"outputs": [
				{
					"name": "totalSupply",
					"type": "uint256",
					"internalType": "uint256"
				}
			],
			"stateMutability": "view"
		},
		{
			"type": "function",
			"name": "transferCreditsFrom",
			"inputs": [
				{
					"name": "holder",
					"type": "address",
					"internalType": "address"
				},
				{
					"name": "projectId",
					"type": "uint256",
					"internalType": "uint256"
				},
				{
					"name": "recipient",
					"type": "address",
					"internalType": "address"
				},
				{
					"name": "count",
					"type": "uint256",
					"internalType": "uint256"
				}
			],
			"outputs": [],
			"stateMutability": "nonpayable"
		},
		{
			"type": "event",
			"name": "Burn",
			"inputs": [
				{
					"name": "holder",
					"type": "address",
					"indexed": true,
					"internalType": "address"
				},
				{
					"name": "projectId",
					"type": "uint256",
					"indexed": true,
					"internalType": "uint256"
				},
				{
					"name": "count",
					"type": "uint256",
					"indexed": false,
					"internalType": "uint256"
				},
				{
					"name": "creditBalance",
					"type": "uint256",
					"indexed": false,
					"internalType": "uint256"
				},
				{
					"name": "tokenBalance",
					"type": "uint256",
					"indexed": false,
					"internalType": "uint256"
				},
				{
					"name": "caller",
					"type": "address",
					"indexed": false,
					"internalType": "address"
				}
			],
			"anonymous": false
		},
		{
			"type": "event",
			"name": "ClaimTokens",
			"inputs": [
				{
					"name": "holder",
					"type": "address",
					"indexed": true,
					"internalType": "address"
				},
				{
					"name": "projectId",
					"type": "uint256",
					"indexed": true,
					"internalType": "uint256"
				},
				{
					"name": "creditBalance",
					"type": "uint256",
					"indexed": false,
					"internalType": "uint256"
				},
				{
					"name": "count",
					"type": "uint256",
					"indexed": false,
					"internalType": "uint256"
				},
				{
					"name": "beneficiary",
					"type": "address",
					"indexed": false,
					"internalType": "address"
				},
				{
					"name": "caller",
					"type": "address",
					"indexed": false,
					"internalType": "address"
				}
			],
			"anonymous": false
		},
		{
			"type": "event",
			"name": "DeployERC20",
			"inputs": [
				{
					"name": "projectId",
					"type": "uint256",
					"indexed": true,
					"internalType": "uint256"
				},
				{
					"name": "token",
					"type": "address",
					"indexed": true,
					"internalType": "contract IJBToken"
				},
				{
					"name": "name",
					"type": "string",
					"indexed": false,
					"internalType": "string"
				},
				{
					"name": "symbol",
					"type": "string",
					"indexed": false,
					"internalType": "string"
				},
				{
					"name": "salt",
					"type": "bytes32",
					"indexed": false,
					"internalType": "bytes32"
				},
				{
					"name": "caller",
					"type": "address",
					"indexed": false,
					"internalType": "address"
				}
			],
			"anonymous": false
		},
		{
			"type": "event",
			"name": "Mint",
			"inputs": [
				{
					"name": "holder",
					"type": "address",
					"indexed": true,
					"internalType": "address"
				},
				{
					"name": "projectId",
					"type": "uint256",
					"indexed": true,
					"internalType": "uint256"
				},
				{
					"name": "count",
					"type": "uint256",
					"indexed": false,
					"internalType": "uint256"
				},
				{
					"name": "tokensWereClaimed",
					"type": "bool",
					"indexed": false,
					"internalType": "bool"
				},
				{
					"name": "caller",
					"type": "address",
					"indexed": false,
					"internalType": "address"
				}
			],
			"anonymous": false
		},
		{
			"type": "event",
			"name": "SetToken",
			"inputs": [
				{
					"name": "projectId",
					"type": "uint256",
					"indexed": true,
					"internalType": "uint256"
				},
				{
					"name": "token",
					"type": "address",
					"indexed": true,
					"internalType": "contract IJBToken"
				},
				{
					"name": "caller",
					"type": "address",
					"indexed": false,
					"internalType": "address"
				}
			],
			"anonymous": false
		},
		{
			"type": "event",
			"name": "SetTokenMetadata",
			"inputs": [
				{
					"name": "projectId",
					"type": "uint256",
					"indexed": true,
					"internalType": "uint256"
				},
				{
					"name": "name",
					"type": "string",
					"indexed": false,
					"internalType": "string"
				},
				{
					"name": "symbol",
					"type": "string",
					"indexed": false,
					"internalType": "string"
				},
				{
					"name": "caller",
					"type": "address",
					"indexed": false,
					"internalType": "address"
				}
			],
			"anonymous": false
		},
		{
			"type": "event",
			"name": "TransferCredits",
			"inputs": [
				{
					"name": "holder",
					"type": "address",
					"indexed": true,
					"internalType": "address"
				},
				{
					"name": "projectId",
					"type": "uint256",
					"indexed": true,
					"internalType": "uint256"
				},
				{
					"name": "recipient",
					"type": "address",
					"indexed": true,
					"internalType": "address"
				},
				{
					"name": "count",
					"type": "uint256",
					"indexed": false,
					"internalType": "uint256"
				},
				{
					"name": "caller",
					"type": "address",
					"indexed": false,
					"internalType": "address"
				}
			],
			"anonymous": false
		},
		{
			"type": "error",
			"name": "FailedDeployment",
			"inputs": []
		},
		{
			"type": "error",
			"name": "InsufficientBalance",
			"inputs": [
				{
					"name": "balance",
					"type": "uint256",
					"internalType": "uint256"
				},
				{
					"name": "needed",
					"type": "uint256",
					"internalType": "uint256"
				}
			]
		},
		{
			"type": "error",
			"name": "JBControlled_ControllerUnauthorized",
			"inputs": [
				{
					"name": "controller",
					"type": "address",
					"internalType": "address"
				}
			]
		},
		{
			"type": "error",
			"name": "JBTokens_EmptyName",
			"inputs": [
				{
					"name": "projectId",
					"type": "uint256",
					"internalType": "uint256"
				}
			]
		},
		{
			"type": "error",
			"name": "JBTokens_EmptySymbol",
			"inputs": [
				{
					"name": "projectId",
					"type": "uint256",
					"internalType": "uint256"
				}
			]
		},
		{
			"type": "error",
			"name": "JBTokens_EmptyToken",
			"inputs": [
				{
					"name": "projectId",
					"type": "uint256",
					"internalType": "uint256"
				}
			]
		},
		{
			"type": "error",
			"name": "JBTokens_InsufficientCredits",
			"inputs": [
				{
					"name": "count",
					"type": "uint256",
					"internalType": "uint256"
				},
				{
					"name": "creditBalance",
					"type": "uint256",
					"internalType": "uint256"
				}
			]
		},
		{
			"type": "error",
			"name": "JBTokens_InsufficientTokensToBurn",
			"inputs": [
				{
					"name": "count",
					"type": "uint256",
					"internalType": "uint256"
				},
				{
					"name": "tokenBalance",
					"type": "uint256",
					"internalType": "uint256"
				}
			]
		},
		{
			"type": "error",
			"name": "JBTokens_OverflowAlert",
			"inputs": [
				{
					"name": "value",
					"type": "uint256",
					"internalType": "uint256"
				},
				{
					"name": "limit",
					"type": "uint256",
					"internalType": "uint256"
				}
			]
		},
		{
			"type": "error",
			"name": "JBTokens_ProjectAlreadyHasToken",
			"inputs": [
				{
					"name": "token",
					"type": "address",
					"internalType": "contract IJBToken"
				}
			]
		},
		{
			"type": "error",
			"name": "JBTokens_TokenAlreadyBeingUsed",
			"inputs": [
				{
					"name": "projectId",
					"type": "uint256",
					"internalType": "uint256"
				}
			]
		},
		{
			"type": "error",
			"name": "JBTokens_TokenCantBeAdded",
			"inputs": [
				{
					"name": "projectId",
					"type": "uint256",
					"internalType": "uint256"
				}
			]
		},
		{
			"type": "error",
			"name": "JBTokens_TokenNotFound",
			"inputs": [
				{
					"name": "projectId",
					"type": "uint256",
					"internalType": "uint256"
				}
			]
		},
		{
			"type": "error",
			"name": "JBTokens_TokensMustHave18Decimals",
			"inputs": [
				{
					"name": "decimals",
					"type": "uint256",
					"internalType": "uint256"
				}
			]
		}
	],
	"args": [
		"0x5AfF29060E023e6FB87BE5596652B33c65Af535B",
		"0x6DB9Cf17222D8DE2012Fe13B9FA5bB7981fa0b17"
	],
	"solcInputHash": "501a3a7125f849fcf84d71f1eccb91b7",
	"bytecode": "0x60c060405234801561000f575f5ffd5b5060405161172038038061172083398101604081905261002e9161005c565b6001600160a01b039182166080521660a052610094565b6001600160a01b0381168114610059575f5ffd5b50565b5f5f6040838503121561006d575f5ffd5b825161007881610045565b602084015190925061008981610045565b809150509250929050565b60805160a0516116566100ca5f395f81816101b001528181610724015261076c01525f81816101ea015261102101526116565ff3fe608060405234801561000f575f5ffd5b50600436106100f0575f3560e01c8063878003b811610093578063b1e6d2a111610063578063b1e6d2a114610232578063c6c116bd14610245578063ea78803f1461026c578063f12b64a514610294575f5ffd5b8063878003b8146101d257806388bc2ef3146101e5578063995922ed1461020c578063aab68bdb1461021f575f5ffd5b806358178191116100ce578063581781911461014e57806366d542161461017957806375b0d9cd1461019857806382bfefc8146101ab575f5ffd5b80630f85421b146100f4578063124d91e514610126578063303f5dfa1461013b575b5f5ffd5b610113610102366004611233565b60016020525f908152604090205481565b6040519081526020015b60405180910390f35b61013961013436600461124e565b6102a7565b005b610139610149366004611280565b6104f4565b61016161015c36600461130c565b610665565b6040516001600160a01b03909116815260200161011d565b61011361018736600461138d565b60036020525f908152604090205481565b6101136101a636600461138d565b61087e565b6101617f000000000000000000000000000000000000000000000000000000000000000081565b6101136101e03660046113a4565b61091a565b6101617f000000000000000000000000000000000000000000000000000000000000000081565b61013961021a3660046113ce565b6109ca565b61016161022d36600461124e565b610ac6565b610139610240366004611447565b610c5c565b6101136102533660046113a4565b5f60208181529281526040808220909352908152205481565b61016161027a36600461138d565b60026020525f90815260409020546001600160a01b031681565b6101396102a236600461148c565b610d52565b816102b181611009565b5f838152600260209081526040808320546001600160a01b038881168552848452828520888652909352908320549116918215610355576040516370a0823160e01b81526001600160a01b0388811660048301528416906370a0823190602401602060405180830381865afa15801561032c573d5f5f3e3d5ffd5b505050506040513d601f19601f8201168201806040525081019061035091906114ba565b610357565b5f5b905061036382826114e5565b85111561039c578461037583836114e5565b6040516305dc356160e51b8152600481019290925260248201526044015b60405180910390fd5b5f81156103b7578583106103b0575f6103b4565b8286035b90505b808603868214610431576001600160a01b0389165f908152602081815260408083208b84529091529020546103ed9082906114f8565b6001600160a01b038a165f908152602081815260408083208c84528252808320939093556003905220546104229082906114f8565b5f898152600360205260409020555b604080518881526020810186905290810184905233606082015288906001600160a01b038b16907fa6a919b3314fbbdb84c4a64d62f381f104d0c1747b789163262d2fcfeec292689060800160405180910390a381156104e957604051632770a7eb60e21b81526001600160a01b038a8116600483015260248201849052861690639dc29fac906044015f604051808303815f87803b1580156104d2575f5ffd5b505af11580156104e4573d5f5f3e3d5ffd5b505050505b505050505050505050565b826104fe81611009565b5f848152600260205260409020546001600160a01b0316806105365760405163053a111b60e41b815260048101869052602401610393565b6001600160a01b0386165f90815260208181526040808320888452909152902054808511156105825760405163914993a160e01b81526004810186905260248101829052604401610393565b6001600160a01b038781165f818152602081815260408083208b845282528083208a87039055600382529182902080548a9003905581518581529081018990529287169083015233606083015287917fde5600808a2321d39207ba773327f7a932a4b0b019107fb5a95618006cd0ff009060800160405180910390a36040516340c10f1960e01b81526001600160a01b038581166004830152602482018790528316906340c10f19906044015b5f604051808303815f87803b158015610646575f5ffd5b505af1158015610658573d5f5f3e3d5ffd5b5050505050505050505050565b5f8661067081611009565b5f86900361069457604051639334a45160e01b815260048101899052602401610393565b5f8490036106b85760405163fb489ce960e01b815260048101899052602401610393565b5f888152600260205260409020546001600160a01b031615610708575f88815260026020526040908190205490516378ed73ed60e11b81526001600160a01b039091166004820152602401610393565b82156107675760408051336020820152908101849052610762907f000000000000000000000000000000000000000000000000000000000000000090606001604051602081830303815290604052805190602001206110cc565b610790565b6107907f00000000000000000000000000000000000000000000000000000000000000006110e1565b5f89815260026020908152604080832080546001600160a01b0319166001600160a01b0386169081179091558084526001909252918290208b905590519193509089907fb4510654a5884cae50948507300dc482833ed1446cef375e064bef00b6b4ba4e9061080a908b908b908b908b908b903390611533565b60405180910390a36040516303bf912560e11b81526001600160a01b0383169063077f224a90610846908a908a908a908a90309060040161157d565b5f604051808303815f87803b15801561085d575f5ffd5b505af115801561086f573d5f5f3e3d5ffd5b50505050509695505050505050565b5f818152600360209081526040808320546002909252909120546001600160a01b0316801561091457806001600160a01b03166318160ddd6040518163ffffffff1660e01b8152600401602060405180830381865afa1580156108e3573d5f5f3e3d5ffd5b505050506040513d601f19601f8201168201806040525081019061090791906114ba565b61091190836114e5565b91505b50919050565b6001600160a01b038083165f9081526020818152604080832085845282528083205460029092529091205490911680156109c3576040516370a0823160e01b81526001600160a01b0385811660048301528216906370a0823190602401602060405180830381865afa158015610992573d5f5f3e3d5ffd5b505050506040513d601f19601f820116820180604052508101906109b691906114ba565b6109c090836114e5565b91505b5092915050565b846109d481611009565b5f868152600260205260409020546001600160a01b031680610a0c5760405163053a111b60e41b815260048101889052602401610393565b5f859003610a3057604051639334a45160e01b815260048101889052602401610393565b5f839003610a545760405163fb489ce960e01b815260048101889052602401610393565b867f951db4fd33e5a7c0c53756a534586c95bc9251c88085141f58125f82afc7c6968787878733604051610a8c95949392919061157d565b60405180910390a260405163051335b560e41b81526001600160a01b038216906351335b509061062f9089908990899089906004016115be565b5f82610ad181611009565b5f848152600260205260408120546001600160a01b0316925082151590610af78661087e565b90506001600160d01b03610b0b86836114e5565b1115610b4557610b1b85826114e5565b60405163a2f5932960e01b815260048101919091526001600160d01b036024820152604401610393565b8115610bad576040516340c10f1960e01b81526001600160a01b038881166004830152602482018790528516906340c10f19906044015f604051808303815f87803b158015610b92575f5ffd5b505af1158015610ba4573d5f5f3e3d5ffd5b50505050610c05565b6001600160a01b0387165f9081526020818152604080832089845290915281208054879290610bdd9084906114e5565b90915550505f8681526003602052604081208054879290610bff9084906114e5565b90915550505b6040805186815283151560208201523381830152905187916001600160a01b038a16917f0153be209252ccc3b70df14d55d2cc93fa5a74e263b163d9a1caf45152fd0e869181900360600190a35050509392505050565b82610c6681611009565b6001600160a01b0385165f9081526020818152604080832087845290915290205480831115610cb25760405163914993a160e01b81526004810184905260248101829052604401610393565b6001600160a01b038087165f9081526020818152604080832089845282528083208786039055928716825281815282822088835290529081208054859290610cfb9084906114e5565b9091555050604080518481523360208201526001600160a01b03808716928892918a16917f6d86dde1e9f07a2ad1e0f3e611b7bb8343d629126c5ca73f1a5951177d87143f910160405180910390a4505050505050565b81610d5c81611009565b6001600160a01b038216610d865760405163791158b560e11b815260048101849052602401610393565b5f838152600260205260409020546001600160a01b031615610dd6575f83815260026020526040908190205490516378ed73ed60e11b81526001600160a01b039091166004820152602401610393565b6001600160a01b0382165f9081526001602052604090205415610e29576001600160a01b0382165f908152600160205260409081902054905163487d5b8b60e11b81526004810191909152602401610393565b816001600160a01b031663313ce5676040518163ffffffff1660e01b8152600401602060405180830381865afa158015610e65573d5f5f3e3d5ffd5b505050506040513d601f19601f82011682018060405250810190610e8991906115ef565b60ff16601214610f1257816001600160a01b031663313ce5676040518163ffffffff1660e01b8152600401602060405180830381865afa158015610ecf573d5f5f3e3d5ffd5b505050506040513d601f19601f82011682018060405250810190610ef391906115ef565b604051630a51f6ff60e41b815260ff9091166004820152602401610393565b60405163372ff0f960e11b8152600481018490526001600160a01b03831690636e5fe1f290602401602060405180830381865afa158015610f55573d5f5f3e3d5ffd5b505050506040513d601f19601f82011682018060405250810190610f79919061160f565b610f99576040516305b5c3d160e31b815260048101849052602401610393565b5f83815260026020908152604080832080546001600160a01b0319166001600160a01b03871690811790915580845260018352928190208690555133815285917f768e177d7f9dac714049e6d43d9ac533cf0c6cc23cddcfe642bfd7a18bee3772910160405180910390a3505050565b604051632eec7b5560e11b8152600481018290525f907f00000000000000000000000000000000000000000000000000000000000000006001600160a01b031690635dd8f6aa90602401602060405180830381865afa15801561106e573d5f5f3e3d5ffd5b505050506040513d601f19601f82011682018060405250810190611092919061162e565b90506001600160a01b03811633146110c857604051639a007b3960e01b81526001600160a01b0382166004820152602401610393565b5050565b5f6110d883835f6110ec565b90505b92915050565b5f6110db825f611188565b5f814710156111175760405163cf47918160e01b815247600482015260248101839052604401610393565b763d602d80600a3d3981f3363d3d373d3d3d363d730000008460601b60e81c175f526e5af43d82803e903d91602b57fd5bf38460781b17602052826037600984f590506001600160a01b0381166111815760405163b06ebf3d60e01b815260040160405180910390fd5b9392505050565b5f814710156111b35760405163cf47918160e01b815247600482015260248101839052604401610393565b763d602d80600a3d3981f3363d3d373d3d3d363d730000008360601b60e81c175f526e5af43d82803e903d91602b57fd5bf38360781b176020526037600983f090506001600160a01b0381166110db5760405163b06ebf3d60e01b815260040160405180910390fd5b6001600160a01b0381168114611230575f5ffd5b50565b5f60208284031215611243575f5ffd5b81356111818161121c565b5f5f5f60608486031215611260575f5ffd5b833561126b8161121c565b95602085013595506040909401359392505050565b5f5f5f5f60808587031215611293575f5ffd5b843561129e8161121c565b9350602085013592506040850135915060608501356112bc8161121c565b939692955090935050565b5f5f83601f8401126112d7575f5ffd5b50813567ffffffffffffffff8111156112ee575f5ffd5b602083019150836020828501011115611305575f5ffd5b9250929050565b5f5f5f5f5f5f60808789031215611321575f5ffd5b86359550602087013567ffffffffffffffff81111561133e575f5ffd5b61134a89828a016112c7565b909650945050604087013567ffffffffffffffff811115611369575f5ffd5b61137589828a016112c7565b979a9699509497949695606090950135949350505050565b5f6020828403121561139d575f5ffd5b5035919050565b5f5f604083850312156113b5575f5ffd5b82356113c08161121c565b946020939093013593505050565b5f5f5f5f5f606086880312156113e2575f5ffd5b85359450602086013567ffffffffffffffff8111156113ff575f5ffd5b61140b888289016112c7565b909550935050604086013567ffffffffffffffff81111561142a575f5ffd5b611436888289016112c7565b969995985093965092949392505050565b5f5f5f5f6080858703121561145a575f5ffd5b84356114658161121c565b935060208501359250604085013561147c8161121c565b9396929550929360600135925050565b5f5f6040838503121561149d575f5ffd5b8235915060208301356114af8161121c565b809150509250929050565b5f602082840312156114ca575f5ffd5b5051919050565b634e487b7160e01b5f52601160045260245ffd5b808201808211156110db576110db6114d1565b818103818111156110db576110db6114d1565b81835281816020850137505f828201602090810191909152601f909101601f19169091010190565b608081525f61154660808301888a61150b565b828103602084015261155981878961150b565b604084019590955250506001600160a01b0391909116606090910152949350505050565b606081525f61159060608301878961150b565b82810360208401526115a381868861150b565b91505060018060a01b03831660408301529695505050505050565b604081525f6115d160408301868861150b565b82810360208401526115e481858761150b565b979650505050505050565b5f602082840312156115ff575f5ffd5b815160ff81168114611181575f5ffd5b5f6020828403121561161f575f5ffd5b81518015158114611181575f5ffd5b5f6020828403121561163e575f5ffd5b81516111818161121c56fea164736f6c634300081c000a",
	"gitCommit": "npm:@bananapus/core-v6@1.0.2",
	"gitDirty": false,
	"history": []
}