{
	"format": "sphinx-sol-ct-artifact-1",
	"address": "0x8b00b6d0b8e607fdfdb2b983e29c2256510e98d8",
	"sourceName": "node_modules/@rev-net/core-v6/src/REVDeployer.sol",
	"contractName": "REVDeployer",
	"chainId": "0x14a34",
	"abi": [
		{
			"type": "constructor",
			"inputs": [
				{
					"name": "controller",
					"type": "address",
					"internalType": "contract IJBController"
				},
				{
					"name": "multiTerminal",
					"type": "address",
					"internalType": "contract IJBTerminal"
				},
				{
					"name": "routerTerminalRegistry",
					"type": "address",
					"internalType": "contract IJBTerminal"
				},
				{
					"name": "suckerRegistry",
					"type": "address",
					"internalType": "contract IJBSuckerRegistry"
				},
				{
					"name": "feeRevnetId",
					"type": "uint256",
					"internalType": "uint256"
				},
				{
					"name": "hookDeployer",
					"type": "address",
					"internalType": "contract IJB721TiersHookDeployer"
				},
				{
					"name": "publisher",
					"type": "address",
					"internalType": "contract CTPublisher"
				},
				{
					"name": "buybackHook",
					"type": "address",
					"internalType": "contract IJBBuybackHookRegistry"
				},
				{
					"name": "loans",
					"type": "address",
					"internalType": "contract IREVLoans"
				},
				{
					"name": "trustedForwarder",
					"type": "address",
					"internalType": "address"
				},
				{
					"name": "owner",
					"type": "address",
					"internalType": "address"
				}
			],
			"stateMutability": "nonpayable"
		},
		{
			"type": "function",
			"name": "BUYBACK_HOOK",
			"inputs": [],
			"outputs": [
				{
					"name": "",
					"type": "address",
					"internalType": "contract IJBBuybackHookRegistry"
				}
			],
			"stateMutability": "view"
		},
		{
			"type": "function",
			"name": "CASH_OUT_DELAY",
			"inputs": [],
			"outputs": [
				{
					"name": "",
					"type": "uint256",
					"internalType": "uint256"
				}
			],
			"stateMutability": "view"
		},
		{
			"type": "function",
			"name": "CONTROLLER",
			"inputs": [],
			"outputs": [
				{
					"name": "",
					"type": "address",
					"internalType": "contract IJBController"
				}
			],
			"stateMutability": "view"
		},
		{
			"type": "function",
			"name": "DEFAULT_BUYBACK_POOL_FEE",
			"inputs": [],
			"outputs": [
				{
					"name": "",
					"type": "uint24",
					"internalType": "uint24"
				}
			],
			"stateMutability": "view"
		},
		{
			"type": "function",
			"name": "DEFAULT_BUYBACK_TICK_SPACING",
			"inputs": [],
			"outputs": [
				{
					"name": "",
					"type": "int24",
					"internalType": "int24"
				}
			],
			"stateMutability": "view"
		},
		{
			"type": "function",
			"name": "DEFAULT_BUYBACK_TWAP_WINDOW",
			"inputs": [],
			"outputs": [
				{
					"name": "",
					"type": "uint32",
					"internalType": "uint32"
				}
			],
			"stateMutability": "view"
		},
		{
			"type": "function",
			"name": "DIRECTORY",
			"inputs": [],
			"outputs": [
				{
					"name": "",
					"type": "address",
					"internalType": "contract IJBDirectory"
				}
			],
			"stateMutability": "view"
		},
		{
			"type": "function",
			"name": "FEE_REVNET_ID",
			"inputs": [],
			"outputs": [
				{
					"name": "",
					"type": "uint256",
					"internalType": "uint256"
				}
			],
			"stateMutability": "view"
		},
		{
			"type": "function",
			"name": "HOOK_DEPLOYER",
			"inputs": [],
			"outputs": [
				{
					"name": "",
					"type": "address",
					"internalType": "contract IJB721TiersHookDeployer"
				}
			],
			"stateMutability": "view"
		},
		{
			"type": "function",
			"name": "LOANS",
			"inputs": [],
			"outputs": [
				{
					"name": "",
					"type": "address",
					"internalType": "contract IREVLoans"
				}
			],
			"stateMutability": "view"
		},
		{
			"type": "function",
			"name": "MULTI_TERMINAL",
			"inputs": [],
			"outputs": [
				{
					"name": "",
					"type": "address",
					"internalType": "contract IJBTerminal"
				}
			],
			"stateMutability": "view"
		},
		{
			"type": "function",
			"name": "OWNER",
			"inputs": [],
			"outputs": [
				{
					"name": "",
					"type": "address",
					"internalType": "address"
				}
			],
			"stateMutability": "view"
		},
		{
			"type": "function",
			"name": "PERMISSIONS",
			"inputs": [],
			"outputs": [
				{
					"name": "",
					"type": "address",
					"internalType": "contract IJBPermissions"
				}
			],
			"stateMutability": "view"
		},
		{
			"type": "function",
			"name": "PROJECTS",
			"inputs": [],
			"outputs": [
				{
					"name": "",
					"type": "address",
					"internalType": "contract IJBProjects"
				}
			],
			"stateMutability": "view"
		},
		{
			"type": "function",
			"name": "PUBLISHER",
			"inputs": [],
			"outputs": [
				{
					"name": "",
					"type": "address",
					"internalType": "contract CTPublisher"
				}
			],
			"stateMutability": "view"
		},
		{
			"type": "function",
			"name": "ROUTER_TERMINAL_REGISTRY",
			"inputs": [],
			"outputs": [
				{
					"name": "",
					"type": "address",
					"internalType": "contract IJBTerminal"
				}
			],
			"stateMutability": "view"
		},
		{
			"type": "function",
			"name": "SUCKER_REGISTRY",
			"inputs": [],
			"outputs": [
				{
					"name": "",
					"type": "address",
					"internalType": "contract IJBSuckerRegistry"
				}
			],
			"stateMutability": "view"
		},
		{
			"type": "function",
			"name": "deployFor",
			"inputs": [
				{
					"name": "revnetId",
					"type": "uint256",
					"internalType": "uint256"
				},
				{
					"name": "configuration",
					"type": "tuple",
					"internalType": "struct REVConfig",
					"components": [
						{
							"name": "description",
							"type": "tuple",
							"internalType": "struct REVDescription",
							"components": [
								{
									"name": "name",
									"type": "string",
									"internalType": "string"
								},
								{
									"name": "ticker",
									"type": "string",
									"internalType": "string"
								},
								{
									"name": "uri",
									"type": "string",
									"internalType": "string"
								},
								{
									"name": "salt",
									"type": "bytes32",
									"internalType": "bytes32"
								}
							]
						},
						{
							"name": "baseCurrency",
							"type": "uint32",
							"internalType": "uint32"
						},
						{
							"name": "operator",
							"type": "address",
							"internalType": "address"
						},
						{
							"name": "scopeCashOutsToLocalBalances",
							"type": "bool",
							"internalType": "bool"
						},
						{
							"name": "stageConfigurations",
							"type": "tuple[]",
							"internalType": "struct REVStageConfig[]",
							"components": [
								{
									"name": "startsAtOrAfter",
									"type": "uint48",
									"internalType": "uint48"
								},
								{
									"name": "autoIssuances",
									"type": "tuple[]",
									"internalType": "struct REVAutoIssuance[]",
									"components": [
										{
											"name": "chainId",
											"type": "uint32",
											"internalType": "uint32"
										},
										{
											"name": "count",
											"type": "uint104",
											"internalType": "uint104"
										},
										{
											"name": "beneficiary",
											"type": "address",
											"internalType": "address"
										}
									]
								},
								{
									"name": "splitPercent",
									"type": "uint16",
									"internalType": "uint16"
								},
								{
									"name": "splits",
									"type": "tuple[]",
									"internalType": "struct JBSplit[]",
									"components": [
										{
											"name": "percent",
											"type": "uint32",
											"internalType": "uint32"
										},
										{
											"name": "projectId",
											"type": "uint64",
											"internalType": "uint64"
										},
										{
											"name": "beneficiary",
											"type": "address",
											"internalType": "address payable"
										},
										{
											"name": "preferAddToBalance",
											"type": "bool",
											"internalType": "bool"
										},
										{
											"name": "lockedUntil",
											"type": "uint48",
											"internalType": "uint48"
										},
										{
											"name": "hook",
											"type": "address",
											"internalType": "contract IJBSplitHook"
										}
									]
								},
								{
									"name": "initialIssuance",
									"type": "uint112",
									"internalType": "uint112"
								},
								{
									"name": "issuanceCutFrequency",
									"type": "uint32",
									"internalType": "uint32"
								},
								{
									"name": "issuanceCutPercent",
									"type": "uint32",
									"internalType": "uint32"
								},
								{
									"name": "cashOutTaxRate",
									"type": "uint16",
									"internalType": "uint16"
								},
								{
									"name": "extraMetadata",
									"type": "uint16",
									"internalType": "uint16"
								}
							]
						}
					]
				},
				{
					"name": "accountingContextsToAccept",
					"type": "tuple[]",
					"internalType": "struct JBAccountingContext[]",
					"components": [
						{
							"name": "token",
							"type": "address",
							"internalType": "address"
						},
						{
							"name": "decimals",
							"type": "uint8",
							"internalType": "uint8"
						},
						{
							"name": "currency",
							"type": "uint32",
							"internalType": "uint32"
						}
					]
				},
				{
					"name": "suckerDeploymentConfiguration",
					"type": "tuple",
					"internalType": "struct REVSuckerDeploymentConfig",
					"components": [
						{
							"name": "deployerConfigurations",
							"type": "tuple[]",
							"internalType": "struct JBSuckerDeployerConfig[]",
							"components": [
								{
									"name": "deployer",
									"type": "address",
									"internalType": "contract IJBSuckerDeployer"
								},
								{
									"name": "peer",
									"type": "bytes32",
									"internalType": "bytes32"
								},
								{
									"name": "mappings",
									"type": "tuple[]",
									"internalType": "struct JBTokenMapping[]",
									"components": [
										{
											"name": "localToken",
											"type": "address",
											"internalType": "address"
										},
										{
											"name": "minGas",
											"type": "uint32",
											"internalType": "uint32"
										},
										{
											"name": "remoteToken",
											"type": "bytes32",
											"internalType": "bytes32"
										}
									]
								}
							]
						},
						{
							"name": "salt",
							"type": "bytes32",
							"internalType": "bytes32"
						}
					]
				}
			],
			"outputs": [
				{
					"name": "",
					"type": "uint256",
					"internalType": "uint256"
				},
				{
					"name": "hook",
					"type": "address",
					"internalType": "contract IJB721TiersHook"
				}
			],
			"stateMutability": "payable"
		},
		{
			"type": "function",
			"name": "deployFor",
			"inputs": [
				{
					"name": "revnetId",
					"type": "uint256",
					"internalType": "uint256"
				},
				{
					"name": "configuration",
					"type": "tuple",
					"internalType": "struct REVConfig",
					"components": [
						{
							"name": "description",
							"type": "tuple",
							"internalType": "struct REVDescription",
							"components": [
								{
									"name": "name",
									"type": "string",
									"internalType": "string"
								},
								{
									"name": "ticker",
									"type": "string",
									"internalType": "string"
								},
								{
									"name": "uri",
									"type": "string",
									"internalType": "string"
								},
								{
									"name": "salt",
									"type": "bytes32",
									"internalType": "bytes32"
								}
							]
						},
						{
							"name": "baseCurrency",
							"type": "uint32",
							"internalType": "uint32"
						},
						{
							"name": "operator",
							"type": "address",
							"internalType": "address"
						},
						{
							"name": "scopeCashOutsToLocalBalances",
							"type": "bool",
							"internalType": "bool"
						},
						{
							"name": "stageConfigurations",
							"type": "tuple[]",
							"internalType": "struct REVStageConfig[]",
							"components": [
								{
									"name": "startsAtOrAfter",
									"type": "uint48",
									"internalType": "uint48"
								},
								{
									"name": "autoIssuances",
									"type": "tuple[]",
									"internalType": "struct REVAutoIssuance[]",
									"components": [
										{
											"name": "chainId",
											"type": "uint32",
											"internalType": "uint32"
										},
										{
											"name": "count",
											"type": "uint104",
											"internalType": "uint104"
										},
										{
											"name": "beneficiary",
											"type": "address",
											"internalType": "address"
										}
									]
								},
								{
									"name": "splitPercent",
									"type": "uint16",
									"internalType": "uint16"
								},
								{
									"name": "splits",
									"type": "tuple[]",
									"internalType": "struct JBSplit[]",
									"components": [
										{
											"name": "percent",
											"type": "uint32",
											"internalType": "uint32"
										},
										{
											"name": "projectId",
											"type": "uint64",
											"internalType": "uint64"
										},
										{
											"name": "beneficiary",
											"type": "address",
											"internalType": "address payable"
										},
										{
											"name": "preferAddToBalance",
											"type": "bool",
											"internalType": "bool"
										},
										{
											"name": "lockedUntil",
											"type": "uint48",
											"internalType": "uint48"
										},
										{
											"name": "hook",
											"type": "address",
											"internalType": "contract IJBSplitHook"
										}
									]
								},
								{
									"name": "initialIssuance",
									"type": "uint112",
									"internalType": "uint112"
								},
								{
									"name": "issuanceCutFrequency",
									"type": "uint32",
									"internalType": "uint32"
								},
								{
									"name": "issuanceCutPercent",
									"type": "uint32",
									"internalType": "uint32"
								},
								{
									"name": "cashOutTaxRate",
									"type": "uint16",
									"internalType": "uint16"
								},
								{
									"name": "extraMetadata",
									"type": "uint16",
									"internalType": "uint16"
								}
							]
						}
					]
				},
				{
					"name": "accountingContextsToAccept",
					"type": "tuple[]",
					"internalType": "struct JBAccountingContext[]",
					"components": [
						{
							"name": "token",
							"type": "address",
							"internalType": "address"
						},
						{
							"name": "decimals",
							"type": "uint8",
							"internalType": "uint8"
						},
						{
							"name": "currency",
							"type": "uint32",
							"internalType": "uint32"
						}
					]
				},
				{
					"name": "suckerDeploymentConfiguration",
					"type": "tuple",
					"internalType": "struct REVSuckerDeploymentConfig",
					"components": [
						{
							"name": "deployerConfigurations",
							"type": "tuple[]",
							"internalType": "struct JBSuckerDeployerConfig[]",
							"components": [
								{
									"name": "deployer",
									"type": "address",
									"internalType": "contract IJBSuckerDeployer"
								},
								{
									"name": "peer",
									"type": "bytes32",
									"internalType": "bytes32"
								},
								{
									"name": "mappings",
									"type": "tuple[]",
									"internalType": "struct JBTokenMapping[]",
									"components": [
										{
											"name": "localToken",
											"type": "address",
											"internalType": "address"
										},
										{
											"name": "minGas",
											"type": "uint32",
											"internalType": "uint32"
										},
										{
											"name": "remoteToken",
											"type": "bytes32",
											"internalType": "bytes32"
										}
									]
								}
							]
						},
						{
							"name": "salt",
							"type": "bytes32",
							"internalType": "bytes32"
						}
					]
				},
				{
					"name": "tiered721HookConfiguration",
					"type": "tuple",
					"internalType": "struct REVDeploy721TiersHookConfig",
					"components": [
						{
							"name": "baseline721HookConfiguration",
							"type": "tuple",
							"internalType": "struct REVBaseline721HookConfig",
							"components": [
								{
									"name": "name",
									"type": "string",
									"internalType": "string"
								},
								{
									"name": "symbol",
									"type": "string",
									"internalType": "string"
								},
								{
									"name": "baseUri",
									"type": "string",
									"internalType": "string"
								},
								{
									"name": "tokenUriResolver",
									"type": "address",
									"internalType": "contract IJB721TokenUriResolver"
								},
								{
									"name": "contractUri",
									"type": "string",
									"internalType": "string"
								},
								{
									"name": "tiersConfig",
									"type": "tuple",
									"internalType": "struct JB721InitTiersConfig",
									"components": [
										{
											"name": "tiers",
											"type": "tuple[]",
											"internalType": "struct JB721TierConfig[]",
											"components": [
												{
													"name": "price",
													"type": "uint104",
													"internalType": "uint104"
												},
												{
													"name": "initialSupply",
													"type": "uint32",
													"internalType": "uint32"
												},
												{
													"name": "votingUnits",
													"type": "uint32",
													"internalType": "uint32"
												},
												{
													"name": "reserveFrequency",
													"type": "uint16",
													"internalType": "uint16"
												},
												{
													"name": "reserveBeneficiary",
													"type": "address",
													"internalType": "address"
												},
												{
													"name": "encodedIpfsUri",
													"type": "bytes32",
													"internalType": "bytes32"
												},
												{
													"name": "category",
													"type": "uint24",
													"internalType": "uint24"
												},
												{
													"name": "discountPercent",
													"type": "uint8",
													"internalType": "uint8"
												},
												{
													"name": "flags",
													"type": "tuple",
													"internalType": "struct JB721TierConfigFlags",
													"components": [
														{
															"name": "allowOwnerMint",
															"type": "bool",
															"internalType": "bool"
														},
														{
															"name": "useReserveBeneficiaryAsDefault",
															"type": "bool",
															"internalType": "bool"
														},
														{
															"name": "transfersPausable",
															"type": "bool",
															"internalType": "bool"
														},
														{
															"name": "useVotingUnits",
															"type": "bool",
															"internalType": "bool"
														},
														{
															"name": "cantBeRemoved",
															"type": "bool",
															"internalType": "bool"
														},
														{
															"name": "cantIncreaseDiscountPercent",
															"type": "bool",
															"internalType": "bool"
														},
														{
															"name": "cantBuyWithCredits",
															"type": "bool",
															"internalType": "bool"
														}
													]
												},
												{
													"name": "splitPercent",
													"type": "uint32",
													"internalType": "uint32"
												},
												{
													"name": "splits",
													"type": "tuple[]",
													"internalType": "struct JBSplit[]",
													"components": [
														{
															"name": "percent",
															"type": "uint32",
															"internalType": "uint32"
														},
														{
															"name": "projectId",
															"type": "uint64",
															"internalType": "uint64"
														},
														{
															"name": "beneficiary",
															"type": "address",
															"internalType": "address payable"
														},
														{
															"name": "preferAddToBalance",
															"type": "bool",
															"internalType": "bool"
														},
														{
															"name": "lockedUntil",
															"type": "uint48",
															"internalType": "uint48"
														},
														{
															"name": "hook",
															"type": "address",
															"internalType": "contract IJBSplitHook"
														}
													]
												}
											]
										},
										{
											"name": "currency",
											"type": "uint32",
											"internalType": "uint32"
										},
										{
											"name": "decimals",
											"type": "uint8",
											"internalType": "uint8"
										}
									]
								},
								{
									"name": "flags",
									"type": "tuple",
									"internalType": "struct REV721TiersHookFlags",
									"components": [
										{
											"name": "noNewTiersWithReserves",
											"type": "bool",
											"internalType": "bool"
										},
										{
											"name": "noNewTiersWithVotes",
											"type": "bool",
											"internalType": "bool"
										},
										{
											"name": "noNewTiersWithOwnerMinting",
											"type": "bool",
											"internalType": "bool"
										},
										{
											"name": "preventOverspending",
											"type": "bool",
											"internalType": "bool"
										}
									]
								}
							]
						},
						{
							"name": "salt",
							"type": "bytes32",
							"internalType": "bytes32"
						},
						{
							"name": "preventOperatorAdjustingTiers",
							"type": "bool",
							"internalType": "bool"
						},
						{
							"name": "preventOperatorUpdatingMetadata",
							"type": "bool",
							"internalType": "bool"
						},
						{
							"name": "preventOperatorMinting",
							"type": "bool",
							"internalType": "bool"
						},
						{
							"name": "preventOperatorIncreasingDiscountPercent",
							"type": "bool",
							"internalType": "bool"
						}
					]
				},
				{
					"name": "allowedPosts",
					"type": "tuple[]",
					"internalType": "struct REVCroptopAllowedPost[]",
					"components": [
						{
							"name": "category",
							"type": "uint24",
							"internalType": "uint24"
						},
						{
							"name": "minimumPrice",
							"type": "uint104",
							"internalType": "uint104"
						},
						{
							"name": "minimumTotalSupply",
							"type": "uint32",
							"internalType": "uint32"
						},
						{
							"name": "maximumTotalSupply",
							"type": "uint32",
							"internalType": "uint32"
						},
						{
							"name": "maximumSplitPercent",
							"type": "uint32",
							"internalType": "uint32"
						},
						{
							"name": "allowedAddresses",
							"type": "address[]",
							"internalType": "address[]"
						}
					]
				}
			],
			"outputs": [
				{
					"name": "",
					"type": "uint256",
					"internalType": "uint256"
				},
				{
					"name": "hook",
					"type": "address",
					"internalType": "contract IJB721TiersHook"
				}
			],
			"stateMutability": "payable"
		},
		{
			"type": "function",
			"name": "deploySuckersFor",
			"inputs": [
				{
					"name": "revnetId",
					"type": "uint256",
					"internalType": "uint256"
				},
				{
					"name": "suckerDeploymentConfiguration",
					"type": "tuple",
					"internalType": "struct REVSuckerDeploymentConfig",
					"components": [
						{
							"name": "deployerConfigurations",
							"type": "tuple[]",
							"internalType": "struct JBSuckerDeployerConfig[]",
							"components": [
								{
									"name": "deployer",
									"type": "address",
									"internalType": "contract IJBSuckerDeployer"
								},
								{
									"name": "peer",
									"type": "bytes32",
									"internalType": "bytes32"
								},
								{
									"name": "mappings",
									"type": "tuple[]",
									"internalType": "struct JBTokenMapping[]",
									"components": [
										{
											"name": "localToken",
											"type": "address",
											"internalType": "address"
										},
										{
											"name": "minGas",
											"type": "uint32",
											"internalType": "uint32"
										},
										{
											"name": "remoteToken",
											"type": "bytes32",
											"internalType": "bytes32"
										}
									]
								}
							]
						},
						{
							"name": "salt",
							"type": "bytes32",
							"internalType": "bytes32"
						}
					]
				}
			],
			"outputs": [
				{
					"name": "suckers",
					"type": "address[]",
					"internalType": "address[]"
				}
			],
			"stateMutability": "nonpayable"
		},
		{
			"type": "function",
			"name": "hashedEncodedConfigurationOf",
			"inputs": [
				{
					"name": "revnetId",
					"type": "uint256",
					"internalType": "uint256"
				}
			],
			"outputs": [
				{
					"name": "hashedEncodedConfiguration",
					"type": "bytes32",
					"internalType": "bytes32"
				}
			],
			"stateMutability": "view"
		},
		{
			"type": "function",
			"name": "isTrustedForwarder",
			"inputs": [
				{
					"name": "forwarder",
					"type": "address",
					"internalType": "address"
				}
			],
			"outputs": [
				{
					"name": "",
					"type": "bool",
					"internalType": "bool"
				}
			],
			"stateMutability": "view"
		},
		{
			"type": "function",
			"name": "onERC721Received",
			"inputs": [
				{
					"name": "",
					"type": "address",
					"internalType": "address"
				},
				{
					"name": "",
					"type": "address",
					"internalType": "address"
				},
				{
					"name": "",
					"type": "uint256",
					"internalType": "uint256"
				},
				{
					"name": "",
					"type": "bytes",
					"internalType": "bytes"
				}
			],
			"outputs": [
				{
					"name": "",
					"type": "bytes4",
					"internalType": "bytes4"
				}
			],
			"stateMutability": "view"
		},
		{
			"type": "function",
			"name": "supportsInterface",
			"inputs": [
				{
					"name": "interfaceId",
					"type": "bytes4",
					"internalType": "bytes4"
				}
			],
			"outputs": [
				{
					"name": "",
					"type": "bool",
					"internalType": "bool"
				}
			],
			"stateMutability": "view"
		},
		{
			"type": "function",
			"name": "trustedForwarder",
			"inputs": [],
			"outputs": [
				{
					"name": "",
					"type": "address",
					"internalType": "address"
				}
			],
			"stateMutability": "view"
		},
		{
			"type": "event",
			"name": "DeployRevnet",
			"inputs": [
				{
					"name": "revnetId",
					"type": "uint256",
					"indexed": true,
					"internalType": "uint256"
				},
				{
					"name": "configuration",
					"type": "tuple",
					"indexed": false,
					"internalType": "struct REVConfig",
					"components": [
						{
							"name": "description",
							"type": "tuple",
							"internalType": "struct REVDescription",
							"components": [
								{
									"name": "name",
									"type": "string",
									"internalType": "string"
								},
								{
									"name": "ticker",
									"type": "string",
									"internalType": "string"
								},
								{
									"name": "uri",
									"type": "string",
									"internalType": "string"
								},
								{
									"name": "salt",
									"type": "bytes32",
									"internalType": "bytes32"
								}
							]
						},
						{
							"name": "baseCurrency",
							"type": "uint32",
							"internalType": "uint32"
						},
						{
							"name": "operator",
							"type": "address",
							"internalType": "address"
						},
						{
							"name": "scopeCashOutsToLocalBalances",
							"type": "bool",
							"internalType": "bool"
						},
						{
							"name": "stageConfigurations",
							"type": "tuple[]",
							"internalType": "struct REVStageConfig[]",
							"components": [
								{
									"name": "startsAtOrAfter",
									"type": "uint48",
									"internalType": "uint48"
								},
								{
									"name": "autoIssuances",
									"type": "tuple[]",
									"internalType": "struct REVAutoIssuance[]",
									"components": [
										{
											"name": "chainId",
											"type": "uint32",
											"internalType": "uint32"
										},
										{
											"name": "count",
											"type": "uint104",
											"internalType": "uint104"
										},
										{
											"name": "beneficiary",
											"type": "address",
											"internalType": "address"
										}
									]
								},
								{
									"name": "splitPercent",
									"type": "uint16",
									"internalType": "uint16"
								},
								{
									"name": "splits",
									"type": "tuple[]",
									"internalType": "struct JBSplit[]",
									"components": [
										{
											"name": "percent",
											"type": "uint32",
											"internalType": "uint32"
										},
										{
											"name": "projectId",
											"type": "uint64",
											"internalType": "uint64"
										},
										{
											"name": "beneficiary",
											"type": "address",
											"internalType": "address payable"
										},
										{
											"name": "preferAddToBalance",
											"type": "bool",
											"internalType": "bool"
										},
										{
											"name": "lockedUntil",
											"type": "uint48",
											"internalType": "uint48"
										},
										{
											"name": "hook",
											"type": "address",
											"internalType": "contract IJBSplitHook"
										}
									]
								},
								{
									"name": "initialIssuance",
									"type": "uint112",
									"internalType": "uint112"
								},
								{
									"name": "issuanceCutFrequency",
									"type": "uint32",
									"internalType": "uint32"
								},
								{
									"name": "issuanceCutPercent",
									"type": "uint32",
									"internalType": "uint32"
								},
								{
									"name": "cashOutTaxRate",
									"type": "uint16",
									"internalType": "uint16"
								},
								{
									"name": "extraMetadata",
									"type": "uint16",
									"internalType": "uint16"
								}
							]
						}
					]
				},
				{
					"name": "terminalConfigurations",
					"type": "tuple[]",
					"indexed": false,
					"internalType": "struct JBTerminalConfig[]",
					"components": [
						{
							"name": "terminal",
							"type": "address",
							"internalType": "contract IJBTerminal"
						},
						{
							"name": "accountingContextsToAccept",
							"type": "tuple[]",
							"internalType": "struct JBAccountingContext[]",
							"components": [
								{
									"name": "token",
									"type": "address",
									"internalType": "address"
								},
								{
									"name": "decimals",
									"type": "uint8",
									"internalType": "uint8"
								},
								{
									"name": "currency",
									"type": "uint32",
									"internalType": "uint32"
								}
							]
						}
					]
				},
				{
					"name": "suckerDeploymentConfiguration",
					"type": "tuple",
					"indexed": false,
					"internalType": "struct REVSuckerDeploymentConfig",
					"components": [
						{
							"name": "deployerConfigurations",
							"type": "tuple[]",
							"internalType": "struct JBSuckerDeployerConfig[]",
							"components": [
								{
									"name": "deployer",
									"type": "address",
									"internalType": "contract IJBSuckerDeployer"
								},
								{
									"name": "peer",
									"type": "bytes32",
									"internalType": "bytes32"
								},
								{
									"name": "mappings",
									"type": "tuple[]",
									"internalType": "struct JBTokenMapping[]",
									"components": [
										{
											"name": "localToken",
											"type": "address",
											"internalType": "address"
										},
										{
											"name": "minGas",
											"type": "uint32",
											"internalType": "uint32"
										},
										{
											"name": "remoteToken",
											"type": "bytes32",
											"internalType": "bytes32"
										}
									]
								}
							]
						},
						{
							"name": "salt",
							"type": "bytes32",
							"internalType": "bytes32"
						}
					]
				},
				{
					"name": "rulesetConfigurations",
					"type": "tuple[]",
					"indexed": false,
					"internalType": "struct JBRulesetConfig[]",
					"components": [
						{
							"name": "mustStartAtOrAfter",
							"type": "uint48",
							"internalType": "uint48"
						},
						{
							"name": "duration",
							"type": "uint32",
							"internalType": "uint32"
						},
						{
							"name": "weight",
							"type": "uint112",
							"internalType": "uint112"
						},
						{
							"name": "weightCutPercent",
							"type": "uint32",
							"internalType": "uint32"
						},
						{
							"name": "approvalHook",
							"type": "address",
							"internalType": "contract IJBRulesetApprovalHook"
						},
						{
							"name": "metadata",
							"type": "tuple",
							"internalType": "struct JBRulesetMetadata",
							"components": [
								{
									"name": "reservedPercent",
									"type": "uint16",
									"internalType": "uint16"
								},
								{
									"name": "cashOutTaxRate",
									"type": "uint16",
									"internalType": "uint16"
								},
								{
									"name": "baseCurrency",
									"type": "uint32",
									"internalType": "uint32"
								},
								{
									"name": "pausePay",
									"type": "bool",
									"internalType": "bool"
								},
								{
									"name": "pauseCreditTransfers",
									"type": "bool",
									"internalType": "bool"
								},
								{
									"name": "allowOwnerMinting",
									"type": "bool",
									"internalType": "bool"
								},
								{
									"name": "allowSetCustomToken",
									"type": "bool",
									"internalType": "bool"
								},
								{
									"name": "allowTerminalMigration",
									"type": "bool",
									"internalType": "bool"
								},
								{
									"name": "allowSetTerminals",
									"type": "bool",
									"internalType": "bool"
								},
								{
									"name": "allowSetController",
									"type": "bool",
									"internalType": "bool"
								},
								{
									"name": "allowAddAccountingContext",
									"type": "bool",
									"internalType": "bool"
								},
								{
									"name": "allowAddPriceFeed",
									"type": "bool",
									"internalType": "bool"
								},
								{
									"name": "ownerMustSendPayouts",
									"type": "bool",
									"internalType": "bool"
								},
								{
									"name": "holdFees",
									"type": "bool",
									"internalType": "bool"
								},
								{
									"name": "scopeCashOutsToLocalBalances",
									"type": "bool",
									"internalType": "bool"
								},
								{
									"name": "useDataHookForPay",
									"type": "bool",
									"internalType": "bool"
								},
								{
									"name": "useDataHookForCashOut",
									"type": "bool",
									"internalType": "bool"
								},
								{
									"name": "dataHook",
									"type": "address",
									"internalType": "address"
								},
								{
									"name": "metadata",
									"type": "uint16",
									"internalType": "uint16"
								}
							]
						},
						{
							"name": "splitGroups",
							"type": "tuple[]",
							"internalType": "struct JBSplitGroup[]",
							"components": [
								{
									"name": "groupId",
									"type": "uint256",
									"internalType": "uint256"
								},
								{
									"name": "splits",
									"type": "tuple[]",
									"internalType": "struct JBSplit[]",
									"components": [
										{
											"name": "percent",
											"type": "uint32",
											"internalType": "uint32"
										},
										{
											"name": "projectId",
											"type": "uint64",
											"internalType": "uint64"
										},
										{
											"name": "beneficiary",
											"type": "address",
											"internalType": "address payable"
										},
										{
											"name": "preferAddToBalance",
											"type": "bool",
											"internalType": "bool"
										},
										{
											"name": "lockedUntil",
											"type": "uint48",
											"internalType": "uint48"
										},
										{
											"name": "hook",
											"type": "address",
											"internalType": "contract IJBSplitHook"
										}
									]
								}
							]
						},
						{
							"name": "fundAccessLimitGroups",
							"type": "tuple[]",
							"internalType": "struct JBFundAccessLimitGroup[]",
							"components": [
								{
									"name": "terminal",
									"type": "address",
									"internalType": "address"
								},
								{
									"name": "token",
									"type": "address",
									"internalType": "address"
								},
								{
									"name": "payoutLimits",
									"type": "tuple[]",
									"internalType": "struct JBCurrencyAmount[]",
									"components": [
										{
											"name": "amount",
											"type": "uint224",
											"internalType": "uint224"
										},
										{
											"name": "currency",
											"type": "uint32",
											"internalType": "uint32"
										}
									]
								},
								{
									"name": "surplusAllowances",
									"type": "tuple[]",
									"internalType": "struct JBCurrencyAmount[]",
									"components": [
										{
											"name": "amount",
											"type": "uint224",
											"internalType": "uint224"
										},
										{
											"name": "currency",
											"type": "uint32",
											"internalType": "uint32"
										}
									]
								}
							]
						}
					]
				},
				{
					"name": "encodedConfigurationHash",
					"type": "bytes32",
					"indexed": false,
					"internalType": "bytes32"
				},
				{
					"name": "caller",
					"type": "address",
					"indexed": false,
					"internalType": "address"
				}
			],
			"anonymous": false
		},
		{
			"type": "event",
			"name": "DeploySuckers",
			"inputs": [
				{
					"name": "revnetId",
					"type": "uint256",
					"indexed": true,
					"internalType": "uint256"
				},
				{
					"name": "encodedConfigurationHash",
					"type": "bytes32",
					"indexed": false,
					"internalType": "bytes32"
				},
				{
					"name": "suckerDeploymentConfiguration",
					"type": "tuple",
					"indexed": false,
					"internalType": "struct REVSuckerDeploymentConfig",
					"components": [
						{
							"name": "deployerConfigurations",
							"type": "tuple[]",
							"internalType": "struct JBSuckerDeployerConfig[]",
							"components": [
								{
									"name": "deployer",
									"type": "address",
									"internalType": "contract IJBSuckerDeployer"
								},
								{
									"name": "peer",
									"type": "bytes32",
									"internalType": "bytes32"
								},
								{
									"name": "mappings",
									"type": "tuple[]",
									"internalType": "struct JBTokenMapping[]",
									"components": [
										{
											"name": "localToken",
											"type": "address",
											"internalType": "address"
										},
										{
											"name": "minGas",
											"type": "uint32",
											"internalType": "uint32"
										},
										{
											"name": "remoteToken",
											"type": "bytes32",
											"internalType": "bytes32"
										}
									]
								}
							]
						},
						{
							"name": "salt",
							"type": "bytes32",
							"internalType": "bytes32"
						}
					]
				},
				{
					"name": "caller",
					"type": "address",
					"indexed": false,
					"internalType": "address"
				}
			],
			"anonymous": false
		},
		{
			"type": "event",
			"name": "SetCashOutDelay",
			"inputs": [
				{
					"name": "revnetId",
					"type": "uint256",
					"indexed": true,
					"internalType": "uint256"
				},
				{
					"name": "cashOutDelay",
					"type": "uint256",
					"indexed": false,
					"internalType": "uint256"
				},
				{
					"name": "caller",
					"type": "address",
					"indexed": false,
					"internalType": "address"
				}
			],
			"anonymous": false
		},
		{
			"type": "event",
			"name": "StoreAutoIssuanceAmount",
			"inputs": [
				{
					"name": "revnetId",
					"type": "uint256",
					"indexed": true,
					"internalType": "uint256"
				},
				{
					"name": "stageId",
					"type": "uint256",
					"indexed": true,
					"internalType": "uint256"
				},
				{
					"name": "beneficiary",
					"type": "address",
					"indexed": true,
					"internalType": "address"
				},
				{
					"name": "count",
					"type": "uint256",
					"indexed": false,
					"internalType": "uint256"
				},
				{
					"name": "caller",
					"type": "address",
					"indexed": false,
					"internalType": "address"
				}
			],
			"anonymous": false
		},
		{
			"type": "error",
			"name": "PRBMath_MulDiv_Overflow",
			"inputs": [
				{
					"name": "x",
					"type": "uint256",
					"internalType": "uint256"
				},
				{
					"name": "y",
					"type": "uint256",
					"internalType": "uint256"
				},
				{
					"name": "denominator",
					"type": "uint256",
					"internalType": "uint256"
				}
			]
		},
		{
			"type": "error",
			"name": "REVDeployer_AutoIssuanceBeneficiaryZeroAddress",
			"inputs": [
				{
					"name": "stageIndex",
					"type": "uint256",
					"internalType": "uint256"
				},
				{
					"name": "autoIssuanceIndex",
					"type": "uint256",
					"internalType": "uint256"
				}
			]
		},
		{
			"type": "error",
			"name": "REVDeployer_CashOutsCantBeTurnedOffCompletely",
			"inputs": [
				{
					"name": "cashOutTaxRate",
					"type": "uint256",
					"internalType": "uint256"
				},
				{
					"name": "maxCashOutTaxRate",
					"type": "uint256",
					"internalType": "uint256"
				}
			]
		},
		{
			"type": "error",
			"name": "REVDeployer_MustHaveSplits",
			"inputs": [
				{
					"name": "stageIndex",
					"type": "uint256",
					"internalType": "uint256"
				},
				{
					"name": "splitPercent",
					"type": "uint256",
					"internalType": "uint256"
				}
			]
		},
		{
			"type": "error",
			"name": "REVDeployer_ProjectCreationFeeNotNeeded",
			"inputs": [
				{
					"name": "revnetId",
					"type": "uint256",
					"internalType": "uint256"
				},
				{
					"name": "value",
					"type": "uint256",
					"internalType": "uint256"
				}
			]
		},
		{
			"type": "error",
			"name": "REVDeployer_RulesetDoesNotAllowDeployingSuckers",
			"inputs": [
				{
					"name": "revnetId",
					"type": "uint256",
					"internalType": "uint256"
				}
			]
		},
		{
			"type": "error",
			"name": "REVDeployer_StageTimesMustIncrease",
			"inputs": [
				{
					"name": "stageIndex",
					"type": "uint256",
					"internalType": "uint256"
				},
				{
					"name": "previousStageStart",
					"type": "uint256",
					"internalType": "uint256"
				},
				{
					"name": "effectiveStart",
					"type": "uint256",
					"internalType": "uint256"
				}
			]
		},
		{
			"type": "error",
			"name": "REVDeployer_StagesRequired",
			"inputs": [
				{
					"name": "stageCount",
					"type": "uint256",
					"internalType": "uint256"
				}
			]
		},
		{
			"type": "error",
			"name": "REVDeployer_Unauthorized",
			"inputs": [
				{
					"name": "revnetId",
					"type": "uint256",
					"internalType": "uint256"
				},
				{
					"name": "caller",
					"type": "address",
					"internalType": "address"
				}
			]
		}
	],
	"args": [
		"0x59e419f593358990C496A1c4174a5cfB4D06db07",
		"0xe96BFAf94cbDc6C52813FEc2Bc9ED4b8bf6EA7ff",
		"0x0f50Ac09FE07A8764166BA9A3a6aa1945d409d2D",
		"0x952648f3A4BbE85C07398e7D3235D330dBFACA32",
		"3",
		"0xA19E29ADA73ec9170902fd69A266867f00808622",
		"0xdb14E4C313031249a84F3aFDe7B6b69bD806383e",
		"0x2e63e978Ea432B1F2a4571A43014a3c8Ee8a6e3A",
		"0x182f8c57b12E030C04C99b1656C6533f0A269522",
		"0x53d5A7E174A87721c527ED14c7Ce7cb515465607",
		"0x85Dc792B7083896BA9c39A6271D485BEcaCb7ff9"
	],
	"solcInputHash": "a14cff7d99db3a7f8ef3041667d85c78",
	"bytecode": "0x610240806040523461041d576101608161546e8038038091610021828561051b565b83398101031261041d5780516001600160a01b038116919082810361041d5761004c6020830161053e565b6100586040840161053e565b60608401516001600160a01b038116810361041d57608085015160a0860151916001600160a01b038316830361041d5760c0870151936001600160a01b038516850361041d5760e08801516001600160a01b038116999096908a880361041d576101008a0151986001600160a01b038a168a0361041d576100e96101406100e26101208e0161053e565b9c0161053e565b9a60805260c0526040516388bc2ef360e01b8152602081600481855afa90811561048b575f916104d8575b5060e05260405163293c499960e01b815290602090829060049082905afa90811561048b575f91610496575b506101c05260c051604051633d0d324560e21b815290602090829060049082906001600160a01b03165afa90811561048b575f91610449575b506101a05261016052610200526102205261010052610120526101e05260a05261014052610180526040908151906101b1838361051b565b6001825260208201601f19840136823782511561043557601d90526101a05183516001600160a01b0390911691606082018281106001600160401b03821117610421578552815260208101925f8452848201908152823b1561041d578451631127c92960e21b81523060048201526024810186905291516001600160a01b0316604483015292516001600160401b03166064820152915160606084840152805160a48401819052839160c48301916020909101905f5b8181106104015750505091815f81819503925af180156103f7576103e7575b5051614f1b9081610553823960805181818161121601528181611754015261441d015260a0518181816117040152614892015260c0518181816101ab015281816113360152818161382f0152818161395a0152818161494f0152614ac8015260e0518161038501526101005181611c43015261012051818181610340015281816108ab0152611966015261014051816102b6015261016051818181610235015281816136c301526143010152610180518181816109c8015281816112da015281816119c001528181611d1a0152818161308001526139e601526101a0518161016601526101c0518181816104ae0152818161182201528181611bfd01528181611cc50152818161399d01528181613fbe01528181614013015261407c01526101e0518181816101f00152610b7e015261020051818181611bb90152818161364b0152818161374d015261415d0152610220518181816102fb015261452a0152f35b5f6103f19161051b565b5f610286565b82513d5f823e3d90fd5b825160ff16845286945060209384019390920191600101610267565b5f80fd5b634e487b7160e01b5f52604160045260245ffd5b634e487b7160e01b5f52603260045260245ffd5b90506020813d602011610483575b816104646020938361051b565b8101031261041d57516001600160a01b038116810361041d575f610179565b3d9150610457565b6040513d5f823e3d90fd5b90506020813d6020116104d0575b816104b16020938361051b565b8101031261041d57516001600160a01b038116810361041d575f610140565b3d91506104a4565b90506020813d602011610513575b816104f36020938361051b565b8101031261041d57516001600160a01b038116810361041d576004610114565b3d91506104e6565b601f909101601f19168101906001600160401b0382119082101761042157604052565b51906001600160a01b038216820361041d5756fe610260806040526004361015610013575f80fd5b5f905f3560e01c90816301ffc9a714611d4957508063117803e314611d05578063150b7a0214611c665780631680e17214611c2c578063293c499914611be8578063366b28d414611ba45780634cb6677514611b8857806354ca091d14611788578063572b6c05146117335780635b3435b4146116ee578063673706e81461126e57806367d39de2146112455780637da0a8771461120057806386dbf9c7146103b457806388bc2ef31461036f578063abf8c5c81461032a578063b5d25533146102e5578063b7249ca6146102a0578063b8a843d714610282578063ccfe84d314610264578063d087357e1461021f578063dbfbe5da146101da578063ee0fc12114610195578063f434c914146101505763ffc0433714610132575f80fd5b3461014d578060031936011261014d57602060405160c88152f35b80fd5b503461014d578060031936011261014d576040517f00000000000000000000000000000000000000000000000000000000000000006001600160a01b03168152602090f35b503461014d578060031936011261014d576040517f00000000000000000000000000000000000000000000000000000000000000006001600160a01b03168152602090f35b503461014d578060031936011261014d576040517f00000000000000000000000000000000000000000000000000000000000000006001600160a01b03168152602090f35b503461014d578060031936011261014d576040517f00000000000000000000000000000000000000000000000000000000000000006001600160a01b03168152602090f35b503461014d578060031936011261014d5760206040516202a3008152f35b503461014d578060031936011261014d57602060405162278d008152f35b503461014d578060031936011261014d576040517f00000000000000000000000000000000000000000000000000000000000000006001600160a01b03168152602090f35b503461014d578060031936011261014d576040517f00000000000000000000000000000000000000000000000000000000000000006001600160a01b03168152602090f35b503461014d578060031936011261014d576040517f00000000000000000000000000000000000000000000000000000000000000006001600160a01b03168152602090f35b503461014d578060031936011261014d576040517f00000000000000000000000000000000000000000000000000000000000000006001600160a01b03168152602090f35b5060c036600319011261014d57600435906001600160401b036024351161014d5760a06024353603600319011261014d576044356001600160401b0381116111fc57610404903690600401611ddc565b6001600160401b03606493929335116111fc576040606435360360031901126111fc57608435936001600160401b038511610a775760c06003198636030112610a77576001600160401b0360a43511610a775736602360a435011215610a775760a43560040135916001600160401b038311610c9b573660248460051b60a435010111610c9b5781806111dd575060405163180e2b1160e31b8152306004820152602081602481347f00000000000000000000000000000000000000000000000000000000000000006001600160a01b03165af1908115610c9f5785916111a7575b50945b604051966104f688611e8d565b80600401356001600160401b0381116111a357810160031981360301906101408212610fb5576040519161052983611e0c565b60048201356001600160401b038111610fa95761054c9060043691850101612446565b835260248201356001600160401b038111610fa9576105719060043691850101612446565b602084015260448201356001600160401b038111610fa9576105999060043691850101612446565b604084015260648201356001600160a01b0381168103610fa957606084015260848201356001600160401b038111610fa9576105db9060043691850101612446565b608084015260a48201356001600160401b038111610fa957600490830101606081360312610fa9576040519061061082611e3b565b80356001600160401b03811161119f57810136601f8201121561119f578035906106398261224a565b916106476040519384611efa565b80835260208084019160051b8301019136831161119b5760208101915b838310610fb9575050505060408392610693926080969552610688602082016124af565b6020850152016124df565b604082015260a085015260bf190112610fb5579160a491610747936106f8610124604051926106c184611ea8565b6106cd60c482016124ed565b84526106db60e482016124ed565b60208501526106ed61010482016124ed565b6040850152016124ed565b606082015260c08201528a52602481013560208b015261071a604482016124ed565b60408b015261072b606482016124ed565b60608b015261073c608482016124ed565b60808b0152016124ed565b60a08801526107558461224a565b936107636040519586611efa565b80855260a43560240190602086015b60248260051b60a43501018310610e94575050506020926108a697926107a7926064356004019260243560040190158a612c6a565b92908251908151918381015190604081015160018060a01b0360608301511660808301519160c060a085015194015194855115159589810151151590606060408201511515910151151591604051986107ff8a611e56565b89528b890152604088015260608701528c60808701526040519761082289611e0c565b88528888015260408701526060860152608085015260a084015260c083015282840151906108866108516143f2565b6040805187810195865260208601949094526001600160a01b039091169084015281606084015b03601f198101835282611efa565b5190206040516337b4a3c360e11b81529889928392908a60048501611fff565b0381877f00000000000000000000000000000000000000000000000000000000000000006001600160a01b03165af1958615610a90578496610e63575b508390604081015115610e5a575b606081015115610e4a575b608081015115610e3a575b60a081015115610e2a575b61091b8261224a565b916109296040519384611efa565b808352610938601f199161224a565b013660208401378490604081015115610e10575b80606060a092015115610dfc575b608081015115610de1575b015115610dc3575b5060608201526001600160a01b038581166020830181905292906109956024356044016122a6565b166040830152805180610a9b575b5050813b15610a775760405163f2fde38b60e01b815283816024818360018060a01b037f000000000000000000000000000000000000000000000000000000000000000016978860048401525af18015610a9057908491610a7b575b5050813b15610a7757610a2c83928392604051948580948193636aca94ff60e11b83528a600484016122ba565b03925af18015610a6c57610a57575b5050604080519182526001600160a01b03929092166020820152f35b610a62828092611efa565b61014d5780610a3b565b6040513d84823e3d90fd5b8280fd5b81610a8591611efa565b610a7757825f6109ff565b6040513d86823e3d90fd5b93610aaa85979396929761224a565b94610ab86040519687611efa565b808652610ac7601f199161224a565b01815b818110610d81575050805b8751811015610b755780610aeb6001928a612292565b5162ffffff815116906001600160681b036020820151169063ffffffff60408201511663ffffffff6060830151169060a063ffffffff6080850151169301519360405195610b3887611e0c565b8c8752602087015260408601526060850152608084015260a083015260c0820152610b638289612292565b52610b6e8188612292565b5001610ad5565b509195509390927f00000000000000000000000000000000000000000000000000000000000000006001600160a01b031690813b15610d7d5784604051809263cb4c08bd60e01b8252602482016020600484015281518091526044830190602060448260051b86010193019185905b828210610caa57505050508190038183865af18015610c9f57908591610c86575b50506040805190610c168183611efa565b60018252601f198101865b818110610c6457505090610c5c929160a085019182525191610c4283611ec3565b8252601860208301525190610c5682612261565b52612261565b505f806109a3565b6020908351610c7281611ec3565b5f81525f8382015282828701015201610c21565b81610c9091611efa565b610c9b57835f610c05565b8380fd5b6040513d87823e3d90fd5b929550929093506043198682030182528451602061010060c060e085019360018060a01b03815116865262ffffff8482015116848701526001600160681b03604082015116604087015263ffffffff606082015116606087015263ffffffff608082015116608087015263ffffffff60a08201511660a087015201519360e060c08201528451809452019201908b905b808210610d5b575050506020806001929601920192019285938a9593610be4565b82516001600160a01b0316845260209384019390920191600190910190610d3a565b8480fd5b602090604051610d9081611e0c565b84815284838201528460408201528460608201528460808201528460a0820152606060c082015282828a01015201610aca565b610dda81610dd3601b93916145fa565b5083612292565b525f61096d565b601a610df6610def856145fa565b9486612292565b52610965565b6019610e0a610def856145fa565b5261095a565b905060a06001916018610e2285612261565b52905061094c565b90610e34906145fa565b90610912565b90610e44906145fa565b90610907565b90610e54906145fa565b906108fc565b600191506108f1565b610e8691965060203d602011610e8d575b610e7e8183611efa565b810190611f2c565b945f6108e3565b503d610e74565b82356001600160401b038111610fb15760a4350160c06023198236030112610fb15760405190610ec382611e8d565b610ecf602482016124cf565b8252610edd6044820161249b565b6020830152610eee606482016124af565b6040830152610eff608482016124af565b6060830152610f1060a482016124af565b608083015260c4810135906001600160401b038211610fad5790602491010136601f82011215610fa957803590610f468261224a565b91610f546040519384611efa565b80835260208084019160051b83010191368311610fa557602001905b828210610f8d5750505060a0820152815260209283019201610772565b60208091610f9a84611dc8565b815201910190610f70565b8c80fd5b8980fd5b8a80fd5b8880fd5b8780fd5b82356001600160401b038111611196578201601f1981360301906102208212611170576040519161016083018381106001600160401b0382111761117d5760405260e0906110096020840161249b565b8452611017604084016124af565b6020850152611028606084016124af565b6040850152611039608084016124c0565b606085015261104a60a08401611dc8565b608085015260c083013560a08501526110648284016124cf565b60c085015261107661010084016124df565b8483015260ff1901126111705760405161108f81611e0c565b61109c61012083016124ed565b81526110ab61014083016124ed565b60208201526110bd61016083016124ed565b60408201526110cf61018083016124ed565b60608201526110e16101a083016124ed565b60808201526110f36101c083016124ed565b60a08201526111056101e083016124ed565b60c082015261010083015261111d61020082016124af565b610120830152610220810135906001600160401b0382116111765790602091010136601f8201121561117057916020929161115f849336908581359101612521565b610140820152815201920191610664565b50508f80fd5b5050508f80fd5b505050505060248f634e487b7160e01b81526041600452fd5b508f80fd5b8e80fd5b8b80fd5b8680fd5b90506020813d6020116111d5575b816111c260209383611efa565b810103126111d157515f6104e6565b5f80fd5b3d91506111b5565b9434156104e957634f6bc9ef60e01b8552600483905234602452604485fd5b5080fd5b503461014d578060031936011261014d576040517f00000000000000000000000000000000000000000000000000000000000000006001600160a01b03168152602090f35b503461014d57602036600319011261014d57604060209160043581528083522054604051908152f35b503461014d57604036600319011261014d57602435906004356001600160401b0383116111fc57604060031984360301126111fc576112ab6143f2565b604051636ff2e90560e11b8152600481018390526001600160a01b0382166024820152602081806044810103817f00000000000000000000000000000000000000000000000000000000000000006001600160a01b03165afa908115610a905784916116b4575b501561169357506040516320c94b1360e11b815260048101829052610380816024817f00000000000000000000000000000000000000000000000000000000000000006001600160a01b03165afa9081156116885783916113fd575b5060016102408192015160021c16036113ea5781928161139c9352836020526004019060408420549061444b565b90604051918291602083016020845282518091526020604085019301915b8181106113c8575050500390f35b82516001600160a01b03168452859450602093840193909201916001016113ba565b6378848a3960e01b825260045260249150fd5b8091506103803d8111611681575b6114158183611efa565b8101036103808112610c9b576101208112610c9b5760405161012081018181106001600160401b0382111761166d57604052611450836123f2565b815261145e602084016123f2565b602082015261146f604084016123f2565b6040820152611480606084016123f2565b606082015261149160808401612405565b608082015260a08301516001600160701b03811681036116695760a08201526114bc60c08401612405565b60c082015260e08301516001600160a01b03811681036116695760e08201526101008381015191015261026061011f1990910112610a77576001610240819261165d6103606040519261150e84611e71565b61151b6101208201612416565b845261152a6101408201612416565b602085015261153c6101608201612405565b604085015261154e6101808201612425565b60608501526115606101a08201612425565b60808501526115726101c08201612425565b60a08501526115846101e08201612425565b60c08501526115966102008201612425565b60e08501526115a86102208201612425565b6101008501526115b9858201612425565b6101208501526115cc6102608201612425565b6101408501526115df6102808201612425565b6101608501526115f26102a08201612425565b6101808501526116056102c08201612425565b6101a08501526116186102e08201612425565b6101c085015261162b6103008201612425565b6101e085015261163e6103208201612425565b6102008501526116516103408201612432565b61022085015201612416565b8282015292505061136e565b8580fd5b634e487b7160e01b86526041600452602486fd5b503d61140b565b6040513d85823e3d90fd5b6355e03cb160e11b83526004919091526001600160a01b0316602452604490fd5b90506020813d6020116116e6575b816116cf60209383611efa565b81010312610c9b576116e090612425565b5f611312565b3d91506116c2565b503461014d578060031936011261014d576040517f00000000000000000000000000000000000000000000000000000000000000006001600160a01b03168152602090f35b503461014d57602036600319011261014d57602061174f611d9c565b6040517f00000000000000000000000000000000000000000000000000000000000000006001600160a01b039081169216919091148152f35b5060803660031901126111d157600435602435916001600160401b0383116111d15760a060031984360301126111d1576044356001600160401b0381116111d1576117d7903690600401611ddc565b939092606435936001600160401b0385116111d157604060031986360301126111d157811591808315611b5557505060405163180e2b1160e31b8152306004820152602081602481347f00000000000000000000000000000000000000000000000000000000000000006001600160a01b03165af1908115611aef575f91611b1b575b50916119619661187892602094975b60040192866004019089612c6a565b91906040519061188782611e0c565b60608252606083830152606060408301525f6060830152606060808301526012604060a0840181516118b881611e3b565b606081525f878201525f83820152815281516118d381611e56565b5f81525f878201525f838201525f60608201525f608082015260c08601526118fd60248901611f1b565b63ffffffff87835101911690525101526119156143f2565b60405190848201925f8452604083015260018060a01b0316606082015260608152611941608082611efa565b5190206040516337b4a3c360e11b81529788928392908960048501611fff565b03815f7f00000000000000000000000000000000000000000000000000000000000000006001600160a01b03165af1948515611aef575f95611afa575b506001600160a01b03851691823b156111d15760405163f2fde38b60e01b81527f00000000000000000000000000000000000000000000000000000000000000006001600160a01b03166004820181905293905f8160248183865af18015611aef57611ada575b50604051611a1460a082611efa565b6004815260803660208301376018611a326060860192808452612261565b526019611a3f8251612282565b528051805160021015611ac6576060601a91015251805160031015611ab257601b6080919091015260208301526001600160a01b0390611a81906044016122a6565b166040820152813b15610a7757610a2c83928392604051948580948193636aca94ff60e11b83528a600484016122ba565b634e487b7160e01b86526032600452602486fd5b634e487b7160e01b87526032600452602487fd5b611ae79195505f90611efa565b5f935f611a05565b6040513d5f823e3d90fd5b611b1491955060203d602011610e8d57610e7e8183611efa565b935f61199e565b919290506020823d602011611b4d575b81611b3860209383611efa565b810103126111d157905190919061196161185a565b3d9150611b2b565b96929695909534611b725750956020926118789261196198611869565b634f6bc9ef60e01b5f526004523460245260445ffd5b346111d1575f3660031901126111d15760206040516127108152f35b346111d1575f3660031901126111d1576040517f00000000000000000000000000000000000000000000000000000000000000006001600160a01b03168152602090f35b346111d1575f3660031901126111d1576040517f00000000000000000000000000000000000000000000000000000000000000006001600160a01b03168152602090f35b346111d1575f3660031901126111d15760206040517f00000000000000000000000000000000000000000000000000000000000000008152f35b346111d15760803660031901126111d157611c7f611d9c565b50611c88611db2565b506064356001600160401b0381116111d157366023820112156111d15780600401356001600160401b0381116111d157369101602401116111d1577f00000000000000000000000000000000000000000000000000000000000000006001600160a01b031633036111d157604051630a85bd0160e11b8152602090f35b346111d1575f3660031901126111d1576040517f00000000000000000000000000000000000000000000000000000000000000006001600160a01b03168152602090f35b346111d15760203660031901126111d1576004359063ffffffff60e01b82168092036111d157602091634cbdc3fb60e11b8114908115611d8b575b5015158152f35b630a85bd0160e11b14905083611d84565b600435906001600160a01b03821682036111d157565b602435906001600160a01b03821682036111d157565b35906001600160a01b03821682036111d157565b9181601f840112156111d1578235916001600160401b0383116111d157602080850194606085020101116111d157565b60e081019081106001600160401b03821117611e2757604052565b634e487b7160e01b5f52604160045260245ffd5b606081019081106001600160401b03821117611e2757604052565b60a081019081106001600160401b03821117611e2757604052565b61026081019081106001600160401b03821117611e2757604052565b60c081019081106001600160401b03821117611e2757604052565b608081019081106001600160401b03821117611e2757604052565b604081019081106001600160401b03821117611e2757604052565b61010081019081106001600160401b03821117611e2757604052565b90601f801991011681019081106001600160401b03821117611e2757604052565b3563ffffffff811681036111d15790565b908160209103126111d157516001600160a01b03811681036111d15790565b805180835260209291819084018484015e5f828201840152601f01601f1916010190565b90602080835192838152019201905f5b818110611f8c5750505090565b909192602060c0600192865163ffffffff81511682526001600160401b03848201511684830152848060a01b03604082015116604083015260608101511515606083015265ffffffffffff608082015116608083015260a08580821b039101511660a08201520194019101919091611f7f565b929093919383526060602084015261208361205a61204461202e875161016060608901526101c0880190611f4b565b6020880151878203605f19016080890152611f4b565b6040870151868203605f190160a0880152611f4b565b60608601516001600160a01b031660c08601526080860151858203605f190160e0870152611f4b565b9360a081015190605f198587030161010086015260608601918051926060885283518091526080880190602060808260051b8b01019501915f905b82821061213057505050506080916040949596978560ff818563ffffffff602060c09801511660208601520151169101520151805115156101208801526020810151151561014088015283810151151561016088015260608101511515610180880152015115156101a0860152930152565b9091929560208061223c6001938e607f199082030186526102206101408c516001600160681b03815116845263ffffffff86820151168685015263ffffffff604082015116604085015261ffff6060820151166060850152878060a01b03608082015116608085015260a081015160a085015262ffffff60c08201511660c085015260ff60e08201511660e085015260c0610100820151805115156101008701528781015115156101208701526040810151151584870152606081015115156101608701526080810151151561018087015260a081015115156101a0870152015115156101c085015263ffffffff610120820151166101e0850152015191816102008201520190611f6f565b9801920192019092916120be565b6001600160401b038111611e275760051b60200190565b80511561226e5760200190565b634e487b7160e01b5f52603260045260245ffd5b80516001101561226e5760400190565b805182101561226e5760209160051b010190565b356001600160a01b03811681036111d15790565b91908252604060208301526101008201908051604084015260018060a01b03602082015116606084015260018060a01b03604082015116608084015260608101519160c060a08501528251809152602061012085019301905f5b8181106123dc57505050608081015191603f198482030160c0850152602080845192838152019301905f5b8181106123a45750505060a001519160e0603f1982840301910152602080835192838152019201905f5b8181106123765750505090565b825180516001600160a01b0316855260209081015160ff168186015260409094019390920191600101612369565b8251805186526020818101516001600160a01b031681880152604091820151918701919091526060909501949092019160010161233f565b8251855260209485019490920191600101612314565b519065ffffffffffff821682036111d157565b519063ffffffff821682036111d157565b519061ffff821682036111d157565b519081151582036111d157565b51906001600160a01b03821682036111d157565b81601f820112156111d1578035906001600160401b038211611e27576040519261247a601f8401601f191660200185611efa565b828452602083830101116111d157815f926020809301838601378301015290565b35906001600160681b03821682036111d157565b359063ffffffff821682036111d157565b359061ffff821682036111d157565b359062ffffff821682036111d157565b359060ff821682036111d157565b359081151582036111d157565b35906001600160401b03821682036111d157565b359065ffffffffffff821682036111d157565b92919261252d8261224a565b9361253b6040519586611efa565b60c06020868581520193028201918183116111d157925b82841061255f5750505050565b60c0848303126111d157602060c09160405161257a81611e8d565b612583876124af565b81526125908388016124fa565b838201526125a060408801611dc8565b60408201526125b1606088016124ed565b60608201526125c26080880161250e565b60808201526125d360a08801611dc8565b60a0820152815201930192612552565b903590607e19813603018212156111d1570190565b903590601e19813603018212156111d157018035906001600160401b0382116111d1576020019181360383136111d157565b908060209392818452848401375f828201840152601f01601f1916010190565b90602080835192838152019201905f5b8181106126675750505090565b825180516001600160e01b0316855260209081015163ffffffff16818601526040909401939092019160010161265a565b9080602083519182815201916020808360051b8301019401925f915b8383106126c357505050505090565b9091929394601f19828203018352855161034082019065ffffffffffff815116835263ffffffff60208201511660208401526001600160701b03604082015116604084015263ffffffff606082015116606084015260018060a01b03608082015116608084015261ffff61024060a08301518281511660a08701528260208201511660c087015263ffffffff60408201511660e0870152606081015115156101008701526080810151151561012087015260a0810151151561014087015260c0810151151561016087015260e0810151151561018087015261010081015115156101a087015261012081015115156101c087015261014081015115156101e0870152610160810151151561020087015261018081015115156102208701526101a08101511515828701526101c081015115156102608701526101e0810151151561028087015261020081015115156102a087015260018060a01b03610220820151166102c08701520151166102e084015260c0810151916103406103008501528251809152610360840160206103608360051b8701019401915f5b81811061291e575050505060e0015191610320818303910152815180825260208201906020808260051b8501019401925f5b8281106128b1575050505050602080600192970193019301919392906126b4565b9091929394602080612911600193601f19878203018952895190858060a01b038251168152858060a01b038483015116848201526060612900604084015160806040850152608084019061264a565b92015190606081840391015261264a565b9701950193929101612890565b9091929460208061294d60019361035f198b82030188526040838b518051845201519181858201520190611f6f565b9701940192910161285e565b9080602083519182815201916020808360051b8301019401925f915b83831061298457505050505090565b9091929394601f1982820301835285516020606081604085019360018060a01b0381511686520151936040838201528451809452019201905f905b8082106129de5750505060208060019297019301930191939290612975565b9091926020606060019263ffffffff60408851868060a01b03815116845260ff86820151168685015201511660408201520194019201906129bf565b903590601e19813603018212156111d157018035906001600160401b0382116111d157602001918160051b360383136111d157565b901561226e5780359061011e19813603018212156111d1570190565b919081101561226e5760051b8101359061011e19813603018212156111d1570190565b919081101561226e576060020190565b356001600160701b03811681036111d15790565b9035601e19823603018112156111d15701602081359101916001600160401b0382116111d15781360383136111d157565b9035601e19823603018112156111d15701602081359101916001600160401b0382116111d1578160051b360383136111d157565b9035601e19823603018112156111d15701602081359101916001600160401b0382116111d15760608202360383136111d157565b90602083828152019260208260051b82010193835f925b848410612b725750505050505090565b909192939495601f198282030184528635605e19843603018112156111d157606082019190840180356001600160a01b038116908190036111d157608091612bca918452602081013560208501526040810190612b17565b60606040850152938490529101915f905b808210612bfb575050506020806001929801940194019294939190612b62565b909192606080600192838060a01b03612c1388611dc8565b16815263ffffffff612c27602089016124af565b16602082015260408701356040820152019401920190612bdb565b90602080612c61612c538580612ae3565b604086526040860191612b4b565b93013591015290565b60c0526101809190915261020091909152604051935f92612c8a86611e8d565b5f86525f60208701525f604087015260608087015260606080870152606060a08701528592612cc26080610180510161018051612a1a565b9050156143cb57612cdc6080610180510161018051612a1a565b9050612cfa612cea8261224a565b6040516101205261012051611efa565b806101205152612d0c601f199161224a565b015f5b8181106143b157505063ffffffff612ddd612d2f60206101805101611f1b565b612d3e606061018051016146e8565b612dc9612d5a612d5461018051610180516125e3565b806125f8565b90612db7612d7b612d7161018051610180516125e3565b60208101906125f8565b9290936060612d9061018051610180516125e3565b0135966040519a8b991660208a01521515604089015260a0606089015260c088019161262a565b858103601f190160808701529161262a565b9060a083015203601f198101835282611efa565b61010052612dfd612ded8361224a565b6040516101405261014051611efa565b816101405152601f19612e0f8361224a565b015f5b81811061437e5750505f5b82811061425a57505f945f5b612e3c6080610180510161018051612a1a565b9050811015612eed57612e6f612e6582612e5f6080610180510161018051612a1a565b90612a6b565b60208101906146f5565b905f5b828110612e8457505050600101612e29565b6001600160681b03612ea26020612e9c848787612a8e565b0161472a565b16151580612ecc575b612eb8575b600101612e72565b98612ec46001916145fa565b999050612eb0565b50612ee0612edb828585612a8e565b611f1b565b63ffffffff164614612eab565b509091929394969596612f12612f028261224a565b6040516101e0526101e051611efa565b806101e05152612f24601f199161224a565b015f5b81811061421c5750505f6101a08190526101608190526102405260406101c0525b612f5b6080610180510161018051612a1a565b905061024051101561362657612f87612f7d6080610180510161018051612a1a565b6102405191612a6b565b6102205261ffff612f9f6101c051610220510161473e565b1615158061360a575b6135dc57610240511580806135c1575b156135a75742905b158061359a575b61357a57806101605261271061ffff612fe560e0610220510161473e565b16101561354f57612ffb60206101805101611f1b565b61300a606061018051016146e8565b6130126146a5565b5063ffffffff61302061461c565b9261ffff6130356101c051610220510161473e565b16845261ffff61304a60e0610220510161473e565b166020850152166101c05183015215156101c0820152600160a082015260016101e0820152600161020082015260018060a01b037f00000000000000000000000000000000000000000000000000000000000000001661022082015261ffff6130b9610100610220510161473e565b166102408201526101c05151916130d36101c05184611efa565b600183525f5b6101c051601f190181106135385750610220516130fa90606081019061474d565b906101c051519161310a83611ec3565b60018352369061311992612521565b602082015261312784612261565b5261313183612261565b506102205161313f90614782565b926102205160a0019361315185611f1b565b91610220516080019461316386612a9e565b936102205160c0019461317586611f1b565b916101c051519561318587611ede565b65ffffffffffff16865263ffffffff1660208601526001600160701b03166101c05185015263ffffffff166060840152608083015f905260a083015260c08201526101405160e08201526102405161012051906131e191612292565b526102405161012051906131f491612292565b506101c05161022051016132079061473e565b9261321190612a9e565b9361321b90611f1b565b9061322590611f1b565b6102205160e0016132359061473e565b9061022051610100016132479061473e565b926101c051519687966020880161010090526101208801610100519061326c91611f4b565b966101c05189015261ffff1660608801526001600160701b0316608087015263ffffffff1660a086015263ffffffff1660c085015261ffff1660e084015261ffff1661010083015203601f19810182526132c69082611efa565b610100525f5b6132df60206102205101610220516146f5565b905081101561352857613305816132ff60206102205101610220516146f5565b90612a8e565b60e08190526101c0516001600160a01b039161332191016122a6565b161561350f576001906001600160681b03613340602060e0510161472a565b161561350a5761335160e051611f1b565b6133c86133646101c05160e051016122a6565b613372602060e0510161472a565b926001600160681b036101c051519485936080602086015263ffffffff61339f60a0870161010051611f4b565b94166101c051860152888060a01b0316606085015216608083015203601f198101835282611efa565b610100524663ffffffff6133dd60e051611f1b565b160361350a576133f06102405142614795565b6134006101c05160e051016122a6565b9061340f602060e0510161472a565b916134186143f2565b6001600160681b036101c0515194168452858060a01b03166020840152848060a01b0316917f5c05d79eeb764b1f5069fb55a8558e8a5cec91813a64282bc198dc9084c75df060c051916101c05190a46001600160681b0361347d6102405142614795565b61348d6101c05160e051016122a6565b60a05261349e602060e0510161472a565b906101c051516080526134b2608051611e3b565b60805152838060a01b0360a0511660206080510152166101c05160805101526135026101a0516134e46101a0516145fa565b6101a0526080516134f8826101e051612292565b526101e051612292565b505b016132cc565b613504565b63215178a360e01b5f526102405160045260245260445ffd5b5061024080516001019052612f48565b6020906135436147a2565b828287010152016130d9565b61ffff61356160e0610220510161473e565b6380922c6d60e01b5f521660045261271060245260445ffd5b63ba2fe6f360e01b5f52610240516004526101605160245260445260645ffd5b5061016051811115612fc7565b65ffffffffffff6135ba61022051614782565b1690612fc0565b5065ffffffffffff6135d561022051614782565b1615612fb8565b61ffff6135f06101c051610220510161473e565b63088a7fb560e41b5f52610240516004521660245260445ffd5b5061361e606061022051016102205161474d565b905015612fa8565b6101005180516020909101206101e051608088015296949593948794929391929091907f00000000000000000000000000000000000000000000000000000000000000006001600160a01b0316156142135760ff60025b16946136888661224a565b956136986101c051519788611efa565b8087526136a7601f199161224a565b015f5b8181106141fc5750506101c051516136c181611ec3565b7f00000000000000000000000000000000000000000000000000000000000000006001600160a01b031681526136f68461224a565b6137056101c051519182611efa565b8481526020810136606087026102005101116111d15761020051905b60608702610200510182106141a5575050602082015261374087612261565b5261374a86612261565b507f00000000000000000000000000000000000000000000000000000000000000006001600160a01b0316614139575b60c0515f525f602052866101c0515f205515613f9f575b60206137b26137a661018051610180516125e3565b6101c0518101906125f8565b826138116137ff6137ea6101c096959651519687956307128b6b60e31b875260c051600488015260a0602488015260a487019161262a565b84810360031901604486015261012051612698565b8381036003190160648501528a612959565b82810360031981016084850152908990520181886001600160a01b037f0000000000000000000000000000000000000000000000000000000000000000165af18015613f9257613f63575b5061388461387c6138766080610180510161018051612a1a565b90612a4f565b60c0516147bb565b905261393b602061389e612d5461018051610180516125e3565b61394d6138bd6138b461018051610180516125e3565b858101906125f8565b919060606138d161018051610180516125e3565b01358c61390a6138df6143f2565b6101c051518a810194855260208501939093526001600160a01b031660408401528160608401610878565b519020926101c051519788968796635817819160e01b885260c051600489015260806024890152608488019161262a565b8581036003190160448701529161262a565b60648301919091520381877f00000000000000000000000000000000000000000000000000000000000000006001600160a01b03165af18015613f5657613f39575b50825b818110613ea55750507f00000000000000000000000000000000000000000000000000000000000000006001600160a01b0316803b15610a77576101c05151632142170760e11b815260c0513060048301527f00000000000000000000000000000000000000000000000000000000000000006001600160a01b0316602483015260448201529083908290606490829084905af18015613e9857908391613e83575b50506020810135613e70575b613a486143f2565b916101c051519360c085526101805135607e1961018051360301811215610a7757610180510160a060c08701526060613ae1613abe613a9d613a8a8580612ab2565b60806101608d01526101e08c019161262a565b613aaa6020860186612ab2565b8b830361015f19016101808d01529061262a565b613acd6101c051850185612ab2565b8a830361015f19016101a08c01529061262a565b9101356101c087015263ffffffff613afe602061018051016124af565b1660e08701526101c051610180516001600160a01b0391613b1f9101611dc8565b16610100870152613b35606061018051016124ed565b1515610120870152613b506080610180510161018051612ae3565b60bf92919219888303016101408901528082526020820160208260051b840101958481945b848610613c015750505050505050849392613bbf83613bcf937fb9a95983be1f2c4cbad2f5a32c4606b35d2a6ac166a79dbcdf955a30061314f898613be096036020890152612959565b908582036101c051870152612c42565b838103606085015261012051612698565b60808301949094526001600160a01b031660a082015260c0519281900390a2565b90919293949597601f1982820301855288359061011e1984360301821215610d7d5761012081019165ffffffffffff613c3b86830161250e565b168252613c4e8186016020810190612b17565b61012060208501529384905261014083019387905b808210613e155750505061ffff613c806101c051878401016124c0565b166101c05183015260608582010135601e198683013603018112156111a35785820101602081359101936001600160401b038211610fb55760c0820236038513610fb5578381036060850152818152602001939087905b808210613d7657505050608085820101356001600160701b0381168091036111a357928261010061ffff613d61828a6020989760019a60808b9a015263ffffffff613d2660a0848401016124af565b1660a088015263ffffffff613d3f60c0848401016124af565b1660c088015284613d5460e0848401016124c0565b1660e088015201016124c0565b169101529a0195019601949395929190613b75565b90919460c08060019263ffffffff613d8d8a6124af565b1681526001600160401b03613da460208b016124fa565b166020820152838060a01b03613dbe6101c0518b01611dc8565b166101c051820152613dd260608a016124ed565b1515606082015265ffffffffffff613dec60808b0161250e565b166080820152838060a01b03613e0460a08b01611dc8565b1660a0820152019601920190613cd7565b90919460608060019263ffffffff613e2c8a6124af565b1681526001600160681b03613e4360208b0161249b565b166020820152838060a01b03613e5d6101c0518b01611dc8565b166101c051820152019601920190613c63565b613e7d818560c05161444b565b50613a40565b81613e8d91611efa565b6111fc57815f613a34565b6101c051513d85823e3d90fd5b613ebb613eb6828461020051612a8e565b6122a6565b6020613ecb838561020051612a8e565b013560ff811681036116695760019291613f3391613efa6101c051613ef4868961020051612a8e565b01611f1b565b613f0960206101805101611f1b565b91613f2a6080613f2461387682610180510161018051612a1a565b01612a9e565b9360c051614851565b01613992565b613f519060203d602011610e8d57610e7e8183611efa565b61398f565b6101c051513d86823e3d90fd5b6020813d602011613f8a575b81613f7c60209383611efa565b810103126111d1575161385c565b3d9150613f6f565b6101c051513d87823e3d90fd5b6101c051516331a9108f60e11b815260c05160048201526020816024817f00000000000000000000000000000000000000000000000000000000000000006001600160a01b03165afa9081156140c4575f916140ff575b50613fff6143f2565b6001600160a01b038281169116036140d1577f00000000000000000000000000000000000000000000000000000000000000006001600160a01b03163b156111d1576101c05151632142170760e11b815260c0516001600160a01b0392831660048301523060248301526044820152905f908290606490829084907f0000000000000000000000000000000000000000000000000000000000000000165af180156140c4576140af575b50613791565b6140bc9194505f90611efa565b5f925f6140a9565b6101c051513d5f823e3d90fd5b6140d96143f2565b6355e03cb160e11b5f90815260c0516004526001600160a01b0391909116602452604490fd5b90506020813d602011614131575b8161411a60209383611efa565b810103126111d15761412b90612432565b5f613ff6565b3d915061410d565b6101c05151614149602082611efa565b5f81526101c051519061415b82611ec3565b7f00000000000000000000000000000000000000000000000000000000000000006001600160a01b03168252602082015261419587612282565b5261419f86612282565b5061377a565b6060823603126111d15760206060916101c051516141c281611e3b565b6141cb85611dc8565b81526141d88386016124df565b838201526141ea6101c05186016124af565b6101c051820152815201910190613721565b6020906142076147a2565b82828b010152016136aa565b60ff600161367d565b6020905f99939495969798995060405161423581611e3b565b5f81525f838201525f604082015282826101e051010152019796959493929197612f27565b614268818461020051612a8e565b6040805191906142789083611efa565b6001825260205f5b81811061435b5750508061429960406142d49301611f1b565b63ffffffff604051916142ab83611ec3565b6001600160e01b0383521660208201526142c484612261565b526142ce83612261565b506122a6565b906040516142e3602082611efa565b5f8152906001939291604051926142f984611ea8565b858060a01b037f0000000000000000000000000000000000000000000000000000000000000000168452858060a01b03166020840152604083015260608201526143468261014051612292565b526143548161014051612292565b5001612e1d565b60209060405161436a81611ec3565b5f81525f8382015282828701015201614280565b60209060405161438d81611ea8565b5f81525f838201526060604082015260608082015282826101405101015201612e12565b6020906143bc6146a5565b82826101205101015201612d0f565b6143de6080610180510161018051612a1a565b9050630785c91960e11b5f5260045260245ffd5b601436101580614419575b156144155760131936013681116111d1573560601c90565b3390565b50337f00000000000000000000000000000000000000000000000000000000000000006001600160a01b0316146143fd565b91614525926144f65f93827f300339ade500635ed72eec6541728d68d312f6e82257c0538a88effe214ec60661447f6143f2565b60405180918582526060602083015261449b606083018a612c42565b6001600160a01b0390911660408301520390a26108786144ec6144bc6143f2565b604080516020808201968752890135918101919091526001600160a01b0390911660608201529182906080820190565b5190209280612a1a565b94906040519586948594639d7f900160e01b865260048601526024850152606060448501526064840191612b4b565b0381837f00000000000000000000000000000000000000000000000000000000000000006001600160a01b03165af1908115611aef575f91614565575090565b90503d805f833e6145768183611efa565b8101906020818303126111d1578051906001600160401b0382116111d157019080601f830112156111d15781516145ac8161224a565b926145ba6040519485611efa565b81845260208085019260051b8201019283116111d157602001905b8282106145e25750505090565b602080916145ef84612432565b8152019101906145d5565b5f1981146146085760010190565b634e487b7160e01b5f52601160045260245ffd5b6040519061462982611e71565b5f610240838281528260208201528260408201528260608201528260808201528260a08201528260c08201528260e08201528261010082015282610120820152826101408201528261016082015282610180820152826101a0820152826101c0820152826101e082015282610200820152826102208201520152565b604051906146b282611ede565b606060e0835f81525f60208201525f60408201525f838201525f60808201526146d961461c565b60a08201528260c08201520152565b3580151581036111d15790565b903590601e19813603018212156111d157018035906001600160401b0382116111d1576020019160608202360383136111d157565b356001600160681b03811681036111d15790565b3561ffff811681036111d15790565b903590601e19813603018212156111d157018035906001600160401b0382116111d1576020019160c08202360383136111d157565b3565ffffffffffff811681036111d15790565b9190820180921161460857565b604051906147af82611ec3565b60606020835f81520152565b919065ffffffffffff6147cd82614782565b1615908115614835575b506148305762278d00420191824211614608577f48a9634f50564cfe6648ff5e75795a36873bf96c408523d50017032657e67198836148146143f2565b604080519283526001600160a01b0391909116602083015290a2565b5f9150565b61483f9150614782565b65ffffffffffff42911610155f6147d7565b939160ff90959391951690604d8211614608576001600160701b0382600a0a94169283155f14614a9a57505050505f5b806149265750600160601b9290505b7f00000000000000000000000000000000000000000000000000000000000000006001600160a01b0316803b156111d1576040516349e3038360e01b81526004810193909352612710602484015260c860448401526202a30060648401526001600160a01b039182166084840152921660a4820152905f90829060c490829084905af161491a5750565b5f61492491611efa565b565b6001600160a01b03841661eeee03614a94575f5b604051630760c75760e21b81526020816004817f00000000000000000000000000000000000000000000000000000000000000006001600160a01b03165afa908115611aef575f91614a51575b5060405163ea78803f60e01b81526004810186905290602090829060249082906001600160a01b03165afa908115611aef575f91614a32575b506001600160a01b03169081158015614a20575b156149f85750600160601b94925050505b6001600160a01b03831661489057505050565b6001600160a01b03161015614a175790614a1191614d4c565b916149e5565b614a1191614d4c565b506001600160a01b03811682146149d4565b614a4b915060203d602011610e8d57610e7e8183611efa565b5f6149c0565b90506020813d602011614a8c575b81614a6c60209383611efa565b810103126111d157516001600160a01b03811681036111d1576020614987565b3d9150614a5f565b8361493a565b63ffffffff9182169116818103614ab357505050614881565b6040516307aaf34d60e21b81526020816004817f00000000000000000000000000000000000000000000000000000000000000006001600160a01b03165afa908115611aef575f91614b9c575b506020926084916040519586948593631df139fd60e11b85528b600486015260248501526044840152606483015260018060a01b03165afa5f9181614b68575b50614b4c575050505050565b8015614b615782614b5c92614cac565b614881565b5050505050565b9091506020813d602011614b94575b81614b8460209383611efa565b810103126111d15751905f614b40565b3d9150614b77565b90506020813d602011614bd7575b81614bb760209383611efa565b810103126111d157516001600160a01b03811681036111d1576020614b00565b3d9150614baa565b8115614be9570490565b634e487b7160e01b5f52601260045260245ffd5b5f19600160c01b8209918160c01b91828085109403938085039414614c9d5781841015614c80578190600160c01b9009600182190182168092046002816003021880820260020302808202600203028082026002030280820260020302808202600203028091026002030293600183805f03040190848311900302920304170290565b630c740aef60e31b5f52600452600160c01b60245260445260645ffd5b5090614ca99250614bdf565b90565b90915f198383099280830292838086109503948086039514614d3f5782851015614d275790829109600182190182168092046002816003021880820260020302808202600203028082026002030280820260020302808202600203028091026002030293600183805f03040190848311900302920304170290565b630c740aef60e31b5f5260045260245260445260645ffd5b505090614ca99250614bdf565b907801000000000000000100000000000000010000000000000001811115614daf575f195b8115908115614da5575b50614d9f576001600160a01b0391614d9b91614d9691614bfd565b614dde565b1690565b50505f90565b905082115f614d7b565b806001600160401b03026001600160401b038104820315614d7157634e487b7160e01b5f52601160045260245ffd5b90811561483057816001600160801b821015614efd575b600482600160401b614ea7941015614ef0575b640100000000811015614ee3575b62010000811015614ed6575b610100811015614eca575b6010811015614ebe575b1015614eb6575b614e488185614bdf565b0160011c614e568185614bdf565b0160011c614e648185614bdf565b0160011c614e728185614bdf565b0160011c614e808185614bdf565b0160011c614e8e8185614bdf565b0160011c614e9c8185614bdf565b0160011c8093614bdf565b80831015614eb25750565b9150565b60011b614e3e565b811c9160021b91614e37565b60081c91811b91614e2d565b60101c9160081b91614e22565b60201c9160101b91614e16565b60401c9160201b91614e08565b5050608082901c600160401b614df556fea164736f6c634300081c000a",
	"gitCommit": "npm:@rev-net/core-v6@0.0.89",
	"gitDirty": false,
	"history": []
}