{
	"format": "sphinx-sol-ct-artifact-1",
	"address": "0x70d28338226e61a442ef516c731d371d13c9c6df",
	"sourceName": "node_modules/@bannynet/core-v6/src/Banny721TokenUriResolver.sol",
	"contractName": "Banny721TokenUriResolver",
	"chainId": "0xaa37dc",
	"abi": [
		{
			"type": "constructor",
			"inputs": [
				{
					"name": "bannyBodySvg",
					"type": "string",
					"internalType": "string"
				},
				{
					"name": "defaultNecklaceSvg",
					"type": "string",
					"internalType": "string"
				},
				{
					"name": "defaultMouthSvg",
					"type": "string",
					"internalType": "string"
				},
				{
					"name": "defaultStandardEyesSvg",
					"type": "string",
					"internalType": "string"
				},
				{
					"name": "defaultAlienEyesSvg",
					"type": "string",
					"internalType": "string"
				},
				{
					"name": "owner",
					"type": "address",
					"internalType": "address"
				},
				{
					"name": "trustedForwarder",
					"type": "address",
					"internalType": "address"
				}
			],
			"stateMutability": "nonpayable"
		},
		{
			"type": "function",
			"name": "assetIdsOf",
			"inputs": [
				{
					"name": "hook",
					"type": "address",
					"internalType": "address"
				},
				{
					"name": "bannyBodyId",
					"type": "uint256",
					"internalType": "uint256"
				}
			],
			"outputs": [
				{
					"name": "backgroundId",
					"type": "uint256",
					"internalType": "uint256"
				},
				{
					"name": "outfitIds",
					"type": "uint256[]",
					"internalType": "uint256[]"
				}
			],
			"stateMutability": "view"
		},
		{
			"type": "function",
			"name": "bannyBody",
			"inputs": [],
			"outputs": [
				{
					"name": "",
					"type": "string",
					"internalType": "string"
				}
			],
			"stateMutability": "view"
		},
		{
			"type": "function",
			"name": "decorateBannyWith",
			"inputs": [
				{
					"name": "hook",
					"type": "address",
					"internalType": "address"
				},
				{
					"name": "bannyBodyId",
					"type": "uint256",
					"internalType": "uint256"
				},
				{
					"name": "backgroundId",
					"type": "uint256",
					"internalType": "uint256"
				},
				{
					"name": "outfitIds",
					"type": "uint256[]",
					"internalType": "uint256[]"
				}
			],
			"outputs": [],
			"stateMutability": "nonpayable"
		},
		{
			"type": "function",
			"name": "defaultAlienEyes",
			"inputs": [],
			"outputs": [
				{
					"name": "",
					"type": "string",
					"internalType": "string"
				}
			],
			"stateMutability": "view"
		},
		{
			"type": "function",
			"name": "defaultMouth",
			"inputs": [],
			"outputs": [
				{
					"name": "",
					"type": "string",
					"internalType": "string"
				}
			],
			"stateMutability": "view"
		},
		{
			"type": "function",
			"name": "defaultNecklace",
			"inputs": [],
			"outputs": [
				{
					"name": "",
					"type": "string",
					"internalType": "string"
				}
			],
			"stateMutability": "view"
		},
		{
			"type": "function",
			"name": "defaultStandardEyes",
			"inputs": [],
			"outputs": [
				{
					"name": "",
					"type": "string",
					"internalType": "string"
				}
			],
			"stateMutability": "view"
		},
		{
			"type": "function",
			"name": "isTrustedForwarder",
			"inputs": [
				{
					"name": "forwarder",
					"type": "address",
					"internalType": "address"
				}
			],
			"outputs": [
				{
					"name": "",
					"type": "bool",
					"internalType": "bool"
				}
			],
			"stateMutability": "view"
		},
		{
			"type": "function",
			"name": "lockOutfitChangesFor",
			"inputs": [
				{
					"name": "hook",
					"type": "address",
					"internalType": "address"
				},
				{
					"name": "bannyBodyId",
					"type": "uint256",
					"internalType": "uint256"
				}
			],
			"outputs": [],
			"stateMutability": "nonpayable"
		},
		{
			"type": "function",
			"name": "namesOf",
			"inputs": [
				{
					"name": "hook",
					"type": "address",
					"internalType": "address"
				},
				{
					"name": "tokenId",
					"type": "uint256",
					"internalType": "uint256"
				}
			],
			"outputs": [
				{
					"name": "",
					"type": "string",
					"internalType": "string"
				},
				{
					"name": "",
					"type": "string",
					"internalType": "string"
				},
				{
					"name": "",
					"type": "string",
					"internalType": "string"
				}
			],
			"stateMutability": "view"
		},
		{
			"type": "function",
			"name": "onERC721Received",
			"inputs": [
				{
					"name": "operator",
					"type": "address",
					"internalType": "address"
				},
				{
					"name": "from",
					"type": "address",
					"internalType": "address"
				},
				{
					"name": "tokenId",
					"type": "uint256",
					"internalType": "uint256"
				},
				{
					"name": "data",
					"type": "bytes",
					"internalType": "bytes"
				}
			],
			"outputs": [
				{
					"name": "",
					"type": "bytes4",
					"internalType": "bytes4"
				}
			],
			"stateMutability": "view"
		},
		{
			"type": "function",
			"name": "outfitLockedUntil",
			"inputs": [
				{
					"name": "hook",
					"type": "address",
					"internalType": "address"
				},
				{
					"name": "bannyBodyId",
					"type": "uint256",
					"internalType": "uint256"
				}
			],
			"outputs": [
				{
					"name": "",
					"type": "uint256",
					"internalType": "uint256"
				}
			],
			"stateMutability": "view"
		},
		{
			"type": "function",
			"name": "owner",
			"inputs": [],
			"outputs": [
				{
					"name": "",
					"type": "address",
					"internalType": "address"
				}
			],
			"stateMutability": "view"
		},
		{
			"type": "function",
			"name": "renounceOwnership",
			"inputs": [],
			"outputs": [],
			"stateMutability": "nonpayable"
		},
		{
			"type": "function",
			"name": "setMetadata",
			"inputs": [
				{
					"name": "description",
					"type": "string",
					"internalType": "string"
				},
				{
					"name": "url",
					"type": "string",
					"internalType": "string"
				},
				{
					"name": "baseUri",
					"type": "string",
					"internalType": "string"
				}
			],
			"outputs": [],
			"stateMutability": "nonpayable"
		},
		{
			"type": "function",
			"name": "setProductNames",
			"inputs": [
				{
					"name": "upcs",
					"type": "uint256[]",
					"internalType": "uint256[]"
				},
				{
					"name": "names",
					"type": "string[]",
					"internalType": "string[]"
				}
			],
			"outputs": [],
			"stateMutability": "nonpayable"
		},
		{
			"type": "function",
			"name": "setSvgContentsOf",
			"inputs": [
				{
					"name": "upcs",
					"type": "uint256[]",
					"internalType": "uint256[]"
				},
				{
					"name": "svgContents",
					"type": "string[]",
					"internalType": "string[]"
				}
			],
			"outputs": [],
			"stateMutability": "nonpayable"
		},
		{
			"type": "function",
			"name": "setSvgHashesOf",
			"inputs": [
				{
					"name": "upcs",
					"type": "uint256[]",
					"internalType": "uint256[]"
				},
				{
					"name": "svgHashes",
					"type": "bytes32[]",
					"internalType": "bytes32[]"
				}
			],
			"outputs": [],
			"stateMutability": "nonpayable"
		},
		{
			"type": "function",
			"name": "svgBaseUri",
			"inputs": [],
			"outputs": [
				{
					"name": "",
					"type": "string",
					"internalType": "string"
				}
			],
			"stateMutability": "view"
		},
		{
			"type": "function",
			"name": "svgDescription",
			"inputs": [],
			"outputs": [
				{
					"name": "",
					"type": "string",
					"internalType": "string"
				}
			],
			"stateMutability": "view"
		},
		{
			"type": "function",
			"name": "svgExternalUrl",
			"inputs": [],
			"outputs": [
				{
					"name": "",
					"type": "string",
					"internalType": "string"
				}
			],
			"stateMutability": "view"
		},
		{
			"type": "function",
			"name": "svgHashOf",
			"inputs": [
				{
					"name": "upc",
					"type": "uint256",
					"internalType": "uint256"
				}
			],
			"outputs": [
				{
					"name": "",
					"type": "bytes32",
					"internalType": "bytes32"
				}
			],
			"stateMutability": "view"
		},
		{
			"type": "function",
			"name": "svgOf",
			"inputs": [
				{
					"name": "hook",
					"type": "address",
					"internalType": "address"
				},
				{
					"name": "tokenId",
					"type": "uint256",
					"internalType": "uint256"
				},
				{
					"name": "shouldDressBannyBody",
					"type": "bool",
					"internalType": "bool"
				},
				{
					"name": "shouldIncludeBackgroundOnBannyBody",
					"type": "bool",
					"internalType": "bool"
				}
			],
			"outputs": [
				{
					"name": "",
					"type": "string",
					"internalType": "string"
				}
			],
			"stateMutability": "view"
		},
		{
			"type": "function",
			"name": "tokenUriOf",
			"inputs": [
				{
					"name": "hook",
					"type": "address",
					"internalType": "address"
				},
				{
					"name": "tokenId",
					"type": "uint256",
					"internalType": "uint256"
				}
			],
			"outputs": [
				{
					"name": "",
					"type": "string",
					"internalType": "string"
				}
			],
			"stateMutability": "view"
		},
		{
			"type": "function",
			"name": "transferOwnership",
			"inputs": [
				{
					"name": "newOwner",
					"type": "address",
					"internalType": "address"
				}
			],
			"outputs": [],
			"stateMutability": "nonpayable"
		},
		{
			"type": "function",
			"name": "trustedForwarder",
			"inputs": [],
			"outputs": [
				{
					"name": "",
					"type": "address",
					"internalType": "address"
				}
			],
			"stateMutability": "view"
		},
		{
			"type": "function",
			"name": "userOf",
			"inputs": [
				{
					"name": "hook",
					"type": "address",
					"internalType": "address"
				},
				{
					"name": "backgroundId",
					"type": "uint256",
					"internalType": "uint256"
				}
			],
			"outputs": [
				{
					"name": "",
					"type": "uint256",
					"internalType": "uint256"
				}
			],
			"stateMutability": "view"
		},
		{
			"type": "function",
			"name": "wearerOf",
			"inputs": [
				{
					"name": "hook",
					"type": "address",
					"internalType": "address"
				},
				{
					"name": "outfitId",
					"type": "uint256",
					"internalType": "uint256"
				}
			],
			"outputs": [
				{
					"name": "",
					"type": "uint256",
					"internalType": "uint256"
				}
			],
			"stateMutability": "view"
		},
		{
			"type": "event",
			"name": "DecorateBanny",
			"inputs": [
				{
					"name": "hook",
					"type": "address",
					"indexed": true,
					"internalType": "address"
				},
				{
					"name": "bannyBodyId",
					"type": "uint256",
					"indexed": true,
					"internalType": "uint256"
				},
				{
					"name": "backgroundId",
					"type": "uint256",
					"indexed": true,
					"internalType": "uint256"
				},
				{
					"name": "outfitIds",
					"type": "uint256[]",
					"indexed": false,
					"internalType": "uint256[]"
				},
				{
					"name": "caller",
					"type": "address",
					"indexed": false,
					"internalType": "address"
				}
			],
			"anonymous": false
		},
		{
			"type": "event",
			"name": "OwnershipTransferred",
			"inputs": [
				{
					"name": "previousOwner",
					"type": "address",
					"indexed": true,
					"internalType": "address"
				},
				{
					"name": "newOwner",
					"type": "address",
					"indexed": true,
					"internalType": "address"
				}
			],
			"anonymous": false
		},
		{
			"type": "event",
			"name": "SetMetadata",
			"inputs": [
				{
					"name": "description",
					"type": "string",
					"indexed": false,
					"internalType": "string"
				},
				{
					"name": "externalUrl",
					"type": "string",
					"indexed": false,
					"internalType": "string"
				},
				{
					"name": "baseUri",
					"type": "string",
					"indexed": false,
					"internalType": "string"
				},
				{
					"name": "caller",
					"type": "address",
					"indexed": false,
					"internalType": "address"
				}
			],
			"anonymous": false
		},
		{
			"type": "event",
			"name": "SetProductName",
			"inputs": [
				{
					"name": "upc",
					"type": "uint256",
					"indexed": true,
					"internalType": "uint256"
				},
				{
					"name": "name",
					"type": "string",
					"indexed": false,
					"internalType": "string"
				},
				{
					"name": "caller",
					"type": "address",
					"indexed": false,
					"internalType": "address"
				}
			],
			"anonymous": false
		},
		{
			"type": "event",
			"name": "SetSvgContent",
			"inputs": [
				{
					"name": "upc",
					"type": "uint256",
					"indexed": true,
					"internalType": "uint256"
				},
				{
					"name": "svgContent",
					"type": "string",
					"indexed": false,
					"internalType": "string"
				},
				{
					"name": "caller",
					"type": "address",
					"indexed": false,
					"internalType": "address"
				}
			],
			"anonymous": false
		},
		{
			"type": "event",
			"name": "SetSvgHash",
			"inputs": [
				{
					"name": "upc",
					"type": "uint256",
					"indexed": true,
					"internalType": "uint256"
				},
				{
					"name": "svgHash",
					"type": "bytes32",
					"indexed": true,
					"internalType": "bytes32"
				},
				{
					"name": "caller",
					"type": "address",
					"indexed": false,
					"internalType": "address"
				}
			],
			"anonymous": false
		},
		{
			"type": "error",
			"name": "Banny721TokenUriResolver_ArrayLengthMismatch",
			"inputs": [
				{
					"name": "firstLength",
					"type": "uint256",
					"internalType": "uint256"
				},
				{
					"name": "secondLength",
					"type": "uint256",
					"internalType": "uint256"
				}
			]
		},
		{
			"type": "error",
			"name": "Banny721TokenUriResolver_BannyBodyNotBodyCategory",
			"inputs": [
				{
					"name": "hook",
					"type": "address",
					"internalType": "address"
				},
				{
					"name": "bannyBodyId",
					"type": "uint256",
					"internalType": "uint256"
				},
				{
					"name": "category",
					"type": "uint256",
					"internalType": "uint256"
				}
			]
		},
		{
			"type": "error",
			"name": "Banny721TokenUriResolver_CantAccelerateTheLock",
			"inputs": [
				{
					"name": "hook",
					"type": "address",
					"internalType": "address"
				},
				{
					"name": "bannyBodyId",
					"type": "uint256",
					"internalType": "uint256"
				},
				{
					"name": "currentLockedUntil",
					"type": "uint256",
					"internalType": "uint256"
				},
				{
					"name": "newLockUntil",
					"type": "uint256",
					"internalType": "uint256"
				}
			]
		},
		{
			"type": "error",
			"name": "Banny721TokenUriResolver_ContentsAlreadyStored",
			"inputs": [
				{
					"name": "upc",
					"type": "uint256",
					"internalType": "uint256"
				}
			]
		},
		{
			"type": "error",
			"name": "Banny721TokenUriResolver_ContentsMismatch",
			"inputs": [
				{
					"name": "upc",
					"type": "uint256",
					"internalType": "uint256"
				},
				{
					"name": "expectedHash",
					"type": "bytes32",
					"internalType": "bytes32"
				},
				{
					"name": "actualHash",
					"type": "bytes32",
					"internalType": "bytes32"
				}
			]
		},
		{
			"type": "error",
			"name": "Banny721TokenUriResolver_DuplicateCategory",
			"inputs": [
				{
					"name": "category",
					"type": "uint256",
					"internalType": "uint256"
				}
			]
		},
		{
			"type": "error",
			"name": "Banny721TokenUriResolver_HashAlreadyStored",
			"inputs": [
				{
					"name": "upc",
					"type": "uint256",
					"internalType": "uint256"
				},
				{
					"name": "existingHash",
					"type": "bytes32",
					"internalType": "bytes32"
				}
			]
		},
		{
			"type": "error",
			"name": "Banny721TokenUriResolver_HashNotFound",
			"inputs": [
				{
					"name": "upc",
					"type": "uint256",
					"internalType": "uint256"
				}
			]
		},
		{
			"type": "error",
			"name": "Banny721TokenUriResolver_HeadAlreadyAdded",
			"inputs": [
				{
					"name": "category",
					"type": "uint256",
					"internalType": "uint256"
				}
			]
		},
		{
			"type": "error",
			"name": "Banny721TokenUriResolver_OutfitChangesLocked",
			"inputs": [
				{
					"name": "hook",
					"type": "address",
					"internalType": "address"
				},
				{
					"name": "bannyBodyId",
					"type": "uint256",
					"internalType": "uint256"
				},
				{
					"name": "lockedUntil",
					"type": "uint256",
					"internalType": "uint256"
				}
			]
		},
		{
			"type": "error",
			"name": "Banny721TokenUriResolver_SuitAlreadyAdded",
			"inputs": [
				{
					"name": "category",
					"type": "uint256",
					"internalType": "uint256"
				}
			]
		},
		{
			"type": "error",
			"name": "Banny721TokenUriResolver_UnauthorizedBackground",
			"inputs": [
				{
					"name": "hook",
					"type": "address",
					"internalType": "address"
				},
				{
					"name": "backgroundId",
					"type": "uint256",
					"internalType": "uint256"
				},
				{
					"name": "sender",
					"type": "address",
					"internalType": "address"
				},
				{
					"name": "owner",
					"type": "address",
					"internalType": "address"
				}
			]
		},
		{
			"type": "error",
			"name": "Banny721TokenUriResolver_UnauthorizedBannyBody",
			"inputs": [
				{
					"name": "hook",
					"type": "address",
					"internalType": "address"
				},
				{
					"name": "bannyBodyId",
					"type": "uint256",
					"internalType": "uint256"
				},
				{
					"name": "sender",
					"type": "address",
					"internalType": "address"
				},
				{
					"name": "owner",
					"type": "address",
					"internalType": "address"
				}
			]
		},
		{
			"type": "error",
			"name": "Banny721TokenUriResolver_UnauthorizedOutfit",
			"inputs": [
				{
					"name": "hook",
					"type": "address",
					"internalType": "address"
				},
				{
					"name": "outfitId",
					"type": "uint256",
					"internalType": "uint256"
				},
				{
					"name": "sender",
					"type": "address",
					"internalType": "address"
				},
				{
					"name": "owner",
					"type": "address",
					"internalType": "address"
				}
			]
		},
		{
			"type": "error",
			"name": "Banny721TokenUriResolver_UnauthorizedTransfer",
			"inputs": [
				{
					"name": "operator",
					"type": "address",
					"internalType": "address"
				},
				{
					"name": "expectedOperator",
					"type": "address",
					"internalType": "address"
				}
			]
		},
		{
			"type": "error",
			"name": "Banny721TokenUriResolver_UnorderedCategories",
			"inputs": [
				{
					"name": "previousCategory",
					"type": "uint256",
					"internalType": "uint256"
				},
				{
					"name": "nextCategory",
					"type": "uint256",
					"internalType": "uint256"
				}
			]
		},
		{
			"type": "error",
			"name": "Banny721TokenUriResolver_UnrecognizedBackground",
			"inputs": [
				{
					"name": "hook",
					"type": "address",
					"internalType": "address"
				},
				{
					"name": "backgroundId",
					"type": "uint256",
					"internalType": "uint256"
				},
				{
					"name": "category",
					"type": "uint256",
					"internalType": "uint256"
				}
			]
		},
		{
			"type": "error",
			"name": "Banny721TokenUriResolver_UnrecognizedCategory",
			"inputs": [
				{
					"name": "category",
					"type": "uint256",
					"internalType": "uint256"
				}
			]
		},
		{
			"type": "error",
			"name": "Banny721TokenUriResolver_UnrecognizedProduct",
			"inputs": [
				{
					"name": "upc",
					"type": "uint256",
					"internalType": "uint256"
				}
			]
		},
		{
			"type": "error",
			"name": "OwnableInvalidOwner",
			"inputs": [
				{
					"name": "owner",
					"type": "address",
					"internalType": "address"
				}
			]
		},
		{
			"type": "error",
			"name": "OwnableUnauthorizedAccount",
			"inputs": [
				{
					"name": "account",
					"type": "address",
					"internalType": "address"
				}
			]
		},
		{
			"type": "error",
			"name": "ReentrancyGuardReentrantCall",
			"inputs": []
		}
	],
	"args": [
		"<g class=\"a1\"><path d=\"M173 53h4v17h-4z\"/></g><g class=\"a2\"><path d=\"M167 57h3v10h-3z\"/><path d=\"M169 53h4v17h-4z\"/></g><g class=\"a3\"><path d=\"M167 53h3v4h-3z\"/><path d=\"M163 57h4v10h-4z\"/><path d=\"M167 67h3v3h-3z\"/></g><g class=\"b1\"><path d=\"M213 253h-3v-3-3h-3v-7-3h-4v-10h-3v-7-7-3h-3v-73h-4v-10h-3v-10h-3v-7h-4v-7h-3v-3h-3v-3h-4v10h4v10h3v10h3v3h4v7 3 70 3h3v7h3v20h4v7h3v3h3v3h4v4h3v3h3v-3-4z\"/><path d=\"M253 307v-4h-3v-3h-3v-3h-4v-4h-3v-3h-3v-3h-4v-4h-3v-3h-3v-3h-4v-4h-3v-6h-3v-7h-4v17h4v3h3v3h3 4v4h3v3h3v3h4v4h3v3h3v3h4v4h3v3h3v3h4v-6h-4z\"/></g><g class=\"b2\"><path d=\"M250 310v-3h-3v-4h-4v-3h-3v-3h-3v-4h-4v-3h-3v-3h-3v-4h-7v-3h-3v-3h-4v-17h-3v-3h-3v-4h-4v-3h-3v-3h-3v-7h-4v-20h-3v-7h-3v-73-3-7h-4v-3h-3v-10h-3v-10h-4V70h-3v-3l-3 100 3-100v40h-3v10h-4v6h-3v14h-3v3 13h-4v44h4v16h3v14h3v13h4v10h3v7h3v3h4v3h3v4h3v3h4v3h3v4h3v3h4v3h3v7h7v7h6v3h7v3h7v4h13v3h3v3h10v-3h-3zm-103-87v-16h3v-10h-3v6h-4v17h-3v10h3v-7h4z\"/><path d=\"M143 230h4v7h-4zm4 10h3v3h-3zm3 7h3v3h-3zm3 6h4v4h-4z\"/><path d=\"M163 257h-6v3h3v3h3v4h4v-4-3h-4v-3z\"/></g><g class=\"b3\"><path d=\"M143 197v6h4v-6h6v-44h4v-16h3v-14h3v-6h4v-10h3V97h-7v6h-3v4h-3v3h-4v3h-3v4 3h-3v3 4h-4v10h-3v16 4h-3v46h3v-6h3z\"/><path d=\"M140 203h3v17h-3z\"/><path d=\"M137 220h3v10h-3z\"/><path d=\"M153 250h-3v-7h-3v-6h-4v-7h-3v10h3v7h4v6h3v4h3v-7zm-3 10h3v7h-3z\"/><path d=\"M147 257h3v3h-3zm6 0h4v3h-4z\"/><path d=\"M160 263v-3h-3v3 7h6v-7h-3zm-10-56v16h-3v7h3v10h3v7h4v6h6v4h7v-4-3h-3v-10h-4v-13h-3v-14h-3v-16h-4v10h-3z\"/><path d=\"M243 313v-3h-3v-3h-10-3v-4h-7v-3h-7v-3h-6v-7h-7v-7h-3v-3h-4v-3h-3v-4h-3v-3h-4v-3h-3v-4h-3v-3h-4v-3h-3v10h-3v3h-4v3h-3v7h3v7h4v6h3v5h4v3h6v3h3v3h4 3v3h3 4v3h3 3v4h10v3h7 7 3v3h10 3v-3h10v-3h4v-4h-14z\"/></g><g class=\"b4\"><path d=\"M183 130h4v7h-4z\"/><path d=\"M180 127h3v3h-3zm-27-4h4v7h-4z\"/><path d=\"M157 117h3v6h-3z\"/><path d=\"M160 110h3v7h-3z\"/><path d=\"M163 107h4v3h-4zm-3 83h3v7h-3z\"/><path d=\"M163 187h4v3h-4zm20 0h7v3h-7z\"/><path d=\"M180 190h3v3h-3zm10-7h3v4h-3z\"/><path d=\"M193 187h4v6h-4zm-20 53h4v7h-4z\"/><path d=\"M177 247h3v6h-3z\"/><path d=\"M180 253h3v7h-3z\"/><path d=\"M183 260h7v3h-7z\"/><path d=\"M190 263h3v4h-3zm0-20h3v4h-3z\"/><path d=\"M187 240h3v3h-3z\"/><path d=\"M190 237h3v3h-3zm13 23h4v3h-4z\"/><path d=\"M207 263h3v7h-3z\"/><path d=\"M210 270h3v3h-3zm-10 7h3v6h-3z\"/><path d=\"M203 283h4v7h-4z\"/><path d=\"M207 290h6v3h-6z\"/></g><g class=\"o\"><path d=\"M133 157h4v50h-4zm0 63h4v10h-4zm27-163h3v10h-3z\"/><path d=\"M163 53h4v4h-4z\"/><path d=\"M167 50h10v3h-10z\"/><path d=\"M177 53h3v17h-3z\"/><path d=\"M173 70h4v27h-4zm-6 0h3v27h-3z\"/><path d=\"M163 67h4v3h-4zm0 30h4v3h-4z\"/><path d=\"M160 100h3v3h-3z\"/><path d=\"M157 103h3v4h-3z\"/><path d=\"M153 107h4v3h-4z\"/><path d=\"M150 110h3v3h-3z\"/><path d=\"M147 113h3v7h-3z\"/><path d=\"M143 120h4v7h-4z\"/><path d=\"M140 127h3v10h-3z\"/><path d=\"M137 137h3v20h-3zm56-10h4v10h-4z\"/><path d=\"M190 117h3v10h-3z\"/><path d=\"M187 110h3v7h-3z\"/><path d=\"M183 103h4v7h-4z\"/><path d=\"M180 100h3v3h-3z\"/><path d=\"M177 97h3v3h-3zm-40 106h3v17h-3zm0 27h3v10h-3zm10 30h3v7h-3z\"/><path d=\"M150 257v-4h-3v-6h-4v-7h-3v10h3v10h4v-3h3z\"/><path d=\"M150 257h3v3h-3z\"/><path d=\"M163 273v-3h-6v-10h-4v7h-3v3h3v3h4v7h3v-7h3z\"/><path d=\"M163 267h4v3h-4z\"/><path d=\"M170 257h-3-4v3h4v7h3v-10z\"/><path d=\"M157 253h6v4h-6z\"/><path d=\"M153 247h4v6h-4z\"/><path d=\"M150 240h3v7h-3z\"/><path d=\"M147 230h3v10h-3zm13 50h3v7h-3z\"/><path d=\"M143 223h4v7h-4z\"/><path d=\"M147 207h3v16h-3z\"/><path d=\"M150 197h3v10h-3zm-10 0h3v6h-3zm50 113h7v3h-7zm23 10h17v3h-17z\"/><path d=\"M230 323h13v4h-13z\"/><path d=\"M243 320h10v3h-10z\"/><path d=\"M253 317h4v3h-4z\"/><path d=\"M257 307h3v10h-3z\"/><path d=\"M253 303h4v4h-4z\"/><path d=\"M250 300h3v3h-3z\"/><path d=\"M247 297h3v3h-3z\"/><path d=\"M243 293h4v4h-4z\"/><path d=\"M240 290h3v3h-3z\"/><path d=\"M237 287h3v3h-3z\"/><path d=\"M233 283h4v4h-4z\"/><path d=\"M230 280h3v3h-3z\"/><path d=\"M227 277h3v3h-3z\"/><path d=\"M223 273h4v4h-4z\"/><path d=\"M220 267h3v6h-3z\"/><path d=\"M217 260h3v7h-3z\"/><path d=\"M213 253h4v7h-4z\"/><path d=\"M210 247h3v6h-3z\"/><path d=\"M207 237h3v10h-3z\"/><path d=\"M203 227h4v10h-4zm-40 60h4v6h-4zm24 20h3v3h-3z\"/><path d=\"M167 293h3v5h-3zm16 14h4v3h-4z\"/><path d=\"M170 298h4v3h-4zm10 6h3v3h-3z\"/><path d=\"M174 301h6v3h-6zm23 12h6v4h-6z\"/><path d=\"M203 317h10v3h-10zm-2-107v-73h-4v73h3v17h3v-17h-2z\"/></g><g class=\"o\"><path d=\"M187 307v-4h3v-6h-3v-4h-4v-3h-3v-3h-7v-4h-6v4h-4v3h4v27h-4v13h-3v10h-4v7h4v3h3 10 14v-3h-4v-4h-3v-3h-3v-3h-4v-7h4v-10h3v-7h3v-3h7v-3h-3zm16 10v-4h-6v17h-4v10h-3v7h3v3h4 6 4 3 14v-3h-4v-4h-7v-3h-3v-3h-3v-10h3v-7h3v-3h-10z\"/></g>",
		"<g class=\"o\"><path d=\"M190 173h-37v-3h-10v-4h-6v4h3v3h-3v4h6v3h10v4h37v-4h3v-3h-3v-4zm-40 4h-3v-4h3v4zm7 3v-3h3v3h-3zm6 0v-3h4v3h-4zm7 0v-3h3v3h-3zm7 0v-3h3v3h-3zm10 0h-4v-3h4v3z\"/><path d=\"M190 170h3v3h-3z\"/><path d=\"M193 166h4v4h-4zm0 7h4v4h-4z\"/></g><g class=\"w\"><path d=\"M137 170h3v3h-3zm10 3h3v4h-3zm10 4h3v3h-3zm6 0h4v3h-4zm7 0h3v3h-3zm7 0h3v3h-3zm6 0h4v3h-4zm7-4h3v4h-3z\"/><path d=\"M193 170h4v3h-4z\"/></g>",
		"<g class=\"o\"><path d=\"M183 160v-4h-20v4h-3v3h3v4h24v-7h-4zm-13 3v-3h10v3h-10z\" fill=\"#ad71c8\"/><path d=\"M170 160h10v3h-10z\"/></g>",
		"<g class=\"o\"><path d=\"M177 140v3h6v11h10v-11h4v-3h-20z\"/><path d=\"M153 140v3h7v8 3h7 3v-11h3v-3h-20z\"/></g><g class=\"w\"><path d=\"M153 143h7v4h-7z\"/><path d=\"M157 147h3v3h-3zm20-4h6v4h-6z\"/><path d=\"M180 147h3v3h-3z\"/></g>",
		"<g class=\"o\"><path d=\"M190 127h3v3h-3zm3 13h4v3h-4zm-42 0h6v6h-6z\"/><path d=\"M151 133h3v7h-3zm10 0h6v4h-6z\"/><path d=\"M157 137h17v6h-17zm3 13h14v3h-14zm17-13h7v16h-7z\"/><path d=\"M184 137h6v6h-6zm0 10h10v6h-10z\"/><path d=\"M187 143h10v4h-10z\"/><path d=\"M190 140h3v3h-3zm-6-10h3v7h-3z\"/><path d=\"M187 130h6v3h-6zm-36 0h10v3h-10zm16 13h7v7h-7zm-10 0h7v7h-7z\"/><path d=\"M164 147h3v3h-3zm29-20h4v6h-4z\"/><path d=\"M194 133h3v7h-3z\"/></g><g class=\"w\"><path d=\"M154 133h7v4h-7z\"/><path d=\"M154 137h3v3h-3zm10 6h3v4h-3zm20 0h3v4h-3zm3-10h7v4h-7z\"/><path d=\"M190 137h4v3h-4z\"/></g>",
		"0x4dc161eF837fF1C4485b08DDFcDB182F2157bE18",
		"0x3bA60b60933916a7C87D0860DcEE62a0CE34E3e2"
	],
	"solcInputHash": "4eb0cc33718a3a2c12e23d695e3531ef",
	"bytecode": "0x60a0604052346107f5576166bc80380380610019816107f9565b928339810160e0828203126107f55781516001600160401b0381116107f5578161004491840161081e565b60208301519091906001600160401b0381116107f5578161006691850161081e565b60408401519093906001600160401b0381116107f5578261008891830161081e565b60608201519093906001600160401b0381116107f557836100aa91840161081e565b608083015190936001600160401b0382116107f5576100ca91840161081e565b916100e360c06100dc60a0840161086f565b920161086f565b906001600160a01b031680156107e2575f80546001600160a01b03198116831782556001600160a01b0316907f8be0079c531659141344cd1fd0a4f28419497f9722a3daafe3b4186f6b6457e09080a360805260017f9b779b17422d0df92223018b32b4d1fa46e071723d6817e2486d003becc55f00558051906001600160401b03821161045657600a5490600182811c921680156107d8575b60208310146104385781601f84931161076a575b50602090601f8311600114610704575f926106f9575b50508160011b915f199060031b1c191617600a555b83516001600160401b03811161045657600854600181811c911680156106ef575b602082101461043857601f811161068c575b50602094601f8211600114610629579481929394955f9261061e575b50508160011b915f199060031b1c1916176008555b82516001600160401b03811161045657600754600181811c91168015610614575b602082101461043857601f81116105b1575b506020601f821160011461054e57819293945f92610543575b50508160011b915f199060031b1c1916176007555b81516001600160401b03811161045657600954600181811c91168015610539575b602082101461043857601f81116104d6575b50602092601f821160011461047557928192935f9261046a575b50508160011b915f199060031b1c1916176009555b80516001600160401b03811161045657600654600181811c9116801561044c575b602082101461043857601f81116103d5575b50602091601f8211600114610375579181925f9261036a575b50508160011b915f199060031b1c1916176006555b604051615e3890816108848239608051818181610d7601528181610f4401526151980152f35b015190505f8061032f565b601f1982169260065f52805f20915f5b8581106103bd575083600195106103a5575b505050811b01600655610344565b01515f1960f88460031b161c191690555f8080610397565b91926020600181928685015181550194019201610385565b60065f527ff652222313e28459528d920b65115c16c04f3efc82aaedc97be59f3f377c0d3f601f830160051c8101916020841061042e575b601f0160051c01905b8181106104235750610316565b5f8155600101610416565b909150819061040d565b634e487b7160e01b5f52602260045260245ffd5b90607f1690610304565b634e487b7160e01b5f52604160045260245ffd5b015190505f806102ce565b601f1982169360095f52805f20915f5b8681106104be57508360019596106104a6575b505050811b016009556102e3565b01515f1960f88460031b161c191690555f8080610498565b91926020600181928685015181550194019201610485565b60095f527f6e1540171b6c0c960b71a7020d9f60077f6af931a8bbf590da0223dacf75c7af601f830160051c8101916020841061052f575b601f0160051c01905b81811061052457506102b4565b5f8155600101610517565b909150819061050e565b90607f16906102a2565b015190505f8061026c565b601f1982169060075f52805f20915f5b81811061059957509583600195969710610581575b505050811b01600755610281565b01515f1960f88460031b161c191690555f8080610573565b9192602060018192868b01518155019401920161055e565b60075f527fa66cc928b5edb82af9bd49922954155ab7b0942694bea4ce44661d9a8736c688601f830160051c8101916020841061060a575b601f0160051c01905b8181106105ff5750610253565b5f81556001016105f2565b90915081906105e9565b90607f1690610241565b015190505f8061020b565b601f1982169560085f52805f20915f5b8881106106745750836001959697981061065c575b505050811b01600855610220565b01515f1960f88460031b161c191690555f808061064e565b91926020600181928685015181550194019201610639565b60085f527ff3f7a9fe364faab93b216da50a3214154f22a0a2b415b23a84c8169e8b636ee3601f830160051c810191602084106106e5575b601f0160051c01905b8181106106da57506101ef565b5f81556001016106cd565b90915081906106c4565b90607f16906101dd565b015190505f806101a7565b600a5f9081528281209350601f198516905b818110610752575090846001959493921061073a575b505050811b01600a556101bc565b01515f1960f88460031b161c191690555f808061072c565b92936020600181928786015181550195019301610716565b600a5f529091507fc65a7bb8d6351c1cf70c95a316cc6a92839c986682d98bc35f958f4883f9d2a8601f840160051c810191602085106107ce575b90601f859493920160051c01905b8181106107c05750610191565b5f81558493506001016107b3565b90915081906107a5565b91607f169161017d565b631e4fbdf760e01b5f525f60045260245ffd5b5f80fd5b6040519190601f01601f191682016001600160401b0381118382101761045657604052565b81601f820112156107f5578051906001600160401b0382116104565761084d601f8301601f19166020016107f9565b92828452602083830101116107f557815f9260208093018386015e8301015290565b51906001600160a01b03821682036107f55756fe60806040526004361015610011575f80fd5b5f3560e01c8062401e6b146101d257806257bfdd146101cd5780630890d80c146101c8578063125b3936146101c3578063150b7a02146101be578063187be308146101b957806318ab522d146101b45780632f4d2d0b146101af57806331a290ac146101aa578063572b6c05146101a55780635e703e71146101a05780635e88be881461019b5780636aff31dd14610196578063715018a61461019157806379a2696e1461018c5780637da0a877146101875780637f2b767f146101825780638da5cb5b1461017d578063a0122c0914610178578063a22d0dd514610173578063b1fa9e7b1461016e578063be56b45814610169578063c06e7bc714610164578063c12280461461015f578063c16c7a921461015a578063c71c622214610155578063d756227e146101505763f2fde38b1461014b575f80fd5b611723565b61164b565b611555565b6114ae565b611465565b6111ef565b61114a565b61111f565b6110db565b61103f565b611018565b610f73565b610f2f565b610efc565b610ea5565b610e7b565b610dd6565b610daa565b610d52565b610ba5565b610a42565b6109cd565b610853565b6107d2565b61071c565b610547565b6104eb565b61040d565b90600182811c92168015610205575b60208310146101f157565b634e487b7160e01b5f52602260045260245ffd5b91607f16916101e6565b634e487b7160e01b5f52604160045260245ffd5b60a081019081106001600160401b0382111761023e57604052565b61020f565b6101a081019081106001600160401b0382111761023e57604052565b90601f801991011681019081106001600160401b0382111761023e57604052565b604051905f8260025491610293836101d7565b808352926001811690811561031857506001146102b9575b6102b79250038361025f565b565b5060025f90815290917f405787fa12a823e0f2b7631cc41b3ba8828b3321ca811111fa75cd3aa3bb5ace5b8183106102fc5750509060206102b7928201016102ab565b60209193508060019154838589010152019101909184926102e4565b602092506102b794915060ff191682840152151560051b8201016102ab565b9060405191825f82549261034a846101d7565b80845293600181169081156103b3575060011461036f575b506102b79250038361025f565b90505f9291925260205f20905f915b8183106103975750509060206102b7928201015f610362565b602091935080600191548385890101520191019091849261037e565b9050602092506102b794915060ff191682840152151560051b8201015f610362565b805180835260209291819084018484015e5f828201840152601f01601f1916010190565b90602061040a9281815201906103d5565b90565b346104e7575f3660031901126104e7576040515f60085461042d816101d7565b80845290600181169081156104c35750600114610465575b610461836104558185038261025f565b604051918291826103f9565b0390f35b60085f9081527ff3f7a9fe364faab93b216da50a3214154f22a0a2b415b23a84c8169e8b636ee3939250905b8082106104a957509091508101602001610455610445565b919260018160209254838588010152019101909291610491565b60ff191660208086019190915291151560051b840190910191506104559050610445565b5f80fd5b346104e7575f3660031901126104e757610461610506610280565b6040519182916020835260208301906103d5565b9181601f840112156104e7578235916001600160401b0383116104e757602083818601950101116104e757565b346104e75760603660031901126104e7576004356001600160401b0381116104e75761057790369060040161051a565b6024356001600160401b0381116104e75761059690369060040161051a565b92906044356001600160401b0381116104e7576105b790369060040161051a565b906105c0612f7f565b6001600160401b03851161023e576105e2856105dd6003546101d7565b6117c2565b5f95601f8611600114610674579061066493929161063787807fac7d13bfe4f20407381d726c06e9f135c04f0d6bfa8105268efdb6d9743d11e59a5f91610669575b508160011b915f199060031b1c19161790565b6003555b610645818561183d565b61064f838361191e565b61065761516d565b9360405197889788611a13565b0390a1005b90508801355f610624565b60035f52601f1986167fc2575a0e9e593c00f959f8c92f12db2869c3395a3b0502d05e2516446f71f85b905f5b8181106107045750907fac7d13bfe4f20407381d726c06e9f135c04f0d6bfa8105268efdb6d9743d11e598886106649796959493106106eb575b5050600187811b0160035561063b565b8701355f1960038a901b60f8161c191690555f806106db565b878a013583556020998a0199600190930192016106a1565b346104e7575f3660031901126104e7576040515f600a5461073c816101d7565b80845290600181169081156104c3575060011461076357610461836104558185038261025f565b600a5f9081527fc65a7bb8d6351c1cf70c95a316cc6a92839c986682d98bc35f958f4883f9d2a8939250905b8082106107a757509091508101602001610455610445565b91926001816020925483858801015201910190929161078f565b6001600160a01b038116036104e757565b346104e75760803660031901126104e7576004356107ef816107c1565b6107fa6024356107c1565b6064356001600160401b0381116104e75761081990369060040161051a565b50506001600160a01b031630810361083d57604051630a85bd0160e11b8152602090f35b639a36e1b160e01b5f526004523060245260445ffd5b346104e75760403660031901126104e757600435610870816107c1565b6040516331a9108f60e11b815260248035600483018190529291906020908290816001600160a01b0386165afa9081156109c8575f91610999575b506108c36108b761516d565b6001600160a01b031690565b6001600160a01b038216036109745750906108ff816108f28460018060a01b03165f52600160205260405f2090565b905f5260205260405f2090565b549161090a42611a76565b9283811161093657506001600160a01b03165f90815260016020526040902061093391906108f2565b55005b604051633d05a41560e01b81526001600160a01b039092166004830152602482019290925260448101919091526064810182905280608481015b0390fd5b6109709061098061516d565b604051637ba70cb160e11b815294859460048601612d76565b6109bb915060203d6020116109c1575b6109b3818361025f565b810190612d61565b5f6108ab565b503d6109a9565b612272565b346104e75760403660031901126104e7576109f66004356109ed816107c1565b60243590611b84565b90604051918291604083019083526040602084015281518091526020606084019201905f5b818110610a29575050500390f35b8251845285945060209384019390920191600101610a1b565b346104e7575f3660031901126104e7576040515f600654610a62816101d7565b80845290600181169081156104c35750600114610a8957610461836104558185038261025f565b60065f9081527ff652222313e28459528d920b65115c16c04f3efc82aaedc97be59f3f377c0d3f939250905b808210610acd57509091508101602001610455610445565b919260018160209254838588010152019101909291610ab5565b604051906102b76101a08361025f565b6001600160401b03811161023e5760051b60200190565b929190610b1a81610af7565b93610b28604051958661025f565b602085838152019160051b81019283116104e757905b828210610b4a57505050565b8135815260209182019101610b3e565b9080601f830112156104e75781602061040a93359101610b0e565b9181601f840112156104e7578235916001600160401b0383116104e7576020808501948460051b0101116104e757565b346104e75760403660031901126104e7576004356001600160401b0381116104e757610bd5903690600401610b5a565b6024356001600160401b0381116104e757610bf4903690600401610b75565b90918051828103610d3b5750610c0861516d565b905f5b8151811015610d3957610c1e8183611b62565b51610c34610c2d838789611c47565b3691611615565b610c4e610c49835f52600e60205260405f2090565b611c88565b610d2557610c64825f52600560205260405f2090565b548015610d11576040516020810190610c8f81610c818487611c92565b03601f19810183528261025f565b51902090808203610cf6575050907faeb631726b45aa3f6b09da79f7af03a9784614901f61a967ed84d63c37b7edc78583610cde60019695610cd9865f52600e60205260405f2090565b611ca4565b610ced60405192839283611d6e565b0390a201610c0b565b6335549bf960e01b5f52600484905260245260445260645b5ffd5b633cdb888960e01b5f52600483905260245ffd5b631164f29d60e11b5f52600482905260245ffd5b005b63639c5d2960e01b5f52600452602482905260445ffd5b346104e75760203660031901126104e7576020600435610d71816107c1565b6040517f00000000000000000000000000000000000000000000000000000000000000006001600160a01b039081169216919091148152f35b346104e75760403660031901126104e757610461610506600435610dcd816107c1565b602435906124b1565b346104e7575f3660031901126104e7576040515f600354610df6816101d7565b80845290600181169081156104c35750600114610e1d57610461836104558185038261025f565b60035f9081527fc2575a0e9e593c00f959f8c92f12db2869c3395a3b0502d05e2516446f71f85b939250905b808210610e6157509091508101602001610455610445565b919260018160209254838588010152019101909291610e49565b346104e75760203660031901126104e7576004355f526005602052602060405f2054604051908152f35b346104e7575f3660031901126104e757610ebd612f7f565b5f80546001600160a01b0319811682556001600160a01b03167f8be0079c531659141344cd1fd0a4f28419497f9722a3daafe3b4186f6b6457e08280a3005b346104e75760403660031901126104e7576020610f27600435610f1e816107c1565b60243590612a4d565b604051908152f35b346104e7575f3660031901126104e7576040517f00000000000000000000000000000000000000000000000000000000000000006001600160a01b03168152602090f35b346104e7575f3660031901126104e7576040515f600754610f93816101d7565b80845290600181169081156104c35750600114610fba57610461836104558185038261025f565b60075f9081527fa66cc928b5edb82af9bd49922954155ab7b0942694bea4ce44661d9a8736c688939250905b808210610ffe57509091508101602001610455610445565b919260018160209254838588010152019101909291610fe6565b346104e7575f3660031901126104e7575f546040516001600160a01b039091168152602090f35b346104e75760403660031901126104e7576110b560043561105f816107c1565b61046161107961107260243580946131a9565b80936143a8565b916110c36110a063ffffffff61109862ffffff610100860151166136ea565b9351166138ae565b916040519586956060875260608701906103d5565b9085820360208701526103d5565b9083820360408501526103d5565b801515036104e757565b346104e75760803660031901126104e7576104616105066004356110fe816107c1565b60443560243561110d826110d1565b6064359261111a846110d1565b612bc0565b346104e75760403660031901126104e7576020610f27600435611141816107c1565b60243590612ccd565b346104e7575f3660031901126104e7576040515f60095461116a816101d7565b80845290600181169081156104c3575060011461119157610461836104558185038261025f565b60095f9081527f6e1540171b6c0c960b71a7020d9f60077f6af931a8bbf590da0223dacf75c7af939250905b8082106111d557509091508101602001610455610445565b9192600181602092548385880101520191019092916111bd565b346104e75760803660031901126104e75760043561120c816107c1565b60243590604435906064356001600160401b0381116104e757611233903690600401610b75565b60027f9b779b17422d0df92223018b32b4d1fa46e071723d6817e2486d003becc55f0054146114565760027f9b779b17422d0df92223018b32b4d1fa46e071723d6817e2486d003becc55f005561128861516d565b6040516331a9108f60e11b8152600481018790529094906001600160a01b03851690602081602481855afa9081156109c8575f91611437575b506001600160a01b038781169082160361141757506112fb6112f36101006112e98a896131a9565b015162ffffff1690565b62ffffff1690565b806113f357506001600160a01b0385165f9081526001602052604090206113239088906108f2565b5442106113ac579161137686838996946113839a61137d977f6a68946ba06488db8585d7c7637fa954b574035fe15720ea760125ef860172586040518061136c888b8d84612da0565b0390a4868861489f565b3691610b0e565b91614bc2565b610d3960017f9b779b17422d0df92223018b32b4d1fa46e071723d6817e2486d003becc55f0055565b610d0e85886113cf816108f28460018060a01b03165f52600160205260405f2090565b5463078592dd60e01b5f526001600160a01b03909216600452602452604452606490565b63e0b1faaf60e01b5f526001600160a01b038616600452602488905260445260645ffd5b604051637ba70cb160e11b815290819061097090898b8a60048601612d76565b611450915060203d6020116109c1576109b3818361025f565b5f6112c1565b633ee5aeb560e01b5f5260045ffd5b346104e75760403660031901126104e757600435611482816107c1565b6024359060018060a01b03165f52600160205260405f20905f52602052602060405f2054604051908152f35b346104e75760403660031901126104e7576004356001600160401b0381116104e7576114de903690600401610b5a565b6024356001600160401b0381116104e757366023820112156104e75780600401359161150983610af7565b91611517604051938461025f565b8383526024602084019460051b820101903682116104e757602401935b81851061154557610d398484612ddc565b8435815260209485019401611534565b346104e7575f3660031901126104e7576040515f600454611575816101d7565b80845290600181169081156104c3575060011461159c57610461836104558185038261025f565b60045f9081527f8a35acfbc15ff81a39ae7d344fd709f28e8600b4aa8c65c6b64bfe7fe36bd19b939250905b8082106115e057509091508101602001610455610445565b9192600181602092548385880101520191019092916115c8565b6001600160401b03811161023e57601f01601f191660200190565b929192611621826115fa565b9161162f604051938461025f565b8294818452818301116104e7578281602093845f960137010152565b346104e75760403660031901126104e7576004356001600160401b0381116104e75761167b903690600401610b5a565b6024356001600160401b0381116104e757366023820112156104e7578060040135916116a683610af7565b916116b4604051938461025f565b8383526024602084019460051b820101903682116104e75760248101945b8286106116e357610d398585612ed6565b85356001600160401b0381116104e7578201366043820112156104e75760209161171883923690604460248201359101611615565b8152019501946116d2565b346104e75760203660031901126104e757600435611740816107c1565b611748612f7f565b6001600160a01b03168015611799575f80546001600160a01b03198116831782556001600160a01b0316907f8be0079c531659141344cd1fd0a4f28419497f9722a3daafe3b4186f6b6457e09080a3005b631e4fbdf760e01b5f525f60045260245ffd5b8181106117b7575050565b5f81556001016117ac565b90601f82116117cf575050565b6102b79160035f5260205f20906020601f840160051c830193106117fb575b601f0160051c01906117ac565b90915081906117ee565b9190601f811161181457505050565b6102b7925f5260205f20906020601f840160051c830193106117fb57601f0160051c01906117ac565b91906001600160401b03811161023e576118638161185c6004546101d7565b6004611805565b5f601f82116001146118a157819061189193945f92611896575b50508160011b915f199060031b1c19161790565b600455565b013590505f8061187d565b60045f52601f198216937f8a35acfbc15ff81a39ae7d344fd709f28e8600b4aa8c65c6b64bfe7fe36bd19b915f5b86811061190657508360019596106118ed575b505050811b01600455565b01355f19600384901b60f8161c191690555f80806118e2565b909260206001819286860135815501940191016118cf565b91906001600160401b03811161023e576119448161193d6002546101d7565b6002611805565b5f601f821160011461197657819061197193945f926118965750508160011b915f199060031b1c19161790565b600255565b60025f52601f198216937f405787fa12a823e0f2b7631cc41b3ba8828b3321ca811111fa75cd3aa3bb5ace915f5b8681106119db57508360019596106119c2575b505050811b01600255565b01355f19600384901b60f8161c191690555f80806119b7565b909260206001819286860135815501940191016119a4565b908060209392818452848401375f828201840152601f01601f1916010190565b959192611a5294611a36611a4493606098969b9a9b60808b5260808b01916119f3565b9188830360208a01526119f3565b9185830360408701526119f3565b6001600160a01b03909416910152565b634e487b7160e01b5f52601160045260245ffd5b9062093a808201809211611a8657565b611a62565b9060028201809211611a8657565b9060208201809211611a8657565b9060018201809211611a8657565b91908201809211611a8657565b90604051918281549182825260208201905f5260205f20925f5b818110611af15750506102b79250038361025f565b8454835260019485019487945060209093019201611adc565b90611b1482610af7565b611b21604051918261025f565b8281528092611b32601f1991610af7565b0190602036910137565b634e487b7160e01b5f52603260045260245ffd5b805115611b5d5760200190565b611b3c565b8051821015611b5d5760209160051b010190565b5f198114611a865760010190565b9190915f9260018060a01b0382165f52600b60205260405f20815f52602052611baf60405f20611ac2565b93611bba8551611b0a565b915f915f5b8751811015611c085780611bd56001928a611b62565b5184611be1828a612ccd565b14611bee575b5001611bbf565b611c01611bfa87611b76565b9688611b62565b525f611be7565b50955090939291938452611c3b611c33826108f28560018060a01b03165f52600c60205260405f2090565b548093612a4d565b14611c435750565b9250565b9190811015611b5d5760051b81013590601e19813603018212156104e75701908135916001600160401b0383116104e75760200182360381136104e7579190565b61040a90546101d7565b805191908290602001825e015f815290565b91909182516001600160401b03811161023e57611ccb81611cc584546101d7565b84611805565b6020601f8211600114611d09578190611cfa9394955f92611cfe5750508160011b915f199060031b1c19161790565b9055565b015190505f8061187d565b601f19821690611d1c845f5260205f2090565b915f5b818110611d5657509583600195969710611d3e575b505050811b019055565b01515f1960f88460031b161c191690555f8080611d34565b9192602060018192868b015181550194019201611d1f565b90611a526020919493946040845260408401906103d5565b60405190611d9560208361025f565b5f8252565b60405190611da960408361025f565b600f82526e2261747472696275746573223a205b60881b6020830152565b60405190611dd660408361025f565b600e82526d226f7574666974496473223a205b60901b6020830152565b906102b7611e199260405193849160206060518060808387015e840101905f8252611c92565b03601f19810184528361025f565b6102b790611e19611e4394936040519586936020850190611c92565b90611c92565b5f19810191908211611a8657565b906102b76001611e71936040519485916020830190611c92565b600b60fa1b815203601e1981018552018361025f565b906102b76002611ea1936040519485916020830190611c92565b61174b60f21b815203601d1981018552018361025f565b600390611f15611ede9594600d611efb6102b79660106040519a8b976020890190611c92565b6f3d913a3930b4ba2fba3cb832911d101160811b81520190611c92565b6c111610113b30b63ab2911d101160991b81520190611c92565b62089f4b60ea1b815203601c1981018552018361025f565b906102b7602a611f47936040519485916020830190611c92565b7f7b2274726169745f74797065223a20224261636b67726f756e64222c202276618152691b1d59488e8808889f4b60b21b602082015203600a81018552018361025f565b60016102b791611e71611fab959460106040519788946020860190611c92565b6f0113130b1b5b3b937bab73224b2111d160851b81520190611c92565b60036102b791611f15611fe8959460276040519788946020860190611c92565b7f7b2274726169745f74797065223a20224261636b67726f756e64222c20227661815266363ab2911d101160c91b60208201520190611c92565b60016102b791611e71612042959460166040519788946020860190611c92565b7501131b430b733b2b9a637b1b5b2b22ab73a34b6111d160551b81520190611c92565b60026102b7916120c8612085959460306040519788946020860190611c92565b7f7b2274726169745f74797065223a20224368616e676573206c6f636b6564207581526f0373a34b6111610113b30b63ab2911d160851b60208201520190611c92565b611f4b60f21b815203601d1981018552018361025f565b906102b76001611e7193604051948591740113bb7b937213ca130b7373ca137b23ca4b2111d1605d1b60208401526035830190611c92565b60026102b7916120c8612137959460296040519788946020860190611c92565b7f7b2274726169745f74797065223a2022576f726e2062792042616e6e79222c208152680113b30b63ab2911d160bd1b60208201520190611c92565b906102b76001611e7193604051948591740113ab9b2b2213ca130b7373ca137b23ca4b2111d1605d1b60208401526035830190611c92565b60026102b7916120c86121cb959460296040519788946020860190611c92565b7f7b2274726169745f74797065223a2022557365642062792042616e6e79222c208152680113b30b63ab2911d160bd1b60208201520190611c92565b81601f820112156104e75780519061221e826115fa565b9261222c604051948561025f565b828452602083830101116104e757815f9260208093018386015e8301015290565b906020828203126104e75781516001600160401b0381116104e75761040a9201612207565b6040513d5f823e3d90fd5b908160209103126104e7575190565b91908260409103126104e7576020825192015190565b61238a6122cd9594602d61234a6102b796602e61230960039860296040519d8e9a60208c0190611c92565b7f7b2274726169745f74797065223a202250726f64756374206e616d65222c20228152683b30b63ab2911d101160b91b60208201520190611c92565b7f227d2c207b2274726169745f74797065223a202243617465676f7279206e616d81526d32911610113b30b63ab2911d101160911b60208201520190611c92565b7f227d2c207b2274726169745f74797065223a2022546f74616c20737570706c7981526c111610113b30b63ab2911d101160991b60208201520190611c92565b62227d5d60e81b815203601c1981018552018361025f565b939195949290956040519687956b016101139bab838363c911d160a51b6020880152602c87016123d191611c92565b6e01610113932b6b0b4b734b733911d1608d1b8152600f016123f291611c92565b6a0161011383934b1b2911d160ad1b8152600b0161240f91611c92565b6d01610113232b1b4b6b0b639911d160951b8152600e0161242f91611c92565b6d016101131bab93932b731bc911d160951b8152600e0161244f91611c92565b6d01610113234b9b1b7bab73a111d160951b8152600e0161246f91611c92565b03601f19810183526102b7908361025f565b611e196124a29493611e436102b79460026040519889966020880190611c92565b61016160f51b81520190611c92565b906124bc81836131a9565b63ffffffff6124cf825163ffffffff1690565b1615612a42576124dd611d86565b506124e6611d9a565b9061010081019162ffffff6124fe845162ffffff1690565b161561289657612527612521612518845163ffffffff1690565b63ffffffff1690565b86613967565b928351612857575b600162ffffff612542835162ffffff1690565b1603612829576125766125558688612a4d565b9261257061256a612565866132e9565b612173565b946132e9565b906121ab565b955b84511561270e576040805163043c358d60e11b8152979291889060049082906001600160a01b03165afa9081156109c8576125186126c0946126a56126bb948861040a9c610c81986126aa975f925f956126c6575b5061251861262f61263a936126249361260d6126086112f36125fe6125f96125188d5163ffffffff1690565b6138ae565b935162ffffff1690565b6136ea565b9061262961262460608b019e8f5163ffffffff1690565b6132e9565b926122a2565b985163ffffffff1690565b92612652612624612518604086015163ffffffff1690565b61269f61262461269961012061269061268a61268a61262461267e60208d01516001600160681b031690565b6001600160681b031690565b976132e9565b97015160ff1690565b60ff1690565b946123a2565b612481565b946040519283916020830190611c92565b613ec8565b92613fed565b61262491955061263a92935061262f6126f96125189260403d604011612707575b6126f1818361025f565b81019061228c565b9590959793509350506125cd565b503d6126e7565b9495506011935062ffffff925061272991505162ffffff1690565b16111561281557604051636c0360eb60e01b81525f816004816001600160a01b0386165afa9283156109c8576127a6936020925f916127f3575b50925b6127726108b782613da1565b604051630c8df17160e41b81526001600160a01b039092166004830152602482019290925293849190829081906044820190565b03915afa9081156109c85761040a925f926127c2575b50613e0a565b6127e591925060203d6020116127ec575b6127dd818361025f565b81019061227d565b905f6127bc565b503d6127d3565b61280f91503d805f833e612807818361025f565b81019061224d565b5f612763565b60206127a692612823610280565b92612766565b6128516128368688612ccd565b9261284b61256a612846866132e9565b6120df565b90612117565b95612578565b9261287a90600162ffffff61286f875162ffffff1690565b160361288057613cb6565b9261252f565b6128919061288c613bf6565b611e27565b613cb6565b6128a4848694939796612aa7565b946128af8585611b84565b9590966128ba611dc7565b985f995b88518b1015612913576128e4906128de6128d88d8c611b62565b516132e9565b90611e27565b996128ef8951611e49565b81106128ff575b600101996128be565b9961290b600191611e57565b9a90506128f6565b61292791939598979a509891939598611e87565b975f975b87518910156129885761298060019161294f8d6129488d8d611b62565b51906131a9565b61297a6125f961251861296f6126086112f361010087015162ffffff1690565b935163ffffffff1690565b91611eb8565b98019761292b565b959998949750929550909390928315612a3157906129cf6125f96125186129c56129be6129d5966129b88a6132e9565b90611f8b565b978c6131a9565b5163ffffffff1690565b90611fc8565b955b6001600160a01b0381165f9081526001602052604090206129f99087906108f2565b54428111612a08575b50612578565b9296612a2461256a612a2a9399612a1e876132e9565b90612022565b90612065565b955f612a02565b9250612a3c90611f2d565b956129d7565b50505061040a611d86565b60018060a01b0316805f52600f60205260405f20825f5260205260405f2054918215918215612a85575b5050612a805790565b505f90565b9091505f52600c60205260405f20825f5260205260405f205414155f80612a77565b612ab182826131a9565b9163ffffffff612ac5845163ffffffff1690565b1615612a425760609062ffffff612ae361010086015162ffffff1690565b16612b8c5791612b3f91612b39612518612b2e612b0461040a989786611b84565b949080151580612b84575b612b5b575b506128de612b296125188a5163ffffffff1690565b6144f5565b955163ffffffff1690565b9161469d565b8051612b4c575b50613cb6565b612b5591611e27565b5f612b46565b612b7e9150612b736125186129c5612b79938a6131a9565b87613967565b611df3565b5f612b14565b506001612b0f565b5050612ba2612518612ba8935163ffffffff1690565b90613967565b8051612bb7575061040a611d86565b61040a90613cb6565b929092612bcd84826131a9565b9163ffffffff612be1845163ffffffff1690565b1615612cc05760609462ffffff612bff61010086015162ffffff1690565b16612ca65761040a95612c15612c3b9285611b84565b938115159081612c9e575b50612c7a575b506128de612b29612518875163ffffffff1690565b93612c49575b505050613cb6565b612b39612518612c5d945163ffffffff1690565b8051612c6b575b8080612c41565b612c7491611e27565b5f612c64565b612c989150612c926125186129c5612b7993886131a9565b85613967565b5f612c26565b90505f612c20565b50509150612ba89250612518612ba2915163ffffffff1690565b505050505061040a611d86565b60018060a01b0381165f52601060205260405f20825f5260205260405f2054908115612d4f576001600160a01b03165f908152600b60205260409020815f52602052612d1b60405f20611ac2565b915f5b8351811015612d475781612d328286611b62565b5114612d4057600101612d1e565b5050905090565b505050505f90565b5050505f90565b51906102b7826107c1565b908160209103126104e7575161040a816107c1565b6001600160a01b039182168152602081019290925291821660408201529116606082015260800190565b60408082528101839052929392916001600160fb1b0381116104e75760209160609160051b8091838601378301019360018060a01b0316910152565b919091612de7612f7f565b8051835190818103612ec1575050612dfd61516d565b905f5b8151811015612eba57612e138183611b62565b51612e1e8287611b62565b5190612e32815f52600560205260405f2090565b54612e8b57908181612e4f600195945f52600560205260405f2090565b556040516001600160a01b03871681527fb10eb6fc7557a7109693cb8f3fac48d44328de56c0368ee4cac539b424d2cad990602090a301612e00565b80612ea1610d0e925f52600560205260405f2090565b5463533fe6a960e01b5f52600491909152602452604490565b5050509050565b63639c5d2960e01b5f5260045260245260445ffd5b9190612ee0612f7f565b8251815190818103612f6a575050612ef661516d565b925f5b8151811015612eba5780612f0f60019284611b62565b517f9dedd219289ed514faff576c477c66bd097aef59a236e3b8ebcf0d0070cb4e9687612f3c8488611b62565b51835f52600d602052612f528160405f20611ca4565b612f6160405192839283611d6e565b0390a201612ef9565b63639c5d2960e01b5f5260045260245260445ffd5b5f546001600160a01b0390811690612f9561516d565b1603612f9d57565b612fa561516d565b63118cdaa760e01b5f9081526001600160a01b0391909116600452602490fd5b519063ffffffff821682036104e757565b51906001600160681b03821682036104e757565b519061ffff821682036104e757565b519062ffffff821682036104e757565b519060ff821682036104e757565b91908260a09103126104e75760405161302f81610223565b6080808294805161303f816110d1565b8452602081015161304f816110d1565b60208501526040810151613062816110d1565b60408501526060810151613075816110d1565b6060850152015191613086836110d1565b0152565b6020818303126104e7578051906001600160401b0382116104e75701610220818303126104e7576130b9610ae7565b916130c382612fc5565b83526130d160208301612fd6565b60208401526130e260408301612fc5565b60408401526130f360608301612fc5565b606084015261310460808301612fd6565b608084015261311560a08301612fea565b60a084015261312660c08301612d56565b60c084015260e082015160e08401526131426101008301612ff9565b6101008401526131556101208301613009565b610120840152613169816101408401613017565b61014084015261317c6101e08301612fc5565b6101608401526102008201516001600160401b0381116104e7576131a09201612207565b61018082015290565b613275915f9160606101806040516131c081610243565b85815285602082015285604082015285838201528560808201528560a08201528560c08201528560e0820152856101008201528561012082015260405161320681610223565b868152866020820152866040820152868482015286608082015261014082015285610160820152015261323b6108b782613da1565b60405163c44a8e6d60e01b81526001600160a01b03909216600483015260248201929092525f604482015292839190829081906064820190565b03915afa9081156109c8575f9161328a575090565b61040a91503d805f833e61329e818361025f565b81019061308a565b604051906132b560208361025f565b5f808352366020840137565b906132cb826115fa565b6132d8604051918261025f565b8281528092611b32601f19916115fa565b805f9172184f03e93ff9f4daa797ed6e38ed64bf6a1f0160401b82101561341c575b806d04ee2d6d415b85acef8100000000600a921015613400575b662386f26fc100008110156133eb575b6305f5e1008110156133d9575b6127108110156133c9575b60648110156133ba575b10156133af575b61339a602161336f600185016132c1565b938401015b5f1901916f181899199a1a9b1b9c1cb0b131b232b360811b600a82061a8353600a900490565b80156133aa5761339a9091613374565b505090565b60019091019061335e565b60029060649004930192613357565b600490612710900493019261334d565b6008906305f5e1009004930192613342565b601090662386f26fc100009004930192613335565b6020906d04ee2d6d415b85acef81000000009004930192613325565b506040915072184f03e93ff9f4daa797ed6e38ed64bf6a1f0160401b810461330b565b6040519061344e60408361025f565b600c82526b5370656369616c20426f647960a01b6020830152565b6040519061347860408361025f565b600c82526b14dc1958da585b081219585960a21b6020830152565b604051906134a260408361025f565b600c82526b5370656369616c204c65677360a01b6020830152565b604051906134cc60408361025f565b600c82526b14dc1958da585b0814dd5a5d60a21b6020830152565b604051906134f660408361025f565b6004825263119a5cdd60e21b6020830152565b6040519061351860408361025f565b600b82526a5375697420626f74746f6d60a81b6020830152565b6040519061354160408361025f565b600882526705375697420746f760c41b6020830152565b6040519061356760408361025f565b600482526314dd5a5d60e21b6020830152565b6040519061358960408361025f565b60048252631219585960e21b6020830152565b604051906135ab60408361025f565b600882526704865616420746f760c41b6020830152565b604051906135d160408361025f565b600582526409adeeae8d60db1b6020830152565b604051906135f460408361025f565b6007825266476c617373657360c81b6020830152565b6040519061361960408361025f565b60048252634579657360e01b6020830152565b6040519061363b60408361025f565b60088252674e65636b6c61636560c01b6020830152565b6040519061366160408361025f565b60048252634c65677360e01b6020830152565b6040519061368360408361025f565b60088252674261636b7369646560c01b6020830152565b604051906136a960408361025f565b600a825269109858dad9dc9bdd5b9960b21b6020830152565b604051906136d160408361025f565b600a82526942616e6e7920626f647960b01b6020830152565b806136f8575061040a6136c2565b60018103613709575061040a61369a565b6002810361371a575061040a613674565b6008810361372b575061040a613652565b6003810361373c575061040a61362c565b6005810361374d575061040a61360a565b6006810361375e575061040a6135e5565b6007810361376f575061040a6135c2565b600c8103613780575061040a61359c565b60048103613791575061040a61357a565b600981036137a2575061040a613558565b600b81036137b3575061040a613532565b600a81036137c4575061040a613509565b600d81036137d5575061040a6134e7565b600e81036137e6575061040a6134bd565b600f81036137f7575061040a613493565b60108103613808575061040a613469565b6011146138175761040a611d86565b61040a61343f565b6040519061382e60408361025f565b600882526713dc9a59da5b985b60c21b6020830152565b6040519061385460408361025f565b60068252654f72616e676560d01b6020830152565b6040519061387860408361025f565b600482526350696e6b60e01b6020830152565b6040519061389a60408361025f565b600582526420b634b2b760d91b6020830152565b600181036138bf575061040a61388b565b600281036138d0575061040a613869565b600381036138e1575061040a613845565b600481036138f2575061040a61381f565b5f52600d60205261040a60405f20610337565b906102b7601c613935936040519485916c1e34b6b0b3b290343932b31e9160991b6020840152602d830190611c92565b7f222077696474683d2234303022206865696768743d22343030222f3e0000000081520360031981018552018361025f565b815f52600e60205261397b60405f20610337565b8051613a1557506139c991816139956108b7602094613da1565b604051635e24896360e01b81526001600160a01b039092166004830152602482019290925292839190829081906044820190565b03915afa9081156109c85761040a916139f1915f916139f6575b506139ec610280565b613e0a565b613905565b613a0f915060203d6020116127ec576127dd818361025f565b5f6139e3565b91505090565b6003545f9291613a2a826101d7565b9160018116908115613a905750600114613a42575050565b60035f90815292935090917fc2575a0e9e593c00f959f8c92f12db2869c3395a3b0502d05e2516446f71f85b5b838210613a7c5750500190565b600181602092548486015201910190613a6f565b60ff1916825250811515909102019150565b6004545f9291613ab1826101d7565b9160018116908115613a905750600114613ac9575050565b60045f90815292935090917f8a35acfbc15ff81a39ae7d344fd709f28e8600b4aa8c65c6b64bfe7fe36bd19b5b838210613b035750500190565b600181602092548486015201910190613af6565b600a545f9291613b26826101d7565b9160018116908115613a905750600114613b3e575050565b600a5f90815292935090917fc65a7bb8d6351c1cf70c95a316cc6a92839c986682d98bc35f958f4883f9d2a85b838210613b785750500190565b600181602092548486015201910190613b6b565b5f9291815491613b9b836101d7565b9260018116908115613be35750600114613bb457505050565b90919293505f5260205f205f905b838210613bcf5750500190565b600181602092548486015201910190613bc2565b60ff191683525050811515909102019150565b604051907f3c7374796c653e2e6f7b66696c6c3a233830383038303b7d2e62317b66696c6c60208301527f3a6e6f6e653b7d2e62327b66696c6c3a6e6f6e653b7d2e62337b66696c6c3a6e60408301527f6f6e653b7d2e62347b66696c6c3a6e6f6e653b7d2e61317b66696c6c3a6e6f6e60608301527f653b7d2e61327b66696c6c3a6e6f6e653b7d2e61337b66696c6c3a6e6f6e653b6080830152683e9e17b9ba3cb6329f60b91b60a08301526102b782611e1960a98201600a613b8c565b906102b76006613d86936040519485917f3c7376672077696474683d2234303022206865696768743d223430302220766960208401527f6577426f783d223020302034303020343030222066696c6c3d2277686974652260408401527f20786d6c6e733d22687474703a2f2f7777772e77332e6f72672f323030302f7360608401527f7667223e3c7374796c653e2e6f7b66696c6c3a233035303530353b7d2e777b6660808401527434b6361d11b31cb31cb31c9dbe9e17b9ba3cb6329f60591b60a084015260b5830190611c92565b651e17b9bb339f60d11b81520360191981018552018361025f565b60405163507f146560e01b815290602090829060049082906001600160a01b03165afa9081156109c8575f91613dd5575090565b90506020813d602011613e02575b81613df06020938361025f565b810103126104e7575161040a816107c1565b3d9150613de3565b61040a90610c81613e3f611e439460405190609160f51b6020830152602282015260228152613e3a60428261025f565b6151fa565b6040519485936020850190611c92565b60405190613e5e60608361025f565b604082527f6768696a6b6c6d6e6f707172737475767778797a303132333435363738392b2f6040837f4142434445464748494a4b4c4d4e4f505152535455565758595a61626364656660208201520152565b600281901b91906001600160fe1b03811603611a8657565b805115613fa657613ed7613e4f565b613ef3613eee613ee78451611a8b565b6003900490565b613eb0565b91613f05613f0084611a99565b6132c1565b9283528091815182019060208501935b828110613f5657505050600390510680600114613f4557600214613f37575090565b603d60f81b5f199091015290565b50613d3d60f01b6001199091015290565b60036004919592939501916001603f845182828260121c16880101518453828282600c1c16880101518385015382828260061c168801015160028501531685010151600382015301939190613f15565b5061040a611d86565b906102b7611e19926040519384917f646174613a6170706c69636174696f6e2f6a736f6e3b6261736536342c0000006020840152603d830190611c92565b92909192613ffb83826143a8565b90835161400b9063ffffffff1690565b63ffffffff1661401a906138ae565b93610100810190815161402f9062ffffff1690565b62ffffff1661403d906136ea565b92614047906132e9565b90516140589063ffffffff166132e9565b91516140689062ffffff166132e9565b604051683d913730b6b2911d1160b91b60208201529687959194916029870161409091611c92565b7211161011383937b23ab1ba2730b6b2911d101160691b81526013016140b591611c92565b731116101131b0ba32b3b7b93ca730b6b2911d101160611b81526014016140db91611c92565b6d0111610113a37b5b2b724b2111d160951b8152600e016140fb91611c92565b6801610113ab831911d160bd1b815260090161411691611c92565b6d016101131b0ba32b3b7b93c911d160951b8152600e0161413691611c92565b03601f1981018352614148908361025f565b604051701610113232b9b1b934b83a34b7b7111d1160791b602082015290819061417460318301613a1b565b7111161132bc3a32b93730b62fbab936111d1160711b815260120161419890613aa2565b7f222c22696d616765223a22646174613a696d6167652f7376672b786d6c3b62618152641cd94d8d0b60da1b60208201526025016141d591611c92565b61227d60f01b815260020103601f19810182526141f2908261025f565b6040519283926020840161420591611c92565b61420e91611c92565b61421791611c92565b03601f1981018252614229908261025f565b61423290613ec8565b61040a90613faf565b906102b76001614255936040519485916020830190611c92565b600160fd1b815203601e1981018552018361025f565b6040519061427a60408361025f565b600a8252692072656d61696e696e6760b01b6020830152565b90611e439493611e436102b79460016142b9611e19956040519a8b9860208a0190611c92565b602f60f81b81520190611c92565b906142ef9493611e436102b79460016142b9611e1995600c6040519b8c9960208b0190611c92565b6b0101429a7a6221027aaaa14960a51b81520190611c92565b611e19611e43949360016142b96102b7956040519889966020880190611c92565b906102b76002614343936040519485916020830190611c92565b6101d160f51b815203601d1981018552018361025f565b60016102b791614255611e4395946040519687936020850190611c92565b6102b790611e19614396949360056040519687946020860190611c92565b64555043202360d81b81520190611c92565b9061441861040a926143da6143cf6143ca6125f9612518875163ffffffff1690565b61423b565b91633b9aca00900690565b6143e261426b565b811561446f5750906143f6614413926132e9565b61440d612624612518606088015163ffffffff1690565b91614308565b614329565b906144306126086112f361010084015162ffffff1690565b8051614452575b5061262461251861444c925163ffffffff1690565b90614378565b6125186144666126249261444c949561435a565b93925050614437565b90506040840191614484835163ffffffff1690565b63ffffffff81166144c457506144a7612624612518614413955163ffffffff1690565b6144be612624612518606089015163ffffffff1690565b916142c7565b61441393506144d89063ffffffff166132e9565b6144ef612624612518606089015163ffffffff1690565b91614293565b6144fe9061558a565b9360409695969391935196879660208801703c7374796c653e2e62317b66696c6c3a2360781b90526031880161453391611c92565b6b3b7d2e62327b66696c6c3a2360a01b8152600c0161455191611c92565b6b3b7d2e62337b66696c6c3a2360a01b8152600c0161456f91611c92565b6b3b7d2e62347b66696c6c3a2360a01b8152600c0161458d91611c92565b6b3b7d2e61317b66696c6c3a2360a01b8152600c016145ab91611c92565b6b3b7d2e61327b66696c6c3a2360a01b8152600c016145c991611c92565b6b3b7d2e61337b66696c6c3a2360a01b8152600c016145e791611c92565b691dbe9e17b9ba3cb6329f60b11b8152600a0161460390613b17565b03601f198101825261040a908261025f565b906102b761463092611e196040519485926020840190611c92565b6008613b8c565b906102b761465292611e196040519485926020840190611c92565b6009613b8c565b906102b761467492611e196040519485926020840190611c92565b6006613b8c565b906102b761469692611e196040519485926020840190611c92565b6007613b8c565b9291909260609084515f5f905f955f9186945f5b6146ba82611aa7565b8110156148925781811015614886576146d3818d611b62565b51966146df888a6131a9565b936147056125186146fa6112f361010089015162ffffff1690565b965163ffffffff1690565b915b60038614918215614857575050600198614721838c613967565b9c5b6004871461484e575b600587036147f957506001975b600787036147b65750600b6001965b11806147ac575b614792575b15159081614789575b50614771575b5060010198959193986146b1565b600191996128de614782928b613967565b9890614763565b9050155f61475d565b9b61479d919b611e27565b996147a6611d86565b9b614754565b508c51151561474f565b9560078111806147f1575b806147e9575b6147d4575b600b90614748565b95509a6147e09061467b565b9a6001956147cc565b5089156147c7565b5086156147c1565b976005871180614846575b8061483e575b156147395797509a600187145f1461482f5761482590614659565b9a5b600197614739565b61483890614637565b9a614827565b50891561480a565b508815614804565b6001995061472c565b99909c600387118061487e575b156147235799509a61487590614615565b9a600199614723565b508a15614864565b5f966012938891614707565b5050505050505050925050565b906148be816108f28460018060a01b03165f52600c60205260405f2090565b54906148ca8284612a4d565b91808514801590614bb8575b6148e3575b505050505050565b8415614b41576040516331a9108f60e11b8152600481018690526001600160a01b0385169390602081602481885afa9081156109c8575f91614b22575b506001600160a01b0381811695908916868103614a5c575b50505061494586866131a9565b63ffffffff614958825163ffffffff1690565b16158015614a3c575b6149fe575082146149da575b508361498d826108f28660018060a01b03165f52600c60205260405f2090565b556001600160a01b0383165f908152600f602052604090206149b09085906108f2565b5530036149c7575b5050505b5f80808080806148db565b6149d29230916157b7565b5f80806149b8565b6149e96149ed918730876156b8565b1590565b6149f7575f61496d565b5050505050565b8587614a14610100610d0e94015162ffffff1690565b63bb1c79f560e01b5f526001600160a01b0390921660045260245262ffffff16604452606490565b50600162ffffff614a5461010084015162ffffff1690565b161415614961565b614a668989612a4d565b928315614b0257506040516331a9108f60e11b81526004810184905291602090839060249082905afa9182156109c8575f92614ae1575b506001600160a01b03821603614ac1575083614ab99187615728565b5f8080614938565b60405163a709b7d960e01b8152908190610970908b8b8b60048601612d76565b614afb91925060203d6020116109c1576109b3818361025f565b905f614a9d565b60405163a709b7d960e01b8152908190610970908d8d8d60048601612d76565b614b3b915060203d6020116109c1576109b3818361025f565b5f614920565b929350809491145f14614b8f5790614b5a9130846156b8565b614b66575b50506149bc565b6001600160a01b03165f908152600c602052604081209091614b87916108f2565b555f80614b5f565b50506001600160a01b03165f908152600c602052604081209091614bb2916108f2565b556149bc565b50818314156148d6565b9193925f945f925f93614bf1614bec836108f28960018060a01b03165f52600b60205260405f2090565b611ac2565b965f955f945f908a51615146575b90935f989398969296505f985b82518a10156150ad57614c1f8a84611b62565b516040516331a9108f60e11b8152600481018290526001600160a01b038d169e919791908f816024815a93602094fa9081156109c8578e918a915f9161508f575b506001600160a01b03908116908e1603614f56575b6101006112e96112f392614c88946131a9565b9960028b108015614f4c575b614f38578c151580614f2e575b614f17575060048a03614e5557506001949095919293955b81151580614e4b575b15614d785750818c959493928e838d8b614cfb96141580614d66575b15614d535790614cef91308b6156b8565b614d40575b5050611b76565b94858d805182105f14614d33576101006112e9614d1e614d26946112f394611b62565b5180996131a9565b905b959192939490614cb9565b505093505f935f90614d28565b5f91614d4b91611b62565b52808e614cf4565b50505f91614d6091611b62565b52611b76565b508c614d72838c612ccd565b14614cde565b93969d919a949d989098959295888d81614d928483612ccd565b03614db1575b5050506001915093019398939896929694909194614c0c565b6001600160a01b03165f908152601060205260409020614dd29083906108f2565b556040516331a9108f60e11b81526004810182905292602090849060249082905afa80156109c8576001935f91614e2d575b503090848060a01b031603614e1b575b888d614d98565b614e2790308c8f6157b7565b5f614e14565b614e45915060203d81116109c1576109b3818361025f565b5f614e04565b5089811115614cc2565b939260098a03614e6e5750600192959192939490614cb9565b92896005819f9e9d9c9b14908115614f0c575b8115614f01575b8115614ef6575b5080614eef575b15614eaf576318ba808f60e01b5f5260048e905260245ffd5b600b8e9a9b9c9d9e148015614ee5575b80614ede575b15614d2857630fcc3a2b60e31b5f5260048a905260245ffd5b5083614ec5565b50600a8a14614ebf565b5084614e96565b600c9150148e614e8f565b600781149150614e88565b600681149150614e81565b63ed4df0a560e01b5f5260045260248a905260445ffd5b50808b1115614ca1565b632bd7ecbd60e01b5f5260048b905260245ffd5b5060118b11614c94565b614f5f91612ccd565b8015615015578f602060405180926331a9108f60e11b82528180614f8b87600483019190602083019252565b03915afa9081156109c8575f91614ff7575b506001600160a01b03818116908e1603614fd757506112f36101008f8b81614fcc8f614c88976112e995615728565b945092505050614c75565b8e6109708b928f604051948594630e9134e960e11b865260048601612d76565b61500f915060203d81116109c1576109b3818361025f565b5f614f9d565b8f8e8a918e602060405180936331a9108f60e11b8252818061503f89600483019190602083019252565b03915afa9081156109c857610970925f9261506f575b50604051630e9134e960e11b815294859460048601612d76565b61508891925060203d81116109c1576109b3818361025f565b9085615055565b6150a7915060203d81116109c1576109b3818361025f565b5f614c60565b9a999650509650915091939750805b6150cd5750506102b79495506158c7565b90816150dc866150ed9461581a565b1561510e57505f614d608288611b62565b8451811015615107576151008186611b62565b51806150bc565b5f806150bc565b846151198286612ccd565b0361513a5761512a908930866156b8565b15611b76575f614d608288611b62565b505f614d608288611b62565b95505061515289611b50565b51946151676112f36101006112e9898d6131a9565b90614bff565b601436101580615194575b156151905760131936013681116104e7573560601c90565b3390565b50337f00000000000000000000000000000000000000000000000000000000000000006001600160a01b031614615178565b6040516105e091906151d8838261025f565b602e815291601f1901366020840137565b908151811015611b5d570160200190565b9081511561531c5761520a6151c6565b915f61521584611b50565b5280516001915f5b8281106152425750505061523861523d9161040a9394615a96565b615ad7565b615b1c565b61526961269961526361525584866151e9565b516001600160f81b03191690565b60f81c90565b5f5b8760ff871682106152c5575050805b615287575060010161521d565b9360ff60016152bf926152b56152a16126998a603a900690565b6152ad8584168d611b62565b9060ff169052565b011694603a900490565b8061527a565b6152f582936152ef6152e96126996152e260019761531597611b62565b5160ff1690565b60081b90565b90611ab5565b61530e615304603a8306612699565b6152ad868d611b62565b603a900490565b910161526b565b905061040a6132a6565b6040519061533560408361025f565b600682526506666653930360d41b6020830152565b6040519061535960408361025f565b600682526506666633730360d41b6020830152565b6040519061537d60408361025f565b600682526566336136303360d01b6020830152565b604051906153a160408361025f565b600682526539363561316160d01b6020830152565b604051906153c560408361025f565b600682526533331bb1981960d11b6020830152565b604051906153e960408361025f565b600682526506664333630360d41b6020830152565b6040519061540d60408361025f565b600682526518cccc994c1960d21b6020830152565b6040519061543160408361025f565b600682526566666438633560d01b6020830152565b6040519061545560408361025f565b600682526566663936613960d01b6020830152565b6040519061547960408361025f565b600682526533329a9c1c3160d11b6020830152565b6040519061549d60408361025f565b600682526563393266343560d01b6020830152565b604051906154c160408361025f565b600682526536376437353760d01b6020830152565b604051906154e560408361025f565b600682526503330613232360d41b6020830152565b6040519061550960408361025f565b600682526532313761313560d01b6020830152565b6040519061552d60408361025f565b6006825265181c9a1c983360d11b6020830152565b6040519061555160408361025f565b6006825265329a1c19b2b360d11b6020830152565b6040519061557560408361025f565b60068252653231993332b360d11b6020830152565b600181036155d1575061559b6154b2565b906155a46154d6565b906155ad6154fa565b906155b661551e565b906155bf615542565b906155c8615566565b9061040a615566565b6002810361561857506155e2615422565b906155eb615446565b906155f461546a565b906155fd61548e565b90615606615422565b9061560f615446565b9061040a61546a565b6003810361565f575061562961536e565b906156326153b6565b9061563b6153da565b906156446153fe565b9061564d61536e565b906156566153b6565b9061040a6153da565b60048114615679576342fb10f760e11b5f5260045260245ffd5b50615682615326565b9061568b61534a565b9061569461536e565b9061569d615392565b906156a6615326565b906156af61534a565b9061040a61536e565b5f9493906001600160a01b0316803b156104e757604051632142170760e11b81526001600160a01b03938416600482015293909216602484015260448301525f908290606490829084905af19081615718575b5061571257565b60019150565b5f6157229161025f565b5f61570b565b9181151590816157ac575b5080615785575b615742575050565b6001600160a01b03919091165f81815260016020908152604080832085845290915281205463078592dd60e01b8252600492909252602492909252604452606490fd5b5060018060a01b0382165f52600160205260405f20815f5260205260405f2054421061573a565b90508114155f615733565b919290916001600160a01b0316803b156104e757604051632142170760e11b81526001600160a01b03938416600482015293909216602484015260448301525f908290606490829084905af180156109c8576158105750565b5f6102b79161025f565b5f915f5b815181101561584957826158328284611b62565b51146158405760010161581e565b50505050600190565b50505090565b8151916001600160401b03831161023e5768010000000000000000831161023e5760209082548484558085106158ac575b5001905f5260205f205f5b8381106158985750505050565b60019060208451940193818401550161588b565b6158c190845f5285845f2091820191016117ac565b5f615880565b929390915f925f5b8651811015615904576158e28188611b62565b516158f0575b6001016158cf565b936158fc600191611b76565b9490506158e8565b509194909391928061593b5750506001600160a01b03165f908152600b602052604090206102b79291615936916108f2565b61584f565b61594d61595291869793959651611ab5565b611b0a565b925f5b865181101561597d578061596b60019289611b62565b516159768288611b62565b5201615955565b50919493909351945f5b83518110156159cd578061599d60019286611b62565b516159a9575b01615987565b6159b38186611b62565b516159c76159c08a611b76565b9988611b62565b526159a3565b5093915093506159dd8284615bed565b6159e78284615d1b565b60015b8251811015615a7357615a0d6101006112e9615a068487611b62565b51876131a9565b62ffffff615a366112f36101006112e9615a2f615a2988611e49565b8a611b62565b518a6131a9565b911614615a45576001016159ea565b615a5c6101006112e986612948610d0e9588611b62565b63376b308960e01b5f5262ffffff16600452602490565b5092615936906108f26102b79460018060a01b03165f52600b60205260405f2090565b919060ff16615aa481611b0a565b905f5b818110615ab5575090925050565b8060ff615ac460019388611b62565b5116615ad08286611b62565b5201615aa7565b908151615ae381611b0a565b905f5b818110615af4575090925050565b60019060ff615b095f19838951030188611b62565b5116615b158286611b62565b5201615ae6565b8051615b27816115fa565b91615b35604051938461025f565b818352601f19615b44836115fa565b013660208501376060905f5b838110615b5e575050505090565b600190615bda615255604051615b74878261025f565b603a81527f31323334353637383941424344454647484a4b4c4d4e5051525354555657585960208201527f5a6162636465666768696a6b6d6e6f707172737475767778797a0000000000006040820152615bd46126996152e28689611b62565b906151e9565b5f1a615be682886151e9565b5301615b50565b915f9190828080805b8551821015615cc557615c1c6112f36101006112e9615c15868b611b62565b518c6131a9565b60048103615c32575050600180915b0190615bf6565b60058198929398148015615cbb575b8015615cb1575b8015615ca7575b15615c5f57505060018096615c2b565b9096939060098103615c7657505060018093615c2b565b600b8195929514908115615c9c575b50615c93575b600190615c2b565b60019250615c8b565b600a9150145f615c85565b50600c8114615c4f565b5060078114615c48565b5060068114615c41565b9396505092509281615d13575b50615d005781615cf8575b50615ce457565b630fcc3a2b60e31b5f52600960045260245ffd5b90505f615cdd565b6318ba808f60e01b5f526004805260245ffd5b90505f615cd2565b81519160028310615e2657615d2f83611b0a565b915f5b848110615dfc57505060015b838110615d4b5750505050565b90919293615d598284611b62565b5194615d658386611b62565b5191835b80151580615de1575b15615dbb57615d89615d8382611e49565b87611b62565b51615d948288611b62565b52615da7615da182611e49565b88611b62565b51615db28289611b62565b525f1901615d69565b615dda9060019492989796959397615dd38288611b62565b5286611b62565b5201615d3e565b5083615df5615def83611e49565b89611b62565b5111615d72565b80615e156112f36101006112e9615a0660019689611b62565b615e1f8287611b62565b5201615d32565b50505056fea164736f6c634300081c000a",
	"gitCommit": "npm:@bannynet/core-v6@1.0.0",
	"gitDirty": false,
	"history": []
}