{
	"format": "sphinx-sol-ct-artifact-1",
	"address": "0xf21b8717cb50e497e90f375ec532557dd9022655",
	"sourceName": "node_modules/@croptop/core-v6/src/CTDeployer.sol",
	"contractName": "CTDeployer",
	"chainId": "0xaa37dc",
	"abi": [
		{
			"type": "constructor",
			"inputs": [
				{
					"name": "permissions",
					"type": "address",
					"internalType": "contract IJBPermissions"
				},
				{
					"name": "projects",
					"type": "address",
					"internalType": "contract IJBProjects"
				},
				{
					"name": "deployer",
					"type": "address",
					"internalType": "contract IJB721TiersHookDeployer"
				},
				{
					"name": "publisher",
					"type": "address",
					"internalType": "contract ICTPublisher"
				},
				{
					"name": "suckerRegistry",
					"type": "address",
					"internalType": "contract IJBSuckerRegistry"
				},
				{
					"name": "trustedForwarder",
					"type": "address",
					"internalType": "address"
				}
			],
			"stateMutability": "nonpayable"
		},
		{
			"type": "function",
			"name": "DEPLOYER",
			"inputs": [],
			"outputs": [
				{
					"name": "",
					"type": "address",
					"internalType": "contract IJB721TiersHookDeployer"
				}
			],
			"stateMutability": "view"
		},
		{
			"type": "function",
			"name": "PERMISSIONS",
			"inputs": [],
			"outputs": [
				{
					"name": "",
					"type": "address",
					"internalType": "contract IJBPermissions"
				}
			],
			"stateMutability": "view"
		},
		{
			"type": "function",
			"name": "PROJECTS",
			"inputs": [],
			"outputs": [
				{
					"name": "",
					"type": "address",
					"internalType": "contract IJBProjects"
				}
			],
			"stateMutability": "view"
		},
		{
			"type": "function",
			"name": "PUBLISHER",
			"inputs": [],
			"outputs": [
				{
					"name": "",
					"type": "address",
					"internalType": "contract ICTPublisher"
				}
			],
			"stateMutability": "view"
		},
		{
			"type": "function",
			"name": "SUCKER_REGISTRY",
			"inputs": [],
			"outputs": [
				{
					"name": "",
					"type": "address",
					"internalType": "contract IJBSuckerRegistry"
				}
			],
			"stateMutability": "view"
		},
		{
			"type": "function",
			"name": "beforeCashOutRecordedWith",
			"inputs": [
				{
					"name": "context",
					"type": "tuple",
					"internalType": "struct JBBeforeCashOutRecordedContext",
					"components": [
						{
							"name": "terminal",
							"type": "address",
							"internalType": "address"
						},
						{
							"name": "holder",
							"type": "address",
							"internalType": "address"
						},
						{
							"name": "projectId",
							"type": "uint256",
							"internalType": "uint256"
						},
						{
							"name": "rulesetId",
							"type": "uint256",
							"internalType": "uint256"
						},
						{
							"name": "cashOutCount",
							"type": "uint256",
							"internalType": "uint256"
						},
						{
							"name": "totalSupply",
							"type": "uint256",
							"internalType": "uint256"
						},
						{
							"name": "surplus",
							"type": "tuple",
							"internalType": "struct JBTokenAmount",
							"components": [
								{
									"name": "token",
									"type": "address",
									"internalType": "address"
								},
								{
									"name": "decimals",
									"type": "uint8",
									"internalType": "uint8"
								},
								{
									"name": "currency",
									"type": "uint32",
									"internalType": "uint32"
								},
								{
									"name": "value",
									"type": "uint256",
									"internalType": "uint256"
								}
							]
						},
						{
							"name": "scopeCashOutsToLocalBalances",
							"type": "bool",
							"internalType": "bool"
						},
						{
							"name": "cashOutTaxRate",
							"type": "uint256",
							"internalType": "uint256"
						},
						{
							"name": "beneficiaryIsFeeless",
							"type": "bool",
							"internalType": "bool"
						},
						{
							"name": "metadata",
							"type": "bytes",
							"internalType": "bytes"
						}
					]
				}
			],
			"outputs": [
				{
					"name": "cashOutTaxRate",
					"type": "uint256",
					"internalType": "uint256"
				},
				{
					"name": "cashOutCount",
					"type": "uint256",
					"internalType": "uint256"
				},
				{
					"name": "totalSupply",
					"type": "uint256",
					"internalType": "uint256"
				},
				{
					"name": "surplusValue",
					"type": "uint256",
					"internalType": "uint256"
				},
				{
					"name": "hookSpecifications",
					"type": "tuple[]",
					"internalType": "struct JBCashOutHookSpecification[]",
					"components": [
						{
							"name": "hook",
							"type": "address",
							"internalType": "contract IJBCashOutHook"
						},
						{
							"name": "noop",
							"type": "bool",
							"internalType": "bool"
						},
						{
							"name": "amount",
							"type": "uint256",
							"internalType": "uint256"
						},
						{
							"name": "metadata",
							"type": "bytes",
							"internalType": "bytes"
						}
					]
				}
			],
			"stateMutability": "view"
		},
		{
			"type": "function",
			"name": "beforePayRecordedWith",
			"inputs": [
				{
					"name": "context",
					"type": "tuple",
					"internalType": "struct JBBeforePayRecordedContext",
					"components": [
						{
							"name": "terminal",
							"type": "address",
							"internalType": "address"
						},
						{
							"name": "payer",
							"type": "address",
							"internalType": "address"
						},
						{
							"name": "amount",
							"type": "tuple",
							"internalType": "struct JBTokenAmount",
							"components": [
								{
									"name": "token",
									"type": "address",
									"internalType": "address"
								},
								{
									"name": "decimals",
									"type": "uint8",
									"internalType": "uint8"
								},
								{
									"name": "currency",
									"type": "uint32",
									"internalType": "uint32"
								},
								{
									"name": "value",
									"type": "uint256",
									"internalType": "uint256"
								}
							]
						},
						{
							"name": "projectId",
							"type": "uint256",
							"internalType": "uint256"
						},
						{
							"name": "rulesetId",
							"type": "uint256",
							"internalType": "uint256"
						},
						{
							"name": "beneficiary",
							"type": "address",
							"internalType": "address"
						},
						{
							"name": "weight",
							"type": "uint256",
							"internalType": "uint256"
						},
						{
							"name": "reservedPercent",
							"type": "uint256",
							"internalType": "uint256"
						},
						{
							"name": "metadata",
							"type": "bytes",
							"internalType": "bytes"
						}
					]
				}
			],
			"outputs": [
				{
					"name": "weight",
					"type": "uint256",
					"internalType": "uint256"
				},
				{
					"name": "hookSpecifications",
					"type": "tuple[]",
					"internalType": "struct JBPayHookSpecification[]",
					"components": [
						{
							"name": "hook",
							"type": "address",
							"internalType": "contract IJBPayHook"
						},
						{
							"name": "noop",
							"type": "bool",
							"internalType": "bool"
						},
						{
							"name": "amount",
							"type": "uint256",
							"internalType": "uint256"
						},
						{
							"name": "metadata",
							"type": "bytes",
							"internalType": "bytes"
						}
					]
				}
			],
			"stateMutability": "view"
		},
		{
			"type": "function",
			"name": "claimCollectionOwnershipOf",
			"inputs": [
				{
					"name": "hook",
					"type": "address",
					"internalType": "contract IJB721TiersHook"
				}
			],
			"outputs": [],
			"stateMutability": "nonpayable"
		},
		{
			"type": "function",
			"name": "dataHookOf",
			"inputs": [
				{
					"name": "projectId",
					"type": "uint256",
					"internalType": "uint256"
				}
			],
			"outputs": [
				{
					"name": "",
					"type": "address",
					"internalType": "contract IJBRulesetDataHook"
				}
			],
			"stateMutability": "view"
		},
		{
			"type": "function",
			"name": "deployProjectFor",
			"inputs": [
				{
					"name": "owner",
					"type": "address",
					"internalType": "address"
				},
				{
					"name": "projectConfig",
					"type": "tuple",
					"internalType": "struct CTProjectConfig",
					"components": [
						{
							"name": "terminalConfigurations",
							"type": "tuple[]",
							"internalType": "struct JBTerminalConfig[]",
							"components": [
								{
									"name": "terminal",
									"type": "address",
									"internalType": "contract IJBTerminal"
								},
								{
									"name": "accountingContextsToAccept",
									"type": "tuple[]",
									"internalType": "struct JBAccountingContext[]",
									"components": [
										{
											"name": "token",
											"type": "address",
											"internalType": "address"
										},
										{
											"name": "decimals",
											"type": "uint8",
											"internalType": "uint8"
										},
										{
											"name": "currency",
											"type": "uint32",
											"internalType": "uint32"
										}
									]
								}
							]
						},
						{
							"name": "projectUri",
							"type": "string",
							"internalType": "string"
						},
						{
							"name": "allowedPosts",
							"type": "tuple[]",
							"internalType": "struct CTDeployerAllowedPost[]",
							"components": [
								{
									"name": "category",
									"type": "uint24",
									"internalType": "uint24"
								},
								{
									"name": "minimumPrice",
									"type": "uint104",
									"internalType": "uint104"
								},
								{
									"name": "minimumTotalSupply",
									"type": "uint32",
									"internalType": "uint32"
								},
								{
									"name": "maximumTotalSupply",
									"type": "uint32",
									"internalType": "uint32"
								},
								{
									"name": "maximumSplitPercent",
									"type": "uint32",
									"internalType": "uint32"
								},
								{
									"name": "allowedAddresses",
									"type": "address[]",
									"internalType": "address[]"
								}
							]
						},
						{
							"name": "contractUri",
							"type": "string",
							"internalType": "string"
						},
						{
							"name": "name",
							"type": "string",
							"internalType": "string"
						},
						{
							"name": "symbol",
							"type": "string",
							"internalType": "string"
						},
						{
							"name": "salt",
							"type": "bytes32",
							"internalType": "bytes32"
						}
					]
				},
				{
					"name": "suckerDeploymentConfiguration",
					"type": "tuple",
					"internalType": "struct CTSuckerDeploymentConfig",
					"components": [
						{
							"name": "deployerConfigurations",
							"type": "tuple[]",
							"internalType": "struct JBSuckerDeployerConfig[]",
							"components": [
								{
									"name": "deployer",
									"type": "address",
									"internalType": "contract IJBSuckerDeployer"
								},
								{
									"name": "peer",
									"type": "bytes32",
									"internalType": "bytes32"
								},
								{
									"name": "mappings",
									"type": "tuple[]",
									"internalType": "struct JBTokenMapping[]",
									"components": [
										{
											"name": "localToken",
											"type": "address",
											"internalType": "address"
										},
										{
											"name": "minGas",
											"type": "uint32",
											"internalType": "uint32"
										},
										{
											"name": "remoteToken",
											"type": "bytes32",
											"internalType": "bytes32"
										}
									]
								}
							]
						},
						{
							"name": "salt",
							"type": "bytes32",
							"internalType": "bytes32"
						}
					]
				},
				{
					"name": "controller",
					"type": "address",
					"internalType": "contract IJBController"
				}
			],
			"outputs": [
				{
					"name": "projectId",
					"type": "uint256",
					"internalType": "uint256"
				},
				{
					"name": "hook",
					"type": "address",
					"internalType": "contract IJB721TiersHook"
				}
			],
			"stateMutability": "payable"
		},
		{
			"type": "function",
			"name": "deploySuckersFor",
			"inputs": [
				{
					"name": "projectId",
					"type": "uint256",
					"internalType": "uint256"
				},
				{
					"name": "suckerDeploymentConfiguration",
					"type": "tuple",
					"internalType": "struct CTSuckerDeploymentConfig",
					"components": [
						{
							"name": "deployerConfigurations",
							"type": "tuple[]",
							"internalType": "struct JBSuckerDeployerConfig[]",
							"components": [
								{
									"name": "deployer",
									"type": "address",
									"internalType": "contract IJBSuckerDeployer"
								},
								{
									"name": "peer",
									"type": "bytes32",
									"internalType": "bytes32"
								},
								{
									"name": "mappings",
									"type": "tuple[]",
									"internalType": "struct JBTokenMapping[]",
									"components": [
										{
											"name": "localToken",
											"type": "address",
											"internalType": "address"
										},
										{
											"name": "minGas",
											"type": "uint32",
											"internalType": "uint32"
										},
										{
											"name": "remoteToken",
											"type": "bytes32",
											"internalType": "bytes32"
										}
									]
								}
							]
						},
						{
							"name": "salt",
							"type": "bytes32",
							"internalType": "bytes32"
						}
					]
				}
			],
			"outputs": [
				{
					"name": "suckers",
					"type": "address[]",
					"internalType": "address[]"
				}
			],
			"stateMutability": "nonpayable"
		},
		{
			"type": "function",
			"name": "hasMintPermissionFor",
			"inputs": [
				{
					"name": "projectId",
					"type": "uint256",
					"internalType": "uint256"
				},
				{
					"name": "",
					"type": "tuple",
					"internalType": "struct JBRuleset",
					"components": [
						{
							"name": "cycleNumber",
							"type": "uint48",
							"internalType": "uint48"
						},
						{
							"name": "id",
							"type": "uint48",
							"internalType": "uint48"
						},
						{
							"name": "basedOnId",
							"type": "uint48",
							"internalType": "uint48"
						},
						{
							"name": "start",
							"type": "uint48",
							"internalType": "uint48"
						},
						{
							"name": "duration",
							"type": "uint32",
							"internalType": "uint32"
						},
						{
							"name": "weight",
							"type": "uint112",
							"internalType": "uint112"
						},
						{
							"name": "weightCutPercent",
							"type": "uint32",
							"internalType": "uint32"
						},
						{
							"name": "approvalHook",
							"type": "address",
							"internalType": "contract IJBRulesetApprovalHook"
						},
						{
							"name": "metadata",
							"type": "uint256",
							"internalType": "uint256"
						}
					]
				},
				{
					"name": "addr",
					"type": "address",
					"internalType": "address"
				}
			],
			"outputs": [
				{
					"name": "flag",
					"type": "bool",
					"internalType": "bool"
				}
			],
			"stateMutability": "view"
		},
		{
			"type": "function",
			"name": "isTrustedForwarder",
			"inputs": [
				{
					"name": "forwarder",
					"type": "address",
					"internalType": "address"
				}
			],
			"outputs": [
				{
					"name": "",
					"type": "bool",
					"internalType": "bool"
				}
			],
			"stateMutability": "view"
		},
		{
			"type": "function",
			"name": "onERC721Received",
			"inputs": [
				{
					"name": "operator",
					"type": "address",
					"internalType": "address"
				},
				{
					"name": "from",
					"type": "address",
					"internalType": "address"
				},
				{
					"name": "tokenId",
					"type": "uint256",
					"internalType": "uint256"
				},
				{
					"name": "data",
					"type": "bytes",
					"internalType": "bytes"
				}
			],
			"outputs": [
				{
					"name": "",
					"type": "bytes4",
					"internalType": "bytes4"
				}
			],
			"stateMutability": "view"
		},
		{
			"type": "function",
			"name": "originalPayer",
			"inputs": [],
			"outputs": [
				{
					"name": "",
					"type": "address",
					"internalType": "address"
				}
			],
			"stateMutability": "view"
		},
		{
			"type": "function",
			"name": "supportsInterface",
			"inputs": [
				{
					"name": "interfaceId",
					"type": "bytes4",
					"internalType": "bytes4"
				}
			],
			"outputs": [
				{
					"name": "",
					"type": "bool",
					"internalType": "bool"
				}
			],
			"stateMutability": "view"
		},
		{
			"type": "function",
			"name": "trustedForwarder",
			"inputs": [],
			"outputs": [
				{
					"name": "",
					"type": "address",
					"internalType": "address"
				}
			],
			"stateMutability": "view"
		},
		{
			"type": "event",
			"name": "CTDeployer_SuckerDeploymentFailed",
			"inputs": [
				{
					"name": "projectId",
					"type": "uint256",
					"indexed": true,
					"internalType": "uint256"
				},
				{
					"name": "salt",
					"type": "bytes32",
					"indexed": true,
					"internalType": "bytes32"
				},
				{
					"name": "reason",
					"type": "bytes",
					"indexed": false,
					"internalType": "bytes"
				},
				{
					"name": "caller",
					"type": "address",
					"indexed": false,
					"internalType": "address"
				}
			],
			"anonymous": false
		},
		{
			"type": "error",
			"name": "CTDeployer_NotOwnerOfProject",
			"inputs": [
				{
					"name": "projectId",
					"type": "uint256",
					"internalType": "uint256"
				},
				{
					"name": "hook",
					"type": "address",
					"internalType": "address"
				},
				{
					"name": "caller",
					"type": "address",
					"internalType": "address"
				}
			]
		},
		{
			"type": "error",
			"name": "JBPermissioned_Unauthorized",
			"inputs": [
				{
					"name": "account",
					"type": "address",
					"internalType": "address"
				},
				{
					"name": "sender",
					"type": "address",
					"internalType": "address"
				},
				{
					"name": "projectId",
					"type": "uint256",
					"internalType": "uint256"
				},
				{
					"name": "permissionId",
					"type": "uint256",
					"internalType": "uint256"
				}
			]
		}
	],
	"args": [
		"0xf92AC1aB5A00033E35a3975739124F61928C36B0",
		"0x6017d1FBa9DC279BFA0B03fD931C22E242AB3691",
		"0xb7B8EC35e2dd84afff04Ee769C6189e7A4d44A78",
		"0xCBc84cf9b0293EfE3Ac7Dd1beA128a404f2E6a1c",
		"0x7903a854aE91eAf635430D120a1a434085cEf297",
		"0x3bA60b60933916a7C87D0860DcEE62a0CE34E3e2"
	],
	"solcInputHash": "6311e2b0641a17510dd9a2e7e7362d46",
	"bytecode": "0x61014080604052346102aa5760c0816134b8803803809161002082856102d6565b8339810103126102aa5780516001600160a01b03811681036102aa5760208201516001600160a01b03811681036102aa576040830151906001600160a01b03821682036102aa576060840151926001600160a01b03841684036102aa576080850151946001600160a01b03861686036102aa5760a001516001600160a01b03811681036102aa5760805260a05260e05260c0526101005261012052604080516100c982826102d6565b6001815260208101601f1983013682378151156102c2576018905261010051825191906001600160a01b0316606083016001600160401b038111848210176102ae578452825260208201915f835283810191825260018060a01b0360a0511691823b156102aa578451631127c92960e21b81523060048201526024810186905291516001600160a01b0316604483015292516001600160401b03166064820152915160606084840152805160a48401819052839160c48301916020909101905f5b81811061028e5750505091815f81819503925af1801561028457610274575b50516131be90816102fa8239608051818181611e80015281816121b90152613183015260a0518181816101e501528181610ae101528181611a2b015281816120e60152613053015260c05181818161027101526107b8015260e0518181816103950152818161046c015281816109d701528181610a49015281816119d901528181611f030152818161222701526122c101526101005181818161022b0152610e1c0152610120518181816102b701528181610c8101528181611d0001528181611fdb0152612c640152f35b5f61027e916102d6565b5f6101a9565b82513d5f823e3d90fd5b825160ff1684528694506020938401939092019160010161018a565b5f80fd5b634e487b7160e01b5f52604160045260245ffd5b634e487b7160e01b5f52603260045260245ffd5b601f909101601f19168101906001600160401b038211908210176102ae5760405256fe610180806040526004361015610013575f80fd5b5f60e0525f3560e01c90816301ffc9a71461230557508063150b7a0214612256578063293c499914612212578063296eee51146121ed578063572b6c0514612199578063673706e814611eaf5780637da0a87714611e6b5780638cc3584614611d9257806399f6d77f14611bc0578063a336cd9e14611968578063a4596e9114611931578063a9488e36146102e6578063b5d25533146102a0578063c1b8411a1461025a578063dbfbe5da14610214578063f434c914146101ce5763f672acac146100dc575f80fd5b346101c85760203660031901126101c8576004356001600160401b0381116101c8576101c060031982360301126101c85761011990600401612c15565b91939060405194859460a0860193865260208601526040850152606084015260a06080840152815180915260c0830190602060c08260051b86010193019160e051905b82821061016b57505050500390f35b919360019193955060206101b8819260bf198a8203018652608060608a51878060a01b038151168452858101511515868501526040810151604085015201519181606082015201906123b2565b960192019201859493919261015c565b60e05180fd5b346101c85760e0513660031901126101c8576040517f00000000000000000000000000000000000000000000000000000000000000006001600160a01b03168152602090f35b346101c85760e0513660031901126101c8576040517f00000000000000000000000000000000000000000000000000000000000000006001600160a01b03168152602090f35b346101c85760e0513660031901126101c8576040517f00000000000000000000000000000000000000000000000000000000000000006001600160a01b03168152602090f35b346101c85760e0513660031901126101c8576040517f00000000000000000000000000000000000000000000000000000000000000006001600160a01b03168152602090f35b60803660031901126101c8576102fa612388565b60c0526001600160401b03602435116101c85760e0602435360360031901126101c8576001600160401b03604435116101c8576040604435360360031901126101c85760643560808190526001600160a01b03811690036101c85760405163293c499960e01b8152608051602090829060049082906001600160a01b03165afa9081156119245760e051916118e2575b506001600160a01b037f000000000000000000000000000000000000000000000000000000000000000081169116036101c85760406101608190528051906103d29082612442565b60018152601f19610160510160e0515b8181106117b3578269d3c21bcecceda10000006101605161040283612a5e565b51015260016101605160a061041684612a5e565b51015101526001600160a01b0361043361042e613158565b6130d1565b166bffffffffffffffffffffffff60a01b60e0515c161760e0515d610160515163180e2b1160e31b8152306004820152602081602481347f00000000000000000000000000000000000000000000000000000000000000006001600160a01b03165af18015610bae5760e0516101405261177f575b5060e051805c6001600160a01b031916905d6104ce608460243501602435600401612a93565b906104e360a460243501602435600401612a93565b90926104f9606460243501602435600401612a93565b6020610120819052610160515195929492906105159087612442565b60e0518652610160515195610529876123d6565b86526001610120518701526012610160518701526101605151968760a08101106001600160401b0360a08a011117611767576106ec936105ae6105b79360a08b01610160515260e0518b5260e051610120518c015260e051610160518c015260e05160608c015260e05160808c01526101605151976105a7896123f1565b3691612ac5565b86523691612ac5565b61012051840190815261016051805191979195610608916105d89088612442565b6007875266697066733a2f2f60c81b61012051880152610160518601968752606086019360e05185523691612ac5565b906080850191825260a0850196875260c08501526106ca610627613158565b61016051516101205160243560c401359082019081526001600160a01b03909216602083015261066481604084015b03601f198101835282612442565b519020956106b76101605151996337b4a3c360e11b8b526101405160048c0152606060248c01526106a48b61016060648b519201526101c48d01906123b2565b90518b82036063190160848d01526123b2565b90518982036063190160a48b01526123b2565b91516001600160a01b031660c4880152518682036063190160e48801526123b2565b925192606319858203016101048601526060810193805194606083528551809152608083019060808160051b8501019661012051019160e051905b82821061163a57505050509160c09160ff60809463ffffffff610120518201511661012051840152610160510151169061016051015201518051151561012486015261012051810151151561014486015261016051810151151561016486015260608101511515610184860152015115156101a4840152604483015281806101205192038160e05160018060a01b037f0000000000000000000000000000000000000000000000000000000000000000165af18015610bae5760e051610100526115f4575b506127106101205160a06107ff84612a5e565b51015101523061022060a061081384612a5e565b510151015260016101e060a061082884612a5e565b5101510152600161020060a061083d84612a5e565b51015101526108556024803501602435600401612a93565b61089d61086760046024350180612488565b939092610160515160a0526307128b6b60e31b60a0515261014051600460a051015260a060248151015260a460a0510191612792565b60031960a051820301604460a0510152835180825261012051820191610120518260051b8201019561012051019260e051915b83831061131c5787878760031960a051840301606460a051015281835261012051830191610120518160051b85010193829360e051915b83831061122a57867404465706c6f7965642066726f6d2043726f70746f7605c1b60a0518203916003198301608460a051015260158152610120510152610120519060a05190610160510160a05160e05160018060a01b03608051165af18015610bae576111f2575b6101405160e0515260e05161012051526101605160e0512060018060a01b0361010051166bffffffffffffffffffffffff60a01b8254161790556044602435016109bf81602435600401612488565b9050610d44575b506024604435013580610bee575b507f00000000000000000000000000000000000000000000000000000000000000006001600160a01b03163b156101c8576101605151632142170760e11b815230600482015260c0516001600160a01b039081166024830181905261014051604484015260e0519092918290606490829084907f0000000000000000000000000000000000000000000000000000000000000000165af18015610bae57610bd5575b50610160515190610a8860a083612442565b600482526101205160809036908401376018610aa383612a5e565b52815160011015610bbd5761016051601990830152815160021015610bbd57601a6060830152815160031015610bbd57601b608083015261016051517f00000000000000000000000000000000000000000000000000000000000000006001600160a01b0316929091610b15836123d6565b82526001600160401b0361014051166101205183015261016051820152813b156101c85761016051518092631127c92960e21b82528180610b5d60e0519530600484016129e5565b039160e051905af18015610bae57610b95575b610160515161014051815260018060a01b036101005116610120518201526101605190f35b60e051610ba191612442565b60e0516101c85780610b70565b61016051513d60e051823e3d90fd5b634e487b7160e01b60e051526032600452602460e051fd5b60e051610be191612442565b60e0516101c85781610a76565b610656610c24610bfc613158565b61016051516101205181019485526001600160a01b0390911660208501529182906040850190565b519020610c3c6044356004016101405160c051612f70565b610c73610c4e60046044350180612488565b610160515180938192639d7f900160e01b835260e05194876101405160048601612589565b038160e05160018060a01b037f0000000000000000000000000000000000000000000000000000000000000000165af19081610d22575b50610d1c57610cb7612bd9565b7f905e9dabf88ece86eb9c3fccf63ce974802d36f5ac72549e1be97f2274438bcf610ce0613158565b91610cfc610160515191610160518352610160518301906123b2565b9260018060a01b0316610120518201528061014051930390a35b806109d4565b50610d16565b610d3f903d8060e051833e610d378183612442565b8101906124d4565b610caa565b610d5390602435600401612488565b610d5c816124bd565b91610d6c61016051519384612442565b81835261012051830190368360051b8201116101c85780915b8360051b820183106110b357505050508051610da0816124bd565b91610db061016051519384612442565b818352601f19610dbf836124bd565b0160e0515b81811061105a575050606060a06101605151610ddf8161240c565b60e051815260e0516101205182015260e0516101605182015260e0518382015260e0516080820152015260e0515060e0515b828110610faf5750507f00000000000000000000000000000000000000000000000000000000000000006001600160a01b0316919050813b156101c8576101605151809263cb4c08bd60e01b8252602482016101205160048401528351809152604483019060448160051b8501019461012051019160e051905b828210610ec85750505050818060e05194039160e051905af18015610bae57156109c65760e051610ebb91612442565b60e0516101c857806109c6565b91939450919460431987820301825285519061010060c060e083019360018060a01b03815116845262ffffff6101205182015116610120518501526001600160681b0361016051820151166101605185015263ffffffff606082015116606085015263ffffffff608082015116608085015263ffffffff60a08201511660a085015201519160e060c08201528251809452019061012051019160e051905b808210610f8b5750506001915095610120510191610120510192018694939192610e8b565b83516001600160a01b03168352610120519384019390920191600190910190610f66565b80610fbc60019284612a7f565b5162ffffff815116906001600160681b0361012051820151169063ffffffff610160518201511663ffffffff6060830151169060a063ffffffff6080850151169301519361016051519561100f876123f1565b888060a01b036101005116875261012051870152610160518601526060850152608084015260a083015260c08201526110488287612a7f565b526110538186612a7f565b5001610e11565b6101605151611068816123f1565b60e051815260e0516101205182015260e0516101605182015260e051606082015260e051608082015260e05160a0820152606060c08201526101205182870101526101205101610dc4565b82356001600160401b0381116101c85760c08184013603126101c8576101605151906110de8261240c565b8084013562ffffff811681036101c85782526101205184820101356001600160681b03811690036101c857610120518185010135610120518301526111296101605182860101612463565b6101605183015261113e606082860101612463565b6060830152611151608082860101612463565b608083015260a08185010135906001600160401b0382116101c85784010136601f820112156101c857803590611186826124bd565b9161119661016051519384612442565b80835261012051830190610120519060051b830101913683116101c8576101205101905b8282106111d95750505060a08201528152610120519283019201610d85565b6111e28261239e565b81526101205191820191016111ba565b610120513d8111611223575b61120a8160a051612442565b610120519060a0519060a05101031215610970575b5f80fd5b503d6111fe565b909192939495601f198282030183528635603e19873603018112156101c857808701356001600160a01b03811681036101c8576001600160a01b0316825261012051606092916112809190890190810190612555565b61016080516101205185015251830181905260e0519193909201915b8082106112bd57505061012051909781019695946001019301919050610907565b909160019060609081906001600160a01b036112d88861239e565b16815260ff6112eb610120518901612708565b166101205182015263ffffffff611306610160518901612463565b166101605182015201940192019092919261129c565b9091929396601f9695961982820301835287519061034081019165ffffffffffff815116825263ffffffff6101205182015116610120518301526001600160701b0361016051820151166101605183015263ffffffff606082015116606083015260018060a01b03608082015116608083015261ffff61024060a08301518281511660a086015282610120518201511660c086015263ffffffff610160518201511660e0860152606081015115156101008601526080810151151561012086015260a0810151151561014086015260c0810151151561016086015260e0810151151561018086015261010081015115156101a086015261012081015115156101c086015261014081015115156101e0860152610160810151151561020086015261018081015115156102208601526101a08101511515828601526101c081015115156102608601526101e0810151151561028086015261020081015115156102a086015260018060a01b03610220820151166102c08601520151166102e083015260c081015192610340610300840152835180915261036083016103608260051b8501019461012051019160e0515b8181106115a9575050505060e0015190610320818403910152805180835261012051830190610120518160051b8501019261012051019360e0515b82811061152f5750505050600191509761012051019261012051019301919392909594956108d0565b90919293611595600191601f19858203018752875190838060a01b038251168152838060a01b036101205183015116610120518201526060611584610160518401516080610160518501526080840190612b8b565b920151906060818403910152612b8b565b610120519687019690950193929101611506565b90919294956115e160019161035f19898203018652875180518252610120510151906101605161012051820152610160510190612afb565b61012051909796810194019291016114cb565b610120513d8111611633575b61160a8183612442565b816101205191810103126101c857516001600160a01b03811681036101c85761010052816107ec565b503d611600565b90919297611751600191607f198882030184526102206101408c516001600160681b03815116845263ffffffff61012051820151166101205185015263ffffffff61016051820151166101605185015261ffff6060820151166060850152858060a01b03608082015116608085015260a081015160a085015262ffffff60c08201511660c085015260ff60e08201511660e085015260c06101008201518051151561010087015261012051810151151561012087015261016051810151151584870152606081015115156101608701526080810151151561018087015260a081015115156101a0870152015115156101c085015263ffffffff610120820151166101e0850152015191816102008201520190612afb565b9861012051019161012051019201909291610727565b634e487b7160e01b60e051526041600452602460e051fd5b6020813d6020116117ab575b8161179860209383612442565b8101031261121f575161014052816104a8565b3d915061178b565b61016051519061010082018281106001600160401b0382111761176757610160515260e051825260e051602083015260e0516101605183015260e051606083015260e05160808301526101605151916102608301928084106001600160401b0385111761176757602093610160515260e051815260e0518482015260e0516101605182015260e051606082015260e051608082015260e05160a082015260e05160c082015260e05160e082015260e05161010082015260e05161012082015260e05161014082015260e05161016082015260e05161018082015260e0516101a082015260e0516101c082015260e0516101e082015260e05161020082015260e05161022082015260e05161024082015260a0820152606060c0820152606060e0820152828286010152016103e2565b90506020813d60201161191c575b816118fd60209383612442565b810103126101c857516001600160a01b03811681036101c8578161038a565b3d91506118f0565b6040513d60e051823e3d90fd5b346101c85760203660031901126101c85760043560e0515260e051602052602060018060a01b03604060e051205416604051908152f35b3461121f57602036600319011261121f576004356001600160a01b0381169081900361121f57604051633fafa12760e01b815290602082600481845afa918215611b2c575f92611b8c575b506119bc613158565b6040516331a9108f60e11b815260048101849052906020826024817f00000000000000000000000000000000000000000000000000000000000000006001600160a01b03165afa918215611b2c575f92611b50575b506001600160a01b039081169116819003611b37576040517f00000000000000000000000000000000000000000000000000000000000000006001600160a01b031690611a5f602082612442565b5f81525f36813760405192611a73846123d6565b83526001600160401b03851660208401526040830152803b1561121f57604051631127c92960e21b8152915f918391829084908290611ab69030600484016129e5565b03925af18015611b2c57611b18575b50803b156101c857604051916351106b4b60e11b835260048301528160248160e0519360e051905af1801561192457611aff575b60e05180f35b60e051611b0b91612442565b60e0516101c85780611af9565b5f611b2291612442565b5f60e05282611ac5565b6040513d5f823e3d90fd5b916390db9b4160e01b5f5260045260245260445260645ffd5b9091506020813d602011611b84575b81611b6c60209383612442565b8101031261121f57611b7d90612474565b9084611a11565b3d9150611b5f565b9091506020813d602011611bb8575b81611ba860209383612442565b8101031261121f575190826119b3565b3d9150611b9b565b3461121f5761016036600319011261121f5761012036602319011261121f5760405161012081018181106001600160401b03821117611d7e5760405260243565ffffffffffff8116810361121f57815260443565ffffffffffff8116810361121f57602082015260643565ffffffffffff8116810361121f57604082015260843565ffffffffffff8116810361121f57606082015260a43563ffffffff8116810361121f57608082015260c4356001600160701b038116810361121f5760a082015260e43563ffffffff8116810361121f5760c0820152610104356001600160a01b038116810361121f5760e08201526101243561010090910152610144356001600160a01b038116810361121f576040516383db9d0160e01b815260048035908201526001600160a01b039091166024820152602081806044810103817f00000000000000000000000000000000000000000000000000000000000000006001600160a01b03165afa8015611b2c575f90611d44575b6020906040519015158152f35b506020813d602011611d76575b81611d5e60209383612442565b8101031261121f57611d7160209161269a565b611d37565b3d9150611d51565b634e487b7160e01b5f52604160045260245ffd5b3461121f57602036600319011261121f576004356001600160401b03811161121f57610180600319823603011261121f57611dcf906004016127b2565b90604051918291604083019083526040602084015281518091526060830190602060608260051b8601019301915f905b828210611e0e57505050500390f35b91936001919395506020611e5b8192605f198a8203018652608060608a51878060a01b038151168452858101511515868501526040810151604085015201519181606082015201906123b2565b9601920192018594939192611dff565b3461121f575f36600319011261121f576040517f00000000000000000000000000000000000000000000000000000000000000006001600160a01b03168152602090f35b3461121f57604036600319011261121f576024356004356001600160401b03821161121f5781600401906040600319843603011261121f576040516331a9108f60e11b8152600481018290526020816024817f00000000000000000000000000000000000000000000000000000000000000006001600160a01b03165afa908115611b2c575f9161215f575b50611f44613158565b6001600160a01b03828116911680821415806120a6575b61207b57611fd65f8686611fb88a611f7484848b612f70565b610656611fae611f82613158565b6040805160249590950135602086019081526001600160a01b0390921690850152929182906060820190565b5190209280612488565b604051639d7f900160e01b8152958694859491939160048601612589565b0381837f00000000000000000000000000000000000000000000000000000000000000006001600160a01b03165af1908115611b2c575f91612061575b506040518091602082016020835281518091526020604084019201905f5b81811061203f575050500390f35b82516001600160a01b0316845285945060209384019390920191600101612031565b61207591503d805f833e610d378183612442565b81612013565b908360849260405192631326f75560e11b845260048401526024830152604482015260216064820152fd5b50604051631a45b42760e11b81526004810182905260248101839052604481018590526021606482015260016084820181905260a482015260208160c4817f00000000000000000000000000000000000000000000000000000000000000006001600160a01b03165afa908115611b2c575f91612125575b5015611f5b565b90506020813d602011612157575b8161214060209383612442565b8101031261121f576121519061269a565b8761211e565b3d9150612133565b90506020813d602011612191575b8161217a60209383612442565b8101031261121f5761218b90612474565b84611f3b565b3d915061216d565b3461121f57602036600319011261121f5760206121b4612388565b6040517f00000000000000000000000000000000000000000000000000000000000000006001600160a01b039081169216919091148152f35b3461121f575f36600319011261121f576040515f5c6001600160a01b03168152602090f35b3461121f575f36600319011261121f576040517f00000000000000000000000000000000000000000000000000000000000000006001600160a01b03168152602090f35b3461121f57608036600319011261121f5761226f612388565b506024356001600160a01b0381169081900361121f576064356001600160401b03811161121f573660238201121561121f5780600401356001600160401b03811161121f573691016024011161121f577f00000000000000000000000000000000000000000000000000000000000000006001600160a01b0316330361121f5761121f57604051630a85bd0160e11b8152602090f35b3461121f57602036600319011261121f576004359063ffffffff60e01b821680920361121f57602091635e36a81960e01b8114908115612377575b8115612366575b8115612355575b5015158152f35b63296eee5160e01b1490508361234e565b630a85bd0160e11b81149150612347565b63e347239560e01b81149150612340565b600435906001600160a01b038216820361121f57565b35906001600160a01b038216820361121f57565b805180835260209291819084018484015e5f828201840152601f01601f1916010190565b606081019081106001600160401b03821117611d7e57604052565b60e081019081106001600160401b03821117611d7e57604052565b60c081019081106001600160401b03821117611d7e57604052565b608081019081106001600160401b03821117611d7e57604052565b90601f801991011681019081106001600160401b03821117611d7e57604052565b359063ffffffff8216820361121f57565b51906001600160a01b038216820361121f57565b903590601e198136030182121561121f57018035906001600160401b03821161121f57602001918160051b3603831361121f57565b6001600160401b038111611d7e5760051b60200190565b60208183031261121f578051906001600160401b03821161121f57019080601f8301121561121f578151612507816124bd565b926125156040519485612442565b81845260208085019260051b82010192831161121f57602001905b82821061253d5750505090565b6020809161254a84612474565b815201910190612530565b9035601e198236030181121561121f5701602081359101916001600160401b03821161121f57606082023603831361121f57565b93919082916060860191865260208601526060604086015252608083019260808260051b82010193835f92605e1982360301905b8585106125ce575050505050505090565b90919293949596607f1982820301855287358381121561121f57606082019190850180356001600160a01b0381169081900361121f57608091612621918452602081013560208501526040810190612555565b60606040850152938490529101915f905b808210612653575050506020806001929901950195019395949291906125bd565b909192606080600192838060a01b0361266b8861239e565b16815263ffffffff61267f60208901612463565b16602082015260408701356040820152019401920190612632565b5190811515820361121f57565b6001600160401b038111611d7e57601f01601f191660200190565b81601f8201121561121f578051906126d9826126a7565b926126e76040519485612442565b8284526020838301011161121f57815f9260208093018386015e8301015290565b359060ff8216820361121f57565b60609081906001600160a01b0361272c8261239e565b16845260ff61273d60208301612708565b16602085015263ffffffff61275460408301612463565b1660408501520135910152565b9035601e198236030181121561121f5701602081359101916001600160401b03821161121f57813603831361121f57565b908060209392818452848401375f828201840152601f01601f1916010190565b60c08101355f818152602081905260409020546001600160a01b0316919082156129d857604051634661ac2360e11b81526020600482015293925f928592839182916128a09161288c916001600160a01b0361280d8361239e565b1660248601526001600160a01b036128276020840161239e565b16604486015261283d6064860160408401612716565b60e485015260e08101356101048501526001600160a01b03612862610100830161239e565b16610124850152610120810135610144850152610140810135610164850152610160810190612761565b6101806101848501526101a4840191612792565b03915afa918215611b2c575f905f936128b857509190565b9250503d805f843e6128ca8184612442565b82019160408184031261121f578051906020810151906001600160401b03821161121f57019280601f8501121561121f57835193612907856124bd565b946129156040519687612442565b80865260208087019160051b8301019183831161121f5760208101915b8383106129425750505050509190565b82516001600160401b03811161121f578201906080828703601f19011261121f576040519061297082612427565b60208301516001600160a01b038116810361121f5782526129936040840161269a565b6020830152606083015160408301526080830151916001600160401b03831161121f576129c8886020809695819601016126c2565b6060820152815201920191612932565b5061012001359160609150565b919060018060a01b0316825260406020830152602060c0604060a085019360018060a01b03815116828701526001600160401b0384820151166060870152015193606060808201528451809452019201905f5b818110612a455750505090565b825160ff16845260209384019390920191600101612a38565b805115612a6b5760200190565b634e487b7160e01b5f52603260045260245ffd5b8051821015612a6b5760209160051b010190565b903590601e198136030182121561121f57018035906001600160401b03821161121f5760200191813603831361121f57565b929192612ad1826126a7565b91612adf6040519384612442565b82948184528183011161121f578281602093845f960137010152565b90602080835192838152019201905f5b818110612b185750505090565b909192602060c0600192865163ffffffff81511682526001600160401b03848201511684830152848060a01b03604082015116604083015260608101511515606083015265ffffffffffff608082015116608083015260a08580821b039101511660a08201520194019101919091612b0b565b90602080835192838152019201905f5b818110612ba85750505090565b825180516001600160e01b0316855260209081015163ffffffff168186015260409094019390920191600101612b9b565b3d15612c03573d90612bea826126a7565b91612bf86040519384612442565b82523d5f602084013e565b606090565b3590811515820361121f57565b6060919060408101356020820180356001600160a01b038116810361121f576040516383db9d0160e01b8152600481018490526001600160a01b039091166024820152602081806044810103817f00000000000000000000000000000000000000000000000000000000000000006001600160a01b03165afa908115611b2c575f91612f36575b50612f1e575f828152602081905260409020546001600160a01b0316948515612efe5750604051633d9cab2b60e21b81526020600482015293945f938593919284928392612da092612d8c92906001600160a01b03612cfa8461239e565b1660248701526001600160a01b0390612d129061239e565b166044860152606485015260608101356084850152608081013560a485015260a081013560c4850152612d4b60e4850160c08301612716565b612d586101408201612c08565b1515610164850152610160810135610184850152612d796101808201612c08565b15156101a48501526101a0810190612761565b6101c06101c48501526101e4840191612792565b03915afa908115611b2c575f915f935f935f935f93612dc2575b509493929190565b945050935050503d805f833e612dd88183612442565b810160a08282031261121f578151926020830151906040840151946060850151946080810151906001600160401b03821161121f57019380601f8601121561121f57845194612e26866124bd565b95612e346040519788612442565b80875260208088019160051b8301019183831161121f5760208101915b838310612e6857505050505091949392915f612dba565b82516001600160401b03811161121f578201906080828703601f19011261121f5760405190612e9682612427565b60208301516001600160a01b038116810361121f578252612eb96040840161269a565b6020830152606083015160408301526080830151916001600160401b03831161121f57612eee886020809695819601016126c2565b6060820152815201920191612e51565b945050506101608101359260808201359261012060a08401359301359190565b505f9360808301359360a08401359361012001359250565b90506020813d602011612f68575b81612f5160209383612442565b8101031261121f57612f629061269a565b5f612c9c565b3d9150612f44565b905f5b612f7d8480612488565b90508110156130cb57612f908480612488565b821015612a6b578160051b810135605e198236030181121561121f570160200135612fbd57600101612f73565b50909150612fc9613158565b6001600160a01b0392831692168083141580613013575b612fe957505050565b6084935060405192631326f75560e11b845260048401526024830152604482015260226064820152fd5b50604051631a45b42760e11b81526004810182905260248101849052604481018390526022606482015260016084820181905260a482015260208160c4817f00000000000000000000000000000000000000000000000000000000000000006001600160a01b03165afa908115611b2c575f91613092575b5015612fe0565b90506020813d82116130c3575b816130ac60209383612442565b8101031261121f576130bd9061269a565b5f61308b565b3d915061309f565b50505050565b803b15613155575f80604051602081019063296eee5160e01b8252600481526130fb602482612442565b5190845afa613108612bd9565b9015801561314a575b6131465760208180518101031261121f57602001516001600160a01b0381169081900361121f5780613141575090565b905090565b5090565b506020815110613111565b90565b60143610158061317f575b1561317b57601319360136811161121f573560601c90565b3390565b50337f00000000000000000000000000000000000000000000000000000000000000006001600160a01b03161461316356fea164736f6c634300081c000a",
	"gitCommit": "npm:@croptop/core-v6@1.0.1",
	"gitDirty": false,
	"history": []
}