{
	"format": "sphinx-sol-ct-artifact-1",
	"address": "0xd37301850de89261afc7956d8c1a83fefc9fafe7",
	"sourceName": "node_modules/@croptop/core-v6/src/CTDeployer.sol",
	"contractName": "CTDeployer",
	"chainId": "0xaa37dc",
	"abi": [
		{
			"type": "constructor",
			"inputs": [
				{
					"name": "permissions",
					"type": "address",
					"internalType": "contract IJBPermissions"
				},
				{
					"name": "projects",
					"type": "address",
					"internalType": "contract IJBProjects"
				},
				{
					"name": "deployer",
					"type": "address",
					"internalType": "contract IJB721TiersHookDeployer"
				},
				{
					"name": "publisher",
					"type": "address",
					"internalType": "contract ICTPublisher"
				},
				{
					"name": "suckerRegistry",
					"type": "address",
					"internalType": "contract IJBSuckerRegistry"
				},
				{
					"name": "trustedForwarder",
					"type": "address",
					"internalType": "address"
				}
			],
			"stateMutability": "nonpayable"
		},
		{
			"type": "function",
			"name": "DEPLOYER",
			"inputs": [],
			"outputs": [
				{
					"name": "",
					"type": "address",
					"internalType": "contract IJB721TiersHookDeployer"
				}
			],
			"stateMutability": "view"
		},
		{
			"type": "function",
			"name": "PERMISSIONS",
			"inputs": [],
			"outputs": [
				{
					"name": "",
					"type": "address",
					"internalType": "contract IJBPermissions"
				}
			],
			"stateMutability": "view"
		},
		{
			"type": "function",
			"name": "PROJECTS",
			"inputs": [],
			"outputs": [
				{
					"name": "",
					"type": "address",
					"internalType": "contract IJBProjects"
				}
			],
			"stateMutability": "view"
		},
		{
			"type": "function",
			"name": "PUBLISHER",
			"inputs": [],
			"outputs": [
				{
					"name": "",
					"type": "address",
					"internalType": "contract ICTPublisher"
				}
			],
			"stateMutability": "view"
		},
		{
			"type": "function",
			"name": "SUCKER_REGISTRY",
			"inputs": [],
			"outputs": [
				{
					"name": "",
					"type": "address",
					"internalType": "contract IJBSuckerRegistry"
				}
			],
			"stateMutability": "view"
		},
		{
			"type": "function",
			"name": "beforeCashOutRecordedWith",
			"inputs": [
				{
					"name": "context",
					"type": "tuple",
					"internalType": "struct JBBeforeCashOutRecordedContext",
					"components": [
						{
							"name": "terminal",
							"type": "address",
							"internalType": "address"
						},
						{
							"name": "holder",
							"type": "address",
							"internalType": "address"
						},
						{
							"name": "projectId",
							"type": "uint256",
							"internalType": "uint256"
						},
						{
							"name": "rulesetId",
							"type": "uint256",
							"internalType": "uint256"
						},
						{
							"name": "cashOutCount",
							"type": "uint256",
							"internalType": "uint256"
						},
						{
							"name": "totalSupply",
							"type": "uint256",
							"internalType": "uint256"
						},
						{
							"name": "surplus",
							"type": "tuple",
							"internalType": "struct JBTokenAmount",
							"components": [
								{
									"name": "token",
									"type": "address",
									"internalType": "address"
								},
								{
									"name": "decimals",
									"type": "uint8",
									"internalType": "uint8"
								},
								{
									"name": "currency",
									"type": "uint32",
									"internalType": "uint32"
								},
								{
									"name": "value",
									"type": "uint256",
									"internalType": "uint256"
								}
							]
						},
						{
							"name": "scopeCashOutsToLocalBalances",
							"type": "bool",
							"internalType": "bool"
						},
						{
							"name": "cashOutTaxRate",
							"type": "uint256",
							"internalType": "uint256"
						},
						{
							"name": "beneficiaryIsFeeless",
							"type": "bool",
							"internalType": "bool"
						},
						{
							"name": "metadata",
							"type": "bytes",
							"internalType": "bytes"
						}
					]
				}
			],
			"outputs": [
				{
					"name": "cashOutTaxRate",
					"type": "uint256",
					"internalType": "uint256"
				},
				{
					"name": "cashOutCount",
					"type": "uint256",
					"internalType": "uint256"
				},
				{
					"name": "totalSupply",
					"type": "uint256",
					"internalType": "uint256"
				},
				{
					"name": "surplusValue",
					"type": "uint256",
					"internalType": "uint256"
				},
				{
					"name": "hookSpecifications",
					"type": "tuple[]",
					"internalType": "struct JBCashOutHookSpecification[]",
					"components": [
						{
							"name": "hook",
							"type": "address",
							"internalType": "contract IJBCashOutHook"
						},
						{
							"name": "noop",
							"type": "bool",
							"internalType": "bool"
						},
						{
							"name": "amount",
							"type": "uint256",
							"internalType": "uint256"
						},
						{
							"name": "metadata",
							"type": "bytes",
							"internalType": "bytes"
						}
					]
				}
			],
			"stateMutability": "view"
		},
		{
			"type": "function",
			"name": "beforePayRecordedWith",
			"inputs": [
				{
					"name": "context",
					"type": "tuple",
					"internalType": "struct JBBeforePayRecordedContext",
					"components": [
						{
							"name": "terminal",
							"type": "address",
							"internalType": "address"
						},
						{
							"name": "payer",
							"type": "address",
							"internalType": "address"
						},
						{
							"name": "amount",
							"type": "tuple",
							"internalType": "struct JBTokenAmount",
							"components": [
								{
									"name": "token",
									"type": "address",
									"internalType": "address"
								},
								{
									"name": "decimals",
									"type": "uint8",
									"internalType": "uint8"
								},
								{
									"name": "currency",
									"type": "uint32",
									"internalType": "uint32"
								},
								{
									"name": "value",
									"type": "uint256",
									"internalType": "uint256"
								}
							]
						},
						{
							"name": "projectId",
							"type": "uint256",
							"internalType": "uint256"
						},
						{
							"name": "rulesetId",
							"type": "uint256",
							"internalType": "uint256"
						},
						{
							"name": "beneficiary",
							"type": "address",
							"internalType": "address"
						},
						{
							"name": "weight",
							"type": "uint256",
							"internalType": "uint256"
						},
						{
							"name": "reservedPercent",
							"type": "uint256",
							"internalType": "uint256"
						},
						{
							"name": "metadata",
							"type": "bytes",
							"internalType": "bytes"
						}
					]
				}
			],
			"outputs": [
				{
					"name": "weight",
					"type": "uint256",
					"internalType": "uint256"
				},
				{
					"name": "hookSpecifications",
					"type": "tuple[]",
					"internalType": "struct JBPayHookSpecification[]",
					"components": [
						{
							"name": "hook",
							"type": "address",
							"internalType": "contract IJBPayHook"
						},
						{
							"name": "noop",
							"type": "bool",
							"internalType": "bool"
						},
						{
							"name": "amount",
							"type": "uint256",
							"internalType": "uint256"
						},
						{
							"name": "metadata",
							"type": "bytes",
							"internalType": "bytes"
						}
					]
				}
			],
			"stateMutability": "view"
		},
		{
			"type": "function",
			"name": "claimCollectionOwnershipOf",
			"inputs": [
				{
					"name": "hook",
					"type": "address",
					"internalType": "contract IJB721TiersHook"
				}
			],
			"outputs": [],
			"stateMutability": "nonpayable"
		},
		{
			"type": "function",
			"name": "dataHookOf",
			"inputs": [
				{
					"name": "projectId",
					"type": "uint256",
					"internalType": "uint256"
				}
			],
			"outputs": [
				{
					"name": "",
					"type": "address",
					"internalType": "contract IJBRulesetDataHook"
				}
			],
			"stateMutability": "view"
		},
		{
			"type": "function",
			"name": "deployProjectFor",
			"inputs": [
				{
					"name": "owner",
					"type": "address",
					"internalType": "address"
				},
				{
					"name": "projectConfig",
					"type": "tuple",
					"internalType": "struct CTProjectConfig",
					"components": [
						{
							"name": "terminalConfigurations",
							"type": "tuple[]",
							"internalType": "struct JBTerminalConfig[]",
							"components": [
								{
									"name": "terminal",
									"type": "address",
									"internalType": "contract IJBTerminal"
								},
								{
									"name": "accountingContextsToAccept",
									"type": "tuple[]",
									"internalType": "struct JBAccountingContext[]",
									"components": [
										{
											"name": "token",
											"type": "address",
											"internalType": "address"
										},
										{
											"name": "decimals",
											"type": "uint8",
											"internalType": "uint8"
										},
										{
											"name": "currency",
											"type": "uint32",
											"internalType": "uint32"
										}
									]
								}
							]
						},
						{
							"name": "projectUri",
							"type": "string",
							"internalType": "string"
						},
						{
							"name": "allowedPosts",
							"type": "tuple[]",
							"internalType": "struct CTDeployerAllowedPost[]",
							"components": [
								{
									"name": "category",
									"type": "uint24",
									"internalType": "uint24"
								},
								{
									"name": "minimumPrice",
									"type": "uint104",
									"internalType": "uint104"
								},
								{
									"name": "minimumTotalSupply",
									"type": "uint32",
									"internalType": "uint32"
								},
								{
									"name": "maximumTotalSupply",
									"type": "uint32",
									"internalType": "uint32"
								},
								{
									"name": "maximumSplitPercent",
									"type": "uint32",
									"internalType": "uint32"
								},
								{
									"name": "allowedAddresses",
									"type": "address[]",
									"internalType": "address[]"
								}
							]
						},
						{
							"name": "contractUri",
							"type": "string",
							"internalType": "string"
						},
						{
							"name": "name",
							"type": "string",
							"internalType": "string"
						},
						{
							"name": "symbol",
							"type": "string",
							"internalType": "string"
						},
						{
							"name": "salt",
							"type": "bytes32",
							"internalType": "bytes32"
						}
					]
				},
				{
					"name": "suckerDeploymentConfiguration",
					"type": "tuple",
					"internalType": "struct CTSuckerDeploymentConfig",
					"components": [
						{
							"name": "deployerConfigurations",
							"type": "tuple[]",
							"internalType": "struct JBSuckerDeployerConfig[]",
							"components": [
								{
									"name": "deployer",
									"type": "address",
									"internalType": "contract IJBSuckerDeployer"
								},
								{
									"name": "peer",
									"type": "bytes32",
									"internalType": "bytes32"
								},
								{
									"name": "mappings",
									"type": "tuple[]",
									"internalType": "struct JBTokenMapping[]",
									"components": [
										{
											"name": "localToken",
											"type": "address",
											"internalType": "address"
										},
										{
											"name": "minGas",
											"type": "uint32",
											"internalType": "uint32"
										},
										{
											"name": "remoteToken",
											"type": "bytes32",
											"internalType": "bytes32"
										}
									]
								}
							]
						},
						{
							"name": "salt",
							"type": "bytes32",
							"internalType": "bytes32"
						}
					]
				},
				{
					"name": "controller",
					"type": "address",
					"internalType": "contract IJBController"
				}
			],
			"outputs": [
				{
					"name": "projectId",
					"type": "uint256",
					"internalType": "uint256"
				},
				{
					"name": "hook",
					"type": "address",
					"internalType": "contract IJB721TiersHook"
				}
			],
			"stateMutability": "payable"
		},
		{
			"type": "function",
			"name": "deploySuckersFor",
			"inputs": [
				{
					"name": "projectId",
					"type": "uint256",
					"internalType": "uint256"
				},
				{
					"name": "suckerDeploymentConfiguration",
					"type": "tuple",
					"internalType": "struct CTSuckerDeploymentConfig",
					"components": [
						{
							"name": "deployerConfigurations",
							"type": "tuple[]",
							"internalType": "struct JBSuckerDeployerConfig[]",
							"components": [
								{
									"name": "deployer",
									"type": "address",
									"internalType": "contract IJBSuckerDeployer"
								},
								{
									"name": "peer",
									"type": "bytes32",
									"internalType": "bytes32"
								},
								{
									"name": "mappings",
									"type": "tuple[]",
									"internalType": "struct JBTokenMapping[]",
									"components": [
										{
											"name": "localToken",
											"type": "address",
											"internalType": "address"
										},
										{
											"name": "minGas",
											"type": "uint32",
											"internalType": "uint32"
										},
										{
											"name": "remoteToken",
											"type": "bytes32",
											"internalType": "bytes32"
										}
									]
								}
							]
						},
						{
							"name": "salt",
							"type": "bytes32",
							"internalType": "bytes32"
						}
					]
				}
			],
			"outputs": [
				{
					"name": "suckers",
					"type": "address[]",
					"internalType": "address[]"
				}
			],
			"stateMutability": "nonpayable"
		},
		{
			"type": "function",
			"name": "hasMintPermissionFor",
			"inputs": [
				{
					"name": "projectId",
					"type": "uint256",
					"internalType": "uint256"
				},
				{
					"name": "",
					"type": "tuple",
					"internalType": "struct JBRuleset",
					"components": [
						{
							"name": "cycleNumber",
							"type": "uint48",
							"internalType": "uint48"
						},
						{
							"name": "id",
							"type": "uint48",
							"internalType": "uint48"
						},
						{
							"name": "basedOnId",
							"type": "uint48",
							"internalType": "uint48"
						},
						{
							"name": "start",
							"type": "uint48",
							"internalType": "uint48"
						},
						{
							"name": "duration",
							"type": "uint32",
							"internalType": "uint32"
						},
						{
							"name": "weight",
							"type": "uint112",
							"internalType": "uint112"
						},
						{
							"name": "weightCutPercent",
							"type": "uint32",
							"internalType": "uint32"
						},
						{
							"name": "approvalHook",
							"type": "address",
							"internalType": "contract IJBRulesetApprovalHook"
						},
						{
							"name": "metadata",
							"type": "uint256",
							"internalType": "uint256"
						}
					]
				},
				{
					"name": "addr",
					"type": "address",
					"internalType": "address"
				}
			],
			"outputs": [
				{
					"name": "flag",
					"type": "bool",
					"internalType": "bool"
				}
			],
			"stateMutability": "view"
		},
		{
			"type": "function",
			"name": "isTrustedForwarder",
			"inputs": [
				{
					"name": "forwarder",
					"type": "address",
					"internalType": "address"
				}
			],
			"outputs": [
				{
					"name": "",
					"type": "bool",
					"internalType": "bool"
				}
			],
			"stateMutability": "view"
		},
		{
			"type": "function",
			"name": "onERC721Received",
			"inputs": [
				{
					"name": "operator",
					"type": "address",
					"internalType": "address"
				},
				{
					"name": "from",
					"type": "address",
					"internalType": "address"
				},
				{
					"name": "tokenId",
					"type": "uint256",
					"internalType": "uint256"
				},
				{
					"name": "data",
					"type": "bytes",
					"internalType": "bytes"
				}
			],
			"outputs": [
				{
					"name": "",
					"type": "bytes4",
					"internalType": "bytes4"
				}
			],
			"stateMutability": "view"
		},
		{
			"type": "function",
			"name": "supportsInterface",
			"inputs": [
				{
					"name": "interfaceId",
					"type": "bytes4",
					"internalType": "bytes4"
				}
			],
			"outputs": [
				{
					"name": "",
					"type": "bool",
					"internalType": "bool"
				}
			],
			"stateMutability": "view"
		},
		{
			"type": "function",
			"name": "trustedForwarder",
			"inputs": [],
			"outputs": [
				{
					"name": "",
					"type": "address",
					"internalType": "address"
				}
			],
			"stateMutability": "view"
		},
		{
			"type": "event",
			"name": "CTDeployer_SuckerDeploymentFailed",
			"inputs": [
				{
					"name": "projectId",
					"type": "uint256",
					"indexed": true,
					"internalType": "uint256"
				},
				{
					"name": "salt",
					"type": "bytes32",
					"indexed": true,
					"internalType": "bytes32"
				},
				{
					"name": "reason",
					"type": "bytes",
					"indexed": false,
					"internalType": "bytes"
				},
				{
					"name": "caller",
					"type": "address",
					"indexed": false,
					"internalType": "address"
				}
			],
			"anonymous": false
		},
		{
			"type": "error",
			"name": "CTDeployer_NotOwnerOfProject",
			"inputs": [
				{
					"name": "projectId",
					"type": "uint256",
					"internalType": "uint256"
				},
				{
					"name": "hook",
					"type": "address",
					"internalType": "address"
				},
				{
					"name": "caller",
					"type": "address",
					"internalType": "address"
				}
			]
		},
		{
			"type": "error",
			"name": "JBPermissioned_Unauthorized",
			"inputs": [
				{
					"name": "account",
					"type": "address",
					"internalType": "address"
				},
				{
					"name": "sender",
					"type": "address",
					"internalType": "address"
				},
				{
					"name": "projectId",
					"type": "uint256",
					"internalType": "uint256"
				},
				{
					"name": "permissionId",
					"type": "uint256",
					"internalType": "uint256"
				}
			]
		}
	],
	"args": [
		"0x86D026787cDf76A573C9A04BBF675B6d63F29a2b",
		"0xD3f29a60e475ff72bC7bdac96D8FE5872fB1F4B0",
		"0xAd798305a64Cf7Ac39cb60cAda0898e6D7DBeC19",
		"0x1b4D1Aa8a96E73018F2af0434E25657d40eAb595",
		"0x4C46AE4da2AB1c0B0765E98AFA52b3F780e96547",
		"0x256efB99e8ca40E7a3d793fC3006A5C1c90956c2"
	],
	"solcInputHash": "80d0a0a497bae1eeadc25394b82a0128",
	"bytecode": "0x61014080604052346102aa5760c0816133a5803803809161002082856102d6565b8339810103126102aa5780516001600160a01b03811681036102aa5760208201516001600160a01b03811681036102aa576040830151906001600160a01b03821682036102aa576060840151926001600160a01b03841684036102aa576080850151946001600160a01b03861686036102aa5760a001516001600160a01b03811681036102aa5760805260a05260e05260c0526101005261012052604080516100c982826102d6565b6001815260208101601f1983013682378151156102c2576018905261010051825191906001600160a01b0316606083016001600160401b038111848210176102ae578452825260208201915f835283810191825260018060a01b0360a0511691823b156102aa578451631127c92960e21b81523060048201526024810186905291516001600160a01b0316604483015292516001600160401b03166064820152915160606084840152805160a48401819052839160c48301916020909101905f5b81811061028e5750505091815f81819503925af1801561028457610274575b50516130ab90816102fa8239608051818181611e60015281816121990152613070015260a0518181816101da01528181610a9201528181611a0b015281816120c60152612fc7015260c0518181816102660152610769015260e05181818161038a0152818161042e01528181610988015281816109fa015281816119b901528181611ee3015281816121e2015261227c0152610100518181816102200152610dfc0152610120518181816102ac01528181610c3201528181611ce001528181611fbb0152612bd80152f35b5f61027e916102d6565b5f6101a9565b82513d5f823e3d90fd5b825160ff1684528694506020938401939092019160010161018a565b5f80fd5b634e487b7160e01b5f52604160045260245ffd5b634e487b7160e01b5f52603260045260245ffd5b601f909101601f19168101906001600160401b038211908210176102ae5760405256fe610180806040526004361015610013575f80fd5b5f60e0525f3560e01c90816301ffc9a7146122c057508063150b7a0214612211578063293c4999146121cd578063572b6c0514612179578063673706e814611e8f5780637da0a87714611e4b5780638cc3584614611d7257806399f6d77f14611ba0578063a336cd9e14611948578063a4596e9114611911578063a9488e36146102db578063b5d2553314610295578063c1b8411a1461024f578063dbfbe5da14610209578063f434c914146101c35763f672acac146100d1575f80fd5b346101bd5760203660031901126101bd576004356001600160401b0381116101bd576101c060031982360301126101bd5761010e90600401612b89565b91939060405194859460a0860193865260208601526040850152606084015260a06080840152815180915260c0830190602060c08260051b86010193019160e051905b82821061016057505050500390f35b919360019193955060206101ad819260bf198a8203018652608060608a51878060a01b03815116845285810151151586850152604081015160408501520151918160608201520190612355565b9601920192018594939192610151565b60e05180fd5b346101bd5760e0513660031901126101bd576040517f00000000000000000000000000000000000000000000000000000000000000006001600160a01b03168152602090f35b346101bd5760e0513660031901126101bd576040517f00000000000000000000000000000000000000000000000000000000000000006001600160a01b03168152602090f35b346101bd5760e0513660031901126101bd576040517f00000000000000000000000000000000000000000000000000000000000000006001600160a01b03168152602090f35b346101bd5760e0513660031901126101bd576040517f00000000000000000000000000000000000000000000000000000000000000006001600160a01b03168152602090f35b60803660031901126101bd576102ef61232b565b60c0526001600160401b03602435116101bd5760e0602435360360031901126101bd576001600160401b03604435116101bd576040604435360360031901126101bd5760643560808190526001600160a01b03811690036101bd5760405163293c499960e01b8152608051602090829060049082906001600160a01b03165afa9081156119045760e051916118c2575b506001600160a01b037f000000000000000000000000000000000000000000000000000000000000000081169116036101bd5760406101608190528051906103c790826123e5565b60018152601f19610160510160e0515b818110611793578269d3c21bcecceda1000000610160516103f783612a01565b51015260016101605160a061040b84612a01565b5101510152610160515163180e2b1160e31b8152306004820152602081602481347f00000000000000000000000000000000000000000000000000000000000000006001600160a01b03165af18015610b5f5760e0516101405261175f575b5061047f608460243501602435600401612a36565b9061049460a460243501602435600401612a36565b90926104aa606460243501602435600401612a36565b6020610120819052610160515195929492906104c690876123e5565b60e05186526101605151956104da87612379565b86526001610120518701526012610160518701526101605151968760a08101106001600160401b0360a08a0111176117475761069d9361055f6105689360a08b01610160515260e0518b5260e051610120518c015260e051610160518c015260e05160608c015260e05160808c015261016051519761055889612394565b3691612a68565b86523691612a68565b610120518401908152610160518051919791956105b99161058990886123e5565b6007875266697066733a2f2f60c81b61012051880152610160518601968752606086019360e05185523691612a68565b906080850191825260a0850196875260c085015261067b6105d8613045565b61016051516101205160243560c401359082019081526001600160a01b03909216602083015261061581604084015b03601f1981018352826123e5565b519020956106686101605151996337b4a3c360e11b8b526101405160048c0152606060248c01526106558b61016060648b519201526101c48d0190612355565b90518b82036063190160848d0152612355565b90518982036063190160a48b0152612355565b91516001600160a01b031660c4880152518682036063190160e4880152612355565b925192606319858203016101048601526060810193805194606083528551809152608083019060808160051b8501019661012051019160e051905b82821061161a57505050509160c09160ff60809463ffffffff610120518201511661012051840152610160510151169061016051015201518051151561012486015261012051810151151561014486015261016051810151151561016486015260608101511515610184860152015115156101a4840152604483015281806101205192038160e05160018060a01b037f0000000000000000000000000000000000000000000000000000000000000000165af18015610b5f5760e051610100526115d4575b506127106101205160a06107b084612a01565b51015101523061022060a06107c484612a01565b510151015260016101e060a06107d984612a01565b5101510152600161020060a06107ee84612a01565b51015101526108066024803501602435600401612a36565b61084e6108186004602435018061242b565b939092610160515160a0526307128b6b60e31b60a0515261014051600460a051015260a060248151015260a460a0510191612735565b60031960a051820301604460a0510152835180825261012051820191610120518260051b8201019561012051019260e051915b8383106112fc5787878760031960a051840301606460a051015281835261012051830191610120518160051b85010193829360e051915b83831061120a57867404465706c6f7965642066726f6d2043726f70746f7605c1b60a0518203916003198301608460a051015260158152610120510152610120519060a05190610160510160a05160e05160018060a01b03608051165af18015610b5f576111d2575b6101405160e0515260e05161012051526101605160e0512060018060a01b0361010051166bffffffffffffffffffffffff60a01b8254161790556044602435016109708160243560040161242b565b9050610d24575b506024604435013580610b9f575b507f00000000000000000000000000000000000000000000000000000000000000006001600160a01b03163b156101bd576101605151632142170760e11b815230600482015260c0516001600160a01b039081166024830181905261014051604484015260e0519092918290606490829084907f0000000000000000000000000000000000000000000000000000000000000000165af18015610b5f57610b86575b50610160515190610a3960a0836123e5565b600482526101205160809036908401376018610a5483612a01565b52815160011015610b6e5761016051601990830152815160021015610b6e57601a6060830152815160031015610b6e57601b608083015261016051517f00000000000000000000000000000000000000000000000000000000000000006001600160a01b0316929091610ac683612379565b82526001600160401b0361014051166101205183015261016051820152813b156101bd5761016051518092631127c92960e21b82528180610b0e60e051953060048401612988565b039160e051905af18015610b5f57610b46575b610160515161014051815260018060a01b036101005116610120518201526101605190f35b60e051610b52916123e5565b60e0516101bd5780610b21565b61016051513d60e051823e3d90fd5b634e487b7160e01b60e051526032600452602460e051fd5b60e051610b92916123e5565b60e0516101bd5781610a27565b610607610bd5610bad613045565b61016051516101205181019485526001600160a01b0390911660208501529182906040850190565b519020610bed6044356004016101405160c051612ee4565b610c24610bff6004604435018061242b565b610160515180938192639d7f900160e01b835260e0519487610140516004860161252c565b038160e05160018060a01b037f0000000000000000000000000000000000000000000000000000000000000000165af19081610d02575b50610cfc573d15610cf5573d610c708161264a565b90610c80610160515192836123e5565b8152803d9060e0519061012051013e5b7f905e9dabf88ece86eb9c3fccf63ce974802d36f5ac72549e1be97f2274438bcf610cb9613045565b91610cd561016051519161016051835261016051830190612355565b9260018060a01b0316610120518201528061014051930390a35b80610985565b6060610c90565b50610cef565b610d1f903d8060e051833e610d1781836123e5565b810190612477565b610c5b565b610d339060243560040161242b565b610d3c81612460565b91610d4c610160515193846123e5565b81835261012051830190368360051b8201116101bd5780915b8360051b8201831061109357505050508051610d8081612460565b91610d90610160515193846123e5565b818352601f19610d9f83612460565b0160e0515b81811061103a575050606060a06101605151610dbf816123af565b60e051815260e0516101205182015260e0516101605182015260e0518382015260e0516080820152015260e0515060e0515b828110610f8f5750507f00000000000000000000000000000000000000000000000000000000000000006001600160a01b0316919050813b156101bd576101605151809263cb4c08bd60e01b8252602482016101205160048401528351809152604483019060448160051b8501019461012051019160e051905b828210610ea85750505050818060e05194039160e051905af18015610b5f57156109775760e051610e9b916123e5565b60e0516101bd5780610977565b91939450919460431987820301825285519061010060c060e083019360018060a01b03815116845262ffffff6101205182015116610120518501526001600160681b0361016051820151166101605185015263ffffffff606082015116606085015263ffffffff608082015116608085015263ffffffff60a08201511660a085015201519160e060c08201528251809452019061012051019160e051905b808210610f6b5750506001915095610120510191610120510192018694939192610e6b565b83516001600160a01b03168352610120519384019390920191600190910190610f46565b80610f9c60019284612a22565b5162ffffff815116906001600160681b0361012051820151169063ffffffff610160518201511663ffffffff6060830151169060a063ffffffff60808501511693015193610160515195610fef87612394565b888060a01b036101005116875261012051870152610160518601526060850152608084015260a083015260c08201526110288287612a22565b526110338186612a22565b5001610df1565b610160515161104881612394565b60e051815260e0516101205182015260e0516101605182015260e051606082015260e051608082015260e05160a0820152606060c08201526101205182870101526101205101610da4565b82356001600160401b0381116101bd5760c08184013603126101bd576101605151906110be826123af565b8084013562ffffff811681036101bd5782526101205184820101356001600160681b03811690036101bd57610120518185010135610120518301526111096101605182860101612406565b6101605183015261111e606082860101612406565b6060830152611131608082860101612406565b608083015260a08185010135906001600160401b0382116101bd5784010136601f820112156101bd5780359061116682612460565b91611176610160515193846123e5565b80835261012051830190610120519060051b830101913683116101bd576101205101905b8282106111b95750505060a08201528152610120519283019201610d65565b6111c282612341565b815261012051918201910161119a565b610120513d8111611203575b6111ea8160a0516123e5565b610120519060a0519060a05101031215610921575b5f80fd5b503d6111de565b909192939495601f198282030183528635603e19873603018112156101bd57808701356001600160a01b03811681036101bd576001600160a01b03168252610120516060929161126091908901908101906124f8565b61016080516101205185015251830181905260e0519193909201915b80821061129d575050610120519097810196959460010193019190506108b8565b909160019060609081906001600160a01b036112b888612341565b16815260ff6112cb6101205189016126ab565b166101205182015263ffffffff6112e6610160518901612406565b166101605182015201940192019092919261127c565b9091929396601f9695961982820301835287519061034081019165ffffffffffff815116825263ffffffff6101205182015116610120518301526001600160701b0361016051820151166101605183015263ffffffff606082015116606083015260018060a01b03608082015116608083015261ffff61024060a08301518281511660a086015282610120518201511660c086015263ffffffff610160518201511660e0860152606081015115156101008601526080810151151561012086015260a0810151151561014086015260c0810151151561016086015260e0810151151561018086015261010081015115156101a086015261012081015115156101c086015261014081015115156101e0860152610160810151151561020086015261018081015115156102208601526101a08101511515828601526101c081015115156102608601526101e0810151151561028086015261020081015115156102a086015260018060a01b03610220820151166102c08601520151166102e083015260c081015192610340610300840152835180915261036083016103608260051b8501019461012051019160e0515b818110611589575050505060e0015190610320818403910152805180835261012051830190610120518160051b8501019261012051019360e0515b82811061150f575050505060019150976101205101926101205101930191939290959495610881565b90919293611575600191601f19858203018752875190838060a01b038251168152838060a01b036101205183015116610120518201526060611564610160518401516080610160518501526080840190612b2e565b920151906060818403910152612b2e565b6101205196870196909501939291016114e6565b90919294956115c160019161035f19898203018652875180518252610120510151906101605161012051820152610160510190612a9e565b61012051909796810194019291016114ab565b610120513d8111611613575b6115ea81836123e5565b816101205191810103126101bd57516001600160a01b03811681036101bd57610100528161079d565b503d6115e0565b90919297611731600191607f198882030184526102206101408c516001600160681b03815116845263ffffffff61012051820151166101205185015263ffffffff61016051820151166101605185015261ffff6060820151166060850152858060a01b03608082015116608085015260a081015160a085015262ffffff60c08201511660c085015260ff60e08201511660e085015260c06101008201518051151561010087015261012051810151151561012087015261016051810151151584870152606081015115156101608701526080810151151561018087015260a081015115156101a0870152015115156101c085015263ffffffff610120820151166101e0850152015191816102008201520190612a9e565b98610120510191610120510192019092916106d8565b634e487b7160e01b60e051526041600452602460e051fd5b6020813d60201161178b575b81611778602093836123e5565b810103126111ff5751610140528161046a565b3d915061176b565b61016051519061010082018281106001600160401b0382111761174757610160515260e051825260e051602083015260e0516101605183015260e051606083015260e05160808301526101605151916102608301928084106001600160401b0385111761174757602093610160515260e051815260e0518482015260e0516101605182015260e051606082015260e051608082015260e05160a082015260e05160c082015260e05160e082015260e05161010082015260e05161012082015260e05161014082015260e05161016082015260e05161018082015260e0516101a082015260e0516101c082015260e0516101e082015260e05161020082015260e05161022082015260e05161024082015260a0820152606060c0820152606060e0820152828286010152016103d7565b90506020813d6020116118fc575b816118dd602093836123e5565b810103126101bd57516001600160a01b03811681036101bd578161037f565b3d91506118d0565b6040513d60e051823e3d90fd5b346101bd5760203660031901126101bd5760043560e0515260e051602052602060018060a01b03604060e051205416604051908152f35b346111ff5760203660031901126111ff576004356001600160a01b038116908190036111ff57604051633fafa12760e01b815290602082600481845afa918215611b0c575f92611b6c575b5061199c613045565b6040516331a9108f60e11b815260048101849052906020826024817f00000000000000000000000000000000000000000000000000000000000000006001600160a01b03165afa918215611b0c575f92611b30575b506001600160a01b039081169116819003611b17576040517f00000000000000000000000000000000000000000000000000000000000000006001600160a01b031690611a3f6020826123e5565b5f81525f36813760405192611a5384612379565b83526001600160401b03851660208401526040830152803b156111ff57604051631127c92960e21b8152915f918391829084908290611a96903060048401612988565b03925af18015611b0c57611af8575b50803b156101bd57604051916351106b4b60e11b835260048301528160248160e0519360e051905af1801561190457611adf575b60e05180f35b60e051611aeb916123e5565b60e0516101bd5780611ad9565b5f611b02916123e5565b5f60e05282611aa5565b6040513d5f823e3d90fd5b916390db9b4160e01b5f5260045260245260445260645ffd5b9091506020813d602011611b64575b81611b4c602093836123e5565b810103126111ff57611b5d90612417565b90846119f1565b3d9150611b3f565b9091506020813d602011611b98575b81611b88602093836123e5565b810103126111ff57519082611993565b3d9150611b7b565b346111ff576101603660031901126111ff576101203660231901126111ff5760405161012081018181106001600160401b03821117611d5e5760405260243565ffffffffffff811681036111ff57815260443565ffffffffffff811681036111ff57602082015260643565ffffffffffff811681036111ff57604082015260843565ffffffffffff811681036111ff57606082015260a43563ffffffff811681036111ff57608082015260c4356001600160701b03811681036111ff5760a082015260e43563ffffffff811681036111ff5760c0820152610104356001600160a01b03811681036111ff5760e08201526101243561010090910152610144356001600160a01b03811681036111ff576040516383db9d0160e01b815260048035908201526001600160a01b039091166024820152602081806044810103817f00000000000000000000000000000000000000000000000000000000000000006001600160a01b03165afa8015611b0c575f90611d24575b6020906040519015158152f35b506020813d602011611d56575b81611d3e602093836123e5565b810103126111ff57611d5160209161263d565b611d17565b3d9150611d31565b634e487b7160e01b5f52604160045260245ffd5b346111ff5760203660031901126111ff576004356001600160401b0381116111ff5761018060031982360301126111ff57611daf90600401612755565b90604051918291604083019083526040602084015281518091526060830190602060608260051b8601019301915f905b828210611dee57505050500390f35b91936001919395506020611e3b8192605f198a8203018652608060608a51878060a01b03815116845285810151151586850152604081015160408501520151918160608201520190612355565b9601920192018594939192611ddf565b346111ff575f3660031901126111ff576040517f00000000000000000000000000000000000000000000000000000000000000006001600160a01b03168152602090f35b346111ff5760403660031901126111ff576024356004356001600160401b0382116111ff578160040190604060031984360301126111ff576040516331a9108f60e11b8152600481018290526020816024817f00000000000000000000000000000000000000000000000000000000000000006001600160a01b03165afa908115611b0c575f9161213f575b50611f24613045565b6001600160a01b0382811691168082141580612086575b61205b57611fb65f8686611f988a611f5484848b612ee4565b610607611f8e611f62613045565b6040805160249590950135602086019081526001600160a01b0390921690850152929182906060820190565b519020928061242b565b604051639d7f900160e01b815295869485949193916004860161252c565b0381837f00000000000000000000000000000000000000000000000000000000000000006001600160a01b03165af1908115611b0c575f91612041575b506040518091602082016020835281518091526020604084019201905f5b81811061201f575050500390f35b82516001600160a01b0316845285945060209384019390920191600101612011565b61205591503d805f833e610d1781836123e5565b81611ff3565b908360849260405192631326f75560e11b845260048401526024830152604482015260216064820152fd5b50604051631a45b42760e11b81526004810182905260248101839052604481018590526021606482015260016084820181905260a482015260208160c4817f00000000000000000000000000000000000000000000000000000000000000006001600160a01b03165afa908115611b0c575f91612105575b5015611f3b565b90506020813d602011612137575b81612120602093836123e5565b810103126111ff576121319061263d565b876120fe565b3d9150612113565b90506020813d602011612171575b8161215a602093836123e5565b810103126111ff5761216b90612417565b84611f1b565b3d915061214d565b346111ff5760203660031901126111ff57602061219461232b565b6040517f00000000000000000000000000000000000000000000000000000000000000006001600160a01b039081169216919091148152f35b346111ff575f3660031901126111ff576040517f00000000000000000000000000000000000000000000000000000000000000006001600160a01b03168152602090f35b346111ff5760803660031901126111ff5761222a61232b565b506024356001600160a01b038116908190036111ff576064356001600160401b0381116111ff57366023820112156111ff5780600401356001600160401b0381116111ff57369101602401116111ff577f00000000000000000000000000000000000000000000000000000000000000006001600160a01b031633036111ff576111ff57604051630a85bd0160e11b8152602090f35b346111ff5760203660031901126111ff576004359063ffffffff60e01b82168092036111ff57602091635e36a81960e01b811490811561231a575b8115612309575b5015158152f35b630a85bd0160e11b14905083612302565b63e347239560e01b811491506122fb565b600435906001600160a01b03821682036111ff57565b35906001600160a01b03821682036111ff57565b805180835260209291819084018484015e5f828201840152601f01601f1916010190565b606081019081106001600160401b03821117611d5e57604052565b60e081019081106001600160401b03821117611d5e57604052565b60c081019081106001600160401b03821117611d5e57604052565b608081019081106001600160401b03821117611d5e57604052565b90601f801991011681019081106001600160401b03821117611d5e57604052565b359063ffffffff821682036111ff57565b51906001600160a01b03821682036111ff57565b903590601e19813603018212156111ff57018035906001600160401b0382116111ff57602001918160051b360383136111ff57565b6001600160401b038111611d5e5760051b60200190565b6020818303126111ff578051906001600160401b0382116111ff57019080601f830112156111ff5781516124aa81612460565b926124b860405194856123e5565b81845260208085019260051b8201019283116111ff57602001905b8282106124e05750505090565b602080916124ed84612417565b8152019101906124d3565b9035601e19823603018112156111ff5701602081359101916001600160401b0382116111ff5760608202360383136111ff57565b93919082916060860191865260208601526060604086015252608083019260808260051b82010193835f92605e1982360301905b858510612571575050505050505090565b90919293949596607f198282030185528735838112156111ff57606082019190850180356001600160a01b038116908190036111ff576080916125c49184526020810135602085015260408101906124f8565b60606040850152938490529101915f905b8082106125f657505050602080600192990195019501939594929190612560565b909192606080600192838060a01b0361260e88612341565b16815263ffffffff61262260208901612406565b166020820152604087013560408201520194019201906125d5565b519081151582036111ff57565b6001600160401b038111611d5e57601f01601f191660200190565b81601f820112156111ff5780519061267c8261264a565b9261268a60405194856123e5565b828452602083830101116111ff57815f9260208093018386015e8301015290565b359060ff821682036111ff57565b60609081906001600160a01b036126cf82612341565b16845260ff6126e0602083016126ab565b16602085015263ffffffff6126f760408301612406565b1660408501520135910152565b9035601e19823603018112156111ff5701602081359101916001600160401b0382116111ff5781360383136111ff57565b908060209392818452848401375f828201840152601f01601f1916010190565b60c08101355f818152602081905260409020546001600160a01b03169190821561297b57604051634661ac2360e11b81526020600482015293925f928592839182916128439161282f916001600160a01b036127b083612341565b1660248601526001600160a01b036127ca60208401612341565b1660448601526127e060648601604084016126b9565b60e485015260e08101356101048501526001600160a01b036128056101008301612341565b16610124850152610120810135610144850152610140810135610164850152610160810190612704565b6101806101848501526101a4840191612735565b03915afa918215611b0c575f905f9361285b57509190565b9250503d805f843e61286d81846123e5565b8201916040818403126111ff578051906020810151906001600160401b0382116111ff57019280601f850112156111ff578351936128aa85612460565b946128b860405196876123e5565b80865260208087019160051b830101918383116111ff5760208101915b8383106128e55750505050509190565b82516001600160401b0381116111ff578201906080828703601f1901126111ff5760405190612913826123ca565b60208301516001600160a01b03811681036111ff5782526129366040840161263d565b6020830152606083015160408301526080830151916001600160401b0383116111ff5761296b88602080969581960101612665565b60608201528152019201916128d5565b5061012001359160609150565b919060018060a01b0316825260406020830152602060c0604060a085019360018060a01b03815116828701526001600160401b0384820151166060870152015193606060808201528451809452019201905f5b8181106129e85750505090565b825160ff168452602093840193909201916001016129db565b805115612a0e5760200190565b634e487b7160e01b5f52603260045260245ffd5b8051821015612a0e5760209160051b010190565b903590601e19813603018212156111ff57018035906001600160401b0382116111ff576020019181360383136111ff57565b929192612a748261264a565b91612a8260405193846123e5565b8294818452818301116111ff578281602093845f960137010152565b90602080835192838152019201905f5b818110612abb5750505090565b909192602060c0600192865163ffffffff81511682526001600160401b03848201511684830152848060a01b03604082015116604083015260608101511515606083015265ffffffffffff608082015116608083015260a08580821b039101511660a08201520194019101919091612aae565b90602080835192838152019201905f5b818110612b4b5750505090565b825180516001600160e01b0316855260209081015163ffffffff168186015260409094019390920191600101612b3e565b359081151582036111ff57565b6060919060408101356020820180356001600160a01b03811681036111ff576040516383db9d0160e01b8152600481018490526001600160a01b039091166024820152602081806044810103817f00000000000000000000000000000000000000000000000000000000000000006001600160a01b03165afa908115611b0c575f91612eaa575b50612e92575f828152602081905260409020546001600160a01b0316948515612e725750604051633d9cab2b60e21b81526020600482015293945f938593919284928392612d1492612d0092906001600160a01b03612c6e84612341565b1660248701526001600160a01b0390612c8690612341565b166044860152606485015260608101356084850152608081013560a485015260a081013560c4850152612cbf60e4850160c083016126b9565b612ccc6101408201612b7c565b1515610164850152610160810135610184850152612ced6101808201612b7c565b15156101a48501526101a0810190612704565b6101c06101c48501526101e4840191612735565b03915afa908115611b0c575f915f935f935f935f93612d36575b509493929190565b945050935050503d805f833e612d4c81836123e5565b810160a0828203126111ff578151926020830151906040840151946060850151946080810151906001600160401b0382116111ff57019380601f860112156111ff57845194612d9a86612460565b95612da860405197886123e5565b80875260208088019160051b830101918383116111ff5760208101915b838310612ddc57505050505091949392915f612d2e565b82516001600160401b0381116111ff578201906080828703601f1901126111ff5760405190612e0a826123ca565b60208301516001600160a01b03811681036111ff578252612e2d6040840161263d565b6020830152606083015160408301526080830151916001600160401b0383116111ff57612e6288602080969581960101612665565b6060820152815201920191612dc5565b945050506101608101359260808201359261012060a08401359301359190565b505f9360808301359360a08401359361012001359250565b90506020813d602011612edc575b81612ec5602093836123e5565b810103126111ff57612ed69061263d565b5f612c10565b3d9150612eb8565b905f5b612ef1848061242b565b905081101561303f57612f04848061242b565b821015612a0e578160051b810135605e19823603018112156111ff570160200135612f3157600101612ee7565b50909150612f3d613045565b6001600160a01b0392831692168083141580612f87575b612f5d57505050565b6084935060405192631326f75560e11b845260048401526024830152604482015260226064820152fd5b50604051631a45b42760e11b81526004810182905260248101849052604481018390526022606482015260016084820181905260a482015260208160c4817f00000000000000000000000000000000000000000000000000000000000000006001600160a01b03165afa908115611b0c575f91613006575b5015612f54565b90506020813d8211613037575b81613020602093836123e5565b810103126111ff576130319061263d565b5f612fff565b3d9150613013565b50505050565b60143610158061306c575b156130685760131936013681116111ff573560601c90565b3390565b50337f00000000000000000000000000000000000000000000000000000000000000006001600160a01b03161461305056fea164736f6c634300081c000a",
	"gitCommit": "npm:@croptop/core-v6@0.0.70",
	"gitDirty": false,
	"history": []
}