{
	"format": "sphinx-sol-ct-artifact-1",
	"address": "0xbc696d2a601cd787c20629e9bc8c4e65ee7feb74",
	"sourceName": "node_modules/@bananapus/721-hook-v6/src/JB721TiersHook.sol",
	"contractName": "JB721TiersHook",
	"chainId": "0xaa37dc",
	"abi": [
		{
			"type": "constructor",
			"inputs": [
				{
					"name": "directory",
					"type": "address",
					"internalType": "contract IJBDirectory"
				},
				{
					"name": "permissions",
					"type": "address",
					"internalType": "contract IJBPermissions"
				},
				{
					"name": "prices",
					"type": "address",
					"internalType": "contract IJBPrices"
				},
				{
					"name": "rulesets",
					"type": "address",
					"internalType": "contract IJBRulesets"
				},
				{
					"name": "store",
					"type": "address",
					"internalType": "contract IJB721TiersHookStore"
				},
				{
					"name": "splits",
					"type": "address",
					"internalType": "contract IJBSplits"
				},
				{
					"name": "checkpointsDeployer",
					"type": "address",
					"internalType": "contract IJB721CheckpointsDeployer"
				},
				{
					"name": "trustedForwarder",
					"type": "address",
					"internalType": "address"
				}
			],
			"stateMutability": "nonpayable"
		},
		{
			"type": "function",
			"name": "DIRECTORY",
			"inputs": [],
			"outputs": [
				{
					"name": "",
					"type": "address",
					"internalType": "contract IJBDirectory"
				}
			],
			"stateMutability": "view"
		},
		{
			"type": "function",
			"name": "METADATA_ID_TARGET",
			"inputs": [],
			"outputs": [
				{
					"name": "",
					"type": "address",
					"internalType": "address"
				}
			],
			"stateMutability": "view"
		},
		{
			"type": "function",
			"name": "PERMISSIONS",
			"inputs": [],
			"outputs": [
				{
					"name": "",
					"type": "address",
					"internalType": "contract IJBPermissions"
				}
			],
			"stateMutability": "view"
		},
		{
			"type": "function",
			"name": "PRICES",
			"inputs": [],
			"outputs": [
				{
					"name": "",
					"type": "address",
					"internalType": "contract IJBPrices"
				}
			],
			"stateMutability": "view"
		},
		{
			"type": "function",
			"name": "PROJECTS",
			"inputs": [],
			"outputs": [
				{
					"name": "",
					"type": "address",
					"internalType": "contract IJBProjects"
				}
			],
			"stateMutability": "view"
		},
		{
			"type": "function",
			"name": "RULESETS",
			"inputs": [],
			"outputs": [
				{
					"name": "",
					"type": "address",
					"internalType": "contract IJBRulesets"
				}
			],
			"stateMutability": "view"
		},
		{
			"type": "function",
			"name": "SPLITS",
			"inputs": [],
			"outputs": [
				{
					"name": "",
					"type": "address",
					"internalType": "contract IJBSplits"
				}
			],
			"stateMutability": "view"
		},
		{
			"type": "function",
			"name": "STORE",
			"inputs": [],
			"outputs": [
				{
					"name": "",
					"type": "address",
					"internalType": "contract IJB721TiersHookStore"
				}
			],
			"stateMutability": "view"
		},
		{
			"type": "function",
			"name": "adjustTiers",
			"inputs": [
				{
					"name": "tiersToAdd",
					"type": "tuple[]",
					"internalType": "struct JB721TierConfig[]",
					"components": [
						{
							"name": "price",
							"type": "uint104",
							"internalType": "uint104"
						},
						{
							"name": "initialSupply",
							"type": "uint32",
							"internalType": "uint32"
						},
						{
							"name": "votingUnits",
							"type": "uint32",
							"internalType": "uint32"
						},
						{
							"name": "reserveFrequency",
							"type": "uint16",
							"internalType": "uint16"
						},
						{
							"name": "reserveBeneficiary",
							"type": "address",
							"internalType": "address"
						},
						{
							"name": "encodedIpfsUri",
							"type": "bytes32",
							"internalType": "bytes32"
						},
						{
							"name": "category",
							"type": "uint24",
							"internalType": "uint24"
						},
						{
							"name": "discountPercent",
							"type": "uint8",
							"internalType": "uint8"
						},
						{
							"name": "flags",
							"type": "tuple",
							"internalType": "struct JB721TierConfigFlags",
							"components": [
								{
									"name": "allowOwnerMint",
									"type": "bool",
									"internalType": "bool"
								},
								{
									"name": "useReserveBeneficiaryAsDefault",
									"type": "bool",
									"internalType": "bool"
								},
								{
									"name": "transfersPausable",
									"type": "bool",
									"internalType": "bool"
								},
								{
									"name": "useVotingUnits",
									"type": "bool",
									"internalType": "bool"
								},
								{
									"name": "cantBeRemoved",
									"type": "bool",
									"internalType": "bool"
								},
								{
									"name": "cantIncreaseDiscountPercent",
									"type": "bool",
									"internalType": "bool"
								},
								{
									"name": "cantBuyWithCredits",
									"type": "bool",
									"internalType": "bool"
								}
							]
						},
						{
							"name": "splitPercent",
							"type": "uint32",
							"internalType": "uint32"
						},
						{
							"name": "splits",
							"type": "tuple[]",
							"internalType": "struct JBSplit[]",
							"components": [
								{
									"name": "percent",
									"type": "uint32",
									"internalType": "uint32"
								},
								{
									"name": "projectId",
									"type": "uint64",
									"internalType": "uint64"
								},
								{
									"name": "beneficiary",
									"type": "address",
									"internalType": "address payable"
								},
								{
									"name": "preferAddToBalance",
									"type": "bool",
									"internalType": "bool"
								},
								{
									"name": "lockedUntil",
									"type": "uint48",
									"internalType": "uint48"
								},
								{
									"name": "hook",
									"type": "address",
									"internalType": "contract IJBSplitHook"
								}
							]
						}
					]
				},
				{
					"name": "tierIdsToRemove",
					"type": "uint256[]",
					"internalType": "uint256[]"
				}
			],
			"outputs": [],
			"stateMutability": "nonpayable"
		},
		{
			"type": "function",
			"name": "afterCashOutRecordedWith",
			"inputs": [
				{
					"name": "context",
					"type": "tuple",
					"internalType": "struct JBAfterCashOutRecordedContext",
					"components": [
						{
							"name": "holder",
							"type": "address",
							"internalType": "address"
						},
						{
							"name": "projectId",
							"type": "uint256",
							"internalType": "uint256"
						},
						{
							"name": "rulesetId",
							"type": "uint256",
							"internalType": "uint256"
						},
						{
							"name": "cashOutCount",
							"type": "uint256",
							"internalType": "uint256"
						},
						{
							"name": "reclaimedAmount",
							"type": "tuple",
							"internalType": "struct JBTokenAmount",
							"components": [
								{
									"name": "token",
									"type": "address",
									"internalType": "address"
								},
								{
									"name": "decimals",
									"type": "uint8",
									"internalType": "uint8"
								},
								{
									"name": "currency",
									"type": "uint32",
									"internalType": "uint32"
								},
								{
									"name": "value",
									"type": "uint256",
									"internalType": "uint256"
								}
							]
						},
						{
							"name": "forwardedAmount",
							"type": "tuple",
							"internalType": "struct JBTokenAmount",
							"components": [
								{
									"name": "token",
									"type": "address",
									"internalType": "address"
								},
								{
									"name": "decimals",
									"type": "uint8",
									"internalType": "uint8"
								},
								{
									"name": "currency",
									"type": "uint32",
									"internalType": "uint32"
								},
								{
									"name": "value",
									"type": "uint256",
									"internalType": "uint256"
								}
							]
						},
						{
							"name": "cashOutTaxRate",
							"type": "uint256",
							"internalType": "uint256"
						},
						{
							"name": "beneficiary",
							"type": "address",
							"internalType": "address payable"
						},
						{
							"name": "hookMetadata",
							"type": "bytes",
							"internalType": "bytes"
						},
						{
							"name": "cashOutMetadata",
							"type": "bytes",
							"internalType": "bytes"
						}
					]
				}
			],
			"outputs": [],
			"stateMutability": "payable"
		},
		{
			"type": "function",
			"name": "afterPayRecordedWith",
			"inputs": [
				{
					"name": "context",
					"type": "tuple",
					"internalType": "struct JBAfterPayRecordedContext",
					"components": [
						{
							"name": "payer",
							"type": "address",
							"internalType": "address"
						},
						{
							"name": "projectId",
							"type": "uint256",
							"internalType": "uint256"
						},
						{
							"name": "rulesetId",
							"type": "uint256",
							"internalType": "uint256"
						},
						{
							"name": "amount",
							"type": "tuple",
							"internalType": "struct JBTokenAmount",
							"components": [
								{
									"name": "token",
									"type": "address",
									"internalType": "address"
								},
								{
									"name": "decimals",
									"type": "uint8",
									"internalType": "uint8"
								},
								{
									"name": "currency",
									"type": "uint32",
									"internalType": "uint32"
								},
								{
									"name": "value",
									"type": "uint256",
									"internalType": "uint256"
								}
							]
						},
						{
							"name": "forwardedAmount",
							"type": "tuple",
							"internalType": "struct JBTokenAmount",
							"components": [
								{
									"name": "token",
									"type": "address",
									"internalType": "address"
								},
								{
									"name": "decimals",
									"type": "uint8",
									"internalType": "uint8"
								},
								{
									"name": "currency",
									"type": "uint32",
									"internalType": "uint32"
								},
								{
									"name": "value",
									"type": "uint256",
									"internalType": "uint256"
								}
							]
						},
						{
							"name": "weight",
							"type": "uint256",
							"internalType": "uint256"
						},
						{
							"name": "newlyIssuedTokenCount",
							"type": "uint256",
							"internalType": "uint256"
						},
						{
							"name": "beneficiary",
							"type": "address",
							"internalType": "address"
						},
						{
							"name": "hookMetadata",
							"type": "bytes",
							"internalType": "bytes"
						},
						{
							"name": "payerMetadata",
							"type": "bytes",
							"internalType": "bytes"
						}
					]
				}
			],
			"outputs": [],
			"stateMutability": "payable"
		},
		{
			"type": "function",
			"name": "approve",
			"inputs": [
				{
					"name": "to",
					"type": "address",
					"internalType": "address"
				},
				{
					"name": "tokenId",
					"type": "uint256",
					"internalType": "uint256"
				}
			],
			"outputs": [],
			"stateMutability": "nonpayable"
		},
		{
			"type": "function",
			"name": "balanceOf",
			"inputs": [
				{
					"name": "owner",
					"type": "address",
					"internalType": "address"
				}
			],
			"outputs": [
				{
					"name": "balance",
					"type": "uint256",
					"internalType": "uint256"
				}
			],
			"stateMutability": "view"
		},
		{
			"type": "function",
			"name": "baseURI",
			"inputs": [],
			"outputs": [
				{
					"name": "",
					"type": "string",
					"internalType": "string"
				}
			],
			"stateMutability": "view"
		},
		{
			"type": "function",
			"name": "beforeCashOutRecordedWith",
			"inputs": [
				{
					"name": "context",
					"type": "tuple",
					"internalType": "struct JBBeforeCashOutRecordedContext",
					"components": [
						{
							"name": "terminal",
							"type": "address",
							"internalType": "address"
						},
						{
							"name": "holder",
							"type": "address",
							"internalType": "address"
						},
						{
							"name": "projectId",
							"type": "uint256",
							"internalType": "uint256"
						},
						{
							"name": "rulesetId",
							"type": "uint256",
							"internalType": "uint256"
						},
						{
							"name": "cashOutCount",
							"type": "uint256",
							"internalType": "uint256"
						},
						{
							"name": "totalSupply",
							"type": "uint256",
							"internalType": "uint256"
						},
						{
							"name": "surplus",
							"type": "tuple",
							"internalType": "struct JBTokenAmount",
							"components": [
								{
									"name": "token",
									"type": "address",
									"internalType": "address"
								},
								{
									"name": "decimals",
									"type": "uint8",
									"internalType": "uint8"
								},
								{
									"name": "currency",
									"type": "uint32",
									"internalType": "uint32"
								},
								{
									"name": "value",
									"type": "uint256",
									"internalType": "uint256"
								}
							]
						},
						{
							"name": "scopeCashOutsToLocalBalances",
							"type": "bool",
							"internalType": "bool"
						},
						{
							"name": "cashOutTaxRate",
							"type": "uint256",
							"internalType": "uint256"
						},
						{
							"name": "beneficiaryIsFeeless",
							"type": "bool",
							"internalType": "bool"
						},
						{
							"name": "metadata",
							"type": "bytes",
							"internalType": "bytes"
						}
					]
				}
			],
			"outputs": [
				{
					"name": "cashOutTaxRate",
					"type": "uint256",
					"internalType": "uint256"
				},
				{
					"name": "cashOutCount",
					"type": "uint256",
					"internalType": "uint256"
				},
				{
					"name": "totalSupply",
					"type": "uint256",
					"internalType": "uint256"
				},
				{
					"name": "effectiveSurplusValue",
					"type": "uint256",
					"internalType": "uint256"
				},
				{
					"name": "hookSpecifications",
					"type": "tuple[]",
					"internalType": "struct JBCashOutHookSpecification[]",
					"components": [
						{
							"name": "hook",
							"type": "address",
							"internalType": "contract IJBCashOutHook"
						},
						{
							"name": "noop",
							"type": "bool",
							"internalType": "bool"
						},
						{
							"name": "amount",
							"type": "uint256",
							"internalType": "uint256"
						},
						{
							"name": "metadata",
							"type": "bytes",
							"internalType": "bytes"
						}
					]
				}
			],
			"stateMutability": "view"
		},
		{
			"type": "function",
			"name": "beforePayRecordedWith",
			"inputs": [
				{
					"name": "context",
					"type": "tuple",
					"internalType": "struct JBBeforePayRecordedContext",
					"components": [
						{
							"name": "terminal",
							"type": "address",
							"internalType": "address"
						},
						{
							"name": "payer",
							"type": "address",
							"internalType": "address"
						},
						{
							"name": "amount",
							"type": "tuple",
							"internalType": "struct JBTokenAmount",
							"components": [
								{
									"name": "token",
									"type": "address",
									"internalType": "address"
								},
								{
									"name": "decimals",
									"type": "uint8",
									"internalType": "uint8"
								},
								{
									"name": "currency",
									"type": "uint32",
									"internalType": "uint32"
								},
								{
									"name": "value",
									"type": "uint256",
									"internalType": "uint256"
								}
							]
						},
						{
							"name": "projectId",
							"type": "uint256",
							"internalType": "uint256"
						},
						{
							"name": "rulesetId",
							"type": "uint256",
							"internalType": "uint256"
						},
						{
							"name": "beneficiary",
							"type": "address",
							"internalType": "address"
						},
						{
							"name": "weight",
							"type": "uint256",
							"internalType": "uint256"
						},
						{
							"name": "reservedPercent",
							"type": "uint256",
							"internalType": "uint256"
						},
						{
							"name": "metadata",
							"type": "bytes",
							"internalType": "bytes"
						}
					]
				}
			],
			"outputs": [
				{
					"name": "weight",
					"type": "uint256",
					"internalType": "uint256"
				},
				{
					"name": "hookSpecifications",
					"type": "tuple[]",
					"internalType": "struct JBPayHookSpecification[]",
					"components": [
						{
							"name": "hook",
							"type": "address",
							"internalType": "contract IJBPayHook"
						},
						{
							"name": "noop",
							"type": "bool",
							"internalType": "bool"
						},
						{
							"name": "amount",
							"type": "uint256",
							"internalType": "uint256"
						},
						{
							"name": "metadata",
							"type": "bytes",
							"internalType": "bytes"
						}
					]
				}
			],
			"stateMutability": "view"
		},
		{
			"type": "function",
			"name": "cashOutWeightOf",
			"inputs": [
				{
					"name": "tokenIds",
					"type": "uint256[]",
					"internalType": "uint256[]"
				}
			],
			"outputs": [
				{
					"name": "",
					"type": "uint256",
					"internalType": "uint256"
				}
			],
			"stateMutability": "view"
		},
		{
			"type": "function",
			"name": "checkpoints",
			"inputs": [],
			"outputs": [
				{
					"name": "",
					"type": "address",
					"internalType": "contract IJB721Checkpoints"
				}
			],
			"stateMutability": "view"
		},
		{
			"type": "function",
			"name": "contractURI",
			"inputs": [],
			"outputs": [
				{
					"name": "",
					"type": "string",
					"internalType": "string"
				}
			],
			"stateMutability": "view"
		},
		{
			"type": "function",
			"name": "firstOwnerOf",
			"inputs": [
				{
					"name": "tokenId",
					"type": "uint256",
					"internalType": "uint256"
				}
			],
			"outputs": [
				{
					"name": "",
					"type": "address",
					"internalType": "address"
				}
			],
			"stateMutability": "view"
		},
		{
			"type": "function",
			"name": "getApproved",
			"inputs": [
				{
					"name": "tokenId",
					"type": "uint256",
					"internalType": "uint256"
				}
			],
			"outputs": [
				{
					"name": "",
					"type": "address",
					"internalType": "address"
				}
			],
			"stateMutability": "view"
		},
		{
			"type": "function",
			"name": "hasMintPermissionFor",
			"inputs": [
				{
					"name": "",
					"type": "uint256",
					"internalType": "uint256"
				},
				{
					"name": "",
					"type": "tuple",
					"internalType": "struct JBRuleset",
					"components": [
						{
							"name": "cycleNumber",
							"type": "uint48",
							"internalType": "uint48"
						},
						{
							"name": "id",
							"type": "uint48",
							"internalType": "uint48"
						},
						{
							"name": "basedOnId",
							"type": "uint48",
							"internalType": "uint48"
						},
						{
							"name": "start",
							"type": "uint48",
							"internalType": "uint48"
						},
						{
							"name": "duration",
							"type": "uint32",
							"internalType": "uint32"
						},
						{
							"name": "weight",
							"type": "uint112",
							"internalType": "uint112"
						},
						{
							"name": "weightCutPercent",
							"type": "uint32",
							"internalType": "uint32"
						},
						{
							"name": "approvalHook",
							"type": "address",
							"internalType": "contract IJBRulesetApprovalHook"
						},
						{
							"name": "metadata",
							"type": "uint256",
							"internalType": "uint256"
						}
					]
				},
				{
					"name": "",
					"type": "address",
					"internalType": "address"
				}
			],
			"outputs": [
				{
					"name": "",
					"type": "bool",
					"internalType": "bool"
				}
			],
			"stateMutability": "pure"
		},
		{
			"type": "function",
			"name": "initialize",
			"inputs": [
				{
					"name": "initialProjectId",
					"type": "uint256",
					"internalType": "uint256"
				},
				{
					"name": "name",
					"type": "string",
					"internalType": "string"
				},
				{
					"name": "symbol",
					"type": "string",
					"internalType": "string"
				},
				{
					"name": "baseUri",
					"type": "string",
					"internalType": "string"
				},
				{
					"name": "tokenUriResolver",
					"type": "address",
					"internalType": "contract IJB721TokenUriResolver"
				},
				{
					"name": "contractUri",
					"type": "string",
					"internalType": "string"
				},
				{
					"name": "tiersConfig",
					"type": "tuple",
					"internalType": "struct JB721InitTiersConfig",
					"components": [
						{
							"name": "tiers",
							"type": "tuple[]",
							"internalType": "struct JB721TierConfig[]",
							"components": [
								{
									"name": "price",
									"type": "uint104",
									"internalType": "uint104"
								},
								{
									"name": "initialSupply",
									"type": "uint32",
									"internalType": "uint32"
								},
								{
									"name": "votingUnits",
									"type": "uint32",
									"internalType": "uint32"
								},
								{
									"name": "reserveFrequency",
									"type": "uint16",
									"internalType": "uint16"
								},
								{
									"name": "reserveBeneficiary",
									"type": "address",
									"internalType": "address"
								},
								{
									"name": "encodedIpfsUri",
									"type": "bytes32",
									"internalType": "bytes32"
								},
								{
									"name": "category",
									"type": "uint24",
									"internalType": "uint24"
								},
								{
									"name": "discountPercent",
									"type": "uint8",
									"internalType": "uint8"
								},
								{
									"name": "flags",
									"type": "tuple",
									"internalType": "struct JB721TierConfigFlags",
									"components": [
										{
											"name": "allowOwnerMint",
											"type": "bool",
											"internalType": "bool"
										},
										{
											"name": "useReserveBeneficiaryAsDefault",
											"type": "bool",
											"internalType": "bool"
										},
										{
											"name": "transfersPausable",
											"type": "bool",
											"internalType": "bool"
										},
										{
											"name": "useVotingUnits",
											"type": "bool",
											"internalType": "bool"
										},
										{
											"name": "cantBeRemoved",
											"type": "bool",
											"internalType": "bool"
										},
										{
											"name": "cantIncreaseDiscountPercent",
											"type": "bool",
											"internalType": "bool"
										},
										{
											"name": "cantBuyWithCredits",
											"type": "bool",
											"internalType": "bool"
										}
									]
								},
								{
									"name": "splitPercent",
									"type": "uint32",
									"internalType": "uint32"
								},
								{
									"name": "splits",
									"type": "tuple[]",
									"internalType": "struct JBSplit[]",
									"components": [
										{
											"name": "percent",
											"type": "uint32",
											"internalType": "uint32"
										},
										{
											"name": "projectId",
											"type": "uint64",
											"internalType": "uint64"
										},
										{
											"name": "beneficiary",
											"type": "address",
											"internalType": "address payable"
										},
										{
											"name": "preferAddToBalance",
											"type": "bool",
											"internalType": "bool"
										},
										{
											"name": "lockedUntil",
											"type": "uint48",
											"internalType": "uint48"
										},
										{
											"name": "hook",
											"type": "address",
											"internalType": "contract IJBSplitHook"
										}
									]
								}
							]
						},
						{
							"name": "currency",
							"type": "uint32",
							"internalType": "uint32"
						},
						{
							"name": "decimals",
							"type": "uint8",
							"internalType": "uint8"
						}
					]
				},
				{
					"name": "flags",
					"type": "tuple",
					"internalType": "struct JB721TiersHookFlags",
					"components": [
						{
							"name": "noNewTiersWithReserves",
							"type": "bool",
							"internalType": "bool"
						},
						{
							"name": "noNewTiersWithVotes",
							"type": "bool",
							"internalType": "bool"
						},
						{
							"name": "noNewTiersWithOwnerMinting",
							"type": "bool",
							"internalType": "bool"
						},
						{
							"name": "preventOverspending",
							"type": "bool",
							"internalType": "bool"
						},
						{
							"name": "issueTokensForSplits",
							"type": "bool",
							"internalType": "bool"
						}
					]
				}
			],
			"outputs": [],
			"stateMutability": "nonpayable"
		},
		{
			"type": "function",
			"name": "isApprovedForAll",
			"inputs": [
				{
					"name": "owner",
					"type": "address",
					"internalType": "address"
				},
				{
					"name": "operator",
					"type": "address",
					"internalType": "address"
				}
			],
			"outputs": [
				{
					"name": "",
					"type": "bool",
					"internalType": "bool"
				}
			],
			"stateMutability": "view"
		},
		{
			"type": "function",
			"name": "isTrustedForwarder",
			"inputs": [
				{
					"name": "forwarder",
					"type": "address",
					"internalType": "address"
				}
			],
			"outputs": [
				{
					"name": "",
					"type": "bool",
					"internalType": "bool"
				}
			],
			"stateMutability": "view"
		},
		{
			"type": "function",
			"name": "jbOwner",
			"inputs": [],
			"outputs": [
				{
					"name": "owner",
					"type": "address",
					"internalType": "address"
				},
				{
					"name": "projectId",
					"type": "uint88",
					"internalType": "uint88"
				},
				{
					"name": "permissionId",
					"type": "uint8",
					"internalType": "uint8"
				}
			],
			"stateMutability": "view"
		},
		{
			"type": "function",
			"name": "mintFor",
			"inputs": [
				{
					"name": "tierIds",
					"type": "uint16[]",
					"internalType": "uint16[]"
				},
				{
					"name": "beneficiary",
					"type": "address",
					"internalType": "address"
				}
			],
			"outputs": [
				{
					"name": "tokenIds",
					"type": "uint256[]",
					"internalType": "uint256[]"
				}
			],
			"stateMutability": "nonpayable"
		},
		{
			"type": "function",
			"name": "mintPendingReservesFor",
			"inputs": [
				{
					"name": "tierId",
					"type": "uint256",
					"internalType": "uint256"
				},
				{
					"name": "count",
					"type": "uint256",
					"internalType": "uint256"
				}
			],
			"outputs": [],
			"stateMutability": "nonpayable"
		},
		{
			"type": "function",
			"name": "mintPendingReservesFor",
			"inputs": [
				{
					"name": "reserveMintConfigs",
					"type": "tuple[]",
					"internalType": "struct JB721TiersMintReservesConfig[]",
					"components": [
						{
							"name": "tierId",
							"type": "uint32",
							"internalType": "uint32"
						},
						{
							"name": "count",
							"type": "uint16",
							"internalType": "uint16"
						}
					]
				}
			],
			"outputs": [],
			"stateMutability": "nonpayable"
		},
		{
			"type": "function",
			"name": "name",
			"inputs": [],
			"outputs": [
				{
					"name": "",
					"type": "string",
					"internalType": "string"
				}
			],
			"stateMutability": "view"
		},
		{
			"type": "function",
			"name": "owner",
			"inputs": [],
			"outputs": [
				{
					"name": "",
					"type": "address",
					"internalType": "address"
				}
			],
			"stateMutability": "view"
		},
		{
			"type": "function",
			"name": "ownerOf",
			"inputs": [
				{
					"name": "tokenId",
					"type": "uint256",
					"internalType": "uint256"
				}
			],
			"outputs": [
				{
					"name": "",
					"type": "address",
					"internalType": "address"
				}
			],
			"stateMutability": "view"
		},
		{
			"type": "function",
			"name": "payCreditsOf",
			"inputs": [
				{
					"name": "addr",
					"type": "address",
					"internalType": "address"
				}
			],
			"outputs": [
				{
					"name": "",
					"type": "uint256",
					"internalType": "uint256"
				}
			],
			"stateMutability": "view"
		},
		{
			"type": "function",
			"name": "pricingContext",
			"inputs": [],
			"outputs": [
				{
					"name": "currency",
					"type": "uint256",
					"internalType": "uint256"
				},
				{
					"name": "decimals",
					"type": "uint256",
					"internalType": "uint256"
				}
			],
			"stateMutability": "view"
		},
		{
			"type": "function",
			"name": "projectId",
			"inputs": [],
			"outputs": [
				{
					"name": "",
					"type": "uint256",
					"internalType": "uint256"
				}
			],
			"stateMutability": "view"
		},
		{
			"type": "function",
			"name": "renounceOwnership",
			"inputs": [],
			"outputs": [],
			"stateMutability": "nonpayable"
		},
		{
			"type": "function",
			"name": "safeTransferFrom",
			"inputs": [
				{
					"name": "from",
					"type": "address",
					"internalType": "address"
				},
				{
					"name": "to",
					"type": "address",
					"internalType": "address"
				},
				{
					"name": "tokenId",
					"type": "uint256",
					"internalType": "uint256"
				}
			],
			"outputs": [],
			"stateMutability": "nonpayable"
		},
		{
			"type": "function",
			"name": "safeTransferFrom",
			"inputs": [
				{
					"name": "from",
					"type": "address",
					"internalType": "address"
				},
				{
					"name": "to",
					"type": "address",
					"internalType": "address"
				},
				{
					"name": "tokenId",
					"type": "uint256",
					"internalType": "uint256"
				},
				{
					"name": "data",
					"type": "bytes",
					"internalType": "bytes"
				}
			],
			"outputs": [],
			"stateMutability": "nonpayable"
		},
		{
			"type": "function",
			"name": "setApprovalForAll",
			"inputs": [
				{
					"name": "operator",
					"type": "address",
					"internalType": "address"
				},
				{
					"name": "approved",
					"type": "bool",
					"internalType": "bool"
				}
			],
			"outputs": [],
			"stateMutability": "nonpayable"
		},
		{
			"type": "function",
			"name": "setDiscountPercentOf",
			"inputs": [
				{
					"name": "tierId",
					"type": "uint256",
					"internalType": "uint256"
				},
				{
					"name": "discountPercent",
					"type": "uint256",
					"internalType": "uint256"
				}
			],
			"outputs": [],
			"stateMutability": "nonpayable"
		},
		{
			"type": "function",
			"name": "setDiscountPercentsOf",
			"inputs": [
				{
					"name": "configs",
					"type": "tuple[]",
					"internalType": "struct JB721TiersSetDiscountPercentConfig[]",
					"components": [
						{
							"name": "tierId",
							"type": "uint32",
							"internalType": "uint32"
						},
						{
							"name": "discountPercent",
							"type": "uint16",
							"internalType": "uint16"
						}
					]
				}
			],
			"outputs": [],
			"stateMutability": "nonpayable"
		},
		{
			"type": "function",
			"name": "setMetadata",
			"inputs": [
				{
					"name": "name",
					"type": "string",
					"internalType": "string"
				},
				{
					"name": "symbol",
					"type": "string",
					"internalType": "string"
				},
				{
					"name": "baseUri",
					"type": "string",
					"internalType": "string"
				},
				{
					"name": "contractUri",
					"type": "string",
					"internalType": "string"
				},
				{
					"name": "tokenUriResolver",
					"type": "address",
					"internalType": "contract IJB721TokenUriResolver"
				},
				{
					"name": "encodedIpfsUriTierId",
					"type": "uint256",
					"internalType": "uint256"
				},
				{
					"name": "encodedIpfsUri",
					"type": "bytes32",
					"internalType": "bytes32"
				}
			],
			"outputs": [],
			"stateMutability": "nonpayable"
		},
		{
			"type": "function",
			"name": "setPermissionId",
			"inputs": [
				{
					"name": "permissionId",
					"type": "uint8",
					"internalType": "uint8"
				}
			],
			"outputs": [],
			"stateMutability": "nonpayable"
		},
		{
			"type": "function",
			"name": "supportsInterface",
			"inputs": [
				{
					"name": "interfaceId",
					"type": "bytes4",
					"internalType": "bytes4"
				}
			],
			"outputs": [
				{
					"name": "",
					"type": "bool",
					"internalType": "bool"
				}
			],
			"stateMutability": "view"
		},
		{
			"type": "function",
			"name": "symbol",
			"inputs": [],
			"outputs": [
				{
					"name": "",
					"type": "string",
					"internalType": "string"
				}
			],
			"stateMutability": "view"
		},
		{
			"type": "function",
			"name": "tokenURI",
			"inputs": [
				{
					"name": "tokenId",
					"type": "uint256",
					"internalType": "uint256"
				}
			],
			"outputs": [
				{
					"name": "",
					"type": "string",
					"internalType": "string"
				}
			],
			"stateMutability": "view"
		},
		{
			"type": "function",
			"name": "totalCashOutWeight",
			"inputs": [],
			"outputs": [
				{
					"name": "",
					"type": "uint256",
					"internalType": "uint256"
				}
			],
			"stateMutability": "view"
		},
		{
			"type": "function",
			"name": "transferFrom",
			"inputs": [
				{
					"name": "from",
					"type": "address",
					"internalType": "address"
				},
				{
					"name": "to",
					"type": "address",
					"internalType": "address"
				},
				{
					"name": "tokenId",
					"type": "uint256",
					"internalType": "uint256"
				}
			],
			"outputs": [],
			"stateMutability": "nonpayable"
		},
		{
			"type": "function",
			"name": "transferOwnership",
			"inputs": [
				{
					"name": "newOwner",
					"type": "address",
					"internalType": "address"
				}
			],
			"outputs": [],
			"stateMutability": "nonpayable"
		},
		{
			"type": "function",
			"name": "transferOwnershipToProject",
			"inputs": [
				{
					"name": "projectId",
					"type": "uint256",
					"internalType": "uint256"
				}
			],
			"outputs": [],
			"stateMutability": "nonpayable"
		},
		{
			"type": "function",
			"name": "trustedForwarder",
			"inputs": [],
			"outputs": [
				{
					"name": "",
					"type": "address",
					"internalType": "address"
				}
			],
			"stateMutability": "view"
		},
		{
			"type": "event",
			"name": "AddPayCredits",
			"inputs": [
				{
					"name": "amount",
					"type": "uint256",
					"indexed": true,
					"internalType": "uint256"
				},
				{
					"name": "newTotalCredits",
					"type": "uint256",
					"indexed": true,
					"internalType": "uint256"
				},
				{
					"name": "account",
					"type": "address",
					"indexed": true,
					"internalType": "address"
				},
				{
					"name": "caller",
					"type": "address",
					"indexed": false,
					"internalType": "address"
				}
			],
			"anonymous": false
		},
		{
			"type": "event",
			"name": "AddTier",
			"inputs": [
				{
					"name": "tierId",
					"type": "uint256",
					"indexed": true,
					"internalType": "uint256"
				},
				{
					"name": "tier",
					"type": "tuple",
					"indexed": false,
					"internalType": "struct JB721TierConfig",
					"components": [
						{
							"name": "price",
							"type": "uint104",
							"internalType": "uint104"
						},
						{
							"name": "initialSupply",
							"type": "uint32",
							"internalType": "uint32"
						},
						{
							"name": "votingUnits",
							"type": "uint32",
							"internalType": "uint32"
						},
						{
							"name": "reserveFrequency",
							"type": "uint16",
							"internalType": "uint16"
						},
						{
							"name": "reserveBeneficiary",
							"type": "address",
							"internalType": "address"
						},
						{
							"name": "encodedIpfsUri",
							"type": "bytes32",
							"internalType": "bytes32"
						},
						{
							"name": "category",
							"type": "uint24",
							"internalType": "uint24"
						},
						{
							"name": "discountPercent",
							"type": "uint8",
							"internalType": "uint8"
						},
						{
							"name": "flags",
							"type": "tuple",
							"internalType": "struct JB721TierConfigFlags",
							"components": [
								{
									"name": "allowOwnerMint",
									"type": "bool",
									"internalType": "bool"
								},
								{
									"name": "useReserveBeneficiaryAsDefault",
									"type": "bool",
									"internalType": "bool"
								},
								{
									"name": "transfersPausable",
									"type": "bool",
									"internalType": "bool"
								},
								{
									"name": "useVotingUnits",
									"type": "bool",
									"internalType": "bool"
								},
								{
									"name": "cantBeRemoved",
									"type": "bool",
									"internalType": "bool"
								},
								{
									"name": "cantIncreaseDiscountPercent",
									"type": "bool",
									"internalType": "bool"
								},
								{
									"name": "cantBuyWithCredits",
									"type": "bool",
									"internalType": "bool"
								}
							]
						},
						{
							"name": "splitPercent",
							"type": "uint32",
							"internalType": "uint32"
						},
						{
							"name": "splits",
							"type": "tuple[]",
							"internalType": "struct JBSplit[]",
							"components": [
								{
									"name": "percent",
									"type": "uint32",
									"internalType": "uint32"
								},
								{
									"name": "projectId",
									"type": "uint64",
									"internalType": "uint64"
								},
								{
									"name": "beneficiary",
									"type": "address",
									"internalType": "address payable"
								},
								{
									"name": "preferAddToBalance",
									"type": "bool",
									"internalType": "bool"
								},
								{
									"name": "lockedUntil",
									"type": "uint48",
									"internalType": "uint48"
								},
								{
									"name": "hook",
									"type": "address",
									"internalType": "contract IJBSplitHook"
								}
							]
						}
					]
				},
				{
					"name": "caller",
					"type": "address",
					"indexed": false,
					"internalType": "address"
				}
			],
			"anonymous": false
		},
		{
			"type": "event",
			"name": "Approval",
			"inputs": [
				{
					"name": "owner",
					"type": "address",
					"indexed": true,
					"internalType": "address"
				},
				{
					"name": "approved",
					"type": "address",
					"indexed": true,
					"internalType": "address"
				},
				{
					"name": "tokenId",
					"type": "uint256",
					"indexed": true,
					"internalType": "uint256"
				}
			],
			"anonymous": false
		},
		{
			"type": "event",
			"name": "ApprovalForAll",
			"inputs": [
				{
					"name": "owner",
					"type": "address",
					"indexed": true,
					"internalType": "address"
				},
				{
					"name": "operator",
					"type": "address",
					"indexed": true,
					"internalType": "address"
				},
				{
					"name": "approved",
					"type": "bool",
					"indexed": false,
					"internalType": "bool"
				}
			],
			"anonymous": false
		},
		{
			"type": "event",
			"name": "Mint",
			"inputs": [
				{
					"name": "tokenId",
					"type": "uint256",
					"indexed": true,
					"internalType": "uint256"
				},
				{
					"name": "tierId",
					"type": "uint256",
					"indexed": true,
					"internalType": "uint256"
				},
				{
					"name": "beneficiary",
					"type": "address",
					"indexed": true,
					"internalType": "address"
				},
				{
					"name": "totalAmountPaid",
					"type": "uint256",
					"indexed": false,
					"internalType": "uint256"
				},
				{
					"name": "caller",
					"type": "address",
					"indexed": false,
					"internalType": "address"
				}
			],
			"anonymous": false
		},
		{
			"type": "event",
			"name": "MintReservedNft",
			"inputs": [
				{
					"name": "tokenId",
					"type": "uint256",
					"indexed": true,
					"internalType": "uint256"
				},
				{
					"name": "tierId",
					"type": "uint256",
					"indexed": true,
					"internalType": "uint256"
				},
				{
					"name": "beneficiary",
					"type": "address",
					"indexed": true,
					"internalType": "address"
				},
				{
					"name": "caller",
					"type": "address",
					"indexed": false,
					"internalType": "address"
				}
			],
			"anonymous": false
		},
		{
			"type": "event",
			"name": "OwnershipTransferred",
			"inputs": [
				{
					"name": "previousOwner",
					"type": "address",
					"indexed": true,
					"internalType": "address"
				},
				{
					"name": "newOwner",
					"type": "address",
					"indexed": true,
					"internalType": "address"
				},
				{
					"name": "caller",
					"type": "address",
					"indexed": false,
					"internalType": "address"
				}
			],
			"anonymous": false
		},
		{
			"type": "event",
			"name": "PermissionIdChanged",
			"inputs": [
				{
					"name": "newId",
					"type": "uint8",
					"indexed": false,
					"internalType": "uint8"
				},
				{
					"name": "caller",
					"type": "address",
					"indexed": false,
					"internalType": "address"
				}
			],
			"anonymous": false
		},
		{
			"type": "event",
			"name": "RemoveTier",
			"inputs": [
				{
					"name": "tierId",
					"type": "uint256",
					"indexed": true,
					"internalType": "uint256"
				},
				{
					"name": "caller",
					"type": "address",
					"indexed": false,
					"internalType": "address"
				}
			],
			"anonymous": false
		},
		{
			"type": "event",
			"name": "SetBaseUri",
			"inputs": [
				{
					"name": "baseUri",
					"type": "string",
					"indexed": true,
					"internalType": "string"
				},
				{
					"name": "caller",
					"type": "address",
					"indexed": false,
					"internalType": "address"
				}
			],
			"anonymous": false
		},
		{
			"type": "event",
			"name": "SetContractUri",
			"inputs": [
				{
					"name": "uri",
					"type": "string",
					"indexed": true,
					"internalType": "string"
				},
				{
					"name": "caller",
					"type": "address",
					"indexed": false,
					"internalType": "address"
				}
			],
			"anonymous": false
		},
		{
			"type": "event",
			"name": "SetDiscountPercent",
			"inputs": [
				{
					"name": "tierId",
					"type": "uint256",
					"indexed": true,
					"internalType": "uint256"
				},
				{
					"name": "discountPercent",
					"type": "uint256",
					"indexed": false,
					"internalType": "uint256"
				},
				{
					"name": "caller",
					"type": "address",
					"indexed": false,
					"internalType": "address"
				}
			],
			"anonymous": false
		},
		{
			"type": "event",
			"name": "SetEncodedIpfsUri",
			"inputs": [
				{
					"name": "tierId",
					"type": "uint256",
					"indexed": true,
					"internalType": "uint256"
				},
				{
					"name": "encodedUri",
					"type": "bytes32",
					"indexed": false,
					"internalType": "bytes32"
				},
				{
					"name": "caller",
					"type": "address",
					"indexed": false,
					"internalType": "address"
				}
			],
			"anonymous": false
		},
		{
			"type": "event",
			"name": "SetName",
			"inputs": [
				{
					"name": "name",
					"type": "string",
					"indexed": true,
					"internalType": "string"
				},
				{
					"name": "caller",
					"type": "address",
					"indexed": false,
					"internalType": "address"
				}
			],
			"anonymous": false
		},
		{
			"type": "event",
			"name": "SetSymbol",
			"inputs": [
				{
					"name": "symbol",
					"type": "string",
					"indexed": true,
					"internalType": "string"
				},
				{
					"name": "caller",
					"type": "address",
					"indexed": false,
					"internalType": "address"
				}
			],
			"anonymous": false
		},
		{
			"type": "event",
			"name": "SetTokenUriResolver",
			"inputs": [
				{
					"name": "resolver",
					"type": "address",
					"indexed": true,
					"internalType": "contract IJB721TokenUriResolver"
				},
				{
					"name": "caller",
					"type": "address",
					"indexed": false,
					"internalType": "address"
				}
			],
			"anonymous": false
		},
		{
			"type": "event",
			"name": "SplitPayoutReverted",
			"inputs": [
				{
					"name": "projectId",
					"type": "uint256",
					"indexed": true,
					"internalType": "uint256"
				},
				{
					"name": "split",
					"type": "tuple",
					"indexed": false,
					"internalType": "struct JBSplit",
					"components": [
						{
							"name": "percent",
							"type": "uint32",
							"internalType": "uint32"
						},
						{
							"name": "projectId",
							"type": "uint64",
							"internalType": "uint64"
						},
						{
							"name": "beneficiary",
							"type": "address",
							"internalType": "address payable"
						},
						{
							"name": "preferAddToBalance",
							"type": "bool",
							"internalType": "bool"
						},
						{
							"name": "lockedUntil",
							"type": "uint48",
							"internalType": "uint48"
						},
						{
							"name": "hook",
							"type": "address",
							"internalType": "contract IJBSplitHook"
						}
					]
				},
				{
					"name": "amount",
					"type": "uint256",
					"indexed": false,
					"internalType": "uint256"
				},
				{
					"name": "reason",
					"type": "bytes",
					"indexed": false,
					"internalType": "bytes"
				},
				{
					"name": "caller",
					"type": "address",
					"indexed": false,
					"internalType": "address"
				}
			],
			"anonymous": false
		},
		{
			"type": "event",
			"name": "Transfer",
			"inputs": [
				{
					"name": "from",
					"type": "address",
					"indexed": true,
					"internalType": "address"
				},
				{
					"name": "to",
					"type": "address",
					"indexed": true,
					"internalType": "address"
				},
				{
					"name": "tokenId",
					"type": "uint256",
					"indexed": true,
					"internalType": "uint256"
				}
			],
			"anonymous": false
		},
		{
			"type": "event",
			"name": "UsePayCredits",
			"inputs": [
				{
					"name": "amount",
					"type": "uint256",
					"indexed": true,
					"internalType": "uint256"
				},
				{
					"name": "newTotalCredits",
					"type": "uint256",
					"indexed": true,
					"internalType": "uint256"
				},
				{
					"name": "account",
					"type": "address",
					"indexed": true,
					"internalType": "address"
				},
				{
					"name": "caller",
					"type": "address",
					"indexed": false,
					"internalType": "address"
				}
			],
			"anonymous": false
		},
		{
			"type": "error",
			"name": "ERC721IncorrectOwner",
			"inputs": [
				{
					"name": "sender",
					"type": "address",
					"internalType": "address"
				},
				{
					"name": "tokenId",
					"type": "uint256",
					"internalType": "uint256"
				},
				{
					"name": "owner",
					"type": "address",
					"internalType": "address"
				}
			]
		},
		{
			"type": "error",
			"name": "ERC721InsufficientApproval",
			"inputs": [
				{
					"name": "operator",
					"type": "address",
					"internalType": "address"
				},
				{
					"name": "tokenId",
					"type": "uint256",
					"internalType": "uint256"
				}
			]
		},
		{
			"type": "error",
			"name": "ERC721InvalidApprover",
			"inputs": [
				{
					"name": "approver",
					"type": "address",
					"internalType": "address"
				}
			]
		},
		{
			"type": "error",
			"name": "ERC721InvalidOperator",
			"inputs": [
				{
					"name": "operator",
					"type": "address",
					"internalType": "address"
				}
			]
		},
		{
			"type": "error",
			"name": "ERC721InvalidOwner",
			"inputs": [
				{
					"name": "owner",
					"type": "address",
					"internalType": "address"
				}
			]
		},
		{
			"type": "error",
			"name": "ERC721InvalidReceiver",
			"inputs": [
				{
					"name": "receiver",
					"type": "address",
					"internalType": "address"
				}
			]
		},
		{
			"type": "error",
			"name": "ERC721InvalidSender",
			"inputs": [
				{
					"name": "sender",
					"type": "address",
					"internalType": "address"
				}
			]
		},
		{
			"type": "error",
			"name": "ERC721NonexistentToken",
			"inputs": [
				{
					"name": "tokenId",
					"type": "uint256",
					"internalType": "uint256"
				}
			]
		},
		{
			"type": "error",
			"name": "JB721Hook_InvalidCashOut",
			"inputs": [
				{
					"name": "caller",
					"type": "address",
					"internalType": "address"
				},
				{
					"name": "contextProjectId",
					"type": "uint256",
					"internalType": "uint256"
				},
				{
					"name": "projectId",
					"type": "uint256",
					"internalType": "uint256"
				},
				{
					"name": "msgValue",
					"type": "uint256",
					"internalType": "uint256"
				}
			]
		},
		{
			"type": "error",
			"name": "JB721Hook_InvalidPay",
			"inputs": [
				{
					"name": "caller",
					"type": "address",
					"internalType": "address"
				},
				{
					"name": "contextProjectId",
					"type": "uint256",
					"internalType": "uint256"
				},
				{
					"name": "projectId",
					"type": "uint256",
					"internalType": "uint256"
				}
			]
		},
		{
			"type": "error",
			"name": "JB721Hook_InvalidPayValue",
			"inputs": [
				{
					"name": "token",
					"type": "address",
					"internalType": "address"
				},
				{
					"name": "msgValue",
					"type": "uint256",
					"internalType": "uint256"
				},
				{
					"name": "forwardedValue",
					"type": "uint256",
					"internalType": "uint256"
				}
			]
		},
		{
			"type": "error",
			"name": "JB721Hook_UnauthorizedToken",
			"inputs": [
				{
					"name": "tokenId",
					"type": "uint256",
					"internalType": "uint256"
				},
				{
					"name": "holder",
					"type": "address",
					"internalType": "address"
				}
			]
		},
		{
			"type": "error",
			"name": "JB721Hook_UnexpectedTokenCashedOut",
			"inputs": [
				{
					"name": "cashOutCount",
					"type": "uint256",
					"internalType": "uint256"
				}
			]
		},
		{
			"type": "error",
			"name": "JB721TiersHook_AlreadyInitialized",
			"inputs": [
				{
					"name": "projectId",
					"type": "uint256",
					"internalType": "uint256"
				}
			]
		},
		{
			"type": "error",
			"name": "JB721TiersHook_InvalidPricingDecimals",
			"inputs": [
				{
					"name": "decimals",
					"type": "uint256",
					"internalType": "uint256"
				}
			]
		},
		{
			"type": "error",
			"name": "JB721TiersHook_MintReserveNftsPaused",
			"inputs": [
				{
					"name": "projectId",
					"type": "uint256",
					"internalType": "uint256"
				},
				{
					"name": "tierId",
					"type": "uint256",
					"internalType": "uint256"
				}
			]
		},
		{
			"type": "error",
			"name": "JB721TiersHook_MissingSplitMetadata",
			"inputs": []
		},
		{
			"type": "error",
			"name": "JB721TiersHook_NoProjectId",
			"inputs": [
				{
					"name": "projectId",
					"type": "uint256",
					"internalType": "uint256"
				}
			]
		},
		{
			"type": "error",
			"name": "JB721TiersHook_TierTransfersPaused",
			"inputs": [
				{
					"name": "projectId",
					"type": "uint256",
					"internalType": "uint256"
				},
				{
					"name": "tokenId",
					"type": "uint256",
					"internalType": "uint256"
				},
				{
					"name": "from",
					"type": "address",
					"internalType": "address"
				},
				{
					"name": "to",
					"type": "address",
					"internalType": "address"
				}
			]
		},
		{
			"type": "error",
			"name": "JBOwnableOverrides_AddressOwnerCannotSetPermissionId",
			"inputs": [
				{
					"name": "owner",
					"type": "address",
					"internalType": "address"
				},
				{
					"name": "permissionId",
					"type": "uint8",
					"internalType": "uint8"
				}
			]
		},
		{
			"type": "error",
			"name": "JBOwnableOverrides_InvalidNewOwner",
			"inputs": [
				{
					"name": "newOwner",
					"type": "address",
					"internalType": "address"
				},
				{
					"name": "projectId",
					"type": "uint256",
					"internalType": "uint256"
				}
			]
		},
		{
			"type": "error",
			"name": "JBOwnableOverrides_ProjectDoesNotExist",
			"inputs": [
				{
					"name": "projectId",
					"type": "uint256",
					"internalType": "uint256"
				},
				{
					"name": "projectCount",
					"type": "uint256",
					"internalType": "uint256"
				}
			]
		},
		{
			"type": "error",
			"name": "JBPermissioned_Unauthorized",
			"inputs": [
				{
					"name": "account",
					"type": "address",
					"internalType": "address"
				},
				{
					"name": "sender",
					"type": "address",
					"internalType": "address"
				},
				{
					"name": "projectId",
					"type": "uint256",
					"internalType": "uint256"
				},
				{
					"name": "permissionId",
					"type": "uint256",
					"internalType": "uint256"
				}
			]
		}
	],
	"args": [],
	"solcInputHash": "01d6941b86387a3b428b99fa4b4aa703",
	"bytecode": "0x6101c0604052348015610010575f5ffd5b506040516165ee3803806165ee83398101604081905261002f9161041c565b8781888a6001600160a01b031663293c49996040518163ffffffff1660e01b8152600401602060405180830381865afa15801561006e573d5f5f3e3d5ffd5b505050506040513d601f19601f8201168201806040525081019061009291906104c7565b6001600160a01b03828116608052811660a052335f83838383816100e85760405163076db9c360e21b81526001600160a01b03831660048201526001600160581b03821660248201526044015b60405180910390fd5b6100f28282610148565b5050506001600160a01b0395861660c0525050505091811660e05230610100529687166101205250509284166101405290831661016052821661018052166101a05250506009805460ff19166001179055610548565b6001600160581b0381161580159061016857506001600160a01b03821615155b156101a05760405163076db9c360e21b81526001600160a01b03831660048201526001600160581b03821660248201526044016100df565b604080516060810182525f80546001600160a01b0381168352600160a01b81046001600160581b031660208401819052600160f81b90910460ff1693830193909352909181036101f25750805161020c565b6020820151610209906001600160581b0316610299565b90505b604080516060810182526001600160a01b0386168082526001600160581b038616602083018190525f9290930182905281547fff000000000000000000000000000000000000000000000000000000000000001617600160a01b909202919091176001600160f81b03169055600180546001600160a01b031916905561029381858561030f565b50505050565b60a0516040516331a9108f60e11b8152600481018390525f916001600160a01b031690636352211e90602401602060405180830381865afa9250505080156102fe575060408051601f3d908101601f191682019092526102fb918101906104c7565b60015b61030957505f919050565b92915050565b816001600160581b03821615610334576103316001600160581b038316610299565b90505b6001600160a01b038082169085167fc8894f26f396ce8c004245c8b7cd1b92103a6e4302fcbab883987149ac01b7ec61036b61038c565b6040516001600160a01b03909116815260200160405180910390a350505050565b5f61039561039a565b905090565b5f3660148082108015906103b257506103b2336103e0565b156103d8576103c536828403815f6104e9565b6103ce91610510565b60601c9250505090565b339250505090565b5f6103ea60c05190565b6001600160a01b0316826001600160a01b0316149050919050565b6001600160a01b0381168114610419575f5ffd5b50565b5f5f5f5f5f5f5f5f610100898b031215610434575f5ffd5b885161043f81610405565b60208a015190985061045081610405565b60408a015190975061046181610405565b60608a015190965061047281610405565b60808a015190955061048381610405565b60a08a015190945061049481610405565b60c08a01519093506104a581610405565b60e08a01519092506104b681610405565b809150509295985092959890939650565b5f602082840312156104d7575f5ffd5b81516104e281610405565b9392505050565b5f5f858511156104f7575f5ffd5b83861115610503575f5ffd5b5050820193919092039150565b80356001600160601b03198116906014841015610541576001600160601b0319601485900360031b81901b82161691505b5092915050565b60805160a05160c05160e05161010051610120516101405161016051610180516101a051615f346106ba5f395f6129fd01525f818161043201528181610ca2015281816113b0015261272d01525f818161055601528181610c8101528181610da1015281816112d60152818161138f015281816114ec01528181611588015281816116cb015281816118420152818161193001528181611fbd015281816120a801528181612355015281816124cd015281816128000152818161297f01528181612c33015281816136bf015261391001525f81816108f70152612d3d01525f81816103ff01528181611975015261254901525f818161099c0152818161195101528181611e12015281816121f7015261393101525f81816106f601528181610e3b01528181611d33015261270b01525f81816105b3015281816106c1015261375401525f81816104a301528181611b9c01528181611c2401526131a901525f81816109ee0152612b6d0152615f345ff3fe6080604052600436106102d9575f3560e01c8063715018a611610189578063c22903b2116100d8578063e8a3d48511610092578063f2fde38b1161006d578063f2fde38b146109be578063f434c914146109dd578063f672acac14610a10578063f88422e514610a40575f5ffd5b8063e8a3d48514610958578063e985e9c51461096c578063edab09b91461098b575f5ffd5b8063c22903b214610895578063c87b56dd146108a8578063cf7f4936146108c7578063d4a1b4b1146108e6578063d4ab100f14610919578063d95c9ae21461092d575f5ffd5b806399f6d77f11610143578063a22cb4651161011e578063a22cb465146107cd578063b88d4fde146107ec578063ba23c36e1461080b578063c0fb5e8514610876575f5ffd5b806399f6d77f1461076d5780639c2c6a021461078f578063a220d696146107ae575f5ffd5b8063715018a61461069f5780637da0a877146106b357806388bc2ef3146106e55780638cc35846146107185780638da5cb5b1461074557806395d89b4114610759575f5ffd5b80632c6bdd5511610245578063572b6c05116101ff5780636352211e116101da5780636352211e146106215780636ac6d941146106405780636c0360eb1461066c57806370a0823114610680575f5ffd5b8063572b6c05146105975780635a48c0b0146105e3578063613b856d14610602575f5ffd5b80632c6bdd55146104c55780633fafa127146104e457806342842e0e14610507578063437aa91a14610526578063507f14651461054557806354c6d1f514610578575f5ffd5b80631337f986116102965780631337f986146103db5780631eabcd34146103ee5780631f47ce691461042157806323b872dd146104545780632483d6b514610473578063293c499914610492575f5ffd5b806301ffc9a7146102dd57806306fdde0314610311578063081812fc1461033257806308786b1a14610369578063095ea7b31461039b5780630a4ee844146103bc575b5f5ffd5b3480156102e8575f5ffd5b506102fc6102f7366004613d8c565b610a5f565b60405190151581526020015b60405180910390f35b34801561031c575f5ffd5b50610325610a89565b6040516103089190613dd5565b34801561033d575f5ffd5b5061035161034c366004613de7565b610b19565b6040516001600160a01b039091168152602001610308565b348015610374575f5ffd5b50600e5463ffffffff81169060201c60ff1660408051928352602083019190915201610308565b3480156103a6575f5ffd5b506103ba6103b5366004613e1d565b610b40565b005b3480156103c7575f5ffd5b506103ba6103d636600461446c565b610b56565b6103ba6103e936600461458c565b610e1c565b3480156103f9575f5ffd5b506103517f000000000000000000000000000000000000000000000000000000000000000081565b34801561042c575f5ffd5b506103517f000000000000000000000000000000000000000000000000000000000000000081565b34801561045f575f5ffd5b506103ba61046e3660046145bd565b610f7b565b34801561047e575f5ffd5b506103ba61048d3660046145fb565b61100b565b34801561049d575f5ffd5b506103517f000000000000000000000000000000000000000000000000000000000000000081565b3480156104d0575f5ffd5b506103ba6104df366004614658565b61102a565b3480156104ef575f5ffd5b506104f960085481565b604051908152602001610308565b348015610512575f5ffd5b506103ba6105213660046145bd565b611344565b348015610531575f5ffd5b506103ba610540366004614789565b61135e565b348015610550575f5ffd5b506103517f000000000000000000000000000000000000000000000000000000000000000081565b348015610583575f5ffd5b50610351610592366004613de7565b611435565b3480156105a2575f5ffd5b506102fc6105b13660046147f3565b7f00000000000000000000000000000000000000000000000000000000000000006001600160a01b0390811691161490565b3480156105ee575f5ffd5b50600f54610351906001600160a01b031681565b34801561060d575f5ffd5b506103ba61061c3660046145fb565b611476565b34801561062c575f5ffd5b5061035161063b366004613de7565b611693565b34801561064b575f5ffd5b5061065f61065a36600461480e565b61169d565b604051610308919061489a565b348015610677575f5ffd5b5061032561178f565b34801561068b575f5ffd5b506104f961069a3660046147f3565b61181b565b3480156106aa575f5ffd5b506103ba6118ae565b3480156106be575f5ffd5b507f0000000000000000000000000000000000000000000000000000000000000000610351565b3480156106f0575f5ffd5b506103517f000000000000000000000000000000000000000000000000000000000000000081565b348015610723575f5ffd5b506107376107323660046148ac565b6118c2565b6040516103089291906148e3565b348015610750575f5ffd5b50610351611a85565b348015610764575f5ffd5b50610325611af0565b348015610778575f5ffd5b506102fc6107873660046149a9565b5f9392505050565b34801561079a575f5ffd5b506103ba6107a9366004614ac6565b611aff565b3480156107b9575f5ffd5b506103ba6107c8366004613de7565b611b58565b3480156107d8575f5ffd5b506103ba6107e7366004614b04565b611cd1565b3480156107f7575f5ffd5b506103ba610806366004614b3b565b611ce3565b348015610816575f5ffd5b505f54610846906001600160a01b03811690600160a01b81046001600160581b031690600160f81b900460ff1683565b604080516001600160a01b0390941684526001600160581b03909216602084015260ff1690820152606001610308565b348015610881575f5ffd5b506103ba610890366004614ba2565b611cfa565b6103ba6108a336600461458c565b611d0b565b3480156108b3575f5ffd5b506103256108c2366004613de7565b611f8b565b3480156108d2575f5ffd5b506103ba6108e1366004614ac6565b61202d565b3480156108f1575f5ffd5b506103517f000000000000000000000000000000000000000000000000000000000000000081565b348015610924575f5ffd5b506104f9612091565b348015610938575f5ffd5b506104f96109473660046147f3565b600c6020525f908152604090205481565b348015610963575f5ffd5b5061032561211e565b348015610977575f5ffd5b506102fc610986366004614bbb565b61212b565b348015610996575f5ffd5b506103517f000000000000000000000000000000000000000000000000000000000000000081565b3480156109c9575f5ffd5b506103ba6109d83660046147f3565b612158565b3480156109e8575f5ffd5b506103517f000000000000000000000000000000000000000000000000000000000000000081565b348015610a1b575f5ffd5b50610a2f610a2a366004614be7565b6121a2565b604051610308959493929190614c1e565b348015610a4b575f5ffd5b506104f9610a5a366004614cd3565b61233c565b5f6001600160e01b031982166331d2b0bf60e21b1480610a835750610a838261238c565b92915050565b606060028054610a9890614d63565b80601f0160208091040260200160405190810160405280929190818152602001828054610ac490614d63565b8015610b0f5780601f10610ae657610100808354040283529160200191610b0f565b820191905f5260205f20905b815481529060010190602001808311610af257829003601f168201915b5050505050905090565b5f610b2382612401565b505f828152600660205260409020546001600160a01b0316610a83565b610b528282610b4d612439565b612442565b5050565b60095460ff1615610b8957600854604051639889eb1160e01b8152600401610b8091815260200190565b60405180910390fd5b6009805460ff191660011790555f889003610bba576040516301928d0f60e61b815260048101899052602401610b80565b610bc588888861244f565b6012826040015160ff161115610bf95760408083015190516308fdbb5160e41b815260ff9091166004820152602401610b80565b602082810151604084015163ffffffff909116911b64ff000000001617600e819055855115610c3057600a610c2e8782614dd9565b505b835115610c4557600b610c438582614dd9565b505b6001600160a01b03851615610c5d57610c5d85612460565b82515115610d225773925618e2aa9a1f8d88489505756c339779df8e6b63f236ea0a7f00000000000000000000000000000000000000000000000000000000000000007f000000000000000000000000000000000000000000000000000000000000000060085430610ccd612439565b89516040516001600160e01b031960e089901b168152610cf596959493929190600401614f7f565b5f6040518083038186803b158015610d0b575f5ffd5b505af4158015610d1d573d5f5f3e3d5ffd5b505050505b815180610d30575081602001515b80610d3c575081604001515b80610d48575081606001515b80610d54575081608001515b15610e01576040805163183fd9bb60e21b815283511515600482015260208401511515602482015290830151151560448201526060830151151560648201526080830151151560848201527f00000000000000000000000000000000000000000000000000000000000000006001600160a01b0316906360ff66ec9060a4015f604051808303815f87803b158015610dea575f5ffd5b505af1158015610dfc573d5f5f3e3d5ffd5b505050505b610e11610e0c612439565b612198565b505050505050505050565b600854604051636e49181f60e01b8152600481018290523360248201527f00000000000000000000000000000000000000000000000000000000000000006001600160a01b031690636e49181f90604401602060405180830381865afa158015610e88573d5f5f3e3d5ffd5b505050506040513d601f19601f82011682018060405250810190610eac91906150f7565b1580610ebc575080826020013514155b15610eed576040516335f5573160e21b81523360048201526020830135602482015260448101829052606401610b80565b5f61eeee610f02610100850160e086016147f3565b6001600160a01b031614610f16575f610f1d565b6101408301355b9050803414610f6d57610f37610100840160e085016147f3565b604051630c58637560e31b81526001600160a01b0390911660048201523460248201526101408401356044820152606401610b80565b610f7683612521565b505050565b6001600160a01b038216610fa457604051633250574960e11b81525f6004820152602401610b80565b5f610fb78383610fb2612439565b6127d6565b9050836001600160a01b0316816001600160a01b031614611005576040516364283d7b60e01b81526001600160a01b0380861660048301526024820184905282166044820152606401610b80565b50505050565b611020611016611a85565b600854601b612b02565b610b528282612c17565b61103f611035611a85565b6008546019612b02565b5f611048612439565b90508a156110e25761108e8c8c8080601f0160208091040260200160405190810160405280939291908181526020018383808284375f92019190915250612cc392505050565b8b8b60405161109e929190615112565b6040519081900381206001600160a01b0383168252907fd315b28c9e71dc50793351a3f27803ce3472d655d79b6f52fc4b336eadbc05429060200160405180910390a25b881561117a576111268a8a8080601f0160208091040260200160405190810160405280939291908181526020018383808284375f92019190915250612ccf92505050565b8989604051611136929190615112565b6040519081900381206001600160a01b0383168252907fc48624c8fb090834cea46486af4f54b7595342a993963196750b5881ee8cc3559060200160405180910390a25b86156111e257600a61118d888a83615121565b50878760405161119e929190615112565b6040519081900381206001600160a01b0383168252907f7bc9110d5de090dd59e07912d2b93a5a27ac70a60c8d8e324db4f9ee8b8b5c139060200160405180910390a25b841561124a57600b6111f5868883615121565b508585604051611206929190615112565b6040519081900381206001600160a01b0383168252907fd36dc0c1a06103fdcaf15f3f6fb797d1a97997514c78de073640c8b5005454b89060200160405180910390a25b6001600160a01b03841630146112635761126384612460565b821580159061127157508115155b1561133657604080518381526001600160a01b038316602082015284917fce8dda621a4b30fee578e8b162323c07e227b57448c59610338f1dc8b655f296910160405180910390a26040516370d15f5360e01b815260048101849052602481018390527f00000000000000000000000000000000000000000000000000000000000000006001600160a01b0316906370d15f53906044015f604051808303815f87803b15801561131f575f5ffd5b505af1158015611331573d5f5f3e3d5ffd5b505050505b505050505050505050505050565b610f7683838360405180602001604052805f815250611ce3565b611373611369611a85565b6008546018612b02565b73925618e2aa9a1f8d88489505756c339779df8e6b634e2a0e437f00000000000000000000000000000000000000000000000000000000000000007f0000000000000000000000000000000000000000000000000000000000000000600854306113db612439565b8a8a8a8a6040518a63ffffffff1660e01b815260040161140399989796959493929190615394565b5f6040518083038186803b158015611419575f5ffd5b505af415801561142b573d5f5f3e3d5ffd5b5050505050505050565b5f818152600d60205260408120546001600160a01b03168061146d575f838152600460205260409020546001600160a01b031661146f565b805b9392505050565b5f611482600854612cdb565b90506114a161149682610100015160f21c90565b600190811c81161490565b156114cd57600854604051630cf21c6b60e11b8152600481019190915260248101849052604401610b80565b604051635d53f40760e11b815260048101849052602481018390525f907f00000000000000000000000000000000000000000000000000000000000000006001600160a01b03169063baa7e80e906044015f604051808303815f875af1158015611539573d5f5f3e3d5ffd5b505050506040513d5f823e601f3d908101601f1916820160405261156091908101906155a3565b60405162d5cc0160e21b8152306004820152602481018690529091505f906001600160a01b037f00000000000000000000000000000000000000000000000000000000000000001690630357300490604401602060405180830381865afa1580156115cd573d5f5f3e3d5ffd5b505050506040513d601f19601f820116820180604052508101906115f191906155d4565b90505f6115fc612439565b90505f5b8581101561168a575f84828151811061161b5761161b6155ef565b60200260200101519050836001600160a01b031688827f80dd2efbbc431cde0164d84d638e44ba6e7a3ca5d532ceef1bb4efcc0948325d8660405161166f91906001600160a01b0391909116815260200190565b60405180910390a46116818482612da7565b50600101611600565b50505050505050565b5f610a8382612401565b60606116b46116aa611a85565b600854601a612b02565b60405163eaa19ab360e01b81526001600160a01b037f0000000000000000000000000000000000000000000000000000000000000000169063eaa19ab390611708905f199088908890600190600401615603565b5f604051808303815f875af1158015611723573d5f5f3e3d5ffd5b505050506040513d5f823e601f3d908101601f1916820160405261174a919081019061565e565b9050508091505061146f818585808060200260200160405190810160405280939291908181526020018383602002808284375f9201829052508893509150612e089050565b600a805461179c90614d63565b80601f01602080910402602001604051908101604052809291908181526020018280546117c890614d63565b80156118135780601f106117ea57610100808354040283529160200191611813565b820191905f5260205f20905b8154815290600101906020018083116117f657829003601f168201915b505050505081565b604051633de222bb60e21b81523060048201526001600160a01b0382811660248301525f917f00000000000000000000000000000000000000000000000000000000000000009091169063f7888aec906044015b602060405180830381865afa15801561188a573d5f5f3e3d5ffd5b505050506040513d601f19601f82011682018060405250810190610a8391906156a9565b6118b6612ed6565b6118c05f5f61305f565b565b6040805160018082528183019092525f9160609190816020015b604080516080810182525f80825260208083018290529282015260608082015282525f199092019101816118dc5790505090505f60605f5f73925618e2aa9a1f8d88489505756c339779df8e6b63b99df6327f00000000000000000000000000000000000000000000000000000000000000007f0000000000000000000000000000000000000000000000000000000000000000600e547f00000000000000000000000000000000000000000000000000000000000000008c6040518663ffffffff1660e01b81526004016119b5959493929190615777565b5f60405180830381865af41580156119cf573d5f5f3e3d5ffd5b505050506040513d5f823e601f3d908101601f191682016040526119f6919081019061589d565b604080516080810182523081525f602080830191909152818301879052969c509499509297509095509350909160608301918591611a38918c01908c016147f3565b8685604051602001611a4d949392919061591a565b604051602081830303815290604052815250855f81518110611a7157611a716155ef565b602002602001018190525050505050915091565b604080516060810182525f80546001600160a01b0381168352600160a01b81046001600160581b031660208401819052600160f81b90910460ff1693830193909352918203611ad45751919050565b611aea81602001516001600160581b0316613191565b91505090565b606060038054610a9890614d63565b5f5b81811015610f76575f838383818110611b1c57611b1c6155ef565b905060400201803603810190611b3291906159b6565b9050611b4f815f015163ffffffff16826020015161ffff16611476565b50600101611b01565b611b60612ed6565b801580611b7357506001600160581b0381115b15611b9a5760405163076db9c360e21b81525f600482015260248101829052604401610b80565b7f00000000000000000000000000000000000000000000000000000000000000006001600160a01b03166306661abd6040518163ffffffff1660e01b8152600401602060405180830381865afa158015611bf6573d5f5f3e3d5ffd5b505050506040513d601f19601f82011682018060405250810190611c1a91906156a9565b811115611cc457807f00000000000000000000000000000000000000000000000000000000000000006001600160a01b03166306661abd6040518163ffffffff1660e01b8152600401602060405180830381865afa158015611c7e573d5f5f3e3d5ffd5b505050506040513d601f19601f82011682018060405250810190611ca291906156a9565b604051635e0e2cff60e11b815260048101929092526024820152604401610b80565b611cce5f8261305f565b50565b610b52611cdc612439565b8383613224565b611cee848484610f7b565b611005848484846132c2565b611d02612ed6565b611cce816133e8565b60085434151580611da65750604051636e49181f60e01b8152600481018290523360248201527f00000000000000000000000000000000000000000000000000000000000000006001600160a01b031690636e49181f90604401602060405180830381865afa158015611d80573d5f5f3e3d5ffd5b505050506040513d601f19601f82011682018060405250810190611da491906150f7565b155b80611db5575080826020013514155b15611dec57604051630734d96960e01b81523360048201526020830135602482015260448101829052346064820152608401610b80565b60408051808201909152600781526618d85cda13dd5d60ca1b6020909101525f80611e9d7f000000000000000000000000000000000000000000000000000000000000000060601b7f86b14ff4df1839d4c5ed01550f2540ea56ad3e3813c5cd226eeab5890c21e3bb18611e646101e08701876159d0565b8080601f0160208091040260200160405190810160405280939291908181526020018383808284375f920191909152506134d092505050565b9150915060608215611ec05781806020019051810190611ebd91906155a3565b90505b5f5b8151811015611f7a575f828281518110611ede57611ede6155ef565b60200260200101519050865f016020810190611efa91906147f3565b6001600160a01b0316611f21825f908152600460205260409020546001600160a01b031690565b6001600160a01b031614611f685780611f3d60208901896147f3565b604051630694678560e21b815260048101929092526001600160a01b03166024820152604401610b80565b611f7181613670565b50600101611ec2565b50611f84816136a8565b5050505050565b604051636ce4a1df60e01b815260609073925618e2aa9a1f8d88489505756c339779df8e6b90636ce4a1df90611fec907f0000000000000000000000000000000000000000000000000000000000000000903090600a908890600401615a12565b5f60405180830381865af4158015612006573d5f5f3e3d5ffd5b505050506040513d5f823e601f3d908101601f19168201604052610a839190810190615abc565b612038611016611a85565b5f5b81811015610f76575f838383818110612055576120556155ef565b90506040020180360381019061206b91906159b6565b9050612088815f015163ffffffff16826020015161ffff16612c17565b5060010161203a565b604051636149e06b60e11b81523060048201525f907f00000000000000000000000000000000000000000000000000000000000000006001600160a01b03169063c293c0d690602401602060405180830381865afa1580156120f5573d5f5f3e3d5ffd5b505050506040513d601f19601f8201168201806040525081019061211991906156a9565b905090565b600b805461179c90614d63565b6001600160a01b039182165f90815260076020908152604080832093909416825291909152205460ff1690565b612160612ed6565b6001600160a01b0381166121985760405163076db9c360e21b81526001600160a01b03821660048201525f6024820152604401610b80565b611cce815f61305f565b5f80808060606080860135156121d1576040516304029f2360e51b815260808701356004820152602401610b80565b60408051808201909152600781526618d85cda13dd5d60ca1b6020909101525f806122497f000000000000000000000000000000000000000000000000000000000000000060601b7f86b14ff4df1839d4c5ed01550f2540ea56ad3e3813c5cd226eeab5890c21e3bb18611e646101a08b018b6159d0565b604080516001808252818301909252929450909250816020015b604080516080810182525f80825260208083018290529282015260608082015282525f199092019101816122635790505092506040518060800160405280306001600160a01b031681526020015f151581526020015f815260200160405180602001604052805f815250815250835f815181106122e2576122e26155ef565b60200260200101819052506060821561230c578180602001905181019061230991906155a3565b90505b6123158161233c565b965061231f612091565b6101608a01359a9799909850610120013596939550929350505050565b604051639be748fb60e01b81525f906001600160a01b037f00000000000000000000000000000000000000000000000000000000000000001690639be748fb9061186f9030908690600401615b00565b5f6001600160e01b03198216635ab8866d60e01b14806123bc57506001600160e01b0319821663e347239560e01b145b806123d757506001600160e01b0319821663099bfcc360e11b145b806123f257506001600160e01b0319821663611481d960e11b145b80610a835750610a83826136f4565b5f818152600460205260408120546001600160a01b03168061146d57604051637e27328960e01b815260048101849052602401610b80565b5f612119613743565b610f7683838360016137ad565b61245982826138b1565b5050600855565b806001600160a01b03167fe7784d93cfbfa4408e19577e6cc0436f4dbb51214b70e100905dfce9def88c16612493612439565b6040516001600160a01b03909116815260200160405180910390a260405163036129cb60e61b81526001600160a01b0382811660048301527f0000000000000000000000000000000000000000000000000000000000000000169063d84a72c0906024015b5f604051808303815f87803b15801561250f575f5ffd5b505af1158015611f84573d5f5f3e3d5ffd5b600e546008545f91829173925618e2aa9a1f8d88489505756c339779df8e6b9163f327b88d917f00000000000000000000000000000000000000000000000000000000000000009060c0880180359061257d9060a08b01615b23565b61258d60a08b0160808c01614ba2565b6040516001600160e01b031960e089901b16815260048101969096526001600160a01b0390941660248601526044850192909252606484015263ffffffff16608483015260ff1660a482015260c4016040805180830381865af41580156125f6573d5f5f3e3d5ffd5b505050506040513d601f19601f8201168201806040525081019061261a9190615b3e565b925090508161262857505050565b5f80606061263a6101c08701876159d0565b1590506126645761264f6101c08701876159d0565b81019061265c9190615b62565b919450925090505b6001600160a01b038316612687576126846101c087016101a088016147f3565b92505b6001600160a01b0382166126a5576126a260208701876147f3565b91505b6126be84836126b86101e08a018a6159d0565b876138ca565b610140860135156127ce5780515f036126ea5760405163dfb594cf60e01b815260040160405180910390fd5b60085473925618e2aa9a1f8d88489505756c339779df8e6b9063b720e93f907f0000000000000000000000000000000000000000000000000000000000000000907f0000000000000000000000000000000000000000000000000000000000000000903061275f6101008d0160e08e016147f3565b8c60e001606001358d60e001602001602081019061277d9190614ba2565b896040518963ffffffff1660e01b81526004016127a1989796959493929190615bbf565b5f6040518083038186803b1580156127b7575f5ffd5b505af41580156127c9573d5f5f3e3d5ffd5b505050505b505050505050565b604051631a63e45960e21b8152306004820152602481018390525f90819081906001600160a01b037f0000000000000000000000000000000000000000000000000000000000000000169063698f9164906044016040805180830381865afa158015612844573d5f5f3e3d5ffd5b505050506040513d601f19601f820116820180604052508101906128689190615b3e565b91509150612877868686613aee565b92506001600160a01b0383161561295157801561290f575f61289a600854612cdb565b90506001600160a01b038716158015906128ca57506128ca6128c182610100015160f21c90565b60019081161490565b1561290d57600854604051638bdca12760e01b81526004810191909152602481018790526001600160a01b03808616604483015288166064820152608401610b80565b505b5f858152600d60205260409020546001600160a01b0316612951575f858152600d6020526040902080546001600160a01b0319166001600160a01b0385161790555b6040516330b157e560e21b8152600481018390526001600160a01b03848116602483015287811660448301527f0000000000000000000000000000000000000000000000000000000000000000169063c2c55f94906064015f604051808303815f87803b1580156129c0575f5ffd5b505af11580156129d2573d5f5f3e3d5ffd5b5050600f546001600160a01b03169150612a90905057604051634c96a38960e01b81523060048201527f00000000000000000000000000000000000000000000000000000000000000006001600160a01b031690634c96a389906024016020604051808303815f875af1158015612a4b573d5f5f3e3d5ffd5b505050506040513d601f19601f82011682018060405250810190612a6f91906155d4565b600f80546001600160a01b0319166001600160a01b03929092169190911790555b600f54604051634a39314960e01b81526001600160a01b03858116600483015288811660248301526044820188905290911690634a393149906064015f604051808303815f87803b158015612ae3575f5ffd5b505af1158015612af5573d5f5f3e3d5ffd5b5050505050509392505050565b5f612b0b612439565b9050836001600160a01b0316816001600160a01b031614158015612bd85750604051631a45b42760e11b81526001600160a01b0382811660048301528581166024830152604482018590526064820184905260016084830181905260a48301527f0000000000000000000000000000000000000000000000000000000000000000169063348b684e9060c401602060405180830381865afa158015612bb2573d5f5f3e3d5ffd5b505050506040513d601f19601f82011682018060405250810190612bd691906150f7565b155b1561100557604051631326f75560e11b81526001600160a01b038086166004830152821660248201526044810184905260648101839052608401610b80565b73925618e2aa9a1f8d88489505756c339779df8e6b6392801ea67f00000000000000000000000000000000000000000000000000000000000000008484612c5c612439565b60405160e086901b6001600160e01b03191681526001600160a01b0394851660048201526024810193909352604483019190915290911660648201526084015f6040518083038186803b158015612cb1575f5ffd5b505af41580156127ce573d5f5f3e3d5ffd5b6002610b528282614dd9565b6003610b528282614dd9565b60408051610120810182525f80825260208201819052818301819052606082018190526080820181905260a0820181905260c0820181905260e0820181905261010082015290516321d1336160e11b8152600481018390526001600160a01b037f000000000000000000000000000000000000000000000000000000000000000016906343a266c29060240161012060405180830381865afa158015612d83573d5f5f3e3d5ffd5b505050506040513d601f19601f82011682018060405250810190610a839190615c4c565b6001600160a01b038216612dd057604051633250574960e11b81525f6004820152602401610b80565b5f612ddc83835f6127d6565b90506001600160a01b03811615610f76576040516339e3563760e11b81525f6004820152602401610b80565b5f612e11612439565b90505f5b85518110156127ce57836001600160a01b0316858281518110612e3a57612e3a6155ef565b602002602001015161ffff16878381518110612e5857612e586155ef565b60200260200101517f598baf7bf150ca2f42be9e9f8f55e81d45f5715c3ff22bf46d697fabec7f31d68686604051612ea39291909182526001600160a01b0316602082015260400190565b60405180910390a4612ece84878381518110612ec157612ec16155ef565b6020026020010151612da7565b600101612e15565b604080516060810182525f80546001600160a01b0381168352600160a01b81046001600160581b031660208401819052600160f81b90910460ff169383019390935290918103612f85575080516001600160a01b038116612f35612439565b6001600160a01b031614610b525780612f4c612439565b604051631326f75560e11b81526001600160a01b039283166004820152911660248201525f604482018190526064820152608401610b80565b612f9b82602001516001600160581b0316613191565b9050604082015160ff811615801590612fc257506001546001600160a01b03838116911614155b15612fca57505f5b8060ff165f0361304457816001600160a01b0316612fe6612439565b6001600160a01b031614610f765781612ffd612439565b6020850151604051631326f75560e11b81526001600160a01b0393841660048201529290911660248301526001600160581b031660448201525f6064820152608401610b80565b610f768284602001516001600160581b03168360ff16612b02565b6001600160581b0381161580159061307f57506001600160a01b03821615155b156130b75760405163076db9c360e21b81526001600160a01b03831660048201526001600160581b0382166024820152604401610b80565b604080516060810182525f80546001600160a01b0381168352600160a01b81046001600160581b031660208401819052600160f81b90910460ff16938301939093529091810361310957508051613122565b61311f82602001516001600160581b0316613191565b90505b604080516060810182526001600160a01b0386168082526001600160581b038616602083018190525f9290930182905281546001600160f81b03191617600160a01b909202919091176001600160f81b03169055600180546001600160a01b0319169055611005818585613be0565b6040516331a9108f60e11b8152600481018290525f907f00000000000000000000000000000000000000000000000000000000000000006001600160a01b031690636352211e90602401602060405180830381865afa925050508015613214575060408051601f3d908101601f19168201909252613211918101906155d4565b60015b61146d57505f919050565b919050565b6001600160a01b03821661325657604051630b61174360e31b81526001600160a01b0383166004820152602401610b80565b6001600160a01b038381165f81815260076020908152604080832094871680845294825291829020805460ff191686151590811790915591519182527f17307eab39ab6107e8899845ad3d59bd9653f200f220920489ca2b5937696c31910160405180910390a3505050565b6001600160a01b0383163b1561100557826001600160a01b031663150b7a026132e9612439565b8685856040518563ffffffff1660e01b815260040161330b9493929190615cfd565b6020604051808303815f875af1925050508015613345575060408051601f3d908101601f1916820190925261334291810190615d2f565b60015b6133ac573d808015613372576040519150601f19603f3d011682016040523d82523d5f602084013e613377565b606091505b5080515f036133a457604051633250574960e11b81526001600160a01b0385166004820152602401610b80565b805181602001fd5b6001600160e01b03198116630a85bd0160e11b14611f8457604051633250574960e11b81526001600160a01b0385166004820152602401610b80565b5f54600160a01b90046001600160581b0316158015613409575060ff811615155b1561343e575f5460405163cb81547360e01b81526001600160a01b03909116600482015260ff82166024820152604401610b80565b5f80546001600160f81b0316600160f81b60ff84160217905561345f611a85565b600180546001600160a01b0319166001600160a01b03929092169190911790557f3a02c735461e3ddd7b1f6ccb1620101cec0d5c7ef32a2eb50b1b02a4191d8207816134a9612439565b6040805160ff90931683526001600160a01b0390911660208301520160405180910390a150565b5f606060258351116134f357505060408051602081019091525f80825290613669565b5f8361350160046020615d5e565b81518110613511576135116155ef565b0160209081015160f81c91505b5f8561352b600484615d5e565b8151811061353b5761353b6155ef565b01602001516001600160f81b03191614801590613561575061355e602083615d71565b81105b15613666575f85613573600484615d5e565b81518110613583576135836155ef565b016020908101518784019091015160f89190911c91506001600160e01b03198089169082160361365c575f6135b9602086615d71565b6135c4600986615d5e565b1015806135f95750876135d8600986615d5e565b815181106135e8576135e86155ef565b01602001516001600160f81b031916155b6136325760208861360b600987615d5e565b8151811061361b5761361b6155ef565b016020015161362d919060f81c615d71565b613635565b87515b9050600161364e89613648602087615d71565b84613c63565b965096505050505050613669565b505060050161351e565b50505b9250929050565b5f61367c5f835f6127d6565b90506001600160a01b038116610b5257604051637e27328960e01b815260048101839052602401610b80565b6040516386bc2be360e01b81526001600160a01b037f000000000000000000000000000000000000000000000000000000000000000016906386bc2be3906124f890849060040161489a565b5f6001600160e01b031982166380ac58cd60e01b148061372457506001600160e01b03198216635b5e139f60e01b145b80610a8357506301ffc9a760e01b6001600160e01b0319831614610a83565b5f36601480821080159061377f57507f00000000000000000000000000000000000000000000000000000000000000006001600160a01b031633145b156137a55761379236828403815f615d88565b61379b91615daf565b60601c9250505090565b339250505090565b80806137c157506001600160a01b03821615155b15613882575f6137d084612401565b90506001600160a01b038316158015906137fc5750826001600160a01b0316816001600160a01b031614155b801561380f575061380d818461212b565b155b156138385760405163a9fbf51f60e01b81526001600160a01b0384166004820152602401610b80565b81156138805783856001600160a01b0316826001600160a01b03167f8c5be1e5ebec7d5bd14f71427d1e84f3dd0314c0f7b2291e5b200ac8c7c3b92560405160405180910390a45b505b50505f90815260066020526040902080546001600160a01b0319166001600160a01b0392909216919091179055565b60026138bd8382614dd9565b506003610f768282614dd9565b5f600c5f836001600160a01b03166001600160a01b031681526020019081526020015f205490505f5f5f73925618e2aa9a1f8d88489505756c339779df8e6b63a403c7977f00000000000000000000000000000000000000000000000000000000000000007f00000000000000000000000000000000000000000000000000000000000000008c8c8a8a8e8e6040518963ffffffff1660e01b8152600401613979989796959493929190615dfc565b5f60405180830381865af4158015613993573d5f5f3e3d5ffd5b505050506040513d5f823e601f3d908101601f191682016040526139ba9190810190615e46565b92509250925082515f14613a02575f856001600160a01b0316896001600160a01b0316146139e857896139f2565b6139f2858b615d5e565b9050613a0084848884612e08565b505b838114610e115783811115613a6f576001600160a01b03851681613a268682615f14565b7f7e71a5f6c04b0eb16949316623b9dda7bd103692f7d89678e2260afa1378a2d5613a4f612439565b6040516001600160a01b03909116815260200160405180910390a4613ac9565b6001600160a01b03851681613a848187615f14565b7f6276f0169fb8de712b2a6c02789f6115136c589ed491ac06f9e20f41877e41fe613aad612439565b6040516001600160a01b03909116815260200160405180910390a45b6001600160a01b0385165f908152600c60205260409020819055505050505050505050565b5f828152600460205260408120546001600160a01b0390811690831615613b1a57613b1a818486613caf565b6001600160a01b03811615613b5457613b355f855f5f6137ad565b6001600160a01b0381165f90815260056020526040902080545f190190555b6001600160a01b03851615613b82576001600160a01b0385165f908152600560205260409020805460010190555b5f8481526004602052604080822080546001600160a01b0319166001600160a01b0389811691821790925591518793918516917fddf252ad1be2c89b69c2b068fc378daa952ba7f163c4a11628f55a4df523b3ef91a4949350505050565b816001600160581b03821615613c0557613c02826001600160581b0316613191565b90505b806001600160a01b0316846001600160a01b03167fc8894f26f396ce8c004245c8b7cd1b92103a6e4302fcbab883987149ac01b7ec613c42612439565b6040516001600160a01b03909116815260200160405180910390a350505050565b60608282036040519150601f19601f6020838501010116604052808252836020860101602083015f5b83811015613ca4578281015182820152602001613c8c565b505050509392505050565b613cba838383613d13565b610f76576001600160a01b038316613ce857604051637e27328960e01b815260048101829052602401610b80565b60405163177e802f60e01b81526001600160a01b038316600482015260248101829052604401610b80565b5f6001600160a01b03831615801590613d6f5750826001600160a01b0316846001600160a01b03161480613d4c5750613d4c848461212b565b80613d6f57505f828152600660205260409020546001600160a01b038481169116145b949350505050565b6001600160e01b031981168114611cce575f5ffd5b5f60208284031215613d9c575f5ffd5b813561146f81613d77565b5f81518084528060208401602086015e5f602082860101526020601f19601f83011685010191505092915050565b602081525f61146f6020830184613da7565b5f60208284031215613df7575f5ffd5b5035919050565b6001600160a01b0381168114611cce575f5ffd5b803561321f81613dfe565b5f5f60408385031215613e2e575f5ffd5b8235613e3981613dfe565b946020939093013593505050565b634e487b7160e01b5f52604160045260245ffd5b60405160e081016001600160401b0381118282101715613e7d57613e7d613e47565b60405290565b60405160c081016001600160401b0381118282101715613e7d57613e7d613e47565b604051606081016001600160401b0381118282101715613e7d57613e7d613e47565b60405161016081016001600160401b0381118282101715613e7d57613e7d613e47565b60405161012081016001600160401b0381118282101715613e7d57613e7d613e47565b604051601f8201601f191681016001600160401b0381118282101715613f3557613f35613e47565b604052919050565b5f6001600160401b03821115613f5557613f55613e47565b50601f01601f191660200190565b5f82601f830112613f72575f5ffd5b8135602083015f613f8a613f8584613f3d565b613f0d565b9050828152858383011115613f9d575f5ffd5b828260208301375f92810160200192909252509392505050565b5f6001600160401b03821115613fcf57613fcf613e47565b5060051b60200190565b80356001600160681b038116811461321f575f5ffd5b63ffffffff81168114611cce575f5ffd5b803561321f81613fef565b61ffff81168114611cce575f5ffd5b803561321f8161400b565b803562ffffff8116811461321f575f5ffd5b803560ff8116811461321f575f5ffd5b8015158114611cce575f5ffd5b803561321f81614047565b5f60e0828403121561406f575f5ffd5b614077613e5b565b9050813561408481614047565b8152602082013561409481614047565b602082015260408201356140a781614047565b604082015260608201356140ba81614047565b60608201526140cb60808301614054565b60808201526140dc60a08301614054565b60a08201526140ed60c08301614054565b60c082015292915050565b80356001600160401b038116811461321f575f5ffd5b65ffffffffffff81168114611cce575f5ffd5b803561321f8161410e565b5f82601f83011261413b575f5ffd5b8135614149613f8582613fb7565b80828252602082019150602060c0840286010192508583111561416a575f5ffd5b602085015b838110156142085760c08188031215614186575f5ffd5b61418e613e83565b813561419981613fef565b81526141a7602083016140f8565b602082015260408201356141ba81613dfe565b604082015260608201356141cd81614047565b606082015260808201356141e08161410e565b608082015260a08201356141f381613dfe565b60a0820152835260209092019160c00161416f565b5095945050505050565b5f60608284031215614222575f5ffd5b61422a613ea5565b905081356001600160401b03811115614241575f5ffd5b8201601f81018413614251575f5ffd5b803561425f613f8582613fb7565b8082825260208201915060208360051b850101925086831115614280575f5ffd5b602084015b838110156143a45780356001600160401b038111156142a2575f5ffd5b8501610220818a03601f190112156142b8575f5ffd5b6142c0613ec7565b6142cc60208301613fd9565b81526142da60408301614000565b60208201526142eb60608301614000565b60408201526142fc6080830161401a565b606082015261430d60a08301613e12565b608082015260c082013560a082015261432860e08301614025565b60c082015261433a6101008301614037565b60e082015261434d8a610120840161405f565b6101008201526143606102008301614000565b6101208201526102208201356001600160401b0381111561437f575f5ffd5b61438e8b60208386010161412c565b6101408301525084525060209283019201614285565b508452506143b791505060208301614000565b60208201526143c860408301614037565b604082015292915050565b5f60a082840312156143e3575f5ffd5b60405160a081016001600160401b038111828210171561440557614405613e47565b604052905080823561441681614047565b8152602083013561442681614047565b6020820152604083013561443981614047565b6040820152606083013561444c81614047565b6060820152608083013561445f81614047565b6080919091015292915050565b5f5f5f5f5f5f5f5f610180898b031215614484575f5ffd5b8835975060208901356001600160401b038111156144a0575f5ffd5b6144ac8b828c01613f63565b97505060408901356001600160401b038111156144c7575f5ffd5b6144d38b828c01613f63565b96505060608901356001600160401b038111156144ee575f5ffd5b6144fa8b828c01613f63565b95505061450960808a01613e12565b935060a08901356001600160401b03811115614523575f5ffd5b61452f8b828c01613f63565b93505060c08901356001600160401b0381111561454a575f5ffd5b6145568b828c01614212565b9250506145668a60e08b016143d3565b90509295985092959890939650565b5f6102008284031215614586575f5ffd5b50919050565b5f6020828403121561459c575f5ffd5b81356001600160401b038111156145b1575f5ffd5b613d6f84828501614575565b5f5f5f606084860312156145cf575f5ffd5b83356145da81613dfe565b925060208401356145ea81613dfe565b929592945050506040919091013590565b5f5f6040838503121561460c575f5ffd5b50508035926020909101359150565b5f5f83601f84011261462b575f5ffd5b5081356001600160401b03811115614641575f5ffd5b602083019150836020828501011115613669575f5ffd5b5f5f5f5f5f5f5f5f5f5f5f60e08c8e031215614672575f5ffd5b8b356001600160401b03811115614687575f5ffd5b6146938e828f0161461b565b909c509a505060208c01356001600160401b038111156146b1575f5ffd5b6146bd8e828f0161461b565b909a5098505060408c01356001600160401b038111156146db575f5ffd5b6146e78e828f0161461b565b90985096505060608c01356001600160401b03811115614705575f5ffd5b6147118e828f0161461b565b9096509450614724905060808d01613e12565b9a9d999c50979a96999598949750929591949360a0830135935060c090920135919050565b5f5f83601f840112614759575f5ffd5b5081356001600160401b0381111561476f575f5ffd5b6020830191508360208260051b8501011115613669575f5ffd5b5f5f5f5f6040858703121561479c575f5ffd5b84356001600160401b038111156147b1575f5ffd5b6147bd87828801614749565b90955093505060208501356001600160401b038111156147db575f5ffd5b6147e787828801614749565b95989497509550505050565b5f60208284031215614803575f5ffd5b813561146f81613dfe565b5f5f5f60408486031215614820575f5ffd5b83356001600160401b03811115614835575f5ffd5b61484186828701614749565b909450925050602084013561485581613dfe565b809150509250925092565b5f8151808452602084019350602083015f5b82811015614890578151865260209586019590910190600101614872565b5093949350505050565b602081525f61146f6020830184614860565b5f602082840312156148bc575f5ffd5b81356001600160401b038111156148d1575f5ffd5b8201610180818503121561146f575f5ffd5b5f604082018483526040602084015280845180835260608501915060608160051b8601019250602086015f5b8281101561497657868503605f19018452815180516001600160a01b031686526020808201511515908701526040808201519087015260609081015160809187018290529061496090870182613da7565b955050602093840193919091019060010161490f565b5092979650505050505050565b6dffffffffffffffffffffffffffff81168114611cce575f5ffd5b803561321f81614983565b5f5f5f8385036101608112156149bd575f5ffd5b84359350610120601f19820112156149d3575f5ffd5b506149dc613eea565b6149e860208601614121565b81526149f660408601614121565b6020820152614a0760608601614121565b6040820152614a1860808601614121565b6060820152614a2960a08601614000565b6080820152614a3a60c0860161499e565b60a0820152614a4b60e08601614000565b60c0820152614a5d6101008601613e12565b60e08201526101208501356101008201529150614a7d6101408501613e12565b90509250925092565b5f5f83601f840112614a96575f5ffd5b5081356001600160401b03811115614aac575f5ffd5b6020830191508360208260061b8501011115613669575f5ffd5b5f5f60208385031215614ad7575f5ffd5b82356001600160401b03811115614aec575f5ffd5b614af885828601614a86565b90969095509350505050565b5f5f60408385031215614b15575f5ffd5b8235614b2081613dfe565b91506020830135614b3081614047565b809150509250929050565b5f5f5f5f60808587031215614b4e575f5ffd5b8435614b5981613dfe565b93506020850135614b6981613dfe565b92506040850135915060608501356001600160401b03811115614b8a575f5ffd5b614b9687828801613f63565b91505092959194509250565b5f60208284031215614bb2575f5ffd5b61146f82614037565b5f5f60408385031215614bcc575f5ffd5b8235614bd781613dfe565b91506020830135614b3081613dfe565b5f60208284031215614bf7575f5ffd5b81356001600160401b03811115614c0c575f5ffd5b82016101c0818503121561146f575f5ffd5b5f60a0820187835286602084015285604084015284606084015260a0608084015280845180835260c08501915060c08160051b8601019250602086015f5b82811015614cc35786850360bf19018452815180516001600160a01b0316865260208082015115159087015260408082015190870152606090810151608091870182905290614cad90870182613da7565b9550506020938401939190910190600101614c5c565b50929a9950505050505050505050565b5f60208284031215614ce3575f5ffd5b81356001600160401b03811115614cf8575f5ffd5b8201601f81018413614d08575f5ffd5b8035614d16613f8582613fb7565b8082825260208201915060208360051b850101925086831115614d37575f5ffd5b6020840193505b82841015614d59578335825260209384019390910190614d3e565b9695505050505050565b600181811c90821680614d7757607f821691505b60208210810361458657634e487b7160e01b5f52602260045260245ffd5b601f821115610f7657805f5260205f20601f840160051c81016020851015614dba5750805b601f840160051c820191505b81811015611f84575f8155600101614dc6565b81516001600160401b03811115614df257614df2613e47565b614e0681614e008454614d63565b84614d95565b6020601f821160018114614e38575f8315614e215750848201515b5f19600385901b1c1916600184901b178455611f84565b5f84815260208120601f198516915b82811015614e675787850151825560209485019460019092019101614e47565b5084821015614e8457868401515f19600387901b60f8161c191681555b50505050600190811b01905550565b80511515825260208101511515602083015260408101511515604083015260608101511515606083015260808101511515608083015260a0810151614edc60a084018215159052565b5060c0810151610f7660c084018215159052565b5f8151808452602084019350602083015f5b82811015614890578151805163ffffffff1687526020808201516001600160401b0316818901526040808301516001600160a01b03908116918a01919091526060808401511515908a015260808084015165ffffffffffff16908a015260a092830151169188019190915260c09096019590910190600101614f02565b6001600160a01b038781168252868116602080840191909152604083018790528582166060840152908416608083015260c060a0830181905283519083018190525f9160e0600583901b8501810192908501918601845b828110156150e65786850360df19018452815180516001600160681b03168652602081015161500d602088018263ffffffff169052565b506040810151615025604088018263ffffffff169052565b50606081015161503b606088018261ffff169052565b50608081015161505660808801826001600160a01b03169052565b5060a081015160a087015260c081015161507760c088018262ffffff169052565b5060e081015161508c60e088018260ff169052565b506101008101516150a1610100880182614e93565b5061012081015163ffffffff166101e0870152610140015161022061020087018190526150d090870182614ef0565b9550506020938401939190910190600101614fd6565b50929b9a5050505050505050505050565b5f60208284031215615107575f5ffd5b815161146f81614047565b818382375f9101908152919050565b6001600160401b0383111561513857615138613e47565b61514c836151468354614d63565b83614d95565b5f601f84116001811461517d575f85156151665750838201355b5f19600387901b1c1916600186901b178355611f84565b5f83815260208120601f198716915b828110156151ac578685013582556020948501946001909201910161518c565b50868210156151c8575f1960f88860031b161c19848701351681555b505060018560011b0183555050505050565b80356151e581614047565b1515825260208101356151f781614047565b15156020830152604081013561520c81614047565b1515604083015261521f60608201614054565b1515606083015261523260808201614054565b1515608083015261524560a08201614054565b151560a083015261525860c08201614054565b80151560c0840152505050565b5f5f8335601e1984360301811261527a575f5ffd5b83016020810192503590506001600160401b03811115615298575f5ffd5b60c081023603821315613669575f5ffd5b8183526020830192505f815f5b848110156148905781356152c981613fef565b63ffffffff1686526001600160401b036152e5602084016140f8565b16602087015260408201356152f981613dfe565b6001600160a01b03166040870152606082013561531581614047565b15156060870152608082013561532a8161410e565b65ffffffffffff16608087015261534360a08301613e12565b6001600160a01b031660a087015260c09586019591909101906001016152b6565b8183525f6001600160fb1b0383111561537b575f5ffd5b8260051b80836020870137939093016020019392505050565b6001600160a01b038a8116825289811660208301526040820189905287811660608301528616608082015260e060a0820181905281018490525f610100600586901b83018101908301878361021e1936839003015b898210156155215786850360ff190184528235818112615407575f5ffd5b8b016154238661541683613fd9565b6001600160681b03169052565b61542f60208201614000565b63ffffffff16602087015261544660408201614000565b63ffffffff16604087015261545d6060820161401a565b61ffff16606087015261547260808201613e12565b6001600160a01b0316608087015260a0818101359087015261549660c08201614025565b62ffffff1660c08701526154ac60e08201614037565b60ff1660e08701526154c56101008088019083016151da565b6154d26101e08201614000565b63ffffffff166101e08701526154ec610200820182615265565b9150610220610200880152615506610220880183836152a9565b965050506020830192506020840193506001820191506153e9565b5050505082810360c0840152615538818587615364565b9c9b505050505050505050505050565b5f82601f830112615557575f5ffd5b8151615565613f8582613fb7565b8082825260208201915060208360051b860101925085831115615586575f5ffd5b602085015b8381101561420857805183526020928301920161558b565b5f602082840312156155b3575f5ffd5b81516001600160401b038111156155c8575f5ffd5b613d6f84828501615548565b5f602082840312156155e4575f5ffd5b815161146f81613dfe565b634e487b7160e01b5f52603260045260245ffd5b84815260606020820181905281018390525f8460808301825b8681101561564757823561562f8161400b565b61ffff1682526020928301929091019060010161561c565b508092505050821515604083015295945050505050565b5f5f5f60608486031215615670575f5ffd5b83516001600160401b03811115615685575f5ffd5b61569186828701615548565b60208601516040909601519097959650949350505050565b5f602082840312156156b9575f5ffd5b5051919050565b80356156cb81613dfe565b6001600160a01b0316825260ff6156e460208301614037565b16602083015260408101356156f881613fef565b63ffffffff166040830152606090810135910152565b5f5f8335601e19843603018112615723575f5ffd5b83016020810192503590506001600160401b03811115615741575f5ffd5b803603821315613669575f5ffd5b81835281816020850137505f828201602090810191909152601f909101601f19169091010190565b6001600160a01b0386811682528581166020830152604082018590528316606082015260a0608082018190526157bf9082016157b284613e12565b6001600160a01b03169052565b5f6157cc60208401613e12565b6001600160a01b031660c08301526157ea60e08301604085016156c0565b60c083013561016083015260e083013561018083015261580d6101008401613e12565b6001600160a01b03166101a08301526101208301356101c08301526101408301356101e083015261584261016084018461570e565b61018061020085015261585a6102208501828461574f565b9998505050505050505050565b5f615874613f8584613f3d565b9050828152838383011115615887575f5ffd5b8282602083015e5f602084830101529392505050565b5f5f5f5f5f60a086880312156158b1575f5ffd5b85516020870151604088015191965094506001600160401b038111156158d5575f5ffd5b8601601f810188136158e5575f5ffd5b6158f488825160208401615867565b935050606086015161590581613dfe565b60809690960151949793965091949392915050565b6001600160a01b038581168252841660208201526080604082018190525f9061594590830185613da7565b905082606083015295945050505050565b5f60408284031215615966575f5ffd5b604080519081016001600160401b038111828210171561598857615988613e47565b604052905080823561599981613fef565b815260208301356159a98161400b565b6020919091015292915050565b5f604082840312156159c6575f5ffd5b61146f8383615956565b5f5f8335601e198436030181126159e5575f5ffd5b8301803591506001600160401b038211156159fe575f5ffd5b602001915036819003821315613669575f5ffd5b6001600160a01b038581168252841660208201526080604082015282545f908190615a3c81614d63565b806080860152600182165f8114615a5a5760018114615a7657615aa7565b60ff19831660a087015260a082151560051b8701019350615aa7565b875f5260205f205f5b83811015615a9e57815488820160a00152600190910190602001615a7f565b870160a0019450505b50505060609290920192909252949350505050565b5f60208284031215615acc575f5ffd5b81516001600160401b03811115615ae1575f5ffd5b8201601f81018413615af1575f5ffd5b613d6f84825160208401615867565b6001600160a01b03831681526040602082018190525f90613d6f90830184614860565b5f60208284031215615b33575f5ffd5b813561146f81613fef565b5f5f60408385031215615b4f575f5ffd5b82516020840151909250614b3081614047565b5f5f5f60608486031215615b74575f5ffd5b8335615b7f81613dfe565b92506020840135615b8f81613dfe565b915060408401356001600160401b03811115615ba9575f5ffd5b615bb586828701613f63565b9150509250925092565b6001600160a01b03898116825288811660208301526040820188905286811660608301528516608082015260a0810184905260ff831660c082015261010060e082018190525f90615c1290830184613da7565b9a9950505050505050505050565b805161321f8161410e565b805161321f81613fef565b805161321f81614983565b805161321f81613dfe565b5f610120828403128015615c5e575f5ffd5b50615c67613eea565b615c7083615c20565b8152615c7e60208401615c20565b6020820152615c8f60408401615c20565b6040820152615ca060608401615c20565b6060820152615cb160808401615c2b565b6080820152615cc260a08401615c36565b60a0820152615cd360c08401615c2b565b60c0820152615ce460e08401615c41565b60e0820152610100928301519281019290925250919050565b6001600160a01b03858116825284166020820152604081018390526080606082018190525f90614d5990830184613da7565b5f60208284031215615d3f575f5ffd5b815161146f81613d77565b634e487b7160e01b5f52601160045260245ffd5b80820180821115610a8357610a83615d4a565b8082028115828204841417610a8357610a83615d4a565b5f5f85851115615d96575f5ffd5b83861115615da2575f5ffd5b5050820193919092039150565b80356bffffffffffffffffffffffff198116906014841015615df5576bffffffffffffffffffffffff196bffffffffffffffffffffffff198560140360031b1b82161691505b5092915050565b6001600160a01b03898116825288811660208301526040820188905286811660608301528516608082015260a0810184905260e060c082018190525f90615c12908301848661574f565b5f5f5f60608486031215615e58575f5ffd5b83516001600160401b03811115615e6d575f5ffd5b615e7986828701615548565b93505060208401516001600160401b03811115615e94575f5ffd5b8401601f81018613615ea4575f5ffd5b8051615eb2613f8582613fb7565b8082825260208201915060208360051b850101925088831115615ed3575f5ffd5b6020840193505b82841015615efe578351615eed8161400b565b825260209384019390910190615eda565b6040979097015195989697509495945050505050565b81810381811115610a8357610a83615d4a56fea164736f6c634300081c000a",
	"gitCommit": "npm:@bananapus/721-hook-v6@0.0.77",
	"gitDirty": false,
	"history": []
}