{
	"format": "sphinx-sol-ct-artifact-1",
	"address": "0x7033c610d09e0599fdcad305ba8630ae2f98d573",
	"sourceName": "node_modules/@bananapus/721-hook-v6/src/JB721TiersHookStore.sol",
	"contractName": "JB721TiersHookStore",
	"chainId": "0xaa37dc",
	"abi": [
		{
			"type": "function",
			"name": "balanceOf",
			"inputs": [
				{
					"name": "hook",
					"type": "address",
					"internalType": "address"
				},
				{
					"name": "owner",
					"type": "address",
					"internalType": "address"
				}
			],
			"outputs": [
				{
					"name": "",
					"type": "uint256",
					"internalType": "uint256"
				}
			],
			"stateMutability": "view"
		},
		{
			"type": "function",
			"name": "cashOutWeightOf",
			"inputs": [
				{
					"name": "hook",
					"type": "address",
					"internalType": "address"
				},
				{
					"name": "tokenIds",
					"type": "uint256[]",
					"internalType": "uint256[]"
				}
			],
			"outputs": [
				{
					"name": "weight",
					"type": "uint256",
					"internalType": "uint256"
				}
			],
			"stateMutability": "view"
		},
		{
			"type": "function",
			"name": "cleanTiers",
			"inputs": [
				{
					"name": "hook",
					"type": "address",
					"internalType": "address"
				}
			],
			"outputs": [],
			"stateMutability": "nonpayable"
		},
		{
			"type": "function",
			"name": "defaultReserveBeneficiaryOf",
			"inputs": [
				{
					"name": "hook",
					"type": "address",
					"internalType": "address"
				}
			],
			"outputs": [
				{
					"name": "",
					"type": "address",
					"internalType": "address"
				}
			],
			"stateMutability": "view"
		},
		{
			"type": "function",
			"name": "encodedIpfsUriOf",
			"inputs": [
				{
					"name": "hook",
					"type": "address",
					"internalType": "address"
				},
				{
					"name": "tierId",
					"type": "uint256",
					"internalType": "uint256"
				}
			],
			"outputs": [
				{
					"name": "",
					"type": "bytes32",
					"internalType": "bytes32"
				}
			],
			"stateMutability": "view"
		},
		{
			"type": "function",
			"name": "encodedTierIPFSUriOf",
			"inputs": [
				{
					"name": "hook",
					"type": "address",
					"internalType": "address"
				},
				{
					"name": "tokenId",
					"type": "uint256",
					"internalType": "uint256"
				}
			],
			"outputs": [
				{
					"name": "",
					"type": "bytes32",
					"internalType": "bytes32"
				}
			],
			"stateMutability": "view"
		},
		{
			"type": "function",
			"name": "flagsOf",
			"inputs": [
				{
					"name": "hook",
					"type": "address",
					"internalType": "address"
				}
			],
			"outputs": [
				{
					"name": "",
					"type": "tuple",
					"internalType": "struct JB721TiersHookFlags",
					"components": [
						{
							"name": "noNewTiersWithReserves",
							"type": "bool",
							"internalType": "bool"
						},
						{
							"name": "noNewTiersWithVotes",
							"type": "bool",
							"internalType": "bool"
						},
						{
							"name": "noNewTiersWithOwnerMinting",
							"type": "bool",
							"internalType": "bool"
						},
						{
							"name": "preventOverspending",
							"type": "bool",
							"internalType": "bool"
						},
						{
							"name": "issueTokensForSplits",
							"type": "bool",
							"internalType": "bool"
						}
					]
				}
			],
			"stateMutability": "view"
		},
		{
			"type": "function",
			"name": "isTierRemoved",
			"inputs": [
				{
					"name": "hook",
					"type": "address",
					"internalType": "address"
				},
				{
					"name": "tierId",
					"type": "uint256",
					"internalType": "uint256"
				}
			],
			"outputs": [
				{
					"name": "",
					"type": "bool",
					"internalType": "bool"
				}
			],
			"stateMutability": "view"
		},
		{
			"type": "function",
			"name": "maxTierIdOf",
			"inputs": [
				{
					"name": "hook",
					"type": "address",
					"internalType": "address"
				}
			],
			"outputs": [
				{
					"name": "",
					"type": "uint256",
					"internalType": "uint256"
				}
			],
			"stateMutability": "view"
		},
		{
			"type": "function",
			"name": "numberOfBurnedFor",
			"inputs": [
				{
					"name": "hook",
					"type": "address",
					"internalType": "address"
				},
				{
					"name": "tierId",
					"type": "uint256",
					"internalType": "uint256"
				}
			],
			"outputs": [
				{
					"name": "",
					"type": "uint256",
					"internalType": "uint256"
				}
			],
			"stateMutability": "view"
		},
		{
			"type": "function",
			"name": "numberOfPendingReservesFor",
			"inputs": [
				{
					"name": "hook",
					"type": "address",
					"internalType": "address"
				},
				{
					"name": "tierId",
					"type": "uint256",
					"internalType": "uint256"
				}
			],
			"outputs": [
				{
					"name": "",
					"type": "uint256",
					"internalType": "uint256"
				}
			],
			"stateMutability": "view"
		},
		{
			"type": "function",
			"name": "numberOfReservesMintedFor",
			"inputs": [
				{
					"name": "hook",
					"type": "address",
					"internalType": "address"
				},
				{
					"name": "tierId",
					"type": "uint256",
					"internalType": "uint256"
				}
			],
			"outputs": [
				{
					"name": "",
					"type": "uint256",
					"internalType": "uint256"
				}
			],
			"stateMutability": "view"
		},
		{
			"type": "function",
			"name": "recordAddTiers",
			"inputs": [
				{
					"name": "tiersToAdd",
					"type": "tuple[]",
					"internalType": "struct JB721TierConfig[]",
					"components": [
						{
							"name": "price",
							"type": "uint104",
							"internalType": "uint104"
						},
						{
							"name": "initialSupply",
							"type": "uint32",
							"internalType": "uint32"
						},
						{
							"name": "votingUnits",
							"type": "uint32",
							"internalType": "uint32"
						},
						{
							"name": "reserveFrequency",
							"type": "uint16",
							"internalType": "uint16"
						},
						{
							"name": "reserveBeneficiary",
							"type": "address",
							"internalType": "address"
						},
						{
							"name": "encodedIpfsUri",
							"type": "bytes32",
							"internalType": "bytes32"
						},
						{
							"name": "category",
							"type": "uint24",
							"internalType": "uint24"
						},
						{
							"name": "discountPercent",
							"type": "uint8",
							"internalType": "uint8"
						},
						{
							"name": "flags",
							"type": "tuple",
							"internalType": "struct JB721TierConfigFlags",
							"components": [
								{
									"name": "allowOwnerMint",
									"type": "bool",
									"internalType": "bool"
								},
								{
									"name": "useReserveBeneficiaryAsDefault",
									"type": "bool",
									"internalType": "bool"
								},
								{
									"name": "transfersPausable",
									"type": "bool",
									"internalType": "bool"
								},
								{
									"name": "useVotingUnits",
									"type": "bool",
									"internalType": "bool"
								},
								{
									"name": "cantBeRemoved",
									"type": "bool",
									"internalType": "bool"
								},
								{
									"name": "cantIncreaseDiscountPercent",
									"type": "bool",
									"internalType": "bool"
								},
								{
									"name": "cantBuyWithCredits",
									"type": "bool",
									"internalType": "bool"
								}
							]
						},
						{
							"name": "splitPercent",
							"type": "uint32",
							"internalType": "uint32"
						},
						{
							"name": "splits",
							"type": "tuple[]",
							"internalType": "struct JBSplit[]",
							"components": [
								{
									"name": "percent",
									"type": "uint32",
									"internalType": "uint32"
								},
								{
									"name": "projectId",
									"type": "uint64",
									"internalType": "uint64"
								},
								{
									"name": "beneficiary",
									"type": "address",
									"internalType": "address payable"
								},
								{
									"name": "preferAddToBalance",
									"type": "bool",
									"internalType": "bool"
								},
								{
									"name": "lockedUntil",
									"type": "uint48",
									"internalType": "uint48"
								},
								{
									"name": "hook",
									"type": "address",
									"internalType": "contract IJBSplitHook"
								}
							]
						}
					]
				}
			],
			"outputs": [
				{
					"name": "tierIds",
					"type": "uint256[]",
					"internalType": "uint256[]"
				}
			],
			"stateMutability": "nonpayable"
		},
		{
			"type": "function",
			"name": "recordBurn",
			"inputs": [
				{
					"name": "tokenIds",
					"type": "uint256[]",
					"internalType": "uint256[]"
				}
			],
			"outputs": [],
			"stateMutability": "nonpayable"
		},
		{
			"type": "function",
			"name": "recordFlags",
			"inputs": [
				{
					"name": "flags",
					"type": "tuple",
					"internalType": "struct JB721TiersHookFlags",
					"components": [
						{
							"name": "noNewTiersWithReserves",
							"type": "bool",
							"internalType": "bool"
						},
						{
							"name": "noNewTiersWithVotes",
							"type": "bool",
							"internalType": "bool"
						},
						{
							"name": "noNewTiersWithOwnerMinting",
							"type": "bool",
							"internalType": "bool"
						},
						{
							"name": "preventOverspending",
							"type": "bool",
							"internalType": "bool"
						},
						{
							"name": "issueTokensForSplits",
							"type": "bool",
							"internalType": "bool"
						}
					]
				}
			],
			"outputs": [],
			"stateMutability": "nonpayable"
		},
		{
			"type": "function",
			"name": "recordMint",
			"inputs": [
				{
					"name": "amount",
					"type": "uint256",
					"internalType": "uint256"
				},
				{
					"name": "tierIds",
					"type": "uint16[]",
					"internalType": "uint16[]"
				},
				{
					"name": "isOwnerMint",
					"type": "bool",
					"internalType": "bool"
				}
			],
			"outputs": [
				{
					"name": "tokenIds",
					"type": "uint256[]",
					"internalType": "uint256[]"
				},
				{
					"name": "leftoverAmount",
					"type": "uint256",
					"internalType": "uint256"
				},
				{
					"name": "restrictedCost",
					"type": "uint256",
					"internalType": "uint256"
				}
			],
			"stateMutability": "nonpayable"
		},
		{
			"type": "function",
			"name": "recordMintReservesFor",
			"inputs": [
				{
					"name": "tierId",
					"type": "uint256",
					"internalType": "uint256"
				},
				{
					"name": "count",
					"type": "uint256",
					"internalType": "uint256"
				}
			],
			"outputs": [
				{
					"name": "tokenIds",
					"type": "uint256[]",
					"internalType": "uint256[]"
				}
			],
			"stateMutability": "nonpayable"
		},
		{
			"type": "function",
			"name": "recordRemoveTierIds",
			"inputs": [
				{
					"name": "tierIds",
					"type": "uint256[]",
					"internalType": "uint256[]"
				}
			],
			"outputs": [],
			"stateMutability": "nonpayable"
		},
		{
			"type": "function",
			"name": "recordSetDiscountPercentOf",
			"inputs": [
				{
					"name": "tierId",
					"type": "uint256",
					"internalType": "uint256"
				},
				{
					"name": "discountPercent",
					"type": "uint256",
					"internalType": "uint256"
				}
			],
			"outputs": [],
			"stateMutability": "nonpayable"
		},
		{
			"type": "function",
			"name": "recordSetEncodedIpfsUriOf",
			"inputs": [
				{
					"name": "tierId",
					"type": "uint256",
					"internalType": "uint256"
				},
				{
					"name": "encodedIpfsUri",
					"type": "bytes32",
					"internalType": "bytes32"
				}
			],
			"outputs": [],
			"stateMutability": "nonpayable"
		},
		{
			"type": "function",
			"name": "recordSetTokenUriResolver",
			"inputs": [
				{
					"name": "resolver",
					"type": "address",
					"internalType": "contract IJB721TokenUriResolver"
				}
			],
			"outputs": [],
			"stateMutability": "nonpayable"
		},
		{
			"type": "function",
			"name": "recordTransferForTier",
			"inputs": [
				{
					"name": "tierId",
					"type": "uint256",
					"internalType": "uint256"
				},
				{
					"name": "from",
					"type": "address",
					"internalType": "address"
				},
				{
					"name": "to",
					"type": "address",
					"internalType": "address"
				}
			],
			"outputs": [],
			"stateMutability": "nonpayable"
		},
		{
			"type": "function",
			"name": "reserveBeneficiaryOf",
			"inputs": [
				{
					"name": "hook",
					"type": "address",
					"internalType": "address"
				},
				{
					"name": "tierId",
					"type": "uint256",
					"internalType": "uint256"
				}
			],
			"outputs": [
				{
					"name": "",
					"type": "address",
					"internalType": "address"
				}
			],
			"stateMutability": "view"
		},
		{
			"type": "function",
			"name": "tierBalanceOf",
			"inputs": [
				{
					"name": "hook",
					"type": "address",
					"internalType": "address"
				},
				{
					"name": "owner",
					"type": "address",
					"internalType": "address"
				},
				{
					"name": "tierId",
					"type": "uint256",
					"internalType": "uint256"
				}
			],
			"outputs": [
				{
					"name": "",
					"type": "uint256",
					"internalType": "uint256"
				}
			],
			"stateMutability": "view"
		},
		{
			"type": "function",
			"name": "tierIdOfToken",
			"inputs": [
				{
					"name": "tokenId",
					"type": "uint256",
					"internalType": "uint256"
				}
			],
			"outputs": [
				{
					"name": "",
					"type": "uint256",
					"internalType": "uint256"
				}
			],
			"stateMutability": "pure"
		},
		{
			"type": "function",
			"name": "tierOf",
			"inputs": [
				{
					"name": "hook",
					"type": "address",
					"internalType": "address"
				},
				{
					"name": "id",
					"type": "uint256",
					"internalType": "uint256"
				},
				{
					"name": "includeResolvedUri",
					"type": "bool",
					"internalType": "bool"
				}
			],
			"outputs": [
				{
					"name": "",
					"type": "tuple",
					"internalType": "struct JB721Tier",
					"components": [
						{
							"name": "id",
							"type": "uint32",
							"internalType": "uint32"
						},
						{
							"name": "price",
							"type": "uint104",
							"internalType": "uint104"
						},
						{
							"name": "remainingSupply",
							"type": "uint32",
							"internalType": "uint32"
						},
						{
							"name": "initialSupply",
							"type": "uint32",
							"internalType": "uint32"
						},
						{
							"name": "votingUnits",
							"type": "uint104",
							"internalType": "uint104"
						},
						{
							"name": "reserveFrequency",
							"type": "uint16",
							"internalType": "uint16"
						},
						{
							"name": "reserveBeneficiary",
							"type": "address",
							"internalType": "address"
						},
						{
							"name": "encodedIpfsUri",
							"type": "bytes32",
							"internalType": "bytes32"
						},
						{
							"name": "category",
							"type": "uint24",
							"internalType": "uint24"
						},
						{
							"name": "discountPercent",
							"type": "uint8",
							"internalType": "uint8"
						},
						{
							"name": "flags",
							"type": "tuple",
							"internalType": "struct JB721TierFlags",
							"components": [
								{
									"name": "allowOwnerMint",
									"type": "bool",
									"internalType": "bool"
								},
								{
									"name": "transfersPausable",
									"type": "bool",
									"internalType": "bool"
								},
								{
									"name": "cantBeRemoved",
									"type": "bool",
									"internalType": "bool"
								},
								{
									"name": "cantIncreaseDiscountPercent",
									"type": "bool",
									"internalType": "bool"
								},
								{
									"name": "cantBuyWithCredits",
									"type": "bool",
									"internalType": "bool"
								}
							]
						},
						{
							"name": "splitPercent",
							"type": "uint32",
							"internalType": "uint32"
						},
						{
							"name": "resolvedUri",
							"type": "string",
							"internalType": "string"
						}
					]
				}
			],
			"stateMutability": "view"
		},
		{
			"type": "function",
			"name": "tierOfTokenId",
			"inputs": [
				{
					"name": "hook",
					"type": "address",
					"internalType": "address"
				},
				{
					"name": "tokenId",
					"type": "uint256",
					"internalType": "uint256"
				},
				{
					"name": "includeResolvedUri",
					"type": "bool",
					"internalType": "bool"
				}
			],
			"outputs": [
				{
					"name": "",
					"type": "tuple",
					"internalType": "struct JB721Tier",
					"components": [
						{
							"name": "id",
							"type": "uint32",
							"internalType": "uint32"
						},
						{
							"name": "price",
							"type": "uint104",
							"internalType": "uint104"
						},
						{
							"name": "remainingSupply",
							"type": "uint32",
							"internalType": "uint32"
						},
						{
							"name": "initialSupply",
							"type": "uint32",
							"internalType": "uint32"
						},
						{
							"name": "votingUnits",
							"type": "uint104",
							"internalType": "uint104"
						},
						{
							"name": "reserveFrequency",
							"type": "uint16",
							"internalType": "uint16"
						},
						{
							"name": "reserveBeneficiary",
							"type": "address",
							"internalType": "address"
						},
						{
							"name": "encodedIpfsUri",
							"type": "bytes32",
							"internalType": "bytes32"
						},
						{
							"name": "category",
							"type": "uint24",
							"internalType": "uint24"
						},
						{
							"name": "discountPercent",
							"type": "uint8",
							"internalType": "uint8"
						},
						{
							"name": "flags",
							"type": "tuple",
							"internalType": "struct JB721TierFlags",
							"components": [
								{
									"name": "allowOwnerMint",
									"type": "bool",
									"internalType": "bool"
								},
								{
									"name": "transfersPausable",
									"type": "bool",
									"internalType": "bool"
								},
								{
									"name": "cantBeRemoved",
									"type": "bool",
									"internalType": "bool"
								},
								{
									"name": "cantIncreaseDiscountPercent",
									"type": "bool",
									"internalType": "bool"
								},
								{
									"name": "cantBuyWithCredits",
									"type": "bool",
									"internalType": "bool"
								}
							]
						},
						{
							"name": "splitPercent",
							"type": "uint32",
							"internalType": "uint32"
						},
						{
							"name": "resolvedUri",
							"type": "string",
							"internalType": "string"
						}
					]
				}
			],
			"stateMutability": "view"
		},
		{
			"type": "function",
			"name": "tierPricingOf",
			"inputs": [
				{
					"name": "hook",
					"type": "address",
					"internalType": "address"
				},
				{
					"name": "id",
					"type": "uint256",
					"internalType": "uint256"
				}
			],
			"outputs": [
				{
					"name": "price",
					"type": "uint104",
					"internalType": "uint104"
				},
				{
					"name": "splitPercent",
					"type": "uint32",
					"internalType": "uint32"
				},
				{
					"name": "discountPercent",
					"type": "uint8",
					"internalType": "uint8"
				}
			],
			"stateMutability": "view"
		},
		{
			"type": "function",
			"name": "tierTransferInfoOfTokenId",
			"inputs": [
				{
					"name": "hook",
					"type": "address",
					"internalType": "address"
				},
				{
					"name": "tokenId",
					"type": "uint256",
					"internalType": "uint256"
				}
			],
			"outputs": [
				{
					"name": "tierId",
					"type": "uint256",
					"internalType": "uint256"
				},
				{
					"name": "transfersPausable",
					"type": "bool",
					"internalType": "bool"
				}
			],
			"stateMutability": "view"
		},
		{
			"type": "function",
			"name": "tierVotingUnitsOf",
			"inputs": [
				{
					"name": "hook",
					"type": "address",
					"internalType": "address"
				},
				{
					"name": "account",
					"type": "address",
					"internalType": "address"
				},
				{
					"name": "tierId",
					"type": "uint256",
					"internalType": "uint256"
				}
			],
			"outputs": [
				{
					"name": "",
					"type": "uint256",
					"internalType": "uint256"
				}
			],
			"stateMutability": "view"
		},
		{
			"type": "function",
			"name": "tierVotingUnitsOfTokenId",
			"inputs": [
				{
					"name": "hook",
					"type": "address",
					"internalType": "address"
				},
				{
					"name": "tokenId",
					"type": "uint256",
					"internalType": "uint256"
				}
			],
			"outputs": [
				{
					"name": "",
					"type": "uint256",
					"internalType": "uint256"
				}
			],
			"stateMutability": "view"
		},
		{
			"type": "function",
			"name": "tiersOf",
			"inputs": [
				{
					"name": "hook",
					"type": "address",
					"internalType": "address"
				},
				{
					"name": "categories",
					"type": "uint256[]",
					"internalType": "uint256[]"
				},
				{
					"name": "includeResolvedUri",
					"type": "bool",
					"internalType": "bool"
				},
				{
					"name": "startingId",
					"type": "uint256",
					"internalType": "uint256"
				},
				{
					"name": "size",
					"type": "uint256",
					"internalType": "uint256"
				}
			],
			"outputs": [
				{
					"name": "tiers",
					"type": "tuple[]",
					"internalType": "struct JB721Tier[]",
					"components": [
						{
							"name": "id",
							"type": "uint32",
							"internalType": "uint32"
						},
						{
							"name": "price",
							"type": "uint104",
							"internalType": "uint104"
						},
						{
							"name": "remainingSupply",
							"type": "uint32",
							"internalType": "uint32"
						},
						{
							"name": "initialSupply",
							"type": "uint32",
							"internalType": "uint32"
						},
						{
							"name": "votingUnits",
							"type": "uint104",
							"internalType": "uint104"
						},
						{
							"name": "reserveFrequency",
							"type": "uint16",
							"internalType": "uint16"
						},
						{
							"name": "reserveBeneficiary",
							"type": "address",
							"internalType": "address"
						},
						{
							"name": "encodedIpfsUri",
							"type": "bytes32",
							"internalType": "bytes32"
						},
						{
							"name": "category",
							"type": "uint24",
							"internalType": "uint24"
						},
						{
							"name": "discountPercent",
							"type": "uint8",
							"internalType": "uint8"
						},
						{
							"name": "flags",
							"type": "tuple",
							"internalType": "struct JB721TierFlags",
							"components": [
								{
									"name": "allowOwnerMint",
									"type": "bool",
									"internalType": "bool"
								},
								{
									"name": "transfersPausable",
									"type": "bool",
									"internalType": "bool"
								},
								{
									"name": "cantBeRemoved",
									"type": "bool",
									"internalType": "bool"
								},
								{
									"name": "cantIncreaseDiscountPercent",
									"type": "bool",
									"internalType": "bool"
								},
								{
									"name": "cantBuyWithCredits",
									"type": "bool",
									"internalType": "bool"
								}
							]
						},
						{
							"name": "splitPercent",
							"type": "uint32",
							"internalType": "uint32"
						},
						{
							"name": "resolvedUri",
							"type": "string",
							"internalType": "string"
						}
					]
				}
			],
			"stateMutability": "view"
		},
		{
			"type": "function",
			"name": "tokenUriResolverOf",
			"inputs": [
				{
					"name": "hook",
					"type": "address",
					"internalType": "address"
				}
			],
			"outputs": [
				{
					"name": "",
					"type": "address",
					"internalType": "contract IJB721TokenUriResolver"
				}
			],
			"stateMutability": "view"
		},
		{
			"type": "function",
			"name": "totalCashOutWeightOf",
			"inputs": [
				{
					"name": "hook",
					"type": "address",
					"internalType": "address"
				}
			],
			"outputs": [
				{
					"name": "",
					"type": "uint256",
					"internalType": "uint256"
				}
			],
			"stateMutability": "view"
		},
		{
			"type": "function",
			"name": "totalSupplyOf",
			"inputs": [
				{
					"name": "hook",
					"type": "address",
					"internalType": "address"
				}
			],
			"outputs": [
				{
					"name": "supply",
					"type": "uint256",
					"internalType": "uint256"
				}
			],
			"stateMutability": "view"
		},
		{
			"type": "function",
			"name": "votingUnitsOf",
			"inputs": [
				{
					"name": "hook",
					"type": "address",
					"internalType": "address"
				},
				{
					"name": "account",
					"type": "address",
					"internalType": "address"
				}
			],
			"outputs": [
				{
					"name": "units",
					"type": "uint256",
					"internalType": "uint256"
				}
			],
			"stateMutability": "view"
		},
		{
			"type": "event",
			"name": "CleanTiers",
			"inputs": [
				{
					"name": "hook",
					"type": "address",
					"indexed": true,
					"internalType": "address"
				},
				{
					"name": "caller",
					"type": "address",
					"indexed": false,
					"internalType": "address"
				}
			],
			"anonymous": false
		},
		{
			"type": "event",
			"name": "SetDefaultReserveBeneficiary",
			"inputs": [
				{
					"name": "hook",
					"type": "address",
					"indexed": true,
					"internalType": "address"
				},
				{
					"name": "newBeneficiary",
					"type": "address",
					"indexed": true,
					"internalType": "address"
				},
				{
					"name": "caller",
					"type": "address",
					"indexed": false,
					"internalType": "address"
				}
			],
			"anonymous": false
		},
		{
			"type": "error",
			"name": "JB721TiersHookStore_CantMintManually",
			"inputs": [
				{
					"name": "tierId",
					"type": "uint256",
					"internalType": "uint256"
				}
			]
		},
		{
			"type": "error",
			"name": "JB721TiersHookStore_CantRemoveTier",
			"inputs": [
				{
					"name": "tierId",
					"type": "uint256",
					"internalType": "uint256"
				}
			]
		},
		{
			"type": "error",
			"name": "JB721TiersHookStore_DeadlockedReserve",
			"inputs": [
				{
					"name": "tierId",
					"type": "uint256",
					"internalType": "uint256"
				},
				{
					"name": "initialSupply",
					"type": "uint256",
					"internalType": "uint256"
				},
				{
					"name": "reserveFrequency",
					"type": "uint256",
					"internalType": "uint256"
				}
			]
		},
		{
			"type": "error",
			"name": "JB721TiersHookStore_DiscountPercentExceedsBounds",
			"inputs": [
				{
					"name": "percent",
					"type": "uint256",
					"internalType": "uint256"
				},
				{
					"name": "limit",
					"type": "uint256",
					"internalType": "uint256"
				}
			]
		},
		{
			"type": "error",
			"name": "JB721TiersHookStore_DiscountPercentIncreaseNotAllowed",
			"inputs": [
				{
					"name": "percent",
					"type": "uint256",
					"internalType": "uint256"
				},
				{
					"name": "storedPercent",
					"type": "uint256",
					"internalType": "uint256"
				}
			]
		},
		{
			"type": "error",
			"name": "JB721TiersHookStore_InsufficientPendingReserves",
			"inputs": [
				{
					"name": "count",
					"type": "uint256",
					"internalType": "uint256"
				},
				{
					"name": "numberOfPendingReserves",
					"type": "uint256",
					"internalType": "uint256"
				}
			]
		},
		{
			"type": "error",
			"name": "JB721TiersHookStore_InsufficientSupplyRemaining",
			"inputs": [
				{
					"name": "tierId",
					"type": "uint256",
					"internalType": "uint256"
				}
			]
		},
		{
			"type": "error",
			"name": "JB721TiersHookStore_InvalidCategorySortOrder",
			"inputs": [
				{
					"name": "tierCategory",
					"type": "uint256",
					"internalType": "uint256"
				},
				{
					"name": "previousTierCategory",
					"type": "uint256",
					"internalType": "uint256"
				}
			]
		},
		{
			"type": "error",
			"name": "JB721TiersHookStore_InvalidQuantity",
			"inputs": [
				{
					"name": "quantity",
					"type": "uint256",
					"internalType": "uint256"
				},
				{
					"name": "limit",
					"type": "uint256",
					"internalType": "uint256"
				}
			]
		},
		{
			"type": "error",
			"name": "JB721TiersHookStore_ManualMintingNotAllowed",
			"inputs": [
				{
					"name": "tierId",
					"type": "uint256",
					"internalType": "uint256"
				}
			]
		},
		{
			"type": "error",
			"name": "JB721TiersHookStore_MaxTiersExceeded",
			"inputs": [
				{
					"name": "numberOfTiers",
					"type": "uint256",
					"internalType": "uint256"
				},
				{
					"name": "limit",
					"type": "uint256",
					"internalType": "uint256"
				}
			]
		},
		{
			"type": "error",
			"name": "JB721TiersHookStore_MissingReserveBeneficiary",
			"inputs": [
				{
					"name": "tierId",
					"type": "uint256",
					"internalType": "uint256"
				}
			]
		},
		{
			"type": "error",
			"name": "JB721TiersHookStore_PriceExceedsAmount",
			"inputs": [
				{
					"name": "price",
					"type": "uint256",
					"internalType": "uint256"
				},
				{
					"name": "leftoverAmount",
					"type": "uint256",
					"internalType": "uint256"
				}
			]
		},
		{
			"type": "error",
			"name": "JB721TiersHookStore_ReserveFrequencyNotAllowed",
			"inputs": [
				{
					"name": "tierId",
					"type": "uint256",
					"internalType": "uint256"
				}
			]
		},
		{
			"type": "error",
			"name": "JB721TiersHookStore_SplitPercentExceedsBounds",
			"inputs": [
				{
					"name": "percent",
					"type": "uint256",
					"internalType": "uint256"
				},
				{
					"name": "limit",
					"type": "uint256",
					"internalType": "uint256"
				}
			]
		},
		{
			"type": "error",
			"name": "JB721TiersHookStore_TierRemoved",
			"inputs": [
				{
					"name": "tierId",
					"type": "uint256",
					"internalType": "uint256"
				}
			]
		},
		{
			"type": "error",
			"name": "JB721TiersHookStore_UnrecognizedTier",
			"inputs": [
				{
					"name": "tierId",
					"type": "uint256",
					"internalType": "uint256"
				}
			]
		},
		{
			"type": "error",
			"name": "JB721TiersHookStore_VotingUnitsNotAllowed",
			"inputs": [
				{
					"name": "tierId",
					"type": "uint256",
					"internalType": "uint256"
				}
			]
		},
		{
			"type": "error",
			"name": "JB721TiersHookStore_ZeroInitialSupply",
			"inputs": [
				{
					"name": "tierId",
					"type": "uint256",
					"internalType": "uint256"
				}
			]
		},
		{
			"type": "error",
			"name": "PRBMath_MulDiv_Overflow",
			"inputs": [
				{
					"name": "x",
					"type": "uint256",
					"internalType": "uint256"
				},
				{
					"name": "y",
					"type": "uint256",
					"internalType": "uint256"
				},
				{
					"name": "denominator",
					"type": "uint256",
					"internalType": "uint256"
				}
			]
		}
	],
	"args": [],
	"solcInputHash": "81c612518be79d199b03904db74cb163",
	"bytecode": "0x6080604052348015600e575f5ffd5b50613f658061001c5f395ff3fe608060405234801561000f575f5ffd5b5060043610610213575f3560e01c806370d15f531161011f578063c293c0d6116100a9578063cf9530d011610079578063cf9530d014610717578063d84a72c01461072a578063eaa19ab314610766578063f1bea54f14610788578063f7888aec146107a7575f5ffd5b8063c293c0d6146106bf578063c2c55f94146106de578063c44a8e6d146106f1578063c8df171014610704575f5ffd5b80638f2b90a7116100ef5780638f2b90a71461065357806393355578146106665780639403a74f146106795780639be748fb14610699578063baa7e80e146106ac575f5ffd5b806370d15f53146105495780637b70a29214610575578063845104de1461058857806386bc2be314610640575f5ffd5b806337f44652116101a05780635f646611116101705780635f646611146104a157806360ff66ec146104c457806364faa159146104d75780636825bb80146104f7578063698f916414610521575f5ffd5b806337f446521461042157806342f9914b14610451578063509a2902146104645780635e24896314610477575f5ffd5b80631923fe69116101e65780631923fe69146102ac57806320512ba1146103a3578063297261d8146103b65780632b7e6ef0146103d65780632e4d0ea81461040e575f5ffd5b80630357300414610217578063086bb19a146102475780630fab09471461025c5780631140449214610284575b5f5ffd5b61022a610225366004613303565b6107ce565b6040516001600160a01b0390911681526020015b60405180910390f35b61025a61025536600461332d565b610825565b005b61022a61026a36600461332d565b60076020525f90815260409020546001600160a01b031681565b61022a61029236600461332d565b60016020525f90815260409020546001600160a01b031681565b6103766102ba366004613303565b6001600160a01b039091165f908152600e602090815260408083209383529281529082902082516101008101845290546001600160681b03811680835263ffffffff600160681b8304811694840194909452600160881b8204841694830194909452600160a81b81049092166060820181905262ffffff600160c81b840416608083015260ff600160e01b8404811660a0840181905261ffff600160e81b86041660c0850152600160f81b9094041660e0909201919091529192565b604080516001600160681b03909416845263ffffffff909216602084015260ff169082015260600161023e565b61025a6103b136600461338f565b610b5a565b6103c96103c436600461338f565b610c46565b60405161023e9190613407565b6104006103e4366004613303565b600460209081525f928352604080842090915290825290205481565b60405190815260200161023e565b61040061041c366004613419565b61171f565b61040061042f366004613419565b600660209081525f938452604080852082529284528284209052825290205481565b61040061045f366004613457565b611875565b61025a61047236600461346e565b611884565b610400610485366004613303565b600260209081525f928352604080842090915290825290205481565b6104b46104af366004613303565b61199d565b604051901515815260200161023e565b61025a6104d236600461348e565b6119d4565b6104ea6104e53660046134bf565b6119ee565b60405161023e9190613683565b610400610505366004613303565b600560209081525f928352604080842090915290825290205481565b61053461052f366004613303565b611ab3565b6040805192835290151560208301520161023e565b61025a61055736600461346e565b335f9081526002602090815260408083209483529390529190912055565b610400610583366004613303565b611b7f565b61063361059636600461332d565b6040805160a0810182525f80825260208201819052918101829052606081018290526080810191909152506001600160a01b03165f90815260096020908152604091829020825160a081018452905460ff8082161515835261010082048116151593830193909352620100008104831615159382019390935263010000008304821615156060820152640100000000909204161515608082015290565b60405161023e9190613695565b61025a61064e36600461338f565b611c88565b610400610661366004613303565b611d26565b6104006106743660046136d8565b611ddf565b61068c61068736600461370f565b611f6c565b60405161023e9190613783565b6104006106a73660046137e6565b61221e565b6103c96106ba36600461346e565b612297565b6104006106cd36600461332d565b60086020525f908152604090205481565b61025a6106ec366004613836565b612492565b6104ea6106ff3660046134bf565b612572565b610400610712366004613303565b61264d565b61040061072536600461332d565b612684565b61025a61073836600461332d565b335f90815260076020526040902080546001600160a01b0319166001600160a01b0392909216919091179055565b61077961077436600461386a565b6127bc565b60405161023e939291906138c4565b61040061079636600461332d565b60036020525f908152604090205481565b6104006107b53660046136d8565b5f60208181529281526040808220909352908152205481565b6001600160a01b038083165f908152600c60209081526040808320858452909152812054909116801561080257905061081f565b50506001600160a01b038083165f90815260016020526040902054165b92915050565b5f61082f82612bf3565b90505f61083c835f612c32565b90505f61085a60405180604001604052805f81526020015f81525090565b8215610a4e5761086b858483612c97565b6109b25761087a8260016138fc565b83146108d4576001600160a01b0385165f908152600f6020908152604080832085845290915290205483146108cf576001600160a01b0385165f908152600f6020908152604080832085845290915290208390555b610920565b6001600160a01b0385165f908152600f6020908152604080832085845290915290205415610920576001600160a01b0385165f908152600f602090815260408083208584529091528120555b6001600160a01b0385165f908152600e60209081526040808320868452909152902054600160c81b900462ffffff16801580159061097e57506001600160a01b0386165f908152600d60209081526040808320848452909152902054155b156109a9576001600160a01b0386165f908152600d6020908152604080832084845290915290208490555b83925050610a3c565b6001600160a01b0385165f908152600e60209081526040808320868452909152902054600160c81b900462ffffff168015801590610a1157506001600160a01b0386165f908152600d6020908152604080832084845290915290205484145b15610a3a576001600160a01b0386165f908152600d602090815260408083208484529091528120555b505b610a47858486612cec565b925061085a565b8115801590610a5d5750838214155b15610b15576001600160a01b0385165f908152600f6020908152604080832085845290915290205415610aae576001600160a01b0385165f908152600f602090815260408083208584529091528120555b6001600160a01b0385165f9081526003602052604081205490838214610ad45783610ad6565b5f5b6001600160a01b0388165f908152600a60205260409020549091508114610b12576001600160a01b0387165f908152600a602052604090208190555b50505b6040513381526001600160a01b038616907f4a0f854ce3c180d56f3e9eb47eb064c595bf3de0ab9af45425291e5b1bb733a89060200160405180910390a25050505050565b5f5b81811015610c41575f838383818110610b7757610b7761390f565b905060200201359050805f1480610b9b5750335f9081526003602052604090205481115b15610bc15760405163537f0f7760e11b8152600481018290526024015b60405180910390fd5b335f908152600e6020908152604080832084845290915281208054909190610bf290600160f81b900460ff16612d36565b505093505050508015610c1b57604051637d69411960e01b815260048101849052602401610bb8565b335f908152600b60205260409020610c339084612d63565b836001019350505050610b5c565b505050565b335f9081526003602052604090205460609061ffff610c6584836138fc565b1115610c9a57610c7583826138fc565b604051631e9bcc6760e11b8152600481019190915261ffff6024820152604401610bb8565b5f610ca433612bf3565b9050836001600160401b03811115610cbe57610cbe613923565b604051908082528060200260200182016040528015610ce7578160200160208202803683370190505b5092505f8215610d0057610cfb335f612c32565b610d02565b5f5b335f908152600960209081526040808320815160a081018352905460ff80821615158352610100820481161515948301949094526201000081048416151592820192909252630100000082048316151560608201526401000000009091049091161515608082015291925090815b878110156116f9575f898983818110610d8b57610d8b61390f565b9050602002810190610d9d9190613937565b610da690613c04565b9050610db76001633b9aca00613cf1565b816020015163ffffffff161115610e03576020810151610ddc6001633b9aca00613cf1565b60405163bad92c4160e01b815263ffffffff90921660048301526024820152604401610bb8565b8115610e90575f8a8a610e17600186613cf1565b818110610e2657610e2661390f565b9050602002810190610e389190613937565b610e499060e081019060c001613d04565b62ffffff169050808260c0015162ffffff161015610e8e5760c0820151604051635ccf1bb560e11b815262ffffff909116600482015260248101829052604401610bb8565b505b5f610e9b83896138fc565b610ea69060016138fc565b905083602001518015610ef95750816101000151606001518015610ed35750604082015163ffffffff1615155b80610ef9575081610100015160600151158015610ef9575081516001600160681b031615155b15610f1a576040516305addf0360e31b815260048101829052602401610bb8565b83518015610f2f5750606082015161ffff1615155b15610f50576040516374dea19f60e11b815260048101829052602401610bb8565b83604001518015610f645750610100820151515b15610f8557604051630cf7876760e21b815260048101829052602401610bb8565b60c861ffff168260e0015160ff161115610fc45760e0820151604051634c70edff60e11b815260ff909116600482015260c86024820152604401610bb8565b633b9aca0063ffffffff1682610120015163ffffffff161115611013576101208201516040516305b8b4e960e51b815263ffffffff9091166004820152633b9aca006024820152604401610bb8565b816020015163ffffffff165f036110405760405163265cef1f60e21b815260048101829052602401610bb8565b816020015163ffffffff16600114801561106157505f826060015161ffff16115b156110a25760208201516060830151604051634a92da1960e11b81526004810184905263ffffffff909216602483015261ffff166044820152606401610bb8565b5f826060015161ffff161180156110c4575060808201516001600160a01b0316155b80156110e55750335f908152600160205260409020546001600160a01b0316155b1561110657604051631001d26d60e31b815260048101829052602401610bb8565b604051806101000160405280835f01516001600160681b03168152602001836020015163ffffffff168152602001836020015163ffffffff16815260200183610120015163ffffffff1681526020018360c0015162ffffff1681526020018360e0015160ff168152602001836060015161ffff1681526020016111e58461010001515f015185610100015160400151866101000151606001518761010001516080015188610100015160a0015189610100015160c0015160051b60049190911b60039290921b60029390931b60019490941b9094179290921717171790565b60ff908116909152335f908152600e60209081526040808320868452825291829020845181549286015193860151606080880151608089015160a08a015160c08b015160e0909b01516001600160681b0390961670ffffffffffffffffffffffffffffffffff1990981697909717600160681b63ffffffff998a16021767ffffffffffffffff60881b1916600160881b9489169490940263ffffffff60a81b191693909317600160a81b97909116969096029590951763ffffffff60c81b1916600160c81b62ffffff9092169190910260ff60e01b191617600160e01b93861693909302929092176001600160e81b0316600160e81b61ffff909616959095026001600160f81b031694909417600160f81b919093160291909117909155610100830151015180156113205750604082015163ffffffff1615155b1561135b57604082810151335f90815260106020908152838220858352905291909120805463ffffffff191663ffffffff9092169190911790555b60c082015162ffffff1683156113af578b8b611378600187613cf1565b8181106113875761138761390f565b90506020028101906113999190613937565b6113aa9060e081019060c001613d04565b6113b1565b5f5b62ffffff16141580156113cc575060c082015162ffffff1615155b156113f757335f908152600d6020908152604080832060c086015162ffffff16845290915290208190555b60808201516001600160a01b03161580159061141a5750606082015161ffff1615155b156114ff5781610100015160200151156114c3576080820151335f908152600160205260409020546001600160a01b039081169116146114be57608082018051335f8181526001602090815260409182902080546001600160a01b0319166001600160a01b039586161790559351905182815292169290917f3712caaa5c2503be9ff731e3a7f92913300720dc7f44240bd50b8bf3f44dd6e0910160405180910390a35b6114ff565b6080820151335f908152600c60209081526040808320858452909152902080546001600160a01b0319166001600160a01b039092169190911790555b60a0820151156115295760a0820151335f9081526002602090815260408083208584529091529020555b85156116d157855f5b81156116ce5761154333838b612cec565b335f908152600e6020908152604080832086845290915290205460c086015191925062ffffff600160c81b90910481169116118015906115835750898211155b15611655576115938360016138fc565b82146115b657335f908152600f6020908152604080832086845290915290208290555b335f908152600a602052604090205489146115dd57335f908152600a602052604090208990555b6115e8600184613cf1565b8714158061160e5750335f908152600f602090815260408083208a845290915290205415155b156116475761161e600184613cf1565b871461162a578261162c565b5f5b335f908152600f602090815260408083208b84529091529020555b8197508296505f9150611532565b80158061166157508981115b156116c5576116718260016138fc565b831461169457335f908152600f6020908152604080832085845290915290208390555b335f908152600a60205260408120549398508893909250156116c057335f908152600a60205260408120555b611532565b90955080611532565b50505b808984815181106116e4576116e461390f565b60209081029190910101525050600101610d70565b5061170487866138fc565b335f9081526003602052604090205550939695505050505050565b6001600160a01b038084165f908152600660209081526040808320938616835292815282822084835290529081205480820361175e575f91505061186e565b6001600160a01b0385165f908152600e60209081526040808320868452825280832081516101008101835290546001600160681b038116825263ffffffff600160681b8204811694830194909452600160881b8104841692820192909252600160a81b8204909216606083015262ffffff600160c81b820416608083015260ff600160e01b8204811660a084015261ffff600160e81b83041660c0840152600160f81b9091041660e0820181905290919061181890612d36565b505050925050508061182b578151611855565b6001600160a01b0387165f90815260106020908152604080832088845290915290205463ffffffff165b611868906001600160681b031684613d1d565b93505050505b9392505050565b5f61081f633b9aca0083613d48565b335f908152600b6020526040812061189c9084612d9a565b90506118a88184612ddd565b156118c957604051638145a02760e01b815260048101849052602401610bb8565b60c88211156118f557604051634c70edff60e11b81526004810183905260c86024820152604401610bb8565b335f908152600e602090815260408083208684529091528120805490919061192690600160f81b900460ff16612d36565b508654909550600160e01b900460ff1688119350508215915061194890505750805b1561197b578154604051635c52491d60e01b815260048101869052600160e01b90910460ff166024820152604401610bb8565b50805460ff909316600160e01b0260ff60e01b19909316929092179091555050565b6001600160a01b0382165f908152600b6020526040812081906119c09084612d9a565b90506119cc8184612ddd565b949350505050565b335f9081526009602052604090208190610c418282613d67565b6119f6613255565b6001600160a01b0384165f908152600e6020908152604080832086845282529182902082516101008101845290546001600160681b038116825263ffffffff600160681b8204811693830193909352600160881b8104831693820193909352600160a81b8304909116606082015262ffffff600160c81b830416608082015260ff600160e01b8304811660a083015261ffff600160e81b84041660c0830152600160f81b90920490911660e08201526119cc908590859085612dfb565b5f5f611abe83611875565b6001600160a01b039094165f908152600e6020908152604080832087845282529182902082516101008101845290546001600160681b038116825263ffffffff600160681b8204811693830193909352600160881b8104831693820193909352600160a81b8304909116606082015262ffffff600160c81b830416608082015260ff600160e01b8304811660a083015261ffff600160e81b84041660c0830152600160f81b90920491821660e0909101529394600290941615159392505050565b5f5f611b8a83611875565b6001600160a01b0385165f908152600e60209081526040808320848452825280832081516101008101835290546001600160681b038116825263ffffffff600160681b8204811694830194909452600160881b8104841692820192909252600160a81b8204909216606083015262ffffff600160c81b820416608083015260ff600160e01b8204811660a084015261ffff600160e81b83041660c0840152600160f81b90910490811660e0830152929350916004169003611c4c578051611c76565b6001600160a01b0385165f90815260106020908152604080832085845290915290205463ffffffff165b6001600160681b031695945050505050565b5f5b81811015610c41575f838383818110611ca557611ca561390f565b9050602002013590505f611cb882611875565b335f9081526004602090815260408083208484529091528120805492935090611ce083613e33565b9091555050335f818152600e6020908152604080832094835293815283822054928252600890529190912080546001600160681b03909216909103905550600101611c8a565b6001600160a01b0382165f908152600e60209081526040808320848452825280832081516101008101835290546001600160681b038116825263ffffffff600160681b8204811694830194909452600160881b8104841692820192909252600160a81b8204909216606083015262ffffff600160c81b820416608083015260ff600160e01b8204811660a084015261ffff600160e81b83041660c0840152600160f81b9091041660e082015261186e9084908490613057565b6001600160a01b0382165f90815260036020526040812054805b8015611f64576001600160a01b038086165f908152600660209081526040808320938816835292815282822084835290529081205490819003611e3f57505f1901611df9565b6001600160a01b0386165f908152600e60209081526040808320858452825280832081516101008101835290546001600160681b038116825263ffffffff600160681b8204811694830194909452600160881b8104841692820192909252600160a81b8204909216606083015262ffffff600160c81b820416608083015260ff600160e01b8204811660a084015261ffff600160e81b83041660c0840152600160f81b9091041660e08201819052909190611ef990612d36565b5050509250505080611f0c578151611f36565b6001600160a01b0388165f90815260106020908152604080832087845290915290205463ffffffff165b611f49906001600160681b031684613d1d565b611f5390876138fc565b955083600190039350505050611df9565b505092915050565b60605f611f7888612bf3565b9050805f03611f875750612214565b826001600160401b03811115611f9f57611f9f613923565b604051908082528060200260200182016040528015611fd857816020015b611fc5613255565b815260200190600190039081611fbd5790505b5060408051610100810182525f80825260208201819052918101829052606081018290526080810182905260a0810182905260c0810182905260e0810182905291935090604080518082019091525f80825260208201525f5b838714612203575f885f036120735761206e8d8c15612068578d8d8581811061205c5761205c61390f565b90506020020135612c32565b5f612c32565b612075565b885b90505b801580159061208657508785105b156121f7576120968d8285612c97565b6121e5576001600160a01b038d165f908152600e6020908152604080832084845282529182902082516101008101845290546001600160681b038116825263ffffffff600160681b8204811693830193909352600160881b8104831693820193909352600160a81b8304909116606082015262ffffff600160c81b830416608082015260ff600160e01b8304811660a083015261ffff600160e81b84041660c0830152600160f81b90920490911660e082015293508a1580159061217a57508b8b838181106121675761216761390f565b90506020020135846080015162ffffff16115b6121f7578a15806121ab57508b8b838181106121985761219861390f565b90506020020135846080015162ffffff16145b156121e5576121bc8d82868d612dfb565b87866121c781613e33565b9750815181106121d9576121d961390f565b60200260200101819052505b6121f08d8288612cec565b9050612078565b50600101898110612031575b86841461220e578386525b50505050505b9695505050505050565b5f5f5b8281101561228f576001600160a01b0385165f908152600e60205260408120906122628686858181106122565761225661390f565b90506020020135611875565b815260208101919091526040015f2054612285906001600160681b0316836138fc565b9150600101612221565b509392505050565b335f818152600e60209081526040808320868452825280832081516101008101835281546001600160681b038116825263ffffffff600160681b8204811695830195909552600160881b8104851693820193909352600160a81b830490931660608481019190915262ffffff600160c81b840416608085015260ff600160e01b8404811660a086015261ffff600160e81b85041660c0860152600160f81b90930490921660e0840152909390929161235191908790613057565b90508084111561237e5760405163bc4cd97b60e01b81526004810185905260248101829052604401610bb8565b335f908152600560209081526040808320888452909152812080548692906123a79084906138fc565b909155508490506001600160401b038111156123c5576123c5613923565b6040519080825280602002602001820160405280156123ee578160200160208202803683370190505b5092505f5b848110156124895782546124649087908590600d9061241e90600160681b900463ffffffff16613e4b565b91906101000a81548163ffffffff021916908363ffffffff1602179055855f0160119054906101000a900463ffffffff166124599190613e69565b63ffffffff16613153565b8482815181106124765761247661390f565b60209081029190910101526001016123f3565b50505092915050565b6001600160a01b0382161561251057335f9081526006602090815260408083206001600160a01b03861684528252808320868452909152812080549091906124d990613e85565b90915550335f908152602081815260408083206001600160a01b03861684529091528120805490919061250b90613e85565b909155505b6001600160a01b03811615610c4157335f8181526006602090815260408083206001600160a01b038616808552908352818420888552835281842080546001908101909155948452838352818420908452909152902080549091019055505050565b61257a613255565b5f61258484611875565b6001600160a01b0386165f908152600e6020908152604080832084845282529182902082516101008101845290546001600160681b038116825263ffffffff600160681b8204811693830193909352600160881b8104831693820193909352600160a81b8304909116606082015262ffffff600160c81b830416608082015260ff600160e01b8304811660a083015261ffff600160e81b84041660c0830152600160f81b90920490911660e0820152909150612644908690839086612dfb565b95945050505050565b6001600160a01b0382165f9081526002602052604081208161266e84611875565b81526020019081526020015f2054905092915050565b6001600160a01b0381165f90815260036020526040812054805b80156127b5576001600160a01b0384165f908152600e6020908152604080832084845282529182902082516101008101845290546001600160681b038116825263ffffffff600160681b82048116938301849052600160881b82048116948301859052600160a81b820416606083015262ffffff600160c81b820416608083015260ff600160e01b8204811660a084015261ffff600160e81b83041660c0840152600160f81b9091041660e082015291146127ac576001600160a01b0385165f9081526004602090815260408083208584528252909120549082015161278a919063ffffffff166138fc565b816040015163ffffffff1661279f9190613cf1565b6127a990856138fc565b93505b505f190161269e565b5050919050565b6060845f8085806001600160401b038111156127da576127da613923565b604051908082528060200260200182016040528015612803578160200160208202803683370190505b50945061282160405180604001604052805f81526020015f81525090565b5f5b82811015612be5575f8a8a8381811061283e5761283e61390f565b90506020020160208101906128539190613e9a565b61ffff169050612864338285612c97565b1561288557604051638145a02760e01b815260048101829052602401610bb8565b335f908152600e602090815260408083208484529091528120805490965081906128b890600160f81b900460ff16612d36565b95505050505091508a80156128cb575081155b156128ec576040516339f1cd3d60e01b815260048101849052602401610bb8565b8654600160881b900463ffffffff165f0361291d5760405163537f0f7760e11b815260048101849052602401610bb8565b86546001600160681b03811690600160e01b900460ff161561295f578754612952908290600160e01b900460ff1660c861316d565b61295c9082613cf1565b90505b81156129725761296f818a6138fc565b98505b8981111561299d5760405163774485a360e11b815260048101829052602481018b9052604401610bb8565b8754600160681b900463ffffffff165f036129ce57604051632428238960e21b815260048101859052602401610bb8565b604080516101008101825289546001600160681b038116825263ffffffff600160681b820481166020840152600160881b8204811693830193909352600160a81b8104909216606082015262ffffff600160c81b830416608082015260ff600160e01b8304811660a083015261ffff600160e81b84041660c0830152600160f81b90920490911660e08201525f90612a699033908790613057565b895463ffffffff60681b198116600160681b9182900463ffffffff9081165f198101821690930291909117808d55929350612ab4928892600160881b90910482160360010116613153565b8c8781518110612ac657612ac661390f565b60209081029190910181019190915260408051610100810182528b546001600160681b038116825263ffffffff600160681b8204811694830194909452600160881b8104841692820192909252600160a81b8204909216606083015262ffffff600160c81b820416608083015260ff600160e01b8204811660a084015261ffff600160e81b83041660c0840152600160f81b9091041660e08201529a8290039a5f90612b759033908890613057565b8a54909150600160681b900463ffffffff16811115612baa57604051632428238960e21b815260048101879052602401610bb8565b8954335f90815260086020526040902080546001600160681b0390921660019490930384019290920201905594909401935061282392505050565b505050509450945094915050565b6001600160a01b0381165f908152600a602052604081205490819003612c2d57506001600160a01b0381165f908152600360205260409020545b919050565b5f8115612c61576001600160a01b0383165f908152600d60209081526040808320858452909152902054612c85565b6001600160a01b0383165f908152600f602090815260408083208380529091529020545b9050805f0361081f5750600192915050565b5f612ca2828461323c565b80612cb957508151158015612cb957506020820151155b15612ce2576001600160a01b0384165f908152600b60205260409020612cdf9084612d9a565b91505b6119cc8284612ddd565b5f818303612cfb57505f61186e565b6001600160a01b0384165f908152600f602090815260408083208684529091529020548015612d2b57905061186e565b6126448460016138fc565b60018116151591600282161515916004811615159160088216151591601081161515916020909116151590565b5f612d6e8260081c90565b9050612d7c61010083613eb3565b5f918252602093909352604090208054600190931b90921790915550565b604080518082019091525f80825260208201525f612db88360081c90565b6040805180820182525f83815260209788529190912054815294850152509192915050565b5f612dea61010083613eb3565b83516001911c811614905092915050565b612e03613255565b5f612e0e86866107ce565b90505f8460e001519050604051806101a001604052808763ffffffff168152602001865f01516001600160681b03168152602001866020015163ffffffff168152602001866040015163ffffffff1681526020018260041660ff165f03612e76578651612ea0565b6001600160a01b0389165f9081526010602090815260408083208b845290915290205463ffffffff165b6001600160681b031681526020016001600160a01b03841615612ec7578660c00151612ec9565b5f5b61ffff1681526001600160a01b03808516602080840191909152908a165f908152600280835260408083208c845284529182902054828501526080808b015162ffffff1660608087019190915260a0808d015160ff16838801528451808201865260018a161515815293891615158487015260088916151594840194909452601088161515838201529387161515908201529083015287015163ffffffff1660c082015260e001851580612f9457506001600160a01b038981165f9081526007602052604090205416155b61303a576001600160a01b03808a165f9081526007602052604081205490911690635e703e71908b90612fc8908c90613153565b6040516001600160e01b031960e085901b1681526001600160a01b03909216600483015260248201526044015f60405180830381865afa15801561300e573d5f5f3e3d5ffd5b505050506040513d5f823e601f3d908101601f191682016040526130359190810190613ec6565b61304a565b60405180602001604052805f8152505b9052979650505050505050565b604081015160c08201515f9163ffffffff169061ffff1615806130835750826020015163ffffffff1681145b8061309f57505f61309486866107ce565b6001600160a01b0316145b156130ad575f91505061186e565b6001600160a01b0385165f908152600560209081526040808320878452825290912054908401516130e590829063ffffffff166138fc565b82036130f5575f9250505061186e565b5f81856020015163ffffffff1684030390505f8560c0015161ffff168261311c9190613d48565b90505f8660c0015161ffff16836131339190613eb3565b11156131455761314281613e33565b90505b919091039695505050505050565b5f81613163633b9aca0085613d1d565b61186e91906138fc565b5f80805f19858709858702925082811083820303915050805f036131a45783828161319a5761319a613d34565b049250505061186e565b8381106131d557604051630c740aef60e31b8152600481018790526024810186905260448101859052606401610bb8565b5f8486880960026001871981018816978890046003810283188082028403028082028403028082028403028082028403028082028403029081029092039091025f889003889004909101858311909403939093029303949094049190911702949350505050565b5f826020015161324c8360081c90565b14159392505050565b604080516101a0810182525f80825260208083018290528284018290526060808401839052608080850184905260a080860185905260c0860185905260e0860185905261010086018590526101208601859052865190810187528481529283018490529482018390528101829052928301529061014082019081525f6020820152606060409091015290565b6001600160a01b03811681146132f5575f5ffd5b50565b8035612c2d816132e1565b5f5f60408385031215613314575f5ffd5b823561331f816132e1565b946020939093013593505050565b5f6020828403121561333d575f5ffd5b813561186e816132e1565b5f5f83601f840112613358575f5ffd5b5081356001600160401b0381111561336e575f5ffd5b6020830191508360208260051b8501011115613388575f5ffd5b9250929050565b5f5f602083850312156133a0575f5ffd5b82356001600160401b038111156133b5575f5ffd5b6133c185828601613348565b90969095509350505050565b5f8151808452602084019350602083015f5b828110156133fd5781518652602095860195909101906001016133df565b5093949350505050565b602081525f61186e60208301846133cd565b5f5f5f6060848603121561342b575f5ffd5b8335613436816132e1565b92506020840135613446816132e1565b929592945050506040919091013590565b5f60208284031215613467575f5ffd5b5035919050565b5f5f6040838503121561347f575f5ffd5b50508035926020909101359150565b5f60a082840312801561349f575f5ffd5b509092915050565b80151581146132f5575f5ffd5b8035612c2d816134a7565b5f5f5f606084860312156134d1575f5ffd5b83356134dc816132e1565b92506020840135915060408401356134f3816134a7565b809150509250925092565b5f81518084528060208401602086015e5f602082860101526020601f19601f83011685010191505092915050565b805163ffffffff1682525f602082015161355160208501826001600160681b03169052565b506040820151613569604085018263ffffffff169052565b506060820151613581606085018263ffffffff169052565b50608082015161359c60808501826001600160681b03169052565b5060a08201516135b260a085018261ffff169052565b5060c08201516135cd60c08501826001600160a01b03169052565b5060e082015160e08401526101008201516135f061010085018262ffffff169052565b5061012082015161360761012085018260ff169052565b506101408201516136516101408501828051151582526020810151151560208301526040810151151560408301526060810151151560608301526080810151151560808301525050565b5061016082015163ffffffff81166101e0850152506101808201516102206102008501526119cc6102208501826134fe565b602081525f61186e602083018461352c565b60a0810161081f82848051151582526020810151151560208301526040810151151560408301526060810151151560608301526080810151151560808301525050565b5f5f604083850312156136e9575f5ffd5b82356136f4816132e1565b91506020830135613704816132e1565b809150509250929050565b5f5f5f5f5f5f60a08789031215613724575f5ffd5b863561372f816132e1565b955060208701356001600160401b03811115613749575f5ffd5b61375589828a01613348565b9096509450506040870135613769816134a7565b959894975092956060810135946080909101359350915050565b5f602082016020835280845180835260408501915060408160051b8601019250602086015f5b828110156137da57603f198786030184526137c585835161352c565b945060209384019391909101906001016137a9565b50929695505050505050565b5f5f5f604084860312156137f8575f5ffd5b8335613803816132e1565b925060208401356001600160401b0381111561381d575f5ffd5b61382986828701613348565b9497909650939450505050565b5f5f5f60608486031215613848575f5ffd5b83359250602084013561385a816132e1565b915060408401356134f3816132e1565b5f5f5f5f6060858703121561387d575f5ffd5b8435935060208501356001600160401b03811115613899575f5ffd5b6138a587828801613348565b90945092505060408501356138b9816134a7565b939692955090935050565b606081525f6138d660608301866133cd565b60208301949094525060400152919050565b634e487b7160e01b5f52601160045260245ffd5b8082018082111561081f5761081f6138e8565b634e487b7160e01b5f52603260045260245ffd5b634e487b7160e01b5f52604160045260245ffd5b5f823561021e1983360301811261394c575f5ffd5b9190910192915050565b60405160e081016001600160401b038111828210171561397857613978613923565b60405290565b60405160c081016001600160401b038111828210171561397857613978613923565b60405161016081016001600160401b038111828210171561397857613978613923565b604051601f8201601f191681016001600160401b03811182821017156139eb576139eb613923565b604052919050565b80356001600160681b0381168114612c2d575f5ffd5b803563ffffffff81168114612c2d575f5ffd5b803561ffff81168114612c2d575f5ffd5b803562ffffff81168114612c2d575f5ffd5b803560ff81168114612c2d575f5ffd5b5f60e08284031215613a5f575f5ffd5b613a67613956565b90508135613a74816134a7565b81526020820135613a84816134a7565b60208201526040820135613a97816134a7565b60408201526060820135613aaa816134a7565b6060820152613abb608083016134b4565b6080820152613acc60a083016134b4565b60a0820152613add60c083016134b4565b60c082015292915050565b803565ffffffffffff81168114612c2d575f5ffd5b5f82601f830112613b0c575f5ffd5b81356001600160401b03811115613b2557613b25613923565b613b3460208260051b016139c3565b80828252602082019150602060c08402860101925085831115613b55575f5ffd5b602085015b83811015613bfa5760c08188031215613b71575f5ffd5b613b7961397e565b613b8282613a09565b815260208201356001600160401b0381168114613b9d575f5ffd5b60208201526040820135613bb0816132e1565b60408201526060820135613bc3816134a7565b6060820152613bd460808301613ae8565b6080820152613be560a083016132f8565b60a0820152835260209092019160c001613b5a565b5095945050505050565b5f6102208236031215613c15575f5ffd5b613c1d6139a0565b613c26836139f3565b8152613c3460208401613a09565b6020820152613c4560408401613a09565b6040820152613c5660608401613a1c565b6060820152613c67608084016132f8565b608082015260a08381013590820152613c8260c08401613a2d565b60c0820152613c9360e08401613a3f565b60e0820152613ca6366101008501613a4f565b610100820152613cb96101e08401613a09565b6101208201526102008301356001600160401b03811115613cd8575f5ffd5b613ce436828601613afd565b6101408301525092915050565b8181038181111561081f5761081f6138e8565b5f60208284031215613d14575f5ffd5b61186e82613a2d565b808202811582820484141761081f5761081f6138e8565b634e487b7160e01b5f52601260045260245ffd5b5f82613d5657613d56613d34565b500490565b5f813561081f816134a7565b8135613d72816134a7565b815460ff19811691151560ff1691821783556020840135613d92816134a7565b61ff0090151560081b1661ffff1982168317811784556040850135613db6816134a7565b62ff000081151560101b168462ffffff19851617831717855550505050613e00613de260608401613d5b565b82805463ff000000191691151560181b63ff00000016919091179055565b613e2f613e0f60808401613d5b565b82805464ff00000000191691151560201b64ff0000000016919091179055565b5050565b5f60018201613e4457613e446138e8565b5060010190565b5f63ffffffff821680613e6057613e606138e8565b5f190192915050565b63ffffffff828116828216039081111561081f5761081f6138e8565b5f81613e9357613e936138e8565b505f190190565b5f60208284031215613eaa575f5ffd5b61186e82613a1c565b5f82613ec157613ec1613d34565b500690565b5f60208284031215613ed6575f5ffd5b81516001600160401b03811115613eeb575f5ffd5b8201601f81018413613efb575f5ffd5b80516001600160401b03811115613f1457613f14613923565b613f27601f8201601f19166020016139c3565b818152856020838501011115613f3b575f5ffd5b8160208401602083015e5f9181016020019190915294935050505056fea164736f6c634300081c000a",
	"gitCommit": "npm:@bananapus/721-hook-v6@0.0.74",
	"gitDirty": false,
	"history": []
}