{
	"format": "sphinx-sol-ct-artifact-1",
	"address": "0xecdcb8a3df6b55afda4e107fc761ebd7c781bf18",
	"sourceName": "node_modules/@bananapus/721-hook-v6/src/JB721CheckpointsDeployer.sol",
	"contractName": "JB721CheckpointsDeployer",
	"chainId": "0xaa37dc",
	"abi": [
		{
			"type": "constructor",
			"inputs": [
				{
					"name": "store",
					"type": "address",
					"internalType": "contract IJB721TiersHookStore"
				}
			],
			"stateMutability": "nonpayable"
		},
		{
			"type": "function",
			"name": "IMPLEMENTATION",
			"inputs": [],
			"outputs": [
				{
					"name": "",
					"type": "address",
					"internalType": "address"
				}
			],
			"stateMutability": "view"
		},
		{
			"type": "function",
			"name": "STORE",
			"inputs": [],
			"outputs": [
				{
					"name": "",
					"type": "address",
					"internalType": "contract IJB721TiersHookStore"
				}
			],
			"stateMutability": "view"
		},
		{
			"type": "function",
			"name": "deploy",
			"inputs": [
				{
					"name": "hook",
					"type": "address",
					"internalType": "address"
				}
			],
			"outputs": [
				{
					"name": "module",
					"type": "address",
					"internalType": "contract IJB721Checkpoints"
				}
			],
			"stateMutability": "nonpayable"
		},
		{
			"type": "error",
			"name": "JB721CheckpointsDeployer_Unauthorized",
			"inputs": [
				{
					"name": "caller",
					"type": "address",
					"internalType": "address"
				},
				{
					"name": "hook",
					"type": "address",
					"internalType": "address"
				}
			]
		}
	],
	"args": [
		"0x7033C610d09e0599FdCaD305bA8630ae2F98D573"
	],
	"solcInputHash": "fb9860d89cc10104413f26014c8b998c",
	"bytecode": "0x60c060405234801561000f575f5ffd5b50604051612ac8380380612ac883398101604081905261002e91610092565b6001600160a01b03811660a052604051819061004990610085565b6001600160a01b039091168152602001604051809103905ff080158015610072573d5f5f3e3d5ffd5b506001600160a01b0316608052506100bf565b6127b98061030f83390190565b5f602082840312156100a2575f5ffd5b81516001600160a01b03811681146100b8575f5ffd5b9392505050565b60805160a05161022a6100e55f395f609e01525f818160480152610104015261022a5ff3fe608060405234801561000f575f5ffd5b506004361061003f575f3560e01c80633a4741bd146100435780634c96a38914610086578063507f146514610099575b5f5ffd5b61006a7f000000000000000000000000000000000000000000000000000000000000000081565b6040516001600160a01b03909116815260200160405180910390f35b61006a6100943660046101f7565b6100c0565b61006a7f000000000000000000000000000000000000000000000000000000000000000081565b5f336001600160a01b038316146100ff576040516312588bb560e11b81523360048201526001600160a01b038316602482015260440160405180910390fd5b6101327f00000000000000000000000000000000000000000000000000000000000000006001600160a01b038416610191565b60405163189acdbd60e31b81526001600160a01b0384811660048301529192509082169063c4d66de8906024015f604051808303815f87803b158015610176575f5ffd5b505af1158015610188573d5f5f3e3d5ffd5b50505050919050565b5f61019d5f84846101a4565b9392505050565b5f6c5af43d3d93803e602a57fd5bf36021528260145273602c3d8160093d39f33d3d3d3d363d3d37363d735f52816035600c86f59050806101ec5763301164255f526004601cfd5b5f6021529392505050565b5f60208284031215610207575f5ffd5b81356001600160a01b038116811461019d575f5ffdfea164736f6c634300081c000a610180604052348015610010575f5ffd5b506040516127b93803806127b983398101604081905261002f916101ba565b604080518082018252601081526f4a42373231436865636b706f696e747360801b602080830191909152825180840190935260018352603160f81b9083015290610079825f610142565b61012052610088816001610142565b61014052815160208084019190912060e052815190820120610100524660a05261011460e05161010051604080517f8b73c3c69bb8fe3d512ecc4cf759cc79239f7b179b0ffacaa9a75d522b39400f60208201529081019290925260608201524660808201523060a08201525f9060c00160405160208183030381529060405280519060200120905090565b60805250503060c0526001600160a01b031661016052600680546001600160a01b0319166001179055610391565b5f60208351101561015d5761015683610174565b905061016e565b81610168848261027f565b5060ff90505b92915050565b5f5f829050601f815111156101a7578260405163305a27a960e01b815260040161019e9190610339565b60405180910390fd5b80516101b28261036e565b179392505050565b5f602082840312156101ca575f5ffd5b81516001600160a01b03811681146101e0575f5ffd5b9392505050565b634e487b7160e01b5f52604160045260245ffd5b600181811c9082168061020f57607f821691505b60208210810361022d57634e487b7160e01b5f52602260045260245ffd5b50919050565b601f82111561027a57805f5260205f20601f840160051c810160208510156102585750805b601f840160051c820191505b81811015610277575f8155600101610264565b50505b505050565b81516001600160401b03811115610298576102986101e7565b6102ac816102a684546101fb565b84610233565b6020601f8211600181146102de575f83156102c75750848201515b5f19600385901b1c1916600184901b178455610277565b5f84815260208120601f198516915b8281101561030d57878501518255602094850194600190920191016102ed565b508482101561032a57868401515f19600387901b60f8161c191681555b50505050600190811b01905550565b602081525f82518060208401528060208501604085015e5f604082850101526040601f19601f83011684010191505092915050565b8051602080830151919081101561022d575f1960209190910360031b1b16919050565b60805160a05160c05160e0516101005161012051610140516101605161239c61041d5f395f81816101c10152818161044c015281816104eb015281816108bc015281816109560152818161169201528181611798015261183d01525f6110cd01525f6110a101525f611a5001525f611a2801525f61198301525f6119ad01525f6119d7015261239c5ff3fe608060405234801561000f575f5ffd5b506004361061013d575f3560e01c80637f5a7c7b116100b4578063a875a4b111610079578063a875a4b1146102dd578063b5b88cd2146102f0578063c013524914610303578063c2d4d20c14610316578063c3cda5201461031e578063c4d66de814610331575f5ffd5b80637f5a7c7b1461026a57806384b0196e1461027d5780638e539e8c1461029857806391ddadf4146102ab5780639ab24eb0146102ca575f5ffd5b8063587cde1e11610105578063587cde1e146101e35780635a1075e7146101f65780635c19a95c14610209578063613aac1b1461021c57806377fd0de31461022f5780637ecebe0014610242575f5ffd5b80633056210b146101415780633a46b1a8146101715780634a393149146101925780634bf5d7e9146101a7578063507f1465146101bc575b5f5ffd5b61015461014f366004611fb8565b610344565b6040516001600160a01b0390911681526020015b60405180910390f35b61018461017f366004611fef565b6103b5565b604051908152602001610168565b6101a56101a0366004612019565b6103ef565b005b6101af6106b2565b6040516101689190612085565b6101547f000000000000000000000000000000000000000000000000000000000000000081565b6101546101f1366004612097565b61072a565b6101846102043660046120b2565b610747565b6101a5610217366004612097565b610795565b6101a561022a3660046120e4565b6107a4565b61018461023d366004611fb8565b6109d7565b610184610250366004612097565b6001600160a01b03165f9081526002602052604090205490565b600654610154906001600160a01b031681565b610285610a0f565b6040516101689796959493929190612167565b6101846102a63660046121fd565b610a51565b6102b3610a75565b60405165ffffffffffff9091168152602001610168565b6101846102d8366004612097565b610a83565b6101846102eb366004611fb8565b610aa3565b6101846102fe3660046121fd565b610acb565b6101846103113660046121fd565b610af0565b610184610b05565b6101a561032c366004612214565b610b1e565b6101a561033f366004612097565b610bda565b5f82815260086020526040812082908261035c825490565b9050805f03610370575f93505050506103af565b6001600160601b038316610384835f610c35565b516001600160601b0316111561039f575f93505050506103af565b6103a98284610ca3565b93505050505b92915050565b5f6103df6103c283610d54565b6001600160a01b0385165f90815260046020526040902090610da9565b6001600160d01b03169392505050565b6006546001600160a01b03163314610434576006546040516353dc27d960e01b81523360048201526001600160a01b0390911660248201526044015b60405180910390fd5b6040516342f9914b60e01b8152600481018290525f907f00000000000000000000000000000000000000000000000000000000000000006001600160a01b0316906342f9914b90602401602060405180830381865afa158015610499573d5f5f3e3d5ffd5b505050506040513d601f19601f820116820180604052508101906104bd9190612271565b600654604051633db8514960e11b81526001600160a01b039182166004820152602481018590529192505f917f000000000000000000000000000000000000000000000000000000000000000090911690637b70a29290604401602060405180830381865afa158015610532573d5f5f3e3d5ffd5b505050506040513d601f19601f820116820180604052508101906105569190612271565b5f84815260086020526040812091925061056e825490565b151590506001600160a01b03861615158061059157506001600160a01b03871615155b156105a4576105a1824388610e3f565b50505b6001600160a01b0387161580156105c357506001600160a01b03861615155b156105d9576105d484846001610e59565b610609565b6001600160a01b0386166105f85780156105d4576105d484845f610e59565b806106095761060984846001610e59565b5f6001600160a01b0388161580159061063357505f6106278961072a565b6001600160a01b031614155b90505f6001600160a01b0388161580159061065f57505f6106538961072a565b6001600160a01b031614155b905061066c898987610ec4565b811561067e5761067e8987875f610f4a565b8015610691576106918887876001610f4a565b801515821515146106a7576106a7868683610fce565b505050505050505050565b60606106bc610ff7565b65ffffffffffff166106cc610a75565b65ffffffffffff16146106f2576040516301bfc1c560e61b815260040160405180910390fd5b5060408051808201909152601d81527f6d6f64653d626c6f636b6e756d6265722666726f6d3d64656661756c74000000602082015290565b6001600160a01b039081165f908152600360205260409020541690565b5f61078461075483610d54565b6001600160a01b0386165f90815260076020908152604080832088845290915290209065ffffffffffff16610ca3565b6001600160a01b0316949350505050565b336107a08183611001565b5050565b6107ae3384611001565b5f5b818110156109d1575f8383838181106107cb576107cb612288565b6006546040516331a9108f60e11b8152602092909202939093013560048201819052935033926001600160a01b03169150636352211e90602401602060405180830381865afa158015610820573d5f5f3e3d5ffd5b505050506040513d601f19601f82011682018060405250810190610844919061229c565b6001600160a01b031614610874576040516352017fa760e11b81526004810182905233602482015260440161042b565b5f818152600860205260409020545f036109c8575f8181526008602052604090206108a0904333610e3f565b50506040516342f9914b60e01b8152600481018290526109c8907f00000000000000000000000000000000000000000000000000000000000000006001600160a01b0316906342f9914b90602401602060405180830381865afa158015610909573d5f5f3e3d5ffd5b505050506040513d601f19601f8201168201806040525081019061092d9190612271565b600654604051633db8514960e11b81526001600160a01b039182166004820152602481018590527f000000000000000000000000000000000000000000000000000000000000000090911690637b70a29290604401602060405180830381865afa15801561099d573d5f5f3e3d5ffd5b505050506040513d601f19601f820116820180604052508101906109c19190612271565b6001610e59565b506001016107b0565b50505050565b5f6109ff6109e483610d54565b5f8581526009602052604090209065ffffffffffff16610ca3565b6001600160a01b03169392505050565b5f6060805f5f5f6060610a2061109a565b610a286110c6565b604080515f80825260208201909252600f60f81b9b939a50919850469750309650945092509050565b5f610a66610a5e83610d54565b600590610da9565b6001600160d01b031692915050565b5f610a7e610ff7565b905090565b6001600160a01b0381165f908152600460205260408120610a66906110f3565b5f6109ff610ab083610d54565b5f858152600a602052604090209065ffffffffffff16610ca3565b5f818152600960205260408120610ae19061112a565b6001600160a01b031692915050565b5f610a66610afd83610d54565b600b90610da9565b5f610b10600b6110f3565b6001600160d01b0316905090565b83421115610b4257604051632341d78760e11b81526004810185905260240161042b565b604080517fe48329057bfd03d55e49b547132e39cffd9c1820ad7b9d4c5307691425d15adf60208201526001600160a01b0388169181019190915260608101869052608081018590525f90610bbb90610bb39060a00160405160208183030381529060405280519060200120611159565b858585611185565b9050610bc781876111b1565b610bd18188611001565b50505050505050565b6006546001600160a01b031615610c13576006546040516301d2d00760e61b81526001600160a01b03909116600482015260240161042b565b600680546001600160a01b0319166001600160a01b0392909216919091179055565b604080518082019091525f8082526020820152825f018263ffffffff1681548110610c6257610c62612288565b5f918252602091829020604080518082019091529101546001600160601b0381168252600160601b90046001600160a01b0316918101919091529392505050565b81545f9081816005811115610d00575f610cbc84611208565b610cc690856122cb565b5f888152602090209091508101546001600160601b039081169087161015610cf057809150610cfe565b610cfb8160016122de565b92505b505b5f610d0d87878585611360565b90508015610d4757610d3187610d246001846122cb565b5f91825260209091200190565b54600160601b90046001600160a01b0316610d49565b5f5b979650505050505050565b5f5f610d5e610a75565b90508065ffffffffffff168310610d9957604051637669fc0f60e11b81526004810184905265ffffffffffff8216602482015260440161042b565b610da2836113b7565b9392505050565b81545f9081816005811115610e05575f610dc284611208565b610dcc90856122cb565b5f8881526020902090915081015465ffffffffffff9081169087161015610df557809150610e03565b610e008160016122de565b92505b505b5f610e12878785856113ed565b90508015610d4757610e2987610d246001846122cb565b54600160301b90046001600160d01b0316610d49565b5f80610e4c85858561143b565b915091505b935093915050565b815f03610e6557505050565b5f838152600a602052604081209082610e9a5783610e828361112a565b6001600160a01b0316610e9591906122cb565b610eb7565b83610ea48361112a565b6001600160a01b0316610eb791906122de565b9050610bd1824383610e3f565b5f6001600160a01b03841615801590610eee57505f610ee28561072a565b6001600160a01b031614155b90505f6001600160a01b03841615801590610f1a57505f610f0e8561072a565b6001600160a01b031614155b9050610f27858585611591565b80151582151503610f39575050505050565b610f4383826115f5565b5050505050565b81156109d1576001600160a01b0384165f90815260076020908152604080832086845290915281209082610f9a5783610f828361112a565b6001600160a01b0316610f9591906122cb565b610fb7565b83610fa48361112a565b6001600160a01b0316610fb791906122de565b9050610fc4824383610e3f565b5050505050505050565b815f03610fda57505050565b5f8381526009602052604081209082610e9a5783610e828361112a565b5f610a7e436113b7565b5f61100b8361072a565b90505f61101784611666565b905061102384846116fb565b6001600160a01b03821615801561104257506001600160a01b03831615155b15611062576110528160016115f5565b61105d846001611774565b6109d1565b6001600160a01b0382161580159061108157506001600160a01b038316155b156109d157611090815f6115f5565b6109d1845f611774565b6060610a7e7f00000000000000000000000000000000000000000000000000000000000000005f6118ce565b6060610a7e7f000000000000000000000000000000000000000000000000000000000000000060016118ce565b80545f9080156111225761110c83610d246001846122cb565b54600160301b90046001600160d01b0316610da2565b5f9392505050565b80545f9080156111225761114383610d246001846122cb565b54600160601b90046001600160a01b0316610da2565b5f6103af611165611977565b8360405161190160f01b8152600281019290925260228201526042902090565b5f5f5f5f61119588888888611aa0565b9250925092506111a58282611b68565b50909695505050505050565b6001600160a01b0382165f908152600260205260409020805460018101909155818114611203576040516301d4b62360e61b81526001600160a01b03841660048201526024810182905260440161042b565b505050565b5f60018211611215575090565b816001600160801b821061122e5760809190911c9060401b5b6801000000000000000082106112495760409190911c9060201b5b64010000000082106112605760209190911c9060101b5b6201000082106112755760109190911c9060081b5b61010082106112895760089190911c9060041b5b6010821061129c5760049190911c9060021b5b600482106112a85760011b5b600302600190811c908185816112c0576112c06122f1565b048201901c905060018185816112d8576112d86122f1565b048201901c905060018185816112f0576112f06122f1565b048201901c90506001818581611308576113086122f1565b048201901c90506001818581611320576113206122f1565b048201901c90506001818581611338576113386122f1565b048201901c9050611357818581611351576113516122f1565b04821190565b90039392505050565b5f5b818310156113af575f8581526020902083831660028585180401908101546001600160601b038681169116111561139b578092506113a9565b6113a68160016122de565b93505b50611362565b509392505050565b5f65ffffffffffff8211156113e9576040516306dfcc6560e41b8152603060048201526024810183905260440161042b565b5090565b5f5b818310156113af575f85815260209020838316600285851804019081015465ffffffffffff8681169116111561142757809250611435565b6114328160016122de565b93505b506113ef565b82545f9081908015611536575f61145787610d246001856122cb565b80549091506001600160601b0380821691600160601b90046001600160a01b031690881682111561149b57604051632520601d60e01b815260040160405180910390fd5b876001600160601b0316826001600160601b0316036114d75782546001600160601b0316600160601b6001600160a01b03891602178355611528565b604080518082019091526001600160601b03808a1682526001600160a01b03808a1660208085019182528d54600181018f555f8f81529190912094519151909216600160601b029216919091179101555b9450859350610e5192505050565b5050604080518082019091526001600160601b0380851682526001600160a01b0380851660208085019182528854600181018a555f8a815291822095519251909316600160601b029190931617920191909155905081610e51565b6001600160a01b0383166115b8576115b56005611c206115b084611c2b565b611c5e565b50505b6001600160a01b0382166115da576115d76005611c896115b084611c2b565b50505b6112036115e68461072a565b6115ef8461072a565b83611c94565b815f03611600575050565b5f816116295782611611600b6110f3565b6001600160d01b031661162491906122cb565b611647565b82611634600b6110f3565b6001600160d01b031661164791906122de565b9050610f43611654610a75565b61165d83611c2b565b600b9190611df8565b600654604051631266aaaf60e31b81526001600160a01b03918216600482015282821660248201525f917f00000000000000000000000000000000000000000000000000000000000000001690639335557890604401602060405180830381865afa1580156116d7573d5f5f3e3d5ffd5b505050506040513d601f19601f820116820180604052508101906103af9190612271565b5f6117058361072a565b6001600160a01b038481165f8181526003602052604080822080546001600160a01b031916888616908117909155905194955093928516927f3134e8a2e6d97e929a7e54011ea5485d7d196dd5f0ba4d4ef95803e8e3fc257f9190a4611203818361176f86611666565b611c94565b60065460405163f1bea54f60e01b81526001600160a01b0391821660048201525f917f0000000000000000000000000000000000000000000000000000000000000000169063f1bea54f90602401602060405180830381865afa1580156117dd573d5f5f3e3d5ffd5b505050506040513d601f19601f820116820180604052508101906118019190612271565b90505b8015611203576006546040516305c9a1d560e31b81526001600160a01b0391821660048201528482166024820152604481018390525f917f00000000000000000000000000000000000000000000000000000000000000001690632e4d0ea890606401602060405180830381865afa158015611882573d5f5f3e3d5ffd5b505050506040513d601f19601f820116820180604052508101906118a69190612271565b905080156118c5576118b9828285610fce565b6118c584838386610f4a565b505f1901611804565b606060ff83146118e8576118e183611e05565b90506103af565b8180546118f490612305565b80601f016020809104026020016040519081016040528092919081815260200182805461192090612305565b801561196b5780601f106119425761010080835404028352916020019161196b565b820191905f5260205f20905b81548152906001019060200180831161194e57829003601f168201915b505050505090506103af565b5f306001600160a01b037f0000000000000000000000000000000000000000000000000000000000000000161480156119cf57507f000000000000000000000000000000000000000000000000000000000000000046145b156119f957507f000000000000000000000000000000000000000000000000000000000000000090565b610a7e604080517f8b73c3c69bb8fe3d512ecc4cf759cc79239f7b179b0ffacaa9a75d522b39400f60208201527f0000000000000000000000000000000000000000000000000000000000000000918101919091527f000000000000000000000000000000000000000000000000000000000000000060608201524660808201523060a08201525f9060c00160405160208183030381529060405280519060200120905090565b5f80807f7fffffffffffffffffffffffffffffff5d576e7357a4501ddfe92f46681b20a0841115611ad957505f91506003905082611b5e565b604080515f808252602082018084528a905260ff891692820192909252606081018790526080810186905260019060a0016020604051602081039080840390855afa158015611b2a573d5f5f3e3d5ffd5b5050604051601f1901519150506001600160a01b038116611b5557505f925060019150829050611b5e565b92505f91508190505b9450945094915050565b5f826003811115611b7b57611b7b61233d565b03611b84575050565b6001826003811115611b9857611b9861233d565b03611bb65760405163f645eedf60e01b815260040160405180910390fd5b6002826003811115611bca57611bca61233d565b03611beb5760405163fce698f760e01b81526004810182905260240161042b565b6003826003811115611bff57611bff61233d565b036107a0576040516335e2f38360e21b81526004810182905260240161042b565b5f610da28284612351565b5f6001600160d01b038211156113e9576040516306dfcc6560e41b815260d060048201526024810183905260440161042b565b5f5f610e4c611c6b610a75565b611c81611c77886110f3565b868863ffffffff16565b879190611df8565b5f610da28284612370565b816001600160a01b0316836001600160a01b031614158015611cb557505f81115b15611203576001600160a01b03831615611d57576001600160a01b0383165f9081526004602052604081208190611cf290611c896115b086611c2b565b6001600160d01b031691506001600160d01b03169150846001600160a01b03167fdec2bacdd2f05b59de34da9b523dff8be42e5e38e818c82fdb0bae774387a7248383604051611d4c929190918252602082015260400190565b60405180910390a250505b6001600160a01b03821615611203576001600160a01b0382165f9081526004602052604081208190611d8f90611c206115b086611c2b565b6001600160d01b031691506001600160d01b03169150836001600160a01b03167fdec2bacdd2f05b59de34da9b523dff8be42e5e38e818c82fdb0bae774387a7248383604051611de9929190918252602082015260400190565b60405180910390a25050505050565b5f80610e4c858585611e42565b60605f611e1183611f91565b6040805160208082528183019092529192505f91906020820181803683375050509182525060208101929092525090565b82545f9081908015611f37575f611e5e87610d246001856122cb565b805490915065ffffffffffff80821691600160301b90046001600160d01b0316908816821115611ea157604051632520601d60e01b815260040160405180910390fd5b8765ffffffffffff168265ffffffffffff1603611eda57825465ffffffffffff16600160301b6001600160d01b03891602178355611528565b6040805180820190915265ffffffffffff808a1682526001600160d01b03808a1660208085019182528d54600181018f555f8f81529190912094519151909216600160301b029216919091179101559450859350610e5192505050565b50506040805180820190915265ffffffffffff80851682526001600160d01b0380851660208085019182528854600181018a555f8a815291822095519251909316600160301b029190931617920191909155905081610e51565b5f60ff8216601f8111156103af57604051632cd44ac360e21b815260040160405180910390fd5b5f5f60408385031215611fc9575f5ffd5b50508035926020909101359150565b6001600160a01b0381168114611fec575f5ffd5b50565b5f5f60408385031215612000575f5ffd5b823561200b81611fd8565b946020939093013593505050565b5f5f5f6060848603121561202b575f5ffd5b833561203681611fd8565b9250602084013561204681611fd8565b929592945050506040919091013590565b5f81518084528060208401602086015e5f602082860101526020601f19601f83011685010191505092915050565b602081525f610da26020830184612057565b5f602082840312156120a7575f5ffd5b8135610da281611fd8565b5f5f5f606084860312156120c4575f5ffd5b83356120cf81611fd8565b95602085013595506040909401359392505050565b5f5f5f604084860312156120f6575f5ffd5b833561210181611fd8565b9250602084013567ffffffffffffffff81111561211c575f5ffd5b8401601f8101861361212c575f5ffd5b803567ffffffffffffffff811115612142575f5ffd5b8660208260051b8401011115612156575f5ffd5b939660209190910195509293505050565b60ff60f81b8816815260e060208201525f61218560e0830189612057565b82810360408401526121978189612057565b606084018890526001600160a01b038716608085015260a0840186905283810360c0850152845180825260208087019350909101905f5b818110156121ec5783518352602093840193909201916001016121ce565b50909b9a5050505050505050505050565b5f6020828403121561220d575f5ffd5b5035919050565b5f5f5f5f5f5f60c08789031215612229575f5ffd5b863561223481611fd8565b95506020870135945060408701359350606087013560ff81168114612257575f5ffd5b9598949750929560808101359460a0909101359350915050565b5f60208284031215612281575f5ffd5b5051919050565b634e487b7160e01b5f52603260045260245ffd5b5f602082840312156122ac575f5ffd5b8151610da281611fd8565b634e487b7160e01b5f52601160045260245ffd5b818103818111156103af576103af6122b7565b808201808211156103af576103af6122b7565b634e487b7160e01b5f52601260045260245ffd5b600181811c9082168061231957607f821691505b60208210810361233757634e487b7160e01b5f52602260045260245ffd5b50919050565b634e487b7160e01b5f52602160045260245ffd5b6001600160d01b0381811683821601908111156103af576103af6122b7565b6001600160d01b0382811682821603908111156103af576103af6122b756fea164736f6c634300081c000a",
	"gitCommit": "npm:@bananapus/721-hook-v6@0.0.74",
	"gitDirty": false,
	"history": []
}