{
	"format": "sphinx-sol-ct-artifact-1",
	"address": "0xad798305a64cf7ac39cb60cada0898e6d7dbec19",
	"sourceName": "node_modules/@bananapus/721-hook-v6/src/JB721TiersHookDeployer.sol",
	"contractName": "JB721TiersHookDeployer",
	"chainId": "0xaa37dc",
	"abi": [
		{
			"type": "constructor",
			"inputs": [
				{
					"name": "hook",
					"type": "address",
					"internalType": "contract JB721TiersHook"
				},
				{
					"name": "store",
					"type": "address",
					"internalType": "contract IJB721TiersHookStore"
				},
				{
					"name": "addressRegistry",
					"type": "address",
					"internalType": "contract IJBAddressRegistry"
				},
				{
					"name": "trustedForwarder",
					"type": "address",
					"internalType": "address"
				}
			],
			"stateMutability": "nonpayable"
		},
		{
			"type": "function",
			"name": "ADDRESS_REGISTRY",
			"inputs": [],
			"outputs": [
				{
					"name": "",
					"type": "address",
					"internalType": "contract IJBAddressRegistry"
				}
			],
			"stateMutability": "view"
		},
		{
			"type": "function",
			"name": "HOOK",
			"inputs": [],
			"outputs": [
				{
					"name": "",
					"type": "address",
					"internalType": "contract JB721TiersHook"
				}
			],
			"stateMutability": "view"
		},
		{
			"type": "function",
			"name": "STORE",
			"inputs": [],
			"outputs": [
				{
					"name": "",
					"type": "address",
					"internalType": "contract IJB721TiersHookStore"
				}
			],
			"stateMutability": "view"
		},
		{
			"type": "function",
			"name": "deployHookFor",
			"inputs": [
				{
					"name": "projectId",
					"type": "uint256",
					"internalType": "uint256"
				},
				{
					"name": "deployTiersHookConfig",
					"type": "tuple",
					"internalType": "struct JBDeploy721TiersHookConfig",
					"components": [
						{
							"name": "name",
							"type": "string",
							"internalType": "string"
						},
						{
							"name": "symbol",
							"type": "string",
							"internalType": "string"
						},
						{
							"name": "baseUri",
							"type": "string",
							"internalType": "string"
						},
						{
							"name": "tokenUriResolver",
							"type": "address",
							"internalType": "contract IJB721TokenUriResolver"
						},
						{
							"name": "contractUri",
							"type": "string",
							"internalType": "string"
						},
						{
							"name": "tiersConfig",
							"type": "tuple",
							"internalType": "struct JB721InitTiersConfig",
							"components": [
								{
									"name": "tiers",
									"type": "tuple[]",
									"internalType": "struct JB721TierConfig[]",
									"components": [
										{
											"name": "price",
											"type": "uint104",
											"internalType": "uint104"
										},
										{
											"name": "initialSupply",
											"type": "uint32",
											"internalType": "uint32"
										},
										{
											"name": "votingUnits",
											"type": "uint32",
											"internalType": "uint32"
										},
										{
											"name": "reserveFrequency",
											"type": "uint16",
											"internalType": "uint16"
										},
										{
											"name": "reserveBeneficiary",
											"type": "address",
											"internalType": "address"
										},
										{
											"name": "encodedIpfsUri",
											"type": "bytes32",
											"internalType": "bytes32"
										},
										{
											"name": "category",
											"type": "uint24",
											"internalType": "uint24"
										},
										{
											"name": "discountPercent",
											"type": "uint8",
											"internalType": "uint8"
										},
										{
											"name": "flags",
											"type": "tuple",
											"internalType": "struct JB721TierConfigFlags",
											"components": [
												{
													"name": "allowOwnerMint",
													"type": "bool",
													"internalType": "bool"
												},
												{
													"name": "useReserveBeneficiaryAsDefault",
													"type": "bool",
													"internalType": "bool"
												},
												{
													"name": "transfersPausable",
													"type": "bool",
													"internalType": "bool"
												},
												{
													"name": "useVotingUnits",
													"type": "bool",
													"internalType": "bool"
												},
												{
													"name": "cantBeRemoved",
													"type": "bool",
													"internalType": "bool"
												},
												{
													"name": "cantIncreaseDiscountPercent",
													"type": "bool",
													"internalType": "bool"
												},
												{
													"name": "cantBuyWithCredits",
													"type": "bool",
													"internalType": "bool"
												}
											]
										},
										{
											"name": "splitPercent",
											"type": "uint32",
											"internalType": "uint32"
										},
										{
											"name": "splits",
											"type": "tuple[]",
											"internalType": "struct JBSplit[]",
											"components": [
												{
													"name": "percent",
													"type": "uint32",
													"internalType": "uint32"
												},
												{
													"name": "projectId",
													"type": "uint64",
													"internalType": "uint64"
												},
												{
													"name": "beneficiary",
													"type": "address",
													"internalType": "address payable"
												},
												{
													"name": "preferAddToBalance",
													"type": "bool",
													"internalType": "bool"
												},
												{
													"name": "lockedUntil",
													"type": "uint48",
													"internalType": "uint48"
												},
												{
													"name": "hook",
													"type": "address",
													"internalType": "contract IJBSplitHook"
												}
											]
										}
									]
								},
								{
									"name": "currency",
									"type": "uint32",
									"internalType": "uint32"
								},
								{
									"name": "decimals",
									"type": "uint8",
									"internalType": "uint8"
								}
							]
						},
						{
							"name": "flags",
							"type": "tuple",
							"internalType": "struct JB721TiersHookFlags",
							"components": [
								{
									"name": "noNewTiersWithReserves",
									"type": "bool",
									"internalType": "bool"
								},
								{
									"name": "noNewTiersWithVotes",
									"type": "bool",
									"internalType": "bool"
								},
								{
									"name": "noNewTiersWithOwnerMinting",
									"type": "bool",
									"internalType": "bool"
								},
								{
									"name": "preventOverspending",
									"type": "bool",
									"internalType": "bool"
								},
								{
									"name": "issueTokensForSplits",
									"type": "bool",
									"internalType": "bool"
								}
							]
						}
					]
				},
				{
					"name": "salt",
					"type": "bytes32",
					"internalType": "bytes32"
				}
			],
			"outputs": [
				{
					"name": "newHook",
					"type": "address",
					"internalType": "contract IJB721TiersHook"
				}
			],
			"stateMutability": "nonpayable"
		},
		{
			"type": "function",
			"name": "isTrustedForwarder",
			"inputs": [
				{
					"name": "forwarder",
					"type": "address",
					"internalType": "address"
				}
			],
			"outputs": [
				{
					"name": "",
					"type": "bool",
					"internalType": "bool"
				}
			],
			"stateMutability": "view"
		},
		{
			"type": "function",
			"name": "trustedForwarder",
			"inputs": [],
			"outputs": [
				{
					"name": "",
					"type": "address",
					"internalType": "address"
				}
			],
			"stateMutability": "view"
		},
		{
			"type": "event",
			"name": "HookDeployed",
			"inputs": [
				{
					"name": "projectId",
					"type": "uint256",
					"indexed": true,
					"internalType": "uint256"
				},
				{
					"name": "hook",
					"type": "address",
					"indexed": false,
					"internalType": "contract IJB721TiersHook"
				},
				{
					"name": "caller",
					"type": "address",
					"indexed": false,
					"internalType": "address"
				}
			],
			"anonymous": false
		}
	],
	"args": [
		"0x6B09f0E263b602B868E4b1270F52A4B7E3a743DF",
		"0x7033C610d09e0599FdCaD305bA8630ae2F98D573",
		"0x28E93d324E20ADd48bE54DC8510D294922b42712",
		"0x256efB99e8ca40E7a3d793fC3006A5C1c90956c2"
	],
	"solcInputHash": "884e8e7a15a4ab4b0d6b74f2fa209403",
	"bytecode": "0x610100604052348015610010575f5ffd5b50604051610e82380380610e8283398101604081905261002f91610069565b6001600160a01b0390811660805292831660c05290821660e0521660a0526100c5565b6001600160a01b0381168114610066575f5ffd5b50565b5f5f5f5f6080858703121561007c575f5ffd5b845161008781610052565b602086015190945061009881610052565b60408601519093506100a981610052565b60608601519092506100ba81610052565b939692955090935050565b60805160a05160c05160e051610d5b6101275f395f606901525f818161015d0152818161018c015281816101f4015261042601525f8181610136015281816103a501526104df01525f818160b80152818161010d01526105570152610d5b5ff3fe608060405234801561000f575f5ffd5b5060043610610060575f3560e01c8063507f146514610064578063572b6c05146100a85780636f694786146100f85780637da0a8771461010b57806389a56bbc14610131578063a54eb24214610158575b5f5ffd5b61008b7f000000000000000000000000000000000000000000000000000000000000000081565b6040516001600160a01b0390911681526020015b60405180910390f35b6100e86100b636600461068c565b7f00000000000000000000000000000000000000000000000000000000000000006001600160a01b0390811691161490565b604051901515815260200161009f565b61008b6101063660046106a7565b61017f565b7f000000000000000000000000000000000000000000000000000000000000000061008b565b61008b7f000000000000000000000000000000000000000000000000000000000000000081565b61008b7f000000000000000000000000000000000000000000000000000000000000000081565b5f81156101ef576101ea5f7f00000000000000000000000000000000000000000000000000000000000000006101b3610546565b604080516001600160a01b0390921660208301528101869052606001604051602081830303815290604052805190602001206105b0565b610218565b6102187f0000000000000000000000000000000000000000000000000000000000000000610603565b9050837fd76d022c77a474d529a79581eb88a726ad929fd23efbcb6a1f852d2d936299a582610245610546565b604080516001600160a01b0393841681529290911660208301520160405180910390a26001600160a01b038116630a4ee8448561028286806106f9565b61028f60208901896106f9565b61029c60408b018b6106f9565b6102ac60808d0160608e0161068c565b6102b960808e018e6106f9565b8e8060a001906102c99190610743565b8f60c0016040518d63ffffffff1660e01b81526004016102f49c9b9a999897969594939291906109fc565b5f604051808303815f87803b15801561030b575f5ffd5b505af115801561031d573d5f5f3e3d5ffd5b50505050806001600160a01b031663f2fde38b610338610546565b6040516001600160e01b031960e084901b1681526001600160a01b0390911660048201526024015f604051808303815f87803b158015610376575f5ffd5b505af1158015610388573d5f5f3e3d5ffd5b505050505f5f815461039990610c6b565b9091555081156104c0577f00000000000000000000000000000000000000000000000000000000000000006001600160a01b031663da3c8b0a306103db610546565b604080516001600160a01b039092166020830152810186905260600160408051601f1981840301815282825280516020909101206c5af43d3d93803e602a57fd5bf360581b838301527f0000000000000000000000000000000000000000000000000000000000000000602884015273602c3d8160093d39f33d3d3d3d363d3d37363d7360148401526035835260608301909152906040518463ffffffff1660e01b815260040161048e93929190610c8f565b5f604051808303815f87803b1580156104a5575f5ffd5b505af11580156104b7573d5f5f3e3d5ffd5b5050505061053f565b5f5460405163b94417ab60e01b815230600482015260248101919091527f00000000000000000000000000000000000000000000000000000000000000006001600160a01b03169063b94417ab906044015f604051808303815f87803b158015610528575f5ffd5b505af115801561053a573d5f5f3e3d5ffd5b505050505b9392505050565b5f36601480821080159061058257507f00000000000000000000000000000000000000000000000000000000000000006001600160a01b031633145b156105a85761059536828403815f610cda565b61059e91610d01565b60601c9250505090565b339250505090565b5f6c5af43d3d93803e602a57fd5bf36021528260145273602c3d8160093d39f33d3d3d3d363d3d37363d735f52816035600c86f59050806105f85763301164255f526004601cfd5b5f6021529392505050565b5f61060e5f83610614565b92915050565b5f6c5af43d3d93803e602a57fd5bf36021528160145273602c3d8160093d39f33d3d3d3d363d3d37363d735f526035600c84f090508061065b5763301164255f526004601cfd5b5f60215292915050565b6001600160a01b0381168114610679575f5ffd5b50565b803561068781610665565b919050565b5f6020828403121561069c575f5ffd5b813561053f81610665565b5f5f5f606084860312156106b9575f5ffd5b83359250602084013567ffffffffffffffff8111156106d6575f5ffd5b840161016081870312156106e8575f5ffd5b929592945050506040919091013590565b5f5f8335601e1984360301811261070e575f5ffd5b83018035915067ffffffffffffffff821115610728575f5ffd5b60200191503681900382131561073c575f5ffd5b9250929050565b5f8235605e19833603018112610757575f5ffd5b9190910192915050565b81835281816020850137505f828201602090810191909152601f909101601f19169091010190565b80356cffffffffffffffffffffffffff81168114610687575f5ffd5b803563ffffffff81168114610687575f5ffd5b803561ffff81168114610687575f5ffd5b803562ffffff81168114610687575f5ffd5b803560ff81168114610687575f5ffd5b80358015158114610687575f5ffd5b610803816107eb565b15158252610813602082016107eb565b15156020830152610826604082016107eb565b15156040830152610839606082016107eb565b1515606083015261084c608082016107eb565b1515608083015261085f60a082016107eb565b151560a083015261087260c082016107eb565b80151560c0840152505050565b5f5f8335601e19843603018112610894575f5ffd5b830160208101925035905067ffffffffffffffff8111156108b3575f5ffd5b60c08102360382131561073c575f5ffd5b803565ffffffffffff81168114610687575f5ffd5b8183526020830192505f815f5b848110156109955763ffffffff6108fc836107a5565b168652602082013567ffffffffffffffff811680821461091a575f5ffd5b602088015250604082013561092e81610665565b6001600160a01b03166040870152610948606083016107eb565b1515606087015261095b608083016108c4565b65ffffffffffff16608087015261097460a0830161067c565b6001600160a01b031660a087015260c09586019591909101906001016108e6565b5093949350505050565b6109a8816107eb565b151582526109b8602082016107eb565b151560208301526109cb604082016107eb565b151560408301526109de606082016107eb565b151560608301526109f1608082016107eb565b151560808301525050565b8c815261018060208201525f610a1761018083018d8f610761565b8281036040840152610a2a818c8e610761565b90508281036060840152610a3f818a8c610761565b6001600160a01b038916608085015283810360a08501529050610a63818789610761565b905082810360c0840152606081018535601e19873603018112610a84575f5ffd5b860180356020820167ffffffffffffffff821115610aa0575f5ffd5b8160051b803603821315610ab2575f5ffd5b606086529382905260809385018401935f90860161023e1936869003015b84831015610c1657878703607f190182528335818112610aee575f5ffd5b860160208101610b1489610b0183610789565b6cffffffffffffffffffffffffff169052565b610b20604083016107a5565b63ffffffff1660208a0152610b37606083016107a5565b63ffffffff1660408a0152610b4e608083016107b8565b61ffff1660608a0152610b6360a0830161067c565b6001600160a01b031660808a015260c082013560a08a0152610b8760e083016107c9565b62ffffff1660c08a0152610b9e61010083016107db565b60ff1660e08a0152610bb86101008a0161012084016107fa565b610bc561020083016107a5565b63ffffffff166101e08a0152610bdf61022083018261087f565b925090506102206102008a0152610bfb6102208a0183836108d9565b98505050602084019350602082019150600183019250610ad0565b505050505050610c28602087016107a5565b63ffffffff166020830152610c3f604087016107db565b60ff81166040840152509150610c5a905060e083018461099f565b9d9c50505050505050505050505050565b5f60018201610c8857634e487b7160e01b5f52601160045260245ffd5b5060010190565b60018060a01b0384168152826020820152606060408201525f82518060608401528060208501608085015e5f608082850101526080601f19601f830116840101915050949350505050565b5f5f85851115610ce8575f5ffd5b83861115610cf4575f5ffd5b5050820193919092039150565b80356bffffffffffffffffffffffff198116906014841015610d47576bffffffffffffffffffffffff196bffffffffffffffffffffffff198560140360031b1b82161691505b509291505056fea164736f6c634300081c000a",
	"gitCommit": "npm:@bananapus/721-hook-v6@0.0.74",
	"gitDirty": false,
	"history": []
}