{
	"format": "sphinx-sol-ct-artifact-1",
	"address": "0x24d0a8b471e05ee23f9da864f2be5e653e8e941c",
	"sourceName": "node_modules/@bananapus/buyback-hook-v6/src/JBBuybackHookRegistry.sol",
	"contractName": "JBBuybackHookRegistry",
	"chainId": "0xaa37dc",
	"abi": [
		{
			"type": "constructor",
			"inputs": [
				{
					"name": "permissions",
					"type": "address",
					"internalType": "contract IJBPermissions"
				},
				{
					"name": "projects",
					"type": "address",
					"internalType": "contract IJBProjects"
				},
				{
					"name": "owner",
					"type": "address",
					"internalType": "address"
				},
				{
					"name": "trustedForwarder",
					"type": "address",
					"internalType": "address"
				}
			],
			"stateMutability": "nonpayable"
		},
		{
			"type": "function",
			"name": "PERMISSIONS",
			"inputs": [],
			"outputs": [
				{
					"name": "",
					"type": "address",
					"internalType": "contract IJBPermissions"
				}
			],
			"stateMutability": "view"
		},
		{
			"type": "function",
			"name": "PROJECTS",
			"inputs": [],
			"outputs": [
				{
					"name": "",
					"type": "address",
					"internalType": "contract IJBProjects"
				}
			],
			"stateMutability": "view"
		},
		{
			"type": "function",
			"name": "allowHook",
			"inputs": [
				{
					"name": "hook",
					"type": "address",
					"internalType": "contract IJBRulesetDataHook"
				}
			],
			"outputs": [],
			"stateMutability": "nonpayable"
		},
		{
			"type": "function",
			"name": "beforeCashOutRecordedWith",
			"inputs": [
				{
					"name": "context",
					"type": "tuple",
					"internalType": "struct JBBeforeCashOutRecordedContext",
					"components": [
						{
							"name": "terminal",
							"type": "address",
							"internalType": "address"
						},
						{
							"name": "holder",
							"type": "address",
							"internalType": "address"
						},
						{
							"name": "projectId",
							"type": "uint256",
							"internalType": "uint256"
						},
						{
							"name": "rulesetId",
							"type": "uint256",
							"internalType": "uint256"
						},
						{
							"name": "cashOutCount",
							"type": "uint256",
							"internalType": "uint256"
						},
						{
							"name": "totalSupply",
							"type": "uint256",
							"internalType": "uint256"
						},
						{
							"name": "surplus",
							"type": "tuple",
							"internalType": "struct JBTokenAmount",
							"components": [
								{
									"name": "token",
									"type": "address",
									"internalType": "address"
								},
								{
									"name": "decimals",
									"type": "uint8",
									"internalType": "uint8"
								},
								{
									"name": "currency",
									"type": "uint32",
									"internalType": "uint32"
								},
								{
									"name": "value",
									"type": "uint256",
									"internalType": "uint256"
								}
							]
						},
						{
							"name": "scopeCashOutsToLocalBalances",
							"type": "bool",
							"internalType": "bool"
						},
						{
							"name": "cashOutTaxRate",
							"type": "uint256",
							"internalType": "uint256"
						},
						{
							"name": "beneficiaryIsFeeless",
							"type": "bool",
							"internalType": "bool"
						},
						{
							"name": "metadata",
							"type": "bytes",
							"internalType": "bytes"
						}
					]
				}
			],
			"outputs": [
				{
					"name": "cashOutTaxRate",
					"type": "uint256",
					"internalType": "uint256"
				},
				{
					"name": "cashOutCount",
					"type": "uint256",
					"internalType": "uint256"
				},
				{
					"name": "totalSupply",
					"type": "uint256",
					"internalType": "uint256"
				},
				{
					"name": "effectiveSurplusValue",
					"type": "uint256",
					"internalType": "uint256"
				},
				{
					"name": "hookSpecifications",
					"type": "tuple[]",
					"internalType": "struct JBCashOutHookSpecification[]",
					"components": [
						{
							"name": "hook",
							"type": "address",
							"internalType": "contract IJBCashOutHook"
						},
						{
							"name": "noop",
							"type": "bool",
							"internalType": "bool"
						},
						{
							"name": "amount",
							"type": "uint256",
							"internalType": "uint256"
						},
						{
							"name": "metadata",
							"type": "bytes",
							"internalType": "bytes"
						}
					]
				}
			],
			"stateMutability": "view"
		},
		{
			"type": "function",
			"name": "beforePayRecordedWith",
			"inputs": [
				{
					"name": "context",
					"type": "tuple",
					"internalType": "struct JBBeforePayRecordedContext",
					"components": [
						{
							"name": "terminal",
							"type": "address",
							"internalType": "address"
						},
						{
							"name": "payer",
							"type": "address",
							"internalType": "address"
						},
						{
							"name": "amount",
							"type": "tuple",
							"internalType": "struct JBTokenAmount",
							"components": [
								{
									"name": "token",
									"type": "address",
									"internalType": "address"
								},
								{
									"name": "decimals",
									"type": "uint8",
									"internalType": "uint8"
								},
								{
									"name": "currency",
									"type": "uint32",
									"internalType": "uint32"
								},
								{
									"name": "value",
									"type": "uint256",
									"internalType": "uint256"
								}
							]
						},
						{
							"name": "projectId",
							"type": "uint256",
							"internalType": "uint256"
						},
						{
							"name": "rulesetId",
							"type": "uint256",
							"internalType": "uint256"
						},
						{
							"name": "beneficiary",
							"type": "address",
							"internalType": "address"
						},
						{
							"name": "weight",
							"type": "uint256",
							"internalType": "uint256"
						},
						{
							"name": "reservedPercent",
							"type": "uint256",
							"internalType": "uint256"
						},
						{
							"name": "metadata",
							"type": "bytes",
							"internalType": "bytes"
						}
					]
				}
			],
			"outputs": [
				{
					"name": "weight",
					"type": "uint256",
					"internalType": "uint256"
				},
				{
					"name": "hookSpecifications",
					"type": "tuple[]",
					"internalType": "struct JBPayHookSpecification[]",
					"components": [
						{
							"name": "hook",
							"type": "address",
							"internalType": "contract IJBPayHook"
						},
						{
							"name": "noop",
							"type": "bool",
							"internalType": "bool"
						},
						{
							"name": "amount",
							"type": "uint256",
							"internalType": "uint256"
						},
						{
							"name": "metadata",
							"type": "bytes",
							"internalType": "bytes"
						}
					]
				}
			],
			"stateMutability": "view"
		},
		{
			"type": "function",
			"name": "defaultHook",
			"inputs": [],
			"outputs": [
				{
					"name": "",
					"type": "address",
					"internalType": "contract IJBRulesetDataHook"
				}
			],
			"stateMutability": "view"
		},
		{
			"type": "function",
			"name": "defaultHookHistoryAt",
			"inputs": [
				{
					"name": "index",
					"type": "uint256",
					"internalType": "uint256"
				}
			],
			"outputs": [
				{
					"name": "segment",
					"type": "tuple",
					"internalType": "struct DefaultHookSegment",
					"components": [
						{
							"name": "minProjectIdExclusive",
							"type": "uint256",
							"internalType": "uint256"
						},
						{
							"name": "maxProjectId",
							"type": "uint256",
							"internalType": "uint256"
						},
						{
							"name": "hook",
							"type": "address",
							"internalType": "contract IJBRulesetDataHook"
						}
					]
				}
			],
			"stateMutability": "view"
		},
		{
			"type": "function",
			"name": "defaultHookHistoryLength",
			"inputs": [],
			"outputs": [
				{
					"name": "length",
					"type": "uint256",
					"internalType": "uint256"
				}
			],
			"stateMutability": "view"
		},
		{
			"type": "function",
			"name": "defaultHookProjectIdThreshold",
			"inputs": [],
			"outputs": [
				{
					"name": "",
					"type": "uint256",
					"internalType": "uint256"
				}
			],
			"stateMutability": "view"
		},
		{
			"type": "function",
			"name": "disallowHook",
			"inputs": [
				{
					"name": "hook",
					"type": "address",
					"internalType": "contract IJBRulesetDataHook"
				}
			],
			"outputs": [],
			"stateMutability": "nonpayable"
		},
		{
			"type": "function",
			"name": "hasLockedHook",
			"inputs": [
				{
					"name": "projectId",
					"type": "uint256",
					"internalType": "uint256"
				}
			],
			"outputs": [
				{
					"name": "",
					"type": "bool",
					"internalType": "bool"
				}
			],
			"stateMutability": "view"
		},
		{
			"type": "function",
			"name": "hasMintPermissionFor",
			"inputs": [
				{
					"name": "projectId",
					"type": "uint256",
					"internalType": "uint256"
				},
				{
					"name": "",
					"type": "tuple",
					"internalType": "struct JBRuleset",
					"components": [
						{
							"name": "cycleNumber",
							"type": "uint48",
							"internalType": "uint48"
						},
						{
							"name": "id",
							"type": "uint48",
							"internalType": "uint48"
						},
						{
							"name": "basedOnId",
							"type": "uint48",
							"internalType": "uint48"
						},
						{
							"name": "start",
							"type": "uint48",
							"internalType": "uint48"
						},
						{
							"name": "duration",
							"type": "uint32",
							"internalType": "uint32"
						},
						{
							"name": "weight",
							"type": "uint112",
							"internalType": "uint112"
						},
						{
							"name": "weightCutPercent",
							"type": "uint32",
							"internalType": "uint32"
						},
						{
							"name": "approvalHook",
							"type": "address",
							"internalType": "contract IJBRulesetApprovalHook"
						},
						{
							"name": "metadata",
							"type": "uint256",
							"internalType": "uint256"
						}
					]
				},
				{
					"name": "addr",
					"type": "address",
					"internalType": "address"
				}
			],
			"outputs": [
				{
					"name": "",
					"type": "bool",
					"internalType": "bool"
				}
			],
			"stateMutability": "view"
		},
		{
			"type": "function",
			"name": "hookOf",
			"inputs": [
				{
					"name": "projectId",
					"type": "uint256",
					"internalType": "uint256"
				}
			],
			"outputs": [
				{
					"name": "hook",
					"type": "address",
					"internalType": "contract IJBRulesetDataHook"
				}
			],
			"stateMutability": "view"
		},
		{
			"type": "function",
			"name": "initializePoolFor",
			"inputs": [
				{
					"name": "projectId",
					"type": "uint256",
					"internalType": "uint256"
				},
				{
					"name": "fee",
					"type": "uint24",
					"internalType": "uint24"
				},
				{
					"name": "tickSpacing",
					"type": "int24",
					"internalType": "int24"
				},
				{
					"name": "twapWindow",
					"type": "uint256",
					"internalType": "uint256"
				},
				{
					"name": "terminalToken",
					"type": "address",
					"internalType": "address"
				},
				{
					"name": "sqrtPriceX96",
					"type": "uint160",
					"internalType": "uint160"
				}
			],
			"outputs": [],
			"stateMutability": "nonpayable"
		},
		{
			"type": "function",
			"name": "isHookAllowed",
			"inputs": [
				{
					"name": "hook",
					"type": "address",
					"internalType": "contract IJBRulesetDataHook"
				}
			],
			"outputs": [
				{
					"name": "",
					"type": "bool",
					"internalType": "bool"
				}
			],
			"stateMutability": "view"
		},
		{
			"type": "function",
			"name": "isTrustedForwarder",
			"inputs": [
				{
					"name": "forwarder",
					"type": "address",
					"internalType": "address"
				}
			],
			"outputs": [
				{
					"name": "",
					"type": "bool",
					"internalType": "bool"
				}
			],
			"stateMutability": "view"
		},
		{
			"type": "function",
			"name": "lockHookFor",
			"inputs": [
				{
					"name": "projectId",
					"type": "uint256",
					"internalType": "uint256"
				},
				{
					"name": "expectedHook",
					"type": "address",
					"internalType": "contract IJBRulesetDataHook"
				}
			],
			"outputs": [],
			"stateMutability": "nonpayable"
		},
		{
			"type": "function",
			"name": "owner",
			"inputs": [],
			"outputs": [
				{
					"name": "",
					"type": "address",
					"internalType": "address"
				}
			],
			"stateMutability": "view"
		},
		{
			"type": "function",
			"name": "renounceOwnership",
			"inputs": [],
			"outputs": [],
			"stateMutability": "nonpayable"
		},
		{
			"type": "function",
			"name": "setDefaultHook",
			"inputs": [
				{
					"name": "hook",
					"type": "address",
					"internalType": "contract IJBRulesetDataHook"
				}
			],
			"outputs": [],
			"stateMutability": "nonpayable"
		},
		{
			"type": "function",
			"name": "setHookFor",
			"inputs": [
				{
					"name": "projectId",
					"type": "uint256",
					"internalType": "uint256"
				},
				{
					"name": "hook",
					"type": "address",
					"internalType": "contract IJBRulesetDataHook"
				}
			],
			"outputs": [],
			"stateMutability": "nonpayable"
		},
		{
			"type": "function",
			"name": "setPoolFor",
			"inputs": [
				{
					"name": "projectId",
					"type": "uint256",
					"internalType": "uint256"
				},
				{
					"name": "fee",
					"type": "uint24",
					"internalType": "uint24"
				},
				{
					"name": "tickSpacing",
					"type": "int24",
					"internalType": "int24"
				},
				{
					"name": "twapWindow",
					"type": "uint256",
					"internalType": "uint256"
				},
				{
					"name": "terminalToken",
					"type": "address",
					"internalType": "address"
				}
			],
			"outputs": [],
			"stateMutability": "nonpayable"
		},
		{
			"type": "function",
			"name": "supportsInterface",
			"inputs": [
				{
					"name": "interfaceId",
					"type": "bytes4",
					"internalType": "bytes4"
				}
			],
			"outputs": [
				{
					"name": "",
					"type": "bool",
					"internalType": "bool"
				}
			],
			"stateMutability": "pure"
		},
		{
			"type": "function",
			"name": "transferOwnership",
			"inputs": [
				{
					"name": "newOwner",
					"type": "address",
					"internalType": "address"
				}
			],
			"outputs": [],
			"stateMutability": "nonpayable"
		},
		{
			"type": "function",
			"name": "trustedForwarder",
			"inputs": [],
			"outputs": [
				{
					"name": "",
					"type": "address",
					"internalType": "address"
				}
			],
			"stateMutability": "view"
		},
		{
			"type": "event",
			"name": "JBBuybackHookRegistry_AllowHook",
			"inputs": [
				{
					"name": "hook",
					"type": "address",
					"indexed": false,
					"internalType": "contract IJBRulesetDataHook"
				},
				{
					"name": "caller",
					"type": "address",
					"indexed": false,
					"internalType": "address"
				}
			],
			"anonymous": false
		},
		{
			"type": "event",
			"name": "JBBuybackHookRegistry_DisallowHook",
			"inputs": [
				{
					"name": "hook",
					"type": "address",
					"indexed": false,
					"internalType": "contract IJBRulesetDataHook"
				},
				{
					"name": "caller",
					"type": "address",
					"indexed": false,
					"internalType": "address"
				}
			],
			"anonymous": false
		},
		{
			"type": "event",
			"name": "JBBuybackHookRegistry_LockHook",
			"inputs": [
				{
					"name": "projectId",
					"type": "uint256",
					"indexed": false,
					"internalType": "uint256"
				},
				{
					"name": "caller",
					"type": "address",
					"indexed": false,
					"internalType": "address"
				}
			],
			"anonymous": false
		},
		{
			"type": "event",
			"name": "JBBuybackHookRegistry_SetDefaultHook",
			"inputs": [
				{
					"name": "hook",
					"type": "address",
					"indexed": false,
					"internalType": "contract IJBRulesetDataHook"
				},
				{
					"name": "caller",
					"type": "address",
					"indexed": false,
					"internalType": "address"
				}
			],
			"anonymous": false
		},
		{
			"type": "event",
			"name": "JBBuybackHookRegistry_SetHook",
			"inputs": [
				{
					"name": "projectId",
					"type": "uint256",
					"indexed": true,
					"internalType": "uint256"
				},
				{
					"name": "hook",
					"type": "address",
					"indexed": false,
					"internalType": "contract IJBRulesetDataHook"
				},
				{
					"name": "caller",
					"type": "address",
					"indexed": false,
					"internalType": "address"
				}
			],
			"anonymous": false
		},
		{
			"type": "event",
			"name": "OwnershipTransferred",
			"inputs": [
				{
					"name": "previousOwner",
					"type": "address",
					"indexed": true,
					"internalType": "address"
				},
				{
					"name": "newOwner",
					"type": "address",
					"indexed": true,
					"internalType": "address"
				}
			],
			"anonymous": false
		},
		{
			"type": "error",
			"name": "JBBuybackHookRegistry_CannotDisallowDefaultHook",
			"inputs": [
				{
					"name": "hook",
					"type": "address",
					"internalType": "contract IJBRulesetDataHook"
				}
			]
		},
		{
			"type": "error",
			"name": "JBBuybackHookRegistry_HookLocked",
			"inputs": [
				{
					"name": "projectId",
					"type": "uint256",
					"internalType": "uint256"
				}
			]
		},
		{
			"type": "error",
			"name": "JBBuybackHookRegistry_HookMismatch",
			"inputs": [
				{
					"name": "currentHook",
					"type": "address",
					"internalType": "contract IJBRulesetDataHook"
				},
				{
					"name": "expectedHook",
					"type": "address",
					"internalType": "contract IJBRulesetDataHook"
				}
			]
		},
		{
			"type": "error",
			"name": "JBBuybackHookRegistry_HookNotAllowed",
			"inputs": [
				{
					"name": "hook",
					"type": "address",
					"internalType": "contract IJBRulesetDataHook"
				}
			]
		},
		{
			"type": "error",
			"name": "JBBuybackHookRegistry_HookNotSet",
			"inputs": [
				{
					"name": "projectId",
					"type": "uint256",
					"internalType": "uint256"
				}
			]
		},
		{
			"type": "error",
			"name": "JBBuybackHookRegistry_ZeroHook",
			"inputs": [
				{
					"name": "hook",
					"type": "address",
					"internalType": "contract IJBRulesetDataHook"
				}
			]
		},
		{
			"type": "error",
			"name": "JBMetadataResolver_DataNotPadded",
			"inputs": [
				{
					"name": "dataLength",
					"type": "uint256",
					"internalType": "uint256"
				}
			]
		},
		{
			"type": "error",
			"name": "JBMetadataResolver_MetadataTooLong",
			"inputs": [
				{
					"name": "offset",
					"type": "uint256",
					"internalType": "uint256"
				},
				{
					"name": "maxOffset",
					"type": "uint256",
					"internalType": "uint256"
				}
			]
		},
		{
			"type": "error",
			"name": "JBMetadataResolver_MetadataTooShort",
			"inputs": [
				{
					"name": "metadataLength",
					"type": "uint256",
					"internalType": "uint256"
				},
				{
					"name": "minMetadataLength",
					"type": "uint256",
					"internalType": "uint256"
				}
			]
		},
		{
			"type": "error",
			"name": "JBPermissioned_Unauthorized",
			"inputs": [
				{
					"name": "account",
					"type": "address",
					"internalType": "address"
				},
				{
					"name": "sender",
					"type": "address",
					"internalType": "address"
				},
				{
					"name": "projectId",
					"type": "uint256",
					"internalType": "uint256"
				},
				{
					"name": "permissionId",
					"type": "uint256",
					"internalType": "uint256"
				}
			]
		},
		{
			"type": "error",
			"name": "OwnableInvalidOwner",
			"inputs": [
				{
					"name": "owner",
					"type": "address",
					"internalType": "address"
				}
			]
		},
		{
			"type": "error",
			"name": "OwnableUnauthorizedAccount",
			"inputs": [
				{
					"name": "account",
					"type": "address",
					"internalType": "address"
				}
			]
		}
	],
	"args": [
		"0xBf9A259b0F3c5c4B72896752B8046FB7cecbd23E",
		"0x056D2823a5699Ce0F58948Ab12DeB8f4B93c6cb6",
		"0xd5136c794ee43BEf1eD4cF1eB6DEe45b7F803437",
		"0x85C82dfA5cdb397C6EaE6ffb793f9F308579E820"
	],
	"solcInputHash": "16cc0e362bac9e08e4aa022225295380",
	"bytecode": "0x6101206040523461021357612a5b6080813803918261001d81610217565b938492833981010312610213578051906001600160a01b0382168203610213576020810151916001600160a01b03831683036102135761006b606061006460408501610250565b9301610250565b60805260a0526001600160a01b03168015610200575f80546001600160a01b03198116831782556001600160a01b0316907f8be0079c531659141344cd1fd0a4f28419497f9722a3daafe3b4186f6b6457e09080a360c0526101226100d06040610217565b600781526618d85cda13dd5d60ca1b6020909101523060601b6001600160601b0319167f86b14ff4df1839d4c5ed01550f2540ea56ad3e38000000000000000000000000186001600160e01b03191690565b60e0526101806101326040610217565b600381526270617960e81b6020909101523060601b6001600160601b0319167fadc756803e4eb4ccfb136b73d5f72e3dc0d452d3000000000000000000000000186001600160e01b03191690565b610100526040516127f69081610265823960805181818161089701528181610ca1015261277d015260a05181818161023701528181611ed90152611fe5015260c0518181816105570152818161093601528181610ac701528181610d3701528181610f1b0152611030015260e05181611aaf0152610100518161161b0152f35b631e4fbdf760e01b5f525f60045260245ffd5b5f80fd5b6040519190601f01601f191682016001600160401b0381118382101761023c57604052565b634e487b7160e01b5f52604160045260245ffd5b51906001600160a01b03821682036102135756fe6080806040526004361015610012575f80fd5b5f905f3560e01c90816301ffc9a7146110e65750806321e40d851461105f578063293c49991461101b5780632a56e81314610ffe578063345c421314610ed05780633d1250b714610ea757806347916c9514610e89578063495e55f914610e5a57806349e3038314610cd5578063572b6c0514610c80578063635c986614610bf55780636d5e063c14610a8e578063715018a614610a34578063779b0290146108c65780637da0a877146108815780638cc35846146107aa5780638da5cb5b1461078357806399b048091461051157806399f6d77f146103e5578063ad6a0cfc146103b4578063c8890ff81461032b578063ccb12bde146102ec578063f2fde38b14610266578063f434c914146102215763f672acac14610131575f80fd5b3461021e57602036600319011261021e576004356001600160401b03811161021c576101c0600319823603011261021c5761016e90600401611a79565b92939060409592955195869560a0870193875260208701526040860152606085015260a06080850152825180915260c08401602060c08360051b870101940192905b8282106101bf57505050500390f35b9193600191939550602061020c819260bf198a8203018652608060608a51878060a01b038151168452858101511515868501526040810151604085015201519181606082015201906111c9565b96019201920185949391926101b0565b505b80fd5b503461021e578060031936011261021e576040517f00000000000000000000000000000000000000000000000000000000000000006001600160a01b03168152602090f35b503461021e57602036600319011261021e57610280611189565b6102886120ee565b6001600160a01b031680156102d85781546001600160a01b03198116821783556001600160a01b03167f8be0079c531659141344cd1fd0a4f28419497f9722a3daafe3b4186f6b6457e08380a380f35b631e4fbdf760e01b82526004829052602482fd5b503461021e57602036600319011261021e5760209060ff906040906001600160a01b03610317611189565b168152600484522054166040519015158152f35b503461021e57602036600319011261021e577f276cfb4e5504ff21402ec9d6bf6cd42550e6a036df658316eb6bc03305f96130610366611189565b61036e6120ee565b6001600160a01b0381168352600460205260408320805460ff19166001179055610396612752565b604080516001600160a01b039384168152919092166020820152a180f35b503461021e57602036600319011261021e5760206103d360043561205e565b6040516001600160a01b039091168152f35b503461021e5761016036600319011261021e5761012036602319011261021e576040516104118161121c565b60243565ffffffffffff8116810361050d57815260443565ffffffffffff8116810361050d57602082015260643565ffffffffffff8116810361050d57604082015260843565ffffffffffff8116810361050d57606082015260a43563ffffffff8116810361050d57608082015260c4356dffffffffffffffffffffffffffff8116810361050d5760a082015260e43563ffffffff8116810361050d5760c0820152610104356001600160a01b038116810361050d5760e08201526101243561010090910152610144356001600160a01b0381169081900361021c576020906001600160a01b0361050360043561205e565b1614604051908152f35b8280fd5b503461021e57602036600319011261021e5761052b611189565b906105346120ee565b6001600160a01b038216918215610770576002546040516306661abd60e01b81527f00000000000000000000000000000000000000000000000000000000000000006001600160a01b0316949190602081600481895afa908115610765578591610733575b506001546001600160a01b03168061072d575083905b604051926105bc846111ed565b835260208301908152604083019160018060a01b0316825260065468010000000000000000811015610719578060016105f89201600655611285565b93909361070557518355516001808401919091559051600290920180546001600160a01b039093166001600160a01b03199384161790558054909116821790556040516306661abd60e01b81529293602090849060049082905afa80156106fa5784906106a4575b6002558352600460205260408320805460ff191660011790557f3e2072480b140d9cca490fa464b710d67451069ee035afa96d4322bd1a652a499150610396612752565b506020833d6020116106f2575b816106be60209383611253565b810103126106ee577f3e2072480b140d9cca490fa464b710d67451069ee035afa96d4322bd1a652a499251610660565b5f80fd5b3d91506106b1565b6040513d86823e3d90fd5b634e487b7160e01b87526004879052602487fd5b634e487b7160e01b87526041600452602487fd5b906105af565b90506020813d60201161075d575b8161074e60209383611253565b810103126106ee57515f610599565b3d9150610741565b6040513d87823e3d90fd5b50602491637672013360e11b8252600452fd5b503461021e578060031936011261021e57546040516001600160a01b039091168152602090f35b503461021e57602036600319011261021e576004356001600160401b03811161021c57610180600319823603011261021c576107e8906004016115dc565b6040519283926040840190845260406020850152825180915260608401602060608360051b870101940192905b82821061082457505050500390f35b919360019193955060206108718192605f198a8203018652608060608a51878060a01b038151168452858101511515868501526040810151604085015201519181606082015201906111c9565b9601920192018594939192610815565b503461021e578060031936011261021e576040517f00000000000000000000000000000000000000000000000000000000000000006001600160a01b03168152602090f35b503461021e57604036600319011261021e576004356108e36111b3565b818352600360205260ff604084205416610a20576001600160a01b0381168084526004602052604084205490919060ff1615610a0c576040516331a9108f60e11b815260048101849052916020836024817f00000000000000000000000000000000000000000000000000000000000000006001600160a01b03165afa8015610765578461099a917f230b36e3129477317328684b18102c7f52447dd0f73c163c1e0993d43f504bb59588916109dd575b50611f52565b83855260056020526040852080546001600160a01b03191690911790556109bf612752565b604080516001600160a01b039384168152919092166020820152a280f35b6109ff915060203d602011610a05575b6109f78183611253565b8101906112b5565b5f610994565b503d6109ed565b6352a663dd60e01b84526004829052602484fd5b63013b61d560e31b83526004829052602483fd5b503461021e578060031936011261021e57610a4d6120ee565b80546001600160a01b03198116825581906001600160a01b03167f8be0079c531659141344cd1fd0a4f28419497f9722a3daafe3b4186f6b6457e08280a380f35b503461021e57604036600319011261021e57600435610aab6111b3565b6040516331a9108f60e11b8152600481018390526020816024817f00000000000000000000000000000000000000000000000000000000000000006001600160a01b03165afa9081156106fa57610b0a91849186916109dd5750611f52565b6001600160a01b03610b1b8361205e565b16908115610be157828452600560205260408420546001600160a01b031615610bc0575b6001600160a01b031690818103610baa57837fc065bd569ac96179643f7b9db490763a801b4e6a0c149bea79d4b8f322172fac6040858084526003602052818420600160ff19825416179055610b93612752565b82519182526001600160a01b03166020820152a180f35b638466aca160e01b845260045260245250604490fd5b82845260056020526040842080546001600160a01b03191683179055610b3f565b631688c48760e01b84526004839052602484fd5b503461021e57602036600319011261021e57610c0f611189565b90610c186120ee565b6001546001600160a01b038381169391168314610c6d5781927f3c974b11b250722a31114afa02bddda01db28ba059dad65fbc2f426997901bad925260046020526040832060ff198154169055610396612752565b5060249163068f315b60e01b8252600452fd5b503461021e57602036600319011261021e576020610c9c611189565b6040517f00000000000000000000000000000000000000000000000000000000000000006001600160a01b039081169216919091148152f35b503461021e5760c036600319011261021e5760043590610cf3611151565b610cfb611163565b90610d04611173565b60a4356001600160a01b038116929190839003610e56576040516331a9108f60e11b8152600481018790526020816024817f00000000000000000000000000000000000000000000000000000000000000006001600160a01b03165afa908115610e4b57610d7b9188918891610e2c575b50611e46565b6001600160a01b03610d8c8761205e565b16938415610e1857958596853b15610e145762ffffff95879560c4948793604051998a9889976349e3038360e01b8952600489015216602487015260020b6044860152606435606486015260018060a01b0316608485015260a48401525af18015610e0957610df85750f35b81610e0291611253565b61021e5780f35b6040513d84823e3d90fd5b8680fd5b631688c48760e01b86526004879052602486fd5b610e45915060203d602011610a05576109f78183611253565b5f610d75565b6040513d88823e3d90fd5b8480fd5b503461021e57602036600319011261021e5760ff60406020926004358152600384522054166040519015158152f35b503461021e578060031936011261021e576020600254604051908152f35b503461021e578060031936011261021e576001546040516001600160a01b039091168152602090f35b50346106ee5760a03660031901126106ee57600435610eed611151565b90610ef6611163565b91610eff611173565b6040516331a9108f60e11b8152600481018490526020816024817f00000000000000000000000000000000000000000000000000000000000000006001600160a01b03165afa908115610fe157610f5e9185915f91610e2c5750611e46565b6001600160a01b03610f6f8461205e565b16928315610fec57833b156106ee575f809460a49362ffffff97604051988997889663345c421360e01b8852600488015216602486015260020b6044850152606435606485015260018060a01b031660848401525af18015610fe157610fd3575080f35b610fdf91505f90611253565b005b6040513d5f823e3d90fd5b631688c48760e01b5f5260045260245ffd5b346106ee575f3660031901126106ee576020600654604051908152f35b346106ee575f3660031901126106ee576040517f00000000000000000000000000000000000000000000000000000000000000006001600160a01b03168152602090f35b346106ee5760203660031901126106ee575f6040805161107e816111ed565b82815282602082015201526060611096600435611285565b506040516110a3816111ed565b8154808252600183015460208084019182526002909401546001600160a01b03908116604094850190815284519384529151948301949094525190921690820152f35b346106ee5760203660031901126106ee576004359063ffffffff60e01b82168092036106ee57602091632597785d60e01b8114908115611140575b811561112f575b5015158152f35b6301ffc9a760e01b14905083611128565b63e347239560e01b81149150611121565b6024359062ffffff821682036106ee57565b604435908160020b82036106ee57565b608435906001600160a01b03821682036106ee57565b600435906001600160a01b03821682036106ee57565b35906001600160a01b03821682036106ee57565b602435906001600160a01b03821682036106ee57565b805180835260209291819084018484015e5f828201840152601f01601f1916010190565b606081019081106001600160401b0382111761120857604052565b634e487b7160e01b5f52604160045260245ffd5b61012081019081106001600160401b0382111761120857604052565b608081019081106001600160401b0382111761120857604052565b90601f801991011681019081106001600160401b0382111761120857604052565b359063ffffffff821682036106ee57565b6006548110156112a15760065f52600360205f20910201905f90565b634e487b7160e01b5f52603260045260245ffd5b908160209103126106ee57516001600160a01b03811681036106ee5790565b903590601e19813603018212156106ee57018035906001600160401b0382116106ee576020019181360383136106ee57565b6001600160401b03811161120857601f01601f191660200190565b92919261132d82611306565b9161133b6040519384611253565b8294818452818301116106ee578281602093845f960137010152565b356001600160a01b03811681036106ee5790565b359060ff821682036106ee57565b91908260809103126106ee5760405161139181611238565b606080829461139f8161119f565b84526113ad6020820161136b565b60208501526113be60408201611274565b60408501520135910152565b6001600160401b0381116112085760051b60200190565b519081151582036106ee57565b81601f820112156106ee5780519061140582611306565b926114136040519485611253565b828452602083830101116106ee57815f9260208093018386015e8301015290565b91906040838203126106ee578251926020810151906001600160401b0382116106ee57019080601f830112156106ee57815191611470836113ca565b9261147e6040519485611253565b80845260208085019160051b830101918383116106ee5760208101915b8383106114aa57505050505090565b82516001600160401b0381116106ee578201906080828703601f1901126106ee57604051906114d882611238565b60208301516001600160a01b03811681036106ee5782526114fb604084016113e1565b6020830152606083015160408301526080830151916001600160401b0383116106ee57611530886020809695819601016113ee565b606082015281520192019161149b565b60609081906001600160a01b036115568261119f565b16845260ff6115676020830161136b565b16602085015263ffffffff61157e60408301611274565b1660408501520135910152565b9035601e19823603018112156106ee5701602081359101916001600160401b0382116106ee5781360383136106ee57565b908060209392818452848401375f828201840152601f01601f1916010190565b60c081013591906001600160a01b036115f48461205e565b169081156119335761016081019361163f61161961161287856112d4565b3691611321565b7f0000000000000000000000000000000000000000000000000000000000000000612155565b906117475750604051634661ac2360e11b815260206004820152945f93869390928492839261170c926116f89291906001600160a01b0361167f8361119f565b1660248701526001600160a01b036116996020840161119f565b1660448701526116af6064870160408401611540565b60e486015260e08101356101048601526001600160a01b036116d4610100830161119f565b1661012486015261012081013561014486015261014081013561016486015261158b565b6101806101848501526101a48401916115bc565b03915afa918215610fe1575f905f9361172457509190565b90506117439192503d805f833e61173b8183611253565b810190611434565b9091565b925f926117c06118d1956040986117bb6116126117b4878d61176b81519182611253565b600381526270617960e81b60209091015260601b6bffffffffffffffffffffffff191673adc756803e4eb4ccfb136b73d5f72e3dc0d452d360601b186001600160e01b03191690565b92866112d4565b612312565b6119116117cc83611357565b916117d960208501611357565b938a6117e86101008301611357565b8151956117f48761121c565b6001600160a01b03908116875296909616602086019081529561181936848401611379565b86830190815260608088019a8b5260e08581013560808a019081526001600160a01b0394851660a08b0190815261012088013560c08c0190815261014090980135928b019283526101008b019889529551634661ac2360e11b81526020600482018190529a51861660248201529a51851660448c01529251805190941660648b01529783015160ff1660848a0152604083015163ffffffff1660a48a0152919091015160c488015295998a9889978897949392909190565b5160e488015251610104870152516001600160a01b03166101248601525161014485015251610164840152516101806101848401526101a48301906111c9565b03915afa92831561192a57505f905f9361172457509190565b513d5f823e3d90fd5b610120013592506060919050565b3580151581036106ee5790565b919060a0838203126106ee578251926020810151926040820151926060830151926080810151906001600160401b0382116106ee57019080601f830112156106ee5781519161199c836113ca565b926119aa6040519485611253565b80845260208085019160051b830101918383116106ee5760208101915b8383106119d657505050505090565b82516001600160401b0381116106ee578201906080828703601f1901126106ee5760405190611a0482611238565b60208301516001600160a01b03811681036106ee578252611a27604084016113e1565b6020830152606083015160408301526080830151916001600160401b0383116106ee57611a5c886020809695819601016113ee565b60608201528152019201916119c7565b359081151582036106ee57565b6040810135906001600160a01b03611a908361205e565b168015611e26576101a0820191611ad3611aad61161285846112d4565b7f0000000000000000000000000000000000000000000000000000000000000000612155565b90611c045750604051633d9cab2b60e21b815260206004820152935f9385939284928392611bb292611b9e926001600160a01b03611b108361119f565b1660248701526001600160a01b03611b2a6020840161119f565b166044870152606486015260608101356084860152608081013560a486015260a081013560c4860152611b6360e4860160c08301611540565b611b706101408201611a6c565b1515610164860152610160810135610184860152611b916101808201611a6c565b15156101a486015261158b565b6101c06101c48501526101e48401916115bc565b03915afa908115610fe1575f915f935f935f935f93611bd4575b509493929190565b935050935050611bf691503d805f833e611bee8183611253565b81019061194e565b92949193909291905f611bcc565b611c73905f959495506040956117bb6116126117b4878a51611c268c82611253565b600781526618d85cda13dd5d60ca1b60209091015260601b6bffffffffffffffffffffffff19167310d629fe9be3073a98bda02aa1e4a81d4ad5a7c760631b186001600160e01b03191690565b611c7c82611357565b90611c8960208401611357565b92611c976101408201611941565b90611ca56101808201611941565b9188519461016086018681106001600160401b03821117611208578a52600160a01b600190031685526020850195600160a01b600190031686528885019788526060850160608301358152608086016080840135815260a087019060a085013582523660c0860190611d1691611379565b60c0890190815293151560e08901908152610160909501356101008901908152951515610120890190815261014089019788528c51633d9cab2b60e21b815260206004820181905299516001600160a01b0390811660248301529a518b1660448201529b5160648d0152925160848c01525160a48b01525160c48a01529051805190961660e48901529385015160ff16610104880152604085015163ffffffff16610124880152606090940151610144870152859384939190511515610164850152516101848401525115156101a4830152516101c482016101c090526101e48201611e01916111c9565b03815a935f94fa91821561192a57505f915f935f935f935f93611bd457509493929190565b50610160810135926080820135925060a082013591610120013590606090565b90611e4f612752565b6001600160a01b0392831692168083141580611e99575b611e6f57505050565b6084935060405192631326f75560e11b8452600484015260248301526044820152601d6064820152fd5b50604051631a45b42760e11b8152600481018290526024810184905260448101839052601d606482015260016084820181905260a482015260208160c4817f00000000000000000000000000000000000000000000000000000000000000006001600160a01b03165afa908115610fe1575f91611f18575b5015611e66565b90506020813d602011611f4a575b81611f3360209383611253565b810103126106ee57611f44906113e1565b5f611f11565b3d9150611f26565b90611f5b612752565b6001600160a01b0392831692168083141580611fa5575b611f7b57505050565b6084935060405192631326f75560e11b8452600484015260248301526044820152601e6064820152fd5b50604051631a45b42760e11b8152600481018290526024810184905260448101839052601e606482015260016084820181905260a482015260208160c4817f00000000000000000000000000000000000000000000000000000000000000006001600160a01b03165afa908115610fe1575f91612024575b5015611f72565b90506020813d602011612056575b8161203f60209383611253565b810103126106ee57612050906113e1565b5f61201d565b3d9150612032565b5f818152600560205260409020546001600160a01b03169190826120eb5760025481116120da57600654905f5b82811061209757505050565b6120a081611285565b5080548311806120cc575b6120b8575060010161208b565b600201546001600160a01b03169450505050565b5060018101548311156120ab565b506001546001600160a01b03169150565b50565b5f546001600160a01b0390811690612104612752565b160361210c57565b612114612752565b63118cdaa760e01b5f9081526001600160a01b0391909116600452602490fd5b8051602410156112a15760440190565b9081518110156112a1570160200190565b905f916060906025835111156122d65761216e83612134565b518060f81c9260205b60048101808211612242576001600160f81b03196121958289612144565b51161515806122b7575b156122ac576121ae9087612144565b516020828801015160f882901c906001600160e01b03198781169116146121d9575050600501612177565b959250959650925060098301809311918261224257611fe0809160f31c1616908082046020149015171561224257821080159061228d575b15612256575050611fe0808451935b60f31c161690808204602014901517156122425761223d926127ab565b600191565b634e487b7160e01b5f52601160045260245ffd5b612242576122649084612144565b51611fe0808260f81c9260f31c1616908082046020149015171561224257611fe0809193612220565b505f90506001600160f81b03196122a48387612144565b511615612211565b505094959350505050565b5060f384901c611fe0168615602088830414171561224257821061219f565b505050505f906040516122ea602082611253565b5f815290565b602081519101519060208110612304575090565b5f199060200360031b1b1690565b92919060609382516020811061274057506020815111156126c65760258151106126ae5761233f81612134565b518060f81c905f19820196828811612242575f611fe0805f9460f31c161693808504602014901517159283612242575f198501858111612242578a15602060058d901b9c8d041417159a5f19810191908211908c5b612242578161224257828111156126a2576001600160f81b03196123b8828b612144565b51166123cd578015612242575f19018c612394565b9b5050505050506123de8784612144565b51835160f882901c9160f31c611fe016821560208483041417156122425781039081116122425760051c60018901808a11908161224257604080518c81018201601f1916909152818152905f5b81811061268d5750819b60058101809111612242578661224257871115612602575b5050505b81018091116122425760ff81116125eb57600560206124ad92604051978891838084019d8e815192839201905e83019163ffffffff60e01b168483015260ff60f81b9060f81b1660248201520301601a19810187520185611253565b8351601f166125b55783515b845261224257816124cf916125069351916127ab565b9460208060405197889382850196518091885e8401908282015f8152815193849201905e01015f815203601f198101865285611253565b8351601f166125825760208061254b93865180975b52866040519788958487015e8401908282015f8152815193849201905e01015f815203601f198101845283611253565b81601f815116155f1461255b5750565b805160051c60018101809111612242578060051b9080820460201490151715612242579052565b835160051c9160018301809311612242578260051b9280840460201490151715612242576020809161254b94809761251b565b835160051c60018101809111612242578060051b908082046020149015176124b957634e487b7160e01b5f52601160045260245ffd5b631f1a544360e31b5f5260045260ff60245260445ffd5b8260249c999694939c9b989a9795929b905b612242578181101561266c5761262a818c612144565b5160f81c600181018091116122425760ff81116125eb5760f81b6001600160f81b0319165f1a61265a828e612144565b5360058101809111612242578c612614565b505091939699509193969497505f19811461224257600101905f808061244d565b80602080928b0101518282860101520161242b565b50505090919850612451565b5163d4e1560560e01b5f52600452602560245260445ffd5b90602061270d6126db61273d959697946122f0565b6040516001600160e01b031990941683850152600160f91b60248501526005845292612708602582611253565b6122f0565b946040519586938385015260408401528051918291018484015e81015f838201520301601f198101835282611253565b90565b634c84276360e01b5f5260045260245ffd5b601436101580612779575b156127755760131936013681116106ee573560601c90565b3390565b50337f00000000000000000000000000000000000000000000000000000000000000006001600160a01b03161461275d565b92918190039060405193601f19603f8487010116604052828552015f5b8281106127d457505050565b806020809284010151828288010152016127c856fea164736f6c634300081c000a",
	"gitCommit": "npm:@bananapus/buyback-hook-v6@0.0.68",
	"gitDirty": false,
	"history": []
}