{
	"format": "sphinx-sol-ct-artifact-1",
	"address": "0xf0294dd453f74a2c50e098ec5d4f8c7c031cdfc1",
	"sourceName": "node_modules/@bananapus/core-v6/src/JBChainlinkV3PriceFeed.sol",
	"contractName": "JBChainlinkV3PriceFeed",
	"chainId": "0xaa37dc",
	"abi": [
		{
			"type": "constructor",
			"inputs": [
				{
					"name": "feed",
					"type": "address",
					"internalType": "contract AggregatorV3Interface"
				},
				{
					"name": "threshold",
					"type": "uint256",
					"internalType": "uint256"
				}
			],
			"stateMutability": "nonpayable"
		},
		{
			"type": "function",
			"name": "FEED",
			"inputs": [],
			"outputs": [
				{
					"name": "",
					"type": "address",
					"internalType": "contract AggregatorV3Interface"
				}
			],
			"stateMutability": "view"
		},
		{
			"type": "function",
			"name": "THRESHOLD",
			"inputs": [],
			"outputs": [
				{
					"name": "",
					"type": "uint256",
					"internalType": "uint256"
				}
			],
			"stateMutability": "view"
		},
		{
			"type": "function",
			"name": "currentUnitPrice",
			"inputs": [
				{
					"name": "decimals",
					"type": "uint256",
					"internalType": "uint256"
				}
			],
			"outputs": [
				{
					"name": "",
					"type": "uint256",
					"internalType": "uint256"
				}
			],
			"stateMutability": "view"
		},
		{
			"type": "error",
			"name": "JBChainlinkV3PriceFeed_IncompleteRound",
			"inputs": [
				{
					"name": "roundId",
					"type": "uint80",
					"internalType": "uint80"
				},
				{
					"name": "answeredInRound",
					"type": "uint80",
					"internalType": "uint80"
				},
				{
					"name": "updatedAt",
					"type": "uint256",
					"internalType": "uint256"
				}
			]
		},
		{
			"type": "error",
			"name": "JBChainlinkV3PriceFeed_NegativePrice",
			"inputs": [
				{
					"name": "price",
					"type": "int256",
					"internalType": "int256"
				}
			]
		},
		{
			"type": "error",
			"name": "JBChainlinkV3PriceFeed_StalePrice",
			"inputs": [
				{
					"name": "timestamp",
					"type": "uint256",
					"internalType": "uint256"
				},
				{
					"name": "threshold",
					"type": "uint256",
					"internalType": "uint256"
				},
				{
					"name": "updatedAt",
					"type": "uint256",
					"internalType": "uint256"
				}
			]
		}
	],
	"args": [
		"0x61Ec26aA57019C486B10502285c5A3D4A4750AD7",
		"3600"
	],
	"solcInputHash": "98e0d88d4c1bcb57a3080c845a130a5c",
	"bytecode": "0x60c060405234801561000f575f5ffd5b5060405161064538038061064583398101604081905261002e91610044565b6001600160a01b0390911660805260a05261007b565b5f5f60408385031215610055575f5ffd5b82516001600160a01b038116811461006b575f5ffd5b6020939093015192949293505050565b60805160a0516105906100b55f395f8181608c015281816101ea015261022a01525f818160480152818160d1015261028301526105905ff3fe608060405234801561000f575f5ffd5b506004361061003f575f3560e01c80630beaf38c14610043578063785ffb3714610087578063d3f5c15f146100bc575b5f5ffd5b61006a7f000000000000000000000000000000000000000000000000000000000000000081565b6040516001600160a01b0390911681526020015b60405180910390f35b6100ae7f000000000000000000000000000000000000000000000000000000000000000081565b60405190815260200161007e565b6100ae6100ca36600461037f565b5f5f5f5f5f7f00000000000000000000000000000000000000000000000000000000000000006001600160a01b031663feaf968c6040518163ffffffff1660e01b815260040160a060405180830381865afa15801561012b573d5f5f3e3d5ffd5b505050506040513d601f19601f8201168201806040525081019061014f91906103b1565b945094505093509350815f036101975760405163d998366560e01b81526001600160501b03808616600483015282166024820152604481018390526064015b60405180910390fd5b836001600160501b0316816001600160501b031610156101e45760405163d998366560e01b81526001600160501b038086166004830152821660248201526044810183905260640161018e565b61020e827f0000000000000000000000000000000000000000000000000000000000000000610413565b42111561025d576040516352b4aba960e11b81524260048201527f000000000000000000000000000000000000000000000000000000000000000060248201526044810183905260640161018e565b5f83136102805760405163e374febf60e01b81526004810184905260240161018e565b5f7f00000000000000000000000000000000000000000000000000000000000000006001600160a01b031663313ce5676040518163ffffffff1660e01b8152600401602060405180830381865afa1580156102dd573d5f5f3e3d5ffd5b505050506040513d601f19601f82011682018060405250810190610301919061042c565b60ff16905061031184828961031c565b979650505050505050565b5f82820361032b575082610378565b828211156103595761033d838361044c565b61034890600a610542565b610352908561054d565b9050610378565b610363828461044c565b61036e90600a610542565b6103529085610564565b9392505050565b5f6020828403121561038f575f5ffd5b5035919050565b80516001600160501b03811681146103ac575f5ffd5b919050565b5f5f5f5f5f60a086880312156103c5575f5ffd5b6103ce86610396565b602087015160408801516060890151929750909550935091506103f360808701610396565b90509295509295909350565b634e487b7160e01b5f52601160045260245ffd5b80820180821115610426576104266103ff565b92915050565b5f6020828403121561043c575f5ffd5b815160ff81168114610378575f5ffd5b81810381811115610426576104266103ff565b6001815b600184111561049a5780850481111561047e5761047e6103ff565b600184161561048c57908102905b60019390931c928002610463565b935093915050565b5f826104b057506001610426565b816104bc57505f610426565b81600181146104d257600281146104dc576104f8565b6001915050610426565b60ff8411156104ed576104ed6103ff565b50506001821b610426565b5060208310610133831016604e8410600b841016171561051b575081810a610426565b6105275f19848461045f565b805f190482111561053a5761053a6103ff565b029392505050565b5f61037883836104a2565b8082028115828204841417610426576104266103ff565b5f8261057e57634e487b7160e01b5f52601260045260245ffd5b50049056fea164736f6c634300081c000a",
	"gitCommit": "npm:@bananapus/core-v6@0.0.82",
	"gitDirty": false,
	"history": []
}