{
	"format": "sphinx-sol-ct-artifact-1",
	"address": "0xe9593ea84f7b3736e82f04ff238a5c6dd1798d93",
	"sourceName": "node_modules/@bananapus/core-v6/src/JBController.sol",
	"contractName": "JBController",
	"chainId": "0xaa37dc",
	"abi": [
		{
			"type": "constructor",
			"inputs": [
				{
					"name": "directory",
					"type": "address",
					"internalType": "contract IJBDirectory"
				},
				{
					"name": "fundAccessLimits",
					"type": "address",
					"internalType": "contract IJBFundAccessLimits"
				},
				{
					"name": "permissions",
					"type": "address",
					"internalType": "contract IJBPermissions"
				},
				{
					"name": "prices",
					"type": "address",
					"internalType": "contract IJBPrices"
				},
				{
					"name": "projects",
					"type": "address",
					"internalType": "contract IJBProjects"
				},
				{
					"name": "rulesets",
					"type": "address",
					"internalType": "contract IJBRulesets"
				},
				{
					"name": "splits",
					"type": "address",
					"internalType": "contract IJBSplits"
				},
				{
					"name": "tokens",
					"type": "address",
					"internalType": "contract IJBTokens"
				},
				{
					"name": "omnichainRulesetOperator",
					"type": "address",
					"internalType": "address"
				},
				{
					"name": "trustedForwarder",
					"type": "address",
					"internalType": "address"
				}
			],
			"stateMutability": "nonpayable"
		},
		{
			"type": "function",
			"name": "DIRECTORY",
			"inputs": [],
			"outputs": [
				{
					"name": "",
					"type": "address",
					"internalType": "contract IJBDirectory"
				}
			],
			"stateMutability": "view"
		},
		{
			"type": "function",
			"name": "FUND_ACCESS_LIMITS",
			"inputs": [],
			"outputs": [
				{
					"name": "",
					"type": "address",
					"internalType": "contract IJBFundAccessLimits"
				}
			],
			"stateMutability": "view"
		},
		{
			"type": "function",
			"name": "OMNICHAIN_RULESET_OPERATOR",
			"inputs": [],
			"outputs": [
				{
					"name": "",
					"type": "address",
					"internalType": "address"
				}
			],
			"stateMutability": "view"
		},
		{
			"type": "function",
			"name": "PERMISSIONS",
			"inputs": [],
			"outputs": [
				{
					"name": "",
					"type": "address",
					"internalType": "contract IJBPermissions"
				}
			],
			"stateMutability": "view"
		},
		{
			"type": "function",
			"name": "PRICES",
			"inputs": [],
			"outputs": [
				{
					"name": "",
					"type": "address",
					"internalType": "contract IJBPrices"
				}
			],
			"stateMutability": "view"
		},
		{
			"type": "function",
			"name": "PROJECTS",
			"inputs": [],
			"outputs": [
				{
					"name": "",
					"type": "address",
					"internalType": "contract IJBProjects"
				}
			],
			"stateMutability": "view"
		},
		{
			"type": "function",
			"name": "RULESETS",
			"inputs": [],
			"outputs": [
				{
					"name": "",
					"type": "address",
					"internalType": "contract IJBRulesets"
				}
			],
			"stateMutability": "view"
		},
		{
			"type": "function",
			"name": "SPLITS",
			"inputs": [],
			"outputs": [
				{
					"name": "",
					"type": "address",
					"internalType": "contract IJBSplits"
				}
			],
			"stateMutability": "view"
		},
		{
			"type": "function",
			"name": "TOKENS",
			"inputs": [],
			"outputs": [
				{
					"name": "",
					"type": "address",
					"internalType": "contract IJBTokens"
				}
			],
			"stateMutability": "view"
		},
		{
			"type": "function",
			"name": "addPriceFeedFor",
			"inputs": [
				{
					"name": "projectId",
					"type": "uint256",
					"internalType": "uint256"
				},
				{
					"name": "pricingCurrency",
					"type": "uint256",
					"internalType": "uint256"
				},
				{
					"name": "unitCurrency",
					"type": "uint256",
					"internalType": "uint256"
				},
				{
					"name": "feed",
					"type": "address",
					"internalType": "contract IJBPriceFeed"
				}
			],
			"outputs": [],
			"stateMutability": "nonpayable"
		},
		{
			"type": "function",
			"name": "afterReceiveMigrationFrom",
			"inputs": [
				{
					"name": "from",
					"type": "address",
					"internalType": "contract IERC165"
				},
				{
					"name": "projectId",
					"type": "uint256",
					"internalType": "uint256"
				}
			],
			"outputs": [],
			"stateMutability": "view"
		},
		{
			"type": "function",
			"name": "allRulesetsOf",
			"inputs": [
				{
					"name": "projectId",
					"type": "uint256",
					"internalType": "uint256"
				},
				{
					"name": "startingId",
					"type": "uint256",
					"internalType": "uint256"
				},
				{
					"name": "size",
					"type": "uint256",
					"internalType": "uint256"
				}
			],
			"outputs": [
				{
					"name": "rulesets",
					"type": "tuple[]",
					"internalType": "struct JBRulesetWithMetadata[]",
					"components": [
						{
							"name": "ruleset",
							"type": "tuple",
							"internalType": "struct JBRuleset",
							"components": [
								{
									"name": "cycleNumber",
									"type": "uint48",
									"internalType": "uint48"
								},
								{
									"name": "id",
									"type": "uint48",
									"internalType": "uint48"
								},
								{
									"name": "basedOnId",
									"type": "uint48",
									"internalType": "uint48"
								},
								{
									"name": "start",
									"type": "uint48",
									"internalType": "uint48"
								},
								{
									"name": "duration",
									"type": "uint32",
									"internalType": "uint32"
								},
								{
									"name": "weight",
									"type": "uint112",
									"internalType": "uint112"
								},
								{
									"name": "weightCutPercent",
									"type": "uint32",
									"internalType": "uint32"
								},
								{
									"name": "approvalHook",
									"type": "address",
									"internalType": "contract IJBRulesetApprovalHook"
								},
								{
									"name": "metadata",
									"type": "uint256",
									"internalType": "uint256"
								}
							]
						},
						{
							"name": "metadata",
							"type": "tuple",
							"internalType": "struct JBRulesetMetadata",
							"components": [
								{
									"name": "reservedPercent",
									"type": "uint16",
									"internalType": "uint16"
								},
								{
									"name": "cashOutTaxRate",
									"type": "uint16",
									"internalType": "uint16"
								},
								{
									"name": "baseCurrency",
									"type": "uint32",
									"internalType": "uint32"
								},
								{
									"name": "pausePay",
									"type": "bool",
									"internalType": "bool"
								},
								{
									"name": "pauseCreditTransfers",
									"type": "bool",
									"internalType": "bool"
								},
								{
									"name": "allowOwnerMinting",
									"type": "bool",
									"internalType": "bool"
								},
								{
									"name": "allowSetCustomToken",
									"type": "bool",
									"internalType": "bool"
								},
								{
									"name": "allowTerminalMigration",
									"type": "bool",
									"internalType": "bool"
								},
								{
									"name": "allowSetTerminals",
									"type": "bool",
									"internalType": "bool"
								},
								{
									"name": "allowSetController",
									"type": "bool",
									"internalType": "bool"
								},
								{
									"name": "allowAddAccountingContext",
									"type": "bool",
									"internalType": "bool"
								},
								{
									"name": "allowAddPriceFeed",
									"type": "bool",
									"internalType": "bool"
								},
								{
									"name": "ownerMustSendPayouts",
									"type": "bool",
									"internalType": "bool"
								},
								{
									"name": "holdFees",
									"type": "bool",
									"internalType": "bool"
								},
								{
									"name": "scopeCashOutsToLocalBalances",
									"type": "bool",
									"internalType": "bool"
								},
								{
									"name": "useDataHookForPay",
									"type": "bool",
									"internalType": "bool"
								},
								{
									"name": "useDataHookForCashOut",
									"type": "bool",
									"internalType": "bool"
								},
								{
									"name": "dataHook",
									"type": "address",
									"internalType": "address"
								},
								{
									"name": "metadata",
									"type": "uint16",
									"internalType": "uint16"
								}
							]
						}
					]
				}
			],
			"stateMutability": "view"
		},
		{
			"type": "function",
			"name": "beforeReceiveMigrationFrom",
			"inputs": [
				{
					"name": "from",
					"type": "address",
					"internalType": "contract IERC165"
				},
				{
					"name": "projectId",
					"type": "uint256",
					"internalType": "uint256"
				}
			],
			"outputs": [],
			"stateMutability": "nonpayable"
		},
		{
			"type": "function",
			"name": "burnTokensOf",
			"inputs": [
				{
					"name": "holder",
					"type": "address",
					"internalType": "address"
				},
				{
					"name": "projectId",
					"type": "uint256",
					"internalType": "uint256"
				},
				{
					"name": "tokenCount",
					"type": "uint256",
					"internalType": "uint256"
				},
				{
					"name": "memo",
					"type": "string",
					"internalType": "string"
				}
			],
			"outputs": [],
			"stateMutability": "nonpayable"
		},
		{
			"type": "function",
			"name": "claimTokensFor",
			"inputs": [
				{
					"name": "holder",
					"type": "address",
					"internalType": "address"
				},
				{
					"name": "projectId",
					"type": "uint256",
					"internalType": "uint256"
				},
				{
					"name": "tokenCount",
					"type": "uint256",
					"internalType": "uint256"
				},
				{
					"name": "beneficiary",
					"type": "address",
					"internalType": "address"
				}
			],
			"outputs": [],
			"stateMutability": "nonpayable"
		},
		{
			"type": "function",
			"name": "currentRulesetOf",
			"inputs": [
				{
					"name": "projectId",
					"type": "uint256",
					"internalType": "uint256"
				}
			],
			"outputs": [
				{
					"name": "ruleset",
					"type": "tuple",
					"internalType": "struct JBRuleset",
					"components": [
						{
							"name": "cycleNumber",
							"type": "uint48",
							"internalType": "uint48"
						},
						{
							"name": "id",
							"type": "uint48",
							"internalType": "uint48"
						},
						{
							"name": "basedOnId",
							"type": "uint48",
							"internalType": "uint48"
						},
						{
							"name": "start",
							"type": "uint48",
							"internalType": "uint48"
						},
						{
							"name": "duration",
							"type": "uint32",
							"internalType": "uint32"
						},
						{
							"name": "weight",
							"type": "uint112",
							"internalType": "uint112"
						},
						{
							"name": "weightCutPercent",
							"type": "uint32",
							"internalType": "uint32"
						},
						{
							"name": "approvalHook",
							"type": "address",
							"internalType": "contract IJBRulesetApprovalHook"
						},
						{
							"name": "metadata",
							"type": "uint256",
							"internalType": "uint256"
						}
					]
				},
				{
					"name": "metadata",
					"type": "tuple",
					"internalType": "struct JBRulesetMetadata",
					"components": [
						{
							"name": "reservedPercent",
							"type": "uint16",
							"internalType": "uint16"
						},
						{
							"name": "cashOutTaxRate",
							"type": "uint16",
							"internalType": "uint16"
						},
						{
							"name": "baseCurrency",
							"type": "uint32",
							"internalType": "uint32"
						},
						{
							"name": "pausePay",
							"type": "bool",
							"internalType": "bool"
						},
						{
							"name": "pauseCreditTransfers",
							"type": "bool",
							"internalType": "bool"
						},
						{
							"name": "allowOwnerMinting",
							"type": "bool",
							"internalType": "bool"
						},
						{
							"name": "allowSetCustomToken",
							"type": "bool",
							"internalType": "bool"
						},
						{
							"name": "allowTerminalMigration",
							"type": "bool",
							"internalType": "bool"
						},
						{
							"name": "allowSetTerminals",
							"type": "bool",
							"internalType": "bool"
						},
						{
							"name": "allowSetController",
							"type": "bool",
							"internalType": "bool"
						},
						{
							"name": "allowAddAccountingContext",
							"type": "bool",
							"internalType": "bool"
						},
						{
							"name": "allowAddPriceFeed",
							"type": "bool",
							"internalType": "bool"
						},
						{
							"name": "ownerMustSendPayouts",
							"type": "bool",
							"internalType": "bool"
						},
						{
							"name": "holdFees",
							"type": "bool",
							"internalType": "bool"
						},
						{
							"name": "scopeCashOutsToLocalBalances",
							"type": "bool",
							"internalType": "bool"
						},
						{
							"name": "useDataHookForPay",
							"type": "bool",
							"internalType": "bool"
						},
						{
							"name": "useDataHookForCashOut",
							"type": "bool",
							"internalType": "bool"
						},
						{
							"name": "dataHook",
							"type": "address",
							"internalType": "address"
						},
						{
							"name": "metadata",
							"type": "uint16",
							"internalType": "uint16"
						}
					]
				}
			],
			"stateMutability": "view"
		},
		{
			"type": "function",
			"name": "deployERC20For",
			"inputs": [
				{
					"name": "projectId",
					"type": "uint256",
					"internalType": "uint256"
				},
				{
					"name": "name",
					"type": "string",
					"internalType": "string"
				},
				{
					"name": "symbol",
					"type": "string",
					"internalType": "string"
				},
				{
					"name": "salt",
					"type": "bytes32",
					"internalType": "bytes32"
				}
			],
			"outputs": [
				{
					"name": "token",
					"type": "address",
					"internalType": "contract IJBToken"
				}
			],
			"stateMutability": "nonpayable"
		},
		{
			"type": "function",
			"name": "executePayReservedTokenToTerminal",
			"inputs": [
				{
					"name": "terminal",
					"type": "address",
					"internalType": "contract IJBTerminal"
				},
				{
					"name": "projectId",
					"type": "uint256",
					"internalType": "uint256"
				},
				{
					"name": "token",
					"type": "address",
					"internalType": "contract IJBToken"
				},
				{
					"name": "splitTokenCount",
					"type": "uint256",
					"internalType": "uint256"
				},
				{
					"name": "beneficiary",
					"type": "address",
					"internalType": "address"
				},
				{
					"name": "metadata",
					"type": "bytes",
					"internalType": "bytes"
				}
			],
			"outputs": [],
			"stateMutability": "nonpayable"
		},
		{
			"type": "function",
			"name": "getRulesetOf",
			"inputs": [
				{
					"name": "projectId",
					"type": "uint256",
					"internalType": "uint256"
				},
				{
					"name": "rulesetId",
					"type": "uint256",
					"internalType": "uint256"
				}
			],
			"outputs": [
				{
					"name": "ruleset",
					"type": "tuple",
					"internalType": "struct JBRuleset",
					"components": [
						{
							"name": "cycleNumber",
							"type": "uint48",
							"internalType": "uint48"
						},
						{
							"name": "id",
							"type": "uint48",
							"internalType": "uint48"
						},
						{
							"name": "basedOnId",
							"type": "uint48",
							"internalType": "uint48"
						},
						{
							"name": "start",
							"type": "uint48",
							"internalType": "uint48"
						},
						{
							"name": "duration",
							"type": "uint32",
							"internalType": "uint32"
						},
						{
							"name": "weight",
							"type": "uint112",
							"internalType": "uint112"
						},
						{
							"name": "weightCutPercent",
							"type": "uint32",
							"internalType": "uint32"
						},
						{
							"name": "approvalHook",
							"type": "address",
							"internalType": "contract IJBRulesetApprovalHook"
						},
						{
							"name": "metadata",
							"type": "uint256",
							"internalType": "uint256"
						}
					]
				},
				{
					"name": "metadata",
					"type": "tuple",
					"internalType": "struct JBRulesetMetadata",
					"components": [
						{
							"name": "reservedPercent",
							"type": "uint16",
							"internalType": "uint16"
						},
						{
							"name": "cashOutTaxRate",
							"type": "uint16",
							"internalType": "uint16"
						},
						{
							"name": "baseCurrency",
							"type": "uint32",
							"internalType": "uint32"
						},
						{
							"name": "pausePay",
							"type": "bool",
							"internalType": "bool"
						},
						{
							"name": "pauseCreditTransfers",
							"type": "bool",
							"internalType": "bool"
						},
						{
							"name": "allowOwnerMinting",
							"type": "bool",
							"internalType": "bool"
						},
						{
							"name": "allowSetCustomToken",
							"type": "bool",
							"internalType": "bool"
						},
						{
							"name": "allowTerminalMigration",
							"type": "bool",
							"internalType": "bool"
						},
						{
							"name": "allowSetTerminals",
							"type": "bool",
							"internalType": "bool"
						},
						{
							"name": "allowSetController",
							"type": "bool",
							"internalType": "bool"
						},
						{
							"name": "allowAddAccountingContext",
							"type": "bool",
							"internalType": "bool"
						},
						{
							"name": "allowAddPriceFeed",
							"type": "bool",
							"internalType": "bool"
						},
						{
							"name": "ownerMustSendPayouts",
							"type": "bool",
							"internalType": "bool"
						},
						{
							"name": "holdFees",
							"type": "bool",
							"internalType": "bool"
						},
						{
							"name": "scopeCashOutsToLocalBalances",
							"type": "bool",
							"internalType": "bool"
						},
						{
							"name": "useDataHookForPay",
							"type": "bool",
							"internalType": "bool"
						},
						{
							"name": "useDataHookForCashOut",
							"type": "bool",
							"internalType": "bool"
						},
						{
							"name": "dataHook",
							"type": "address",
							"internalType": "address"
						},
						{
							"name": "metadata",
							"type": "uint16",
							"internalType": "uint16"
						}
					]
				}
			],
			"stateMutability": "view"
		},
		{
			"type": "function",
			"name": "isTrustedForwarder",
			"inputs": [
				{
					"name": "forwarder",
					"type": "address",
					"internalType": "address"
				}
			],
			"outputs": [
				{
					"name": "",
					"type": "bool",
					"internalType": "bool"
				}
			],
			"stateMutability": "view"
		},
		{
			"type": "function",
			"name": "latestQueuedRulesetOf",
			"inputs": [
				{
					"name": "projectId",
					"type": "uint256",
					"internalType": "uint256"
				}
			],
			"outputs": [
				{
					"name": "ruleset",
					"type": "tuple",
					"internalType": "struct JBRuleset",
					"components": [
						{
							"name": "cycleNumber",
							"type": "uint48",
							"internalType": "uint48"
						},
						{
							"name": "id",
							"type": "uint48",
							"internalType": "uint48"
						},
						{
							"name": "basedOnId",
							"type": "uint48",
							"internalType": "uint48"
						},
						{
							"name": "start",
							"type": "uint48",
							"internalType": "uint48"
						},
						{
							"name": "duration",
							"type": "uint32",
							"internalType": "uint32"
						},
						{
							"name": "weight",
							"type": "uint112",
							"internalType": "uint112"
						},
						{
							"name": "weightCutPercent",
							"type": "uint32",
							"internalType": "uint32"
						},
						{
							"name": "approvalHook",
							"type": "address",
							"internalType": "contract IJBRulesetApprovalHook"
						},
						{
							"name": "metadata",
							"type": "uint256",
							"internalType": "uint256"
						}
					]
				},
				{
					"name": "metadata",
					"type": "tuple",
					"internalType": "struct JBRulesetMetadata",
					"components": [
						{
							"name": "reservedPercent",
							"type": "uint16",
							"internalType": "uint16"
						},
						{
							"name": "cashOutTaxRate",
							"type": "uint16",
							"internalType": "uint16"
						},
						{
							"name": "baseCurrency",
							"type": "uint32",
							"internalType": "uint32"
						},
						{
							"name": "pausePay",
							"type": "bool",
							"internalType": "bool"
						},
						{
							"name": "pauseCreditTransfers",
							"type": "bool",
							"internalType": "bool"
						},
						{
							"name": "allowOwnerMinting",
							"type": "bool",
							"internalType": "bool"
						},
						{
							"name": "allowSetCustomToken",
							"type": "bool",
							"internalType": "bool"
						},
						{
							"name": "allowTerminalMigration",
							"type": "bool",
							"internalType": "bool"
						},
						{
							"name": "allowSetTerminals",
							"type": "bool",
							"internalType": "bool"
						},
						{
							"name": "allowSetController",
							"type": "bool",
							"internalType": "bool"
						},
						{
							"name": "allowAddAccountingContext",
							"type": "bool",
							"internalType": "bool"
						},
						{
							"name": "allowAddPriceFeed",
							"type": "bool",
							"internalType": "bool"
						},
						{
							"name": "ownerMustSendPayouts",
							"type": "bool",
							"internalType": "bool"
						},
						{
							"name": "holdFees",
							"type": "bool",
							"internalType": "bool"
						},
						{
							"name": "scopeCashOutsToLocalBalances",
							"type": "bool",
							"internalType": "bool"
						},
						{
							"name": "useDataHookForPay",
							"type": "bool",
							"internalType": "bool"
						},
						{
							"name": "useDataHookForCashOut",
							"type": "bool",
							"internalType": "bool"
						},
						{
							"name": "dataHook",
							"type": "address",
							"internalType": "address"
						},
						{
							"name": "metadata",
							"type": "uint16",
							"internalType": "uint16"
						}
					]
				},
				{
					"name": "approvalStatus",
					"type": "uint8",
					"internalType": "enum JBApprovalStatus"
				}
			],
			"stateMutability": "view"
		},
		{
			"type": "function",
			"name": "launchProjectFor",
			"inputs": [
				{
					"name": "owner",
					"type": "address",
					"internalType": "address"
				},
				{
					"name": "projectUri",
					"type": "string",
					"internalType": "string"
				},
				{
					"name": "rulesetConfigurations",
					"type": "tuple[]",
					"internalType": "struct JBRulesetConfig[]",
					"components": [
						{
							"name": "mustStartAtOrAfter",
							"type": "uint48",
							"internalType": "uint48"
						},
						{
							"name": "duration",
							"type": "uint32",
							"internalType": "uint32"
						},
						{
							"name": "weight",
							"type": "uint112",
							"internalType": "uint112"
						},
						{
							"name": "weightCutPercent",
							"type": "uint32",
							"internalType": "uint32"
						},
						{
							"name": "approvalHook",
							"type": "address",
							"internalType": "contract IJBRulesetApprovalHook"
						},
						{
							"name": "metadata",
							"type": "tuple",
							"internalType": "struct JBRulesetMetadata",
							"components": [
								{
									"name": "reservedPercent",
									"type": "uint16",
									"internalType": "uint16"
								},
								{
									"name": "cashOutTaxRate",
									"type": "uint16",
									"internalType": "uint16"
								},
								{
									"name": "baseCurrency",
									"type": "uint32",
									"internalType": "uint32"
								},
								{
									"name": "pausePay",
									"type": "bool",
									"internalType": "bool"
								},
								{
									"name": "pauseCreditTransfers",
									"type": "bool",
									"internalType": "bool"
								},
								{
									"name": "allowOwnerMinting",
									"type": "bool",
									"internalType": "bool"
								},
								{
									"name": "allowSetCustomToken",
									"type": "bool",
									"internalType": "bool"
								},
								{
									"name": "allowTerminalMigration",
									"type": "bool",
									"internalType": "bool"
								},
								{
									"name": "allowSetTerminals",
									"type": "bool",
									"internalType": "bool"
								},
								{
									"name": "allowSetController",
									"type": "bool",
									"internalType": "bool"
								},
								{
									"name": "allowAddAccountingContext",
									"type": "bool",
									"internalType": "bool"
								},
								{
									"name": "allowAddPriceFeed",
									"type": "bool",
									"internalType": "bool"
								},
								{
									"name": "ownerMustSendPayouts",
									"type": "bool",
									"internalType": "bool"
								},
								{
									"name": "holdFees",
									"type": "bool",
									"internalType": "bool"
								},
								{
									"name": "scopeCashOutsToLocalBalances",
									"type": "bool",
									"internalType": "bool"
								},
								{
									"name": "useDataHookForPay",
									"type": "bool",
									"internalType": "bool"
								},
								{
									"name": "useDataHookForCashOut",
									"type": "bool",
									"internalType": "bool"
								},
								{
									"name": "dataHook",
									"type": "address",
									"internalType": "address"
								},
								{
									"name": "metadata",
									"type": "uint16",
									"internalType": "uint16"
								}
							]
						},
						{
							"name": "splitGroups",
							"type": "tuple[]",
							"internalType": "struct JBSplitGroup[]",
							"components": [
								{
									"name": "groupId",
									"type": "uint256",
									"internalType": "uint256"
								},
								{
									"name": "splits",
									"type": "tuple[]",
									"internalType": "struct JBSplit[]",
									"components": [
										{
											"name": "percent",
											"type": "uint32",
											"internalType": "uint32"
										},
										{
											"name": "projectId",
											"type": "uint64",
											"internalType": "uint64"
										},
										{
											"name": "beneficiary",
											"type": "address",
											"internalType": "address payable"
										},
										{
											"name": "preferAddToBalance",
											"type": "bool",
											"internalType": "bool"
										},
										{
											"name": "lockedUntil",
											"type": "uint48",
											"internalType": "uint48"
										},
										{
											"name": "hook",
											"type": "address",
											"internalType": "contract IJBSplitHook"
										}
									]
								}
							]
						},
						{
							"name": "fundAccessLimitGroups",
							"type": "tuple[]",
							"internalType": "struct JBFundAccessLimitGroup[]",
							"components": [
								{
									"name": "terminal",
									"type": "address",
									"internalType": "address"
								},
								{
									"name": "token",
									"type": "address",
									"internalType": "address"
								},
								{
									"name": "payoutLimits",
									"type": "tuple[]",
									"internalType": "struct JBCurrencyAmount[]",
									"components": [
										{
											"name": "amount",
											"type": "uint224",
											"internalType": "uint224"
										},
										{
											"name": "currency",
											"type": "uint32",
											"internalType": "uint32"
										}
									]
								},
								{
									"name": "surplusAllowances",
									"type": "tuple[]",
									"internalType": "struct JBCurrencyAmount[]",
									"components": [
										{
											"name": "amount",
											"type": "uint224",
											"internalType": "uint224"
										},
										{
											"name": "currency",
											"type": "uint32",
											"internalType": "uint32"
										}
									]
								}
							]
						}
					]
				},
				{
					"name": "terminalConfigurations",
					"type": "tuple[]",
					"internalType": "struct JBTerminalConfig[]",
					"components": [
						{
							"name": "terminal",
							"type": "address",
							"internalType": "contract IJBTerminal"
						},
						{
							"name": "accountingContextsToAccept",
							"type": "tuple[]",
							"internalType": "struct JBAccountingContext[]",
							"components": [
								{
									"name": "token",
									"type": "address",
									"internalType": "address"
								},
								{
									"name": "decimals",
									"type": "uint8",
									"internalType": "uint8"
								},
								{
									"name": "currency",
									"type": "uint32",
									"internalType": "uint32"
								}
							]
						}
					]
				},
				{
					"name": "memo",
					"type": "string",
					"internalType": "string"
				}
			],
			"outputs": [
				{
					"name": "projectId",
					"type": "uint256",
					"internalType": "uint256"
				}
			],
			"stateMutability": "payable"
		},
		{
			"type": "function",
			"name": "launchRulesetsFor",
			"inputs": [
				{
					"name": "projectId",
					"type": "uint256",
					"internalType": "uint256"
				},
				{
					"name": "projectUri",
					"type": "string",
					"internalType": "string"
				},
				{
					"name": "rulesetConfigurations",
					"type": "tuple[]",
					"internalType": "struct JBRulesetConfig[]",
					"components": [
						{
							"name": "mustStartAtOrAfter",
							"type": "uint48",
							"internalType": "uint48"
						},
						{
							"name": "duration",
							"type": "uint32",
							"internalType": "uint32"
						},
						{
							"name": "weight",
							"type": "uint112",
							"internalType": "uint112"
						},
						{
							"name": "weightCutPercent",
							"type": "uint32",
							"internalType": "uint32"
						},
						{
							"name": "approvalHook",
							"type": "address",
							"internalType": "contract IJBRulesetApprovalHook"
						},
						{
							"name": "metadata",
							"type": "tuple",
							"internalType": "struct JBRulesetMetadata",
							"components": [
								{
									"name": "reservedPercent",
									"type": "uint16",
									"internalType": "uint16"
								},
								{
									"name": "cashOutTaxRate",
									"type": "uint16",
									"internalType": "uint16"
								},
								{
									"name": "baseCurrency",
									"type": "uint32",
									"internalType": "uint32"
								},
								{
									"name": "pausePay",
									"type": "bool",
									"internalType": "bool"
								},
								{
									"name": "pauseCreditTransfers",
									"type": "bool",
									"internalType": "bool"
								},
								{
									"name": "allowOwnerMinting",
									"type": "bool",
									"internalType": "bool"
								},
								{
									"name": "allowSetCustomToken",
									"type": "bool",
									"internalType": "bool"
								},
								{
									"name": "allowTerminalMigration",
									"type": "bool",
									"internalType": "bool"
								},
								{
									"name": "allowSetTerminals",
									"type": "bool",
									"internalType": "bool"
								},
								{
									"name": "allowSetController",
									"type": "bool",
									"internalType": "bool"
								},
								{
									"name": "allowAddAccountingContext",
									"type": "bool",
									"internalType": "bool"
								},
								{
									"name": "allowAddPriceFeed",
									"type": "bool",
									"internalType": "bool"
								},
								{
									"name": "ownerMustSendPayouts",
									"type": "bool",
									"internalType": "bool"
								},
								{
									"name": "holdFees",
									"type": "bool",
									"internalType": "bool"
								},
								{
									"name": "scopeCashOutsToLocalBalances",
									"type": "bool",
									"internalType": "bool"
								},
								{
									"name": "useDataHookForPay",
									"type": "bool",
									"internalType": "bool"
								},
								{
									"name": "useDataHookForCashOut",
									"type": "bool",
									"internalType": "bool"
								},
								{
									"name": "dataHook",
									"type": "address",
									"internalType": "address"
								},
								{
									"name": "metadata",
									"type": "uint16",
									"internalType": "uint16"
								}
							]
						},
						{
							"name": "splitGroups",
							"type": "tuple[]",
							"internalType": "struct JBSplitGroup[]",
							"components": [
								{
									"name": "groupId",
									"type": "uint256",
									"internalType": "uint256"
								},
								{
									"name": "splits",
									"type": "tuple[]",
									"internalType": "struct JBSplit[]",
									"components": [
										{
											"name": "percent",
											"type": "uint32",
											"internalType": "uint32"
										},
										{
											"name": "projectId",
											"type": "uint64",
											"internalType": "uint64"
										},
										{
											"name": "beneficiary",
											"type": "address",
											"internalType": "address payable"
										},
										{
											"name": "preferAddToBalance",
											"type": "bool",
											"internalType": "bool"
										},
										{
											"name": "lockedUntil",
											"type": "uint48",
											"internalType": "uint48"
										},
										{
											"name": "hook",
											"type": "address",
											"internalType": "contract IJBSplitHook"
										}
									]
								}
							]
						},
						{
							"name": "fundAccessLimitGroups",
							"type": "tuple[]",
							"internalType": "struct JBFundAccessLimitGroup[]",
							"components": [
								{
									"name": "terminal",
									"type": "address",
									"internalType": "address"
								},
								{
									"name": "token",
									"type": "address",
									"internalType": "address"
								},
								{
									"name": "payoutLimits",
									"type": "tuple[]",
									"internalType": "struct JBCurrencyAmount[]",
									"components": [
										{
											"name": "amount",
											"type": "uint224",
											"internalType": "uint224"
										},
										{
											"name": "currency",
											"type": "uint32",
											"internalType": "uint32"
										}
									]
								},
								{
									"name": "surplusAllowances",
									"type": "tuple[]",
									"internalType": "struct JBCurrencyAmount[]",
									"components": [
										{
											"name": "amount",
											"type": "uint224",
											"internalType": "uint224"
										},
										{
											"name": "currency",
											"type": "uint32",
											"internalType": "uint32"
										}
									]
								}
							]
						}
					]
				},
				{
					"name": "terminalConfigurations",
					"type": "tuple[]",
					"internalType": "struct JBTerminalConfig[]",
					"components": [
						{
							"name": "terminal",
							"type": "address",
							"internalType": "contract IJBTerminal"
						},
						{
							"name": "accountingContextsToAccept",
							"type": "tuple[]",
							"internalType": "struct JBAccountingContext[]",
							"components": [
								{
									"name": "token",
									"type": "address",
									"internalType": "address"
								},
								{
									"name": "decimals",
									"type": "uint8",
									"internalType": "uint8"
								},
								{
									"name": "currency",
									"type": "uint32",
									"internalType": "uint32"
								}
							]
						}
					]
				},
				{
					"name": "memo",
					"type": "string",
					"internalType": "string"
				}
			],
			"outputs": [
				{
					"name": "rulesetId",
					"type": "uint256",
					"internalType": "uint256"
				}
			],
			"stateMutability": "nonpayable"
		},
		{
			"type": "function",
			"name": "migrate",
			"inputs": [
				{
					"name": "projectId",
					"type": "uint256",
					"internalType": "uint256"
				},
				{
					"name": "to",
					"type": "address",
					"internalType": "contract IERC165"
				}
			],
			"outputs": [],
			"stateMutability": "nonpayable"
		},
		{
			"type": "function",
			"name": "mintTokensOf",
			"inputs": [
				{
					"name": "projectId",
					"type": "uint256",
					"internalType": "uint256"
				},
				{
					"name": "tokenCount",
					"type": "uint256",
					"internalType": "uint256"
				},
				{
					"name": "beneficiary",
					"type": "address",
					"internalType": "address"
				},
				{
					"name": "memo",
					"type": "string",
					"internalType": "string"
				},
				{
					"name": "useReservedPercent",
					"type": "bool",
					"internalType": "bool"
				}
			],
			"outputs": [
				{
					"name": "beneficiaryTokenCount",
					"type": "uint256",
					"internalType": "uint256"
				}
			],
			"stateMutability": "nonpayable"
		},
		{
			"type": "function",
			"name": "pendingReservedTokenBalanceOf",
			"inputs": [
				{
					"name": "projectId",
					"type": "uint256",
					"internalType": "uint256"
				}
			],
			"outputs": [
				{
					"name": "",
					"type": "uint256",
					"internalType": "uint256"
				}
			],
			"stateMutability": "view"
		},
		{
			"type": "function",
			"name": "previewMintOf",
			"inputs": [
				{
					"name": "projectId",
					"type": "uint256",
					"internalType": "uint256"
				},
				{
					"name": "tokenCount",
					"type": "uint256",
					"internalType": "uint256"
				},
				{
					"name": "useReservedPercent",
					"type": "bool",
					"internalType": "bool"
				}
			],
			"outputs": [
				{
					"name": "beneficiaryTokenCount",
					"type": "uint256",
					"internalType": "uint256"
				},
				{
					"name": "reservedTokenCount",
					"type": "uint256",
					"internalType": "uint256"
				}
			],
			"stateMutability": "view"
		},
		{
			"type": "function",
			"name": "queueRulesetsOf",
			"inputs": [
				{
					"name": "projectId",
					"type": "uint256",
					"internalType": "uint256"
				},
				{
					"name": "rulesetConfigurations",
					"type": "tuple[]",
					"internalType": "struct JBRulesetConfig[]",
					"components": [
						{
							"name": "mustStartAtOrAfter",
							"type": "uint48",
							"internalType": "uint48"
						},
						{
							"name": "duration",
							"type": "uint32",
							"internalType": "uint32"
						},
						{
							"name": "weight",
							"type": "uint112",
							"internalType": "uint112"
						},
						{
							"name": "weightCutPercent",
							"type": "uint32",
							"internalType": "uint32"
						},
						{
							"name": "approvalHook",
							"type": "address",
							"internalType": "contract IJBRulesetApprovalHook"
						},
						{
							"name": "metadata",
							"type": "tuple",
							"internalType": "struct JBRulesetMetadata",
							"components": [
								{
									"name": "reservedPercent",
									"type": "uint16",
									"internalType": "uint16"
								},
								{
									"name": "cashOutTaxRate",
									"type": "uint16",
									"internalType": "uint16"
								},
								{
									"name": "baseCurrency",
									"type": "uint32",
									"internalType": "uint32"
								},
								{
									"name": "pausePay",
									"type": "bool",
									"internalType": "bool"
								},
								{
									"name": "pauseCreditTransfers",
									"type": "bool",
									"internalType": "bool"
								},
								{
									"name": "allowOwnerMinting",
									"type": "bool",
									"internalType": "bool"
								},
								{
									"name": "allowSetCustomToken",
									"type": "bool",
									"internalType": "bool"
								},
								{
									"name": "allowTerminalMigration",
									"type": "bool",
									"internalType": "bool"
								},
								{
									"name": "allowSetTerminals",
									"type": "bool",
									"internalType": "bool"
								},
								{
									"name": "allowSetController",
									"type": "bool",
									"internalType": "bool"
								},
								{
									"name": "allowAddAccountingContext",
									"type": "bool",
									"internalType": "bool"
								},
								{
									"name": "allowAddPriceFeed",
									"type": "bool",
									"internalType": "bool"
								},
								{
									"name": "ownerMustSendPayouts",
									"type": "bool",
									"internalType": "bool"
								},
								{
									"name": "holdFees",
									"type": "bool",
									"internalType": "bool"
								},
								{
									"name": "scopeCashOutsToLocalBalances",
									"type": "bool",
									"internalType": "bool"
								},
								{
									"name": "useDataHookForPay",
									"type": "bool",
									"internalType": "bool"
								},
								{
									"name": "useDataHookForCashOut",
									"type": "bool",
									"internalType": "bool"
								},
								{
									"name": "dataHook",
									"type": "address",
									"internalType": "address"
								},
								{
									"name": "metadata",
									"type": "uint16",
									"internalType": "uint16"
								}
							]
						},
						{
							"name": "splitGroups",
							"type": "tuple[]",
							"internalType": "struct JBSplitGroup[]",
							"components": [
								{
									"name": "groupId",
									"type": "uint256",
									"internalType": "uint256"
								},
								{
									"name": "splits",
									"type": "tuple[]",
									"internalType": "struct JBSplit[]",
									"components": [
										{
											"name": "percent",
											"type": "uint32",
											"internalType": "uint32"
										},
										{
											"name": "projectId",
											"type": "uint64",
											"internalType": "uint64"
										},
										{
											"name": "beneficiary",
											"type": "address",
											"internalType": "address payable"
										},
										{
											"name": "preferAddToBalance",
											"type": "bool",
											"internalType": "bool"
										},
										{
											"name": "lockedUntil",
											"type": "uint48",
											"internalType": "uint48"
										},
										{
											"name": "hook",
											"type": "address",
											"internalType": "contract IJBSplitHook"
										}
									]
								}
							]
						},
						{
							"name": "fundAccessLimitGroups",
							"type": "tuple[]",
							"internalType": "struct JBFundAccessLimitGroup[]",
							"components": [
								{
									"name": "terminal",
									"type": "address",
									"internalType": "address"
								},
								{
									"name": "token",
									"type": "address",
									"internalType": "address"
								},
								{
									"name": "payoutLimits",
									"type": "tuple[]",
									"internalType": "struct JBCurrencyAmount[]",
									"components": [
										{
											"name": "amount",
											"type": "uint224",
											"internalType": "uint224"
										},
										{
											"name": "currency",
											"type": "uint32",
											"internalType": "uint32"
										}
									]
								},
								{
									"name": "surplusAllowances",
									"type": "tuple[]",
									"internalType": "struct JBCurrencyAmount[]",
									"components": [
										{
											"name": "amount",
											"type": "uint224",
											"internalType": "uint224"
										},
										{
											"name": "currency",
											"type": "uint32",
											"internalType": "uint32"
										}
									]
								}
							]
						}
					]
				},
				{
					"name": "memo",
					"type": "string",
					"internalType": "string"
				}
			],
			"outputs": [
				{
					"name": "rulesetId",
					"type": "uint256",
					"internalType": "uint256"
				}
			],
			"stateMutability": "nonpayable"
		},
		{
			"type": "function",
			"name": "sendReservedTokensToSplitsOf",
			"inputs": [
				{
					"name": "projectId",
					"type": "uint256",
					"internalType": "uint256"
				}
			],
			"outputs": [
				{
					"name": "",
					"type": "uint256",
					"internalType": "uint256"
				}
			],
			"stateMutability": "nonpayable"
		},
		{
			"type": "function",
			"name": "setControllerAllowed",
			"inputs": [
				{
					"name": "projectId",
					"type": "uint256",
					"internalType": "uint256"
				}
			],
			"outputs": [
				{
					"name": "",
					"type": "bool",
					"internalType": "bool"
				}
			],
			"stateMutability": "view"
		},
		{
			"type": "function",
			"name": "setSplitGroupsOf",
			"inputs": [
				{
					"name": "projectId",
					"type": "uint256",
					"internalType": "uint256"
				},
				{
					"name": "rulesetId",
					"type": "uint256",
					"internalType": "uint256"
				},
				{
					"name": "splitGroups",
					"type": "tuple[]",
					"internalType": "struct JBSplitGroup[]",
					"components": [
						{
							"name": "groupId",
							"type": "uint256",
							"internalType": "uint256"
						},
						{
							"name": "splits",
							"type": "tuple[]",
							"internalType": "struct JBSplit[]",
							"components": [
								{
									"name": "percent",
									"type": "uint32",
									"internalType": "uint32"
								},
								{
									"name": "projectId",
									"type": "uint64",
									"internalType": "uint64"
								},
								{
									"name": "beneficiary",
									"type": "address",
									"internalType": "address payable"
								},
								{
									"name": "preferAddToBalance",
									"type": "bool",
									"internalType": "bool"
								},
								{
									"name": "lockedUntil",
									"type": "uint48",
									"internalType": "uint48"
								},
								{
									"name": "hook",
									"type": "address",
									"internalType": "contract IJBSplitHook"
								}
							]
						}
					]
				}
			],
			"outputs": [],
			"stateMutability": "nonpayable"
		},
		{
			"type": "function",
			"name": "setTerminalsAllowed",
			"inputs": [
				{
					"name": "projectId",
					"type": "uint256",
					"internalType": "uint256"
				}
			],
			"outputs": [
				{
					"name": "",
					"type": "bool",
					"internalType": "bool"
				}
			],
			"stateMutability": "view"
		},
		{
			"type": "function",
			"name": "setTokenFor",
			"inputs": [
				{
					"name": "projectId",
					"type": "uint256",
					"internalType": "uint256"
				},
				{
					"name": "token",
					"type": "address",
					"internalType": "contract IJBToken"
				}
			],
			"outputs": [],
			"stateMutability": "nonpayable"
		},
		{
			"type": "function",
			"name": "setTokenMetadataOf",
			"inputs": [
				{
					"name": "projectId",
					"type": "uint256",
					"internalType": "uint256"
				},
				{
					"name": "name",
					"type": "string",
					"internalType": "string"
				},
				{
					"name": "symbol",
					"type": "string",
					"internalType": "string"
				}
			],
			"outputs": [],
			"stateMutability": "nonpayable"
		},
		{
			"type": "function",
			"name": "setUriOf",
			"inputs": [
				{
					"name": "projectId",
					"type": "uint256",
					"internalType": "uint256"
				},
				{
					"name": "uri",
					"type": "string",
					"internalType": "string"
				}
			],
			"outputs": [],
			"stateMutability": "nonpayable"
		},
		{
			"type": "function",
			"name": "supportsInterface",
			"inputs": [
				{
					"name": "interfaceId",
					"type": "bytes4",
					"internalType": "bytes4"
				}
			],
			"outputs": [
				{
					"name": "",
					"type": "bool",
					"internalType": "bool"
				}
			],
			"stateMutability": "pure"
		},
		{
			"type": "function",
			"name": "totalTokenSupplyWithReservedTokensOf",
			"inputs": [
				{
					"name": "projectId",
					"type": "uint256",
					"internalType": "uint256"
				}
			],
			"outputs": [
				{
					"name": "",
					"type": "uint256",
					"internalType": "uint256"
				}
			],
			"stateMutability": "view"
		},
		{
			"type": "function",
			"name": "transferCreditsFrom",
			"inputs": [
				{
					"name": "holder",
					"type": "address",
					"internalType": "address"
				},
				{
					"name": "projectId",
					"type": "uint256",
					"internalType": "uint256"
				},
				{
					"name": "recipient",
					"type": "address",
					"internalType": "address"
				},
				{
					"name": "creditCount",
					"type": "uint256",
					"internalType": "uint256"
				}
			],
			"outputs": [],
			"stateMutability": "nonpayable"
		},
		{
			"type": "function",
			"name": "trustedForwarder",
			"inputs": [],
			"outputs": [
				{
					"name": "",
					"type": "address",
					"internalType": "address"
				}
			],
			"stateMutability": "view"
		},
		{
			"type": "function",
			"name": "upcomingRulesetOf",
			"inputs": [
				{
					"name": "projectId",
					"type": "uint256",
					"internalType": "uint256"
				}
			],
			"outputs": [
				{
					"name": "ruleset",
					"type": "tuple",
					"internalType": "struct JBRuleset",
					"components": [
						{
							"name": "cycleNumber",
							"type": "uint48",
							"internalType": "uint48"
						},
						{
							"name": "id",
							"type": "uint48",
							"internalType": "uint48"
						},
						{
							"name": "basedOnId",
							"type": "uint48",
							"internalType": "uint48"
						},
						{
							"name": "start",
							"type": "uint48",
							"internalType": "uint48"
						},
						{
							"name": "duration",
							"type": "uint32",
							"internalType": "uint32"
						},
						{
							"name": "weight",
							"type": "uint112",
							"internalType": "uint112"
						},
						{
							"name": "weightCutPercent",
							"type": "uint32",
							"internalType": "uint32"
						},
						{
							"name": "approvalHook",
							"type": "address",
							"internalType": "contract IJBRulesetApprovalHook"
						},
						{
							"name": "metadata",
							"type": "uint256",
							"internalType": "uint256"
						}
					]
				},
				{
					"name": "metadata",
					"type": "tuple",
					"internalType": "struct JBRulesetMetadata",
					"components": [
						{
							"name": "reservedPercent",
							"type": "uint16",
							"internalType": "uint16"
						},
						{
							"name": "cashOutTaxRate",
							"type": "uint16",
							"internalType": "uint16"
						},
						{
							"name": "baseCurrency",
							"type": "uint32",
							"internalType": "uint32"
						},
						{
							"name": "pausePay",
							"type": "bool",
							"internalType": "bool"
						},
						{
							"name": "pauseCreditTransfers",
							"type": "bool",
							"internalType": "bool"
						},
						{
							"name": "allowOwnerMinting",
							"type": "bool",
							"internalType": "bool"
						},
						{
							"name": "allowSetCustomToken",
							"type": "bool",
							"internalType": "bool"
						},
						{
							"name": "allowTerminalMigration",
							"type": "bool",
							"internalType": "bool"
						},
						{
							"name": "allowSetTerminals",
							"type": "bool",
							"internalType": "bool"
						},
						{
							"name": "allowSetController",
							"type": "bool",
							"internalType": "bool"
						},
						{
							"name": "allowAddAccountingContext",
							"type": "bool",
							"internalType": "bool"
						},
						{
							"name": "allowAddPriceFeed",
							"type": "bool",
							"internalType": "bool"
						},
						{
							"name": "ownerMustSendPayouts",
							"type": "bool",
							"internalType": "bool"
						},
						{
							"name": "holdFees",
							"type": "bool",
							"internalType": "bool"
						},
						{
							"name": "scopeCashOutsToLocalBalances",
							"type": "bool",
							"internalType": "bool"
						},
						{
							"name": "useDataHookForPay",
							"type": "bool",
							"internalType": "bool"
						},
						{
							"name": "useDataHookForCashOut",
							"type": "bool",
							"internalType": "bool"
						},
						{
							"name": "dataHook",
							"type": "address",
							"internalType": "address"
						},
						{
							"name": "metadata",
							"type": "uint16",
							"internalType": "uint16"
						}
					]
				}
			],
			"stateMutability": "view"
		},
		{
			"type": "function",
			"name": "uriOf",
			"inputs": [
				{
					"name": "projectId",
					"type": "uint256",
					"internalType": "uint256"
				}
			],
			"outputs": [
				{
					"name": "",
					"type": "string",
					"internalType": "string"
				}
			],
			"stateMutability": "view"
		},
		{
			"type": "event",
			"name": "BurnTokens",
			"inputs": [
				{
					"name": "holder",
					"type": "address",
					"indexed": true,
					"internalType": "address"
				},
				{
					"name": "projectId",
					"type": "uint256",
					"indexed": true,
					"internalType": "uint256"
				},
				{
					"name": "tokenCount",
					"type": "uint256",
					"indexed": false,
					"internalType": "uint256"
				},
				{
					"name": "memo",
					"type": "string",
					"indexed": false,
					"internalType": "string"
				},
				{
					"name": "caller",
					"type": "address",
					"indexed": false,
					"internalType": "address"
				}
			],
			"anonymous": false
		},
		{
			"type": "event",
			"name": "DeployERC20",
			"inputs": [
				{
					"name": "projectId",
					"type": "uint256",
					"indexed": true,
					"internalType": "uint256"
				},
				{
					"name": "deployer",
					"type": "address",
					"indexed": true,
					"internalType": "address"
				},
				{
					"name": "salt",
					"type": "bytes32",
					"indexed": false,
					"internalType": "bytes32"
				},
				{
					"name": "saltHash",
					"type": "bytes32",
					"indexed": false,
					"internalType": "bytes32"
				},
				{
					"name": "caller",
					"type": "address",
					"indexed": false,
					"internalType": "address"
				}
			],
			"anonymous": false
		},
		{
			"type": "event",
			"name": "LaunchProject",
			"inputs": [
				{
					"name": "rulesetId",
					"type": "uint256",
					"indexed": false,
					"internalType": "uint256"
				},
				{
					"name": "projectId",
					"type": "uint256",
					"indexed": false,
					"internalType": "uint256"
				},
				{
					"name": "projectUri",
					"type": "string",
					"indexed": false,
					"internalType": "string"
				},
				{
					"name": "memo",
					"type": "string",
					"indexed": false,
					"internalType": "string"
				},
				{
					"name": "caller",
					"type": "address",
					"indexed": false,
					"internalType": "address"
				}
			],
			"anonymous": false
		},
		{
			"type": "event",
			"name": "LaunchRulesets",
			"inputs": [
				{
					"name": "rulesetId",
					"type": "uint256",
					"indexed": false,
					"internalType": "uint256"
				},
				{
					"name": "projectId",
					"type": "uint256",
					"indexed": false,
					"internalType": "uint256"
				},
				{
					"name": "projectUri",
					"type": "string",
					"indexed": false,
					"internalType": "string"
				},
				{
					"name": "memo",
					"type": "string",
					"indexed": false,
					"internalType": "string"
				},
				{
					"name": "caller",
					"type": "address",
					"indexed": false,
					"internalType": "address"
				}
			],
			"anonymous": false
		},
		{
			"type": "event",
			"name": "Migrate",
			"inputs": [
				{
					"name": "projectId",
					"type": "uint256",
					"indexed": true,
					"internalType": "uint256"
				},
				{
					"name": "to",
					"type": "address",
					"indexed": false,
					"internalType": "contract IERC165"
				},
				{
					"name": "caller",
					"type": "address",
					"indexed": false,
					"internalType": "address"
				}
			],
			"anonymous": false
		},
		{
			"type": "event",
			"name": "MintTokens",
			"inputs": [
				{
					"name": "beneficiary",
					"type": "address",
					"indexed": true,
					"internalType": "address"
				},
				{
					"name": "projectId",
					"type": "uint256",
					"indexed": true,
					"internalType": "uint256"
				},
				{
					"name": "tokenCount",
					"type": "uint256",
					"indexed": false,
					"internalType": "uint256"
				},
				{
					"name": "beneficiaryTokenCount",
					"type": "uint256",
					"indexed": false,
					"internalType": "uint256"
				},
				{
					"name": "memo",
					"type": "string",
					"indexed": false,
					"internalType": "string"
				},
				{
					"name": "reservedPercent",
					"type": "uint256",
					"indexed": false,
					"internalType": "uint256"
				},
				{
					"name": "caller",
					"type": "address",
					"indexed": false,
					"internalType": "address"
				}
			],
			"anonymous": false
		},
		{
			"type": "event",
			"name": "QueueRulesets",
			"inputs": [
				{
					"name": "rulesetId",
					"type": "uint256",
					"indexed": false,
					"internalType": "uint256"
				},
				{
					"name": "projectId",
					"type": "uint256",
					"indexed": false,
					"internalType": "uint256"
				},
				{
					"name": "memo",
					"type": "string",
					"indexed": false,
					"internalType": "string"
				},
				{
					"name": "caller",
					"type": "address",
					"indexed": false,
					"internalType": "address"
				}
			],
			"anonymous": false
		},
		{
			"type": "event",
			"name": "ReservedDistributionReverted",
			"inputs": [
				{
					"name": "projectId",
					"type": "uint256",
					"indexed": true,
					"internalType": "uint256"
				},
				{
					"name": "split",
					"type": "tuple",
					"indexed": false,
					"internalType": "struct JBSplit",
					"components": [
						{
							"name": "percent",
							"type": "uint32",
							"internalType": "uint32"
						},
						{
							"name": "projectId",
							"type": "uint64",
							"internalType": "uint64"
						},
						{
							"name": "beneficiary",
							"type": "address",
							"internalType": "address payable"
						},
						{
							"name": "preferAddToBalance",
							"type": "bool",
							"internalType": "bool"
						},
						{
							"name": "lockedUntil",
							"type": "uint48",
							"internalType": "uint48"
						},
						{
							"name": "hook",
							"type": "address",
							"internalType": "contract IJBSplitHook"
						}
					]
				},
				{
					"name": "tokenCount",
					"type": "uint256",
					"indexed": false,
					"internalType": "uint256"
				},
				{
					"name": "reason",
					"type": "bytes",
					"indexed": false,
					"internalType": "bytes"
				},
				{
					"name": "caller",
					"type": "address",
					"indexed": false,
					"internalType": "address"
				}
			],
			"anonymous": false
		},
		{
			"type": "event",
			"name": "SendReservedTokensToSplit",
			"inputs": [
				{
					"name": "projectId",
					"type": "uint256",
					"indexed": true,
					"internalType": "uint256"
				},
				{
					"name": "rulesetId",
					"type": "uint256",
					"indexed": true,
					"internalType": "uint256"
				},
				{
					"name": "groupId",
					"type": "uint256",
					"indexed": true,
					"internalType": "uint256"
				},
				{
					"name": "split",
					"type": "tuple",
					"indexed": false,
					"internalType": "struct JBSplit",
					"components": [
						{
							"name": "percent",
							"type": "uint32",
							"internalType": "uint32"
						},
						{
							"name": "projectId",
							"type": "uint64",
							"internalType": "uint64"
						},
						{
							"name": "beneficiary",
							"type": "address",
							"internalType": "address payable"
						},
						{
							"name": "preferAddToBalance",
							"type": "bool",
							"internalType": "bool"
						},
						{
							"name": "lockedUntil",
							"type": "uint48",
							"internalType": "uint48"
						},
						{
							"name": "hook",
							"type": "address",
							"internalType": "contract IJBSplitHook"
						}
					]
				},
				{
					"name": "tokenCount",
					"type": "uint256",
					"indexed": false,
					"internalType": "uint256"
				},
				{
					"name": "caller",
					"type": "address",
					"indexed": false,
					"internalType": "address"
				}
			],
			"anonymous": false
		},
		{
			"type": "event",
			"name": "SendReservedTokensToSplits",
			"inputs": [
				{
					"name": "rulesetId",
					"type": "uint256",
					"indexed": true,
					"internalType": "uint256"
				},
				{
					"name": "rulesetCycleNumber",
					"type": "uint256",
					"indexed": true,
					"internalType": "uint256"
				},
				{
					"name": "projectId",
					"type": "uint256",
					"indexed": true,
					"internalType": "uint256"
				},
				{
					"name": "owner",
					"type": "address",
					"indexed": false,
					"internalType": "address"
				},
				{
					"name": "tokenCount",
					"type": "uint256",
					"indexed": false,
					"internalType": "uint256"
				},
				{
					"name": "leftoverAmount",
					"type": "uint256",
					"indexed": false,
					"internalType": "uint256"
				},
				{
					"name": "caller",
					"type": "address",
					"indexed": false,
					"internalType": "address"
				}
			],
			"anonymous": false
		},
		{
			"type": "event",
			"name": "SetUri",
			"inputs": [
				{
					"name": "projectId",
					"type": "uint256",
					"indexed": true,
					"internalType": "uint256"
				},
				{
					"name": "uri",
					"type": "string",
					"indexed": false,
					"internalType": "string"
				},
				{
					"name": "caller",
					"type": "address",
					"indexed": false,
					"internalType": "address"
				}
			],
			"anonymous": false
		},
		{
			"type": "event",
			"name": "SplitHookReverted",
			"inputs": [
				{
					"name": "projectId",
					"type": "uint256",
					"indexed": true,
					"internalType": "uint256"
				},
				{
					"name": "hook",
					"type": "address",
					"indexed": false,
					"internalType": "address"
				},
				{
					"name": "reason",
					"type": "bytes",
					"indexed": false,
					"internalType": "bytes"
				},
				{
					"name": "caller",
					"type": "address",
					"indexed": false,
					"internalType": "address"
				}
			],
			"anonymous": false
		},
		{
			"type": "error",
			"name": "JBController_AddingPriceFeedNotAllowed",
			"inputs": [
				{
					"name": "projectId",
					"type": "uint256",
					"internalType": "uint256"
				}
			]
		},
		{
			"type": "error",
			"name": "JBController_CreditTransfersPaused",
			"inputs": [
				{
					"name": "projectId",
					"type": "uint256",
					"internalType": "uint256"
				},
				{
					"name": "rulesetId",
					"type": "uint256",
					"internalType": "uint256"
				}
			]
		},
		{
			"type": "error",
			"name": "JBController_InvalidCashOutTaxRate",
			"inputs": [
				{
					"name": "rate",
					"type": "uint256",
					"internalType": "uint256"
				},
				{
					"name": "limit",
					"type": "uint256",
					"internalType": "uint256"
				}
			]
		},
		{
			"type": "error",
			"name": "JBController_InvalidCreationFee",
			"inputs": [
				{
					"name": "value",
					"type": "uint256",
					"internalType": "uint256"
				},
				{
					"name": "requiredFee",
					"type": "uint256",
					"internalType": "uint256"
				}
			]
		},
		{
			"type": "error",
			"name": "JBController_InvalidReservedPercent",
			"inputs": [
				{
					"name": "percent",
					"type": "uint256",
					"internalType": "uint256"
				},
				{
					"name": "limit",
					"type": "uint256",
					"internalType": "uint256"
				}
			]
		},
		{
			"type": "error",
			"name": "JBController_MintNotAllowedAndNotTerminalOrHook",
			"inputs": [
				{
					"name": "caller",
					"type": "address",
					"internalType": "address"
				}
			]
		},
		{
			"type": "error",
			"name": "JBController_NoReservedTokens",
			"inputs": [
				{
					"name": "projectId",
					"type": "uint256",
					"internalType": "uint256"
				}
			]
		},
		{
			"type": "error",
			"name": "JBController_OnlyDirectory",
			"inputs": [
				{
					"name": "sender",
					"type": "address",
					"internalType": "address"
				},
				{
					"name": "directory",
					"type": "address",
					"internalType": "contract IJBDirectory"
				}
			]
		},
		{
			"type": "error",
			"name": "JBController_PendingReservedTokens",
			"inputs": [
				{
					"name": "pendingReservedTokenBalance",
					"type": "uint256",
					"internalType": "uint256"
				}
			]
		},
		{
			"type": "error",
			"name": "JBController_ReservedTokenSplitProjectSameAsOwner",
			"inputs": [
				{
					"name": "projectId",
					"type": "uint256",
					"internalType": "uint256"
				}
			]
		},
		{
			"type": "error",
			"name": "JBController_RulesetSetTokenNotAllowed",
			"inputs": [
				{
					"name": "projectId",
					"type": "uint256",
					"internalType": "uint256"
				}
			]
		},
		{
			"type": "error",
			"name": "JBController_RulesetsAlreadyLaunched",
			"inputs": [
				{
					"name": "projectId",
					"type": "uint256",
					"internalType": "uint256"
				}
			]
		},
		{
			"type": "error",
			"name": "JBController_RulesetsArrayEmpty",
			"inputs": [
				{
					"name": "projectId",
					"type": "uint256",
					"internalType": "uint256"
				},
				{
					"name": "rulesetConfigurationCount",
					"type": "uint256",
					"internalType": "uint256"
				}
			]
		},
		{
			"type": "error",
			"name": "JBController_TerminalTokensNotTransferred",
			"inputs": [
				{
					"name": "terminal",
					"type": "address",
					"internalType": "address"
				},
				{
					"name": "token",
					"type": "address",
					"internalType": "address"
				},
				{
					"name": "allowance",
					"type": "uint256",
					"internalType": "uint256"
				}
			]
		},
		{
			"type": "error",
			"name": "JBController_ZeroTokensToBurn",
			"inputs": [
				{
					"name": "projectId",
					"type": "uint256",
					"internalType": "uint256"
				},
				{
					"name": "holder",
					"type": "address",
					"internalType": "address"
				}
			]
		},
		{
			"type": "error",
			"name": "JBController_ZeroTokensToMint",
			"inputs": [
				{
					"name": "projectId",
					"type": "uint256",
					"internalType": "uint256"
				},
				{
					"name": "beneficiary",
					"type": "address",
					"internalType": "address"
				}
			]
		},
		{
			"type": "error",
			"name": "JBPermissioned_Unauthorized",
			"inputs": [
				{
					"name": "account",
					"type": "address",
					"internalType": "address"
				},
				{
					"name": "sender",
					"type": "address",
					"internalType": "address"
				},
				{
					"name": "projectId",
					"type": "uint256",
					"internalType": "uint256"
				},
				{
					"name": "permissionId",
					"type": "uint256",
					"internalType": "uint256"
				}
			]
		},
		{
			"type": "error",
			"name": "PRBMath_MulDiv_Overflow",
			"inputs": [
				{
					"name": "x",
					"type": "uint256",
					"internalType": "uint256"
				},
				{
					"name": "y",
					"type": "uint256",
					"internalType": "uint256"
				},
				{
					"name": "denominator",
					"type": "uint256",
					"internalType": "uint256"
				}
			]
		},
		{
			"type": "error",
			"name": "SafeERC20FailedOperation",
			"inputs": [
				{
					"name": "token",
					"type": "address",
					"internalType": "address"
				}
			]
		}
	],
	"args": [
		"0xC8F09F7d39519256E1D335CD34a0cef08f84517E",
		"0x62E0Fd6E3Eb57A02aF6ef2fad373531A0e01A79a",
		"0x86D026787cDf76A573C9A04BBF675B6d63F29a2b",
		"0x5e864a25c4A171763aaF9Ae42Ad9a168bea06c8B",
		"0xD3f29a60e475ff72bC7bdac96D8FE5872fB1F4B0",
		"0x2ef89fE68eAff097D32e91774707f790a1De2c0C",
		"0xc9302Ad31C3B205225078416C98A1518EA797Ddc",
		"0x5dD7E0a4FD3607F7bF6a31F43f06538c362ED4A7",
		"0xE199e87292985E8Ee582B43AC5BCa3B3F404D25F",
		"0x256efB99e8ca40E7a3d793fC3006A5C1c90956c2"
	],
	"solcInputHash": "bc47179ab6240f03087caf306c4659c7",
	"bytecode": "0x6101c0604052348015610010575f5ffd5b5060405161607738038061607783398101604081905261002f916100a0565b6001600160a01b03978816608052871660a05297861660c05295851660e052928416610100529083166101205282166101405281166101605290811661018052166101a05261016e565b6001600160a01b038116811461008d575f5ffd5b50565b805161009b81610079565b919050565b5f5f5f5f5f5f5f5f5f5f6101408b8d0312156100ba575f5ffd5b8a516100c581610079565b60208c0151909a506100d681610079565b60408c01519099506100e781610079565b60608c01519098506100f881610079565b60808c015190975061010981610079565b60a08c015190965061011a81610079565b60c08c015190955061012b81610079565b60e08c015190945061013c81610079565b6101008c015190935061014e81610079565b915061015d6101208c01610090565b90509295989b9194979a5092959850565b60805160a05160c05160e05161010051610120516101405161016051610180516101a051615d666103115f395f81816103c501528181610afd0152610bc901525f81816102b401528181610a5601528181610f3b0152818161109d015281816116ab0152818161183901528181611b5101528181611fdb015281816120fc015281816122ef0152818161308e015281816132bb015281816135b801526136e701525f81816103320152818161159e01528181612a0b0152612f7a01525f81816107930152818161098f01528181610c6301528181611377015281816118b5015281816128ed01528181612cb20152612e0301525f81816103920152818161112c015281816111f4015261278e01525f81816102ff01526119db01525f81816108940152612a8d01525f818161060e01528181610d2a01528181610e0501528181610e470152818161129f01528181611c7d01528181611cd3015281816120390152818161209e01528181612c5d01528181612d7301526133e801525f81816104ea015281816105a5015261373301525f818161080401526126cc0152615d665ff3fe60806040526004361061023e575f3560e01c80637da0a87711610134578063c1ec61ee116100b3578063f12b64a511610078578063f12b64a5146107d4578063f434c914146107f3578063f600822214610826578063fac3a6a214610845578063fb61b4e314610864578063ffa0824414610883575f5ffd5b8063c1ec61ee14610716578063c6081d7114610744578063c7fb92de14610763578063d4a1b4b114610782578063f0118e18146107b5575f5ffd5b8063a2d532e6116100f9578063a2d532e61461066e578063a312889b1461068d578063b1a50e33146106b9578063b1e6d2a1146106d8578063c02c63ad146106f7575f5ffd5b80637da0a8771461059757806380d3fe35146105c957806388bc2ef3146105fd5780638a36dffd1461063057806399d25a341461064f575f5ffd5b806338945b58116101c0578063572b6c0511610185578063572b6c05146104ce578063581781911461051a5780635c7465e5146105395780636567b4061461054c578063702a397714610578575f5ffd5b806338945b58146104275780633997557114610446578063405b84fa1461047157806341929626146104905780634da781a9146104af575f5ffd5b806325a61d5c1161020657806325a61d5c14610354578063293c4999146103815780632fdb77e9146103b4578063303f5dfa146103e75780633141db7014610408575f5ffd5b806301ffc9a714610242578063090db2f1146102765780631d831d5c146102a35780631eabcd34146102ee5780631f47ce6914610321575b5f5ffd5b34801561024d575f5ffd5b5061026161025c366004613bc2565b6108b6565b60405190151581526020015b60405180910390f35b348015610281575f5ffd5b50610295610290366004613be9565b610958565b60405190815260200161026d565b3480156102ae575f5ffd5b506102d67f000000000000000000000000000000000000000000000000000000000000000081565b6040516001600160a01b03909116815260200161026d565b3480156102f9575f5ffd5b506102d67f000000000000000000000000000000000000000000000000000000000000000081565b34801561032c575f5ffd5b506102d67f000000000000000000000000000000000000000000000000000000000000000081565b34801561035f575f5ffd5b5061037361036e366004613c00565b610962565b60405161026d929190613e78565b34801561038c575f5ffd5b506102d67f000000000000000000000000000000000000000000000000000000000000000081565b3480156103bf575f5ffd5b506102d67f000000000000000000000000000000000000000000000000000000000000000081565b3480156103f2575f5ffd5b50610406610401366004613ebc565b610a15565b005b348015610413575f5ffd5b50610295610422366004613f87565b610ab4565b348015610432575f5ffd5b50610295610441366004613ffe565b610b90565b348015610451575f5ffd5b50610295610460366004613be9565b5f6020819052908152604090205481565b34801561047c575f5ffd5b5061040661048b3660046140d3565b610dfa565b34801561049b575f5ffd5b506103736104aa366004613be9565b610eec565b3480156104ba575f5ffd5b506102956104c9366004613be9565b610f17565b3480156104d9575f5ffd5b506102616104e8366004614101565b7f00000000000000000000000000000000000000000000000000000000000000006001600160a01b0390811691161490565b348015610525575f5ffd5b506102d661053436600461411c565b610fb6565b61029561054736600461419b565b611128565b348015610557575f5ffd5b5061056b6105663660046141d8565b611346565b60405161026d9190614201565b348015610583575f5ffd5b50610406610592366004614264565b6114af565b3480156105a2575f5ffd5b507f00000000000000000000000000000000000000000000000000000000000000006102d6565b3480156105d4575f5ffd5b506105e86105e33660046142c3565b611524565b6040805192835260208301919091520161026d565b348015610608575f5ffd5b506102d67f000000000000000000000000000000000000000000000000000000000000000081565b34801561063b575f5ffd5b5061040661064a3660046142f9565b611573565b34801561065a575f5ffd5b50610261610669366004613be9565b6115d9565b348015610679575f5ffd5b50610406610688366004614347565b6115f6565b348015610698575f5ffd5b506106ac6106a7366004613be9565b611718565b60405161026d91906143bc565b3480156106c4575f5ffd5b506102616106d3366004613be9565b6117af565b3480156106e3575f5ffd5b506104066106f23660046143ce565b6117c7565b348015610702575f5ffd5b50610373610711366004613be9565b611874565b348015610721575f5ffd5b50610735610730366004613be9565b61188d565b60405161026d93929190614413565b34801561074f575f5ffd5b5061040661075e36600461445b565b61193e565b34801561076e575f5ffd5b5061029561077d36600461448e565b611a0a565b34801561078d575f5ffd5b506102d67f000000000000000000000000000000000000000000000000000000000000000081565b3480156107c0575f5ffd5b506104066107cf366004614504565b611c70565b3480156107df575f5ffd5b506104066107ee3660046140d3565b611f47565b3480156107fe575f5ffd5b506102d67f000000000000000000000000000000000000000000000000000000000000000081565b348015610831575f5ffd5b50610406610840366004614504565b612037565b348015610850575f5ffd5b5061040661085f36600461452e565b6120d1565b34801561086f575f5ffd5b5061040661087e36600461456a565b612139565b34801561088e575f5ffd5b506102d67f000000000000000000000000000000000000000000000000000000000000000081565b5f6001600160e01b03198216630756feb760e51b14806108e657506001600160e01b031982166334ce2c7b60e21b145b8061090157506001600160e01b03198216632877540760e01b145b8061091c57506001600160e01b031982166301192a2360e61b145b8061093757506001600160e01b03198216633d0d324560e21b145b8061095257506001600160e01b031982166301ffc9a760e01b145b92915050565b5f6109528261227d565b61096a613ab7565b610972613b02565b604051630969875760e21b815260048101859052602481018490527f00000000000000000000000000000000000000000000000000000000000000006001600160a01b0316906325a61d5c9060440161012060405180830381865afa1580156109dd573d5f5f3e3d5ffd5b505050506040513d601f19601f82011682018060405250810190610a019190614841565b9150610a0c82612427565b90509250929050565b610a218484600c612661565b60405163181faefd60e11b81526001600160a01b038581166004830152602482018590526044820184905282811660648301527f0000000000000000000000000000000000000000000000000000000000000000169063303f5dfa906084015b5f604051808303815f87803b158015610a98575f5ffd5b505af1158015610aaa573d5f5f3e3d5ffd5b5050505050505050565b5f838103610ae457604051633558b79760e21b815260048101879052602481018590526044015b60405180910390fd5b610b34610af087612776565b8760026001600160a01b037f000000000000000000000000000000000000000000000000000000000000000016610b256127ff565b6001600160a01b03161461280d565b610b3f86868661281d565b90507f24d02d612b06648bfa2000859f3de7e6f336139eaf5877c24b0d21320625286281878585610b6e6127ff565b604051610b7f959493929190614884565b60405180910390a195945050505050565b5f858103610bbb57604051633558b79760e21b8152600481018b905260248101879052604401610adb565b5f610bc46127ff565b90505f7f00000000000000000000000000000000000000000000000000000000000000006001600160a01b0316826001600160a01b0316149050610c13610c0a8d612776565b8d60038461280d565b610c28610c1f8d612776565b8d600f8461280d565b8915610c4357610c43610c3a8d612776565b8d60078461280d565b6040516319fade8560e11b8152600481018d90525f906001600160a01b037f000000000000000000000000000000000000000000000000000000000000000016906333f5bd0a90602401602060405180830381865afa158015610ca8573d5f5f3e3d5ffd5b505050506040513d601f19601f82011682018060405250810190610ccc91906148bd565b1115610cee5760405163513eec8160e01b8152600481018d9052602401610adb565b8915610d0e575f8c8152600160205260409020610d0c8b8d83614957565b505b6040516338a73f9960e11b8152600481018d90523060248201527f00000000000000000000000000000000000000000000000000000000000000006001600160a01b03169063714e7f32906044015f604051808303815f87803b158015610d73575f5ffd5b505af1158015610d85573d5f5f3e3d5ffd5b50505050610d948c8888612b26565b610d9f8c8a8a61281d565b92507f8c9d461b22fb3063f8aebc64fc6ca08d8e98aebee1bb8fe17c57dcd091bd90a2838d8d8d8989610dd06127ff565b604051610de39796959493929190614a10565b60405180910390a150509998505050505050505050565b336001600160a01b037f00000000000000000000000000000000000000000000000000000000000000001614610e7457604051639653dbed60e01b81523360048201526001600160a01b037f0000000000000000000000000000000000000000000000000000000000000000166024820152604401610adb565b604080516001600160a01b038316815233602082015283917f01f954abace731a88ab86e71186040cc2be49fe517ea06bc0d24f25b82b83456910160405180910390a25f828152602081905260409020548015610ee757604051633007de8d60e21b815260048101829052602401610adb565b505050565b610ef4613ab7565b610efc613b02565b610f0583612c94565b9150610f1082612427565b9050915091565b5f818152602081905260408082205490516375b0d9cd60e01b8152600481018490527f00000000000000000000000000000000000000000000000000000000000000006001600160a01b0316906375b0d9cd90602401602060405180830381865afa158015610f88573d5f5f3e3d5ffd5b505050506040513d601f19601f82011682018060405250810190610fac91906148bd565b6109529190614a73565b5f610fcb610fc388612776565b886008612661565b5f82610fd7575f611020565b610fdf6127ff565b8360405160200161100992919060609290921b6001600160601b0319168252601482015260340190565b604051602081830303815290604052805190602001205b905061102a6127ff565b6001600160a01b0316887fa05dbc6b81da28529b01c0a1d1166c44ccd67676f06d2441002870ec5bc4a158858461105f6127ff565b6040805193845260208401929092526001600160a01b03169082015260600160405180910390a3604051635817819160e01b81526001600160a01b037f000000000000000000000000000000000000000000000000000000000000000016906358178191906110dc908b908b908b908b908b908990600401614a86565b6020604051808303815f875af11580156110f8573d5f5f3e3d5ffd5b505050506040513d601f19601f8201168201806040525081019061111c9190614ac6565b98975050505050505050565b5f5f7f00000000000000000000000000000000000000000000000000000000000000006001600160a01b031663dce0b4e46040518163ffffffff1660e01b8152600401602060405180830381865afa158015611186573d5f5f3e3d5ffd5b505050506040513d601f19601f820116820180604052508101906111aa91906148bd565b90508034146111d55760405163584f1c4960e01b815234600482015260248101829052604401610adb565b60405163180e2b1160e31b81526001600160a01b038c811660048301527f0000000000000000000000000000000000000000000000000000000000000000169063c071588890839060240160206040518083038185885af115801561123c573d5f5f3e3d5ffd5b50505050506040513d601f19601f8201168201806040525081019061126191906148bd565b91508815611283575f8281526001602052604090206112818a8c83614957565b505b6040516338a73f9960e11b8152600481018390523060248201527f00000000000000000000000000000000000000000000000000000000000000006001600160a01b03169063714e7f32906044015f604051808303815f87803b1580156112e8575f5ffd5b505af11580156112fa573d5f5f3e3d5ffd5b50505050611309828787612b26565b5f611315838a8a61281d565b90507f8dac501f24f52bda9ebdfa6a1789878c1d1e23823c771f7d52b5ba41261b0f4581848d8d8989610dd06127ff565b6040516301fd03bb60e71b81526004810184905260248101839052604481018290526060905f906001600160a01b037f0000000000000000000000000000000000000000000000000000000000000000169063fe81dd80906064015f60405180830381865afa1580156113bb573d5f5f3e3d5ffd5b505050506040513d5f823e601f3d908101601f191682016040526113e29190810190614b03565b8051909150806001600160401b038111156113ff576113ff6145f2565b60405190808252806020026020018201604052801561143857816020015b611425613b9d565b81526020019060019003908161141d5790505b5092505f5b818110156114a5575f83828151811061145857611458614ba4565b60200260200101519050604051806040016040528082815260200161147c83612427565b81525085838151811061149157611491614ba4565b60209081029190910101525060010161143d565b5050509392505050565b6114c36114bb84612776565b846007612661565b5f8381526001602052604090206114db828483614957565b50827f0f3d240fe5efaeda774d27bf0425f932ddd2098297b26de8070d6c8bef534b1683836115086127ff565b60405161151793929190614bb8565b60405180910390a2505050565b5f5f835f0361153757505f90508061156b565b5f61154186612c94565b90506115658585611552575f61155c565b61010083015160041c5b61ffff16612d25565b92509250505b935093915050565b61158761157f85612776565b856013612661565b604051638a36dffd60e01b81526001600160a01b037f00000000000000000000000000000000000000000000000000000000000000001690638a36dffd90610a81908790879087908790600401614c0d565b5f6115eb6115e683612c94565b612427565b610120015192915050565b6116138585600b61160e826116096127ff565b612d4b565b61280d565b825f03611645576040516337f635db60e01b8152600481018590526001600160a01b0386166024820152604401610adb565b83856001600160a01b03167fdf04e13ee4fcd48a81ab2fd114757093740a3efa9b6475d86e05878b4c59d07985858561167c6127ff565b60405161168c9493929190614d98565b60405180910390a360405163124d91e560e01b81526001600160a01b037f0000000000000000000000000000000000000000000000000000000000000000169063124d91e5906116e490889088908890600401614dca565b5f604051808303815f87803b1580156116fb575f5ffd5b505af115801561170d573d5f5f3e3d5ffd5b505050505050505050565b60016020525f908152604090208054611730906148d4565b80601f016020809104026020016040519081016040528092919081815260200182805461175c906148d4565b80156117a75780601f1061177e576101008083540402835291602001916117a7565b820191905f5260205f20905b81548152906001019060200180831161178a57829003601f168201915b505050505081565b5f6117bc6115e683612c94565b610100015192915050565b6117d38484600d612661565b5f6117dd84612c94565b61010081015190915060451c60019081160361182257602081015160405162a1824360e71b81526004810186905265ffffffffffff9091166024820152604401610adb565b60405163b1e6d2a160e01b81526001600160a01b037f0000000000000000000000000000000000000000000000000000000000000000169063b1e6d2a1906116e4908890889088908890600401614deb565b61187c613ab7565b611884613b02565b610f0583612de5565b611895613ab7565b61189d613b02565b60405163855a54ed60e01b8152600481018490525f907f00000000000000000000000000000000000000000000000000000000000000006001600160a01b03169063855a54ed9060240161014060405180830381865afa158015611903573d5f5f3e3d5ffd5b505050506040513d601f19601f820116820180604052508101906119279190614e15565b909350905061193583612427565b91509193909250565b61195261194a85612776565b856014612661565b5f61195c85612c94565b9050806020015165ffffffffffff165f141580156119865750610100810151604c1c600190811614155b156119a7576040516305ed262160e11b815260048101869052602401610adb565b60405163c6081d7160e01b81526004810186905260248101859052604481018490526001600160a01b0383811660648301527f0000000000000000000000000000000000000000000000000000000000000000169063c6081d71906084016116e4565b5f855f03611a3d57604051634e96347960e01b8152600481018890526001600160a01b0386166024820152604401610adb565b5f5f611a4889612c94565b90505f611a536127ff565b90505f611a608b83612d4b565b90505f8180611a88575061010084015160521c6001600160a01b0316836001600160a01b0316145b90505f81158015611a9f5750611a9f8d8686612e3a565b9050611abd611aad8e612776565b8e600a858061160e57508461280d565b602085015165ffffffffffff1615801590611ae4575061010085015160461c600190811614155b8015611aee575081155b8015611af8575080155b15611b215760405163acaa137360e01b81526001600160a01b0385166004820152602401610adb565b87611b2c575f611b36565b61010085015160041c5b61ffff169550611b468c87612d25565b5096508615611be1577f00000000000000000000000000000000000000000000000000000000000000006001600160a01b031663aab68bdb8c8f8a6040518463ffffffff1660e01b8152600401611b9f93929190614dca565b6020604051808303815f875af1158015611bbb573d5f5f3e3d5ffd5b505050506040513d601f19601f82011682018060405250810190611bdf9190614ac6565b505b8c8b6001600160a01b03167fe6fee9c572244c0c2238c3112ac12d411750a7ee00eeebd32521c3e5a666c14b8e8a8e8e8c8b604051611c2596959493929190614e45565b60405180910390a38515611c6057611c3d878d614e87565b5f8e81526020819052604081208054909190611c5a908490614a73565b90915550505b5050505050509695505050505050565b5f611c796127ff565b90507f00000000000000000000000000000000000000000000000000000000000000006001600160a01b0316816001600160a01b031614611d0057604051639653dbed60e01b81526001600160a01b0380831660048301527f0000000000000000000000000000000000000000000000000000000000000000166024820152604401610adb565b6040516301ffc9a760e01b81526334ce2c7b60e21b60048201526001600160a01b038416906301ffc9a790602401602060405180830381865afa158015611d49573d5f5f3e3d5ffd5b505050506040513d601f19601f82011682018060405250810190611d6d9190614e9a565b15611df55760405163a312889b60e01b8152600481018390526001600160a01b0384169063a312889b906024015f60405180830381865afa158015611db4573d5f5f3e3d5ffd5b505050506040513d5f823e601f3d908101601f19168201604052611ddb9190810190614eb5565b5f83815260016020526040902090611df39082614f47565b505b6040516301ffc9a760e01b8152630756feb760e51b60048201526001600160a01b038416906301ffc9a790602401602060405180830381865afa158015611e3e573d5f5f3e3d5ffd5b505050506040513d601f19601f82011682018060405250810190611e629190614e9a565b8015611ed45750604051633997557160e01b8152600481018390525f906001600160a01b03851690633997557190602401602060405180830381865afa158015611eae573d5f5f3e3d5ffd5b505050506040513d601f19601f82011682018060405250810190611ed291906148bd565b115b15610ee75760405163090db2f160e01b8152600481018390526001600160a01b0384169063090db2f1906024016020604051808303815f875af1158015611f1d573d5f5f3e3d5ffd5b505050506040513d601f19601f82011682018060405250810190611f4191906148bd565b50505050565b611f5b611f5383612776565b836009612661565b5f611f6583612c94565b9050806020015165ffffffffffff165f03611f8657611f8383612de5565b90505b61010081015160471c600190811614611fb55760405163fbd30e7b60e01b815260048101849052602401610adb565b60405163f12b64a560e01b8152600481018490526001600160a01b0383811660248301527f0000000000000000000000000000000000000000000000000000000000000000169063f12b64a5906044015f604051808303815f87803b15801561201c575f5ffd5b505af115801561202e573d5f5f3e3d5ffd5b50505050505050565b7f00000000000000000000000000000000000000000000000000000000000000006001600160a01b03166120696127ff565b6001600160a01b0316146120cd5761207f6127ff565b604051639653dbed60e01b81526001600160a01b0391821660048201527f00000000000000000000000000000000000000000000000000000000000000009091166024820152604401610adb565b5050565b6120e56120dd86612776565b866016612661565b60405163995922ed60e01b81526001600160a01b037f0000000000000000000000000000000000000000000000000000000000000000169063995922ed906116e49088908890889088908890600401615001565b333014612144575f5ffd5b6121586001600160a01b0386168886612ed8565b60405163fef4325760e01b81526001600160a01b0388169063fef43257906121909089908990899089905f908a908a9060040161502d565b6020604051808303815f875af11580156121ac573d5f5f3e3d5ffd5b505050506040513d601f19601f820116820180604052508101906121d091906148bd565b50604051636eb1769f60e11b81523060048201526001600160a01b0388811660248301525f919087169063dd62ed3e90604401602060405180830381865afa15801561221e573d5f5f3e3d5ffd5b505050506040513d601f19601f8201168201806040525081019061224291906148bd565b90508015610aaa576040516360b56ab760e01b81526001600160a01b03808a1660048301528716602482015260448101829052606401610adb565b5f81815260208190526040812054908190036122af57604051630197ddfd60e21b815260048101839052602401610adb565b5f6122b983612c94565b90505f6122c584612776565b5f858152602081905260408082208290555163aab68bdb60e01b8152919250906001600160a01b037f0000000000000000000000000000000000000000000000000000000000000000169063aab68bdb9061232890309089908990600401614dca565b6020604051808303815f875af1158015612344573d5f5f3e3d5ffd5b505050506040513d601f19601f820116820180604052508101906123689190614ac6565b90505f84156123905761238b86856020015165ffffffffffff1660018886612f52565b612392565b5f5b905080156123a6576123a6868285856136a8565b85845f015165ffffffffffff16856020015165ffffffffffff167f32411cac611c47cfe73afc187645c9cf3aec828d5f91780138d8421378fc0edb8689866123ec6127ff565b604080516001600160a01b0395861681526020810194909452830191909152909116606082015260800160405180910390a450505050919050565b61242f613b02565b60405180610260016040528061244a84610100015160041c90565b61ffff16815260200161246284610100015160141c90565b61ffff16815260200161247a84610100015160241c90565b63ffffffff16815260200161249c846101000151600160449190911c81161490565b151581526020016124ba846101000151600160459190911c81161490565b151581526020016124d8846101000151600160469190911c81161490565b151581526020016124f6846101000151600160479190911c81161490565b15158152602001612514846101000151600160489190911c81161490565b15158152602001612532846101000151600160499190911c81161490565b151581526020016125508461010001516001604a9190911c81161490565b1515815260200161256e8461010001516001604b9190911c81161490565b1515815260200161258c8461010001516001604c9190911c81161490565b151581526020016125aa8461010001516001604d9190911c81161490565b151581526020016125c88461010001516001604e9190911c81161490565b151581526020016125e68461010001516001604f9190911c81161490565b15158152602001612604846101000151600160509190911c81161490565b15158152602001612622846101000151600160519190911c81161490565b1515815260200161263884610100015160521c90565b6001600160a01b0316815260200161265584610100015160f21c90565b61ffff16905292915050565b5f61266a6127ff565b9050836001600160a01b0316816001600160a01b0316141580156127375750604051631a45b42760e11b81526001600160a01b0382811660048301528581166024830152604482018590526064820184905260016084830181905260a48301527f0000000000000000000000000000000000000000000000000000000000000000169063348b684e9060c401602060405180830381865afa158015612711573d5f5f3e3d5ffd5b505050506040513d601f19601f820116820180604052508101906127359190614e9a565b155b15611f4157604051631326f75560e11b81526001600160a01b038086166004830152821660248201526044810184905260648101839052608401610adb565b6040516331a9108f60e11b8152600481018290525f907f00000000000000000000000000000000000000000000000000000000000000006001600160a01b031690636352211e90602401602060405180830381865afa1580156127db573d5f5f3e3d5ffd5b505050506040513d601f19601f820116820180604052508101906109529190614ac6565b5f612808613722565b905090565b80611f4157611f41848484612661565b5f5f5b82811015612b1e575f84848381811061283b5761283b614ba4565b905060200281019061284d9190615089565b61285690615593565b905061271061ffff168160a001515f015161ffff16111561289f5760a08101515160405163a162453f60e01b815261ffff90911660048201526127106024820152604401610adb565b61271061ffff168160a001516020015161ffff1611156128ea5760a0810151602001516040516318e037d360e11b815261ffff90911660048201526127106024820152604401610adb565b5f7f00000000000000000000000000000000000000000000000000000000000000006001600160a01b03166370174dcc88846020015185604001518660600151876080015161293c8960a0015161378c565b895160405160e089901b6001600160e01b0319168152600481019790975263ffffffff95861660248801526001600160701b0390941660448701529390911660648501526001600160a01b0316608484015260a483019190915265ffffffffffff1660c482015260e401610120604051808303815f875af11580156129c3573d5f5f3e3d5ffd5b505050506040513d601f19601f820116820180604052508101906129e79190614841565b602081015160c0840151604051638a36dffd60e01b81529293506001600160a01b037f00000000000000000000000000000000000000000000000000000000000000001692638a36dffd92612a40928c926004016156c8565b5f604051808303815f87803b158015612a57575f5ffd5b505af1158015612a69573d5f5f3e3d5ffd5b505050602082015160e08401516040516323c620f360e21b81526001600160a01b037f0000000000000000000000000000000000000000000000000000000000000000169350638f1883cc92612ac3928c926004016157df565b5f604051808303815f87803b158015612ada575f5ffd5b505af1158015612aec573d5f5f3e3d5ffd5b50612afe925060019150879050614e87565b8303612b1457806020015165ffffffffffff1693505b5050600101612820565b509392505050565b5f816001600160401b03811115612b3f57612b3f6145f2565b604051908082528060200260200182016040528015612b68578160200160208202803683370190505b5090505f5b82811015612c3f575f848483818110612b8857612b88614ba4565b9050602002810190612b9a9190615895565b612ba3906158a9565b805160208201516040516304a6e43960e31b81529293506001600160a01b039091169163253721c891612bdb918a91906004016159a6565b5f604051808303815f87803b158015612bf2575f5ffd5b505af1158015612c04573d5f5f3e3d5ffd5b50505050805f0151838381518110612c1e57612c1e614ba4565b6001600160a01b039092166020928302919091019091015250600101612b6d565b508115611f415760405163104373fb60e31b81526001600160a01b037f0000000000000000000000000000000000000000000000000000000000000000169063821b9fd890610a819087908590600401615a1e565b612c9c613ab7565b6040516321d1336160e11b8152600481018390527f00000000000000000000000000000000000000000000000000000000000000006001600160a01b0316906343a266c2906024015b61012060405180830381865afa158015612d01573d5f5f3e3d5ffd5b505050506040513d601f19601f820116820180604052508101906109529190614841565b5f80612d3f84612d3785612710614e87565b612710613934565b9150610a0c8285614e87565b604051636e49181f60e01b8152600481018390526001600160a01b0382811660248301525f917f000000000000000000000000000000000000000000000000000000000000000090911690636e49181f90604401602060405180830381865afa158015612dba573d5f5f3e3d5ffd5b505050506040513d601f19601f82011682018060405250810190612dde9190614e9a565b9392505050565b612ded613ab7565b604051631735e2c560e11b8152600481018390527f00000000000000000000000000000000000000000000000000000000000000006001600160a01b031690632e6bc58a90602401612ce5565b5f5f612e4b84610100015160521c90565b90506001600160a01b03811615801590612ecf57506040516399f6d77f60e01b81526001600160a01b038216906399f6d77f90612e9090889088908890600401615a68565b602060405180830381865afa158015612eab573d5f5f3e3d5ffd5b505050506040513d601f19601f82011682018060405250810190612ecf9190614e9a565b95945050505050565b612ee48383835f613a03565b610ee757612ef583835f6001613a03565b612f1d57604051635274afe760e01b81526001600160a01b0384166004820152602401610adb565b612f2a8383836001613a03565b610ee757604051635274afe760e01b81526001600160a01b0384166004820152602401610adb565b6040516369e11cc560e01b815260048101869052602481018590526044810184905282905f907f00000000000000000000000000000000000000000000000000000000000000006001600160a01b0316906369e11cc5906064015f60405180830381865afa158015612fc6573d5f5f3e3d5ffd5b505050506040513d5f823e601f3d908101601f19168201604052612fed9190810190615a97565b80519091505f612ffb6127ff565b90505f5b8281101561369b575f84828151811061301a5761301a614ba4565b602002602001015190505f61304389835f015163ffffffff16633b9aca0063ffffffff16613934565b905080156136535760a08201516001600160a01b03161561333e576001600160a01b0388161561308c5760a0820151613087906001600160a01b038a169083612ed8565b613110565b7f00000000000000000000000000000000000000000000000000000000000000006001600160a01b031663b1e6d2a1308e8560a00151856040518563ffffffff1660e01b81526004016130e29493929190614deb565b5f604051808303815f87803b1580156130f9575f5ffd5b505af115801561310b573d5f5f3e3d5ffd5b505050505b8160a001516001600160a01b031663c5a093886040518060c001604052808b6001600160a01b03168152602001848152602001601281526020018f81526020018d8152602001858152506040518263ffffffff1660e01b81526004016131769190615ba1565b5f604051808303815f87803b15801561318d575f5ffd5b505af192505050801561319e575060015b613213573d8080156131cb576040519150601f19603f3d011682016040523d82523d5f602084013e6131d0565b606091505b508c7f09b03c29883643ac445bae0f9df02778ec19fbead9f9a082254d12fac7c359958460a00151838860405161320993929190615bf5565b60405180910390a2505b6001600160a01b038816156133395760a0820151604051636eb1769f60e11b81523060048201526001600160a01b0391821660248201525f918a169063dd62ed3e90604401602060405180830381865afa158015613273573d5f5f3e3d5ffd5b505050506040513d601f19601f8201168201806040525081019061329791906148bd565b905080156133375760a08301516132b9906001600160a01b038b16905f612ed8565b7f00000000000000000000000000000000000000000000000000000000000000006001600160a01b031663124d91e5308f846040518463ffffffff1660e01b815260040161330993929190614dca565b5f604051808303815f87803b158015613320575f5ffd5b505af1158015613332573d5f5f3e3d5ffd5b505050505b505b613646565b60408201515f906001600160a01b0316613358578461335e565b82604001515b905082602001516001600160401b03165f146135a3578c83602001516001600160401b0316036133a457604051636f4447e560e01b8152600481018e9052602401610adb565b5f6001600160a01b038a1615613456576020840151604051630862026560e41b81526001600160401b0390911660048201526001600160a01b038b811660248301527f00000000000000000000000000000000000000000000000000000000000000001690638620265090604401602060405180830381865afa15801561342d573d5f5f3e3d5ffd5b505050506040513d601f19601f820116820180604052508101906134519190614ac6565b613458565b5f5b90506001600160a01b038a16158061347757506001600160a01b038116155b1561348d576134888e84848d6136a8565b61359d565b5f8e6040516020016134a191815260200190565b6040516020818303038152906040529050306001600160a01b031663fb61b4e38387602001518e8888876040518763ffffffff1660e01b81526004016134ec96959493929190615c30565b5f604051808303815f87803b158015613503575f5ffd5b505af1925050508015613514575060015b61359b573d808015613541576040519150601f19603f3d011682016040523d82523d5f602084013e613546565b606091505b508f7fdba24f3504238ca84f6411d16a14bb7ae54061b0a80892bf93eb5a8912ed73558787848c60405161357d9493929190615c79565b60405180910390a26135996001600160a01b038d168587613a65565b505b505b50613644565b61deac196001600160a01b03821601613638577f00000000000000000000000000000000000000000000000000000000000000006001600160a01b031663124d91e5308f856040518463ffffffff1660e01b815260040161360693929190614dca565b5f604051808303815f87803b15801561361d575f5ffd5b505af115801561362f573d5f5f3e3d5ffd5b50505050613644565b6136448d83838c6136a8565b505b6136508188614e87565b96505b898b8d7fbfcad5a78fa104a30927810dfb51a41d1119d43ce12be27620ab589e1273cebe85858960405161368993929190615cba565b60405180910390a45050600101612fff565b5050505095945050505050565b6001600160a01b038116156136d0576136cb6001600160a01b0382168385613a65565b611f41565b60405163b1e6d2a160e01b81526001600160a01b037f0000000000000000000000000000000000000000000000000000000000000000169063b1e6d2a190610a81903090889087908990600401614deb565b5f36601480821080159061375e57507f00000000000000000000000000000000000000000000000000000000000000006001600160a01b031633145b156137845761377136828403815f615ce8565b61377a91615d0f565b60601c9250505090565b339250505090565b5f600190506004825f015161ffff16901b811790506014826020015161ffff16901b811790506024826040015163ffffffff16901b811790508160600151156137db5768100000000000000000175b8160800151156137f15768200000000000000000175b8160a00151156138075768400000000000000000175b8160c001511561381d5768800000000000000000175b8160e0015115613834576901000000000000000000175b8161010001511561384c576902000000000000000000175b81610120015115613864576904000000000000000000175b8161014001511561387c576908000000000000000000175b81610160015115613894576910000000000000000000175b816101800151156138ac576920000000000000000000175b816101a00151156138c4576940000000000000000000175b816101c00151156138dc576980000000000000000000175b816101e00151156138ee57600160501b175b8161020001511561390057600160511b175b6102208201516102409092015160529290921b600160521b600160f21b03161760f29190911b6001600160f21b0319161790565b5f80805f19858709858702925082811083820303915050805f0361396b5783828161396157613961615d45565b0492505050612dde565b83811061399c57604051630c740aef60e31b8152600481018790526024810186905260448101859052606401610adb565b5f8486880960026001871981018816978890046003810283188082028403028082028403028082028403028082028403028082028403029081029092039091025f889003889004909101858311909403939093029303949094049190911702949350505050565b60405163095ea7b360e01b5f8181526001600160a01b038616600452602485905291602083604481808b5af1925060015f51148316613a59578383151615613a4d573d5f823e3d81fd5b5f873b113d1516831692505b60405250949350505050565b612f2a838383600160405163a9059cbb60e01b5f8181526001600160a01b038616600452602485905291602083604481808b5af1925060015f51148316613a59578383151615613a4d573d5f823e3d81fd5b60408051610120810182525f80825260208201819052918101829052606081018290526080810182905260a0810182905260c0810182905260e0810182905261010081019190915290565b60408051610260810182525f80825260208201819052918101829052606081018290526080810182905260a0810182905260c0810182905260e08101829052610100810182905261012081018290526101408101829052610160810182905261018081018290526101a081018290526101c081018290526101e081018290526102008101829052610220810182905261024081019190915290565b6040518060400160405280613bb0613ab7565b8152602001613bbd613b02565b905290565b5f60208284031215613bd2575f5ffd5b81356001600160e01b031981168114612dde575f5ffd5b5f60208284031215613bf9575f5ffd5b5035919050565b5f5f60408385031215613c11575f5ffd5b50508035926020909101359150565b65ffffffffffff815116825265ffffffffffff60208201511660208301526040810151613c57604084018265ffffffffffff169052565b506060810151613c71606084018265ffffffffffff169052565b506080810151613c89608084018263ffffffff169052565b5060a0810151613ca460a08401826001600160701b03169052565b5060c0810151613cbc60c084018263ffffffff169052565b5060e0810151613cd760e08401826001600160a01b03169052565b5061010090810151910152565b805161ffff1682526020810151613d01602084018261ffff169052565b506040810151613d19604084018263ffffffff169052565b506060810151613d2d606084018215159052565b506080810151613d41608084018215159052565b5060a0810151613d5560a084018215159052565b5060c0810151613d6960c084018215159052565b5060e0810151613d7d60e084018215159052565b50610100810151613d9361010084018215159052565b50610120810151613da961012084018215159052565b50610140810151613dbf61014084018215159052565b50610160810151613dd561016084018215159052565b50610180810151613deb61018084018215159052565b506101a0810151613e016101a084018215159052565b506101c0810151613e176101c084018215159052565b506101e0810151613e2d6101e084018215159052565b50610200810151613e4361020084018215159052565b50610220810151613e606102208401826001600160a01b03169052565b50610240810151610ee761024084018261ffff169052565b6103808101613e878285613c20565b612dde610120830184613ce4565b6001600160a01b0381168114613ea9575f5ffd5b50565b8035613eb781613e95565b919050565b5f5f5f5f60808587031215613ecf575f5ffd5b8435613eda81613e95565b935060208501359250604085013591506060850135613ef881613e95565b939692955090935050565b5f5f83601f840112613f13575f5ffd5b5081356001600160401b03811115613f29575f5ffd5b6020830191508360208260051b8501011115613f43575f5ffd5b9250929050565b5f5f83601f840112613f5a575f5ffd5b5081356001600160401b03811115613f70575f5ffd5b602083019150836020828501011115613f43575f5ffd5b5f5f5f5f5f60608688031215613f9b575f5ffd5b8535945060208601356001600160401b03811115613fb7575f5ffd5b613fc388828901613f03565b90955093505060408601356001600160401b03811115613fe1575f5ffd5b613fed88828901613f4a565b969995985093965092949392505050565b5f5f5f5f5f5f5f5f5f60a08a8c031215614016575f5ffd5b8935985060208a01356001600160401b03811115614032575f5ffd5b61403e8c828d01613f4a565b90995097505060408a01356001600160401b0381111561405c575f5ffd5b6140688c828d01613f03565b90975095505060608a01356001600160401b03811115614086575f5ffd5b6140928c828d01613f03565b90955093505060808a01356001600160401b038111156140b0575f5ffd5b6140bc8c828d01613f4a565b915080935050809150509295985092959850929598565b5f5f604083850312156140e4575f5ffd5b8235915060208301356140f681613e95565b809150509250929050565b5f60208284031215614111575f5ffd5b8135612dde81613e95565b5f5f5f5f5f5f60808789031215614131575f5ffd5b8635955060208701356001600160401b0381111561414d575f5ffd5b61415989828a01613f4a565b90965094505060408701356001600160401b03811115614177575f5ffd5b61418389828a01613f4a565b979a9699509497949695606090950135949350505050565b5f5f5f5f5f5f5f5f5f60a08a8c0312156141b3575f5ffd5b89356141be81613e95565b985060208a01356001600160401b03811115614032575f5ffd5b5f5f5f606084860312156141ea575f5ffd5b505081359360208301359350604090920135919050565b602080825282518282018190525f918401906040840190835b8181101561425957835161422f848251613c20565b60200151614241610120850182613ce4565b5060209390930192610380929092019160010161421a565b509095945050505050565b5f5f5f60408486031215614276575f5ffd5b8335925060208401356001600160401b03811115614292575f5ffd5b61429e86828701613f4a565b9497909650939450505050565b8015158114613ea9575f5ffd5b8035613eb7816142ab565b5f5f5f606084860312156142d5575f5ffd5b833592506020840135915060408401356142ee816142ab565b809150509250925092565b5f5f5f5f6060858703121561430c575f5ffd5b843593506020850135925060408501356001600160401b0381111561432f575f5ffd5b61433b87828801613f03565b95989497509550505050565b5f5f5f5f5f6080868803121561435b575f5ffd5b853561436681613e95565b9450602086013593506040860135925060608601356001600160401b03811115613fe1575f5ffd5b5f81518084528060208401602086015e5f602082860101526020601f19601f83011685010191505092915050565b602081525f612dde602083018461438e565b5f5f5f5f608085870312156143e1575f5ffd5b84356143ec81613e95565b935060208501359250604085013561440381613e95565b9396929550929360600135925050565b6103a081016144228286613c20565b614430610120830185613ce4565b6006831061444c57634e487b7160e01b5f52602160045260245ffd5b82610380830152949350505050565b5f5f5f5f6080858703121561446e575f5ffd5b8435935060208501359250604085013591506060850135613ef881613e95565b5f5f5f5f5f5f60a087890312156144a3575f5ffd5b863595506020870135945060408701356144bc81613e95565b935060608701356001600160401b038111156144d6575f5ffd5b6144e289828a01613f4a565b90945092505060808701356144f6816142ab565b809150509295509295509295565b5f5f60408385031215614515575f5ffd5b823561452081613e95565b946020939093013593505050565b5f5f5f5f5f60608688031215614542575f5ffd5b8535945060208601356001600160401b0381111561455e575f5ffd5b613fc388828901613f4a565b5f5f5f5f5f5f5f60c0888a031215614580575f5ffd5b873561458b81613e95565b96506020880135955060408801356145a281613e95565b94506060880135935060808801356145b981613e95565b925060a08801356001600160401b038111156145d3575f5ffd5b6145df8a828b01613f4a565b989b979a50959850939692959293505050565b634e487b7160e01b5f52604160045260245ffd5b60405161012081016001600160401b0381118282101715614629576146296145f2565b60405290565b60405161026081016001600160401b0381118282101715614629576146296145f2565b604080519081016001600160401b0381118282101715614629576146296145f2565b60405160c081016001600160401b0381118282101715614629576146296145f2565b604051608081016001600160401b0381118282101715614629576146296145f2565b60405161010081016001600160401b0381118282101715614629576146296145f2565b604051606081016001600160401b0381118282101715614629576146296145f2565b604051601f8201601f191681016001600160401b0381118282101715614725576147256145f2565b604052919050565b65ffffffffffff81168114613ea9575f5ffd5b8051613eb78161472d565b63ffffffff81168114613ea9575f5ffd5b8051613eb78161474b565b6001600160701b0381168114613ea9575f5ffd5b8051613eb781614767565b8051613eb781613e95565b5f61012082840312156147a2575f5ffd5b6147aa614606565b90506147b582614740565b81526147c360208301614740565b60208201526147d460408301614740565b60408201526147e560608301614740565b60608201526147f66080830161475c565b608082015261480760a0830161477b565b60a082015261481860c0830161475c565b60c082015261482960e08301614786565b60e08201526101009182015191810191909152919050565b5f6101208284031215614852575f5ffd5b612dde8383614791565b81835281816020850137505f828201602090810191909152601f909101601f19169091010190565b858152846020820152608060408201525f6148a360808301858761485c565b905060018060a01b03831660608301529695505050505050565b5f602082840312156148cd575f5ffd5b5051919050565b600181811c908216806148e857607f821691505b60208210810361490657634e487b7160e01b5f52602260045260245ffd5b50919050565b601f821115610ee757805f5260205f20601f840160051c810160208510156149315750805b601f840160051c820191505b81811015614950575f815560010161493d565b5050505050565b6001600160401b0383111561496e5761496e6145f2565b6149828361497c83546148d4565b8361490c565b5f601f8411600181146149b3575f851561499c5750838201355b5f19600387901b1c1916600186901b178355614950565b5f83815260208120601f198716915b828110156149e257868501358255602094850194600190920191016149c2565b50868210156149fe575f1960f88860031b161c19848701351681555b505060018560011b0183555050505050565b87815286602082015260a060408201525f614a2f60a08301878961485c565b8281036060840152614a4281868861485c565b91505060018060a01b038316608083015298975050505050505050565b634e487b7160e01b5f52601160045260245ffd5b8082018082111561095257610952614a5f565b868152608060208201525f614a9f60808301878961485c565b8281036040840152614ab281868861485c565b915050826060830152979650505050505050565b5f60208284031215614ad6575f5ffd5b8151612dde81613e95565b5f6001600160401b03821115614af957614af96145f2565b5060051b60200190565b5f60208284031215614b13575f5ffd5b81516001600160401b03811115614b28575f5ffd5b8201601f81018413614b38575f5ffd5b8051614b4b614b4682614ae1565b6146fd565b8082825260208201915060206101208402850101925086831115614b6d575f5ffd5b6020840193505b82841015614b9a57614b868785614791565b825260208201915061012084019350614b74565b9695505050505050565b634e487b7160e01b5f52603260045260245ffd5b604081525f614bcb60408301858761485c565b905060018060a01b0383166020830152949350505050565b8035613eb78161474b565b6001600160401b0381168114613ea9575f5ffd5b8035613eb78161472d565b5f60608201868352856020840152606060408401528084825260808401905060808560051b8501019150855f603e19883603015b87821015614d8957868503607f190184528235818112614c5f575f5ffd5b89018035865260408601602082013536839003601e19018112614c80575f5ffd5b6020920191820191356001600160401b03811115614c9c575f5ffd5b60c081023603831315614cad575f5ffd5b60406020890152908190525f90606088015b81831015614d6d578335614cd28161474b565b63ffffffff1681526020840135614ce881614bee565b6001600160401b031660208201526040840135614d0481613e95565b6001600160a01b031660408201526060840135614d20816142ab565b15156060820152614d3360808501614c02565b65ffffffffffff166080820152614d4c60a08501613eac565b6001600160a01b031660a082015260c0938401936001939093019201614cbf565b9750505060209485019493909301925060019190910190614c41565b50929998505050505050505050565b848152606060208201525f614db160608301858761485c565b905060018060a01b038316604083015295945050505050565b6001600160a01b039390931683526020830191909152604082015260600190565b6001600160a01b039485168152602081019390935292166040820152606081019190915260800190565b5f5f6101408385031215614e27575f5ffd5b614e318484614791565b9150610120830151600681106140f6575f5ffd5b86815285602082015260a060408201525f614e6460a08301868861485c565b6060830194909452506001600160a01b0391909116608090910152949350505050565b8181038181111561095257610952614a5f565b5f60208284031215614eaa575f5ffd5b8151612dde816142ab565b5f60208284031215614ec5575f5ffd5b81516001600160401b03811115614eda575f5ffd5b8201601f81018413614eea575f5ffd5b80516001600160401b03811115614f0357614f036145f2565b614f16601f8201601f19166020016146fd565b818152856020838501011115614f2a575f5ffd5b8160208401602083015e5f91810160200191909152949350505050565b81516001600160401b03811115614f6057614f606145f2565b614f7481614f6e84546148d4565b8461490c565b6020601f821160018114614fa6575f8315614f8f5750848201515b5f19600385901b1c1916600184901b178455614950565b5f84815260208120601f198516915b82811015614fd55787850151825560209485019460019092019101614fb5565b5084821015614ff257868401515f19600387901b60f8161c191681555b50505050600190811b01905550565b858152606060208201525f61501a60608301868861485c565b828103604084015261111c81858761485c565b8781526001600160a01b03878116602083015260408201879052851660608201526080810184905260e060a082018190525f90820181905261010060c0830181905261507c908301848661485c565b9998505050505050505050565b5f823561033e1983360301811261509e575f5ffd5b9190910192915050565b8035613eb781614767565b803561ffff81168114613eb7575f5ffd5b5f61026082840312156150d5575f5ffd5b6150dd61462f565b90506150e8826150b3565b81526150f6602083016150b3565b602082015261510760408301614be3565b6040820152615118606083016142b8565b6060820152615129608083016142b8565b608082015261513a60a083016142b8565b60a082015261514b60c083016142b8565b60c082015261515c60e083016142b8565b60e082015261516e61010083016142b8565b61010082015261518161012083016142b8565b61012082015261519461014083016142b8565b6101408201526151a761016083016142b8565b6101608201526151ba61018083016142b8565b6101808201526151cd6101a083016142b8565b6101a08201526151e06101c083016142b8565b6101c08201526151f36101e083016142b8565b6101e082015261520661020083016142b8565b6102008201526152196102208301613eac565b61022082015261522c61024083016150b3565b61024082015292915050565b5f82601f830112615247575f5ffd5b8135615255614b4682614ae1565b8082825260208201915060208360051b860101925085831115615276575f5ffd5b602085015b838110156153df5780356001600160401b03811115615298575f5ffd5b86016040818903601f190112156152ad575f5ffd5b6152b5614652565b6020820135815260408201356001600160401b038111156152d4575f5ffd5b60208184010192505088601f8301126152eb575f5ffd5b81356152f9614b4682614ae1565b80828252602082019150602060c0840286010192508b83111561531a575f5ffd5b6020850194505b828510156153c05760c0858d031215615338575f5ffd5b615340614674565b853561534b8161474b565b8152602086013561535b81614bee565b6020820152604086013561536e81613e95565b60408201526060860135615381816142ab565b606082015260808601356153948161472d565b608082015260a08601356153a781613e95565b60a0820152825260c09490940193602090910190615321565b806020850152505050808552505060208301925060208101905061527b565b5095945050505050565b5f82601f8301126153f8575f5ffd5b8135615406614b4682614ae1565b8082825260208201915060208360061b860101925085831115615427575f5ffd5b602085015b838110156153df5760408188031215615443575f5ffd5b61544b614652565b81356001600160e01b0381168114615461575f5ffd5b815260208201356154718161474b565b602082810191909152908452929092019160400161542c565b5f82601f830112615499575f5ffd5b81356154a7614b4682614ae1565b8082825260208201915060208360051b8601019250858311156154c8575f5ffd5b602085015b838110156153df5780356001600160401b038111156154ea575f5ffd5b86016080818903601f190112156154ff575f5ffd5b615507614696565b602082013561551581613e95565b8152604082013561552581613e95565b602082015260608201356001600160401b03811115615542575f5ffd5b6155518a6020838601016153e9565b60408301525060808201356001600160401b0381111561556f575f5ffd5b61557e8a6020838601016153e9565b606083015250845250602092830192016154cd565b5f61034082360312156155a4575f5ffd5b6155ac6146b8565b6155b583614c02565b81526155c360208401614be3565b60208201526155d4604084016150a8565b60408201526155e560608401614be3565b60608201526155f660808401613eac565b60808201526156083660a085016150c4565b60a08201526103008301356001600160401b03811115615626575f5ffd5b61563236828601615238565b60c0830152506103208301356001600160401b03811115615651575f5ffd5b61565d3682860161548a565b60e08301525092915050565b805163ffffffff1682526020808201516001600160401b0316908301526040808201516001600160a01b039081169184019190915260608083015115159084015260808083015165ffffffffffff169084015260a09182015116910152565b5f6060820185835265ffffffffffff851660208401526060604084015280845180835260808501915060808160051b8601019250602086015f5b8281101561577c57868503607f19018452815180518652602090810151604082880181905281519088018190529101905f9060608801905b808310156157645761574d828551615669565b60c08201915060208401935060018301925061573a565b50965050506020938401939190910190600101615702565b509298975050505050505050565b5f8151808452602084019350602083015f5b828110156157d557815180516001600160e01b0316875260209081015163ffffffff16818801526040909601959091019060010161579c565b5093949350505050565b5f6060820185835265ffffffffffff851660208401526060604084015280845180835260808501915060808160051b8601019250602086015f5b8281101561577c57868503607f19018452815180516001600160a01b039081168752602080830151909116908701526040808201516080918801829052906158639088018261578a565b905060608201519150868103606088015261587e818361578a565b965050506020938401939190910190600101615819565b5f8235603e1983360301811261509e575f5ffd5b5f604082360312156158b9575f5ffd5b6158c1614652565b82356158cc81613e95565b815260208301356001600160401b038111156158e6575f5ffd5b830136601f8201126158f6575f5ffd5b8035615904614b4682614ae1565b80828252602082019150602060608402850101925036831115615925575f5ffd5b6020840193505b828410156159975760608436031215615943575f5ffd5b61594b6146db565b843561595681613e95565b8152602085013560ff8116811461596b575f5ffd5b6020820152604085013561597e8161474b565b604082015282526060939093019260209091019061592c565b60208501525091949350505050565b5f60408201848352604060208401528084518083526060850191506020860192505f5b81811015615a1257835180516001600160a01b0316845260208082015160ff168186015260409182015163ffffffff1691850191909152909301926060909201916001016159c9565b50909695505050505050565b5f60408201848352604060208401528084518083526060850191506020860192505f5b81811015615a125783516001600160a01b0316835260209384019390920191600101615a41565b8381526101608101615a7d6020830185613c20565b6001600160a01b0392909216610140919091015292915050565b5f60208284031215615aa7575f5ffd5b81516001600160401b03811115615abc575f5ffd5b8201601f81018413615acc575f5ffd5b8051615ada614b4682614ae1565b80828252602082019150602060c08402850101925086831115615afb575f5ffd5b6020840193505b82841015614b9a5760c08488031215615b19575f5ffd5b615b21614674565b8451615b2c8161474b565b81526020850151615b3c81614bee565b60208201526040850151615b4f81613e95565b60408201526060850151615b62816142ab565b60608201526080850151615b758161472d565b608082015260a0850151615b8881613e95565b60a0820152825260c09390930192602090910190615b02565b81516001600160a01b031681526020808301519082015260408083015190820152606080830151908201526080808301519082015260a082810151610160830191615bee90840182615669565b5092915050565b6001600160a01b03841681526060602082018190525f90615c189083018561438e565b905060018060a01b0383166040830152949350505050565b6001600160a01b0387811682526001600160401b03871660208301528581166040830152606082018590528316608082015260c060a082018190525f9061111c9083018461438e565b615c838186615669565b8360c082015261012060e08201525f615ca061012083018561438e565b905060018060a01b03831661010083015295945050505050565b6101008101615cc98286615669565b60c08201939093526001600160a01b039190911660e090910152919050565b5f5f85851115615cf6575f5ffd5b83861115615d02575f5ffd5b5050820193919092039150565b80356001600160601b03198116906014841015615bee576001600160601b031960149490940360031b84901b1690921692915050565b634e487b7160e01b5f52601260045260245ffdfea164736f6c634300081c000a",
	"gitCommit": "npm:@bananapus/core-v6@0.0.87",
	"gitDirty": false,
	"history": []
}