{
	"format": "sphinx-sol-ct-artifact-1",
	"address": "0x130f5dd2bd8805443cf41755253d778a75a67f53",
	"sourceName": "node_modules/@bananapus/core-v6/src/JBMultiTerminal.sol",
	"contractName": "JBMultiTerminal",
	"chainId": "0xaa37dc",
	"abi": [
		{
			"type": "constructor",
			"inputs": [
				{
					"name": "feelessAddresses",
					"type": "address",
					"internalType": "contract IJBFeelessAddresses"
				},
				{
					"name": "permissions",
					"type": "address",
					"internalType": "contract IJBPermissions"
				},
				{
					"name": "projects",
					"type": "address",
					"internalType": "contract IJBProjects"
				},
				{
					"name": "splits",
					"type": "address",
					"internalType": "contract IJBSplits"
				},
				{
					"name": "store",
					"type": "address",
					"internalType": "contract IJBTerminalStore"
				},
				{
					"name": "tokens",
					"type": "address",
					"internalType": "contract IJBTokens"
				},
				{
					"name": "permit2",
					"type": "address",
					"internalType": "contract IPermit2"
				},
				{
					"name": "trustedForwarder",
					"type": "address",
					"internalType": "address"
				}
			],
			"stateMutability": "nonpayable"
		},
		{
			"type": "function",
			"name": "DIRECTORY",
			"inputs": [],
			"outputs": [
				{
					"name": "",
					"type": "address",
					"internalType": "contract IJBDirectory"
				}
			],
			"stateMutability": "view"
		},
		{
			"type": "function",
			"name": "FEELESS_ADDRESSES",
			"inputs": [],
			"outputs": [
				{
					"name": "",
					"type": "address",
					"internalType": "contract IJBFeelessAddresses"
				}
			],
			"stateMutability": "view"
		},
		{
			"type": "function",
			"name": "PERMISSIONS",
			"inputs": [],
			"outputs": [
				{
					"name": "",
					"type": "address",
					"internalType": "contract IJBPermissions"
				}
			],
			"stateMutability": "view"
		},
		{
			"type": "function",
			"name": "PERMIT2",
			"inputs": [],
			"outputs": [
				{
					"name": "",
					"type": "address",
					"internalType": "contract IPermit2"
				}
			],
			"stateMutability": "view"
		},
		{
			"type": "function",
			"name": "PROJECTS",
			"inputs": [],
			"outputs": [
				{
					"name": "",
					"type": "address",
					"internalType": "contract IJBProjects"
				}
			],
			"stateMutability": "view"
		},
		{
			"type": "function",
			"name": "SPLITS",
			"inputs": [],
			"outputs": [
				{
					"name": "",
					"type": "address",
					"internalType": "contract IJBSplits"
				}
			],
			"stateMutability": "view"
		},
		{
			"type": "function",
			"name": "STORE",
			"inputs": [],
			"outputs": [
				{
					"name": "",
					"type": "address",
					"internalType": "contract IJBTerminalStore"
				}
			],
			"stateMutability": "view"
		},
		{
			"type": "function",
			"name": "TOKENS",
			"inputs": [],
			"outputs": [
				{
					"name": "",
					"type": "address",
					"internalType": "contract IJBTokens"
				}
			],
			"stateMutability": "view"
		},
		{
			"type": "function",
			"name": "accountingContextForTokenOf",
			"inputs": [
				{
					"name": "projectId",
					"type": "uint256",
					"internalType": "uint256"
				},
				{
					"name": "token",
					"type": "address",
					"internalType": "address"
				}
			],
			"outputs": [
				{
					"name": "",
					"type": "tuple",
					"internalType": "struct JBAccountingContext",
					"components": [
						{
							"name": "token",
							"type": "address",
							"internalType": "address"
						},
						{
							"name": "decimals",
							"type": "uint8",
							"internalType": "uint8"
						},
						{
							"name": "currency",
							"type": "uint32",
							"internalType": "uint32"
						}
					]
				}
			],
			"stateMutability": "view"
		},
		{
			"type": "function",
			"name": "accountingContextsOf",
			"inputs": [
				{
					"name": "projectId",
					"type": "uint256",
					"internalType": "uint256"
				}
			],
			"outputs": [
				{
					"name": "",
					"type": "tuple[]",
					"internalType": "struct JBAccountingContext[]",
					"components": [
						{
							"name": "token",
							"type": "address",
							"internalType": "address"
						},
						{
							"name": "decimals",
							"type": "uint8",
							"internalType": "uint8"
						},
						{
							"name": "currency",
							"type": "uint32",
							"internalType": "uint32"
						}
					]
				}
			],
			"stateMutability": "view"
		},
		{
			"type": "function",
			"name": "addAccountingContextsFor",
			"inputs": [
				{
					"name": "projectId",
					"type": "uint256",
					"internalType": "uint256"
				},
				{
					"name": "accountingContexts",
					"type": "tuple[]",
					"internalType": "struct JBAccountingContext[]",
					"components": [
						{
							"name": "token",
							"type": "address",
							"internalType": "address"
						},
						{
							"name": "decimals",
							"type": "uint8",
							"internalType": "uint8"
						},
						{
							"name": "currency",
							"type": "uint32",
							"internalType": "uint32"
						}
					]
				}
			],
			"outputs": [],
			"stateMutability": "nonpayable"
		},
		{
			"type": "function",
			"name": "addToBalanceOf",
			"inputs": [
				{
					"name": "projectId",
					"type": "uint256",
					"internalType": "uint256"
				},
				{
					"name": "token",
					"type": "address",
					"internalType": "address"
				},
				{
					"name": "amount",
					"type": "uint256",
					"internalType": "uint256"
				},
				{
					"name": "shouldReturnHeldFees",
					"type": "bool",
					"internalType": "bool"
				},
				{
					"name": "memo",
					"type": "string",
					"internalType": "string"
				},
				{
					"name": "metadata",
					"type": "bytes",
					"internalType": "bytes"
				}
			],
			"outputs": [],
			"stateMutability": "payable"
		},
		{
			"type": "function",
			"name": "cashOutTokensOf",
			"inputs": [
				{
					"name": "holder",
					"type": "address",
					"internalType": "address"
				},
				{
					"name": "projectId",
					"type": "uint256",
					"internalType": "uint256"
				},
				{
					"name": "cashOutCount",
					"type": "uint256",
					"internalType": "uint256"
				},
				{
					"name": "tokenToReclaim",
					"type": "address",
					"internalType": "address"
				},
				{
					"name": "minTokensReclaimed",
					"type": "uint256",
					"internalType": "uint256"
				},
				{
					"name": "beneficiary",
					"type": "address",
					"internalType": "address payable"
				},
				{
					"name": "metadata",
					"type": "bytes",
					"internalType": "bytes"
				}
			],
			"outputs": [
				{
					"name": "reclaimAmount",
					"type": "uint256",
					"internalType": "uint256"
				}
			],
			"stateMutability": "nonpayable"
		},
		{
			"type": "function",
			"name": "currentSurplusOf",
			"inputs": [
				{
					"name": "projectId",
					"type": "uint256",
					"internalType": "uint256"
				},
				{
					"name": "tokens",
					"type": "address[]",
					"internalType": "address[]"
				},
				{
					"name": "decimals",
					"type": "uint256",
					"internalType": "uint256"
				},
				{
					"name": "currency",
					"type": "uint256",
					"internalType": "uint256"
				}
			],
			"outputs": [
				{
					"name": "",
					"type": "uint256",
					"internalType": "uint256"
				}
			],
			"stateMutability": "view"
		},
		{
			"type": "function",
			"name": "executePayout",
			"inputs": [
				{
					"name": "split",
					"type": "tuple",
					"internalType": "struct JBSplit",
					"components": [
						{
							"name": "percent",
							"type": "uint32",
							"internalType": "uint32"
						},
						{
							"name": "projectId",
							"type": "uint64",
							"internalType": "uint64"
						},
						{
							"name": "beneficiary",
							"type": "address",
							"internalType": "address payable"
						},
						{
							"name": "preferAddToBalance",
							"type": "bool",
							"internalType": "bool"
						},
						{
							"name": "lockedUntil",
							"type": "uint48",
							"internalType": "uint48"
						},
						{
							"name": "hook",
							"type": "address",
							"internalType": "contract IJBSplitHook"
						}
					]
				},
				{
					"name": "projectId",
					"type": "uint256",
					"internalType": "uint256"
				},
				{
					"name": "token",
					"type": "address",
					"internalType": "address"
				},
				{
					"name": "amount",
					"type": "uint256",
					"internalType": "uint256"
				},
				{
					"name": "originalMessageSender",
					"type": "address",
					"internalType": "address"
				}
			],
			"outputs": [
				{
					"name": "netPayoutAmount",
					"type": "uint256",
					"internalType": "uint256"
				},
				{
					"name": "feeEligibleAmount",
					"type": "uint256",
					"internalType": "uint256"
				}
			],
			"stateMutability": "nonpayable"
		},
		{
			"type": "function",
			"name": "executeProcessFee",
			"inputs": [
				{
					"name": "projectId",
					"type": "uint256",
					"internalType": "uint256"
				},
				{
					"name": "token",
					"type": "address",
					"internalType": "address"
				},
				{
					"name": "amount",
					"type": "uint256",
					"internalType": "uint256"
				},
				{
					"name": "beneficiary",
					"type": "address",
					"internalType": "address"
				},
				{
					"name": "feeTerminal",
					"type": "address",
					"internalType": "contract IJBTerminal"
				}
			],
			"outputs": [],
			"stateMutability": "nonpayable"
		},
		{
			"type": "function",
			"name": "executeTransferTo",
			"inputs": [
				{
					"name": "addr",
					"type": "address",
					"internalType": "address payable"
				},
				{
					"name": "token",
					"type": "address",
					"internalType": "address"
				},
				{
					"name": "amount",
					"type": "uint256",
					"internalType": "uint256"
				}
			],
			"outputs": [],
			"stateMutability": "nonpayable"
		},
		{
			"type": "function",
			"name": "feeFreeSurplusOf",
			"inputs": [
				{
					"name": "projectId",
					"type": "uint256",
					"internalType": "uint256"
				},
				{
					"name": "token",
					"type": "address",
					"internalType": "address"
				}
			],
			"outputs": [
				{
					"name": "",
					"type": "uint256",
					"internalType": "uint256"
				}
			],
			"stateMutability": "view"
		},
		{
			"type": "function",
			"name": "heldFeesOf",
			"inputs": [
				{
					"name": "projectId",
					"type": "uint256",
					"internalType": "uint256"
				},
				{
					"name": "token",
					"type": "address",
					"internalType": "address"
				},
				{
					"name": "count",
					"type": "uint256",
					"internalType": "uint256"
				}
			],
			"outputs": [
				{
					"name": "",
					"type": "tuple[]",
					"internalType": "struct JBFee[]",
					"components": [
						{
							"name": "amount",
							"type": "uint224",
							"internalType": "uint224"
						},
						{
							"name": "beneficiary",
							"type": "address",
							"internalType": "address"
						},
						{
							"name": "unlockTimestamp",
							"type": "uint48",
							"internalType": "uint48"
						}
					]
				}
			],
			"stateMutability": "view"
		},
		{
			"type": "function",
			"name": "isTrustedForwarder",
			"inputs": [
				{
					"name": "forwarder",
					"type": "address",
					"internalType": "address"
				}
			],
			"outputs": [
				{
					"name": "",
					"type": "bool",
					"internalType": "bool"
				}
			],
			"stateMutability": "view"
		},
		{
			"type": "function",
			"name": "migrateBalanceOf",
			"inputs": [
				{
					"name": "projectId",
					"type": "uint256",
					"internalType": "uint256"
				},
				{
					"name": "token",
					"type": "address",
					"internalType": "address"
				},
				{
					"name": "to",
					"type": "address",
					"internalType": "contract IJBTerminal"
				}
			],
			"outputs": [
				{
					"name": "balance",
					"type": "uint256",
					"internalType": "uint256"
				}
			],
			"stateMutability": "nonpayable"
		},
		{
			"type": "function",
			"name": "pay",
			"inputs": [
				{
					"name": "projectId",
					"type": "uint256",
					"internalType": "uint256"
				},
				{
					"name": "token",
					"type": "address",
					"internalType": "address"
				},
				{
					"name": "amount",
					"type": "uint256",
					"internalType": "uint256"
				},
				{
					"name": "beneficiary",
					"type": "address",
					"internalType": "address"
				},
				{
					"name": "minReturnedTokens",
					"type": "uint256",
					"internalType": "uint256"
				},
				{
					"name": "memo",
					"type": "string",
					"internalType": "string"
				},
				{
					"name": "metadata",
					"type": "bytes",
					"internalType": "bytes"
				}
			],
			"outputs": [
				{
					"name": "beneficiaryTokenCount",
					"type": "uint256",
					"internalType": "uint256"
				}
			],
			"stateMutability": "payable"
		},
		{
			"type": "function",
			"name": "previewCashOutFrom",
			"inputs": [
				{
					"name": "holder",
					"type": "address",
					"internalType": "address"
				},
				{
					"name": "projectId",
					"type": "uint256",
					"internalType": "uint256"
				},
				{
					"name": "cashOutCount",
					"type": "uint256",
					"internalType": "uint256"
				},
				{
					"name": "tokenToReclaim",
					"type": "address",
					"internalType": "address"
				},
				{
					"name": "beneficiary",
					"type": "address",
					"internalType": "address payable"
				},
				{
					"name": "metadata",
					"type": "bytes",
					"internalType": "bytes"
				}
			],
			"outputs": [
				{
					"name": "ruleset",
					"type": "tuple",
					"internalType": "struct JBRuleset",
					"components": [
						{
							"name": "cycleNumber",
							"type": "uint48",
							"internalType": "uint48"
						},
						{
							"name": "id",
							"type": "uint48",
							"internalType": "uint48"
						},
						{
							"name": "basedOnId",
							"type": "uint48",
							"internalType": "uint48"
						},
						{
							"name": "start",
							"type": "uint48",
							"internalType": "uint48"
						},
						{
							"name": "duration",
							"type": "uint32",
							"internalType": "uint32"
						},
						{
							"name": "weight",
							"type": "uint112",
							"internalType": "uint112"
						},
						{
							"name": "weightCutPercent",
							"type": "uint32",
							"internalType": "uint32"
						},
						{
							"name": "approvalHook",
							"type": "address",
							"internalType": "contract IJBRulesetApprovalHook"
						},
						{
							"name": "metadata",
							"type": "uint256",
							"internalType": "uint256"
						}
					]
				},
				{
					"name": "reclaimAmount",
					"type": "uint256",
					"internalType": "uint256"
				},
				{
					"name": "cashOutTaxRate",
					"type": "uint256",
					"internalType": "uint256"
				},
				{
					"name": "hookSpecifications",
					"type": "tuple[]",
					"internalType": "struct JBCashOutHookSpecification[]",
					"components": [
						{
							"name": "hook",
							"type": "address",
							"internalType": "contract IJBCashOutHook"
						},
						{
							"name": "noop",
							"type": "bool",
							"internalType": "bool"
						},
						{
							"name": "amount",
							"type": "uint256",
							"internalType": "uint256"
						},
						{
							"name": "metadata",
							"type": "bytes",
							"internalType": "bytes"
						}
					]
				}
			],
			"stateMutability": "view"
		},
		{
			"type": "function",
			"name": "previewPayFor",
			"inputs": [
				{
					"name": "projectId",
					"type": "uint256",
					"internalType": "uint256"
				},
				{
					"name": "token",
					"type": "address",
					"internalType": "address"
				},
				{
					"name": "amount",
					"type": "uint256",
					"internalType": "uint256"
				},
				{
					"name": "beneficiary",
					"type": "address",
					"internalType": "address"
				},
				{
					"name": "metadata",
					"type": "bytes",
					"internalType": "bytes"
				}
			],
			"outputs": [
				{
					"name": "ruleset",
					"type": "tuple",
					"internalType": "struct JBRuleset",
					"components": [
						{
							"name": "cycleNumber",
							"type": "uint48",
							"internalType": "uint48"
						},
						{
							"name": "id",
							"type": "uint48",
							"internalType": "uint48"
						},
						{
							"name": "basedOnId",
							"type": "uint48",
							"internalType": "uint48"
						},
						{
							"name": "start",
							"type": "uint48",
							"internalType": "uint48"
						},
						{
							"name": "duration",
							"type": "uint32",
							"internalType": "uint32"
						},
						{
							"name": "weight",
							"type": "uint112",
							"internalType": "uint112"
						},
						{
							"name": "weightCutPercent",
							"type": "uint32",
							"internalType": "uint32"
						},
						{
							"name": "approvalHook",
							"type": "address",
							"internalType": "contract IJBRulesetApprovalHook"
						},
						{
							"name": "metadata",
							"type": "uint256",
							"internalType": "uint256"
						}
					]
				},
				{
					"name": "beneficiaryTokenCount",
					"type": "uint256",
					"internalType": "uint256"
				},
				{
					"name": "reservedTokenCount",
					"type": "uint256",
					"internalType": "uint256"
				},
				{
					"name": "hookSpecifications",
					"type": "tuple[]",
					"internalType": "struct JBPayHookSpecification[]",
					"components": [
						{
							"name": "hook",
							"type": "address",
							"internalType": "contract IJBPayHook"
						},
						{
							"name": "noop",
							"type": "bool",
							"internalType": "bool"
						},
						{
							"name": "amount",
							"type": "uint256",
							"internalType": "uint256"
						},
						{
							"name": "metadata",
							"type": "bytes",
							"internalType": "bytes"
						}
					]
				}
			],
			"stateMutability": "view"
		},
		{
			"type": "function",
			"name": "processHeldFeesOf",
			"inputs": [
				{
					"name": "projectId",
					"type": "uint256",
					"internalType": "uint256"
				},
				{
					"name": "token",
					"type": "address",
					"internalType": "address"
				},
				{
					"name": "count",
					"type": "uint256",
					"internalType": "uint256"
				}
			],
			"outputs": [],
			"stateMutability": "nonpayable"
		},
		{
			"type": "function",
			"name": "sendPayoutsOf",
			"inputs": [
				{
					"name": "projectId",
					"type": "uint256",
					"internalType": "uint256"
				},
				{
					"name": "token",
					"type": "address",
					"internalType": "address"
				},
				{
					"name": "amount",
					"type": "uint256",
					"internalType": "uint256"
				},
				{
					"name": "currency",
					"type": "uint256",
					"internalType": "uint256"
				},
				{
					"name": "minTokensPaidOut",
					"type": "uint256",
					"internalType": "uint256"
				}
			],
			"outputs": [
				{
					"name": "amountPaidOut",
					"type": "uint256",
					"internalType": "uint256"
				}
			],
			"stateMutability": "nonpayable"
		},
		{
			"type": "function",
			"name": "supportsInterface",
			"inputs": [
				{
					"name": "interfaceId",
					"type": "bytes4",
					"internalType": "bytes4"
				}
			],
			"outputs": [
				{
					"name": "",
					"type": "bool",
					"internalType": "bool"
				}
			],
			"stateMutability": "pure"
		},
		{
			"type": "function",
			"name": "trustedForwarder",
			"inputs": [],
			"outputs": [
				{
					"name": "",
					"type": "address",
					"internalType": "address"
				}
			],
			"stateMutability": "view"
		},
		{
			"type": "function",
			"name": "useAllowanceOf",
			"inputs": [
				{
					"name": "projectId",
					"type": "uint256",
					"internalType": "uint256"
				},
				{
					"name": "token",
					"type": "address",
					"internalType": "address"
				},
				{
					"name": "amount",
					"type": "uint256",
					"internalType": "uint256"
				},
				{
					"name": "currency",
					"type": "uint256",
					"internalType": "uint256"
				},
				{
					"name": "minTokensPaidOut",
					"type": "uint256",
					"internalType": "uint256"
				},
				{
					"name": "beneficiary",
					"type": "address",
					"internalType": "address payable"
				},
				{
					"name": "feeBeneficiary",
					"type": "address",
					"internalType": "address payable"
				},
				{
					"name": "memo",
					"type": "string",
					"internalType": "string"
				}
			],
			"outputs": [
				{
					"name": "netAmountPaidOut",
					"type": "uint256",
					"internalType": "uint256"
				}
			],
			"stateMutability": "nonpayable"
		},
		{
			"type": "event",
			"name": "AddToBalance",
			"inputs": [
				{
					"name": "projectId",
					"type": "uint256",
					"indexed": true,
					"internalType": "uint256"
				},
				{
					"name": "amount",
					"type": "uint256",
					"indexed": false,
					"internalType": "uint256"
				},
				{
					"name": "returnedFees",
					"type": "uint256",
					"indexed": false,
					"internalType": "uint256"
				},
				{
					"name": "memo",
					"type": "string",
					"indexed": false,
					"internalType": "string"
				},
				{
					"name": "metadata",
					"type": "bytes",
					"indexed": false,
					"internalType": "bytes"
				},
				{
					"name": "caller",
					"type": "address",
					"indexed": false,
					"internalType": "address"
				}
			],
			"anonymous": false
		},
		{
			"type": "event",
			"name": "CashOutTokens",
			"inputs": [
				{
					"name": "rulesetId",
					"type": "uint256",
					"indexed": true,
					"internalType": "uint256"
				},
				{
					"name": "rulesetCycleNumber",
					"type": "uint256",
					"indexed": true,
					"internalType": "uint256"
				},
				{
					"name": "projectId",
					"type": "uint256",
					"indexed": true,
					"internalType": "uint256"
				},
				{
					"name": "holder",
					"type": "address",
					"indexed": false,
					"internalType": "address"
				},
				{
					"name": "beneficiary",
					"type": "address",
					"indexed": false,
					"internalType": "address"
				},
				{
					"name": "cashOutCount",
					"type": "uint256",
					"indexed": false,
					"internalType": "uint256"
				},
				{
					"name": "cashOutTaxRate",
					"type": "uint256",
					"indexed": false,
					"internalType": "uint256"
				},
				{
					"name": "reclaimAmount",
					"type": "uint256",
					"indexed": false,
					"internalType": "uint256"
				},
				{
					"name": "metadata",
					"type": "bytes",
					"indexed": false,
					"internalType": "bytes"
				},
				{
					"name": "caller",
					"type": "address",
					"indexed": false,
					"internalType": "address"
				}
			],
			"anonymous": false
		},
		{
			"type": "event",
			"name": "FeeReverted",
			"inputs": [
				{
					"name": "projectId",
					"type": "uint256",
					"indexed": true,
					"internalType": "uint256"
				},
				{
					"name": "token",
					"type": "address",
					"indexed": true,
					"internalType": "address"
				},
				{
					"name": "feeProjectId",
					"type": "uint256",
					"indexed": true,
					"internalType": "uint256"
				},
				{
					"name": "amount",
					"type": "uint256",
					"indexed": false,
					"internalType": "uint256"
				},
				{
					"name": "reason",
					"type": "bytes",
					"indexed": false,
					"internalType": "bytes"
				},
				{
					"name": "caller",
					"type": "address",
					"indexed": false,
					"internalType": "address"
				}
			],
			"anonymous": false
		},
		{
			"type": "event",
			"name": "HoldFee",
			"inputs": [
				{
					"name": "projectId",
					"type": "uint256",
					"indexed": true,
					"internalType": "uint256"
				},
				{
					"name": "token",
					"type": "address",
					"indexed": true,
					"internalType": "address"
				},
				{
					"name": "amount",
					"type": "uint256",
					"indexed": true,
					"internalType": "uint256"
				},
				{
					"name": "fee",
					"type": "uint256",
					"indexed": false,
					"internalType": "uint256"
				},
				{
					"name": "beneficiary",
					"type": "address",
					"indexed": false,
					"internalType": "address"
				},
				{
					"name": "caller",
					"type": "address",
					"indexed": false,
					"internalType": "address"
				}
			],
			"anonymous": false
		},
		{
			"type": "event",
			"name": "HookAfterRecordCashOut",
			"inputs": [
				{
					"name": "hook",
					"type": "address",
					"indexed": true,
					"internalType": "contract IJBCashOutHook"
				},
				{
					"name": "context",
					"type": "tuple",
					"indexed": false,
					"internalType": "struct JBAfterCashOutRecordedContext",
					"components": [
						{
							"name": "holder",
							"type": "address",
							"internalType": "address"
						},
						{
							"name": "projectId",
							"type": "uint256",
							"internalType": "uint256"
						},
						{
							"name": "rulesetId",
							"type": "uint256",
							"internalType": "uint256"
						},
						{
							"name": "cashOutCount",
							"type": "uint256",
							"internalType": "uint256"
						},
						{
							"name": "reclaimedAmount",
							"type": "tuple",
							"internalType": "struct JBTokenAmount",
							"components": [
								{
									"name": "token",
									"type": "address",
									"internalType": "address"
								},
								{
									"name": "decimals",
									"type": "uint8",
									"internalType": "uint8"
								},
								{
									"name": "currency",
									"type": "uint32",
									"internalType": "uint32"
								},
								{
									"name": "value",
									"type": "uint256",
									"internalType": "uint256"
								}
							]
						},
						{
							"name": "forwardedAmount",
							"type": "tuple",
							"internalType": "struct JBTokenAmount",
							"components": [
								{
									"name": "token",
									"type": "address",
									"internalType": "address"
								},
								{
									"name": "decimals",
									"type": "uint8",
									"internalType": "uint8"
								},
								{
									"name": "currency",
									"type": "uint32",
									"internalType": "uint32"
								},
								{
									"name": "value",
									"type": "uint256",
									"internalType": "uint256"
								}
							]
						},
						{
							"name": "cashOutTaxRate",
							"type": "uint256",
							"internalType": "uint256"
						},
						{
							"name": "beneficiary",
							"type": "address",
							"internalType": "address payable"
						},
						{
							"name": "hookMetadata",
							"type": "bytes",
							"internalType": "bytes"
						},
						{
							"name": "cashOutMetadata",
							"type": "bytes",
							"internalType": "bytes"
						}
					]
				},
				{
					"name": "specificationAmount",
					"type": "uint256",
					"indexed": false,
					"internalType": "uint256"
				},
				{
					"name": "fee",
					"type": "uint256",
					"indexed": false,
					"internalType": "uint256"
				},
				{
					"name": "caller",
					"type": "address",
					"indexed": false,
					"internalType": "address"
				}
			],
			"anonymous": false
		},
		{
			"type": "event",
			"name": "HookAfterRecordPay",
			"inputs": [
				{
					"name": "hook",
					"type": "address",
					"indexed": true,
					"internalType": "contract IJBPayHook"
				},
				{
					"name": "context",
					"type": "tuple",
					"indexed": false,
					"internalType": "struct JBAfterPayRecordedContext",
					"components": [
						{
							"name": "payer",
							"type": "address",
							"internalType": "address"
						},
						{
							"name": "projectId",
							"type": "uint256",
							"internalType": "uint256"
						},
						{
							"name": "rulesetId",
							"type": "uint256",
							"internalType": "uint256"
						},
						{
							"name": "amount",
							"type": "tuple",
							"internalType": "struct JBTokenAmount",
							"components": [
								{
									"name": "token",
									"type": "address",
									"internalType": "address"
								},
								{
									"name": "decimals",
									"type": "uint8",
									"internalType": "uint8"
								},
								{
									"name": "currency",
									"type": "uint32",
									"internalType": "uint32"
								},
								{
									"name": "value",
									"type": "uint256",
									"internalType": "uint256"
								}
							]
						},
						{
							"name": "forwardedAmount",
							"type": "tuple",
							"internalType": "struct JBTokenAmount",
							"components": [
								{
									"name": "token",
									"type": "address",
									"internalType": "address"
								},
								{
									"name": "decimals",
									"type": "uint8",
									"internalType": "uint8"
								},
								{
									"name": "currency",
									"type": "uint32",
									"internalType": "uint32"
								},
								{
									"name": "value",
									"type": "uint256",
									"internalType": "uint256"
								}
							]
						},
						{
							"name": "weight",
							"type": "uint256",
							"internalType": "uint256"
						},
						{
							"name": "newlyIssuedTokenCount",
							"type": "uint256",
							"internalType": "uint256"
						},
						{
							"name": "beneficiary",
							"type": "address",
							"internalType": "address"
						},
						{
							"name": "hookMetadata",
							"type": "bytes",
							"internalType": "bytes"
						},
						{
							"name": "payerMetadata",
							"type": "bytes",
							"internalType": "bytes"
						}
					]
				},
				{
					"name": "specificationAmount",
					"type": "uint256",
					"indexed": false,
					"internalType": "uint256"
				},
				{
					"name": "caller",
					"type": "address",
					"indexed": false,
					"internalType": "address"
				}
			],
			"anonymous": false
		},
		{
			"type": "event",
			"name": "MigrateTerminal",
			"inputs": [
				{
					"name": "projectId",
					"type": "uint256",
					"indexed": true,
					"internalType": "uint256"
				},
				{
					"name": "token",
					"type": "address",
					"indexed": true,
					"internalType": "address"
				},
				{
					"name": "to",
					"type": "address",
					"indexed": true,
					"internalType": "contract IJBTerminal"
				},
				{
					"name": "amount",
					"type": "uint256",
					"indexed": false,
					"internalType": "uint256"
				},
				{
					"name": "caller",
					"type": "address",
					"indexed": false,
					"internalType": "address"
				}
			],
			"anonymous": false
		},
		{
			"type": "event",
			"name": "Pay",
			"inputs": [
				{
					"name": "rulesetId",
					"type": "uint256",
					"indexed": true,
					"internalType": "uint256"
				},
				{
					"name": "rulesetCycleNumber",
					"type": "uint256",
					"indexed": true,
					"internalType": "uint256"
				},
				{
					"name": "projectId",
					"type": "uint256",
					"indexed": true,
					"internalType": "uint256"
				},
				{
					"name": "payer",
					"type": "address",
					"indexed": false,
					"internalType": "address"
				},
				{
					"name": "beneficiary",
					"type": "address",
					"indexed": false,
					"internalType": "address"
				},
				{
					"name": "amount",
					"type": "uint256",
					"indexed": false,
					"internalType": "uint256"
				},
				{
					"name": "newlyIssuedTokenCount",
					"type": "uint256",
					"indexed": false,
					"internalType": "uint256"
				},
				{
					"name": "memo",
					"type": "string",
					"indexed": false,
					"internalType": "string"
				},
				{
					"name": "metadata",
					"type": "bytes",
					"indexed": false,
					"internalType": "bytes"
				},
				{
					"name": "caller",
					"type": "address",
					"indexed": false,
					"internalType": "address"
				}
			],
			"anonymous": false
		},
		{
			"type": "event",
			"name": "PayoutReverted",
			"inputs": [
				{
					"name": "projectId",
					"type": "uint256",
					"indexed": true,
					"internalType": "uint256"
				},
				{
					"name": "split",
					"type": "tuple",
					"indexed": false,
					"internalType": "struct JBSplit",
					"components": [
						{
							"name": "percent",
							"type": "uint32",
							"internalType": "uint32"
						},
						{
							"name": "projectId",
							"type": "uint64",
							"internalType": "uint64"
						},
						{
							"name": "beneficiary",
							"type": "address",
							"internalType": "address payable"
						},
						{
							"name": "preferAddToBalance",
							"type": "bool",
							"internalType": "bool"
						},
						{
							"name": "lockedUntil",
							"type": "uint48",
							"internalType": "uint48"
						},
						{
							"name": "hook",
							"type": "address",
							"internalType": "contract IJBSplitHook"
						}
					]
				},
				{
					"name": "amount",
					"type": "uint256",
					"indexed": false,
					"internalType": "uint256"
				},
				{
					"name": "reason",
					"type": "bytes",
					"indexed": false,
					"internalType": "bytes"
				},
				{
					"name": "caller",
					"type": "address",
					"indexed": false,
					"internalType": "address"
				}
			],
			"anonymous": false
		},
		{
			"type": "event",
			"name": "PayoutTransferReverted",
			"inputs": [
				{
					"name": "projectId",
					"type": "uint256",
					"indexed": true,
					"internalType": "uint256"
				},
				{
					"name": "addr",
					"type": "address",
					"indexed": false,
					"internalType": "address"
				},
				{
					"name": "token",
					"type": "address",
					"indexed": false,
					"internalType": "address"
				},
				{
					"name": "amount",
					"type": "uint256",
					"indexed": false,
					"internalType": "uint256"
				},
				{
					"name": "fee",
					"type": "uint256",
					"indexed": false,
					"internalType": "uint256"
				},
				{
					"name": "reason",
					"type": "bytes",
					"indexed": false,
					"internalType": "bytes"
				},
				{
					"name": "caller",
					"type": "address",
					"indexed": false,
					"internalType": "address"
				}
			],
			"anonymous": false
		},
		{
			"type": "event",
			"name": "Permit2AllowanceFailed",
			"inputs": [
				{
					"name": "token",
					"type": "address",
					"indexed": true,
					"internalType": "address"
				},
				{
					"name": "owner",
					"type": "address",
					"indexed": true,
					"internalType": "address"
				},
				{
					"name": "reason",
					"type": "bytes",
					"indexed": false,
					"internalType": "bytes"
				}
			],
			"anonymous": false
		},
		{
			"type": "event",
			"name": "ProcessFee",
			"inputs": [
				{
					"name": "projectId",
					"type": "uint256",
					"indexed": true,
					"internalType": "uint256"
				},
				{
					"name": "token",
					"type": "address",
					"indexed": true,
					"internalType": "address"
				},
				{
					"name": "amount",
					"type": "uint256",
					"indexed": true,
					"internalType": "uint256"
				},
				{
					"name": "wasHeld",
					"type": "bool",
					"indexed": false,
					"internalType": "bool"
				},
				{
					"name": "beneficiary",
					"type": "address",
					"indexed": false,
					"internalType": "address"
				},
				{
					"name": "caller",
					"type": "address",
					"indexed": false,
					"internalType": "address"
				}
			],
			"anonymous": false
		},
		{
			"type": "event",
			"name": "ReturnHeldFees",
			"inputs": [
				{
					"name": "projectId",
					"type": "uint256",
					"indexed": true,
					"internalType": "uint256"
				},
				{
					"name": "token",
					"type": "address",
					"indexed": true,
					"internalType": "address"
				},
				{
					"name": "amount",
					"type": "uint256",
					"indexed": true,
					"internalType": "uint256"
				},
				{
					"name": "returnedFees",
					"type": "uint256",
					"indexed": false,
					"internalType": "uint256"
				},
				{
					"name": "leftoverAmount",
					"type": "uint256",
					"indexed": false,
					"internalType": "uint256"
				},
				{
					"name": "caller",
					"type": "address",
					"indexed": false,
					"internalType": "address"
				}
			],
			"anonymous": false
		},
		{
			"type": "event",
			"name": "SendPayoutToSplit",
			"inputs": [
				{
					"name": "projectId",
					"type": "uint256",
					"indexed": true,
					"internalType": "uint256"
				},
				{
					"name": "rulesetId",
					"type": "uint256",
					"indexed": true,
					"internalType": "uint256"
				},
				{
					"name": "group",
					"type": "uint256",
					"indexed": true,
					"internalType": "uint256"
				},
				{
					"name": "split",
					"type": "tuple",
					"indexed": false,
					"internalType": "struct JBSplit",
					"components": [
						{
							"name": "percent",
							"type": "uint32",
							"internalType": "uint32"
						},
						{
							"name": "projectId",
							"type": "uint64",
							"internalType": "uint64"
						},
						{
							"name": "beneficiary",
							"type": "address",
							"internalType": "address payable"
						},
						{
							"name": "preferAddToBalance",
							"type": "bool",
							"internalType": "bool"
						},
						{
							"name": "lockedUntil",
							"type": "uint48",
							"internalType": "uint48"
						},
						{
							"name": "hook",
							"type": "address",
							"internalType": "contract IJBSplitHook"
						}
					]
				},
				{
					"name": "amount",
					"type": "uint256",
					"indexed": false,
					"internalType": "uint256"
				},
				{
					"name": "netAmount",
					"type": "uint256",
					"indexed": false,
					"internalType": "uint256"
				},
				{
					"name": "caller",
					"type": "address",
					"indexed": false,
					"internalType": "address"
				}
			],
			"anonymous": false
		},
		{
			"type": "event",
			"name": "SendPayouts",
			"inputs": [
				{
					"name": "rulesetId",
					"type": "uint256",
					"indexed": true,
					"internalType": "uint256"
				},
				{
					"name": "rulesetCycleNumber",
					"type": "uint256",
					"indexed": true,
					"internalType": "uint256"
				},
				{
					"name": "projectId",
					"type": "uint256",
					"indexed": true,
					"internalType": "uint256"
				},
				{
					"name": "projectOwner",
					"type": "address",
					"indexed": false,
					"internalType": "address"
				},
				{
					"name": "amount",
					"type": "uint256",
					"indexed": false,
					"internalType": "uint256"
				},
				{
					"name": "amountPaidOut",
					"type": "uint256",
					"indexed": false,
					"internalType": "uint256"
				},
				{
					"name": "fee",
					"type": "uint256",
					"indexed": false,
					"internalType": "uint256"
				},
				{
					"name": "netLeftoverPayoutAmount",
					"type": "uint256",
					"indexed": false,
					"internalType": "uint256"
				},
				{
					"name": "caller",
					"type": "address",
					"indexed": false,
					"internalType": "address"
				}
			],
			"anonymous": false
		},
		{
			"type": "event",
			"name": "SetAccountingContext",
			"inputs": [
				{
					"name": "projectId",
					"type": "uint256",
					"indexed": true,
					"internalType": "uint256"
				},
				{
					"name": "context",
					"type": "tuple",
					"indexed": false,
					"internalType": "struct JBAccountingContext",
					"components": [
						{
							"name": "token",
							"type": "address",
							"internalType": "address"
						},
						{
							"name": "decimals",
							"type": "uint8",
							"internalType": "uint8"
						},
						{
							"name": "currency",
							"type": "uint32",
							"internalType": "uint32"
						}
					]
				},
				{
					"name": "caller",
					"type": "address",
					"indexed": false,
					"internalType": "address"
				}
			],
			"anonymous": false
		},
		{
			"type": "event",
			"name": "UseAllowance",
			"inputs": [
				{
					"name": "rulesetId",
					"type": "uint256",
					"indexed": true,
					"internalType": "uint256"
				},
				{
					"name": "rulesetCycleNumber",
					"type": "uint256",
					"indexed": true,
					"internalType": "uint256"
				},
				{
					"name": "projectId",
					"type": "uint256",
					"indexed": true,
					"internalType": "uint256"
				},
				{
					"name": "beneficiary",
					"type": "address",
					"indexed": false,
					"internalType": "address"
				},
				{
					"name": "feeBeneficiary",
					"type": "address",
					"indexed": false,
					"internalType": "address"
				},
				{
					"name": "amount",
					"type": "uint256",
					"indexed": false,
					"internalType": "uint256"
				},
				{
					"name": "amountPaidOut",
					"type": "uint256",
					"indexed": false,
					"internalType": "uint256"
				},
				{
					"name": "netAmountPaidOut",
					"type": "uint256",
					"indexed": false,
					"internalType": "uint256"
				},
				{
					"name": "memo",
					"type": "string",
					"indexed": false,
					"internalType": "string"
				},
				{
					"name": "caller",
					"type": "address",
					"indexed": false,
					"internalType": "address"
				}
			],
			"anonymous": false
		},
		{
			"type": "error",
			"name": "FailedCall",
			"inputs": []
		},
		{
			"type": "error",
			"name": "InsufficientBalance",
			"inputs": [
				{
					"name": "balance",
					"type": "uint256",
					"internalType": "uint256"
				},
				{
					"name": "needed",
					"type": "uint256",
					"internalType": "uint256"
				}
			]
		},
		{
			"type": "error",
			"name": "JBMultiTerminal_FeeTerminalNotFound",
			"inputs": [
				{
					"name": "token",
					"type": "address",
					"internalType": "address"
				}
			]
		},
		{
			"type": "error",
			"name": "JBMultiTerminal_MintNotAllowed",
			"inputs": [
				{
					"name": "projectId",
					"type": "uint256",
					"internalType": "uint256"
				},
				{
					"name": "terminal",
					"type": "address",
					"internalType": "address"
				}
			]
		},
		{
			"type": "error",
			"name": "JBMultiTerminal_NoMsgValueAllowed",
			"inputs": [
				{
					"name": "value",
					"type": "uint256",
					"internalType": "uint256"
				}
			]
		},
		{
			"type": "error",
			"name": "JBMultiTerminal_OverflowAlert",
			"inputs": [
				{
					"name": "value",
					"type": "uint256",
					"internalType": "uint256"
				},
				{
					"name": "limit",
					"type": "uint256",
					"internalType": "uint256"
				}
			]
		},
		{
			"type": "error",
			"name": "JBMultiTerminal_PermitAllowanceNotEnough",
			"inputs": [
				{
					"name": "amount",
					"type": "uint256",
					"internalType": "uint256"
				},
				{
					"name": "allowance",
					"type": "uint256",
					"internalType": "uint256"
				}
			]
		},
		{
			"type": "error",
			"name": "JBMultiTerminal_RecipientProjectTerminalNotFound",
			"inputs": [
				{
					"name": "projectId",
					"type": "uint256",
					"internalType": "uint256"
				},
				{
					"name": "token",
					"type": "address",
					"internalType": "address"
				}
			]
		},
		{
			"type": "error",
			"name": "JBMultiTerminal_ReentrantTokenTransfer",
			"inputs": [
				{
					"name": "token",
					"type": "address",
					"internalType": "address"
				}
			]
		},
		{
			"type": "error",
			"name": "JBMultiTerminal_SplitHookInvalid",
			"inputs": [
				{
					"name": "hook",
					"type": "address",
					"internalType": "contract IJBSplitHook"
				}
			]
		},
		{
			"type": "error",
			"name": "JBMultiTerminal_TemporaryAllowanceNotConsumed",
			"inputs": [
				{
					"name": "token",
					"type": "address",
					"internalType": "address"
				},
				{
					"name": "spender",
					"type": "address",
					"internalType": "address"
				},
				{
					"name": "allowance",
					"type": "uint256",
					"internalType": "uint256"
				}
			]
		},
		{
			"type": "error",
			"name": "JBMultiTerminal_TerminalMigrationToSelf",
			"inputs": [
				{
					"name": "projectId",
					"type": "uint256",
					"internalType": "uint256"
				},
				{
					"name": "token",
					"type": "address",
					"internalType": "address"
				}
			]
		},
		{
			"type": "error",
			"name": "JBMultiTerminal_TerminalTokensIncompatible",
			"inputs": [
				{
					"name": "projectId",
					"type": "uint256",
					"internalType": "uint256"
				},
				{
					"name": "token",
					"type": "address",
					"internalType": "address"
				},
				{
					"name": "terminal",
					"type": "address",
					"internalType": "contract IJBTerminal"
				}
			]
		},
		{
			"type": "error",
			"name": "JBMultiTerminal_TokenNotAccepted",
			"inputs": [
				{
					"name": "token",
					"type": "address",
					"internalType": "address"
				}
			]
		},
		{
			"type": "error",
			"name": "JBMultiTerminal_UnderMin",
			"inputs": [
				{
					"name": "value",
					"type": "uint256",
					"internalType": "uint256"
				},
				{
					"name": "min",
					"type": "uint256",
					"internalType": "uint256"
				}
			]
		},
		{
			"type": "error",
			"name": "JBPermissioned_Unauthorized",
			"inputs": [
				{
					"name": "account",
					"type": "address",
					"internalType": "address"
				},
				{
					"name": "sender",
					"type": "address",
					"internalType": "address"
				},
				{
					"name": "projectId",
					"type": "uint256",
					"internalType": "uint256"
				},
				{
					"name": "permissionId",
					"type": "uint256",
					"internalType": "uint256"
				}
			]
		},
		{
			"type": "error",
			"name": "SafeERC20FailedOperation",
			"inputs": [
				{
					"name": "token",
					"type": "address",
					"internalType": "address"
				}
			]
		}
	],
	"args": [
		"0x657D0E588fca6f8C49394c9cA8A1CF6505b10314",
		"0xf92AC1aB5A00033E35a3975739124F61928C36B0",
		"0x6017d1FBa9DC279BFA0B03fD931C22E242AB3691",
		"0x28B3D11FcB8D2Ad0A143C5B193cD9f2e4d43F4C3",
		"0x7497ae014A60561925B51C0A3B4adE7460B9927C",
		"0x1f80d8f057eE36b4C2656D107E4e4558B71bA7D9",
		"0x000000000022D473030F116dDEE9F6B43aC78BA3",
		"0x3bA60b60933916a7C87D0860DcEE62a0CE34E3e2"
	],
	"solcInputHash": "cfbbbe1970014dd4b8a333a760a7fc99",
	"bytecode": "0x6101a0604052348015610010575f5ffd5b5060405161605b38038061605b83398101604081905261002f916100f7565b6001600160a01b0380881660805280821660a052604080516388bc2ef360e01b81529051918616916388bc2ef3916004808201926020929091908290030181865afa158015610080573d5f5f3e3d5ffd5b505050506040513d601f19601f820116820180604052508101906100a491906101a2565b6001600160a01b0390811660c05297881660e05250938616610120529185166101405284166101605283166101805290911661010052506101c4565b6001600160a01b03811681146100f4575f5ffd5b50565b5f5f5f5f5f5f5f5f610100898b03121561010f575f5ffd5b885161011a816100e0565b60208a015190985061012b816100e0565b60408a015190975061013c816100e0565b60608a015190965061014d816100e0565b60808a015190955061015e816100e0565b60a08a015190945061016f816100e0565b60c08a0151909350610180816100e0565b60e08a0151909250610191816100e0565b809150509295985092959890939650565b5f602082840312156101b2575f5ffd5b81516101bd816100e0565b9392505050565b60805160a05160c05160e0516101005161012051610140516101605161018051615d756102e65f395f818161028b0152612fc401525f81816103ec0152818161084201528181610b3e01528181610ed101528181610fce0152818161106901528181611137015281816113a4015281816117f701528181611c6e01528181612387015281816128960152818161298401528181613050015281816132de015281816136300152613c0401525f81816102d6015261295c01525f818161035e015261230101525f81816104e901528181612296015261264e01525f81816104b60152611f4001525f818161056d01528181611ab6015261200601525f818161045601528181610538015261325e01525f81816106620152611b930152615d755ff3fe6080604052600436106101ba575f3560e01c80635f912e56116100f2578063b5c104f311610092578063e28b541111610062578063e28b541114610632578063f434c91414610651578063fdebc62a14610684578063fef43257146106a3575f5ffd5b8063b5c104f3146105a2578063c66d192b146105c1578063cfaf5839146105f4578063ddb4389e14610613575f5ffd5b8063748e821c116100cd578063748e821c1461050b5780637da0a8771461052a57806388bc2ef31461055c5780639e6eec051461058f575f5ffd5b80635f912e5614610486578063659a2047146104a55780636afdd850146104d8575f5ffd5b8063253721c81161015d5780634aa71dbc116101385780634aa71dbc146103ac578063507f1465146103db578063515a92931461040e578063572b6c051461043a575f5ffd5b8063253721c81461032c578063293c49991461034d5780633a01714f14610380575f5ffd5b806313da83171161019857806313da83171461024d5780631d831d5c1461027a5780631f47ce69146102c5578063206d4975146102f8575f5ffd5b806301ffc9a7146101be57806304a83d7f146101f25780630aff0c311461021e575b5f5ffd5b3480156101c9575f5ffd5b506101dd6101d8366004614172565b6106b6565b60405190151581526020015b60405180910390f35b3480156101fd575f5ffd5b5061021161020c3660046141ad565b61078e565b6040516101e991906141e2565b348015610229575f5ffd5b5061023d610238366004614294565b610833565b6040516101e994939291906143fc565b348015610258575f5ffd5b5061026c6102673660046144b9565b610986565b6040519081526020016101e9565b348015610285575f5ffd5b506102ad7f000000000000000000000000000000000000000000000000000000000000000081565b6040516001600160a01b0390911681526020016101e9565b3480156102d0575f5ffd5b506102ad7f000000000000000000000000000000000000000000000000000000000000000081565b348015610303575f5ffd5b5061031761031236600461454a565b6109ee565b604080519283526020830191909152016101e9565b348015610337575f5ffd5b5061034b6103463660046145ad565b610e82565b005b348015610358575f5ffd5b506102ad7f000000000000000000000000000000000000000000000000000000000000000081565b34801561038b575f5ffd5b5061039f61039a366004614625565b610fa7565b6040516101e99190614653565b3480156103b7575f5ffd5b506103cb6103c6366004614686565b61104e565b6040516101e9949392919061470e565b3480156103e6575f5ffd5b506102ad7f000000000000000000000000000000000000000000000000000000000000000081565b348015610419575f5ffd5b5061042d6104283660046147bc565b611118565b6040516101e991906147d3565b348015610445575f5ffd5b506101dd61045436600461483b565b7f00000000000000000000000000000000000000000000000000000000000000006001600160a01b0390811691161490565b348015610491575f5ffd5b5061034b6104a0366004614856565b6111aa565b3480156104b0575f5ffd5b506102ad7f000000000000000000000000000000000000000000000000000000000000000081565b3480156104e3575f5ffd5b506102ad7f000000000000000000000000000000000000000000000000000000000000000081565b348015610516575f5ffd5b5061026c6105253660046148a3565b611245565b348015610535575f5ffd5b507f00000000000000000000000000000000000000000000000000000000000000006102ad565b348015610567575f5ffd5b506102ad7f000000000000000000000000000000000000000000000000000000000000000081565b61034b61059d36600461494d565b6112bd565b3480156105ad575f5ffd5b5061026c6105bc3660046149d1565b611348565b3480156105cc575f5ffd5b5061026c6105db366004614625565b5f60208181529281526040808220909352908152205481565b3480156105ff575f5ffd5b5061026c61060e366004614a5a565b611431565b34801561061e575f5ffd5b5061034b61062d3660046141ad565b61144a565b34801561063d575f5ffd5b5061026c61064c366004614a9e565b6116b2565b34801561065c575f5ffd5b506102ad7f000000000000000000000000000000000000000000000000000000000000000081565b34801561068f575f5ffd5b5061034b61069e366004614add565b611928565b61026c6106b1366004614b0a565b611944565b5f6001600160e01b03198216633556b91160e01b14806106e657506001600160e01b03198216633d0d324560e21b145b8061070157506001600160e01b03198216637343409560e01b145b8061071c57506001600160e01b0319821663597d9eab60e01b145b8061073757506001600160e01b0319821663bb21da2560e01b145b8061075257506001600160e01b031982166306afdd8560e41b145b8061076d57506001600160e01b03198216635e4312d360e11b145b8061078857506001600160e01b031982166301ffc9a760e01b145b92915050565b60405163aac399d160e01b81526001600482015260026024820152604481018490526001600160a01b0383166064820152608481018290526060907362e77076b6e902e7aec8b2925acc9b46058e3d389063aac399d19060a4015f60405180830381865af4158015610802573d5f5f3e3d5ffd5b505050506040513d5f823e601f3d908101601f191682016040526108299190810190614cae565b90505b9392505050565b61083b6140d1565b5f5f60605f7f00000000000000000000000000000000000000000000000000000000000000006001600160a01b031663db6d7e0330610878611a25565b6108838f8f8f611a33565b8f8d8d8d6040518863ffffffff1660e01b81526004016108a99796959493929190614df6565b5f60405180830381865afa1580156108c3573d5f5f3e3d5ffd5b505050506040513d5f823e601f3d908101601f191682016040526108ea9190810190614fa9565b91965090925090506108fb8b611a9e565b6040516380d3fe3560e01b8152600481018d905260248101839052600160448201526001600160a01b0391909116906380d3fe35906064016040805180830381865afa15801561094d573d5f5f3e3d5ffd5b505050506040513d601f19601f8201168201806040525081019061097191906150e0565b959c909b509499509097509295505050505050565b5f61099389896004611b28565b6109d6898989898888888080601f0160208091040260200160405190810160405280939291908181526020018383808284375f92019190915250611c3d92505050565b90506109e28186611f0e565b98975050505050505050565b5f803330146109fb575f5ffd5b8391505f610a0f60c0890160a08a0161483b565b6001600160a01b031614610bae57610a2d60c0880160a0890161483b565b6040516301ffc9a760e01b81526318b4127160e31b60048201526001600160a01b0391909116906301ffc9a790602401602060405180830381865afa158015610a78573d5f5f3e3d5ffd5b505050506040513d601f19601f82011682018060405250810190610a9c919061510d565b610ada57610ab060c0880160a0890161483b565b6040516347dfdccf60e11b81526001600160a01b0390911660048201526024015b60405180910390fd5b610af3610aed60c0890160a08a0161483b565b87611f3d565b610b0557610b0084611fd4565b820391505b6040516303d8cc1760e21b8152738a7409d34ae5c2c497a85aa1f4ba9793be8b33d290630f63305c90610b66908a908a908a908a9089907f00000000000000000000000000000000000000000000000000000000000000009060040161513e565b6040805180830381865af4158015610b80573d5f5f3e3d5ffd5b505050506040513d601f19601f82011682018060405250810190610ba491906150e0565b9092509050610e78565b610bbe6040880160208901615215565b6001600160401b031615610e13575f610bef610be060408a0160208b01615215565b6001600160401b031687611fde565b90506001600160a01b03811630811490610c4757610c1360408a0160208b01615215565b60405163ea4f4b6160e01b81526001600160401b0390911660048201526001600160a01b0388166024820152604401610ad1565b80158015610c5c5750610c5a8289611f3d565b155b15610c7257610c6a86611fd4565b840393508592505b87610c8360408b0160208c01615215565b6001600160401b031603610cbc576040516324c384ff60e21b8152600481018990526001600160a01b0383166024820152604401610ad1565b5f88604051602001610cd091815260200190565b60408051601f198184030181529190529050610cf260808b0160608c0161522e565b15610d8557610d1c83610d0b60408d0160208e01615215565b6001600160401b03168a8885612071565b8115610d8057845f80610d3560408e0160208f01615215565b6001600160401b031681526020019081526020015f205f8a6001600160a01b03166001600160a01b031681526020019081526020015f205f828254610d7a919061525d565b90915550505b610e0b565b5f80610d9760608d0160408e0161483b565b6001600160a01b031603610dab5786610dbb565b610dbb60608c0160408d0161483b565b90508215610dca57898060015d505b610df084610dde60408e0160208f01615215565b6001600160401b03168b8985876120b6565b8215610e0957610e0260015c8661525d565b94505f60015d5b505b505050610e78565b5f80610e2560608a0160408b0161483b565b6001600160a01b031603610e395783610e49565b610e496060890160408a0161483b565b9050610e558188611f3d565b610e6a57610e6285611fd4565b830392508491505b610e763082888661217d565b505b9550959350505050565b610eba610e8e846122e9565b846015610e9a82611a9e565b6001600160a01b0316610eab611a25565b6001600160a01b031614612338565b60405163446b8a9160e01b81526001600160a01b037f0000000000000000000000000000000000000000000000000000000000000000169063446b8a9190610f0a908690869086906004016152c9565b5f604051808303815f87803b158015610f21575f5ffd5b505af1158015610f33573d5f5f3e3d5ffd5b505050505f5b81811015610fa157837fec91efc21eddd12fa66398fea3251c0e0b95bc53f0cdde2cd2c52e94bf11e078848484818110610f7557610f75615312565b905060600201610f83611a25565b604051610f91929190615326565b60405180910390a2600101610f39565b50505050565b604080516060810182525f808252602082018190528183015290516344f9c50960e01b81527f00000000000000000000000000000000000000000000000000000000000000006001600160a01b0316906344f9c5099061100f9030908790879060040161534c565b606060405180830381865afa15801561102a573d5f5f3e3d5ffd5b505050506040513d601f19601f8201168201806040525081019061082c91906153c2565b6110566140d1565b5f5f60605f611065888c611f3d565b90507f00000000000000000000000000000000000000000000000000000000000000006001600160a01b03166336ba6275308e8e8e8e878e8e6040518963ffffffff1660e01b81526004016110c19897969594939291906153dc565b5f60405180830381865afa1580156110db573d5f5f3e3d5ffd5b505050506040513d5f823e601f3d908101601f191682016040526111029190810190615434565b929f919e509c50909a5098505050505050505050565b6040516396331d9160e01b8152306004820152602481018290526060907f00000000000000000000000000000000000000000000000000000000000000006001600160a01b0316906396331d91906044015f60405180830381865afa158015611183573d5f5f3e3d5ffd5b505050506040513d5f823e601f3d908101601f191682016040526107889190810190615575565b3330146111b5575f5ffd5b6001600160a01b0381166111e75760405163e691ce1960e01b81526001600160a01b0385166004820152602401610ad1565b5f856040516020016111fb91815260200190565b60408051601f1981840301815291905290506001600160a01b03831661122e57611229826001878785612071565b61123d565b61123d826001878787866120b6565b505050505050565b5f5f6112508b6122e9565b905061125e818c6012611b28565b6112a38b828c8c8c8b8b8b8b8080601f0160208091040260200160405190810160405280939291908181526020018383808284375f9201919091525061234892505050565b91506112af8288611f0e565b509998505050505050505050565b61133e88886112cf8b8b8b88886124db565b8888888080601f0160208091040260200160405190810160405280939291908181526020018383808284375f9201919091525050604080516020601f8c018190048102820181019092528a815292508a91508990819084018382808284375f920191909152506127da92505050565b5050505050505050565b6040805160018082528183019092525f918291906020808301908036833701905050905030815f8151811061137f5761137f615312565b6001600160a01b039283166020918202929092010152604051631a58cbdb60e01b81527f000000000000000000000000000000000000000000000000000000000000000090911690631a58cbdb906113e5908a9085908b908b908b908b90600401615605565b602060405180830381865afa158015611400573d5f5f3e3d5ffd5b505050506040513d601f19601f8201168201806040525081019061142491906156ae565b9150505b95945050505050565b5f61143e8686868661284e565b90506114288183611f0e565b5f611456600184611fde565b90505f5b828110156115f5575f8581526002602090815260408083206001600160a01b038816808552908352818420548985526001845282852091855292529091205481106114a557506115f5565b5f8681526001602090815260408083206001600160a01b038916845290915281208054839081106114d8576114d8615312565b5f9182526020918290206040805160608101825260029390930290910180546001600160e01b03168352600101546001600160a01b03811693830193909352600160a01b90920465ffffffffffff16918101829052915042101561153d5750506115f5565b5f8781526001602090815260408083206001600160a01b038a168452909152902080548390811061157057611570615312565b5f918252602080832060029283020180546001600160e01b0319168155600190810180546001600160d01b03191690558a845291815260408084206001600160a01b038b168552909152909120908301905580516115eb90889088906115de906001600160e01b0316611fd4565b8460200151886001612c17565b505060010161145a565b505f8481526001602090815260408083206001600160a01b03871680855290835281842054888552600284528285209185529252909120541080159061165b57505f8481526001602090815260408083206001600160a01b038716845290915290205415155b15610fa1575f8481526001602090815260408083206001600160a01b0387168452909152812061168a9161411c565b5f8481526002602090815260408083206001600160a01b038716845290915281205550505050565b5f6116c76116bf856122e9565b856006611b28565b306001600160a01b03831603611702576040516372a04cfd60e01b8152600481018590526001600160a01b0384166024820152604401610ad1565b604051633a01714f60e01b8152600481018590526001600160a01b038481166024830152831690633a01714f90604401606060405180830381865afa15801561174d573d5f5f3e3d5ffd5b505050506040513d601f19601f8201168201806040525081019061177191906153c2565b6040015163ffffffff165f036117b45760405163710c1bab60e11b8152600481018590526001600160a01b03808516602483015283166044820152606401610ad1565b5f848152602081815260408083206001600160a01b038781168086529190935281842093909355516319781e2360e01b81526004810187905260248101929092527f000000000000000000000000000000000000000000000000000000000000000016906319781e23906044016020604051808303815f875af115801561183d573d5f5f3e3d5ffd5b505050506040513d601f19601f8201168201806040525081019061186191906156ae565b9050816001600160a01b0316836001600160a01b0316857ff0aa72bb9c2a07cf43281bfe8c525ba320fdc71e18b54c9f93ab22ce074af7f6846118a2611a25565b604080519283526001600160a01b0390911660208301520160405180910390a4801561082c575f6118d38386611f3d565b1580156118e1575060018514155b156118fe576118fb8585846118f5896122e9565b5f612da5565b90505b5f818303905061191f8487878460405180602001604052805f815250612f21565b50509392505050565b333014611933575f5ffd5b61193f3084848461217d565b505050565b5f5f611950888c612f9c565b90505f6119608c8c8c88886124db565b90506119f08c8c83611970611a25565b8d8c8c8080601f0160208091040260200160405190810160405280939291908181526020018383808284375f81840152601f19601f820116905080830192505050505050508b8b8080601f0160208091040260200160405190810160405280939291908181526020018383808284375f9201919091525061302f92505050565b5f6119fb8a8e612f9c565b905082811115611a0b5782810393505b611a15848a611f0e565b5050509998505050505050505050565b5f611a2e61324d565b905090565b604080516080810182525f808252602082018190529181018290526060810182905290611a6085856132b7565b604080516080810182526001600160a01b03909616865260208083015160ff16908701529081015163ffffffff169085015250506060820152919050565b604051632eec7b5560e11b8152600481018290525f907f00000000000000000000000000000000000000000000000000000000000000006001600160a01b031690635dd8f6aa906024015b602060405180830381865afa158015611b04573d5f5f3e3d5ffd5b505050506040513d601f19601f8201168201806040525081019061078891906156c5565b5f611b31611a25565b9050836001600160a01b0316816001600160a01b031614158015611bfe5750604051631a45b42760e11b81526001600160a01b0382811660048301528581166024830152604482018590526064820184905260016084830181905260a48301527f0000000000000000000000000000000000000000000000000000000000000000169063348b684e9060c401602060405180830381865afa158015611bd8573d5f5f3e3d5ffd5b505050506040513d601f19601f82011682018060405250810190611bfc919061510d565b155b15610fa157604051631326f75560e11b81526001600160a01b038086166004830152821660248201526044810184905260648101839052608401610ad1565b5f611c466140d1565b60605f5f611c54878b611f3d565b60405163ae4a0d5d60e01b81529091506001600160a01b037f0000000000000000000000000000000000000000000000000000000000000000169063ae4a0d5d90611cad908e908e908e908e9088908e906004016156e0565b5f604051808303815f875af1158015611cc8573d5f5f3e3d5ffd5b505050506040513d5f823e601f3d908101601f19168201604052611cef9190810190615434565b919750919550935091508815611d7c57611d088a611a9e565b60405163516a997360e11b81526001600160a01b038d81166004830152602482018d9052604482018c9052608060648301525f6084830152919091169063a2d532e69060a4015f604051808303815f87803b158015611d65575f5ffd5b505af1158015611d77573d5f5f3e3d5ffd5b505050505b5f8515611e4d5781611e3b578215611dac57611d98868261525d565b9050611da386611fd4565b86039550611e3b565b5f8b8152602081815260408083206001600160a01b038d1684529091529020548015611e39575f818810611de05781611de2565b875b90508082035f5f8f81526020019081526020015f205f8d6001600160a01b03166001600160a01b031681526020019081526020015f20819055508083611e28919061525d565b9250611e3381611fd4565b88039750505b505b8515611e4d57611e4d30898b8961217d565b835115611e7c57611e6f8b611e638d8c8a611a33565b8e8d8b8a898f8c613394565b611e79908261525d565b90505b611e868b8a6135ea565b8015611e9b57611e998b8a838b5f612da5565b505b8a855f015165ffffffffffff16866020015165ffffffffffff167ffaf1d4bf1b08470c7ed8c351c5065f51af70b36b237723173f898453b97241428f8c8f898d8f611ee4611a25565b604051611ef79796959493929190615721565b60405180910390a450505050509695505050505050565b80821015611f3957604051633595d9c160e11b81526004810183905260248101829052604401610ad1565b5050565b5f7f00000000000000000000000000000000000000000000000000000000000000006001600160a01b0316638717d7c28484611f77611a25565b6040518463ffffffff1660e01b8152600401611f959392919061534c565b602060405180830381865afa158015611fb0573d5f5f3e3d5ffd5b505050506040513d601f19601f8201168201806040525081019061082c919061510d565b5f610788826136d9565b604051630862026560e41b8152600481018390526001600160a01b0382811660248301525f917f000000000000000000000000000000000000000000000000000000000000000090911690638620265090604401602060405180830381865afa15801561204d573d5f5f3e3d5ffd5b505050506040513d601f19601f8201168201806040525081019061082c91906156c5565b306001600160a01b038616036120a25761209d8484845f60405180602001604052805f815250866127da565b6120af565b6120af8585858585612f21565b5050505050565b306001600160a01b038716036120e357611229858585308660405180602001604052805f8152508761302f565b5f6120ef8786866136e5565b9050866001600160a01b031663fef4325782888888885f896040518863ffffffff1660e01b81526004016121289695949392919061577d565b60206040518083038185885af1158015612144573d5f5f3e3d5ffd5b50505050506040513d601f19601f8201168201806040525081019061216991906156ae565b50612174878661371d565b50505050505050565b306001600160a01b038516036121c35761eeed196001600160a01b038316016121af576121aa83826137e0565b610fa1565b6121aa6001600160a01b0383168483613853565b604051636eb1769f60e11b81526001600160a01b03858116600483015230602483015282919084169063dd62ed3e90604401602060405180830381865afa158015612210573d5f5f3e3d5ffd5b505050506040513d601f19601f8201168201806040525081019061223491906156ae565b1061224e576121aa6001600160a01b038316858584613888565b61225f816001600160a01b036138be565b604051631b63c28b60e11b81526001600160a01b0385811660048301528481166024830152828116604483015283811660648301527f000000000000000000000000000000000000000000000000000000000000000016906336c78516906084015f604051808303815f87803b1580156122d7575f5ffd5b505af115801561133e573d5f5f3e3d5ffd5b6040516331a9108f60e11b8152600481018290525f907f00000000000000000000000000000000000000000000000000000000000000006001600160a01b031690636352211e90602401611ae9565b80610fa157610fa1848484611b28565b5f6123516140d1565b604051631ee6e8cd60e31b8152600481018b90526001600160a01b03898116602483015260448201899052606482018890525f917f00000000000000000000000000000000000000000000000000000000000000009091169063f737466890608401610140604051808303815f875af11580156123d0573d5f5f3e3d5ffd5b505050506040513d601f19601f820116820180604052508101906123f491906157cb565b90925090506124038b8a6135ea565b61240d8a8c611f3d565b8061241d575061241d868c611f3d565b612449576124448b8a838861243f8761010001516001604e9190911c81161490565b612da5565b61244b565b5f5b61245590826157f8565b92508a825f015165ffffffffffff16836020015165ffffffffffff167fd836655d29bc0376acd403e1e5a574fc237f820c4717dd006e0c087dfafda56c89898d878a8c6124a0611a25565b6040516124b39796959493929190615721565b60405180910390a482156124cd576124cd30878b8661217d565b505098975050505050505050565b5f6124e686866132b7565b5061eeed196001600160a01b03861601612501575034611428565b341561252257604051633ad385fd60e01b8152346004820152602401610ad1565b5f5f61258a61254f604051806040016040528060078152602001663832b936b4ba1960c91b8152506138e9565b86868080601f0160208091040260200160405190810160405280939291908181526020018383808284375f920191909152506138fc92505050565b915091508115612751575f818060200190518101906125a9919061580b565b905080602001516001600160a01b03168711156125f15760208101516040516363f4ca5d60e11b8152600481018990526001600160a01b039091166024820152604401610ad1565b6040805160e0810182526001600160a01b03808b166060808401918252602086810151841660808601528686015165ffffffffffff90811660a08701529187015190911660c08501529083523090830152835192820192909252907f000000000000000000000000000000000000000000000000000000000000000016632b67b57061267b611a25565b8385608001516040518463ffffffff1660e01b815260040161269f939291906158b8565b5f604051808303815f87803b1580156126b6575f5ffd5b505af19250505080156126c7575060015b61274e573d8080156126f4576040519150601f19603f3d011682016040523d82523d5f602084013e6126f9565b606091505b50612702611a25565b6001600160a01b03168a6001600160a01b03167f60c94ee7ec6663b036add7ec4741725a22838a5d43da5c56d75095d2998be4d783604051612744919061593e565b60405180910390a3505b50505b5f61275b88613a9c565b905060ff5f5c161561278b57604051636f8fea8560e01b81526001600160a01b0389166004820152602401610ad1565b60015f805c60ff19168217905d506127ac6127a4611a25565b308a8a61217d565b5f816127b78a613a9c565b6127c191906157f8565b90505f60ff19815c16815d509998505050505050505050565b5f836127e6575f6127f1565b6127f1878787613b21565b9050867f9ecaf7fc3dfffd6867c175d6e684b1f1e3aef019398ba8db2c1ffab4a09db25386838686612821611a25565b604051612832959493929190615950565b60405180910390a26121748787612849848961525d565b613bd7565b5f5f612858611a25565b90506128626140d1565b60405163777aa5bf60e01b8152600481018890526001600160a01b03878116602483015260448201879052606482018690527f0000000000000000000000000000000000000000000000000000000000000000169063777aa5bf90608401610140604051808303815f875af11580156128dd573d5f5f3e3d5ffd5b505050506040513d601f19601f8201168201806040525081019061290191906157cb565b935090505f839003612914575050612c0f565b5f61291e886122e9565b610100830151909150604d1c6001908116036129405761294081896005611b28565b6020820151604051633851b6ab60e11b81526001600160a01b037f0000000000000000000000000000000000000000000000000000000000000000811660048301527f000000000000000000000000000000000000000000000000000000000000000081166024830152604482018b9052808a16606483015265ffffffffffff909216608482015260a4810186905290841660c48201525f908190738a7409d34ae5c2c497a85aa1f4ba9793be8b33d2906370a36d569060e4016040805180830381865af4158015612a14573d5f5f3e3d5ffd5b505050506040513d601f19601f82011682018060405250810190612a3891906150e0565b91509150815f14612b65575f612a4e848c611f3d565b612a6057612a5b83611fd4565b612a62565b5f5b604051637ef5e31560e11b81526001600160a01b0380871660048301528c16602482015281850360448201819052919250309063fdebc62a906064015f604051808303815f87803b158015612ab5575f5ffd5b505af1925050508015612ac6575060015b612b4c573d808015612af3576040519150601f19603f3d011682016040523d82523d5f602084013e612af8565b606091505b508c7fb10fe0662ad844408d7cca62384b7691f2f9bf6bd6d73f9d7192bd758d4142ae878e8587868e604051612b339695949392919061599b565b60405180910390a2612b468d8d87613bd7565b50612b62565b8115612b6257612b5c848461525d565b92508093505b50505b612b6f8a8a6135ea565b5f612b8e8b8b848761243f8a61010001516001604e9190911c81161490565b8551602080880151604080516001600160a01b03808b1682529381018f90529081018c90526060810185905260808101889052918a1660a08301529293508d9265ffffffffffff9283169216907fda42c5c18ef97738d10c32811895add569670a6fcbe9627ea198d446f3be6dea9060c00160405180910390a45050505050505b949350505050565b604051632fc8972b60e11b8152600481018790526001600160a01b038087166024830152604482018690528085166064830152831660848201523090635f912e569060a4015f604051808303815f87803b158015612c73575f5ffd5b505af1925050508015612c84575060015b612d3c573d808015612cb1576040519150601f19603f3d011682016040523d82523d5f602084013e612cb6565b606091505b506001866001600160a01b0316887f4b73f3c5cfb174c9d0494138d07ff8ee3aa400df46327d9893ed5ac122dd558a8885612cef611a25565b604051612cfe939291906159ef565b60405180910390a4612d11878787613bd7565b505f868152602081815260408083206001600160a01b0389168452909152902080548501905561123d565b83856001600160a01b0316877fb514e730b3f8ad3aa94b6857bcc5ff4a46954bdcf8c4b0346705b1d0ac7a43258487612d73611a25565b6040805193151584526001600160a01b03928316602085015291169082015260600160405180910390a4505050505050565b5f612daf84611fd4565b90508115612efb57612dc8846001600160e01b036138be565b5f8681526001602090815260408083206001600160a01b03808a1685529083529281902081516060810183526001600160e01b0389168152938716928401929092529091908101612e1c6224ea004261525d565b65ffffffffffff9081169091528254600181810185555f948552602094859020845160029093020180546001600160e01b039093166001600160e01b03199093169290921782559383015193018054604090930151909116600160a01b026001600160d01b03199092166001600160a01b039384161791909117905584908616877fef9cd8fc3b61b64b44042ada0a8a3ede1649bc1b112673da228120f13bf1381e601987612ec9611a25565b6040805161ffff90941684526001600160a01b03928316602085015291169082015260600160405180910390a4611428565b5f612f07600187611fde565b9050612f1787878487855f612c17565b5095945050505050565b5f612f2d8685856136e5565b9050856001600160a01b0316639e6eec05828787875f886040518763ffffffff1660e01b8152600401612f64959493929190615a1f565b5f604051808303818588803b158015612f7b575f5ffd5b505af1158015612f8d573d5f5f3e3d5ffd5b505050505061123d868561371d565b6040516310f0007760e31b81526001600160a01b038381166004830152602482018390525f917f00000000000000000000000000000000000000000000000000000000000000009091169063878003b890604401602060405180830381865afa15801561300b573d5f5f3e3d5ffd5b505050506040513d601f19601f8201168201806040525081019061082c91906156ae565b60015c801561303d575f60015d5b5f613049898989611a33565b90505f5f5f7f00000000000000000000000000000000000000000000000000000000000000006001600160a01b031663c59dfadb8a868f8c8b6040518663ffffffff1660e01b81526004016130a2959493929190615a60565b5f604051808303815f875af11580156130bd573d5f5f3e3d5ffd5b505050506040513d5f823e601f3d908101601f191682016040526130e49190810190614fa9565b925092509250845f146131765760608401515f5b825181101561312e5782818151811061311357613113615312565b602002602001015160400151820391508060010190506130f8565b50805f5f8f81526020019081526020015f205f8e6001600160a01b03166001600160a01b031681526020019081526020015f205f82825461316f919061525d565b9091555050505b5f8215613216576131868d611a9e565b6040516363fdc96f60e11b8152600481018f9052602481018590526001600160a01b038b8116604483015260a060648301525f60a483015260016084830152919091169063c7fb92de9060c4016020604051808303815f875af11580156131ef573d5f5f3e3d5ffd5b505050506040513d601f19601f8201168201806040525081019061321391906156ae565b90505b613226848e8c8c8f868e8e613c57565b81511561323e5761323e8d83878d888e878e8e613cc5565b50505050505050505050505050565b5f36601480821080159061328957507f00000000000000000000000000000000000000000000000000000000000000006001600160a01b031633145b156132af5761329c36828403815f615aa4565b6132a591615acb565b60601c9250505090565b339250505090565b604080516060810182525f808252602082018190528183015290516344f9c50960e01b81527f00000000000000000000000000000000000000000000000000000000000000006001600160a01b0316906344f9c5099061331f9030908790879060040161534c565b606060405180830381865afa15801561333a573d5f5f3e3d5ffd5b505050506040513d601f19601f8201168201806040525081019061335e91906153c2565b80519091506001600160a01b03166107885760405163765b60eb60e11b81526001600160a01b0383166004820152602401610ad1565b5f5f6040518061014001604052808a6001600160a01b031681526020018c8152602001876020015165ffffffffffff1681526020018981526020018b81526020018b8152602001868152602001856001600160a01b0316815260200160405180602001604052805f81525081526020018881525090505f5b83518110156135db575f84828151811061342857613428615312565b60200260200101519050806020015115613445575060010161340c565b5f613453825f01518f611f3d565b613469576134648260400151611fd4565b61346b565b5f5b9050801561349a576040820151613482908661525d565b9450808260400181815161349691906157f8565b9052505b60405180608001604052808e5f01516001600160a01b031681526020018e6020015160ff1681526020018e6040015163ffffffff16815260200183604001518152508460a0018190525081606001518461010001819052505f613508835f01518f5f015185604001516136e5565b835160405163611481d960e11b81529192506001600160a01b03169063c22903b290839061353a908990600401615bc5565b5f604051808303818588803b158015613551575f5ffd5b505af1158015613563573d5f5f3e3d5ffd5b5050505050613578835f01518f5f015161371d565b825f01516001600160a01b03167fcf8b519514967a394374844411e77f7b1aab68299a65fa6d3593a4f30deaec35868560400151856135b5611a25565b6040516135c59493929190615bd7565b60405180910390a283600101935050505061340c565b50509998505050505050505050565b5f828152602081815260408083206001600160a01b03851684529091528120549081900361361757505050565b60405163467f4cb960e01b81525f906001600160a01b037f0000000000000000000000000000000000000000000000000000000000000000169063467f4cb9906136699030908890889060040161534c565b602060405180830381865afa158015613684573d5f5f3e3d5ffd5b505050506040513d601f19601f820116820180604052508101906136a891906156ae565b905080821115610fa1575f938452602084815260408086206001600160a01b03959095168652939052919092205550565b5f610788602883615c0e565b5f61eeed196001600160a01b0384160161370057508061082c565b6137146001600160a01b0384168584613efa565b505f9392505050565b61eeed196001600160a01b03821601613734575050565b604051636eb1769f60e11b81523060048201526001600160a01b0383811660248301525f919083169063dd62ed3e90604401602060405180830381865afa158015613781573d5f5f3e3d5ffd5b505050506040513d601f19601f820116820180604052508101906137a591906156ae565b9050801561193f576040516310211ef960e11b81526001600160a01b0380841660048301528416602482015260448101829052606401610ad1565b8047101561380a5760405163cf47918160e01b815247600482015260248101829052604401610ad1565b613823828260405180602001604052805f815250613f4c565b1561382c575050565b3d1561383a57611f39613f61565b60405163d6bda27560e01b815260040160405180910390fd5b6138608383836001613f6c565b61193f57604051635274afe760e01b81526001600160a01b0384166004820152602401610ad1565b613896848484846001613fce565b610fa157604051635274afe760e01b81526001600160a01b0385166004820152602401610ad1565b80821115611f3957604051631999bf2f60e11b81526004810183905260248101829052604401610ad1565b805160208201205f903060601b18610788565b5f6060602583511161391f57505060408051602081019091525f80825290613a95565b5f8361392d6004602061525d565b8151811061393d5761393d615312565b0160209081015160f81c91505b5f8561395760048461525d565b8151811061396757613967615312565b01602001516001600160f81b0319161480159061398d575061398a602083615c2d565b81105b15613a92575f8561399f60048461525d565b815181106139af576139af615312565b016020908101518784019091015160f89190911c91506001600160e01b031980891690821603613a88575f6139e5602086615c2d565b6139f060098661525d565b101580613a25575087613a0460098661525d565b81518110613a1457613a14615312565b01602001516001600160f81b031916155b613a5e57602088613a3760098761525d565b81518110613a4757613a47615312565b0160200151613a59919060f81c615c2d565b613a61565b87515b90506001613a7a89613a74602087615c2d565b8461403b565b965096505050505050613a95565b505060050161394a565b50505b9250929050565b5f6001600160a01b03821661eeee14613b1a576040516370a0823160e01b81523060048201526001600160a01b038316906370a0823190602401602060405180830381865afa158015613af1573d5f5f3e3d5ffd5b505050506040513d601f19601f82011682018060405250810190613b1591906156ae565b610788565b4792915050565b5f7362e77076b6e902e7aec8b2925acc9b46058e3d3863b989267660016002878787613b4b611a25565b6040516001600160e01b031960e089901b1681526004810196909652602486019490945260448501929092526001600160a01b03908116606485015260848401919091521660a482015260c401602060405180830381865af4158015613bb3573d5f5f3e3d5ffd5b505050506040513d601f19601f8201168201806040525081019061082991906156ae565b6040516351fc173560e01b8152600481018490526001600160a01b038381166024830152604482018390527f000000000000000000000000000000000000000000000000000000000000000016906351fc1735906064015f604051808303815f87803b158015613c45575f5ffd5b505af1158015612174573d5f5f3e3d5ffd5b86885f015165ffffffffffff16896020015165ffffffffffff167f133161f1c9161488f777ab9a26aae91d47c0d9a3fafb398960f138db02c73797898989898989613ca0611a25565b604051613cb39796959493929190615c44565b60405180910390a45050505050505050565b5f5f604051806101400160405280896001600160a01b031681526020018c8152602001886020015165ffffffffffff1681526020018a81526020018a81526020018860a001516001600160701b03168152602001868152602001876001600160a01b0316815260200160405180602001604052805f81525081526020018581525090505f5b8a51811015613ee6575f8b8281518110613d6657613d66615312565b60200260200101519050806020015115613d835750600101613d4a565b60408101518515801590613da057508151613d9e9087611f3d565b155b15613db55793840193613db281611fd4565b90035b60405180608001604052808d5f01516001600160a01b031681526020018d6020015160ff1681526020018d6040015163ffffffff16815260200182815250846080018190525081606001518461010001819052505f613e1b835f01518e5f0151846136e5565b835160405163099bfcc360e11b81529192506001600160a01b031690631337f986908390613e4d908990600401615d24565b5f604051808303818588803b158015613e64575f5ffd5b505af1158015613e76573d5f5f3e3d5ffd5b5050505050613e8b835f01518e5f015161371d565b82516001600160a01b03167fb1ed2cd5f80d2005b57f16c4c1a1c8ee500b96725924cad83e44f32f05f400c08684613ec1611a25565b604051613ed093929190615d36565b60405180910390a2836001019350505050613d4a565b50818060015d505050505050505050505050565b613f068383835f614087565b61193f57613f1783835f6001614087565b613f3f57604051635274afe760e01b81526001600160a01b0384166004820152602401610ad1565b6138608383836001614087565b5f5f5f83516020850186885af1949350505050565b6040513d5f823e3d81fd5b60405163a9059cbb60e01b5f8181526001600160a01b038616600452602485905291602083604481808b5af1925060015f51148316613fc2578383151615613fb6573d5f823e3d81fd5b5f873b113d1516831692505b60405250949350505050565b6040516323b872dd60e01b5f8181526001600160a01b038781166004528616602452604485905291602083606481808c5af1925060015f5114831661402a57838315161561401e573d5f823e3d81fd5b5f883b113d1516831692505b604052505f60605295945050505050565b60608282036040519150601f19601f6020838501010116604052808252836020860101602083015f5b8381101561407c578281015182820152602001614064565b505050509392505050565b60405163095ea7b360e01b5f8181526001600160a01b038616600452602485905291602083604481808b5af1925060015f51148316613fc2578383151615613fb6573d5f823e3d81fd5b60408051610120810182525f80825260208201819052918101829052606081018290526080810182905260a0810182905260c0810182905260e0810182905261010081019190915290565b5080545f8255600202905f5260205f209081019061413a919061413d565b50565b5b8082111561416e5780546001600160e01b03191681556001810180546001600160d01b031916905560020161413e565b5090565b5f60208284031215614182575f5ffd5b81356001600160e01b03198116811461082c575f5ffd5b6001600160a01b038116811461413a575f5ffd5b5f5f5f606084860312156141bf575f5ffd5b8335925060208401356141d181614199565b929592945050506040919091013590565b602080825282518282018190525f918401906040840190835b8181101561424c57835180516001600160e01b031684526020808201516001600160a01b03168186015260409182015165ffffffffffff1691850191909152909301926060909201916001016141fb565b509095945050505050565b5f5f83601f840112614267575f5ffd5b5081356001600160401b0381111561427d575f5ffd5b602083019150836020828501011115613a95575f5ffd5b5f5f5f5f5f5f60a087890312156142a9575f5ffd5b8635955060208701356142bb81614199565b94506040870135935060608701356142d281614199565b925060808701356001600160401b038111156142ec575f5ffd5b6142f889828a01614257565b979a9699509497509295939492505050565b65ffffffffffff815116825265ffffffffffff60208201511660208301526040810151614341604084018265ffffffffffff169052565b50606081015161435b606084018265ffffffffffff169052565b506080810151614373608084018263ffffffff169052565b5060a081015161438e60a08401826001600160701b03169052565b5060c08101516143a660c084018263ffffffff169052565b5060e08101516143c160e08401826001600160a01b03169052565b5061010090810151910152565b5f81518084528060208401602086015e5f602082860101526020601f19601f83011685010191505092915050565b5f610180820161440c838861430a565b85610120840152846101408401526101806101608401528084518083526101a0850191506101a08160051b8601019250602086015f5b828110156144aa5786850361019f19018452815180516001600160a01b0316865260208082015115159087015260408082015190870152606090810151608091870182905290614494908701826143ce565b9550506020938401939190910190600101614442565b50929998505050505050505050565b5f5f5f5f5f5f5f5f60e0898b0312156144d0575f5ffd5b88356144db81614199565b9750602089013596506040890135955060608901356144f981614199565b94506080890135935060a089013561451081614199565b925060c08901356001600160401b0381111561452a575f5ffd5b6145368b828c01614257565b999c989b5096995094979396929594505050565b5f5f5f5f5f858703610140811215614560575f5ffd5b60c081121561456d575f5ffd5b5085945060c0850135935060e085013561458681614199565b9250610100860135915061012086013561459f81614199565b809150509295509295909350565b5f5f5f604084860312156145bf575f5ffd5b8335925060208401356001600160401b038111156145db575f5ffd5b8401601f810186136145eb575f5ffd5b80356001600160401b03811115614600575f5ffd5b866020606083028401011115614614575f5ffd5b939660209190910195509293505050565b5f5f60408385031215614636575f5ffd5b82359150602083013561464881614199565b809150509250929050565b81516001600160a01b0316815260208083015160ff169082015260408083015163ffffffff169082015260608101610788565b5f5f5f5f5f5f5f60c0888a03121561469c575f5ffd5b87356146a781614199565b9650602088013595506040880135945060608801356146c581614199565b935060808801356146d581614199565b925060a08801356001600160401b038111156146ef575f5ffd5b6146fb8a828b01614257565b989b979a50959850939692959293505050565b5f610180820161471e838861430a565b85610120840152846101408401526101806101608401528084518083526101a0850191506101a08160051b8601019250602086015f5b828110156144aa5786850361019f19018452815180516001600160a01b03168652602080820151151590870152604080820151908701526060908101516080918701829052906147a6908701826143ce565b9550506020938401939190910190600101614754565b5f602082840312156147cc575f5ffd5b5035919050565b602080825282518282018190525f918401906040840190835b8181101561424c5761482583855180516001600160a01b0316825260208082015160ff169083015260409081015163ffffffff16910152565b60209390930192606092909201916001016147ec565b5f6020828403121561484b575f5ffd5b813561082c81614199565b5f5f5f5f5f60a0868803121561486a575f5ffd5b85359450602086013561487c81614199565b935060408601359250606086013561489381614199565b9150608086013561459f81614199565b5f5f5f5f5f5f5f5f5f6101008a8c0312156148bc575f5ffd5b8935985060208a01356148ce81614199565b975060408a0135965060608a0135955060808a0135945060a08a01356148f381614199565b935060c08a013561490381614199565b925060e08a01356001600160401b0381111561491d575f5ffd5b6149298c828d01614257565b915080935050809150509295985092959850929598565b801515811461413a575f5ffd5b5f5f5f5f5f5f5f5f60c0898b031215614964575f5ffd5b88359750602089013561497681614199565b965060408901359550606089013561498d81614940565b945060808901356001600160401b038111156149a7575f5ffd5b6149b38b828c01614257565b90955093505060a08901356001600160401b0381111561452a575f5ffd5b5f5f5f5f5f608086880312156149e5575f5ffd5b8535945060208601356001600160401b03811115614a01575f5ffd5b8601601f81018813614a11575f5ffd5b80356001600160401b03811115614a26575f5ffd5b8860208260051b8401011115614a3a575f5ffd5b959860209190910197509495604081013595606090910135945092505050565b5f5f5f5f5f60a08688031215614a6e575f5ffd5b853594506020860135614a8081614199565b94979496505050506040830135926060810135926080909101359150565b5f5f5f60608486031215614ab0575f5ffd5b833592506020840135614ac281614199565b91506040840135614ad281614199565b809150509250925092565b5f5f5f60608486031215614aef575f5ffd5b8335614afa81614199565b925060208401356141d181614199565b5f5f5f5f5f5f5f5f5f60e08a8c031215614b22575f5ffd5b8935985060208a0135614b3481614199565b975060408a0135965060608a0135614b4b81614199565b955060808a0135945060a08a01356001600160401b03811115614b6c575f5ffd5b614b788c828d01614257565b90955093505060c08a01356001600160401b0381111561491d575f5ffd5b634e487b7160e01b5f52604160045260245ffd5b604051606081016001600160401b0381118282101715614bcc57614bcc614b96565b60405290565b60405161012081016001600160401b0381118282101715614bcc57614bcc614b96565b604051608081016001600160401b0381118282101715614bcc57614bcc614b96565b60405160a081016001600160401b0381118282101715614bcc57614bcc614b96565b604051601f8201601f191681016001600160401b0381118282101715614c6157614c61614b96565b604052919050565b5f6001600160401b03821115614c8157614c81614b96565b5060051b60200190565b65ffffffffffff8116811461413a575f5ffd5b8051614ca981614c8b565b919050565b5f60208284031215614cbe575f5ffd5b81516001600160401b03811115614cd3575f5ffd5b8201601f81018413614ce3575f5ffd5b8051614cf6614cf182614c69565b614c39565b80828252602082019150602060608402850101925086831115614d17575f5ffd5b6020840193505b82841015614d8f5760608488031215614d35575f5ffd5b614d3d614baa565b84516001600160e01b0381168114614d53575f5ffd5b81526020850151614d6381614199565b60208201526040850151614d7681614c8b565b6040820152825260609390930192602090910190614d1e565b9695505050505050565b80516001600160a01b0316825260208082015160ff169083015260408082015163ffffffff1690830152606090810151910152565b81835281816020850137505f828201602090810191909152601f909101601f19169091010190565b6001600160a01b03888116825287166020820152614e176040820187614d99565b8460c082015260018060a01b03841660e08201526101206101008201525f614e4461012083018486614dce565b9998505050505050505050565b63ffffffff8116811461413a575f5ffd5b8051614ca981614e51565b80516001600160701b0381168114614ca9575f5ffd5b8051614ca981614199565b5f6101208284031215614e9f575f5ffd5b614ea7614bd2565b9050614eb282614c9e565b8152614ec060208301614c9e565b6020820152614ed160408301614c9e565b6040820152614ee260608301614c9e565b6060820152614ef360808301614e62565b6080820152614f0460a08301614e6d565b60a0820152614f1560c08301614e62565b60c0820152614f2660e08301614e83565b60e08201526101009182015191810191909152919050565b5f82601f830112614f4d575f5ffd5b81516001600160401b03811115614f6657614f66614b96565b614f79601f8201601f1916602001614c39565b818152846020838601011115614f8d575f5ffd5b8160208501602083015e5f918101602001919091529392505050565b5f5f5f6101608486031215614fbc575f5ffd5b614fc68585614e8e565b61012085015161014086015191945092506001600160401b03811115614fea575f5ffd5b8401601f81018613614ffa575f5ffd5b8051615008614cf182614c69565b8082825260208201915060208360051b850101925088831115615029575f5ffd5b602084015b838110156150d15780516001600160401b0381111561504b575f5ffd5b85016080818c03601f19011215615060575f5ffd5b615068614bf5565b602082015161507681614199565b8152604082015161508681614940565b60208201526060820151604082015260808201516001600160401b038111156150ad575f5ffd5b6150bc8d602083860101614f3e565b6060830152508452506020928301920161502e565b50809450505050509250925092565b5f5f604083850312156150f1575f5ffd5b505080516020909101519092909150565b8035614ca981614199565b5f6020828403121561511d575f5ffd5b815161082c81614940565b80356001600160401b0381168114614ca9575f5ffd5b6101608101873561514e81614e51565b63ffffffff1682526001600160401b0361516a60208a01615128565b166020830152604088013561517e81614199565b6001600160a01b03166040830152606088013561519a81614940565b1515606083015260808801356151af81614c8b565b65ffffffffffff1660808301526151c860a08901615102565b6001600160a01b0390811660a084015260c08301889052861660e0830152846101008301528361012083015261520a6101408301846001600160a01b03169052565b979650505050505050565b5f60208284031215615225575f5ffd5b61082c82615128565b5f6020828403121561523e575f5ffd5b813561082c81614940565b634e487b7160e01b5f52601160045260245ffd5b8082018082111561078857610788615249565b60ff8116811461413a575f5ffd5b803561528981614199565b6001600160a01b0316825260208101356152a281615270565b60ff16602083015260408101356152b881614e51565b63ffffffff81166040840152505050565b83815260406020820181905281018290525f8360608301825b85811015615307576152f4828461527e565b60609283019291909101906001016152e2565b509695505050505050565b634e487b7160e01b5f52603260045260245ffd5b60808101615334828561527e565b6001600160a01b039290921660609190910152919050565b6001600160a01b0393841681526020810192909252909116604082015260600190565b5f6060828403121561537f575f5ffd5b615387614baa565b9050815161539481614199565b815260208201516153a481615270565b602082015260408201516153b781614e51565b604082015292915050565b5f606082840312156153d2575f5ffd5b61082c838361536f565b6001600160a01b038981168252888116602083015260408201889052606082018790528516608082015283151560a082015260e060c082018190525f906154269083018486614dce565b9a9950505050505050505050565b5f5f5f5f6101808587031215615448575f5ffd5b6154528686614e8e565b61012086015161014087015161016088015192965090945092506001600160401b0381111561547f575f5ffd5b8501601f8101871361548f575f5ffd5b805161549d614cf182614c69565b8082825260208201915060208360051b8501019250898311156154be575f5ffd5b602084015b838110156155665780516001600160401b038111156154e0575f5ffd5b85016080818d03601f190112156154f5575f5ffd5b6154fd614bf5565b602082015161550b81614199565b8152604082015161551b81614940565b60208201526060820151604082015260808201516001600160401b03811115615542575f5ffd5b6155518e602083860101614f3e565b606083015250845250602092830192016154c3565b50969995985093965050505050565b5f60208284031215615585575f5ffd5b81516001600160401b0381111561559a575f5ffd5b8201601f810184136155aa575f5ffd5b80516155b8614cf182614c69565b808282526020820191506020606084028501019250868311156155d9575f5ffd5b6020840193505b82841015614d8f576155f2878561536f565b82526020820191506060840193506155e0565b5f60a0820188835260a0602084015280885180835260c08501915060208a0192505f5b8181101561564f5783516001600160a01b0316835260209384019390920191600101615628565b505083810360408501528681526020019050865f805b8881101561569657823561567881614199565b6001600160a01b031684526020938401939290920191600101615665565b50505060608301949094525060800152949350505050565b5f602082840312156156be575f5ffd5b5051919050565b5f602082840312156156d5575f5ffd5b815161082c81614199565b6001600160a01b038781168252602082018790526040820186905284166060820152821515608082015260c060a082018190525f906109e2908301846143ce565b6001600160a01b0388811682528716602082015260408101869052606081018590526080810184905260e060a082018190525f90615761908301856143ce565b905060018060a01b03831660c083015298975050505050505050565b8681526001600160a01b03868116602083015260408201869052841660608201526080810183905260e060a082018190525f90820181905261010060c083018190526109e2908301846143ce565b5f5f61014083850312156157dd575f5ffd5b6157e78484614e8e565b610120939093015192949293505050565b8181038181111561078857610788615249565b5f6020828403121561581b575f5ffd5b81516001600160401b03811115615830575f5ffd5b820160a08185031215615841575f5ffd5b615849614c17565b81518152602082015161585b81614199565b6020820152604082015161586e81614c8b565b6040820152606082015161588181614c8b565b606082015260808201516001600160401b0381111561589e575f5ffd5b6158aa86828501614f3e565b608083015250949350505050565b60018060a01b03841681525f835160018060a01b03815116602084015260018060a01b03602082015116604084015265ffffffffffff604082015116606084015265ffffffffffff60608201511660808401525060018060a01b0360208501511660a0830152604084015160c083015261010060e08301526114286101008301846143ce565b602081525f61082c60208301846143ce565b85815284602082015260a060408201525f61596e60a08301866143ce565b828103606084015261598081866143ce565b91505060018060a01b03831660808301529695505050505050565b6001600160a01b03878116825286166020820152604081018590526060810184905260c0608082018190525f906159d4908301856143ce565b905060018060a01b03831660a0830152979650505050505050565b838152606060208201525f615a0760608301856143ce565b905060018060a01b0383166040830152949350505050565b85815260018060a01b0385166020820152836040820152821515606082015260c060808201525f60c082015260e060a08201525f61520a60e08301846143ce565b6001600160a01b0386168152615a796020820186614d99565b8360a082015260018060a01b03831660c082015261010060e08201525f61520a6101008301846143ce565b5f5f85851115615ab2575f5ffd5b83861115615abe575f5ffd5b5050820193919092039150565b80356bffffffffffffffffffffffff198116906014841015615b11576bffffffffffffffffffffffff196bffffffffffffffffffffffff198560140360031b1b82161691505b5092915050565b80516001600160a01b031682526020810151602083015260408101516040830152606081015160608301525f6080820151615b566080850182614d99565b5060a0820151615b6a610100850182614d99565b5060c082015161018084015260e08201516001600160a01b0381166101a08501525b506101008201516102006101c0850152615baa6102008501826143ce565b90506101208301518482036101e086015261142882826143ce565b602081525f61082c6020830184615b18565b608081525f615be96080830187615b18565b60208301959095525060408101929092526001600160a01b0316606090910152919050565b5f82615c2857634e487b7160e01b5f52601260045260245ffd5b500490565b808202811582820484141761078857610788615249565b6001600160a01b03888116825287166020820152604081018690526060810185905260e0608082018190525f90615c7d908301866143ce565b82810360a0840152615c8f81866143ce565b91505060018060a01b03831660c083015298975050505050505050565b80516001600160a01b0316825260208101516020830152604081015160408301525f6060820151615ce06060850182614d99565b506080820151615cf360e0850182614d99565b5060a082015161016084015260c082015161018084015260e08201516001600160a01b0381166101a0850152615b8c565b602081525f61082c6020830184615cac565b606081525f615d486060830186615cac565b6020830194909452506001600160a01b039190911660409091015291905056fea164736f6c634300081c000a",
	"gitCommit": "npm:@bananapus/core-v6@1.0.2",
	"gitDirty": false,
	"history": []
}