{
	"format": "sphinx-sol-ct-artifact-1",
	"address": "0x726f4a3dfd2fb8297f8ab98d215b42a92d8eefe8",
	"sourceName": "node_modules/@bananapus/project-handles-v6/src/JBProjectHandles.sol",
	"contractName": "JBProjectHandles",
	"chainId": "0xaa37dc",
	"abi": [
		{
			"type": "constructor",
			"inputs": [
				{
					"name": "trustedForwarder",
					"type": "address",
					"internalType": "address"
				}
			],
			"stateMutability": "nonpayable"
		},
		{
			"type": "function",
			"name": "ENS_REGISTRY",
			"inputs": [],
			"outputs": [
				{
					"name": "",
					"type": "address",
					"internalType": "contract ENS"
				}
			],
			"stateMutability": "view"
		},
		{
			"type": "function",
			"name": "TEXT_KEY",
			"inputs": [],
			"outputs": [
				{
					"name": "",
					"type": "string",
					"internalType": "string"
				}
			],
			"stateMutability": "view"
		},
		{
			"type": "function",
			"name": "ensNamePartsOf",
			"inputs": [
				{
					"name": "chainId",
					"type": "uint256",
					"internalType": "uint256"
				},
				{
					"name": "projectId",
					"type": "uint256",
					"internalType": "uint256"
				},
				{
					"name": "setter",
					"type": "address",
					"internalType": "address"
				}
			],
			"outputs": [
				{
					"name": "",
					"type": "string[]",
					"internalType": "string[]"
				}
			],
			"stateMutability": "view"
		},
		{
			"type": "function",
			"name": "handleOf",
			"inputs": [
				{
					"name": "chainId",
					"type": "uint256",
					"internalType": "uint256"
				},
				{
					"name": "projectId",
					"type": "uint256",
					"internalType": "uint256"
				},
				{
					"name": "setter",
					"type": "address",
					"internalType": "address"
				}
			],
			"outputs": [
				{
					"name": "",
					"type": "string",
					"internalType": "string"
				}
			],
			"stateMutability": "view"
		},
		{
			"type": "function",
			"name": "isTrustedForwarder",
			"inputs": [
				{
					"name": "forwarder",
					"type": "address",
					"internalType": "address"
				}
			],
			"outputs": [
				{
					"name": "",
					"type": "bool",
					"internalType": "bool"
				}
			],
			"stateMutability": "view"
		},
		{
			"type": "function",
			"name": "setEnsNamePartsFor",
			"inputs": [
				{
					"name": "chainId",
					"type": "uint256",
					"internalType": "uint256"
				},
				{
					"name": "projectId",
					"type": "uint256",
					"internalType": "uint256"
				},
				{
					"name": "parts",
					"type": "string[]",
					"internalType": "string[]"
				}
			],
			"outputs": [],
			"stateMutability": "nonpayable"
		},
		{
			"type": "function",
			"name": "trustedForwarder",
			"inputs": [],
			"outputs": [
				{
					"name": "",
					"type": "address",
					"internalType": "address"
				}
			],
			"stateMutability": "view"
		},
		{
			"type": "event",
			"name": "SetEnsNameParts",
			"inputs": [
				{
					"name": "chainId",
					"type": "uint256",
					"indexed": true,
					"internalType": "uint256"
				},
				{
					"name": "projectId",
					"type": "uint256",
					"indexed": true,
					"internalType": "uint256"
				},
				{
					"name": "handle",
					"type": "string",
					"indexed": false,
					"internalType": "string"
				},
				{
					"name": "parts",
					"type": "string[]",
					"indexed": false,
					"internalType": "string[]"
				},
				{
					"name": "caller",
					"type": "address",
					"indexed": false,
					"internalType": "address"
				}
			],
			"anonymous": false
		},
		{
			"type": "error",
			"name": "JBProjectHandles_EmptyNamePart",
			"inputs": [
				{
					"name": "parts",
					"type": "string[]",
					"internalType": "string[]"
				}
			]
		},
		{
			"type": "error",
			"name": "JBProjectHandles_EthPartNotAllowed",
			"inputs": [
				{
					"name": "parts",
					"type": "string[]",
					"internalType": "string[]"
				}
			]
		},
		{
			"type": "error",
			"name": "JBProjectHandles_InvalidNamePart",
			"inputs": [
				{
					"name": "part",
					"type": "string",
					"internalType": "string"
				}
			]
		},
		{
			"type": "error",
			"name": "JBProjectHandles_NoParts",
			"inputs": [
				{
					"name": "chainId",
					"type": "uint256",
					"internalType": "uint256"
				},
				{
					"name": "projectId",
					"type": "uint256",
					"internalType": "uint256"
				},
				{
					"name": "caller",
					"type": "address",
					"internalType": "address"
				}
			]
		}
	],
	"args": [
		"0x3bA60b60933916a7C87D0860DcEE62a0CE34E3e2"
	],
	"solcInputHash": "c5f1bcc7e6047df91e51250fc2951d19",
	"bytecode": "0x60a0604052348015600e575f5ffd5b506040516114c03803806114c0833981016040819052602b91603b565b6001600160a01b03166080526066565b5f60208284031215604a575f5ffd5b81516001600160a01b0381168114605f575f5ffd5b9392505050565b60805161143661008a5f395f818160a30152818160ea0152610be201526114365ff3fe608060405234801561000f575f5ffd5b506004361061007a575f3560e01c806385e969171161005857806385e96917146101225780639973c28514610138578063c548f30914610158578063d9b0da2d1461018c575f5ffd5b8063429eadd61461007e578063572b6c05146100935780637da0a877146100e8575b5f5ffd5b61009161008c366004610ec7565b61019f565b005b6100d36100a1366004611017565b7f00000000000000000000000000000000000000000000000000000000000000006001600160a01b0390811691161490565b60405190151581526020015b60405180910390f35b7f00000000000000000000000000000000000000000000000000000000000000005b6040516001600160a01b0390911681526020016100df565b61010a6e0c2e074ec69a0dfb2997ba6c7d2e1e81565b61014b610146366004611032565b6103c1565b6040516100df91906110f0565b61017f604051806040016040528060088152602001670d4ead2c6cac4def60c31b81525081565b6040516100df9190611102565b61017f61019a366004611032565b6104bb565b80515f8190036101eb5783836101b361071c565b604051636089e5c160e11b8152600481019390935260248301919091526001600160a01b031660448201526064015b60405180910390fd5b5f5b8181101561031b575f83828151811061020857610208611114565b602002602001015190505f81905080515f036102395784604051632e75680960e01b81526004016101e291906110f0565b805160208201207fb0a47ed876039f941e4c4e96f724ec038565208358d9be07b28a4b8f962c2810016102815784604051631b3f173d60e21b81526004016101e291906110f0565b5f5b8151811015610310575f82828151811061029f5761029f611114565b01602001516001600160f81b0319169050600160fd1b8110806102cf5750607f60f81b6001600160f81b03198216145b806102e75750601760f91b6001600160f81b03198216145b156103075783604051635a10587360e11b81526004016101e29190611102565b50600101610283565b5050506001016101ed565b505f848152602081815260408083208684529091528120839161033c61071c565b6001600160a01b03166001600160a01b031681526020019081526020015f20908051906020019061036e929190610dc4565b5082847f9fabbc80df1ca456b25fff8309ca66799d5080815de54834d92d083fa8fe12ab61039b8561072a565b856103a461071c565b6040516103b393929190611128565b60405180910390a350505050565b5f8381526020818152604080832085845282528083206001600160a01b03851684528252808320805482518185028101850190935280835260609492939192909184015b828210156104ad578382905f5260205f2001805461042290611165565b80601f016020809104026020016040519081016040528092919081815260200182805461044e90611165565b80156104995780601f1061047057610100808354040283529160200191610499565b820191905f5260205f20905b81548152906001019060200180831161047c57829003601f168201915b505050505081526020019060010190610405565b5050505090505b9392505050565b5f8381526020818152604080832085845282528083206001600160a01b03851684528252808320805482518185028101850190935280835260609493849084015b828210156105a4578382905f5260205f2001805461051990611165565b80601f016020809104026020016040519081016040528092919081815260200182805461054590611165565b80156105905780601f1061056757610100808354040283529160200191610590565b820191905f5260205f20905b81548152906001019060200180831161057357829003601f168201915b5050505050815260200190600101906104fc565b50505050905080515f036105c757505060408051602081019091525f81526104b4565b5f6105d1826107c3565b90506e0c2e074ec69a0dfb2997ba6c7d2e1e3b5f036106025760405180602001604052805f815250925050506104b4565b604051630178b8bf60e01b8152600481018290525f906e0c2e074ec69a0dfb2997ba6c7d2e1e90630178b8bf90602401602060405180830381865afa15801561064d573d5f5f3e3d5ffd5b505050506040513d601f19601f82011682018060405250810190610671919061119d565b90506001600160a01b03811661069a5760405180602001604052805f81525093505050506104b4565b5f6106a58284610922565b90506106b088610b40565b6106b988610b40565b6040516020016106ca9291906111cf565b604051602081830303815290604052805190602001208180519060200120146107075760405180602001604052805f8152509450505050506104b4565b6107108461072a565b98975050505050505050565b5f610725610bd1565b905090565b805160609060015b8181116107bc578284610745838561120b565b8151811061075557610755611114565b602002602001015160405160200161076e92919061121e565b6040516020818303038152906040529250818110156107aa5782604051602001610798919061123a565b60405160208183030381529060405292505b806107b481611256565b915050610732565b5050919050565b5f806040516020016107de90620cae8d60eb1b815260030190565b6040516020818303038152906040528051906020012060405160200161080e929190918252602082015260400190565b6040516020818303038152906040528051906020012090505f6108308361072a565b8051909150805b80156108d7578261084960018361120b565b8151811061085957610859611114565b01602001516001600160f81b031916601760f91b036108c5578361087e848385610c3b565b805160209182012060405161089d939201918252602082015260400190565b6040516020818303038152906040528051906020012093506001816108c2919061120b565b91505b806108cf8161126e565b915050610837565b50826108e4835f84610c3b565b8051602091820120604051610903939201918252602082015260400190565b6040516020818303038152906040528051906020012092505050919050565b60605f6359d1d43c60e01b83604051806040016040528060088152602001670d4ead2c6cac4def60c31b815250604051602401610960929190611283565b60408051601f198184030181529181526020820180516001600160e01b03166001600160e01b03199094169390931790925291505f906109a3906101009061129b565b90505f5f5f5f60605f5a9050620186a08111156109c05750620186a05b5f5f895160208b018e85fa95503d9450604051915084878111156109e15750865b602081018301604052808352805f602085013e60408110610a0b5760208301519450604083015193505b50851580610a195750604085105b15610a3c5760405180602001604052805f81525098505050505050505050610b3a565b836020141580610a4d575061010083115b80610a615750610a5e83604061129b565b85105b15610a845760405180602001604052805f81525098505050505050505050610b3a565b5f8367ffffffffffffffff811115610a9e57610a9e610e82565b6040519080825280601f01601f191660200182016040528015610ac8576020820181803683370190505b5099508990505f5b84811015610b2f5783610ae482604061129b565b81518110610af457610af4611114565b602001015160f81c60f81b828281518110610b1157610b11611114565b60200101906001600160f81b03191690815f1a905350600101610ad0565b505050505050505050505b92915050565b60605f610b4c83610ced565b60010190505f8167ffffffffffffffff811115610b6b57610b6b610e82565b6040519080825280601f01601f191660200182016040528015610b95576020820181803683370190505b5090508181016020015b5f19016f181899199a1a9b1b9c1cb0b131b232b360811b600a86061a8153600a8504945084610b9f575b509392505050565b5f366014808210801590610c0d57507f00000000000000000000000000000000000000000000000000000000000000006001600160a01b031633145b15610c3357610c2036828403815f6112ae565b610c29916112d5565b60601c9250505090565b339250505090565b6060610c47838361120b565b67ffffffffffffffff811115610c5f57610c5f610e82565b6040519080825280601f01601f191660200182016040528015610c89576020820181803683370190505b5090505f5b8151811015610bc95784610ca2828661129b565b81518110610cb257610cb2611114565b602001015160f81c60f81b828281518110610ccf57610ccf611114565b60200101906001600160f81b03191690815f1a905350600101610c8e565b5f8072184f03e93ff9f4daa797ed6e38ed64bf6a1f0160401b8310610d2b5772184f03e93ff9f4daa797ed6e38ed64bf6a1f0160401b830492506040015b6d04ee2d6d415b85acef81000000008310610d57576d04ee2d6d415b85acef8100000000830492506020015b662386f26fc100008310610d7557662386f26fc10000830492506010015b6305f5e1008310610d8d576305f5e100830492506008015b6127108310610da157612710830492506004015b60648310610db3576064830492506002015b600a8310610b3a5760010192915050565b828054828255905f5260205f20908101928215610e08579160200282015b82811115610e085782518290610df8908261136e565b5091602001919060010190610de2565b50610e14929150610e18565b5090565b80821115610e14575f610e2b8282610e34565b50600101610e18565b508054610e4090611165565b5f825580601f10610e4f575050565b601f0160209004905f5260205f2090810190610e6b9190610e6e565b50565b5b80821115610e14575f8155600101610e6f565b634e487b7160e01b5f52604160045260245ffd5b604051601f8201601f1916810167ffffffffffffffff81118282101715610ebf57610ebf610e82565b604052919050565b5f5f5f60608486031215610ed9575f5ffd5b8335925060208401359150604084013567ffffffffffffffff811115610efd575f5ffd5b8401601f81018613610f0d575f5ffd5b803567ffffffffffffffff811115610f2757610f27610e82565b8060051b610f3760208201610e96565b91825260208184018101929081019089841115610f52575f5ffd5b6020850192505b83831015610ff457823567ffffffffffffffff811115610f77575f5ffd5b8501603f81018b13610f87575f5ffd5b602081013567ffffffffffffffff811115610fa457610fa4610e82565b610fb7601f8201601f1916602001610e96565b8181526040838301018d1015610fcb575f5ffd5b816040840160208301375f60208383010152808552505050602082019150602083019250610f59565b80955050505050509250925092565b6001600160a01b0381168114610e6b575f5ffd5b5f60208284031215611027575f5ffd5b81356104b481611003565b5f5f5f60608486031215611044575f5ffd5b8335925060208401359150604084013561105d81611003565b809150509250925092565b5f81518084528060208401602086015e5f602082860101526020601f19601f83011685010191505092915050565b5f82825180855260208501945060208160051b830101602085015f5b838110156110e457601f198584030188526110ce838351611068565b60209889019890935091909101906001016110b2565b50909695505050505050565b602081525f6104b46020830184611096565b602081525f6104b46020830184611068565b634e487b7160e01b5f52603260045260245ffd5b606081525f61113a6060830186611068565b828103602084015261114c8186611096565b91505060018060a01b0383166040830152949350505050565b600181811c9082168061117957607f821691505b60208210810361119757634e487b7160e01b5f52602260045260245ffd5b50919050565b5f602082840312156111ad575f5ffd5b81516104b481611003565b5f81518060208401855e5f93019283525090919050565b5f6111da82856111b8565b601d60f91b81526111ee60018201856111b8565b95945050505050565b634e487b7160e01b5f52601160045260245ffd5b81810381811115610b3a57610b3a6111f7565b5f61123261122c83866111b8565b846111b8565b949350505050565b5f61124582846111b8565b601760f91b81526001019392505050565b5f60018201611267576112676111f7565b5060010190565b5f8161127c5761127c6111f7565b505f190190565b828152604060208201525f6112326040830184611068565b80820180821115610b3a57610b3a6111f7565b5f5f858511156112bc575f5ffd5b838611156112c8575f5ffd5b5050820193919092039150565b80356bffffffffffffffffffffffff19811690601484101561131b576bffffffffffffffffffffffff196bffffffffffffffffffffffff198560140360031b1b82161691505b5092915050565b601f82111561136957805f5260205f20601f840160051c810160208510156113475750805b601f840160051c820191505b81811015611366575f8155600101611353565b50505b505050565b815167ffffffffffffffff81111561138857611388610e82565b61139c816113968454611165565b84611322565b6020601f8211600181146113ce575f83156113b75750848201515b5f19600385901b1c1916600184901b178455611366565b5f84815260208120601f198516915b828110156113fd57878501518255602094850194600190920191016113dd565b508482101561141a57868401515f19600387901b60f8161c191681555b50505050600190811b0190555056fea164736f6c634300081c000a",
	"gitCommit": "npm:@bananapus/project-handles-v6@1.0.0",
	"gitDirty": false,
	"history": []
}