{
	"format": "sphinx-sol-ct-artifact-1",
	"address": "0x0122d6e6cf353e9a4416d125519c0df9c386f0a9",
	"sourceName": "node_modules/@bananapus/core-v6/src/JBPrices.sol",
	"contractName": "JBPrices",
	"chainId": "0xaa37dc",
	"abi": [
		{
			"type": "constructor",
			"inputs": [
				{
					"name": "directory",
					"type": "address",
					"internalType": "contract IJBDirectory"
				},
				{
					"name": "permissions",
					"type": "address",
					"internalType": "contract IJBPermissions"
				},
				{
					"name": "projects",
					"type": "address",
					"internalType": "contract IJBProjects"
				},
				{
					"name": "owner",
					"type": "address",
					"internalType": "address"
				},
				{
					"name": "trustedForwarder",
					"type": "address",
					"internalType": "address"
				}
			],
			"stateMutability": "nonpayable"
		},
		{
			"type": "function",
			"name": "DEFAULT_PROJECT_ID",
			"inputs": [],
			"outputs": [
				{
					"name": "",
					"type": "uint256",
					"internalType": "uint256"
				}
			],
			"stateMutability": "view"
		},
		{
			"type": "function",
			"name": "DIRECTORY",
			"inputs": [],
			"outputs": [
				{
					"name": "",
					"type": "address",
					"internalType": "contract IJBDirectory"
				}
			],
			"stateMutability": "view"
		},
		{
			"type": "function",
			"name": "PERMISSIONS",
			"inputs": [],
			"outputs": [
				{
					"name": "",
					"type": "address",
					"internalType": "contract IJBPermissions"
				}
			],
			"stateMutability": "view"
		},
		{
			"type": "function",
			"name": "PROJECTS",
			"inputs": [],
			"outputs": [
				{
					"name": "",
					"type": "address",
					"internalType": "contract IJBProjects"
				}
			],
			"stateMutability": "view"
		},
		{
			"type": "function",
			"name": "addPriceFeedFor",
			"inputs": [
				{
					"name": "projectId",
					"type": "uint256",
					"internalType": "uint256"
				},
				{
					"name": "pricingCurrency",
					"type": "uint256",
					"internalType": "uint256"
				},
				{
					"name": "unitCurrency",
					"type": "uint256",
					"internalType": "uint256"
				},
				{
					"name": "feed",
					"type": "address",
					"internalType": "contract IJBPriceFeed"
				}
			],
			"outputs": [],
			"stateMutability": "nonpayable"
		},
		{
			"type": "function",
			"name": "isTrustedForwarder",
			"inputs": [
				{
					"name": "forwarder",
					"type": "address",
					"internalType": "address"
				}
			],
			"outputs": [
				{
					"name": "",
					"type": "bool",
					"internalType": "bool"
				}
			],
			"stateMutability": "view"
		},
		{
			"type": "function",
			"name": "owner",
			"inputs": [],
			"outputs": [
				{
					"name": "",
					"type": "address",
					"internalType": "address"
				}
			],
			"stateMutability": "view"
		},
		{
			"type": "function",
			"name": "priceFeedAt",
			"inputs": [
				{
					"name": "projectId",
					"type": "uint256",
					"internalType": "uint256"
				},
				{
					"name": "pricingCurrency",
					"type": "uint256",
					"internalType": "uint256"
				},
				{
					"name": "unitCurrency",
					"type": "uint256",
					"internalType": "uint256"
				},
				{
					"name": "index",
					"type": "uint256",
					"internalType": "uint256"
				}
			],
			"outputs": [
				{
					"name": "feed",
					"type": "address",
					"internalType": "contract IJBPriceFeed"
				}
			],
			"stateMutability": "view"
		},
		{
			"type": "function",
			"name": "priceFeedCountFor",
			"inputs": [
				{
					"name": "projectId",
					"type": "uint256",
					"internalType": "uint256"
				},
				{
					"name": "pricingCurrency",
					"type": "uint256",
					"internalType": "uint256"
				},
				{
					"name": "unitCurrency",
					"type": "uint256",
					"internalType": "uint256"
				}
			],
			"outputs": [
				{
					"name": "count",
					"type": "uint256",
					"internalType": "uint256"
				}
			],
			"stateMutability": "view"
		},
		{
			"type": "function",
			"name": "priceFeedFor",
			"inputs": [
				{
					"name": "projectId",
					"type": "uint256",
					"internalType": "uint256"
				},
				{
					"name": "pricingCurrency",
					"type": "uint256",
					"internalType": "uint256"
				},
				{
					"name": "unitCurrency",
					"type": "uint256",
					"internalType": "uint256"
				}
			],
			"outputs": [
				{
					"name": "feed",
					"type": "address",
					"internalType": "contract IJBPriceFeed"
				}
			],
			"stateMutability": "view"
		},
		{
			"type": "function",
			"name": "pricePerUnitOf",
			"inputs": [
				{
					"name": "projectId",
					"type": "uint256",
					"internalType": "uint256"
				},
				{
					"name": "pricingCurrency",
					"type": "uint256",
					"internalType": "uint256"
				},
				{
					"name": "unitCurrency",
					"type": "uint256",
					"internalType": "uint256"
				},
				{
					"name": "decimals",
					"type": "uint256",
					"internalType": "uint256"
				}
			],
			"outputs": [
				{
					"name": "price",
					"type": "uint256",
					"internalType": "uint256"
				}
			],
			"stateMutability": "view"
		},
		{
			"type": "function",
			"name": "renounceOwnership",
			"inputs": [],
			"outputs": [],
			"stateMutability": "nonpayable"
		},
		{
			"type": "function",
			"name": "transferOwnership",
			"inputs": [
				{
					"name": "newOwner",
					"type": "address",
					"internalType": "address"
				}
			],
			"outputs": [],
			"stateMutability": "nonpayable"
		},
		{
			"type": "function",
			"name": "trustedForwarder",
			"inputs": [],
			"outputs": [
				{
					"name": "",
					"type": "address",
					"internalType": "address"
				}
			],
			"stateMutability": "view"
		},
		{
			"type": "event",
			"name": "AddPriceFeed",
			"inputs": [
				{
					"name": "projectId",
					"type": "uint256",
					"indexed": true,
					"internalType": "uint256"
				},
				{
					"name": "pricingCurrency",
					"type": "uint256",
					"indexed": true,
					"internalType": "uint256"
				},
				{
					"name": "unitCurrency",
					"type": "uint256",
					"indexed": true,
					"internalType": "uint256"
				},
				{
					"name": "feed",
					"type": "address",
					"indexed": false,
					"internalType": "contract IJBPriceFeed"
				},
				{
					"name": "caller",
					"type": "address",
					"indexed": false,
					"internalType": "address"
				}
			],
			"anonymous": false
		},
		{
			"type": "event",
			"name": "OwnershipTransferred",
			"inputs": [
				{
					"name": "previousOwner",
					"type": "address",
					"indexed": true,
					"internalType": "address"
				},
				{
					"name": "newOwner",
					"type": "address",
					"indexed": true,
					"internalType": "address"
				}
			],
			"anonymous": false
		},
		{
			"type": "error",
			"name": "JBControlled_ControllerUnauthorized",
			"inputs": [
				{
					"name": "controller",
					"type": "address",
					"internalType": "address"
				}
			]
		},
		{
			"type": "error",
			"name": "JBPermissioned_Unauthorized",
			"inputs": [
				{
					"name": "account",
					"type": "address",
					"internalType": "address"
				},
				{
					"name": "sender",
					"type": "address",
					"internalType": "address"
				},
				{
					"name": "projectId",
					"type": "uint256",
					"internalType": "uint256"
				},
				{
					"name": "permissionId",
					"type": "uint256",
					"internalType": "uint256"
				}
			]
		},
		{
			"type": "error",
			"name": "JBPrices_PriceFeedAlreadyAdded",
			"inputs": [
				{
					"name": "feed",
					"type": "address",
					"internalType": "contract IJBPriceFeed"
				}
			]
		},
		{
			"type": "error",
			"name": "JBPrices_PriceFeedNotFound",
			"inputs": [
				{
					"name": "projectId",
					"type": "uint256",
					"internalType": "uint256"
				},
				{
					"name": "pricingCurrency",
					"type": "uint256",
					"internalType": "uint256"
				},
				{
					"name": "unitCurrency",
					"type": "uint256",
					"internalType": "uint256"
				}
			]
		},
		{
			"type": "error",
			"name": "JBPrices_ZeroPriceFeed",
			"inputs": []
		},
		{
			"type": "error",
			"name": "JBPrices_ZeroPricingCurrency",
			"inputs": [
				{
					"name": "projectId",
					"type": "uint256",
					"internalType": "uint256"
				},
				{
					"name": "pricingCurrency",
					"type": "uint256",
					"internalType": "uint256"
				}
			]
		},
		{
			"type": "error",
			"name": "JBPrices_ZeroUnitCurrency",
			"inputs": [
				{
					"name": "projectId",
					"type": "uint256",
					"internalType": "uint256"
				},
				{
					"name": "unitCurrency",
					"type": "uint256",
					"internalType": "uint256"
				}
			]
		},
		{
			"type": "error",
			"name": "OwnableInvalidOwner",
			"inputs": [
				{
					"name": "owner",
					"type": "address",
					"internalType": "address"
				}
			]
		},
		{
			"type": "error",
			"name": "OwnableUnauthorizedAccount",
			"inputs": [
				{
					"name": "account",
					"type": "address",
					"internalType": "address"
				}
			]
		},
		{
			"type": "error",
			"name": "PRBMath_MulDiv_Overflow",
			"inputs": [
				{
					"name": "x",
					"type": "uint256",
					"internalType": "uint256"
				},
				{
					"name": "y",
					"type": "uint256",
					"internalType": "uint256"
				},
				{
					"name": "denominator",
					"type": "uint256",
					"internalType": "uint256"
				}
			]
		}
	],
	"args": [
		"0xE7d0F5ADC3847d4AfD70B7bcd58e34B1AAFDffbc",
		"0xCF5870A8F942110C2ea89fd03B7a3D578816a265",
		"0xB67A90909C222a33706B6E2B836943d32eF82769",
		"0xd5136c794ee43BEf1eD4cF1eB6DEe45b7F803437",
		"0x53d5A7E174A87721c527ED14c7Ce7cb515465607"
	],
	"solcInputHash": "ca368867f1b7caaf7b0b6234cce8fa07",
	"bytecode": "0x610100604052348015610010575f5ffd5b50604051610f53380380610f5383398101604081905261002f916100f6565b6001600160a01b0380861660805280851660a05280821660c0528290811661007057604051631e4fbdf760e01b81525f600482015260240160405180910390fd5b61007981610090565b5050506001600160a01b031660e052506101679050565b5f80546001600160a01b038381166001600160a01b0319831681178455604051919092169283917f8be0079c531659141344cd1fd0a4f28419497f9722a3daafe3b4186f6b6457e09190a35050565b6001600160a01b03811681146100f3575f5ffd5b50565b5f5f5f5f5f60a0868803121561010a575f5ffd5b8551610115816100df565b6020870151909550610126816100df565b6040870151909450610137816100df565b6060870151909350610148816100df565b6080870151909250610159816100df565b809150509295509295909350565b60805160a05160c05160e051610da56101ae5f395f60ee01525f8181610165015281816101c401526109d901525f61027001525f81816101ed01526106df0152610da55ff3fe608060405234801561000f575f5ffd5b50600436106100e5575f3560e01c806388bc2ef311610088578063c6081d7111610063578063c6081d7114610232578063d42ebdb614610245578063f2fde38b14610258578063f434c9141461026b575f5ffd5b806388bc2ef3146101e85780638da5cb5b1461020f578063b480aec11461021f575f5ffd5b8063572b6c05116100c3578063572b6c0514610155578063715018a6146101a5578063729c7eb0146101af5780637da0a877146101c2575f5ffd5b8063293c4999146100e95780632c1ae8821461012d5780633be273fa14610142575b5f5ffd5b6101107f000000000000000000000000000000000000000000000000000000000000000081565b6040516001600160a01b0390911681526020015b60405180910390f35b6101345f81565b604051908152602001610124565b610134610150366004610b01565b610292565b610195610163366004610b44565b7f00000000000000000000000000000000000000000000000000000000000000006001600160a01b0390811691161490565b6040519015158152602001610124565b6101ad610324565b005b6101106101bd366004610b01565b610337565b7f0000000000000000000000000000000000000000000000000000000000000000610110565b6101107f000000000000000000000000000000000000000000000000000000000000000081565b5f546001600160a01b0316610110565b61013461022d366004610b5f565b610386565b6101ad610240366004610b88565b6103af565b610110610253366004610b5f565b6104ed565b6101ad610266366004610b44565b610566565b6101107f000000000000000000000000000000000000000000000000000000000000000081565b5f8284036102ac576102a582600a610cbf565b905061031c565b5f6102b9868686866105a3565b909250905080156102ca575061031c565b85156102ed576102dc5f8686866105a3565b909250905080156102ed575061031c565b604051633b681c0b60e11b81526004810187905260248101869052604481018590526064015b60405180910390fd5b949350505050565b61032c61061b565b6103355f610678565b565b5f8481526001602090815260408083208684528252808320858452909152812080548390811061036957610369610cca565b5f918252602090912001546001600160a01b031695945050505050565b5f83815260016020908152604080832085845282528083208484529091529020545b9392505050565b83156103c3576103be846106c7565b6103cb565b6103cb61061b565b825f036103f55760405163310b9dfb60e01b81526004810185905260248101849052604401610313565b815f0361041f576040516305b7ef3d60e41b81526004810185905260248101839052604401610313565b6001600160a01b03811661044657604051635d68b16560e01b815260040160405180910390fd5b6104528484848461078a565b5f8481526001602081815260408084208785528252808420868552825283208054928301815583529091200180546001600160a01b0319166001600160a01b0383161790558183857f2a0d2e061403a7d0a76276b49e8d91d3f88325b6dd635422595282672dd1bd19846104c4610821565b604080516001600160a01b0393841681529290911660208301520160405180910390a450505050565b5f83815260016020908152604080832085845282528083208484529091528120541561055d575f84815260016020908152604080832086845282528083208584529091528120805490919061054457610544610cca565b5f918252602090912001546001600160a01b031661031c565b5f949350505050565b61056e61061b565b6001600160a01b03811661059757604051631e4fbdf760e01b81525f6004820152602401610313565b6105a081610678565b50565b5f8481526001602090815260408083208684528252808320858452909152812081906105cf908461082f565b909250905080156105e257506001610612565b5f8681526001602090815260408083208784528252808320888452909152902061060c90846108eb565b90925090505b94509492505050565b610623610821565b6001600160a01b031661063d5f546001600160a01b031690565b6001600160a01b03161461033557610653610821565b60405163118cdaa760e01b81526001600160a01b039091166004820152602401610313565b5f80546001600160a01b038381166001600160a01b0319831681178455604051919092169283917f8be0079c531659141344cd1fd0a4f28419497f9722a3daafe3b4186f6b6457e09190a35050565b604051632eec7b5560e11b8152600481018290525f907f00000000000000000000000000000000000000000000000000000000000000006001600160a01b031690635dd8f6aa90602401602060405180830381865afa15801561072c573d5f5f3e3d5ffd5b505050506040513d601f19601f820116820180604052508101906107509190610cde565b90506001600160a01b038116331461078657604051639a007b3960e01b81526001600160a01b0382166004820152602401610313565b5050565b5f84815260016020908152604080832086845282528083208584529091528120805490915b8181101561081857836001600160a01b03168382815481106107d3576107d3610cca565b5f918252602090912001546001600160a01b03160361081057604051630d5b4e7560e01b81526001600160a01b0385166004820152602401610313565b6001016107af565b50505050505050565b5f61082a6109c8565b905090565b81545f908190815b818110156108e15785818154811061085157610851610cca565b5f9182526020909120015460405163d3f5c15f60e01b8152600481018790526001600160a01b039091169063d3f5c15f90602401602060405180830381865afa9250505080156108be575060408051601f3d908101601f191682019092526108bb91810190610cf9565b60015b156108d95780156108d7579350600192506108e4915050565b505b600101610837565b50505b9250929050565b81545f908190815b818110156108e15785818154811061090d5761090d610cca565b5f9182526020909120015460405163d3f5c15f60e01b8152600481018790526001600160a01b039091169063d3f5c15f90602401602060405180830381865afa92505050801561097a575060408051601f3d908101601f1916820190925261097791810190610cf9565b60015b156109c05780156109be575f6109a561099488600a610cbf565b61099f89600a610cbf565b84610a32565b905080156109bc579450600193506108e492505050565b505b505b6001016108f3565b5f366014808210801590610a0457507f00000000000000000000000000000000000000000000000000000000000000006001600160a01b031633145b15610a2a57610a1736828403815f610d10565b610a2091610d37565b60601c9250505090565b339250505090565b5f80805f19858709858702925082811083820303915050805f03610a6957838281610a5f57610a5f610d84565b04925050506103a8565b838110610a9a57604051630c740aef60e31b8152600481018790526024810186905260448101859052606401610313565b5f8486880960026001871981018816978890046003810283188082028403028082028403028082028403028082028403028082028403029081029092039091025f889003889004909101858311909403939093029303949094049190911702949350505050565b5f5f5f5f60808587031215610b14575f5ffd5b5050823594602084013594506040840135936060013592509050565b6001600160a01b03811681146105a0575f5ffd5b5f60208284031215610b54575f5ffd5b81356103a881610b30565b5f5f5f60608486031215610b71575f5ffd5b505081359360208301359350604090920135919050565b5f5f5f5f60808587031215610b9b575f5ffd5b8435935060208501359250604085013591506060850135610bbb81610b30565b939692955090935050565b634e487b7160e01b5f52601160045260245ffd5b6001815b6001841115610c1557808504811115610bf957610bf9610bc6565b6001841615610c0757908102905b60019390931c928002610bde565b935093915050565b5f82610c2b57506001610cb9565b81610c3757505f610cb9565b8160018114610c4d5760028114610c5757610c73565b6001915050610cb9565b60ff841115610c6857610c68610bc6565b50506001821b610cb9565b5060208310610133831016604e8410600b8410161715610c96575081810a610cb9565b610ca25f198484610bda565b805f1904821115610cb557610cb5610bc6565b0290505b92915050565b5f6103a88383610c1d565b634e487b7160e01b5f52603260045260245ffd5b5f60208284031215610cee575f5ffd5b81516103a881610b30565b5f60208284031215610d09575f5ffd5b5051919050565b5f5f85851115610d1e575f5ffd5b83861115610d2a575f5ffd5b5050820193919092039150565b80356bffffffffffffffffffffffff198116906014841015610d7d576bffffffffffffffffffffffff196bffffffffffffffffffffffff198560140360031b1b82161691505b5092915050565b634e487b7160e01b5f52601260045260245ffdfea164736f6c634300081c000a",
	"gitCommit": "npm:@bananapus/core-v6@0.0.82",
	"gitDirty": false,
	"history": []
}