{
	"format": "sphinx-sol-ct-artifact-1",
	"address": "0xb67a90909c222a33706b6e2b836943d32ef82769",
	"sourceName": "node_modules/@bananapus/core-v6/src/JBProjects.sol",
	"contractName": "JBProjects",
	"chainId": "0xaa37dc",
	"abi": [
		{
			"type": "constructor",
			"inputs": [
				{
					"name": "owner",
					"type": "address",
					"internalType": "address"
				},
				{
					"name": "feeProjectOwner",
					"type": "address",
					"internalType": "address"
				},
				{
					"name": "trustedForwarder",
					"type": "address",
					"internalType": "address"
				}
			],
			"stateMutability": "nonpayable"
		},
		{
			"type": "function",
			"name": "MAX_CREATION_FEE",
			"inputs": [],
			"outputs": [
				{
					"name": "",
					"type": "uint256",
					"internalType": "uint256"
				}
			],
			"stateMutability": "view"
		},
		{
			"type": "function",
			"name": "approve",
			"inputs": [
				{
					"name": "to",
					"type": "address",
					"internalType": "address"
				},
				{
					"name": "tokenId",
					"type": "uint256",
					"internalType": "uint256"
				}
			],
			"outputs": [],
			"stateMutability": "nonpayable"
		},
		{
			"type": "function",
			"name": "balanceOf",
			"inputs": [
				{
					"name": "owner",
					"type": "address",
					"internalType": "address"
				}
			],
			"outputs": [
				{
					"name": "",
					"type": "uint256",
					"internalType": "uint256"
				}
			],
			"stateMutability": "view"
		},
		{
			"type": "function",
			"name": "count",
			"inputs": [],
			"outputs": [
				{
					"name": "",
					"type": "uint256",
					"internalType": "uint256"
				}
			],
			"stateMutability": "view"
		},
		{
			"type": "function",
			"name": "createFor",
			"inputs": [
				{
					"name": "owner",
					"type": "address",
					"internalType": "address"
				}
			],
			"outputs": [
				{
					"name": "projectId",
					"type": "uint256",
					"internalType": "uint256"
				}
			],
			"stateMutability": "payable"
		},
		{
			"type": "function",
			"name": "creationFee",
			"inputs": [],
			"outputs": [
				{
					"name": "",
					"type": "uint256",
					"internalType": "uint256"
				}
			],
			"stateMutability": "view"
		},
		{
			"type": "function",
			"name": "creationFeeReceiver",
			"inputs": [],
			"outputs": [
				{
					"name": "",
					"type": "address",
					"internalType": "address payable"
				}
			],
			"stateMutability": "view"
		},
		{
			"type": "function",
			"name": "getApproved",
			"inputs": [
				{
					"name": "tokenId",
					"type": "uint256",
					"internalType": "uint256"
				}
			],
			"outputs": [
				{
					"name": "",
					"type": "address",
					"internalType": "address"
				}
			],
			"stateMutability": "view"
		},
		{
			"type": "function",
			"name": "isApprovedForAll",
			"inputs": [
				{
					"name": "owner",
					"type": "address",
					"internalType": "address"
				},
				{
					"name": "operator",
					"type": "address",
					"internalType": "address"
				}
			],
			"outputs": [
				{
					"name": "",
					"type": "bool",
					"internalType": "bool"
				}
			],
			"stateMutability": "view"
		},
		{
			"type": "function",
			"name": "isTrustedForwarder",
			"inputs": [
				{
					"name": "forwarder",
					"type": "address",
					"internalType": "address"
				}
			],
			"outputs": [
				{
					"name": "",
					"type": "bool",
					"internalType": "bool"
				}
			],
			"stateMutability": "view"
		},
		{
			"type": "function",
			"name": "name",
			"inputs": [],
			"outputs": [
				{
					"name": "",
					"type": "string",
					"internalType": "string"
				}
			],
			"stateMutability": "view"
		},
		{
			"type": "function",
			"name": "owner",
			"inputs": [],
			"outputs": [
				{
					"name": "",
					"type": "address",
					"internalType": "address"
				}
			],
			"stateMutability": "view"
		},
		{
			"type": "function",
			"name": "ownerOf",
			"inputs": [
				{
					"name": "tokenId",
					"type": "uint256",
					"internalType": "uint256"
				}
			],
			"outputs": [
				{
					"name": "",
					"type": "address",
					"internalType": "address"
				}
			],
			"stateMutability": "view"
		},
		{
			"type": "function",
			"name": "renounceOwnership",
			"inputs": [],
			"outputs": [],
			"stateMutability": "nonpayable"
		},
		{
			"type": "function",
			"name": "safeTransferFrom",
			"inputs": [
				{
					"name": "from",
					"type": "address",
					"internalType": "address"
				},
				{
					"name": "to",
					"type": "address",
					"internalType": "address"
				},
				{
					"name": "tokenId",
					"type": "uint256",
					"internalType": "uint256"
				}
			],
			"outputs": [],
			"stateMutability": "nonpayable"
		},
		{
			"type": "function",
			"name": "safeTransferFrom",
			"inputs": [
				{
					"name": "from",
					"type": "address",
					"internalType": "address"
				},
				{
					"name": "to",
					"type": "address",
					"internalType": "address"
				},
				{
					"name": "tokenId",
					"type": "uint256",
					"internalType": "uint256"
				},
				{
					"name": "data",
					"type": "bytes",
					"internalType": "bytes"
				}
			],
			"outputs": [],
			"stateMutability": "nonpayable"
		},
		{
			"type": "function",
			"name": "setApprovalForAll",
			"inputs": [
				{
					"name": "operator",
					"type": "address",
					"internalType": "address"
				},
				{
					"name": "approved",
					"type": "bool",
					"internalType": "bool"
				}
			],
			"outputs": [],
			"stateMutability": "nonpayable"
		},
		{
			"type": "function",
			"name": "setCreationFee",
			"inputs": [
				{
					"name": "fee",
					"type": "uint256",
					"internalType": "uint256"
				},
				{
					"name": "receiver",
					"type": "address",
					"internalType": "address payable"
				}
			],
			"outputs": [],
			"stateMutability": "nonpayable"
		},
		{
			"type": "function",
			"name": "setTokenUriResolver",
			"inputs": [
				{
					"name": "resolver",
					"type": "address",
					"internalType": "contract IJBTokenUriResolver"
				}
			],
			"outputs": [],
			"stateMutability": "nonpayable"
		},
		{
			"type": "function",
			"name": "supportsInterface",
			"inputs": [
				{
					"name": "interfaceId",
					"type": "bytes4",
					"internalType": "bytes4"
				}
			],
			"outputs": [
				{
					"name": "",
					"type": "bool",
					"internalType": "bool"
				}
			],
			"stateMutability": "view"
		},
		{
			"type": "function",
			"name": "symbol",
			"inputs": [],
			"outputs": [
				{
					"name": "",
					"type": "string",
					"internalType": "string"
				}
			],
			"stateMutability": "view"
		},
		{
			"type": "function",
			"name": "tokenURI",
			"inputs": [
				{
					"name": "projectId",
					"type": "uint256",
					"internalType": "uint256"
				}
			],
			"outputs": [
				{
					"name": "",
					"type": "string",
					"internalType": "string"
				}
			],
			"stateMutability": "view"
		},
		{
			"type": "function",
			"name": "tokenUriResolver",
			"inputs": [],
			"outputs": [
				{
					"name": "",
					"type": "address",
					"internalType": "contract IJBTokenUriResolver"
				}
			],
			"stateMutability": "view"
		},
		{
			"type": "function",
			"name": "transferFrom",
			"inputs": [
				{
					"name": "from",
					"type": "address",
					"internalType": "address"
				},
				{
					"name": "to",
					"type": "address",
					"internalType": "address"
				},
				{
					"name": "tokenId",
					"type": "uint256",
					"internalType": "uint256"
				}
			],
			"outputs": [],
			"stateMutability": "nonpayable"
		},
		{
			"type": "function",
			"name": "transferOwnership",
			"inputs": [
				{
					"name": "newOwner",
					"type": "address",
					"internalType": "address"
				}
			],
			"outputs": [],
			"stateMutability": "nonpayable"
		},
		{
			"type": "function",
			"name": "trustedForwarder",
			"inputs": [],
			"outputs": [
				{
					"name": "",
					"type": "address",
					"internalType": "address"
				}
			],
			"stateMutability": "view"
		},
		{
			"type": "event",
			"name": "Approval",
			"inputs": [
				{
					"name": "owner",
					"type": "address",
					"indexed": true,
					"internalType": "address"
				},
				{
					"name": "approved",
					"type": "address",
					"indexed": true,
					"internalType": "address"
				},
				{
					"name": "tokenId",
					"type": "uint256",
					"indexed": true,
					"internalType": "uint256"
				}
			],
			"anonymous": false
		},
		{
			"type": "event",
			"name": "ApprovalForAll",
			"inputs": [
				{
					"name": "owner",
					"type": "address",
					"indexed": true,
					"internalType": "address"
				},
				{
					"name": "operator",
					"type": "address",
					"indexed": true,
					"internalType": "address"
				},
				{
					"name": "approved",
					"type": "bool",
					"indexed": false,
					"internalType": "bool"
				}
			],
			"anonymous": false
		},
		{
			"type": "event",
			"name": "Create",
			"inputs": [
				{
					"name": "projectId",
					"type": "uint256",
					"indexed": true,
					"internalType": "uint256"
				},
				{
					"name": "owner",
					"type": "address",
					"indexed": true,
					"internalType": "address"
				},
				{
					"name": "caller",
					"type": "address",
					"indexed": false,
					"internalType": "address"
				}
			],
			"anonymous": false
		},
		{
			"type": "event",
			"name": "OwnershipTransferred",
			"inputs": [
				{
					"name": "previousOwner",
					"type": "address",
					"indexed": true,
					"internalType": "address"
				},
				{
					"name": "newOwner",
					"type": "address",
					"indexed": true,
					"internalType": "address"
				}
			],
			"anonymous": false
		},
		{
			"type": "event",
			"name": "SetCreationFee",
			"inputs": [
				{
					"name": "fee",
					"type": "uint256",
					"indexed": false,
					"internalType": "uint256"
				},
				{
					"name": "receiver",
					"type": "address",
					"indexed": false,
					"internalType": "address payable"
				},
				{
					"name": "caller",
					"type": "address",
					"indexed": false,
					"internalType": "address"
				}
			],
			"anonymous": false
		},
		{
			"type": "event",
			"name": "SetTokenUriResolver",
			"inputs": [
				{
					"name": "resolver",
					"type": "address",
					"indexed": true,
					"internalType": "contract IJBTokenUriResolver"
				},
				{
					"name": "caller",
					"type": "address",
					"indexed": false,
					"internalType": "address"
				}
			],
			"anonymous": false
		},
		{
			"type": "event",
			"name": "Transfer",
			"inputs": [
				{
					"name": "from",
					"type": "address",
					"indexed": true,
					"internalType": "address"
				},
				{
					"name": "to",
					"type": "address",
					"indexed": true,
					"internalType": "address"
				},
				{
					"name": "tokenId",
					"type": "uint256",
					"indexed": true,
					"internalType": "uint256"
				}
			],
			"anonymous": false
		},
		{
			"type": "error",
			"name": "ERC721IncorrectOwner",
			"inputs": [
				{
					"name": "sender",
					"type": "address",
					"internalType": "address"
				},
				{
					"name": "tokenId",
					"type": "uint256",
					"internalType": "uint256"
				},
				{
					"name": "owner",
					"type": "address",
					"internalType": "address"
				}
			]
		},
		{
			"type": "error",
			"name": "ERC721InsufficientApproval",
			"inputs": [
				{
					"name": "operator",
					"type": "address",
					"internalType": "address"
				},
				{
					"name": "tokenId",
					"type": "uint256",
					"internalType": "uint256"
				}
			]
		},
		{
			"type": "error",
			"name": "ERC721InvalidApprover",
			"inputs": [
				{
					"name": "approver",
					"type": "address",
					"internalType": "address"
				}
			]
		},
		{
			"type": "error",
			"name": "ERC721InvalidOperator",
			"inputs": [
				{
					"name": "operator",
					"type": "address",
					"internalType": "address"
				}
			]
		},
		{
			"type": "error",
			"name": "ERC721InvalidOwner",
			"inputs": [
				{
					"name": "owner",
					"type": "address",
					"internalType": "address"
				}
			]
		},
		{
			"type": "error",
			"name": "ERC721InvalidReceiver",
			"inputs": [
				{
					"name": "receiver",
					"type": "address",
					"internalType": "address"
				}
			]
		},
		{
			"type": "error",
			"name": "ERC721InvalidSender",
			"inputs": [
				{
					"name": "sender",
					"type": "address",
					"internalType": "address"
				}
			]
		},
		{
			"type": "error",
			"name": "ERC721NonexistentToken",
			"inputs": [
				{
					"name": "tokenId",
					"type": "uint256",
					"internalType": "uint256"
				}
			]
		},
		{
			"type": "error",
			"name": "FailedCall",
			"inputs": []
		},
		{
			"type": "error",
			"name": "InsufficientBalance",
			"inputs": [
				{
					"name": "balance",
					"type": "uint256",
					"internalType": "uint256"
				},
				{
					"name": "needed",
					"type": "uint256",
					"internalType": "uint256"
				}
			]
		},
		{
			"type": "error",
			"name": "JBProjects_CreationFeeExceedsMax",
			"inputs": [
				{
					"name": "fee",
					"type": "uint256",
					"internalType": "uint256"
				},
				{
					"name": "max",
					"type": "uint256",
					"internalType": "uint256"
				}
			]
		},
		{
			"type": "error",
			"name": "JBProjects_InvalidCreationFee",
			"inputs": [
				{
					"name": "value",
					"type": "uint256",
					"internalType": "uint256"
				},
				{
					"name": "requiredFee",
					"type": "uint256",
					"internalType": "uint256"
				}
			]
		},
		{
			"type": "error",
			"name": "JBProjects_ZeroCreationFeeReceiver",
			"inputs": []
		},
		{
			"type": "error",
			"name": "OwnableInvalidOwner",
			"inputs": [
				{
					"name": "owner",
					"type": "address",
					"internalType": "address"
				}
			]
		},
		{
			"type": "error",
			"name": "OwnableUnauthorizedAccount",
			"inputs": [
				{
					"name": "account",
					"type": "address",
					"internalType": "address"
				}
			]
		}
	],
	"args": [
		"0xd5136c794ee43BEf1eD4cF1eB6DEe45b7F803437",
		"0xd5136c794ee43BEf1eD4cF1eB6DEe45b7F803437",
		"0x53d5A7E174A87721c527ED14c7Ce7cb515465607"
	],
	"solcInputHash": "f37fb10f3f7f3e70f80b0ffbd52bcb4d",
	"bytecode": "0x60a060405234801561000f575f5ffd5b5060405161217038038061217083398101604081905261002e9161085d565b8281604051806040016040528060118152602001704a75696365626f782050726f6a6563747360781b81525060405180604001604052806008815260200167094aa92868a849eb60c31b815250815f90816100899190610927565b5060016100968282610927565b5050506001600160a01b0390811660805281166100cd57604051631e4fbdf760e01b81525f60048201526024015b60405180910390fd5b6100d6816100f9565b506001600160a01b038216156100f1576100ef8261014a565b505b505050610aec565b600680546001600160a01b038381166001600160a01b0319831681179093556040519116919082907f8be0079c531659141344cd1fd0a4f28419497f9722a3daafe3b4186f6b6457e0905f90a35050565b6007545f9034811461017857604051632e373fa360e01b8152346004820152602481018290526044016100c4565b60095f8154610186906109e1565b918290555091506001600160a01b038316827f365b3162cd780731fc55a794b59494d472bc2af701007f581843a706738146986101c1610228565b6040516001600160a01b03909116815260200160405180910390a36101e68383610236565b8015610222576008546001600160a01b031680610216576040516350dcc30760e01b815260040160405180910390fd5b6102208183610259565b505b50919050565b5f6102316102d2565b905090565b610255828260405180602001604052805f81525061031860201b60201c565b5050565b804710156102835760405163cf47918160e01b8152476004820152602481018290526044016100c4565b6102a2828260405180602001604052805f81525061033b60201b60201c565b156102ab575050565b3d156102b957610255610350565b60405163d6bda27560e01b815260040160405180910390fd5b5f3660148082108015906102ea57506102ea3361035b565b15610310576102fd36828403815f610a05565b61030691610a2c565b60601c9250505090565b339250505090565b6103228383610380565b61033661032d610228565b5f8585856103e1565b505050565b5f5f5f83516020850186885af1949350505050565b6040513d5f823e3d81fd5b5f61036560805190565b6001600160a01b0316826001600160a01b0316149050919050565b6001600160a01b0382166103a957604051633250574960e11b81525f60048201526024016100c4565b5f6103b5838383610509565b90506001600160a01b03811615610336576040516339e3563760e11b81525f60048201526024016100c4565b6001600160a01b0383163b1561050257604051630a85bd0160e11b81526001600160a01b0384169063150b7a0290610423908890889087908790600401610a64565b6020604051808303815f875af192505050801561045d575060408051601f3d908101601f1916820190925261045a91810190610abe565b60015b6104c4573d80801561048a576040519150601f19603f3d011682016040523d82523d5f602084013e61048f565b606091505b5080515f036104bc57604051633250574960e11b81526001600160a01b03851660048201526024016100c4565b805160208201fd5b6001600160e01b03198116630a85bd0160e11b1461050057604051633250574960e11b81526001600160a01b03851660048201526024016100c4565b505b5050505050565b5f828152600260205260408120546001600160a01b0390811690831615610535576105358184866105fb565b6001600160a01b0381161561056f576105505f85818061065f565b6001600160a01b0381165f90815260036020526040902080545f190190555b6001600160a01b0385161561059d576001600160a01b0385165f908152600360205260409020805460010190555b5f8481526002602052604080822080546001600160a01b0319166001600160a01b0389811691821790925591518793918516917fddf252ad1be2c89b69c2b068fc378daa952ba7f163c4a11628f55a4df523b3ef91a4949350505050565b610606838383610781565b610336576001600160a01b03831661063457604051637e27328960e01b8152600481018290526024016100c4565b60405163177e802f60e01b81526001600160a01b0383166004820152602481018290526044016100c4565b808061067357506001600160a01b03821615155b15610752575f61068284610804565b90506001600160a01b038316158015906106ae5750826001600160a01b0316816001600160a01b031614155b80156106df57506001600160a01b038082165f9081526005602090815260408083209387168352929052205460ff16155b156107085760405163a9fbf51f60e01b81526001600160a01b03841660048201526024016100c4565b81156107505783856001600160a01b0316826001600160a01b03167f8c5be1e5ebec7d5bd14f71427d1e84f3dd0314c0f7b2291e5b200ac8c7c3b92560405160405180910390a45b505b50505f90815260046020526040902080546001600160a01b0319166001600160a01b0392909216919091179055565b5f6001600160a01b038316158015906107fc5750826001600160a01b0316846001600160a01b031614806107d957506001600160a01b038085165f9081526005602090815260408083209387168352929052205460ff165b806107fc57505f828152600460205260409020546001600160a01b038481169116145b949350505050565b5f818152600260205260408120546001600160a01b03168061083c57604051637e27328960e01b8152600481018490526024016100c4565b92915050565b80516001600160a01b0381168114610858575f5ffd5b919050565b5f5f5f6060848603121561086f575f5ffd5b61087884610842565b925061088660208501610842565b915061089460408501610842565b90509250925092565b634e487b7160e01b5f52604160045260245ffd5b600181811c908216806108c557607f821691505b60208210810361022257634e487b7160e01b5f52602260045260245ffd5b601f82111561033657805f5260205f20601f840160051c810160208510156109085750805b601f840160051c820191505b81811015610502575f8155600101610914565b81516001600160401b038111156109405761094061089d565b6109548161094e84546108b1565b846108e3565b6020601f821160018114610986575f831561096f5750848201515b5f19600385901b1c1916600184901b178455610502565b5f84815260208120601f198516915b828110156109b55787850151825560209485019460019092019101610995565b50848210156109d257868401515f19600387901b60f8161c191681555b50505050600190811b01905550565b5f600182016109fe57634e487b7160e01b5f52601160045260245ffd5b5060010190565b5f5f85851115610a13575f5ffd5b83861115610a1f575f5ffd5b5050820193919092039150565b80356001600160601b03198116906014841015610a5d576001600160601b0319601485900360031b81901b82161691505b5092915050565b60018060a01b038516815260018060a01b0384166020820152826040820152608060608201525f8251806080840152806020850160a085015e5f60a0828501015260a0601f19601f83011684010191505095945050505050565b5f60208284031215610ace575f5ffd5b81516001600160e01b031981168114610ae5575f5ffd5b9392505050565b60805161165e610b125f395f81816102e7015281816103770152610f3b015261165e5ff3fe60806040526004361061017b575f3560e01c80637da0a877116100cd578063c071588811610087578063dce0b4e411610062578063dce0b4e414610475578063e131fc0c1461048a578063e985e9c5146104a9578063f2fde38b146104c8575f5ffd5b8063c071588814610424578063c87b56dd14610437578063ceca49a914610456575f5ffd5b80637da0a8771461036957806387cb5f941461039b5780638da5cb5b146103b557806395d89b41146103d2578063a22cb465146103e6578063b88d4fde14610405575f5ffd5b806323b872dd11610138578063572b6c0511610113578063572b6c05146102cb5780636352211e1461031757806370a0823114610336578063715018a614610355575f5ffd5b806323b872dd1461026e5780632407497e1461028d57806342842e0e146102ac575f5ffd5b806301ffc9a71461017f57806306661abd146101b357806306fdde03146101d6578063081812fc146101f7578063095ea7b31461022e5780631fc7a2091461024f575b5f5ffd5b34801561018a575f5ffd5b5061019e610199366004611214565b6104e7565b60405190151581526020015b60405180910390f35b3480156101be575f5ffd5b506101c860095481565b6040519081526020016101aa565b3480156101e1575f5ffd5b506101ea610511565b6040516101aa919061125d565b348015610202575f5ffd5b5061021661021136600461126f565b6105a0565b6040516001600160a01b0390911681526020016101aa565b348015610239575f5ffd5b5061024d61024836600461129a565b6105c7565b005b34801561025a575f5ffd5b5061024d6102693660046112c4565b6105dd565b348015610279575f5ffd5b5061024d6102883660046112f2565b6106cd565b348015610298575f5ffd5b5061024d6102a7366004611330565b61075d565b3480156102b7575f5ffd5b5061024d6102c63660046112f2565b6107ca565b3480156102d6575f5ffd5b5061019e6102e5366004611330565b7f00000000000000000000000000000000000000000000000000000000000000006001600160a01b0390811691161490565b348015610322575f5ffd5b5061021661033136600461126f565b6107e9565b348015610341575f5ffd5b506101c8610350366004611330565b6107f3565b348015610360575f5ffd5b5061024d610838565b348015610374575f5ffd5b507f0000000000000000000000000000000000000000000000000000000000000000610216565b3480156103a6575f5ffd5b506101c866038d7ea4c6800081565b3480156103c0575f5ffd5b506006546001600160a01b0316610216565b3480156103dd575f5ffd5b506101ea61084b565b3480156103f1575f5ffd5b5061024d61040036600461134b565b61085a565b348015610410575f5ffd5b5061024d61041f3660046113e7565b61086c565b6101c8610432366004611330565b61088b565b348015610442575f5ffd5b506101ea61045136600461126f565b610969565b348015610461575f5ffd5b50600854610216906001600160a01b031681565b348015610480575f5ffd5b506101c860075481565b348015610495575f5ffd5b50600a54610216906001600160a01b031681565b3480156104b4575f5ffd5b5061019e6104c336600461148f565b610a02565b3480156104d3575f5ffd5b5061024d6104e2366004611330565b610a2f565b5f6001600160e01b03198216638907f79760e01b148061050b575061050b82610a6c565b92915050565b60605f805461051f906114bb565b80601f016020809104026020016040519081016040528092919081815260200182805461054b906114bb565b80156105965780601f1061056d57610100808354040283529160200191610596565b820191905f5260205f20905b81548152906001019060200180831161057957829003601f168201915b5050505050905090565b5f6105aa82610abb565b505f828152600460205260409020546001600160a01b031661050b565b6105d982826105d4610af3565b610b01565b5050565b6105e5610b0e565b66038d7ea4c6800082111561062257604051630aa6b55560e21b81526004810183905266038d7ea4c6800060248201526044015b60405180910390fd5b811580159061063857506001600160a01b038116155b15610656576040516350dcc30760e01b815260040160405180910390fd5b6007829055600880546001600160a01b0319166001600160a01b0383161790557f15eb42cb0a51a0e08df4f48d4f8d94319402ec9a74d75fe0fc72b96b59bb8e6382826106a1610af3565b604080519384526001600160a01b03928316602085015291169082015260600160405180910390a15050565b6001600160a01b0382166106f657604051633250574960e11b81525f6004820152602401610619565b5f6107098383610704610af3565b610b6c565b9050836001600160a01b0316816001600160a01b031614610757576040516364283d7b60e01b81526001600160a01b0380861660048301526024820184905282166044820152606401610619565b50505050565b610765610b0e565b600a80546001600160a01b0319166001600160a01b0383169081179091557fe7784d93cfbfa4408e19577e6cc0436f4dbb51214b70e100905dfce9def88c166107ac610af3565b6040516001600160a01b03909116815260200160405180910390a250565b6107e483838360405180602001604052805f81525061086c565b505050565b5f61050b82610abb565b5f6001600160a01b03821661081d576040516322718ad960e21b81525f6004820152602401610619565b506001600160a01b03165f9081526003602052604090205490565b610840610b0e565b6108495f610c5e565b565b60606001805461051f906114bb565b6105d9610865610af3565b8383610caf565b6108778484846106cd565b610757610882610af3565b85858585610d76565b6007545f903481146108b957604051632e373fa360e01b815234600482015260248101829052604401610619565b60095f81546108c7906114ed565b918290555091506001600160a01b038316827f365b3162cd780731fc55a794b59494d472bc2af701007f581843a70673814698610902610af3565b6040516001600160a01b03909116815260200160405180910390a36109278383610e9e565b8015610963576008546001600160a01b031680610957576040516350dcc30760e01b815260040160405180910390fd5b6109618183610eb7565b505b50919050565b600a546060906001600160a01b03168061099257505060408051602081019091525f8152919050565b604051636d02a25560e11b8152600481018490526001600160a01b0382169063da0544aa906024015f60405180830381865afa1580156109d4573d5f5f3e3d5ffd5b505050506040513d5f823e601f3d908101601f191682016040526109fb9190810190611511565b9392505050565b6001600160a01b039182165f90815260056020908152604080832093909416825291909152205460ff1690565b610a37610b0e565b6001600160a01b038116610a6057604051631e4fbdf760e01b81525f6004820152602401610619565b610a6981610c5e565b50565b5f6001600160e01b031982166380ac58cd60e01b1480610a9c57506001600160e01b03198216635b5e139f60e01b145b8061050b57506301ffc9a760e01b6001600160e01b031983161461050b565b5f818152600260205260408120546001600160a01b03168061050b57604051637e27328960e01b815260048101849052602401610619565b5f610afc610f2a565b905090565b6107e48383836001610f94565b610b16610af3565b6001600160a01b0316610b316006546001600160a01b031690565b6001600160a01b03161461084957610b47610af3565b60405163118cdaa760e01b81526001600160a01b039091166004820152602401610619565b5f828152600260205260408120546001600160a01b0390811690831615610b9857610b98818486611098565b6001600160a01b03811615610bd257610bb35f855f5f610f94565b6001600160a01b0381165f90815260036020526040902080545f190190555b6001600160a01b03851615610c00576001600160a01b0385165f908152600360205260409020805460010190555b5f8481526002602052604080822080546001600160a01b0319166001600160a01b0389811691821790925591518793918516917fddf252ad1be2c89b69c2b068fc378daa952ba7f163c4a11628f55a4df523b3ef91a4949350505050565b600680546001600160a01b038381166001600160a01b0319831681179093556040519116919082907f8be0079c531659141344cd1fd0a4f28419497f9722a3daafe3b4186f6b6457e0905f90a35050565b6001600160a01b038316610cd85760405163a9fbf51f60e01b81525f6004820152602401610619565b6001600160a01b038216610d0a57604051630b61174360e31b81526001600160a01b0383166004820152602401610619565b6001600160a01b038381165f81815260056020908152604080832094871680845294825291829020805460ff191686151590811790915591519182527f17307eab39ab6107e8899845ad3d59bd9653f200f220920489ca2b5937696c31910160405180910390a3505050565b6001600160a01b0383163b15610e9757604051630a85bd0160e11b81526001600160a01b0384169063150b7a0290610db8908890889087908790600401611586565b6020604051808303815f875af1925050508015610df2575060408051601f3d908101601f19168201909252610def918101906115c2565b60015b610e59573d808015610e1f576040519150601f19603f3d011682016040523d82523d5f602084013e610e24565b606091505b5080515f03610e5157604051633250574960e11b81526001600160a01b0385166004820152602401610619565b805160208201fd5b6001600160e01b03198116630a85bd0160e11b14610e9557604051633250574960e11b81526001600160a01b0385166004820152602401610619565b505b5050505050565b6105d9828260405180602001604052805f8152506110fc565b80471015610ee15760405163cf47918160e01b815247600482015260248101829052604401610619565b610efa828260405180602001604052805f81525061111a565b15610f03575050565b3d15610f11576105d961112f565b60405163d6bda27560e01b815260040160405180910390fd5b5f366014808210801590610f6657507f00000000000000000000000000000000000000000000000000000000000000006001600160a01b031633145b15610f8c57610f7936828403815f6115dd565b610f8291611604565b60601c9250505090565b339250505090565b8080610fa857506001600160a01b03821615155b15611069575f610fb784610abb565b90506001600160a01b03831615801590610fe35750826001600160a01b0316816001600160a01b031614155b8015610ff65750610ff48184610a02565b155b1561101f5760405163a9fbf51f60e01b81526001600160a01b0384166004820152602401610619565b81156110675783856001600160a01b0316826001600160a01b03167f8c5be1e5ebec7d5bd14f71427d1e84f3dd0314c0f7b2291e5b200ac8c7c3b92560405160405180910390a45b505b50505f90815260046020526040902080546001600160a01b0319166001600160a01b0392909216919091179055565b6110a383838361113a565b6107e4576001600160a01b0383166110d157604051637e27328960e01b815260048101829052602401610619565b60405163177e802f60e01b81526001600160a01b038316600482015260248101829052604401610619565b611106838361119e565b6107e4611111610af3565b5f858585610d76565b5f5f5f83516020850186885af1949350505050565b6040513d5f823e3d81fd5b5f6001600160a01b038316158015906111965750826001600160a01b0316846001600160a01b0316148061117357506111738484610a02565b8061119657505f828152600460205260409020546001600160a01b038481169116145b949350505050565b6001600160a01b0382166111c757604051633250574960e11b81525f6004820152602401610619565b5f6111d383835f610b6c565b90506001600160a01b038116156107e4576040516339e3563760e11b81525f6004820152602401610619565b6001600160e01b031981168114610a69575f5ffd5b5f60208284031215611224575f5ffd5b81356109fb816111ff565b5f81518084528060208401602086015e5f602082860101526020601f19601f83011685010191505092915050565b602081525f6109fb602083018461122f565b5f6020828403121561127f575f5ffd5b5035919050565b6001600160a01b0381168114610a69575f5ffd5b5f5f604083850312156112ab575f5ffd5b82356112b681611286565b946020939093013593505050565b5f5f604083850312156112d5575f5ffd5b8235915060208301356112e781611286565b809150509250929050565b5f5f5f60608486031215611304575f5ffd5b833561130f81611286565b9250602084013561131f81611286565b929592945050506040919091013590565b5f60208284031215611340575f5ffd5b81356109fb81611286565b5f5f6040838503121561135c575f5ffd5b823561136781611286565b9150602083013580151581146112e7575f5ffd5b634e487b7160e01b5f52604160045260245ffd5b604051601f8201601f1916810167ffffffffffffffff811182821017156113b8576113b861137b565b604052919050565b5f67ffffffffffffffff8211156113d9576113d961137b565b50601f01601f191660200190565b5f5f5f5f608085870312156113fa575f5ffd5b843561140581611286565b9350602085013561141581611286565b925060408501359150606085013567ffffffffffffffff811115611437575f5ffd5b8501601f81018713611447575f5ffd5b803561145a611455826113c0565b61138f565b81815288602083850101111561146e575f5ffd5b816020840160208301375f6020838301015280935050505092959194509250565b5f5f604083850312156114a0575f5ffd5b82356114ab81611286565b915060208301356112e781611286565b600181811c908216806114cf57607f821691505b60208210810361096357634e487b7160e01b5f52602260045260245ffd5b5f6001820161150a57634e487b7160e01b5f52601160045260245ffd5b5060010190565b5f60208284031215611521575f5ffd5b815167ffffffffffffffff811115611537575f5ffd5b8201601f81018413611547575f5ffd5b8051611555611455826113c0565b818152856020838501011115611569575f5ffd5b8160208401602083015e5f91810160200191909152949350505050565b6001600160a01b03858116825284166020820152604081018390526080606082018190525f906115b89083018461122f565b9695505050505050565b5f602082840312156115d2575f5ffd5b81516109fb816111ff565b5f5f858511156115eb575f5ffd5b838611156115f7575f5ffd5b5050820193919092039150565b80356bffffffffffffffffffffffff19811690601484101561164a576bffffffffffffffffffffffff196bffffffffffffffffffffffff198560140360031b1b82161691505b509291505056fea164736f6c634300081c000a",
	"gitCommit": "npm:@bananapus/core-v6@0.0.82",
	"gitDirty": false,
	"history": []
}