{
	"format": "sphinx-sol-ct-artifact-1",
	"address": "0xc844ad055c3d793a87fd823056340457394b06c2",
	"sourceName": "node_modules/@bananapus/distributor-v6/src/JBTokenDistributor.sol",
	"contractName": "JBTokenDistributor",
	"chainId": "0xaa37dc",
	"abi": [
		{
			"type": "constructor",
			"inputs": [
				{
					"name": "directory",
					"type": "address",
					"internalType": "contract IJBDirectory"
				},
				{
					"name": "controller",
					"type": "address",
					"internalType": "contract IJBController"
				},
				{
					"name": "revLoans",
					"type": "address",
					"internalType": "contract IREVLoans"
				},
				{
					"name": "revOwner",
					"type": "address",
					"internalType": "contract IREVOwner"
				},
				{
					"name": "initialRoundDuration",
					"type": "uint256",
					"internalType": "uint256"
				},
				{
					"name": "initialVestingRounds",
					"type": "uint256",
					"internalType": "uint256"
				},
				{
					"name": "initialClaimDuration",
					"type": "uint48",
					"internalType": "uint48"
				}
			],
			"stateMutability": "nonpayable"
		},
		{
			"type": "receive",
			"stateMutability": "payable"
		},
		{
			"type": "function",
			"name": "CLAIM_DURATION",
			"inputs": [],
			"outputs": [
				{
					"name": "",
					"type": "uint48",
					"internalType": "uint48"
				}
			],
			"stateMutability": "view"
		},
		{
			"type": "function",
			"name": "CONTROLLER",
			"inputs": [],
			"outputs": [
				{
					"name": "",
					"type": "address",
					"internalType": "contract IJBController"
				}
			],
			"stateMutability": "view"
		},
		{
			"type": "function",
			"name": "DIRECTORY",
			"inputs": [],
			"outputs": [
				{
					"name": "",
					"type": "address",
					"internalType": "contract IJBDirectory"
				}
			],
			"stateMutability": "view"
		},
		{
			"type": "function",
			"name": "MAX_SHARE",
			"inputs": [],
			"outputs": [
				{
					"name": "",
					"type": "uint256",
					"internalType": "uint256"
				}
			],
			"stateMutability": "view"
		},
		{
			"type": "function",
			"name": "REV_LOANS",
			"inputs": [],
			"outputs": [
				{
					"name": "",
					"type": "address",
					"internalType": "contract IREVLoans"
				}
			],
			"stateMutability": "view"
		},
		{
			"type": "function",
			"name": "REV_OWNER",
			"inputs": [],
			"outputs": [
				{
					"name": "",
					"type": "address",
					"internalType": "contract IREVOwner"
				}
			],
			"stateMutability": "view"
		},
		{
			"type": "function",
			"name": "ROUND_DURATION",
			"inputs": [],
			"outputs": [
				{
					"name": "",
					"type": "uint256",
					"internalType": "uint256"
				}
			],
			"stateMutability": "view"
		},
		{
			"type": "function",
			"name": "STARTING_TIMESTAMP",
			"inputs": [],
			"outputs": [
				{
					"name": "",
					"type": "uint256",
					"internalType": "uint256"
				}
			],
			"stateMutability": "view"
		},
		{
			"type": "function",
			"name": "VESTING_ROUNDS",
			"inputs": [],
			"outputs": [
				{
					"name": "",
					"type": "uint256",
					"internalType": "uint256"
				}
			],
			"stateMutability": "view"
		},
		{
			"type": "function",
			"name": "activeVestingLoanIdOf",
			"inputs": [
				{
					"name": "hook",
					"type": "address",
					"internalType": "address"
				},
				{
					"name": "groupId",
					"type": "uint256",
					"internalType": "uint256"
				},
				{
					"name": "tokenId",
					"type": "uint256",
					"internalType": "uint256"
				},
				{
					"name": "token",
					"type": "address",
					"internalType": "contract IERC20"
				}
			],
			"outputs": [
				{
					"name": "",
					"type": "uint256",
					"internalType": "uint256"
				}
			],
			"stateMutability": "view"
		},
		{
			"type": "function",
			"name": "balanceOf",
			"inputs": [
				{
					"name": "hook",
					"type": "address",
					"internalType": "address"
				},
				{
					"name": "token",
					"type": "address",
					"internalType": "contract IERC20"
				}
			],
			"outputs": [
				{
					"name": "",
					"type": "uint256",
					"internalType": "uint256"
				}
			],
			"stateMutability": "view"
		},
		{
			"type": "function",
			"name": "beginVesting",
			"inputs": [
				{
					"name": "hook",
					"type": "address",
					"internalType": "address"
				},
				{
					"name": "tokenIds",
					"type": "uint256[]",
					"internalType": "uint256[]"
				},
				{
					"name": "tokens",
					"type": "address[]",
					"internalType": "contract IERC20[]"
				}
			],
			"outputs": [],
			"stateMutability": "nonpayable"
		},
		{
			"type": "function",
			"name": "borrowAgainstVesting",
			"inputs": [
				{
					"name": "hook",
					"type": "address",
					"internalType": "address"
				},
				{
					"name": "tokenIds",
					"type": "uint256[]",
					"internalType": "uint256[]"
				},
				{
					"name": "tokens",
					"type": "address[]",
					"internalType": "contract IERC20[]"
				},
				{
					"name": "sourceToken",
					"type": "address",
					"internalType": "address"
				},
				{
					"name": "minBorrowAmount",
					"type": "uint256",
					"internalType": "uint256"
				},
				{
					"name": "prepaidFeePercent",
					"type": "uint256",
					"internalType": "uint256"
				},
				{
					"name": "beneficiary",
					"type": "address",
					"internalType": "address payable"
				}
			],
			"outputs": [
				{
					"name": "loanId",
					"type": "uint256",
					"internalType": "uint256"
				},
				{
					"name": "collateralCount",
					"type": "uint256",
					"internalType": "uint256"
				}
			],
			"stateMutability": "nonpayable"
		},
		{
			"type": "function",
			"name": "burnExpiredRewards",
			"inputs": [
				{
					"name": "hook",
					"type": "address",
					"internalType": "address"
				},
				{
					"name": "token",
					"type": "address",
					"internalType": "contract IERC20"
				},
				{
					"name": "rounds",
					"type": "uint256[]",
					"internalType": "uint256[]"
				}
			],
			"outputs": [
				{
					"name": "amount",
					"type": "uint256",
					"internalType": "uint256"
				}
			],
			"stateMutability": "nonpayable"
		},
		{
			"type": "function",
			"name": "claimedFor",
			"inputs": [
				{
					"name": "hook",
					"type": "address",
					"internalType": "address"
				},
				{
					"name": "tokenId",
					"type": "uint256",
					"internalType": "uint256"
				},
				{
					"name": "token",
					"type": "address",
					"internalType": "contract IERC20"
				}
			],
			"outputs": [
				{
					"name": "tokenAmount",
					"type": "uint256",
					"internalType": "uint256"
				}
			],
			"stateMutability": "view"
		},
		{
			"type": "function",
			"name": "collectVestedRewards",
			"inputs": [
				{
					"name": "hook",
					"type": "address",
					"internalType": "address"
				},
				{
					"name": "tokenIds",
					"type": "uint256[]",
					"internalType": "uint256[]"
				},
				{
					"name": "tokens",
					"type": "address[]",
					"internalType": "contract IERC20[]"
				},
				{
					"name": "beneficiary",
					"type": "address",
					"internalType": "address"
				}
			],
			"outputs": [],
			"stateMutability": "nonpayable"
		},
		{
			"type": "function",
			"name": "collectableFor",
			"inputs": [
				{
					"name": "hook",
					"type": "address",
					"internalType": "address"
				},
				{
					"name": "tokenId",
					"type": "uint256",
					"internalType": "uint256"
				},
				{
					"name": "token",
					"type": "address",
					"internalType": "contract IERC20"
				}
			],
			"outputs": [
				{
					"name": "tokenAmount",
					"type": "uint256",
					"internalType": "uint256"
				}
			],
			"stateMutability": "view"
		},
		{
			"type": "function",
			"name": "currentRound",
			"inputs": [],
			"outputs": [
				{
					"name": "",
					"type": "uint256",
					"internalType": "uint256"
				}
			],
			"stateMutability": "view"
		},
		{
			"type": "function",
			"name": "fund",
			"inputs": [
				{
					"name": "hook",
					"type": "address",
					"internalType": "address"
				},
				{
					"name": "token",
					"type": "address",
					"internalType": "contract IERC20"
				},
				{
					"name": "amount",
					"type": "uint256",
					"internalType": "uint256"
				}
			],
			"outputs": [],
			"stateMutability": "payable"
		},
		{
			"type": "function",
			"name": "latestVestedIndexOf",
			"inputs": [
				{
					"name": "hook",
					"type": "address",
					"internalType": "address"
				},
				{
					"name": "groupId",
					"type": "uint256",
					"internalType": "uint256"
				},
				{
					"name": "tokenId",
					"type": "uint256",
					"internalType": "uint256"
				},
				{
					"name": "token",
					"type": "address",
					"internalType": "contract IERC20"
				}
			],
			"outputs": [
				{
					"name": "",
					"type": "uint256",
					"internalType": "uint256"
				}
			],
			"stateMutability": "view"
		},
		{
			"type": "function",
			"name": "nextClaimRoundOf",
			"inputs": [
				{
					"name": "hook",
					"type": "address",
					"internalType": "address"
				},
				{
					"name": "groupId",
					"type": "uint256",
					"internalType": "uint256"
				},
				{
					"name": "tokenId",
					"type": "uint256",
					"internalType": "uint256"
				},
				{
					"name": "token",
					"type": "address",
					"internalType": "contract IERC20"
				}
			],
			"outputs": [
				{
					"name": "",
					"type": "uint256",
					"internalType": "uint256"
				}
			],
			"stateMutability": "view"
		},
		{
			"type": "function",
			"name": "poke",
			"inputs": [],
			"outputs": [],
			"stateMutability": "nonpayable"
		},
		{
			"type": "function",
			"name": "processSplitWith",
			"inputs": [
				{
					"name": "context",
					"type": "tuple",
					"internalType": "struct JBSplitHookContext",
					"components": [
						{
							"name": "token",
							"type": "address",
							"internalType": "address"
						},
						{
							"name": "amount",
							"type": "uint256",
							"internalType": "uint256"
						},
						{
							"name": "decimals",
							"type": "uint256",
							"internalType": "uint256"
						},
						{
							"name": "projectId",
							"type": "uint256",
							"internalType": "uint256"
						},
						{
							"name": "groupId",
							"type": "uint256",
							"internalType": "uint256"
						},
						{
							"name": "split",
							"type": "tuple",
							"internalType": "struct JBSplit",
							"components": [
								{
									"name": "percent",
									"type": "uint32",
									"internalType": "uint32"
								},
								{
									"name": "projectId",
									"type": "uint64",
									"internalType": "uint64"
								},
								{
									"name": "beneficiary",
									"type": "address",
									"internalType": "address payable"
								},
								{
									"name": "preferAddToBalance",
									"type": "bool",
									"internalType": "bool"
								},
								{
									"name": "lockedUntil",
									"type": "uint48",
									"internalType": "uint48"
								},
								{
									"name": "hook",
									"type": "address",
									"internalType": "contract IJBSplitHook"
								}
							]
						}
					]
				}
			],
			"outputs": [],
			"stateMutability": "payable"
		},
		{
			"type": "function",
			"name": "releaseForfeitedRewards",
			"inputs": [
				{
					"name": "hook",
					"type": "address",
					"internalType": "address"
				},
				{
					"name": "tokenIds",
					"type": "uint256[]",
					"internalType": "uint256[]"
				},
				{
					"name": "tokens",
					"type": "address[]",
					"internalType": "contract IERC20[]"
				},
				{
					"name": "beneficiary",
					"type": "address",
					"internalType": "address"
				}
			],
			"outputs": [],
			"stateMutability": "nonpayable"
		},
		{
			"type": "function",
			"name": "repayVestingLoan",
			"inputs": [
				{
					"name": "loanId",
					"type": "uint256",
					"internalType": "uint256"
				},
				{
					"name": "maxRepayBorrowAmount",
					"type": "uint256",
					"internalType": "uint256"
				}
			],
			"outputs": [
				{
					"name": "paidOffLoanId",
					"type": "uint256",
					"internalType": "uint256"
				}
			],
			"stateMutability": "payable"
		},
		{
			"type": "function",
			"name": "rewardRoundOf",
			"inputs": [
				{
					"name": "hook",
					"type": "address",
					"internalType": "address"
				},
				{
					"name": "groupId",
					"type": "uint256",
					"internalType": "uint256"
				},
				{
					"name": "token",
					"type": "address",
					"internalType": "contract IERC20"
				},
				{
					"name": "round",
					"type": "uint256",
					"internalType": "uint256"
				}
			],
			"outputs": [
				{
					"name": "amount",
					"type": "uint208",
					"internalType": "uint208"
				},
				{
					"name": "snapshotBlock",
					"type": "uint48",
					"internalType": "uint48"
				},
				{
					"name": "claimedAmount",
					"type": "uint208",
					"internalType": "uint208"
				},
				{
					"name": "claimDeadline",
					"type": "uint48",
					"internalType": "uint48"
				},
				{
					"name": "totalStake",
					"type": "uint208",
					"internalType": "uint208"
				}
			],
			"stateMutability": "view"
		},
		{
			"type": "function",
			"name": "roundSnapshotBlock",
			"inputs": [
				{
					"name": "round",
					"type": "uint256",
					"internalType": "uint256"
				}
			],
			"outputs": [
				{
					"name": "",
					"type": "uint256",
					"internalType": "uint256"
				}
			],
			"stateMutability": "view"
		},
		{
			"type": "function",
			"name": "roundStartTimestamp",
			"inputs": [
				{
					"name": "round",
					"type": "uint256",
					"internalType": "uint256"
				}
			],
			"outputs": [
				{
					"name": "",
					"type": "uint256",
					"internalType": "uint256"
				}
			],
			"stateMutability": "view"
		},
		{
			"type": "function",
			"name": "supportsInterface",
			"inputs": [
				{
					"name": "interfaceId",
					"type": "bytes4",
					"internalType": "bytes4"
				}
			],
			"outputs": [
				{
					"name": "",
					"type": "bool",
					"internalType": "bool"
				}
			],
			"stateMutability": "pure"
		},
		{
			"type": "function",
			"name": "totalLoanedVestingAmountOf",
			"inputs": [
				{
					"name": "hook",
					"type": "address",
					"internalType": "address"
				},
				{
					"name": "token",
					"type": "address",
					"internalType": "contract IERC20"
				}
			],
			"outputs": [
				{
					"name": "amount",
					"type": "uint256",
					"internalType": "uint256"
				}
			],
			"stateMutability": "view"
		},
		{
			"type": "function",
			"name": "totalVestingAmountOf",
			"inputs": [
				{
					"name": "hook",
					"type": "address",
					"internalType": "address"
				},
				{
					"name": "token",
					"type": "address",
					"internalType": "contract IERC20"
				}
			],
			"outputs": [
				{
					"name": "amount",
					"type": "uint256",
					"internalType": "uint256"
				}
			],
			"stateMutability": "view"
		},
		{
			"type": "function",
			"name": "vestingDataOf",
			"inputs": [
				{
					"name": "hook",
					"type": "address",
					"internalType": "address"
				},
				{
					"name": "groupId",
					"type": "uint256",
					"internalType": "uint256"
				},
				{
					"name": "tokenId",
					"type": "uint256",
					"internalType": "uint256"
				},
				{
					"name": "token",
					"type": "address",
					"internalType": "contract IERC20"
				},
				{
					"name": "",
					"type": "uint256",
					"internalType": "uint256"
				}
			],
			"outputs": [
				{
					"name": "releaseRound",
					"type": "uint256",
					"internalType": "uint256"
				},
				{
					"name": "amount",
					"type": "uint256",
					"internalType": "uint256"
				},
				{
					"name": "shareClaimed",
					"type": "uint256",
					"internalType": "uint256"
				}
			],
			"stateMutability": "view"
		},
		{
			"type": "function",
			"name": "vestingLoanOf",
			"inputs": [
				{
					"name": "loanId",
					"type": "uint256",
					"internalType": "uint256"
				}
			],
			"outputs": [
				{
					"name": "",
					"type": "tuple",
					"internalType": "struct JBVestingLoan",
					"components": [
						{
							"name": "hook",
							"type": "address",
							"internalType": "address"
						},
						{
							"name": "groupId",
							"type": "uint256",
							"internalType": "uint256"
						},
						{
							"name": "tokenId",
							"type": "uint256",
							"internalType": "uint256"
						},
						{
							"name": "token",
							"type": "address",
							"internalType": "contract IERC20"
						},
						{
							"name": "vestingDataCount",
							"type": "uint48",
							"internalType": "uint48"
						},
						{
							"name": "collateralCount",
							"type": "uint256",
							"internalType": "uint256"
						}
					]
				}
			],
			"stateMutability": "view"
		},
		{
			"type": "function",
			"name": "writeOffLiquidatedVestingLoan",
			"inputs": [
				{
					"name": "loanId",
					"type": "uint256",
					"internalType": "uint256"
				}
			],
			"outputs": [
				{
					"name": "collateralCount",
					"type": "uint256",
					"internalType": "uint256"
				}
			],
			"stateMutability": "nonpayable"
		},
		{
			"type": "event",
			"name": "BorrowAgainstVesting",
			"inputs": [
				{
					"name": "hook",
					"type": "address",
					"indexed": true,
					"internalType": "address"
				},
				{
					"name": "tokenId",
					"type": "uint256",
					"indexed": true,
					"internalType": "uint256"
				},
				{
					"name": "token",
					"type": "address",
					"indexed": true,
					"internalType": "contract IERC20"
				},
				{
					"name": "loanId",
					"type": "uint256",
					"indexed": false,
					"internalType": "uint256"
				},
				{
					"name": "revnetId",
					"type": "uint256",
					"indexed": false,
					"internalType": "uint256"
				},
				{
					"name": "collateralCount",
					"type": "uint256",
					"indexed": false,
					"internalType": "uint256"
				},
				{
					"name": "sourceToken",
					"type": "address",
					"indexed": false,
					"internalType": "address"
				},
				{
					"name": "minBorrowAmount",
					"type": "uint256",
					"indexed": false,
					"internalType": "uint256"
				},
				{
					"name": "prepaidFeePercent",
					"type": "uint256",
					"indexed": false,
					"internalType": "uint256"
				},
				{
					"name": "beneficiary",
					"type": "address",
					"indexed": false,
					"internalType": "address"
				},
				{
					"name": "caller",
					"type": "address",
					"indexed": false,
					"internalType": "address"
				}
			],
			"anonymous": false
		},
		{
			"type": "event",
			"name": "Claimed",
			"inputs": [
				{
					"name": "hook",
					"type": "address",
					"indexed": true,
					"internalType": "address"
				},
				{
					"name": "tokenId",
					"type": "uint256",
					"indexed": true,
					"internalType": "uint256"
				},
				{
					"name": "groupId",
					"type": "uint256",
					"indexed": false,
					"internalType": "uint256"
				},
				{
					"name": "token",
					"type": "address",
					"indexed": false,
					"internalType": "contract IERC20"
				},
				{
					"name": "amount",
					"type": "uint256",
					"indexed": false,
					"internalType": "uint256"
				},
				{
					"name": "vestingReleaseRound",
					"type": "uint256",
					"indexed": false,
					"internalType": "uint256"
				},
				{
					"name": "caller",
					"type": "address",
					"indexed": false,
					"internalType": "address"
				}
			],
			"anonymous": false
		},
		{
			"type": "event",
			"name": "Collected",
			"inputs": [
				{
					"name": "hook",
					"type": "address",
					"indexed": true,
					"internalType": "address"
				},
				{
					"name": "tokenId",
					"type": "uint256",
					"indexed": true,
					"internalType": "uint256"
				},
				{
					"name": "groupId",
					"type": "uint256",
					"indexed": false,
					"internalType": "uint256"
				},
				{
					"name": "token",
					"type": "address",
					"indexed": false,
					"internalType": "contract IERC20"
				},
				{
					"name": "amount",
					"type": "uint256",
					"indexed": false,
					"internalType": "uint256"
				},
				{
					"name": "vestingReleaseRound",
					"type": "uint256",
					"indexed": false,
					"internalType": "uint256"
				},
				{
					"name": "caller",
					"type": "address",
					"indexed": false,
					"internalType": "address"
				}
			],
			"anonymous": false
		},
		{
			"type": "event",
			"name": "ExpiredRewardsRecycled",
			"inputs": [
				{
					"name": "hook",
					"type": "address",
					"indexed": true,
					"internalType": "address"
				},
				{
					"name": "fromRound",
					"type": "uint256",
					"indexed": true,
					"internalType": "uint256"
				},
				{
					"name": "toRound",
					"type": "uint256",
					"indexed": true,
					"internalType": "uint256"
				},
				{
					"name": "token",
					"type": "address",
					"indexed": false,
					"internalType": "contract IERC20"
				},
				{
					"name": "amount",
					"type": "uint256",
					"indexed": false,
					"internalType": "uint256"
				},
				{
					"name": "caller",
					"type": "address",
					"indexed": false,
					"internalType": "address"
				}
			],
			"anonymous": false
		},
		{
			"type": "event",
			"name": "ForfeitedRewardsRecycled",
			"inputs": [
				{
					"name": "hook",
					"type": "address",
					"indexed": true,
					"internalType": "address"
				},
				{
					"name": "round",
					"type": "uint256",
					"indexed": true,
					"internalType": "uint256"
				},
				{
					"name": "token",
					"type": "address",
					"indexed": true,
					"internalType": "contract IERC20"
				},
				{
					"name": "amount",
					"type": "uint256",
					"indexed": false,
					"internalType": "uint256"
				},
				{
					"name": "caller",
					"type": "address",
					"indexed": false,
					"internalType": "address"
				}
			],
			"anonymous": false
		},
		{
			"type": "event",
			"name": "LiquidatedVestingLoanWrittenOff",
			"inputs": [
				{
					"name": "hook",
					"type": "address",
					"indexed": true,
					"internalType": "address"
				},
				{
					"name": "tokenId",
					"type": "uint256",
					"indexed": true,
					"internalType": "uint256"
				},
				{
					"name": "token",
					"type": "address",
					"indexed": true,
					"internalType": "contract IERC20"
				},
				{
					"name": "loanId",
					"type": "uint256",
					"indexed": false,
					"internalType": "uint256"
				},
				{
					"name": "collateralCount",
					"type": "uint256",
					"indexed": false,
					"internalType": "uint256"
				},
				{
					"name": "caller",
					"type": "address",
					"indexed": false,
					"internalType": "address"
				}
			],
			"anonymous": false
		},
		{
			"type": "event",
			"name": "RepayVestingLoan",
			"inputs": [
				{
					"name": "loanId",
					"type": "uint256",
					"indexed": true,
					"internalType": "uint256"
				},
				{
					"name": "paidOffLoanId",
					"type": "uint256",
					"indexed": true,
					"internalType": "uint256"
				},
				{
					"name": "token",
					"type": "address",
					"indexed": true,
					"internalType": "contract IERC20"
				},
				{
					"name": "collateralCount",
					"type": "uint256",
					"indexed": false,
					"internalType": "uint256"
				},
				{
					"name": "repayBorrowAmount",
					"type": "uint256",
					"indexed": false,
					"internalType": "uint256"
				},
				{
					"name": "caller",
					"type": "address",
					"indexed": false,
					"internalType": "address"
				}
			],
			"anonymous": false
		},
		{
			"type": "event",
			"name": "RoundSnapshotRecorded",
			"inputs": [
				{
					"name": "round",
					"type": "uint256",
					"indexed": true,
					"internalType": "uint256"
				},
				{
					"name": "snapshotBlock",
					"type": "uint256",
					"indexed": false,
					"internalType": "uint256"
				},
				{
					"name": "caller",
					"type": "address",
					"indexed": false,
					"internalType": "address"
				}
			],
			"anonymous": false
		},
		{
			"type": "error",
			"name": "JBDistributor_EmptyTokenIds",
			"inputs": [
				{
					"name": "tokenIdCount",
					"type": "uint256",
					"internalType": "uint256"
				}
			]
		},
		{
			"type": "error",
			"name": "JBDistributor_InsufficientRepaidCollateral",
			"inputs": [
				{
					"name": "expectedAmount",
					"type": "uint256",
					"internalType": "uint256"
				},
				{
					"name": "actualAmount",
					"type": "uint256",
					"internalType": "uint256"
				}
			]
		},
		{
			"type": "error",
			"name": "JBDistributor_InsufficientRepayAmount",
			"inputs": [
				{
					"name": "amount",
					"type": "uint256",
					"internalType": "uint256"
				},
				{
					"name": "requiredAmount",
					"type": "uint256",
					"internalType": "uint256"
				}
			]
		},
		{
			"type": "error",
			"name": "JBDistributor_InvalidRoundDuration",
			"inputs": [
				{
					"name": "roundDuration",
					"type": "uint256",
					"internalType": "uint256"
				}
			]
		},
		{
			"type": "error",
			"name": "JBDistributor_InvalidVestingLoanId",
			"inputs": [
				{
					"name": "loanId",
					"type": "uint256",
					"internalType": "uint256"
				}
			]
		},
		{
			"type": "error",
			"name": "JBDistributor_NativeTransferFailed",
			"inputs": [
				{
					"name": "beneficiary",
					"type": "address",
					"internalType": "address"
				},
				{
					"name": "amount",
					"type": "uint256",
					"internalType": "uint256"
				}
			]
		},
		{
			"type": "error",
			"name": "JBDistributor_NoAccess",
			"inputs": [
				{
					"name": "hook",
					"type": "address",
					"internalType": "address"
				},
				{
					"name": "tokenId",
					"type": "uint256",
					"internalType": "uint256"
				},
				{
					"name": "account",
					"type": "address",
					"internalType": "address"
				}
			]
		},
		{
			"type": "error",
			"name": "JBDistributor_NoVestingLoan",
			"inputs": [
				{
					"name": "loanId",
					"type": "uint256",
					"internalType": "uint256"
				}
			]
		},
		{
			"type": "error",
			"name": "JBDistributor_NotRevnetRewardToken",
			"inputs": [
				{
					"name": "token",
					"type": "address",
					"internalType": "address"
				}
			]
		},
		{
			"type": "error",
			"name": "JBDistributor_NothingToBorrow",
			"inputs": [
				{
					"name": "hook",
					"type": "address",
					"internalType": "address"
				},
				{
					"name": "token",
					"type": "address",
					"internalType": "address"
				}
			]
		},
		{
			"type": "error",
			"name": "JBDistributor_ReentrantTokenTransfer",
			"inputs": [
				{
					"name": "token",
					"type": "address",
					"internalType": "address"
				}
			]
		},
		{
			"type": "error",
			"name": "JBDistributor_RevnetLoansNotConfigured",
			"inputs": []
		},
		{
			"type": "error",
			"name": "JBDistributor_Uint208Overflow",
			"inputs": [
				{
					"name": "value",
					"type": "uint256",
					"internalType": "uint256"
				}
			]
		},
		{
			"type": "error",
			"name": "JBDistributor_Uint48Overflow",
			"inputs": [
				{
					"name": "value",
					"type": "uint256",
					"internalType": "uint256"
				}
			]
		},
		{
			"type": "error",
			"name": "JBDistributor_UnexpectedNativeValue",
			"inputs": [
				{
					"name": "msgValue",
					"type": "uint256",
					"internalType": "uint256"
				},
				{
					"name": "token",
					"type": "address",
					"internalType": "address"
				}
			]
		},
		{
			"type": "error",
			"name": "JBDistributor_UnexpectedRepayAmount",
			"inputs": [
				{
					"name": "amount",
					"type": "uint256",
					"internalType": "uint256"
				},
				{
					"name": "expectedAmount",
					"type": "uint256",
					"internalType": "uint256"
				}
			]
		},
		{
			"type": "error",
			"name": "JBDistributor_UnexpectedTokenCount",
			"inputs": [
				{
					"name": "tokenCount",
					"type": "uint256",
					"internalType": "uint256"
				}
			]
		},
		{
			"type": "error",
			"name": "JBDistributor_VestingLoanNotLiquidated",
			"inputs": [
				{
					"name": "loanId",
					"type": "uint256",
					"internalType": "uint256"
				}
			]
		},
		{
			"type": "error",
			"name": "JBDistributor_VestingLoanOutstanding",
			"inputs": [
				{
					"name": "hook",
					"type": "address",
					"internalType": "address"
				},
				{
					"name": "tokenId",
					"type": "uint256",
					"internalType": "uint256"
				},
				{
					"name": "token",
					"type": "address",
					"internalType": "address"
				},
				{
					"name": "loanId",
					"type": "uint256",
					"internalType": "uint256"
				}
			]
		},
		{
			"type": "error",
			"name": "JBDistributor_VestingLoansDisabled",
			"inputs": []
		},
		{
			"type": "error",
			"name": "JBTokenDistributor_InvalidTokenId",
			"inputs": [
				{
					"name": "tokenId",
					"type": "uint256",
					"internalType": "uint256"
				}
			]
		},
		{
			"type": "error",
			"name": "JBTokenDistributor_NativeAmountMismatch",
			"inputs": [
				{
					"name": "msgValue",
					"type": "uint256",
					"internalType": "uint256"
				},
				{
					"name": "contextAmount",
					"type": "uint256",
					"internalType": "uint256"
				}
			]
		},
		{
			"type": "error",
			"name": "JBTokenDistributor_TokenMismatch",
			"inputs": [
				{
					"name": "token",
					"type": "address",
					"internalType": "address"
				},
				{
					"name": "expectedToken",
					"type": "address",
					"internalType": "address"
				},
				{
					"name": "msgValue",
					"type": "uint256",
					"internalType": "uint256"
				}
			]
		},
		{
			"type": "error",
			"name": "JBTokenDistributor_Unauthorized",
			"inputs": [
				{
					"name": "projectId",
					"type": "uint256",
					"internalType": "uint256"
				},
				{
					"name": "caller",
					"type": "address",
					"internalType": "address"
				}
			]
		},
		{
			"type": "error",
			"name": "PRBMath_MulDiv_Overflow",
			"inputs": [
				{
					"name": "x",
					"type": "uint256",
					"internalType": "uint256"
				},
				{
					"name": "y",
					"type": "uint256",
					"internalType": "uint256"
				},
				{
					"name": "denominator",
					"type": "uint256",
					"internalType": "uint256"
				}
			]
		},
		{
			"type": "error",
			"name": "SafeERC20FailedOperation",
			"inputs": [
				{
					"name": "token",
					"type": "address",
					"internalType": "address"
				}
			]
		}
	],
	"args": [
		"0xE7d0F5ADC3847d4AfD70B7bcd58e34B1AAFDffbc",
		"0x59e419f593358990C496A1c4174a5cfB4D06db07",
		"0x182f8c57b12E030C04C99b1656C6533f0A269522",
		"0x85Dc792B7083896BA9c39A6271D485BEcaCb7ff9",
		"604800",
		"4",
		36288000
	],
	"solcInputHash": "f85ad5cef441033f441c050307f8c47b",
	"bytecode": "0x610180806040523461032f5760e08161461c803803809161002082856103ba565b83398101031261032f578051906001600160a01b038216820361032f5760208101516001600160a01b0381169182820361032f5760408101516001600160a01b038116929083810361032f576060830151906001600160a01b038216820361032f5760808401519260c060a086015195015165ffffffffffff8116810361032f5784156103a75760805260a05260e05261010052426101205260c05261014052806101ea575b826101605260405161423e90816103de82396080518181816101b301526140a3015260a051818181610f0e0152611780015260c051818181610a72015281816114f40152818161202801526140e5015260e05181818161028401528181610ff10152818161172001528181611ae20152612245015261010051818181611e610152612289015261012051818181610a4b0152818161151a015281816115f8015281816122cf015281816123ec0152818161248701528181612f6601528181613385015281816134d7015281816137bc015281816138e201526139bf015261014051818181610dc701528181611421015281816116fa0152818161276c01528181612ff7015281816133db015261352c0152610160518181816116320152612c020152f35b6040908151926101fa83856103ba565b6001845260208401601f19840136823784511561039357600491600b60209252845192838092633d0d324560e21b82525afa908115610389575f91610347575b5082516001600160a01b039190911691606082016001600160401b03811183821017610333578452815260208101935f8552838201908152823b1561032f578351631127c92960e21b81523060048201526024810185905291516001600160a01b0316604483015293516001600160401b03166064820152925160606084850152805160a48501819052849160c48301916020909101905f5b8181106103135750505091815f81819503925af190811561030a57506102fa575b806100c6565b5f610304916103ba565b5f6102f4565b513d5f823e3d90fd5b825160ff168452879450602093840193909201916001016102d3565b5f80fd5b634e487b7160e01b5f52604160045260245ffd5b90506020813d602011610381575b81610362602093836103ba565b8101031261032f57516001600160a01b038116810361032f575f61023a565b3d9150610355565b83513d5f823e3d90fd5b634e487b7160e01b5f52603260045260245ffd5b8463175df00560e11b5f5260045260245ffd5b601f909101601f19168101906001600160401b038211908210176103335760405256fe6101a0604052600436101561001b575b3615610019575f80fd5b005b5f3560e01c8063018ff2e1146128fe57806301ffc9a71461289057806307609cb91461287357806308c62efa14612459578063112375081461242f57806318178358146123d45780631bbb0415146122f257806320e9fcd4146122b857806324481536146122745780632afc40fb1461223057806349f43fec146121895780634d5bf2a81461213a578063512ad898146120ea5780635c5591be1461209a5780635fef1a8a1461204b5780636641ea081461201157806377b8073a14611ff85780637b28aaa31461166157806388bc2ef31461161d5780638a19c8bc146115de578063a50ae7da14611546578063aad9bee2146114d6578063af1cb55014611444578063af29da141461140a578063af5fe6cc146113bd578063be899c8914611362578063c45c9bf6146112b3578063c5a093881461129e578063d6b6150514610f3d578063ee0fc12114610ef9578063f7888aec14610ea9578063f8724f3414610a00578063faeba246146101db5763ff844a630361000f57346101d7575f3660031901126101d757602060405165ffffffffffff7f0000000000000000000000000000000000000000000000000000000000000000168152f35b5f80fd5b60403660031901126101d7576004356024356101f5613233565b815f52600960205260405f20906040519261020f84612af7565b60018060a01b03835416918285526001840154936020860194855260028101549560408101968752600460038301549265ffffffffffff606084019460018060a01b038116865260a01c16608084015201549460a08201958652156109ed5760405163e4ba13c760e01b8152600481018590527f00000000000000000000000000000000000000000000000000000000000000006001600160a01b0316979060c0816024818c5afa80156106b05789915f916109af575b508060206001600160701b0360a09351169160e4604051809581936375e936b760e01b83526001600160701b0381511660048401526001600160701b038682015116602484015265ffffffffffff604082015116604484015261ffff606082015116606484015263ffffffff6080820151166084840152019660018060a01b0388511660a48301528560c48301525afa9081156106b0575f91610979575b61036e9250612bc1565b94808611610962575083516040516370a0823160e01b815230600482015299906020908b9060249082906001600160a01b03165afa998a156106b0575f9a61092e575b5087515f604051936103c285612b12565b5f85525f60208601525f60408601525f60608601526060608086015260018060a01b0381511661eeee81145f14610702575050508634106106eb579160e091888861042695604051968795869485936309c586218a1b855285309260048701613264565b03925af19081156106b0575f916106bb575b509660246104468634612b69565b995b85516040516370a0823160e01b81523060048201529260209184919082906001600160a01b03165afa9182156106b0575f9261067c575b50808211156106735761049191612b69565b925b875180851061065c5750927fbc189f4ade0d6608242d72b35f9deba4ef3738b5640ab82557d214afed984b6194926105d1928a9897958a5160018060a01b038251165f52600860205260405f2060018060a01b0388511660018060a01b03165f5260205261050660405f20918254612bc1565b90558a5160018060a01b038751165f52600760205261052a60405f20918254612bc1565b90558a5181516001600160a01b039081165f9081526005602090815260408083208b519094168352929052208054909161056391612b69565b9055516001600160a01b039081165f908152602081815260408083209451835293815283822094518252938452828120875190921681529083528181208190558881526009909252812081815560018101829055600281018290556003810182905560040155875190612b69565b8061063f575b5051945160408051918252602082019290925233918101919091526001600160a01b0390941693606090a481610613575b602090604051908152f35b5f80808085335af1610623612ea9565b506106085750635d824a5360e01b5f523360045260245260445ffd5b8151610656919033906001600160a01b0316613b60565b886105d7565b84906337e1148760e21b5f5260045260245260445ffd5b50505f92610493565b9091506020813d6020116106a8575b8161069860209383612b48565b810103126101d75751908b61047f565b3d915061068b565b6040513d5f823e3d90fd5b6106dd915060e03d60e0116106e4575b6106d58183612b48565b810190613246565b5089610438565b503d6106cb565b866374a5428f60e01b5f523460045260245260445ffd5b9c939b94919c346109185750516040516370a0823160e01b81523060048201526001600160a01b039091169290602081602481875afa9081156106b0575f916108e6575b506107538a30338761391d565b6040516370a0823160e01b815230600482015290602082602481885afa80156106b0575f906108b2575b6107879250612b69565b89810361089b5750898c61079c8b8287614145565b15610861575b60e0925f8c6107c8604051978896879586946309c586218b1b8652309260048701613264565b03925af19081156106b0575f91610841575b50996107e75f8284614145565b156107f7575b5050602490610448565b6108018183614192565b1561082e575f61081191836141f6565b1561081c57806107ed565b635274afe760e01b5f5260045260245ffd5b50635274afe760e01b5f5260045260245ffd5b61085a915060e03d60e0116106e4576106d58183612b48565b508c6107da565b61086c915084614192565b156108885761087c898d856141f6565b1561088857898c6107a2565b82635274afe760e01b5f5260045260245ffd5b8990638972a92960e01b5f5260045260245260445ffd5b506020823d6020116108de575b816108cc60209383612b48565b810103126101d757610787915161077d565b3d91506108bf565b90506020813d602011610910575b8161090160209383612b48565b810103126101d757518e610746565b3d91506108f4565b631b4a3f8360e11b5f523460045260245260445ffd5b9099506020813d60201161095a575b8161094a60209383612b48565b810103126101d75751988a6103b1565b3d915061093d565b85906374a5428f60e01b5f5260045260245260445ffd5b90506020823d6020116109a7575b8161099460209383612b48565b810103126101d75761036e915190610364565b3d9150610987565b91505060c03d60c0116109e6575b6109c78183612b48565b810160c0828203126101d7576109e060a0918b93612e1a565b906102c6565b503d6109bd565b836338406bf360e01b5f5260045260245ffd5b346101d757610a0e366129d7565b6080959095529193919290610a21613233565b8415610e9657610a3485836080516132f9565b610a4384828785608051613379565b610a97610a707f000000000000000000000000000000000000000000000000000000000000000042612b69565b7f000000000000000000000000000000000000000000000000000000000000000090612b76565b610100525f5b848110610aa657005b610ab9610ab4828785612ee7565b612bce565b60c0525f5f5b878110610bbd575080610ad6575b50600101610a9d565b6080516001600160a01b039081165f81815260046020908152604080832060c05190951680845294825280832080548790039055928252600881528282209382529290925290208054610b2a908390612b69565b905560018060a01b0360c051165f52600760205260405f20610b4d828254612b69565b905560c0516001600160a01b031661eeee03610ba8575f80808084895af1610b73612ea9565b5015610b8457506001905b90610acd565b635d824a5360e01b5f9081526001600160a01b038616600452602491909152604490fd5b90610bb86001928660c051613b60565b610b7e565b9394610bd08589889a959496999a612ee7565b3560a05260018060a01b03608051165f525f60205260405f205f805260205260405f2060a0515f5260205260405f2060018060a01b0360c051165f5260205260405f205480610e5557506080516001600160a01b039081165f818152600160209081526040808320838052825280832060a05180855290835281842060c05190961680855295835281842054948452600683528184208480528352818420908452825280832094835293905291909120805460e052909890978997915b8860e0518a1015610e0257610cab610ca58b8d612ade565b50612ef7565b998a519a5f9b610100518111610db9575b50610cd18c6020830151604084015190613684565b5080610d24575b505060010199159081610d08575b5080610cfc575b15610c8d579960010199610c8d565b5060018b018914610ced565b620186a09150610d1a6002918d612ade565b500154148c610ce6565b8c620186a09b93929b0392620186a08411610da557818f916001956002610d4e87610d5696612ade565b500155612bc1565b9a517f52f3a98beadb93c8d2fc7842b5a39ec751b4f3a4bd7115941576323eb9cc982160405180610d9b60a05195888060a01b036080511695339160c0515f86613bb8565b0390a3908e610cd8565b634e487b7160e01b5f52601160045260245ffd5b610dfb919c50610df6610df17f0000000000000000000000000000000000000000000000000000000000000000926101005190612b69565b612b94565b612b76565b9a8e610cbc565b509850949293986001929750959095828060a01b03608051165f528260205260405f205f805260205260405f2060a0515f5260205260405f20838060a01b0360c051165f5260205260405f205501610abf565b6040516328b04e6f60e21b815260c05160a0516080516001600160a01b03908116600485015260248401919091521660448201526064810191909152608490fd5b84637584d0bf60e01b5f5260045260245ffd5b346101d75760403660031901126101d757610ec261297b565b610eca612a50565b6001600160a01b039182165f908152600860209081526040808320949093168252928352819020549051908152f35b346101d7575f3660031901126101d7576040517f00000000000000000000000000000000000000000000000000000000000000006001600160a01b03168152602090f35b346101d75760203660031901126101d757600435610f59613233565b805f52600960205260405f209060405190610f7382612af7565b82546001600160a01b0390811680845260018501546020850190815260028601546040860190815260038701549384166060870190815260a094851c65ffffffffffff16608088019081526004909801549487019485529195919390921561128b5760405163e4ba13c760e01b81526004810186905260c0816024817f00000000000000000000000000000000000000000000000000000000000000006001600160a01b03165afa9081156106b0575f91611247575b506040015165ffffffffffff16611234575181516001600160a01b039081165f9081526006602090815260408083208a51845282528083208751845282528083208851851684528252808320865185168452600183528184208b51855283528184208851855283528184208951909516845293909152902054975191969165ffffffffffff165b80891061121457505081516001600160a01b039081165f90815260016020908152604080832085518452825280832087518452825280832088518516845282528083209a909a5584518316825260048152898220875190931682529182529790972080547fab44a003a657be36796d71915bc2e40e7f06314c3304bb9ba00f3bfbc610113e936112099390929091611149908a90612b69565b905581516001600160a01b039081165f90815260058b52604080822089519093168252918b5220805461117d908a90612b69565b905581516001600160a01b039081165f908152808b52604080822093518252928b52828120875182528b528281208851831682528b5282812081905588815260098b528281208181556001810182905560028101829055600381018290556004015591519451955181519788526020880189905233918801919091528116959316929081906060820190565b0390a4604051908152f35b909780620186a060026112296001948d612ade565b5001550197906110b0565b846373edcfdd60e01b5f5260045260245ffd5b905060c03d60c011611284575b61125e8183612b48565b810160c0828203126101d75761127d60409165ffffffffffff93612e1a565b9150611029565b503d611254565b846338406bf360e01b5f5260045260245ffd5b6101603660031901126101d757610019612be2565b346101d75760803660031901126101d7576112cc61297b565b604435906001600160a01b03821682036101d7576001600160a01b039081165f90815260036020908152604080832060243584528252808320949093168252928352818120606435825283528190208054600182015460029092015483516001600160d01b03808416825260d093841c968201969096528584169481019490945291901c6060830152909116608082015260a090f35b60603660031901126101d75761137661297b565b61137e612a50565b60443591906001600160a01b03811661eeee81036113a35750610019925034916131c8565b3461091857506113b7610019933383613099565b916131c8565b346101d7576113cb36612aa0565b6001600160a01b039384165f90815260208181526040808320958352948152848220938252928352838120919094168452815291819020549051908152f35b346101d7575f3660031901126101d75760206040517f00000000000000000000000000000000000000000000000000000000000000008152f35b346101d75760603660031901126101d75761145d61297b565b611465612a50565b6044356001600160401b0381116101d7576114849036906004016129a7565b925f9261148f613233565b5f945b8086106114a457602085604051908152f35b909192936114ca6001916114c46114bc89868a612ee7565b3586886136fc565b90612bc1565b95019493929190611492565b346101d75760203660031901126101d757602061153e6115186004357f0000000000000000000000000000000000000000000000000000000000000000612bae565b7f0000000000000000000000000000000000000000000000000000000000000000612bc1565b604051908152f35b346101d75760a03660031901126101d75761155f61297b565b611567612991565b6084359160018060a01b03165f52600660205260405f206024355f5260205260405f206044355f5260205260405f209060018060a01b03165f5260205260405f2080548210156101d7576060916115bd91612ade565b50805490600260018201549101549060405192835260208301526040820152f35b346101d7575f3660031901126101d757602061153e610a707f000000000000000000000000000000000000000000000000000000000000000042612b69565b346101d7575f3660031901126101d7576040517f00000000000000000000000000000000000000000000000000000000000000006001600160a01b03168152602090f35b346101d75760e03660031901126101d75761167a61297b565b6024356001600160401b0381116101d7576116999036906004016129a7565b90916044356001600160401b0381116101d7576116ba9036906004016129a7565b906116c3612991565b60c4356001600160a01b0381169591908690036101d7576116e2613233565b8115611fe55760018203611fd25760018403611fbf577f000000000000000000000000000000000000000000000000000000000000000015611fb0577f00000000000000000000000000000000000000000000000000000000000000006001600160a01b031615611fa1576117588288876132f9565b8315611f8d5761176783612bce565b9061177184612bce565b604051630760c75760e21b81527f00000000000000000000000000000000000000000000000000000000000000006001600160a01b03169291602082600481875afa9182156106b0575f92611f46575b50604051630f85421b60e01b81526001600160a01b039182166004820181905290949092909160209186916024918391165afa9384156106b0575f94611f12575b508315908115611dfc575b50611dea57506040519661012088018881106001600160401b03821117611dd65760409081526001600160a01b03918216808a525f6020808c018281528e358d860190815298861660608e0190815296861660808e015260843560a08e0190815260a43560c08f015260e08e019e909e526101008d01979097529181528082528281209551815294815281852095518552948552808420925190911683529252205480611d91575083516020850151959694956118d395916001600160a01b03166134cb565b805160208083015160408085015160608601516001600160a01b039586165f81815260018752848120868252875284812084825287528481209290971680885291865283872054908752600686528387209487529385528286209186529084528185209085529092529082208054905b818310611d5657505082516001600160a01b039081165f908152600660209081526040808320828801518452825280832081880151845282528083206060880151909416835292905220546119989150614054565b928115611d2b5782516001600160a01b039081165f908152600860209081526040808320606088015190941683529290522080546119d7908490612b69565b905560018060a01b036060840151165f52600760205260405f206119fc838254612b69565b905582516001600160a01b039081165f90815260056020908152604080832060608801519094168352929052208054611a36908490612bc1565b905582516001600160a01b039081165f90815260208181526040808320828801518452825280832081880151845282528083206060880151851684529091528082205f1990556101008601516080870151855160e0808a015160c08b0151955163506ac35b60e11b815260048101959095529287166024850152604484019190915260648301889052908516608483015260a48201929092523060c482015295929091869160e49183917f0000000000000000000000000000000000000000000000000000000000000000165af19384156106b0575f94611d09575b5083158015611cff575b611cec5780516001600160a01b039081165f9081526020818152604080832082860180518552908352818420868301805186529084528285206060880180518816875294529382902089905585519051935192518251929a929560049594918116939216611b8987612af7565b8652602086019384528a86019081526060860192835265ffffffffffff608087019216825260a08601938985528a5f5260096020528b5f209660018060a01b039060018060a01b03905116166bffffffffffffffffffffffff60a01b885416178755516001870155516002860155600385019160018060a01b039060018060a01b03905116166bffffffffffffffffffffffff60a01b8354161782555181549065ffffffffffff60a01b9060a01b169065ffffffffffff60a01b19161790555191015560018060a01b038151167f4d6fd1230d235818f868c8ca1f7476ee41f5bf255db9ae88121bc1441c1b3306610100878401519360018060a01b0360608201511695828201519160018060a01b03608082015116915160c08201519160e060018060a01b0391015116928c51948c865260208601528a8d8601526060850152608084015260a083015260c08201523360e0820152a482519182526020820152f35b83635baaa08960e01b5f5260045260245ffd5b505f198414611b1c565b611d2391945060e03d60e0116106e4576106d58183612b48565b509285611b12565b8251606084015163626bbf2560e01b5f9081526001600160a01b039283166004529116602452604490fd5b909192611d886001916114c4611d6f610ca58887612ade565b611d826040602083015192015182613f23565b90612b69565b93019190611943565b8451604080870151606088015191516328b04e6f60e21b81526001600160a01b0393841660048201526024810191909152911660448201526064810191909152608490fd5b634e487b7160e01b5f52604160045260245ffd5b634bd9bfab60e11b5f5260045260245ffd5b60405163293c499960e01b81529150602090829060049082905afa9081156106b0575f91611ecf575b506040516331a9108f60e11b81526004810185905290602090829060249082906001600160a01b03165afa9081156106b0575f91611e95575b507f00000000000000000000000000000000000000000000000000000000000000006001600160a01b03908116911614158b61180d565b90506020813d602011611ec7575b81611eb060209383612b48565b810103126101d757611ec190612e06565b8b611e5e565b3d9150611ea3565b90506020813d602011611f0a575b81611eea60209383612b48565b810103126101d757516001600160a01b03811681036101d7576020611e25565b3d9150611edd565b9093506020813d602011611f3e575b81611f2e60209383612b48565b810103126101d75751928b611802565b3d9150611f21565b9091506020813d602011611f85575b81611f6260209383612b48565b810103126101d75751926001600160a01b03841684036101d757929060206117c1565b3d9150611f55565b634e487b7160e01b5f52603260045260245ffd5b632ee89a0160e11b5f5260045ffd5b630a36d91f60e01b5f5260045ffd5b8363653b449360e01b5f5260045260245ffd5b5063653b449360e01b5f5260045260245ffd5b50637584d0bf60e01b5f5260045260245ffd5b346101d757602061153e61200b36612a66565b91612f1f565b346101d7575f3660031901126101d75760206040517f00000000000000000000000000000000000000000000000000000000000000008152f35b346101d75761205936612aa0565b6001600160a01b039384165f908152600a60209081526040808320958352948152848220938252928352838120919094168452815291819020549051908152f35b346101d75760403660031901126101d7576120b361297b565b6120bb612a50565b6001600160a01b039182165f908152600460209081526040808320949093168252928352819020549051908152f35b346101d75760403660031901126101d75761210361297b565b61210b612a50565b6001600160a01b039182165f908152600560209081526040808320949093168252928352819020549051908152f35b346101d75761214836612aa0565b6001600160a01b039384165f908152600160209081526040808320958352948152848220938252928352838120919094168452815291819020549051908152f35b346101d75761219736612a66565b6001600160a01b039283165f818152600160209081526040808320838052825280832086845282528083209490961680835293815285822054928252600681528582208280528152858220948252938452848120928152919092529182208054919291905b81841061220e57602083604051908152f35b90916122266001916114c4611d6f610ca58887612ade565b93019291906121fc565b346101d7575f3660031901126101d7576040517f00000000000000000000000000000000000000000000000000000000000000006001600160a01b03168152602090f35b346101d7575f3660031901126101d7576040517f00000000000000000000000000000000000000000000000000000000000000006001600160a01b03168152602090f35b346101d7575f3660031901126101d75760206040517f00000000000000000000000000000000000000000000000000000000000000008152f35b346101d75760203660031901126101d7575f60a060405161231281612af7565b82815282602082015282604082015282606082015282608082015201526004355f52600960205260c060405f2060405161234b81612af7565b65ffffffffffff60018060a01b03835416928383526001810154906020840191825260028101546040850190815260038201549260a060046060880194600180841b03871686528760808a0197841c1687520154960195865260405196875251602087015251604086015260018060a01b039051166060850152511660808301525160a0820152f35b346101d7575f3660031901126101d757612411610a707f000000000000000000000000000000000000000000000000000000000000000042612b69565b61241a81613618565b5060018101809111610da55761001990613618565b346101d75760203660031901126101d7576004355f526002602052602060405f2054604051908152f35b346101d757612467366129d7565b50610120949094529192918161247b613233565b612836576124ac610a707f000000000000000000000000000000000000000000000000000000000000000042612b69565b610180525f5b8381106124bb57005b6124c9610ab4828685612ee7565b610160525f5f5b84811061257f575090816001926124e9575b50016124b2565b828060a01b0361012051165f52600460205260405f20838060a01b0361016051165f5260205260405f2081815403905561252b81610160515f610120516139af565b6040805161016051610180516101205194835233602084015260a087901b8790039182169490939116917f8bbe2f8aeebe4d9f7ca16ec8191e32027be4340e6635c0867c2252e9697463439190a4866124e2565b909194959361258f828287612ee7565b356101405260018060a01b0361012051165f525f60205260405f205f805260205260405f20610140515f5260205260405f2060018060a01b0361016051165f5260205260405f2054806127f25750610120516001600160a01b039081165f81815260016020908152604080832083805282528083206101405180855290835281842061016051909616808552958352818420549484526006835281842084805283528184209084528252808320948352939052919091208054919890978997929690915b88888a101561279d57612669610ca58b8d612ade565b998a519a5f9b61018051811161275e575b5061268f8c6020830151604084015190613684565b50806126e2575b5050600101991590816126c6575b50806126ba575b15612653579960010199612653565b5060018b0189146126ab565b620186a091506126d86002918d612ade565b500154148c6126a4565b8c620186a09b93929b0392620186a08411610da557818f916001956002610d4e8761270c96612ade565b9a517f52f3a98beadb93c8d2fc7842b5a39ec751b4f3a4bd7115941576323eb9cc9821604051806127546101405195888060a01b036101205116953391610160515f86613bb8565b0390a3908e612696565b612796919c50610df6610df17f0000000000000000000000000000000000000000000000000000000000000000926101805190612b69565b9a8e61267a565b5098509550939290976001929650828060a01b0361012051165f528260205260405f205f805260205260405f20610140515f5260205260405f20838060a01b0361016051165f5260205260405f2055016124d0565b6040516328b04e6f60e21b81526101605161014051610120516001600160a01b03908116600485015260248401919091521660448201526064810191909152608490fd5b83826128435f8284612ee7565b5015611f8d57637605c78360e01b5f908152610120516001600160a01b0316600452903560245233604452606490fd5b346101d7575f3660031901126101d7576020604051620186a08152f35b346101d75760203660031901126101d75760043563ffffffff60e01b81168091036101d7576020906388bc2ef360e01b81149081156128ed575b81156128dc575b506040519015158152f35b6301ffc9a760e01b149050826128d1565b6318b4127160e31b811491506128ca565b346101d75760603660031901126101d75761291761297b565b6024356001600160401b0381116101d7576129369036906004016129a7565b906044356001600160401b0381116101d7576129569036906004016129a7565b929091612961613233565b8115611fe557846129768383610019986132f9565b613379565b600435906001600160a01b03821682036101d757565b606435906001600160a01b03821682036101d757565b9181601f840112156101d7578235916001600160401b0383116101d7576020808501948460051b0101116101d757565b9060806003198301126101d7576004356001600160a01b03811681036101d757916024356001600160401b0381116101d75781612a16916004016129a7565b92909291604435906001600160401b0382116101d757612a38916004016129a7565b90916064356001600160a01b03811681036101d75790565b602435906001600160a01b03821682036101d757565b60609060031901126101d7576004356001600160a01b03811681036101d75790602435906044356001600160a01b03811681036101d75790565b60809060031901126101d7576004356001600160a01b03811681036101d7579060243590604435906064356001600160a01b03811681036101d75790565b8054821015611f8d575f52600360205f20910201905f90565b60c081019081106001600160401b03821117611dd657604052565b60a081019081106001600160401b03821117611dd657604052565b606081019081106001600160401b03821117611dd657604052565b90601f801991011681019081106001600160401b03821117611dd657604052565b91908203918211610da557565b8115612b80570490565b634e487b7160e01b5f52601260045260245ffd5b90620186a0820291808304620186a01490151715610da557565b81810292918115918404141715610da557565b91908201809211610da557565b356001600160a01b03811681036101d75790565b604051636e49181f60e01b815260643560048201819052336024830152907f00000000000000000000000000000000000000000000000000000000000000006001600160a01b031690602081604481855afa9081156106b0575f91612db7575b50159081612d34575b50612d1e575060e4356001600160a01b038116908190036101d757600435906001600160a01b03821680831415806101d75761eeee8203612ccc57602435803403612cb6575034612c9d575b50505050565b6101d757612cad925034916131c8565b5f808080612c97565b63c088da4560e01b5f523460045260245260445ffd5b929134612cff57602435938415612cf8576101d757612cef612cf6943384613099565b92506131c8565b565b5050505050565b509050630346813f60e11b5f5260045261eeee6024523460445260645ffd5b632d0085cd60e11b5f526004523360245260445ffd5b6024915060209060405192838092632eec7b5560e11b82528660048301525afa9081156106b0575f91612d75575b506001600160a01b03163314155f612c4b565b90506020813d602011612daf575b81612d9060209383612b48565b810103126101d757516001600160a01b03811681036101d7575f612d62565b3d9150612d83565b90506020813d602011612dea575b81612dd260209383612b48565b810103126101d7575180151581036101d7575f612c42565b3d9150612dc5565b51906001600160701b03821682036101d757565b51906001600160a01b03821682036101d757565b91908260c09103126101d757604051612e3281612af7565b8092612e3d81612df2565b8252612e4b60208201612df2565b6020830152604081015165ffffffffffff811681036101d7576040830152606081015161ffff811681036101d757606083015260808101519063ffffffff821682036101d75760a0612ea4918193608086015201612e06565b910152565b3d15612ee2573d906001600160401b038211611dd65760405191612ed7601f8201601f191660200184612b48565b82523d5f602084013e565b606090565b9190811015611f8d5760051b0190565b90604051612f0481612b2d565b60406002829480548452600181015460208501520154910152565b6001600160a01b039081165f818152602081815260408083208380528252808320868452825280832094871683529390529182205491949390929161309157612f8b610a707f000000000000000000000000000000000000000000000000000000000000000042612b69565b91835f52600160205260405f205f805260205260405f20815f5260205260405f2060018060a01b0383165f5260205260405f2054935f52600660205260405f205f805260205260405f20905f5260205260405f209060018060a01b03165f5260205260405f20908154917f0000000000000000000000000000000000000000000000000000000000000000905b838510613026575050505050565b909192939561306a600191613063613041610ca58b87612ade565b80519087895f93818111613075575b5050506040602082015191015190613684565b5090612bc1565b960193929190613018565b613088939450610df691610df191612b69565b9087895f613050565b505f93505050565b5f5c6001600160a01b0316806131b657506001600160a01b038116905f805c6001600160a01b0319168317905d6040516370a0823160e01b815230600482015292602084602481865afa9384156106b0575f9461317b575b506024946020939261310492309161391d565b6040516370a0823160e01b815230600482015293849182905afa80156106b0575f90613147575b6131359250612b69565b905f805c6001600160a01b031916905d565b506020823d602011613173575b8161316160209383612b48565b810103126101d757613135915161312b565b3d9150613154565b9093506020929192813d6020116131ae575b8161319a60209383612b48565b810103126101d757519290919060246130f1565b3d915061318d565b633eba142360e21b5f5260045260245ffd5b821561322e576131da83835f846139af565b60018060a01b03165f52600860205260405f2060018060a01b0382165f5260205260405f2061320a838254612bc1565b905560018060a01b03165f52600760205261322a60405f20918254612bc1565b9055565b505050565b5f5c6001600160a01b0316806131b65750565b919060e0838203126101d75761326190602084519401612e1a565b90565b936020936080936101609793875285870152604086015260018060a01b0316606085015260a082850152805160a085015260018060a01b03838201511660c085015265ffffffffffff60408201511660e085015265ffffffffffff606082015116610100850152015160a0610120840152805191829182610140860152018484015e5f828201840152601f01601f1916010190565b915f5b8181106133095750505050565b613314818385612ee7565b358060a01c61336757336001600160a01b0390911603613336576001016132fc565b9061334092612ee7565b637605c78360e01b5f9081526001600160a01b039092166004523560245233604452606490fd5b631453fe0160e01b5f5260045260245ffd5b919293906133aa610a707f000000000000000000000000000000000000000000000000000000000000000042612b69565b9081156134c357602092604051926133c28585612b48565b5f84525f3681375f19810190808211610da557613400907f000000000000000000000000000000000000000000000000000000000000000090612bc1565b906040519661340e88612b12565b60018060a01b0316948588525f878901526040880152606087015260808601525f5b818110613441575050505050505050565b61344f610ab482848b612ee7565b5f905f5b8980821061349f575050906001929181613470575b505001613430565b865f526004885260405f2090848060a01b03165f52875261349660405f20918254612bc1565b90555f80613468565b81936114c4846134b56001956134bc958c612ee7565b358d613be8565b9201613453565b505050505050565b929394916134fc610a707f000000000000000000000000000000000000000000000000000000000000000042612b69565b92831561360f576040516020946135138683612b48565b5f82525f3681375f19810190808211610da557613551907f000000000000000000000000000000000000000000000000000000000000000090612bc1565b916040519761355f89612b12565b6001600160a01b0316808952878901969096526040880152606087015260808601525f5b818110613594575050505050505050565b6135a2610ab482848b612ee7565b5f905f5b898082106135f25750509060019291816135c3575b505001613583565b865f526004885260405f2090848060a01b03165f5287526135e960405f20918254612bc1565b90555f806135bb565b81936114c4846134b5600195613608958c612ee7565b92016135a6565b50505050505050565b90815f52600260205260405f20549182156136305750565b435f19810193508311610da5575f81815260026020908152604091829020859055815185815233918101919091527fea119caa7d9406125f99ff1749745794bb422ea2e1cf0f9e1f71ebafc0ba417a9190a2565b5f9391928015806136f0575b6136d357620186a00392620186a08411610da557838181116136b157505050565b6136d0939550611d82916136ca620186a0809386613fb4565b93613fb4565b91565b50909250611d82620186a06136e89383613fb4565b90620186a090565b50620186a08410613690565b6001600160a01b038082165f81815260036020908152604080832083805282528083209487168352938152838220878352905291909120949391926137408661407e565b156138125760018601805496546001600160d01b0390811697168781101561380757916060916137917f06d230aaaae4ffd9233361936dcfc186a0f6305a24e39f734f28e2eef6fea544948a612b69565b81546001600160d01b0319166001600160d01b03909a169990991790556137e788825f6137e1610a707f000000000000000000000000000000000000000000000000000000000000000042612b69565b996139af565b604080516001600160a01b039092168252602082018990523390820152a4565b505f96505050505050565b505f9450505050565b919392909360018060a01b03831690815f52600360205260405f20865f5260205260405f2060018060a01b0382165f5260205260405f20835f5260205260405f206138658161407e565b1561391357600181018054915490976001600160d01b0391821692909116828110156139075782847f06d230aaaae4ffd9233361936dcfc186a0f6305a24e39f734f28e2eef6fea54495936138bf6137e794606097612b69565b9b8c9360018060d01b031665ffffffffffff60d01b8254161790556137e1610a707f000000000000000000000000000000000000000000000000000000000000000042612b69565b505f9750505050505050565b505f955050505050565b6040516323b872dd60e01b5f9081526001600160a01b039384166004529290931660245260449390935260209060648180865af19060015f511482161561398e575b6040525f6060521561396e5750565b635274afe760e01b5f9081526001600160a01b0391909116600452602490fd5b9060018115166139a657823b15153d1516169061395f565b503d5f823e3d90fd5b92918215612c97576139e4610a707f000000000000000000000000000000000000000000000000000000000000000042612b69565b9360018060a01b031691825f52600360205260405f20905f5260205260405f209060018060a01b03165f5260205260405f20835f5260205260405f2092613a2a8161409a565b84546001600160d01b031615613a70575b505082546001600160d01b0392613a5d9250613a58918416612bc1565b614119565b82546001600160d01b0319169116179055565b613ad2613a7e602093613618565b91613aab613a8b84614054565b88546001600160d01b031660d09190911b6001600160d01b031916178855565b6001870180546001600160d01b031660d09290921b6001600160d01b031916919091179055565b602460405180948193632394e7a360e21b835260048301525afa80156106b0575f90613b2c575b613b039150614119565b6002830180546001600160d01b0319166001600160d01b039092169190911790555f8080613a3b565b506020813d602011613b58575b81613b4660209383612b48565b810103126101d757613b039051613af9565b3d9150613b39565b916040519163a9059cbb60e01b5f5260018060a01b031660045260245260205f60448180865af19060015f5114821615613ba0575b6040521561396e5750565b9060018115166139a657823b15153d15161690613b95565b9081526001600160a01b039182166020820152604081019290925260608201929092529116608082015260a00190565b92919260018060a01b038151165f52600a60205260405f2090602081019182515f5260205260405f20835f5260205260405f2060018060a01b0386165f5260205260405f205494606082019586518082116138075760018060a01b038451169085515f935b82811115613d99575050505080965160018101809111610da55783516001600160a01b039081165f908152600a602090815260408083208951845282528083208a8452825280832093871683529290522055156138125760018060a01b038251165f52600660205260405f2083515f5260205260405f20845f5260205260405f2060018060a01b0382165f5260205260405f2090608083019283519360405194613cf686612b2d565b8552602085019189835260408601945f8652805468010000000000000000811015611dd657613d2a91600182018155612ade565b613d865760028b96613d81957f7e1d1c197989bc4a37adcc5fbf4d57709a1097833dea44443e447add83911590995184555160018401555191015560018060a01b0390511695519051604051948594339386613bb8565b0390a3565b634e487b7160e01b5f525f60045260245ffd5b5f84815260036020908152604080832085845282528083206001600160a01b038a1684528252808320848452909152902080546001600160d01b0381169081613de8575b505050600101613c4d565b613df18361407e565b15613e125750505080613e0860019288858861381b565b505b905f80613ddd565b60028301546001600160d01b03169182613e33575b50505050600190613e0a565b8c60a01c613f1057604051630748d63560e31b81526001600160a01b038e16600482015260d09290921c60248301526020826044818b5afa9182156106b0575f92613edd575b508115613e275790613e8b9291613fb4565b9081613e99575b8080613e27565b906001929683613ed59301848060d01b03613ebf613a5885888060d01b03855416612bc1565b82546001600160d01b0319169116179055612bc1565b94905f613e92565b9091506020813d8211613f08575b81613ef860209383612b48565b810103126101d75751905f613e79565b3d9150613eeb565b8c631453fe0160e01b5f5260045260245ffd5b91905f905f198185099080850292838084109303928084039314613fa657620186a0831015613f895750620186a0907f58cd20afa2f05a708ede54b48d3ae685db76b3bb83cf2cf95d4e8fb00bcbe61d94950990828211900360fb1b910360051c170290565b60649186630c740aef60e31b8352600452602452620186a0604452fd5b505050620186a09192500490565b90915f198383099280830292838086109503948086039514614047578285101561402f5790829109600182190182168092046002816003021880820260020302808202600203028082026002030280820260020302808202600203028091026002030293600183805f03040190848311900302920304170290565b630c740aef60e31b5f5260045260245260445260645ffd5b5050906132619250612b76565b65ffffffffffff811161406c5765ffffffffffff1690565b638d4e7c1360e01b5f5260045260245ffd5b6001015460d01c8015159081614092575090565b905042101590565b65ffffffffffff7f0000000000000000000000000000000000000000000000000000000000000000169081156141135760018101809111610da5576132619161410961151861410e937f0000000000000000000000000000000000000000000000000000000000000000612bae565b612bc1565b614054565b50505f90565b6001600160d01b038111614133576001600160d01b031690565b6310e2fc3d60e01b5f5260045260245ffd5b92916040519163095ea7b360e01b5f5260018060a01b031660045260245260205f60448180875af19260015f5114841615614181575b50604052565b3d15903b151516909216915f61417b565b60405163095ea7b360e01b5f9081526001600160a01b03909316600452602483905290929160209060448180875af19260015f51148416156141d45750604052565b600184929415166141ed573b15153d151616915f61417b565b833d5f823e3d90fd5b92916040519163095ea7b360e01b5f5260018060a01b031660045260245260205f60448180875af19260015f51148416156141d4575060405256fea164736f6c634300081c000a",
	"gitCommit": "npm:@bananapus/distributor-v6@0.0.38",
	"gitDirty": false,
	"history": []
}