{
	"format": "sphinx-sol-ct-artifact-1",
	"address": "0x3ffdc94e7f1de4b74c52158ec9dd3b965585f451",
	"sourceName": "node_modules/@bananapus/721-hook-v6/src/JB721TiersHookProjectDeployer.sol",
	"contractName": "JB721TiersHookProjectDeployer",
	"chainId": "0xa4b1",
	"abi": [
		{
			"type": "constructor",
			"inputs": [
				{
					"name": "directory",
					"type": "address",
					"internalType": "contract IJBDirectory"
				},
				{
					"name": "permissions",
					"type": "address",
					"internalType": "contract IJBPermissions"
				},
				{
					"name": "hookDeployer",
					"type": "address",
					"internalType": "contract IJB721TiersHookDeployer"
				},
				{
					"name": "trustedForwarder",
					"type": "address",
					"internalType": "address"
				}
			],
			"stateMutability": "nonpayable"
		},
		{
			"type": "function",
			"name": "DIRECTORY",
			"inputs": [],
			"outputs": [
				{
					"name": "",
					"type": "address",
					"internalType": "contract IJBDirectory"
				}
			],
			"stateMutability": "view"
		},
		{
			"type": "function",
			"name": "HOOK_DEPLOYER",
			"inputs": [],
			"outputs": [
				{
					"name": "",
					"type": "address",
					"internalType": "contract IJB721TiersHookDeployer"
				}
			],
			"stateMutability": "view"
		},
		{
			"type": "function",
			"name": "PERMISSIONS",
			"inputs": [],
			"outputs": [
				{
					"name": "",
					"type": "address",
					"internalType": "contract IJBPermissions"
				}
			],
			"stateMutability": "view"
		},
		{
			"type": "function",
			"name": "isTrustedForwarder",
			"inputs": [
				{
					"name": "forwarder",
					"type": "address",
					"internalType": "address"
				}
			],
			"outputs": [
				{
					"name": "",
					"type": "bool",
					"internalType": "bool"
				}
			],
			"stateMutability": "view"
		},
		{
			"type": "function",
			"name": "launchProjectFor",
			"inputs": [
				{
					"name": "owner",
					"type": "address",
					"internalType": "address"
				},
				{
					"name": "deployTiersHookConfig",
					"type": "tuple",
					"internalType": "struct JBDeploy721TiersHookConfig",
					"components": [
						{
							"name": "name",
							"type": "string",
							"internalType": "string"
						},
						{
							"name": "symbol",
							"type": "string",
							"internalType": "string"
						},
						{
							"name": "baseUri",
							"type": "string",
							"internalType": "string"
						},
						{
							"name": "tokenUriResolver",
							"type": "address",
							"internalType": "contract IJB721TokenUriResolver"
						},
						{
							"name": "contractUri",
							"type": "string",
							"internalType": "string"
						},
						{
							"name": "tiersConfig",
							"type": "tuple",
							"internalType": "struct JB721InitTiersConfig",
							"components": [
								{
									"name": "tiers",
									"type": "tuple[]",
									"internalType": "struct JB721TierConfig[]",
									"components": [
										{
											"name": "price",
											"type": "uint104",
											"internalType": "uint104"
										},
										{
											"name": "initialSupply",
											"type": "uint32",
											"internalType": "uint32"
										},
										{
											"name": "votingUnits",
											"type": "uint32",
											"internalType": "uint32"
										},
										{
											"name": "reserveFrequency",
											"type": "uint16",
											"internalType": "uint16"
										},
										{
											"name": "reserveBeneficiary",
											"type": "address",
											"internalType": "address"
										},
										{
											"name": "encodedIpfsUri",
											"type": "bytes32",
											"internalType": "bytes32"
										},
										{
											"name": "category",
											"type": "uint24",
											"internalType": "uint24"
										},
										{
											"name": "discountPercent",
											"type": "uint8",
											"internalType": "uint8"
										},
										{
											"name": "flags",
											"type": "tuple",
											"internalType": "struct JB721TierConfigFlags",
											"components": [
												{
													"name": "allowOwnerMint",
													"type": "bool",
													"internalType": "bool"
												},
												{
													"name": "useReserveBeneficiaryAsDefault",
													"type": "bool",
													"internalType": "bool"
												},
												{
													"name": "transfersPausable",
													"type": "bool",
													"internalType": "bool"
												},
												{
													"name": "useVotingUnits",
													"type": "bool",
													"internalType": "bool"
												},
												{
													"name": "cantBeRemoved",
													"type": "bool",
													"internalType": "bool"
												},
												{
													"name": "cantIncreaseDiscountPercent",
													"type": "bool",
													"internalType": "bool"
												},
												{
													"name": "cantBuyWithCredits",
													"type": "bool",
													"internalType": "bool"
												}
											]
										},
										{
											"name": "splitPercent",
											"type": "uint32",
											"internalType": "uint32"
										},
										{
											"name": "splits",
											"type": "tuple[]",
											"internalType": "struct JBSplit[]",
											"components": [
												{
													"name": "percent",
													"type": "uint32",
													"internalType": "uint32"
												},
												{
													"name": "projectId",
													"type": "uint64",
													"internalType": "uint64"
												},
												{
													"name": "beneficiary",
													"type": "address",
													"internalType": "address payable"
												},
												{
													"name": "preferAddToBalance",
													"type": "bool",
													"internalType": "bool"
												},
												{
													"name": "lockedUntil",
													"type": "uint48",
													"internalType": "uint48"
												},
												{
													"name": "hook",
													"type": "address",
													"internalType": "contract IJBSplitHook"
												}
											]
										}
									]
								},
								{
									"name": "currency",
									"type": "uint32",
									"internalType": "uint32"
								},
								{
									"name": "decimals",
									"type": "uint8",
									"internalType": "uint8"
								}
							]
						},
						{
							"name": "flags",
							"type": "tuple",
							"internalType": "struct JB721TiersHookFlags",
							"components": [
								{
									"name": "noNewTiersWithReserves",
									"type": "bool",
									"internalType": "bool"
								},
								{
									"name": "noNewTiersWithVotes",
									"type": "bool",
									"internalType": "bool"
								},
								{
									"name": "noNewTiersWithOwnerMinting",
									"type": "bool",
									"internalType": "bool"
								},
								{
									"name": "preventOverspending",
									"type": "bool",
									"internalType": "bool"
								},
								{
									"name": "issueTokensForSplits",
									"type": "bool",
									"internalType": "bool"
								}
							]
						}
					]
				},
				{
					"name": "launchProjectConfig",
					"type": "tuple",
					"internalType": "struct JBLaunchProjectConfig",
					"components": [
						{
							"name": "projectUri",
							"type": "string",
							"internalType": "string"
						},
						{
							"name": "rulesetConfigurations",
							"type": "tuple[]",
							"internalType": "struct JBPayDataHookRulesetConfig[]",
							"components": [
								{
									"name": "mustStartAtOrAfter",
									"type": "uint48",
									"internalType": "uint48"
								},
								{
									"name": "duration",
									"type": "uint32",
									"internalType": "uint32"
								},
								{
									"name": "weight",
									"type": "uint112",
									"internalType": "uint112"
								},
								{
									"name": "weightCutPercent",
									"type": "uint32",
									"internalType": "uint32"
								},
								{
									"name": "approvalHook",
									"type": "address",
									"internalType": "contract IJBRulesetApprovalHook"
								},
								{
									"name": "metadata",
									"type": "tuple",
									"internalType": "struct JBPayDataHookRulesetMetadata",
									"components": [
										{
											"name": "reservedPercent",
											"type": "uint16",
											"internalType": "uint16"
										},
										{
											"name": "cashOutTaxRate",
											"type": "uint16",
											"internalType": "uint16"
										},
										{
											"name": "baseCurrency",
											"type": "uint32",
											"internalType": "uint32"
										},
										{
											"name": "pausePay",
											"type": "bool",
											"internalType": "bool"
										},
										{
											"name": "pauseCreditTransfers",
											"type": "bool",
											"internalType": "bool"
										},
										{
											"name": "allowOwnerMinting",
											"type": "bool",
											"internalType": "bool"
										},
										{
											"name": "allowSetCustomToken",
											"type": "bool",
											"internalType": "bool"
										},
										{
											"name": "allowTerminalMigration",
											"type": "bool",
											"internalType": "bool"
										},
										{
											"name": "allowSetTerminals",
											"type": "bool",
											"internalType": "bool"
										},
										{
											"name": "allowSetController",
											"type": "bool",
											"internalType": "bool"
										},
										{
											"name": "allowAddAccountingContext",
											"type": "bool",
											"internalType": "bool"
										},
										{
											"name": "allowAddPriceFeed",
											"type": "bool",
											"internalType": "bool"
										},
										{
											"name": "ownerMustSendPayouts",
											"type": "bool",
											"internalType": "bool"
										},
										{
											"name": "holdFees",
											"type": "bool",
											"internalType": "bool"
										},
										{
											"name": "scopeCashOutsToLocalBalances",
											"type": "bool",
											"internalType": "bool"
										},
										{
											"name": "useDataHookForCashOut",
											"type": "bool",
											"internalType": "bool"
										},
										{
											"name": "metadata",
											"type": "uint16",
											"internalType": "uint16"
										}
									]
								},
								{
									"name": "splitGroups",
									"type": "tuple[]",
									"internalType": "struct JBSplitGroup[]",
									"components": [
										{
											"name": "groupId",
											"type": "uint256",
											"internalType": "uint256"
										},
										{
											"name": "splits",
											"type": "tuple[]",
											"internalType": "struct JBSplit[]",
											"components": [
												{
													"name": "percent",
													"type": "uint32",
													"internalType": "uint32"
												},
												{
													"name": "projectId",
													"type": "uint64",
													"internalType": "uint64"
												},
												{
													"name": "beneficiary",
													"type": "address",
													"internalType": "address payable"
												},
												{
													"name": "preferAddToBalance",
													"type": "bool",
													"internalType": "bool"
												},
												{
													"name": "lockedUntil",
													"type": "uint48",
													"internalType": "uint48"
												},
												{
													"name": "hook",
													"type": "address",
													"internalType": "contract IJBSplitHook"
												}
											]
										}
									]
								},
								{
									"name": "fundAccessLimitGroups",
									"type": "tuple[]",
									"internalType": "struct JBFundAccessLimitGroup[]",
									"components": [
										{
											"name": "terminal",
											"type": "address",
											"internalType": "address"
										},
										{
											"name": "token",
											"type": "address",
											"internalType": "address"
										},
										{
											"name": "payoutLimits",
											"type": "tuple[]",
											"internalType": "struct JBCurrencyAmount[]",
											"components": [
												{
													"name": "amount",
													"type": "uint224",
													"internalType": "uint224"
												},
												{
													"name": "currency",
													"type": "uint32",
													"internalType": "uint32"
												}
											]
										},
										{
											"name": "surplusAllowances",
											"type": "tuple[]",
											"internalType": "struct JBCurrencyAmount[]",
											"components": [
												{
													"name": "amount",
													"type": "uint224",
													"internalType": "uint224"
												},
												{
													"name": "currency",
													"type": "uint32",
													"internalType": "uint32"
												}
											]
										}
									]
								}
							]
						},
						{
							"name": "terminalConfigurations",
							"type": "tuple[]",
							"internalType": "struct JBTerminalConfig[]",
							"components": [
								{
									"name": "terminal",
									"type": "address",
									"internalType": "contract IJBTerminal"
								},
								{
									"name": "accountingContextsToAccept",
									"type": "tuple[]",
									"internalType": "struct JBAccountingContext[]",
									"components": [
										{
											"name": "token",
											"type": "address",
											"internalType": "address"
										},
										{
											"name": "decimals",
											"type": "uint8",
											"internalType": "uint8"
										},
										{
											"name": "currency",
											"type": "uint32",
											"internalType": "uint32"
										}
									]
								}
							]
						},
						{
							"name": "memo",
							"type": "string",
							"internalType": "string"
						}
					]
				},
				{
					"name": "controller",
					"type": "address",
					"internalType": "contract IJBController"
				},
				{
					"name": "salt",
					"type": "bytes32",
					"internalType": "bytes32"
				}
			],
			"outputs": [
				{
					"name": "projectId",
					"type": "uint256",
					"internalType": "uint256"
				},
				{
					"name": "hook",
					"type": "address",
					"internalType": "contract IJB721TiersHook"
				}
			],
			"stateMutability": "payable"
		},
		{
			"type": "function",
			"name": "launchRulesetsFor",
			"inputs": [
				{
					"name": "projectId",
					"type": "uint256",
					"internalType": "uint256"
				},
				{
					"name": "deployTiersHookConfig",
					"type": "tuple",
					"internalType": "struct JBDeploy721TiersHookConfig",
					"components": [
						{
							"name": "name",
							"type": "string",
							"internalType": "string"
						},
						{
							"name": "symbol",
							"type": "string",
							"internalType": "string"
						},
						{
							"name": "baseUri",
							"type": "string",
							"internalType": "string"
						},
						{
							"name": "tokenUriResolver",
							"type": "address",
							"internalType": "contract IJB721TokenUriResolver"
						},
						{
							"name": "contractUri",
							"type": "string",
							"internalType": "string"
						},
						{
							"name": "tiersConfig",
							"type": "tuple",
							"internalType": "struct JB721InitTiersConfig",
							"components": [
								{
									"name": "tiers",
									"type": "tuple[]",
									"internalType": "struct JB721TierConfig[]",
									"components": [
										{
											"name": "price",
											"type": "uint104",
											"internalType": "uint104"
										},
										{
											"name": "initialSupply",
											"type": "uint32",
											"internalType": "uint32"
										},
										{
											"name": "votingUnits",
											"type": "uint32",
											"internalType": "uint32"
										},
										{
											"name": "reserveFrequency",
											"type": "uint16",
											"internalType": "uint16"
										},
										{
											"name": "reserveBeneficiary",
											"type": "address",
											"internalType": "address"
										},
										{
											"name": "encodedIpfsUri",
											"type": "bytes32",
											"internalType": "bytes32"
										},
										{
											"name": "category",
											"type": "uint24",
											"internalType": "uint24"
										},
										{
											"name": "discountPercent",
											"type": "uint8",
											"internalType": "uint8"
										},
										{
											"name": "flags",
											"type": "tuple",
											"internalType": "struct JB721TierConfigFlags",
											"components": [
												{
													"name": "allowOwnerMint",
													"type": "bool",
													"internalType": "bool"
												},
												{
													"name": "useReserveBeneficiaryAsDefault",
													"type": "bool",
													"internalType": "bool"
												},
												{
													"name": "transfersPausable",
													"type": "bool",
													"internalType": "bool"
												},
												{
													"name": "useVotingUnits",
													"type": "bool",
													"internalType": "bool"
												},
												{
													"name": "cantBeRemoved",
													"type": "bool",
													"internalType": "bool"
												},
												{
													"name": "cantIncreaseDiscountPercent",
													"type": "bool",
													"internalType": "bool"
												},
												{
													"name": "cantBuyWithCredits",
													"type": "bool",
													"internalType": "bool"
												}
											]
										},
										{
											"name": "splitPercent",
											"type": "uint32",
											"internalType": "uint32"
										},
										{
											"name": "splits",
											"type": "tuple[]",
											"internalType": "struct JBSplit[]",
											"components": [
												{
													"name": "percent",
													"type": "uint32",
													"internalType": "uint32"
												},
												{
													"name": "projectId",
													"type": "uint64",
													"internalType": "uint64"
												},
												{
													"name": "beneficiary",
													"type": "address",
													"internalType": "address payable"
												},
												{
													"name": "preferAddToBalance",
													"type": "bool",
													"internalType": "bool"
												},
												{
													"name": "lockedUntil",
													"type": "uint48",
													"internalType": "uint48"
												},
												{
													"name": "hook",
													"type": "address",
													"internalType": "contract IJBSplitHook"
												}
											]
										}
									]
								},
								{
									"name": "currency",
									"type": "uint32",
									"internalType": "uint32"
								},
								{
									"name": "decimals",
									"type": "uint8",
									"internalType": "uint8"
								}
							]
						},
						{
							"name": "flags",
							"type": "tuple",
							"internalType": "struct JB721TiersHookFlags",
							"components": [
								{
									"name": "noNewTiersWithReserves",
									"type": "bool",
									"internalType": "bool"
								},
								{
									"name": "noNewTiersWithVotes",
									"type": "bool",
									"internalType": "bool"
								},
								{
									"name": "noNewTiersWithOwnerMinting",
									"type": "bool",
									"internalType": "bool"
								},
								{
									"name": "preventOverspending",
									"type": "bool",
									"internalType": "bool"
								},
								{
									"name": "issueTokensForSplits",
									"type": "bool",
									"internalType": "bool"
								}
							]
						}
					]
				},
				{
					"name": "launchRulesetsConfig",
					"type": "tuple",
					"internalType": "struct JBLaunchRulesetsConfig",
					"components": [
						{
							"name": "projectId",
							"type": "uint64",
							"internalType": "uint64"
						},
						{
							"name": "rulesetConfigurations",
							"type": "tuple[]",
							"internalType": "struct JBPayDataHookRulesetConfig[]",
							"components": [
								{
									"name": "mustStartAtOrAfter",
									"type": "uint48",
									"internalType": "uint48"
								},
								{
									"name": "duration",
									"type": "uint32",
									"internalType": "uint32"
								},
								{
									"name": "weight",
									"type": "uint112",
									"internalType": "uint112"
								},
								{
									"name": "weightCutPercent",
									"type": "uint32",
									"internalType": "uint32"
								},
								{
									"name": "approvalHook",
									"type": "address",
									"internalType": "contract IJBRulesetApprovalHook"
								},
								{
									"name": "metadata",
									"type": "tuple",
									"internalType": "struct JBPayDataHookRulesetMetadata",
									"components": [
										{
											"name": "reservedPercent",
											"type": "uint16",
											"internalType": "uint16"
										},
										{
											"name": "cashOutTaxRate",
											"type": "uint16",
											"internalType": "uint16"
										},
										{
											"name": "baseCurrency",
											"type": "uint32",
											"internalType": "uint32"
										},
										{
											"name": "pausePay",
											"type": "bool",
											"internalType": "bool"
										},
										{
											"name": "pauseCreditTransfers",
											"type": "bool",
											"internalType": "bool"
										},
										{
											"name": "allowOwnerMinting",
											"type": "bool",
											"internalType": "bool"
										},
										{
											"name": "allowSetCustomToken",
											"type": "bool",
											"internalType": "bool"
										},
										{
											"name": "allowTerminalMigration",
											"type": "bool",
											"internalType": "bool"
										},
										{
											"name": "allowSetTerminals",
											"type": "bool",
											"internalType": "bool"
										},
										{
											"name": "allowSetController",
											"type": "bool",
											"internalType": "bool"
										},
										{
											"name": "allowAddAccountingContext",
											"type": "bool",
											"internalType": "bool"
										},
										{
											"name": "allowAddPriceFeed",
											"type": "bool",
											"internalType": "bool"
										},
										{
											"name": "ownerMustSendPayouts",
											"type": "bool",
											"internalType": "bool"
										},
										{
											"name": "holdFees",
											"type": "bool",
											"internalType": "bool"
										},
										{
											"name": "scopeCashOutsToLocalBalances",
											"type": "bool",
											"internalType": "bool"
										},
										{
											"name": "useDataHookForCashOut",
											"type": "bool",
											"internalType": "bool"
										},
										{
											"name": "metadata",
											"type": "uint16",
											"internalType": "uint16"
										}
									]
								},
								{
									"name": "splitGroups",
									"type": "tuple[]",
									"internalType": "struct JBSplitGroup[]",
									"components": [
										{
											"name": "groupId",
											"type": "uint256",
											"internalType": "uint256"
										},
										{
											"name": "splits",
											"type": "tuple[]",
											"internalType": "struct JBSplit[]",
											"components": [
												{
													"name": "percent",
													"type": "uint32",
													"internalType": "uint32"
												},
												{
													"name": "projectId",
													"type": "uint64",
													"internalType": "uint64"
												},
												{
													"name": "beneficiary",
													"type": "address",
													"internalType": "address payable"
												},
												{
													"name": "preferAddToBalance",
													"type": "bool",
													"internalType": "bool"
												},
												{
													"name": "lockedUntil",
													"type": "uint48",
													"internalType": "uint48"
												},
												{
													"name": "hook",
													"type": "address",
													"internalType": "contract IJBSplitHook"
												}
											]
										}
									]
								},
								{
									"name": "fundAccessLimitGroups",
									"type": "tuple[]",
									"internalType": "struct JBFundAccessLimitGroup[]",
									"components": [
										{
											"name": "terminal",
											"type": "address",
											"internalType": "address"
										},
										{
											"name": "token",
											"type": "address",
											"internalType": "address"
										},
										{
											"name": "payoutLimits",
											"type": "tuple[]",
											"internalType": "struct JBCurrencyAmount[]",
											"components": [
												{
													"name": "amount",
													"type": "uint224",
													"internalType": "uint224"
												},
												{
													"name": "currency",
													"type": "uint32",
													"internalType": "uint32"
												}
											]
										},
										{
											"name": "surplusAllowances",
											"type": "tuple[]",
											"internalType": "struct JBCurrencyAmount[]",
											"components": [
												{
													"name": "amount",
													"type": "uint224",
													"internalType": "uint224"
												},
												{
													"name": "currency",
													"type": "uint32",
													"internalType": "uint32"
												}
											]
										}
									]
								}
							]
						},
						{
							"name": "terminalConfigurations",
							"type": "tuple[]",
							"internalType": "struct JBTerminalConfig[]",
							"components": [
								{
									"name": "terminal",
									"type": "address",
									"internalType": "contract IJBTerminal"
								},
								{
									"name": "accountingContextsToAccept",
									"type": "tuple[]",
									"internalType": "struct JBAccountingContext[]",
									"components": [
										{
											"name": "token",
											"type": "address",
											"internalType": "address"
										},
										{
											"name": "decimals",
											"type": "uint8",
											"internalType": "uint8"
										},
										{
											"name": "currency",
											"type": "uint32",
											"internalType": "uint32"
										}
									]
								}
							]
						},
						{
							"name": "memo",
							"type": "string",
							"internalType": "string"
						}
					]
				},
				{
					"name": "projectUri",
					"type": "string",
					"internalType": "string"
				},
				{
					"name": "controller",
					"type": "address",
					"internalType": "contract IJBController"
				},
				{
					"name": "salt",
					"type": "bytes32",
					"internalType": "bytes32"
				}
			],
			"outputs": [
				{
					"name": "rulesetId",
					"type": "uint256",
					"internalType": "uint256"
				},
				{
					"name": "hook",
					"type": "address",
					"internalType": "contract IJB721TiersHook"
				}
			],
			"stateMutability": "nonpayable"
		},
		{
			"type": "function",
			"name": "onERC721Received",
			"inputs": [
				{
					"name": "",
					"type": "address",
					"internalType": "address"
				},
				{
					"name": "from",
					"type": "address",
					"internalType": "address"
				},
				{
					"name": "",
					"type": "uint256",
					"internalType": "uint256"
				},
				{
					"name": "",
					"type": "bytes",
					"internalType": "bytes"
				}
			],
			"outputs": [
				{
					"name": "",
					"type": "bytes4",
					"internalType": "bytes4"
				}
			],
			"stateMutability": "view"
		},
		{
			"type": "function",
			"name": "originalPayer",
			"inputs": [],
			"outputs": [
				{
					"name": "",
					"type": "address",
					"internalType": "address"
				}
			],
			"stateMutability": "view"
		},
		{
			"type": "function",
			"name": "queueRulesetsOf",
			"inputs": [
				{
					"name": "projectId",
					"type": "uint256",
					"internalType": "uint256"
				},
				{
					"name": "deployTiersHookConfig",
					"type": "tuple",
					"internalType": "struct JBDeploy721TiersHookConfig",
					"components": [
						{
							"name": "name",
							"type": "string",
							"internalType": "string"
						},
						{
							"name": "symbol",
							"type": "string",
							"internalType": "string"
						},
						{
							"name": "baseUri",
							"type": "string",
							"internalType": "string"
						},
						{
							"name": "tokenUriResolver",
							"type": "address",
							"internalType": "contract IJB721TokenUriResolver"
						},
						{
							"name": "contractUri",
							"type": "string",
							"internalType": "string"
						},
						{
							"name": "tiersConfig",
							"type": "tuple",
							"internalType": "struct JB721InitTiersConfig",
							"components": [
								{
									"name": "tiers",
									"type": "tuple[]",
									"internalType": "struct JB721TierConfig[]",
									"components": [
										{
											"name": "price",
											"type": "uint104",
											"internalType": "uint104"
										},
										{
											"name": "initialSupply",
											"type": "uint32",
											"internalType": "uint32"
										},
										{
											"name": "votingUnits",
											"type": "uint32",
											"internalType": "uint32"
										},
										{
											"name": "reserveFrequency",
											"type": "uint16",
											"internalType": "uint16"
										},
										{
											"name": "reserveBeneficiary",
											"type": "address",
											"internalType": "address"
										},
										{
											"name": "encodedIpfsUri",
											"type": "bytes32",
											"internalType": "bytes32"
										},
										{
											"name": "category",
											"type": "uint24",
											"internalType": "uint24"
										},
										{
											"name": "discountPercent",
											"type": "uint8",
											"internalType": "uint8"
										},
										{
											"name": "flags",
											"type": "tuple",
											"internalType": "struct JB721TierConfigFlags",
											"components": [
												{
													"name": "allowOwnerMint",
													"type": "bool",
													"internalType": "bool"
												},
												{
													"name": "useReserveBeneficiaryAsDefault",
													"type": "bool",
													"internalType": "bool"
												},
												{
													"name": "transfersPausable",
													"type": "bool",
													"internalType": "bool"
												},
												{
													"name": "useVotingUnits",
													"type": "bool",
													"internalType": "bool"
												},
												{
													"name": "cantBeRemoved",
													"type": "bool",
													"internalType": "bool"
												},
												{
													"name": "cantIncreaseDiscountPercent",
													"type": "bool",
													"internalType": "bool"
												},
												{
													"name": "cantBuyWithCredits",
													"type": "bool",
													"internalType": "bool"
												}
											]
										},
										{
											"name": "splitPercent",
											"type": "uint32",
											"internalType": "uint32"
										},
										{
											"name": "splits",
											"type": "tuple[]",
											"internalType": "struct JBSplit[]",
											"components": [
												{
													"name": "percent",
													"type": "uint32",
													"internalType": "uint32"
												},
												{
													"name": "projectId",
													"type": "uint64",
													"internalType": "uint64"
												},
												{
													"name": "beneficiary",
													"type": "address",
													"internalType": "address payable"
												},
												{
													"name": "preferAddToBalance",
													"type": "bool",
													"internalType": "bool"
												},
												{
													"name": "lockedUntil",
													"type": "uint48",
													"internalType": "uint48"
												},
												{
													"name": "hook",
													"type": "address",
													"internalType": "contract IJBSplitHook"
												}
											]
										}
									]
								},
								{
									"name": "currency",
									"type": "uint32",
									"internalType": "uint32"
								},
								{
									"name": "decimals",
									"type": "uint8",
									"internalType": "uint8"
								}
							]
						},
						{
							"name": "flags",
							"type": "tuple",
							"internalType": "struct JB721TiersHookFlags",
							"components": [
								{
									"name": "noNewTiersWithReserves",
									"type": "bool",
									"internalType": "bool"
								},
								{
									"name": "noNewTiersWithVotes",
									"type": "bool",
									"internalType": "bool"
								},
								{
									"name": "noNewTiersWithOwnerMinting",
									"type": "bool",
									"internalType": "bool"
								},
								{
									"name": "preventOverspending",
									"type": "bool",
									"internalType": "bool"
								},
								{
									"name": "issueTokensForSplits",
									"type": "bool",
									"internalType": "bool"
								}
							]
						}
					]
				},
				{
					"name": "queueRulesetsConfig",
					"type": "tuple",
					"internalType": "struct JBQueueRulesetsConfig",
					"components": [
						{
							"name": "projectId",
							"type": "uint64",
							"internalType": "uint64"
						},
						{
							"name": "rulesetConfigurations",
							"type": "tuple[]",
							"internalType": "struct JBPayDataHookRulesetConfig[]",
							"components": [
								{
									"name": "mustStartAtOrAfter",
									"type": "uint48",
									"internalType": "uint48"
								},
								{
									"name": "duration",
									"type": "uint32",
									"internalType": "uint32"
								},
								{
									"name": "weight",
									"type": "uint112",
									"internalType": "uint112"
								},
								{
									"name": "weightCutPercent",
									"type": "uint32",
									"internalType": "uint32"
								},
								{
									"name": "approvalHook",
									"type": "address",
									"internalType": "contract IJBRulesetApprovalHook"
								},
								{
									"name": "metadata",
									"type": "tuple",
									"internalType": "struct JBPayDataHookRulesetMetadata",
									"components": [
										{
											"name": "reservedPercent",
											"type": "uint16",
											"internalType": "uint16"
										},
										{
											"name": "cashOutTaxRate",
											"type": "uint16",
											"internalType": "uint16"
										},
										{
											"name": "baseCurrency",
											"type": "uint32",
											"internalType": "uint32"
										},
										{
											"name": "pausePay",
											"type": "bool",
											"internalType": "bool"
										},
										{
											"name": "pauseCreditTransfers",
											"type": "bool",
											"internalType": "bool"
										},
										{
											"name": "allowOwnerMinting",
											"type": "bool",
											"internalType": "bool"
										},
										{
											"name": "allowSetCustomToken",
											"type": "bool",
											"internalType": "bool"
										},
										{
											"name": "allowTerminalMigration",
											"type": "bool",
											"internalType": "bool"
										},
										{
											"name": "allowSetTerminals",
											"type": "bool",
											"internalType": "bool"
										},
										{
											"name": "allowSetController",
											"type": "bool",
											"internalType": "bool"
										},
										{
											"name": "allowAddAccountingContext",
											"type": "bool",
											"internalType": "bool"
										},
										{
											"name": "allowAddPriceFeed",
											"type": "bool",
											"internalType": "bool"
										},
										{
											"name": "ownerMustSendPayouts",
											"type": "bool",
											"internalType": "bool"
										},
										{
											"name": "holdFees",
											"type": "bool",
											"internalType": "bool"
										},
										{
											"name": "scopeCashOutsToLocalBalances",
											"type": "bool",
											"internalType": "bool"
										},
										{
											"name": "useDataHookForCashOut",
											"type": "bool",
											"internalType": "bool"
										},
										{
											"name": "metadata",
											"type": "uint16",
											"internalType": "uint16"
										}
									]
								},
								{
									"name": "splitGroups",
									"type": "tuple[]",
									"internalType": "struct JBSplitGroup[]",
									"components": [
										{
											"name": "groupId",
											"type": "uint256",
											"internalType": "uint256"
										},
										{
											"name": "splits",
											"type": "tuple[]",
											"internalType": "struct JBSplit[]",
											"components": [
												{
													"name": "percent",
													"type": "uint32",
													"internalType": "uint32"
												},
												{
													"name": "projectId",
													"type": "uint64",
													"internalType": "uint64"
												},
												{
													"name": "beneficiary",
													"type": "address",
													"internalType": "address payable"
												},
												{
													"name": "preferAddToBalance",
													"type": "bool",
													"internalType": "bool"
												},
												{
													"name": "lockedUntil",
													"type": "uint48",
													"internalType": "uint48"
												},
												{
													"name": "hook",
													"type": "address",
													"internalType": "contract IJBSplitHook"
												}
											]
										}
									]
								},
								{
									"name": "fundAccessLimitGroups",
									"type": "tuple[]",
									"internalType": "struct JBFundAccessLimitGroup[]",
									"components": [
										{
											"name": "terminal",
											"type": "address",
											"internalType": "address"
										},
										{
											"name": "token",
											"type": "address",
											"internalType": "address"
										},
										{
											"name": "payoutLimits",
											"type": "tuple[]",
											"internalType": "struct JBCurrencyAmount[]",
											"components": [
												{
													"name": "amount",
													"type": "uint224",
													"internalType": "uint224"
												},
												{
													"name": "currency",
													"type": "uint32",
													"internalType": "uint32"
												}
											]
										},
										{
											"name": "surplusAllowances",
											"type": "tuple[]",
											"internalType": "struct JBCurrencyAmount[]",
											"components": [
												{
													"name": "amount",
													"type": "uint224",
													"internalType": "uint224"
												},
												{
													"name": "currency",
													"type": "uint32",
													"internalType": "uint32"
												}
											]
										}
									]
								}
							]
						},
						{
							"name": "memo",
							"type": "string",
							"internalType": "string"
						}
					]
				},
				{
					"name": "controller",
					"type": "address",
					"internalType": "contract IJBController"
				},
				{
					"name": "salt",
					"type": "bytes32",
					"internalType": "bytes32"
				}
			],
			"outputs": [
				{
					"name": "rulesetId",
					"type": "uint256",
					"internalType": "uint256"
				},
				{
					"name": "hook",
					"type": "address",
					"internalType": "contract IJB721TiersHook"
				}
			],
			"stateMutability": "nonpayable"
		},
		{
			"type": "function",
			"name": "trustedForwarder",
			"inputs": [],
			"outputs": [
				{
					"name": "",
					"type": "address",
					"internalType": "address"
				}
			],
			"stateMutability": "view"
		},
		{
			"type": "error",
			"name": "JBPermissioned_Unauthorized",
			"inputs": [
				{
					"name": "account",
					"type": "address",
					"internalType": "address"
				},
				{
					"name": "sender",
					"type": "address",
					"internalType": "address"
				},
				{
					"name": "projectId",
					"type": "uint256",
					"internalType": "uint256"
				},
				{
					"name": "permissionId",
					"type": "uint256",
					"internalType": "uint256"
				}
			]
		}
	],
	"args": [
		"0x5AfF29060E023e6FB87BE5596652B33c65Af535B",
		"0xf92AC1aB5A00033E35a3975739124F61928C36B0",
		"0xb7B8EC35e2dd84afff04Ee769C6189e7A4d44A78",
		"0x3bA60b60933916a7C87D0860DcEE62a0CE34E3e2"
	],
	"solcInputHash": "4972bc01cb9117095bab5c7e918a6bb6",
	"bytecode": "0x610100604052348015610010575f5ffd5b5060405161330438038061330483398101604081905261002f91610069565b6001600160a01b0390811660805291821660a05291811660c0521660e0526100c5565b6001600160a01b0381168114610066575f5ffd5b50565b5f5f5f5f6080858703121561007c575f5ffd5b845161008781610052565b602086015190945061009881610052565b60408601519093506100a981610052565b60608601519092506100ba81610052565b939692955090935050565b60805160a05160c05160e0516131c661013e5f395f8181610213015281816104830152818161073a01526109e201525f81816101e00152818161029d015281816103630152818161060901526108e601525f81816102780152610b9201525f818161015d015281816101ab015261162a01526131c65ff3fe60806040526004361061008f575f3560e01c806388bc2ef31161005757806388bc2ef3146101cf578063abf8c5c814610202578063c04ae38f14610235578063c96c065414610248578063f434c91414610267575f5ffd5b8063150b7a0214610093578063296eee51146100d0578063334d3b1614610105578063572b6c05146101415780637da0a8771461019d575b5f5ffd5b34801561009e575f5ffd5b506100b26100ad3660046117c3565b61029a565b6040516001600160e01b031990911681526020015b60405180910390f35b3480156100db575f5ffd5b506100ed6001600160a01b035f5c1681565b6040516001600160a01b0390911681526020016100c7565b348015610110575f5ffd5b5061012461011f366004611857565b61035e565b604080519283526001600160a01b039091166020830152016100c7565b34801561014c575f5ffd5b5061018d61015b36600461190f565b7f00000000000000000000000000000000000000000000000000000000000000006001600160a01b0390811691161490565b60405190151581526020016100c7565b3480156101a8575f5ffd5b507f00000000000000000000000000000000000000000000000000000000000000006100ed565b3480156101da575f5ffd5b506100ed7f000000000000000000000000000000000000000000000000000000000000000081565b34801561020d575f5ffd5b506100ed7f000000000000000000000000000000000000000000000000000000000000000081565b610124610243366004611931565b610604565b348015610253575f5ffd5b506101246102623660046119bf565b6108df565b348015610272575f5ffd5b506100ed7f000000000000000000000000000000000000000000000000000000000000000081565b5f7f00000000000000000000000000000000000000000000000000000000000000006001600160a01b031663293c49996040518163ffffffff1660e01b8152600401602060405180830381865afa1580156102f7573d5f5f3e3d5ffd5b505050506040513d601f19601f8201168201806040525081019061031b9190611a37565b6001600160a01b0316336001600160a01b031614158061034357506001600160a01b03851615155b1561034c575f5ffd5b50630a85bd0160e11b95945050505050565b5f5f5f7f00000000000000000000000000000000000000000000000000000000000000006001600160a01b031663293c49996040518163ffffffff1660e01b8152600401602060405180830381865afa1580156103bd573d5f5f3e3d5ffd5b505050506040513d601f19601f820116820180604052508101906103e19190611a37565b6040516331a9108f60e11b8152600481018c90529091505f906001600160a01b03831690636352211e90602401602060405180830381865afa158015610429573d5f5f3e3d5ffd5b505050506040513d601f19601f8201168201806040525081019061044d9190611a37565b905061045b818c6003610b27565b610467818c600f610b27565b861561047957610479818c6007610b27565b6001600160a01b037f000000000000000000000000000000000000000000000000000000000000000016636f6947868c8c88156104ef576104b8610c46565b604080516001600160a01b03909216602083015281018a9052606001604051602081830303815290604052805190602001206104f1565b5f5b6040518463ffffffff1660e01b815260040161050f93929190611f5e565b6020604051808303815f875af115801561052b573d5f5f3e3d5ffd5b505050506040513d601f19601f8201168201806040525081019061054f9190611a37565b6040516351106b4b60e11b8152600481018d90529093506001600160a01b0384169063a220d696906024015f604051808303815f87803b158015610591575f5ffd5b505af11580156105a3573d5f5f3e3d5ffd5b505050506105f48b8a6105b59061298c565b8a8a8080601f0160208091040260200160405190810160405280939291908181526020018383808284375f920191909152508992508c9150610c549050565b9350505097509795505050505050565b5f5f5f7f00000000000000000000000000000000000000000000000000000000000000006001600160a01b031663293c49996040518163ffffffff1660e01b8152600401602060405180830381865afa158015610663573d5f5f3e3d5ffd5b505050506040513d601f19601f820116820180604052508101906106879190611a37565b9050610699610694610c46565b610f4d565b5f805c6001600160a01b0319166001600160a01b03831617905d5060405163180e2b1160e31b81523060048201526001600160a01b0382169063c071588890349060240160206040518083038185885af11580156106f9573d5f5f3e3d5ffd5b50505050506040513d601f19601f8201168201806040525081019061071e9190612a33565b92505f6001600160a01b0319815c16815d506001600160a01b037f000000000000000000000000000000000000000000000000000000000000000016636f694786848987156107a65761076f610c46565b604080516001600160a01b0390921660208301528101899052606001604051602081830303815290604052805190602001206107a8565b5f5b6040518463ffffffff1660e01b81526004016107c693929190611f5e565b6020604051808303815f875af11580156107e2573d5f5f3e3d5ffd5b505050506040513d601f19601f820116820180604052508101906108069190611a37565b915061081c8361081588612a4a565b8488611039565b6040516351106b4b60e11b8152600481018490526001600160a01b0383169063a220d696906024015f604051808303815f87803b15801561085b575f5ffd5b505af115801561086d573d5f5f3e3d5ffd5b5050604051632142170760e11b81523060048201526001600160a01b038b8116602483015260448201879052841692506342842e0e91506064015f604051808303815f87803b1580156108be575f5ffd5b505af11580156108d0573d5f5f3e3d5ffd5b50505050509550959350505050565b5f5f6109d87f00000000000000000000000000000000000000000000000000000000000000006001600160a01b031663293c49996040518163ffffffff1660e01b8152600401602060405180830381865afa158015610940573d5f5f3e3d5ffd5b505050506040513d601f19601f820116820180604052508101906109649190611a37565b6001600160a01b0316636352211e896040518263ffffffff1660e01b815260040161099191815260200190565b602060405180830381865afa1580156109ac573d5f5f3e3d5ffd5b505050506040513d601f19601f820116820180604052508101906109d09190611a37565b886002610b27565b6001600160a01b037f000000000000000000000000000000000000000000000000000000000000000016636f69478688888615610a4e57610a17610c46565b604080516001600160a01b039092166020830152810188905260600160405160208183030381529060405280519060200120610a50565b5f5b6040518463ffffffff1660e01b8152600401610a6e93929190611f5e565b6020604051808303815f875af1158015610a8a573d5f5f3e3d5ffd5b505050506040513d601f19601f82011682018060405250810190610aae9190611a37565b6040516351106b4b60e11b8152600481018990529091506001600160a01b0382169063a220d696906024015f604051808303815f87803b158015610af0575f5ffd5b505af1158015610b02573d5f5f3e3d5ffd5b50505050610b1b8786610b1490612a9e565b838761132b565b91509550959350505050565b5f610b30610c46565b9050836001600160a01b0316816001600160a01b031614158015610bfd5750604051631a45b42760e11b81526001600160a01b0382811660048301528581166024830152604482018590526064820184905260016084830181905260a48301527f0000000000000000000000000000000000000000000000000000000000000000169063348b684e9060c401602060405180830381865afa158015610bd7573d5f5f3e3d5ffd5b505050506040513d601f19601f82011682018060405250810190610bfb9190612b1b565b155b15610c4057604051631326f75560e11b81526001600160a01b03808616600483015282166024820152604481018490526064810183905260840160405180910390fd5b50505050565b5f610c4f611619565b905090565b5f5f8560200151516001600160401b03811115610c7357610c7361206a565b604051908082528060200260200182016040528015610cac57816020015b610c99611683565b815260200190600190039081610c915790505b5090505f5b866020015151811015610ec3575f87602001518281518110610cd557610cd5612b36565b60200260200101519050604051806101000160405280825f015165ffffffffffff168152602001826020015163ffffffff16815260200182604001516001600160701b03168152602001826060015163ffffffff16815260200182608001516001600160a01b031681526020016040518061026001604052808460a001515f015161ffff1681526020018460a001516020015161ffff1681526020018460a001516040015163ffffffff1681526020018460a0015160600151151581526020018460a0015160800151151581526020018460a0015160a00151151581526020018460a0015160c00151151581526020018460a0015160e00151151581526020018460a001516101000151151581526020018460a001516101200151151581526020018460a001516101400151151581526020018460a001516101600151151581526020018460a001516101800151151581526020018460a001516101a00151151581526020018460a001516101c00151151581526020016001151581526020018460a001516101e0015115158152602001896001600160a01b031681526020018460a00151610200015161ffff1681525081526020018260c0015181526020018260e00151815250838381518110610eaf57610eaf612b36565b602090810291909101015250600101610cb1565b50604080870151606088015191516307128b6b60e31b81525f926001600160a01b038716926338945b5892610f01928d928c92899290600401612fee565b6020604051808303815f875af1158015610f1d573d5f5f3e3d5ffd5b505050506040513d601f19601f82011682018060405250810190610f419190612a33565b98975050505050505050565b5f816001600160a01b03163b5f03610f63575090565b60408051600481526024810182526020810180516001600160e01b031663296eee5160e01b17905290515f9182916001600160a01b03861691610fa591613105565b5f60405180830381855afa9150503d805f8114610fdd576040519150601f19603f3d011682016040523d82523d5f602084013e610fe2565b606091505b5091509150811580610ff5575060208151105b1561100257509192915050565b5f818060200190518101906110179190611a37565b90506001600160a01b0381161561102e5780611030565b845b95945050505050565b5f8360200151516001600160401b038111156110575761105761206a565b60405190808252806020026020018201604052801561109057816020015b61107d611683565b8152602001906001900390816110755790505b5090505f5b8460200151518110156112a7575f856020015182815181106110b9576110b9612b36565b60200260200101519050604051806101000160405280825f015165ffffffffffff168152602001826020015163ffffffff16815260200182604001516001600160701b03168152602001826060015163ffffffff16815260200182608001516001600160a01b031681526020016040518061026001604052808460a001515f015161ffff1681526020018460a001516020015161ffff1681526020018460a001516040015163ffffffff1681526020018460a0015160600151151581526020018460a0015160800151151581526020018460a0015160a00151151581526020018460a0015160c00151151581526020018460a0015160e00151151581526020018460a001516101000151151581526020018460a001516101200151151581526020018460a001516101400151151581526020018460a001516101600151151581526020018460a001516101800151151581526020018460a001516101a00151151581526020018460a001516101c00151151581526020016001151581526020018460a001516101e0015115158152602001886001600160a01b031681526020018460a00151610200015161ffff1681525081526020018260c0015181526020018260e0015181525083838151811061129357611293612b36565b602090810291909101015250600101611095565b508351604080860151606087015191516307128b6b60e31b81526001600160a01b038616936338945b58936112e3938b93889290600401612fee565b6020604051808303815f875af11580156112ff573d5f5f3e3d5ffd5b505050506040513d601f19601f820116820180604052508101906113239190612a33565b505050505050565b5f5f8460200151516001600160401b0381111561134a5761134a61206a565b60405190808252806020026020018201604052801561138357816020015b611370611683565b8152602001906001900390816113685790505b5090505f5b85602001515181101561159a575f866020015182815181106113ac576113ac612b36565b60200260200101519050604051806101000160405280825f015165ffffffffffff168152602001826020015163ffffffff16815260200182604001516001600160701b03168152602001826060015163ffffffff16815260200182608001516001600160a01b031681526020016040518061026001604052808460a001515f015161ffff1681526020018460a001516020015161ffff1681526020018460a001516040015163ffffffff1681526020018460a0015160600151151581526020018460a0015160800151151581526020018460a0015160a00151151581526020018460a0015160c00151151581526020018460a0015160e00151151581526020018460a001516101000151151581526020018460a001516101200151151581526020018460a001516101400151151581526020018460a001516101600151151581526020018460a001516101800151151581526020018460a001516101a00151151581526020018460a001516101c00151151581526020016001151581526020018460a001516101e0015115158152602001896001600160a01b031681526020018460a00151610200015161ffff1681525081526020018260c0015181526020018260e0015181525083838151811061158657611586612b36565b602090810291909101015250600101611388565b5060408086015190516303141db760e41b81526001600160a01b03851691633141db70916115cf918a9186919060040161311b565b6020604051808303815f875af11580156115eb573d5f5f3e3d5ffd5b505050506040513d601f19601f8201168201806040525081019061160f9190612a33565b9695505050505050565b5f36601480821080159061165557507f00000000000000000000000000000000000000000000000000000000000000006001600160a01b031633145b1561167b5761166836828403815f613145565b6116719161316c565b60601c9250505090565b339250505090565b6040805161010080820183525f808352602080840182905283850182905260608085018390526080808601849052865161026081018852848152928301849052958201839052810182905293840181905260a084810182905260c0850182905260e0850182905291840181905261012084018190526101408401819052610160840181905261018084018190526101a084018190526101c084018190526101e0840181905261020084018190526102208401819052610240840152909190820190815260200160608152602001606081525090565b6001600160a01b038116811461176c575f5ffd5b50565b803561177a81611758565b919050565b5f5f83601f84011261178f575f5ffd5b5081356001600160401b038111156117a5575f5ffd5b6020830191508360208285010111156117bc575f5ffd5b9250929050565b5f5f5f5f5f608086880312156117d7575f5ffd5b85356117e281611758565b945060208601356117f281611758565b93506040860135925060608601356001600160401b03811115611813575f5ffd5b61181f8882890161177f565b969995985093965092949392505050565b5f6101608284031215611841575f5ffd5b50919050565b5f60808284031215611841575f5ffd5b5f5f5f5f5f5f5f60c0888a03121561186d575f5ffd5b8735965060208801356001600160401b03811115611889575f5ffd5b6118958a828b01611830565b96505060408801356001600160401b038111156118b0575f5ffd5b6118bc8a828b01611847565b95505060608801356001600160401b038111156118d7575f5ffd5b6118e38a828b0161177f565b90955093505060808801356118f781611758565b96999598509396929591949193505060a09091013590565b5f6020828403121561191f575f5ffd5b813561192a81611758565b9392505050565b5f5f5f5f5f60a08688031215611945575f5ffd5b853561195081611758565b945060208601356001600160401b0381111561196a575f5ffd5b61197688828901611830565b94505060408601356001600160401b03811115611991575f5ffd5b61199d88828901611847565b93505060608601356119ae81611758565b949793965091946080013592915050565b5f5f5f5f5f60a086880312156119d3575f5ffd5b8535945060208601356001600160401b038111156119ef575f5ffd5b6119fb88828901611830565b94505060408601356001600160401b03811115611a16575f5ffd5b860160608189031215611a27575f5ffd5b925060608601356119ae81611758565b5f60208284031215611a47575f5ffd5b815161192a81611758565b5f5f8335601e19843603018112611a67575f5ffd5b83016020810192503590506001600160401b03811115611a85575f5ffd5b8036038213156117bc575f5ffd5b81835281816020850137505f828201602090810191909152601f909101601f19169091010190565b5f8235605e19833603018112611acf575f5ffd5b90910192915050565b80356cffffffffffffffffffffffffff8116811461177a575f5ffd5b803563ffffffff8116811461177a575f5ffd5b803561ffff8116811461177a575f5ffd5b803562ffffff8116811461177a575f5ffd5b803560ff8116811461177a575f5ffd5b801515811461176c575f5ffd5b803561177a81611b3a565b8035611b5d81611b3a565b151582526020810135611b6f81611b3a565b151560208301526040810135611b8481611b3a565b15156040830152611b9760608201611b47565b15156060830152611baa60808201611b47565b15156080830152611bbd60a08201611b47565b151560a0830152611bd060c08201611b47565b80151560c0840152505050565b505050565b5f5f8335601e19843603018112611bf7575f5ffd5b83016020810192503590506001600160401b03811115611c15575f5ffd5b60c0810236038213156117bc575f5ffd5b80356001600160401b038116811461177a575f5ffd5b803565ffffffffffff8116811461177a575f5ffd5b8183526020830192505f815f5b84811015611d085763ffffffff611c7483611af4565b1686526001600160401b03611c8b60208401611c26565b1660208701526040820135611c9f81611758565b6001600160a01b031660408701526060820135611cbb81611b3a565b1515606087015265ffffffffffff611cd560808401611c3c565b166080870152611ce760a0830161176f565b6001600160a01b031660a087015260c0958601959190910190600101611c5e565b5093949350505050565b5f606083018235601e19843603018112611d2a575f5ffd5b83018035602082016001600160401b03821115611d45575f5ffd5b8160051b803603821315611d57575f5ffd5b606088529382905260809387018401935f90880161023e1936869003015b84831015611ebb57898703607f190182528335818112611d93575f5ffd5b860160208101611db989611da683611ad8565b6cffffffffffffffffffffffffff169052565b611dc560408301611af4565b63ffffffff1660208a0152611ddc60608301611af4565b63ffffffff1660408a0152611df360808301611b07565b61ffff1660608a0152611e0860a0830161176f565b6001600160a01b031660808a015260c082013560a08a0152611e2c60e08301611b18565b62ffffff1660c08a0152611e436101008301611b2a565b60ff1660e08a0152611e5d6101008a016101208401611b52565b611e6a6102008301611af4565b63ffffffff166101e08a0152611e84610220830182611be2565b925090506102206102008a0152611ea06102208a018383611c51565b98505050602084019350602082019150600183019250611d75565b505050505050611ecd60208401611af4565b63ffffffff166020850152611ee460408401611b2a565b60ff81166040860152509392505050565b8035611f0081611b3a565b151582526020810135611f1281611b3a565b151560208301526040810135611f2781611b3a565b151560408301526060810135611f3c81611b3a565b151560608301526080810135611f5181611b3a565b8015156080840152505050565b838152606060208201525f611f738485611a52565b6101606060850152611f8a6101c085018284611a93565b915050611f9a6020860186611a52565b848303605f19016080860152611fb1838284611a93565b92505050611fc26040860186611a52565b848303605f190160a0860152611fd9838284611a93565b925050506060850135611feb81611758565b6001600160a01b031660c08401526120066080860186611a52565b848303605f190160e086015261201d838284611a93565b9250505061202e60a0860186611abb565b838203605f19016101008501526120458282611d12565b915050612059610120840160c08701611ef5565b604092909201929092529392505050565b634e487b7160e01b5f52604160045260245ffd5b60405161022081016001600160401b03811182821017156120a1576120a161206a565b60405290565b604080519081016001600160401b03811182821017156120a1576120a161206a565b60405160c081016001600160401b03811182821017156120a1576120a161206a565b604051608081016001600160401b03811182821017156120a1576120a161206a565b60405161010081016001600160401b03811182821017156120a1576120a161206a565b604051606081016001600160401b03811182821017156120a1576120a161206a565b604051601f8201601f191681016001600160401b038111828210171561217a5761217a61206a565b604052919050565b5f6001600160401b0382111561219a5761219a61206a565b5060051b60200190565b80356001600160701b038116811461177a575f5ffd5b5f61022082840312156121cb575f5ffd5b6121d361207e565b90506121de82611b07565b81526121ec60208301611b07565b60208201526121fd60408301611af4565b604082015261220e60608301611b47565b606082015261221f60808301611b47565b608082015261223060a08301611b47565b60a082015261224160c08301611b47565b60c082015261225260e08301611b47565b60e08201526122646101008301611b47565b6101008201526122776101208301611b47565b61012082015261228a6101408301611b47565b61014082015261229d6101608301611b47565b6101608201526122b06101808301611b47565b6101808201526122c36101a08301611b47565b6101a08201526122d66101c08301611b47565b6101c08201526122e96101e08301611b47565b6101e08201526122fc6102008301611b07565b61020082015292915050565b5f82601f830112612317575f5ffd5b813561232a61232582612182565b612152565b8082825260208201915060208360051b86010192508583111561234b575f5ffd5b602085015b838110156124ae5780356001600160401b0381111561236d575f5ffd5b86016040818903601f19011215612382575f5ffd5b61238a6120a7565b6020820135815260408201356001600160401b038111156123a9575f5ffd5b60208184010192505088601f8301126123c0575f5ffd5b81356123ce61232582612182565b80828252602082019150602060c0840286010192508b8311156123ef575f5ffd5b6020850194505b8285101561248f5760c0858d03121561240d575f5ffd5b6124156120c9565b61241e86611af4565b815261242c60208701611c26565b6020820152604086013561243f81611758565b6040820152606086013561245281611b3a565b606082015261246360808701611c3c565b608082015260a086013561247681611758565b60a0820152825260c094909401936020909101906123f6565b8060208501525050508085525050602083019250602081019050612350565b5095945050505050565b5f82601f8301126124c7575f5ffd5b81356124d561232582612182565b8082825260208201915060208360061b8601019250858311156124f6575f5ffd5b602085015b838110156124ae5760408188031215612512575f5ffd5b61251a6120a7565b81356001600160e01b0381168114612530575f5ffd5b815261253e60208301611af4565b6020820152808452506020830192506040810190506124fb565b5f82601f830112612567575f5ffd5b813561257561232582612182565b8082825260208201915060208360051b860101925085831115612596575f5ffd5b602085015b838110156124ae5780356001600160401b038111156125b8575f5ffd5b86016080818903601f190112156125cd575f5ffd5b6125d56120eb565b60208201356125e381611758565b815260408201356125f381611758565b602082015260608201356001600160401b03811115612610575f5ffd5b61261f8a6020838601016124b8565b60408301525060808201356001600160401b0381111561263d575f5ffd5b61264c8a6020838601016124b8565b6060830152508452506020928301920161259b565b5f82601f830112612670575f5ffd5b813561267e61232582612182565b8082825260208201915060208360051b86010192508583111561269f575f5ffd5b602085015b838110156124ae5780356001600160401b038111156126c1575f5ffd5b8601610300818903601f190112156126d7575f5ffd5b6126df61210d565b6126eb60208301611c3c565b81526126f960408301611af4565b602082015261270a606083016121a4565b604082015261271b60808301611af4565b606082015261272c60a0830161176f565b608082015261273e8960c084016121ba565b60a08201526102e08201356001600160401b0381111561275c575f5ffd5b61276b8a602083860101612308565b60c0830152506103008201356001600160401b0381111561278a575f5ffd5b6127998a602083860101612558565b60e083015250845250602092830192016126a4565b5f82601f8301126127bd575f5ffd5b81356127cb61232582612182565b8082825260208201915060208360051b8601019250858311156127ec575f5ffd5b602085015b838110156124ae5780356001600160401b0381111561280e575f5ffd5b86016040818903601f19011215612823575f5ffd5b61282b6120a7565b602082013561283981611758565b815260408201356001600160401b03811115612853575f5ffd5b60208184010192505088601f83011261286a575f5ffd5b813561287861232582612182565b8082825260208201915060206060840286010192508b831115612899575f5ffd5b6020850194505b82851015612902576060858d0312156128b7575f5ffd5b6128bf612130565b85356128ca81611758565b81526128d860208701611b2a565b60208201526128e960408701611af4565b60408201528252606094909401936020909101906128a0565b80602085015250505080855250506020830192506020810190506127f1565b5f82601f830112612930575f5ffd5b81356001600160401b038111156129495761294961206a565b61295c601f8201601f1916602001612152565b818152846020838601011115612970575f5ffd5b816020850160208301375f918101602001919091529392505050565b5f6080823603121561299c575f5ffd5b6129a46120eb565b6129ad83611c26565b815260208301356001600160401b038111156129c7575f5ffd5b6129d336828601612661565b60208301525060408301356001600160401b038111156129f1575f5ffd5b6129fd368286016127ae565b60408301525060608301356001600160401b03811115612a1b575f5ffd5b612a2736828601612921565b60608301525092915050565b5f60208284031215612a43575f5ffd5b5051919050565b5f60808236031215612a5a575f5ffd5b612a626120eb565b82356001600160401b03811115612a77575f5ffd5b612a8336828601612921565b82525060208301356001600160401b038111156129c7575f5ffd5b5f60608236031215612aae575f5ffd5b612ab6612130565b612abf83611c26565b815260208301356001600160401b03811115612ad9575f5ffd5b612ae536828601612661565b60208301525060408301356001600160401b03811115612b03575f5ffd5b612b0f36828601612921565b60408301525092915050565b5f60208284031215612b2b575f5ffd5b815161192a81611b3a565b634e487b7160e01b5f52603260045260245ffd5b5f81518084528060208401602086015e5f602082860101526020601f19601f83011685010191505092915050565b805161ffff1682526020810151612b95602084018261ffff169052565b506040810151612bad604084018263ffffffff169052565b506060810151612bc1606084018215159052565b506080810151612bd5608084018215159052565b5060a0810151612be960a084018215159052565b5060c0810151612bfd60c084018215159052565b5060e0810151612c1160e084018215159052565b50610100810151612c2761010084018215159052565b50610120810151612c3d61012084018215159052565b50610140810151612c5361014084018215159052565b50610160810151612c6961016084018215159052565b50610180810151612c7f61018084018215159052565b506101a0810151612c956101a084018215159052565b506101c0810151612cab6101c084018215159052565b506101e0810151612cc16101e084018215159052565b50610200810151612cd761020084018215159052565b50610220810151612cf46102208401826001600160a01b03169052565b50610240810151611bdd61024084018261ffff169052565b5f82825180855260208501945060208160051b830101602085015f5b83811015612dfa57848303601f19018852815180518452602090810151604082860181905281519086018190529101905f9060608601905b80831015612de157835163ffffffff81511683526001600160401b03602082015116602084015260018060a01b03604082015116604084015260608101511515606084015265ffffffffffff608082015116608084015260018060a01b0360a08201511660a08401525060c082019150602084019350600183019250612d60565b5060209a8b019a90955093909301925050600101612d28565b50909695505050505050565b5f8151808452602084019350602083015f5b82811015611d0857815180516001600160e01b0316875260209081015163ffffffff168188015260409096019590910190600101612e18565b5f82825180855260208501945060208160051b830101602085015f5b83811015612dfa57848303601f19018852815180516001600160a01b03908116855260208083015190911690850152604080820151608091860182905290612eb790860182612e06565b9050606082015191508481036060860152612ed28183612e06565b60209a8b019a90955093909301925050600101612e6d565b5f82825180855260208501945060208160051b830101602085015f5b83811015612dfa57848303601f190188528151805165ffffffffffff1684526020810151612f3c602086018263ffffffff169052565b506040810151612f5760408601826001600160701b03169052565b506060810151612f6f606086018263ffffffff169052565b506080810151612f8a60808601826001600160a01b03169052565b5060a0810151612f9d60a0860182612b78565b5060c0810151610340610300860152612fba610340860182612d0c565b905060e08201519150848103610320860152612fd68183612e51565b60209a8b019a90955093909301925050600101612f06565b85815260a060208201525f61300660a0830187612b4a565b82810360408401526130188187612eea565b9050828103606084015280855180835260208301915060208160051b840101602088015f5b838110156130e257858303601f19018552815180516001600160a01b03168452602090810151604082860181905281519086018190529101905f9060608601905b808310156130c957835160018060a01b03815116835260ff602082015116602084015263ffffffff60408201511660408401525060608201915060208401935060018301925061307e565b506020978801979095509390930192505060010161303d565b505085810360808701526130f68188612b4a565b9b9a5050505050505050505050565b5f82518060208501845e5f920191825250919050565b838152606060208201525f6131336060830185612eea565b828103604084015261160f8185612b4a565b5f5f85851115613153575f5ffd5b8386111561315f575f5ffd5b5050820193919092039150565b80356bffffffffffffffffffffffff1981169060148410156131b2576bffffffffffffffffffffffff196bffffffffffffffffffffffff198560140360031b1b82161691505b509291505056fea164736f6c634300081c000a",
	"gitCommit": "npm:@bananapus/721-hook-v6@1.0.1",
	"gitDirty": false,
	"history": []
}