{
	"format": "sphinx-sol-ct-artifact-1",
	"address": "0x5aff29060e023e6fb87be5596652b33c65af535b",
	"sourceName": "node_modules/@bananapus/core-v6/src/JBDirectory.sol",
	"contractName": "JBDirectory",
	"chainId": "0xa4b1",
	"abi": [
		{
			"type": "constructor",
			"inputs": [
				{
					"name": "permissions",
					"type": "address",
					"internalType": "contract IJBPermissions"
				},
				{
					"name": "projects",
					"type": "address",
					"internalType": "contract IJBProjects"
				},
				{
					"name": "owner",
					"type": "address",
					"internalType": "address"
				}
			],
			"stateMutability": "nonpayable"
		},
		{
			"type": "function",
			"name": "PERMISSIONS",
			"inputs": [],
			"outputs": [
				{
					"name": "",
					"type": "address",
					"internalType": "contract IJBPermissions"
				}
			],
			"stateMutability": "view"
		},
		{
			"type": "function",
			"name": "PROJECTS",
			"inputs": [],
			"outputs": [
				{
					"name": "",
					"type": "address",
					"internalType": "contract IJBProjects"
				}
			],
			"stateMutability": "view"
		},
		{
			"type": "function",
			"name": "controllerOf",
			"inputs": [
				{
					"name": "projectId",
					"type": "uint256",
					"internalType": "uint256"
				}
			],
			"outputs": [
				{
					"name": "",
					"type": "address",
					"internalType": "contract IERC165"
				}
			],
			"stateMutability": "view"
		},
		{
			"type": "function",
			"name": "isAllowedToSetFirstController",
			"inputs": [
				{
					"name": "addr",
					"type": "address",
					"internalType": "address"
				}
			],
			"outputs": [
				{
					"name": "",
					"type": "bool",
					"internalType": "bool"
				}
			],
			"stateMutability": "view"
		},
		{
			"type": "function",
			"name": "isTerminalOf",
			"inputs": [
				{
					"name": "projectId",
					"type": "uint256",
					"internalType": "uint256"
				},
				{
					"name": "terminal",
					"type": "address",
					"internalType": "contract IJBTerminal"
				}
			],
			"outputs": [
				{
					"name": "",
					"type": "bool",
					"internalType": "bool"
				}
			],
			"stateMutability": "view"
		},
		{
			"type": "function",
			"name": "owner",
			"inputs": [],
			"outputs": [
				{
					"name": "",
					"type": "address",
					"internalType": "address"
				}
			],
			"stateMutability": "view"
		},
		{
			"type": "function",
			"name": "primaryTerminalOf",
			"inputs": [
				{
					"name": "projectId",
					"type": "uint256",
					"internalType": "uint256"
				},
				{
					"name": "token",
					"type": "address",
					"internalType": "address"
				}
			],
			"outputs": [
				{
					"name": "",
					"type": "address",
					"internalType": "contract IJBTerminal"
				}
			],
			"stateMutability": "view"
		},
		{
			"type": "function",
			"name": "renounceOwnership",
			"inputs": [],
			"outputs": [],
			"stateMutability": "nonpayable"
		},
		{
			"type": "function",
			"name": "setControllerOf",
			"inputs": [
				{
					"name": "projectId",
					"type": "uint256",
					"internalType": "uint256"
				},
				{
					"name": "controller",
					"type": "address",
					"internalType": "contract IERC165"
				}
			],
			"outputs": [],
			"stateMutability": "nonpayable"
		},
		{
			"type": "function",
			"name": "setIsAllowedToSetFirstController",
			"inputs": [
				{
					"name": "addr",
					"type": "address",
					"internalType": "address"
				},
				{
					"name": "flag",
					"type": "bool",
					"internalType": "bool"
				}
			],
			"outputs": [],
			"stateMutability": "nonpayable"
		},
		{
			"type": "function",
			"name": "setPrimaryTerminalOf",
			"inputs": [
				{
					"name": "projectId",
					"type": "uint256",
					"internalType": "uint256"
				},
				{
					"name": "token",
					"type": "address",
					"internalType": "address"
				},
				{
					"name": "terminal",
					"type": "address",
					"internalType": "contract IJBTerminal"
				}
			],
			"outputs": [],
			"stateMutability": "nonpayable"
		},
		{
			"type": "function",
			"name": "setTerminalsOf",
			"inputs": [
				{
					"name": "projectId",
					"type": "uint256",
					"internalType": "uint256"
				},
				{
					"name": "terminals",
					"type": "address[]",
					"internalType": "contract IJBTerminal[]"
				}
			],
			"outputs": [],
			"stateMutability": "nonpayable"
		},
		{
			"type": "function",
			"name": "terminalsOf",
			"inputs": [
				{
					"name": "projectId",
					"type": "uint256",
					"internalType": "uint256"
				}
			],
			"outputs": [
				{
					"name": "",
					"type": "address[]",
					"internalType": "contract IJBTerminal[]"
				}
			],
			"stateMutability": "view"
		},
		{
			"type": "function",
			"name": "transferOwnership",
			"inputs": [
				{
					"name": "newOwner",
					"type": "address",
					"internalType": "address"
				}
			],
			"outputs": [],
			"stateMutability": "nonpayable"
		},
		{
			"type": "event",
			"name": "AddTerminal",
			"inputs": [
				{
					"name": "projectId",
					"type": "uint256",
					"indexed": true,
					"internalType": "uint256"
				},
				{
					"name": "terminal",
					"type": "address",
					"indexed": true,
					"internalType": "contract IJBTerminal"
				},
				{
					"name": "caller",
					"type": "address",
					"indexed": false,
					"internalType": "address"
				}
			],
			"anonymous": false
		},
		{
			"type": "event",
			"name": "OwnershipTransferred",
			"inputs": [
				{
					"name": "previousOwner",
					"type": "address",
					"indexed": true,
					"internalType": "address"
				},
				{
					"name": "newOwner",
					"type": "address",
					"indexed": true,
					"internalType": "address"
				}
			],
			"anonymous": false
		},
		{
			"type": "event",
			"name": "SetController",
			"inputs": [
				{
					"name": "projectId",
					"type": "uint256",
					"indexed": true,
					"internalType": "uint256"
				},
				{
					"name": "controller",
					"type": "address",
					"indexed": true,
					"internalType": "contract IERC165"
				},
				{
					"name": "caller",
					"type": "address",
					"indexed": false,
					"internalType": "address"
				}
			],
			"anonymous": false
		},
		{
			"type": "event",
			"name": "SetIsAllowedToSetFirstController",
			"inputs": [
				{
					"name": "addr",
					"type": "address",
					"indexed": true,
					"internalType": "address"
				},
				{
					"name": "isAllowed",
					"type": "bool",
					"indexed": true,
					"internalType": "bool"
				},
				{
					"name": "caller",
					"type": "address",
					"indexed": false,
					"internalType": "address"
				}
			],
			"anonymous": false
		},
		{
			"type": "event",
			"name": "SetPrimaryTerminal",
			"inputs": [
				{
					"name": "projectId",
					"type": "uint256",
					"indexed": true,
					"internalType": "uint256"
				},
				{
					"name": "token",
					"type": "address",
					"indexed": true,
					"internalType": "address"
				},
				{
					"name": "terminal",
					"type": "address",
					"indexed": true,
					"internalType": "contract IJBTerminal"
				},
				{
					"name": "caller",
					"type": "address",
					"indexed": false,
					"internalType": "address"
				}
			],
			"anonymous": false
		},
		{
			"type": "event",
			"name": "SetTerminals",
			"inputs": [
				{
					"name": "projectId",
					"type": "uint256",
					"indexed": true,
					"internalType": "uint256"
				},
				{
					"name": "terminals",
					"type": "address[]",
					"indexed": false,
					"internalType": "contract IJBTerminal[]"
				},
				{
					"name": "caller",
					"type": "address",
					"indexed": false,
					"internalType": "address"
				}
			],
			"anonymous": false
		},
		{
			"type": "error",
			"name": "JBDirectory_DuplicateTerminals",
			"inputs": [
				{
					"name": "terminal",
					"type": "address",
					"internalType": "contract IJBTerminal"
				}
			]
		},
		{
			"type": "error",
			"name": "JBDirectory_InvalidProjectIdInDirectory",
			"inputs": [
				{
					"name": "projectId",
					"type": "uint256",
					"internalType": "uint256"
				},
				{
					"name": "limit",
					"type": "uint256",
					"internalType": "uint256"
				}
			]
		},
		{
			"type": "error",
			"name": "JBDirectory_SetControllerNotAllowed",
			"inputs": [
				{
					"name": "projectId",
					"type": "uint256",
					"internalType": "uint256"
				}
			]
		},
		{
			"type": "error",
			"name": "JBDirectory_SetTerminalsNotAllowed",
			"inputs": [
				{
					"name": "projectId",
					"type": "uint256",
					"internalType": "uint256"
				}
			]
		},
		{
			"type": "error",
			"name": "JBDirectory_TokenNotAccepted",
			"inputs": [
				{
					"name": "projectId",
					"type": "uint256",
					"internalType": "uint256"
				},
				{
					"name": "token",
					"type": "address",
					"internalType": "address"
				},
				{
					"name": "terminal",
					"type": "address",
					"internalType": "contract IJBTerminal"
				}
			]
		},
		{
			"type": "error",
			"name": "JBPermissioned_Unauthorized",
			"inputs": [
				{
					"name": "account",
					"type": "address",
					"internalType": "address"
				},
				{
					"name": "sender",
					"type": "address",
					"internalType": "address"
				},
				{
					"name": "projectId",
					"type": "uint256",
					"internalType": "uint256"
				},
				{
					"name": "permissionId",
					"type": "uint256",
					"internalType": "uint256"
				}
			]
		},
		{
			"type": "error",
			"name": "OwnableInvalidOwner",
			"inputs": [
				{
					"name": "owner",
					"type": "address",
					"internalType": "address"
				}
			]
		},
		{
			"type": "error",
			"name": "OwnableUnauthorizedAccount",
			"inputs": [
				{
					"name": "account",
					"type": "address",
					"internalType": "address"
				}
			]
		}
	],
	"args": [
		"0xf92AC1aB5A00033E35a3975739124F61928C36B0",
		"0x6017d1FBa9DC279BFA0B03fD931C22E242AB3691",
		"0x4dc161eF837fF1C4485b08DDFcDB182F2157bE18"
	],
	"solcInputHash": "663268b051f9198d2c1f22197949fb96",
	"bytecode": "0x60c060405234801561000f575f5ffd5b5060405161194638038061194683398101604081905261002e916100e6565b6001600160a01b038084166080528190811661006357604051631e4fbdf760e01b81525f600482015260240160405180910390fd5b61006c81610080565b50506001600160a01b031660a05250610130565b5f80546001600160a01b038381166001600160a01b0319831681178455604051919092169283917f8be0079c531659141344cd1fd0a4f28419497f9722a3daafe3b4186f6b6457e09190a35050565b6001600160a01b03811681146100e3575f5ffd5b50565b5f5f5f606084860312156100f8575f5ffd5b8351610103816100cf565b6020850151909350610114816100cf565b6040850151909250610125816100cf565b809150509250925092565b60805160a0516117c56101815f395f818160ee01528181610287015281816103e10152818161057a015281816106160152818161069e0152610bbf01525f818161024b015261112801526117c55ff3fe608060405234801561000f575f5ffd5b50600436106100e5575f3560e01c80638620265011610088578063c5664e2111610063578063c5664e21146101f1578063d175415314610213578063f2fde38b14610233578063f434c91414610246575f5ffd5b806386202650146101bb5780638da5cb5b146101ce578063a1ed3175146101de575f5ffd5b80636e49181f116100c35780636e49181f1461016a578063714e7f321461018d578063715018a6146101a0578063821b9fd8146101a8575f5ffd5b8063293c4999146100e95780635dd8f6aa1461012d57806363d0850a14610155575b5f5ffd5b6101107f000000000000000000000000000000000000000000000000000000000000000081565b6040516001600160a01b0390911681526020015b60405180910390f35b61011061013b366004611470565b60016020525f90815260409020546001600160a01b031681565b61016861016336600461149b565b61026d565b005b61017d6101783660046114da565b6104d6565b6040519015158152602001610124565b61016861019b3660046114da565b610545565b610168610b77565b6101686101b6366004611508565b610b8a565b6101106101c93660046114da565b610ea4565b5f546001600160a01b0316610110565b6101686101ec36600461158f565b610fc1565b61017d6101ff3660046115bb565b60026020525f908152604090205460ff1681565b610226610221366004611470565b61102a565b60405161012491906115dd565b6101686102413660046115bb565b611093565b6101107f000000000000000000000000000000000000000000000000000000000000000081565b6040516331a9108f60e11b815260048101849052610300907f00000000000000000000000000000000000000000000000000000000000000006001600160a01b031690636352211e90602401602060405180830381865afa1580156102d4573d5f5f3e3d5ffd5b505050506040513d601f19601f820116820180604052508101906102f89190611628565b8460116110d0565b604051633a01714f60e01b8152600481018490526001600160a01b0383811660248301525f9190831690633a01714f90604401606060405180830381865afa15801561034e573d5f5f3e3d5ffd5b505050506040513d601f19601f82011682018060405250810190610372919061165b565b516001600160a01b0316036103b95760405163027bb87960e11b8152600481018490526001600160a01b038084166024830152821660448201526064015b60405180910390fd5b6103c383826104d6565b61045a576040516331a9108f60e11b81526004810184905261045a907f00000000000000000000000000000000000000000000000000000000000000006001600160a01b031690636352211e90602401602060405180830381865afa15801561042e573d5f5f3e3d5ffd5b505050506040513d601f19601f820116820180604052508101906104529190611628565b8460106110d0565b61046483826111d2565b5f8381526003602090815260408083206001600160a01b038681168086529184529382902080546001600160a01b03191694861694851790559051338152909186917fc670a502bbb9f8a4315f95eca901a9f99b65f89a2eb5705a58050e5c00f9d672910160405180910390a4505050565b5f8281526004602052604081208054825b8181101561053857846001600160a01b031683828154811061050b5761050b6116dc565b5f918252602090912001546001600160a01b031603610530576001935050505061053f565b6001016104e7565b505f925050505b92915050565b5f82815260016020526040908190205490516331a9108f60e11b8152600481018490526001600160a01b0391821691610614917f000000000000000000000000000000000000000000000000000000000000000090911690636352211e90602401602060405180830381865afa1580156105c1573d5f5f3e3d5ffd5b505050506040513d601f19601f820116820180604052508101906105e59190611628565b335f908152600260205260409020548590600e9060ff16801561060f57506001600160a01b038516155b611370565b7f00000000000000000000000000000000000000000000000000000000000000006001600160a01b03166306661abd6040518163ffffffff1660e01b8152600401602060405180830381865afa158015610670573d5f5f3e3d5ffd5b505050506040513d601f19601f8201168201806040525081019061069491906116f0565b83111561073e57827f00000000000000000000000000000000000000000000000000000000000000006001600160a01b03166306661abd6040518163ffffffff1660e01b8152600401602060405180830381865afa1580156106f8573d5f5f3e3d5ffd5b505050506040513d601f19601f8201168201806040525081019061071c91906116f0565b6040516317140d0f60e31b8152600481019290925260248201526044016103b0565b5f6001600160a01b03821615806107c457506040516301ffc9a760e01b81526001600160a01b038316906301ffc9a79061078390632877540760e01b90600401611707565b602060405180830381865afa15801561079e573d5f5f3e3d5ffd5b505050506040513d601f19601f820116820180604052508101906107c2919061171c565b155b61083457604051632674968d60e21b8152600481018590526001600160a01b038316906399d25a3490602401602060405180830381865afa15801561080b573d5f5f3e3d5ffd5b505050506040513d601f19601f8201168201806040525081019061082f919061171c565b610837565b60015b90508061085a5760405163684a3b2d60e11b8152600481018590526024016103b0565b6001600160a01b038216158015906108df57506040516301ffc9a760e01b81526001600160a01b038416906301ffc9a7906108a0906301192a2360e61b90600401611707565b602060405180830381865afa1580156108bb573d5f5f3e3d5ffd5b505050506040513d601f19601f820116820180604052508101906108df919061171c565b1561094257604051631e0231c360e31b81526001600160a01b0383811660048301526024820186905284169063f0118e18906044015f604051808303815f87803b15801561092b575f5ffd5b505af115801561093d573d5f5f3e3d5ffd5b505050505b6001600160a01b038216158015906109c757506040516301ffc9a760e01b81526001600160a01b038316906301ffc9a790610988906301192a2360e61b90600401611707565b602060405180830381865afa1580156109a3573d5f5f3e3d5ffd5b505050506040513d601f19601f820116820180604052508101906109c7919061171c565b15610a2a5760405163202dc27d60e11b8152600481018590526001600160a01b03848116602483015283169063405b84fa906044015f604051808303815f87803b158015610a13575f5ffd5b505af1158015610a25573d5f5f3e3d5ffd5b505050505b5f8481526001602090815260409182902080546001600160a01b0319166001600160a01b038716908117909155915133815286917f7f9a7dcb234c909a09de2f344661ad9e5b24067adb97c908647c2edcbb121c30910160405180910390a36001600160a01b03821615801590610b0e57506040516301ffc9a760e01b81526001600160a01b038416906301ffc9a790610acf906301192a2360e61b90600401611707565b602060405180830381865afa158015610aea573d5f5f3e3d5ffd5b505050506040513d601f19601f82011682018060405250810190610b0e919061171c565b15610b7157604051637b00411160e11b81526001600160a01b0383811660048301526024820186905284169063f6008222906044015f604051808303815f87803b158015610b5a575f5ffd5b505af1158015610b6c573d5f5f3e3d5ffd5b505050505b50505050565b610b7f611380565b610b885f6113ac565b565b5f83815260016020526040908190205490516331a9108f60e11b8152600481018590526001600160a01b0391821691610c3e917f000000000000000000000000000000000000000000000000000000000000000090911690636352211e90602401602060405180830381865afa158015610c06573d5f5f3e3d5ffd5b505050506040513d601f19601f82011682018060405250810190610c2a9190611628565b85600f336001600160a01b03861614611370565b6040516301ffc9a760e01b81525f906001600160a01b038316906301ffc9a790610c7390632877540760e01b90600401611707565b602060405180830381865afa158015610c8e573d5f5f3e3d5ffd5b505050506040513d601f19601f82011682018060405250810190610cb2919061171c565b1580610d20575060405163b1a50e3360e01b8152600481018690526001600160a01b0383169063b1a50e3390602401602060405180830381865afa158015610cfc573d5f5f3e3d5ffd5b505050506040513d601f19601f82011682018060405250810190610d20919061171c565b9050336001600160a01b03831614801590610d39575080155b15610d5a57604051632206a76b60e21b8152600481018690526024016103b0565b5f858152600460205260409020610d729085856113fb565b506001831115610e61575f5b83811015610e5f575f610d92826001611737565b90505b84811015610e5657858582818110610daf57610daf6116dc565b9050602002016020810190610dc491906115bb565b6001600160a01b0316868684818110610ddf57610ddf6116dc565b9050602002016020810190610df491906115bb565b6001600160a01b031603610e4e57858583818110610e1457610e146116dc565b9050602002016020810190610e2991906115bb565b604051638a53d99f60e01b81526001600160a01b0390911660048201526024016103b0565b600101610d95565b50600101610d7e565b505b847fb648241d83df6540fc10f2acc641e4bf80a1e84e7ae2f1f6b0ad204b8fee635b858533604051610e9593929190611756565b60405180910390a25050505050565b5f8281526003602090815260408083206001600160a01b0380861685529252822054168015801590610edb5750610edb84826104d6565b15610ee757905061053f565b5f848152600460205260408120805490915b81811015610fb5575f838281548110610f1457610f146116dc565b5f918252602082200154604051633a01714f60e01b8152600481018b90526001600160a01b038a8116602483015290911692508290633a01714f90604401606060405180830381865afa158015610f6d573d5f5f3e3d5ffd5b505050506040513d601f19601f82011682018060405250810190610f91919061165b565b516001600160a01b031614610fac57945061053f9350505050565b50600101610ef9565b505f9695505050505050565b610fc9611380565b6001600160a01b0382165f81815260026020908152604091829020805460ff191685151590811790915591513381529192917f11207664cc48b0fa81c8674795f1d8f642960f38d5d2d305ad813093bed85fab910160405180910390a35050565b5f8181526004602090815260409182902080548351818402810184019094528084526060939283018282801561108757602002820191905f5260205f20905b81546001600160a01b03168152600190910190602001808311611069575b50505050509050919050565b61109b611380565b6001600160a01b0381166110c457604051631e4fbdf760e01b81525f60048201526024016103b0565b6110cd816113ac565b50565b336001600160a01b03841681148015906111935750604051631a45b42760e11b81526001600160a01b0382811660048301528581166024830152604482018590526064820184905260016084830181905260a48301527f0000000000000000000000000000000000000000000000000000000000000000169063348b684e9060c401602060405180830381865afa15801561116d573d5f5f3e3d5ffd5b505050506040513d601f19601f82011682018060405250810190611191919061171c565b155b15610b7157604051631326f75560e11b81526001600160a01b0380861660048301528216602482015260448101849052606481018390526084016103b0565b6111dc82826104d6565b156111e5575050565b5f828152600160205260408082205490516301ffc9a760e01b81526001600160a01b03909116919082906301ffc9a79061122a90632877540760e01b90600401611707565b602060405180830381865afa158015611245573d5f5f3e3d5ffd5b505050506040513d601f19601f82011682018060405250810190611269919061171c565b15806112d7575060405163b1a50e3360e01b8152600481018590526001600160a01b0383169063b1a50e3390602401602060405180830381865afa1580156112b3573d5f5f3e3d5ffd5b505050506040513d601f19601f820116820180604052508101906112d7919061171c565b9050806112fa57604051632206a76b60e21b8152600481018590526024016103b0565b5f84815260046020908152604080832080546001810182559084529282902090920180546001600160a01b0319166001600160a01b038716908117909155915133815286917f409bccc07b7cf7807930526a24318212d614c59f2dde05a017a41efee144e7c8910160405180910390a350505050565b80610b7157610b718484846110d0565b5f546001600160a01b03163314610b885760405163118cdaa760e01b81523360048201526024016103b0565b5f80546001600160a01b038381166001600160a01b0319831681178455604051919092169283917f8be0079c531659141344cd1fd0a4f28419497f9722a3daafe3b4186f6b6457e09190a35050565b828054828255905f5260205f2090810192821561144c579160200282015b8281111561144c5781546001600160a01b0319166001600160a01b03843516178255602090920191600190910190611419565b5061145892915061145c565b5090565b5b80821115611458575f815560010161145d565b5f60208284031215611480575f5ffd5b5035919050565b6001600160a01b03811681146110cd575f5ffd5b5f5f5f606084860312156114ad575f5ffd5b8335925060208401356114bf81611487565b915060408401356114cf81611487565b809150509250925092565b5f5f604083850312156114eb575f5ffd5b8235915060208301356114fd81611487565b809150509250929050565b5f5f5f6040848603121561151a575f5ffd5b83359250602084013567ffffffffffffffff811115611537575f5ffd5b8401601f81018613611547575f5ffd5b803567ffffffffffffffff81111561155d575f5ffd5b8660208260051b8401011115611571575f5ffd5b939660209190910195509293505050565b80151581146110cd575f5ffd5b5f5f604083850312156115a0575f5ffd5b82356115ab81611487565b915060208301356114fd81611582565b5f602082840312156115cb575f5ffd5b81356115d681611487565b9392505050565b602080825282518282018190525f918401906040840190835b8181101561161d5783516001600160a01b03168352602093840193909201916001016115f6565b509095945050505050565b5f60208284031215611638575f5ffd5b81516115d681611487565b805163ffffffff81168114611656575f5ffd5b919050565b5f606082840312801561166c575f5ffd5b506040516060810167ffffffffffffffff8111828210171561169c57634e487b7160e01b5f52604160045260245ffd5b60405282516116aa81611487565b8152602083015160ff811681146116bf575f5ffd5b60208201526116d060408401611643565b60408201529392505050565b634e487b7160e01b5f52603260045260245ffd5b5f60208284031215611700575f5ffd5b5051919050565b6001600160e01b031991909116815260200190565b5f6020828403121561172c575f5ffd5b81516115d681611582565b8082018082111561053f57634e487b7160e01b5f52601160045260245ffd5b604080825281018390525f8460608301825b8681101561179857823561177b81611487565b6001600160a01b0316825260209283019290910190600101611768565b506001600160a01b0394909416602093909301929092525090939250505056fea164736f6c634300081c000a",
	"gitCommit": "npm:@bananapus/core-v6@1.0.2",
	"gitDirty": false,
	"history": []
}