{
	"format": "sphinx-sol-ct-artifact-1",
	"address": "0x28b3d11fcb8d2ad0a143c5b193cd9f2e4d43f4c3",
	"sourceName": "node_modules/@bananapus/core-v6/src/JBSplits.sol",
	"contractName": "JBSplits",
	"chainId": "0xa4b1",
	"abi": [
		{
			"type": "constructor",
			"inputs": [
				{
					"name": "directory",
					"type": "address",
					"internalType": "contract IJBDirectory"
				}
			],
			"stateMutability": "nonpayable"
		},
		{
			"type": "function",
			"name": "DIRECTORY",
			"inputs": [],
			"outputs": [
				{
					"name": "",
					"type": "address",
					"internalType": "contract IJBDirectory"
				}
			],
			"stateMutability": "view"
		},
		{
			"type": "function",
			"name": "FALLBACK_RULESET_ID",
			"inputs": [],
			"outputs": [
				{
					"name": "",
					"type": "uint256",
					"internalType": "uint256"
				}
			],
			"stateMutability": "view"
		},
		{
			"type": "function",
			"name": "setSplitGroupsOf",
			"inputs": [
				{
					"name": "projectId",
					"type": "uint256",
					"internalType": "uint256"
				},
				{
					"name": "rulesetId",
					"type": "uint256",
					"internalType": "uint256"
				},
				{
					"name": "splitGroups",
					"type": "tuple[]",
					"internalType": "struct JBSplitGroup[]",
					"components": [
						{
							"name": "groupId",
							"type": "uint256",
							"internalType": "uint256"
						},
						{
							"name": "splits",
							"type": "tuple[]",
							"internalType": "struct JBSplit[]",
							"components": [
								{
									"name": "percent",
									"type": "uint32",
									"internalType": "uint32"
								},
								{
									"name": "projectId",
									"type": "uint64",
									"internalType": "uint64"
								},
								{
									"name": "beneficiary",
									"type": "address",
									"internalType": "address payable"
								},
								{
									"name": "preferAddToBalance",
									"type": "bool",
									"internalType": "bool"
								},
								{
									"name": "lockedUntil",
									"type": "uint48",
									"internalType": "uint48"
								},
								{
									"name": "hook",
									"type": "address",
									"internalType": "contract IJBSplitHook"
								}
							]
						}
					]
				}
			],
			"outputs": [],
			"stateMutability": "nonpayable"
		},
		{
			"type": "function",
			"name": "splitsOf",
			"inputs": [
				{
					"name": "projectId",
					"type": "uint256",
					"internalType": "uint256"
				},
				{
					"name": "rulesetId",
					"type": "uint256",
					"internalType": "uint256"
				},
				{
					"name": "groupId",
					"type": "uint256",
					"internalType": "uint256"
				}
			],
			"outputs": [
				{
					"name": "splits",
					"type": "tuple[]",
					"internalType": "struct JBSplit[]",
					"components": [
						{
							"name": "percent",
							"type": "uint32",
							"internalType": "uint32"
						},
						{
							"name": "projectId",
							"type": "uint64",
							"internalType": "uint64"
						},
						{
							"name": "beneficiary",
							"type": "address",
							"internalType": "address payable"
						},
						{
							"name": "preferAddToBalance",
							"type": "bool",
							"internalType": "bool"
						},
						{
							"name": "lockedUntil",
							"type": "uint48",
							"internalType": "uint48"
						},
						{
							"name": "hook",
							"type": "address",
							"internalType": "contract IJBSplitHook"
						}
					]
				}
			],
			"stateMutability": "view"
		},
		{
			"type": "event",
			"name": "SetSplit",
			"inputs": [
				{
					"name": "projectId",
					"type": "uint256",
					"indexed": true,
					"internalType": "uint256"
				},
				{
					"name": "rulesetId",
					"type": "uint256",
					"indexed": true,
					"internalType": "uint256"
				},
				{
					"name": "groupId",
					"type": "uint256",
					"indexed": true,
					"internalType": "uint256"
				},
				{
					"name": "split",
					"type": "tuple",
					"indexed": false,
					"internalType": "struct JBSplit",
					"components": [
						{
							"name": "percent",
							"type": "uint32",
							"internalType": "uint32"
						},
						{
							"name": "projectId",
							"type": "uint64",
							"internalType": "uint64"
						},
						{
							"name": "beneficiary",
							"type": "address",
							"internalType": "address payable"
						},
						{
							"name": "preferAddToBalance",
							"type": "bool",
							"internalType": "bool"
						},
						{
							"name": "lockedUntil",
							"type": "uint48",
							"internalType": "uint48"
						},
						{
							"name": "hook",
							"type": "address",
							"internalType": "contract IJBSplitHook"
						}
					]
				},
				{
					"name": "caller",
					"type": "address",
					"indexed": false,
					"internalType": "address"
				}
			],
			"anonymous": false
		},
		{
			"type": "error",
			"name": "JBControlled_ControllerUnauthorized",
			"inputs": [
				{
					"name": "controller",
					"type": "address",
					"internalType": "address"
				}
			]
		},
		{
			"type": "error",
			"name": "JBSplits_PreviousLockedSplitsNotIncluded",
			"inputs": [
				{
					"name": "projectId",
					"type": "uint256",
					"internalType": "uint256"
				},
				{
					"name": "rulesetId",
					"type": "uint256",
					"internalType": "uint256"
				}
			]
		},
		{
			"type": "error",
			"name": "JBSplits_TotalPercentExceeds100",
			"inputs": [
				{
					"name": "projectId",
					"type": "uint256",
					"internalType": "uint256"
				},
				{
					"name": "rulesetId",
					"type": "uint256",
					"internalType": "uint256"
				},
				{
					"name": "groupId",
					"type": "uint256",
					"internalType": "uint256"
				},
				{
					"name": "percentTotal",
					"type": "uint256",
					"internalType": "uint256"
				}
			]
		},
		{
			"type": "error",
			"name": "JBSplits_ZeroSplitPercent",
			"inputs": [
				{
					"name": "projectId",
					"type": "uint256",
					"internalType": "uint256"
				},
				{
					"name": "rulesetId",
					"type": "uint256",
					"internalType": "uint256"
				},
				{
					"name": "groupId",
					"type": "uint256",
					"internalType": "uint256"
				},
				{
					"name": "splitIndex",
					"type": "uint256",
					"internalType": "uint256"
				}
			]
		}
	],
	"args": [
		"0x5AfF29060E023e6FB87BE5596652B33c65Af535B"
	],
	"solcInputHash": "cdc93b202c84827784e828e65d0fa7f7",
	"bytecode": "0x60a0604052348015600e575f5ffd5b50604051610e2f380380610e2f833981016040819052602b91603b565b6001600160a01b03166080526066565b5f60208284031215604a575f5ffd5b81516001600160a01b0381168114605f575f5ffd5b9392505050565b608051610dab6100845f395f8181608d015261040f0152610dab5ff3fe608060405234801561000f575f5ffd5b506004361061004a575f3560e01c80635963b80b1461004e57806369e11cc51461006857806388bc2ef3146100885780638a36dffd146100c7575b5f5ffd5b6100555f81565b6040519081526020015b60405180910390f35b61007b610076366004610a17565b6100dc565b60405161005f9190610aa0565b6100af7f000000000000000000000000000000000000000000000000000000000000000081565b6040516001600160a01b03909116815260200161005f565b6100da6100d5366004610aed565b610108565b005b60606100e984848461025a565b905080515f03610101576100fe845f8461025a565b90505b9392505050565b5f5f5b82811015610252575f60a085858481811061012857610128610b6c565b905060200281019061013a9190610b80565b35901c1580159061017757503385858481811061015957610159610b6c565b905060200281019061016b9190610b80565b356001600160a01b0316145b905080158015610185575082155b1561019857610193876103f7565b600192505b61024987878787868181106101af576101af610b6c565b90506020028101906101c19190610b80565b358888878181106101d4576101d4610b6c565b90506020028101906101e69190610b80565b6101f4906020810190610b9e565b808060200260200160405190810160405280939291908181526020015f905b8282101561023f5761023060c08302860136819003810190610c73565b81526020019060010190610213565b50505050506104bf565b5060010161010b565b505050505050565b5f83815260026020908152604080832085845282528083208484529091528120546060918167ffffffffffffffff81111561029757610297610bea565b6040519080825280602002602001820160405280156102f557816020015b6040805160c0810182525f8082526020808301829052928201819052606082018190526080820181905260a082015282525f199092019101816102b55790505b5090505f5b828110156103ed575f8781526020818152604080832089845282528083208884528252808320848452825280832054815160c08101835260608082018690526080820186905260a0820186905263ffffffff8316825267ffffffffffffffff83861c168286015282901c818401528b8552600184528285208b865284528285208a8652845282852086865290935292205480156103c15760018181168114606084015281901c65ffffffffffff166080830152603181901c6001600160a01b031660a08301525b818585815181106103d4576103d4610b6c565b60200260200101819052508360010193505050506102fa565b5095945050505050565b604051632eec7b5560e11b8152600481018290525f907f00000000000000000000000000000000000000000000000000000000000000006001600160a01b031690635dd8f6aa90602401602060405180830381865afa15801561045c573d5f5f3e3d5ffd5b505050506040513d601f19601f820116820180604052508101906104809190610d1e565b90506001600160a01b03811633146104bb57604051639a007b3960e01b81526001600160a01b03821660048201526024015b60405180910390fd5b5050565b5f6104cb85858561025a565b80519091505f5b818110156105ee578281815181106104ec576104ec610b6c565b60200260200101516080015165ffffffffffff164210156105e6575f5f5b838110156105965784818151811061052457610524610b6c565b60200260200101516080015165ffffffffffff164210801561057d575061057d85828151811061055657610556610b6c565b602002602001015186858151811061057057610570610b6c565b60200260200101516108ff565b1561058e5761058b82610d4d565b91505b60010161050a565b50806105bb868685815181106105ae576105ae610b6c565b60200260200101516109c5565b10156105e4576040516338d74a4560e11b815260048101899052602481018890526044016104b2565b505b6001016104d2565b5082515f90815b81811015610870575f86828151811061061057610610610b6c565b60200260200101519050805f015163ffffffff165f0361065b576040516345022c6160e01b8152600481018b9052602481018a905260448101899052606481018390526084016104b2565b805161066d9063ffffffff1685610d65565b9350633b9aca008411156106ac576040516301c023d760e71b8152600481018b9052602481018a905260448101899052606481018590526084016104b2565b80516020808301516040808501515f8f81528085528281208f825285528281208e8252855282812088825285529190912063ffffffff9094169190921b6bffffffffffffffff000000001617606091821b6bffffffffffffffffffffffff191617918290558201518061072a57505f826080015165ffffffffffff16115b80610741575060a08201516001600160a01b031615155b156107d2575f8260600151610756575f610759565b60015b60ff1690506001836080015165ffffffffffff16901b8117905060318360a001516001600160a01b0316901b811790508060015f8e81526020019081526020015f205f8d81526020019081526020015f205f8c81526020019081526020015f205f8681526020019081526020015f20819055505061082a565b5f8b81526001602090815260408083208d845282528083208c845282528083208684529091529020541561082a575f8b81526001602090815260408083208d845282528083208c845282528083208684529091528120555b888a8c7f69c855c8ffc5bedfff6e518b2078f429113a6b2a827cf3b0fb686f47689ea2ca853360405161085e929190610d78565b60405180910390a450506001016105f5565b505f8881526002602090815260408083208a845282528083208984529091529020819055805b838110156108f4575f898152602081815260408083208b845282528083208a8452825280832084845282528083208390558b835260018083528184208c855283528184208b8552835281842085855290925282209190915501610896565b505050505050505050565b805182515f9163ffffffff9182169116148015610935575081604001516001600160a01b031683604001516001600160a01b0316145b801561095a57508160a001516001600160a01b03168360a001516001600160a01b0316145b80156109815750816020015167ffffffffffffffff16836020015167ffffffffffffffff16145b801561099857508160600151151583606001511515145b80156109bc5750816080015165ffffffffffff16836080015165ffffffffffff1610155b90505b92915050565b81515f90815b81811015610a0f576109f68582815181106109e8576109e8610b6c565b6020026020010151856108ff565b15610a0757610a0483610d4d565b92505b6001016109cb565b505092915050565b5f5f5f60608486031215610a29575f5ffd5b505081359360208301359350604090920135919050565b805163ffffffff16825260208082015167ffffffffffffffff16908301526040808201516001600160a01b039081169184019190915260608083015115159084015260808083015165ffffffffffff169084015260a09182015116910152565b602080825282518282018190525f918401906040840190835b81811015610ae257610acc838551610a40565b6020939093019260c09290920191600101610ab9565b509095945050505050565b5f5f5f5f60608587031215610b00575f5ffd5b8435935060208501359250604085013567ffffffffffffffff811115610b24575f5ffd5b8501601f81018713610b34575f5ffd5b803567ffffffffffffffff811115610b4a575f5ffd5b8760208260051b8401011115610b5e575f5ffd5b949793965060200194505050565b634e487b7160e01b5f52603260045260245ffd5b5f8235603e19833603018112610b94575f5ffd5b9190910192915050565b5f5f8335601e19843603018112610bb3575f5ffd5b83018035915067ffffffffffffffff821115610bcd575f5ffd5b602001915060c081023603821315610be3575f5ffd5b9250929050565b634e487b7160e01b5f52604160045260245ffd5b803563ffffffff81168114610c11575f5ffd5b919050565b803567ffffffffffffffff81168114610c11575f5ffd5b6001600160a01b0381168114610c41575f5ffd5b50565b8035610c1181610c2d565b80358015158114610c11575f5ffd5b803565ffffffffffff81168114610c11575f5ffd5b5f60c0828403128015610c84575f5ffd5b5060405160c0810167ffffffffffffffff81118282101715610cb457634e487b7160e01b5f52604160045260245ffd5b604052610cc083610bfe565b8152610cce60208401610c16565b6020820152610cdf60408401610c44565b6040820152610cf060608401610c4f565b6060820152610d0160808401610c5e565b6080820152610d1260a08401610c44565b60a08201529392505050565b5f60208284031215610d2e575f5ffd5b815161010181610c2d565b634e487b7160e01b5f52601160045260245ffd5b5f60018201610d5e57610d5e610d39565b5060010190565b808201808211156109bf576109bf610d39565b60e08101610d868285610a40565b6001600160a01b039290921660c0919091015291905056fea164736f6c634300081c000a",
	"gitCommit": "npm:@bananapus/core-v6@1.0.2",
	"gitDirty": false,
	"history": []
}