{
	"format": "sphinx-sol-ct-artifact-1",
	"address": "0xb552eb94284f94b833837d4b2cbb237128415d4e",
	"sourceName": "node_modules/@rev-net/core-v6/src/REVDeployer.sol",
	"contractName": "REVDeployer",
	"chainId": "0xa4b1",
	"abi": [
		{
			"type": "constructor",
			"inputs": [
				{
					"name": "controller",
					"type": "address",
					"internalType": "contract IJBController"
				},
				{
					"name": "multiTerminal",
					"type": "address",
					"internalType": "contract IJBTerminal"
				},
				{
					"name": "routerTerminalRegistry",
					"type": "address",
					"internalType": "contract IJBTerminal"
				},
				{
					"name": "suckerRegistry",
					"type": "address",
					"internalType": "contract IJBSuckerRegistry"
				},
				{
					"name": "feeRevnetId",
					"type": "uint256",
					"internalType": "uint256"
				},
				{
					"name": "hookDeployer",
					"type": "address",
					"internalType": "contract IJB721TiersHookDeployer"
				},
				{
					"name": "publisher",
					"type": "address",
					"internalType": "contract CTPublisher"
				},
				{
					"name": "buybackHook",
					"type": "address",
					"internalType": "contract IJBBuybackHookRegistry"
				},
				{
					"name": "loans",
					"type": "address",
					"internalType": "contract IREVLoans"
				},
				{
					"name": "trustedForwarder",
					"type": "address",
					"internalType": "address"
				},
				{
					"name": "owner",
					"type": "address",
					"internalType": "address"
				}
			],
			"stateMutability": "nonpayable"
		},
		{
			"type": "function",
			"name": "BUYBACK_HOOK",
			"inputs": [],
			"outputs": [
				{
					"name": "",
					"type": "address",
					"internalType": "contract IJBBuybackHookRegistry"
				}
			],
			"stateMutability": "view"
		},
		{
			"type": "function",
			"name": "CASH_OUT_DELAY",
			"inputs": [],
			"outputs": [
				{
					"name": "",
					"type": "uint256",
					"internalType": "uint256"
				}
			],
			"stateMutability": "view"
		},
		{
			"type": "function",
			"name": "CONTROLLER",
			"inputs": [],
			"outputs": [
				{
					"name": "",
					"type": "address",
					"internalType": "contract IJBController"
				}
			],
			"stateMutability": "view"
		},
		{
			"type": "function",
			"name": "DEFAULT_BUYBACK_POOL_FEE",
			"inputs": [],
			"outputs": [
				{
					"name": "",
					"type": "uint24",
					"internalType": "uint24"
				}
			],
			"stateMutability": "view"
		},
		{
			"type": "function",
			"name": "DEFAULT_BUYBACK_TICK_SPACING",
			"inputs": [],
			"outputs": [
				{
					"name": "",
					"type": "int24",
					"internalType": "int24"
				}
			],
			"stateMutability": "view"
		},
		{
			"type": "function",
			"name": "DEFAULT_BUYBACK_TWAP_WINDOW",
			"inputs": [],
			"outputs": [
				{
					"name": "",
					"type": "uint32",
					"internalType": "uint32"
				}
			],
			"stateMutability": "view"
		},
		{
			"type": "function",
			"name": "DIRECTORY",
			"inputs": [],
			"outputs": [
				{
					"name": "",
					"type": "address",
					"internalType": "contract IJBDirectory"
				}
			],
			"stateMutability": "view"
		},
		{
			"type": "function",
			"name": "FEE_REVNET_ID",
			"inputs": [],
			"outputs": [
				{
					"name": "",
					"type": "uint256",
					"internalType": "uint256"
				}
			],
			"stateMutability": "view"
		},
		{
			"type": "function",
			"name": "HOOK_DEPLOYER",
			"inputs": [],
			"outputs": [
				{
					"name": "",
					"type": "address",
					"internalType": "contract IJB721TiersHookDeployer"
				}
			],
			"stateMutability": "view"
		},
		{
			"type": "function",
			"name": "LOANS",
			"inputs": [],
			"outputs": [
				{
					"name": "",
					"type": "address",
					"internalType": "contract IREVLoans"
				}
			],
			"stateMutability": "view"
		},
		{
			"type": "function",
			"name": "MULTI_TERMINAL",
			"inputs": [],
			"outputs": [
				{
					"name": "",
					"type": "address",
					"internalType": "contract IJBTerminal"
				}
			],
			"stateMutability": "view"
		},
		{
			"type": "function",
			"name": "OWNER",
			"inputs": [],
			"outputs": [
				{
					"name": "",
					"type": "address",
					"internalType": "address"
				}
			],
			"stateMutability": "view"
		},
		{
			"type": "function",
			"name": "PERMISSIONS",
			"inputs": [],
			"outputs": [
				{
					"name": "",
					"type": "address",
					"internalType": "contract IJBPermissions"
				}
			],
			"stateMutability": "view"
		},
		{
			"type": "function",
			"name": "PROJECTS",
			"inputs": [],
			"outputs": [
				{
					"name": "",
					"type": "address",
					"internalType": "contract IJBProjects"
				}
			],
			"stateMutability": "view"
		},
		{
			"type": "function",
			"name": "PUBLISHER",
			"inputs": [],
			"outputs": [
				{
					"name": "",
					"type": "address",
					"internalType": "contract CTPublisher"
				}
			],
			"stateMutability": "view"
		},
		{
			"type": "function",
			"name": "ROUTER_TERMINAL_REGISTRY",
			"inputs": [],
			"outputs": [
				{
					"name": "",
					"type": "address",
					"internalType": "contract IJBTerminal"
				}
			],
			"stateMutability": "view"
		},
		{
			"type": "function",
			"name": "SUCKER_REGISTRY",
			"inputs": [],
			"outputs": [
				{
					"name": "",
					"type": "address",
					"internalType": "contract IJBSuckerRegistry"
				}
			],
			"stateMutability": "view"
		},
		{
			"type": "function",
			"name": "deployFor",
			"inputs": [
				{
					"name": "revnetId",
					"type": "uint256",
					"internalType": "uint256"
				},
				{
					"name": "configuration",
					"type": "tuple",
					"internalType": "struct REVConfig",
					"components": [
						{
							"name": "description",
							"type": "tuple",
							"internalType": "struct REVDescription",
							"components": [
								{
									"name": "name",
									"type": "string",
									"internalType": "string"
								},
								{
									"name": "ticker",
									"type": "string",
									"internalType": "string"
								},
								{
									"name": "uri",
									"type": "string",
									"internalType": "string"
								},
								{
									"name": "salt",
									"type": "bytes32",
									"internalType": "bytes32"
								}
							]
						},
						{
							"name": "baseCurrency",
							"type": "uint32",
							"internalType": "uint32"
						},
						{
							"name": "operator",
							"type": "address",
							"internalType": "address"
						},
						{
							"name": "scopeCashOutsToLocalBalances",
							"type": "bool",
							"internalType": "bool"
						},
						{
							"name": "stageConfigurations",
							"type": "tuple[]",
							"internalType": "struct REVStageConfig[]",
							"components": [
								{
									"name": "startsAtOrAfter",
									"type": "uint48",
									"internalType": "uint48"
								},
								{
									"name": "autoIssuances",
									"type": "tuple[]",
									"internalType": "struct REVAutoIssuance[]",
									"components": [
										{
											"name": "chainId",
											"type": "uint32",
											"internalType": "uint32"
										},
										{
											"name": "count",
											"type": "uint104",
											"internalType": "uint104"
										},
										{
											"name": "beneficiary",
											"type": "address",
											"internalType": "address"
										}
									]
								},
								{
									"name": "splitPercent",
									"type": "uint16",
									"internalType": "uint16"
								},
								{
									"name": "splits",
									"type": "tuple[]",
									"internalType": "struct JBSplit[]",
									"components": [
										{
											"name": "percent",
											"type": "uint32",
											"internalType": "uint32"
										},
										{
											"name": "projectId",
											"type": "uint64",
											"internalType": "uint64"
										},
										{
											"name": "beneficiary",
											"type": "address",
											"internalType": "address payable"
										},
										{
											"name": "preferAddToBalance",
											"type": "bool",
											"internalType": "bool"
										},
										{
											"name": "lockedUntil",
											"type": "uint48",
											"internalType": "uint48"
										},
										{
											"name": "hook",
											"type": "address",
											"internalType": "contract IJBSplitHook"
										}
									]
								},
								{
									"name": "initialIssuance",
									"type": "uint112",
									"internalType": "uint112"
								},
								{
									"name": "issuanceCutFrequency",
									"type": "uint32",
									"internalType": "uint32"
								},
								{
									"name": "issuanceCutPercent",
									"type": "uint32",
									"internalType": "uint32"
								},
								{
									"name": "cashOutTaxRate",
									"type": "uint16",
									"internalType": "uint16"
								},
								{
									"name": "extraMetadata",
									"type": "uint16",
									"internalType": "uint16"
								}
							]
						}
					]
				},
				{
					"name": "accountingContextsToAccept",
					"type": "tuple[]",
					"internalType": "struct JBAccountingContext[]",
					"components": [
						{
							"name": "token",
							"type": "address",
							"internalType": "address"
						},
						{
							"name": "decimals",
							"type": "uint8",
							"internalType": "uint8"
						},
						{
							"name": "currency",
							"type": "uint32",
							"internalType": "uint32"
						}
					]
				},
				{
					"name": "suckerDeploymentConfiguration",
					"type": "tuple",
					"internalType": "struct REVSuckerDeploymentConfig",
					"components": [
						{
							"name": "deployerConfigurations",
							"type": "tuple[]",
							"internalType": "struct JBSuckerDeployerConfig[]",
							"components": [
								{
									"name": "deployer",
									"type": "address",
									"internalType": "contract IJBSuckerDeployer"
								},
								{
									"name": "peer",
									"type": "bytes32",
									"internalType": "bytes32"
								},
								{
									"name": "mappings",
									"type": "tuple[]",
									"internalType": "struct JBTokenMapping[]",
									"components": [
										{
											"name": "localToken",
											"type": "address",
											"internalType": "address"
										},
										{
											"name": "minGas",
											"type": "uint32",
											"internalType": "uint32"
										},
										{
											"name": "remoteToken",
											"type": "bytes32",
											"internalType": "bytes32"
										}
									]
								}
							]
						},
						{
							"name": "salt",
							"type": "bytes32",
							"internalType": "bytes32"
						}
					]
				}
			],
			"outputs": [
				{
					"name": "",
					"type": "uint256",
					"internalType": "uint256"
				},
				{
					"name": "hook",
					"type": "address",
					"internalType": "contract IJB721TiersHook"
				}
			],
			"stateMutability": "payable"
		},
		{
			"type": "function",
			"name": "deployFor",
			"inputs": [
				{
					"name": "revnetId",
					"type": "uint256",
					"internalType": "uint256"
				},
				{
					"name": "configuration",
					"type": "tuple",
					"internalType": "struct REVConfig",
					"components": [
						{
							"name": "description",
							"type": "tuple",
							"internalType": "struct REVDescription",
							"components": [
								{
									"name": "name",
									"type": "string",
									"internalType": "string"
								},
								{
									"name": "ticker",
									"type": "string",
									"internalType": "string"
								},
								{
									"name": "uri",
									"type": "string",
									"internalType": "string"
								},
								{
									"name": "salt",
									"type": "bytes32",
									"internalType": "bytes32"
								}
							]
						},
						{
							"name": "baseCurrency",
							"type": "uint32",
							"internalType": "uint32"
						},
						{
							"name": "operator",
							"type": "address",
							"internalType": "address"
						},
						{
							"name": "scopeCashOutsToLocalBalances",
							"type": "bool",
							"internalType": "bool"
						},
						{
							"name": "stageConfigurations",
							"type": "tuple[]",
							"internalType": "struct REVStageConfig[]",
							"components": [
								{
									"name": "startsAtOrAfter",
									"type": "uint48",
									"internalType": "uint48"
								},
								{
									"name": "autoIssuances",
									"type": "tuple[]",
									"internalType": "struct REVAutoIssuance[]",
									"components": [
										{
											"name": "chainId",
											"type": "uint32",
											"internalType": "uint32"
										},
										{
											"name": "count",
											"type": "uint104",
											"internalType": "uint104"
										},
										{
											"name": "beneficiary",
											"type": "address",
											"internalType": "address"
										}
									]
								},
								{
									"name": "splitPercent",
									"type": "uint16",
									"internalType": "uint16"
								},
								{
									"name": "splits",
									"type": "tuple[]",
									"internalType": "struct JBSplit[]",
									"components": [
										{
											"name": "percent",
											"type": "uint32",
											"internalType": "uint32"
										},
										{
											"name": "projectId",
											"type": "uint64",
											"internalType": "uint64"
										},
										{
											"name": "beneficiary",
											"type": "address",
											"internalType": "address payable"
										},
										{
											"name": "preferAddToBalance",
											"type": "bool",
											"internalType": "bool"
										},
										{
											"name": "lockedUntil",
											"type": "uint48",
											"internalType": "uint48"
										},
										{
											"name": "hook",
											"type": "address",
											"internalType": "contract IJBSplitHook"
										}
									]
								},
								{
									"name": "initialIssuance",
									"type": "uint112",
									"internalType": "uint112"
								},
								{
									"name": "issuanceCutFrequency",
									"type": "uint32",
									"internalType": "uint32"
								},
								{
									"name": "issuanceCutPercent",
									"type": "uint32",
									"internalType": "uint32"
								},
								{
									"name": "cashOutTaxRate",
									"type": "uint16",
									"internalType": "uint16"
								},
								{
									"name": "extraMetadata",
									"type": "uint16",
									"internalType": "uint16"
								}
							]
						}
					]
				},
				{
					"name": "accountingContextsToAccept",
					"type": "tuple[]",
					"internalType": "struct JBAccountingContext[]",
					"components": [
						{
							"name": "token",
							"type": "address",
							"internalType": "address"
						},
						{
							"name": "decimals",
							"type": "uint8",
							"internalType": "uint8"
						},
						{
							"name": "currency",
							"type": "uint32",
							"internalType": "uint32"
						}
					]
				},
				{
					"name": "suckerDeploymentConfiguration",
					"type": "tuple",
					"internalType": "struct REVSuckerDeploymentConfig",
					"components": [
						{
							"name": "deployerConfigurations",
							"type": "tuple[]",
							"internalType": "struct JBSuckerDeployerConfig[]",
							"components": [
								{
									"name": "deployer",
									"type": "address",
									"internalType": "contract IJBSuckerDeployer"
								},
								{
									"name": "peer",
									"type": "bytes32",
									"internalType": "bytes32"
								},
								{
									"name": "mappings",
									"type": "tuple[]",
									"internalType": "struct JBTokenMapping[]",
									"components": [
										{
											"name": "localToken",
											"type": "address",
											"internalType": "address"
										},
										{
											"name": "minGas",
											"type": "uint32",
											"internalType": "uint32"
										},
										{
											"name": "remoteToken",
											"type": "bytes32",
											"internalType": "bytes32"
										}
									]
								}
							]
						},
						{
							"name": "salt",
							"type": "bytes32",
							"internalType": "bytes32"
						}
					]
				},
				{
					"name": "tiered721HookConfiguration",
					"type": "tuple",
					"internalType": "struct REVDeploy721TiersHookConfig",
					"components": [
						{
							"name": "baseline721HookConfiguration",
							"type": "tuple",
							"internalType": "struct REVBaseline721HookConfig",
							"components": [
								{
									"name": "name",
									"type": "string",
									"internalType": "string"
								},
								{
									"name": "symbol",
									"type": "string",
									"internalType": "string"
								},
								{
									"name": "baseUri",
									"type": "string",
									"internalType": "string"
								},
								{
									"name": "tokenUriResolver",
									"type": "address",
									"internalType": "contract IJB721TokenUriResolver"
								},
								{
									"name": "contractUri",
									"type": "string",
									"internalType": "string"
								},
								{
									"name": "tiersConfig",
									"type": "tuple",
									"internalType": "struct JB721InitTiersConfig",
									"components": [
										{
											"name": "tiers",
											"type": "tuple[]",
											"internalType": "struct JB721TierConfig[]",
											"components": [
												{
													"name": "price",
													"type": "uint104",
													"internalType": "uint104"
												},
												{
													"name": "initialSupply",
													"type": "uint32",
													"internalType": "uint32"
												},
												{
													"name": "votingUnits",
													"type": "uint32",
													"internalType": "uint32"
												},
												{
													"name": "reserveFrequency",
													"type": "uint16",
													"internalType": "uint16"
												},
												{
													"name": "reserveBeneficiary",
													"type": "address",
													"internalType": "address"
												},
												{
													"name": "encodedIpfsUri",
													"type": "bytes32",
													"internalType": "bytes32"
												},
												{
													"name": "category",
													"type": "uint24",
													"internalType": "uint24"
												},
												{
													"name": "discountPercent",
													"type": "uint8",
													"internalType": "uint8"
												},
												{
													"name": "flags",
													"type": "tuple",
													"internalType": "struct JB721TierConfigFlags",
													"components": [
														{
															"name": "allowOwnerMint",
															"type": "bool",
															"internalType": "bool"
														},
														{
															"name": "useReserveBeneficiaryAsDefault",
															"type": "bool",
															"internalType": "bool"
														},
														{
															"name": "transfersPausable",
															"type": "bool",
															"internalType": "bool"
														},
														{
															"name": "useVotingUnits",
															"type": "bool",
															"internalType": "bool"
														},
														{
															"name": "cantBeRemoved",
															"type": "bool",
															"internalType": "bool"
														},
														{
															"name": "cantIncreaseDiscountPercent",
															"type": "bool",
															"internalType": "bool"
														},
														{
															"name": "cantBuyWithCredits",
															"type": "bool",
															"internalType": "bool"
														}
													]
												},
												{
													"name": "splitPercent",
													"type": "uint32",
													"internalType": "uint32"
												},
												{
													"name": "splits",
													"type": "tuple[]",
													"internalType": "struct JBSplit[]",
													"components": [
														{
															"name": "percent",
															"type": "uint32",
															"internalType": "uint32"
														},
														{
															"name": "projectId",
															"type": "uint64",
															"internalType": "uint64"
														},
														{
															"name": "beneficiary",
															"type": "address",
															"internalType": "address payable"
														},
														{
															"name": "preferAddToBalance",
															"type": "bool",
															"internalType": "bool"
														},
														{
															"name": "lockedUntil",
															"type": "uint48",
															"internalType": "uint48"
														},
														{
															"name": "hook",
															"type": "address",
															"internalType": "contract IJBSplitHook"
														}
													]
												}
											]
										},
										{
											"name": "currency",
											"type": "uint32",
											"internalType": "uint32"
										},
										{
											"name": "decimals",
											"type": "uint8",
											"internalType": "uint8"
										}
									]
								},
								{
									"name": "flags",
									"type": "tuple",
									"internalType": "struct REV721TiersHookFlags",
									"components": [
										{
											"name": "noNewTiersWithReserves",
											"type": "bool",
											"internalType": "bool"
										},
										{
											"name": "noNewTiersWithVotes",
											"type": "bool",
											"internalType": "bool"
										},
										{
											"name": "noNewTiersWithOwnerMinting",
											"type": "bool",
											"internalType": "bool"
										},
										{
											"name": "preventOverspending",
											"type": "bool",
											"internalType": "bool"
										}
									]
								}
							]
						},
						{
							"name": "salt",
							"type": "bytes32",
							"internalType": "bytes32"
						},
						{
							"name": "preventOperatorAdjustingTiers",
							"type": "bool",
							"internalType": "bool"
						},
						{
							"name": "preventOperatorUpdatingMetadata",
							"type": "bool",
							"internalType": "bool"
						},
						{
							"name": "preventOperatorMinting",
							"type": "bool",
							"internalType": "bool"
						},
						{
							"name": "preventOperatorIncreasingDiscountPercent",
							"type": "bool",
							"internalType": "bool"
						}
					]
				},
				{
					"name": "allowedPosts",
					"type": "tuple[]",
					"internalType": "struct REVCroptopAllowedPost[]",
					"components": [
						{
							"name": "category",
							"type": "uint24",
							"internalType": "uint24"
						},
						{
							"name": "minimumPrice",
							"type": "uint104",
							"internalType": "uint104"
						},
						{
							"name": "minimumTotalSupply",
							"type": "uint32",
							"internalType": "uint32"
						},
						{
							"name": "maximumTotalSupply",
							"type": "uint32",
							"internalType": "uint32"
						},
						{
							"name": "maximumSplitPercent",
							"type": "uint32",
							"internalType": "uint32"
						},
						{
							"name": "allowedAddresses",
							"type": "address[]",
							"internalType": "address[]"
						}
					]
				}
			],
			"outputs": [
				{
					"name": "",
					"type": "uint256",
					"internalType": "uint256"
				},
				{
					"name": "hook",
					"type": "address",
					"internalType": "contract IJB721TiersHook"
				}
			],
			"stateMutability": "payable"
		},
		{
			"type": "function",
			"name": "deploySuckersFor",
			"inputs": [
				{
					"name": "revnetId",
					"type": "uint256",
					"internalType": "uint256"
				},
				{
					"name": "suckerDeploymentConfiguration",
					"type": "tuple",
					"internalType": "struct REVSuckerDeploymentConfig",
					"components": [
						{
							"name": "deployerConfigurations",
							"type": "tuple[]",
							"internalType": "struct JBSuckerDeployerConfig[]",
							"components": [
								{
									"name": "deployer",
									"type": "address",
									"internalType": "contract IJBSuckerDeployer"
								},
								{
									"name": "peer",
									"type": "bytes32",
									"internalType": "bytes32"
								},
								{
									"name": "mappings",
									"type": "tuple[]",
									"internalType": "struct JBTokenMapping[]",
									"components": [
										{
											"name": "localToken",
											"type": "address",
											"internalType": "address"
										},
										{
											"name": "minGas",
											"type": "uint32",
											"internalType": "uint32"
										},
										{
											"name": "remoteToken",
											"type": "bytes32",
											"internalType": "bytes32"
										}
									]
								}
							]
						},
						{
							"name": "salt",
							"type": "bytes32",
							"internalType": "bytes32"
						}
					]
				}
			],
			"outputs": [
				{
					"name": "suckers",
					"type": "address[]",
					"internalType": "address[]"
				}
			],
			"stateMutability": "nonpayable"
		},
		{
			"type": "function",
			"name": "hashedEncodedConfigurationOf",
			"inputs": [
				{
					"name": "revnetId",
					"type": "uint256",
					"internalType": "uint256"
				}
			],
			"outputs": [
				{
					"name": "hashedEncodedConfiguration",
					"type": "bytes32",
					"internalType": "bytes32"
				}
			],
			"stateMutability": "view"
		},
		{
			"type": "function",
			"name": "isTrustedForwarder",
			"inputs": [
				{
					"name": "forwarder",
					"type": "address",
					"internalType": "address"
				}
			],
			"outputs": [
				{
					"name": "",
					"type": "bool",
					"internalType": "bool"
				}
			],
			"stateMutability": "view"
		},
		{
			"type": "function",
			"name": "onERC721Received",
			"inputs": [
				{
					"name": "",
					"type": "address",
					"internalType": "address"
				},
				{
					"name": "",
					"type": "address",
					"internalType": "address"
				},
				{
					"name": "",
					"type": "uint256",
					"internalType": "uint256"
				},
				{
					"name": "",
					"type": "bytes",
					"internalType": "bytes"
				}
			],
			"outputs": [
				{
					"name": "",
					"type": "bytes4",
					"internalType": "bytes4"
				}
			],
			"stateMutability": "view"
		},
		{
			"type": "function",
			"name": "originalPayer",
			"inputs": [],
			"outputs": [
				{
					"name": "",
					"type": "address",
					"internalType": "address"
				}
			],
			"stateMutability": "view"
		},
		{
			"type": "function",
			"name": "supportsInterface",
			"inputs": [
				{
					"name": "interfaceId",
					"type": "bytes4",
					"internalType": "bytes4"
				}
			],
			"outputs": [
				{
					"name": "",
					"type": "bool",
					"internalType": "bool"
				}
			],
			"stateMutability": "view"
		},
		{
			"type": "function",
			"name": "trustedForwarder",
			"inputs": [],
			"outputs": [
				{
					"name": "",
					"type": "address",
					"internalType": "address"
				}
			],
			"stateMutability": "view"
		},
		{
			"type": "event",
			"name": "DeployRevnet",
			"inputs": [
				{
					"name": "revnetId",
					"type": "uint256",
					"indexed": true,
					"internalType": "uint256"
				},
				{
					"name": "configuration",
					"type": "tuple",
					"indexed": false,
					"internalType": "struct REVConfig",
					"components": [
						{
							"name": "description",
							"type": "tuple",
							"internalType": "struct REVDescription",
							"components": [
								{
									"name": "name",
									"type": "string",
									"internalType": "string"
								},
								{
									"name": "ticker",
									"type": "string",
									"internalType": "string"
								},
								{
									"name": "uri",
									"type": "string",
									"internalType": "string"
								},
								{
									"name": "salt",
									"type": "bytes32",
									"internalType": "bytes32"
								}
							]
						},
						{
							"name": "baseCurrency",
							"type": "uint32",
							"internalType": "uint32"
						},
						{
							"name": "operator",
							"type": "address",
							"internalType": "address"
						},
						{
							"name": "scopeCashOutsToLocalBalances",
							"type": "bool",
							"internalType": "bool"
						},
						{
							"name": "stageConfigurations",
							"type": "tuple[]",
							"internalType": "struct REVStageConfig[]",
							"components": [
								{
									"name": "startsAtOrAfter",
									"type": "uint48",
									"internalType": "uint48"
								},
								{
									"name": "autoIssuances",
									"type": "tuple[]",
									"internalType": "struct REVAutoIssuance[]",
									"components": [
										{
											"name": "chainId",
											"type": "uint32",
											"internalType": "uint32"
										},
										{
											"name": "count",
											"type": "uint104",
											"internalType": "uint104"
										},
										{
											"name": "beneficiary",
											"type": "address",
											"internalType": "address"
										}
									]
								},
								{
									"name": "splitPercent",
									"type": "uint16",
									"internalType": "uint16"
								},
								{
									"name": "splits",
									"type": "tuple[]",
									"internalType": "struct JBSplit[]",
									"components": [
										{
											"name": "percent",
											"type": "uint32",
											"internalType": "uint32"
										},
										{
											"name": "projectId",
											"type": "uint64",
											"internalType": "uint64"
										},
										{
											"name": "beneficiary",
											"type": "address",
											"internalType": "address payable"
										},
										{
											"name": "preferAddToBalance",
											"type": "bool",
											"internalType": "bool"
										},
										{
											"name": "lockedUntil",
											"type": "uint48",
											"internalType": "uint48"
										},
										{
											"name": "hook",
											"type": "address",
											"internalType": "contract IJBSplitHook"
										}
									]
								},
								{
									"name": "initialIssuance",
									"type": "uint112",
									"internalType": "uint112"
								},
								{
									"name": "issuanceCutFrequency",
									"type": "uint32",
									"internalType": "uint32"
								},
								{
									"name": "issuanceCutPercent",
									"type": "uint32",
									"internalType": "uint32"
								},
								{
									"name": "cashOutTaxRate",
									"type": "uint16",
									"internalType": "uint16"
								},
								{
									"name": "extraMetadata",
									"type": "uint16",
									"internalType": "uint16"
								}
							]
						}
					]
				},
				{
					"name": "terminalConfigurations",
					"type": "tuple[]",
					"indexed": false,
					"internalType": "struct JBTerminalConfig[]",
					"components": [
						{
							"name": "terminal",
							"type": "address",
							"internalType": "contract IJBTerminal"
						},
						{
							"name": "accountingContextsToAccept",
							"type": "tuple[]",
							"internalType": "struct JBAccountingContext[]",
							"components": [
								{
									"name": "token",
									"type": "address",
									"internalType": "address"
								},
								{
									"name": "decimals",
									"type": "uint8",
									"internalType": "uint8"
								},
								{
									"name": "currency",
									"type": "uint32",
									"internalType": "uint32"
								}
							]
						}
					]
				},
				{
					"name": "suckerDeploymentConfiguration",
					"type": "tuple",
					"indexed": false,
					"internalType": "struct REVSuckerDeploymentConfig",
					"components": [
						{
							"name": "deployerConfigurations",
							"type": "tuple[]",
							"internalType": "struct JBSuckerDeployerConfig[]",
							"components": [
								{
									"name": "deployer",
									"type": "address",
									"internalType": "contract IJBSuckerDeployer"
								},
								{
									"name": "peer",
									"type": "bytes32",
									"internalType": "bytes32"
								},
								{
									"name": "mappings",
									"type": "tuple[]",
									"internalType": "struct JBTokenMapping[]",
									"components": [
										{
											"name": "localToken",
											"type": "address",
											"internalType": "address"
										},
										{
											"name": "minGas",
											"type": "uint32",
											"internalType": "uint32"
										},
										{
											"name": "remoteToken",
											"type": "bytes32",
											"internalType": "bytes32"
										}
									]
								}
							]
						},
						{
							"name": "salt",
							"type": "bytes32",
							"internalType": "bytes32"
						}
					]
				},
				{
					"name": "rulesetConfigurations",
					"type": "tuple[]",
					"indexed": false,
					"internalType": "struct JBRulesetConfig[]",
					"components": [
						{
							"name": "mustStartAtOrAfter",
							"type": "uint48",
							"internalType": "uint48"
						},
						{
							"name": "duration",
							"type": "uint32",
							"internalType": "uint32"
						},
						{
							"name": "weight",
							"type": "uint112",
							"internalType": "uint112"
						},
						{
							"name": "weightCutPercent",
							"type": "uint32",
							"internalType": "uint32"
						},
						{
							"name": "approvalHook",
							"type": "address",
							"internalType": "contract IJBRulesetApprovalHook"
						},
						{
							"name": "metadata",
							"type": "tuple",
							"internalType": "struct JBRulesetMetadata",
							"components": [
								{
									"name": "reservedPercent",
									"type": "uint16",
									"internalType": "uint16"
								},
								{
									"name": "cashOutTaxRate",
									"type": "uint16",
									"internalType": "uint16"
								},
								{
									"name": "baseCurrency",
									"type": "uint32",
									"internalType": "uint32"
								},
								{
									"name": "pausePay",
									"type": "bool",
									"internalType": "bool"
								},
								{
									"name": "pauseCreditTransfers",
									"type": "bool",
									"internalType": "bool"
								},
								{
									"name": "allowOwnerMinting",
									"type": "bool",
									"internalType": "bool"
								},
								{
									"name": "allowSetCustomToken",
									"type": "bool",
									"internalType": "bool"
								},
								{
									"name": "allowTerminalMigration",
									"type": "bool",
									"internalType": "bool"
								},
								{
									"name": "allowSetTerminals",
									"type": "bool",
									"internalType": "bool"
								},
								{
									"name": "allowSetController",
									"type": "bool",
									"internalType": "bool"
								},
								{
									"name": "allowAddAccountingContext",
									"type": "bool",
									"internalType": "bool"
								},
								{
									"name": "allowAddPriceFeed",
									"type": "bool",
									"internalType": "bool"
								},
								{
									"name": "ownerMustSendPayouts",
									"type": "bool",
									"internalType": "bool"
								},
								{
									"name": "holdFees",
									"type": "bool",
									"internalType": "bool"
								},
								{
									"name": "scopeCashOutsToLocalBalances",
									"type": "bool",
									"internalType": "bool"
								},
								{
									"name": "useDataHookForPay",
									"type": "bool",
									"internalType": "bool"
								},
								{
									"name": "useDataHookForCashOut",
									"type": "bool",
									"internalType": "bool"
								},
								{
									"name": "dataHook",
									"type": "address",
									"internalType": "address"
								},
								{
									"name": "metadata",
									"type": "uint16",
									"internalType": "uint16"
								}
							]
						},
						{
							"name": "splitGroups",
							"type": "tuple[]",
							"internalType": "struct JBSplitGroup[]",
							"components": [
								{
									"name": "groupId",
									"type": "uint256",
									"internalType": "uint256"
								},
								{
									"name": "splits",
									"type": "tuple[]",
									"internalType": "struct JBSplit[]",
									"components": [
										{
											"name": "percent",
											"type": "uint32",
											"internalType": "uint32"
										},
										{
											"name": "projectId",
											"type": "uint64",
											"internalType": "uint64"
										},
										{
											"name": "beneficiary",
											"type": "address",
											"internalType": "address payable"
										},
										{
											"name": "preferAddToBalance",
											"type": "bool",
											"internalType": "bool"
										},
										{
											"name": "lockedUntil",
											"type": "uint48",
											"internalType": "uint48"
										},
										{
											"name": "hook",
											"type": "address",
											"internalType": "contract IJBSplitHook"
										}
									]
								}
							]
						},
						{
							"name": "fundAccessLimitGroups",
							"type": "tuple[]",
							"internalType": "struct JBFundAccessLimitGroup[]",
							"components": [
								{
									"name": "terminal",
									"type": "address",
									"internalType": "address"
								},
								{
									"name": "token",
									"type": "address",
									"internalType": "address"
								},
								{
									"name": "payoutLimits",
									"type": "tuple[]",
									"internalType": "struct JBCurrencyAmount[]",
									"components": [
										{
											"name": "amount",
											"type": "uint224",
											"internalType": "uint224"
										},
										{
											"name": "currency",
											"type": "uint32",
											"internalType": "uint32"
										}
									]
								},
								{
									"name": "surplusAllowances",
									"type": "tuple[]",
									"internalType": "struct JBCurrencyAmount[]",
									"components": [
										{
											"name": "amount",
											"type": "uint224",
											"internalType": "uint224"
										},
										{
											"name": "currency",
											"type": "uint32",
											"internalType": "uint32"
										}
									]
								}
							]
						}
					]
				},
				{
					"name": "encodedConfigurationHash",
					"type": "bytes32",
					"indexed": false,
					"internalType": "bytes32"
				},
				{
					"name": "caller",
					"type": "address",
					"indexed": false,
					"internalType": "address"
				}
			],
			"anonymous": false
		},
		{
			"type": "event",
			"name": "DeploySuckers",
			"inputs": [
				{
					"name": "revnetId",
					"type": "uint256",
					"indexed": true,
					"internalType": "uint256"
				},
				{
					"name": "encodedConfigurationHash",
					"type": "bytes32",
					"indexed": false,
					"internalType": "bytes32"
				},
				{
					"name": "suckerDeploymentConfiguration",
					"type": "tuple",
					"indexed": false,
					"internalType": "struct REVSuckerDeploymentConfig",
					"components": [
						{
							"name": "deployerConfigurations",
							"type": "tuple[]",
							"internalType": "struct JBSuckerDeployerConfig[]",
							"components": [
								{
									"name": "deployer",
									"type": "address",
									"internalType": "contract IJBSuckerDeployer"
								},
								{
									"name": "peer",
									"type": "bytes32",
									"internalType": "bytes32"
								},
								{
									"name": "mappings",
									"type": "tuple[]",
									"internalType": "struct JBTokenMapping[]",
									"components": [
										{
											"name": "localToken",
											"type": "address",
											"internalType": "address"
										},
										{
											"name": "minGas",
											"type": "uint32",
											"internalType": "uint32"
										},
										{
											"name": "remoteToken",
											"type": "bytes32",
											"internalType": "bytes32"
										}
									]
								}
							]
						},
						{
							"name": "salt",
							"type": "bytes32",
							"internalType": "bytes32"
						}
					]
				},
				{
					"name": "caller",
					"type": "address",
					"indexed": false,
					"internalType": "address"
				}
			],
			"anonymous": false
		},
		{
			"type": "event",
			"name": "SetCashOutDelay",
			"inputs": [
				{
					"name": "revnetId",
					"type": "uint256",
					"indexed": true,
					"internalType": "uint256"
				},
				{
					"name": "cashOutDelay",
					"type": "uint256",
					"indexed": false,
					"internalType": "uint256"
				},
				{
					"name": "caller",
					"type": "address",
					"indexed": false,
					"internalType": "address"
				}
			],
			"anonymous": false
		},
		{
			"type": "event",
			"name": "StoreAutoIssuanceAmount",
			"inputs": [
				{
					"name": "revnetId",
					"type": "uint256",
					"indexed": true,
					"internalType": "uint256"
				},
				{
					"name": "stageId",
					"type": "uint256",
					"indexed": true,
					"internalType": "uint256"
				},
				{
					"name": "beneficiary",
					"type": "address",
					"indexed": true,
					"internalType": "address"
				},
				{
					"name": "count",
					"type": "uint256",
					"indexed": false,
					"internalType": "uint256"
				},
				{
					"name": "caller",
					"type": "address",
					"indexed": false,
					"internalType": "address"
				}
			],
			"anonymous": false
		},
		{
			"type": "error",
			"name": "PRBMath_MulDiv_Overflow",
			"inputs": [
				{
					"name": "x",
					"type": "uint256",
					"internalType": "uint256"
				},
				{
					"name": "y",
					"type": "uint256",
					"internalType": "uint256"
				},
				{
					"name": "denominator",
					"type": "uint256",
					"internalType": "uint256"
				}
			]
		},
		{
			"type": "error",
			"name": "REVDeployer_AutoIssuanceBeneficiaryZeroAddress",
			"inputs": [
				{
					"name": "stageIndex",
					"type": "uint256",
					"internalType": "uint256"
				},
				{
					"name": "autoIssuanceIndex",
					"type": "uint256",
					"internalType": "uint256"
				}
			]
		},
		{
			"type": "error",
			"name": "REVDeployer_CashOutsCantBeTurnedOffCompletely",
			"inputs": [
				{
					"name": "cashOutTaxRate",
					"type": "uint256",
					"internalType": "uint256"
				},
				{
					"name": "maxCashOutTaxRate",
					"type": "uint256",
					"internalType": "uint256"
				}
			]
		},
		{
			"type": "error",
			"name": "REVDeployer_MustHaveSplits",
			"inputs": [
				{
					"name": "stageIndex",
					"type": "uint256",
					"internalType": "uint256"
				},
				{
					"name": "splitPercent",
					"type": "uint256",
					"internalType": "uint256"
				}
			]
		},
		{
			"type": "error",
			"name": "REVDeployer_ProjectCreationFeeNotNeeded",
			"inputs": [
				{
					"name": "revnetId",
					"type": "uint256",
					"internalType": "uint256"
				},
				{
					"name": "value",
					"type": "uint256",
					"internalType": "uint256"
				}
			]
		},
		{
			"type": "error",
			"name": "REVDeployer_RulesetDoesNotAllowDeployingSuckers",
			"inputs": [
				{
					"name": "revnetId",
					"type": "uint256",
					"internalType": "uint256"
				}
			]
		},
		{
			"type": "error",
			"name": "REVDeployer_StageTimesMustIncrease",
			"inputs": [
				{
					"name": "stageIndex",
					"type": "uint256",
					"internalType": "uint256"
				},
				{
					"name": "previousStageStart",
					"type": "uint256",
					"internalType": "uint256"
				},
				{
					"name": "effectiveStart",
					"type": "uint256",
					"internalType": "uint256"
				}
			]
		},
		{
			"type": "error",
			"name": "REVDeployer_StagesRequired",
			"inputs": [
				{
					"name": "stageCount",
					"type": "uint256",
					"internalType": "uint256"
				}
			]
		},
		{
			"type": "error",
			"name": "REVDeployer_Unauthorized",
			"inputs": [
				{
					"name": "revnetId",
					"type": "uint256",
					"internalType": "uint256"
				},
				{
					"name": "caller",
					"type": "address",
					"internalType": "address"
				}
			]
		}
	],
	"args": [
		"0x3Fcec3572e84b624477BcfF4E2CF1f7dEAb648F1",
		"0x130f5Dd2bD8805443Cf41755253D778a75a67f53",
		"0xe0427F250fdb0379c8E98e884Ee4570521208CbC",
		"0x7903a854aE91eAf635430D120a1a434085cEf297",
		"3",
		"0xb7B8EC35e2dd84afff04Ee769C6189e7A4d44A78",
		"0xCBc84cf9b0293EfE3Ac7Dd1beA128a404f2E6a1c",
		"0x72F55a54CD53410a5Ff175508a5A384227081788",
		"0x056265c31157748818F0910d1859aCD2f7d427dE",
		"0x3bA60b60933916a7C87D0860DcEE62a0CE34E3e2",
		"0x2BA4705AD0332CdFB299B452068438bCba3faAf3"
	],
	"solcInputHash": "3a0395aec988a45e86ffccd3fd7a9a65",
	"bytecode": "0x610240806040523461041d57610160816155e48038038091610021828561051b565b83398101031261041d5780516001600160a01b038116919082810361041d5761004c6020830161053e565b6100586040840161053e565b60608401516001600160a01b038116810361041d57608085015160a0860151916001600160a01b038316830361041d5760c0870151936001600160a01b038516850361041d5760e08801516001600160a01b038116999096908a880361041d576101008a0151986001600160a01b038a168a0361041d576100e96101406100e26101208e0161053e565b9c0161053e565b9a60805260c0526040516388bc2ef360e01b8152602081600481855afa90811561048b575f916104d8575b5060e05260405163293c499960e01b815290602090829060049082905afa90811561048b575f91610496575b506101c05260c051604051633d0d324560e21b815290602090829060049082906001600160a01b03165afa90811561048b575f91610449575b506101a05261016052610200526102205261010052610120526101e05260a05261014052610180526040908151906101b1838361051b565b6001825260208201601f19840136823782511561043557601d90526101a05183516001600160a01b0390911691606082018281106001600160401b03821117610421578552815260208101925f8452848201908152823b1561041d578451631127c92960e21b81523060048201526024810186905291516001600160a01b0316604483015292516001600160401b03166064820152915160606084840152805160a48401819052839160c48301916020909101905f5b8181106104015750505091815f81819503925af180156103f7576103e7575b5051615091908161055382396080518181816112570152818161179501526126d8015260a0518181816117450152614a0b015260c0518181816101b60152818161137701528181613a0101528181613b2c01528181614ac80152614c41015260e0518161039001526101005181611ce901526101205181818161034b015281816108ec01526119e7015261014051816102c10152610160518181816102400152818161389501526144d3015261018051818181610a090152818161131b01528181611a4101528181611dc0015281816132520152613bb801526101a0518161017101526101c0518181816104e10152818161188e01528181611ca301528181611d6b01528181613b6f01528181614190015281816141e5015261424e01526101e0518181816101fb0152610bbf015261020051818181611c3a0152818161381d0152818161391f015261432f01526102205181818161030601526146a30152f35b5f6103f19161051b565b5f610286565b82513d5f823e3d90fd5b825160ff16845286945060209384019390920191600101610267565b5f80fd5b634e487b7160e01b5f52604160045260245ffd5b634e487b7160e01b5f52603260045260245ffd5b90506020813d602011610483575b816104646020938361051b565b8101031261041d57516001600160a01b038116810361041d575f610179565b3d9150610457565b6040513d5f823e3d90fd5b90506020813d6020116104d0575b816104b16020938361051b565b8101031261041d57516001600160a01b038116810361041d575f610140565b3d91506104a4565b90506020813d602011610513575b816104f36020938361051b565b8101031261041d57516001600160a01b038116810361041d576004610114565b3d91506104e6565b601f909101601f19168101906001600160401b0382119082101761042157604052565b51906001600160a01b038216820361041d5756fe610260806040526004361015610013575f80fd5b5f905f3560e01c90816301ffc9a714611def57508063117803e314611dab578063150b7a0214611d0c5780631680e17214611cd2578063293c499914611c8e578063296eee5114611c69578063366b28d414611c255780634cb6677514611c0957806354ca091d146117c9578063572b6c05146117745780635b3435b41461172f578063673706e8146112af57806367d39de2146112865780637da0a8771461124157806386dbf9c7146103bf57806388bc2ef31461037a578063abf8c5c814610335578063b5d25533146102f0578063b7249ca6146102ab578063b8a843d71461028d578063ccfe84d31461026f578063d087357e1461022a578063dbfbe5da146101e5578063ee0fc121146101a0578063f434c9141461015b5763ffc043371461013d575f80fd5b34610158578060031936011261015857602060405160c88152f35b80fd5b50346101585780600319360112610158576040517f00000000000000000000000000000000000000000000000000000000000000006001600160a01b03168152602090f35b50346101585780600319360112610158576040517f00000000000000000000000000000000000000000000000000000000000000006001600160a01b03168152602090f35b50346101585780600319360112610158576040517f00000000000000000000000000000000000000000000000000000000000000006001600160a01b03168152602090f35b50346101585780600319360112610158576040517f00000000000000000000000000000000000000000000000000000000000000006001600160a01b03168152602090f35b503461015857806003193601126101585760206040516202a3008152f35b5034610158578060031936011261015857602060405162093a808152f35b50346101585780600319360112610158576040517f00000000000000000000000000000000000000000000000000000000000000006001600160a01b03168152602090f35b50346101585780600319360112610158576040517f00000000000000000000000000000000000000000000000000000000000000006001600160a01b03168152602090f35b50346101585780600319360112610158576040517f00000000000000000000000000000000000000000000000000000000000000006001600160a01b03168152602090f35b50346101585780600319360112610158576040517f00000000000000000000000000000000000000000000000000000000000000006001600160a01b03168152602090f35b5060c036600319011261015857600435906001600160401b03602435116101585760a060243536036003190112610158576044356001600160401b03811161123d5761040f903690600401611e9a565b6001600160401b036064939293351161123d5760406064353603600319011261123d57608435936001600160401b038511610ab85760c06003198636030112610ab8576001600160401b0360a43511610ab85736602360a435011215610ab85760a43560040135916001600160401b038311610cdc573660248460051b60a435010111610cdc57818061121e57506001600160a01b036104b56104b06126ad565b612706565b166001600160a01b0319855c1617845d60405163180e2b1160e31b8152306004820152602081602481347f00000000000000000000000000000000000000000000000000000000000000006001600160a01b03165af1908115610ce05785916111e8575b5094845c6001600160a01b031916855d5b6040519661053788611f4b565b80600401356001600160401b0381116111e457810160031981360301906101408212610ff6576040519161056a83611eca565b60048201356001600160401b038111610fea5761058d906004369185010161251f565b835260248201356001600160401b038111610fea576105b2906004369185010161251f565b602084015260448201356001600160401b038111610fea576105da906004369185010161251f565b604084015260648201356001600160a01b0381168103610fea57606084015260848201356001600160401b038111610fea5761061c906004369185010161251f565b608084015260a48201356001600160401b038111610fea57600490830101606081360312610fea576040519061065182611ef9565b80356001600160401b0381116111e057810136601f820112156111e05780359061067a82612308565b916106886040519384611fb8565b80835260208084019160051b830101913683116111dc5760208101915b838310610ffa5750505050604083926106d49260809695526106c960208201612579565b6020850152016125a9565b604082015260a085015260bf190112610ff6579160a491610788936107396101246040519261070284611f66565b61070e60c482016125b7565b845261071c60e482016125b7565b602085015261072e61010482016125b7565b6040850152016125b7565b606082015260c08201528a52602481013560208b015261075b604482016125b7565b60408b015261076c606482016125b7565b60608b015261077d608482016125b7565b60808b0152016125b7565b60a088015261079684612308565b936107a46040519586611fb8565b80855260a43560240190602086015b60248260051b60a43501018310610ed5575050506020926108e797926107e8926064356004019260243560040190158a612e3c565b92908251908151918381015190604081015160018060a01b0360608301511660808301519160c060a085015194015194855115159589810151151590606060408201511515910151151591604051986108408a611f14565b89528b890152604088015260608701528c60808701526040519761086389611eca565b88528888015260408701526060860152608085015260a084015260c083015282840151906108c76108926126ad565b6040805187810195865260208601949094526001600160a01b039091169084015281606084015b03601f198101835282611fb8565b5190206040516337b4a3c360e11b81529889928392908a600485016120bd565b0381877f00000000000000000000000000000000000000000000000000000000000000006001600160a01b03165af1958615610ad1578496610ea4575b508390604081015115610e9b575b606081015115610e8b575b608081015115610e7b575b60a081015115610e6b575b61095c82612308565b9161096a6040519384611fb8565b808352610979601f1991612308565b013660208401378490604081015115610e51575b80606060a092015115610e3d575b608081015115610e22575b015115610e04575b5060608201526001600160a01b038581166020830181905292906109d6602435604401612364565b166040830152805180610adc575b5050813b15610ab85760405163f2fde38b60e01b815283816024818360018060a01b037f000000000000000000000000000000000000000000000000000000000000000016978860048401525af18015610ad157908491610abc575b5050813b15610ab857610a6d83928392604051948580948193636aca94ff60e11b83528a60048401612378565b03925af18015610aad57610a98575b5050604080519182526001600160a01b03929092166020820152f35b610aa3828092611fb8565b6101585780610a7c565b6040513d84823e3d90fd5b8280fd5b81610ac691611fb8565b610ab857825f610a40565b6040513d86823e3d90fd5b93610aeb859793969297612308565b94610af96040519687611fb8565b808652610b08601f1991612308565b01815b818110610dc2575050805b8751811015610bb65780610b2c6001928a612350565b5162ffffff815116906001600160681b036020820151169063ffffffff60408201511663ffffffff6060830151169060a063ffffffff6080850151169301519360405195610b7987611eca565b8c8752602087015260408601526060850152608084015260a083015260c0820152610ba48289612350565b52610baf8188612350565b5001610b16565b509195509390927f00000000000000000000000000000000000000000000000000000000000000006001600160a01b031690813b15610dbe5784604051809263cb4c08bd60e01b8252602482016020600484015281518091526044830190602060448260051b86010193019185905b828210610ceb57505050508190038183865af18015610ce057908591610cc7575b50506040805190610c578183611fb8565b60018252601f198101865b818110610ca557505090610c9d929160a085019182525191610c8383611f81565b8252601860208301525190610c978261231f565b5261231f565b505f806109e4565b6020908351610cb381611f81565b5f81525f8382015282828701015201610c62565b81610cd191611fb8565b610cdc57835f610c46565b8380fd5b6040513d87823e3d90fd5b929550929093506043198682030182528451602061010060c060e085019360018060a01b03815116865262ffffff8482015116848701526001600160681b03604082015116604087015263ffffffff606082015116606087015263ffffffff608082015116608087015263ffffffff60a08201511660a087015201519360e060c08201528451809452019201908b905b808210610d9c575050506020806001929601920192019285938a9593610c25565b82516001600160a01b0316845260209384019390920191600190910190610d7b565b8480fd5b602090604051610dd181611eca565b84815284838201528460408201528460608201528460808201528460a0820152606060c082015282828a01015201610b0b565b610e1b81610e14601b9391614773565b5083612350565b525f6109ae565b601a610e37610e3085614773565b9486612350565b526109a6565b6019610e4b610e3085614773565b5261099b565b905060a06001916018610e638561231f565b52905061098d565b90610e7590614773565b90610953565b90610e8590614773565b90610948565b90610e9590614773565b9061093d565b60019150610932565b610ec791965060203d602011610ece575b610ebf8183611fb8565b810190611fea565b945f610924565b503d610eb5565b82356001600160401b038111610ff25760a4350160c06023198236030112610ff25760405190610f0482611f4b565b610f1060248201612599565b8252610f1e60448201612565565b6020830152610f2f60648201612579565b6040830152610f4060848201612579565b6060830152610f5160a48201612579565b608083015260c4810135906001600160401b038211610fee5790602491010136601f82011215610fea57803590610f8782612308565b91610f956040519384611fb8565b80835260208084019160051b83010191368311610fe657602001905b828210610fce5750505060a08201528152602092830192016107b3565b60208091610fdb84611e86565b815201910190610fb1565b8c80fd5b8980fd5b8a80fd5b8880fd5b8780fd5b82356001600160401b0381116111d7578201601f19813603019061022082126111b1576040519161016083018381106001600160401b038211176111be5760405260e09061104a60208401612565565b845261105860408401612579565b602085015261106960608401612579565b604085015261107a6080840161258a565b606085015261108b60a08401611e86565b608085015260c083013560a08501526110a5828401612599565b60c08501526110b761010084016125a9565b8483015260ff1901126111b1576040516110d081611eca565b6110dd61012083016125b7565b81526110ec61014083016125b7565b60208201526110fe61016083016125b7565b604082015261111061018083016125b7565b60608201526111226101a083016125b7565b60808201526111346101c083016125b7565b60a08201526111466101e083016125b7565b60c082015261010083015261115e6102008201612579565b610120830152610220810135906001600160401b0382116111b75790602091010136601f820112156111b15791602092916111a08493369085813591016125eb565b6101408201528152019201916106a5565b50508f80fd5b5050508f80fd5b505050505060248f634e487b7160e01b81526041600452fd5b508f80fd5b8e80fd5b8b80fd5b8680fd5b90506020813d602011611216575b8161120360209383611fb8565b8101031261121257515f610519565b5f80fd5b3d91506111f6565b94341561052a57634f6bc9ef60e01b8552600483905234602452604485fd5b5080fd5b50346101585780600319360112610158576040517f00000000000000000000000000000000000000000000000000000000000000006001600160a01b03168152602090f35b503461015857602036600319011261015857604060209160043581528083522054604051908152f35b503461015857604036600319011261015857602435906004356001600160401b03831161123d576040600319843603011261123d576112ec6126ad565b604051636ff2e90560e11b8152600481018390526001600160a01b0382166024820152602081806044810103817f00000000000000000000000000000000000000000000000000000000000000006001600160a01b03165afa908115610ad15784916116f5575b50156116d457506040516320c94b1360e11b815260048101829052610380816024817f00000000000000000000000000000000000000000000000000000000000000006001600160a01b03165afa9081156116c957839161143e575b5060016102408192015160021c160361142b578192816113dd935283602052600401906040842054906145c4565b90604051918291602083016020845282518091526020604085019301915b818110611409575050500390f35b82516001600160a01b03168452859450602093840193909201916001016113fb565b6378848a3960e01b825260045260249150fd5b8091506103803d81116116c2575b6114568183611fb8565b8101036103808112610cdc576101208112610cdc5760405161012081018181106001600160401b038211176116ae57604052611491836124b0565b815261149f602084016124b0565b60208201526114b0604084016124b0565b60408201526114c1606084016124b0565b60608201526114d2608084016124c3565b608082015260a08301516001600160701b03811681036116aa5760a08201526114fd60c084016124c3565b60c082015260e08301516001600160a01b03811681036116aa5760e08201526101008381015191015261026061011f1990910112610ab8576001610240819261169e6103606040519261154f84611f2f565b61155c61012082016124d4565b845261156b61014082016124d4565b602085015261157d61016082016124c3565b604085015261158f61018082016124e3565b60608501526115a16101a082016124e3565b60808501526115b36101c082016124e3565b60a08501526115c56101e082016124e3565b60c08501526115d761020082016124e3565b60e08501526115e961022082016124e3565b6101008501526115fa8582016124e3565b61012085015261160d61026082016124e3565b61014085015261162061028082016124e3565b6101608501526116336102a082016124e3565b6101808501526116466102c082016124e3565b6101a08501526116596102e082016124e3565b6101c085015261166c61030082016124e3565b6101e085015261167f61032082016124e3565b61020085015261169261034082016124f0565b610220850152016124d4565b828201529250506113af565b8580fd5b634e487b7160e01b86526041600452602486fd5b503d61144c565b6040513d85823e3d90fd5b6355e03cb160e11b83526004919091526001600160a01b0316602452604490fd5b90506020813d602011611727575b8161171060209383611fb8565b81010312610cdc57611721906124e3565b5f611353565b3d9150611703565b50346101585780600319360112610158576040517f00000000000000000000000000000000000000000000000000000000000000006001600160a01b03168152602090f35b5034610158576020366003190112610158576020611790611e5a565b6040517f00000000000000000000000000000000000000000000000000000000000000006001600160a01b039081169216919091148152f35b50608036600319011261121257600435602435916001600160401b0383116112125760a06003198436030112611212576044356001600160401b03811161121257611818903690600401611e9a565b939092606435936001600160401b038511611212576040600319863603011261121257811591808315611bd657506001600160a01b03905061185b6104b06126ad565b166bffffffffffffffffffffffff60a01b5f5c16175f5d60405163180e2b1160e31b8152306004820152602081602481347f00000000000000000000000000000000000000000000000000000000000000006001600160a01b03165af1908115611b70575f91611b9c575b50916119e2966118f992602094976bffffffffffffffffffffffff60a01b5f5c165f5d5b60040192866004019089612e3c565b91906040519061190882611eca565b60608252606083830152606060408301525f6060830152606060808301526012604060a08401815161193981611ef9565b606081525f878201525f838201528152815161195481611f14565b5f81525f878201525f838201525f60608201525f608082015260c086015261197e60248901611fd9565b63ffffffff87835101911690525101526119966126ad565b60405190848201925f8452604083015260018060a01b03166060820152606081526119c2608082611fb8565b5190206040516337b4a3c360e11b815297889283929089600485016120bd565b03815f7f00000000000000000000000000000000000000000000000000000000000000006001600160a01b03165af1948515611b70575f95611b7b575b506001600160a01b03851691823b156112125760405163f2fde38b60e01b81527f00000000000000000000000000000000000000000000000000000000000000006001600160a01b03166004820181905293905f8160248183865af18015611b7057611b5b575b50604051611a9560a082611fb8565b6004815260803660208301376018611ab3606086019280845261231f565b526019611ac08251612340565b528051805160021015611b47576060601a91015251805160031015611b3357601b6080919091015260208301526001600160a01b0390611b0290604401612364565b166040820152813b15610ab857610a6d83928392604051948580948193636aca94ff60e11b83528a60048401612378565b634e487b7160e01b86526032600452602486fd5b634e487b7160e01b87526032600452602487fd5b611b689195505f90611fb8565b5f935f611a86565b6040513d5f823e3d90fd5b611b9591955060203d602011610ece57610ebf8183611fb8565b935f611a1f565b919290506020823d602011611bce575b81611bb960209383611fb8565b810103126112125790519091906119e26118c6565b3d9150611bac565b96929695909534611bf35750956020926118f9926119e2986118ea565b634f6bc9ef60e01b5f526004523460245260445ffd5b34611212575f3660031901126112125760206040516127108152f35b34611212575f366003190112611212576040517f00000000000000000000000000000000000000000000000000000000000000006001600160a01b03168152602090f35b34611212575f366003190112611212576040515f5c6001600160a01b03168152602090f35b34611212575f366003190112611212576040517f00000000000000000000000000000000000000000000000000000000000000006001600160a01b03168152602090f35b34611212575f3660031901126112125760206040517f00000000000000000000000000000000000000000000000000000000000000008152f35b3461121257608036600319011261121257611d25611e5a565b50611d2e611e70565b506064356001600160401b03811161121257366023820112156112125780600401356001600160401b0381116112125736910160240111611212577f00000000000000000000000000000000000000000000000000000000000000006001600160a01b0316330361121257604051630a85bd0160e11b8152602090f35b34611212575f366003190112611212576040517f00000000000000000000000000000000000000000000000000000000000000006001600160a01b03168152602090f35b34611212576020366003190112611212576004359063ffffffff60e01b821680920361121257602091634cbdc3fb60e11b8114908115611e49575b8115611e38575b5015158152f35b63296eee5160e01b14905083611e31565b630a85bd0160e11b81149150611e2a565b600435906001600160a01b038216820361121257565b602435906001600160a01b038216820361121257565b35906001600160a01b038216820361121257565b9181601f84011215611212578235916001600160401b038311611212576020808501946060850201011161121257565b60e081019081106001600160401b03821117611ee557604052565b634e487b7160e01b5f52604160045260245ffd5b606081019081106001600160401b03821117611ee557604052565b60a081019081106001600160401b03821117611ee557604052565b61026081019081106001600160401b03821117611ee557604052565b60c081019081106001600160401b03821117611ee557604052565b608081019081106001600160401b03821117611ee557604052565b604081019081106001600160401b03821117611ee557604052565b61010081019081106001600160401b03821117611ee557604052565b90601f801991011681019081106001600160401b03821117611ee557604052565b3563ffffffff811681036112125790565b9081602091031261121257516001600160a01b03811681036112125790565b805180835260209291819084018484015e5f828201840152601f01601f1916010190565b90602080835192838152019201905f5b81811061204a5750505090565b909192602060c0600192865163ffffffff81511682526001600160401b03848201511684830152848060a01b03604082015116604083015260608101511515606083015265ffffffffffff608082015116608083015260a08580821b039101511660a0820152019401910191909161203d565b92909391938352606060208401526121416121186121026120ec875161016060608901526101c0880190612009565b6020880151878203605f19016080890152612009565b6040870151868203605f190160a0880152612009565b60608601516001600160a01b031660c08601526080860151858203605f190160e0870152612009565b9360a081015190605f198587030161010086015260608601918051926060885283518091526080880190602060808260051b8b01019501915f905b8282106121ee57505050506080916040949596978560ff818563ffffffff602060c09801511660208601520151169101520151805115156101208801526020810151151561014088015283810151151561016088015260608101511515610180880152015115156101a0860152930152565b909192956020806122fa6001938e607f199082030186526102206101408c516001600160681b03815116845263ffffffff86820151168685015263ffffffff604082015116604085015261ffff6060820151166060850152878060a01b03608082015116608085015260a081015160a085015262ffffff60c08201511660c085015260ff60e08201511660e085015260c0610100820151805115156101008701528781015115156101208701526040810151151584870152606081015115156101608701526080810151151561018087015260a081015115156101a0870152015115156101c085015263ffffffff610120820151166101e085015201519181610200820152019061202d565b98019201920190929161217c565b6001600160401b038111611ee55760051b60200190565b80511561232c5760200190565b634e487b7160e01b5f52603260045260245ffd5b80516001101561232c5760400190565b805182101561232c5760209160051b010190565b356001600160a01b03811681036112125790565b91908252604060208301526101008201908051604084015260018060a01b03602082015116606084015260018060a01b03604082015116608084015260608101519160c060a08501528251809152602061012085019301905f5b81811061249a57505050608081015191603f198482030160c0850152602080845192838152019301905f5b8181106124625750505060a001519160e0603f1982840301910152602080835192838152019201905f5b8181106124345750505090565b825180516001600160a01b0316855260209081015160ff168186015260409094019390920191600101612427565b8251805186526020818101516001600160a01b03168188015260409182015191870191909152606090950194909201916001016123fd565b82518552602094850194909201916001016123d2565b519065ffffffffffff8216820361121257565b519063ffffffff8216820361121257565b519061ffff8216820361121257565b5190811515820361121257565b51906001600160a01b038216820361121257565b6001600160401b038111611ee557601f01601f191660200190565b81601f820112156112125780359061253682612504565b926125446040519485611fb8565b8284526020838301011161121257815f926020809301838601378301015290565b35906001600160681b038216820361121257565b359063ffffffff8216820361121257565b359061ffff8216820361121257565b359062ffffff8216820361121257565b359060ff8216820361121257565b3590811515820361121257565b35906001600160401b038216820361121257565b359065ffffffffffff8216820361121257565b9291926125f782612308565b936126056040519586611fb8565b60c060208685815201930282019181831161121257925b8284106126295750505050565b60c08483031261121257602060c09160405161264481611f4b565b61264d87612579565b815261265a8388016125c4565b8382015261266a60408801611e86565b604082015261267b606088016125b7565b606082015261268c608088016125d8565b608082015261269d60a08801611e86565b60a082015281520193019261261c565b6014361015806126d4575b156126d0576013193601368111611212573560601c90565b3390565b50337f00000000000000000000000000000000000000000000000000000000000000006001600160a01b0316146126b8565b803b156127b2575f80604051602081019063296eee5160e01b825260048152612730602482611fb8565b5190845afa3d156127aa573d9061274682612504565b916127546040519384611fb8565b82523d5f602084013e5b15801561279f575b61279b5760208180518101031261121257602001516001600160a01b038116908190036112125780612796575090565b905090565b5090565b506020815110612766565b60609061275e565b90565b903590607e1981360301821215611212570190565b903590601e198136030182121561121257018035906001600160401b0382116112125760200191813603831361121257565b908060209392818452848401375f828201840152601f01601f1916010190565b90602080835192838152019201905f5b8181106128395750505090565b825180516001600160e01b0316855260209081015163ffffffff16818601526040909401939092019160010161282c565b9080602083519182815201916020808360051b8301019401925f915b83831061289557505050505090565b9091929394601f19828203018352855161034082019065ffffffffffff815116835263ffffffff60208201511660208401526001600160701b03604082015116604084015263ffffffff606082015116606084015260018060a01b03608082015116608084015261ffff61024060a08301518281511660a08701528260208201511660c087015263ffffffff60408201511660e0870152606081015115156101008701526080810151151561012087015260a0810151151561014087015260c0810151151561016087015260e0810151151561018087015261010081015115156101a087015261012081015115156101c087015261014081015115156101e0870152610160810151151561020087015261018081015115156102208701526101a08101511515828701526101c081015115156102608701526101e0810151151561028087015261020081015115156102a087015260018060a01b03610220820151166102c08701520151166102e084015260c0810151916103406103008501528251809152610360840160206103608360051b8701019401915f5b818110612af0575050505060e0015191610320818303910152815180825260208201906020808260051b8501019401925f5b828110612a8357505050505060208060019297019301930191939290612886565b9091929394602080612ae3600193601f19878203018952895190858060a01b038251168152858060a01b038483015116848201526060612ad2604084015160806040850152608084019061281c565b92015190606081840391015261281c565b9701950193929101612a62565b90919294602080612b1f60019361035f198b82030188526040838b51805184520151918185820152019061202d565b97019401929101612a30565b9080602083519182815201916020808360051b8301019401925f915b838310612b5657505050505090565b9091929394601f1982820301835285516020606081604085019360018060a01b0381511686520151936040838201528451809452019201905f905b808210612bb05750505060208060019297019301930191939290612b47565b9091926020606060019263ffffffff60408851868060a01b03815116845260ff8682015116868501520151166040820152019401920190612b91565b903590601e198136030182121561121257018035906001600160401b03821161121257602001918160051b3603831361121257565b901561232c5780359061011e1981360301821215611212570190565b919081101561232c5760051b8101359061011e1981360301821215611212570190565b919081101561232c576060020190565b356001600160701b03811681036112125790565b9035601e19823603018112156112125701602081359101916001600160401b03821161121257813603831361121257565b9035601e19823603018112156112125701602081359101916001600160401b038211611212578160051b3603831361121257565b9035601e19823603018112156112125701602081359101916001600160401b03821161121257606082023603831361121257565b90602083828152019260208260051b82010193835f925b848410612d445750505050505090565b909192939495601f198282030184528635605e198436030181121561121257606082019190840180356001600160a01b0381169081900361121257608091612d9c918452602081013560208501526040810190612ce9565b60606040850152938490529101915f905b808210612dcd575050506020806001929801940194019294939190612d34565b909192606080600192838060a01b03612de588611e86565b16815263ffffffff612df960208901612579565b16602082015260408701356040820152019401920190612dad565b90602080612e33612e258580612cb5565b604086526040860191612d1d565b93013591015290565b60c0526101809190915261020091909152604051935f92612e5c86611f4b565b5f86525f60208701525f604087015260608087015260606080870152606060a08701528592612e946080610180510161018051612bec565b90501561459d57612eae6080610180510161018051612bec565b9050612ecc612ebc82612308565b6040516101205261012051611fb8565b806101205152612ede601f1991612308565b015f5b81811061458357505063ffffffff612faf612f0160206101805101611fd9565b612f1060606101805101614861565b612f9b612f2c612f2661018051610180516127b5565b806127ca565b90612f89612f4d612f4361018051610180516127b5565b60208101906127ca565b9290936060612f6261018051610180516127b5565b0135966040519a8b991660208a01521515604089015260a0606089015260c08801916127fc565b858103601f19016080870152916127fc565b9060a083015203601f198101835282611fb8565b61010052612fcf612fbf83612308565b6040516101405261014051611fb8565b816101405152601f19612fe183612308565b015f5b8181106145505750505f5b82811061442c57505f945f5b61300e6080610180510161018051612bec565b90508110156130bf57613041613037826130316080610180510161018051612bec565b90612c3d565b602081019061486e565b905f5b82811061305657505050600101612ffb565b6001600160681b03613074602061306e848787612c60565b016148a3565b1615158061309e575b61308a575b600101613044565b98613096600191614773565b999050613082565b506130b26130ad828585612c60565b611fd9565b63ffffffff16461461307d565b5090919293949695966130e46130d482612308565b6040516101e0526101e051611fb8565b806101e051526130f6601f1991612308565b015f5b8181106143ee5750505f6101a08190526101608190526102405260406101c0525b61312d6080610180510161018051612bec565b90506102405110156137f85761315961314f6080610180510161018051612bec565b6102405191612c3d565b6102205261ffff6131716101c05161022051016148b7565b161515806137dc575b6137ae5761024051158080613793575b156137795742905b158061376c575b61374c57806101605261271061ffff6131b760e061022051016148b7565b161015613721576131cd60206101805101611fd9565b6131dc60606101805101614861565b6131e461481e565b5063ffffffff6131f2614795565b9261ffff6132076101c05161022051016148b7565b16845261ffff61321c60e061022051016148b7565b166020850152166101c05183015215156101c0820152600160a082015260016101e0820152600161020082015260018060a01b037f00000000000000000000000000000000000000000000000000000000000000001661022082015261ffff61328b61010061022051016148b7565b166102408201526101c05151916132a56101c05184611fb8565b600183525f5b6101c051601f1901811061370a5750610220516132cc9060608101906148c6565b906101c05151916132dc83611f81565b6001835236906132eb926125eb565b60208201526132f98461231f565b526133038361231f565b5061022051613311906148fb565b926102205160a0019361332385611fd9565b91610220516080019461333586612c70565b936102205160c0019461334786611fd9565b916101c051519561335787611f9c565b65ffffffffffff16865263ffffffff1660208601526001600160701b03166101c05185015263ffffffff166060840152608083015f905260a083015260c08201526101405160e08201526102405161012051906133b391612350565b526102405161012051906133c691612350565b506101c05161022051016133d9906148b7565b926133e390612c70565b936133ed90611fd9565b906133f790611fd9565b6102205160e001613407906148b7565b906102205161010001613419906148b7565b926101c051519687966020880161010090526101208801610100519061343e91612009565b966101c05189015261ffff1660608801526001600160701b0316608087015263ffffffff1660a086015263ffffffff1660c085015261ffff1660e084015261ffff1661010083015203601f19810182526134989082611fb8565b610100525f5b6134b1602061022051016102205161486e565b90508110156136fa576134d7816134d1602061022051016102205161486e565b90612c60565b60e08190526101c0516001600160a01b03916134f39101612364565b16156136e1576001906001600160681b03613512602060e051016148a3565b16156136dc5761352360e051611fd9565b61359a6135366101c05160e05101612364565b613544602060e051016148a3565b926001600160681b036101c051519485936080602086015263ffffffff61357160a0870161010051612009565b94166101c051860152888060a01b0316606085015216608083015203601f198101835282611fb8565b610100524663ffffffff6135af60e051611fd9565b16036136dc576135c2610240514261490e565b6135d26101c05160e05101612364565b906135e1602060e051016148a3565b916135ea6126ad565b6001600160681b036101c0515194168452858060a01b03166020840152848060a01b0316917f5c05d79eeb764b1f5069fb55a8558e8a5cec91813a64282bc198dc9084c75df060c051916101c05190a46001600160681b0361364f610240514261490e565b61365f6101c05160e05101612364565b60a052613670602060e051016148a3565b906101c05151608052613684608051611ef9565b60805152838060a01b0360a0511660206080510152166101c05160805101526136d46101a0516136b66101a051614773565b6101a0526080516136ca826101e051612350565b526101e051612350565b505b0161349e565b6136d6565b63215178a360e01b5f526102405160045260245260445ffd5b506102408051600101905261311a565b60209061371561491b565b828287010152016132ab565b61ffff61373360e061022051016148b7565b6380922c6d60e01b5f521660045261271060245260445ffd5b63ba2fe6f360e01b5f52610240516004526101605160245260445260645ffd5b5061016051811115613199565b65ffffffffffff61378c610220516148fb565b1690613192565b5065ffffffffffff6137a7610220516148fb565b161561318a565b61ffff6137c26101c05161022051016148b7565b63088a7fb560e41b5f52610240516004521660245260445ffd5b506137f060606102205101610220516148c6565b90501561317a565b6101005180516020909101206101e051608088015296949593948794929391929091907f00000000000000000000000000000000000000000000000000000000000000006001600160a01b0316156143e55760ff60025b169461385a86612308565b9561386a6101c051519788611fb8565b808752613879601f1991612308565b015f5b8181106143ce5750506101c0515161389381611f81565b7f00000000000000000000000000000000000000000000000000000000000000006001600160a01b031681526138c884612308565b6138d76101c051519182611fb8565b8481526020810136606087026102005101116112125761020051905b606087026102005101821061437757505060208201526139128761231f565b5261391c8661231f565b507f00000000000000000000000000000000000000000000000000000000000000006001600160a01b031661430b575b60c0515f525f602052866101c0515f205515614171575b602061398461397861018051610180516127b5565b6101c0518101906127ca565b826139e36139d16139bc6101c096959651519687956307128b6b60e31b875260c051600488015260a0602488015260a48701916127fc565b8481036003190160448601526101205161286a565b8381036003190160648501528a612b2b565b82810360031981016084850152908990520181886001600160a01b037f0000000000000000000000000000000000000000000000000000000000000000165af1801561416457614135575b50613a56613a4e613a486080610180510161018051612bec565b90612c21565b60c051614934565b9052613b0d6020613a70612f2661018051610180516127b5565b613b1f613a8f613a8661018051610180516127b5565b858101906127ca565b91906060613aa361018051610180516127b5565b01358c613adc613ab16126ad565b6101c051518a810194855260208501939093526001600160a01b0316604084015281606084016108b9565b519020926101c051519788968796635817819160e01b885260c05160048901526080602489015260848801916127fc565b858103600319016044870152916127fc565b60648301919091520381877f00000000000000000000000000000000000000000000000000000000000000006001600160a01b03165af180156141285761410b575b50825b8181106140775750507f00000000000000000000000000000000000000000000000000000000000000006001600160a01b0316803b15610ab8576101c05151632142170760e11b815260c0513060048301527f00000000000000000000000000000000000000000000000000000000000000006001600160a01b0316602483015260448201529083908290606490829084905af1801561406a57908391614055575b50506020810135614042575b613c1a6126ad565b916101c051519360c085526101805135607e1961018051360301811215610ab857610180510160a060c08701526060613cb3613c90613c6f613c5c8580612c84565b60806101608d01526101e08c01916127fc565b613c7c6020860186612c84565b8b830361015f19016101808d0152906127fc565b613c9f6101c051850185612c84565b8a830361015f19016101a08c0152906127fc565b9101356101c087015263ffffffff613cd060206101805101612579565b1660e08701526101c051610180516001600160a01b0391613cf19101611e86565b16610100870152613d07606061018051016125b7565b1515610120870152613d226080610180510161018051612cb5565b60bf92919219888303016101408901528082526020820160208260051b840101958481945b848610613dd35750505050505050849392613d9183613da1937fb9a95983be1f2c4cbad2f5a32c4606b35d2a6ac166a79dbcdf955a30061314f898613db296036020890152612b2b565b908582036101c051870152612e14565b83810360608501526101205161286a565b60808301949094526001600160a01b031660a082015260c0519281900390a2565b90919293949597601f1982820301855288359061011e1984360301821215610dbe5761012081019165ffffffffffff613e0d8683016125d8565b168252613e208186016020810190612ce9565b61012060208501529384905261014083019387905b808210613fe75750505061ffff613e526101c0518784010161258a565b166101c05183015260608582010135601e198683013603018112156111e45785820101602081359101936001600160401b038211610ff65760c0820236038513610ff6578381036060850152818152602001939087905b808210613f4857505050608085820101356001600160701b0381168091036111e457928261010061ffff613f33828a6020989760019a60808b9a015263ffffffff613ef860a084840101612579565b1660a088015263ffffffff613f1160c084840101612579565b1660c088015284613f2660e08484010161258a565b1660e0880152010161258a565b169101529a0195019601949395929190613d47565b90919460c08060019263ffffffff613f5f8a612579565b1681526001600160401b03613f7660208b016125c4565b166020820152838060a01b03613f906101c0518b01611e86565b166101c051820152613fa460608a016125b7565b1515606082015265ffffffffffff613fbe60808b016125d8565b166080820152838060a01b03613fd660a08b01611e86565b1660a0820152019601920190613ea9565b90919460608060019263ffffffff613ffe8a612579565b1681526001600160681b0361401560208b01612565565b166020820152838060a01b0361402f6101c0518b01611e86565b166101c051820152019601920190613e35565b61404f818560c0516145c4565b50613c12565b8161405f91611fb8565b61123d57815f613c06565b6101c051513d85823e3d90fd5b61408d614088828461020051612c60565b612364565b602061409d838561020051612c60565b013560ff811681036116aa5760019291614105916140cc6101c0516140c6868961020051612c60565b01611fd9565b6140db60206101805101611fd9565b916140fc60806140f6613a4882610180510161018051612bec565b01612c70565b9360c0516149ca565b01613b64565b6141239060203d602011610ece57610ebf8183611fb8565b613b61565b6101c051513d86823e3d90fd5b6020813d60201161415c575b8161414e60209383611fb8565b810103126112125751613a2e565b3d9150614141565b6101c051513d87823e3d90fd5b6101c051516331a9108f60e11b815260c05160048201526020816024817f00000000000000000000000000000000000000000000000000000000000000006001600160a01b03165afa908115614296575f916142d1575b506141d16126ad565b6001600160a01b038281169116036142a3577f00000000000000000000000000000000000000000000000000000000000000006001600160a01b03163b15611212576101c05151632142170760e11b815260c0516001600160a01b0392831660048301523060248301526044820152905f908290606490829084907f0000000000000000000000000000000000000000000000000000000000000000165af1801561429657614281575b50613963565b61428e9194505f90611fb8565b5f925f61427b565b6101c051513d5f823e3d90fd5b6142ab6126ad565b6355e03cb160e11b5f90815260c0516004526001600160a01b0391909116602452604490fd5b90506020813d602011614303575b816142ec60209383611fb8565b81010312611212576142fd906124f0565b5f6141c8565b3d91506142df565b6101c0515161431b602082611fb8565b5f81526101c051519061432d82611f81565b7f00000000000000000000000000000000000000000000000000000000000000006001600160a01b03168252602082015261436787612340565b5261437186612340565b5061394c565b6060823603126112125760206060916101c0515161439481611ef9565b61439d85611e86565b81526143aa8386016125a9565b838201526143bc6101c0518601612579565b6101c0518201528152019101906138f3565b6020906143d961491b565b82828b0101520161387c565b60ff600161384f565b6020905f99939495969798995060405161440781611ef9565b5f81525f838201525f604082015282826101e0510101520197969594939291976130f9565b61443a818461020051612c60565b60408051919061444a9083611fb8565b6001825260205f5b81811061452d5750508061446b60406144a69301611fd9565b63ffffffff6040519161447d83611f81565b6001600160e01b0383521660208201526144968461231f565b526144a08361231f565b50612364565b906040516144b5602082611fb8565b5f8152906001939291604051926144cb84611f66565b858060a01b037f0000000000000000000000000000000000000000000000000000000000000000168452858060a01b03166020840152604083015260608201526145188261014051612350565b526145268161014051612350565b5001612fef565b60209060405161453c81611f81565b5f81525f8382015282828701015201614452565b60209060405161455f81611f66565b5f81525f838201526060604082015260608082015282826101405101015201612fe4565b60209061458e61481e565b82826101205101015201612ee1565b6145b06080610180510161018051612bec565b9050630785c91960e11b5f5260045260245ffd5b9161469e9261466f5f93827f300339ade500635ed72eec6541728d68d312f6e82257c0538a88effe214ec6066145f86126ad565b604051809185825260606020830152614614606083018a612e14565b6001600160a01b0390911660408301520390a26108b96146656146356126ad565b604080516020808201968752890135918101919091526001600160a01b0390911660608201529182906080820190565b5190209280612bec565b94906040519586948594639d7f900160e01b865260048601526024850152606060448501526064840191612d1d565b0381837f00000000000000000000000000000000000000000000000000000000000000006001600160a01b03165af1908115611b70575f916146de575090565b90503d805f833e6146ef8183611fb8565b810190602081830312611212578051906001600160401b03821161121257019080601f8301121561121257815161472581612308565b926147336040519485611fb8565b81845260208085019260051b82010192831161121257602001905b82821061475b5750505090565b60208091614768846124f0565b81520191019061474e565b5f1981146147815760010190565b634e487b7160e01b5f52601160045260245ffd5b604051906147a282611f2f565b5f610240838281528260208201528260408201528260608201528260808201528260a08201528260c08201528260e08201528261010082015282610120820152826101408201528261016082015282610180820152826101a0820152826101c0820152826101e082015282610200820152826102208201520152565b6040519061482b82611f9c565b606060e0835f81525f60208201525f60408201525f838201525f6080820152614852614795565b60a08201528260c08201520152565b3580151581036112125790565b903590601e198136030182121561121257018035906001600160401b0382116112125760200191606082023603831361121257565b356001600160681b03811681036112125790565b3561ffff811681036112125790565b903590601e198136030182121561121257018035906001600160401b038211611212576020019160c082023603831361121257565b3565ffffffffffff811681036112125790565b9190820180921161478157565b6040519061492882611f81565b60606020835f81520152565b919065ffffffffffff614946826148fb565b16159081156149ae575b506149a95762093a80420191824211614781577f48a9634f50564cfe6648ff5e75795a36873bf96c408523d50017032657e671988361498d6126ad565b604080519283526001600160a01b0391909116602083015290a2565b5f9150565b6149b891506148fb565b65ffffffffffff42911610155f614950565b939160ff90959391951690604d8211614781576001600160701b0382600a0a94169283155f14614c1357505050505f5b80614a9f5750600160601b9290505b7f00000000000000000000000000000000000000000000000000000000000000006001600160a01b0316803b15611212576040516349e3038360e01b81526004810193909352612710602484015260c860448401526202a30060648401526001600160a01b039182166084840152921660a4820152905f90829060c490829084905af1614a935750565b5f614a9d91611fb8565b565b6001600160a01b03841661eeee03614c0d575f5b604051630760c75760e21b81526020816004817f00000000000000000000000000000000000000000000000000000000000000006001600160a01b03165afa908115611b70575f91614bca575b5060405163ea78803f60e01b81526004810186905290602090829060249082906001600160a01b03165afa908115611b70575f91614bab575b506001600160a01b03169081158015614b99575b15614b715750600160601b94925050505b6001600160a01b038316614a0957505050565b6001600160a01b03161015614b905790614b8a91614ec2565b91614b5e565b614b8a91614ec2565b506001600160a01b0381168214614b4d565b614bc4915060203d602011610ece57610ebf8183611fb8565b5f614b39565b90506020813d602011614c05575b81614be560209383611fb8565b8101031261121257516001600160a01b0381168103611212576020614b00565b3d9150614bd8565b83614ab3565b63ffffffff9182169116818103614c2c575050506149fa565b6040516307aaf34d60e21b81526020816004817f00000000000000000000000000000000000000000000000000000000000000006001600160a01b03165afa908115611b70575f91614d15575b506020926084916040519586948593631df139fd60e11b85528b600486015260248501526044840152606483015260018060a01b03165afa5f9181614ce1575b50614cc5575050505050565b8015614cda5782614cd592614e22565b6149fa565b5050505050565b9091506020813d602011614d0d575b81614cfd60209383611fb8565b810103126112125751905f614cb9565b3d9150614cf0565b90506020813d602011614d50575b81614d3060209383611fb8565b8101031261121257516001600160a01b0381168103611212576020614c79565b3d9150614d23565b8115614d62570490565b634e487b7160e01b5f52601260045260245ffd5b5f19600160c01b8209918160c01b91828085109403938085039414614e165781841015614df9578190600160c01b9009600182190182168092046002816003021880820260020302808202600203028082026002030280820260020302808202600203028091026002030293600183805f03040190848311900302920304170290565b630c740aef60e31b5f52600452600160c01b60245260445260645ffd5b50906127b29250614d58565b90915f198383099280830292838086109503948086039514614eb55782851015614e9d5790829109600182190182168092046002816003021880820260020302808202600203028082026002030280820260020302808202600203028091026002030293600183805f03040190848311900302920304170290565b630c740aef60e31b5f5260045260245260445260645ffd5b5050906127b29250614d58565b907801000000000000000100000000000000010000000000000001811115614f25575f195b8115908115614f1b575b50614f15576001600160a01b0391614f1191614f0c91614d76565b614f54565b1690565b50505f90565b905082115f614ef1565b806001600160401b03026001600160401b038104820315614ee757634e487b7160e01b5f52601160045260245ffd5b9081156149a957816001600160801b821015615073575b600482600160401b61501d941015615066575b640100000000811015615059575b6201000081101561504c575b610100811015615040575b6010811015615034575b101561502c575b614fbe8185614d58565b0160011c614fcc8185614d58565b0160011c614fda8185614d58565b0160011c614fe88185614d58565b0160011c614ff68185614d58565b0160011c6150048185614d58565b0160011c6150128185614d58565b0160011c8093614d58565b808310156150285750565b9150565b60011b614fb4565b811c9160021b91614fad565b60081c91811b91614fa3565b60101c9160081b91614f98565b60201c9160101b91614f8c565b60401c9160201b91614f7e565b5050608082901c600160401b614f6b56fea164736f6c634300081c000a",
	"gitCommit": "npm:@rev-net/core-v6@1.0.1",
	"gitDirty": false,
	"history": []
}